{
  "_format": "hh-sol-artifact-1",
  "contractName": "Ownable",
  "sourceName": "contracts/Ownable.sol",
  "abi": [
    {
      "anonymous": false,
      "inputs": [
        {
          "indexed": false,
          "internalType": "uint8",
          "name": "version",
          "type": "uint8"
        }
      ],
      "name": "Initialized",
      "type": "event"
    },
    {
      "anonymous": false,
      "inputs": [
        {
          "indexed": false,
          "internalType": "address",
          "name": "previousOwner",
          "type": "address"
        },
        {
          "indexed": false,
          "internalType": "address",
          "name": "newOwner",
          "type": "address"
        }
      ],
      "name": "OwnershipTransferred",
      "type": "event"
    },
    {
      "inputs": [],
      "name": "_owner",
      "outputs": [
        {
          "internalType": "address",
          "name": "",
          "type": "address"
        }
      ],
      "stateMutability": "view",
      "type": "function"
    },
    {
      "inputs": [],
      "name": "initialize",
      "outputs": [],
      "stateMutability": "nonpayable",
      "type": "function"
    },
    {
      "inputs": [],
      "name": "owner",
      "outputs": [
        {
          "internalType": "address",
          "name": "",
          "type": "address"
        }
      ],
      "stateMutability": "view",
      "type": "function"
    },
    {
      "inputs": [
        {
          "internalType": "address",
          "name": "newOwner",
          "type": "address"
        }
      ],
      "name": "transferOwnership",
      "outputs": [],
      "stateMutability": "nonpayable",
      "type": "function"
    }
  ],
  "bytecode": "0x608060405234801561001057600080fd5b5061065e806100206000396000f3fe608060405234801561001057600080fd5b506004361061004c5760003560e01c80638129fc1c146100515780638da5cb5b1461005b578063b2bdfa7b14610079578063f2fde38b14610097575b600080fd5b6100596100b3565b005b6100636101f2565b60405161007091906103e4565b60405180910390f35b61008161021b565b60405161008e91906103e4565b60405180910390f35b6100b160048036038101906100ac9190610430565b610241565b005b60008060019054906101000a900460ff161590508080156100e45750600160008054906101000a900460ff1660ff16105b8061011157506100f33061033c565b1580156101105750600160008054906101000a900460ff1660ff16145b5b610150576040517f08c379a0000000000000000000000000000000000000000000000000000000008152600401610147906104e0565b60405180910390fd5b60016000806101000a81548160ff021916908360ff160217905550801561018d576001600060016101000a81548160ff0219169083151502179055505b6101963361035f565b80156101ef5760008060016101000a81548160ff0219169083151502179055507f7f26b83ff96e1f2b6a682f133852f6798a09c465da95921460cefb384740249860016040516101e69190610552565b60405180910390a15b50565b60008060029054906101000a900473ffffffffffffffffffffffffffffffffffffffff16905090565b600060029054906101000a900473ffffffffffffffffffffffffffffffffffffffff1681565b6102496101f2565b73ffffffffffffffffffffffffffffffffffffffff163373ffffffffffffffffffffffffffffffffffffffff16146102b6576040517f08c379a00000000000000000000000000000000000000000000000000000000081526004016102ad906105df565b60405180910390fd5b600073ffffffffffffffffffffffffffffffffffffffff168173ffffffffffffffffffffffffffffffffffffffff1614156102f057600080fd5b7f8be0079c531659141344cd1fd0a4f28419497f9722a3daafe3b4186f6b6457e06103196101f2565b826040516103289291906105ff565b60405180910390a16103398161035f565b50565b6000808273ffffffffffffffffffffffffffffffffffffffff163b119050919050565b80600060026101000a81548173ffffffffffffffffffffffffffffffffffffffff021916908373ffffffffffffffffffffffffffffffffffffffff16021790555050565b600073ffffffffffffffffffffffffffffffffffffffff82169050919050565b60006103ce826103a3565b9050919050565b6103de816103c3565b82525050565b60006020820190506103f960008301846103d5565b92915050565b600080fd5b61040d816103c3565b811461041857600080fd5b50565b60008135905061042a81610404565b92915050565b600060208284031215610446576104456103ff565b5b60006104548482850161041b565b91505092915050565b600082825260208201905092915050565b7f496e697469616c697a61626c653a20636f6e747261637420697320616c72656160008201527f647920696e697469616c697a6564000000000000000000000000000000000000602082015250565b60006104ca602e8361045d565b91506104d58261046e565b604082019050919050565b600060208201905081810360008301526104f9816104bd565b9050919050565b6000819050919050565b600060ff82169050919050565b6000819050919050565b600061053c61053761053284610500565b610517565b61050a565b9050919050565b61054c81610521565b82525050565b60006020820190506105676000830184610543565b92915050565b7f596f7520617265206e6f7420617574686f726973656420746f20696e766f6b6560008201527f20746869732066756e6374696f6e000000000000000000000000000000000000602082015250565b60006105c9602e8361045d565b91506105d48261056d565b604082019050919050565b600060208201905081810360008301526105f8816105bc565b9050919050565b600060408201905061061460008301856103d5565b61062160208301846103d5565b939250505056fea26469706673582212203744dec5ecb0233a55d6492002f621571d84f212fe2ec4f15a41319b580ff84e64736f6c63430008090033",
  "linkReferences": {},
  "deployedLinkReferences": {}
}