{
  "_format": "hh-sol-artifact-1",
  "contractName": "SimpleMultiSig",
  "sourceName": "contracts/SimpleMultiSig.sol",
  "abi": [
    {
      "inputs": [
        {
          "internalType": "uint256",
          "name": "threshold_",
          "type": "uint256"
        },
        {
          "internalType": "address[]",
          "name": "owners_",
          "type": "address[]"
        },
        {
          "internalType": "uint256",
          "name": "chainId",
          "type": "uint256"
        }
      ],
      "stateMutability": "nonpayable",
      "type": "constructor"
    },
    {
      "inputs": [
        {
          "internalType": "uint8[]",
          "name": "sigV",
          "type": "uint8[]"
        },
        {
          "internalType": "bytes32[]",
          "name": "sigR",
          "type": "bytes32[]"
        },
        {
          "internalType": "bytes32[]",
          "name": "sigS",
          "type": "bytes32[]"
        },
        {
          "internalType": "address",
          "name": "destination",
          "type": "address"
        },
        {
          "internalType": "uint256",
          "name": "value",
          "type": "uint256"
        },
        {
          "internalType": "bytes",
          "name": "data",
          "type": "bytes"
        },
        {
          "internalType": "address",
          "name": "executor",
          "type": "address"
        },
        {
          "internalType": "uint256",
          "name": "gasLimit",
          "type": "uint256"
        }
      ],
      "name": "execute",
      "outputs": [],
      "stateMutability": "nonpayable",
      "type": "function"
    },
    {
      "inputs": [],
      "name": "nonce",
      "outputs": [
        {
          "internalType": "uint256",
          "name": "",
          "type": "uint256"
        }
      ],
      "stateMutability": "view",
      "type": "function"
    },
    {
      "inputs": [],
      "name": "owners",
      "outputs": [
        {
          "internalType": "address[]",
          "name": "",
          "type": "address[]"
        }
      ],
      "stateMutability": "view",
      "type": "function"
    },
    {
      "inputs": [
        {
          "internalType": "uint256",
          "name": "",
          "type": "uint256"
        }
      ],
      "name": "ownersArr",
      "outputs": [
        {
          "internalType": "address",
          "name": "",
          "type": "address"
        }
      ],
      "stateMutability": "view",
      "type": "function"
    },
    {
      "inputs": [
        {
          "internalType": "uint256",
          "name": "threshold_",
          "type": "uint256"
        },
        {
          "internalType": "address[]",
          "name": "owners_",
          "type": "address[]"
        }
      ],
      "name": "setOwners",
      "outputs": [],
      "stateMutability": "nonpayable",
      "type": "function"
    },
    {
      "inputs": [],
      "name": "threshold",
      "outputs": [
        {
          "internalType": "uint256",
          "name": "",
          "type": "uint256"
        }
      ],
      "stateMutability": "view",
      "type": "function"
    },
    {
      "stateMutability": "payable",
      "type": "receive"
    }
  ],
  "bytecode": "0x60a06040523480156200001157600080fd5b506040516200231338038062002313833981810160405281019062000037919062000680565b6200004983836200011860201b60201c565b7fd87cd6ef79d4e2b95e15ce8abf732db51ec771f1ca2edccf22a46c729ac5647260001b7fb7a0bfa1b79f2443f4d73ebb9259cddbcd510b18be6fc4da7d1aa7b1786e73e660001b7fc89efdaa54c0f20c7adf612882df0950f5a951637e0307cdcb4c672f298b8bc660001b83307f251543af6a222378665a76fe38dbceae4871a070b7fdaf5c6c30cf758dc33cc060001b604051602001620000f29695949392919062000792565b6040516020818303038152906040528051906020012060808181525050505050620009c6565b60148151111580156200012c575080518211155b8015620001395750600082115b6200017b576040517f08c379a0000000000000000000000000000000000000000000000000000000008152600401620001729062000860565b60405180910390fd5b60005b6003805490508110156200023b5760006002600060038481548110620001a957620001a862000882565b5b9060005260206000200160009054906101000a900473ffffffffffffffffffffffffffffffffffffffff1673ffffffffffffffffffffffffffffffffffffffff1673ffffffffffffffffffffffffffffffffffffffff16815260200190815260200160002060006101000a81548160ff02191690831515021790555080806200023290620008e0565b9150506200017e565b506000805b825181101562000383578173ffffffffffffffffffffffffffffffffffffffff1683828151811062000277576200027662000882565b5b602002602001015173ffffffffffffffffffffffffffffffffffffffff1611620002d8576040517f08c379a0000000000000000000000000000000000000000000000000000000008152600401620002cf90620009a4565b60405180910390fd5b600160026000858481518110620002f457620002f362000882565b5b602002602001015173ffffffffffffffffffffffffffffffffffffffff1673ffffffffffffffffffffffffffffffffffffffff16815260200190815260200160002060006101000a81548160ff02191690831515021790555082818151811062000363576200036262000882565b5b6020026020010151915080806200037a90620008e0565b91505062000240565b5081600390805190602001906200039c929190620003a9565b5082600181905550505050565b82805482825590600052602060002090810192821562000425579160200282015b82811115620004245782518260006101000a81548173ffffffffffffffffffffffffffffffffffffffff021916908373ffffffffffffffffffffffffffffffffffffffff16021790555091602001919060010190620003ca565b5b50905062000434919062000438565b5090565b5b808211156200045357600081600090555060010162000439565b5090565b6000604051905090565b600080fd5b600080fd5b6000819050919050565b62000480816200046b565b81146200048c57600080fd5b50565b600081519050620004a08162000475565b92915050565b600080fd5b6000601f19601f8301169050919050565b7f4e487b7100000000000000000000000000000000000000000000000000000000600052604160045260246000fd5b620004f682620004ab565b810181811067ffffffffffffffff82111715620005185762000517620004bc565b5b80604052505050565b60006200052d62000457565b90506200053b8282620004eb565b919050565b600067ffffffffffffffff8211156200055e576200055d620004bc565b5b602082029050602081019050919050565b600080fd5b600073ffffffffffffffffffffffffffffffffffffffff82169050919050565b6000620005a18262000574565b9050919050565b620005b38162000594565b8114620005bf57600080fd5b50565b600081519050620005d381620005a8565b92915050565b6000620005f0620005ea8462000540565b62000521565b905080838252602082019050602084028301858111156200061657620006156200056f565b5b835b818110156200064357806200062e8882620005c2565b84526020840193505060208101905062000618565b5050509392505050565b600082601f830112620006655762000664620004a6565b5b815162000677848260208601620005d9565b91505092915050565b6000806000606084860312156200069c576200069b62000461565b5b6000620006ac868287016200048f565b935050602084015167ffffffffffffffff811115620006d057620006cf62000466565b5b620006de868287016200064d565b9250506040620006f1868287016200048f565b9150509250925092565b6000819050919050565b6200071081620006fb565b82525050565b62000721816200046b565b82525050565b6000819050919050565b6000620007526200074c620007468462000574565b62000727565b62000574565b9050919050565b6000620007668262000731565b9050919050565b60006200077a8262000759565b9050919050565b6200078c816200076d565b82525050565b600060c082019050620007a9600083018962000705565b620007b8602083018862000705565b620007c7604083018762000705565b620007d6606083018662000716565b620007e5608083018562000781565b620007f460a083018462000705565b979650505050505050565b600082825260208201905092915050565b7f496e76616c696420636f6e7374727563746f7220706172616d657465722e0000600082015250565b600062000848601e83620007ff565b9150620008558262000810565b602082019050919050565b600060208201905081810360008301526200087b8162000839565b9050919050565b7f4e487b7100000000000000000000000000000000000000000000000000000000600052603260045260246000fd5b7f4e487b7100000000000000000000000000000000000000000000000000000000600052601160045260246000fd5b6000620008ed826200046b565b91507fffffffffffffffffffffffffffffffffffffffffffffffffffffffffffffffff821415620009235762000922620008b1565b5b600182019050919050565b7f4f776e6572732077657265206e6f7420616464656420696e20617363656e646960008201527f6e67206f726465722e0000000000000000000000000000000000000000000000602082015250565b60006200098c602983620007ff565b915062000999826200092e565b604082019050919050565b60006020820190508181036000830152620009bf816200097d565b9050919050565b608051611931620009e2600039600061031d01526119316000f3fe6080604052600436106100595760003560e01c806342cde4e814610065578063a0ab965314610090578063aa5df9e2146100b9578063affe39c1146100f6578063affed0e014610121578063f3182e851461014c57610060565b3661006057005b600080fd5b34801561007157600080fd5b5061007a610175565b6040516100879190610a48565b60405180910390f35b34801561009c57600080fd5b506100b760048036038101906100b29190610e41565b61017b565b005b3480156100c557600080fd5b506100e060048036038101906100db9190610f67565b6105c6565b6040516100ed9190610fa3565b60405180910390f35b34801561010257600080fd5b5061010b610605565b604051610118919061107c565b60405180910390f35b34801561012d57600080fd5b50610136610693565b6040516101439190610a48565b60405180910390f35b34801561015857600080fd5b50610173600480360381019061016e9190611161565b610699565b005b60015481565b6001548751146101c0576040517f08c379a00000000000000000000000000000000000000000000000000000000081526004016101b79061121a565b60405180910390fd5b855187511480156101d2575087518751145b610211576040517f08c379a0000000000000000000000000000000000000000000000000000000008152600401610208906112ac565b60405180910390fd5b3373ffffffffffffffffffffffffffffffffffffffff168273ffffffffffffffffffffffffffffffffffffffff1614806102775750600073ffffffffffffffffffffffffffffffffffffffff168273ffffffffffffffffffffffffffffffffffffffff16145b6102b6576040517f08c379a00000000000000000000000000000000000000000000000000000000081526004016102ad9061133e565b60405180910390fd5b60007f3ee892349ae4bbe61dce18f95115b5dc02daf49204cc602458cd4c1f540d56d760001b868686805190602001206000548787604051602001610301979695949392919061136d565b60405160208183030381529060405280519060200120905060007f00000000000000000000000000000000000000000000000000000000000000008260405160200161034e929190611454565b6040516020818303038152906040528051906020012090506000805b6001548110156104ef5760006001848e848151811061038c5761038b61148b565b5b60200260200101518e85815181106103a7576103a661148b565b5b60200260200101518e86815181106103c2576103c161148b565b5b6020026020010151604051600081526020016040526040516103e794939291906114c9565b6020604051602081039080840390855afa158015610409573d6000803e3d6000fd5b5050506020604051035190508273ffffffffffffffffffffffffffffffffffffffff168173ffffffffffffffffffffffffffffffffffffffff161180156104995750600260008273ffffffffffffffffffffffffffffffffffffffff1673ffffffffffffffffffffffffffffffffffffffff16815260200190815260200160002060009054906101000a900460ff165b6104d8576040517f08c379a00000000000000000000000000000000000000000000000000000000081526004016104cf90611580565b60405180910390fd5b8092505080806104e7906115cf565b91505061036a565b5060016000546104ff9190611618565b60008190555060008873ffffffffffffffffffffffffffffffffffffffff168886908960405161052f91906116e8565b600060405180830381858888f193505050503d806000811461056d576040519150601f19603f3d011682016040523d82523d6000602084013e610572565b606091505b505080915050806105b8576040517f08c379a00000000000000000000000000000000000000000000000000000000081526004016105af9061174b565b60405180910390fd5b505050505050505050505050565b600381815481106105d657600080fd5b906000526020600020016000915054906101000a900473ffffffffffffffffffffffffffffffffffffffff1681565b6060600380548060200260200160405190810160405280929190818152602001828054801561068957602002820191906000526020600020905b8160009054906101000a900473ffffffffffffffffffffffffffffffffffffffff1673ffffffffffffffffffffffffffffffffffffffff168152602001906001019080831161063f575b5050505050905090565b60005481565b3073ffffffffffffffffffffffffffffffffffffffff163373ffffffffffffffffffffffffffffffffffffffff1614610707576040517f08c379a00000000000000000000000000000000000000000000000000000000081526004016106fe906117dd565b60405180910390fd5b6107118282610715565b5050565b6014815111158015610728575080518211155b80156107345750600082115b610773576040517f08c379a000000000000000000000000000000000000000000000000000000000815260040161076a90611849565b60405180910390fd5b60005b60038054905081101561082c576000600260006003848154811061079d5761079c61148b565b5b9060005260206000200160009054906101000a900473ffffffffffffffffffffffffffffffffffffffff1673ffffffffffffffffffffffffffffffffffffffff1673ffffffffffffffffffffffffffffffffffffffff16815260200190815260200160002060006101000a81548160ff0219169083151502179055508080610824906115cf565b915050610776565b506000805b8251811015610964578173ffffffffffffffffffffffffffffffffffffffff168382815181106108645761086361148b565b5b602002602001015173ffffffffffffffffffffffffffffffffffffffff16116108c2576040517f08c379a00000000000000000000000000000000000000000000000000000000081526004016108b9906118db565b60405180910390fd5b6001600260008584815181106108db576108da61148b565b5b602002602001015173ffffffffffffffffffffffffffffffffffffffff1673ffffffffffffffffffffffffffffffffffffffff16815260200190815260200160002060006101000a81548160ff0219169083151502179055508281815181106109475761094661148b565b5b60200260200101519150808061095c906115cf565b915050610831565b50816003908051906020019061097b929190610988565b5082600181905550505050565b828054828255906000526020600020908101928215610a01579160200282015b82811115610a005782518260006101000a81548173ffffffffffffffffffffffffffffffffffffffff021916908373ffffffffffffffffffffffffffffffffffffffff160217905550916020019190600101906109a8565b5b509050610a0e9190610a12565b5090565b5b80821115610a2b576000816000905550600101610a13565b5090565b6000819050919050565b610a4281610a2f565b82525050565b6000602082019050610a5d6000830184610a39565b92915050565b6000604051905090565b600080fd5b600080fd5b600080fd5b6000601f19601f8301169050919050565b7f4e487b7100000000000000000000000000000000000000000000000000000000600052604160045260246000fd5b610ac582610a7c565b810181811067ffffffffffffffff82111715610ae457610ae3610a8d565b5b80604052505050565b6000610af7610a63565b9050610b038282610abc565b919050565b600067ffffffffffffffff821115610b2357610b22610a8d565b5b602082029050602081019050919050565b600080fd5b600060ff82169050919050565b610b4f81610b39565b8114610b5a57600080fd5b50565b600081359050610b6c81610b46565b92915050565b6000610b85610b8084610b08565b610aed565b90508083825260208201905060208402830185811115610ba857610ba7610b34565b5b835b81811015610bd15780610bbd8882610b5d565b845260208401935050602081019050610baa565b5050509392505050565b600082601f830112610bf057610bef610a77565b5b8135610c00848260208601610b72565b91505092915050565b600067ffffffffffffffff821115610c2457610c23610a8d565b5b602082029050602081019050919050565b6000819050919050565b610c4881610c35565b8114610c5357600080fd5b50565b600081359050610c6581610c3f565b92915050565b6000610c7e610c7984610c09565b610aed565b90508083825260208201905060208402830185811115610ca157610ca0610b34565b5b835b81811015610cca5780610cb68882610c56565b845260208401935050602081019050610ca3565b5050509392505050565b600082601f830112610ce957610ce8610a77565b5b8135610cf9848260208601610c6b565b91505092915050565b600073ffffffffffffffffffffffffffffffffffffffff82169050919050565b6000610d2d82610d02565b9050919050565b610d3d81610d22565b8114610d4857600080fd5b50565b600081359050610d5a81610d34565b92915050565b610d6981610a2f565b8114610d7457600080fd5b50565b600081359050610d8681610d60565b92915050565b600080fd5b600067ffffffffffffffff821115610dac57610dab610a8d565b5b610db582610a7c565b9050602081019050919050565b82818337600083830152505050565b6000610de4610ddf84610d91565b610aed565b905082815260208101848484011115610e0057610dff610d8c565b5b610e0b848285610dc2565b509392505050565b600082601f830112610e2857610e27610a77565b5b8135610e38848260208601610dd1565b91505092915050565b600080600080600080600080610100898b031215610e6257610e61610a6d565b5b600089013567ffffffffffffffff811115610e8057610e7f610a72565b5b610e8c8b828c01610bdb565b985050602089013567ffffffffffffffff811115610ead57610eac610a72565b5b610eb98b828c01610cd4565b975050604089013567ffffffffffffffff811115610eda57610ed9610a72565b5b610ee68b828c01610cd4565b9650506060610ef78b828c01610d4b565b9550506080610f088b828c01610d77565b94505060a089013567ffffffffffffffff811115610f2957610f28610a72565b5b610f358b828c01610e13565b93505060c0610f468b828c01610d4b565b92505060e0610f578b828c01610d77565b9150509295985092959890939650565b600060208284031215610f7d57610f7c610a6d565b5b6000610f8b84828501610d77565b91505092915050565b610f9d81610d22565b82525050565b6000602082019050610fb86000830184610f94565b92915050565b600081519050919050565b600082825260208201905092915050565b6000819050602082019050919050565b610ff381610d22565b82525050565b60006110058383610fea565b60208301905092915050565b6000602082019050919050565b600061102982610fbe565b6110338185610fc9565b935061103e83610fda565b8060005b8381101561106f5781516110568882610ff9565b975061106183611011565b925050600181019050611042565b5085935050505092915050565b60006020820190508181036000830152611096818461101e565b905092915050565b600067ffffffffffffffff8211156110b9576110b8610a8d565b5b602082029050602081019050919050565b60006110dd6110d88461109e565b610aed565b90508083825260208201905060208402830185811115611100576110ff610b34565b5b835b8181101561112957806111158882610d4b565b845260208401935050602081019050611102565b5050509392505050565b600082601f83011261114857611147610a77565b5b81356111588482602086016110ca565b91505092915050565b6000806040838503121561117857611177610a6d565b5b600061118685828601610d77565b925050602083013567ffffffffffffffff8111156111a7576111a6610a72565b5b6111b385828601611133565b9150509250929050565b600082825260208201905092915050565b7f72206c656e677468206e6f7420657175616c20746f207468726573686f6c6400600082015250565b6000611204601f836111bd565b915061120f826111ce565b602082019050919050565b60006020820190508181036000830152611233816111f7565b9050919050565b7f73206f722076206c656e677468206e6f7420657175616c20746f20746872657360008201527f686f6c642e000000000000000000000000000000000000000000000000000000602082015250565b60006112966025836111bd565b91506112a18261123a565b604082019050919050565b600060208201905081810360008301526112c581611289565b9050919050565b7f4578656375746f72206973206e6f74207468652073656e646572206f7220746860008201527f65207a65726f20616464726573732e0000000000000000000000000000000000602082015250565b6000611328602f836111bd565b9150611333826112cc565b604082019050919050565b600060208201905081810360008301526113578161131b565b9050919050565b61136781610c35565b82525050565b600060e082019050611382600083018a61135e565b61138f6020830189610f94565b61139c6040830188610a39565b6113a9606083018761135e565b6113b66080830186610a39565b6113c360a0830185610f94565b6113d060c0830184610a39565b98975050505050505050565b600081905092915050565b7f1901000000000000000000000000000000000000000000000000000000000000600082015250565b600061141d6002836113dc565b9150611428826113e7565b600282019050919050565b6000819050919050565b61144e61144982610c35565b611433565b82525050565b600061145f82611410565b915061146b828561143d565b60208201915061147b828461143d565b6020820191508190509392505050565b7f4e487b7100000000000000000000000000000000000000000000000000000000600052603260045260246000fd5b6114c381610b39565b82525050565b60006080820190506114de600083018761135e565b6114eb60208301866114ba565b6114f8604083018561135e565b611505606083018461135e565b95945050505050565b7f5265636f76657265642061646472657373657320617265206e6f7420696e206160008201527f7363656e64696e67206f726465722e0000000000000000000000000000000000602082015250565b600061156a602f836111bd565b91506115758261150e565b604082019050919050565b600060208201905081810360008301526115998161155d565b9050919050565b7f4e487b7100000000000000000000000000000000000000000000000000000000600052601160045260246000fd5b60006115da82610a2f565b91507fffffffffffffffffffffffffffffffffffffffffffffffffffffffffffffffff82141561160d5761160c6115a0565b5b600182019050919050565b600061162382610a2f565b915061162e83610a2f565b9250827fffffffffffffffffffffffffffffffffffffffffffffffffffffffffffffffff03821115611663576116626115a0565b5b828201905092915050565b600081519050919050565b600081905092915050565b60005b838110156116a2578082015181840152602081019050611687565b838111156116b1576000848401525b50505050565b60006116c28261166e565b6116cc8185611679565b93506116dc818560208601611684565b80840191505092915050565b60006116f482846116b7565b915081905092915050565b7f457865637574696f6e206661696c656400000000000000000000000000000000600082015250565b60006117356010836111bd565b9150611740826116ff565b602082019050919050565b6000602082019050818103600083015261176481611728565b9050919050565b7f4e6f742063616c6c65642066726f6d20746865204d756c746973696720636f6e60008201527f74726163742e0000000000000000000000000000000000000000000000000000602082015250565b60006117c76026836111bd565b91506117d28261176b565b604082019050919050565b600060208201905081810360008301526117f6816117ba565b9050919050565b7f496e76616c696420636f6e7374727563746f7220706172616d657465722e0000600082015250565b6000611833601e836111bd565b915061183e826117fd565b602082019050919050565b6000602082019050818103600083015261186281611826565b9050919050565b7f4f776e6572732077657265206e6f7420616464656420696e20617363656e646960008201527f6e67206f726465722e0000000000000000000000000000000000000000000000602082015250565b60006118c56029836111bd565b91506118d082611869565b604082019050919050565b600060208201905081810360008301526118f4816118b8565b905091905056fea26469706673582212200ed241a0fe9d67626467ecb7dc52039a45c62c13806bf21c0cef5cd1ca7f2ef964736f6c63430008090033",
  "linkReferences": {},
  "deployedLinkReferences": {}
}