{
  "contractName": "Shield",
  "abi": [
    {
      "anonymous": false,
      "inputs": [],
      "name": "BlockProposed",
      "type": "event"
    },
    {
      "anonymous": false,
      "inputs": [
        {
          "indexed": false,
          "internalType": "bytes32",
          "name": "commitHash",
          "type": "bytes32"
        },
        {
          "indexed": false,
          "internalType": "address",
          "name": "sender",
          "type": "address"
        }
      ],
      "name": "CommittedToChallenge",
      "type": "event"
    },
    {
      "anonymous": false,
      "inputs": [
        {
          "indexed": false,
          "internalType": "bytes32",
          "name": "withdrawTransactionHash",
          "type": "bytes32"
        },
        {
          "indexed": false,
          "internalType": "address",
          "name": "paidBy",
          "type": "address"
        },
        {
          "indexed": false,
          "internalType": "uint256",
          "name": "amount",
          "type": "uint256"
        }
      ],
      "name": "InstantWithdrawalRequested",
      "type": "event"
    },
    {
      "anonymous": false,
      "inputs": [
        {
          "indexed": false,
          "internalType": "address",
          "name": "proposer",
          "type": "address"
        }
      ],
      "name": "NewCurrentProposer",
      "type": "event"
    },
    {
      "anonymous": false,
      "inputs": [
        {
          "indexed": false,
          "internalType": "uint256",
          "name": "leafIndex",
          "type": "uint256"
        },
        {
          "indexed": false,
          "internalType": "bytes32",
          "name": "leafValue",
          "type": "bytes32"
        },
        {
          "indexed": false,
          "internalType": "bytes32",
          "name": "root",
          "type": "bytes32"
        }
      ],
      "name": "NewLeaf",
      "type": "event"
    },
    {
      "anonymous": false,
      "inputs": [
        {
          "indexed": false,
          "internalType": "uint256",
          "name": "minLeafIndex",
          "type": "uint256"
        },
        {
          "indexed": false,
          "internalType": "bytes32[]",
          "name": "leafValues",
          "type": "bytes32[]"
        },
        {
          "indexed": false,
          "internalType": "bytes32",
          "name": "root",
          "type": "bytes32"
        }
      ],
      "name": "NewLeaves",
      "type": "event"
    },
    {
      "anonymous": false,
      "inputs": [
        {
          "indexed": false,
          "internalType": "address",
          "name": "previousOwner",
          "type": "address"
        },
        {
          "indexed": false,
          "internalType": "address",
          "name": "newOwner",
          "type": "address"
        }
      ],
      "name": "OwnershipTransferred",
      "type": "event"
    },
    {
      "anonymous": false,
      "inputs": [
        {
          "indexed": true,
          "internalType": "bytes32",
          "name": "blockHash",
          "type": "bytes32"
        },
        {
          "indexed": false,
          "internalType": "uint256",
          "name": "blockNumberL2",
          "type": "uint256"
        },
        {
          "indexed": false,
          "internalType": "uint256",
          "name": "leafCount",
          "type": "uint256"
        }
      ],
      "name": "Rollback",
      "type": "event"
    },
    {
      "anonymous": false,
      "inputs": [],
      "name": "TransactionSubmitted",
      "type": "event"
    },
    {
      "anonymous": false,
      "inputs": [
        {
          "indexed": false,
          "internalType": "enum Structures.TransactionTypes",
          "name": "txType",
          "type": "uint8"
        }
      ],
      "name": "VkChanged",
      "type": "event"
    },
    {
      "inputs": [],
      "name": "_owner",
      "outputs": [
        {
          "internalType": "address",
          "name": "",
          "type": "address"
        }
      ],
      "stateMutability": "view",
      "type": "function",
      "constant": true
    },
    {
      "inputs": [
        {
          "internalType": "bytes32",
          "name": "",
          "type": "bytes32"
        }
      ],
      "name": "advancedFeeWithdrawals",
      "outputs": [
        {
          "internalType": "uint256",
          "name": "",
          "type": "uint256"
        }
      ],
      "stateMutability": "view",
      "type": "function",
      "constant": true
    },
    {
      "inputs": [
        {
          "internalType": "bytes32",
          "name": "",
          "type": "bytes32"
        }
      ],
      "name": "advancedWithdrawals",
      "outputs": [
        {
          "internalType": "address",
          "name": "",
          "type": "address"
        }
      ],
      "stateMutability": "view",
      "type": "function",
      "constant": true
    },
    {
      "inputs": [
        {
          "internalType": "bytes32",
          "name": "",
          "type": "bytes32"
        }
      ],
      "name": "feeBook",
      "outputs": [
        {
          "internalType": "uint256",
          "name": "",
          "type": "uint256"
        }
      ],
      "stateMutability": "view",
      "type": "function",
      "constant": true
    },
    {
      "inputs": [
        {
          "internalType": "enum Structures.TransactionTypes",
          "name": "txType",
          "type": "uint8"
        }
      ],
      "name": "getVerificationKey",
      "outputs": [
        {
          "internalType": "uint256[]",
          "name": "",
          "type": "uint256[]"
        }
      ],
      "stateMutability": "view",
      "type": "function",
      "constant": true
    },
    {
      "inputs": [],
      "name": "owner",
      "outputs": [
        {
          "internalType": "address",
          "name": "",
          "type": "address"
        }
      ],
      "stateMutability": "view",
      "type": "function",
      "constant": true
    },
    {
      "inputs": [
        {
          "internalType": "uint256[]",
          "name": "_vk",
          "type": "uint256[]"
        },
        {
          "internalType": "enum Structures.TransactionTypes",
          "name": "_txType",
          "type": "uint8"
        }
      ],
      "name": "registerVerificationKey",
      "outputs": [],
      "stateMutability": "nonpayable",
      "type": "function"
    },
    {
      "inputs": [
        {
          "internalType": "address payable",
          "name": "stateAddress",
          "type": "address"
        }
      ],
      "name": "setStateContract",
      "outputs": [],
      "stateMutability": "nonpayable",
      "type": "function"
    },
    {
      "inputs": [],
      "name": "state",
      "outputs": [
        {
          "internalType": "contract State",
          "name": "",
          "type": "address"
        }
      ],
      "stateMutability": "view",
      "type": "function",
      "constant": true
    },
    {
      "inputs": [
        {
          "internalType": "address",
          "name": "newOwner",
          "type": "address"
        }
      ],
      "name": "transferOwnership",
      "outputs": [],
      "stateMutability": "nonpayable",
      "type": "function"
    },
    {
      "inputs": [
        {
          "internalType": "enum Structures.TransactionTypes",
          "name": "",
          "type": "uint8"
        },
        {
          "internalType": "uint256",
          "name": "",
          "type": "uint256"
        }
      ],
      "name": "vks",
      "outputs": [
        {
          "internalType": "uint256",
          "name": "",
          "type": "uint256"
        }
      ],
      "stateMutability": "view",
      "type": "function",
      "constant": true
    },
    {
      "inputs": [
        {
          "internalType": "bytes32",
          "name": "",
          "type": "bytes32"
        }
      ],
      "name": "withdrawn",
      "outputs": [
        {
          "internalType": "bool",
          "name": "",
          "type": "bool"
        }
      ],
      "stateMutability": "view",
      "type": "function",
      "constant": true
    },
    {
      "inputs": [
        {
          "components": [
            {
              "internalType": "uint64",
              "name": "value",
              "type": "uint64"
            },
            {
              "internalType": "uint64[2]",
              "name": "historicRootBlockNumberL2",
              "type": "uint64[2]"
            },
            {
              "internalType": "enum Structures.TransactionTypes",
              "name": "transactionType",
              "type": "uint8"
            },
            {
              "internalType": "enum Structures.TokenType",
              "name": "tokenType",
              "type": "uint8"
            },
            {
              "internalType": "bytes32",
              "name": "tokenId",
              "type": "bytes32"
            },
            {
              "internalType": "bytes32",
              "name": "ercAddress",
              "type": "bytes32"
            },
            {
              "internalType": "bytes32",
              "name": "recipientAddress",
              "type": "bytes32"
            },
            {
              "internalType": "bytes32[2]",
              "name": "commitments",
              "type": "bytes32[2]"
            },
            {
              "internalType": "bytes32[2]",
              "name": "nullifiers",
              "type": "bytes32[2]"
            },
            {
              "internalType": "bytes32[8]",
              "name": "compressedSecrets",
              "type": "bytes32[8]"
            },
            {
              "internalType": "uint256[4]",
              "name": "proof",
              "type": "uint256[4]"
            }
          ],
          "internalType": "struct Structures.Transaction",
          "name": "t",
          "type": "tuple"
        }
      ],
      "name": "submitTransaction",
      "outputs": [],
      "stateMutability": "payable",
      "type": "function",
      "payable": true
    },
    {
      "inputs": [
        {
          "components": [
            {
              "internalType": "uint48",
              "name": "leafCount",
              "type": "uint48"
            },
            {
              "internalType": "address",
              "name": "proposer",
              "type": "address"
            },
            {
              "internalType": "bytes32",
              "name": "root",
              "type": "bytes32"
            },
            {
              "internalType": "uint256",
              "name": "blockNumberL2",
              "type": "uint256"
            },
            {
              "internalType": "bytes32",
              "name": "previousBlockHash",
              "type": "bytes32"
            }
          ],
          "internalType": "struct Structures.Block",
          "name": "b",
          "type": "tuple"
        },
        {
          "internalType": "uint256",
          "name": "blockNumberL2",
          "type": "uint256"
        },
        {
          "components": [
            {
              "internalType": "uint64",
              "name": "value",
              "type": "uint64"
            },
            {
              "internalType": "uint64[2]",
              "name": "historicRootBlockNumberL2",
              "type": "uint64[2]"
            },
            {
              "internalType": "enum Structures.TransactionTypes",
              "name": "transactionType",
              "type": "uint8"
            },
            {
              "internalType": "enum Structures.TokenType",
              "name": "tokenType",
              "type": "uint8"
            },
            {
              "internalType": "bytes32",
              "name": "tokenId",
              "type": "bytes32"
            },
            {
              "internalType": "bytes32",
              "name": "ercAddress",
              "type": "bytes32"
            },
            {
              "internalType": "bytes32",
              "name": "recipientAddress",
              "type": "bytes32"
            },
            {
              "internalType": "bytes32[2]",
              "name": "commitments",
              "type": "bytes32[2]"
            },
            {
              "internalType": "bytes32[2]",
              "name": "nullifiers",
              "type": "bytes32[2]"
            },
            {
              "internalType": "bytes32[8]",
              "name": "compressedSecrets",
              "type": "bytes32[8]"
            },
            {
              "internalType": "uint256[4]",
              "name": "proof",
              "type": "uint256[4]"
            }
          ],
          "internalType": "struct Structures.Transaction[]",
          "name": "ts",
          "type": "tuple[]"
        }
      ],
      "name": "requestBlockPayment",
      "outputs": [],
      "stateMutability": "nonpayable",
      "type": "function"
    },
    {
      "inputs": [
        {
          "internalType": "address",
          "name": "",
          "type": "address"
        },
        {
          "internalType": "address",
          "name": "_from",
          "type": "address"
        },
        {
          "internalType": "uint256",
          "name": "_tokenId",
          "type": "uint256"
        },
        {
          "internalType": "bytes",
          "name": "",
          "type": "bytes"
        }
      ],
      "name": "onERC721Received",
      "outputs": [
        {
          "internalType": "bytes4",
          "name": "",
          "type": "bytes4"
        }
      ],
      "stateMutability": "nonpayable",
      "type": "function"
    },
    {
      "inputs": [
        {
          "internalType": "address",
          "name": "_operator",
          "type": "address"
        },
        {
          "internalType": "address",
          "name": "_from",
          "type": "address"
        },
        {
          "internalType": "uint256",
          "name": "_id",
          "type": "uint256"
        },
        {
          "internalType": "uint256",
          "name": "_value",
          "type": "uint256"
        },
        {
          "internalType": "bytes",
          "name": "_data",
          "type": "bytes"
        }
      ],
      "name": "onERC1155Received",
      "outputs": [
        {
          "internalType": "bytes4",
          "name": "",
          "type": "bytes4"
        }
      ],
      "stateMutability": "nonpayable",
      "type": "function"
    },
    {
      "inputs": [
        {
          "components": [
            {
              "internalType": "uint48",
              "name": "leafCount",
              "type": "uint48"
            },
            {
              "internalType": "address",
              "name": "proposer",
              "type": "address"
            },
            {
              "internalType": "bytes32",
              "name": "root",
              "type": "bytes32"
            },
            {
              "internalType": "uint256",
              "name": "blockNumberL2",
              "type": "uint256"
            },
            {
              "internalType": "bytes32",
              "name": "previousBlockHash",
              "type": "bytes32"
            }
          ],
          "internalType": "struct Structures.Block",
          "name": "b",
          "type": "tuple"
        },
        {
          "internalType": "uint256",
          "name": "blockNumberL2",
          "type": "uint256"
        },
        {
          "components": [
            {
              "internalType": "uint64",
              "name": "value",
              "type": "uint64"
            },
            {
              "internalType": "uint64[2]",
              "name": "historicRootBlockNumberL2",
              "type": "uint64[2]"
            },
            {
              "internalType": "enum Structures.TransactionTypes",
              "name": "transactionType",
              "type": "uint8"
            },
            {
              "internalType": "enum Structures.TokenType",
              "name": "tokenType",
              "type": "uint8"
            },
            {
              "internalType": "bytes32",
              "name": "tokenId",
              "type": "bytes32"
            },
            {
              "internalType": "bytes32",
              "name": "ercAddress",
              "type": "bytes32"
            },
            {
              "internalType": "bytes32",
              "name": "recipientAddress",
              "type": "bytes32"
            },
            {
              "internalType": "bytes32[2]",
              "name": "commitments",
              "type": "bytes32[2]"
            },
            {
              "internalType": "bytes32[2]",
              "name": "nullifiers",
              "type": "bytes32[2]"
            },
            {
              "internalType": "bytes32[8]",
              "name": "compressedSecrets",
              "type": "bytes32[8]"
            },
            {
              "internalType": "uint256[4]",
              "name": "proof",
              "type": "uint256[4]"
            }
          ],
          "internalType": "struct Structures.Transaction[]",
          "name": "ts",
          "type": "tuple[]"
        },
        {
          "internalType": "uint256",
          "name": "index",
          "type": "uint256"
        }
      ],
      "name": "isValidWithdrawal",
      "outputs": [
        {
          "internalType": "bool",
          "name": "",
          "type": "bool"
        }
      ],
      "stateMutability": "view",
      "type": "function",
      "constant": true
    },
    {
      "inputs": [
        {
          "components": [
            {
              "internalType": "uint48",
              "name": "leafCount",
              "type": "uint48"
            },
            {
              "internalType": "address",
              "name": "proposer",
              "type": "address"
            },
            {
              "internalType": "bytes32",
              "name": "root",
              "type": "bytes32"
            },
            {
              "internalType": "uint256",
              "name": "blockNumberL2",
              "type": "uint256"
            },
            {
              "internalType": "bytes32",
              "name": "previousBlockHash",
              "type": "bytes32"
            }
          ],
          "internalType": "struct Structures.Block",
          "name": "b",
          "type": "tuple"
        },
        {
          "internalType": "uint256",
          "name": "blockNumberL2",
          "type": "uint256"
        },
        {
          "components": [
            {
              "internalType": "uint64",
              "name": "value",
              "type": "uint64"
            },
            {
              "internalType": "uint64[2]",
              "name": "historicRootBlockNumberL2",
              "type": "uint64[2]"
            },
            {
              "internalType": "enum Structures.TransactionTypes",
              "name": "transactionType",
              "type": "uint8"
            },
            {
              "internalType": "enum Structures.TokenType",
              "name": "tokenType",
              "type": "uint8"
            },
            {
              "internalType": "bytes32",
              "name": "tokenId",
              "type": "bytes32"
            },
            {
              "internalType": "bytes32",
              "name": "ercAddress",
              "type": "bytes32"
            },
            {
              "internalType": "bytes32",
              "name": "recipientAddress",
              "type": "bytes32"
            },
            {
              "internalType": "bytes32[2]",
              "name": "commitments",
              "type": "bytes32[2]"
            },
            {
              "internalType": "bytes32[2]",
              "name": "nullifiers",
              "type": "bytes32[2]"
            },
            {
              "internalType": "bytes32[8]",
              "name": "compressedSecrets",
              "type": "bytes32[8]"
            },
            {
              "internalType": "uint256[4]",
              "name": "proof",
              "type": "uint256[4]"
            }
          ],
          "internalType": "struct Structures.Transaction[]",
          "name": "ts",
          "type": "tuple[]"
        },
        {
          "internalType": "uint256",
          "name": "index",
          "type": "uint256"
        }
      ],
      "name": "finaliseWithdrawal",
      "outputs": [],
      "stateMutability": "nonpayable",
      "type": "function"
    },
    {
      "inputs": [
        {
          "components": [
            {
              "internalType": "uint64",
              "name": "value",
              "type": "uint64"
            },
            {
              "internalType": "uint64[2]",
              "name": "historicRootBlockNumberL2",
              "type": "uint64[2]"
            },
            {
              "internalType": "enum Structures.TransactionTypes",
              "name": "transactionType",
              "type": "uint8"
            },
            {
              "internalType": "enum Structures.TokenType",
              "name": "tokenType",
              "type": "uint8"
            },
            {
              "internalType": "bytes32",
              "name": "tokenId",
              "type": "bytes32"
            },
            {
              "internalType": "bytes32",
              "name": "ercAddress",
              "type": "bytes32"
            },
            {
              "internalType": "bytes32",
              "name": "recipientAddress",
              "type": "bytes32"
            },
            {
              "internalType": "bytes32[2]",
              "name": "commitments",
              "type": "bytes32[2]"
            },
            {
              "internalType": "bytes32[2]",
              "name": "nullifiers",
              "type": "bytes32[2]"
            },
            {
              "internalType": "bytes32[8]",
              "name": "compressedSecrets",
              "type": "bytes32[8]"
            },
            {
              "internalType": "uint256[4]",
              "name": "proof",
              "type": "uint256[4]"
            }
          ],
          "internalType": "struct Structures.Transaction",
          "name": "withdrawTransaction",
          "type": "tuple"
        }
      ],
      "name": "advanceWithdrawal",
      "outputs": [],
      "stateMutability": "nonpayable",
      "type": "function"
    },
    {
      "inputs": [
        {
          "components": [
            {
              "internalType": "uint48",
              "name": "leafCount",
              "type": "uint48"
            },
            {
              "internalType": "address",
              "name": "proposer",
              "type": "address"
            },
            {
              "internalType": "bytes32",
              "name": "root",
              "type": "bytes32"
            },
            {
              "internalType": "uint256",
              "name": "blockNumberL2",
              "type": "uint256"
            },
            {
              "internalType": "bytes32",
              "name": "previousBlockHash",
              "type": "bytes32"
            }
          ],
          "internalType": "struct Structures.Block",
          "name": "b",
          "type": "tuple"
        },
        {
          "internalType": "uint256",
          "name": "blockNumberL2",
          "type": "uint256"
        },
        {
          "components": [
            {
              "internalType": "uint64",
              "name": "value",
              "type": "uint64"
            },
            {
              "internalType": "uint64[2]",
              "name": "historicRootBlockNumberL2",
              "type": "uint64[2]"
            },
            {
              "internalType": "enum Structures.TransactionTypes",
              "name": "transactionType",
              "type": "uint8"
            },
            {
              "internalType": "enum Structures.TokenType",
              "name": "tokenType",
              "type": "uint8"
            },
            {
              "internalType": "bytes32",
              "name": "tokenId",
              "type": "bytes32"
            },
            {
              "internalType": "bytes32",
              "name": "ercAddress",
              "type": "bytes32"
            },
            {
              "internalType": "bytes32",
              "name": "recipientAddress",
              "type": "bytes32"
            },
            {
              "internalType": "bytes32[2]",
              "name": "commitments",
              "type": "bytes32[2]"
            },
            {
              "internalType": "bytes32[2]",
              "name": "nullifiers",
              "type": "bytes32[2]"
            },
            {
              "internalType": "bytes32[8]",
              "name": "compressedSecrets",
              "type": "bytes32[8]"
            },
            {
              "internalType": "uint256[4]",
              "name": "proof",
              "type": "uint256[4]"
            }
          ],
          "internalType": "struct Structures.Transaction[]",
          "name": "ts",
          "type": "tuple[]"
        },
        {
          "internalType": "uint256",
          "name": "index",
          "type": "uint256"
        }
      ],
      "name": "setAdvanceWithdrawalFee",
      "outputs": [],
      "stateMutability": "payable",
      "type": "function",
      "payable": true
    }
  ],
  "bytecode": "0x608060405234801561001057600080fd5b50600180546001600160a81b0319163360ff60a01b19811691909117909155600280546001600160a01b0319169091179055612977806100516000396000f3fe6080604052600436106100ef5760003560e01c8063064ce6db146100f4578063150b7a02146101165780633823d66c146101605780633f896799146101a057806375b79335146101ee5780637950ef7b146102295780638337babb1461024957806384afda191461027657806386e275db146102965780638da5cb5b146102a9578063a0392769146102be578063afefd78e146102de578063b2bdfa7b146102fe578063b8de507b1461031e578063bd74880d1461034b578063c19d93fb1461036b578063c9571e991461038b578063f23a6e611461039e578063f2fde38b146103e4578063fd5320b514610404575b600080fd5b34801561010057600080fd5b5061011461010f36600461224c565b610424565b005b34801561012257600080fd5b50610142610131366004611f84565b630a85bd0160e11b95945050505050565b6040516001600160e01b031990911681526020015b60405180910390f35b34801561016c57600080fd5b5061019061017b36600461210b565b60046020526000908152604090205460ff1681565b6040519015158152602001610157565b3480156101ac57600080fd5b506101d66101bb36600461210b565b6006602052600090815260409020546001600160a01b031681565b6040516001600160a01b039091168152602001610157565b3480156101fa57600080fd5b5061021b61020936600461210b565b60056020526000908152604090205481565b604051908152602001610157565b34801561023557600080fd5b506101146102443660046121ee565b610707565b34801561025557600080fd5b5061021b61026436600461210b565b60076020526000908152604090205481565b34801561028257600080fd5b50610114610291366004611f61565b610997565b6101146102a43660046121ee565b610a49565b3480156102b557600080fd5b506101d6610d12565b3480156102ca57600080fd5b506101146102d936600461206d565b610d21565b3480156102ea57600080fd5b506101146102f9366004612199565b610df6565b34801561030a57600080fd5b506002546101d6906001600160a01b031681565b34801561032a57600080fd5b5061033e610339366004612123565b611157565b60405161015791906125e7565b34801561035757600080fd5b506101906103663660046121ee565b611201565b34801561037757600080fd5b506000546101d6906001600160a01b031681565b61011461039936600461224c565b611422565b3480156103aa57600080fd5b506101426103b9366004611ff4565b7ff23a6e612e1ff4830e658fe43f4e3cb4a5f8170bd5d9e69fb5d7a7fa9e4fdf979695505050505050565b3480156103f057600080fd5b506101146103ff366004611f61565b6114f5565b34801561041057600080fd5b5061021b61041f36600461213d565b6115aa565b600061042f826115db565b6000818152600760205260409020549091506104ab5760405162461bcd60e51b815260206004820152603060248201527f4e6f20616476616e6365642066656520686173206265656e2073657420666f7260448201526f081d1a1a5cc81dda5d1a191c985dd85b60821b60648201526084015b60405180910390fd5b6000826060015160028111156104d157634e487b7160e01b600052602160045260246000fd5b146105375760405162461bcd60e51b815260206004820152603060248201527f43616e206f6e6c7920616476616e6365207769746864726177616c7320666f7260448201526f2066756e6769626c6520746f6b656e7360801b60648201526084016104a2565b60008181526004602052604090205460ff16156105665760405162461bcd60e51b81526004016104a2906127ff565b60a082015160c08301516000838152600660205260408120546001600160a01b0316156105aa576000848152600660205260409020546001600160a01b03166105ac565b815b600085815260076020526040902054608087015191925090156105e15760405162461bcd60e51b81526004016104a29061276b565b85516040516323b872dd60e01b81526001600160a01b038616916323b872dd9161061b91339187916001600160401b03169060040161253f565b602060405180830381600087803b15801561063557600080fd5b505af1158015610649573d6000803e3d6000fd5b505050506040513d601f19601f8201168201806040525081019061066d91906120eb565b506000858152600760209081526040808320839055600690915280822080546001600160a01b031916339081179091559154905163a289261760e01b81526001600160a01b03919091169163a2892617916106cd919085906004016125ce565b600060405180830381600087803b1580156106e757600080fd5b505af11580156106fb573d6000803e3d6000fd5b50505050505050505050565b6000546040516382de383960e01b81526001600160a01b03909116906382de38399061073b90879086908890600401612857565b60006040518083038186803b15801561075357600080fd5b505afa158015610767573d6000803e3d6000fd5b505060008054604051631c9ab3ad60e01b8152600481018890529193506001600160a01b03169150631c9ab3ad90602401604080518083038186803b1580156107af57600080fd5b505afa1580156107c3573d6000803e3d6000fd5b505050506040513d601f19601f820116820180604052508101906107e79190612166565b602001519050426107fb62093a80836128b7565b106108185760405162461bcd60e51b81526004016104a2906126da565b600061084a84848151811061083d57634e487b7160e01b600052603260045260246000fd5b60200260200101516115db565b60008181526004602052604090205490915060ff161561087c5760405162461bcd60e51b81526004016104a2906127ba565b6000818152600460205260409020805460ff1916600117905560038484815181106108b757634e487b7160e01b600052603260045260246000fd5b60200260200101516040015160038111156108e257634e487b7160e01b600052602160045260246000fd5b141561098f57600084848151811061090a57634e487b7160e01b600052603260045260246000fd5b60209081029190910181015160c001516000848152600690925260408220549092506001600160a01b031615610957576000838152600660205260409020546001600160a01b0316610959565b815b905061098c86868151811061097e57634e487b7160e01b600052603260045260246000fd5b602002602001015182611644565b50505b505050505050565b6001546001600160a01b0316331480156109bb5750600154600160a01b900460ff16155b610a135760405162461bcd60e51b815260206004820152602360248201527f4f6e6c7920746865206f776e65722063616e2063616c6c20746869732c206f6e60448201526231b29760e91b60648201526084016104a2565b6001805460ff60a01b1916600160a01b179055600080546001600160a01b039092166001600160a01b0319909216919091179055565b6003828281518110610a6b57634e487b7160e01b600052603260045260246000fd5b6020026020010151604001516003811115610a9657634e487b7160e01b600052602160045260246000fd5b14610ae25760405162461bcd60e51b815260206004820152601c60248201527b43616e206f6e6c7920616476616e6365207769746864726177616c7360201b60448201526064016104a2565b6000546040516382de383960e01b81526001600160a01b03909116906382de383990610b1690879086908890600401612857565b60006040518083038186803b158015610b2e57600080fd5b505afa158015610b42573d6000803e3d6000fd5b505050506000610b6b83838151811061083d57634e487b7160e01b600052603260045260246000fd5b60008181526004602052604090205490915060ff1615610b9d5760405162461bcd60e51b81526004016104a2906127ff565b6000838381518110610bbf57634e487b7160e01b600052603260045260246000fd5b60209081029190910181015160c001516000848152600690925260408220549092506001600160a01b031615610c0c576000838152600660205260409020546001600160a01b0316610c0e565b815b9050336001600160a01b03821614610c815760405162461bcd60e51b815260206004820152603060248201527f596f7520617265206e6f74207468652063757272656e74206f776e6572206f6660448201526f081d1a1a5cc81dda5d1a191c985dd85b60821b60648201526084016104a2565b6000838152600760205260408082203490819055825491516001600160a01b039092169281156108fc029290818181858888f19350505050158015610cca573d6000803e3d6000fd5b5060408051848152336020820152348183015290517fad3c4a0dcee8f6938c110c1c6b94072b4bea981a94e50094f2adef55ba7718a99181900360600190a150505050505050565b6002546001600160a01b031690565b610d29610d12565b6001600160a01b0316336001600160a01b031614610d595760405162461bcd60e51b81526004016104a29061268c565b828260036000846003811115610d7f57634e487b7160e01b600052602160045260246000fd5b6003811115610d9e57634e487b7160e01b600052602160045260246000fd5b81526020019081526020016000209190610db9929190611b6b565b507fcfd8f8b734ebb05f1872379d344363750ce642d6cbd9f66a55aa3f1dbeb0c5d381604051610de9919061262b565b60405180910390a1505050565b6000610e0284836118da565b6000546040516382de383960e01b81529192506001600160a01b0316906382de383990610e3790879086908890600401612857565b60006040518083038186803b158015610e4f57600080fd5b505afa158015610e63573d6000803e3d6000fd5b505060008054604051631c9ab3ad60e01b8152600481018890529193506001600160a01b03169150631c9ab3ad90602401604080518083038186803b158015610eab57600080fd5b505afa158015610ebf573d6000803e3d6000fd5b505050506040513d601f19601f82011682018060405250810190610ee39190612166565b60200151905042610ef762093a80836128b7565b10610f565760405162461bcd60e51b815260206004820152602960248201527f497420697320746f6f20736f6f6e20746f20676574207061696420666f72207460448201526868697320626c6f636b60b81b60648201526084016104a2565b60208501516001600160a01b03163314610fc15760405162461bcd60e51b815260206004820152602660248201527f596f7520617265206e6f74207468652070726f706f736572206f66207468697360448201526520626c6f636b60d01b60648201526084016104a2565b60005460405163e34c13c560e01b8152600481018490526001600160a01b039091169063e34c13c59060240160206040518083038186803b15801561100557600080fd5b505afa158015611019573d6000803e3d6000fd5b505050506040513d601f19601f8201168201806040525081019061103d91906120eb565b156110a45760405162461bcd60e51b815260206004820152603160248201527f54686520626c6f636b207374616b6520666f72207468697320626c6f636b20696044820152701cc8185b1c9958591e4818db185a5b5959607a1b60648201526084016104a2565b6000805b84518110156111185760006110d686838151811061083d57634e487b7160e01b600052603260045260246000fd5b6000818152600560205260409020549091506110f290846128b7565b600091825260056020526040822091909155915080611110816128cf565b9150506110a8565b506111246001826128b7565b60005460405163a289261760e01b81529192506001600160a01b03169063a2892617906106cd90339085906004016125ce565b60606003600083600381111561117d57634e487b7160e01b600052602160045260246000fd5b600381111561119c57634e487b7160e01b600052602160045260246000fd5b81526020019081526020016000208054806020026020016040519081016040528092919081815260200182805480156111f457602002820191906000526020600020905b8154815260200190600101908083116111e0575b505050505090505b919050565b600080546040516382de383960e01b81526001600160a01b03909116906382de38399061123690889087908990600401612857565b60006040518083038186803b15801561124e57600080fd5b505afa158015611262573d6000803e3d6000fd5b505060008054604051631c9ab3ad60e01b8152600481018990529193506001600160a01b03169150631c9ab3ad90602401604080518083038186803b1580156112aa57600080fd5b505afa1580156112be573d6000803e3d6000fd5b505050506040513d601f19601f820116820180604052508101906112e29190612166565b602001519050426112f662093a80836128b7565b106113135760405162461bcd60e51b81526004016104a2906126da565b600061133885858151811061083d57634e487b7160e01b600052603260045260246000fd5b60008181526004602052604090205490915060ff161561136a5760405162461bcd60e51b81526004016104a2906127ba565b600385858151811061138c57634e487b7160e01b600052603260045260246000fd5b60200260200101516040015160038111156113b757634e487b7160e01b600052602160045260246000fd5b146114155760405162461bcd60e51b815260206004820152602860248201527f54686973207472616e73616374696f6e206973206e6f7420612076616c696420604482015267574954484452415760c01b60648201526084016104a2565b5060019695505050505050565b6040517fd9364d1faedd45a064f9090dd61ade3de8d1c1fd83caaa8ebdc4b9808f4eb98990600090a160008160400151600381111561147157634e487b7160e01b600052602160045260246000fd5b1415611480576114808161190e565b600061148b826115db565b6000818152600560205260409020549091503411156114b65760008181526005602052604090203490555b600080546040516001600160a01b03909116913480156108fc02929091818181858888f193505050501580156114f0573d6000803e3d6000fd5b505050565b6114fd610d12565b6001600160a01b0316336001600160a01b03161461152d5760405162461bcd60e51b81526004016104a29061268c565b6001600160a01b03811661154057600080fd5b7f8be0079c531659141344cd1fd0a4f28419497f9722a3daafe3b4186f6b6457e0611569610d12565b604080516001600160a01b03928316815291841660208301520160405180910390a1600280546001600160a01b0319166001600160a01b0383161790555b50565b600360205281600052604060002081815481106115c657600080fd5b90600052602060002001600091509150505481565b80516020808301516040808501516060860151608087015160a088015160c089015160e08a01516101008b01516101208c01516101408d0151985160009c6116279c909b9a9101612484565b604051602081830303815290604052805190602001209050919050565b60a082015160008360600151600281111561166f57634e487b7160e01b600052602160045260246000fd5b1415611729576080830151156116975760405162461bcd60e51b81526004016104a29061276b565b825160405163a9059cbb60e01b81526001600160a01b0383169163a9059cbb916116d19186916001600160401b03909116906004016125ce565b602060405180830381600087803b1580156116eb57600080fd5b505af11580156116ff573d6000803e3d6000fd5b505050506040513d601f19601f8201168201806040525081019061172391906120eb565b506114f0565b60018360600151600281111561174f57634e487b7160e01b600052602160045260246000fd5b14156117f75782516001600160401b031615158061176f57506080830151155b1561178c5760405162461bcd60e51b81526004016104a29061272a565b6080830151604051635c46a7ef60e11b81526001600160a01b0383169163b88d4fde916117c0913091879190600401612563565b600060405180830381600087803b1580156117da57600080fd5b505af11580156117ee573d6000803e3d6000fd5b505050506114f0565b60028360600151600281111561181d57634e487b7160e01b600052602160045260246000fd5b141561189d57608083015115801561183d575082516001600160401b0316155b1561185a5760405162461bcd60e51b81526004016104a290612639565b60808301518351604051637921219560e11b81526001600160a01b0384169263f242432a926117c0923092889290916001600160401b0390911690600401612596565b60405162461bcd60e51b8152602060048201526012602482015271496e76616c696420546f6b656e205479706560701b60448201526064016104a2565b600082826040516020016118ef92919061282f565b6040516020818303038152906040528051906020012090505b92915050565b60a081015160008260600151600281111561193957634e487b7160e01b600052602160045260246000fd5b14156119f3576080820151156119615760405162461bcd60e51b81526004016104a29061276b565b81516040516323b872dd60e01b81526001600160a01b038316916323b872dd9161199b91339130916001600160401b03169060040161253f565b602060405180830381600087803b1580156119b557600080fd5b505af11580156119c9573d6000803e3d6000fd5b505050506040513d601f19601f820116820180604052508101906119ed91906120eb565b50611b67565b600182606001516002811115611a1957634e487b7160e01b600052602160045260246000fd5b1415611ac15781516001600160401b0316151580611a3957506080820151155b15611a565760405162461bcd60e51b81526004016104a29061272a565b6080820151604051635c46a7ef60e11b81526001600160a01b0383169163b88d4fde91611a8a913391309190600401612563565b600060405180830381600087803b158015611aa457600080fd5b505af1158015611ab8573d6000803e3d6000fd5b50505050611b67565b600282606001516002811115611ae757634e487b7160e01b600052602160045260246000fd5b141561189d576080820151158015611b07575081516001600160401b0316155b15611b245760405162461bcd60e51b81526004016104a290612639565b60808201518251604051637921219560e11b81526001600160a01b0384169263f242432a92611a8a923392309290916001600160401b0390911690600401612596565b5050565b828054828255906000526020600020908101928215611ba6579160200282015b82811115611ba6578235825591602001919060010190611b8b565b50611bb2929150611bb6565b5090565b5b80821115611bb25760008155600101611bb7565b600082601f830112611bdb578081fd5b611be56040612887565b808385604086011115611bf6578384fd5b835b6002811015611c17578135845260209384019390910190600101611bf8565b509095945050505050565b600082601f830112611c32578081fd5b610100611c3e81612887565b8084868487011115611c4e578485fd5b8493505b6008841015611c7257803583526001939093019260209283019201611c52565b5095945050505050565b600082601f830112611c8c578081fd5b813560206001600160401b03821115611ca757611ca7612916565b611cb5818360051b01612887565b8281528181019085830161030080860288018501891015611cd4578687fd5b865b86811015611cfa57611ce88a84611e7a565b85529385019391810191600101611cd6565b509198975050505050505050565b600082601f830112611d18578081fd5b611d226080612887565b808385608086011115611d33578384fd5b835b6004811015611c17578135845260209384019390910190600101611d35565b600082601f830112611d64578081fd5b611d6e6040612887565b808385604086011115611d7f578384fd5b835b6002811015611c1757611d9382611f4a565b84526020938401939190910190600101611d81565b60008083601f840112611db9578182fd5b5081356001600160401b03811115611dcf578182fd5b602083019150836020828501011115611de757600080fd5b9250929050565b8035600381106111fc57600080fd5b8035600481106111fc57600080fd5b600060a08284031215611e1d578081fd5b611e2760a0612887565b9050813565ffffffffffff81168114611e3f57600080fd5b81526020820135611e4f8161292c565b8060208301525060408201356040820152606082013560608201526080820135608082015292915050565b60006103008284031215611e8c578081fd5b611e97610160612887565b9050611ea282611f4a565b8152611eb18360208401611d54565b6020820152611ec260608301611dfd565b6040820152611ed360808301611dee565b606082015260a0820135608082015260c082013560a082015260e082013560c0820152610100611f0584828501611bcb565b60e0830152610140611f1985828601611bcb565b82840152611f2b856101808601611c22565b610120840152611f3f856102808601611d08565b908301525092915050565b80356001600160401b03811681146111fc57600080fd5b600060208284031215611f72578081fd5b8135611f7d8161292c565b9392505050565b600080600080600060808688031215611f9b578081fd5b8535611fa68161292c565b94506020860135611fb68161292c565b93506040860135925060608601356001600160401b03811115611fd7578182fd5b611fe388828901611da8565b969995985093965092949392505050565b60008060008060008060a0878903121561200c578384fd5b86356120178161292c565b955060208701356120278161292c565b9450604087013593506060870135925060808701356001600160401b0381111561204f578182fd5b61205b89828a01611da8565b979a9699509497509295939492505050565b600080600060408486031215612081578081fd5b83356001600160401b0380821115612097578283fd5b818601915086601f8301126120aa578283fd5b8135818111156120b8578384fd5b8760208260051b85010111156120cc578384fd5b6020928301955093506120e29186019050611dfd565b90509250925092565b6000602082840312156120fc578081fd5b81518015158114611f7d578182fd5b60006020828403121561211c578081fd5b5035919050565b600060208284031215612134578081fd5b611f7d82611dfd565b6000806040838503121561214f578182fd5b61215883611dfd565b946020939093013593505050565b600060408284031215612177578081fd5b6121816040612887565b82518152602083015160208201528091505092915050565b600080600060e084860312156121ad578081fd5b6121b78585611e0c565b925060a0840135915060c08401356001600160401b038111156121d8578182fd5b6121e486828701611c7c565b9150509250925092565b6000806000806101008587031215612204578182fd5b61220e8686611e0c565b935060a0850135925060c08501356001600160401b0381111561222f578283fd5b61223b87828801611c7c565b9497939650939460e0013593505050565b6000610300828403121561225e578081fd5b611f7d8383611e7a565b8060005b600281101561228b57815184526020938401939091019060010161226c565b50505050565b8060005b600881101561228b578151845260209384019390910190600101612295565b6000815180845260208085019450808401835b838110156123a157815180516001600160401b03168852838101516122ee858a01826123cf565b5060408101516060612302818b0183612426565b820151905060806123158a8201836123fb565b82015160a08a81019190915282015160c0808b019190915282015160e0808b0191909152820151905061010061234d818b0183612268565b82015190506101406123618a820183612268565b61012083015191506123776101808b0183612291565b9190910151905061238c6102808901826123ac565b506103009690960195908201906001016122c7565b509495945050505050565b8060005b600481101561228b5781518452602093840193909101906001016123b0565b8060005b600281101561228b5781516001600160401b03168452602093840193909101906001016123d3565b6003811061240b5761240b612900565b9052565b6003811061241f5761241f612900565b60f81b9052565b6004811061240b5761240b612900565b6004811061241f5761241f612900565b805165ffffffffffff1682526020808201516001600160a01b0316908301526040808201519083015260608082015190830152608090810151910152565b60c08c901b6001600160c01b03191681526000600882018c825b60028110156124c65781516001600160401b031683526020928301929091019060010161249e565b5050506124d6604883018c612436565b6124e3604983018b61240f565b88604a83015287606a83015286608a83015261250260aa830187612268565b61250f60ea830186612268565b61251d61012a830185612291565b61252b61022a8301846123ac565b506102aa019b9a5050505050505050505050565b6001600160a01b039384168152919092166020820152604081019190915260600190565b6001600160a01b039384168152919092166020820152604081019190915260806060820181905260009082015260a00190565b6001600160a01b0394851681529290931660208301526040820152606081019190915260a06080820181905260009082015260c00190565b6001600160a01b03929092168252602082015260400190565b6020808252825182820181905260009190848201906040850190845b8181101561261f57835183529284019291840191600101612603565b50909695505050505050565b602081016119088284612426565b60208082526033908201527f4465706f736974696e67207a65726f2d76616c7565204552433131353520746f6040820152721ad95b9cc81a5cc81b9bdd08185b1b1bddd959606a1b606082015260800190565b6020808252602e908201527f596f7520617265206e6f7420617574686f726973656420746f20696e766f6b6560408201526d103a3434b990333ab731ba34b7b760911b606082015260800190565b60208082526030908201527f497420697320746f6f20736f6f6e20746f2077697468647261772066756e647360408201526f2066726f6d207468697320626c6f636b60801b606082015260800190565b60208082526021908201527f496e76616c696420696e7075747320666f7220455243373231206465706f73696040820152601d60fa1b606082015260800190565b6020808252602f908201527f4552433230206465706f7369742073686f756c64206861766520746f6b656e4960408201526e6420657175616c20746f205a45524f60881b606082015260800190565b60208082526025908201527f54686973207472616e73616374696f6e2068617320616c72656164792070616960408201526419081bdd5d60da1b606082015260800190565b60208082526016908201527543616e6e6f7420646f75626c6520776974686472617760501b604082015260600190565b600061283b8285612446565b60c060a083015261284f60c08301846122b4565b949350505050565b60006128638286612446565b60e060a083015261287760e08301856122b4565b90508260c0830152949350505050565b604051601f8201601f191681016001600160401b03811182821017156128af576128af612916565b604052919050565b600082198211156128ca576128ca6128ea565b500190565b60006000198214156128e3576128e36128ea565b5060010190565b634e487b7160e01b600052601160045260246000fd5b634e487b7160e01b600052602160045260246000fd5b634e487b7160e01b600052604160045260246000fd5b6001600160a01b03811681146115a757600080fdfea264697066735822122079b8d3481e4392ab82c9fecbe9b8c94c66d3f5bef2d274a9aa3792d1c424b2bf64736f6c63430008030033",
  "immutableReferences": {},
  "source": "// SPDX-License-Identifier: CC0-1.0\n\n/**\nContract to enable someone to submit a ZKP transaction for processing.\nIt is possible we will move this off-chain in the future as blockchain\nfunctionality is not really required - it's just a data availability aid.\n@Author Westlad\n*/\n\npragma solidity ^0.8.0;\npragma experimental ABIEncoderV2;\n\nimport './Utils.sol';\nimport './ERCInterface.sol';\nimport './Key_Registry.sol';\nimport './Structures.sol';\nimport './Config.sol';\nimport './Stateful.sol';\n\ncontract Shield is Stateful, Structures, Config, Key_Registry {\n\n  mapping(bytes32 => bool) public withdrawn;\n  mapping(bytes32 => uint) public feeBook;\n  mapping(bytes32 => address) public advancedWithdrawals;\n  mapping(bytes32 => uint) public advancedFeeWithdrawals;\n\n  function submitTransaction(Transaction memory t) external payable {\n    // let everyone know what you did\n    emit TransactionSubmitted();\n    // if this is a deposit transaction, take payment now (TODO: is there a\n    // better way? This feels expensive).\n    if (t.transactionType == TransactionTypes.DEPOSIT) payIn(t);\n    // we need to remember the payment made for each transaction so we can pay\n    // the proposer later. We can override the transaction with a higher fee if\n    // we wish, but not lower it (because otherwise someone would be able to\n    // slow down or stop our transaction)\n    bytes32 transactionHash = Utils.hashTransaction(t);\n    if (feeBook[transactionHash] < msg.value) feeBook[transactionHash] = msg.value;\n    payable(address(state)).transfer(msg.value);\n  }\n\n  // function to enable a proposer to get paid for proposing a block\n  function requestBlockPayment(Block memory b, uint blockNumberL2, Transaction[] memory ts) external {\n    bytes32 blockHash = Utils.hashBlock(b, ts);\n    state.isBlockReal(b, ts, blockNumberL2);\n    // check that the block has been finalised\n    uint time = state.getBlockData(blockNumberL2).time;\n    require(time + COOLING_OFF_PERIOD < block.timestamp, 'It is too soon to get paid for this block');\n    require(b.proposer == msg.sender, 'You are not the proposer of this block');\n    require(state.isBlockStakeWithdrawn(blockHash) == false, 'The block stake for this block is already claimed');\n    // add up how much the proposer is owed.\n    uint payment;\n    for (uint i = 0; i < ts.length; i++) {\n      bytes32 transactionHash = Utils.hashTransaction(ts[i]);\n      payment += feeBook[transactionHash];\n      feeBook[transactionHash] = 0; // clear the payment\n    }\n    payment += BLOCK_STAKE;\n    state.addPendingWithdrawal(msg.sender, payment);\n  }\n\n  function onERC721Received(address, address _from, uint256 _tokenId, bytes calldata) external returns(bytes4) {\n\n    return 0x150b7a02;\n  }\n\n  function onERC1155Received(address _operator, address _from, uint256 _id, uint256 _value, bytes calldata _data) external returns(bytes4){\n    return bytes4(keccak256(\"onERC1155Received(address,address,uint256,uint256,bytes)\"));\n  }\n\n  /**\n  This function returns if you are able to withdraw the funds, once a block is finalised\n  @param b - the block containing the Withdraw transaction\n  @param ts - array of the transactions contained in the block\n  @param index - the index of the transaction that locates it in the array of Transactions in Block b\n  */\n  function isValidWithdrawal(Block memory b, uint blockNumberL2, Transaction[] memory ts, uint index) view external returns(bool) {    \n    // check this block is a real one, in the queue, not something made up.\n    state.isBlockReal(b, ts, blockNumberL2);\n    // check that the block has been finalised\n    uint time = state.getBlockData(blockNumberL2).time;\n    require(time + COOLING_OFF_PERIOD < block.timestamp, 'It is too soon to withdraw funds from this block');\n    \n    bytes32 transactionHash = Utils.hashTransaction(ts[index]);\n    require(!withdrawn[transactionHash], 'This transaction has already paid out');\n    require(ts[index].transactionType == TransactionTypes.WITHDRAW, 'This transaction is not a valid WITHDRAW');\n   \n    return true;\n  }\n\n  /**\n  This function enables funds to be withdrawn, once a block is finalised\n  @param b - the block containing the Withdraw transaction\n  @param ts - array of the transactions contained in the block\n  @param index - the index of the transaction that locates it in the array of Transactions in Block b\n  TODO do we need to pass in  all the block data?\n  */\n  function finaliseWithdrawal(Block memory b, uint blockNumberL2, Transaction[] memory ts, uint index) external {\n    // check this block is a real one, in the queue, not something made up.\n    state.isBlockReal(b, ts, blockNumberL2);\n    // check that the block has been finalised\n    uint time = state.getBlockData(blockNumberL2).time;\n    require(time + COOLING_OFF_PERIOD < block.timestamp, 'It is too soon to withdraw funds from this block');\n    bytes32 transactionHash = Utils.hashTransaction(ts[index]);\n    require(!withdrawn[transactionHash], 'This transaction has already paid out');\n    withdrawn[transactionHash] = true;\n    if (ts[index].transactionType == TransactionTypes.WITHDRAW) {\n      address originalRecipientAddress = address(uint160(uint256(ts[index].recipientAddress)));\n      // check if an advancedWithdrawal has been paid, if so payout the new owner.\n      address recipientAddress = advancedWithdrawals[transactionHash] == address(0) ? originalRecipientAddress : advancedWithdrawals[transactionHash];\n      payOut(ts[index],recipientAddress);\n    }\n  }\n\n  // TODO does this need to be constrained to blocks within the challenge window\n  // Currently this can pose as a non-interactive way for transactors to get their withdrawals\n  // Instead of calling finaliseWithdrawal (a pull op), advanceWithdrawal will send them the funds (push op) for a fee.\n  function advanceWithdrawal(Transaction memory withdrawTransaction) external {\n    bytes32 withdrawTransactionHash = Utils.hashTransaction(withdrawTransaction);\n\n    // if no fee is set, then the withdrawal is not tagged as advanceable - else someone could just steal withdrawals\n    require(advancedFeeWithdrawals[withdrawTransactionHash] > 0, 'No advanced fee has been set for this withdrawal');\n    require(withdrawTransaction.tokenType == TokenType.ERC20, 'Can only advance withdrawals for fungible tokens');\n    // The withdrawal has not been withdrawn\n    require(!withdrawn[withdrawTransactionHash], 'Cannot double withdraw');\n\n    // TODO should we check if the withdrawal is not in a finalised block\n    // this might incentives sniping freshly finalised blocks by liquidity providers\n    // this is risk-free as the block is finalised, the advancedFee should reflect a risk premium.\n\n    ERCInterface tokenContract = ERCInterface(address(uint160(uint256(withdrawTransaction.ercAddress))));\n    address originalRecipientAddress =  address(uint160(uint256(withdrawTransaction.recipientAddress)));\n    address currentOwner = advancedWithdrawals[withdrawTransactionHash] == address(0) ? originalRecipientAddress : advancedWithdrawals[withdrawTransactionHash];\n    uint256 advancedFee = advancedFeeWithdrawals[withdrawTransactionHash];\n\n    // Send the token from the msg.sender to the receipient\n    if (withdrawTransaction.tokenId != ZERO)\n      revert(\"ERC20 deposit should have tokenId equal to ZERO\");\n    else {\n      tokenContract.transferFrom(\n        address(msg.sender),\n        currentOwner,\n        uint256(withdrawTransaction.value)\n      );\n    }\n    // set new owner of transaction, settign fee to zero.\n    advancedFeeWithdrawals[withdrawTransactionHash] = 0;\n    advancedWithdrawals[withdrawTransactionHash] = msg.sender;\n    state.addPendingWithdrawal(msg.sender, advancedFee);\n  }\n\n  // TODO Is there a better way to set this fee, e.g. at the point of making a transaction.\n  function setAdvanceWithdrawalFee(Block memory b, uint256 blockNumberL2, Transaction[] memory ts, uint index) external payable {\n    // The transaction is a withdrawal transaction\n    require(ts[index].transactionType == TransactionTypes.WITHDRAW, 'Can only advance withdrawals');\n    // The block and transactions are real\n    state.isBlockReal(b,ts,blockNumberL2);\n\n    bytes32 withdrawTransactionHash = Utils.hashTransaction(ts[index]);\n    // The withdrawal has not been withdrawn\n    require(!withdrawn[withdrawTransactionHash], 'Cannot double withdraw');\n    address originalRecipientAddress =  address(uint160(uint256(ts[index].recipientAddress)));\n    address currentOwner = advancedWithdrawals[withdrawTransactionHash] == address(0) ? originalRecipientAddress : advancedWithdrawals[withdrawTransactionHash];\n\n    // Only the owner of the withdraw can set the advanced withdrawal\n    require(msg.sender == currentOwner, 'You are not the current owner of this withdrawal');\n    advancedFeeWithdrawals[withdrawTransactionHash] = msg.value;\n    payable(address(state)).transfer(msg.value);\n    emit InstantWithdrawalRequested(withdrawTransactionHash, msg.sender, msg.value);\n  }\n\n  function payOut(Transaction memory t, address recipientAddress) internal {\n  // Now pay out the value of the commitment\n    ERCInterface tokenContract = ERCInterface(\n      address(uint160(uint256(t.ercAddress)))\n    );\n    // address recipientAddress = address(uint160(uint256(t.recipientAddress)));\n\n    if(t.tokenType == TokenType.ERC20) {\n      if (t.tokenId != ZERO)\n        revert(\"ERC20 deposit should have tokenId equal to ZERO\");\n      else\n        tokenContract.transfer(\n          recipientAddress,\n          uint256(t.value)\n        );\n    } else if(t.tokenType == TokenType.ERC721) {\n      if (t.value != 0 || t.tokenId == ZERO) // value should always be equal to 0 and tokenId cannot be equal to ZERO\n        revert(\"Invalid inputs for ERC721 deposit\");\n      else\n        tokenContract.safeTransferFrom(\n          address(this),\n          recipientAddress,\n          uint256(t.tokenId),\n          ''\n        );\n    } else if (t.tokenType == TokenType.ERC1155) {\n      if (t.tokenId == ZERO && t.value == 0) // disallow this corner case\n        revert(\"Depositing zero-value ERC1155 tokens is not allowed\");\n      else\n        tokenContract.safeTransferFrom(\n          address(this),\n          recipientAddress,\n          uint256(t.tokenId),\n          uint256(t.value),\n          ''\n        );\n    } else {\n      revert(\"Invalid Token Type\");\n    }\n  }\n\n  function payIn(Transaction memory t) internal {\n    ERCInterface tokenContract = ERCInterface(\n      address(uint160(uint256(t.ercAddress)))\n    );\n\n    if(t.tokenType == TokenType.ERC20) {\n      if (t.tokenId != ZERO)\n        revert(\"ERC20 deposit should have tokenId equal to ZERO\");\n      else\n        tokenContract.transferFrom(msg.sender, address(this), uint256(t.value));\n    } else if(t.tokenType == TokenType.ERC721) {\n      if (t.value != 0 || t.tokenId == ZERO) // value should always be equal to 0 and tokenId cannot be equal to ZERO\n        revert(\"Invalid inputs for ERC721 deposit\");\n      else\n        tokenContract.safeTransferFrom(\n          msg.sender,\n          address(this),\n          uint256(t.tokenId),\n          ''\n        );\n    } else if (t.tokenType == TokenType.ERC1155) {\n      if (t.tokenId == ZERO && t.value == 0) // disallow this corner case\n        revert(\"Depositing zero-value ERC1155 tokens is not allowed\");\n      else\n        tokenContract.safeTransferFrom(\n          msg.sender,\n          address(this),\n          uint256(t.tokenId),\n          uint256(t.value),\n          ''\n        );\n    } else {\n      revert(\"Invalid Token Type\");\n    }\n  }\n}\n",
  "sourcePath": "/app/contracts/Shield.sol",
  "compiler": {
    "name": "solc",
    "version": "0.8.3+commit.8d00100c.Emscripten.clang"
  },
  "schemaVersion": "3.4.2",
  "updatedAt": "2022-01-12T03:38:22.635Z",
  "networkType": "ethereum",
  "devdoc": {
    "kind": "dev",
    "methods": {
      "finaliseWithdrawal((uint48,address,bytes32,uint256,bytes32),uint256,(uint64,uint64[2],uint8,uint8,bytes32,bytes32,bytes32,bytes32[2],bytes32[2],bytes32[8],uint256[4])[],uint256)": {
        "params": {
          "b": "- the block containing the Withdraw transaction",
          "index": "- the index of the transaction that locates it in the array of Transactions in Block b TODO do we need to pass in  all the block data?",
          "ts": "- array of the transactions contained in the block"
        }
      },
      "isValidWithdrawal((uint48,address,bytes32,uint256,bytes32),uint256,(uint64,uint64[2],uint8,uint8,bytes32,bytes32,bytes32,bytes32[2],bytes32[2],bytes32[8],uint256[4])[],uint256)": {
        "params": {
          "b": "- the block containing the Withdraw transaction",
          "index": "- the index of the transaction that locates it in the array of Transactions in Block b",
          "ts": "- array of the transactions contained in the block"
        }
      },
      "owner()": {
        "details": "Tells the address of the owner",
        "returns": {
          "_0": "the address of the owner"
        }
      },
      "transferOwnership(address)": {
        "details": "Allows the current owner to transfer control of the contract to a newOwner.",
        "params": {
          "newOwner": "The address to transfer ownership to."
        }
      }
    },
    "version": 1
  },
  "userdoc": {
    "events": {
      "NewLeaf(uint256,bytes32,bytes32)": {
        "notice": "These events are what the merkle-tree microservice's filters will listen for."
      }
    },
    "kind": "user",
    "methods": {
      "finaliseWithdrawal((uint48,address,bytes32,uint256,bytes32),uint256,(uint64,uint64[2],uint8,uint8,bytes32,bytes32,bytes32,bytes32[2],bytes32[2],bytes32[8],uint256[4])[],uint256)": {
        "notice": "This function enables funds to be withdrawn, once a block is finalised"
      },
      "isValidWithdrawal((uint48,address,bytes32,uint256,bytes32),uint256,(uint64,uint64[2],uint8,uint8,bytes32,bytes32,bytes32,bytes32[2],bytes32[2],bytes32[8],uint256[4])[],uint256)": {
        "notice": "This function returns if you are able to withdraw the funds, once a block is finalised"
      },
      "registerVerificationKey(uint256[],uint8)": {
        "notice": "Stores verification keys (for the 'deposit', 'transfer' and 'withdraw' computations)."
      }
    },
    "version": 1
  }
}