{
  "contractName": "Shield",
  "abi": [
    {
      "anonymous": false,
      "inputs": [],
      "name": "BlockProposed",
      "type": "event"
    },
    {
      "anonymous": false,
      "inputs": [
        {
          "indexed": false,
          "internalType": "bytes32",
          "name": "commitHash",
          "type": "bytes32"
        },
        {
          "indexed": false,
          "internalType": "address",
          "name": "sender",
          "type": "address"
        }
      ],
      "name": "CommittedToChallenge",
      "type": "event"
    },
    {
      "anonymous": false,
      "inputs": [
        {
          "indexed": false,
          "internalType": "bytes32",
          "name": "withdrawTransactionHash",
          "type": "bytes32"
        },
        {
          "indexed": false,
          "internalType": "address",
          "name": "paidBy",
          "type": "address"
        },
        {
          "indexed": false,
          "internalType": "uint256",
          "name": "amount",
          "type": "uint256"
        }
      ],
      "name": "InstantWithdrawalRequested",
      "type": "event"
    },
    {
      "anonymous": false,
      "inputs": [
        {
          "indexed": false,
          "internalType": "address",
          "name": "proposer",
          "type": "address"
        }
      ],
      "name": "NewCurrentProposer",
      "type": "event"
    },
    {
      "anonymous": false,
      "inputs": [
        {
          "indexed": false,
          "internalType": "uint256",
          "name": "leafIndex",
          "type": "uint256"
        },
        {
          "indexed": false,
          "internalType": "bytes32",
          "name": "leafValue",
          "type": "bytes32"
        },
        {
          "indexed": false,
          "internalType": "bytes32",
          "name": "root",
          "type": "bytes32"
        }
      ],
      "name": "NewLeaf",
      "type": "event"
    },
    {
      "anonymous": false,
      "inputs": [
        {
          "indexed": false,
          "internalType": "uint256",
          "name": "minLeafIndex",
          "type": "uint256"
        },
        {
          "indexed": false,
          "internalType": "bytes32[]",
          "name": "leafValues",
          "type": "bytes32[]"
        },
        {
          "indexed": false,
          "internalType": "bytes32",
          "name": "root",
          "type": "bytes32"
        }
      ],
      "name": "NewLeaves",
      "type": "event"
    },
    {
      "anonymous": false,
      "inputs": [
        {
          "indexed": false,
          "internalType": "address",
          "name": "previousOwner",
          "type": "address"
        },
        {
          "indexed": false,
          "internalType": "address",
          "name": "newOwner",
          "type": "address"
        }
      ],
      "name": "OwnershipTransferred",
      "type": "event"
    },
    {
      "anonymous": false,
      "inputs": [
        {
          "indexed": true,
          "internalType": "bytes32",
          "name": "blockHash",
          "type": "bytes32"
        },
        {
          "indexed": false,
          "internalType": "uint256",
          "name": "blockNumberL2",
          "type": "uint256"
        },
        {
          "indexed": false,
          "internalType": "uint256",
          "name": "leafCount",
          "type": "uint256"
        }
      ],
      "name": "Rollback",
      "type": "event"
    },
    {
      "anonymous": false,
      "inputs": [],
      "name": "TransactionSubmitted",
      "type": "event"
    },
    {
      "anonymous": false,
      "inputs": [
        {
          "indexed": false,
          "internalType": "enum Structures.TransactionTypes",
          "name": "txType",
          "type": "uint8"
        }
      ],
      "name": "VkChanged",
      "type": "event"
    },
    {
      "inputs": [],
      "name": "_owner",
      "outputs": [
        {
          "internalType": "address",
          "name": "",
          "type": "address"
        }
      ],
      "stateMutability": "view",
      "type": "function",
      "constant": true
    },
    {
      "inputs": [
        {
          "internalType": "bytes32",
          "name": "",
          "type": "bytes32"
        }
      ],
      "name": "advancedFeeWithdrawals",
      "outputs": [
        {
          "internalType": "uint256",
          "name": "",
          "type": "uint256"
        }
      ],
      "stateMutability": "view",
      "type": "function",
      "constant": true
    },
    {
      "inputs": [
        {
          "internalType": "bytes32",
          "name": "",
          "type": "bytes32"
        }
      ],
      "name": "advancedWithdrawals",
      "outputs": [
        {
          "internalType": "address",
          "name": "",
          "type": "address"
        }
      ],
      "stateMutability": "view",
      "type": "function",
      "constant": true
    },
    {
      "inputs": [
        {
          "internalType": "bytes32",
          "name": "",
          "type": "bytes32"
        }
      ],
      "name": "feeBook",
      "outputs": [
        {
          "internalType": "uint256",
          "name": "",
          "type": "uint256"
        }
      ],
      "stateMutability": "view",
      "type": "function",
      "constant": true
    },
    {
      "inputs": [
        {
          "internalType": "enum Structures.TransactionTypes",
          "name": "txType",
          "type": "uint8"
        }
      ],
      "name": "getVerificationKey",
      "outputs": [
        {
          "internalType": "uint256[]",
          "name": "",
          "type": "uint256[]"
        }
      ],
      "stateMutability": "view",
      "type": "function",
      "constant": true
    },
    {
      "inputs": [],
      "name": "owner",
      "outputs": [
        {
          "internalType": "address",
          "name": "",
          "type": "address"
        }
      ],
      "stateMutability": "view",
      "type": "function",
      "constant": true
    },
    {
      "inputs": [
        {
          "internalType": "uint256[]",
          "name": "_vk",
          "type": "uint256[]"
        },
        {
          "internalType": "enum Structures.TransactionTypes",
          "name": "_txType",
          "type": "uint8"
        }
      ],
      "name": "registerVerificationKey",
      "outputs": [],
      "stateMutability": "nonpayable",
      "type": "function"
    },
    {
      "inputs": [
        {
          "internalType": "address payable",
          "name": "stateAddress",
          "type": "address"
        }
      ],
      "name": "setStateContract",
      "outputs": [],
      "stateMutability": "nonpayable",
      "type": "function"
    },
    {
      "inputs": [],
      "name": "state",
      "outputs": [
        {
          "internalType": "contract State",
          "name": "",
          "type": "address"
        }
      ],
      "stateMutability": "view",
      "type": "function",
      "constant": true
    },
    {
      "inputs": [
        {
          "internalType": "address",
          "name": "newOwner",
          "type": "address"
        }
      ],
      "name": "transferOwnership",
      "outputs": [],
      "stateMutability": "nonpayable",
      "type": "function"
    },
    {
      "inputs": [
        {
          "internalType": "enum Structures.TransactionTypes",
          "name": "",
          "type": "uint8"
        },
        {
          "internalType": "uint256",
          "name": "",
          "type": "uint256"
        }
      ],
      "name": "vks",
      "outputs": [
        {
          "internalType": "uint256",
          "name": "",
          "type": "uint256"
        }
      ],
      "stateMutability": "view",
      "type": "function",
      "constant": true
    },
    {
      "inputs": [
        {
          "internalType": "bytes32",
          "name": "",
          "type": "bytes32"
        }
      ],
      "name": "withdrawn",
      "outputs": [
        {
          "internalType": "bool",
          "name": "",
          "type": "bool"
        }
      ],
      "stateMutability": "view",
      "type": "function",
      "constant": true
    },
    {
      "inputs": [
        {
          "components": [
            {
              "internalType": "uint64",
              "name": "value",
              "type": "uint64"
            },
            {
              "internalType": "uint64[2]",
              "name": "historicRootBlockNumberL2",
              "type": "uint64[2]"
            },
            {
              "internalType": "enum Structures.TransactionTypes",
              "name": "transactionType",
              "type": "uint8"
            },
            {
              "internalType": "enum Structures.TokenType",
              "name": "tokenType",
              "type": "uint8"
            },
            {
              "internalType": "bytes32",
              "name": "publicInputHash",
              "type": "bytes32"
            },
            {
              "internalType": "bytes32",
              "name": "tokenId",
              "type": "bytes32"
            },
            {
              "internalType": "bytes32",
              "name": "ercAddress",
              "type": "bytes32"
            },
            {
              "internalType": "bytes32",
              "name": "recipientAddress",
              "type": "bytes32"
            },
            {
              "internalType": "bytes32[2]",
              "name": "commitments",
              "type": "bytes32[2]"
            },
            {
              "internalType": "bytes32[2]",
              "name": "nullifiers",
              "type": "bytes32[2]"
            },
            {
              "internalType": "bytes32[8]",
              "name": "compressedSecrets",
              "type": "bytes32[8]"
            },
            {
              "internalType": "uint256[4]",
              "name": "proof",
              "type": "uint256[4]"
            }
          ],
          "internalType": "struct Structures.Transaction",
          "name": "t",
          "type": "tuple"
        }
      ],
      "name": "submitTransaction",
      "outputs": [],
      "stateMutability": "payable",
      "type": "function",
      "payable": true
    },
    {
      "inputs": [
        {
          "components": [
            {
              "internalType": "uint48",
              "name": "leafCount",
              "type": "uint48"
            },
            {
              "internalType": "address",
              "name": "proposer",
              "type": "address"
            },
            {
              "internalType": "bytes32",
              "name": "root",
              "type": "bytes32"
            },
            {
              "internalType": "uint256",
              "name": "blockNumberL2",
              "type": "uint256"
            },
            {
              "internalType": "bytes32",
              "name": "previousBlockHash",
              "type": "bytes32"
            }
          ],
          "internalType": "struct Structures.Block",
          "name": "b",
          "type": "tuple"
        },
        {
          "internalType": "uint256",
          "name": "blockNumberL2",
          "type": "uint256"
        },
        {
          "components": [
            {
              "internalType": "uint64",
              "name": "value",
              "type": "uint64"
            },
            {
              "internalType": "uint64[2]",
              "name": "historicRootBlockNumberL2",
              "type": "uint64[2]"
            },
            {
              "internalType": "enum Structures.TransactionTypes",
              "name": "transactionType",
              "type": "uint8"
            },
            {
              "internalType": "enum Structures.TokenType",
              "name": "tokenType",
              "type": "uint8"
            },
            {
              "internalType": "bytes32",
              "name": "publicInputHash",
              "type": "bytes32"
            },
            {
              "internalType": "bytes32",
              "name": "tokenId",
              "type": "bytes32"
            },
            {
              "internalType": "bytes32",
              "name": "ercAddress",
              "type": "bytes32"
            },
            {
              "internalType": "bytes32",
              "name": "recipientAddress",
              "type": "bytes32"
            },
            {
              "internalType": "bytes32[2]",
              "name": "commitments",
              "type": "bytes32[2]"
            },
            {
              "internalType": "bytes32[2]",
              "name": "nullifiers",
              "type": "bytes32[2]"
            },
            {
              "internalType": "bytes32[8]",
              "name": "compressedSecrets",
              "type": "bytes32[8]"
            },
            {
              "internalType": "uint256[4]",
              "name": "proof",
              "type": "uint256[4]"
            }
          ],
          "internalType": "struct Structures.Transaction[]",
          "name": "ts",
          "type": "tuple[]"
        }
      ],
      "name": "requestBlockPayment",
      "outputs": [],
      "stateMutability": "nonpayable",
      "type": "function"
    },
    {
      "inputs": [
        {
          "internalType": "address",
          "name": "",
          "type": "address"
        },
        {
          "internalType": "address",
          "name": "_from",
          "type": "address"
        },
        {
          "internalType": "uint256",
          "name": "_tokenId",
          "type": "uint256"
        },
        {
          "internalType": "bytes",
          "name": "",
          "type": "bytes"
        }
      ],
      "name": "onERC721Received",
      "outputs": [
        {
          "internalType": "bytes4",
          "name": "",
          "type": "bytes4"
        }
      ],
      "stateMutability": "nonpayable",
      "type": "function"
    },
    {
      "inputs": [
        {
          "internalType": "address",
          "name": "_operator",
          "type": "address"
        },
        {
          "internalType": "address",
          "name": "_from",
          "type": "address"
        },
        {
          "internalType": "uint256",
          "name": "_id",
          "type": "uint256"
        },
        {
          "internalType": "uint256",
          "name": "_value",
          "type": "uint256"
        },
        {
          "internalType": "bytes",
          "name": "_data",
          "type": "bytes"
        }
      ],
      "name": "onERC1155Received",
      "outputs": [
        {
          "internalType": "bytes4",
          "name": "",
          "type": "bytes4"
        }
      ],
      "stateMutability": "nonpayable",
      "type": "function"
    },
    {
      "inputs": [
        {
          "components": [
            {
              "internalType": "uint48",
              "name": "leafCount",
              "type": "uint48"
            },
            {
              "internalType": "address",
              "name": "proposer",
              "type": "address"
            },
            {
              "internalType": "bytes32",
              "name": "root",
              "type": "bytes32"
            },
            {
              "internalType": "uint256",
              "name": "blockNumberL2",
              "type": "uint256"
            },
            {
              "internalType": "bytes32",
              "name": "previousBlockHash",
              "type": "bytes32"
            }
          ],
          "internalType": "struct Structures.Block",
          "name": "b",
          "type": "tuple"
        },
        {
          "internalType": "uint256",
          "name": "blockNumberL2",
          "type": "uint256"
        },
        {
          "components": [
            {
              "internalType": "uint64",
              "name": "value",
              "type": "uint64"
            },
            {
              "internalType": "uint64[2]",
              "name": "historicRootBlockNumberL2",
              "type": "uint64[2]"
            },
            {
              "internalType": "enum Structures.TransactionTypes",
              "name": "transactionType",
              "type": "uint8"
            },
            {
              "internalType": "enum Structures.TokenType",
              "name": "tokenType",
              "type": "uint8"
            },
            {
              "internalType": "bytes32",
              "name": "publicInputHash",
              "type": "bytes32"
            },
            {
              "internalType": "bytes32",
              "name": "tokenId",
              "type": "bytes32"
            },
            {
              "internalType": "bytes32",
              "name": "ercAddress",
              "type": "bytes32"
            },
            {
              "internalType": "bytes32",
              "name": "recipientAddress",
              "type": "bytes32"
            },
            {
              "internalType": "bytes32[2]",
              "name": "commitments",
              "type": "bytes32[2]"
            },
            {
              "internalType": "bytes32[2]",
              "name": "nullifiers",
              "type": "bytes32[2]"
            },
            {
              "internalType": "bytes32[8]",
              "name": "compressedSecrets",
              "type": "bytes32[8]"
            },
            {
              "internalType": "uint256[4]",
              "name": "proof",
              "type": "uint256[4]"
            }
          ],
          "internalType": "struct Structures.Transaction[]",
          "name": "ts",
          "type": "tuple[]"
        },
        {
          "internalType": "uint256",
          "name": "index",
          "type": "uint256"
        }
      ],
      "name": "isValidWithdrawal",
      "outputs": [
        {
          "internalType": "bool",
          "name": "",
          "type": "bool"
        }
      ],
      "stateMutability": "view",
      "type": "function",
      "constant": true
    },
    {
      "inputs": [
        {
          "components": [
            {
              "internalType": "uint48",
              "name": "leafCount",
              "type": "uint48"
            },
            {
              "internalType": "address",
              "name": "proposer",
              "type": "address"
            },
            {
              "internalType": "bytes32",
              "name": "root",
              "type": "bytes32"
            },
            {
              "internalType": "uint256",
              "name": "blockNumberL2",
              "type": "uint256"
            },
            {
              "internalType": "bytes32",
              "name": "previousBlockHash",
              "type": "bytes32"
            }
          ],
          "internalType": "struct Structures.Block",
          "name": "b",
          "type": "tuple"
        },
        {
          "internalType": "uint256",
          "name": "blockNumberL2",
          "type": "uint256"
        },
        {
          "components": [
            {
              "internalType": "uint64",
              "name": "value",
              "type": "uint64"
            },
            {
              "internalType": "uint64[2]",
              "name": "historicRootBlockNumberL2",
              "type": "uint64[2]"
            },
            {
              "internalType": "enum Structures.TransactionTypes",
              "name": "transactionType",
              "type": "uint8"
            },
            {
              "internalType": "enum Structures.TokenType",
              "name": "tokenType",
              "type": "uint8"
            },
            {
              "internalType": "bytes32",
              "name": "publicInputHash",
              "type": "bytes32"
            },
            {
              "internalType": "bytes32",
              "name": "tokenId",
              "type": "bytes32"
            },
            {
              "internalType": "bytes32",
              "name": "ercAddress",
              "type": "bytes32"
            },
            {
              "internalType": "bytes32",
              "name": "recipientAddress",
              "type": "bytes32"
            },
            {
              "internalType": "bytes32[2]",
              "name": "commitments",
              "type": "bytes32[2]"
            },
            {
              "internalType": "bytes32[2]",
              "name": "nullifiers",
              "type": "bytes32[2]"
            },
            {
              "internalType": "bytes32[8]",
              "name": "compressedSecrets",
              "type": "bytes32[8]"
            },
            {
              "internalType": "uint256[4]",
              "name": "proof",
              "type": "uint256[4]"
            }
          ],
          "internalType": "struct Structures.Transaction[]",
          "name": "ts",
          "type": "tuple[]"
        },
        {
          "internalType": "uint256",
          "name": "index",
          "type": "uint256"
        }
      ],
      "name": "finaliseWithdrawal",
      "outputs": [],
      "stateMutability": "nonpayable",
      "type": "function"
    },
    {
      "inputs": [
        {
          "components": [
            {
              "internalType": "uint64",
              "name": "value",
              "type": "uint64"
            },
            {
              "internalType": "uint64[2]",
              "name": "historicRootBlockNumberL2",
              "type": "uint64[2]"
            },
            {
              "internalType": "enum Structures.TransactionTypes",
              "name": "transactionType",
              "type": "uint8"
            },
            {
              "internalType": "enum Structures.TokenType",
              "name": "tokenType",
              "type": "uint8"
            },
            {
              "internalType": "bytes32",
              "name": "publicInputHash",
              "type": "bytes32"
            },
            {
              "internalType": "bytes32",
              "name": "tokenId",
              "type": "bytes32"
            },
            {
              "internalType": "bytes32",
              "name": "ercAddress",
              "type": "bytes32"
            },
            {
              "internalType": "bytes32",
              "name": "recipientAddress",
              "type": "bytes32"
            },
            {
              "internalType": "bytes32[2]",
              "name": "commitments",
              "type": "bytes32[2]"
            },
            {
              "internalType": "bytes32[2]",
              "name": "nullifiers",
              "type": "bytes32[2]"
            },
            {
              "internalType": "bytes32[8]",
              "name": "compressedSecrets",
              "type": "bytes32[8]"
            },
            {
              "internalType": "uint256[4]",
              "name": "proof",
              "type": "uint256[4]"
            }
          ],
          "internalType": "struct Structures.Transaction",
          "name": "withdrawTransaction",
          "type": "tuple"
        }
      ],
      "name": "advanceWithdrawal",
      "outputs": [],
      "stateMutability": "nonpayable",
      "type": "function"
    },
    {
      "inputs": [
        {
          "components": [
            {
              "internalType": "uint48",
              "name": "leafCount",
              "type": "uint48"
            },
            {
              "internalType": "address",
              "name": "proposer",
              "type": "address"
            },
            {
              "internalType": "bytes32",
              "name": "root",
              "type": "bytes32"
            },
            {
              "internalType": "uint256",
              "name": "blockNumberL2",
              "type": "uint256"
            },
            {
              "internalType": "bytes32",
              "name": "previousBlockHash",
              "type": "bytes32"
            }
          ],
          "internalType": "struct Structures.Block",
          "name": "b",
          "type": "tuple"
        },
        {
          "internalType": "uint256",
          "name": "blockNumberL2",
          "type": "uint256"
        },
        {
          "components": [
            {
              "internalType": "uint64",
              "name": "value",
              "type": "uint64"
            },
            {
              "internalType": "uint64[2]",
              "name": "historicRootBlockNumberL2",
              "type": "uint64[2]"
            },
            {
              "internalType": "enum Structures.TransactionTypes",
              "name": "transactionType",
              "type": "uint8"
            },
            {
              "internalType": "enum Structures.TokenType",
              "name": "tokenType",
              "type": "uint8"
            },
            {
              "internalType": "bytes32",
              "name": "publicInputHash",
              "type": "bytes32"
            },
            {
              "internalType": "bytes32",
              "name": "tokenId",
              "type": "bytes32"
            },
            {
              "internalType": "bytes32",
              "name": "ercAddress",
              "type": "bytes32"
            },
            {
              "internalType": "bytes32",
              "name": "recipientAddress",
              "type": "bytes32"
            },
            {
              "internalType": "bytes32[2]",
              "name": "commitments",
              "type": "bytes32[2]"
            },
            {
              "internalType": "bytes32[2]",
              "name": "nullifiers",
              "type": "bytes32[2]"
            },
            {
              "internalType": "bytes32[8]",
              "name": "compressedSecrets",
              "type": "bytes32[8]"
            },
            {
              "internalType": "uint256[4]",
              "name": "proof",
              "type": "uint256[4]"
            }
          ],
          "internalType": "struct Structures.Transaction[]",
          "name": "ts",
          "type": "tuple[]"
        },
        {
          "internalType": "uint256",
          "name": "index",
          "type": "uint256"
        }
      ],
      "name": "setAdvanceWithdrawalFee",
      "outputs": [],
      "stateMutability": "payable",
      "type": "function",
      "payable": true
    }
  ],
  "bytecode": "0x60806040523480156200001157600080fd5b5033600160006101000a81548173ffffffffffffffffffffffffffffffffffffffff021916908373ffffffffffffffffffffffffffffffffffffffff1602179055506000600160146101000a81548160ff0219169083151502179055506200007f336200008560201b60201c565b620000c9565b80600260006101000a81548173ffffffffffffffffffffffffffffffffffffffff021916908373ffffffffffffffffffffffffffffffffffffffff16021790555050565b614eac80620000d96000396000f3fe60806040526004361061011f5760003560e01c8063a0392769116100a0578063c44ab64d11610064578063c44ab64d14610410578063e1ffed3414610439578063f23a6e6114610455578063f2fde38b14610492578063fd5320b5146104bb5761011f565b8063a039276914610317578063b2bdfa7b14610340578063b8de507b1461036b578063c0948068146103a8578063c19d93fb146103e55761011f565b806375b79335116100e757806375b79335146102205780638337babb1461025d57806384afda191461029a5780638da5cb5b146102c35780639e62bf35146102ee5761011f565b8063150b7a02146101245780631749dc01146101615780633823d66c1461017d5780633e59f33a146101ba5780633f896799146101e3575b600080fd5b34801561013057600080fd5b5061014b6004803603810190610146919061313c565b6104f8565b604051610158919061408c565b60405180910390f35b61017b600480360381019061017691906133ed565b61050d565b005b34801561018957600080fd5b506101a4600480360381019061019f91906132cf565b610960565b6040516101b1919061401f565b60405180910390f35b3480156101c657600080fd5b506101e160048036038101906101dc9190613386565b610980565b005b3480156101ef57600080fd5b5061020a600480360381019061020591906132cf565b610dce565b6040516102179190613eb7565b60405180910390f35b34801561022c57600080fd5b50610247600480360381019061024291906132cf565b610e01565b604051610254919061436b565b60405180910390f35b34801561026957600080fd5b50610284600480360381019061027f91906132cf565b610e19565b604051610291919061436b565b60405180910390f35b3480156102a657600080fd5b506102c160048036038101906102bc9190613113565b610e31565b005b3480156102cf57600080fd5b506102d8610f37565b6040516102e59190613eb7565b60405180910390f35b3480156102fa57600080fd5b5061031560048036038101906103109190613469565b610f61565b005b34801561032357600080fd5b5061033e6004803603810190610339919061324e565b611398565b005b34801561034c57600080fd5b506103556114dc565b6040516103629190613eb7565b60405180910390f35b34801561037757600080fd5b50610392600480360381019061038d91906132f8565b611502565b60405161039f9190613ffd565b60405180910390f35b3480156103b457600080fd5b506103cf60048036038101906103ca91906133ed565b6115dd565b6040516103dc919061401f565b60405180910390f35b3480156103f157600080fd5b506103fa611920565b60405161040791906140a7565b60405180910390f35b34801561041c57600080fd5b50610437600480360381019061043291906133ed565b611944565b005b610453600480360381019061044e9190613469565b611dae565b005b34801561046157600080fd5b5061047c600480360381019061047791906131bc565b611f0d565b604051610489919061408c565b60405180910390f35b34801561049e57600080fd5b506104b960048036038101906104b491906130ea565b611f3c565b005b3480156104c757600080fd5b506104e260048036038101906104dd9190613321565b612037565b6040516104ef919061436b565b60405180910390f35b600063150b7a0260e01b905095945050505050565b600380811115610546577f4e487b7100000000000000000000000000000000000000000000000000000000600052602160045260246000fd5b82828151811061057f577f4e487b7100000000000000000000000000000000000000000000000000000000600052603260045260246000fd5b60200260200101516040015160038111156105c3577f4e487b7100000000000000000000000000000000000000000000000000000000600052602160045260246000fd5b14610603576040517f08c379a00000000000000000000000000000000000000000000000000000000081526004016105fa906140dd565b60405180910390fd5b60008054906101000a900473ffffffffffffffffffffffffffffffffffffffff1673ffffffffffffffffffffffffffffffffffffffff16630c163fee8584866040518463ffffffff1660e01b81526004016106609392919061432d565b60006040518083038186803b15801561067857600080fd5b505afa15801561068c573d6000803e3d6000fd5b5050505060006106db8383815181106106ce577f4e487b7100000000000000000000000000000000000000000000000000000000600052603260045260246000fd5b6020026020010151612068565b90506004600082815260200190815260200160002060009054906101000a900460ff161561073e576040517f08c379a0000000000000000000000000000000000000000000000000000000008152600401610735906142bd565b60405180910390fd5b6000838381518110610779577f4e487b7100000000000000000000000000000000000000000000000000000000600052603260045260246000fd5b602002602001015160e0015160001c905060008073ffffffffffffffffffffffffffffffffffffffff166006600085815260200190815260200160002060009054906101000a900473ffffffffffffffffffffffffffffffffffffffff1673ffffffffffffffffffffffffffffffffffffffff161461082b576006600084815260200190815260200160002060009054906101000a900473ffffffffffffffffffffffffffffffffffffffff1661082d565b815b90508073ffffffffffffffffffffffffffffffffffffffff163373ffffffffffffffffffffffffffffffffffffffff161461089d576040517f08c379a00000000000000000000000000000000000000000000000000000000081526004016108949061419d565b60405180910390fd5b34600760008581526020019081526020016000208190555060008054906101000a900473ffffffffffffffffffffffffffffffffffffffff1673ffffffffffffffffffffffffffffffffffffffff166108fc349081150290604051600060405180830381858888f1935050505015801561091b573d6000803e3d6000fd5b507fad3c4a0dcee8f6938c110c1c6b94072b4bea981a94e50094f2adef55ba7718a983333460405161094f93929190614055565b60405180910390a150505050505050565b60046020528060005260406000206000915054906101000a900460ff1681565b600061098c84836120e2565b905060008054906101000a900473ffffffffffffffffffffffffffffffffffffffff1673ffffffffffffffffffffffffffffffffffffffff16630c163fee8584866040518463ffffffff1660e01b81526004016109eb9392919061432d565b60006040518083038186803b158015610a0357600080fd5b505afa158015610a17573d6000803e3d6000fd5b5050505060008060009054906101000a900473ffffffffffffffffffffffffffffffffffffffff1673ffffffffffffffffffffffffffffffffffffffff16631c9ab3ad856040518263ffffffff1660e01b8152600401610a77919061436b565b604080518083038186803b158015610a8e57600080fd5b505afa158015610aa2573d6000803e3d6000fd5b505050506040513d601f19601f82011682018060405250810190610ac6919061335d565b6020015190504262093a8082610adc91906145e3565b10610b1c576040517f08c379a0000000000000000000000000000000000000000000000000000000008152600401610b139061425d565b60405180910390fd5b3373ffffffffffffffffffffffffffffffffffffffff16856020015173ffffffffffffffffffffffffffffffffffffffff1614610b8e576040517f08c379a0000000000000000000000000000000000000000000000000000000008152600401610b859061415d565b60405180910390fd5b6000151560008054906101000a900473ffffffffffffffffffffffffffffffffffffffff1673ffffffffffffffffffffffffffffffffffffffff1663e34c13c5846040518263ffffffff1660e01b8152600401610beb919061403a565b60206040518083038186803b158015610c0357600080fd5b505afa158015610c17573d6000803e3d6000fd5b505050506040513d601f19601f82011682018060405250810190610c3b91906132a6565b151514610c7d576040517f08c379a0000000000000000000000000000000000000000000000000000000008152600401610c749061413d565b60405180910390fd5b600080600090505b8451811015610d29576000610cd9868381518110610ccc577f4e487b7100000000000000000000000000000000000000000000000000000000600052603260045260246000fd5b6020026020010151612068565b9050600560008281526020019081526020016000205483610cfa91906145e3565b925060006005600083815260200190815260200160002081905550508080610d219061478e565b915050610c85565b50600181610d3791906145e3565b905060008054906101000a900473ffffffffffffffffffffffffffffffffffffffff1673ffffffffffffffffffffffffffffffffffffffff1663a289261733836040518363ffffffff1660e01b8152600401610d94929190613fd4565b600060405180830381600087803b158015610dae57600080fd5b505af1158015610dc2573d6000803e3d6000fd5b50505050505050505050565b60066020528060005260406000206000915054906101000a900473ffffffffffffffffffffffffffffffffffffffff1681565b60056020528060005260406000206000915090505481565b60076020528060005260406000206000915090505481565b600160009054906101000a900473ffffffffffffffffffffffffffffffffffffffff1673ffffffffffffffffffffffffffffffffffffffff163373ffffffffffffffffffffffffffffffffffffffff16148015610e9b5750600160149054906101000a900460ff16155b610eda576040517f08c379a0000000000000000000000000000000000000000000000000000000008152600401610ed19061427d565b60405180910390fd5b60018060146101000a81548160ff021916908315150217905550806000806101000a81548173ffffffffffffffffffffffffffffffffffffffff021916908373ffffffffffffffffffffffffffffffffffffffff16021790555050565b6000600260009054906101000a900473ffffffffffffffffffffffffffffffffffffffff16905090565b6000610f6c82612068565b90506000600760008381526020019081526020016000205411610fc4576040517f08c379a0000000000000000000000000000000000000000000000000000000008152600401610fbb9061423d565b60405180910390fd5b60006002811115610ffe577f4e487b7100000000000000000000000000000000000000000000000000000000600052602160045260246000fd5b8260600151600281111561103b577f4e487b7100000000000000000000000000000000000000000000000000000000600052602160045260246000fd5b1461107b576040517f08c379a00000000000000000000000000000000000000000000000000000000081526004016110729061411d565b60405180910390fd5b6004600082815260200190815260200160002060009054906101000a900460ff16156110dc576040517f08c379a00000000000000000000000000000000000000000000000000000000081526004016110d3906142bd565b60405180910390fd5b60008260c0015160001c905060008360e0015160001c905060008073ffffffffffffffffffffffffffffffffffffffff166006600086815260200190815260200160002060009054906101000a900473ffffffffffffffffffffffffffffffffffffffff1673ffffffffffffffffffffffffffffffffffffffff1614611195576006600085815260200190815260200160002060009054906101000a900473ffffffffffffffffffffffffffffffffffffffff16611197565b815b90506000600760008681526020019081526020016000205490506000801b8660a00151146111fa576040517f08c379a00000000000000000000000000000000000000000000000000000000081526004016111f19061421d565b60405180910390fd5b8373ffffffffffffffffffffffffffffffffffffffff166323b872dd3384896000015167ffffffffffffffff166040518463ffffffff1660e01b815260040161124593929190613efb565b602060405180830381600087803b15801561125f57600080fd5b505af1158015611273573d6000803e3d6000fd5b505050506040513d601f19601f8201168201806040525081019061129791906132a6565b5060006007600087815260200190815260200160002081905550336006600087815260200190815260200160002060006101000a81548173ffffffffffffffffffffffffffffffffffffffff021916908373ffffffffffffffffffffffffffffffffffffffff16021790555060008054906101000a900473ffffffffffffffffffffffffffffffffffffffff1673ffffffffffffffffffffffffffffffffffffffff1663a289261733836040518363ffffffff1660e01b815260040161135e929190613fd4565b600060405180830381600087803b15801561137857600080fd5b505af115801561138c573d6000803e3d6000fd5b50505050505050505050565b6113a0610f37565b73ffffffffffffffffffffffffffffffffffffffff163373ffffffffffffffffffffffffffffffffffffffff161461140d576040517f08c379a0000000000000000000000000000000000000000000000000000000008152600401611404906141bd565b60405180910390fd5b82826003600084600381111561144c577f4e487b7100000000000000000000000000000000000000000000000000000000600052602160045260246000fd5b6003811115611484577f4e487b7100000000000000000000000000000000000000000000000000000000600052602160045260246000fd5b8152602001908152602001600020919061149f929190612a52565b507fcfd8f8b734ebb05f1872379d344363750ce642d6cbd9f66a55aa3f1dbeb0c5d3816040516114cf91906140c2565b60405180910390a1505050565b600260009054906101000a900473ffffffffffffffffffffffffffffffffffffffff1681565b606060036000836003811115611541577f4e487b7100000000000000000000000000000000000000000000000000000000600052602160045260246000fd5b6003811115611579577f4e487b7100000000000000000000000000000000000000000000000000000000600052602160045260246000fd5b81526020019081526020016000208054806020026020016040519081016040528092919081815260200182805480156115d157602002820191906000526020600020905b8154815260200190600101908083116115bd575b50505050509050919050565b60008060009054906101000a900473ffffffffffffffffffffffffffffffffffffffff1673ffffffffffffffffffffffffffffffffffffffff16630c163fee8685876040518463ffffffff1660e01b815260040161163d9392919061432d565b60006040518083038186803b15801561165557600080fd5b505afa158015611669573d6000803e3d6000fd5b5050505060008060009054906101000a900473ffffffffffffffffffffffffffffffffffffffff1673ffffffffffffffffffffffffffffffffffffffff16631c9ab3ad866040518263ffffffff1660e01b81526004016116c9919061436b565b604080518083038186803b1580156116e057600080fd5b505afa1580156116f4573d6000803e3d6000fd5b505050506040513d601f19601f82011682018060405250810190611718919061335d565b6020015190504262093a808261172e91906145e3565b1061176e576040517f08c379a0000000000000000000000000000000000000000000000000000000008152600401611765906141dd565b60405180910390fd5b60006117b98585815181106117ac577f4e487b7100000000000000000000000000000000000000000000000000000000600052603260045260246000fd5b6020026020010151612068565b90506004600082815260200190815260200160002060009054906101000a900460ff161561181c576040517f08c379a00000000000000000000000000000000000000000000000000000000081526004016118139061429d565b60405180910390fd5b600380811115611855577f4e487b7100000000000000000000000000000000000000000000000000000000600052602160045260246000fd5b85858151811061188e577f4e487b7100000000000000000000000000000000000000000000000000000000600052603260045260246000fd5b60200260200101516040015160038111156118d2577f4e487b7100000000000000000000000000000000000000000000000000000000600052602160045260246000fd5b14611912576040517f08c379a0000000000000000000000000000000000000000000000000000000008152600401611909906142dd565b60405180910390fd5b600192505050949350505050565b60008054906101000a900473ffffffffffffffffffffffffffffffffffffffff1681565b60008054906101000a900473ffffffffffffffffffffffffffffffffffffffff1673ffffffffffffffffffffffffffffffffffffffff16630c163fee8584866040518463ffffffff1660e01b81526004016119a19392919061432d565b60006040518083038186803b1580156119b957600080fd5b505afa1580156119cd573d6000803e3d6000fd5b5050505060008060009054906101000a900473ffffffffffffffffffffffffffffffffffffffff1673ffffffffffffffffffffffffffffffffffffffff16631c9ab3ad856040518263ffffffff1660e01b8152600401611a2d919061436b565b604080518083038186803b158015611a4457600080fd5b505afa158015611a58573d6000803e3d6000fd5b505050506040513d601f19601f82011682018060405250810190611a7c919061335d565b6020015190504262093a8082611a9291906145e3565b10611ad2576040517f08c379a0000000000000000000000000000000000000000000000000000000008152600401611ac9906141dd565b60405180910390fd5b6000611b1d848481518110611b10577f4e487b7100000000000000000000000000000000000000000000000000000000600052603260045260246000fd5b6020026020010151612068565b90506004600082815260200190815260200160002060009054906101000a900460ff1615611b80576040517f08c379a0000000000000000000000000000000000000000000000000000000008152600401611b779061429d565b60405180910390fd5b60016004600083815260200190815260200160002060006101000a81548160ff021916908315150217905550600380811115611be5577f4e487b7100000000000000000000000000000000000000000000000000000000600052602160045260246000fd5b848481518110611c1e577f4e487b7100000000000000000000000000000000000000000000000000000000600052603260045260246000fd5b6020026020010151604001516003811115611c62577f4e487b7100000000000000000000000000000000000000000000000000000000600052602160045260246000fd5b1415611da6576000848481518110611ca3577f4e487b7100000000000000000000000000000000000000000000000000000000600052603260045260246000fd5b602002602001015160e0015160001c905060008073ffffffffffffffffffffffffffffffffffffffff166006600085815260200190815260200160002060009054906101000a900473ffffffffffffffffffffffffffffffffffffffff1673ffffffffffffffffffffffffffffffffffffffff1614611d55576006600084815260200190815260200160002060009054906101000a900473ffffffffffffffffffffffffffffffffffffffff16611d57565b815b9050611da3868681518110611d95577f4e487b7100000000000000000000000000000000000000000000000000000000600052603260045260246000fd5b602002602001015182612115565b50505b505050505050565b7fd9364d1faedd45a064f9090dd61ade3de8d1c1fd83caaa8ebdc4b9808f4eb98960405160405180910390a160006003811115611e14577f4e487b7100000000000000000000000000000000000000000000000000000000600052602160045260246000fd5b81604001516003811115611e51577f4e487b7100000000000000000000000000000000000000000000000000000000600052602160045260246000fd5b1415611e6157611e6081612591565b5b6000611e6c82612068565b90503460056000838152602001908152602001600020541015611ea2573460056000838152602001908152602001600020819055505b60008054906101000a900473ffffffffffffffffffffffffffffffffffffffff1673ffffffffffffffffffffffffffffffffffffffff166108fc349081150290604051600060405180830381858888f19350505050158015611f08573d6000803e3d6000fd5b505050565b60007ff23a6e612e1ff4830e658fe43f4e3cb4a5f8170bd5d9e69fb5d7a7fa9e4fdf9790509695505050505050565b611f44610f37565b73ffffffffffffffffffffffffffffffffffffffff163373ffffffffffffffffffffffffffffffffffffffff1614611fb1576040517f08c379a0000000000000000000000000000000000000000000000000000000008152600401611fa8906141bd565b60405180910390fd5b600073ffffffffffffffffffffffffffffffffffffffff168173ffffffffffffffffffffffffffffffffffffffff161415611feb57600080fd5b7f8be0079c531659141344cd1fd0a4f28419497f9722a3daafe3b4186f6b6457e0612014610f37565b82604051612023929190613ed2565b60405180910390a161203481612a0e565b50565b6003602052816000526040600020818154811061205357600080fd5b90600052602060002001600091509150505481565b6000816000015182602001518360400151846060015185608001518660a001518760c001518860e001518961010001518a61012001518b61014001518c61016001516040516020016120c59c9b9a99989796959493929190613de0565b604051602081830303815290604052805190602001209050919050565b600082826040516020016120f79291906142fd565b60405160208183030381529060405280519060200120905092915050565b60008260c0015160001c90506000600281111561215b577f4e487b7100000000000000000000000000000000000000000000000000000000600052602160045260246000fd5b83606001516002811115612198577f4e487b7100000000000000000000000000000000000000000000000000000000600052602160045260246000fd5b1415612288576000801b8360a00151146121e7576040517f08c379a00000000000000000000000000000000000000000000000000000000081526004016121de9061421d565b60405180910390fd5b8073ffffffffffffffffffffffffffffffffffffffff1663a9059cbb83856000015167ffffffffffffffff166040518363ffffffff1660e01b8152600401612230929190613fd4565b602060405180830381600087803b15801561224a57600080fd5b505af115801561225e573d6000803e3d6000fd5b505050506040513d601f19601f8201168201806040525081019061228291906132a6565b5061258c565b600160028111156122c2577f4e487b7100000000000000000000000000000000000000000000000000000000600052602160045260246000fd5b836060015160028111156122ff577f4e487b7100000000000000000000000000000000000000000000000000000000600052602160045260246000fd5b14156123e4576000836000015167ffffffffffffffff1614158061232957506000801b8360a00151145b15612369576040517f08c379a0000000000000000000000000000000000000000000000000000000008152600401612360906141fd565b60405180910390fd5b8073ffffffffffffffffffffffffffffffffffffffff1663b88d4fde30848660a0015160001c6040518463ffffffff1660e01b81526004016123ad93929190613f32565b600060405180830381600087803b1580156123c757600080fd5b505af11580156123db573d6000803e3d6000fd5b5050505061258b565b60028081111561241d577f4e487b7100000000000000000000000000000000000000000000000000000000600052602160045260246000fd5b8360600151600281111561245a577f4e487b7100000000000000000000000000000000000000000000000000000000600052602160045260246000fd5b141561254f576000801b8360a0015114801561248457506000836000015167ffffffffffffffff16145b156124c4576040517f08c379a00000000000000000000000000000000000000000000000000000000081526004016124bb906140fd565b60405180910390fd5b8073ffffffffffffffffffffffffffffffffffffffff1663f242432a30848660a0015160001c876000015167ffffffffffffffff166040518563ffffffff1660e01b81526004016125189493929190613f7c565b600060405180830381600087803b15801561253257600080fd5b505af1158015612546573d6000803e3d6000fd5b5050505061258a565b6040517f08c379a00000000000000000000000000000000000000000000000000000000081526004016125819061417d565b60405180910390fd5b5b5b505050565b60008160c0015160001c9050600060028111156125d7577f4e487b7100000000000000000000000000000000000000000000000000000000600052602160045260246000fd5b82606001516002811115612614577f4e487b7100000000000000000000000000000000000000000000000000000000600052602160045260246000fd5b1415612706576000801b8260a0015114612663576040517f08c379a000000000000000000000000000000000000000000000000000000000815260040161265a9061421d565b60405180910390fd5b8073ffffffffffffffffffffffffffffffffffffffff166323b872dd3330856000015167ffffffffffffffff166040518463ffffffff1660e01b81526004016126ae93929190613efb565b602060405180830381600087803b1580156126c857600080fd5b505af11580156126dc573d6000803e3d6000fd5b505050506040513d601f19601f8201168201806040525081019061270091906132a6565b50612a0a565b60016002811115612740577f4e487b7100000000000000000000000000000000000000000000000000000000600052602160045260246000fd5b8260600151600281111561277d577f4e487b7100000000000000000000000000000000000000000000000000000000600052602160045260246000fd5b1415612862576000826000015167ffffffffffffffff161415806127a757506000801b8260a00151145b156127e7576040517f08c379a00000000000000000000000000000000000000000000000000000000081526004016127de906141fd565b60405180910390fd5b8073ffffffffffffffffffffffffffffffffffffffff1663b88d4fde33308560a0015160001c6040518463ffffffff1660e01b815260040161282b93929190613f32565b600060405180830381600087803b15801561284557600080fd5b505af1158015612859573d6000803e3d6000fd5b50505050612a09565b60028081111561289b577f4e487b7100000000000000000000000000000000000000000000000000000000600052602160045260246000fd5b826060015160028111156128d8577f4e487b7100000000000000000000000000000000000000000000000000000000600052602160045260246000fd5b14156129cd576000801b8260a0015114801561290257506000826000015167ffffffffffffffff16145b15612942576040517f08c379a0000000000000000000000000000000000000000000000000000000008152600401612939906140fd565b60405180910390fd5b8073ffffffffffffffffffffffffffffffffffffffff1663f242432a33308560a0015160001c866000015167ffffffffffffffff166040518563ffffffff1660e01b81526004016129969493929190613f7c565b600060405180830381600087803b1580156129b057600080fd5b505af11580156129c4573d6000803e3d6000fd5b50505050612a08565b6040517f08c379a00000000000000000000000000000000000000000000000000000000081526004016129ff9061417d565b60405180910390fd5b5b5b5050565b80600260006101000a81548173ffffffffffffffffffffffffffffffffffffffff021916908373ffffffffffffffffffffffffffffffffffffffff16021790555050565b828054828255906000526020600020908101928215612a8e579160200282015b82811115612a8d578235825591602001919060010190612a72565b5b509050612a9b9190612a9f565b5090565b5b80821115612ab8576000816000905550600101612aa0565b5090565b6000612acf612aca846143ab565b614386565b90508082856020860282011115612ae557600080fd5b60005b85811015612b155781612afb8882612e05565b845260208401935060208301925050600181019050612ae8565b5050509392505050565b6000612b32612b2d846143d1565b614386565b90508082856020860282011115612b4857600080fd5b60005b85811015612b785781612b5e8882612e05565b845260208401935060208301925050600181019050612b4b565b5050509392505050565b6000612b95612b90846143f7565b614386565b9050808382526020820190508285610320860282011115612bb557600080fd5b60005b85811015612be65781612bcb8882612f77565b84526020840193506103208301925050600181019050612bb8565b5050509392505050565b6000612c03612bfe84614423565b614386565b90508082856020860282011115612c1957600080fd5b60005b85811015612c495781612c2f8882613096565b845260208401935060208301925050600181019050612c1c565b5050509392505050565b6000612c66612c6184614449565b614386565b90508082856020860282011115612c7c57600080fd5b60005b85811015612cac5781612c9288826130d5565b845260208401935060208301925050600181019050612c7f565b5050509392505050565b600081359050612cc581614db5565b92915050565b600081359050612cda81614dcc565b92915050565b600082601f830112612cf157600080fd5b6002612cfe848285612abc565b91505092915050565b600082601f830112612d1857600080fd5b6008612d25848285612b1f565b91505092915050565b600082601f830112612d3f57600080fd5b8135612d4f848260208601612b82565b91505092915050565b600082601f830112612d6957600080fd5b6004612d76848285612bf0565b91505092915050565b60008083601f840112612d9157600080fd5b8235905067ffffffffffffffff811115612daa57600080fd5b602083019150836020820283011115612dc257600080fd5b9250929050565b600082601f830112612dda57600080fd5b6002612de7848285612c53565b91505092915050565b600081519050612dff81614de3565b92915050565b600081359050612e1481614dfa565b92915050565b600081519050612e2981614dfa565b92915050565b60008083601f840112612e4157600080fd5b8235905067ffffffffffffffff811115612e5a57600080fd5b602083019150836001820283011115612e7257600080fd5b9250929050565b600081359050612e8881614e11565b92915050565b600081359050612e9d81614e21565b92915050565b600060408284031215612eb557600080fd5b612ebf6040614386565b90506000612ecf84828501612e1a565b6000830152506020612ee3848285016130ab565b60208301525092915050565b600060a08284031215612f0157600080fd5b612f0b60a0614386565b90506000612f1b848285016130c0565b6000830152506020612f2f84828501612cb6565b6020830152506040612f4384828501612e05565b6040830152506060612f5784828501613096565b6060830152506080612f6b84828501612e05565b60808301525092915050565b60006103208284031215612f8a57600080fd5b612f95610180614386565b90506000612fa5848285016130d5565b6000830152506020612fb984828501612dc9565b6020830152506060612fcd84828501612e8e565b6040830152506080612fe184828501612e79565b60608301525060a0612ff584828501612e05565b60808301525060c061300984828501612e05565b60a08301525060e061301d84828501612e05565b60c08301525061010061303284828501612e05565b60e08301525061012061304784828501612ce0565b6101008301525061016061305d84828501612ce0565b610120830152506101a061307384828501612d07565b610140830152506102a061308984828501612d58565b6101608301525092915050565b6000813590506130a581614e31565b92915050565b6000815190506130ba81614e31565b92915050565b6000813590506130cf81614e48565b92915050565b6000813590506130e481614e5f565b92915050565b6000602082840312156130fc57600080fd5b600061310a84828501612cb6565b91505092915050565b60006020828403121561312557600080fd5b600061313384828501612ccb565b91505092915050565b60008060008060006080868803121561315457600080fd5b600061316288828901612cb6565b955050602061317388828901612cb6565b945050604061318488828901613096565b935050606086013567ffffffffffffffff8111156131a157600080fd5b6131ad88828901612e2f565b92509250509295509295909350565b60008060008060008060a087890312156131d557600080fd5b60006131e389828a01612cb6565b96505060206131f489828a01612cb6565b955050604061320589828a01613096565b945050606061321689828a01613096565b935050608087013567ffffffffffffffff81111561323357600080fd5b61323f89828a01612e2f565b92509250509295509295509295565b60008060006040848603121561326357600080fd5b600084013567ffffffffffffffff81111561327d57600080fd5b61328986828701612d7f565b9350935050602061329c86828701612e8e565b9150509250925092565b6000602082840312156132b857600080fd5b60006132c684828501612df0565b91505092915050565b6000602082840312156132e157600080fd5b60006132ef84828501612e05565b91505092915050565b60006020828403121561330a57600080fd5b600061331884828501612e8e565b91505092915050565b6000806040838503121561333457600080fd5b600061334285828601612e8e565b925050602061335385828601613096565b9150509250929050565b60006040828403121561336f57600080fd5b600061337d84828501612ea3565b91505092915050565b600080600060e0848603121561339b57600080fd5b60006133a986828701612eef565b93505060a06133ba86828701613096565b92505060c084013567ffffffffffffffff8111156133d757600080fd5b6133e386828701612d2e565b9150509250925092565b600080600080610100858703121561340457600080fd5b600061341287828801612eef565b94505060a061342387828801613096565b93505060c085013567ffffffffffffffff81111561344057600080fd5b61344c87828801612d2e565b92505060e061345d87828801613096565b91505092959194509250565b6000610320828403121561347c57600080fd5b600061348a84828501612f77565b91505092915050565b600061349f83836138dd565b60208301905092915050565b60006134b783836138fb565b60208301905092915050565b60006134cf8383613c78565b6103208301905092915050565b60006134e88383613d6f565b60208301905092915050565b60006135008383613d8d565b60208301905092915050565b60006135188383613dab565b60208301905092915050565b60006135308383613dba565b60208301905092915050565b61354581614639565b82525050565b61355481614639565b82525050565b613563816144b7565b61356d8184614547565b92506135788261446f565b8060005b838110156135a95781516135908782613493565b965061359b836144f9565b92505060018101905061357c565b505050505050565b6135ba816144b7565b6135c48184614552565b92506135cf8261446f565b8060005b838110156136005781516135e787826134ab565b96506135f2836144f9565b9250506001810190506135d3565b505050505050565b613611816144c2565b61361b818461455d565b925061362682614479565b8060005b8381101561365757815161363e8782613493565b965061364983614506565b92505060018101905061362a565b505050505050565b613668816144c2565b6136728184614568565b925061367d82614479565b8060005b838110156136ae57815161369587826134ab565b96506136a083614506565b925050600181019050613681565b505050505050565b60006136c1826144cd565b6136cb8185614573565b93506136d683614483565b8060005b838110156137075781516136ee88826134c3565b97506136f983614513565b9250506001810190506136da565b5085935050505092915050565b61371d816144d8565b6137278184614584565b925061373282614493565b8060005b8381101561376357815161374a87826134dc565b965061375583614520565b925050600181019050613736565b505050505050565b613774816144d8565b61377e818461458f565b925061378982614493565b8060005b838110156137ba5781516137a187826134f4565b96506137ac83614520565b92505060018101905061378d565b505050505050565b60006137cd826144e3565b6137d7818561459a565b93506137e28361449d565b8060005b838110156138135781516137fa88826134dc565b97506138058361452d565b9250506001810190506137e6565b5085935050505092915050565b613829816144ee565b61383381846145ab565b925061383e826144ad565b8060005b8381101561386f578151613856878261350c565b96506138618361453a565b925050600181019050613842565b505050505050565b613880816144ee565b61388a81846145b6565b9250613895826144ad565b8060005b838110156138c65781516138ad8782613524565b96506138b88361453a565b925050600181019050613899565b505050505050565b6138d78161465d565b82525050565b6138e681614669565b82525050565b6138f581614669565b82525050565b61390481614669565b82525050565b61391b61391682614669565b6147d7565b82525050565b61392a81614673565b82525050565b61393981614715565b82525050565b61394881614739565b82525050565b61395f61395a82614739565b6147f3565b82525050565b61396e8161474b565b82525050565b61397d8161474b565b82525050565b61399461398f8261474b565b6147f3565b82525050565b60006139a7601c836145d2565b91506139b2826148bd565b602082019050919050565b60006139ca6033836145d2565b91506139d5826148e6565b604082019050919050565b60006139ed6030836145d2565b91506139f882614935565b604082019050919050565b6000613a106031836145d2565b9150613a1b82614984565b604082019050919050565b6000613a336026836145d2565b9150613a3e826149d3565b604082019050919050565b6000613a566012836145d2565b9150613a6182614a22565b602082019050919050565b6000613a796030836145d2565b9150613a8482614a4b565b604082019050919050565b6000613a9c602e836145d2565b9150613aa782614a9a565b604082019050919050565b6000613abf6030836145d2565b9150613aca82614ae9565b604082019050919050565b6000613ae26021836145d2565b9150613aed82614b38565b604082019050919050565b6000613b05602f836145d2565b9150613b1082614b87565b604082019050919050565b6000613b286030836145d2565b9150613b3382614bd6565b604082019050919050565b6000613b4b6029836145d2565b9150613b5682614c25565b604082019050919050565b6000613b6e6023836145d2565b9150613b7982614c74565b604082019050919050565b6000613b916000836145c1565b9150613b9c82614cc3565b600082019050919050565b6000613bb46025836145d2565b9150613bbf82614cc6565b604082019050919050565b6000613bd76016836145d2565b9150613be282614d15565b602082019050919050565b6000613bfa6028836145d2565b9150613c0582614d3e565b604082019050919050565b60a082016000820151613c266000850182613d9c565b506020820151613c39602085018261353c565b506040820151613c4c60408501826138dd565b506060820151613c5f6060850182613d6f565b506080820151613c7260808501826138dd565b50505050565b61032082016000820151613c8f6000850182613dab565b506020820151613ca26020850182613820565b506040820151613cb56060850182613965565b506060820151613cc8608085018261393f565b506080820151613cdb60a08501826138dd565b5060a0820151613cee60c08501826138dd565b5060c0820151613d0160e08501826138dd565b5060e0820151613d156101008501826138dd565b50610100820151613d2a61012085018261355a565b50610120820151613d3f61016085018261355a565b50610140820151613d546101a0850182613608565b50610160820151613d696102a0850182613714565b50505050565b613d78816146e5565b82525050565b613d87816146e5565b82525050565b613d96816146e5565b82525050565b613da5816146ef565b82525050565b613db481614701565b82525050565b613dc381614701565b82525050565b613dda613dd582614701565b6147e1565b82525050565b6000613dec828f613dc9565b600882019150613dfc828e613877565b604082019150613e0c828d613983565b600182019150613e1c828c61394e565b600182019150613e2c828b61390a565b602082019150613e3c828a61390a565b602082019150613e4c828961390a565b602082019150613e5c828861390a565b602082019150613e6c82876135b1565b604082019150613e7c82866135b1565b604082019150613e8c828561365f565b61010082019150613e9d828461376b565b6080820191508190509d9c50505050505050505050505050565b6000602082019050613ecc600083018461354b565b92915050565b6000604082019050613ee7600083018561354b565b613ef4602083018461354b565b9392505050565b6000606082019050613f10600083018661354b565b613f1d602083018561354b565b613f2a6040830184613d7e565b949350505050565b6000608082019050613f47600083018661354b565b613f54602083018561354b565b613f616040830184613d7e565b8181036060830152613f7281613b84565b9050949350505050565b600060a082019050613f91600083018761354b565b613f9e602083018661354b565b613fab6040830185613d7e565b613fb86060830184613d7e565b8181036080830152613fc981613b84565b905095945050505050565b6000604082019050613fe9600083018561354b565b613ff66020830184613d7e565b9392505050565b6000602082019050818103600083015261401781846137c2565b905092915050565b600060208201905061403460008301846138ce565b92915050565b600060208201905061404f60008301846138ec565b92915050565b600060608201905061406a60008301866138ec565b614077602083018561354b565b6140846040830184613d7e565b949350505050565b60006020820190506140a16000830184613921565b92915050565b60006020820190506140bc6000830184613930565b92915050565b60006020820190506140d76000830184613974565b92915050565b600060208201905081810360008301526140f68161399a565b9050919050565b60006020820190508181036000830152614116816139bd565b9050919050565b60006020820190508181036000830152614136816139e0565b9050919050565b6000602082019050818103600083015261415681613a03565b9050919050565b6000602082019050818103600083015261417681613a26565b9050919050565b6000602082019050818103600083015261419681613a49565b9050919050565b600060208201905081810360008301526141b681613a6c565b9050919050565b600060208201905081810360008301526141d681613a8f565b9050919050565b600060208201905081810360008301526141f681613ab2565b9050919050565b6000602082019050818103600083015261421681613ad5565b9050919050565b6000602082019050818103600083015261423681613af8565b9050919050565b6000602082019050818103600083015261425681613b1b565b9050919050565b6000602082019050818103600083015261427681613b3e565b9050919050565b6000602082019050818103600083015261429681613b61565b9050919050565b600060208201905081810360008301526142b681613ba7565b9050919050565b600060208201905081810360008301526142d681613bca565b9050919050565b600060208201905081810360008301526142f681613bed565b9050919050565b600060c0820190506143126000830185613c10565b81810360a083015261432481846136b6565b90509392505050565b600060e0820190506143426000830186613c10565b81810360a083015261435481856136b6565b905061436360c0830184613d7e565b949350505050565b60006020820190506143806000830184613d7e565b92915050565b60006143906143a1565b905061439c828261475d565b919050565b6000604051905090565b600067ffffffffffffffff8211156143c6576143c5614863565b5b602082029050919050565b600067ffffffffffffffff8211156143ec576143eb614863565b5b602082029050919050565b600067ffffffffffffffff82111561441257614411614863565b5b602082029050602081019050919050565b600067ffffffffffffffff82111561443e5761443d614863565b5b602082029050919050565b600067ffffffffffffffff82111561446457614463614863565b5b602082029050919050565b6000819050919050565b6000819050919050565b6000819050602082019050919050565b6000819050919050565b6000819050602082019050919050565b6000819050919050565b600060029050919050565b600060089050919050565b600081519050919050565b600060049050919050565b600081519050919050565b600060029050919050565b6000602082019050919050565b6000602082019050919050565b6000602082019050919050565b6000602082019050919050565b6000602082019050919050565b6000602082019050919050565b600081905092915050565b600081905092915050565b600081905092915050565b600081905092915050565b600082825260208201905092915050565b600081905092915050565b600081905092915050565b600082825260208201905092915050565b600081905092915050565b600081905092915050565b600082825260208201905092915050565b600082825260208201905092915050565b60006145ee826146e5565b91506145f9836146e5565b9250827fffffffffffffffffffffffffffffffffffffffffffffffffffffffffffffffff0382111561462e5761462d614805565b5b828201905092915050565b6000614644826146c5565b9050919050565b6000614656826146c5565b9050919050565b60008115159050919050565b6000819050919050565b60007fffffffff0000000000000000000000000000000000000000000000000000000082169050919050565b60008190506146ad82614d8d565b919050565b60008190506146c082614da1565b919050565b600073ffffffffffffffffffffffffffffffffffffffff82169050919050565b6000819050919050565b600065ffffffffffff82169050919050565b600067ffffffffffffffff82169050919050565b600061472082614727565b9050919050565b6000614732826146c5565b9050919050565b60006147448261469f565b9050919050565b6000614756826146b2565b9050919050565b61476682614892565b810181811067ffffffffffffffff8211171561478557614784614863565b5b80604052505050565b6000614799826146e5565b91507fffffffffffffffffffffffffffffffffffffffffffffffffffffffffffffffff8214156147cc576147cb614805565b5b600182019050919050565b6000819050919050565b60006147ec826148a3565b9050919050565b60006147fe826148b0565b9050919050565b7f4e487b7100000000000000000000000000000000000000000000000000000000600052601160045260246000fd5b7f4e487b7100000000000000000000000000000000000000000000000000000000600052602160045260246000fd5b7f4e487b7100000000000000000000000000000000000000000000000000000000600052604160045260246000fd5b6000601f19601f8301169050919050565b60008160c01b9050919050565b60008160f81b9050919050565b7f43616e206f6e6c7920616476616e6365207769746864726177616c7300000000600082015250565b7f4465706f736974696e67207a65726f2d76616c7565204552433131353520746f60008201527f6b656e73206973206e6f7420616c6c6f77656400000000000000000000000000602082015250565b7f43616e206f6e6c7920616476616e6365207769746864726177616c7320666f7260008201527f2066756e6769626c6520746f6b656e7300000000000000000000000000000000602082015250565b7f54686520626c6f636b207374616b6520666f72207468697320626c6f636b206960008201527f7320616c726561647920636c61696d6564000000000000000000000000000000602082015250565b7f596f7520617265206e6f74207468652070726f706f736572206f66207468697360008201527f20626c6f636b0000000000000000000000000000000000000000000000000000602082015250565b7f496e76616c696420546f6b656e20547970650000000000000000000000000000600082015250565b7f596f7520617265206e6f74207468652063757272656e74206f776e6572206f6660008201527f2074686973207769746864726177616c00000000000000000000000000000000602082015250565b7f596f7520617265206e6f7420617574686f726973656420746f20696e766f6b6560008201527f20746869732066756e6374696f6e000000000000000000000000000000000000602082015250565b7f497420697320746f6f20736f6f6e20746f2077697468647261772066756e647360008201527f2066726f6d207468697320626c6f636b00000000000000000000000000000000602082015250565b7f496e76616c696420696e7075747320666f7220455243373231206465706f736960008201527f7400000000000000000000000000000000000000000000000000000000000000602082015250565b7f4552433230206465706f7369742073686f756c64206861766520746f6b656e4960008201527f6420657175616c20746f205a45524f0000000000000000000000000000000000602082015250565b7f4e6f20616476616e6365642066656520686173206265656e2073657420666f7260008201527f2074686973207769746864726177616c00000000000000000000000000000000602082015250565b7f497420697320746f6f20736f6f6e20746f20676574207061696420666f72207460008201527f68697320626c6f636b0000000000000000000000000000000000000000000000602082015250565b7f4f6e6c7920746865206f776e65722063616e2063616c6c20746869732c206f6e60008201527f63652e0000000000000000000000000000000000000000000000000000000000602082015250565b50565b7f54686973207472616e73616374696f6e2068617320616c72656164792070616960008201527f64206f7574000000000000000000000000000000000000000000000000000000602082015250565b7f43616e6e6f7420646f75626c6520776974686472617700000000000000000000600082015250565b7f54686973207472616e73616374696f6e206973206e6f7420612076616c69642060008201527f5749544844524157000000000000000000000000000000000000000000000000602082015250565b60038110614d9e57614d9d614834565b5b50565b60048110614db257614db1614834565b5b50565b614dbe81614639565b8114614dc957600080fd5b50565b614dd58161464b565b8114614de057600080fd5b50565b614dec8161465d565b8114614df757600080fd5b50565b614e0381614669565b8114614e0e57600080fd5b50565b60038110614e1e57600080fd5b50565b60048110614e2e57600080fd5b50565b614e3a816146e5565b8114614e4557600080fd5b50565b614e51816146ef565b8114614e5c57600080fd5b50565b614e6881614701565b8114614e7357600080fd5b5056fea26469706673582212209aa916d515beb172b46ea8ba712f2b4bf81e13588edd52897d9b15521808501764736f6c63430008030033",
  "immutableReferences": {},
  "source": "// SPDX-License-Identifier: CC0-1.0\n\n/**\nContract to enable someone to submit a ZKP transaction for processing.\nIt is possible we will move this off-chain in the future as blockchain\nfunctionality is not really required - it's just a data availability aid.\n@Author Westlad\n*/\n\npragma solidity ^0.8.0;\npragma experimental ABIEncoderV2;\n\nimport './Utils.sol';\nimport './ERCInterface.sol';\nimport './Key_Registry.sol';\nimport './Structures.sol';\nimport './Config.sol';\nimport './Stateful.sol';\n\ncontract Shield is Stateful, Structures, Config, Key_Registry {\n\n  mapping(bytes32 => bool) public withdrawn;\n  mapping(bytes32 => uint) public feeBook;\n  mapping(bytes32 => address) public advancedWithdrawals;\n  mapping(bytes32 => uint) public advancedFeeWithdrawals;\n\n  function submitTransaction(Transaction memory t) external payable {\n    // let everyone know what you did\n    emit TransactionSubmitted();\n    // if this is a deposit transaction, take payment now (TODO: is there a\n    // better way? This feels expensive).\n    if (t.transactionType == TransactionTypes.DEPOSIT) payIn(t);\n    // we need to remember the payment made for each transaction so we can pay\n    // the proposer later. We can override the transaction with a higher fee if\n    // we wish, but not lower it (because otherwise someone would be able to\n    // slow down or stop our transaction)\n    bytes32 transactionHash = Utils.hashTransaction(t);\n    if (feeBook[transactionHash] < msg.value) feeBook[transactionHash] = msg.value;\n    payable(address(state)).transfer(msg.value);\n  }\n\n  // function to enable a proposer to get paid for proposing a block\n  function requestBlockPayment(Block memory b, uint blockNumberL2, Transaction[] memory ts) external {\n    bytes32 blockHash = Utils.hashBlock(b, ts);\n    state.isBlockReal(b, ts, blockNumberL2);\n    // check that the block has been finalised\n    uint time = state.getBlockData(blockNumberL2).time;\n    require(time + COOLING_OFF_PERIOD < block.timestamp, 'It is too soon to get paid for this block');\n    require(b.proposer == msg.sender, 'You are not the proposer of this block');\n    require(state.isBlockStakeWithdrawn(blockHash) == false, 'The block stake for this block is already claimed');\n    // add up how much the proposer is owed.\n    uint payment;\n    for (uint i = 0; i < ts.length; i++) {\n      bytes32 transactionHash = Utils.hashTransaction(ts[i]);\n      payment += feeBook[transactionHash];\n      feeBook[transactionHash] = 0; // clear the payment\n    }\n    payment += BLOCK_STAKE;\n    state.addPendingWithdrawal(msg.sender, payment);\n  }\n\n  function onERC721Received(address, address _from, uint256 _tokenId, bytes calldata) external returns(bytes4) {\n\n    return 0x150b7a02;\n  }\n\n  function onERC1155Received(address _operator, address _from, uint256 _id, uint256 _value, bytes calldata _data) external returns(bytes4){\n    return bytes4(keccak256(\"onERC1155Received(address,address,uint256,uint256,bytes)\"));\n  }\n\n  /**\n  This function returns if you are able to withdraw the funds, once a block is finalised\n  @param b - the block containing the Withdraw transaction\n  @param ts - array of the transactions contained in the block\n  @param index - the index of the transaction that locates it in the array of Transactions in Block b\n  */\n  function isValidWithdrawal(Block memory b, uint blockNumberL2, Transaction[] memory ts, uint index) view external returns(bool) {    \n    // check this block is a real one, in the queue, not something made up.\n    state.isBlockReal(b, ts, blockNumberL2);\n    // check that the block has been finalised\n    uint time = state.getBlockData(blockNumberL2).time;\n    require(time + COOLING_OFF_PERIOD < block.timestamp, 'It is too soon to withdraw funds from this block');\n    \n    bytes32 transactionHash = Utils.hashTransaction(ts[index]);\n    require(!withdrawn[transactionHash], 'This transaction has already paid out');\n    require(ts[index].transactionType == TransactionTypes.WITHDRAW, 'This transaction is not a valid WITHDRAW');\n   \n    return true;\n  }\n\n  /**\n  This function enables funds to be withdrawn, once a block is finalised\n  @param b - the block containing the Withdraw transaction\n  @param ts - array of the transactions contained in the block\n  @param index - the index of the transaction that locates it in the array of Transactions in Block b\n  TODO do we need to pass in  all the block data?\n  */\n  function finaliseWithdrawal(Block memory b, uint blockNumberL2, Transaction[] memory ts, uint index) external {\n    // check this block is a real one, in the queue, not something made up.\n    state.isBlockReal(b, ts, blockNumberL2);\n    // check that the block has been finalised\n    uint time = state.getBlockData(blockNumberL2).time;\n    require(time + COOLING_OFF_PERIOD < block.timestamp, 'It is too soon to withdraw funds from this block');\n    bytes32 transactionHash = Utils.hashTransaction(ts[index]);\n    require(!withdrawn[transactionHash], 'This transaction has already paid out');\n    withdrawn[transactionHash] = true;\n    if (ts[index].transactionType == TransactionTypes.WITHDRAW) {\n      address originalRecipientAddress = address(uint160(uint256(ts[index].recipientAddress)));\n      // check if an advancedWithdrawal has been paid, if so payout the new owner.\n      address recipientAddress = advancedWithdrawals[transactionHash] == address(0) ? originalRecipientAddress : advancedWithdrawals[transactionHash];\n      payOut(ts[index],recipientAddress);\n    }\n  }\n\n  // TODO does this need to be constrained to blocks within the challenge window\n  // Currently this can pose as a non-interactive way for transactors to get their withdrawals\n  // Instead of calling finaliseWithdrawal (a pull op), advanceWithdrawal will send them the funds (push op) for a fee.\n  function advanceWithdrawal(Transaction memory withdrawTransaction) external {\n    bytes32 withdrawTransactionHash = Utils.hashTransaction(withdrawTransaction);\n\n    // if no fee is set, then the withdrawal is not tagged as advanceable - else someone could just steal withdrawals\n    require(advancedFeeWithdrawals[withdrawTransactionHash] > 0, 'No advanced fee has been set for this withdrawal');\n    require(withdrawTransaction.tokenType == TokenType.ERC20, 'Can only advance withdrawals for fungible tokens');\n    // The withdrawal has not been withdrawn\n    require(!withdrawn[withdrawTransactionHash], 'Cannot double withdraw');\n\n    // TODO should we check if the withdrawal is not in a finalised block\n    // this might incentives sniping freshly finalised blocks by liquidity providers\n    // this is risk-free as the block is finalised, the advancedFee should reflect a risk premium.\n\n    ERCInterface tokenContract = ERCInterface(address(uint160(uint256(withdrawTransaction.ercAddress))));\n    address originalRecipientAddress =  address(uint160(uint256(withdrawTransaction.recipientAddress)));\n    address currentOwner = advancedWithdrawals[withdrawTransactionHash] == address(0) ? originalRecipientAddress : advancedWithdrawals[withdrawTransactionHash];\n    uint256 advancedFee = advancedFeeWithdrawals[withdrawTransactionHash];\n\n    // Send the token from the msg.sender to the receipient\n    if (withdrawTransaction.tokenId != ZERO)\n      revert(\"ERC20 deposit should have tokenId equal to ZERO\");\n    else {\n      tokenContract.transferFrom(\n        address(msg.sender),\n        currentOwner,\n        uint256(withdrawTransaction.value)\n      );\n    }\n    // set new owner of transaction, settign fee to zero.\n    advancedFeeWithdrawals[withdrawTransactionHash] = 0;\n    advancedWithdrawals[withdrawTransactionHash] = msg.sender;\n    state.addPendingWithdrawal(msg.sender, advancedFee);\n  }\n\n  // TODO Is there a better way to set this fee, e.g. at the point of making a transaction.\n  function setAdvanceWithdrawalFee(Block memory b, uint256 blockNumberL2, Transaction[] memory ts, uint index) external payable {\n    // The transaction is a withdrawal transaction\n    require(ts[index].transactionType == TransactionTypes.WITHDRAW, 'Can only advance withdrawals');\n    // The block and transactions are real\n    state.isBlockReal(b,ts,blockNumberL2);\n\n    bytes32 withdrawTransactionHash = Utils.hashTransaction(ts[index]);\n    // The withdrawal has not been withdrawn\n    require(!withdrawn[withdrawTransactionHash], 'Cannot double withdraw');\n    address originalRecipientAddress =  address(uint160(uint256(ts[index].recipientAddress)));\n    address currentOwner = advancedWithdrawals[withdrawTransactionHash] == address(0) ? originalRecipientAddress : advancedWithdrawals[withdrawTransactionHash];\n\n    // Only the owner of the withdraw can set the advanced withdrawal\n    require(msg.sender == currentOwner, 'You are not the current owner of this withdrawal');\n    advancedFeeWithdrawals[withdrawTransactionHash] = msg.value;\n    payable(address(state)).transfer(msg.value);\n    emit InstantWithdrawalRequested(withdrawTransactionHash, msg.sender, msg.value);\n  }\n\n  function payOut(Transaction memory t, address recipientAddress) internal {\n  // Now pay out the value of the commitment\n    ERCInterface tokenContract = ERCInterface(\n      address(uint160(uint256(t.ercAddress)))\n    );\n    // address recipientAddress = address(uint160(uint256(t.recipientAddress)));\n\n    if(t.tokenType == TokenType.ERC20) {\n      if (t.tokenId != ZERO)\n        revert(\"ERC20 deposit should have tokenId equal to ZERO\");\n      else\n        tokenContract.transfer(\n          recipientAddress,\n          uint256(t.value)\n        );\n    } else if(t.tokenType == TokenType.ERC721) {\n      if (t.value != 0 || t.tokenId == ZERO) // value should always be equal to 0 and tokenId cannot be equal to ZERO\n        revert(\"Invalid inputs for ERC721 deposit\");\n      else\n        tokenContract.safeTransferFrom(\n          address(this),\n          recipientAddress,\n          uint256(t.tokenId),\n          ''\n        );\n    } else if (t.tokenType == TokenType.ERC1155) {\n      if (t.tokenId == ZERO && t.value == 0) // disallow this corner case\n        revert(\"Depositing zero-value ERC1155 tokens is not allowed\");\n      else\n        tokenContract.safeTransferFrom(\n          address(this),\n          recipientAddress,\n          uint256(t.tokenId),\n          uint256(t.value),\n          ''\n        );\n    } else {\n      revert(\"Invalid Token Type\");\n    }\n  }\n\n  function payIn(Transaction memory t) internal {\n    ERCInterface tokenContract = ERCInterface(\n      address(uint160(uint256(t.ercAddress)))\n    );\n\n    if(t.tokenType == TokenType.ERC20) {\n      if (t.tokenId != ZERO)\n        revert(\"ERC20 deposit should have tokenId equal to ZERO\");\n      else\n        tokenContract.transferFrom(msg.sender, address(this), uint256(t.value));\n    } else if(t.tokenType == TokenType.ERC721) {\n      if (t.value != 0 || t.tokenId == ZERO) // value should always be equal to 0 and tokenId cannot be equal to ZERO\n        revert(\"Invalid inputs for ERC721 deposit\");\n      else\n        tokenContract.safeTransferFrom(\n          msg.sender,\n          address(this),\n          uint256(t.tokenId),\n          ''\n        );\n    } else if (t.tokenType == TokenType.ERC1155) {\n      if (t.tokenId == ZERO && t.value == 0) // disallow this corner case\n        revert(\"Depositing zero-value ERC1155 tokens is not allowed\");\n      else\n        tokenContract.safeTransferFrom(\n          msg.sender,\n          address(this),\n          uint256(t.tokenId),\n          uint256(t.value),\n          ''\n        );\n    } else {\n      revert(\"Invalid Token Type\");\n    }\n  }\n}\n",
  "sourcePath": "/app/contracts/Shield.sol",
  "compiler": {
    "name": "solc",
    "version": "0.8.3+commit.8d00100c.Emscripten.clang"
  },
  "schemaVersion": "3.4.2",
  "updatedAt": "2021-12-08T07:03:45.515Z",
  "networkType": "ethereum",
  "devdoc": {
    "kind": "dev",
    "methods": {
      "finaliseWithdrawal((uint48,address,bytes32,uint256,bytes32),uint256,(uint64,uint64[2],uint8,uint8,bytes32,bytes32,bytes32,bytes32,bytes32[2],bytes32[2],bytes32[8],uint256[4])[],uint256)": {
        "params": {
          "b": "- the block containing the Withdraw transaction",
          "index": "- the index of the transaction that locates it in the array of Transactions in Block b TODO do we need to pass in  all the block data?",
          "ts": "- array of the transactions contained in the block"
        }
      },
      "isValidWithdrawal((uint48,address,bytes32,uint256,bytes32),uint256,(uint64,uint64[2],uint8,uint8,bytes32,bytes32,bytes32,bytes32,bytes32[2],bytes32[2],bytes32[8],uint256[4])[],uint256)": {
        "params": {
          "b": "- the block containing the Withdraw transaction",
          "index": "- the index of the transaction that locates it in the array of Transactions in Block b",
          "ts": "- array of the transactions contained in the block"
        }
      },
      "owner()": {
        "details": "Tells the address of the owner",
        "returns": {
          "_0": "the address of the owner"
        }
      },
      "transferOwnership(address)": {
        "details": "Allows the current owner to transfer control of the contract to a newOwner.",
        "params": {
          "newOwner": "The address to transfer ownership to."
        }
      }
    },
    "version": 1
  },
  "userdoc": {
    "events": {
      "NewLeaf(uint256,bytes32,bytes32)": {
        "notice": "These events are what the merkle-tree microservice's filters will listen for."
      }
    },
    "kind": "user",
    "methods": {
      "finaliseWithdrawal((uint48,address,bytes32,uint256,bytes32),uint256,(uint64,uint64[2],uint8,uint8,bytes32,bytes32,bytes32,bytes32,bytes32[2],bytes32[2],bytes32[8],uint256[4])[],uint256)": {
        "notice": "This function enables funds to be withdrawn, once a block is finalised"
      },
      "isValidWithdrawal((uint48,address,bytes32,uint256,bytes32),uint256,(uint64,uint64[2],uint8,uint8,bytes32,bytes32,bytes32,bytes32,bytes32[2],bytes32[2],bytes32[8],uint256[4])[],uint256)": {
        "notice": "This function returns if you are able to withdraw the funds, once a block is finalised"
      },
      "registerVerificationKey(uint256[],uint8)": {
        "notice": "Stores verification keys (for the 'deposit', 'transfer' and 'withdraw' computations)."
      }
    },
    "version": 1
  }
}