{
  "_format": "hh-sol-artifact-1",
  "contractName": "KYC",
  "sourceName": "contracts/KYC.sol",
  "abi": [
    {
      "anonymous": false,
      "inputs": [
        {
          "indexed": false,
          "internalType": "uint8",
          "name": "version",
          "type": "uint8"
        }
      ],
      "name": "Initialized",
      "type": "event"
    },
    {
      "anonymous": false,
      "inputs": [
        {
          "indexed": false,
          "internalType": "address",
          "name": "previousOwner",
          "type": "address"
        },
        {
          "indexed": false,
          "internalType": "address",
          "name": "newOwner",
          "type": "address"
        }
      ],
      "name": "OwnershipTransferred",
      "type": "event"
    },
    {
      "inputs": [],
      "name": "_owner",
      "outputs": [
        {
          "internalType": "address",
          "name": "",
          "type": "address"
        }
      ],
      "stateMutability": "view",
      "type": "function"
    },
    {
      "inputs": [
        {
          "internalType": "address",
          "name": "_user",
          "type": "address"
        }
      ],
      "name": "addUserToWhitelist",
      "outputs": [],
      "stateMutability": "nonpayable",
      "type": "function"
    },
    {
      "inputs": [
        {
          "internalType": "uint256",
          "name": "_groupId",
          "type": "uint256"
        },
        {
          "internalType": "address",
          "name": "_manager",
          "type": "address"
        }
      ],
      "name": "createWhitelistManager",
      "outputs": [],
      "stateMutability": "nonpayable",
      "type": "function"
    },
    {
      "inputs": [],
      "name": "initialize",
      "outputs": [],
      "stateMutability": "nonpayable",
      "type": "function"
    },
    {
      "inputs": [
        {
          "internalType": "address",
          "name": "_user",
          "type": "address"
        }
      ],
      "name": "isWhitelisted",
      "outputs": [
        {
          "internalType": "bool",
          "name": "",
          "type": "bool"
        }
      ],
      "stateMutability": "view",
      "type": "function"
    },
    {
      "inputs": [
        {
          "internalType": "address",
          "name": "",
          "type": "address"
        }
      ],
      "name": "managers",
      "outputs": [
        {
          "internalType": "uint256",
          "name": "",
          "type": "uint256"
        }
      ],
      "stateMutability": "view",
      "type": "function"
    },
    {
      "inputs": [],
      "name": "owner",
      "outputs": [
        {
          "internalType": "address",
          "name": "",
          "type": "address"
        }
      ],
      "stateMutability": "view",
      "type": "function"
    },
    {
      "inputs": [
        {
          "internalType": "address",
          "name": "_user",
          "type": "address"
        }
      ],
      "name": "removeUserFromWhitelist",
      "outputs": [],
      "stateMutability": "nonpayable",
      "type": "function"
    },
    {
      "inputs": [
        {
          "internalType": "address",
          "name": "_manager",
          "type": "address"
        }
      ],
      "name": "removeWhitelistManager",
      "outputs": [],
      "stateMutability": "nonpayable",
      "type": "function"
    },
    {
      "inputs": [
        {
          "internalType": "bool",
          "name": "_whitelisting",
          "type": "bool"
        }
      ],
      "name": "setWhitelisting",
      "outputs": [],
      "stateMutability": "nonpayable",
      "type": "function"
    },
    {
      "inputs": [
        {
          "internalType": "address",
          "name": "newOwner",
          "type": "address"
        }
      ],
      "name": "transferOwnership",
      "outputs": [],
      "stateMutability": "nonpayable",
      "type": "function"
    },
    {
      "inputs": [
        {
          "internalType": "address",
          "name": "",
          "type": "address"
        }
      ],
      "name": "users",
      "outputs": [
        {
          "internalType": "uint256",
          "name": "",
          "type": "uint256"
        }
      ],
      "stateMutability": "view",
      "type": "function"
    },
    {
      "inputs": [],
      "name": "whitelisting",
      "outputs": [
        {
          "internalType": "bool",
          "name": "",
          "type": "bool"
        }
      ],
      "stateMutability": "view",
      "type": "function"
    }
  ],
  "bytecode": "0x608060405234801561001057600080fd5b506110a2806100206000396000f3fe608060405234801561001057600080fd5b50600436106100cf5760003560e01c80638da5cb5b1161008c578063d81685fc11610066578063d81685fc146101ec578063f2fde38b14610208578063f9902bb114610224578063fdff9b4d14610240576100cf565b80638da5cb5b14610180578063a87430ba1461019e578063b2bdfa7b146101ce576100cf565b80633af32abf146100d4578063520c5828146101045780635af5f7ba14610122578063747b80501461013e5780637b25ee151461015a5780638129fc1c14610176575b600080fd5b6100ee60048036038101906100e99190610bf7565b610270565b6040516100fb9190610c3f565b60405180910390f35b61010c6102f0565b6040516101199190610c3f565b60405180910390f35b61013c60048036038101906101379190610c86565b610303565b005b61015860048036038101906101539190610bf7565b610395565b005b610174600480360381019061016f9190610ce9565b61041b565b005b61017e6104d8565b005b610188610630565b6040516101959190610d38565b60405180910390f35b6101b860048036038101906101b39190610bf7565b610659565b6040516101c59190610d62565b60405180910390f35b6101d6610671565b6040516101e39190610d38565b60405180910390f35b61020660048036038101906102019190610bf7565b610697565b005b610222600480360381019061021d9190610bf7565b610752565b005b61023e60048036038101906102399190610bf7565b61084d565b005b61025a60048036038101906102559190610bf7565b6109d6565b6040516102679190610d62565b60405180910390f35b6000801515600060169054906101000a900460ff161515141561029657600190506102eb565b6000600160008473ffffffffffffffffffffffffffffffffffffffff1673ffffffffffffffffffffffffffffffffffffffff16815260200190815260200160002054146102e657600190506102eb565b600090505b919050565b600060169054906101000a900460ff1681565b61030b610630565b73ffffffffffffffffffffffffffffffffffffffff163373ffffffffffffffffffffffffffffffffffffffff1614610378576040517f08c379a000000000000000000000000000000000000000000000000000000000815260040161036f90610e00565b60405180910390fd5b80600060166101000a81548160ff02191690831515021790555050565b600260003373ffffffffffffffffffffffffffffffffffffffff1673ffffffffffffffffffffffffffffffffffffffff16815260200190815260200160002054600160008373ffffffffffffffffffffffffffffffffffffffff1673ffffffffffffffffffffffffffffffffffffffff1681526020019081526020016000208190555050565b610423610630565b73ffffffffffffffffffffffffffffffffffffffff163373ffffffffffffffffffffffffffffffffffffffff1614610490576040517f08c379a000000000000000000000000000000000000000000000000000000000815260040161048790610e00565b60405180910390fd5b81600260008373ffffffffffffffffffffffffffffffffffffffff1673ffffffffffffffffffffffffffffffffffffffff168152602001908152602001600020819055505050565b60008060019054906101000a900460ff161590508080156105095750600160008054906101000a900460ff1660ff16105b806105365750610518306109ee565b1580156105355750600160008054906101000a900460ff1660ff16145b5b610575576040517f08c379a000000000000000000000000000000000000000000000000000000000815260040161056c90610e92565b60405180910390fd5b60016000806101000a81548160ff021916908360ff16021790555080156105b2576001600060016101000a81548160ff0219169083151502179055505b60008060166101000a81548160ff0219169083151502179055506105d4610a11565b801561062d5760008060016101000a81548160ff0219169083151502179055507f7f26b83ff96e1f2b6a682f133852f6798a09c465da95921460cefb384740249860016040516106249190610f04565b60405180910390a15b50565b60008060029054906101000a900473ffffffffffffffffffffffffffffffffffffffff16905090565b60016020528060005260406000206000915090505481565b600060029054906101000a900473ffffffffffffffffffffffffffffffffffffffff1681565b61069f610630565b73ffffffffffffffffffffffffffffffffffffffff163373ffffffffffffffffffffffffffffffffffffffff161461070c576040517f08c379a000000000000000000000000000000000000000000000000000000000815260040161070390610e00565b60405180910390fd5b600260008273ffffffffffffffffffffffffffffffffffffffff1673ffffffffffffffffffffffffffffffffffffffff1681526020019081526020016000206000905550565b61075a610630565b73ffffffffffffffffffffffffffffffffffffffff163373ffffffffffffffffffffffffffffffffffffffff16146107c7576040517f08c379a00000000000000000000000000000000000000000000000000000000081526004016107be90610e00565b60405180910390fd5b600073ffffffffffffffffffffffffffffffffffffffff168173ffffffffffffffffffffffffffffffffffffffff16141561080157600080fd5b7f8be0079c531659141344cd1fd0a4f28419497f9722a3daafe3b4186f6b6457e061082a610630565b82604051610839929190610f1f565b60405180910390a161084a81610b50565b50565b6000600160008373ffffffffffffffffffffffffffffffffffffffff1673ffffffffffffffffffffffffffffffffffffffff1681526020019081526020016000205414156108d0576040517f08c379a00000000000000000000000000000000000000000000000000000000081526004016108c790610fba565b60405180910390fd5b600160008273ffffffffffffffffffffffffffffffffffffffff1673ffffffffffffffffffffffffffffffffffffffff16815260200190815260200160002054600260003373ffffffffffffffffffffffffffffffffffffffff1673ffffffffffffffffffffffffffffffffffffffff1681526020019081526020016000205414610990576040517f08c379a00000000000000000000000000000000000000000000000000000000081526004016109879061104c565b60405180910390fd5b600160008273ffffffffffffffffffffffffffffffffffffffff1673ffffffffffffffffffffffffffffffffffffffff1681526020019081526020016000206000905550565b60026020528060005260406000206000915090505481565b6000808273ffffffffffffffffffffffffffffffffffffffff163b119050919050565b60008060019054906101000a900460ff16159050808015610a425750600160008054906101000a900460ff1660ff16105b80610a6f5750610a51306109ee565b158015610a6e5750600160008054906101000a900460ff1660ff16145b5b610aae576040517f08c379a0000000000000000000000000000000000000000000000000000000008152600401610aa590610e92565b60405180910390fd5b60016000806101000a81548160ff021916908360ff1602179055508015610aeb576001600060016101000a81548160ff0219169083151502179055505b610af433610b50565b8015610b4d5760008060016101000a81548160ff0219169083151502179055507f7f26b83ff96e1f2b6a682f133852f6798a09c465da95921460cefb38474024986001604051610b449190610f04565b60405180910390a15b50565b80600060026101000a81548173ffffffffffffffffffffffffffffffffffffffff021916908373ffffffffffffffffffffffffffffffffffffffff16021790555050565b600080fd5b600073ffffffffffffffffffffffffffffffffffffffff82169050919050565b6000610bc482610b99565b9050919050565b610bd481610bb9565b8114610bdf57600080fd5b50565b600081359050610bf181610bcb565b92915050565b600060208284031215610c0d57610c0c610b94565b5b6000610c1b84828501610be2565b91505092915050565b60008115159050919050565b610c3981610c24565b82525050565b6000602082019050610c546000830184610c30565b92915050565b610c6381610c24565b8114610c6e57600080fd5b50565b600081359050610c8081610c5a565b92915050565b600060208284031215610c9c57610c9b610b94565b5b6000610caa84828501610c71565b91505092915050565b6000819050919050565b610cc681610cb3565b8114610cd157600080fd5b50565b600081359050610ce381610cbd565b92915050565b60008060408385031215610d0057610cff610b94565b5b6000610d0e85828601610cd4565b9250506020610d1f85828601610be2565b9150509250929050565b610d3281610bb9565b82525050565b6000602082019050610d4d6000830184610d29565b92915050565b610d5c81610cb3565b82525050565b6000602082019050610d776000830184610d53565b92915050565b600082825260208201905092915050565b7f596f7520617265206e6f7420617574686f726973656420746f20696e766f6b6560008201527f20746869732066756e6374696f6e000000000000000000000000000000000000602082015250565b6000610dea602e83610d7d565b9150610df582610d8e565b604082019050919050565b60006020820190508181036000830152610e1981610ddd565b9050919050565b7f496e697469616c697a61626c653a20636f6e747261637420697320616c72656160008201527f647920696e697469616c697a6564000000000000000000000000000000000000602082015250565b6000610e7c602e83610d7d565b9150610e8782610e20565b604082019050919050565b60006020820190508181036000830152610eab81610e6f565b9050919050565b6000819050919050565b600060ff82169050919050565b6000819050919050565b6000610eee610ee9610ee484610eb2565b610ec9565b610ebc565b9050919050565b610efe81610ed3565b82525050565b6000602082019050610f196000830184610ef5565b92915050565b6000604082019050610f346000830185610d29565b610f416020830184610d29565b9392505050565b7f546869732075736572206973206e6f742077686974656c69737465642c20736f60008201527f2063616e6e6f742062652064656c697374656400000000000000000000000000602082015250565b6000610fa4603383610d7d565b9150610faf82610f48565b604082019050919050565b60006020820190508181036000830152610fd381610f97565b9050919050565b7f596f7520617265206e6f7420746865206d616e61676572206f6620746869732060008201527f67726f7570000000000000000000000000000000000000000000000000000000602082015250565b6000611036602583610d7d565b915061104182610fda565b604082019050919050565b6000602082019050818103600083015261106581611029565b905091905056fea26469706673582212204c043c861b49928b88eb6f36a0c811c693eeaf8345adce84323326b96b58680b64736f6c63430008090033",
  "linkReferences": {},
  "deployedLinkReferences": {}
}