{
  "_format": "hh-sol-artifact-1",
  "contractName": "Utils",
  "sourceName": "contracts/Utils.sol",
  "abi": [
    {
      "inputs": [],
      "name": "ZERO",
      "outputs": [
        {
          "internalType": "bytes32",
          "name": "",
          "type": "bytes32"
        }
      ],
      "stateMutability": "view",
      "type": "function"
    },
    {
      "inputs": [
        {
          "internalType": "bytes32[]",
          "name": "leaves",
          "type": "bytes32[]"
        }
      ],
      "name": "calculateMerkleRoot",
      "outputs": [
        {
          "internalType": "bytes32",
          "name": "result",
          "type": "bytes32"
        }
      ],
      "stateMutability": "pure",
      "type": "function"
    },
    {
      "inputs": [
        {
          "internalType": "bytes32[]",
          "name": "siblingPath",
          "type": "bytes32[]"
        },
        {
          "internalType": "uint256",
          "name": "leafIndex",
          "type": "uint256"
        },
        {
          "internalType": "bytes32",
          "name": "node",
          "type": "bytes32"
        }
      ],
      "name": "checkPath",
      "outputs": [
        {
          "internalType": "bool",
          "name": "",
          "type": "bool"
        }
      ],
      "stateMutability": "pure",
      "type": "function"
    },
    {
      "inputs": [
        {
          "components": [
            {
              "internalType": "uint112",
              "name": "value",
              "type": "uint112"
            },
            {
              "internalType": "uint112",
              "name": "fee",
              "type": "uint112"
            },
            {
              "internalType": "enum Structures.TransactionTypes",
              "name": "transactionType",
              "type": "Structures.TransactionTypes"
            },
            {
              "internalType": "enum Structures.TokenType",
              "name": "tokenType",
              "type": "Structures.TokenType"
            },
            {
              "internalType": "uint64[4]",
              "name": "historicRootBlockNumberL2",
              "type": "uint64[4]"
            },
            {
              "internalType": "bytes32",
              "name": "tokenId",
              "type": "bytes32"
            },
            {
              "internalType": "bytes32",
              "name": "ercAddress",
              "type": "bytes32"
            },
            {
              "internalType": "bytes32",
              "name": "recipientAddress",
              "type": "bytes32"
            },
            {
              "internalType": "bytes32[3]",
              "name": "commitments",
              "type": "bytes32[3]"
            },
            {
              "internalType": "bytes32[4]",
              "name": "nullifiers",
              "type": "bytes32[4]"
            },
            {
              "internalType": "bytes32[2]",
              "name": "compressedSecrets",
              "type": "bytes32[2]"
            },
            {
              "internalType": "uint256[4]",
              "name": "proof",
              "type": "uint256[4]"
            }
          ],
          "internalType": "struct Structures.Transaction[]",
          "name": "ts",
          "type": "tuple[]"
        }
      ],
      "name": "hashTransactionHashes",
      "outputs": [
        {
          "internalType": "bytes32",
          "name": "",
          "type": "bytes32"
        }
      ],
      "stateMutability": "pure",
      "type": "function"
    }
  ],
  "bytecode": "0x610e93610053600b82828239805160001a607314610046577f4e487b7100000000000000000000000000000000000000000000000000000000600052600060045260246000fd5b30600052607381538281f3fe73000000000000000000000000000000000000000030146080604052600436106100565760003560e01c80630e07a40b1461005b57806335e29c881461008b57806358fa63ca146100bb578063bd98fe65146100d9575b600080fd5b610075600480360381019061007091906104ca565b610109565b6040516100829190610559565b60405180910390f35b6100a560048036038101906100a091906106c3565b61020d565b6040516100b2919061071b565b60405180910390f35b6100c36102e2565b6040516100d0919061071b565b60405180910390f35b6100f360048036038101906100ee919061078d565b6102e9565b604051610100919061071b565b60405180910390f35b60008060018686905061011c9190610809565b90505b60008111156101e5576000600285610137919061086c565b141561018657828686838181106101515761015061089d565b5b905060200201356040516020016101699291906108ed565b6040516020818303038152906040528051906020012092506101cb565b8585828181106101995761019861089d565b5b90506020020135836040516020016101b29291906108ed565b6040516020818303038152906040528051906020012092505b600184901c935080806101dd90610919565b91505061011f565b5081858560008181106101fb576101fa61089d565b5b90506020020135149050949350505050565b600081516020830160405160005b8381101561023c57806020028301518160200283015260018101905061021b565b5060015b838160020a101561025657600181019050610240565b805b60008111156102d85760005b6001820360020a8110156102cc57600281602002028401516020600283602002020185015160018115831516141561029b57600098505b6000811583151614156102b75760406002846020020287012098505b88836020028701525050600181019050610264565b50600181039050610258565b5050505050919050565b6000801b81565b60008060008484905067ffffffffffffffff81111561030b5761030a610585565b5b6040519080825280602002602001820160405280156103395781602001602082028036833780820191505090505b50905060005b8585905081101561039e5761036c8686838181106103605761035f61089d565b5b905061030002016103b5565b82828151811061037f5761037e61089d565b5b602002602001018181525050808061039690610943565b91505061033f565b506103a88161020d565b9150819250505092915050565b6000816040516020016103c89190610e41565b604051602081830303815290604052805190602001209050919050565b6000604051905090565b600080fd5b600080fd5b600080fd5b600080fd5b600080fd5b60008083601f84011261041e5761041d6103f9565b5b8235905067ffffffffffffffff81111561043b5761043a6103fe565b5b60208301915083602082028301111561045757610456610403565b5b9250929050565b6000819050919050565b6104718161045e565b811461047c57600080fd5b50565b60008135905061048e81610468565b92915050565b6000819050919050565b6104a781610494565b81146104b257600080fd5b50565b6000813590506104c48161049e565b92915050565b600080600080606085870312156104e4576104e36103ef565b5b600085013567ffffffffffffffff811115610502576105016103f4565b5b61050e87828801610408565b945094505060206105218782880161047f565b9250506040610532878288016104b5565b91505092959194509250565b60008115159050919050565b6105538161053e565b82525050565b600060208201905061056e600083018461054a565b92915050565b6000601f19601f8301169050919050565b7f4e487b7100000000000000000000000000000000000000000000000000000000600052604160045260246000fd5b6105bd82610574565b810181811067ffffffffffffffff821117156105dc576105db610585565b5b80604052505050565b60006105ef6103e5565b90506105fb82826105b4565b919050565b600067ffffffffffffffff82111561061b5761061a610585565b5b602082029050602081019050919050565b600061063f61063a84610600565b6105e5565b9050808382526020820190506020840283018581111561066257610661610403565b5b835b8181101561068b578061067788826104b5565b845260208401935050602081019050610664565b5050509392505050565b600082601f8301126106aa576106a96103f9565b5b81356106ba84826020860161062c565b91505092915050565b6000602082840312156106d9576106d86103ef565b5b600082013567ffffffffffffffff8111156106f7576106f66103f4565b5b61070384828501610695565b91505092915050565b61071581610494565b82525050565b6000602082019050610730600083018461070c565b92915050565b60008083601f84011261074c5761074b6103f9565b5b8235905067ffffffffffffffff811115610769576107686103fe565b5b6020830191508361030082028301111561078657610785610403565b5b9250929050565b600080602083850312156107a4576107a36103ef565b5b600083013567ffffffffffffffff8111156107c2576107c16103f4565b5b6107ce85828601610736565b92509250509250929050565b7f4e487b7100000000000000000000000000000000000000000000000000000000600052601160045260246000fd5b60006108148261045e565b915061081f8361045e565b925082821015610832576108316107da565b5b828203905092915050565b7f4e487b7100000000000000000000000000000000000000000000000000000000600052601260045260246000fd5b60006108778261045e565b91506108828361045e565b9250826108925761089161083d565b5b828206905092915050565b7f4e487b7100000000000000000000000000000000000000000000000000000000600052603260045260246000fd5b6000819050919050565b6108e76108e282610494565b6108cc565b82525050565b60006108f982856108d6565b60208201915061090982846108d6565b6020820191508190509392505050565b60006109248261045e565b91506000821415610938576109376107da565b5b600182039050919050565b600061094e8261045e565b91507fffffffffffffffffffffffffffffffffffffffffffffffffffffffffffffffff821415610981576109806107da565b5b600182019050919050565b60006dffffffffffffffffffffffffffff82169050919050565b6109af8161098c565b81146109ba57600080fd5b50565b6000813590506109cc816109a6565b92915050565b60006109e160208401846109bd565b905092915050565b6109f28161098c565b82525050565b60038110610a0557600080fd5b50565b600081359050610a17816109f8565b92915050565b6000610a2c6020840184610a08565b905092915050565b7f4e487b7100000000000000000000000000000000000000000000000000000000600052602160045260246000fd5b60038110610a7457610a73610a34565b5b50565b6000819050610a8582610a63565b919050565b6000610a9582610a77565b9050919050565b610aa581610a8a565b82525050565b60038110610ab857600080fd5b50565b600081359050610aca81610aab565b92915050565b6000610adf6020840184610abb565b905092915050565b60038110610af857610af7610a34565b5b50565b6000819050610b0982610ae7565b919050565b6000610b1982610afb565b9050919050565b610b2981610b0e565b82525050565b600082905092915050565b600060049050919050565b600081905092915050565b6000819050919050565b600067ffffffffffffffff82169050919050565b610b7781610b5a565b82525050565b6000610b898383610b6e565b60208301905092915050565b610b9e81610b5a565b8114610ba957600080fd5b50565b600081359050610bbb81610b95565b92915050565b6000610bd06020840184610bac565b905092915050565b6000602082019050919050565b610bee81610b3a565b610bf88184610b45565b9250610c0382610b50565b8060005b83811015610c3c57610c198284610bc1565b610c238782610b7d565b9650610c2e83610bd8565b925050600181019050610c07565b505050505050565b6000610c5360208401846104b5565b905092915050565b610c6481610494565b82525050565b600082905092915050565b82818337600083830152505050565b610c9060608383610c75565b5050565b600082905092915050565b610cab60808383610c75565b5050565b600082905092915050565b610cc660408383610c75565b5050565b600082905092915050565b610ce160808383610c75565b5050565b6103008201610cf760008301836109d2565b610d0460008501826109e9565b50610d1260208301836109d2565b610d1f60208501826109e9565b50610d2d6040830183610a1d565b610d3a6040850182610a9c565b50610d486060830183610ad0565b610d556060850182610b20565b50610d636080830183610b2f565b610d706080850182610be5565b50610d7f610100830183610c44565b610d8d610100850182610c5b565b50610d9c610120830183610c44565b610daa610120850182610c5b565b50610db9610140830183610c44565b610dc7610140850182610c5b565b50610dd6610160830183610c6a565b610de4610160850182610c84565b50610df36101c0830183610c94565b610e016101c0850182610c9f565b50610e10610240830183610caf565b610e1e610240850182610cba565b50610e2d610280830183610cca565b610e3b610280850182610cd5565b50505050565b600061030082019050610e576000830184610ce5565b9291505056fea2646970667358221220bd06eec479cdc43f167b9d845b77e84ff3e4af41681d19ea97477c82f4d856e364736f6c63430008090033",
  "linkReferences": {},
  "deployedLinkReferences": {}
}