{
  "contractName": "State",
  "abi": [
    {
      "anonymous": false,
      "inputs": [],
      "name": "BlockProposed",
      "type": "event"
    },
    {
      "anonymous": false,
      "inputs": [
        {
          "indexed": false,
          "internalType": "bytes32",
          "name": "commitHash",
          "type": "bytes32"
        },
        {
          "indexed": false,
          "internalType": "address",
          "name": "sender",
          "type": "address"
        }
      ],
      "name": "CommittedToChallenge",
      "type": "event"
    },
    {
      "anonymous": false,
      "inputs": [
        {
          "indexed": false,
          "internalType": "bytes32",
          "name": "withdrawTransactionHash",
          "type": "bytes32"
        },
        {
          "indexed": false,
          "internalType": "address",
          "name": "paidBy",
          "type": "address"
        },
        {
          "indexed": false,
          "internalType": "uint256",
          "name": "amount",
          "type": "uint256"
        }
      ],
      "name": "InstantWithdrawalRequested",
      "type": "event"
    },
    {
      "anonymous": false,
      "inputs": [
        {
          "indexed": false,
          "internalType": "address",
          "name": "proposer",
          "type": "address"
        }
      ],
      "name": "NewCurrentProposer",
      "type": "event"
    },
    {
      "anonymous": false,
      "inputs": [
        {
          "indexed": false,
          "internalType": "uint256",
          "name": "leafIndex",
          "type": "uint256"
        },
        {
          "indexed": false,
          "internalType": "bytes32",
          "name": "leafValue",
          "type": "bytes32"
        },
        {
          "indexed": false,
          "internalType": "bytes32",
          "name": "root",
          "type": "bytes32"
        }
      ],
      "name": "NewLeaf",
      "type": "event"
    },
    {
      "anonymous": false,
      "inputs": [
        {
          "indexed": false,
          "internalType": "uint256",
          "name": "minLeafIndex",
          "type": "uint256"
        },
        {
          "indexed": false,
          "internalType": "bytes32[]",
          "name": "leafValues",
          "type": "bytes32[]"
        },
        {
          "indexed": false,
          "internalType": "bytes32",
          "name": "root",
          "type": "bytes32"
        }
      ],
      "name": "NewLeaves",
      "type": "event"
    },
    {
      "anonymous": false,
      "inputs": [
        {
          "indexed": false,
          "internalType": "address",
          "name": "previousOwner",
          "type": "address"
        },
        {
          "indexed": false,
          "internalType": "address",
          "name": "newOwner",
          "type": "address"
        }
      ],
      "name": "OwnershipTransferred",
      "type": "event"
    },
    {
      "anonymous": false,
      "inputs": [
        {
          "indexed": true,
          "internalType": "bytes32",
          "name": "blockHash",
          "type": "bytes32"
        },
        {
          "indexed": false,
          "internalType": "uint256",
          "name": "blockNumberL2",
          "type": "uint256"
        },
        {
          "indexed": false,
          "internalType": "uint256",
          "name": "leafCount",
          "type": "uint256"
        }
      ],
      "name": "Rollback",
      "type": "event"
    },
    {
      "anonymous": false,
      "inputs": [],
      "name": "TransactionSubmitted",
      "type": "event"
    },
    {
      "inputs": [],
      "name": "_owner",
      "outputs": [
        {
          "internalType": "address",
          "name": "",
          "type": "address"
        }
      ],
      "stateMutability": "view",
      "type": "function"
    },
    {
      "inputs": [
        {
          "internalType": "uint256",
          "name": "",
          "type": "uint256"
        }
      ],
      "name": "blockHashes",
      "outputs": [
        {
          "internalType": "bytes32",
          "name": "blockHash",
          "type": "bytes32"
        },
        {
          "internalType": "uint256",
          "name": "time",
          "type": "uint256"
        }
      ],
      "stateMutability": "view",
      "type": "function"
    },
    {
      "inputs": [
        {
          "internalType": "address",
          "name": "",
          "type": "address"
        }
      ],
      "name": "bondAccounts",
      "outputs": [
        {
          "internalType": "uint256",
          "name": "amount",
          "type": "uint256"
        },
        {
          "internalType": "uint256",
          "name": "time",
          "type": "uint256"
        }
      ],
      "stateMutability": "view",
      "type": "function"
    },
    {
      "inputs": [],
      "name": "challengesAddress",
      "outputs": [
        {
          "internalType": "address",
          "name": "",
          "type": "address"
        }
      ],
      "stateMutability": "view",
      "type": "function"
    },
    {
      "inputs": [
        {
          "internalType": "bytes32",
          "name": "",
          "type": "bytes32"
        }
      ],
      "name": "claimedBlockStakes",
      "outputs": [
        {
          "internalType": "bool",
          "name": "",
          "type": "bool"
        }
      ],
      "stateMutability": "view",
      "type": "function"
    },
    {
      "inputs": [],
      "name": "currentProposer",
      "outputs": [
        {
          "internalType": "address",
          "name": "thisAddress",
          "type": "address"
        },
        {
          "internalType": "address",
          "name": "previousAddress",
          "type": "address"
        },
        {
          "internalType": "address",
          "name": "nextAddress",
          "type": "address"
        },
        {
          "internalType": "string",
          "name": "url",
          "type": "string"
        }
      ],
      "stateMutability": "view",
      "type": "function"
    },
    {
      "inputs": [],
      "name": "getBootChallenger",
      "outputs": [
        {
          "internalType": "address",
          "name": "",
          "type": "address"
        }
      ],
      "stateMutability": "view",
      "type": "function"
    },
    {
      "inputs": [],
      "name": "getBootProposer",
      "outputs": [
        {
          "internalType": "address",
          "name": "",
          "type": "address"
        }
      ],
      "stateMutability": "view",
      "type": "function"
    },
    {
      "inputs": [
        {
          "internalType": "address",
          "name": "tokenAddr",
          "type": "address"
        },
        {
          "internalType": "uint256",
          "name": "transactionType",
          "type": "uint256"
        }
      ],
      "name": "getRestriction",
      "outputs": [
        {
          "internalType": "uint256",
          "name": "",
          "type": "uint256"
        }
      ],
      "stateMutability": "view",
      "type": "function"
    },
    {
      "inputs": [],
      "name": "owner",
      "outputs": [
        {
          "internalType": "address",
          "name": "",
          "type": "address"
        }
      ],
      "stateMutability": "view",
      "type": "function"
    },
    {
      "inputs": [
        {
          "internalType": "address",
          "name": "",
          "type": "address"
        }
      ],
      "name": "pendingWithdrawals",
      "outputs": [
        {
          "internalType": "uint256",
          "name": "",
          "type": "uint256"
        }
      ],
      "stateMutability": "view",
      "type": "function"
    },
    {
      "inputs": [],
      "name": "proposerStartBlock",
      "outputs": [
        {
          "internalType": "uint256",
          "name": "",
          "type": "uint256"
        }
      ],
      "stateMutability": "view",
      "type": "function"
    },
    {
      "inputs": [
        {
          "internalType": "address",
          "name": "",
          "type": "address"
        }
      ],
      "name": "proposers",
      "outputs": [
        {
          "internalType": "address",
          "name": "thisAddress",
          "type": "address"
        },
        {
          "internalType": "address",
          "name": "previousAddress",
          "type": "address"
        },
        {
          "internalType": "address",
          "name": "nextAddress",
          "type": "address"
        },
        {
          "internalType": "string",
          "name": "url",
          "type": "string"
        }
      ],
      "stateMutability": "view",
      "type": "function"
    },
    {
      "inputs": [],
      "name": "proposersAddress",
      "outputs": [
        {
          "internalType": "address",
          "name": "",
          "type": "address"
        }
      ],
      "stateMutability": "view",
      "type": "function"
    },
    {
      "inputs": [
        {
          "internalType": "address",
          "name": "tokenAddr",
          "type": "address"
        },
        {
          "internalType": "uint256",
          "name": "transactionType",
          "type": "uint256"
        }
      ],
      "name": "removeRestriction",
      "outputs": [],
      "stateMutability": "nonpayable",
      "type": "function"
    },
    {
      "inputs": [
        {
          "internalType": "address",
          "name": "challenger",
          "type": "address"
        }
      ],
      "name": "setBootChallenger",
      "outputs": [],
      "stateMutability": "nonpayable",
      "type": "function"
    },
    {
      "inputs": [
        {
          "internalType": "address",
          "name": "proposer",
          "type": "address"
        }
      ],
      "name": "setBootProposer",
      "outputs": [],
      "stateMutability": "nonpayable",
      "type": "function"
    },
    {
      "inputs": [
        {
          "internalType": "address",
          "name": "tokenAddr",
          "type": "address"
        },
        {
          "internalType": "uint256",
          "name": "depositAmount",
          "type": "uint256"
        },
        {
          "internalType": "uint256",
          "name": "withdrawAmount",
          "type": "uint256"
        }
      ],
      "name": "setRestriction",
      "outputs": [],
      "stateMutability": "nonpayable",
      "type": "function"
    },
    {
      "inputs": [],
      "name": "shieldAddress",
      "outputs": [
        {
          "internalType": "address",
          "name": "",
          "type": "address"
        }
      ],
      "stateMutability": "view",
      "type": "function"
    },
    {
      "inputs": [
        {
          "internalType": "address",
          "name": "newOwner",
          "type": "address"
        }
      ],
      "name": "transferOwnership",
      "outputs": [],
      "stateMutability": "nonpayable",
      "type": "function"
    },
    {
      "stateMutability": "payable",
      "type": "receive"
    },
    {
      "inputs": [],
      "name": "initialize",
      "outputs": [],
      "stateMutability": "nonpayable",
      "type": "function"
    },
    {
      "inputs": [
        {
          "internalType": "address",
          "name": "_proposersAddress",
          "type": "address"
        },
        {
          "internalType": "address",
          "name": "_challengesAddress",
          "type": "address"
        },
        {
          "internalType": "address",
          "name": "_shieldAddress",
          "type": "address"
        }
      ],
      "name": "initialize",
      "outputs": [],
      "stateMutability": "nonpayable",
      "type": "function"
    },
    {
      "inputs": [
        {
          "components": [
            {
              "internalType": "uint48",
              "name": "leafCount",
              "type": "uint48"
            },
            {
              "internalType": "address",
              "name": "proposer",
              "type": "address"
            },
            {
              "internalType": "bytes32",
              "name": "root",
              "type": "bytes32"
            },
            {
              "internalType": "uint256",
              "name": "blockNumberL2",
              "type": "uint256"
            },
            {
              "internalType": "bytes32",
              "name": "previousBlockHash",
              "type": "bytes32"
            },
            {
              "internalType": "bytes32",
              "name": "transactionHashesRoot",
              "type": "bytes32"
            }
          ],
          "internalType": "struct Structures.Block",
          "name": "b",
          "type": "tuple"
        },
        {
          "components": [
            {
              "internalType": "uint112",
              "name": "value",
              "type": "uint112"
            },
            {
              "internalType": "uint64[2]",
              "name": "historicRootBlockNumberL2",
              "type": "uint64[2]"
            },
            {
              "internalType": "enum Structures.TransactionTypes",
              "name": "transactionType",
              "type": "uint8"
            },
            {
              "internalType": "enum Structures.TokenType",
              "name": "tokenType",
              "type": "uint8"
            },
            {
              "internalType": "bytes32",
              "name": "tokenId",
              "type": "bytes32"
            },
            {
              "internalType": "bytes32",
              "name": "ercAddress",
              "type": "bytes32"
            },
            {
              "internalType": "bytes32",
              "name": "recipientAddress",
              "type": "bytes32"
            },
            {
              "internalType": "bytes32[2]",
              "name": "commitments",
              "type": "bytes32[2]"
            },
            {
              "internalType": "bytes32[2]",
              "name": "nullifiers",
              "type": "bytes32[2]"
            },
            {
              "internalType": "bytes32[8]",
              "name": "compressedSecrets",
              "type": "bytes32[8]"
            },
            {
              "internalType": "uint256[4]",
              "name": "proof",
              "type": "uint256[4]"
            }
          ],
          "internalType": "struct Structures.Transaction[]",
          "name": "t",
          "type": "tuple[]"
        }
      ],
      "name": "proposeBlock",
      "outputs": [],
      "stateMutability": "payable",
      "type": "function"
    },
    {
      "inputs": [
        {
          "internalType": "uint256",
          "name": "blockNumberL2ToRollbackTo",
          "type": "uint256"
        },
        {
          "internalType": "uint256",
          "name": "leafCountToRollbackTo",
          "type": "uint256"
        }
      ],
      "name": "emitRollback",
      "outputs": [],
      "stateMutability": "nonpayable",
      "type": "function"
    },
    {
      "inputs": [
        {
          "internalType": "address",
          "name": "addr",
          "type": "address"
        },
        {
          "components": [
            {
              "internalType": "address",
              "name": "thisAddress",
              "type": "address"
            },
            {
              "internalType": "address",
              "name": "previousAddress",
              "type": "address"
            },
            {
              "internalType": "address",
              "name": "nextAddress",
              "type": "address"
            },
            {
              "internalType": "string",
              "name": "url",
              "type": "string"
            }
          ],
          "internalType": "struct Structures.LinkedAddress",
          "name": "proposer",
          "type": "tuple"
        }
      ],
      "name": "setProposer",
      "outputs": [],
      "stateMutability": "nonpayable",
      "type": "function"
    },
    {
      "inputs": [
        {
          "internalType": "address",
          "name": "addr",
          "type": "address"
        }
      ],
      "name": "getProposer",
      "outputs": [
        {
          "components": [
            {
              "internalType": "address",
              "name": "thisAddress",
              "type": "address"
            },
            {
              "internalType": "address",
              "name": "previousAddress",
              "type": "address"
            },
            {
              "internalType": "address",
              "name": "nextAddress",
              "type": "address"
            },
            {
              "internalType": "string",
              "name": "url",
              "type": "string"
            }
          ],
          "internalType": "struct Structures.LinkedAddress",
          "name": "",
          "type": "tuple"
        }
      ],
      "stateMutability": "view",
      "type": "function"
    },
    {
      "inputs": [
        {
          "internalType": "address",
          "name": "addr",
          "type": "address"
        }
      ],
      "name": "deleteProposer",
      "outputs": [],
      "stateMutability": "nonpayable",
      "type": "function"
    },
    {
      "inputs": [
        {
          "internalType": "address",
          "name": "proposer",
          "type": "address"
        }
      ],
      "name": "setCurrentProposer",
      "outputs": [],
      "stateMutability": "nonpayable",
      "type": "function"
    },
    {
      "inputs": [],
      "name": "getCurrentProposer",
      "outputs": [
        {
          "components": [
            {
              "internalType": "address",
              "name": "thisAddress",
              "type": "address"
            },
            {
              "internalType": "address",
              "name": "previousAddress",
              "type": "address"
            },
            {
              "internalType": "address",
              "name": "nextAddress",
              "type": "address"
            },
            {
              "internalType": "string",
              "name": "url",
              "type": "string"
            }
          ],
          "internalType": "struct Structures.LinkedAddress",
          "name": "",
          "type": "tuple"
        }
      ],
      "stateMutability": "view",
      "type": "function"
    },
    {
      "inputs": [
        {
          "components": [
            {
              "internalType": "bytes32",
              "name": "blockHash",
              "type": "bytes32"
            },
            {
              "internalType": "uint256",
              "name": "time",
              "type": "uint256"
            }
          ],
          "internalType": "struct Structures.BlockData",
          "name": "bd",
          "type": "tuple"
        }
      ],
      "name": "pushBlockData",
      "outputs": [],
      "stateMutability": "nonpayable",
      "type": "function"
    },
    {
      "inputs": [],
      "name": "popBlockData",
      "outputs": [
        {
          "components": [
            {
              "internalType": "bytes32",
              "name": "blockHash",
              "type": "bytes32"
            },
            {
              "internalType": "uint256",
              "name": "time",
              "type": "uint256"
            }
          ],
          "internalType": "struct Structures.BlockData",
          "name": "",
          "type": "tuple"
        }
      ],
      "stateMutability": "nonpayable",
      "type": "function"
    },
    {
      "inputs": [
        {
          "internalType": "uint256",
          "name": "blockNumberL2",
          "type": "uint256"
        }
      ],
      "name": "getBlockData",
      "outputs": [
        {
          "components": [
            {
              "internalType": "bytes32",
              "name": "blockHash",
              "type": "bytes32"
            },
            {
              "internalType": "uint256",
              "name": "time",
              "type": "uint256"
            }
          ],
          "internalType": "struct Structures.BlockData",
          "name": "",
          "type": "tuple"
        }
      ],
      "stateMutability": "view",
      "type": "function"
    },
    {
      "inputs": [],
      "name": "getAllBlockData",
      "outputs": [
        {
          "components": [
            {
              "internalType": "bytes32",
              "name": "blockHash",
              "type": "bytes32"
            },
            {
              "internalType": "uint256",
              "name": "time",
              "type": "uint256"
            }
          ],
          "internalType": "struct Structures.BlockData[]",
          "name": "",
          "type": "tuple[]"
        }
      ],
      "stateMutability": "view",
      "type": "function"
    },
    {
      "inputs": [],
      "name": "getNumberOfL2Blocks",
      "outputs": [
        {
          "internalType": "uint256",
          "name": "",
          "type": "uint256"
        }
      ],
      "stateMutability": "view",
      "type": "function"
    },
    {
      "inputs": [],
      "name": "getLatestBlockHash",
      "outputs": [
        {
          "internalType": "bytes32",
          "name": "",
          "type": "bytes32"
        }
      ],
      "stateMutability": "view",
      "type": "function"
    },
    {
      "inputs": [
        {
          "internalType": "address",
          "name": "addr",
          "type": "address"
        },
        {
          "internalType": "uint256",
          "name": "amount",
          "type": "uint256"
        }
      ],
      "name": "addPendingWithdrawal",
      "outputs": [],
      "stateMutability": "nonpayable",
      "type": "function"
    },
    {
      "inputs": [],
      "name": "withdraw",
      "outputs": [],
      "stateMutability": "nonpayable",
      "type": "function"
    },
    {
      "inputs": [
        {
          "internalType": "uint256",
          "name": "sb",
          "type": "uint256"
        }
      ],
      "name": "setProposerStartBlock",
      "outputs": [],
      "stateMutability": "nonpayable",
      "type": "function"
    },
    {
      "inputs": [],
      "name": "getProposerStartBlock",
      "outputs": [
        {
          "internalType": "uint256",
          "name": "",
          "type": "uint256"
        }
      ],
      "stateMutability": "view",
      "type": "function"
    },
    {
      "inputs": [
        {
          "internalType": "address",
          "name": "proposer",
          "type": "address"
        }
      ],
      "name": "removeProposer",
      "outputs": [],
      "stateMutability": "nonpayable",
      "type": "function"
    },
    {
      "inputs": [
        {
          "internalType": "address",
          "name": "proposer",
          "type": "address"
        },
        {
          "internalType": "string",
          "name": "url",
          "type": "string"
        }
      ],
      "name": "updateProposer",
      "outputs": [],
      "stateMutability": "nonpayable",
      "type": "function"
    },
    {
      "inputs": [
        {
          "components": [
            {
              "internalType": "uint112",
              "name": "value",
              "type": "uint112"
            },
            {
              "internalType": "uint64[2]",
              "name": "historicRootBlockNumberL2",
              "type": "uint64[2]"
            },
            {
              "internalType": "enum Structures.TransactionTypes",
              "name": "transactionType",
              "type": "uint8"
            },
            {
              "internalType": "enum Structures.TokenType",
              "name": "tokenType",
              "type": "uint8"
            },
            {
              "internalType": "bytes32",
              "name": "tokenId",
              "type": "bytes32"
            },
            {
              "internalType": "bytes32",
              "name": "ercAddress",
              "type": "bytes32"
            },
            {
              "internalType": "bytes32",
              "name": "recipientAddress",
              "type": "bytes32"
            },
            {
              "internalType": "bytes32[2]",
              "name": "commitments",
              "type": "bytes32[2]"
            },
            {
              "internalType": "bytes32[2]",
              "name": "nullifiers",
              "type": "bytes32[2]"
            },
            {
              "internalType": "bytes32[8]",
              "name": "compressedSecrets",
              "type": "bytes32[8]"
            },
            {
              "internalType": "uint256[4]",
              "name": "proof",
              "type": "uint256[4]"
            }
          ],
          "internalType": "struct Structures.Transaction[]",
          "name": "ts",
          "type": "tuple[]"
        }
      ],
      "name": "hashTransactionHashes",
      "outputs": [
        {
          "internalType": "bytes32",
          "name": "",
          "type": "bytes32"
        }
      ],
      "stateMutability": "view",
      "type": "function"
    },
    {
      "inputs": [
        {
          "components": [
            {
              "internalType": "uint48",
              "name": "leafCount",
              "type": "uint48"
            },
            {
              "internalType": "address",
              "name": "proposer",
              "type": "address"
            },
            {
              "internalType": "bytes32",
              "name": "root",
              "type": "bytes32"
            },
            {
              "internalType": "uint256",
              "name": "blockNumberL2",
              "type": "uint256"
            },
            {
              "internalType": "bytes32",
              "name": "previousBlockHash",
              "type": "bytes32"
            },
            {
              "internalType": "bytes32",
              "name": "transactionHashesRoot",
              "type": "bytes32"
            }
          ],
          "internalType": "struct Structures.Block",
          "name": "b",
          "type": "tuple"
        },
        {
          "components": [
            {
              "internalType": "uint112",
              "name": "value",
              "type": "uint112"
            },
            {
              "internalType": "uint64[2]",
              "name": "historicRootBlockNumberL2",
              "type": "uint64[2]"
            },
            {
              "internalType": "enum Structures.TransactionTypes",
              "name": "transactionType",
              "type": "uint8"
            },
            {
              "internalType": "enum Structures.TokenType",
              "name": "tokenType",
              "type": "uint8"
            },
            {
              "internalType": "bytes32",
              "name": "tokenId",
              "type": "bytes32"
            },
            {
              "internalType": "bytes32",
              "name": "ercAddress",
              "type": "bytes32"
            },
            {
              "internalType": "bytes32",
              "name": "recipientAddress",
              "type": "bytes32"
            },
            {
              "internalType": "bytes32[2]",
              "name": "commitments",
              "type": "bytes32[2]"
            },
            {
              "internalType": "bytes32[2]",
              "name": "nullifiers",
              "type": "bytes32[2]"
            },
            {
              "internalType": "bytes32[8]",
              "name": "compressedSecrets",
              "type": "bytes32[8]"
            },
            {
              "internalType": "uint256[4]",
              "name": "proof",
              "type": "uint256[4]"
            }
          ],
          "internalType": "struct Structures.Transaction[]",
          "name": "ts",
          "type": "tuple[]"
        }
      ],
      "name": "areBlockAndTransactionsReal",
      "outputs": [
        {
          "internalType": "bytes32",
          "name": "",
          "type": "bytes32"
        }
      ],
      "stateMutability": "view",
      "type": "function"
    },
    {
      "inputs": [
        {
          "components": [
            {
              "internalType": "uint48",
              "name": "leafCount",
              "type": "uint48"
            },
            {
              "internalType": "address",
              "name": "proposer",
              "type": "address"
            },
            {
              "internalType": "bytes32",
              "name": "root",
              "type": "bytes32"
            },
            {
              "internalType": "uint256",
              "name": "blockNumberL2",
              "type": "uint256"
            },
            {
              "internalType": "bytes32",
              "name": "previousBlockHash",
              "type": "bytes32"
            },
            {
              "internalType": "bytes32",
              "name": "transactionHashesRoot",
              "type": "bytes32"
            }
          ],
          "internalType": "struct Structures.Block",
          "name": "b",
          "type": "tuple"
        },
        {
          "components": [
            {
              "internalType": "uint112",
              "name": "value",
              "type": "uint112"
            },
            {
              "internalType": "uint64[2]",
              "name": "historicRootBlockNumberL2",
              "type": "uint64[2]"
            },
            {
              "internalType": "enum Structures.TransactionTypes",
              "name": "transactionType",
              "type": "uint8"
            },
            {
              "internalType": "enum Structures.TokenType",
              "name": "tokenType",
              "type": "uint8"
            },
            {
              "internalType": "bytes32",
              "name": "tokenId",
              "type": "bytes32"
            },
            {
              "internalType": "bytes32",
              "name": "ercAddress",
              "type": "bytes32"
            },
            {
              "internalType": "bytes32",
              "name": "recipientAddress",
              "type": "bytes32"
            },
            {
              "internalType": "bytes32[2]",
              "name": "commitments",
              "type": "bytes32[2]"
            },
            {
              "internalType": "bytes32[2]",
              "name": "nullifiers",
              "type": "bytes32[2]"
            },
            {
              "internalType": "bytes32[8]",
              "name": "compressedSecrets",
              "type": "bytes32[8]"
            },
            {
              "internalType": "uint256[4]",
              "name": "proof",
              "type": "uint256[4]"
            }
          ],
          "internalType": "struct Structures.Transaction",
          "name": "t",
          "type": "tuple"
        },
        {
          "internalType": "uint256",
          "name": "index",
          "type": "uint256"
        },
        {
          "internalType": "bytes32[6]",
          "name": "siblingPath",
          "type": "bytes32[6]"
        }
      ],
      "name": "areBlockAndTransactionReal",
      "outputs": [],
      "stateMutability": "view",
      "type": "function"
    },
    {
      "inputs": [
        {
          "internalType": "address",
          "name": "addr",
          "type": "address"
        },
        {
          "internalType": "uint256",
          "name": "amount",
          "type": "uint256"
        }
      ],
      "name": "setBondAccount",
      "outputs": [],
      "stateMutability": "nonpayable",
      "type": "function"
    },
    {
      "inputs": [
        {
          "internalType": "address",
          "name": "addr",
          "type": "address"
        }
      ],
      "name": "getBondAccount",
      "outputs": [
        {
          "components": [
            {
              "internalType": "uint256",
              "name": "amount",
              "type": "uint256"
            },
            {
              "internalType": "uint256",
              "name": "time",
              "type": "uint256"
            }
          ],
          "internalType": "struct Structures.TimeLockedBond",
          "name": "",
          "type": "tuple"
        }
      ],
      "stateMutability": "view",
      "type": "function"
    },
    {
      "inputs": [
        {
          "internalType": "address",
          "name": "challengerAddr",
          "type": "address"
        },
        {
          "internalType": "address",
          "name": "proposer",
          "type": "address"
        },
        {
          "internalType": "uint256",
          "name": "numRemoved",
          "type": "uint256"
        }
      ],
      "name": "rewardChallenger",
      "outputs": [],
      "stateMutability": "nonpayable",
      "type": "function"
    },
    {
      "inputs": [
        {
          "internalType": "address",
          "name": "addr",
          "type": "address"
        },
        {
          "internalType": "uint256",
          "name": "time",
          "type": "uint256"
        }
      ],
      "name": "updateBondAccountTime",
      "outputs": [],
      "stateMutability": "nonpayable",
      "type": "function"
    },
    {
      "inputs": [
        {
          "internalType": "bytes32",
          "name": "blockHash",
          "type": "bytes32"
        }
      ],
      "name": "isBlockStakeWithdrawn",
      "outputs": [
        {
          "internalType": "bool",
          "name": "",
          "type": "bool"
        }
      ],
      "stateMutability": "view",
      "type": "function"
    },
    {
      "inputs": [
        {
          "internalType": "bytes32",
          "name": "blockHash",
          "type": "bytes32"
        }
      ],
      "name": "setBlockStakeWithdrawn",
      "outputs": [],
      "stateMutability": "nonpayable",
      "type": "function"
    }
  ],
  "bytecode": "0x608060405234801561001057600080fd5b506135b9806100206000396000f3fe60806040526004361061023d5760003560e01c806301f40f6c1461024957806305eb81e61461025e57806309d632d31461028657806318177497146102a65780631bc57627146102d65780631c420682146102f65780631c9ab3ad146103185780631f84bb2a1461033857806324acc5051461036557806328340f17146103855780632ee240e7146103a357806334cdf78d146103b85780633b10244b146103ed5780633ccfd60b1461040f57806342646c681461042457806342bcad28146104425780634d2ac2611461045757806366e6f72f146104775780636f2d1bcb146104975780637a587400146104b75780638129fc1c146104eb578063851a974c146105005780638a7ee83d146105205780638da5cb5b14610540578063909b03de146105555780639b3d060a146105755780639c18de93146105955780639d1045b6146105b55780639f63212d146105d5578063a1a0c277146105f5578063a289261714610615578063a9de385714610635578063b2bdfa7b14610655578063bb7affc114610675578063bcb4dbc214610695578063bdb97f7e146106b5578063bdfe87f1146106d5578063c0c53b8b14610752578063d87965d214610772578063e2b2c30c14610788578063e34c13c5146107a8578063e7a8a5a0146107e8578063e98be19114610808578063ebc6247114610828578063f2fde38b14610858578063f3f4370314610878578063f560a792146108a5578063f59aceea146108c5578063fe82d082146108e5578063ffac4161146108fa57610244565b3661024457005b600080fd5b61025c610257366004612d2e565b61091c565b005b34801561026a57600080fd5b50610273610cf1565b6040519081526020015b60405180910390f35b34801561029257600080fd5b5061025c6102a1366004612a84565b610cf8565b3480156102b257600080fd5b506102c66102c1366004612a84565b610e98565b60405161027d9493929190612fd3565b3480156102e257600080fd5b5061025c6102f1366004612df8565b610f59565b34801561030257600080fd5b5061030b611119565b60405161027d9190613309565b34801561032457600080fd5b5061030b610333366004612ccb565b611218565b34801561034457600080fd5b50604354610358906001600160a01b031681565b60405161027d9190612fbf565b34801561037157600080fd5b5061025c610380366004612b1b565b611276565b34801561039157600080fd5b506034546001600160a01b0316610358565b3480156103af57600080fd5b50604054610273565b3480156103c457600080fd5b506103d86103d3366004612ccb565b6112fe565b6040805192835260208301919091520161027d565b3480156103f957600080fd5b5061040261132c565b60405161027d9190613320565b34801561041b57600080fd5b5061025c611401565b34801561043057600080fd5b506035546001600160a01b0316610358565b34801561044e57600080fd5b506102736114ff565b34801561046357600080fd5b50604154610358906001600160a01b031681565b34801561048357600080fd5b5061025c610492366004612ae0565b611559565b3480156104a357600080fd5b5061025c6104b2366004612a84565b611652565b3480156104c357600080fd5b506103d86104d2366004612a84565b603a602052600090815260409020805460019091015482565b3480156104f757600080fd5b5061025c6116f1565b34801561050c57600080fd5b5061040261051b366004612a84565b61176b565b34801561052c57600080fd5b5061025c61053b366004612ccb565b61185c565b34801561054c57600080fd5b506103586118b5565b34801561056157600080fd5b50610273610570366004612db6565b6118c4565b34801561058157600080fd5b50604254610358906001600160a01b031681565b3480156105a157600080fd5b5061025c6105b0366004612c3f565b611a29565b3480156105c157600080fd5b5061025c6105d0366004612e9a565b611a84565b3480156105e157600080fd5b5061025c6105f0366004612c16565b611b51565b34801561060157600080fd5b5061025c610610366004612c16565b611be5565b34801561062157600080fd5b5061025c610630366004612c16565b611c6f565b34801561064157600080fd5b5061025c610650366004612c16565b611cf4565b34801561066157600080fd5b50603354610358906001600160a01b031681565b34801561068157600080fd5b5061025c610690366004612a84565b611d6c565b3480156106a157600080fd5b5061025c6106b0366004612ccb565b611dc6565b3480156106c157600080fd5b5061025c6106d0366004612b66565b611e35565b3480156106e157600080fd5b506107376106f0366004612a84565b6040805180820190915260008082526020820152506001600160a01b03166000908152603a6020908152604091829020825180840190935280548352600101549082015290565b6040805182518152602092830151928101929092520161027d565b34801561075e57600080fd5b5061025c61076d366004612a9e565b611f0a565b34801561077e57600080fd5b5061027360405481565b34801561079457600080fd5b5061025c6107a3366004612a84565b611fcc565b3480156107b457600080fd5b506107d86107c3366004612ccb565b6000908152603b602052604090205460ff1690565b604051901515815260200161027d565b3480156107f457600080fd5b50610273610803366004612c16565b61209d565b34801561081457600080fd5b5061025c610823366004612cfb565b6120dd565b34801561083457600080fd5b506107d8610843366004612ccb565b603b6020526000908152604090205460ff1681565b34801561086457600080fd5b5061025c610873366004612a84565b612176565b34801561088457600080fd5b50610273610893366004612a84565b60386020526000908152604090205481565b3480156108b157600080fd5b5061025c6108c0366004612a84565b612215565b3480156108d157600080fd5b506102736108e0366004612c71565b61226f565b3480156108f157600080fd5b506102c6612300565b34801561090657600080fd5b5061090f61232c565b60405161027d919061304e565b603c546001600160a01b0316331461098c5760405162461bcd60e51b815260206004820152602860248201527f4f6e6c79207468652063757272656e742070726f706f7365722063616e2063616044820152673636103a3434b99760c11b60648201526084015b60405180910390fd5b6037546060840135146109dd5760405162461bcd60e51b81526020600482015260196024820152782a343290313637b1b59034b99037baba1037b31037b93232b960391b6044820152606401610983565b60375415610a8357603780546109f5906001906134af565b81548110610a1357634e487b7160e01b600052603260045260246000fd5b906000526020600020906002020160000154836080013514610a835760405162461bcd60e51b815260206004820152602360248201527f54686520626c6f636b20697320666c61776564206f72206f7574206f66206f726044820152623232b960e91b6064820152608401610983565b3460011115610ad45760405162461bcd60e51b815260206004820152601e60248201527f546865207374616b65207061796d656e7420697320696e636f727265637400006044820152606401610983565b33610ae56040850160208601612a84565b6001600160a01b031614610b4a5760405162461bcd60e51b815260206004820152602660248201527f5468652070726f706f7365722061646472657373206973206e6f74207468652060448201526539b2b73232b960d11b6064820152608401610983565b60218110610ba65760405162461bcd60e51b815260206004820152602360248201527f54686520626c6f636b2068617320746f6f206d616e79207472616e73616374696044820152626f6e7360e81b6064820152608401610983565b60006040516101006103008402016004823761010081016103008402810160005b85811015610be75761030081810284012060208202830152600101610bc7565b506000915060055b8015610c575760005b6001820360020a811015610c4d576040810283018051602090910151600181158315161415610c2657600095505b8115811516610c3a57604083810286012095505b5050602081028301849052600101610bf8565b5060001901610bef565b505060a08201518114610c6957600080fd5b5060c090206040805180820182528281524260208201908152603780546001810182556000918252925160008051602061356483398151915260029094029384015590516000805160206135448339815191529092019190915590519192507f566d835e602d4aa5802ee07d3e452e755bc77623507825de7bc163a295d76c0b91a150505050565b6037545b90565b6041546001600160a01b0316331480610d1b57506042546001600160a01b031633145b80610d3057506043546001600160a01b031633145b610d4c5760405162461bcd60e51b8152600401610983906132b5565b6001600160a01b03808216600090815260396020526040812060018101805460028301805484546001600160a01b0319908116865580841690945592831690558416931691610d9e6003830182612513565b50506001600160a01b0381811660008181526039602052604080822080548786168452828420600280820180549389166001600160a01b0319948516179055905495909452600182018054958716958216959095178555439092558054603c80549187169184169190911781559354603d805491871691841691909117905591820154603e805491909516911617909255600382018054603f9190610e42906134c6565b610e4d92919061254f565b5050603c546040517feaa94fa30970548bf8b78ce068ba600b923a4a62ce3c523d09bf308102ff1bab9250610e8b916001600160a01b031690612fbf565b60405180910390a1505050565b60396020526000908152604090208054600182015460028301546003840180546001600160a01b0394851695938516949092169291610ed6906134c6565b80601f0160208091040260200160405190810160405280929190818152602001828054610f02906134c6565b8015610f4f5780601f10610f2457610100808354040283529160200191610f4f565b820191906000526020600020905b815481529060010190602001808311610f3257829003601f168201915b5050505050905084565b6000610f648561239f565b9050806037866060015181548110610f8c57634e487b7160e01b600052603260045260246000fd5b90600052602060002090600202016000015414610fbb5760405162461bcd60e51b8152600401610983906131e9565b815160a0860151146110215760405162461bcd60e51b815260206004820152602960248201527f54686973207472616e73616374696f6e2068617368657320726f6f74206973206044820152681a5b98dbdc9c9958dd60ba1b6064820152608401610983565b600073__Utils_________________________________632bc5ef1784866110488961241a565b6040518463ffffffff1660e01b815260040161106693929190613011565b60206040518083038186803b15801561107e57600080fd5b505af4158015611092573d6000803e3d6000fd5b505050506040513d601f19601f820116820180604052508101906110b69190612cab565b9050806111115760405162461bcd60e51b815260206004820152602360248201527f5472616e73616374696f6e20646f6573206e6f7420657869737420696e20626c6044820152626f636b60e81b6064820152608401610983565b505050505050565b6111216125da565b6041546001600160a01b031633148061114457506042546001600160a01b031633145b8061115957506043546001600160a01b031633145b6111755760405162461bcd60e51b8152600401610983906132b5565b6037805460009190611189906001906134af565b815481106111a757634e487b7160e01b600052603260045260246000fd5b906000526020600020906002020160405180604001604052908160008201548152602001600182015481525050905060378054806111f557634e487b7160e01b600052603160045260246000fd5b600082815260208120600260001990930192830201818155600101559055905090565b6112206125da565b6037828154811061124157634e487b7160e01b600052603260045260246000fd5b90600052602060002090600202016040518060400160405290816000820154815260200160018201548152505090505b919050565b6041546001600160a01b031633148061129957506042546001600160a01b031633145b806112ae57506043546001600160a01b031633145b6112ca5760405162461bcd60e51b8152600401610983906132b5565b6001600160a01b038216600090815260396020908152604090912082516112f9926003909201918401906125f1565b505050565b6037818154811061130e57600080fd5b60009182526020909120600290910201805460019091015490915082565b611334612665565b60408051608081018252603c80546001600160a01b039081168352603d5481166020840152603e541692820192909252603f805491929160608401919061137a906134c6565b80601f01602080910402602001604051908101604052809291908181526020018280546113a6906134c6565b80156113f35780601f106113c8576101008083540402835291602001916113f3565b820191906000526020600020905b8154815290600101906020018083116113d657829003601f168201915b505050505081525050905090565b600260015414156114545760405162461bcd60e51b815260206004820152601f60248201527f5265656e7472616e637947756172643a207265656e7472616e742063616c6c006044820152606401610983565b600260015533600081815260386020526040808220805490839055905190929083908381818185875af1925050503d80600081146114ae576040519150601f19603f3d011682016040523d82523d6000602084013e6114b3565b606091505b50509050806114f75760405162461bcd60e51b815260206004820152601060248201526f2a3930b739b332b9103330b4b632b21760811b6044820152606401610983565b505060018055565b60375460009015611551576037805461151a906001906134af565b8154811061153857634e487b7160e01b600052603260045260246000fd5b9060005260206000209060020201600001549050610cf5565b506000610cf5565b6041546001600160a01b031633148061157c57506042546001600160a01b031633145b8061159157506043546001600160a01b031633145b6115ad5760405162461bcd60e51b8152600401610983906132b5565b6115b682610cf8565b6001600160a01b0382166000818152603a6020818152604080842081518083018352815481526001808301805483870152845180860190955287855284860188815298909752949093529051905592519091556116139083613490565b815161161f9190613478565b6001600160a01b03851660009081526038602052604081208054909190611647908490613478565b909155505050505050565b6041546001600160a01b031633148061167557506042546001600160a01b031633145b8061168a57506043546001600160a01b031633145b6116a65760405162461bcd60e51b8152600401610983906132b5565b6001600160a01b038116600090815260396020526040812080546001600160a01b03199081168255600182018054821690556002820180549091169055906112f96003830182612513565b600054610100900460ff1661170c5760005460ff1615611710565b303b155b61172c5760405162461bcd60e51b81526004016109839061321c565b600054610100900460ff1615801561174e576000805461ffff19166101011790555b61175661242d565b8015611768576000805461ff00191690555b50565b611773612665565b6001600160a01b03808316600090815260396020908152604091829020825160808101845281548516815260018201548516928101929092526002810154909316918101919091526003820180549192916060840191906117d3906134c6565b80601f01602080910402602001604051908101604052809291908181526020018280546117ff906134c6565b801561184c5780601f106118215761010080835404028352916020019161184c565b820191906000526020600020905b81548152906001019060200180831161182f57829003601f168201915b5050505050815250509050919050565b6041546001600160a01b031633148061187f57506042546001600160a01b031633145b8061189457506043546001600160a01b031633145b6118b05760405162461bcd60e51b8152600401610983906132b5565b604055565b6033546001600160a01b031690565b6000806118d08461239f565b90508060378560600151815481106118f857634e487b7160e01b600052603260045260246000fd5b906000526020600020906002020160000154146119275760405162461bcd60e51b8152600401610983906131e9565b60405163bd98fe6560e01b815260009073__Utils_________________________________9063bd98fe65906119619087906004016130a5565b60206040518083038186803b15801561197957600080fd5b505af415801561198d573d6000803e3d6000fd5b505050506040513d601f19601f820116820180604052508101906119b19190612ce3565b9050808560a0015114611a1f5760405162461bcd60e51b815260206004820152603060248201527f536f6d65206f66207468657365207472616e73616374696f6e7320617265206e60448201526f6f7420696e207468697320626c6f636b60801b6064820152608401610983565b5090505b92915050565b611a316118b5565b6001600160a01b0316336001600160a01b031614611a615760405162461bcd60e51b81526004016109839061319b565b6001600160a01b0392909216600090815260366020526040902090815560010155565b6041546001600160a01b0316331480611aa757506042546001600160a01b031633145b80611abc57506043546001600160a01b031633145b611ad85760405162461bcd60e51b8152600401610983906132b5565b60378281548110611af957634e487b7160e01b600052603260045260246000fd5b9060005260206000209060020201600001547fea34b0bc565cb5f2ac54eaa86422ae05651f84522ef100e16b54a422f20538528383604051611b45929190918252602082015260400190565b60405180910390a25050565b6041546001600160a01b0316331480611b7457506042546001600160a01b031633145b80611b8957506043546001600160a01b031633145b611ba55760405162461bcd60e51b8152600401610983906132b5565b6001600160a01b039091166000818152603a6020818152604080842081518083019092528054825281830196875294909352525181559051600190910155565b6041546001600160a01b0316331480611c0857506042546001600160a01b031633145b80611c1d57506043546001600160a01b031633145b611c395760405162461bcd60e51b8152600401610983906132b5565b604080518082018252918252600060208084018281526001600160a01b039095168252603a905220905181559051600190910155565b6041546001600160a01b0316331480611c9257506042546001600160a01b031633145b80611ca757506043546001600160a01b031633145b611cc35760405162461bcd60e51b8152600401610983906132b5565b6001600160a01b03821660009081526038602052604081208054839290611ceb908490613478565b90915550505050565b611cfc6118b5565b6001600160a01b0316336001600160a01b031614611d2c5760405162461bcd60e51b81526004016109839061319b565b6001600160a01b03821660009081526036602052604090208160028110611d6357634e487b7160e01b600052603260045260246000fd5b01600090555050565b611d746118b5565b6001600160a01b0316336001600160a01b031614611da45760405162461bcd60e51b81526004016109839061319b565b603480546001600160a01b0319166001600160a01b0392909216919091179055565b6041546001600160a01b0316331480611de957506042546001600160a01b031633145b80611dfe57506043546001600160a01b031633145b611e1a5760405162461bcd60e51b8152600401610983906132b5565b6000908152603b60205260409020805460ff19166001179055565b6041546001600160a01b0316331480611e5857506042546001600160a01b031633145b80611e6d57506043546001600160a01b031633145b611e895760405162461bcd60e51b8152600401610983906132b5565b6001600160a01b03808316600090815260396020908152604091829020845181549085166001600160a01b0319918216178255828601516001830180549187169183169190911790559285015160028201805491909516931692909217909255606083015180518493611f039260038501929101906125f1565b5050505050565b600054610100900460ff16611f255760005460ff1615611f29565b303b155b611f455760405162461bcd60e51b81526004016109839061321c565b600054610100900460ff16158015611f67576000805461ffff19166101011790555b604180546001600160a01b038087166001600160a01b031992831617909255604280548684169083161790556043805492851692909116919091179055611fac6116f1565b611fb4612493565b8015611fc6576000805461ff00191690555b50505050565b6041546001600160a01b0316331480611fef57506042546001600160a01b031633145b8061200457506043546001600160a01b031633145b6120205760405162461bcd60e51b8152600401610983906132b5565b6001600160a01b0380821660009081526039602052604090208054603c80546001600160a01b03199081169285169290921781556001830154603d805484169186169190911790556002830154603e80549093169416939093179055600381018054919291603f9190612092906134c6565b611fc692919061254f565b6001600160a01b038216600090815260366020526040812082600281106120d457634e487b7160e01b600052603260045260246000fd5b01549392505050565b6041546001600160a01b031633148061210057506042546001600160a01b031633145b8061211557506043546001600160a01b031633145b6121315760405162461bcd60e51b8152600401610983906132b5565b60378054600181018255600091909152815160008051602061356483398151915260029092029182015560209091015160008051602061354483398151915290910155565b61217e6118b5565b6001600160a01b0316336001600160a01b0316146121ae5760405162461bcd60e51b81526004016109839061319b565b6001600160a01b0381166121c157600080fd5b7f8be0079c531659141344cd1fd0a4f28419497f9722a3daafe3b4186f6b6457e06121ea6118b5565b604080516001600160a01b03928316815291841660208301520160405180910390a1611768816124c4565b61221d6118b5565b6001600160a01b0316336001600160a01b03161461224d5760405162461bcd60e51b81526004016109839061319b565b603580546001600160a01b0319166001600160a01b0392909216919091179055565b60008073__Utils_________________________________63bd98fe65846040518263ffffffff1660e01b81526004016122a991906130a5565b60206040518083038186803b1580156122c157600080fd5b505af41580156122d5573d6000803e3d6000fd5b505050506040513d601f19601f820116820180604052508101906122f99190612ce3565b9392505050565b603c8054603d54603e54603f80546001600160a01b0394851695938516949092169291610ed6906134c6565b60606037805480602002602001604051908101604052809291908181526020016000905b8282101561239657838290600052602060002090600202016040518060400160405290816000820154815260200160018201548152505081526020019060010190612350565b50505050905090565b6000816040516020016123fd9190815165ffffffffffff1681526020808301516001600160a01b03169082015260408083015190820152606080830151908201526080808301519082015260a0918201519181019190915260c00190565b604051602081830303815290604052805190602001209050919050565b6000816040516020016123fd9190613367565b600054610100900460ff166124485760005460ff161561244c565b303b155b6124685760405162461bcd60e51b81526004016109839061321c565b600054610100900460ff1615801561248a576000805461ffff19166101011790555b611756336124c4565b600054610100900460ff166124ba5760405162461bcd60e51b81526004016109839061326a565b6124c26124e6565b565b603380546001600160a01b0319166001600160a01b0392909216919091179055565b600054610100900460ff1661250d5760405162461bcd60e51b81526004016109839061326a565b60018055565b50805461251f906134c6565b6000825580601f106125315750611768565b601f016020900490600052602060002090810190611768919061268b565b82805461255b906134c6565b90600052602060002090601f01602090048101928261257d57600085556125ca565b82601f1061258e57805485556125ca565b828001600101855582156125ca57600052602060002091601f016020900482015b828111156125ca5782548255916001019190600101906125af565b506125d692915061268b565b5090565b604080518082019091526000808252602082015290565b8280546125fd906134c6565b90600052602060002090601f01602090048101928261261f57600085556125ca565b82601f1061263857805160ff19168380011785556125ca565b828001600101855582156125ca579182015b828111156125ca57825182559160200191906001019061264a565b604080516080810182526000808252602082018190529181019190915260608082015290565b5b808211156125d6576000815560010161268c565b80356001600160a01b038116811461127157600080fd5b600082601f8301126126c7578081fd5b6126d16040613428565b8083856040860111156126e2578384fd5b835b60028110156127035781358452602093840193909101906001016126e4565b509095945050505050565b600082601f83011261271e578081fd5b61010061272a81613428565b808486848701111561273a578485fd5b8493505b600884101561275e5780358352600193909301926020928301920161273e565b5095945050505050565b600082601f830112612778578081fd5b813560206001600160401b038211156127935761279361352d565b6127a1818360051b01613428565b82815281810190858301610300808602880185018910156127c0578687fd5b865b868110156127e6576127d48a8461299d565b855293850193918101916001016127c2565b509198975050505050505050565b600082601f830112612804578081fd5b61280e6080613428565b80838560808601111561281f578384fd5b835b6004811015612703578135845260209384019390910190600101612821565b600082601f830112612850578081fd5b61285a6040613428565b80838560408601111561286b578384fd5b835b60028110156127035781356001600160401b038116811461288c578586fd5b8452602093840193919091019060010161286d565b80356003811061127157600080fd5b80356004811061127157600080fd5b600082601f8301126128cf578081fd5b81356001600160401b038111156128e8576128e861352d565b6128fb601f8201601f1916602001613428565b81815284602083860101111561290f578283fd5b816020850160208301379081016020019190915292915050565b600060c0828403121561293a578081fd5b61294460c0613428565b9050813565ffffffffffff8116811461295c57600080fd5b815261296a602083016126a0565b602082015260408201356040820152606082013560608201526080820135608082015260a082013560a082015292915050565b600061030082840312156129af578081fd5b6129ba610160613428565b90506129c582612a6d565b81526129d48360208401612840565b60208201526129e5606083016128b0565b60408201526129f6608083016128a1565b606082015260a0820135608082015260c082013560a082015260e082013560c0820152610100612a28848285016126b7565b60e0830152610140612a3c858286016126b7565b82840152612a4e85610180860161270e565b610120840152612a628561028086016127f4565b908301525092915050565b80356001600160701b038116811461127157600080fd5b600060208284031215612a95578081fd5b6122f9826126a0565b600080600060608486031215612ab2578182fd5b612abb846126a0565b9250612ac9602085016126a0565b9150612ad7604085016126a0565b90509250925092565b600080600060608486031215612af4578081fd5b612afd846126a0565b9250612b0b602085016126a0565b9150604084013590509250925092565b60008060408385031215612b2d578182fd5b612b36836126a0565b915060208301356001600160401b03811115612b50578182fd5b612b5c858286016128bf565b9150509250929050565b60008060408385031215612b78578182fd5b612b81836126a0565b915060208301356001600160401b0380821115612b9c578283fd5b9084019060808287031215612baf578283fd5b612bb96080613428565b612bc2836126a0565b8152612bd0602084016126a0565b6020820152612be1604084016126a0565b6040820152606083013582811115612bf7578485fd5b612c03888286016128bf565b6060830152508093505050509250929050565b60008060408385031215612c28578182fd5b612c31836126a0565b946020939093013593505050565b600080600060608486031215612c53578081fd5b612c5c846126a0565b95602085013595506040909401359392505050565b600060208284031215612c82578081fd5b81356001600160401b03811115612c97578182fd5b612ca384828501612768565b949350505050565b600060208284031215612cbc578081fd5b815180151581146122f9578182fd5b600060208284031215612cdc578081fd5b5035919050565b600060208284031215612cf4578081fd5b5051919050565b600060408284031215612d0c578081fd5b612d166040613428565b82358152602083013560208201528091505092915050565b600080600083850360e0811215612d43578182fd5b60c0811215612d50578182fd5b5083925060c08301356001600160401b0380821115612d6d578283fd5b818601915086601f830112612d80578283fd5b813581811115612d8e578384fd5b87602061030083028501011115612da3578384fd5b6020830194508093505050509250925092565b60008060e08385031215612dc8578182fd5b612dd28484612929565b915060c08301356001600160401b03811115612dec578182fd5b612b5c85828601612768565b6000806000806104a0808688031215612e0f578283fd5b612e198787612929565b9450612e288760c0880161299d565b93506103c08601359250866103ff870112612e41578182fd5b6006612e54612e4f82613458565b613428565b806103e089018a858b011115612e68578586fd5b8594505b83851015612e8b57803583526001949094019360209283019201612e6c565b50969995985093965050505050565b60008060408385031215612eac578182fd5b50508035926020909101359150565b8060005b6002811015611fc6578151845260209384019390910190600101612ebf565b8060005b6008811015611fc6578151845260209384019390910190600101612ee2565b8060005b6004811015611fc6578151845260209384019390910190600101612f05565b8060005b6002811015611fc65781516001600160401b0316845260209384019390910190600101612f28565b60038110612f6057612f60613517565b9052565b60048110612f6057612f60613517565b60008151808452815b81811015612f9957602081850181015186830182015201612f7d565b81811115612faa5782602083870101525b50601f01601f19169290920160200192915050565b6001600160a01b0391909116815260200190565b6001600160a01b03858116825284811660208301528316604082015260806060820181905260009061300790830184612f74565b9695505050505050565b6101008101818560005b600681101561303a57815183526020928301929091019060010161301b565b50505060c082019390935260e00152919050565b602080825282518282018190526000919060409081850190868401855b828110156130985761308884835180518252602090810151910152565b928401929085019060010161306b565b5091979650505050505050565b602080825282518282018190526000919060409081850190868401855b8281101561309857815180516001600160701b03168552868101516130e988870182612f24565b508581015160606130fc81880183612f64565b8201519050608061310f87820183612f50565b82015160a08781019190915282015160c08088019190915282015160e080880191909152820151905061010061314781880183612ebb565b820151905061014061315b87820183612ebb565b6101208301519150613171610180880183612ede565b91909101519050613186610280860182612f01565b506103009390930192908501906001016130c2565b6020808252602e908201527f596f7520617265206e6f7420617574686f726973656420746f20696e766f6b6560408201526d103a3434b990333ab731ba34b7b760911b606082015260800190565b602080825260199082015278151a1a5cc8189b1bd8dac8191bd95cc81b9bdd08195e1a5cdd603a1b604082015260600190565b6020808252602e908201527f496e697469616c697a61626c653a20636f6e747261637420697320616c72656160408201526d191e481a5b9a5d1a585b1a5e995960921b606082015260800190565b6020808252602b908201527f496e697469616c697a61626c653a20636f6e7472616374206973206e6f74206960408201526a6e697469616c697a696e6760a81b606082015260800190565b60208082526034908201527f546869732061646472657373206973206e6f7420617574686f72697365642074604082015273379031b0b636103a3434b990333ab731ba34b7b760611b606082015260800190565b815181526020808301519082015260408101611a23565b60006020825260018060a01b03808451166020840152806020850151166040840152806040850151166060840152506060830151608080840152612ca360a0840182612f74565b81516001600160701b031681526103008101602083015161338b6020840182612f24565b50604083015161339e6060840182612f64565b5060608301516133b16080840182612f50565b50608083015160a083015260a083015160c083015260c083015160e083015260e08301516101006133e481850183612ebb565b84015190506101406133f884820183612ebb565b610120850151915061340e610180850183612ede565b8401519050613421610280840182612f01565b5092915050565b604051601f8201601f191681016001600160401b03811182821017156134505761345061352d565b604052919050565b60006001600160401b038211156134715761347161352d565b5060051b90565b6000821982111561348b5761348b613501565b500190565b60008160001904831182151516156134aa576134aa613501565b500290565b6000828210156134c1576134c1613501565b500390565b600181811c908216806134da57607f821691505b602082108114156134fb57634e487b7160e01b600052602260045260246000fd5b50919050565b634e487b7160e01b600052601160045260246000fd5b634e487b7160e01b600052602160045260246000fd5b634e487b7160e01b600052604160045260246000fdfe42a7b7dd785cd69714a189dffb3fd7d7174edc9ece837694ce50f7078f7c31af42a7b7dd785cd69714a189dffb3fd7d7174edc9ece837694ce50f7078f7c31aea264697066735822122072d17c5e0873e0365d39ea2584c69b72da45ae4ed3245c4ce570b915d0ef7d3f64736f6c63430008030033",
  "immutableReferences": {},
  "source": "// SPDX-License-Identifier: CC0-1.0\nimport '@openzeppelin/contracts-upgradeable/proxy/utils/Initializable.sol';\nimport '@openzeppelin/contracts-upgradeable/security/ReentrancyGuardUpgradeable.sol';\n/**\nContract to hold global state that is needed by a number of other contracts,\ntogether with functions for mutating it.\n@Author Westlad\n*/\n\npragma solidity ^0.8.0;\n\nimport './Structures.sol';\nimport './Utils.sol';\nimport './Config.sol';\n\ncontract State is Structures, Initializable, ReentrancyGuardUpgradeable, Config {\n    // global state variables\n    BlockData[] public blockHashes; // array containing mainly blockHashes\n    mapping(address => uint256) public pendingWithdrawals;\n    mapping(address => LinkedAddress) public proposers;\n    mapping(address => TimeLockedBond) public bondAccounts;\n    mapping(bytes32 => bool) public claimedBlockStakes;\n    LinkedAddress public currentProposer; // who can propose a new shield state\n    uint256 public proposerStartBlock; // L1 block where currentProposer became current\n    // local state variables\n    address public proposersAddress;\n    address public challengesAddress;\n    address public shieldAddress;\n\n    function initialize(\n        address _proposersAddress,\n        address _challengesAddress,\n        address _shieldAddress\n    ) public initializer {\n        proposersAddress = _proposersAddress;\n        challengesAddress = _challengesAddress;\n        shieldAddress = _shieldAddress;\n        Config.initialize();\n        ReentrancyGuardUpgradeable.__ReentrancyGuard_init();\n    }\n\n    modifier onlyRegistered {\n        require(\n            msg.sender == proposersAddress ||\n                msg.sender == challengesAddress ||\n                msg.sender == shieldAddress,\n            'This address is not authorised to call this function'\n        );\n        _;\n    }\n\n    modifier onlyCurrentProposer {\n        // Modifier\n        require(\n            msg.sender == currentProposer.thisAddress,\n            'Only the current proposer can call this.'\n        );\n        _;\n    }\n\n    receive() external payable {\n        //fallback for payable\n    }\n\n    /**\n     * Allows a Proposer to propose a new block of state updates.\n     * @param b the block being proposed.  This function is kept in State.sol\n     * so that we don't have cross-contract calls and thus keep Gas to an absolute\n     * minimum.\n     */\n    function proposeBlock(Block calldata b, Transaction[] calldata t)\n        external\n        payable\n        onlyCurrentProposer\n    {\n        require(b.blockNumberL2 == blockHashes.length, 'The block is out of order'); // this will fail if a tx is re-mined out of order due to a chain reorg.\n        if (blockHashes.length != 0)\n            require(\n                b.previousBlockHash == blockHashes[blockHashes.length - 1].blockHash,\n                'The block is flawed or out of order'\n            ); // this will fail if a tx is re-mined out of order due to a chain reorg.\n        require(BLOCK_STAKE <= msg.value, 'The stake payment is incorrect');\n        require(b.proposer == msg.sender, 'The proposer address is not the sender');\n        // set the maximum tx/block to prevent unchallengably large blocks\n        require(t.length < 33, 'The block has too many transactions');\n\n        bytes32 blockHash;\n        assembly {\n            let blockPos := mload(0x40) // get empty memory location pointer\n            calldatacopy(blockPos, 4, add(mul(t.length, 0x300), 0x100)) // copy calldata into this location. 0x300 is 768 bytes of data for each transaction. 0x100 is 192 bytes of block data, 32 bytes for transactions array memory and size each. TODO skip this by passing parameters in memory. But inline assembly to destructure struct array is not straight forward\n            let transactionPos := add(blockPos, 0x100) // calculate memory location of transactions data copied\n            let transactionHashesPos := add(transactionPos, mul(t.length, 0x300)) // calculate memory location to store transaction hashes to be calculated\n            // calculate and store transaction hashes\n            for {\n                let i := 0\n            } lt(i, t.length) {\n                i := add(i, 1)\n            } {\n                mstore(\n                    add(transactionHashesPos, mul(0x20, i)),\n                    keccak256(add(transactionPos, mul(0x300, i)), 0x300)\n                )\n            }\n            let transactionHashesRoot\n            // calculate and store transaction hashes root\n            for {\n                let i := 5\n            } gt(i, 0) {\n                i := sub(i, 1)\n            } {\n                for {\n                    let j := 0\n                } lt(j, exp(2, sub(i, 1))) {\n                    j := add(j, 1)\n                } {\n                    let left := mload(add(transactionHashesPos, mul(mul(0x20, j), 2)))\n                    let right := mload(add(transactionHashesPos, add(mul(mul(0x20, j), 2), 0x20)))\n                    if eq(and(iszero(left), iszero(right)), 1) {\n                        transactionHashesRoot := 0\n                    } // returns bool\n                    if eq(and(iszero(left), iszero(right)), 0) {\n                        transactionHashesRoot := keccak256(\n                            add(transactionHashesPos, mul(mul(0x20, j), 2)),\n                            0x40\n                        )\n                    } // returns bool\n                    mstore(add(transactionHashesPos, mul(0x20, j)), transactionHashesRoot)\n                }\n            }\n            // check if the transaction hashes root calculated equal to the one passed as part of block data\n            if eq(eq(mload(add(blockPos, mul(5, 0x20))), transactionHashesRoot), 0) {\n                revert(0, 0)\n            }\n            // calculate block hash\n            blockHash := keccak256(blockPos, mul(6, 0x20))\n        }\n        // We need to set the blockHash on chain here, because there is no way to\n        // convince a challenge function of the (in)correctness by an offchain\n        // computation; the on-chain code doesn't save the pre-image of the hash so\n        // it can't tell if it's been given the correct one as part of a challenge.\n        // To do this, we simply hash the function parameters because (1) they\n        // contain all of the relevant data (2) it doesn't take much gas.\n        // All check pass so add the block to the list of blocks waiting to be permanently added to the state - we only save the hash of the block data plus the absolute minimum of metadata - it's up to the challenger, or person requesting inclusion of the block to the permanent contract state, to provide the block data.\n\n        // blockHash is hash of all block data and hash of all the transactions data.\n        blockHashes.push(BlockData({blockHash: blockHash, time: block.timestamp}));\n        // Timber will listen for the BlockProposed event as well as\n        // nightfall-optimist.  The current, optimistic version of Timber does not\n        // require the smart contract to craft NewLeaf/NewLeaves events.\n        emit BlockProposed();\n    }\n\n    // function to signal a rollback. Note that we include the block hash because\n    // it's uinque, although technically not needed (Optimist consumes the\n    // block number and Timber the leaf count). It's helpful when testing to make\n    // sure we have the correct event.\n    function emitRollback(uint256 blockNumberL2ToRollbackTo, uint256 leafCountToRollbackTo)\n        public\n        onlyRegistered\n    {\n        emit Rollback(\n            blockHashes[blockNumberL2ToRollbackTo].blockHash,\n            blockNumberL2ToRollbackTo,\n            leafCountToRollbackTo\n        );\n    }\n\n    function setProposer(address addr, LinkedAddress memory proposer) public onlyRegistered {\n        proposers[addr] = proposer;\n    }\n\n    function getProposer(address addr) public view returns (LinkedAddress memory) {\n        return proposers[addr];\n    }\n\n    function deleteProposer(address addr) public onlyRegistered {\n        delete proposers[addr];\n    }\n\n    function setCurrentProposer(address proposer) public onlyRegistered {\n        currentProposer = proposers[proposer];\n    }\n\n    function getCurrentProposer() public view returns (LinkedAddress memory) {\n        return currentProposer;\n    }\n\n    function pushBlockData(BlockData memory bd) public onlyRegistered {\n        blockHashes.push(bd);\n    }\n\n    function popBlockData() public onlyRegistered returns (BlockData memory) {\n        // oddly .pop() doesn't return the 'popped' element\n        BlockData memory popped = blockHashes[blockHashes.length - 1];\n        blockHashes.pop();\n        return popped;\n    }\n\n    function getBlockData(uint256 blockNumberL2) public view returns (BlockData memory) {\n        return blockHashes[blockNumberL2];\n    }\n\n    /*\n  return all of the block data as an array.  This lets us do off-chain\n  reverse lookups\n  */\n    function getAllBlockData() public view returns (BlockData[] memory) {\n        return blockHashes;\n    }\n\n    function getNumberOfL2Blocks() public view returns (uint256) {\n        return blockHashes.length;\n    }\n\n    function getLatestBlockHash() public view returns (bytes32) {\n        if (blockHashes.length != 0) return blockHashes[blockHashes.length - 1].blockHash;\n        else return Config.ZERO;\n    }\n\n    function addPendingWithdrawal(address addr, uint256 amount) public onlyRegistered {\n        pendingWithdrawals[addr] += amount;\n    }\n\n    function withdraw() external nonReentrant {\n        uint256 amount = pendingWithdrawals[msg.sender];\n        pendingWithdrawals[msg.sender] = 0;\n        (bool success, ) = payable(msg.sender).call{value: amount}('');\n        require(success, 'Transfer failed.');\n    }\n\n    function setProposerStartBlock(uint256 sb) public onlyRegistered {\n        proposerStartBlock = sb;\n    }\n\n    function getProposerStartBlock() public view returns (uint256) {\n        return proposerStartBlock;\n    }\n\n    function removeProposer(address proposer) public onlyRegistered {\n        address previousAddress = proposers[proposer].previousAddress;\n        address nextAddress = proposers[proposer].nextAddress;\n        delete proposers[proposer];\n        proposers[previousAddress].nextAddress = proposers[nextAddress].thisAddress;\n        proposers[nextAddress].previousAddress = proposers[previousAddress].thisAddress;\n        // Cannot just call changeCurrentProposer directly due to the require time check\n        //change currentProposer to next aaddress irrespective of whether proposer is currentProposer\n        proposerStartBlock = block.number;\n        currentProposer = proposers[nextAddress];\n        emit NewCurrentProposer(currentProposer.thisAddress);\n    }\n\n    function updateProposer(address proposer, string memory url) public onlyRegistered {\n        proposers[proposer].url = url;\n    }\n\n    function hashTransactionHashes(Transaction[] memory ts) public view returns (bytes32) {\n        bytes32 transactionHashesRoot = Utils.hashTransactionHashes(ts);\n        return transactionHashesRoot;\n    }\n\n    // Checks if a block is actually referenced in the queue of blocks waiting\n    // to go into the Shield state (stops someone challenging with a non-existent\n    // block).\n    function areBlockAndTransactionsReal(Block memory b, Transaction[] memory ts)\n        public\n        view\n        returns (bytes32)\n    {\n        bytes32 blockHash = Utils.hashBlock(b);\n        require(blockHashes[b.blockNumberL2].blockHash == blockHash, 'This block does not exist');\n        bytes32 tranasactionHashesRoot = Utils.hashTransactionHashes(ts);\n        require(\n            b.transactionHashesRoot == tranasactionHashesRoot,\n            'Some of these transactions are not in this block'\n        );\n        return blockHash;\n    }\n\n    function areBlockAndTransactionReal(\n        Block memory b,\n        Transaction memory t,\n        uint256 index,\n        bytes32[6] memory siblingPath\n    ) public view {\n        bytes32 blockHash = Utils.hashBlock(b);\n        require(blockHashes[b.blockNumberL2].blockHash == blockHash, 'This block does not exist');\n        require(\n            b.transactionHashesRoot == siblingPath[0],\n            'This transaction hashes root is incorrect'\n        );\n        bool valid = Utils.checkPath(siblingPath, index, Utils.hashTransaction(t));\n        require(valid, 'Transaction does not exist in block');\n    }\n\n    function setBondAccount(address addr, uint256 amount) public onlyRegistered {\n        bondAccounts[addr] = TimeLockedBond(amount, 0);\n    }\n\n    function getBondAccount(address addr) public view returns (TimeLockedBond memory) {\n        return bondAccounts[addr];\n    }\n\n    function rewardChallenger(\n        address challengerAddr,\n        address proposer,\n        uint256 numRemoved\n    ) public onlyRegistered {\n        removeProposer(proposer);\n        TimeLockedBond memory bond = bondAccounts[proposer];\n        bondAccounts[proposer] = TimeLockedBond(0, 0);\n        pendingWithdrawals[challengerAddr] += bond.amount + numRemoved * BLOCK_STAKE;\n    }\n\n    function updateBondAccountTime(address addr, uint256 time) public onlyRegistered {\n        TimeLockedBond memory bond = bondAccounts[addr];\n        bond.time = time;\n        bondAccounts[addr] = bond;\n    }\n\n    function isBlockStakeWithdrawn(bytes32 blockHash) public view returns (bool) {\n        return claimedBlockStakes[blockHash];\n    }\n\n    function setBlockStakeWithdrawn(bytes32 blockHash) public onlyRegistered {\n        claimedBlockStakes[blockHash] = true;\n    }\n}\n",
  "sourcePath": "/home/david/dev/polygon-hermez/nightfall_3/nightfall-deployer/contracts/State.sol",
  "compiler": {
    "name": "solc",
    "version": "0.8.3+commit.8d00100c.Emscripten.clang"
  },
  "schemaVersion": "3.4.2",
  "updatedAt": "2022-06-13T21:04:30.121Z",
  "devdoc": {
    "kind": "dev",
    "methods": {
      "initialize()": {
        "details": "The constructor sets the original owner of the contract to the sender account."
      },
      "owner()": {
        "details": "Tells the address of the owner",
        "returns": {
          "_0": "the address of the owner"
        }
      },
      "proposeBlock((uint48,address,bytes32,uint256,bytes32,bytes32),(uint112,uint64[2],uint8,uint8,bytes32,bytes32,bytes32,bytes32[2],bytes32[2],bytes32[8],uint256[4])[])": {
        "params": {
          "b": "the block being proposed.  This function is kept in State.sol so that we don't have cross-contract calls and thus keep Gas to an absolute minimum."
        }
      },
      "transferOwnership(address)": {
        "details": "Allows the current owner to transfer control of the contract to a newOwner.",
        "params": {
          "newOwner": "The address to transfer ownership to."
        }
      }
    },
    "version": 1
  },
  "userdoc": {
    "events": {
      "NewLeaf(uint256,bytes32,bytes32)": {
        "notice": "These events are what the merkle-tree microservice's filters will listen for."
      }
    },
    "kind": "user",
    "methods": {
      "proposeBlock((uint48,address,bytes32,uint256,bytes32,bytes32),(uint112,uint64[2],uint8,uint8,bytes32,bytes32,bytes32,bytes32[2],bytes32[2],bytes32[8],uint256[4])[])": {
        "notice": "Allows a Proposer to propose a new block of state updates."
      }
    },
    "version": 1
  }
}