{
  "_format": "hh-sol-artifact-1",
  "contractName": "Poseidon",
  "sourceName": "contracts/Poseidon.sol",
  "abi": [
    {
      "inputs": [
        {
          "internalType": "uint256",
          "name": "t1",
          "type": "uint256"
        },
        {
          "internalType": "uint256",
          "name": "t2",
          "type": "uint256"
        }
      ],
      "name": "poseidon",
      "outputs": [
        {
          "internalType": "uint256",
          "name": "t0",
          "type": "uint256"
        }
      ],
      "stateMutability": "pure",
      "type": "function"
    }
  ],
  "bytecode": "0x61295e610053600b82828239805160001a607314610046577f4e487b7100000000000000000000000000000000000000000000000000000000600052600060045260246000fd5b30600052607381538281f3fe73000000000000000000000000000000000000000030146080604052600436106100355760003560e01c8063553e2c311461003a575b600080fd5b610054600480360381019061004f91906128be565b61006a565b604051610061919061290d565b60405180910390f35b60007f30644e72e131a029b85045b68181585d2833e84879b9709143e1f593f0000001610316565b60008060007f30644e72e131a029b85045b68181585d2833e84879b9709143e1f593f0000001807f2b90bba00fca0589f617e7dcbfe82e0df706ab640ceb247b791a93b74e36736d88097f30644e72e131a029b85045b68181585d2833e84879b9709143e1f593f0000001807f16ed41e13bb9c0c66ae119424fddbcbc9314dc9fdbdeea55d6c64543dc4903e089097f30644e72e131a029b85045b68181585d2833e84879b9709143e1f593f00000017f109b7f411ba0e4c9b2b70caf5c36a7b194be7c11ad24378bfedb68592ba8118b8909080892507f30644e72e131a029b85045b68181585d2833e84879b9709143e1f593f0000001807f101071f0032379b697315876690f053d148d4e109f5fb065c8aacc55a0f89bfa88097f30644e72e131a029b85045b68181585d2833e84879b9709143e1f593f0000001807f2e2419f9ec02ec394c9871c832963dc1b89d743c8c7b964029b2311687b1fe2389097f30644e72e131a029b85045b68181585d2833e84879b9709143e1f593f00000017f2969f27eed31a480b9c36c764379dbca2cc8fdd1415c3dded62940bcde0bd7718909080891507f30644e72e131a029b85045b68181585d2833e84879b9709143e1f593f0000001807f19a3fc0a56702bf417ba7fee3802593fa644470307043f7773279cd71d25d5e088097f30644e72e131a029b85045b68181585d2833e84879b9709143e1f593f0000001807f176cc029695ad02582a70eff08a6fd99d057e12e58e7d7b6b16cdfabc8ee291189097f30644e72e131a029b85045b68181585d2833e84879b9709143e1f593f00000017f143021ec686a3f330d5f9e654638065ce6cd79e28c5b3753326244ee65a1b1a789090808905093509350939050565b807f0ee9a592ba9a9518d05986d656f40c2114c4993c11bb29938d21d47304cd8e6e83089150807ef1445235f2148c5986587169fc1bcd887b08d4d00868df5696fff40956e86485089350807f08dff3487e8ac99e1f29a058d0fa80b930c728730b7ab36ce879f3890ecf73f5840892508082830981858609828586096103b08485838409880985868586098a0986878788098909610092565b975097509450837f2f27be690fdaee46c3ce28f7532b13c856c35342c84bda6e20966310fadc01d086089450837f2b2ae1acf68b7b8d2416bebf3d4f6234b763fe04b8043ee48b8327bebca16cf288089650837f0319d062072bef7ecca5eac06f97d4d55952c175ab6b03eae64b44c7dbf11cfa870895508385860992508387880991508386870990506104578485838409880985868586098a0986878788098909610092565b975097509450837f28813dcaebaeaa828a376df87af4a63bc8b7bf27ad49c6298ef7b387bf28526d86089450837f2727673b2ccbc903f181bf38e1c1d40d2033865200c352bc150928adddf9cb7888089650837f234ec45ca27727c2e74abd2b2a1494cd6efbd43e340587d6b8fb9e31e65cc632870895508385860992508387880991508386870990506104fe8485838409880985868586098a0986878788098909610092565b975097509450837f15b52534031ae18f7f862cb2cf7cf760ab10a8150a337b1ccd99ff6e8797d42886089450837f0dc8fad6d9e4b35f5ed9a3d186b79ce38e0e8a8d1b58b132d701d4eecf68d1f688089650837f1bcd95ffc211fbca600f705fad3fb567ea4eb378f62e1fec97805518a47e4d9c870895508385860992508387880991508386870990506105a58485838409880985868586098a0986878788098909610092565b975097509450837f10520b0ab721cadfe9eff81b016fc34dc76da36c2578937817cb978d069de55986089450837f1f6d48149b8e7f7d9b257d8ed5fbbaf42932498075fed0ace88a9eb81f5627f688089650837f1d9655f652309014d29e00ef35a2089bfff8dc1c816f0dc9ca34bdb5460c870587089550838586099250610634868886878788098909610092565b975097509450837f04df5a56ff95bcafb051f7b1cd43a99ba731ff67e47032058fe3d4185697cc7d86089450837f0672d995f8fff640151b3d290cedaf148690a10a8c8424a7f6ec282b6e4be82888089650837f099952b414884454b21200d7ffafdd5f0c9a9dcc06f2708e9fc1d8209b5c75b9870895508385860992506106c3868886878788098909610092565b975097509450837f052cba2255dfd00c7c483143ba8d469448e43586a9b4cd9183fd0e843a6b9fa686089450837f0b8badee690adb8eb0bd74712b7999af82de55707251ad7716077cb93c464ddc88089650837f119b1590f13307af5a1ee651020c07c749c15d60683a8050b963d0a8e4b2bdd187089550838586099250610752868886878788098909610092565b975097509450837f03150b7cd6d5d17b2529d36be0f67b832c4acfc884ef4ee5ce15be0bfb4a8d0986089450837f2cc6182c5e14546e3cf1951f173912355374efb83d80898abe69cb317c9ea56588089650837e5032551e6378c450cfe129a404b3764218cadedac14e2b92d2cd73111bf0f9870895508385860992506107e0868886878788098909610092565b975097509450837f233237e3289baa34bb147e972ebcb9516469c399fcc069fb88f9da2cc28276b586089450837f05c8f4f4ebd4a6e3c980d31674bfbe6323037f21b34ae5a4e80c2d4c24d6028088089650837f0a7b1db13042d396ba05d818a319f25252bcf35ef3aeed91ee1f09b2590fc65b8708955083858609925061086f868886878788098909610092565b975097509450837f2a73b71f9b210cf5b14296572c9d32dbf156e2b086ff47dc5df542365a404ec086089450837f1ac9b0417abcc9a1935107e9ffc91dc3ec18f2c4dbe7f22976a760bb5c50c46088089650837f12c0339ae08374823fabb076707ef479269f3e4d6cb104349015ee046dc93fc0870895508385860992506108fe868886878788098909610092565b975097509450837f0b7475b102a165ad7f5b18db4e1e704f52900aa3253baac68246682e56e9a28e86089450837f037c2849e191ca3edb1c5e49f6e8b8917c843e379366f2ea32ab3aa88d7f844888089650837f05a6811f8556f014e92674661e217e9bd5206c5c93a07dc145fdb176a716346f8708955083858609925061098d868886878788098909610092565b975097509450837f29a795e7d98028946e947b75d54e9f044076e87a7b2883b47b675ef5f38bd66e86089450837f20439a0c84b322eb45a3857afc18f5826e8c7382c8a1585c507be199981fd22f88089650837f2e0ba8d94d9ecf4a94ec2050c7371ff1bb50f27799a84b6d4a2a6f2a0982c88787089550838586099250610a1c868886878788098909610092565b975097509450837f143fd115ce08fb27ca38eb7cce822b4517822cd2109048d2e6d0ddcca17d71c886089450837f0c64cbecb1c734b857968dbbdcf813cdf8611659323dbcbfc84323623be9caf188089650837f028a305847c683f646fca925c163ff5ae74f348d62c2b670f1426cef9403da5387089550838586099250610aab868886878788098909610092565b975097509450837f2e4ef510ff0b6fda5fa940ab4c4380f26a6bcb64d89427b824d6755b5db9e30c86089450837e81c95bc43384e663d79270c956ce3b8925b4f6d033b078b96384f50579400e88089650837f2ed5f0c91cbd9749187e2fade687e05ee2491b349c039a0bba8a9f4023a0bb3887089550838586099250610b39868886878788098909610092565b975097509450837f30509991f88da3504bbf374ed5aae2f03448a22c76234c8c990f01f33a73520686089450837f1c3f20fd55409a53221b7c4d49a356b9f0a1119fb2067b41a7529094424ec6ad88089650837f10b4e7f3ab5df003049514459b6e18eec46bb2213e8e131e170887b47ddcb96c87089550838586099250610bc8868886878788098909610092565b975097509450837f2a1982979c3ff7f43ddd543d891c2abddd80f804c077d775039aa3502e43adef86089450837f1c74ee64f15e1db6feddbead56d6d55dba431ebc396c9af95cad0f1315bd5c9188089650837f07533ec850ba7f98eab9303cace01b4b9e4f2e8b82708cfa9c2fe45a0ae146a087089550838586099250610c57868886878788098909610092565b975097509450837f21576b438e500449a151e4eeaf17b154285c68f42d42c1808a11abf3764c075086089450837f2f17c0559b8fe79608ad5ca193d62f10bce8384c815f0906743d6930836d4a9e88089650837f2d477e3862d07708a79e8aae946170bc9775a4201318474ae665b0b1b7e2730e87089550838586099250610ce6868886878788098909610092565b975097509450837f162f5243967064c390e095577984f291afba2266c38f5abcd89be0f5b2747eab86089450837f2b4cb233ede9ba48264ecd2c8ae50d1ad7a8596a87f29f8a7777a7009239331188089650837f2c8fbcb2dd8573dc1dbaf8f4622854776db2eece6d85c4cf4254e7c35e03b07a87089550838586099250610d75868886878788098909610092565b975097509450837f1d6f347725e4816af2ff453f0cd56b199e1b61e9f601e9ade5e88db870949da986089450837f204b0c397f4ebe71ebc2d8b3df5b913df9e6ac02b68d31324cd49af5c456552988089650837f0c4cb9dc3c4fd8174f1149b3c63c3c2f9ecb827cd7dc25534ff8fb75bc79c50287089550838586099250610e04868886878788098909610092565b975097509450837f174ad61a1448c899a25416474f4930301e5c49475279e0639a616ddc45bc7b5486089450837f1a96177bcf4d8d89f759df4ec2f3cde2eaaa28c177cc0fa13a9816d49a38d2ef88089650837f066d04b24331d71cd0ef8054bc60c4ff05202c126a233c1a8242ace360b8a30a87089550838586099250610e93868886878788098909610092565b975097509450837f2a4c4fc6ec0b0cf52195782871c6dd3b381cc65f72e02ad527037a62aa1bd80486089450837f13ab2d136ccf37d447e9f2e14a7cedc95e727f8446f6d9d7e55afc01219fd64988089650837f1121552fca26061619d24d843dc82769c1b04fcec26f55194c2e3e869acc6a9a87089550838586099250610f22868886878788098909610092565b975097509450837eef653322b13d6c889bc81715c37d77a6cd267d595c4a8909a5546c7c97cff186089450837f0e25483e45a665208b261d8ba74051e6400c776d652595d9845aca35d8a397d388089650837f29f536dcb9dd7682245264659e15d88e395ac3d4dde92d8c46448db979eeba8987089550838586099250610fb0868886878788098909610092565b975097509450837f2a56ef9f2c53febadfda33575dbdbd885a124e2780bbea170e456baace0fa5be86089450837f1c8361c78eb5cf5decfb7a2d17b5c409f2ae2999a46762e8ee416240a8cb9af188089650837f151aff5f38b20a0fc0473089aaf0206b83e8e68a764507bfd3d0ab4be74319c58708955083858609925061103f868886878788098909610092565b975097509450837f04c6187e41ed881dc1b239c88f7f9d43a9f52fc8c8b6cdd1e76e47615b51f10086089450837f13b37bd80f4d27fb10d84331f6fb6d534b81c61ed15776449e801b7ddc9c296788089650837f01a5c536273c2d9df578bfbd32c17b7a2ce3664c2a52032c9321ceb1c4e8a8e4870895508385860992506110ce868886878788098909610092565b975097509450837f2ab3561834ca73835ad05f5d7acb950b4a9a2c666b9726da832239065b7c3b0286089450837f1d4d8ec291e720db200fe6d686c0d613acaf6af4e95d3bf69f7ed516a597b64688089650837f041294d2cc484d228f5784fe7919fd2bb925351240a04b711514c9c80b65af1d8708955083858609925061115d868886878788098909610092565b975097509450837f154ac98e01708c611c4fa715991f004898f57939d126e392042971dd90e81fc686089450837f0b339d8acca7d4f83eedd84093aef51050b3684c88f8b0b04524563bc6ea4da488089650837f0955e49e6610c94254a4f84cfbab344598f0e71eaff4a7dd81ed95b50839c82e870895508385860992506111ec868886878788098909610092565b975097509450837f06746a6156eba54426b9e22206f15abca9a6f41e6f535c6f3525401ea065462686089450837f0f18f5a0ecd1423c496f3820c549c27838e5790e2bd0a196ac917c7ff32077fb88089650837f04f6eeca1751f7308ac59eff5beb261e4bb563583ede7bc92a738223d6f76e138708955083858609925061127b868886878788098909610092565b975097509450837f2b56973364c4c4f5c1a3ec4da3cdce038811eb116fb3e45bc1768d26fc0b375886089450837f123769dd49d5b054dcd76b89804b1bcb8e1392b385716a5d83feb65d437f29ef88089650837f2147b424fc48c80a88ee52b91169aacea989f6446471150994257b2fb01c63e98708955083858609925061130a868886878788098909610092565b975097509450837f0fdc1f58548b85701a6c5505ea332a29647e6f34ad4243c2ea54ad897cebe54d86089450837f12373a8251fea004df68abcf0f7786d4bceff28c5dbbe0c3944f685cc0a0b1f288089650837f21e4f4ea5f35f85bad7ea52ff742c9e8a642756b6af44203dd8a1f35c1a9003587089550838586099250611399868886878788098909610092565b975097509450837f16243916d69d2ca3dfb4722224d4c462b57366492f45e90d8a81934f1bc3b14786089450837f1efbe46dd7a578b4f66f9adbc88b4378abc21566e1a0453ca13a4159cac04ac288089650837f07ea5e8537cf5dd08886020e23a7f387d468d5525be66f853b672cc96a88969a87089550838586099250611428868886878788098909610092565b975097509450837f05a8c4f9968b8aa3b7b478a30f9a5b63650f19a75e7ce11ca9fe16c0b76c00bc86089450837f20f057712cc21654fbfe59bd345e8dac3f7818c701b9c7882d9d57b72a32e83f88089650837f04a12ededa9dfd689672f8c67fee31636dcd8e88d01d49019bd90b33eb33db69870895508385860992506114b7868886878788098909610092565b975097509450837f27e88d8c15f37dcee44f1e5425a51decbd136ce5091a6767e49ec9544ccd101a86089450837f2feed17b84285ed9b8a5c8c5e95a41f66e096619a7703223176c41ee433de4d188089650837f1ed7cc76edf45c7c404241420f729cf394e5942911312a0d6972b8bd53aff2b887089550838586099250611546868886878788098909610092565b975097509450837f15742e99b9bfa323157ff8c586f5660eac6783476144cdcadf2874be45466b1a86089450837f1aac285387f65e82c895fc6887ddf40577107454c6ec0317284f033f27d0c78588089650837f25851c3c845d4790f9ddadbdb6057357832e2e7a49775f71ec75a96554d67c77870895508385860992506115d5868886878788098909610092565b975097509450837f15a5821565cc2ec2ce78457db197edf353b7ebba2c5523370ddccc3d9f146a6786089450837f2411d57a4813b9980efa7e31a1db5966dcf64f36044277502f15485f28c7172788089650837e2e6f8d6520cd4713e335b8c0b6d2e647e9a98e12f4cd2558828b5ef6cb4c9b87089550838586099250611663868886878788098909610092565b975097509450837f2ff7bc8f4380cde997da00b616b0fcd1af8f0e91e2fe1ed7398834609e0315d286089450837eb9831b948525595ee02724471bcd182e9521f6b7bb68f1e93be4febb0d3cbe88089650837f0a2f53768b8ebf6a86913b0e57c04e011ca408648a4743a87d77adbf0c9c3512870895508385860992506116f1868886878788098909610092565b975097509450837e248156142fd0373a479f91ff239e960f599ff7e94be69b7f2a290305e1198d86089450837f171d5620b87bfb1328cf8c02ab3f0c9a397196aa6a542c2350eb512a2b2bcda988089650837f170a4f55536f7dc970087c7c10d6fad760c952172dd54dd99d1045e4ec34a8088708955083858609925061177f868886878788098909610092565b975097509450837f29aba33f799fe66c2ef3134aea04336ecc37e38c1cd211ba482eca17e2dbfae186089450837f1e9bc179a4fdd758fdd1bb1945088d47e70d114a03f6a0e8b5ba650369e6497388089650837f1dd269799b660fad58f7f4892dfb0b5afeaad869a9c4b44f9c9e1c43bdaf8f098708955083858609925061180e868886878788098909610092565b975097509450837f22cdbc8b70117ad1401181d02e15459e7ccd426fe869c7c95d1dd2cb0f24af3886089450837f0ef042e454771c533a9f57a55c503fcefd3150f52ed94a7cd5ba93b9c7dacefd88089650837f11609e06ad6c8fe2f287f3036037e8851318e8b08a0359a03b304ffca62e82848708955083858609925061189d868886878788098909610092565b975097509450837f1166d9e554616dba9e753eea427c17b7fecd58c076dfe42708b08f5b783aa9af86089450837f2de52989431a859593413026354413db177fbf4cd2ac0b56f855a888357ee46688089650837f3006eb4ffc7a85819a6da492f3a8ac1df51aee5b17b8e89d74bf01cf5f71e9ad8708955083858609925061192c868886878788098909610092565b975097509450837f2af41fbb61ba8a80fdcf6fff9e3f6f422993fe8f0a4639f962344c822514508686089450837f119e684de476155fe5a6b41a8ebc85db8718ab27889e85e781b214bace4827c388089650837f1835b786e2e8925e188bea59ae363537b51248c23828f047cff784b97b3fd800870895508385860992506119bb868886878788098909610092565b975097509450837f28201a34c594dfa34d794996c6433a20d152bac2a7905c926c40e285ab32eeb686089450837f083efd7a27d1751094e80fefaf78b000864c82eb571187724a761f88c22cc4e788089650837f0b6f88a3577199526158e61ceea27be811c16df7774dd8519e079564f61fd13b87089550838586099250611a4a868886878788098909610092565b975097509450837f0ec868e6d15e51d9644f66e1d6471a94589511ca00d29e1014390e6ee4254f5b86089450837f2af33e3f866771271ac0c9b3ed2e1142ecd3e74b939cd40d00d937ab84c9859188089650837f0b520211f904b5e7d09b5d961c6ace7734568c547dd6858b364ce5e47951f17887089550838586099250611ad9868886878788098909610092565b975097509450837f0b2d722d0919a1aad8db58f10062a92ea0c56ac4270e822cca228620188a1d4086089450837f1f790d4d7f8cf094d980ceb37c2453e957b54a9991ca38bbe0061d1ed6e562d488089650837f0171eb95dfbf7d1eaea97cd385f780150885c16235a2a6a8da92ceb01e50423387089550838586099250611b68868886878788098909610092565b975097509450837f0c2d0e3b5fd57549329bf6885da66b9b790b40defd2c8650762305381b16887386089450837f1162fb28689c27154e5a8228b4e72b377cbcafa589e283c35d3803054407a18d88089650837f2f1459b65dee441b64ad386a91e8310f282c5a92a89e19921623ef8249711bc087089550838586099250611bf7868886878788098909610092565b975097509450837f1e6ff3216b688c3d996d74367d5cd4c1bc489d46754eb712c243f70d1b53cfbb86089450837f01ca8be73832b8d0681487d27d157802d741a6f36cdc2a0576881f932647887588089650837f1f7735706ffe9fc586f976d5bdf223dc680286080b10cea00b9b5de315f9650e87089550838586099250611c86868886878788098909610092565b975097509450837f2522b60f4ea3307640a0c2dce041fba921ac10a3d5f096ef4745ca838285f01986089450837f23f0bee001b1029d5255075ddc957f833418cad4f52b6c3f8ce16c235572575b88089650837f2bc1ae8b8ddbb81fcaac2d44555ed5685d142633e9df905f66d9401093082d5987089550838586099250611d15868886878788098909610092565b975097509450837f0f9406b8296564a37304507b8dba3ed162371273a07b1fc98011fcd6ad72205f86089450837f2360a8eb0cc7defa67b72998de90714e17e75b174a52ee4acb126c8cd995f0a888089650837f15871a5cddead976804c803cbaef255eb4815a5e96df8b006dcbbc2767f8894887089550838586099250611da4868886878788098909610092565b975097509450837f193a56766998ee9e0a8652dd2f3b1da0362f4f54f72379544f957ccdeefb420f86089450837f2a394a43934f86982f9be56ff4fab1703b2e63c8ad334834e4309805e777ae0f88089650837f1859954cfeb8695f3e8b635dcb345192892cd11223443ba7b4166e8876c0d14287089550838586099250611e33868886878788098909610092565b975097509450837f04e1181763050e58013444dbcb99f1902b11bc25d90bbdca408d3819f4fed32b86089450837f0fdb253dee83869d40c335ea64de8c5bb10eb82db08b5e8b1f5e5552bfd05f2388089650837f058cbe8a9a5027bdaa4efb623adead6275f08686f1c08984a9d7c5bae9b4f1c087089550838586099250611ec2868886878788098909610092565b975097509450837f1382edce9971e186497eadb1aeb1f52b23b4b83bef023ab0d15228b4cceca59a86089450837f03464990f045c6ee0819ca51fd11b0be7f61b8eb99f14b77e1e6634601d9e8b588089650837f23f7bfc8720dc296fff33b41f98ff83c6fcab4605db2eb5aaa5bc137aeb70a5887089550838586099250611f51868886878788098909610092565b975097509450837f0a59a158e3eec2117e6e94e7f0e9decf18c3ffd5e1531a9219636158bbaf62f286089450837f06ec54c80381c052b58bf23b312ffd3ce2c4eba065420af8f4c23ed0075fd07b88089650837f118872dc832e0eb5476b56648e867ec8b09340f7a7bcb1b4962f0ff9ed1f9d0187089550838586099250611fe0868886878788098909610092565b975097509450837f13d69fa127d834165ad5c7cba7ad59ed52e0b0f0e42d7fea95e1906b520921b186089450837f169a177f63ea681270b1c6877a73d21bde143942fb71dc55fd8a49f19f10c77b88089650837f04ef51591c6ead97ef42f287adce40d93abeb032b922f66ffb7e9a5a7450544d8708955083858609925061206f868886878788098909610092565b975097509450837f256e175a1dc079390ecd7ca703fb2e3b19ec61805d4f03ced5f45ee6dd0f69ec86089450837f30102d28636abd5fe5f2af412ff6004f75cc360d3205dd2da002813d3e2ceeb288089650837f10998e42dfcd3bbf1c0714bc73eb1bf40443a3fa99bef4a31fd31be182fcc792870895508385860992506120fe868886878788098909610092565b975097509450837f193edd8e9fcf3d7625fa7d24b598a1d89f3362eaf4d582efecad76f879e3686086089450837f18168afd34f2d915d0368ce80b7b3347d1c7a561ce611425f2664d7aa51f0b5d88089650837f29383c01ebd3b6ab0c017656ebe658b6a328ec77bc33626e29e2e95b33ea61118708955083858609925061218d868886878788098909610092565b975097509450837f10646d2f2603de39a1f4ae5e7771a64a702db6e86fb76ab600bf573f9010c71186089450837f0beb5e07d1b27145f575f1395a55bf132f90c25b40da7b3864d0242dcb1117fb88089650837f16d685252078c133dc0d3ecad62b5c8830f95bb2e54b59abdffbf018d96fa3368708955083858609925061221c868886878788098909610092565b975097509450837f0a6abd1d833938f33c74154e0404b4b40a555bbbec21ddfafd672dd62047f01a86089450837f1a679f5d36eb7b5c8ea12a4c2dedc8feb12dffeec450317270a6f19b34cf186088089650837f0980fb233bd456c23974d50e0ebfde4726a423eada4e8f6ffbc7592e3f1b93d6870895508385860992506122ab868886878788098909610092565b975097509450837f161b42232e61b84cbf1810af93a38fc0cece3d5628c9282003ebacb5c312c72b86089450837f0ada10a90c7f0520950f7d47a60d5e6a493f09787f1564e5d09203db47de1a0b88089650837f1a730d372310ba82320345a29ac4238ed3f07a8a2b4e121bb50ddb9af407f4518708955083858609925061233a868886878788098909610092565b975097509450837f2c8120f268ef054f817064c369dda7ea908377feaba5c4dffbda10ef58e8c55686089450837f1c7c8824f758753fa57c00789c684217b930e95313bcb73e6e7b8649a4968f7088089650837f2cd9ed31f5f8691c8e39e4077a74faa0f400ad8b491eb3f7b47b27fa3fd1cf77870895508385860992506123c9868886878788098909610092565b975097509450837f23ff4f9d46813457cf60d92f57618399a5e022ac321ca550854ae23918a22eea86089450837f09945a5d147a4f66ceece6405dddd9d0af5a2c5103529407dff1ea58f180426d88089650837f188d9c528025d4c2b67660c6b771b90f7c7da6eaa29d3f268a6dd223ec6fc63087089550838586099250612458868886878788098909610092565b975097509450837f3050e37996596b7f81f68311431d8734dba7d926d3633595e0c0d8ddf4f0f47f86089450837f15af1169396830a91600ca8102c35c426ceae5461e3f95d89d829518d30afd7888089650837f1da6d09885432ea9a06d9f37f873d985dae933e351466b2904284da3320d8acc870895508385860992506124e7868886878788098909610092565b975097509450837f2796ea90d269af29f5f8acf33921124e4e4fad3dbe658945e546ee411ddaa9cb86089450837f202d7dd1da0f6b4b0325c8b3307742f01e15612ec8e9304a7cb0319e01d32d6088089650837f096d6790d05bb759156a952ba263d672a2d7f9c788f4c831a29dace4c0f8be5f87089550838586099250612576868886878788098909610092565b975097509450837f054efa1f65b0fce283808965275d877b438da23ce5b13e1963798cb1447d25a486089450837f1b162f83d917e93edb3308c29802deb9d8aa690113b2e14864ccf6e18e4165f188089650837f21e5241e12564dd6fd9f1cdd2a0de39eedfefc1466cc568ec5ceb745a0506edc8708955083858609925083878809915083868709905061261d8485838409880985868586098a0986878788098909610092565b975097509450837f1cfb5662e8cf5ac9226a80ee17b36abecb73ab5f87e161927b4349e10e4bdf0886089450837f0f21177e302a771bbae6d8d1ecb373b62c99af346220ac0129c53f666eb2410088089650837f1671522374606992affb0dd7f71b12bec4236aede6290546bcef7e1f515c2320870895508385860992508387880991508386870990506126c48485838409880985868586098a0986878788098909610092565b975097509450837f0fa3ec5b9488259c2eb4cf24501bfad9be2ec9e42c5cc8ccd419d2a692cad87086089450837f193c0e04e0bd298357cb266c1506080ed36edce85c648cc085e8c57b1ab54bba88089650837f102adf8ef74735a27e9128306dcbc3c99f6f7291cd406578ce14ea2adaba68f88708955083858609925083878809915083868709905061276b8485838409880985868586098a0986878788098909610092565b975097509450837f0fe0af7858e49859e2a54d6f1ad945b1316aa24bfbdd23ae40a6d0cb70c3eab186089450837f216f6717bbc7dedb08536a2220843f4e2da5f1daa9ebdefde8a5ea7344798d2288089650837f1da55cc900f0d21f4a3e694391918a1b3c23b2ac773c6b3ef88e2e42283251618708955083858609925083878809915083868709905083847f2b90bba00fca0589f617e7dcbfe82e0df706ab640ceb247b791a93b74e36736d86878586098a090985867f16ed41e13bb9c0c66ae119424fddbcbc9314dc9fdbdeea55d6c64543dc4903e088898889098d0909877f109b7f411ba0e4c9b2b70caf5c36a7b194be7c11ad24378bfedb68592ba8118b898a8a8b098c0909080894505050505092915050565b600080fd5b6000819050919050565b61289b81612888565b81146128a657600080fd5b50565b6000813590506128b881612892565b92915050565b600080604083850312156128d5576128d4612883565b5b60006128e3858286016128a9565b92505060206128f4858286016128a9565b9150509250929050565b61290781612888565b82525050565b600060208201905061292260008301846128fe565b9291505056fea26469706673582212206cbdedff76123a0fb7384f460103b8fd56ee8bfca1fe68412923f66266fac02e64736f6c63430008090033",
  "linkReferences": {},
  "deployedLinkReferences": {}
}