{
  "_format": "hh-sol-artifact-1",
  "contractName": "Config",
  "sourceName": "contracts/Config.sol",
  "abi": [
    {
      "anonymous": false,
      "inputs": [],
      "name": "BlockProposed",
      "type": "event"
    },
    {
      "anonymous": false,
      "inputs": [
        {
          "indexed": false,
          "internalType": "bytes32",
          "name": "commitHash",
          "type": "bytes32"
        },
        {
          "indexed": false,
          "internalType": "address",
          "name": "sender",
          "type": "address"
        }
      ],
      "name": "CommittedToChallenge",
      "type": "event"
    },
    {
      "anonymous": false,
      "inputs": [
        {
          "indexed": false,
          "internalType": "uint8",
          "name": "version",
          "type": "uint8"
        }
      ],
      "name": "Initialized",
      "type": "event"
    },
    {
      "anonymous": false,
      "inputs": [
        {
          "indexed": false,
          "internalType": "bytes32",
          "name": "withdrawTransactionHash",
          "type": "bytes32"
        },
        {
          "indexed": false,
          "internalType": "address",
          "name": "paidBy",
          "type": "address"
        },
        {
          "indexed": false,
          "internalType": "uint256",
          "name": "amount",
          "type": "uint256"
        }
      ],
      "name": "InstantWithdrawalRequested",
      "type": "event"
    },
    {
      "anonymous": false,
      "inputs": [
        {
          "indexed": false,
          "internalType": "address",
          "name": "addr",
          "type": "address"
        }
      ],
      "name": "NewBootChallengerSet",
      "type": "event"
    },
    {
      "anonymous": false,
      "inputs": [
        {
          "indexed": false,
          "internalType": "address",
          "name": "addr",
          "type": "address"
        }
      ],
      "name": "NewBootProposerSet",
      "type": "event"
    },
    {
      "anonymous": false,
      "inputs": [
        {
          "indexed": false,
          "internalType": "address",
          "name": "proposer",
          "type": "address"
        }
      ],
      "name": "NewCurrentProposer",
      "type": "event"
    },
    {
      "anonymous": false,
      "inputs": [
        {
          "indexed": false,
          "internalType": "uint256",
          "name": "leafIndex",
          "type": "uint256"
        },
        {
          "indexed": false,
          "internalType": "bytes32",
          "name": "leafValue",
          "type": "bytes32"
        },
        {
          "indexed": false,
          "internalType": "bytes32",
          "name": "root",
          "type": "bytes32"
        }
      ],
      "name": "NewLeaf",
      "type": "event"
    },
    {
      "anonymous": false,
      "inputs": [
        {
          "indexed": false,
          "internalType": "uint256",
          "name": "minLeafIndex",
          "type": "uint256"
        },
        {
          "indexed": false,
          "internalType": "bytes32[]",
          "name": "leafValues",
          "type": "bytes32[]"
        },
        {
          "indexed": false,
          "internalType": "bytes32",
          "name": "root",
          "type": "bytes32"
        }
      ],
      "name": "NewLeaves",
      "type": "event"
    },
    {
      "anonymous": false,
      "inputs": [
        {
          "indexed": false,
          "internalType": "address",
          "name": "previousOwner",
          "type": "address"
        },
        {
          "indexed": false,
          "internalType": "address",
          "name": "newOwner",
          "type": "address"
        }
      ],
      "name": "OwnershipTransferred",
      "type": "event"
    },
    {
      "anonymous": false,
      "inputs": [
        {
          "indexed": false,
          "internalType": "uint256",
          "name": "blockNumberL2",
          "type": "uint256"
        }
      ],
      "name": "Rollback",
      "type": "event"
    },
    {
      "anonymous": false,
      "inputs": [
        {
          "indexed": false,
          "internalType": "address",
          "name": "ercAddress",
          "type": "address"
        },
        {
          "indexed": false,
          "internalType": "uint256",
          "name": "amount",
          "type": "uint256"
        }
      ],
      "name": "ShieldBalanceTransferred",
      "type": "event"
    },
    {
      "anonymous": false,
      "inputs": [],
      "name": "TransactionSubmitted",
      "type": "event"
    },
    {
      "inputs": [],
      "name": "_owner",
      "outputs": [
        {
          "internalType": "address",
          "name": "",
          "type": "address"
        }
      ],
      "stateMutability": "view",
      "type": "function"
    },
    {
      "inputs": [],
      "name": "getBootChallenger",
      "outputs": [
        {
          "internalType": "address",
          "name": "",
          "type": "address"
        }
      ],
      "stateMutability": "view",
      "type": "function"
    },
    {
      "inputs": [],
      "name": "getBootProposer",
      "outputs": [
        {
          "internalType": "address",
          "name": "",
          "type": "address"
        }
      ],
      "stateMutability": "view",
      "type": "function"
    },
    {
      "inputs": [],
      "name": "getMaticAddress",
      "outputs": [
        {
          "internalType": "address",
          "name": "",
          "type": "address"
        }
      ],
      "stateMutability": "view",
      "type": "function"
    },
    {
      "inputs": [
        {
          "internalType": "address",
          "name": "tokenAddr",
          "type": "address"
        },
        {
          "internalType": "uint256",
          "name": "transactionType",
          "type": "uint256"
        }
      ],
      "name": "getRestriction",
      "outputs": [
        {
          "internalType": "uint256",
          "name": "",
          "type": "uint256"
        }
      ],
      "stateMutability": "view",
      "type": "function"
    },
    {
      "inputs": [],
      "name": "initialize",
      "outputs": [],
      "stateMutability": "nonpayable",
      "type": "function"
    },
    {
      "inputs": [],
      "name": "owner",
      "outputs": [
        {
          "internalType": "address",
          "name": "",
          "type": "address"
        }
      ],
      "stateMutability": "view",
      "type": "function"
    },
    {
      "inputs": [
        {
          "internalType": "address",
          "name": "tokenAddr",
          "type": "address"
        }
      ],
      "name": "removeRestriction",
      "outputs": [],
      "stateMutability": "nonpayable",
      "type": "function"
    },
    {
      "inputs": [
        {
          "internalType": "address",
          "name": "challenger",
          "type": "address"
        }
      ],
      "name": "setBootChallenger",
      "outputs": [],
      "stateMutability": "nonpayable",
      "type": "function"
    },
    {
      "inputs": [
        {
          "internalType": "address",
          "name": "proposer",
          "type": "address"
        }
      ],
      "name": "setBootProposer",
      "outputs": [],
      "stateMutability": "nonpayable",
      "type": "function"
    },
    {
      "inputs": [
        {
          "internalType": "address",
          "name": "_maticAddress",
          "type": "address"
        }
      ],
      "name": "setMaticAddress",
      "outputs": [],
      "stateMutability": "nonpayable",
      "type": "function"
    },
    {
      "inputs": [
        {
          "internalType": "address",
          "name": "tokenAddr",
          "type": "address"
        },
        {
          "internalType": "uint256",
          "name": "depositAmount",
          "type": "uint256"
        },
        {
          "internalType": "uint256",
          "name": "withdrawAmount",
          "type": "uint256"
        }
      ],
      "name": "setRestriction",
      "outputs": [],
      "stateMutability": "nonpayable",
      "type": "function"
    },
    {
      "inputs": [
        {
          "internalType": "address",
          "name": "newOwner",
          "type": "address"
        }
      ],
      "name": "transferOwnership",
      "outputs": [],
      "stateMutability": "nonpayable",
      "type": "function"
    }
  ],
  "bytecode": "0x608060405234801561001057600080fd5b5061105f806100206000396000f3fe608060405234801561001057600080fd5b50600436106100cf5760003560e01c8063aa411d5b1161008c578063c300db9b11610066578063c300db9b146101c6578063e7a8a5a0146101e4578063f2fde38b14610214578063f560a79214610230576100cf565b8063aa411d5b14610170578063b2bdfa7b1461018c578063bb7affc1146101aa576100cf565b806328340f17146100d457806342646c68146100f257806369a5b950146101105780638129fc1c1461012c5780638da5cb5b146101365780639c18de9314610154575b600080fd5b6100dc61024c565b6040516100e99190610cc3565b60405180910390f35b6100fa610276565b6040516101079190610cc3565b60405180910390f35b61012a60048036038101906101259190610d0f565b6102a0565b005b6101346103c6565b005b61013e610504565b60405161014b9190610cc3565b60405180910390f35b61016e60048036038101906101699190610d72565b61052d565b005b61018a60048036038101906101859190610d0f565b610657565b005b610194610710565b6040516101a19190610cc3565b60405180910390f35b6101c460048036038101906101bf9190610d0f565b610736565b005b6101ce610848565b6040516101db9190610cc3565b60405180910390f35b6101fe60048036038101906101f99190610dc5565b610872565b60405161020b9190610e14565b60405180910390f35b61022e60048036038101906102299190610d0f565b6108cf565b005b61024a60048036038101906102459190610d0f565b6109ca565b005b6000600160009054906101000a900473ffffffffffffffffffffffffffffffffffffffff16905090565b6000600260009054906101000a900473ffffffffffffffffffffffffffffffffffffffff16905090565b6102a8610504565b73ffffffffffffffffffffffffffffffffffffffff163373ffffffffffffffffffffffffffffffffffffffff1614610315576040517f08c379a000000000000000000000000000000000000000000000000000000000815260040161030c90610eb2565b60405180910390fd5b600460008273ffffffffffffffffffffffffffffffffffffffff1673ffffffffffffffffffffffffffffffffffffffff16815260200190815260200160002060006002811061036757610366610ed2565b5b0160009055600460008273ffffffffffffffffffffffffffffffffffffffff1673ffffffffffffffffffffffffffffffffffffffff1681526020019081526020016000206001600281106103be576103bd610ed2565b5b016000905550565b60008060019054906101000a900460ff161590508080156103f75750600160008054906101000a900460ff1660ff16105b80610424575061040630610adc565b1580156104235750600160008054906101000a900460ff1660ff16145b5b610463576040517f08c379a000000000000000000000000000000000000000000000000000000000815260040161045a90610f73565b60405180910390fd5b60016000806101000a81548160ff021916908360ff16021790555080156104a0576001600060016101000a81548160ff0219169083151502179055505b6104a8610aff565b80156105015760008060016101000a81548160ff0219169083151502179055507f7f26b83ff96e1f2b6a682f133852f6798a09c465da95921460cefb384740249860016040516104f89190610fe5565b60405180910390a15b50565b60008060029054906101000a900473ffffffffffffffffffffffffffffffffffffffff16905090565b610535610504565b73ffffffffffffffffffffffffffffffffffffffff163373ffffffffffffffffffffffffffffffffffffffff16146105a2576040517f08c379a000000000000000000000000000000000000000000000000000000000815260040161059990610eb2565b60405180910390fd5b81600460008573ffffffffffffffffffffffffffffffffffffffff1673ffffffffffffffffffffffffffffffffffffffff1681526020019081526020016000206000600281106105f5576105f4610ed2565b5b018190555080600460008573ffffffffffffffffffffffffffffffffffffffff1673ffffffffffffffffffffffffffffffffffffffff16815260200190815260200160002060016002811061064d5761064c610ed2565b5b0181905550505050565b61065f610504565b73ffffffffffffffffffffffffffffffffffffffff163373ffffffffffffffffffffffffffffffffffffffff16146106cc576040517f08c379a00000000000000000000000000000000000000000000000000000000081526004016106c390610eb2565b60405180910390fd5b80600360006101000a81548173ffffffffffffffffffffffffffffffffffffffff021916908373ffffffffffffffffffffffffffffffffffffffff16021790555050565b600060029054906101000a900473ffffffffffffffffffffffffffffffffffffffff1681565b61073e610504565b73ffffffffffffffffffffffffffffffffffffffff163373ffffffffffffffffffffffffffffffffffffffff16146107ab576040517f08c379a00000000000000000000000000000000000000000000000000000000081526004016107a290610eb2565b60405180910390fd5b80600160006101000a81548173ffffffffffffffffffffffffffffffffffffffff021916908373ffffffffffffffffffffffffffffffffffffffff1602179055507f5544fd39820f90f9fc4b238e0eaaf1b5ece21e6dbb69a2b0824a16876e6d0efd600160009054906101000a900473ffffffffffffffffffffffffffffffffffffffff1660405161083d9190610cc3565b60405180910390a150565b6000600360009054906101000a900473ffffffffffffffffffffffffffffffffffffffff16905090565b6000600460008473ffffffffffffffffffffffffffffffffffffffff1673ffffffffffffffffffffffffffffffffffffffff16815260200190815260200160002082600281106108c5576108c4610ed2565b5b0154905092915050565b6108d7610504565b73ffffffffffffffffffffffffffffffffffffffff163373ffffffffffffffffffffffffffffffffffffffff1614610944576040517f08c379a000000000000000000000000000000000000000000000000000000000815260040161093b90610eb2565b60405180910390fd5b600073ffffffffffffffffffffffffffffffffffffffff168173ffffffffffffffffffffffffffffffffffffffff16141561097e57600080fd5b7f8be0079c531659141344cd1fd0a4f28419497f9722a3daafe3b4186f6b6457e06109a7610504565b826040516109b6929190611000565b60405180910390a16109c781610c3e565b50565b6109d2610504565b73ffffffffffffffffffffffffffffffffffffffff163373ffffffffffffffffffffffffffffffffffffffff1614610a3f576040517f08c379a0000000000000000000000000000000000000000000000000000000008152600401610a3690610eb2565b60405180910390fd5b80600260006101000a81548173ffffffffffffffffffffffffffffffffffffffff021916908373ffffffffffffffffffffffffffffffffffffffff1602179055507f210cff5548618e71293ea0d4f1f3563a68e78f00273f3acd97014aac2442ed24600260009054906101000a900473ffffffffffffffffffffffffffffffffffffffff16604051610ad19190610cc3565b60405180910390a150565b6000808273ffffffffffffffffffffffffffffffffffffffff163b119050919050565b60008060019054906101000a900460ff16159050808015610b305750600160008054906101000a900460ff1660ff16105b80610b5d5750610b3f30610adc565b158015610b5c5750600160008054906101000a900460ff1660ff16145b5b610b9c576040517f08c379a0000000000000000000000000000000000000000000000000000000008152600401610b9390610f73565b60405180910390fd5b60016000806101000a81548160ff021916908360ff1602179055508015610bd9576001600060016101000a81548160ff0219169083151502179055505b610be233610c3e565b8015610c3b5760008060016101000a81548160ff0219169083151502179055507f7f26b83ff96e1f2b6a682f133852f6798a09c465da95921460cefb38474024986001604051610c329190610fe5565b60405180910390a15b50565b80600060026101000a81548173ffffffffffffffffffffffffffffffffffffffff021916908373ffffffffffffffffffffffffffffffffffffffff16021790555050565b600073ffffffffffffffffffffffffffffffffffffffff82169050919050565b6000610cad82610c82565b9050919050565b610cbd81610ca2565b82525050565b6000602082019050610cd86000830184610cb4565b92915050565b600080fd5b610cec81610ca2565b8114610cf757600080fd5b50565b600081359050610d0981610ce3565b92915050565b600060208284031215610d2557610d24610cde565b5b6000610d3384828501610cfa565b91505092915050565b6000819050919050565b610d4f81610d3c565b8114610d5a57600080fd5b50565b600081359050610d6c81610d46565b92915050565b600080600060608486031215610d8b57610d8a610cde565b5b6000610d9986828701610cfa565b9350506020610daa86828701610d5d565b9250506040610dbb86828701610d5d565b9150509250925092565b60008060408385031215610ddc57610ddb610cde565b5b6000610dea85828601610cfa565b9250506020610dfb85828601610d5d565b9150509250929050565b610e0e81610d3c565b82525050565b6000602082019050610e296000830184610e05565b92915050565b600082825260208201905092915050565b7f596f7520617265206e6f7420617574686f726973656420746f20696e766f6b6560008201527f20746869732066756e6374696f6e000000000000000000000000000000000000602082015250565b6000610e9c602e83610e2f565b9150610ea782610e40565b604082019050919050565b60006020820190508181036000830152610ecb81610e8f565b9050919050565b7f4e487b7100000000000000000000000000000000000000000000000000000000600052603260045260246000fd5b7f496e697469616c697a61626c653a20636f6e747261637420697320616c72656160008201527f647920696e697469616c697a6564000000000000000000000000000000000000602082015250565b6000610f5d602e83610e2f565b9150610f6882610f01565b604082019050919050565b60006020820190508181036000830152610f8c81610f50565b9050919050565b6000819050919050565b600060ff82169050919050565b6000819050919050565b6000610fcf610fca610fc584610f93565b610faa565b610f9d565b9050919050565b610fdf81610fb4565b82525050565b6000602082019050610ffa6000830184610fd6565b92915050565b60006040820190506110156000830185610cb4565b6110226020830184610cb4565b939250505056fea264697066735822122001b981ddddf1d865f0bb4b3cdeecd324c0e6dc791b1b7e46ea5f8546dfc9717d64736f6c63430008090033",
  "linkReferences": {},
  "deployedLinkReferences": {}
}