{
  "_format": "hh-sol-artifact-1",
  "contractName": "MerkleTree_Stateless",
  "sourceName": "contracts/MerkleTree_Stateless.sol",
  "abi": [
    {
      "inputs": [
        {
          "internalType": "uint256",
          "name": "leafIndex",
          "type": "uint256"
        }
      ],
      "name": "getFrontierSlot",
      "outputs": [
        {
          "internalType": "uint256",
          "name": "slot",
          "type": "uint256"
        }
      ],
      "stateMutability": "pure",
      "type": "function"
    },
    {
      "inputs": [
        {
          "internalType": "bytes32[]",
          "name": "leafValues",
          "type": "bytes32[]"
        },
        {
          "internalType": "bytes32[33]",
          "name": "_frontier",
          "type": "bytes32[33]"
        },
        {
          "internalType": "uint256",
          "name": "_leafCount",
          "type": "uint256"
        }
      ],
      "name": "insertLeaves",
      "outputs": [
        {
          "internalType": "bytes32",
          "name": "root",
          "type": "bytes32"
        },
        {
          "internalType": "bytes32[33]",
          "name": "",
          "type": "bytes32[33]"
        },
        {
          "internalType": "uint256",
          "name": "",
          "type": "uint256"
        }
      ],
      "stateMutability": "pure",
      "type": "function"
    }
  ],
  "bytecode": "0x610ff4610053600b82828239805160001a607314610046577f4e487b7100000000000000000000000000000000000000000000000000000000600052600060045260246000fd5b30600052607381538281f3fe73000000000000000000000000000000000000000030146080604052600436106100405760003560e01c80632a3a8183146100455780638e0381e414610075575b600080fd5b61005f600480360381019061005a9190610707565b6100a7565b60405161006c9190610743565b60405180910390f35b61008f600480360381019061008a919061099e565b610137565b60405161009e93929190610ac9565b60405180910390f35b600060016002836100b89190610b31565b1415610132576000600190506000600290506000600182901b90505b600084141561012e57600081836001886100ee9190610b91565b6100f89190610be7565b6101029190610b31565b141561011057829350610129565b809150600181901b9050828061012590610c1b565b9350505b6100d4565b5050505b919050565b600061014161069a565b6000808651905084602060026101579190610d97565b11610197576040517f08c379a000000000000000000000000000000000000000000000000000000000815260040161018e90610e65565b60405180910390fd5b84602060026101a69190610d97565b6101b09190610be7565b81111561022257600085602060026101c89190610d97565b6101d29190610be7565b826101dd9190610be7565b905060005b81811015610204576001895103895280806101fc90610c1b565b9150506101e2565b5085602060026102149190610d97565b61021e9190610be7565b9150505b6000806000806000808a90505b868b61023b9190610b91565b8110156104b1578c8b8261024f9190610be7565b815181106102605761025f610e85565b5b602002602001015160001c925060016020600261027d9190610d97565b826102889190610b91565b6102929190610be7565b945061029d816100a7565b955060008614156102cd578260001b8c87602181106102bf576102be610e85565b5b60200201818152505061049e565b6000600190505b86811161047c5760006002876102ea9190610b31565b14156103c75773__$5f8d1571992d2f3bcd28d5b37c5414edb7$__63553e2c318e6001846103189190610be7565b6021811061032957610328610e85565b5b602002015160001c866040518363ffffffff1660e01b815260040161034f929190610eb4565b60206040518083038186803b15801561036757600080fd5b505af415801561037b573d6000803e3d6000fd5b505050506040513d601f19601f8201168201806040525081019061039f9190610ef2565b925082935085945060026001876103b69190610be7565b6103c09190610f1f565b9550610469565b73__$5f8d1571992d2f3bcd28d5b37c5414edb7$__63553e2c318560006040518363ffffffff1660e01b8152600401610401929190610f95565b60206040518083038186803b15801561041957600080fd5b505af415801561042d573d6000803e3d6000fd5b505050506040513d601f19601f820116820180604052508101906104519190610ef2565b92508293508594506002866104669190610f1f565b95505b808061047490610c1b565b9150506102d4565b508260001b8c876021811061049457610493610e85565b5b6020020181815250505b80806104a990610c1b565b91505061022f565b5060006001866104c19190610b91565b90505b6020811161066d5760006002866104db9190610b31565b14156105b85773__$5f8d1571992d2f3bcd28d5b37c5414edb7$__63553e2c318d6001846105099190610be7565b6021811061051a57610519610e85565b5b602002015160001c856040518363ffffffff1660e01b8152600401610540929190610eb4565b60206040518083038186803b15801561055857600080fd5b505af415801561056c573d6000803e3d6000fd5b505050506040513d601f19601f820116820180604052508101906105909190610ef2565b915081925084935060026001866105a79190610be7565b6105b19190610f1f565b945061065a565b73__$5f8d1571992d2f3bcd28d5b37c5414edb7$__63553e2c318460006040518363ffffffff1660e01b81526004016105f2929190610f95565b60206040518083038186803b15801561060a57600080fd5b505af415801561061e573d6000803e3d6000fd5b505050506040513d601f19601f820116820180604052508101906106429190610ef2565b91508192508493506002856106579190610f1f565b94505b808061066590610c1b565b9150506104c4565b508160001b9850858a6106809190610b91565b9950888b8b98509850985050505050505093509350939050565b604051806104200160405280602190602082028036833780820191505090505090565b6000604051905090565b600080fd5b600080fd5b6000819050919050565b6106e4816106d1565b81146106ef57600080fd5b50565b600081359050610701816106db565b92915050565b60006020828403121561071d5761071c6106c7565b5b600061072b848285016106f2565b91505092915050565b61073d816106d1565b82525050565b60006020820190506107586000830184610734565b92915050565b600080fd5b6000601f19601f8301169050919050565b7f4e487b7100000000000000000000000000000000000000000000000000000000600052604160045260246000fd5b6107ac82610763565b810181811067ffffffffffffffff821117156107cb576107ca610774565b5b80604052505050565b60006107de6106bd565b90506107ea82826107a3565b919050565b600067ffffffffffffffff82111561080a57610809610774565b5b602082029050602081019050919050565b600080fd5b6000819050919050565b61083381610820565b811461083e57600080fd5b50565b6000813590506108508161082a565b92915050565b6000610869610864846107ef565b6107d4565b9050808382526020820190506020840283018581111561088c5761088b61081b565b5b835b818110156108b557806108a18882610841565b84526020840193505060208101905061088e565b5050509392505050565b600082601f8301126108d4576108d361075e565b5b81356108e4848260208601610856565b91505092915050565b600067ffffffffffffffff82111561090857610907610774565b5b602082029050919050565b6000610926610921846108ed565b6107d4565b905080602084028301858111156109405761093f61081b565b5b835b8181101561096957806109558882610841565b845260208401935050602081019050610942565b5050509392505050565b600082601f8301126109885761098761075e565b5b6021610995848285610913565b91505092915050565b600080600061046084860312156109b8576109b76106c7565b5b600084013567ffffffffffffffff8111156109d6576109d56106cc565b5b6109e2868287016108bf565b93505060206109f386828701610973565b925050610440610a05868287016106f2565b9150509250925092565b610a1881610820565b82525050565b600060219050919050565b600081905092915050565b6000819050919050565b610a4781610820565b82525050565b6000610a598383610a3e565b60208301905092915050565b6000602082019050919050565b610a7b81610a1e565b610a858184610a29565b9250610a9082610a34565b8060005b83811015610ac1578151610aa88782610a4d565b9650610ab383610a65565b925050600181019050610a94565b505050505050565b600061046082019050610adf6000830186610a0f565b610aec6020830185610a72565b610afa610440830184610734565b949350505050565b7f4e487b7100000000000000000000000000000000000000000000000000000000600052601260045260246000fd5b6000610b3c826106d1565b9150610b47836106d1565b925082610b5757610b56610b02565b5b828206905092915050565b7f4e487b7100000000000000000000000000000000000000000000000000000000600052601160045260246000fd5b6000610b9c826106d1565b9150610ba7836106d1565b9250827fffffffffffffffffffffffffffffffffffffffffffffffffffffffffffffffff03821115610bdc57610bdb610b62565b5b828201905092915050565b6000610bf2826106d1565b9150610bfd836106d1565b925082821015610c1057610c0f610b62565b5b828203905092915050565b6000610c26826106d1565b91507fffffffffffffffffffffffffffffffffffffffffffffffffffffffffffffffff821415610c5957610c58610b62565b5b600182019050919050565b60008160011c9050919050565b6000808291508390505b6001851115610cbb57808604811115610c9757610c96610b62565b5b6001851615610ca65780820291505b8081029050610cb485610c64565b9450610c7b565b94509492505050565b600082610cd45760019050610d90565b81610ce25760009050610d90565b8160018114610cf85760028114610d0257610d31565b6001915050610d90565b60ff841115610d1457610d13610b62565b5b8360020a915084821115610d2b57610d2a610b62565b5b50610d90565b5060208310610133831016604e8410600b8410161715610d665782820a905083811115610d6157610d60610b62565b5b610d90565b610d738484846001610c71565b92509050818404811115610d8a57610d89610b62565b5b81810290505b9392505050565b6000610da2826106d1565b9150610dad836106d1565b9250610dda7fffffffffffffffffffffffffffffffffffffffffffffffffffffffffffffffff8484610cc4565b905092915050565b600082825260208201905092915050565b7f5468657265206973206e6f207370616365206c65667420696e2074686520747260008201527f65652e0000000000000000000000000000000000000000000000000000000000602082015250565b6000610e4f602383610de2565b9150610e5a82610df3565b604082019050919050565b60006020820190508181036000830152610e7e81610e42565b9050919050565b7f4e487b7100000000000000000000000000000000000000000000000000000000600052603260045260246000fd5b6000604082019050610ec96000830185610734565b610ed66020830184610734565b9392505050565b600081519050610eec816106db565b92915050565b600060208284031215610f0857610f076106c7565b5b6000610f1684828501610edd565b91505092915050565b6000610f2a826106d1565b9150610f35836106d1565b925082610f4557610f44610b02565b5b828204905092915050565b6000819050919050565b6000819050919050565b6000610f7f610f7a610f7584610f50565b610f5a565b6106d1565b9050919050565b610f8f81610f64565b82525050565b6000604082019050610faa6000830185610734565b610fb76020830184610f86565b939250505056fea2646970667358221220b999be2307dfbd1dae1d26b123c8d3592f82df9f345f188639f2a6c4ce24b8e464736f6c63430008090033",
  "linkReferences": {
    "contracts/Poseidon.sol": {
      "Poseidon": [
        {
          "length": 20,
          "start": 837
        },
        {
          "length": 20,
          "start": 1052
        },
        {
          "length": 20,
          "start": 1334
        },
        {
          "length": 20,
          "start": 1549
        }
      ]
    }
  },
  "deployedLinkReferences": {
    "contracts/Poseidon.sol": {
      "Poseidon": [
        {
          "length": 20,
          "start": 754
        },
        {
          "length": 20,
          "start": 969
        },
        {
          "length": 20,
          "start": 1251
        },
        {
          "length": 20,
          "start": 1466
        }
      ]
    }
  }
}