{
  "contractName": "Challenges",
  "abi": [
    {
      "inputs": [
        {
          "internalType": "bytes32",
          "name": "depositHash",
          "type": "bytes32"
        }
      ],
      "name": "DepositNotEscrowed",
      "type": "error"
    },
    {
      "inputs": [],
      "name": "InvalidBlockSize",
      "type": "error"
    },
    {
      "inputs": [],
      "name": "InvalidTransactionHash",
      "type": "error"
    },
    {
      "inputs": [],
      "name": "InvalidTransactionSize",
      "type": "error"
    },
    {
      "anonymous": false,
      "inputs": [],
      "name": "BlockProposed",
      "type": "event"
    },
    {
      "anonymous": false,
      "inputs": [
        {
          "indexed": false,
          "internalType": "bytes32",
          "name": "commitHash",
          "type": "bytes32"
        },
        {
          "indexed": false,
          "internalType": "address",
          "name": "sender",
          "type": "address"
        }
      ],
      "name": "CommittedToChallenge",
      "type": "event"
    },
    {
      "anonymous": false,
      "inputs": [
        {
          "indexed": false,
          "internalType": "uint8",
          "name": "version",
          "type": "uint8"
        }
      ],
      "name": "Initialized",
      "type": "event"
    },
    {
      "anonymous": false,
      "inputs": [
        {
          "indexed": false,
          "internalType": "bytes32",
          "name": "withdrawTransactionHash",
          "type": "bytes32"
        },
        {
          "indexed": false,
          "internalType": "address",
          "name": "paidBy",
          "type": "address"
        },
        {
          "indexed": false,
          "internalType": "uint256",
          "name": "amount",
          "type": "uint256"
        }
      ],
      "name": "InstantWithdrawalRequested",
      "type": "event"
    },
    {
      "anonymous": false,
      "inputs": [
        {
          "indexed": false,
          "internalType": "address",
          "name": "addr",
          "type": "address"
        }
      ],
      "name": "NewBootChallengerSet",
      "type": "event"
    },
    {
      "anonymous": false,
      "inputs": [
        {
          "indexed": false,
          "internalType": "address",
          "name": "addr",
          "type": "address"
        }
      ],
      "name": "NewBootProposerSet",
      "type": "event"
    },
    {
      "anonymous": false,
      "inputs": [
        {
          "indexed": false,
          "internalType": "address",
          "name": "proposer",
          "type": "address"
        }
      ],
      "name": "NewCurrentProposer",
      "type": "event"
    },
    {
      "anonymous": false,
      "inputs": [
        {
          "indexed": false,
          "internalType": "uint256",
          "name": "leafIndex",
          "type": "uint256"
        },
        {
          "indexed": false,
          "internalType": "bytes32",
          "name": "leafValue",
          "type": "bytes32"
        },
        {
          "indexed": false,
          "internalType": "bytes32",
          "name": "root",
          "type": "bytes32"
        }
      ],
      "name": "NewLeaf",
      "type": "event"
    },
    {
      "anonymous": false,
      "inputs": [
        {
          "indexed": false,
          "internalType": "uint256",
          "name": "minLeafIndex",
          "type": "uint256"
        },
        {
          "indexed": false,
          "internalType": "bytes32[]",
          "name": "leafValues",
          "type": "bytes32[]"
        },
        {
          "indexed": false,
          "internalType": "bytes32",
          "name": "root",
          "type": "bytes32"
        }
      ],
      "name": "NewLeaves",
      "type": "event"
    },
    {
      "anonymous": false,
      "inputs": [
        {
          "indexed": false,
          "internalType": "address",
          "name": "previousOwner",
          "type": "address"
        },
        {
          "indexed": false,
          "internalType": "address",
          "name": "newOwner",
          "type": "address"
        }
      ],
      "name": "OwnershipTransferred",
      "type": "event"
    },
    {
      "anonymous": false,
      "inputs": [
        {
          "indexed": false,
          "internalType": "uint64",
          "name": "blockNumberL2",
          "type": "uint64"
        }
      ],
      "name": "Rollback",
      "type": "event"
    },
    {
      "anonymous": false,
      "inputs": [
        {
          "indexed": false,
          "internalType": "address",
          "name": "ercAddress",
          "type": "address"
        },
        {
          "indexed": false,
          "internalType": "uint256",
          "name": "amount",
          "type": "uint256"
        }
      ],
      "name": "ShieldBalanceTransferred",
      "type": "event"
    },
    {
      "anonymous": false,
      "inputs": [],
      "name": "TransactionSubmitted",
      "type": "event"
    },
    {
      "inputs": [],
      "name": "_owner",
      "outputs": [
        {
          "internalType": "address",
          "name": "",
          "type": "address"
        }
      ],
      "stateMutability": "view",
      "type": "function",
      "constant": true
    },
    {
      "inputs": [
        {
          "internalType": "bytes32",
          "name": "",
          "type": "bytes32"
        }
      ],
      "name": "committers",
      "outputs": [
        {
          "internalType": "address",
          "name": "",
          "type": "address"
        }
      ],
      "stateMutability": "view",
      "type": "function",
      "constant": true
    },
    {
      "inputs": [],
      "name": "getBlockStake",
      "outputs": [
        {
          "internalType": "uint96",
          "name": "",
          "type": "uint96"
        }
      ],
      "stateMutability": "view",
      "type": "function",
      "constant": true
    },
    {
      "inputs": [],
      "name": "getBootChallenger",
      "outputs": [
        {
          "internalType": "address",
          "name": "",
          "type": "address"
        }
      ],
      "stateMutability": "view",
      "type": "function",
      "constant": true
    },
    {
      "inputs": [],
      "name": "getBootProposer",
      "outputs": [
        {
          "internalType": "address",
          "name": "",
          "type": "address"
        }
      ],
      "stateMutability": "view",
      "type": "function",
      "constant": true
    },
    {
      "inputs": [],
      "name": "getMaticAddress",
      "outputs": [
        {
          "internalType": "address",
          "name": "",
          "type": "address"
        }
      ],
      "stateMutability": "view",
      "type": "function",
      "constant": true
    },
    {
      "inputs": [],
      "name": "getMaxProposers",
      "outputs": [
        {
          "internalType": "uint256",
          "name": "",
          "type": "uint256"
        }
      ],
      "stateMutability": "view",
      "type": "function",
      "constant": true
    },
    {
      "inputs": [],
      "name": "getMinimumStake",
      "outputs": [
        {
          "internalType": "uint256",
          "name": "",
          "type": "uint256"
        }
      ],
      "stateMutability": "view",
      "type": "function",
      "constant": true
    },
    {
      "inputs": [],
      "name": "getProposerSetCount",
      "outputs": [
        {
          "internalType": "uint256",
          "name": "",
          "type": "uint256"
        }
      ],
      "stateMutability": "view",
      "type": "function",
      "constant": true
    },
    {
      "inputs": [
        {
          "internalType": "address",
          "name": "tokenAddr",
          "type": "address"
        }
      ],
      "name": "getRestrictionDeposit",
      "outputs": [
        {
          "internalType": "uint256",
          "name": "",
          "type": "uint256"
        }
      ],
      "stateMutability": "view",
      "type": "function",
      "constant": true
    },
    {
      "inputs": [
        {
          "internalType": "address",
          "name": "tokenAddr",
          "type": "address"
        }
      ],
      "name": "getRestrictionWithdraw",
      "outputs": [
        {
          "internalType": "uint256",
          "name": "",
          "type": "uint256"
        }
      ],
      "stateMutability": "view",
      "type": "function",
      "constant": true
    },
    {
      "inputs": [],
      "name": "getRotateProposerBlocks",
      "outputs": [
        {
          "internalType": "uint256",
          "name": "",
          "type": "uint256"
        }
      ],
      "stateMutability": "view",
      "type": "function",
      "constant": true
    },
    {
      "inputs": [],
      "name": "getSprintsInSpan",
      "outputs": [
        {
          "internalType": "uint256",
          "name": "",
          "type": "uint256"
        }
      ],
      "stateMutability": "view",
      "type": "function",
      "constant": true
    },
    {
      "inputs": [],
      "name": "owner",
      "outputs": [
        {
          "internalType": "address",
          "name": "",
          "type": "address"
        }
      ],
      "stateMutability": "view",
      "type": "function",
      "constant": true
    },
    {
      "inputs": [
        {
          "internalType": "address",
          "name": "tokenAddr",
          "type": "address"
        }
      ],
      "name": "removeRestriction",
      "outputs": [],
      "stateMutability": "nonpayable",
      "type": "function"
    },
    {
      "inputs": [
        {
          "internalType": "uint96",
          "name": "_blockStake",
          "type": "uint96"
        }
      ],
      "name": "setBlockStake",
      "outputs": [],
      "stateMutability": "nonpayable",
      "type": "function"
    },
    {
      "inputs": [
        {
          "internalType": "address",
          "name": "challenger",
          "type": "address"
        }
      ],
      "name": "setBootChallenger",
      "outputs": [],
      "stateMutability": "nonpayable",
      "type": "function"
    },
    {
      "inputs": [
        {
          "internalType": "address",
          "name": "proposer",
          "type": "address"
        }
      ],
      "name": "setBootProposer",
      "outputs": [],
      "stateMutability": "nonpayable",
      "type": "function"
    },
    {
      "inputs": [
        {
          "internalType": "address",
          "name": "_maticAddress",
          "type": "address"
        }
      ],
      "name": "setMaticAddress",
      "outputs": [],
      "stateMutability": "nonpayable",
      "type": "function"
    },
    {
      "inputs": [
        {
          "internalType": "uint256",
          "name": "_maxProposers",
          "type": "uint256"
        }
      ],
      "name": "setMaxProposers",
      "outputs": [],
      "stateMutability": "nonpayable",
      "type": "function"
    },
    {
      "inputs": [
        {
          "internalType": "uint96",
          "name": "_minimumStake",
          "type": "uint96"
        }
      ],
      "name": "setMinimumStake",
      "outputs": [],
      "stateMutability": "nonpayable",
      "type": "function"
    },
    {
      "inputs": [
        {
          "internalType": "uint256",
          "name": "_proposerSetCount",
          "type": "uint256"
        }
      ],
      "name": "setProposerSetCount",
      "outputs": [],
      "stateMutability": "nonpayable",
      "type": "function"
    },
    {
      "inputs": [
        {
          "internalType": "address",
          "name": "tokenAddr",
          "type": "address"
        },
        {
          "internalType": "uint256",
          "name": "depositAmount",
          "type": "uint256"
        },
        {
          "internalType": "uint256",
          "name": "withdrawAmount",
          "type": "uint256"
        }
      ],
      "name": "setRestriction",
      "outputs": [],
      "stateMutability": "nonpayable",
      "type": "function"
    },
    {
      "inputs": [
        {
          "internalType": "uint256",
          "name": "_rotateProposerBlocks",
          "type": "uint256"
        }
      ],
      "name": "setRotateProposerBlocks",
      "outputs": [],
      "stateMutability": "nonpayable",
      "type": "function"
    },
    {
      "inputs": [
        {
          "internalType": "uint256",
          "name": "_sprintsInSpan",
          "type": "uint256"
        }
      ],
      "name": "setSprintsInSpan",
      "outputs": [],
      "stateMutability": "nonpayable",
      "type": "function"
    },
    {
      "inputs": [
        {
          "internalType": "address payable",
          "name": "stateAddress",
          "type": "address"
        }
      ],
      "name": "setStateContract",
      "outputs": [],
      "stateMutability": "nonpayable",
      "type": "function"
    },
    {
      "inputs": [],
      "name": "state",
      "outputs": [
        {
          "internalType": "contract State",
          "name": "",
          "type": "address"
        }
      ],
      "stateMutability": "view",
      "type": "function",
      "constant": true
    },
    {
      "inputs": [
        {
          "internalType": "address",
          "name": "newOwner",
          "type": "address"
        }
      ],
      "name": "transferOwnership",
      "outputs": [],
      "stateMutability": "nonpayable",
      "type": "function"
    },
    {
      "inputs": [],
      "name": "initialize",
      "outputs": [],
      "stateMutability": "nonpayable",
      "type": "function"
    },
    {
      "inputs": [
        {
          "components": [
            {
              "internalType": "uint256",
              "name": "packedInfo",
              "type": "uint256"
            },
            {
              "internalType": "bytes32",
              "name": "root",
              "type": "bytes32"
            },
            {
              "internalType": "bytes32",
              "name": "previousBlockHash",
              "type": "bytes32"
            },
            {
              "internalType": "bytes32",
              "name": "frontierHash",
              "type": "bytes32"
            },
            {
              "internalType": "bytes32",
              "name": "transactionHashesRoot",
              "type": "bytes32"
            }
          ],
          "internalType": "struct Structures.Block",
          "name": "priorBlockL2",
          "type": "tuple"
        },
        {
          "components": [
            {
              "internalType": "uint256",
              "name": "packedInfo",
              "type": "uint256"
            },
            {
              "internalType": "bytes32",
              "name": "root",
              "type": "bytes32"
            },
            {
              "internalType": "bytes32",
              "name": "previousBlockHash",
              "type": "bytes32"
            },
            {
              "internalType": "bytes32",
              "name": "frontierHash",
              "type": "bytes32"
            },
            {
              "internalType": "bytes32",
              "name": "transactionHashesRoot",
              "type": "bytes32"
            }
          ],
          "internalType": "struct Structures.Block",
          "name": "blockL2",
          "type": "tuple"
        },
        {
          "components": [
            {
              "internalType": "uint256",
              "name": "packedInfo",
              "type": "uint256"
            },
            {
              "internalType": "uint256[]",
              "name": "historicRootBlockNumberL2",
              "type": "uint256[]"
            },
            {
              "internalType": "bytes32",
              "name": "tokenId",
              "type": "bytes32"
            },
            {
              "internalType": "bytes32",
              "name": "ercAddress",
              "type": "bytes32"
            },
            {
              "internalType": "bytes32",
              "name": "recipientAddress",
              "type": "bytes32"
            },
            {
              "internalType": "bytes32[]",
              "name": "commitments",
              "type": "bytes32[]"
            },
            {
              "internalType": "bytes32[]",
              "name": "nullifiers",
              "type": "bytes32[]"
            },
            {
              "internalType": "bytes32[2]",
              "name": "compressedSecrets",
              "type": "bytes32[2]"
            },
            {
              "internalType": "uint256[4]",
              "name": "proof",
              "type": "uint256[4]"
            }
          ],
          "internalType": "struct Structures.Transaction[]",
          "name": "transactions",
          "type": "tuple[]"
        },
        {
          "internalType": "bytes32",
          "name": "salt",
          "type": "bytes32"
        }
      ],
      "name": "challengeLeafCountCorrect",
      "outputs": [],
      "stateMutability": "nonpayable",
      "type": "function"
    },
    {
      "inputs": [
        {
          "components": [
            {
              "internalType": "uint256",
              "name": "packedInfo",
              "type": "uint256"
            },
            {
              "internalType": "bytes32",
              "name": "root",
              "type": "bytes32"
            },
            {
              "internalType": "bytes32",
              "name": "previousBlockHash",
              "type": "bytes32"
            },
            {
              "internalType": "bytes32",
              "name": "frontierHash",
              "type": "bytes32"
            },
            {
              "internalType": "bytes32",
              "name": "transactionHashesRoot",
              "type": "bytes32"
            }
          ],
          "internalType": "struct Structures.Block",
          "name": "priorBlockL2",
          "type": "tuple"
        },
        {
          "internalType": "bytes32[33]",
          "name": "frontierBeforeBlock",
          "type": "bytes32[33]"
        },
        {
          "components": [
            {
              "internalType": "uint256",
              "name": "packedInfo",
              "type": "uint256"
            },
            {
              "internalType": "bytes32",
              "name": "root",
              "type": "bytes32"
            },
            {
              "internalType": "bytes32",
              "name": "previousBlockHash",
              "type": "bytes32"
            },
            {
              "internalType": "bytes32",
              "name": "frontierHash",
              "type": "bytes32"
            },
            {
              "internalType": "bytes32",
              "name": "transactionHashesRoot",
              "type": "bytes32"
            }
          ],
          "internalType": "struct Structures.Block",
          "name": "blockL2",
          "type": "tuple"
        },
        {
          "components": [
            {
              "internalType": "uint256",
              "name": "packedInfo",
              "type": "uint256"
            },
            {
              "internalType": "uint256[]",
              "name": "historicRootBlockNumberL2",
              "type": "uint256[]"
            },
            {
              "internalType": "bytes32",
              "name": "tokenId",
              "type": "bytes32"
            },
            {
              "internalType": "bytes32",
              "name": "ercAddress",
              "type": "bytes32"
            },
            {
              "internalType": "bytes32",
              "name": "recipientAddress",
              "type": "bytes32"
            },
            {
              "internalType": "bytes32[]",
              "name": "commitments",
              "type": "bytes32[]"
            },
            {
              "internalType": "bytes32[]",
              "name": "nullifiers",
              "type": "bytes32[]"
            },
            {
              "internalType": "bytes32[2]",
              "name": "compressedSecrets",
              "type": "bytes32[2]"
            },
            {
              "internalType": "uint256[4]",
              "name": "proof",
              "type": "uint256[4]"
            }
          ],
          "internalType": "struct Structures.Transaction[]",
          "name": "transactions",
          "type": "tuple[]"
        },
        {
          "internalType": "bytes32",
          "name": "salt",
          "type": "bytes32"
        }
      ],
      "name": "challengeNewFrontierCorrect",
      "outputs": [],
      "stateMutability": "nonpayable",
      "type": "function"
    },
    {
      "inputs": [
        {
          "internalType": "bytes32[33]",
          "name": "frontierAfterBlock",
          "type": "bytes32[33]"
        },
        {
          "components": [
            {
              "internalType": "uint256",
              "name": "packedInfo",
              "type": "uint256"
            },
            {
              "internalType": "bytes32",
              "name": "root",
              "type": "bytes32"
            },
            {
              "internalType": "bytes32",
              "name": "previousBlockHash",
              "type": "bytes32"
            },
            {
              "internalType": "bytes32",
              "name": "frontierHash",
              "type": "bytes32"
            },
            {
              "internalType": "bytes32",
              "name": "transactionHashesRoot",
              "type": "bytes32"
            }
          ],
          "internalType": "struct Structures.Block",
          "name": "blockL2",
          "type": "tuple"
        },
        {
          "internalType": "bytes32",
          "name": "salt",
          "type": "bytes32"
        }
      ],
      "name": "challengeNewRootCorrect",
      "outputs": [],
      "stateMutability": "nonpayable",
      "type": "function"
    },
    {
      "inputs": [
        {
          "components": [
            {
              "components": [
                {
                  "internalType": "uint256",
                  "name": "packedInfo",
                  "type": "uint256"
                },
                {
                  "internalType": "bytes32",
                  "name": "root",
                  "type": "bytes32"
                },
                {
                  "internalType": "bytes32",
                  "name": "previousBlockHash",
                  "type": "bytes32"
                },
                {
                  "internalType": "bytes32",
                  "name": "frontierHash",
                  "type": "bytes32"
                },
                {
                  "internalType": "bytes32",
                  "name": "transactionHashesRoot",
                  "type": "bytes32"
                }
              ],
              "internalType": "struct Structures.Block",
              "name": "blockL2",
              "type": "tuple"
            },
            {
              "components": [
                {
                  "internalType": "uint256",
                  "name": "packedInfo",
                  "type": "uint256"
                },
                {
                  "internalType": "uint256[]",
                  "name": "historicRootBlockNumberL2",
                  "type": "uint256[]"
                },
                {
                  "internalType": "bytes32",
                  "name": "tokenId",
                  "type": "bytes32"
                },
                {
                  "internalType": "bytes32",
                  "name": "ercAddress",
                  "type": "bytes32"
                },
                {
                  "internalType": "bytes32",
                  "name": "recipientAddress",
                  "type": "bytes32"
                },
                {
                  "internalType": "bytes32[]",
                  "name": "commitments",
                  "type": "bytes32[]"
                },
                {
                  "internalType": "bytes32[]",
                  "name": "nullifiers",
                  "type": "bytes32[]"
                },
                {
                  "internalType": "bytes32[2]",
                  "name": "compressedSecrets",
                  "type": "bytes32[2]"
                },
                {
                  "internalType": "uint256[4]",
                  "name": "proof",
                  "type": "uint256[4]"
                }
              ],
              "internalType": "struct Structures.Transaction",
              "name": "transaction",
              "type": "tuple"
            },
            {
              "internalType": "uint256",
              "name": "transactionIndex",
              "type": "uint256"
            },
            {
              "internalType": "bytes32[]",
              "name": "transactionSiblingPath",
              "type": "bytes32[]"
            }
          ],
          "internalType": "struct Structures.TransactionInfoBlock",
          "name": "transaction1",
          "type": "tuple"
        },
        {
          "components": [
            {
              "components": [
                {
                  "internalType": "uint256",
                  "name": "packedInfo",
                  "type": "uint256"
                },
                {
                  "internalType": "bytes32",
                  "name": "root",
                  "type": "bytes32"
                },
                {
                  "internalType": "bytes32",
                  "name": "previousBlockHash",
                  "type": "bytes32"
                },
                {
                  "internalType": "bytes32",
                  "name": "frontierHash",
                  "type": "bytes32"
                },
                {
                  "internalType": "bytes32",
                  "name": "transactionHashesRoot",
                  "type": "bytes32"
                }
              ],
              "internalType": "struct Structures.Block",
              "name": "blockL2",
              "type": "tuple"
            },
            {
              "components": [
                {
                  "internalType": "uint256",
                  "name": "packedInfo",
                  "type": "uint256"
                },
                {
                  "internalType": "uint256[]",
                  "name": "historicRootBlockNumberL2",
                  "type": "uint256[]"
                },
                {
                  "internalType": "bytes32",
                  "name": "tokenId",
                  "type": "bytes32"
                },
                {
                  "internalType": "bytes32",
                  "name": "ercAddress",
                  "type": "bytes32"
                },
                {
                  "internalType": "bytes32",
                  "name": "recipientAddress",
                  "type": "bytes32"
                },
                {
                  "internalType": "bytes32[]",
                  "name": "commitments",
                  "type": "bytes32[]"
                },
                {
                  "internalType": "bytes32[]",
                  "name": "nullifiers",
                  "type": "bytes32[]"
                },
                {
                  "internalType": "bytes32[2]",
                  "name": "compressedSecrets",
                  "type": "bytes32[2]"
                },
                {
                  "internalType": "uint256[4]",
                  "name": "proof",
                  "type": "uint256[4]"
                }
              ],
              "internalType": "struct Structures.Transaction",
              "name": "transaction",
              "type": "tuple"
            },
            {
              "internalType": "uint256",
              "name": "transactionIndex",
              "type": "uint256"
            },
            {
              "internalType": "bytes32[]",
              "name": "transactionSiblingPath",
              "type": "bytes32[]"
            }
          ],
          "internalType": "struct Structures.TransactionInfoBlock",
          "name": "transaction2",
          "type": "tuple"
        },
        {
          "internalType": "uint256",
          "name": "commitment1Index",
          "type": "uint256"
        },
        {
          "internalType": "uint256",
          "name": "commitment2Index",
          "type": "uint256"
        },
        {
          "internalType": "bytes32",
          "name": "salt",
          "type": "bytes32"
        }
      ],
      "name": "challengeCommitment",
      "outputs": [],
      "stateMutability": "nonpayable",
      "type": "function"
    },
    {
      "inputs": [
        {
          "components": [
            {
              "components": [
                {
                  "internalType": "uint256",
                  "name": "packedInfo",
                  "type": "uint256"
                },
                {
                  "internalType": "bytes32",
                  "name": "root",
                  "type": "bytes32"
                },
                {
                  "internalType": "bytes32",
                  "name": "previousBlockHash",
                  "type": "bytes32"
                },
                {
                  "internalType": "bytes32",
                  "name": "frontierHash",
                  "type": "bytes32"
                },
                {
                  "internalType": "bytes32",
                  "name": "transactionHashesRoot",
                  "type": "bytes32"
                }
              ],
              "internalType": "struct Structures.Block",
              "name": "blockL2",
              "type": "tuple"
            },
            {
              "components": [
                {
                  "internalType": "uint256",
                  "name": "packedInfo",
                  "type": "uint256"
                },
                {
                  "internalType": "uint256[]",
                  "name": "historicRootBlockNumberL2",
                  "type": "uint256[]"
                },
                {
                  "internalType": "bytes32",
                  "name": "tokenId",
                  "type": "bytes32"
                },
                {
                  "internalType": "bytes32",
                  "name": "ercAddress",
                  "type": "bytes32"
                },
                {
                  "internalType": "bytes32",
                  "name": "recipientAddress",
                  "type": "bytes32"
                },
                {
                  "internalType": "bytes32[]",
                  "name": "commitments",
                  "type": "bytes32[]"
                },
                {
                  "internalType": "bytes32[]",
                  "name": "nullifiers",
                  "type": "bytes32[]"
                },
                {
                  "internalType": "bytes32[2]",
                  "name": "compressedSecrets",
                  "type": "bytes32[2]"
                },
                {
                  "internalType": "uint256[4]",
                  "name": "proof",
                  "type": "uint256[4]"
                }
              ],
              "internalType": "struct Structures.Transaction",
              "name": "transaction",
              "type": "tuple"
            },
            {
              "internalType": "uint256",
              "name": "transactionIndex",
              "type": "uint256"
            },
            {
              "internalType": "bytes32[]",
              "name": "transactionSiblingPath",
              "type": "bytes32[]"
            }
          ],
          "internalType": "struct Structures.TransactionInfoBlock",
          "name": "transaction1",
          "type": "tuple"
        },
        {
          "components": [
            {
              "components": [
                {
                  "internalType": "uint256",
                  "name": "packedInfo",
                  "type": "uint256"
                },
                {
                  "internalType": "bytes32",
                  "name": "root",
                  "type": "bytes32"
                },
                {
                  "internalType": "bytes32",
                  "name": "previousBlockHash",
                  "type": "bytes32"
                },
                {
                  "internalType": "bytes32",
                  "name": "frontierHash",
                  "type": "bytes32"
                },
                {
                  "internalType": "bytes32",
                  "name": "transactionHashesRoot",
                  "type": "bytes32"
                }
              ],
              "internalType": "struct Structures.Block",
              "name": "blockL2",
              "type": "tuple"
            },
            {
              "components": [
                {
                  "internalType": "uint256",
                  "name": "packedInfo",
                  "type": "uint256"
                },
                {
                  "internalType": "uint256[]",
                  "name": "historicRootBlockNumberL2",
                  "type": "uint256[]"
                },
                {
                  "internalType": "bytes32",
                  "name": "tokenId",
                  "type": "bytes32"
                },
                {
                  "internalType": "bytes32",
                  "name": "ercAddress",
                  "type": "bytes32"
                },
                {
                  "internalType": "bytes32",
                  "name": "recipientAddress",
                  "type": "bytes32"
                },
                {
                  "internalType": "bytes32[]",
                  "name": "commitments",
                  "type": "bytes32[]"
                },
                {
                  "internalType": "bytes32[]",
                  "name": "nullifiers",
                  "type": "bytes32[]"
                },
                {
                  "internalType": "bytes32[2]",
                  "name": "compressedSecrets",
                  "type": "bytes32[2]"
                },
                {
                  "internalType": "uint256[4]",
                  "name": "proof",
                  "type": "uint256[4]"
                }
              ],
              "internalType": "struct Structures.Transaction",
              "name": "transaction",
              "type": "tuple"
            },
            {
              "internalType": "uint256",
              "name": "transactionIndex",
              "type": "uint256"
            },
            {
              "internalType": "bytes32[]",
              "name": "transactionSiblingPath",
              "type": "bytes32[]"
            }
          ],
          "internalType": "struct Structures.TransactionInfoBlock",
          "name": "transaction2",
          "type": "tuple"
        },
        {
          "internalType": "uint256",
          "name": "nullifier1Index",
          "type": "uint256"
        },
        {
          "internalType": "uint256",
          "name": "nullifier2Index",
          "type": "uint256"
        },
        {
          "internalType": "bytes32",
          "name": "salt",
          "type": "bytes32"
        }
      ],
      "name": "challengeNullifier",
      "outputs": [],
      "stateMutability": "nonpayable",
      "type": "function"
    },
    {
      "inputs": [
        {
          "components": [
            {
              "components": [
                {
                  "internalType": "uint256",
                  "name": "packedInfo",
                  "type": "uint256"
                },
                {
                  "internalType": "bytes32",
                  "name": "root",
                  "type": "bytes32"
                },
                {
                  "internalType": "bytes32",
                  "name": "previousBlockHash",
                  "type": "bytes32"
                },
                {
                  "internalType": "bytes32",
                  "name": "frontierHash",
                  "type": "bytes32"
                },
                {
                  "internalType": "bytes32",
                  "name": "transactionHashesRoot",
                  "type": "bytes32"
                }
              ],
              "internalType": "struct Structures.Block",
              "name": "blockL2",
              "type": "tuple"
            },
            {
              "components": [
                {
                  "internalType": "uint256",
                  "name": "packedInfo",
                  "type": "uint256"
                },
                {
                  "internalType": "uint256[]",
                  "name": "historicRootBlockNumberL2",
                  "type": "uint256[]"
                },
                {
                  "internalType": "bytes32",
                  "name": "tokenId",
                  "type": "bytes32"
                },
                {
                  "internalType": "bytes32",
                  "name": "ercAddress",
                  "type": "bytes32"
                },
                {
                  "internalType": "bytes32",
                  "name": "recipientAddress",
                  "type": "bytes32"
                },
                {
                  "internalType": "bytes32[]",
                  "name": "commitments",
                  "type": "bytes32[]"
                },
                {
                  "internalType": "bytes32[]",
                  "name": "nullifiers",
                  "type": "bytes32[]"
                },
                {
                  "internalType": "bytes32[2]",
                  "name": "compressedSecrets",
                  "type": "bytes32[2]"
                },
                {
                  "internalType": "uint256[4]",
                  "name": "proof",
                  "type": "uint256[4]"
                }
              ],
              "internalType": "struct Structures.Transaction",
              "name": "transaction",
              "type": "tuple"
            },
            {
              "internalType": "uint256",
              "name": "transactionIndex",
              "type": "uint256"
            },
            {
              "internalType": "bytes32[]",
              "name": "transactionSiblingPath",
              "type": "bytes32[]"
            }
          ],
          "internalType": "struct Structures.TransactionInfoBlock",
          "name": "transaction",
          "type": "tuple"
        },
        {
          "components": [
            {
              "internalType": "uint256",
              "name": "packedInfo",
              "type": "uint256"
            },
            {
              "internalType": "bytes32",
              "name": "root",
              "type": "bytes32"
            },
            {
              "internalType": "bytes32",
              "name": "previousBlockHash",
              "type": "bytes32"
            },
            {
              "internalType": "bytes32",
              "name": "frontierHash",
              "type": "bytes32"
            },
            {
              "internalType": "bytes32",
              "name": "transactionHashesRoot",
              "type": "bytes32"
            }
          ],
          "internalType": "struct Structures.Block[]",
          "name": "blockL2ContainingHistoricRoot",
          "type": "tuple[]"
        },
        {
          "internalType": "uint256[8]",
          "name": "uncompressedProof",
          "type": "uint256[8]"
        },
        {
          "internalType": "bytes32",
          "name": "salt",
          "type": "bytes32"
        }
      ],
      "name": "challengeProofVerification",
      "outputs": [],
      "stateMutability": "nonpayable",
      "type": "function"
    },
    {
      "inputs": [
        {
          "components": [
            {
              "components": [
                {
                  "internalType": "uint256",
                  "name": "packedInfo",
                  "type": "uint256"
                },
                {
                  "internalType": "bytes32",
                  "name": "root",
                  "type": "bytes32"
                },
                {
                  "internalType": "bytes32",
                  "name": "previousBlockHash",
                  "type": "bytes32"
                },
                {
                  "internalType": "bytes32",
                  "name": "frontierHash",
                  "type": "bytes32"
                },
                {
                  "internalType": "bytes32",
                  "name": "transactionHashesRoot",
                  "type": "bytes32"
                }
              ],
              "internalType": "struct Structures.Block",
              "name": "blockL2",
              "type": "tuple"
            },
            {
              "components": [
                {
                  "internalType": "uint256",
                  "name": "packedInfo",
                  "type": "uint256"
                },
                {
                  "internalType": "uint256[]",
                  "name": "historicRootBlockNumberL2",
                  "type": "uint256[]"
                },
                {
                  "internalType": "bytes32",
                  "name": "tokenId",
                  "type": "bytes32"
                },
                {
                  "internalType": "bytes32",
                  "name": "ercAddress",
                  "type": "bytes32"
                },
                {
                  "internalType": "bytes32",
                  "name": "recipientAddress",
                  "type": "bytes32"
                },
                {
                  "internalType": "bytes32[]",
                  "name": "commitments",
                  "type": "bytes32[]"
                },
                {
                  "internalType": "bytes32[]",
                  "name": "nullifiers",
                  "type": "bytes32[]"
                },
                {
                  "internalType": "bytes32[2]",
                  "name": "compressedSecrets",
                  "type": "bytes32[2]"
                },
                {
                  "internalType": "uint256[4]",
                  "name": "proof",
                  "type": "uint256[4]"
                }
              ],
              "internalType": "struct Structures.Transaction",
              "name": "transaction",
              "type": "tuple"
            },
            {
              "internalType": "uint256",
              "name": "transactionIndex",
              "type": "uint256"
            },
            {
              "internalType": "bytes32[]",
              "name": "transactionSiblingPath",
              "type": "bytes32[]"
            }
          ],
          "internalType": "struct Structures.TransactionInfoBlock",
          "name": "transaction",
          "type": "tuple"
        }
      ],
      "name": "challengeHistoricRootBlockNumber",
      "outputs": [],
      "stateMutability": "nonpayable",
      "type": "function"
    },
    {
      "inputs": [
        {
          "internalType": "bytes32",
          "name": "commitHash",
          "type": "bytes32"
        }
      ],
      "name": "commitToChallenge",
      "outputs": [],
      "stateMutability": "nonpayable",
      "type": "function"
    }
  ],
  "bytecode": "0x608060405234801561001057600080fd5b50613a24806100206000396000f3fe608060405234801561001057600080fd5b50600436106101b75760003560e01c80631182cefa146101bc578063120f66df146101fb578063146eb2221461021c5780631c80a5a514610231578063250093071461024457806328340f17146102575780633195a4e71461026857806342646c681461027b57806360f611d51461028c57806369a5b9501461029f5780638129fc1c146102b257806384afda19146102ba578063875840ce146102cd578063894f7d62146102d55780638da5cb5b146102e85780639c18de93146102f0578063aa411d5b14610303578063af52ca6914610316578063b0a9fd0f14610329578063b0c9569a14610344578063b13a8c071461034c578063b2bdfa7b1461035f578063b8424d4214610372578063b8da51f114610385578063bb7affc114610398578063bf2c94db146103ab578063c19d93fb146103be578063c2c5bb6e146103d7578063c300db9b146103ea578063c83daadc146103f2578063d9bbd278146103fa578063da5370ca14610412578063efedffa814610425578063f04b3b101461042d578063f0b86f2714610440578063f2fde38b14610453578063f560a79214610466575b600080fd5b6101e56101ca366004612c42565b600c602052600090815260409020546001600160a01b031681565b6040516101f29190612c5b565b60405180910390f35b61020e610209366004612c84565b610479565b6040519081526020016101f2565b61022f61022a366004612c42565b61049c565b005b61022f61023f366004612cba565b6104e2565b61022f610252366004612d5c565b610724565b6008546001600160a01b03166101e5565b61022f610276366004612c42565b610865565b6009546001600160a01b03166101e5565b61022f61029a366004612de8565b6108a2565b61022f6102ad366004612c84565b610a84565b61022f610adc565b61022f6102c8366004612c84565b610bf6565b60065461020e565b61022f6102e3366004612e81565b610caf565b6101e5610d09565b61022f6102fe366004612e9e565b610d18565b61022f610311366004612c84565b610d73565b61022f610324366004612c42565b610dcd565b6003546040516001600160601b0390911681526020016101f2565b60075461020e565b61022f61035a366004612e81565b610e0a565b6002546101e5906001600160a01b031681565b61022f610380366004612ed3565b610e6a565b61022f610393366004612c42565b61100d565b61022f6103a6366004612c84565b6110c4565b61022f6103b9366004612c42565b611148565b6000546101e5906201000090046001600160a01b031681565b61020e6103e5366004612c84565b611185565b6101e56111a3565b60045461020e565b600254600160a01b90046001600160601b031661020e565b61022f610420366004612cba565b6111b2565b60055461020e565b61022f61043b366004612ff3565b61135c565b61022f61044e3660046130a8565b6117b4565b61022f610461366004612c84565b611b06565b61022f610474366004612c84565b611ba5565b6001600160a01b0381166000908152600b6020526040812060015b015492915050565b6104a4610d09565b6001600160a01b0316336001600160a01b0316146104dd5760405162461bcd60e51b81526004016104d4906130f2565b60405180910390fd5b600555565b6104ed600036611c29565b6000546201000090046001600160a01b031663f41f339f8661051260a0820182613140565b60c089013561052460e08b018b613161565b6040518663ffffffff1660e01b8152600401610544959493929190613322565b602060405180830381865afa158015610561573d6000803e3d6000fd5b505050506040513d601f19601f82011682018060405250810190610585919061336a565b506000546201000090046001600160a01b031663f41f339f856105ab60a0820182613140565b60c08801356105bd60e08a018a613161565b6040518663ffffffff1660e01b81526004016105dd959493929190613322565b602060405180830381865afa1580156105fa573d6000803e3d6000fd5b505050506040513d601f19601f8201168201806040525081019061061e919061336a565b50843560a090811c908535901c6001600160401b0380821690831603610665578560c001358760c00135036106655760405162461bcd60e51b81526004016104d490613383565b73__ChallengesUtil________________________638185f01d61068c60a08a018a613140565b8761069a60a08b018b613140565b886040518563ffffffff1660e01b81526004016106ba94939291906133c6565b60006040518083038186803b1580156106d257600080fd5b505af41580156106e6573d6000803e3d6000fd5b50505050806001600160401b0316826001600160401b031611156107125761070d87611ccc565b61071b565b61071b86611ccc565b50505050505050565b61072f600036611c29565b600054604051635b67815b60e11b8152620100009091046001600160a01b03169063b6cf02b690610764908590600401613403565b60006040518083038186803b15801561077c57600080fd5b505afa158015610790573d6000803e3d6000fd5b5050505060006107c8846021806020026040519081016040528092919082602160200280828437600092019190915250611e4b915050565b9050826060013581146107ed5760405162461bcd60e51b81526004016104d490613411565b604051631355ea6560e01b815273__ChallengesUtil________________________90631355ea65906108269087908790600401613447565b60006040518083038186803b15801561083e57600080fd5b505af4158015610852573d6000803e3d6000fd5b5050505061085f83611ccc565b50505050565b61086d610d09565b6001600160a01b0316336001600160a01b03161461089d5760405162461bcd60e51b81526004016104d4906130f2565b600755565b6108ad600036611c29565b600054604051635b67815b60e11b8152620100009091046001600160a01b03169063b6cf02b6906108e2908990600401613403565b60006040518083038186803b1580156108fa57600080fd5b505afa15801561090e573d6000803e3d6000fd5b505060005460405163097091e360e21b8152620100009091046001600160a01b031692506325c2478c915061094b9087908790879060040161347f565b60006040518083038186803b15801561096357600080fd5b505afa158015610977573d6000803e3d6000fd5b505050843560a01c90506001600160401b0316863560a01c61099a906001613507565b6001600160401b0316146109c05760405162461bcd60e51b81526004016104d49061352e565b6000856040516020016109d39190613565565b60405160208183030381529060405280519060200120905086606001358114610a0e5760405162461bcd60e51b81526004016104d490613411565b604051633b5260b960e01b815273__ChallengesUtil________________________90633b5260b990610a4b9089908990899089906004016135bf565b60006040518083038186803b158015610a6357600080fd5b505af4158015610a77573d6000803e3d6000fd5b5050505061071b85611ccc565b610a8c610d09565b6001600160a01b0316336001600160a01b031614610abc5760405162461bcd60e51b81526004016104d4906130f2565b6001600160a01b03166000908152600b6020526040812081815560010155565b600054610100900460ff1615808015610afc5750600054600160ff909116105b80610b165750303b158015610b16575060005460ff166001145b610b795760405162461bcd60e51b815260206004820152602e60248201527f496e697469616c697a61626c653a20636f6e747261637420697320616c72656160448201526d191e481a5b9a5d1a585b1a5e995960921b60648201526084016104d4565b6000805460ff191660011790558015610b9c576000805461ff0019166101001790555b610ba4611e7b565b610bac611ebd565b8015610bf3576000805461ff0019169055604051600181527f7f26b83ff96e1f2b6a682f133852f6798a09c465da95921460cefb3847402498906020015b60405180910390a15b50565b6001546001600160a01b031633148015610c1a5750600154600160a01b900460ff16155b610c725760405162461bcd60e51b815260206004820152602360248201527f4f6e6c7920746865206f776e65722063616e2063616c6c20746869732c206f6e60448201526231b29760e91b60648201526084016104d4565b6001805460ff60a01b1916600160a01b179055600080546001600160a01b03909216620100000262010000600160b01b0319909216919091179055565b610cb7610d09565b6001600160a01b0316336001600160a01b031614610ce75760405162461bcd60e51b81526004016104d4906130f2565b600380546001600160601b0319166001600160601b0392909216919091179055565b6002546001600160a01b031690565b610d20610d09565b6001600160a01b0316336001600160a01b031614610d505760405162461bcd60e51b81526004016104d4906130f2565b6001600160a01b03929092166000908152600b6020526040902090815560010155565b610d7b610d09565b6001600160a01b0316336001600160a01b031614610dab5760405162461bcd60e51b81526004016104d4906130f2565b600a80546001600160a01b0319166001600160a01b0392909216919091179055565b610dd5610d09565b6001600160a01b0316336001600160a01b031614610e055760405162461bcd60e51b81526004016104d4906130f2565b600655565b610e12610d09565b6001600160a01b0316336001600160a01b031614610e425760405162461bcd60e51b81526004016104d4906130f2565b600280546001600160601b03909216600160a01b026001600160a01b03909216919091179055565b610e75600036611c29565b600054604051635b67815b60e11b8152620100009091046001600160a01b03169063b6cf02b690610eaa908890600401613403565b60006040518083038186803b158015610ec257600080fd5b505afa158015610ed6573d6000803e3d6000fd5b505060005460405163097091e360e21b8152620100009091046001600160a01b031692506325c2478c9150610f139087908790879060040161347f565b60006040518083038186803b158015610f2b57600080fd5b505afa158015610f3f573d6000803e3d6000fd5b505050843560a01c90506001600160401b0316853560a01c610f62906001613507565b6001600160401b031614610f885760405162461bcd60e51b81526004016104d49061352e565b73__ChallengesUtil________________________632831d198863560e01c863560e01c86866040518563ffffffff1660e01b8152600401610fcd94939291906135f7565b60006040518083038186803b158015610fe557600080fd5b505af4158015610ff9573d6000803e3d6000fd5b5050505061100684611ccc565b5050505050565b6000818152600c60205260409020546001600160a01b03161561106e5760405162461bcd60e51b81526020600482015260196024820152784861736820616c726561647920636f6d6d697474656420746f60381b60448201526064016104d4565b6000818152600c602090815260409182902080546001600160a01b031916339081179091558251848152918201527f0d5ea452ac7e354069d902d41e41e24f605467acd037b8f5c1c6fee5e27fb5e29101610bea565b6110cc610d09565b6001600160a01b0316336001600160a01b0316146110fc5760405162461bcd60e51b81526004016104d4906130f2565b600880546001600160a01b0319166001600160a01b0383169081179091556040517f5544fd39820f90f9fc4b238e0eaaf1b5ece21e6dbb69a2b0824a16876e6d0efd91610bea91612c5b565b611150610d09565b6001600160a01b0316336001600160a01b0316146111805760405162461bcd60e51b81526004016104d4906130f2565b600455565b6001600160a01b0381166000908152600b6020526040812081610494565b600a546001600160a01b031690565b6111bd600036611c29565b6000546201000090046001600160a01b031663f41f339f866111e260a0820182613140565b60c08901356111f460e08b018b613161565b6040518663ffffffff1660e01b8152600401611214959493929190613322565b602060405180830381865afa158015611231573d6000803e3d6000fd5b505050506040513d601f19601f82011682018060405250810190611255919061336a565b506000546201000090046001600160a01b031663f41f339f8561127b60a0820182613140565b60c088013561128d60e08a018a613161565b6040518663ffffffff1660e01b81526004016112ad959493929190613322565b602060405180830381865afa1580156112ca573d6000803e3d6000fd5b505050506040513d601f19601f820116820180604052508101906112ee919061336a565b50843560a090811c908535901c6001600160401b0380821690831603611335578560c001358760c00135036113355760405162461bcd60e51b81526004016104d490613383565b73__ChallengesUtil________________________63ff124ee861068c60a08a018a613140565b611367600036611c29565b6000546201000090046001600160a01b031663f41f339f8661138c60a0820182613140565b60c089013561139e60e08b018b613161565b6040518663ffffffff1660e01b81526004016113be959493929190613322565b602060405180830381865afa1580156113db573d6000803e3d6000fd5b505050506040513d601f19601f820116820180604052508101906113ff919061336a565b5061140d60a0860186613140565b61141b9060c0810190613161565b841490506114885760405162461bcd60e51b815260206004820152603460248201527f496e76616c6964206e756d626572206f6620626c6f636b73204c3220636f6e74604482015273185a5b9a5b99c81a1a5cdd1bdc9a58c81c9bdbdd60621b60648201526084016104d4565b60006040518060400160405280878060a001906114a59190613140565b6114b39060c0810190613161565b90506001600160401b038111156114cc576114cc612f40565b6040519080825280602002602001820160405280156114f5578160200160208202803683370190505b5081526020016115036111a3565b6001600160a01b03169052905060005b61152060a0880188613140565b61152e9060c0810190613161565b90508110156116f15761154460a0880188613140565b6115529060c0810190613161565b82818110611562576115626130dc565b9050602002013560001c6000146116e1576000546201000090046001600160a01b031663b6cf02b687878481811061159c5761159c6130dc565b905060a002016040518263ffffffff1660e01b81526004016115be9190613403565b60006040518083038186803b1580156115d657600080fd5b505afa1580156115ea573d6000803e3d6000fd5b505050506000611617888060a001906116039190613140565b611611906020810190613161565b84611f2b565b905061163e87878481811061162e5761162e6130dc565b905060a002016000013560a01c90565b6001600160401b0316816001600160401b03161461169e5760405162461bcd60e51b815260206004820152601d60248201527f496e636f727265637420686973746f72696320726f6f7420626c6f636b00000060448201526064016104d4565b8686838181106116b0576116b06130dc565b905060a002016020013560001c836000015183815181106116d3576116d36130dc565b602002602001018181525050505b6116ea8161362b565b9050611513565b506117a361170260a0880188613140565b600054839086906201000090046001600160a01b031663f5a6b99561173461172d60a08e018e613140565b3560d81c90565b6040516001600160e01b031960e084901b16815264ffffffffff9091166004820152602401600060405180830381865afa158015611776573d6000803e3d6000fd5b505050506040513d6000823e601f3d908101601f1916820160405261179e9190810190613644565b611f87565b6117ac86611ccc565b505050505050565b6117bf600036611c29565b6000546201000090046001600160a01b031663f41f339f826117e460a0820182613140565b60c08501356117f660e0870187613161565b6040518663ffffffff1660e01b8152600401611816959493929190613322565b602060405180830381865afa158015611833573d6000803e3d6000fd5b505050506040513d601f19601f82011682018060405250810190611857919061336a565b50600061186760a0830183613140565b611875906020810190613161565b611881915060046136dd565b6001600160401b0381111561189857611898612f40565b6040519080825280602002602001820160405280156118c1578160200160208202803683370190505b50905060005b815181101561192e576118f46118e060a0850185613140565b6118ee906020810190613161565b83611f2b565b828281518110611906576119066130dc565b6001600160401b03909216602092830291909101909101526119278161362b565b90506118c7565b5060005b61193f60a0840184613140565b61194d9060c0810190613161565b9050811015611a1357600060029054906101000a90046001600160a01b03166001600160a01b03166305eb81e66040518163ffffffff1660e01b8152600401602060405180830381865afa1580156119a9573d6000803e3d6000fd5b505050506040513d601f19601f820116820180604052508101906119cd919061336a565b8282815181106119df576119df6130dc565b60200260200101516001600160401b031610611a03576119fe83611ccc565b505050565b611a0c8161362b565b9050611932565b50600060018251611a2491906136f4565b90505b611a3460a0840184613140565b611a429060c0810190613161565b90508110611a965760006001600160401b0316828281518110611a6757611a676130dc565b60200260200101516001600160401b031614611a86576119fe83611ccc565b611a8f81613707565b9050611a27565b5060405162461bcd60e51b815260206004820152603a60248201527f486973746f72696320726f6f747320617265206e6f74206772656174657220746044820152793430b7102619213637b1b5a73ab6b132b91037b71031b430b4b760311b60648201526084016104d4565b5050565b611b0e610d09565b6001600160a01b0316336001600160a01b031614611b3e5760405162461bcd60e51b81526004016104d4906130f2565b6001600160a01b038116611b5157600080fd5b7f8be0079c531659141344cd1fd0a4f28419497f9722a3daafe3b4186f6b6457e0611b7a610d09565b604080516001600160a01b03928316815291841660208301520160405180910390a1610bf381612114565b611bad610d09565b6001600160a01b0316336001600160a01b031614611bdd5760405162461bcd60e51b81526004016104d4906130f2565b600980546001600160a01b0319166001600160a01b0383169081179091556040517f210cff5548618e71293ea0d4f1f3563a68e78f00273f3acd97014aac2442ed2491610bea91612c5b565b60008282604051611c3b92919061371e565b60408051918290039091206000818152600c60205291909120549091506001600160a01b03163314611cac5760405162461bcd60e51b815260206004820152601a60248201527910dbdb5b5a5d1b595b9d081a185cda081a5cc81a5b9d985b1a5960321b60448201526064016104d4565b6000908152600c6020526040902080546001600160a01b03191690555050565b803560a01c611cde62093a80426136f4565b6000546040516383b6ebe560e01b8152620100009091046001600160a01b0316906383b6ebe590611d1390859060040161372e565b608060405180830381865afa158015611d30573d6000803e3d6000fd5b505050506040513d601f19601f82011682018060405250810190611d549190613742565b602001511015611d9f5760405162461bcd60e51b815260206004820152601660248201527543616e6e6f74206368616c6c656e676520626c6f636b60501b60448201526064016104d4565b7f03404b6979bc5ed297ee1fc6daf00fcb29bbd74b934488ef775c1d70c5e7cd8d81604051611dce919061372e565b60405180910390a16000611de182612136565b600054604051639b0cd42d60e01b81529192506201000090046001600160a01b031690639b0cd42d90611e1d90339087359086906004016137b6565b600060405180830381600087803b158015611e3757600080fd5b505af115801561071b573d6000803e3d6000fd5b600081604051602001611e5e9190613840565b604051602081830303815290604052805190602001209050919050565b600054610100900460ff16611ea25760405162461bcd60e51b81526004016104d490613872565b600180546001600160a81b0319163360ff60a01b1916179055565b600054610100900460ff16611ee45760405162461bcd60e51b81526004016104d490613872565b611eec61245b565b600280546001600160a01b0316613d0960a61b179055600380546001600160601b03191660011790556020600455600a60058190556006556064600755565b600080611f396004846138d3565b90506000611f486004856138e7565b611f539060036136f4565b611f5e9060406136dd565b905080868684818110611f7357611f736130dc565b90506020020135901c925050509392505050565b604080516080818101909252611fbb91610120870190600490839083908082843760009201919091525085915061248d9050565b6040805160088082526101208201909252600091602082016101008036833701905050905060005b600881101561203257838160088110611ffe57611ffe6130dc565b6020020151828281518110612015576120156130dc565b60209081029190910101528061202a8161362b565b915050611fe3565b5060006120488686600001518760200151612551565b6040516387d9d02360e01b815290915073__Verifier______________________________906387d9d0239061208690859085908890600401613936565b602060405180830381865af41580156120a3573d6000803e3d6000fd5b505050506040513d601f19601f820116820180604052508101906120c7919061396f565b156117ac5760405162461bcd60e51b815260206004820152601e60248201527f546869732070726f6f66206170706561727320746f2062652076616c6964000060448201526064016104d4565b600280546001600160a01b0319166001600160a01b0392909216919091179055565b606060006001600060029054906101000a90046001600160a01b03166001600160a01b03166305eb81e66040518163ffffffff1660e01b8152600401602060405180830381865afa15801561218f573d6000803e3d6000fd5b505050506040513d601f19601f820116820180604052508101906121b3919061336a565b6121bd91906136f4565b905060006121d46001600160401b038516836136f4565b6121df906001613991565b6001600160401b038111156121f6576121f6612f40565b60405190808252806020026020018201604052801561224857816020015b6040805160808101825260008082526020808301829052928201819052606082015282526000199092019101816122145790505b50905060005b6122616001600160401b038616846136f4565b811161237b5760008060029054906101000a90046001600160a01b03166001600160a01b0316631c4206826040518163ffffffff1660e01b81526004016080604051808303816000875af11580156122bd573d6000803e3d6000fd5b505050506040513d601f19601f820116820180604052508101906122e19190613742565b6000548151604051635e5a6de160e11b815260048101919091529192506201000090046001600160a01b03169063bcb4dbc290602401600060405180830381600087803b15801561233157600080fd5b505af1158015612345573d6000803e3d6000fd5b505050508083838151811061235c5761235c6130dc565b60200260200101819052505080806123739061362b565b91505061224e565b50836001600160401b0316600060029054906101000a90046001600160a01b03166001600160a01b03166305eb81e66040518163ffffffff1660e01b8152600401602060405180830381865afa1580156123d9573d6000803e3d6000fd5b505050506040513d601f19601f820116820180604052508101906123fd919061336a565b146124545760405162461bcd60e51b815260206004820152602160248201527f4e756d6265722072656d61696e696e67206e6f742061732065787065637465646044820152601760f91b60648201526084016104d4565b9392505050565b600054610100900460ff166124825760405162461bcd60e51b81526004016104d490613872565b61248b33612114565b565b61249681612b25565b6040516020016124a691906139a4565b60405160208183030381529060405280519060200120826040516020016124cd91906139a4565b6040516020818303038152906040528051906020012014611b025760405162461bcd60e51b815260206004820152603860248201527f43616e6e6f7420726563726561746520636f6d707265737365642070726f6f6660448201527710333937b6903ab731b7b6b83932b9b9b2b210383937b7b360411b60648201526084016104d4565b6060600061256260a0860186613161565b855190915061257460c0880188613161565b612580915060026136dd565b61258b906011613991565b6125959190613991565b61259f9190613991565b90506000816001600160401b038111156125bb576125bb612f40565b6040519080825280602002602001820160405280156125e4578160200160208202803683370190505b5090506000863560081c6001600160701b031682826126028161362b565b935081518110612614576126146130dc565b6020908102919091010152863560781c6001600160601b031682826126388161362b565b93508151811061264a5761264a6130dc565b6020908102919091010152863560d81c82826126658161362b565b935081518110612677576126776130dc565b602090810291909101015261268c8735612bb3565b600281111561269d5761269d6139d8565b82826126a88161362b565b9350815181106126ba576126ba6130dc565b60200260200101818152505060005b6126d660c0890189613161565b9050811015612730576126ef6118ee60208a018a613161565b6001600160401b031683836127038161362b565b945081518110612715576127156130dc565b60209081029190910101526127298161362b565b90506126c9565b50606087013582826127418161362b565b935081518110612753576127536130dc565b6020908102919091010152604087013560e01c82826127718161362b565b935081518110612783576127836130dc565b602090810291909101015263ffffffff604088013560c01c1682826127a78161362b565b9350815181106127b9576127b96130dc565b602090810291909101015263ffffffff604088013560a01c1682826127dd8161362b565b9350815181106127ef576127ef6130dc565b602090810291909101015263ffffffff604088013560801c1682826128138161362b565b935081518110612825576128256130dc565b602090810291909101015263ffffffff604088013560601c1682826128498161362b565b93508151811061285b5761285b6130dc565b602090810291909101015263ffffffff604088810135901c16828261287f8161362b565b935081518110612891576128916130dc565b6020026020010181815250506020876040013560001c901c63ffffffff168282806128bb9061362b565b9350815181106128cd576128cd6130dc565b602090810291909101015263ffffffff60408801351682826128ee8161362b565b935081518110612900576129006130dc565b60209081029190910101526080870135828261291b8161362b565b93508151811061292d5761292d6130dc565b60200260200101818152505060005b61294960a0890189613161565b90508110156129b25761295f60a0890189613161565b8281811061296f5761296f6130dc565b9050602002013560001c8383806129859061362b565b945081518110612997576129976130dc565b60209081029190910101526129ab8161362b565b905061293c565b5060005b6129c360c0890189613161565b9050811015612a2c576129d960c0890189613161565b828181106129e9576129e96130dc565b9050602002013560001c8383806129ff9061362b565b945081518110612a1157612a116130dc565b6020908102919091010152612a258161362b565b90506129b6565b5060e08701358282612a3d8161362b565b935081518110612a4f57612a4f6130dc565b60209081029190910101526101008701358282612a6b8161362b565b935081518110612a7d57612a7d6130dc565b60200260200101818152505060005b8651811015612ae857868181518110612aa757612aa76130dc565b6020026020010151838380612abb9061362b565b945081518110612acd57612acd6130dc565b6020908102919091010152612ae18161362b565b9050612a8c565b506001600160a01b0385168282612afe8161362b565b935081518110612b1057612b106130dc565b60209081029190910101525095945050505050565b612b2d612c24565b8151600090612b44908460015b6020020151612bd0565b9050600080612b718560026020020151866003602002015187600460200201518860056020020151612c00565b90925090506000612b8b8660066020020151876007612b3a565b6040805160808101825295865260208601949094529284019190915250606082015292915050565b60008160ff166002811115612bca57612bca6139d8565b92915050565b600080612bde6002846138e7565b612bec90600160ff1b6136dd565b9050612bf88482613991565b949350505050565b600080612c0d8685612bd0565b612c178685612bd0565b9150915094509492505050565b60405180608001604052806004906020820280368337509192915050565b600060208284031215612c5457600080fd5b5035919050565b6001600160a01b0391909116815260200190565b6001600160a01b0381168114610bf357600080fd5b600060208284031215612c9657600080fd5b813561245481612c6f565b60006101008284031215612cb457600080fd5b50919050565b600080600080600060a08688031215612cd257600080fd5b85356001600160401b0380821115612ce957600080fd5b612cf589838a01612ca1565b96506020880135915080821115612d0b57600080fd5b50612d1888828901612ca1565b959895975050505060408401359360608101359360809091013592509050565b806104208101831015612bca57600080fd5b600060a08284031215612cb457600080fd5b60008060006104e08486031215612d7257600080fd5b612d7c8585612d38565b9250612d8c856104208601612d4a565b91506104c084013590509250925092565b60008083601f840112612daf57600080fd5b5081356001600160401b03811115612dc657600080fd5b6020830191508360208260051b8501011115612de157600080fd5b9250929050565b6000806000806000806105a08789031215612e0257600080fd5b612e0c8888612d4a565b9550612e1b8860a08901612d38565b9450612e2b886104c08901612d4a565b93506105608701356001600160401b03811115612e4757600080fd5b612e5389828a01612d9d565b979a969950949794969561058090950135949350505050565b6001600160601b0381168114610bf357600080fd5b600060208284031215612e9357600080fd5b813561245481612e6c565b600080600060608486031215612eb357600080fd5b8335612ebe81612c6f565b95602085013595506040909401359392505050565b60008060008060006101808688031215612eec57600080fd5b612ef68787612d4a565b9450612f058760a08801612d4a565b93506101408601356001600160401b03811115612f2157600080fd5b612f2d88828901612d9d565b9699959850966101600135949350505050565b634e487b7160e01b600052604160045260246000fd5b604051601f8201601f191681016001600160401b0381118282101715612f7e57612f7e612f40565b604052919050565b600082601f830112612f9757600080fd5b6040516101008082016001600160401b0381118382101715612fbb57612fbb612f40565b60405283018185821115612fce57600080fd5b845b82811015612fe8578035825260209182019101612fd0565b509195945050505050565b6000806000806000610160868803121561300c57600080fd5b85356001600160401b038082111561302357600080fd5b61302f89838a01612ca1565b9650602088013591508082111561304557600080fd5b818801915088601f83011261305957600080fd5b81358181111561306857600080fd5b89602060a08302850101111561307d57600080fd5b6020830196508095505050506130968760408801612f86565b94979396509194610140013592915050565b6000602082840312156130ba57600080fd5b81356001600160401b038111156130d057600080fd5b612bf884828501612ca1565b634e487b7160e01b600052603260045260246000fd5b6020808252602e908201527f596f7520617265206e6f7420617574686f726973656420746f20696e766f6b6560408201526d103a3434b990333ab731ba34b7b760911b606082015260800190565b6000823561019e1983360301811261315757600080fd5b9190910192915050565b6000808335601e1984360301811261317857600080fd5b8301803591506001600160401b0382111561319257600080fd5b6020019150600581901b3603821315612de157600080fd5b80358252602081013560208301526040810135604083015260608101356060830152608081013560808301525050565b6000808335601e198436030181126131f157600080fd5b83016020810192503590506001600160401b0381111561321057600080fd5b8060051b3603821315612de157600080fd5b81835260006001600160fb1b0383111561323b57600080fd5b8260051b80836020870137939093016020019392505050565b60408183375050565b60808183375050565b60006101a08235845261327c60208401846131da565b82602087015261328f8387018284613222565b925050506040830135604085015260608301356060850152608083013560808501526132be60a08401846131da565b85830360a08701526132d1838284613222565b925050506132e260c08401846131da565b85830360c08701526132f5838284613222565b9250505061330960e0850160e08501613254565b61012061331a81860182860161325d565b509392505050565b600061010061333183896131aa565b8060a084015261334381840188613266565b90508560c084015282810360e084015261335e818587613222565b98975050505050505050565b60006020828403121561337c57600080fd5b5051919050565b60208082526023908201527f43616e6e6f74206265207468652073616d65207472616e73616374696f6e496e6040820152620c8caf60eb1b606082015260800190565b6080815260006133d96080830187613266565b85602084015282810360408401526133f18186613266565b91505082606083015295945050505050565b60a08101612bca82846131aa565b6020808252601c908201527b24b73b30b634b210383934b7b910313637b1b590333937b73a34b2b960211b604082015260600190565b6104c081016104208085843761331a818401856131aa565b6000823561019e1983360301811261347657600080fd5b90910192915050565b600060c0820161348f83876131aa565b60c060a084015283905260e0600584901b830181019083018560005b868110156134e45785840360df190183526134cf846134ca848b61345f565b613266565b935060209283019291909101906001016134ab565b5091979650505050505050565b634e487b7160e01b600052601160045260246000fd5b6001600160401b03818116838216019080821115613527576135276134f1565b5092915050565b6020808252601d908201527f426c6f636b73206e6565647320746f2062652073756273657175656e74000000604082015260600190565b6000610420808484379190910192915050565b81835260006020808501808196508560051b810191508460005b878110156134e45782840389526135ad846134ca848a61345f565b98850198935090840190600101613592565b60006104e0610420808885376135d7818501886131aa565b50806104c08401526135ec8184018587613578565b979650505050505050565b600063ffffffff808716835280861660208401525060606040830152613621606083018486613578565b9695505050505050565b60006001820161363d5761363d6134f1565b5060010190565b6000602080838503121561365757600080fd5b82516001600160401b038082111561366e57600080fd5b818501915085601f83011261368257600080fd5b81518181111561369457613694612f40565b8060051b91506136a5848301612f56565b81815291830184019184810190888411156136bf57600080fd5b938501935b8385101561335e578451825293850193908501906136c4565b8082028115828204841417612bca57612bca6134f1565b81810381811115612bca57612bca6134f1565b600081613716576137166134f1565b506000190190565b8183823760009101908152919050565b6001600160401b0391909116815260200190565b60006080828403121561375457600080fd5b604051608081016001600160401b038111828210171561377657613776612f40565b80604052508251815260208301516020820152604083015161379781612c6f565b604082015260608301516137aa81612e6c565b60608201529392505050565b6000606080830160018060a01b03808816855260208188168187015260408481880152838851808652608095508589019150838a0160005b8281101561382e578151805185528681015187860152858101518816868601528901516001600160601b03168985015292870192908501906001016137ee565b50919c9b505050505050505050505050565b6104208101818360005b602181101561386957815183526020928301929091019060010161384a565b50505092915050565b6020808252602b908201527f496e697469616c697a61626c653a20636f6e7472616374206973206e6f74206960408201526a6e697469616c697a696e6760a81b606082015260800190565b634e487b7160e01b600052601260045260246000fd5b6000826138e2576138e26138bd565b500490565b6000826138f6576138f66138bd565b500690565b600081518084526020808501945080840160005b8381101561392b5781518752958201959082019060010161390f565b509495945050505050565b60608152600061394960608301866138fb565b828103602084015261395b81866138fb565b9050828103604084015261362181856138fb565b60006020828403121561398157600080fd5b8151801515811461245457600080fd5b80820180821115612bca57612bca6134f1565b60008183825b60048110156139c95781518352602092830192909101906001016139aa565b50505060808201905092915050565b634e487b7160e01b600052602160045260246000fdfea2646970667358221220343dcbddb4e8f44b83ac927bf204197e8550304a1309adccdb3aed2e76a3668a64736f6c63430008110033",
  "immutableReferences": {},
  "source": "// SPDX-License-Identifier: CC0-1.0\n\n/**\nContract to enable someone to challenge a proposed transaction, on a number of\ngrounds.\n@Author Westlad\n*/\n\npragma solidity ^0.8.0;\n\nimport './Utils.sol';\nimport './ChallengesUtil.sol';\nimport './Config.sol';\nimport './Stateful.sol';\n\ncontract Challenges is Stateful, Config {\n    mapping(bytes32 => address) public committers;\n\n    function initialize() public override(Stateful, Config) initializer {\n        Stateful.initialize();\n        Config.initialize();\n    }\n\n    /**\n  Check that the block correctly updates the leafCount.  Note that the leafCount\n  is actually the value AFTER the commitments are added to the Merkle tree.\n  */\n    function challengeLeafCountCorrect(\n        Block calldata priorBlockL2, // the block immediately prior to this one\n        Block calldata blockL2,\n        Transaction[] calldata transactions,\n        bytes32 salt\n    ) external {\n        checkCommit(msg.data);\n        // check if the block hash is correct and the block hash exists for the block and prior block. Also if the transactions are part of these block\n        state.isBlockReal(priorBlockL2);\n        state.areBlockAndTransactionsReal(blockL2, transactions);\n\n        require(\n            Utils.getBlockNumberL2(priorBlockL2.packedInfo) + 1 ==\n                Utils.getBlockNumberL2(blockL2.packedInfo),\n            'Blocks needs to be subsequent'\n        );\n        ChallengesUtil.libChallengeLeafCountCorrect(\n            Utils.getLeafCount(priorBlockL2.packedInfo),\n            Utils.getLeafCount(blockL2.packedInfo),\n            transactions\n        );\n        challengeAccepted(blockL2);\n    }\n\n    function challengeNewFrontierCorrect(\n        Block calldata priorBlockL2, // the block immediately prior to this one\n        bytes32[33] calldata frontierBeforeBlock, // frontier path before prior block is added. The same frontier used in calculating root when prior block is added\n        Block calldata blockL2,\n        Transaction[] calldata transactions,\n        bytes32 salt\n    ) external {\n        checkCommit(msg.data);\n        // check if the block hash is correct and the block hash exists for the block and prior block\n        state.isBlockReal(priorBlockL2);\n        state.areBlockAndTransactionsReal(blockL2, transactions);\n\n        require(\n            Utils.getBlockNumberL2(priorBlockL2.packedInfo) + 1 ==\n                Utils.getBlockNumberL2(blockL2.packedInfo),\n            'Blocks needs to be subsequent'\n        );\n\n        bytes32 frontierBeforeHash = keccak256(abi.encodePacked(frontierBeforeBlock));\n        require(frontierBeforeHash == priorBlockL2.frontierHash, 'Invalid prior block frontier');\n\n        // see if the challenge is valid\n        ChallengesUtil.libChallengeNewFrontierCorrect(frontierBeforeBlock, blockL2, transactions);\n        challengeAccepted(blockL2);\n    }\n\n    /**\n  Checks that the new merkle tree root of a block is incorrect. This could be because the\n  merkle tree that stores commitments has been incorrectly updated. To verify this, we first calculate\n  this challenged block's frontier using the prior block. Using this frontier, we can work out what the root\n  for the current block should be given the set of transactions in said block. Finally, this calculated root\n  is compared to the root stored within the block.\n  */\n    function challengeNewRootCorrect(\n        bytes32[33] calldata frontierAfterBlock, // frontier after all the block commitments has been added.\n        Block calldata blockL2,\n        bytes32 salt\n    ) external {\n        checkCommit(msg.data);\n\n        // check that the current block hash is correct\n        state.isBlockReal(blockL2);\n\n        bytes32 frontierAfterHash = Utils.hashFrontier(frontierAfterBlock);\n        require(frontierAfterHash == blockL2.frontierHash, 'Invalid prior block frontier');\n\n        // see if the challenge is valid\n        ChallengesUtil.libChallengeNewRootCorrect(frontierAfterBlock, blockL2);\n        challengeAccepted(blockL2);\n    }\n\n    /**\n  Checks that a commitment has not been part of an L2 block before (i.e. a duplicate). If the duplicate commitment\n  occurs within the same block, there is an additional check to ensure they are not at the same index\n  (i.e. a trivial duplicate).\n  */\n    function challengeCommitment(\n        TransactionInfoBlock calldata transaction1,\n        TransactionInfoBlock calldata transaction2,\n        uint256 commitment1Index,\n        uint256 commitment2Index,\n        bytes32 salt\n    ) external {\n        checkCommit(msg.data);\n\n        // first, check we have real, in-train, contiguous blocks\n        state.areBlockAndTransactionReal(\n            transaction1.blockL2,\n            transaction1.transaction,\n            transaction1.transactionIndex,\n            transaction1.transactionSiblingPath\n        );\n        state.areBlockAndTransactionReal(\n            transaction2.blockL2,\n            transaction2.transaction,\n            transaction2.transactionIndex,\n            transaction2.transactionSiblingPath\n        );\n\n        uint64 blockL2NumberTx1 = Utils.getBlockNumberL2(transaction1.blockL2.packedInfo);\n        uint64 blockL2NumberTx2 = Utils.getBlockNumberL2(transaction2.blockL2.packedInfo);\n\n        if (blockL2NumberTx1 == blockL2NumberTx2) {\n            require(\n                transaction1.transactionIndex != transaction2.transactionIndex,\n                'Cannot be the same transactionIndex'\n            );\n        }\n\n        ChallengesUtil.libChallengeCommitment(\n            transaction1.transaction,\n            commitment1Index,\n            transaction2.transaction,\n            commitment2Index\n        );\n\n        // Delete the latest block of the two\n        if (blockL2NumberTx1 > blockL2NumberTx2) {\n            challengeAccepted(transaction1.blockL2);\n        } else {\n            challengeAccepted(transaction2.blockL2);\n        }\n    }\n\n    /**\n  Checks that a nullifier has not been part of an L2 block before (i.e. a duplicate). If the duplicate nullifier\n  occurs within the same block, there is an additional check to ensure they are not at the same index\n  (i.e. a trivial duplicate).\n  */\n    function challengeNullifier(\n        TransactionInfoBlock calldata transaction1,\n        TransactionInfoBlock calldata transaction2,\n        uint256 nullifier1Index,\n        uint256 nullifier2Index,\n        bytes32 salt\n    ) external {\n        checkCommit(msg.data);\n\n        // first, check we have real, in-train, contiguous blocks\n        state.areBlockAndTransactionReal(\n            transaction1.blockL2,\n            transaction1.transaction,\n            transaction1.transactionIndex,\n            transaction1.transactionSiblingPath\n        );\n        state.areBlockAndTransactionReal(\n            transaction2.blockL2,\n            transaction2.transaction,\n            transaction2.transactionIndex,\n            transaction2.transactionSiblingPath\n        );\n\n        uint64 blockL2NumberTx1 = Utils.getBlockNumberL2(transaction1.blockL2.packedInfo);\n        uint64 blockL2NumberTx2 = Utils.getBlockNumberL2(transaction2.blockL2.packedInfo);\n\n        if (blockL2NumberTx1 == blockL2NumberTx2) {\n            require(\n                transaction1.transactionIndex != transaction2.transactionIndex,\n                'Cannot be the same transactionIndex'\n            );\n        }\n\n        ChallengesUtil.libChallengeNullifier(\n            transaction1.transaction,\n            nullifier1Index,\n            transaction2.transaction,\n            nullifier2Index\n        );\n\n        // Delete the latest block of the two\n        if (blockL2NumberTx1 > blockL2NumberTx2) {\n            challengeAccepted(transaction1.blockL2);\n        } else {\n            challengeAccepted(transaction2.blockL2);\n        }\n    }\n\n    function challengeProofVerification(\n        TransactionInfoBlock calldata transaction,\n        Block[] calldata blockL2ContainingHistoricRoot,\n        uint256[8] memory uncompressedProof,\n        bytes32 salt\n    ) external {\n        checkCommit(msg.data);\n        state.areBlockAndTransactionReal(\n            transaction.blockL2,\n            transaction.transaction,\n            transaction.transactionIndex,\n            transaction.transactionSiblingPath\n        );\n\n        require(\n            blockL2ContainingHistoricRoot.length == transaction.transaction.nullifiers.length,\n            'Invalid number of blocks L2 containing historic root'\n        );\n\n        PublicInputs memory extraPublicInputs = PublicInputs(\n            new uint256[](transaction.transaction.nullifiers.length),\n            super.getMaticAddress()\n        );\n\n        for (uint256 i = 0; i < transaction.transaction.nullifiers.length; ++i) {\n            if (uint256(transaction.transaction.nullifiers[i]) != 0) {\n                state.isBlockReal(blockL2ContainingHistoricRoot[i]);\n\n                uint64 historicblockNumberL2 = Utils.getHistoricRoot(\n                    transaction.transaction.historicRootBlockNumberL2,\n                    i\n                );\n\n                require(\n                    historicblockNumberL2 ==\n                        Utils.getBlockNumberL2(blockL2ContainingHistoricRoot[i].packedInfo),\n                    'Incorrect historic root block'\n                );\n\n                extraPublicInputs.roots[i] = uint256(blockL2ContainingHistoricRoot[i].root);\n            }\n        }\n\n        // now we need to check that the proof is correct\n        ChallengesUtil.libChallengeProofVerification(\n            transaction.transaction,\n            extraPublicInputs,\n            uncompressedProof,\n            state.getVerificationKey(Utils.getCircuitHash(transaction.transaction.packedInfo))\n        );\n        challengeAccepted(transaction.blockL2);\n    }\n\n    function challengeHistoricRootBlockNumber(TransactionInfoBlock calldata transaction) external {\n        checkCommit(msg.data);\n        state.areBlockAndTransactionReal(\n            transaction.blockL2,\n            transaction.transaction,\n            transaction.transactionIndex,\n            transaction.transactionSiblingPath\n        );\n\n        // Unpack the historic block numbers, they are packed in 256bits and so 4 x 64 historicRootBlockNumbers are unpacked.\n        uint64[] memory historicRootBlockNumbers = new uint64[](\n            transaction.transaction.historicRootBlockNumberL2.length * 4\n        );\n\n        for (uint256 i = 0; i < historicRootBlockNumbers.length; ++i) {\n            historicRootBlockNumbers[i] = Utils.getHistoricRoot(\n                transaction.transaction.historicRootBlockNumberL2,\n                i\n            );\n        }\n\n        for (uint256 i = 0; i < transaction.transaction.nullifiers.length; ++i) {\n            if (uint256(historicRootBlockNumbers[i]) >= state.getNumberOfL2Blocks()) {\n                challengeAccepted(transaction.blockL2);\n                return;\n            }\n        }\n\n        // Historic Block Numbers are packed in 256bits and so always results in multiples of 4\n        // if nullifiers are not multiple of 4 we need to ensure these \"extra\" historic block numbers are zero.\n        for (\n            uint256 i = historicRootBlockNumbers.length - 1;\n            i >= transaction.transaction.nullifiers.length;\n            --i\n        ) {\n            if (historicRootBlockNumbers[i] != uint64(0)) {\n                challengeAccepted(transaction.blockL2);\n                return;\n            }\n        }\n\n        require(false, 'Historic roots are not greater than L2BlockNumber on chain');\n    }\n\n    // This gets called when a challenge succeeds\n    function challengeAccepted(Block calldata badBlock) private {\n        // Check to ensure that the block being challenged is less than a week old\n        uint64 blockNumberL2 = Utils.getBlockNumberL2(badBlock.packedInfo);\n        require(\n            state.getBlockData(blockNumberL2).time >= (block.timestamp - 7 days),\n            'Cannot challenge block'\n        );\n        // emit the leafCount where the bad block was added. Timber will pick this\n        // up and rollback its database to that point.  We emit the event from\n        // State.sol because Timber gets confused if its events come from two\n        // different contracts (it uses the contract name as part of the db\n        // connection - we need to change that).\n        emit Rollback(blockNumberL2);\n        // we need to remove the block that has been successfully\n        // challenged from the linked list of blocks and all of the subsequent\n        // blocks\n        BlockData[] memory badBlocks = removeBlockHashes(blockNumberL2);\n        // remove the proposer and give the proposer's block stake to the challenger\n        state.rewardChallenger(msg.sender, Utils.getProposer(badBlock.packedInfo), badBlocks);\n    }\n\n    function removeBlockHashes(uint64 blockNumberL2) internal returns (BlockData[] memory) {\n        uint256 lastBlock = state.getNumberOfL2Blocks() - 1;\n        BlockData[] memory badBlocks = new BlockData[](lastBlock - blockNumberL2 + 1);\n        for (uint256 i = 0; i <= uint256(lastBlock - blockNumberL2); i++) {\n            BlockData memory blockData = state.popBlockData();\n            state.setBlockStakeWithdrawn(blockData.blockHash);\n            badBlocks[i] = blockData;\n        }\n        require(\n            state.getNumberOfL2Blocks() == uint256(blockNumberL2),\n            'Number remaining not as expected.'\n        );\n        return badBlocks;\n    }\n\n    //To prevent frontrunning, we need to commit to a challenge before we send it\n    function commitToChallenge(bytes32 commitHash) external {\n        require(committers[commitHash] == address(0), 'Hash already committed to');\n        committers[commitHash] = msg.sender;\n        emit CommittedToChallenge(commitHash, msg.sender);\n    }\n\n    // and having sent it, we need to check that commitment to a challenge from\n    // within the challenge function using this function:\n    function checkCommit(bytes calldata messageData) private {\n        bytes32 hash = keccak256(messageData);\n        require(committers[hash] == msg.sender, 'Commitment hash is invalid');\n        delete committers[hash];\n    }\n}\n",
  "sourcePath": "/app/contracts/Challenges.sol",
  "compiler": {
    "name": "solc",
    "version": "0.8.17+commit.8df45f5f.Emscripten.clang"
  },
  "schemaVersion": "3.4.10",
  "updatedAt": "2022-12-08T15:25:52.276Z",
  "networkType": "ethereum",
  "devdoc": {
    "kind": "dev",
    "methods": {
      "getBlockStake()": {
        "details": "Get block stake for a proposer"
      },
      "getBootChallenger()": {
        "details": "Get boot challenger address"
      },
      "getBootProposer()": {
        "details": "Get boot proposer address"
      },
      "getMaticAddress()": {
        "details": "Get Matic address (fee token for proposers payment)"
      },
      "getMaxProposers()": {
        "details": "Get maximum number of proposers"
      },
      "getMinimumStake()": {
        "details": "Get minimum stake for a proposer"
      },
      "getProposerSetCount()": {
        "details": "Get proposerset count in PoS"
      },
      "getRotateProposerBlocks()": {
        "details": "Get rotate proposer blocks for the current proposer"
      },
      "getSprintsInSpan()": {
        "details": "Get sprints in span in PoS"
      },
      "owner()": {
        "details": "Tells the address of the owner",
        "returns": {
          "_0": "the address of the owner"
        }
      },
      "removeRestriction(address)": {
        "details": "Remove token restriction"
      },
      "setBlockStake(uint96)": {
        "details": "Set block stake for a proposer"
      },
      "setBootChallenger(address)": {
        "details": "Set boot challenger address"
      },
      "setBootProposer(address)": {
        "details": "Set boot proposer address"
      },
      "setMaticAddress(address)": {
        "details": "Set Matic address (fee token for proposers payment)"
      },
      "setMaxProposers(uint256)": {
        "details": "Set maximum number of proposers"
      },
      "setMinimumStake(uint96)": {
        "details": "Set minimum stake for a proposer"
      },
      "setProposerSetCount(uint256)": {
        "details": "Set proposerset count in PoS"
      },
      "setRestriction(address,uint256,uint256)": {
        "details": "Set token restriction"
      },
      "setRotateProposerBlocks(uint256)": {
        "details": "Set rotate proposer blocks for the current proposer"
      },
      "setSprintsInSpan(uint256)": {
        "details": "Set sprints in span in PoS"
      },
      "transferOwnership(address)": {
        "details": "Allows the current owner to transfer control of the contract to a newOwner.",
        "params": {
          "newOwner": "The address to transfer ownership to."
        }
      }
    },
    "version": 1
  },
  "userdoc": {
    "events": {
      "NewLeaf(uint256,bytes32,bytes32)": {
        "notice": "These events are what the merkle-tree microservice's filters will listen for."
      }
    },
    "kind": "user",
    "methods": {
      "challengeCommitment(((uint256,bytes32,bytes32,bytes32,bytes32),(uint256,uint256[],bytes32,bytes32,bytes32,bytes32[],bytes32[],bytes32[2],uint256[4]),uint256,bytes32[]),((uint256,bytes32,bytes32,bytes32,bytes32),(uint256,uint256[],bytes32,bytes32,bytes32,bytes32[],bytes32[],bytes32[2],uint256[4]),uint256,bytes32[]),uint256,uint256,bytes32)": {
        "notice": "Checks that a commitment has not been part of an L2 block before (i.e. a duplicate). If the duplicate commitment occurs within the same block, there is an additional check to ensure they are not at the same index (i.e. a trivial duplicate)."
      },
      "challengeLeafCountCorrect((uint256,bytes32,bytes32,bytes32,bytes32),(uint256,bytes32,bytes32,bytes32,bytes32),(uint256,uint256[],bytes32,bytes32,bytes32,bytes32[],bytes32[],bytes32[2],uint256[4])[],bytes32)": {
        "notice": "Check that the block correctly updates the leafCount.  Note that the leafCount is actually the value AFTER the commitments are added to the Merkle tree."
      },
      "challengeNewRootCorrect(bytes32[33],(uint256,bytes32,bytes32,bytes32,bytes32),bytes32)": {
        "notice": "Checks that the new merkle tree root of a block is incorrect. This could be because the merkle tree that stores commitments has been incorrectly updated. To verify this, we first calculate this challenged block's frontier using the prior block. Using this frontier, we can work out what the root for the current block should be given the set of transactions in said block. Finally, this calculated root is compared to the root stored within the block."
      },
      "challengeNullifier(((uint256,bytes32,bytes32,bytes32,bytes32),(uint256,uint256[],bytes32,bytes32,bytes32,bytes32[],bytes32[],bytes32[2],uint256[4]),uint256,bytes32[]),((uint256,bytes32,bytes32,bytes32,bytes32),(uint256,uint256[],bytes32,bytes32,bytes32,bytes32[],bytes32[],bytes32[2],uint256[4]),uint256,bytes32[]),uint256,uint256,bytes32)": {
        "notice": "Checks that a nullifier has not been part of an L2 block before (i.e. a duplicate). If the duplicate nullifier occurs within the same block, there is an additional check to ensure they are not at the same index (i.e. a trivial duplicate)."
      }
    },
    "version": 1
  }
}