{
  "contractName": "Challenges",
  "abi": [
    {
      "inputs": [
        {
          "internalType": "bytes32",
          "name": "commitmentHash",
          "type": "bytes32"
        }
      ],
      "name": "CommitmentNotEscrowed",
      "type": "error"
    },
    {
      "inputs": [],
      "name": "InvalidBlockSize",
      "type": "error"
    },
    {
      "inputs": [],
      "name": "InvalidTransactionHash",
      "type": "error"
    },
    {
      "inputs": [],
      "name": "InvalidTransactionSize",
      "type": "error"
    },
    {
      "anonymous": false,
      "inputs": [],
      "name": "BlockProposed",
      "type": "event"
    },
    {
      "anonymous": false,
      "inputs": [
        {
          "indexed": false,
          "internalType": "bytes32",
          "name": "commitHash",
          "type": "bytes32"
        },
        {
          "indexed": false,
          "internalType": "address",
          "name": "sender",
          "type": "address"
        }
      ],
      "name": "CommittedToChallenge",
      "type": "event"
    },
    {
      "anonymous": false,
      "inputs": [
        {
          "indexed": false,
          "internalType": "uint8",
          "name": "version",
          "type": "uint8"
        }
      ],
      "name": "Initialized",
      "type": "event"
    },
    {
      "anonymous": false,
      "inputs": [
        {
          "indexed": false,
          "internalType": "bytes32",
          "name": "withdrawTransactionHash",
          "type": "bytes32"
        },
        {
          "indexed": false,
          "internalType": "address",
          "name": "paidBy",
          "type": "address"
        },
        {
          "indexed": false,
          "internalType": "uint256",
          "name": "amount",
          "type": "uint256"
        }
      ],
      "name": "InstantWithdrawalRequested",
      "type": "event"
    },
    {
      "anonymous": false,
      "inputs": [
        {
          "indexed": false,
          "internalType": "address",
          "name": "addr",
          "type": "address"
        }
      ],
      "name": "NewBootChallengerSet",
      "type": "event"
    },
    {
      "anonymous": false,
      "inputs": [
        {
          "indexed": false,
          "internalType": "address",
          "name": "addr",
          "type": "address"
        }
      ],
      "name": "NewBootProposerSet",
      "type": "event"
    },
    {
      "anonymous": false,
      "inputs": [
        {
          "indexed": false,
          "internalType": "address",
          "name": "proposer",
          "type": "address"
        }
      ],
      "name": "NewCurrentProposer",
      "type": "event"
    },
    {
      "anonymous": false,
      "inputs": [
        {
          "indexed": false,
          "internalType": "uint256",
          "name": "leafIndex",
          "type": "uint256"
        },
        {
          "indexed": false,
          "internalType": "bytes32",
          "name": "leafValue",
          "type": "bytes32"
        },
        {
          "indexed": false,
          "internalType": "bytes32",
          "name": "root",
          "type": "bytes32"
        }
      ],
      "name": "NewLeaf",
      "type": "event"
    },
    {
      "anonymous": false,
      "inputs": [
        {
          "indexed": false,
          "internalType": "uint256",
          "name": "minLeafIndex",
          "type": "uint256"
        },
        {
          "indexed": false,
          "internalType": "bytes32[]",
          "name": "leafValues",
          "type": "bytes32[]"
        },
        {
          "indexed": false,
          "internalType": "bytes32",
          "name": "root",
          "type": "bytes32"
        }
      ],
      "name": "NewLeaves",
      "type": "event"
    },
    {
      "anonymous": false,
      "inputs": [
        {
          "indexed": false,
          "internalType": "address",
          "name": "previousOwner",
          "type": "address"
        },
        {
          "indexed": false,
          "internalType": "address",
          "name": "newOwner",
          "type": "address"
        }
      ],
      "name": "OwnershipTransferred",
      "type": "event"
    },
    {
      "anonymous": false,
      "inputs": [
        {
          "indexed": false,
          "internalType": "uint64",
          "name": "blockNumberL2",
          "type": "uint64"
        }
      ],
      "name": "Rollback",
      "type": "event"
    },
    {
      "anonymous": false,
      "inputs": [
        {
          "indexed": false,
          "internalType": "address",
          "name": "ercAddress",
          "type": "address"
        },
        {
          "indexed": false,
          "internalType": "uint256",
          "name": "amount",
          "type": "uint256"
        }
      ],
      "name": "ShieldBalanceTransferred",
      "type": "event"
    },
    {
      "anonymous": false,
      "inputs": [],
      "name": "TransactionSubmitted",
      "type": "event"
    },
    {
      "inputs": [],
      "name": "_owner",
      "outputs": [
        {
          "internalType": "address",
          "name": "",
          "type": "address"
        }
      ],
      "stateMutability": "view",
      "type": "function",
      "constant": true
    },
    {
      "inputs": [
        {
          "internalType": "bytes32",
          "name": "",
          "type": "bytes32"
        }
      ],
      "name": "committers",
      "outputs": [
        {
          "internalType": "address",
          "name": "",
          "type": "address"
        }
      ],
      "stateMutability": "view",
      "type": "function",
      "constant": true
    },
    {
      "inputs": [],
      "name": "getBlockStake",
      "outputs": [
        {
          "internalType": "uint96",
          "name": "",
          "type": "uint96"
        }
      ],
      "stateMutability": "view",
      "type": "function",
      "constant": true
    },
    {
      "inputs": [],
      "name": "getBootChallenger",
      "outputs": [
        {
          "internalType": "address",
          "name": "",
          "type": "address"
        }
      ],
      "stateMutability": "view",
      "type": "function",
      "constant": true
    },
    {
      "inputs": [],
      "name": "getBootProposer",
      "outputs": [
        {
          "internalType": "address",
          "name": "",
          "type": "address"
        }
      ],
      "stateMutability": "view",
      "type": "function",
      "constant": true
    },
    {
      "inputs": [],
      "name": "getFeeL2TokenAddress",
      "outputs": [
        {
          "internalType": "address",
          "name": "",
          "type": "address"
        }
      ],
      "stateMutability": "view",
      "type": "function",
      "constant": true
    },
    {
      "inputs": [],
      "name": "getMaxProposers",
      "outputs": [
        {
          "internalType": "uint256",
          "name": "",
          "type": "uint256"
        }
      ],
      "stateMutability": "view",
      "type": "function",
      "constant": true
    },
    {
      "inputs": [],
      "name": "getMinimumStake",
      "outputs": [
        {
          "internalType": "uint256",
          "name": "",
          "type": "uint256"
        }
      ],
      "stateMutability": "view",
      "type": "function",
      "constant": true
    },
    {
      "inputs": [],
      "name": "getProposerSetCount",
      "outputs": [
        {
          "internalType": "uint256",
          "name": "",
          "type": "uint256"
        }
      ],
      "stateMutability": "view",
      "type": "function",
      "constant": true
    },
    {
      "inputs": [
        {
          "internalType": "address",
          "name": "tokenAddr",
          "type": "address"
        }
      ],
      "name": "getRestrictionDeposit",
      "outputs": [
        {
          "internalType": "uint256",
          "name": "",
          "type": "uint256"
        }
      ],
      "stateMutability": "view",
      "type": "function",
      "constant": true
    },
    {
      "inputs": [
        {
          "internalType": "address",
          "name": "tokenAddr",
          "type": "address"
        }
      ],
      "name": "getRestrictionWithdraw",
      "outputs": [
        {
          "internalType": "uint256",
          "name": "",
          "type": "uint256"
        }
      ],
      "stateMutability": "view",
      "type": "function",
      "constant": true
    },
    {
      "inputs": [],
      "name": "getRotateProposerBlocks",
      "outputs": [
        {
          "internalType": "uint256",
          "name": "",
          "type": "uint256"
        }
      ],
      "stateMutability": "view",
      "type": "function",
      "constant": true
    },
    {
      "inputs": [],
      "name": "getSprintsInSpan",
      "outputs": [
        {
          "internalType": "uint256",
          "name": "",
          "type": "uint256"
        }
      ],
      "stateMutability": "view",
      "type": "function",
      "constant": true
    },
    {
      "inputs": [],
      "name": "owner",
      "outputs": [
        {
          "internalType": "address",
          "name": "",
          "type": "address"
        }
      ],
      "stateMutability": "view",
      "type": "function",
      "constant": true
    },
    {
      "inputs": [
        {
          "internalType": "address",
          "name": "tokenAddr",
          "type": "address"
        }
      ],
      "name": "removeRestriction",
      "outputs": [],
      "stateMutability": "nonpayable",
      "type": "function"
    },
    {
      "inputs": [
        {
          "internalType": "uint96",
          "name": "_blockStake",
          "type": "uint96"
        }
      ],
      "name": "setBlockStake",
      "outputs": [],
      "stateMutability": "nonpayable",
      "type": "function"
    },
    {
      "inputs": [
        {
          "internalType": "address",
          "name": "challenger",
          "type": "address"
        }
      ],
      "name": "setBootChallenger",
      "outputs": [],
      "stateMutability": "nonpayable",
      "type": "function"
    },
    {
      "inputs": [
        {
          "internalType": "address",
          "name": "proposer",
          "type": "address"
        }
      ],
      "name": "setBootProposer",
      "outputs": [],
      "stateMutability": "nonpayable",
      "type": "function"
    },
    {
      "inputs": [
        {
          "internalType": "address",
          "name": "_feeL2TokenAddress",
          "type": "address"
        }
      ],
      "name": "setFeeL2TokenAddress",
      "outputs": [],
      "stateMutability": "nonpayable",
      "type": "function"
    },
    {
      "inputs": [
        {
          "internalType": "uint256",
          "name": "_maxProposers",
          "type": "uint256"
        }
      ],
      "name": "setMaxProposers",
      "outputs": [],
      "stateMutability": "nonpayable",
      "type": "function"
    },
    {
      "inputs": [
        {
          "internalType": "uint96",
          "name": "_minimumStake",
          "type": "uint96"
        }
      ],
      "name": "setMinimumStake",
      "outputs": [],
      "stateMutability": "nonpayable",
      "type": "function"
    },
    {
      "inputs": [
        {
          "internalType": "uint256",
          "name": "_proposerSetCount",
          "type": "uint256"
        }
      ],
      "name": "setProposerSetCount",
      "outputs": [],
      "stateMutability": "nonpayable",
      "type": "function"
    },
    {
      "inputs": [
        {
          "internalType": "address",
          "name": "tokenAddr",
          "type": "address"
        },
        {
          "internalType": "uint256",
          "name": "depositAmount",
          "type": "uint256"
        },
        {
          "internalType": "uint256",
          "name": "withdrawAmount",
          "type": "uint256"
        }
      ],
      "name": "setRestriction",
      "outputs": [],
      "stateMutability": "nonpayable",
      "type": "function"
    },
    {
      "inputs": [
        {
          "internalType": "uint256",
          "name": "_rotateProposerBlocks",
          "type": "uint256"
        }
      ],
      "name": "setRotateProposerBlocks",
      "outputs": [],
      "stateMutability": "nonpayable",
      "type": "function"
    },
    {
      "inputs": [
        {
          "internalType": "uint256",
          "name": "_sprintsInSpan",
          "type": "uint256"
        }
      ],
      "name": "setSprintsInSpan",
      "outputs": [],
      "stateMutability": "nonpayable",
      "type": "function"
    },
    {
      "inputs": [
        {
          "internalType": "address payable",
          "name": "stateAddress",
          "type": "address"
        }
      ],
      "name": "setStateContract",
      "outputs": [],
      "stateMutability": "nonpayable",
      "type": "function"
    },
    {
      "inputs": [],
      "name": "state",
      "outputs": [
        {
          "internalType": "contract State",
          "name": "",
          "type": "address"
        }
      ],
      "stateMutability": "view",
      "type": "function",
      "constant": true
    },
    {
      "inputs": [
        {
          "internalType": "address",
          "name": "newOwner",
          "type": "address"
        }
      ],
      "name": "transferOwnership",
      "outputs": [],
      "stateMutability": "nonpayable",
      "type": "function"
    },
    {
      "inputs": [],
      "name": "initialize",
      "outputs": [],
      "stateMutability": "nonpayable",
      "type": "function"
    },
    {
      "inputs": [
        {
          "components": [
            {
              "internalType": "uint256",
              "name": "packedInfo",
              "type": "uint256"
            },
            {
              "internalType": "bytes32",
              "name": "root",
              "type": "bytes32"
            },
            {
              "internalType": "bytes32",
              "name": "previousBlockHash",
              "type": "bytes32"
            },
            {
              "internalType": "bytes32",
              "name": "frontierHash",
              "type": "bytes32"
            },
            {
              "internalType": "bytes32",
              "name": "transactionHashesRoot",
              "type": "bytes32"
            }
          ],
          "internalType": "struct Structures.Block",
          "name": "priorBlockL2",
          "type": "tuple"
        },
        {
          "components": [
            {
              "internalType": "uint256",
              "name": "packedInfo",
              "type": "uint256"
            },
            {
              "internalType": "bytes32",
              "name": "root",
              "type": "bytes32"
            },
            {
              "internalType": "bytes32",
              "name": "previousBlockHash",
              "type": "bytes32"
            },
            {
              "internalType": "bytes32",
              "name": "frontierHash",
              "type": "bytes32"
            },
            {
              "internalType": "bytes32",
              "name": "transactionHashesRoot",
              "type": "bytes32"
            }
          ],
          "internalType": "struct Structures.Block",
          "name": "blockL2",
          "type": "tuple"
        },
        {
          "components": [
            {
              "internalType": "uint256",
              "name": "packedInfo",
              "type": "uint256"
            },
            {
              "internalType": "uint256[]",
              "name": "historicRootBlockNumberL2",
              "type": "uint256[]"
            },
            {
              "internalType": "bytes32",
              "name": "tokenId",
              "type": "bytes32"
            },
            {
              "internalType": "bytes32",
              "name": "ercAddress",
              "type": "bytes32"
            },
            {
              "internalType": "bytes32",
              "name": "recipientAddress",
              "type": "bytes32"
            },
            {
              "internalType": "bytes32[]",
              "name": "commitments",
              "type": "bytes32[]"
            },
            {
              "internalType": "bytes32[]",
              "name": "nullifiers",
              "type": "bytes32[]"
            },
            {
              "internalType": "bytes32[2]",
              "name": "compressedSecrets",
              "type": "bytes32[2]"
            },
            {
              "internalType": "uint256[4]",
              "name": "proof",
              "type": "uint256[4]"
            }
          ],
          "internalType": "struct Structures.Transaction[]",
          "name": "transactions",
          "type": "tuple[]"
        },
        {
          "internalType": "bytes32",
          "name": "salt",
          "type": "bytes32"
        }
      ],
      "name": "challengeLeafCountCorrect",
      "outputs": [],
      "stateMutability": "nonpayable",
      "type": "function"
    },
    {
      "inputs": [
        {
          "components": [
            {
              "internalType": "uint256",
              "name": "packedInfo",
              "type": "uint256"
            },
            {
              "internalType": "bytes32",
              "name": "root",
              "type": "bytes32"
            },
            {
              "internalType": "bytes32",
              "name": "previousBlockHash",
              "type": "bytes32"
            },
            {
              "internalType": "bytes32",
              "name": "frontierHash",
              "type": "bytes32"
            },
            {
              "internalType": "bytes32",
              "name": "transactionHashesRoot",
              "type": "bytes32"
            }
          ],
          "internalType": "struct Structures.Block",
          "name": "priorBlockL2",
          "type": "tuple"
        },
        {
          "internalType": "bytes32[33]",
          "name": "frontierBeforeBlock",
          "type": "bytes32[33]"
        },
        {
          "components": [
            {
              "internalType": "uint256",
              "name": "packedInfo",
              "type": "uint256"
            },
            {
              "internalType": "bytes32",
              "name": "root",
              "type": "bytes32"
            },
            {
              "internalType": "bytes32",
              "name": "previousBlockHash",
              "type": "bytes32"
            },
            {
              "internalType": "bytes32",
              "name": "frontierHash",
              "type": "bytes32"
            },
            {
              "internalType": "bytes32",
              "name": "transactionHashesRoot",
              "type": "bytes32"
            }
          ],
          "internalType": "struct Structures.Block",
          "name": "blockL2",
          "type": "tuple"
        },
        {
          "components": [
            {
              "internalType": "uint256",
              "name": "packedInfo",
              "type": "uint256"
            },
            {
              "internalType": "uint256[]",
              "name": "historicRootBlockNumberL2",
              "type": "uint256[]"
            },
            {
              "internalType": "bytes32",
              "name": "tokenId",
              "type": "bytes32"
            },
            {
              "internalType": "bytes32",
              "name": "ercAddress",
              "type": "bytes32"
            },
            {
              "internalType": "bytes32",
              "name": "recipientAddress",
              "type": "bytes32"
            },
            {
              "internalType": "bytes32[]",
              "name": "commitments",
              "type": "bytes32[]"
            },
            {
              "internalType": "bytes32[]",
              "name": "nullifiers",
              "type": "bytes32[]"
            },
            {
              "internalType": "bytes32[2]",
              "name": "compressedSecrets",
              "type": "bytes32[2]"
            },
            {
              "internalType": "uint256[4]",
              "name": "proof",
              "type": "uint256[4]"
            }
          ],
          "internalType": "struct Structures.Transaction[]",
          "name": "transactions",
          "type": "tuple[]"
        },
        {
          "internalType": "bytes32",
          "name": "salt",
          "type": "bytes32"
        }
      ],
      "name": "challengeNewFrontierCorrect",
      "outputs": [],
      "stateMutability": "nonpayable",
      "type": "function"
    },
    {
      "inputs": [
        {
          "internalType": "bytes32[33]",
          "name": "frontierAfterBlock",
          "type": "bytes32[33]"
        },
        {
          "components": [
            {
              "internalType": "uint256",
              "name": "packedInfo",
              "type": "uint256"
            },
            {
              "internalType": "bytes32",
              "name": "root",
              "type": "bytes32"
            },
            {
              "internalType": "bytes32",
              "name": "previousBlockHash",
              "type": "bytes32"
            },
            {
              "internalType": "bytes32",
              "name": "frontierHash",
              "type": "bytes32"
            },
            {
              "internalType": "bytes32",
              "name": "transactionHashesRoot",
              "type": "bytes32"
            }
          ],
          "internalType": "struct Structures.Block",
          "name": "blockL2",
          "type": "tuple"
        },
        {
          "internalType": "bytes32",
          "name": "salt",
          "type": "bytes32"
        }
      ],
      "name": "challengeNewRootCorrect",
      "outputs": [],
      "stateMutability": "nonpayable",
      "type": "function"
    },
    {
      "inputs": [
        {
          "components": [
            {
              "components": [
                {
                  "internalType": "uint256",
                  "name": "packedInfo",
                  "type": "uint256"
                },
                {
                  "internalType": "bytes32",
                  "name": "root",
                  "type": "bytes32"
                },
                {
                  "internalType": "bytes32",
                  "name": "previousBlockHash",
                  "type": "bytes32"
                },
                {
                  "internalType": "bytes32",
                  "name": "frontierHash",
                  "type": "bytes32"
                },
                {
                  "internalType": "bytes32",
                  "name": "transactionHashesRoot",
                  "type": "bytes32"
                }
              ],
              "internalType": "struct Structures.Block",
              "name": "blockL2",
              "type": "tuple"
            },
            {
              "components": [
                {
                  "internalType": "uint256",
                  "name": "packedInfo",
                  "type": "uint256"
                },
                {
                  "internalType": "uint256[]",
                  "name": "historicRootBlockNumberL2",
                  "type": "uint256[]"
                },
                {
                  "internalType": "bytes32",
                  "name": "tokenId",
                  "type": "bytes32"
                },
                {
                  "internalType": "bytes32",
                  "name": "ercAddress",
                  "type": "bytes32"
                },
                {
                  "internalType": "bytes32",
                  "name": "recipientAddress",
                  "type": "bytes32"
                },
                {
                  "internalType": "bytes32[]",
                  "name": "commitments",
                  "type": "bytes32[]"
                },
                {
                  "internalType": "bytes32[]",
                  "name": "nullifiers",
                  "type": "bytes32[]"
                },
                {
                  "internalType": "bytes32[2]",
                  "name": "compressedSecrets",
                  "type": "bytes32[2]"
                },
                {
                  "internalType": "uint256[4]",
                  "name": "proof",
                  "type": "uint256[4]"
                }
              ],
              "internalType": "struct Structures.Transaction",
              "name": "transaction",
              "type": "tuple"
            },
            {
              "internalType": "uint256",
              "name": "transactionIndex",
              "type": "uint256"
            },
            {
              "internalType": "bytes32[]",
              "name": "transactionSiblingPath",
              "type": "bytes32[]"
            }
          ],
          "internalType": "struct Structures.TransactionInfoBlock",
          "name": "transaction1",
          "type": "tuple"
        },
        {
          "components": [
            {
              "components": [
                {
                  "internalType": "uint256",
                  "name": "packedInfo",
                  "type": "uint256"
                },
                {
                  "internalType": "bytes32",
                  "name": "root",
                  "type": "bytes32"
                },
                {
                  "internalType": "bytes32",
                  "name": "previousBlockHash",
                  "type": "bytes32"
                },
                {
                  "internalType": "bytes32",
                  "name": "frontierHash",
                  "type": "bytes32"
                },
                {
                  "internalType": "bytes32",
                  "name": "transactionHashesRoot",
                  "type": "bytes32"
                }
              ],
              "internalType": "struct Structures.Block",
              "name": "blockL2",
              "type": "tuple"
            },
            {
              "components": [
                {
                  "internalType": "uint256",
                  "name": "packedInfo",
                  "type": "uint256"
                },
                {
                  "internalType": "uint256[]",
                  "name": "historicRootBlockNumberL2",
                  "type": "uint256[]"
                },
                {
                  "internalType": "bytes32",
                  "name": "tokenId",
                  "type": "bytes32"
                },
                {
                  "internalType": "bytes32",
                  "name": "ercAddress",
                  "type": "bytes32"
                },
                {
                  "internalType": "bytes32",
                  "name": "recipientAddress",
                  "type": "bytes32"
                },
                {
                  "internalType": "bytes32[]",
                  "name": "commitments",
                  "type": "bytes32[]"
                },
                {
                  "internalType": "bytes32[]",
                  "name": "nullifiers",
                  "type": "bytes32[]"
                },
                {
                  "internalType": "bytes32[2]",
                  "name": "compressedSecrets",
                  "type": "bytes32[2]"
                },
                {
                  "internalType": "uint256[4]",
                  "name": "proof",
                  "type": "uint256[4]"
                }
              ],
              "internalType": "struct Structures.Transaction",
              "name": "transaction",
              "type": "tuple"
            },
            {
              "internalType": "uint256",
              "name": "transactionIndex",
              "type": "uint256"
            },
            {
              "internalType": "bytes32[]",
              "name": "transactionSiblingPath",
              "type": "bytes32[]"
            }
          ],
          "internalType": "struct Structures.TransactionInfoBlock",
          "name": "transaction2",
          "type": "tuple"
        },
        {
          "internalType": "uint256",
          "name": "commitment1Index",
          "type": "uint256"
        },
        {
          "internalType": "uint256",
          "name": "commitment2Index",
          "type": "uint256"
        },
        {
          "internalType": "bytes32",
          "name": "salt",
          "type": "bytes32"
        }
      ],
      "name": "challengeCommitment",
      "outputs": [],
      "stateMutability": "nonpayable",
      "type": "function"
    },
    {
      "inputs": [
        {
          "components": [
            {
              "components": [
                {
                  "internalType": "uint256",
                  "name": "packedInfo",
                  "type": "uint256"
                },
                {
                  "internalType": "bytes32",
                  "name": "root",
                  "type": "bytes32"
                },
                {
                  "internalType": "bytes32",
                  "name": "previousBlockHash",
                  "type": "bytes32"
                },
                {
                  "internalType": "bytes32",
                  "name": "frontierHash",
                  "type": "bytes32"
                },
                {
                  "internalType": "bytes32",
                  "name": "transactionHashesRoot",
                  "type": "bytes32"
                }
              ],
              "internalType": "struct Structures.Block",
              "name": "blockL2",
              "type": "tuple"
            },
            {
              "components": [
                {
                  "internalType": "uint256",
                  "name": "packedInfo",
                  "type": "uint256"
                },
                {
                  "internalType": "uint256[]",
                  "name": "historicRootBlockNumberL2",
                  "type": "uint256[]"
                },
                {
                  "internalType": "bytes32",
                  "name": "tokenId",
                  "type": "bytes32"
                },
                {
                  "internalType": "bytes32",
                  "name": "ercAddress",
                  "type": "bytes32"
                },
                {
                  "internalType": "bytes32",
                  "name": "recipientAddress",
                  "type": "bytes32"
                },
                {
                  "internalType": "bytes32[]",
                  "name": "commitments",
                  "type": "bytes32[]"
                },
                {
                  "internalType": "bytes32[]",
                  "name": "nullifiers",
                  "type": "bytes32[]"
                },
                {
                  "internalType": "bytes32[2]",
                  "name": "compressedSecrets",
                  "type": "bytes32[2]"
                },
                {
                  "internalType": "uint256[4]",
                  "name": "proof",
                  "type": "uint256[4]"
                }
              ],
              "internalType": "struct Structures.Transaction",
              "name": "transaction",
              "type": "tuple"
            },
            {
              "internalType": "uint256",
              "name": "transactionIndex",
              "type": "uint256"
            },
            {
              "internalType": "bytes32[]",
              "name": "transactionSiblingPath",
              "type": "bytes32[]"
            }
          ],
          "internalType": "struct Structures.TransactionInfoBlock",
          "name": "transaction1",
          "type": "tuple"
        },
        {
          "components": [
            {
              "components": [
                {
                  "internalType": "uint256",
                  "name": "packedInfo",
                  "type": "uint256"
                },
                {
                  "internalType": "bytes32",
                  "name": "root",
                  "type": "bytes32"
                },
                {
                  "internalType": "bytes32",
                  "name": "previousBlockHash",
                  "type": "bytes32"
                },
                {
                  "internalType": "bytes32",
                  "name": "frontierHash",
                  "type": "bytes32"
                },
                {
                  "internalType": "bytes32",
                  "name": "transactionHashesRoot",
                  "type": "bytes32"
                }
              ],
              "internalType": "struct Structures.Block",
              "name": "blockL2",
              "type": "tuple"
            },
            {
              "components": [
                {
                  "internalType": "uint256",
                  "name": "packedInfo",
                  "type": "uint256"
                },
                {
                  "internalType": "uint256[]",
                  "name": "historicRootBlockNumberL2",
                  "type": "uint256[]"
                },
                {
                  "internalType": "bytes32",
                  "name": "tokenId",
                  "type": "bytes32"
                },
                {
                  "internalType": "bytes32",
                  "name": "ercAddress",
                  "type": "bytes32"
                },
                {
                  "internalType": "bytes32",
                  "name": "recipientAddress",
                  "type": "bytes32"
                },
                {
                  "internalType": "bytes32[]",
                  "name": "commitments",
                  "type": "bytes32[]"
                },
                {
                  "internalType": "bytes32[]",
                  "name": "nullifiers",
                  "type": "bytes32[]"
                },
                {
                  "internalType": "bytes32[2]",
                  "name": "compressedSecrets",
                  "type": "bytes32[2]"
                },
                {
                  "internalType": "uint256[4]",
                  "name": "proof",
                  "type": "uint256[4]"
                }
              ],
              "internalType": "struct Structures.Transaction",
              "name": "transaction",
              "type": "tuple"
            },
            {
              "internalType": "uint256",
              "name": "transactionIndex",
              "type": "uint256"
            },
            {
              "internalType": "bytes32[]",
              "name": "transactionSiblingPath",
              "type": "bytes32[]"
            }
          ],
          "internalType": "struct Structures.TransactionInfoBlock",
          "name": "transaction2",
          "type": "tuple"
        },
        {
          "internalType": "uint256",
          "name": "nullifier1Index",
          "type": "uint256"
        },
        {
          "internalType": "uint256",
          "name": "nullifier2Index",
          "type": "uint256"
        },
        {
          "internalType": "bytes32",
          "name": "salt",
          "type": "bytes32"
        }
      ],
      "name": "challengeNullifier",
      "outputs": [],
      "stateMutability": "nonpayable",
      "type": "function"
    },
    {
      "inputs": [
        {
          "internalType": "uint256",
          "name": "xin",
          "type": "uint256"
        }
      ],
      "name": "decompressG1",
      "outputs": [
        {
          "internalType": "bool",
          "name": "",
          "type": "bool"
        },
        {
          "internalType": "uint256[2]",
          "name": "",
          "type": "uint256[2]"
        }
      ],
      "stateMutability": "nonpayable",
      "type": "function"
    },
    {
      "inputs": [
        {
          "internalType": "uint256[2]",
          "name": "xins",
          "type": "uint256[2]"
        }
      ],
      "name": "decompressG2",
      "outputs": [
        {
          "internalType": "bool",
          "name": "",
          "type": "bool"
        },
        {
          "internalType": "uint256[2][2]",
          "name": "",
          "type": "uint256[2][2]"
        }
      ],
      "stateMutability": "pure",
      "type": "function",
      "constant": true
    },
    {
      "inputs": [
        {
          "components": [
            {
              "components": [
                {
                  "internalType": "uint256",
                  "name": "packedInfo",
                  "type": "uint256"
                },
                {
                  "internalType": "bytes32",
                  "name": "root",
                  "type": "bytes32"
                },
                {
                  "internalType": "bytes32",
                  "name": "previousBlockHash",
                  "type": "bytes32"
                },
                {
                  "internalType": "bytes32",
                  "name": "frontierHash",
                  "type": "bytes32"
                },
                {
                  "internalType": "bytes32",
                  "name": "transactionHashesRoot",
                  "type": "bytes32"
                }
              ],
              "internalType": "struct Structures.Block",
              "name": "blockL2",
              "type": "tuple"
            },
            {
              "components": [
                {
                  "internalType": "uint256",
                  "name": "packedInfo",
                  "type": "uint256"
                },
                {
                  "internalType": "uint256[]",
                  "name": "historicRootBlockNumberL2",
                  "type": "uint256[]"
                },
                {
                  "internalType": "bytes32",
                  "name": "tokenId",
                  "type": "bytes32"
                },
                {
                  "internalType": "bytes32",
                  "name": "ercAddress",
                  "type": "bytes32"
                },
                {
                  "internalType": "bytes32",
                  "name": "recipientAddress",
                  "type": "bytes32"
                },
                {
                  "internalType": "bytes32[]",
                  "name": "commitments",
                  "type": "bytes32[]"
                },
                {
                  "internalType": "bytes32[]",
                  "name": "nullifiers",
                  "type": "bytes32[]"
                },
                {
                  "internalType": "bytes32[2]",
                  "name": "compressedSecrets",
                  "type": "bytes32[2]"
                },
                {
                  "internalType": "uint256[4]",
                  "name": "proof",
                  "type": "uint256[4]"
                }
              ],
              "internalType": "struct Structures.Transaction",
              "name": "transaction",
              "type": "tuple"
            },
            {
              "internalType": "uint256",
              "name": "transactionIndex",
              "type": "uint256"
            },
            {
              "internalType": "bytes32[]",
              "name": "transactionSiblingPath",
              "type": "bytes32[]"
            }
          ],
          "internalType": "struct Structures.TransactionInfoBlock",
          "name": "transaction",
          "type": "tuple"
        },
        {
          "components": [
            {
              "internalType": "uint256",
              "name": "packedInfo",
              "type": "uint256"
            },
            {
              "internalType": "bytes32",
              "name": "root",
              "type": "bytes32"
            },
            {
              "internalType": "bytes32",
              "name": "previousBlockHash",
              "type": "bytes32"
            },
            {
              "internalType": "bytes32",
              "name": "frontierHash",
              "type": "bytes32"
            },
            {
              "internalType": "bytes32",
              "name": "transactionHashesRoot",
              "type": "bytes32"
            }
          ],
          "internalType": "struct Structures.Block[]",
          "name": "blockL2ContainingHistoricRoot",
          "type": "tuple[]"
        },
        {
          "internalType": "bytes32",
          "name": "salt",
          "type": "bytes32"
        }
      ],
      "name": "challengeProofVerification",
      "outputs": [],
      "stateMutability": "nonpayable",
      "type": "function"
    },
    {
      "inputs": [
        {
          "components": [
            {
              "components": [
                {
                  "internalType": "uint256",
                  "name": "packedInfo",
                  "type": "uint256"
                },
                {
                  "internalType": "bytes32",
                  "name": "root",
                  "type": "bytes32"
                },
                {
                  "internalType": "bytes32",
                  "name": "previousBlockHash",
                  "type": "bytes32"
                },
                {
                  "internalType": "bytes32",
                  "name": "frontierHash",
                  "type": "bytes32"
                },
                {
                  "internalType": "bytes32",
                  "name": "transactionHashesRoot",
                  "type": "bytes32"
                }
              ],
              "internalType": "struct Structures.Block",
              "name": "blockL2",
              "type": "tuple"
            },
            {
              "components": [
                {
                  "internalType": "uint256",
                  "name": "packedInfo",
                  "type": "uint256"
                },
                {
                  "internalType": "uint256[]",
                  "name": "historicRootBlockNumberL2",
                  "type": "uint256[]"
                },
                {
                  "internalType": "bytes32",
                  "name": "tokenId",
                  "type": "bytes32"
                },
                {
                  "internalType": "bytes32",
                  "name": "ercAddress",
                  "type": "bytes32"
                },
                {
                  "internalType": "bytes32",
                  "name": "recipientAddress",
                  "type": "bytes32"
                },
                {
                  "internalType": "bytes32[]",
                  "name": "commitments",
                  "type": "bytes32[]"
                },
                {
                  "internalType": "bytes32[]",
                  "name": "nullifiers",
                  "type": "bytes32[]"
                },
                {
                  "internalType": "bytes32[2]",
                  "name": "compressedSecrets",
                  "type": "bytes32[2]"
                },
                {
                  "internalType": "uint256[4]",
                  "name": "proof",
                  "type": "uint256[4]"
                }
              ],
              "internalType": "struct Structures.Transaction",
              "name": "transaction",
              "type": "tuple"
            },
            {
              "internalType": "uint256",
              "name": "transactionIndex",
              "type": "uint256"
            },
            {
              "internalType": "bytes32[]",
              "name": "transactionSiblingPath",
              "type": "bytes32[]"
            }
          ],
          "internalType": "struct Structures.TransactionInfoBlock",
          "name": "transaction",
          "type": "tuple"
        }
      ],
      "name": "challengeHistoricRootBlockNumber",
      "outputs": [],
      "stateMutability": "nonpayable",
      "type": "function"
    },
    {
      "inputs": [
        {
          "internalType": "bytes32",
          "name": "commitHash",
          "type": "bytes32"
        }
      ],
      "name": "commitToChallenge",
      "outputs": [],
      "stateMutability": "nonpayable",
      "type": "function"
    }
  ],
  "bytecode": "0x608060405234801561001057600080fd5b5061445e806100206000396000f3fe608060405234801561001057600080fd5b50600436106101cd5760003560e01c80631182cefa146101d2578063120f66df14610211578063146eb222146102325780631c80a5a514610247578063250093071461025a57806328340f171461026d5780633195a4e71461027e57806342646c681461029157806360f611d5146102a25780636764a898146102b557806369a5b950146102bd5780638129fc1c146102d057806384afda19146102d8578063875840ce146102eb578063894f7d62146102f35780638da5cb5b146103065780639c18de931461030e578063a72b8d9814610321578063af52ca6914610334578063b0a9fd0f14610347578063b0c9569a14610362578063b13a8c071461036a578063b2bdfa7b1461037d578063b815472314610390578063b8424d42146103b1578063b8da51f1146103c4578063bb7affc1146103d7578063bf2c94db146103ea578063c19d93fb146103fd578063c2c5bb6e14610416578063c83daadc14610429578063d9ba1ca114610431578063d9bbd27814610444578063da5370ca1461045c578063efedffa81461046f578063f0b86f2714610477578063f2fde38b1461048a578063f560a7921461049d578063fc3ff81e146104b0575b600080fd5b6101fb6101e03660046134c1565b600c602052600090815260409020546001600160a01b031681565b60405161020891906134da565b60405180910390f35b61022461021f366004613503565b6104d1565b604051908152602001610208565b6102456102403660046134c1565b6104f4565b005b610245610255366004613539565b61053a565b6102456102683660046135db565b61077c565b6008546001600160a01b03166101fb565b61024561028c3660046134c1565b6108bd565b6009546001600160a01b03166101fb565b6102456102b0366004613667565b6108fa565b6101fb610b83565b6102456102cb366004613503565b610b92565b610245610bea565b6102456102e6366004613503565b610d04565b600654610224565b610245610301366004613700565b610dbd565b6101fb610e17565b61024561031c36600461371d565b610e26565b61024561032f366004613752565b610e81565b6102456103423660046134c1565b61145a565b6003546040516001600160601b039091168152602001610208565b600754610224565b610245610378366004613700565b611497565b6002546101fb906001600160a01b031681565b6103a361039e36600461385f565b6114f7565b6040516102089291906138bf565b6102456103bf366004613925565b6118ea565b6102456103d23660046134c1565b611aa6565b6102456103e5366004613503565b611b5d565b6102456103f83660046134c1565b611be1565b6000546101fb906201000090046001600160a01b031681565b610224610424366004613503565b611c1e565b600454610224565b61024561043f366004613503565b611c3c565b600254600160a01b90046001600160601b0316610224565b61024561046a366004613539565b611c96565b600554610224565b610245610485366004613992565b611e40565b610245610498366004613503565b612192565b6102456104ab366004613503565b612231565b6104c36104be3660046134c1565b6122b5565b6040516102089291906139c6565b6001600160a01b0381166000908152600b6020526040812060015b015492915050565b6104fc610e17565b6001600160a01b0316336001600160a01b0316146105355760405162461bcd60e51b815260040161052c90613a16565b60405180910390fd5b600555565b61054560003661240f565b6000546201000090046001600160a01b031663f41f339f8661056a60a0820182613a64565b60c089013561057c60e08b018b613a85565b6040518663ffffffff1660e01b815260040161059c959493929190613c46565b602060405180830381865afa1580156105b9573d6000803e3d6000fd5b505050506040513d601f19601f820116820180604052508101906105dd9190613c8e565b506000546201000090046001600160a01b031663f41f339f8561060360a0820182613a64565b60c088013561061560e08a018a613a85565b6040518663ffffffff1660e01b8152600401610635959493929190613c46565b602060405180830381865afa158015610652573d6000803e3d6000fd5b505050506040513d601f19601f820116820180604052508101906106769190613c8e565b50843560a090811c908535901c6001600160401b03808216908316036106bd578560c001358760c00135036106bd5760405162461bcd60e51b815260040161052c90613ca7565b73__ChallengesUtil________________________638185f01d6106e460a08a018a613a64565b876106f260a08b018b613a64565b886040518563ffffffff1660e01b81526004016107129493929190613cea565b60006040518083038186803b15801561072a57600080fd5b505af415801561073e573d6000803e3d6000fd5b50505050806001600160401b0316826001600160401b0316111561076a57610765876124b2565b610773565b610773866124b2565b50505050505050565b61078760003661240f565b600054604051635b67815b60e11b8152620100009091046001600160a01b03169063b6cf02b6906107bc908590600401613d27565b60006040518083038186803b1580156107d457600080fd5b505afa1580156107e8573d6000803e3d6000fd5b505050506000610820846021806020026040519081016040528092919082602160200280828437600092019190915250612631915050565b9050826060013581146108455760405162461bcd60e51b815260040161052c90613d35565b604051631355ea6560e01b815273__ChallengesUtil________________________90631355ea659061087e9087908790600401613d6b565b60006040518083038186803b15801561089657600080fd5b505af41580156108aa573d6000803e3d6000fd5b505050506108b7836124b2565b50505050565b6108c5610e17565b6001600160a01b0316336001600160a01b0316146108f55760405162461bcd60e51b815260040161052c90613a16565b600755565b61090560003661240f565b60005460405163097091e360e21b8152620100009091046001600160a01b0316906325c2478c9061093e90879087908790600401613da3565b60006040518083038186803b15801561095657600080fd5b505afa15801561096a573d6000803e3d6000fd5b505050843560a01c90506001600160401b038116600003610a185760005b6021811015610a125760008782602181106109a5576109a5613a00565b602002013514610a025760405162461bcd60e51b815260206004820152602260248201527f46726f6e74696572206e6565647320746f20626520756e696e697469616c697a604482015261195960f21b606482015260840161052c565b610a0b81613e2b565b9050610988565b50610b0d565b600054604051635b67815b60e11b8152620100009091046001600160a01b03169063b6cf02b690610a4d908a90600401613d27565b60006040518083038186803b158015610a6557600080fd5b505afa158015610a79573d6000803e3d6000fd5b5050506001600160401b0382169050610a97883560a01c6001613e44565b6001600160401b031614610abd5760405162461bcd60e51b815260040161052c90613e6b565b600086604051602001610ad09190613ea2565b60405160208183030381529060405280519060200120905087606001358114610b0b5760405162461bcd60e51b815260040161052c90613d35565b505b604051633b5260b960e01b815273__ChallengesUtil________________________90633b5260b990610b4a908990899089908990600401613efc565b60006040518083038186803b158015610b6257600080fd5b505af4158015610b76573d6000803e3d6000fd5b50505050610773856124b2565b600a546001600160a01b031690565b610b9a610e17565b6001600160a01b0316336001600160a01b031614610bca5760405162461bcd60e51b815260040161052c90613a16565b6001600160a01b03166000908152600b6020526040812081815560010155565b600054610100900460ff1615808015610c0a5750600054600160ff909116105b80610c245750303b158015610c24575060005460ff166001145b610c875760405162461bcd60e51b815260206004820152602e60248201527f496e697469616c697a61626c653a20636f6e747261637420697320616c72656160448201526d191e481a5b9a5d1a585b1a5e995960921b606482015260840161052c565b6000805460ff191660011790558015610caa576000805461ff0019166101001790555b610cb2612661565b610cba6126a3565b8015610d01576000805461ff0019169055604051600181527f7f26b83ff96e1f2b6a682f133852f6798a09c465da95921460cefb3847402498906020015b60405180910390a15b50565b6001546001600160a01b031633148015610d285750600154600160a01b900460ff16155b610d805760405162461bcd60e51b815260206004820152602360248201527f4f6e6c7920746865206f776e65722063616e2063616c6c20746869732c206f6e60448201526231b29760e91b606482015260840161052c565b6001805460ff60a01b1916600160a01b179055600080546001600160a01b03909216620100000262010000600160b01b0319909216919091179055565b610dc5610e17565b6001600160a01b0316336001600160a01b031614610df55760405162461bcd60e51b815260040161052c90613a16565b600380546001600160601b0319166001600160601b0392909216919091179055565b6002546001600160a01b031690565b610e2e610e17565b6001600160a01b0316336001600160a01b031614610e5e5760405162461bcd60e51b815260040161052c90613a16565b6001600160a01b03929092166000908152600b6020526040902090815560010155565b610e8c60003661240f565b6000546201000090046001600160a01b031663f41f339f85610eb160a0820182613a64565b60c0880135610ec360e08a018a613a85565b6040518663ffffffff1660e01b8152600401610ee3959493929190613c46565b602060405180830381865afa158015610f00573d6000803e3d6000fd5b505050506040513d601f19601f82011682018060405250810190610f249190613c8e565b50610f3260a0850185613a64565b610f409060c0810190613a85565b83149050610fad5760405162461bcd60e51b815260206004820152603460248201527f496e76616c6964206e756d626572206f6620626c6f636b73204c3220636f6e74604482015273185a5b9a5b99c81a1a5cdd1bdc9a58c81c9bdbdd60621b606482015260840161052c565b60006040518060400160405280868060a00190610fca9190613a64565b610fd89060c0810190613a85565b90506001600160401b03811115610ff157610ff16137f1565b60405190808252806020026020018201604052801561101a578160200160208202803683370190505b508152602001611028610b83565b6001600160a01b03169052905060005b61104560a0870187613a64565b6110539060c0810190613a85565b90508110156112165761106960a0870187613a64565b6110779060c0810190613a85565b8281811061108757611087613a00565b9050602002013560001c600014611206576000546201000090046001600160a01b031663b6cf02b68686848181106110c1576110c1613a00565b905060a002016040518263ffffffff1660e01b81526004016110e39190613d27565b60006040518083038186803b1580156110fb57600080fd5b505afa15801561110f573d6000803e3d6000fd5b50505050600061113c878060a001906111289190613a64565b611136906020810190613a85565b84612711565b905061116386868481811061115357611153613a00565b905060a002016000013560a01c90565b6001600160401b0316816001600160401b0316146111c35760405162461bcd60e51b815260206004820152601d60248201527f496e636f727265637420686973746f72696320726f6f7420626c6f636b000000604482015260640161052c565b8585838181106111d5576111d5613a00565b905060a002016020013560001c836000015183815181106111f8576111f8613a00565b602002602001018181525050505b61120f81613e2b565b9050611038565b506000611221613458565b611229613476565b611231613458565b61125261124160a08b018b613a64565b6101200160005b60200201356122b5565b90945092508361126f57611265896124b2565b50505050506108b7565b6112b060405180604001604052808b8060a0019061128d9190613a64565b610140013581526020016112a460a08d018d613a64565b610160013590526114f7565b9094509150836112c357611265896124b2565b6112de6112d360a08b018b613a64565b610120016003611248565b9094509050836112f157611265896124b2565b61144661130160a08b018b613a64565b866040518061010001604052808760006002811061132157611321613a00565b602002015181526020018760016002811061133e5761133e613a00565b602002015181526020018660006002811061135b5761135b613a00565b60209081029190910151518252875181015182820152878101805151604084015251015160608201528551608082015260a0018560016020020151815250600060029054906101000a90046001600160a01b03166001600160a01b031663f5a6b9956113d78f8060a001906113d09190613a64565b3560d81c90565b6040516001600160e01b031960e084901b16815264ffffffffff9091166004820152602401600060405180830381865afa158015611419573d6000803e3d6000fd5b505050506040513d6000823e601f3d908101601f191682016040526114419190810190613f34565b61276e565b61144f896124b2565b505050505050505050565b611462610e17565b6001600160a01b0316336001600160a01b0316146114925760405162461bcd60e51b815260040161052c90613a16565b600655565b61149f610e17565b6001600160a01b0316336001600160a01b0316146114cf5760405162461bcd60e51b815260040161052c90613a16565b600280546001600160601b03909216600160a01b026001600160a01b03909216919091179055565b6000611501613476565b6000604051806040016040528060ff8660006002811061152357611523613a00565b6020020151901c60011660ff1660ff16815260200160ff8660016002811061154d5761154d613a00565b6020020151901c60011690528451909150600160fe1b90600090611572908390613fe3565b905060008287600160200201516115899190613fe3565b905060006040518060400160405280848152602001838152509050600073__Utils_________________________________635698508e73__Utils_________________________________635698508e85866040518363ffffffff1660e01b81526004016115f992919061401a565b6040805180830381865af4158015611615573d6000803e3d6000fd5b505050506040513d601f19601f82011682018060405250810190611639919061407a565b846040518363ffffffff1660e01b815260040161165792919061401a565b6040805180830381865af4158015611673573d6000803e3d6000fd5b505050506040513d601f19601f82011682018060405250810190611697919061407a565b604080518082019091527f2b149d40ceb8aaae81be18991be06ac3b5b4c5e559dbefa33267e6dc24a138e581527e9713b03af0fed4cd2cafadeed8fdf4a74fa084e52d1852e4a2bd0685c315d260208201528151919250901580156116fe57506020820151155b801561170c575060208a0151155b1561174e576000604051806040016040528084815260200160405180604001604052806001815260200160008152508152509850985050505050505050915091565b600060405180604001604052806000805160206144098339815191528061177757611777613fcd565b845186510881526020016000805160206144098339815191528460016020020151866001602002015108815250905060008073__Utils_________________________________638835829e846040518263ffffffff1660e01b81526004016117e09190614096565b606060405180830381865af41580156117fd573d6000803e3d6000fd5b505050506040513d601f19601f8201168201806040525081019061182191906140b9565b8051919350915060009061183790600290613fe3565b8b5160ff161461186057815161185b906000805160206144098339815191526140ed565b611863565b81515b905060006002836001602002015161187b9190613fe3565b60208d015160ff16146118aa5760208301516118a5906000805160206144098339815191526140ed565b6118b0565b60208301515b604080518082018252998a52805180820190915292835260208381019190915288019190915250909c949b50939950505050505050505050565b6118f560003661240f565b60005460405163097091e360e21b8152620100009091046001600160a01b0316906325c2478c9061192e90879087908790600401613da3565b60006040518083038186803b15801561194657600080fd5b505afa15801561195a573d6000803e3d6000fd5b505050843560a081901c915060e01c60006001600160401b03831615611a2657600054604051635b67815b60e11b8152620100009091046001600160a01b03169063b6cf02b6906119af908b90600401613d27565b60006040518083038186803b1580156119c757600080fd5b505afa1580156119db573d6000803e3d6000fd5b5050506001600160401b03841690506119f9893560a01c6001613e44565b6001600160401b031614611a1f5760405162461bcd60e51b815260040161052c90613e6b565b50863560e01c5b6040516305063a3360e31b815273__ChallengesUtil________________________90632831d19890611a6390849086908b908b90600401614100565b60006040518083038186803b158015611a7b57600080fd5b505af4158015611a8f573d6000803e3d6000fd5b50505050611a9c876124b2565b5050505050505050565b6000818152600c60205260409020546001600160a01b031615611b075760405162461bcd60e51b81526020600482015260196024820152784861736820616c726561647920636f6d6d697474656420746f60381b604482015260640161052c565b6000818152600c602090815260409182902080546001600160a01b031916339081179091558251848152918201527f0d5ea452ac7e354069d902d41e41e24f605467acd037b8f5c1c6fee5e27fb5e29101610cf8565b611b65610e17565b6001600160a01b0316336001600160a01b031614611b955760405162461bcd60e51b815260040161052c90613a16565b600880546001600160a01b0319166001600160a01b0383169081179091556040517f5544fd39820f90f9fc4b238e0eaaf1b5ece21e6dbb69a2b0824a16876e6d0efd91610cf8916134da565b611be9610e17565b6001600160a01b0316336001600160a01b031614611c195760405162461bcd60e51b815260040161052c90613a16565b600455565b6001600160a01b0381166000908152600b60205260408120816104ec565b611c44610e17565b6001600160a01b0316336001600160a01b031614611c745760405162461bcd60e51b815260040161052c90613a16565b600a80546001600160a01b0319166001600160a01b0392909216919091179055565b611ca160003661240f565b6000546201000090046001600160a01b031663f41f339f86611cc660a0820182613a64565b60c0890135611cd860e08b018b613a85565b6040518663ffffffff1660e01b8152600401611cf8959493929190613c46565b602060405180830381865afa158015611d15573d6000803e3d6000fd5b505050506040513d601f19601f82011682018060405250810190611d399190613c8e565b506000546201000090046001600160a01b031663f41f339f85611d5f60a0820182613a64565b60c0880135611d7160e08a018a613a85565b6040518663ffffffff1660e01b8152600401611d91959493929190613c46565b602060405180830381865afa158015611dae573d6000803e3d6000fd5b505050506040513d601f19601f82011682018060405250810190611dd29190613c8e565b50843560a090811c908535901c6001600160401b0380821690831603611e19578560c001358760c0013503611e195760405162461bcd60e51b815260040161052c90613ca7565b73__ChallengesUtil________________________63ff124ee86106e460a08a018a613a64565b611e4b60003661240f565b6000546201000090046001600160a01b031663f41f339f82611e7060a0820182613a64565b60c0850135611e8260e0870187613a85565b6040518663ffffffff1660e01b8152600401611ea2959493929190613c46565b602060405180830381865afa158015611ebf573d6000803e3d6000fd5b505050506040513d601f19601f82011682018060405250810190611ee39190613c8e565b506000611ef360a0830183613a64565b611f01906020810190613a85565b611f0d9150600461413b565b6001600160401b03811115611f2457611f246137f1565b604051908082528060200260200182016040528015611f4d578160200160208202803683370190505b50905060005b8151811015611fba57611f80611f6c60a0850185613a64565b611f7a906020810190613a85565b83612711565b828281518110611f9257611f92613a00565b6001600160401b0390921660209283029190910190910152611fb381613e2b565b9050611f53565b5060005b611fcb60a0840184613a64565b611fd99060c0810190613a85565b905081101561209f57600060029054906101000a90046001600160a01b03166001600160a01b03166305eb81e66040518163ffffffff1660e01b8152600401602060405180830381865afa158015612035573d6000803e3d6000fd5b505050506040513d601f19601f820116820180604052508101906120599190613c8e565b82828151811061206b5761206b613a00565b60200260200101516001600160401b03161061208f5761208a836124b2565b505050565b61209881613e2b565b9050611fbe565b506000600182516120b091906140ed565b90505b6120c060a0840184613a64565b6120ce9060c0810190613a85565b905081106121225760006001600160401b03168282815181106120f3576120f3613a00565b60200260200101516001600160401b0316146121125761208a836124b2565b61211b81614152565b90506120b3565b5060405162461bcd60e51b815260206004820152603a60248201527f486973746f72696320726f6f747320617265206e6f74206772656174657220746044820152793430b7102619213637b1b5a73ab6b132b91037b71031b430b4b760311b606482015260840161052c565b5050565b61219a610e17565b6001600160a01b0316336001600160a01b0316146121ca5760405162461bcd60e51b815260040161052c90613a16565b6001600160a01b0381166121dd57600080fd5b7f8be0079c531659141344cd1fd0a4f28419497f9722a3daafe3b4186f6b6457e0612206610e17565b604080516001600160a01b03928316815291841660208301520160405180910390a1610d0181612903565b612239610e17565b6001600160a01b0316336001600160a01b0316146122695760405162461bcd60e51b815260040161052c90613a16565b600980546001600160a01b0319166001600160a01b0383169081179091556040517f210cff5548618e71293ea0d4f1f3563a68e78f00273f3acd97014aac2442ed2491610cf8916134da565b60006122bf613458565b82600160ff1b036122e85750506040805180820190915260008082526001602083015292909150565b60ff83901c600160fe1b60006122fe8287613fe3565b9050600060008051602061440983398151915280838409830990506000600080516020614409833981519152600383089050600061236f82600261235160016000805160206144098339815191526140ed565b61235b9190614169565b600080516020614409833981519152612925565b600114905060006123978360046000805160206144098339815191526001612351919061417d565b90506123a4600282613fe3565b60ff168760ff16146123ef57816040518060400160405280878152602001836000805160206144098339815191526123dc91906140ed565b8152509850985050505050505050915091565b604080518082019091529485526020850152989297509195505050505050565b60008282604051612421929190614190565b60408051918290039091206000818152600c60205291909120549091506001600160a01b031633146124925760405162461bcd60e51b815260206004820152601a60248201527910dbdb5b5a5d1b595b9d081a185cda081a5cc81a5b9d985b1a5960321b604482015260640161052c565b6000908152600c6020526040902080546001600160a01b03191690555050565b803560a01c6124c462093a80426140ed565b6000546040516383b6ebe560e01b8152620100009091046001600160a01b0316906383b6ebe5906124f99085906004016141a0565b608060405180830381865afa158015612516573d6000803e3d6000fd5b505050506040513d601f19601f8201168201806040525081019061253a91906141b4565b6020015110156125855760405162461bcd60e51b815260206004820152601660248201527543616e6e6f74206368616c6c656e676520626c6f636b60501b604482015260640161052c565b7f03404b6979bc5ed297ee1fc6daf00fcb29bbd74b934488ef775c1d70c5e7cd8d816040516125b491906141a0565b60405180910390a160006125c782612971565b600054604051639b0cd42d60e01b81529192506201000090046001600160a01b031690639b0cd42d906126039033908735908690600401614228565b600060405180830381600087803b15801561261d57600080fd5b505af1158015610773573d6000803e3d6000fd5b60008160405160200161264491906142b2565b604051602081830303815290604052805190602001209050919050565b600054610100900460ff166126885760405162461bcd60e51b815260040161052c906142e4565b600180546001600160a81b0319163360ff60a01b1916179055565b600054610100900460ff166126ca5760405162461bcd60e51b815260040161052c906142e4565b6126d2612c8f565b600280546001600160a01b0316613d0960a61b179055600380546001600160601b03191660011790556020600455600a60058190556006556064600755565b60008061271f600484614169565b9050600061272e600485613fe3565b6127399060036140ed565b61274490604061413b565b90508086868481811061275957612759613a00565b90506020020135901c925050505b9392505050565b6040805160808181019092526127a2916101208701906004908390839080828437600092019190915250859150612cc19050565b6040805160088082526101208201909252600091602082016101008036833701905050905060005b6008811015612819578381600881106127e5576127e5613a00565b60200201518282815181106127fc576127fc613a00565b60209081029190910101528061281181613e2b565b9150506127ca565b50600061282f8686600001518760200151612d85565b6040516387d9d02360e01b815290915073__Verifier______________________________906387d9d0239061286d9085908590889060040161436a565b602060405180830381865af415801561288a573d6000803e3d6000fd5b505050506040513d601f19601f820116820180604052508101906128ae91906143a3565b156128fb5760405162461bcd60e51b815260206004820152601e60248201527f546869732070726f6f66206170706561727320746f2062652076616c69640000604482015260640161052c565b505050505050565b600280546001600160a01b0319166001600160a01b0392909216919091179055565b600060405160208152602080820152602060408201528460608201528360808201528260a082015260c05160208160c08460006005600019f161296757600080fd5b5195945050505050565b606060006001600060029054906101000a90046001600160a01b03166001600160a01b03166305eb81e66040518163ffffffff1660e01b8152600401602060405180830381865afa1580156129ca573d6000803e3d6000fd5b505050506040513d601f19601f820116820180604052508101906129ee9190613c8e565b6129f891906140ed565b90506000612a0f6001600160401b038516836140ed565b612a1a90600161417d565b6001600160401b03811115612a3157612a316137f1565b604051908082528060200260200182016040528015612a8357816020015b604080516080810182526000808252602080830182905292820181905260608201528252600019909201910181612a4f5790505b50905060005b612a9c6001600160401b038616846140ed565b8111612bb65760008060029054906101000a90046001600160a01b03166001600160a01b0316631c4206826040518163ffffffff1660e01b81526004016080604051808303816000875af1158015612af8573d6000803e3d6000fd5b505050506040513d601f19601f82011682018060405250810190612b1c91906141b4565b6000548151604051635e5a6de160e11b815260048101919091529192506201000090046001600160a01b03169063bcb4dbc290602401600060405180830381600087803b158015612b6c57600080fd5b505af1158015612b80573d6000803e3d6000fd5b5050505080838381518110612b9757612b97613a00565b6020026020010181905250508080612bae90613e2b565b915050612a89565b50836001600160401b0316600060029054906101000a90046001600160a01b03166001600160a01b03166305eb81e66040518163ffffffff1660e01b8152600401602060405180830381865afa158015612c14573d6000803e3d6000fd5b505050506040513d601f19601f82011682018060405250810190612c389190613c8e565b146127675760405162461bcd60e51b815260206004820152602160248201527f4e756d6265722072656d61696e696e67206e6f742061732065787065637465646044820152601760f91b606482015260840161052c565b600054610100900460ff16612cb65760405162461bcd60e51b815260040161052c906142e4565b612cbf33612903565b565b612cca81613359565b604051602001612cda91906143be565b6040516020818303038152906040528051906020012082604051602001612d0191906143be565b604051602081830303815290604052805190602001201461218e5760405162461bcd60e51b815260206004820152603860248201527f43616e6e6f7420726563726561746520636f6d707265737365642070726f6f6660448201527710333937b6903ab731b7b6b83932b9b9b2b210383937b7b360411b606482015260840161052c565b60606000612d9660a0860186613a85565b8551909150612da860c0880188613a85565b612db49150600261413b565b612dbf90601161417d565b612dc9919061417d565b612dd3919061417d565b90506000816001600160401b03811115612def57612def6137f1565b604051908082528060200260200182016040528015612e18578160200160208202803683370190505b5090506000863560081c6001600160701b03168282612e3681613e2b565b935081518110612e4857612e48613a00565b6020908102919091010152863560781c6001600160601b03168282612e6c81613e2b565b935081518110612e7e57612e7e613a00565b6020908102919091010152863560d81c8282612e9981613e2b565b935081518110612eab57612eab613a00565b6020908102919091010152612ec087356133e7565b6002811115612ed157612ed16143f2565b8282612edc81613e2b565b935081518110612eee57612eee613a00565b60200260200101818152505060005b612f0a60c0890189613a85565b9050811015612f6457612f23611f7a60208a018a613a85565b6001600160401b03168383612f3781613e2b565b945081518110612f4957612f49613a00565b6020908102919091010152612f5d81613e2b565b9050612efd565b5060608701358282612f7581613e2b565b935081518110612f8757612f87613a00565b6020908102919091010152604087013560e01c8282612fa581613e2b565b935081518110612fb757612fb7613a00565b602090810291909101015263ffffffff604088013560c01c168282612fdb81613e2b565b935081518110612fed57612fed613a00565b602090810291909101015263ffffffff604088013560a01c16828261301181613e2b565b93508151811061302357613023613a00565b602090810291909101015263ffffffff604088013560801c16828261304781613e2b565b93508151811061305957613059613a00565b602090810291909101015263ffffffff604088013560601c16828261307d81613e2b565b93508151811061308f5761308f613a00565b602090810291909101015263ffffffff604088810135901c1682826130b381613e2b565b9350815181106130c5576130c5613a00565b6020026020010181815250506020876040013560001c901c63ffffffff168282806130ef90613e2b565b93508151811061310157613101613a00565b602090810291909101015263ffffffff604088013516828261312281613e2b565b93508151811061313457613134613a00565b60209081029190910101526080870135828261314f81613e2b565b93508151811061316157613161613a00565b60200260200101818152505060005b61317d60a0890189613a85565b90508110156131e65761319360a0890189613a85565b828181106131a3576131a3613a00565b9050602002013560001c8383806131b990613e2b565b9450815181106131cb576131cb613a00565b60209081029190910101526131df81613e2b565b9050613170565b5060005b6131f760c0890189613a85565b90508110156132605761320d60c0890189613a85565b8281811061321d5761321d613a00565b9050602002013560001c83838061323390613e2b565b94508151811061324557613245613a00565b602090810291909101015261325981613e2b565b90506131ea565b5060e0870135828261327181613e2b565b93508151811061328357613283613a00565b6020908102919091010152610100870135828261329f81613e2b565b9350815181106132b1576132b1613a00565b60200260200101818152505060005b865181101561331c578681815181106132db576132db613a00565b60200260200101518383806132ef90613e2b565b94508151811061330157613301613a00565b602090810291909101015261331581613e2b565b90506132c0565b506001600160a01b038516828261333281613e2b565b93508151811061334457613344613a00565b60209081029190910101525095945050505050565b6133616134a3565b8151600090613378908460015b6020020151613404565b90506000806133a58560026020020151866003602002015187600460200201518860056020020151613434565b909250905060006133bf866006602002015187600761336e565b6040805160808101825295865260208601949094529284019190915250606082015292915050565b60008160ff1660028111156133fe576133fe6143f2565b92915050565b600080613412600284613fe3565b61342090600160ff1b61413b565b905061342c848261417d565b949350505050565b6000806134418685613404565b61344b8685613404565b9150915094509492505050565b60405180604001604052806002906020820280368337509192915050565b60405180604001604052806002905b61348d613458565b8152602001906001900390816134855790505090565b60405180608001604052806004906020820280368337509192915050565b6000602082840312156134d357600080fd5b5035919050565b6001600160a01b0391909116815260200190565b6001600160a01b0381168114610d0157600080fd5b60006020828403121561351557600080fd5b8135612767816134ee565b6000610100828403121561353357600080fd5b50919050565b600080600080600060a0868803121561355157600080fd5b85356001600160401b038082111561356857600080fd5b61357489838a01613520565b9650602088013591508082111561358a57600080fd5b5061359788828901613520565b959895975050505060408401359360608101359360809091013592509050565b8061042081018310156133fe57600080fd5b600060a0828403121561353357600080fd5b60008060006104e084860312156135f157600080fd5b6135fb85856135b7565b925061360b8561042086016135c9565b91506104c084013590509250925092565b60008083601f84011261362e57600080fd5b5081356001600160401b0381111561364557600080fd5b6020830191508360208260051b850101111561366057600080fd5b9250929050565b6000806000806000806105a0878903121561368157600080fd5b61368b88886135c9565b955061369a8860a089016135b7565b94506136aa886104c089016135c9565b93506105608701356001600160401b038111156136c657600080fd5b6136d289828a0161361c565b979a969950949794969561058090950135949350505050565b6001600160601b0381168114610d0157600080fd5b60006020828403121561371257600080fd5b8135612767816136eb565b60008060006060848603121561373257600080fd5b833561373d816134ee565b95602085013595506040909401359392505050565b6000806000806060858703121561376857600080fd5b84356001600160401b038082111561377f57600080fd5b61378b88838901613520565b955060208701359150808211156137a157600080fd5b818701915087601f8301126137b557600080fd5b8135818111156137c457600080fd5b88602060a0830285010111156137d957600080fd5b95986020929092019750949560400135945092505050565b634e487b7160e01b600052604160045260246000fd5b604080519081016001600160401b0381118282101715613829576138296137f1565b60405290565b604051601f8201601f191681016001600160401b0381118282101715613857576138576137f1565b604052919050565b60006040828403121561387157600080fd5b82601f83011261388057600080fd5b613888613807565b80604084018581111561389a57600080fd5b845b818110156138b457803584526020938401930161389c565b509095945050505050565b821515815260a081016020808301846000805b60028082106138e15750613919565b835185845b83811015613902578251825291880191908801906001016138e6565b5050506040949094019350918401916001016138d2565b50505050509392505050565b6000806000806000610180868803121561393e57600080fd5b61394887876135c9565b94506139578760a088016135c9565b93506101408601356001600160401b0381111561397357600080fd5b61397f8882890161361c565b9699959850966101600135949350505050565b6000602082840312156139a457600080fd5b81356001600160401b038111156139ba57600080fd5b61342c84828501613520565b82151581526060810160208083018460005b60028110156139f5578151835291830191908301906001016139d8565b505050509392505050565b634e487b7160e01b600052603260045260246000fd5b6020808252602e908201527f596f7520617265206e6f7420617574686f726973656420746f20696e766f6b6560408201526d103a3434b990333ab731ba34b7b760911b606082015260800190565b6000823561019e19833603018112613a7b57600080fd5b9190910192915050565b6000808335601e19843603018112613a9c57600080fd5b8301803591506001600160401b03821115613ab657600080fd5b6020019150600581901b360382131561366057600080fd5b80358252602081013560208301526040810135604083015260608101356060830152608081013560808301525050565b6000808335601e19843603018112613b1557600080fd5b83016020810192503590506001600160401b03811115613b3457600080fd5b8060051b360382131561366057600080fd5b81835260006001600160fb1b03831115613b5f57600080fd5b8260051b80836020870137939093016020019392505050565b60408183375050565b60808183375050565b60006101a082358452613ba06020840184613afe565b826020870152613bb38387018284613b46565b92505050604083013560408501526060830135606085015260808301356080850152613be260a0840184613afe565b85830360a0870152613bf5838284613b46565b92505050613c0660c0840184613afe565b85830360c0870152613c19838284613b46565b92505050613c2d60e0850160e08501613b78565b610120613c3e818601828601613b81565b509392505050565b6000610100613c558389613ace565b8060a0840152613c6781840188613b8a565b90508560c084015282810360e0840152613c82818587613b46565b98975050505050505050565b600060208284031215613ca057600080fd5b5051919050565b60208082526023908201527f43616e6e6f74206265207468652073616d65207472616e73616374696f6e496e6040820152620c8caf60eb1b606082015260800190565b608081526000613cfd6080830187613b8a565b8560208401528281036040840152613d158186613b8a565b91505082606083015295945050505050565b60a081016133fe8284613ace565b6020808252601c908201527b24b73b30b634b210383934b7b910313637b1b590333937b73a34b2b960211b604082015260600190565b6104c0810161042080858437613c3e81840185613ace565b6000823561019e19833603018112613d9a57600080fd5b90910192915050565b600060c08201613db38387613ace565b60c060a084015283905260e0600584901b830181019083018560005b86811015613e085785840360df19018352613df384613dee848b613d83565b613b8a565b93506020928301929190910190600101613dcf565b5091979650505050505050565b634e487b7160e01b600052601160045260246000fd5b600060018201613e3d57613e3d613e15565b5060010190565b6001600160401b03818116838216019080821115613e6457613e64613e15565b5092915050565b6020808252601d908201527f426c6f636b73206e6565647320746f2062652073756273657175656e74000000604082015260600190565b6000610420808484379190910192915050565b81835260006020808501808196508560051b810191508460005b87811015613e08578284038952613eea84613dee848a613d83565b98850198935090840190600101613ecf565b60006104e061042080888537613f1481850188613ace565b50806104c0840152613f298184018587613eb5565b979650505050505050565b60006020808385031215613f4757600080fd5b82516001600160401b0380821115613f5e57600080fd5b818501915085601f830112613f7257600080fd5b815181811115613f8457613f846137f1565b8060051b9150613f9584830161382f565b8181529183018401918481019088841115613faf57600080fd5b938501935b83851015613c8257845182529385019390850190613fb4565b634e487b7160e01b600052601260045260246000fd5b600082613ff257613ff2613fcd565b500690565b8060005b60028110156108b7578151845260209384019390910190600101613ffb565b608081016140288285613ff7565b6127676040830184613ff7565b600082601f83011261404657600080fd5b61404e613807565b80604084018581111561406057600080fd5b845b818110156138b4578051845260209384019301614062565b60006040828403121561408c57600080fd5b6127678383614035565b604081016133fe8284613ff7565b805180151581146140b457600080fd5b919050565b600080606083850312156140cc57600080fd5b6140d5836140a4565b91506140e48460208501614035565b90509250929050565b818103818111156133fe576133fe613e15565b63ffffffff851681526001600160401b03841660208201526060604082018190526000906141319083018486613eb5565b9695505050505050565b80820281158282048414176133fe576133fe613e15565b60008161416157614161613e15565b506000190190565b60008261417857614178613fcd565b500490565b808201808211156133fe576133fe613e15565b8183823760009101908152919050565b6001600160401b0391909116815260200190565b6000608082840312156141c657600080fd5b604051608081016001600160401b03811182821017156141e8576141e86137f1565b806040525082518152602083015160208201526040830151614209816134ee565b6040820152606083015161421c816136eb565b60608201529392505050565b6000606080830160018060a01b03808816855260208188168187015260408481880152838851808652608095508589019150838a0160005b828110156142a0578151805185528681015187860152858101518816868601528901516001600160601b0316898501529287019290850190600101614260565b50919c9b505050505050505050505050565b6104208101818360005b60218110156142db5781518352602092830192909101906001016142bc565b50505092915050565b6020808252602b908201527f496e697469616c697a61626c653a20636f6e7472616374206973206e6f74206960408201526a6e697469616c697a696e6760a81b606082015260800190565b600081518084526020808501945080840160005b8381101561435f57815187529582019590820190600101614343565b509495945050505050565b60608152600061437d606083018661432f565b828103602084015261438f818661432f565b90508281036040840152614131818561432f565b6000602082840312156143b557600080fd5b612767826140a4565b60008183825b60048110156143e35781518352602092830192909101906001016143c4565b50505060808201905092915050565b634e487b7160e01b600052602160045260246000fdfe30644e72e131a029b85045b68181585d97816a916871ca8d3c208c16d87cfd47a26469706673582212209b1e44856f1f03b445f24f1bc0b21e76070baba2584c0db00aad60f166abd93064736f6c63430008110033",
  "immutableReferences": {},
  "source": "// SPDX-License-Identifier: CC0-1.0\n\n/**\nContract to enable someone to challenge a proposed transaction, on a number of\ngrounds.\n@Author Westlad\n*/\n\npragma solidity ^0.8.0;\n\nimport './Utils.sol';\nimport './ChallengesUtil.sol';\nimport './Config.sol';\nimport './Stateful.sol';\n\ncontract Challenges is Stateful, Config {\n    mapping(bytes32 => address) public committers;\n\n    function initialize() public override(Stateful, Config) initializer {\n        Stateful.initialize();\n        Config.initialize();\n    }\n\n    /**\n  Check that the block correctly updates the leafCount.  Note that the leafCount\n  is actually the value AFTER the commitments are added to the Merkle tree.\n  */\n    function challengeLeafCountCorrect(\n        Block calldata priorBlockL2, // the block immediately prior to this one\n        Block calldata blockL2,\n        Transaction[] calldata transactions,\n        bytes32 salt\n    ) external {\n        checkCommit(msg.data);\n\n        state.areBlockAndTransactionsReal(blockL2, transactions);\n        uint64 blockNumberL2 = Utils.getBlockNumberL2(blockL2.packedInfo);\n        uint64 blockLeafCount = Utils.getLeafCount(blockL2.packedInfo);\n\n        uint32 priorBlockLeafCount = 0;\n        if (blockNumberL2 != 0) {\n            state.isBlockReal(priorBlockL2);\n            require(\n                Utils.getBlockNumberL2(priorBlockL2.packedInfo) + 1 == blockNumberL2,\n                'Blocks needs to be subsequent'\n            );\n            priorBlockLeafCount = Utils.getLeafCount(priorBlockL2.packedInfo);\n        }\n\n        ChallengesUtil.libChallengeLeafCountCorrect(\n            priorBlockLeafCount,\n            blockLeafCount,\n            transactions\n        );\n        challengeAccepted(blockL2);\n    }\n\n    function challengeNewFrontierCorrect(\n        Block calldata priorBlockL2, // the block immediately prior to this one\n        bytes32[33] calldata frontierBeforeBlock, // frontier path before prior block is added. The same frontier used in calculating root when prior block is added\n        Block calldata blockL2,\n        Transaction[] calldata transactions,\n        bytes32 salt\n    ) external {\n        checkCommit(msg.data);\n\n        state.areBlockAndTransactionsReal(blockL2, transactions);\n        uint64 blockNumberL2 = Utils.getBlockNumberL2(blockL2.packedInfo);\n\n        if (blockNumberL2 == 0) {\n            for (uint256 i = 0; i < frontierBeforeBlock.length; ++i) {\n                require(frontierBeforeBlock[i] == Utils.ZERO, 'Frontier needs to be uninitialized');\n            }\n        } else {\n            state.isBlockReal(priorBlockL2);\n\n            require(\n                Utils.getBlockNumberL2(priorBlockL2.packedInfo) + 1 == blockNumberL2,\n                'Blocks needs to be subsequent'\n            );\n\n            bytes32 frontierBeforeHash = keccak256(abi.encodePacked(frontierBeforeBlock));\n            require(\n                frontierBeforeHash == priorBlockL2.frontierHash,\n                'Invalid prior block frontier'\n            );\n        }\n\n        ChallengesUtil.libChallengeNewFrontierCorrect(frontierBeforeBlock, blockL2, transactions);\n        challengeAccepted(blockL2);\n    }\n\n    /**\n  Checks that the new merkle tree root of a block is incorrect. This could be because the\n  merkle tree that stores commitments has been incorrectly updated. To verify this, we first calculate\n  this challenged block's frontier using the prior block. Using this frontier, we can work out what the root\n  for the current block should be given the set of transactions in said block. Finally, this calculated root\n  is compared to the root stored within the block.\n  */\n    function challengeNewRootCorrect(\n        bytes32[33] calldata frontierAfterBlock, // frontier after all the block commitments has been added.\n        Block calldata blockL2,\n        bytes32 salt\n    ) external {\n        checkCommit(msg.data);\n\n        // check that the current block hash is correct\n        state.isBlockReal(blockL2);\n\n        bytes32 frontierAfterHash = Utils.hashFrontier(frontierAfterBlock);\n        require(frontierAfterHash == blockL2.frontierHash, 'Invalid prior block frontier');\n\n        // see if the challenge is valid\n        ChallengesUtil.libChallengeNewRootCorrect(frontierAfterBlock, blockL2);\n        challengeAccepted(blockL2);\n    }\n\n    /**\n  Checks that a commitment has not been part of an L2 block before (i.e. a duplicate). If the duplicate commitment\n  occurs within the same block, there is an additional check to ensure they are not at the same index\n  (i.e. a trivial duplicate).\n  */\n    function challengeCommitment(\n        TransactionInfoBlock calldata transaction1,\n        TransactionInfoBlock calldata transaction2,\n        uint256 commitment1Index,\n        uint256 commitment2Index,\n        bytes32 salt\n    ) external {\n        checkCommit(msg.data);\n\n        // first, check we have real, in-train, contiguous blocks\n        state.areBlockAndTransactionReal(\n            transaction1.blockL2,\n            transaction1.transaction,\n            transaction1.transactionIndex,\n            transaction1.transactionSiblingPath\n        );\n        state.areBlockAndTransactionReal(\n            transaction2.blockL2,\n            transaction2.transaction,\n            transaction2.transactionIndex,\n            transaction2.transactionSiblingPath\n        );\n\n        uint64 blockL2NumberTx1 = Utils.getBlockNumberL2(transaction1.blockL2.packedInfo);\n        uint64 blockL2NumberTx2 = Utils.getBlockNumberL2(transaction2.blockL2.packedInfo);\n\n        if (blockL2NumberTx1 == blockL2NumberTx2) {\n            require(\n                transaction1.transactionIndex != transaction2.transactionIndex,\n                'Cannot be the same transactionIndex'\n            );\n        }\n\n        ChallengesUtil.libChallengeCommitment(\n            transaction1.transaction,\n            commitment1Index,\n            transaction2.transaction,\n            commitment2Index\n        );\n\n        // Delete the latest block of the two\n        if (blockL2NumberTx1 > blockL2NumberTx2) {\n            challengeAccepted(transaction1.blockL2);\n        } else {\n            challengeAccepted(transaction2.blockL2);\n        }\n    }\n\n    /**\n  Checks that a nullifier has not been part of an L2 block before (i.e. a duplicate). If the duplicate nullifier\n  occurs within the same block, there is an additional check to ensure they are not at the same index\n  (i.e. a trivial duplicate).\n  */\n    function challengeNullifier(\n        TransactionInfoBlock calldata transaction1,\n        TransactionInfoBlock calldata transaction2,\n        uint256 nullifier1Index,\n        uint256 nullifier2Index,\n        bytes32 salt\n    ) external {\n        checkCommit(msg.data);\n\n        // first, check we have real, in-train, contiguous blocks\n        state.areBlockAndTransactionReal(\n            transaction1.blockL2,\n            transaction1.transaction,\n            transaction1.transactionIndex,\n            transaction1.transactionSiblingPath\n        );\n        state.areBlockAndTransactionReal(\n            transaction2.blockL2,\n            transaction2.transaction,\n            transaction2.transactionIndex,\n            transaction2.transactionSiblingPath\n        );\n\n        uint64 blockL2NumberTx1 = Utils.getBlockNumberL2(transaction1.blockL2.packedInfo);\n        uint64 blockL2NumberTx2 = Utils.getBlockNumberL2(transaction2.blockL2.packedInfo);\n\n        if (blockL2NumberTx1 == blockL2NumberTx2) {\n            require(\n                transaction1.transactionIndex != transaction2.transactionIndex,\n                'Cannot be the same transactionIndex'\n            );\n        }\n\n        ChallengesUtil.libChallengeNullifier(\n            transaction1.transaction,\n            nullifier1Index,\n            transaction2.transaction,\n            nullifier2Index\n        );\n\n        // Delete the latest block of the two\n        if (blockL2NumberTx1 > blockL2NumberTx2) {\n            challengeAccepted(transaction1.blockL2);\n        } else {\n            challengeAccepted(transaction2.blockL2);\n        }\n    }\n\n    function decompressG1(uint256 xin) public returns (bool, uint256[2] memory) {\n        // Handle the Point 0.G\n        if (xin == 0x8000000000000000000000000000000000000000000000000000000000000000)\n            return (false, [uint256(0), uint256(1)]);\n\n        uint8 parity = uint8((xin >> 255) & 1);\n        uint256 xMask = 0x4000000000000000000000000000000000000000000000000000000000000000; // 2**254 mask\n        uint256 xCoord = xin % xMask;\n        uint256 x3 = mulmod(\n            xCoord,\n            mulmod(xCoord, xCoord, Utils.BN128_PRIME_FIELD),\n            Utils.BN128_PRIME_FIELD\n        );\n        uint256 y2 = addmod(x3, 3, Utils.BN128_PRIME_FIELD);\n        // Check that the legendre symbol == 1, i.e. a sqrt exists for y2\n        bool sqrtFound = Utils.modExp(\n            y2,\n            (Utils.BN128_PRIME_FIELD - uint256(1)) / uint256(2),\n            Utils.BN128_PRIME_FIELD\n        ) == 1;\n        uint256 y = Utils.modExp(y2, (Utils.BN128_PRIME_FIELD + 1) / 4, Utils.BN128_PRIME_FIELD);\n        if (parity != uint8(y % 2)) return (sqrtFound, [xCoord, Utils.BN128_PRIME_FIELD - y]);\n        return (sqrtFound, [xCoord, y]);\n    }\n\n    function decompressG2(uint256[2] memory xins) public pure returns (bool, uint256[2][2] memory) {\n        uint8[2] memory parity = [uint8((xins[0] >> 255) & 1), uint8((xins[1] >> 255) & 1)];\n        uint256 xMask = 0x4000000000000000000000000000000000000000000000000000000000000000; // 2**254 mask\n        uint256 xReal = xins[0] % xMask;\n        uint256 xImg = xins[1] % xMask;\n        uint256[2] memory x = [xReal, xImg];\n        uint256[2] memory x3 = Utils.fq2Mul(Utils.fq2Mul(x, x), x);\n        uint256[2] memory d = [\n            19485874751759354771024239261021720505790618469301721065564631296452457478373,\n            266929791119991161246907387137283842545076965332900288569378510910307636690\n        ];\n        // If xin is the compressed form of the Point 0.G\n        if (x3[0] == 0 && x3[1] == 0 && xins[1] == 0)\n            return (false, [x3, [uint256(1), uint256(0)]]);\n        uint256[2] memory y2 = [\n            addmod(x3[0], d[0], Utils.BN128_PRIME_FIELD),\n            addmod(x3[1], d[1], Utils.BN128_PRIME_FIELD)\n        ];\n\n        (bool sqrtFound, uint256[2] memory y) = Utils.fq2Sqrt(y2);\n        uint256 a = parity[0] == uint256(y[0] % 2) ? y[0] : Utils.BN128_PRIME_FIELD - y[0];\n        uint256 b = parity[1] == uint256(y[1] % 2) ? y[1] : Utils.BN128_PRIME_FIELD - y[1];\n        return (sqrtFound, [x, [a, b]]);\n    }\n\n    function challengeProofVerification(\n        TransactionInfoBlock calldata transaction,\n        Block[] calldata blockL2ContainingHistoricRoot,\n        bytes32 salt\n    ) external {\n        checkCommit(msg.data);\n        state.areBlockAndTransactionReal(\n            transaction.blockL2,\n            transaction.transaction,\n            transaction.transactionIndex,\n            transaction.transactionSiblingPath\n        );\n\n        require(\n            blockL2ContainingHistoricRoot.length == transaction.transaction.nullifiers.length,\n            'Invalid number of blocks L2 containing historic root'\n        );\n\n        PublicInputs memory extraPublicInputs = PublicInputs(\n            new uint256[](transaction.transaction.nullifiers.length),\n            super.getFeeL2TokenAddress()\n        );\n\n        for (uint256 i = 0; i < transaction.transaction.nullifiers.length; ++i) {\n            if (uint256(transaction.transaction.nullifiers[i]) != 0) {\n                state.isBlockReal(blockL2ContainingHistoricRoot[i]);\n\n                uint64 historicblockNumberL2 = Utils.getHistoricRoot(\n                    transaction.transaction.historicRootBlockNumberL2,\n                    i\n                );\n\n                require(\n                    historicblockNumberL2 ==\n                        Utils.getBlockNumberL2(blockL2ContainingHistoricRoot[i].packedInfo),\n                    'Incorrect historic root block'\n                );\n\n                extraPublicInputs.roots[i] = uint256(blockL2ContainingHistoricRoot[i].root);\n            }\n        }\n        // Variables declared here so we can reuse the bool\n        bool success = false;\n        uint256[2] memory decompressAlpha;\n        uint256[2][2] memory decompressBeta;\n        uint256[2] memory decompressGamma;\n\n        (success, decompressAlpha) = decompressG1(transaction.transaction.proof[0]);\n        // Check each step since we overwrite the bool to avoid stack too deep issues.\n        if (!success) {\n            challengeAccepted(transaction.blockL2);\n            return;\n        }\n\n        (success, decompressBeta) = decompressG2(\n            [transaction.transaction.proof[1], transaction.transaction.proof[2]]\n        );\n        if (!success) {\n            challengeAccepted(transaction.blockL2);\n            return;\n        }\n\n        (success, decompressGamma) = decompressG1(transaction.transaction.proof[3]);\n        if (!success) {\n            challengeAccepted(transaction.blockL2);\n            return;\n        }\n        // now we need to check that the proof is correct\n        ChallengesUtil.libChallengeProofVerification(\n            transaction.transaction,\n            extraPublicInputs,\n            [\n                decompressAlpha[0],\n                decompressAlpha[1],\n                decompressBeta[0][0],\n                decompressBeta[0][1],\n                decompressBeta[1][0],\n                decompressBeta[1][1],\n                decompressGamma[0],\n                decompressGamma[1]\n            ],\n            state.getVerificationKey(Utils.getCircuitHash(transaction.transaction.packedInfo))\n        );\n        challengeAccepted(transaction.blockL2);\n    }\n\n    function challengeHistoricRootBlockNumber(TransactionInfoBlock calldata transaction) external {\n        checkCommit(msg.data);\n        state.areBlockAndTransactionReal(\n            transaction.blockL2,\n            transaction.transaction,\n            transaction.transactionIndex,\n            transaction.transactionSiblingPath\n        );\n\n        // Unpack the historic block numbers, they are packed in 256bits and so 4 x 64 historicRootBlockNumbers are unpacked.\n        uint64[] memory historicRootBlockNumbers = new uint64[](\n            transaction.transaction.historicRootBlockNumberL2.length * 4\n        );\n\n        for (uint256 i = 0; i < historicRootBlockNumbers.length; ++i) {\n            historicRootBlockNumbers[i] = Utils.getHistoricRoot(\n                transaction.transaction.historicRootBlockNumberL2,\n                i\n            );\n        }\n\n        for (uint256 i = 0; i < transaction.transaction.nullifiers.length; ++i) {\n            if (uint256(historicRootBlockNumbers[i]) >= state.getNumberOfL2Blocks()) {\n                challengeAccepted(transaction.blockL2);\n                return;\n            }\n        }\n\n        // Historic Block Numbers are packed in 256bits and so always results in multiples of 4\n        // if nullifiers are not multiple of 4 we need to ensure these \"extra\" historic block numbers are zero.\n        for (\n            uint256 i = historicRootBlockNumbers.length - 1;\n            i >= transaction.transaction.nullifiers.length;\n            --i\n        ) {\n            if (historicRootBlockNumbers[i] != uint64(0)) {\n                challengeAccepted(transaction.blockL2);\n                return;\n            }\n        }\n\n        require(false, 'Historic roots are not greater than L2BlockNumber on chain');\n    }\n\n    // This gets called when a challenge succeeds\n    function challengeAccepted(Block calldata badBlock) private {\n        // Check to ensure that the block being challenged is less than a week old\n        uint64 blockNumberL2 = Utils.getBlockNumberL2(badBlock.packedInfo);\n        require(\n            state.getBlockData(blockNumberL2).time >= (block.timestamp - 7 days),\n            'Cannot challenge block'\n        );\n        // emit the leafCount where the bad block was added. Timber will pick this\n        // up and rollback its database to that point.  We emit the event from\n        // State.sol because Timber gets confused if its events come from two\n        // different contracts (it uses the contract name as part of the db\n        // connection - we need to change that).\n        emit Rollback(blockNumberL2);\n        // we need to remove the block that has been successfully\n        // challenged from the linked list of blocks and all of the subsequent\n        // blocks\n        BlockData[] memory badBlocks = removeBlockHashes(blockNumberL2);\n        // remove the proposer and give the proposer's block stake to the challenger\n        state.rewardChallenger(msg.sender, Utils.getProposer(badBlock.packedInfo), badBlocks);\n    }\n\n    function removeBlockHashes(uint64 blockNumberL2) internal returns (BlockData[] memory) {\n        uint256 lastBlock = state.getNumberOfL2Blocks() - 1;\n        BlockData[] memory badBlocks = new BlockData[](lastBlock - blockNumberL2 + 1);\n        for (uint256 i = 0; i <= uint256(lastBlock - blockNumberL2); i++) {\n            BlockData memory blockData = state.popBlockData();\n            state.setBlockStakeWithdrawn(blockData.blockHash);\n            badBlocks[i] = blockData;\n        }\n        require(\n            state.getNumberOfL2Blocks() == uint256(blockNumberL2),\n            'Number remaining not as expected.'\n        );\n        return badBlocks;\n    }\n\n    //To prevent frontrunning, we need to commit to a challenge before we send it\n    function commitToChallenge(bytes32 commitHash) external {\n        require(committers[commitHash] == address(0), 'Hash already committed to');\n        committers[commitHash] = msg.sender;\n        emit CommittedToChallenge(commitHash, msg.sender);\n    }\n\n    // and having sent it, we need to check that commitment to a challenge from\n    // within the challenge function using this function:\n    function checkCommit(bytes calldata messageData) private {\n        bytes32 hash = keccak256(messageData);\n        require(committers[hash] == msg.sender, 'Commitment hash is invalid');\n        delete committers[hash];\n    }\n}\n",
  "sourcePath": "/app/contracts/Challenges.sol",
  "compiler": {
    "name": "solc",
    "version": "0.8.17+commit.8df45f5f.Emscripten.clang"
  },
  "schemaVersion": "3.4.10",
  "updatedAt": "2023-01-04T16:06:58.542Z",
  "networkType": "ethereum",
  "devdoc": {
    "kind": "dev",
    "methods": {
      "getBlockStake()": {
        "details": "Get block stake for a proposer"
      },
      "getBootChallenger()": {
        "details": "Get boot challenger address"
      },
      "getBootProposer()": {
        "details": "Get boot proposer address"
      },
      "getFeeL2TokenAddress()": {
        "details": "Get Matic address (fee token for proposers payment)"
      },
      "getMaxProposers()": {
        "details": "Get maximum number of proposers"
      },
      "getMinimumStake()": {
        "details": "Get minimum stake for a proposer"
      },
      "getProposerSetCount()": {
        "details": "Get proposerset count in PoS"
      },
      "getRotateProposerBlocks()": {
        "details": "Get rotate proposer blocks for the current proposer"
      },
      "getSprintsInSpan()": {
        "details": "Get sprints in span in PoS"
      },
      "owner()": {
        "details": "Tells the address of the owner",
        "returns": {
          "_0": "the address of the owner"
        }
      },
      "removeRestriction(address)": {
        "details": "Remove token restriction"
      },
      "setBlockStake(uint96)": {
        "details": "Set block stake for a proposer"
      },
      "setBootChallenger(address)": {
        "details": "Set boot challenger address"
      },
      "setBootProposer(address)": {
        "details": "Set boot proposer address"
      },
      "setFeeL2TokenAddress(address)": {
        "details": "Set Matic address (fee token for proposers payment)"
      },
      "setMaxProposers(uint256)": {
        "details": "Set maximum number of proposers"
      },
      "setMinimumStake(uint96)": {
        "details": "Set minimum stake for a proposer"
      },
      "setProposerSetCount(uint256)": {
        "details": "Set proposerset count in PoS"
      },
      "setRestriction(address,uint256,uint256)": {
        "details": "Set token restriction"
      },
      "setRotateProposerBlocks(uint256)": {
        "details": "Set rotate proposer blocks for the current proposer"
      },
      "setSprintsInSpan(uint256)": {
        "details": "Set sprints in span in PoS"
      },
      "transferOwnership(address)": {
        "details": "Allows the current owner to transfer control of the contract to a newOwner.",
        "params": {
          "newOwner": "The address to transfer ownership to."
        }
      }
    },
    "version": 1
  },
  "userdoc": {
    "events": {
      "NewLeaf(uint256,bytes32,bytes32)": {
        "notice": "These events are what the merkle-tree microservice's filters will listen for."
      }
    },
    "kind": "user",
    "methods": {
      "challengeCommitment(((uint256,bytes32,bytes32,bytes32,bytes32),(uint256,uint256[],bytes32,bytes32,bytes32,bytes32[],bytes32[],bytes32[2],uint256[4]),uint256,bytes32[]),((uint256,bytes32,bytes32,bytes32,bytes32),(uint256,uint256[],bytes32,bytes32,bytes32,bytes32[],bytes32[],bytes32[2],uint256[4]),uint256,bytes32[]),uint256,uint256,bytes32)": {
        "notice": "Checks that a commitment has not been part of an L2 block before (i.e. a duplicate). If the duplicate commitment occurs within the same block, there is an additional check to ensure they are not at the same index (i.e. a trivial duplicate)."
      },
      "challengeLeafCountCorrect((uint256,bytes32,bytes32,bytes32,bytes32),(uint256,bytes32,bytes32,bytes32,bytes32),(uint256,uint256[],bytes32,bytes32,bytes32,bytes32[],bytes32[],bytes32[2],uint256[4])[],bytes32)": {
        "notice": "Check that the block correctly updates the leafCount.  Note that the leafCount is actually the value AFTER the commitments are added to the Merkle tree."
      },
      "challengeNewRootCorrect(bytes32[33],(uint256,bytes32,bytes32,bytes32,bytes32),bytes32)": {
        "notice": "Checks that the new merkle tree root of a block is incorrect. This could be because the merkle tree that stores commitments has been incorrectly updated. To verify this, we first calculate this challenged block's frontier using the prior block. Using this frontier, we can work out what the root for the current block should be given the set of transactions in said block. Finally, this calculated root is compared to the root stored within the block."
      },
      "challengeNullifier(((uint256,bytes32,bytes32,bytes32,bytes32),(uint256,uint256[],bytes32,bytes32,bytes32,bytes32[],bytes32[],bytes32[2],uint256[4]),uint256,bytes32[]),((uint256,bytes32,bytes32,bytes32,bytes32),(uint256,uint256[],bytes32,bytes32,bytes32,bytes32[],bytes32[],bytes32[2],uint256[4]),uint256,bytes32[]),uint256,uint256,bytes32)": {
        "notice": "Checks that a nullifier has not been part of an L2 block before (i.e. a duplicate). If the duplicate nullifier occurs within the same block, there is an additional check to ensure they are not at the same index (i.e. a trivial duplicate)."
      }
    },
    "version": 1
  }
}