{
  "contractName": "Challenges",
  "abi": [
    {
      "inputs": [
        {
          "internalType": "bytes32",
          "name": "depositHash",
          "type": "bytes32"
        }
      ],
      "name": "DepositNotEscrowed",
      "type": "error"
    },
    {
      "inputs": [],
      "name": "InvalidBlockSize",
      "type": "error"
    },
    {
      "inputs": [],
      "name": "InvalidTransactionHash",
      "type": "error"
    },
    {
      "inputs": [],
      "name": "InvalidTransactionSize",
      "type": "error"
    },
    {
      "anonymous": false,
      "inputs": [],
      "name": "BlockProposed",
      "type": "event"
    },
    {
      "anonymous": false,
      "inputs": [
        {
          "indexed": false,
          "internalType": "bytes32",
          "name": "commitHash",
          "type": "bytes32"
        },
        {
          "indexed": false,
          "internalType": "address",
          "name": "sender",
          "type": "address"
        }
      ],
      "name": "CommittedToChallenge",
      "type": "event"
    },
    {
      "anonymous": false,
      "inputs": [
        {
          "indexed": false,
          "internalType": "uint8",
          "name": "version",
          "type": "uint8"
        }
      ],
      "name": "Initialized",
      "type": "event"
    },
    {
      "anonymous": false,
      "inputs": [
        {
          "indexed": false,
          "internalType": "bytes32",
          "name": "withdrawTransactionHash",
          "type": "bytes32"
        },
        {
          "indexed": false,
          "internalType": "address",
          "name": "paidBy",
          "type": "address"
        },
        {
          "indexed": false,
          "internalType": "uint256",
          "name": "amount",
          "type": "uint256"
        }
      ],
      "name": "InstantWithdrawalRequested",
      "type": "event"
    },
    {
      "anonymous": false,
      "inputs": [
        {
          "indexed": false,
          "internalType": "address",
          "name": "addr",
          "type": "address"
        }
      ],
      "name": "NewBootChallengerSet",
      "type": "event"
    },
    {
      "anonymous": false,
      "inputs": [
        {
          "indexed": false,
          "internalType": "address",
          "name": "addr",
          "type": "address"
        }
      ],
      "name": "NewBootProposerSet",
      "type": "event"
    },
    {
      "anonymous": false,
      "inputs": [
        {
          "indexed": false,
          "internalType": "address",
          "name": "proposer",
          "type": "address"
        }
      ],
      "name": "NewCurrentProposer",
      "type": "event"
    },
    {
      "anonymous": false,
      "inputs": [
        {
          "indexed": false,
          "internalType": "uint256",
          "name": "leafIndex",
          "type": "uint256"
        },
        {
          "indexed": false,
          "internalType": "bytes32",
          "name": "leafValue",
          "type": "bytes32"
        },
        {
          "indexed": false,
          "internalType": "bytes32",
          "name": "root",
          "type": "bytes32"
        }
      ],
      "name": "NewLeaf",
      "type": "event"
    },
    {
      "anonymous": false,
      "inputs": [
        {
          "indexed": false,
          "internalType": "uint256",
          "name": "minLeafIndex",
          "type": "uint256"
        },
        {
          "indexed": false,
          "internalType": "bytes32[]",
          "name": "leafValues",
          "type": "bytes32[]"
        },
        {
          "indexed": false,
          "internalType": "bytes32",
          "name": "root",
          "type": "bytes32"
        }
      ],
      "name": "NewLeaves",
      "type": "event"
    },
    {
      "anonymous": false,
      "inputs": [
        {
          "indexed": false,
          "internalType": "address",
          "name": "previousOwner",
          "type": "address"
        },
        {
          "indexed": false,
          "internalType": "address",
          "name": "newOwner",
          "type": "address"
        }
      ],
      "name": "OwnershipTransferred",
      "type": "event"
    },
    {
      "anonymous": false,
      "inputs": [
        {
          "indexed": false,
          "internalType": "uint64",
          "name": "blockNumberL2",
          "type": "uint64"
        }
      ],
      "name": "Rollback",
      "type": "event"
    },
    {
      "anonymous": false,
      "inputs": [
        {
          "indexed": false,
          "internalType": "address",
          "name": "ercAddress",
          "type": "address"
        },
        {
          "indexed": false,
          "internalType": "uint256",
          "name": "amount",
          "type": "uint256"
        }
      ],
      "name": "ShieldBalanceTransferred",
      "type": "event"
    },
    {
      "anonymous": false,
      "inputs": [],
      "name": "TransactionSubmitted",
      "type": "event"
    },
    {
      "inputs": [],
      "name": "_owner",
      "outputs": [
        {
          "internalType": "address",
          "name": "",
          "type": "address"
        }
      ],
      "stateMutability": "view",
      "type": "function",
      "constant": true
    },
    {
      "inputs": [
        {
          "internalType": "bytes32",
          "name": "",
          "type": "bytes32"
        }
      ],
      "name": "committers",
      "outputs": [
        {
          "internalType": "address",
          "name": "",
          "type": "address"
        }
      ],
      "stateMutability": "view",
      "type": "function",
      "constant": true
    },
    {
      "inputs": [],
      "name": "getBlockStake",
      "outputs": [
        {
          "internalType": "uint96",
          "name": "",
          "type": "uint96"
        }
      ],
      "stateMutability": "view",
      "type": "function",
      "constant": true
    },
    {
      "inputs": [],
      "name": "getBootChallenger",
      "outputs": [
        {
          "internalType": "address",
          "name": "",
          "type": "address"
        }
      ],
      "stateMutability": "view",
      "type": "function",
      "constant": true
    },
    {
      "inputs": [],
      "name": "getBootProposer",
      "outputs": [
        {
          "internalType": "address",
          "name": "",
          "type": "address"
        }
      ],
      "stateMutability": "view",
      "type": "function",
      "constant": true
    },
    {
      "inputs": [],
      "name": "getMaticAddress",
      "outputs": [
        {
          "internalType": "address",
          "name": "",
          "type": "address"
        }
      ],
      "stateMutability": "view",
      "type": "function",
      "constant": true
    },
    {
      "inputs": [],
      "name": "getMaxProposers",
      "outputs": [
        {
          "internalType": "uint256",
          "name": "",
          "type": "uint256"
        }
      ],
      "stateMutability": "view",
      "type": "function",
      "constant": true
    },
    {
      "inputs": [],
      "name": "getMinimumStake",
      "outputs": [
        {
          "internalType": "uint256",
          "name": "",
          "type": "uint256"
        }
      ],
      "stateMutability": "view",
      "type": "function",
      "constant": true
    },
    {
      "inputs": [],
      "name": "getProposerSetCount",
      "outputs": [
        {
          "internalType": "uint256",
          "name": "",
          "type": "uint256"
        }
      ],
      "stateMutability": "view",
      "type": "function",
      "constant": true
    },
    {
      "inputs": [
        {
          "internalType": "address",
          "name": "tokenAddr",
          "type": "address"
        }
      ],
      "name": "getRestrictionDeposit",
      "outputs": [
        {
          "internalType": "uint256",
          "name": "",
          "type": "uint256"
        }
      ],
      "stateMutability": "view",
      "type": "function",
      "constant": true
    },
    {
      "inputs": [
        {
          "internalType": "address",
          "name": "tokenAddr",
          "type": "address"
        }
      ],
      "name": "getRestrictionWithdraw",
      "outputs": [
        {
          "internalType": "uint256",
          "name": "",
          "type": "uint256"
        }
      ],
      "stateMutability": "view",
      "type": "function",
      "constant": true
    },
    {
      "inputs": [],
      "name": "getRotateProposerBlocks",
      "outputs": [
        {
          "internalType": "uint256",
          "name": "",
          "type": "uint256"
        }
      ],
      "stateMutability": "view",
      "type": "function",
      "constant": true
    },
    {
      "inputs": [],
      "name": "getSprintsInSpan",
      "outputs": [
        {
          "internalType": "uint256",
          "name": "",
          "type": "uint256"
        }
      ],
      "stateMutability": "view",
      "type": "function",
      "constant": true
    },
    {
      "inputs": [],
      "name": "owner",
      "outputs": [
        {
          "internalType": "address",
          "name": "",
          "type": "address"
        }
      ],
      "stateMutability": "view",
      "type": "function",
      "constant": true
    },
    {
      "inputs": [
        {
          "internalType": "address",
          "name": "tokenAddr",
          "type": "address"
        }
      ],
      "name": "removeRestriction",
      "outputs": [],
      "stateMutability": "nonpayable",
      "type": "function"
    },
    {
      "inputs": [
        {
          "internalType": "uint96",
          "name": "_blockStake",
          "type": "uint96"
        }
      ],
      "name": "setBlockStake",
      "outputs": [],
      "stateMutability": "nonpayable",
      "type": "function"
    },
    {
      "inputs": [
        {
          "internalType": "address",
          "name": "challenger",
          "type": "address"
        }
      ],
      "name": "setBootChallenger",
      "outputs": [],
      "stateMutability": "nonpayable",
      "type": "function"
    },
    {
      "inputs": [
        {
          "internalType": "address",
          "name": "proposer",
          "type": "address"
        }
      ],
      "name": "setBootProposer",
      "outputs": [],
      "stateMutability": "nonpayable",
      "type": "function"
    },
    {
      "inputs": [
        {
          "internalType": "address",
          "name": "_maticAddress",
          "type": "address"
        }
      ],
      "name": "setMaticAddress",
      "outputs": [],
      "stateMutability": "nonpayable",
      "type": "function"
    },
    {
      "inputs": [
        {
          "internalType": "uint256",
          "name": "_maxProposers",
          "type": "uint256"
        }
      ],
      "name": "setMaxProposers",
      "outputs": [],
      "stateMutability": "nonpayable",
      "type": "function"
    },
    {
      "inputs": [
        {
          "internalType": "uint96",
          "name": "_minimumStake",
          "type": "uint96"
        }
      ],
      "name": "setMinimumStake",
      "outputs": [],
      "stateMutability": "nonpayable",
      "type": "function"
    },
    {
      "inputs": [
        {
          "internalType": "uint256",
          "name": "_proposerSetCount",
          "type": "uint256"
        }
      ],
      "name": "setProposerSetCount",
      "outputs": [],
      "stateMutability": "nonpayable",
      "type": "function"
    },
    {
      "inputs": [
        {
          "internalType": "address",
          "name": "tokenAddr",
          "type": "address"
        },
        {
          "internalType": "uint256",
          "name": "depositAmount",
          "type": "uint256"
        },
        {
          "internalType": "uint256",
          "name": "withdrawAmount",
          "type": "uint256"
        }
      ],
      "name": "setRestriction",
      "outputs": [],
      "stateMutability": "nonpayable",
      "type": "function"
    },
    {
      "inputs": [
        {
          "internalType": "uint256",
          "name": "_rotateProposerBlocks",
          "type": "uint256"
        }
      ],
      "name": "setRotateProposerBlocks",
      "outputs": [],
      "stateMutability": "nonpayable",
      "type": "function"
    },
    {
      "inputs": [
        {
          "internalType": "uint256",
          "name": "_sprintsInSpan",
          "type": "uint256"
        }
      ],
      "name": "setSprintsInSpan",
      "outputs": [],
      "stateMutability": "nonpayable",
      "type": "function"
    },
    {
      "inputs": [
        {
          "internalType": "address payable",
          "name": "stateAddress",
          "type": "address"
        }
      ],
      "name": "setStateContract",
      "outputs": [],
      "stateMutability": "nonpayable",
      "type": "function"
    },
    {
      "inputs": [],
      "name": "state",
      "outputs": [
        {
          "internalType": "contract State",
          "name": "",
          "type": "address"
        }
      ],
      "stateMutability": "view",
      "type": "function",
      "constant": true
    },
    {
      "inputs": [
        {
          "internalType": "address",
          "name": "newOwner",
          "type": "address"
        }
      ],
      "name": "transferOwnership",
      "outputs": [],
      "stateMutability": "nonpayable",
      "type": "function"
    },
    {
      "inputs": [],
      "name": "initialize",
      "outputs": [],
      "stateMutability": "nonpayable",
      "type": "function"
    },
    {
      "inputs": [
        {
          "components": [
            {
              "internalType": "uint256",
              "name": "packedInfo",
              "type": "uint256"
            },
            {
              "internalType": "bytes32",
              "name": "root",
              "type": "bytes32"
            },
            {
              "internalType": "bytes32",
              "name": "previousBlockHash",
              "type": "bytes32"
            },
            {
              "internalType": "bytes32",
              "name": "frontierHash",
              "type": "bytes32"
            },
            {
              "internalType": "bytes32",
              "name": "transactionHashesRoot",
              "type": "bytes32"
            }
          ],
          "internalType": "struct Structures.Block",
          "name": "priorBlockL2",
          "type": "tuple"
        },
        {
          "components": [
            {
              "internalType": "uint256",
              "name": "packedInfo",
              "type": "uint256"
            },
            {
              "internalType": "bytes32",
              "name": "root",
              "type": "bytes32"
            },
            {
              "internalType": "bytes32",
              "name": "previousBlockHash",
              "type": "bytes32"
            },
            {
              "internalType": "bytes32",
              "name": "frontierHash",
              "type": "bytes32"
            },
            {
              "internalType": "bytes32",
              "name": "transactionHashesRoot",
              "type": "bytes32"
            }
          ],
          "internalType": "struct Structures.Block",
          "name": "blockL2",
          "type": "tuple"
        },
        {
          "components": [
            {
              "internalType": "uint256",
              "name": "packedInfo",
              "type": "uint256"
            },
            {
              "internalType": "uint256[]",
              "name": "historicRootBlockNumberL2",
              "type": "uint256[]"
            },
            {
              "internalType": "bytes32",
              "name": "tokenId",
              "type": "bytes32"
            },
            {
              "internalType": "bytes32",
              "name": "ercAddress",
              "type": "bytes32"
            },
            {
              "internalType": "bytes32",
              "name": "recipientAddress",
              "type": "bytes32"
            },
            {
              "internalType": "bytes32[]",
              "name": "commitments",
              "type": "bytes32[]"
            },
            {
              "internalType": "bytes32[]",
              "name": "nullifiers",
              "type": "bytes32[]"
            },
            {
              "internalType": "bytes32[2]",
              "name": "compressedSecrets",
              "type": "bytes32[2]"
            },
            {
              "internalType": "uint256[4]",
              "name": "proof",
              "type": "uint256[4]"
            }
          ],
          "internalType": "struct Structures.Transaction[]",
          "name": "transactions",
          "type": "tuple[]"
        },
        {
          "internalType": "bytes32",
          "name": "salt",
          "type": "bytes32"
        }
      ],
      "name": "challengeLeafCountCorrect",
      "outputs": [],
      "stateMutability": "nonpayable",
      "type": "function"
    },
    {
      "inputs": [
        {
          "components": [
            {
              "internalType": "uint256",
              "name": "packedInfo",
              "type": "uint256"
            },
            {
              "internalType": "bytes32",
              "name": "root",
              "type": "bytes32"
            },
            {
              "internalType": "bytes32",
              "name": "previousBlockHash",
              "type": "bytes32"
            },
            {
              "internalType": "bytes32",
              "name": "frontierHash",
              "type": "bytes32"
            },
            {
              "internalType": "bytes32",
              "name": "transactionHashesRoot",
              "type": "bytes32"
            }
          ],
          "internalType": "struct Structures.Block",
          "name": "priorBlockL2",
          "type": "tuple"
        },
        {
          "internalType": "bytes32[33]",
          "name": "frontierBeforeBlock",
          "type": "bytes32[33]"
        },
        {
          "components": [
            {
              "internalType": "uint256",
              "name": "packedInfo",
              "type": "uint256"
            },
            {
              "internalType": "bytes32",
              "name": "root",
              "type": "bytes32"
            },
            {
              "internalType": "bytes32",
              "name": "previousBlockHash",
              "type": "bytes32"
            },
            {
              "internalType": "bytes32",
              "name": "frontierHash",
              "type": "bytes32"
            },
            {
              "internalType": "bytes32",
              "name": "transactionHashesRoot",
              "type": "bytes32"
            }
          ],
          "internalType": "struct Structures.Block",
          "name": "blockL2",
          "type": "tuple"
        },
        {
          "components": [
            {
              "internalType": "uint256",
              "name": "packedInfo",
              "type": "uint256"
            },
            {
              "internalType": "uint256[]",
              "name": "historicRootBlockNumberL2",
              "type": "uint256[]"
            },
            {
              "internalType": "bytes32",
              "name": "tokenId",
              "type": "bytes32"
            },
            {
              "internalType": "bytes32",
              "name": "ercAddress",
              "type": "bytes32"
            },
            {
              "internalType": "bytes32",
              "name": "recipientAddress",
              "type": "bytes32"
            },
            {
              "internalType": "bytes32[]",
              "name": "commitments",
              "type": "bytes32[]"
            },
            {
              "internalType": "bytes32[]",
              "name": "nullifiers",
              "type": "bytes32[]"
            },
            {
              "internalType": "bytes32[2]",
              "name": "compressedSecrets",
              "type": "bytes32[2]"
            },
            {
              "internalType": "uint256[4]",
              "name": "proof",
              "type": "uint256[4]"
            }
          ],
          "internalType": "struct Structures.Transaction[]",
          "name": "transactions",
          "type": "tuple[]"
        },
        {
          "internalType": "bytes32",
          "name": "salt",
          "type": "bytes32"
        }
      ],
      "name": "challengeNewFrontierCorrect",
      "outputs": [],
      "stateMutability": "nonpayable",
      "type": "function"
    },
    {
      "inputs": [
        {
          "internalType": "bytes32[33]",
          "name": "frontierAfterBlock",
          "type": "bytes32[33]"
        },
        {
          "components": [
            {
              "internalType": "uint256",
              "name": "packedInfo",
              "type": "uint256"
            },
            {
              "internalType": "bytes32",
              "name": "root",
              "type": "bytes32"
            },
            {
              "internalType": "bytes32",
              "name": "previousBlockHash",
              "type": "bytes32"
            },
            {
              "internalType": "bytes32",
              "name": "frontierHash",
              "type": "bytes32"
            },
            {
              "internalType": "bytes32",
              "name": "transactionHashesRoot",
              "type": "bytes32"
            }
          ],
          "internalType": "struct Structures.Block",
          "name": "blockL2",
          "type": "tuple"
        },
        {
          "internalType": "bytes32",
          "name": "salt",
          "type": "bytes32"
        }
      ],
      "name": "challengeNewRootCorrect",
      "outputs": [],
      "stateMutability": "nonpayable",
      "type": "function"
    },
    {
      "inputs": [
        {
          "components": [
            {
              "components": [
                {
                  "internalType": "uint256",
                  "name": "packedInfo",
                  "type": "uint256"
                },
                {
                  "internalType": "bytes32",
                  "name": "root",
                  "type": "bytes32"
                },
                {
                  "internalType": "bytes32",
                  "name": "previousBlockHash",
                  "type": "bytes32"
                },
                {
                  "internalType": "bytes32",
                  "name": "frontierHash",
                  "type": "bytes32"
                },
                {
                  "internalType": "bytes32",
                  "name": "transactionHashesRoot",
                  "type": "bytes32"
                }
              ],
              "internalType": "struct Structures.Block",
              "name": "blockL2",
              "type": "tuple"
            },
            {
              "components": [
                {
                  "internalType": "uint256",
                  "name": "packedInfo",
                  "type": "uint256"
                },
                {
                  "internalType": "uint256[]",
                  "name": "historicRootBlockNumberL2",
                  "type": "uint256[]"
                },
                {
                  "internalType": "bytes32",
                  "name": "tokenId",
                  "type": "bytes32"
                },
                {
                  "internalType": "bytes32",
                  "name": "ercAddress",
                  "type": "bytes32"
                },
                {
                  "internalType": "bytes32",
                  "name": "recipientAddress",
                  "type": "bytes32"
                },
                {
                  "internalType": "bytes32[]",
                  "name": "commitments",
                  "type": "bytes32[]"
                },
                {
                  "internalType": "bytes32[]",
                  "name": "nullifiers",
                  "type": "bytes32[]"
                },
                {
                  "internalType": "bytes32[2]",
                  "name": "compressedSecrets",
                  "type": "bytes32[2]"
                },
                {
                  "internalType": "uint256[4]",
                  "name": "proof",
                  "type": "uint256[4]"
                }
              ],
              "internalType": "struct Structures.Transaction",
              "name": "transaction",
              "type": "tuple"
            },
            {
              "internalType": "uint256",
              "name": "transactionIndex",
              "type": "uint256"
            },
            {
              "internalType": "bytes32[]",
              "name": "transactionSiblingPath",
              "type": "bytes32[]"
            }
          ],
          "internalType": "struct Structures.TransactionInfoBlock",
          "name": "transaction1",
          "type": "tuple"
        },
        {
          "components": [
            {
              "components": [
                {
                  "internalType": "uint256",
                  "name": "packedInfo",
                  "type": "uint256"
                },
                {
                  "internalType": "bytes32",
                  "name": "root",
                  "type": "bytes32"
                },
                {
                  "internalType": "bytes32",
                  "name": "previousBlockHash",
                  "type": "bytes32"
                },
                {
                  "internalType": "bytes32",
                  "name": "frontierHash",
                  "type": "bytes32"
                },
                {
                  "internalType": "bytes32",
                  "name": "transactionHashesRoot",
                  "type": "bytes32"
                }
              ],
              "internalType": "struct Structures.Block",
              "name": "blockL2",
              "type": "tuple"
            },
            {
              "components": [
                {
                  "internalType": "uint256",
                  "name": "packedInfo",
                  "type": "uint256"
                },
                {
                  "internalType": "uint256[]",
                  "name": "historicRootBlockNumberL2",
                  "type": "uint256[]"
                },
                {
                  "internalType": "bytes32",
                  "name": "tokenId",
                  "type": "bytes32"
                },
                {
                  "internalType": "bytes32",
                  "name": "ercAddress",
                  "type": "bytes32"
                },
                {
                  "internalType": "bytes32",
                  "name": "recipientAddress",
                  "type": "bytes32"
                },
                {
                  "internalType": "bytes32[]",
                  "name": "commitments",
                  "type": "bytes32[]"
                },
                {
                  "internalType": "bytes32[]",
                  "name": "nullifiers",
                  "type": "bytes32[]"
                },
                {
                  "internalType": "bytes32[2]",
                  "name": "compressedSecrets",
                  "type": "bytes32[2]"
                },
                {
                  "internalType": "uint256[4]",
                  "name": "proof",
                  "type": "uint256[4]"
                }
              ],
              "internalType": "struct Structures.Transaction",
              "name": "transaction",
              "type": "tuple"
            },
            {
              "internalType": "uint256",
              "name": "transactionIndex",
              "type": "uint256"
            },
            {
              "internalType": "bytes32[]",
              "name": "transactionSiblingPath",
              "type": "bytes32[]"
            }
          ],
          "internalType": "struct Structures.TransactionInfoBlock",
          "name": "transaction2",
          "type": "tuple"
        },
        {
          "internalType": "uint256",
          "name": "commitment1Index",
          "type": "uint256"
        },
        {
          "internalType": "uint256",
          "name": "commitment2Index",
          "type": "uint256"
        },
        {
          "internalType": "bytes32",
          "name": "salt",
          "type": "bytes32"
        }
      ],
      "name": "challengeCommitment",
      "outputs": [],
      "stateMutability": "nonpayable",
      "type": "function"
    },
    {
      "inputs": [
        {
          "components": [
            {
              "components": [
                {
                  "internalType": "uint256",
                  "name": "packedInfo",
                  "type": "uint256"
                },
                {
                  "internalType": "bytes32",
                  "name": "root",
                  "type": "bytes32"
                },
                {
                  "internalType": "bytes32",
                  "name": "previousBlockHash",
                  "type": "bytes32"
                },
                {
                  "internalType": "bytes32",
                  "name": "frontierHash",
                  "type": "bytes32"
                },
                {
                  "internalType": "bytes32",
                  "name": "transactionHashesRoot",
                  "type": "bytes32"
                }
              ],
              "internalType": "struct Structures.Block",
              "name": "blockL2",
              "type": "tuple"
            },
            {
              "components": [
                {
                  "internalType": "uint256",
                  "name": "packedInfo",
                  "type": "uint256"
                },
                {
                  "internalType": "uint256[]",
                  "name": "historicRootBlockNumberL2",
                  "type": "uint256[]"
                },
                {
                  "internalType": "bytes32",
                  "name": "tokenId",
                  "type": "bytes32"
                },
                {
                  "internalType": "bytes32",
                  "name": "ercAddress",
                  "type": "bytes32"
                },
                {
                  "internalType": "bytes32",
                  "name": "recipientAddress",
                  "type": "bytes32"
                },
                {
                  "internalType": "bytes32[]",
                  "name": "commitments",
                  "type": "bytes32[]"
                },
                {
                  "internalType": "bytes32[]",
                  "name": "nullifiers",
                  "type": "bytes32[]"
                },
                {
                  "internalType": "bytes32[2]",
                  "name": "compressedSecrets",
                  "type": "bytes32[2]"
                },
                {
                  "internalType": "uint256[4]",
                  "name": "proof",
                  "type": "uint256[4]"
                }
              ],
              "internalType": "struct Structures.Transaction",
              "name": "transaction",
              "type": "tuple"
            },
            {
              "internalType": "uint256",
              "name": "transactionIndex",
              "type": "uint256"
            },
            {
              "internalType": "bytes32[]",
              "name": "transactionSiblingPath",
              "type": "bytes32[]"
            }
          ],
          "internalType": "struct Structures.TransactionInfoBlock",
          "name": "transaction1",
          "type": "tuple"
        },
        {
          "components": [
            {
              "components": [
                {
                  "internalType": "uint256",
                  "name": "packedInfo",
                  "type": "uint256"
                },
                {
                  "internalType": "bytes32",
                  "name": "root",
                  "type": "bytes32"
                },
                {
                  "internalType": "bytes32",
                  "name": "previousBlockHash",
                  "type": "bytes32"
                },
                {
                  "internalType": "bytes32",
                  "name": "frontierHash",
                  "type": "bytes32"
                },
                {
                  "internalType": "bytes32",
                  "name": "transactionHashesRoot",
                  "type": "bytes32"
                }
              ],
              "internalType": "struct Structures.Block",
              "name": "blockL2",
              "type": "tuple"
            },
            {
              "components": [
                {
                  "internalType": "uint256",
                  "name": "packedInfo",
                  "type": "uint256"
                },
                {
                  "internalType": "uint256[]",
                  "name": "historicRootBlockNumberL2",
                  "type": "uint256[]"
                },
                {
                  "internalType": "bytes32",
                  "name": "tokenId",
                  "type": "bytes32"
                },
                {
                  "internalType": "bytes32",
                  "name": "ercAddress",
                  "type": "bytes32"
                },
                {
                  "internalType": "bytes32",
                  "name": "recipientAddress",
                  "type": "bytes32"
                },
                {
                  "internalType": "bytes32[]",
                  "name": "commitments",
                  "type": "bytes32[]"
                },
                {
                  "internalType": "bytes32[]",
                  "name": "nullifiers",
                  "type": "bytes32[]"
                },
                {
                  "internalType": "bytes32[2]",
                  "name": "compressedSecrets",
                  "type": "bytes32[2]"
                },
                {
                  "internalType": "uint256[4]",
                  "name": "proof",
                  "type": "uint256[4]"
                }
              ],
              "internalType": "struct Structures.Transaction",
              "name": "transaction",
              "type": "tuple"
            },
            {
              "internalType": "uint256",
              "name": "transactionIndex",
              "type": "uint256"
            },
            {
              "internalType": "bytes32[]",
              "name": "transactionSiblingPath",
              "type": "bytes32[]"
            }
          ],
          "internalType": "struct Structures.TransactionInfoBlock",
          "name": "transaction2",
          "type": "tuple"
        },
        {
          "internalType": "uint256",
          "name": "nullifier1Index",
          "type": "uint256"
        },
        {
          "internalType": "uint256",
          "name": "nullifier2Index",
          "type": "uint256"
        },
        {
          "internalType": "bytes32",
          "name": "salt",
          "type": "bytes32"
        }
      ],
      "name": "challengeNullifier",
      "outputs": [],
      "stateMutability": "nonpayable",
      "type": "function"
    },
    {
      "inputs": [
        {
          "internalType": "uint256",
          "name": "xin",
          "type": "uint256"
        }
      ],
      "name": "decompressG1",
      "outputs": [
        {
          "internalType": "bool",
          "name": "",
          "type": "bool"
        },
        {
          "internalType": "uint256[2]",
          "name": "",
          "type": "uint256[2]"
        }
      ],
      "stateMutability": "nonpayable",
      "type": "function"
    },
    {
      "inputs": [
        {
          "internalType": "uint256[2]",
          "name": "xins",
          "type": "uint256[2]"
        }
      ],
      "name": "decompressG2",
      "outputs": [
        {
          "internalType": "bool",
          "name": "",
          "type": "bool"
        },
        {
          "internalType": "uint256[2][2]",
          "name": "",
          "type": "uint256[2][2]"
        }
      ],
      "stateMutability": "pure",
      "type": "function",
      "constant": true
    },
    {
      "inputs": [
        {
          "components": [
            {
              "components": [
                {
                  "internalType": "uint256",
                  "name": "packedInfo",
                  "type": "uint256"
                },
                {
                  "internalType": "bytes32",
                  "name": "root",
                  "type": "bytes32"
                },
                {
                  "internalType": "bytes32",
                  "name": "previousBlockHash",
                  "type": "bytes32"
                },
                {
                  "internalType": "bytes32",
                  "name": "frontierHash",
                  "type": "bytes32"
                },
                {
                  "internalType": "bytes32",
                  "name": "transactionHashesRoot",
                  "type": "bytes32"
                }
              ],
              "internalType": "struct Structures.Block",
              "name": "blockL2",
              "type": "tuple"
            },
            {
              "components": [
                {
                  "internalType": "uint256",
                  "name": "packedInfo",
                  "type": "uint256"
                },
                {
                  "internalType": "uint256[]",
                  "name": "historicRootBlockNumberL2",
                  "type": "uint256[]"
                },
                {
                  "internalType": "bytes32",
                  "name": "tokenId",
                  "type": "bytes32"
                },
                {
                  "internalType": "bytes32",
                  "name": "ercAddress",
                  "type": "bytes32"
                },
                {
                  "internalType": "bytes32",
                  "name": "recipientAddress",
                  "type": "bytes32"
                },
                {
                  "internalType": "bytes32[]",
                  "name": "commitments",
                  "type": "bytes32[]"
                },
                {
                  "internalType": "bytes32[]",
                  "name": "nullifiers",
                  "type": "bytes32[]"
                },
                {
                  "internalType": "bytes32[2]",
                  "name": "compressedSecrets",
                  "type": "bytes32[2]"
                },
                {
                  "internalType": "uint256[4]",
                  "name": "proof",
                  "type": "uint256[4]"
                }
              ],
              "internalType": "struct Structures.Transaction",
              "name": "transaction",
              "type": "tuple"
            },
            {
              "internalType": "uint256",
              "name": "transactionIndex",
              "type": "uint256"
            },
            {
              "internalType": "bytes32[]",
              "name": "transactionSiblingPath",
              "type": "bytes32[]"
            }
          ],
          "internalType": "struct Structures.TransactionInfoBlock",
          "name": "transaction",
          "type": "tuple"
        },
        {
          "components": [
            {
              "internalType": "uint256",
              "name": "packedInfo",
              "type": "uint256"
            },
            {
              "internalType": "bytes32",
              "name": "root",
              "type": "bytes32"
            },
            {
              "internalType": "bytes32",
              "name": "previousBlockHash",
              "type": "bytes32"
            },
            {
              "internalType": "bytes32",
              "name": "frontierHash",
              "type": "bytes32"
            },
            {
              "internalType": "bytes32",
              "name": "transactionHashesRoot",
              "type": "bytes32"
            }
          ],
          "internalType": "struct Structures.Block[]",
          "name": "blockL2ContainingHistoricRoot",
          "type": "tuple[]"
        },
        {
          "internalType": "bytes32",
          "name": "salt",
          "type": "bytes32"
        }
      ],
      "name": "challengeProofVerification",
      "outputs": [],
      "stateMutability": "nonpayable",
      "type": "function"
    },
    {
      "inputs": [
        {
          "components": [
            {
              "components": [
                {
                  "internalType": "uint256",
                  "name": "packedInfo",
                  "type": "uint256"
                },
                {
                  "internalType": "bytes32",
                  "name": "root",
                  "type": "bytes32"
                },
                {
                  "internalType": "bytes32",
                  "name": "previousBlockHash",
                  "type": "bytes32"
                },
                {
                  "internalType": "bytes32",
                  "name": "frontierHash",
                  "type": "bytes32"
                },
                {
                  "internalType": "bytes32",
                  "name": "transactionHashesRoot",
                  "type": "bytes32"
                }
              ],
              "internalType": "struct Structures.Block",
              "name": "blockL2",
              "type": "tuple"
            },
            {
              "components": [
                {
                  "internalType": "uint256",
                  "name": "packedInfo",
                  "type": "uint256"
                },
                {
                  "internalType": "uint256[]",
                  "name": "historicRootBlockNumberL2",
                  "type": "uint256[]"
                },
                {
                  "internalType": "bytes32",
                  "name": "tokenId",
                  "type": "bytes32"
                },
                {
                  "internalType": "bytes32",
                  "name": "ercAddress",
                  "type": "bytes32"
                },
                {
                  "internalType": "bytes32",
                  "name": "recipientAddress",
                  "type": "bytes32"
                },
                {
                  "internalType": "bytes32[]",
                  "name": "commitments",
                  "type": "bytes32[]"
                },
                {
                  "internalType": "bytes32[]",
                  "name": "nullifiers",
                  "type": "bytes32[]"
                },
                {
                  "internalType": "bytes32[2]",
                  "name": "compressedSecrets",
                  "type": "bytes32[2]"
                },
                {
                  "internalType": "uint256[4]",
                  "name": "proof",
                  "type": "uint256[4]"
                }
              ],
              "internalType": "struct Structures.Transaction",
              "name": "transaction",
              "type": "tuple"
            },
            {
              "internalType": "uint256",
              "name": "transactionIndex",
              "type": "uint256"
            },
            {
              "internalType": "bytes32[]",
              "name": "transactionSiblingPath",
              "type": "bytes32[]"
            }
          ],
          "internalType": "struct Structures.TransactionInfoBlock",
          "name": "transaction",
          "type": "tuple"
        }
      ],
      "name": "challengeHistoricRootBlockNumber",
      "outputs": [],
      "stateMutability": "nonpayable",
      "type": "function"
    },
    {
      "inputs": [
        {
          "internalType": "bytes32",
          "name": "commitHash",
          "type": "bytes32"
        }
      ],
      "name": "commitToChallenge",
      "outputs": [],
      "stateMutability": "nonpayable",
      "type": "function"
    }
  ],
  "bytecode": "0x608060405234801561001057600080fd5b50614397806100206000396000f3fe608060405234801561001057600080fd5b50600436106101cd5760003560e01c80631182cefa146101d2578063120f66df14610211578063146eb222146102325780631c80a5a514610247578063250093071461025a57806328340f171461026d5780633195a4e71461027e57806342646c681461029157806360f611d5146102a257806369a5b950146102b55780638129fc1c146102c857806384afda19146102d0578063875840ce146102e3578063894f7d62146102eb5780638da5cb5b146102fe5780639c18de9314610306578063a72b8d9814610319578063aa411d5b1461032c578063af52ca691461033f578063b0a9fd0f14610352578063b0c9569a1461036d578063b13a8c0714610375578063b2bdfa7b14610388578063b81547231461039b578063b8424d42146103bc578063b8da51f1146103cf578063bb7affc1146103e2578063bf2c94db146103f5578063c19d93fb14610408578063c2c5bb6e14610421578063c300db9b14610434578063c83daadc1461043c578063d9bbd27814610444578063da5370ca1461045c578063efedffa81461046f578063f0b86f2714610477578063f2fde38b1461048a578063f560a7921461049d578063fc3ff81e146104b0575b600080fd5b6101fb6101e0366004613401565b600c602052600090815260409020546001600160a01b031681565b604051610208919061341a565b60405180910390f35b61022461021f366004613443565b6104d1565b604051908152602001610208565b610245610240366004613401565b6104f4565b005b610245610255366004613479565b61053a565b61024561026836600461351b565b61077c565b6008546001600160a01b03166101fb565b61024561028c366004613401565b6108bd565b6009546001600160a01b03166101fb565b6102456102b03660046135a7565b6108fa565b6102456102c3366004613443565b610adc565b610245610b34565b6102456102de366004613443565b610c4e565b600654610224565b6102456102f9366004613640565b610d07565b6101fb610d61565b61024561031436600461365d565b610d70565b610245610327366004613692565b610dcb565b61024561033a366004613443565b6113a4565b61024561034d366004613401565b6113fe565b6003546040516001600160601b039091168152602001610208565b600754610224565b610245610383366004613640565b61143b565b6002546101fb906001600160a01b031681565b6103ae6103a936600461379f565b61149b565b6040516102089291906137ff565b6102456103ca366004613865565b61188e565b6102456103dd366004613401565b611a31565b6102456103f0366004613443565b611ae8565b610245610403366004613401565b611b6c565b6000546101fb906201000090046001600160a01b031681565b61022461042f366004613443565b611ba9565b6101fb611bc7565b600454610224565b600254600160a01b90046001600160601b0316610224565b61024561046a366004613479565b611bd6565b600554610224565b6102456104853660046138d2565b611d80565b610245610498366004613443565b6120d2565b6102456104ab366004613443565b612171565b6104c36104be366004613401565b6121f5565b604051610208929190613906565b6001600160a01b0381166000908152600b6020526040812060015b015492915050565b6104fc610d61565b6001600160a01b0316336001600160a01b0316146105355760405162461bcd60e51b815260040161052c90613956565b60405180910390fd5b600555565b61054560003661234f565b6000546201000090046001600160a01b031663f41f339f8661056a60a08201826139a4565b60c089013561057c60e08b018b6139c5565b6040518663ffffffff1660e01b815260040161059c959493929190613b86565b602060405180830381865afa1580156105b9573d6000803e3d6000fd5b505050506040513d601f19601f820116820180604052508101906105dd9190613bce565b506000546201000090046001600160a01b031663f41f339f8561060360a08201826139a4565b60c088013561061560e08a018a6139c5565b6040518663ffffffff1660e01b8152600401610635959493929190613b86565b602060405180830381865afa158015610652573d6000803e3d6000fd5b505050506040513d601f19601f820116820180604052508101906106769190613bce565b50843560a090811c908535901c6001600160401b03808216908316036106bd578560c001358760c00135036106bd5760405162461bcd60e51b815260040161052c90613be7565b73__ChallengesUtil________________________638185f01d6106e460a08a018a6139a4565b876106f260a08b018b6139a4565b886040518563ffffffff1660e01b81526004016107129493929190613c2a565b60006040518083038186803b15801561072a57600080fd5b505af415801561073e573d6000803e3d6000fd5b50505050806001600160401b0316826001600160401b0316111561076a57610765876123f2565b610773565b610773866123f2565b50505050505050565b61078760003661234f565b600054604051635b67815b60e11b8152620100009091046001600160a01b03169063b6cf02b6906107bc908590600401613c67565b60006040518083038186803b1580156107d457600080fd5b505afa1580156107e8573d6000803e3d6000fd5b505050506000610820846021806020026040519081016040528092919082602160200280828437600092019190915250612571915050565b9050826060013581146108455760405162461bcd60e51b815260040161052c90613c75565b604051631355ea6560e01b815273__ChallengesUtil________________________90631355ea659061087e9087908790600401613cab565b60006040518083038186803b15801561089657600080fd5b505af41580156108aa573d6000803e3d6000fd5b505050506108b7836123f2565b50505050565b6108c5610d61565b6001600160a01b0316336001600160a01b0316146108f55760405162461bcd60e51b815260040161052c90613956565b600755565b61090560003661234f565b600054604051635b67815b60e11b8152620100009091046001600160a01b03169063b6cf02b69061093a908990600401613c67565b60006040518083038186803b15801561095257600080fd5b505afa158015610966573d6000803e3d6000fd5b505060005460405163097091e360e21b8152620100009091046001600160a01b031692506325c2478c91506109a390879087908790600401613ce3565b60006040518083038186803b1580156109bb57600080fd5b505afa1580156109cf573d6000803e3d6000fd5b505050843560a01c90506001600160401b0316863560a01c6109f2906001613d6b565b6001600160401b031614610a185760405162461bcd60e51b815260040161052c90613d92565b600085604051602001610a2b9190613dc9565b60405160208183030381529060405280519060200120905086606001358114610a665760405162461bcd60e51b815260040161052c90613c75565b604051633b5260b960e01b815273__ChallengesUtil________________________90633b5260b990610aa3908990899089908990600401613e23565b60006040518083038186803b158015610abb57600080fd5b505af4158015610acf573d6000803e3d6000fd5b50505050610773856123f2565b610ae4610d61565b6001600160a01b0316336001600160a01b031614610b145760405162461bcd60e51b815260040161052c90613956565b6001600160a01b03166000908152600b6020526040812081815560010155565b600054610100900460ff1615808015610b545750600054600160ff909116105b80610b6e5750303b158015610b6e575060005460ff166001145b610bd15760405162461bcd60e51b815260206004820152602e60248201527f496e697469616c697a61626c653a20636f6e747261637420697320616c72656160448201526d191e481a5b9a5d1a585b1a5e995960921b606482015260840161052c565b6000805460ff191660011790558015610bf4576000805461ff0019166101001790555b610bfc6125a1565b610c046125e3565b8015610c4b576000805461ff0019169055604051600181527f7f26b83ff96e1f2b6a682f133852f6798a09c465da95921460cefb3847402498906020015b60405180910390a15b50565b6001546001600160a01b031633148015610c725750600154600160a01b900460ff16155b610cca5760405162461bcd60e51b815260206004820152602360248201527f4f6e6c7920746865206f776e65722063616e2063616c6c20746869732c206f6e60448201526231b29760e91b606482015260840161052c565b6001805460ff60a01b1916600160a01b179055600080546001600160a01b03909216620100000262010000600160b01b0319909216919091179055565b610d0f610d61565b6001600160a01b0316336001600160a01b031614610d3f5760405162461bcd60e51b815260040161052c90613956565b600380546001600160601b0319166001600160601b0392909216919091179055565b6002546001600160a01b031690565b610d78610d61565b6001600160a01b0316336001600160a01b031614610da85760405162461bcd60e51b815260040161052c90613956565b6001600160a01b03929092166000908152600b6020526040902090815560010155565b610dd660003661234f565b6000546201000090046001600160a01b031663f41f339f85610dfb60a08201826139a4565b60c0880135610e0d60e08a018a6139c5565b6040518663ffffffff1660e01b8152600401610e2d959493929190613b86565b602060405180830381865afa158015610e4a573d6000803e3d6000fd5b505050506040513d601f19601f82011682018060405250810190610e6e9190613bce565b50610e7c60a08501856139a4565b610e8a9060c08101906139c5565b83149050610ef75760405162461bcd60e51b815260206004820152603460248201527f496e76616c6964206e756d626572206f6620626c6f636b73204c3220636f6e74604482015273185a5b9a5b99c81a1a5cdd1bdc9a58c81c9bdbdd60621b606482015260840161052c565b60006040518060400160405280868060a00190610f1491906139a4565b610f229060c08101906139c5565b90506001600160401b03811115610f3b57610f3b613731565b604051908082528060200260200182016040528015610f64578160200160208202803683370190505b508152602001610f72611bc7565b6001600160a01b03169052905060005b610f8f60a08701876139a4565b610f9d9060c08101906139c5565b905081101561116057610fb360a08701876139a4565b610fc19060c08101906139c5565b82818110610fd157610fd1613940565b9050602002013560001c600014611150576000546201000090046001600160a01b031663b6cf02b686868481811061100b5761100b613940565b905060a002016040518263ffffffff1660e01b815260040161102d9190613c67565b60006040518083038186803b15801561104557600080fd5b505afa158015611059573d6000803e3d6000fd5b505050506000611086878060a0019061107291906139a4565b6110809060208101906139c5565b84612651565b90506110ad86868481811061109d5761109d613940565b905060a002016000013560a01c90565b6001600160401b0316816001600160401b03161461110d5760405162461bcd60e51b815260206004820152601d60248201527f496e636f727265637420686973746f72696320726f6f7420626c6f636b000000604482015260640161052c565b85858381811061111f5761111f613940565b905060a002016020013560001c8360000151838151811061114257611142613940565b602002602001018181525050505b61115981613e5b565b9050610f82565b50600061116b613398565b6111736133b6565b61117b613398565b61119c61118b60a08b018b6139a4565b6101200160005b60200201356121f5565b9094509250836111b9576111af896123f2565b50505050506108b7565b6111fa60405180604001604052808b8060a001906111d791906139a4565b610140013581526020016111ee60a08d018d6139a4565b6101600135905261149b565b90945091508361120d576111af896123f2565b61122861121d60a08b018b6139a4565b610120016003611192565b90945090508361123b576111af896123f2565b61139061124b60a08b018b6139a4565b866040518061010001604052808760006002811061126b5761126b613940565b602002015181526020018760016002811061128857611288613940565b60200201518152602001866000600281106112a5576112a5613940565b60209081029190910151518252875181015182820152878101805151604084015251015160608201528551608082015260a0018560016020020151815250600060029054906101000a90046001600160a01b03166001600160a01b031663f5a6b9956113218f8060a0019061131a91906139a4565b3560d81c90565b6040516001600160e01b031960e084901b16815264ffffffffff9091166004820152602401600060405180830381865afa158015611363573d6000803e3d6000fd5b505050506040513d6000823e601f3d908101601f1916820160405261138b9190810190613e74565b6126ae565b611399896123f2565b505050505050505050565b6113ac610d61565b6001600160a01b0316336001600160a01b0316146113dc5760405162461bcd60e51b815260040161052c90613956565b600a80546001600160a01b0319166001600160a01b0392909216919091179055565b611406610d61565b6001600160a01b0316336001600160a01b0316146114365760405162461bcd60e51b815260040161052c90613956565b600655565b611443610d61565b6001600160a01b0316336001600160a01b0316146114735760405162461bcd60e51b815260040161052c90613956565b600280546001600160601b03909216600160a01b026001600160a01b03909216919091179055565b60006114a56133b6565b6000604051806040016040528060ff866000600281106114c7576114c7613940565b6020020151901c60011660ff1660ff16815260200160ff866001600281106114f1576114f1613940565b6020020151901c60011690528451909150600160fe1b90600090611516908390613f23565b9050600082876001602002015161152d9190613f23565b905060006040518060400160405280848152602001838152509050600073__Utils_________________________________635698508e73__Utils_________________________________635698508e85866040518363ffffffff1660e01b815260040161159d929190613f5a565b6040805180830381865af41580156115b9573d6000803e3d6000fd5b505050506040513d601f19601f820116820180604052508101906115dd9190613fba565b846040518363ffffffff1660e01b81526004016115fb929190613f5a565b6040805180830381865af4158015611617573d6000803e3d6000fd5b505050506040513d601f19601f8201168201806040525081019061163b9190613fba565b604080518082019091527f2b149d40ceb8aaae81be18991be06ac3b5b4c5e559dbefa33267e6dc24a138e581527e9713b03af0fed4cd2cafadeed8fdf4a74fa084e52d1852e4a2bd0685c315d260208201528151919250901580156116a257506020820151155b80156116b0575060208a0151155b156116f2576000604051806040016040528084815260200160405180604001604052806001815260200160008152508152509850985050505050505050915091565b600060405180604001604052806000805160206143428339815191528061171b5761171b613f0d565b845186510881526020016000805160206143428339815191528460016020020151866001602002015108815250905060008073__Utils_________________________________638835829e846040518263ffffffff1660e01b81526004016117849190613fd6565b606060405180830381865af41580156117a1573d6000803e3d6000fd5b505050506040513d601f19601f820116820180604052508101906117c59190613ff9565b805191935091506000906117db90600290613f23565b8b5160ff16146118045781516117ff9060008051602061434283398151915261402d565b611807565b81515b905060006002836001602002015161181f9190613f23565b60208d015160ff161461184e5760208301516118499060008051602061434283398151915261402d565b611854565b60208301515b604080518082018252998a52805180820190915292835260208381019190915288019190915250909c949b50939950505050505050505050565b61189960003661234f565b600054604051635b67815b60e11b8152620100009091046001600160a01b03169063b6cf02b6906118ce908890600401613c67565b60006040518083038186803b1580156118e657600080fd5b505afa1580156118fa573d6000803e3d6000fd5b505060005460405163097091e360e21b8152620100009091046001600160a01b031692506325c2478c915061193790879087908790600401613ce3565b60006040518083038186803b15801561194f57600080fd5b505afa158015611963573d6000803e3d6000fd5b505050843560a01c90506001600160401b0316853560a01c611986906001613d6b565b6001600160401b0316146119ac5760405162461bcd60e51b815260040161052c90613d92565b73__ChallengesUtil________________________632831d198863560e01c863560e01c86866040518563ffffffff1660e01b81526004016119f19493929190614040565b60006040518083038186803b158015611a0957600080fd5b505af4158015611a1d573d6000803e3d6000fd5b50505050611a2a846123f2565b5050505050565b6000818152600c60205260409020546001600160a01b031615611a925760405162461bcd60e51b81526020600482015260196024820152784861736820616c726561647920636f6d6d697474656420746f60381b604482015260640161052c565b6000818152600c602090815260409182902080546001600160a01b031916339081179091558251848152918201527f0d5ea452ac7e354069d902d41e41e24f605467acd037b8f5c1c6fee5e27fb5e29101610c42565b611af0610d61565b6001600160a01b0316336001600160a01b031614611b205760405162461bcd60e51b815260040161052c90613956565b600880546001600160a01b0319166001600160a01b0383169081179091556040517f5544fd39820f90f9fc4b238e0eaaf1b5ece21e6dbb69a2b0824a16876e6d0efd91610c429161341a565b611b74610d61565b6001600160a01b0316336001600160a01b031614611ba45760405162461bcd60e51b815260040161052c90613956565b600455565b6001600160a01b0381166000908152600b60205260408120816104ec565b600a546001600160a01b031690565b611be160003661234f565b6000546201000090046001600160a01b031663f41f339f86611c0660a08201826139a4565b60c0890135611c1860e08b018b6139c5565b6040518663ffffffff1660e01b8152600401611c38959493929190613b86565b602060405180830381865afa158015611c55573d6000803e3d6000fd5b505050506040513d601f19601f82011682018060405250810190611c799190613bce565b506000546201000090046001600160a01b031663f41f339f85611c9f60a08201826139a4565b60c0880135611cb160e08a018a6139c5565b6040518663ffffffff1660e01b8152600401611cd1959493929190613b86565b602060405180830381865afa158015611cee573d6000803e3d6000fd5b505050506040513d601f19601f82011682018060405250810190611d129190613bce565b50843560a090811c908535901c6001600160401b0380821690831603611d59578560c001358760c0013503611d595760405162461bcd60e51b815260040161052c90613be7565b73__ChallengesUtil________________________63ff124ee86106e460a08a018a6139a4565b611d8b60003661234f565b6000546201000090046001600160a01b031663f41f339f82611db060a08201826139a4565b60c0850135611dc260e08701876139c5565b6040518663ffffffff1660e01b8152600401611de2959493929190613b86565b602060405180830381865afa158015611dff573d6000803e3d6000fd5b505050506040513d601f19601f82011682018060405250810190611e239190613bce565b506000611e3360a08301836139a4565b611e419060208101906139c5565b611e4d91506004614074565b6001600160401b03811115611e6457611e64613731565b604051908082528060200260200182016040528015611e8d578160200160208202803683370190505b50905060005b8151811015611efa57611ec0611eac60a08501856139a4565b611eba9060208101906139c5565b83612651565b828281518110611ed257611ed2613940565b6001600160401b0390921660209283029190910190910152611ef381613e5b565b9050611e93565b5060005b611f0b60a08401846139a4565b611f199060c08101906139c5565b9050811015611fdf57600060029054906101000a90046001600160a01b03166001600160a01b03166305eb81e66040518163ffffffff1660e01b8152600401602060405180830381865afa158015611f75573d6000803e3d6000fd5b505050506040513d601f19601f82011682018060405250810190611f999190613bce565b828281518110611fab57611fab613940565b60200260200101516001600160401b031610611fcf57611fca836123f2565b505050565b611fd881613e5b565b9050611efe565b50600060018251611ff0919061402d565b90505b61200060a08401846139a4565b61200e9060c08101906139c5565b905081106120625760006001600160401b031682828151811061203357612033613940565b60200260200101516001600160401b03161461205257611fca836123f2565b61205b8161408b565b9050611ff3565b5060405162461bcd60e51b815260206004820152603a60248201527f486973746f72696320726f6f747320617265206e6f74206772656174657220746044820152793430b7102619213637b1b5a73ab6b132b91037b71031b430b4b760311b606482015260840161052c565b5050565b6120da610d61565b6001600160a01b0316336001600160a01b03161461210a5760405162461bcd60e51b815260040161052c90613956565b6001600160a01b03811661211d57600080fd5b7f8be0079c531659141344cd1fd0a4f28419497f9722a3daafe3b4186f6b6457e0612146610d61565b604080516001600160a01b03928316815291841660208301520160405180910390a1610c4b81612843565b612179610d61565b6001600160a01b0316336001600160a01b0316146121a95760405162461bcd60e51b815260040161052c90613956565b600980546001600160a01b0319166001600160a01b0383169081179091556040517f210cff5548618e71293ea0d4f1f3563a68e78f00273f3acd97014aac2442ed2491610c429161341a565b60006121ff613398565b82600160ff1b036122285750506040805180820190915260008082526001602083015292909150565b60ff83901c600160fe1b600061223e8287613f23565b905060006000805160206143428339815191528083840983099050600060008051602061434283398151915260038308905060006122af826002612291600160008051602061434283398151915261402d565b61229b91906140a2565b600080516020614342833981519152612865565b600114905060006122d7836004600080516020614342833981519152600161229191906140b6565b90506122e4600282613f23565b60ff168760ff161461232f578160405180604001604052808781526020018360008051602061434283398151915261231c919061402d565b8152509850985050505050505050915091565b604080518082019091529485526020850152989297509195505050505050565b600082826040516123619291906140c9565b60408051918290039091206000818152600c60205291909120549091506001600160a01b031633146123d25760405162461bcd60e51b815260206004820152601a60248201527910dbdb5b5a5d1b595b9d081a185cda081a5cc81a5b9d985b1a5960321b604482015260640161052c565b6000908152600c6020526040902080546001600160a01b03191690555050565b803560a01c61240462093a804261402d565b6000546040516383b6ebe560e01b8152620100009091046001600160a01b0316906383b6ebe5906124399085906004016140d9565b608060405180830381865afa158015612456573d6000803e3d6000fd5b505050506040513d601f19601f8201168201806040525081019061247a91906140ed565b6020015110156124c55760405162461bcd60e51b815260206004820152601660248201527543616e6e6f74206368616c6c656e676520626c6f636b60501b604482015260640161052c565b7f03404b6979bc5ed297ee1fc6daf00fcb29bbd74b934488ef775c1d70c5e7cd8d816040516124f491906140d9565b60405180910390a16000612507826128b1565b600054604051639b0cd42d60e01b81529192506201000090046001600160a01b031690639b0cd42d906125439033908735908690600401614161565b600060405180830381600087803b15801561255d57600080fd5b505af1158015610773573d6000803e3d6000fd5b60008160405160200161258491906141eb565b604051602081830303815290604052805190602001209050919050565b600054610100900460ff166125c85760405162461bcd60e51b815260040161052c9061421d565b600180546001600160a81b0319163360ff60a01b1916179055565b600054610100900460ff1661260a5760405162461bcd60e51b815260040161052c9061421d565b612612612bcf565b600280546001600160a01b0316613d0960a61b179055600380546001600160601b03191660011790556020600455600a60058190556006556064600755565b60008061265f6004846140a2565b9050600061266e600485613f23565b61267990600361402d565b612684906040614074565b90508086868481811061269957612699613940565b90506020020135901c925050505b9392505050565b6040805160808181019092526126e2916101208701906004908390839080828437600092019190915250859150612c019050565b6040805160088082526101208201909252600091602082016101008036833701905050905060005b60088110156127595783816008811061272557612725613940565b602002015182828151811061273c5761273c613940565b60209081029190910101528061275181613e5b565b91505061270a565b50600061276f8686600001518760200151612cc5565b6040516387d9d02360e01b815290915073__Verifier______________________________906387d9d023906127ad908590859088906004016142a3565b602060405180830381865af41580156127ca573d6000803e3d6000fd5b505050506040513d601f19601f820116820180604052508101906127ee91906142dc565b1561283b5760405162461bcd60e51b815260206004820152601e60248201527f546869732070726f6f66206170706561727320746f2062652076616c69640000604482015260640161052c565b505050505050565b600280546001600160a01b0319166001600160a01b0392909216919091179055565b600060405160208152602080820152602060408201528460608201528360808201528260a082015260c05160208160c08460006005600019f16128a757600080fd5b5195945050505050565b606060006001600060029054906101000a90046001600160a01b03166001600160a01b03166305eb81e66040518163ffffffff1660e01b8152600401602060405180830381865afa15801561290a573d6000803e3d6000fd5b505050506040513d601f19601f8201168201806040525081019061292e9190613bce565b612938919061402d565b9050600061294f6001600160401b0385168361402d565b61295a9060016140b6565b6001600160401b0381111561297157612971613731565b6040519080825280602002602001820160405280156129c357816020015b60408051608081018252600080825260208083018290529282018190526060820152825260001990920191018161298f5790505b50905060005b6129dc6001600160401b0386168461402d565b8111612af65760008060029054906101000a90046001600160a01b03166001600160a01b0316631c4206826040518163ffffffff1660e01b81526004016080604051808303816000875af1158015612a38573d6000803e3d6000fd5b505050506040513d601f19601f82011682018060405250810190612a5c91906140ed565b6000548151604051635e5a6de160e11b815260048101919091529192506201000090046001600160a01b03169063bcb4dbc290602401600060405180830381600087803b158015612aac57600080fd5b505af1158015612ac0573d6000803e3d6000fd5b5050505080838381518110612ad757612ad7613940565b6020026020010181905250508080612aee90613e5b565b9150506129c9565b50836001600160401b0316600060029054906101000a90046001600160a01b03166001600160a01b03166305eb81e66040518163ffffffff1660e01b8152600401602060405180830381865afa158015612b54573d6000803e3d6000fd5b505050506040513d601f19601f82011682018060405250810190612b789190613bce565b146126a75760405162461bcd60e51b815260206004820152602160248201527f4e756d6265722072656d61696e696e67206e6f742061732065787065637465646044820152601760f91b606482015260840161052c565b600054610100900460ff16612bf65760405162461bcd60e51b815260040161052c9061421d565b612bff33612843565b565b612c0a81613299565b604051602001612c1a91906142f7565b6040516020818303038152906040528051906020012082604051602001612c4191906142f7565b60405160208183030381529060405280519060200120146120ce5760405162461bcd60e51b815260206004820152603860248201527f43616e6e6f7420726563726561746520636f6d707265737365642070726f6f6660448201527710333937b6903ab731b7b6b83932b9b9b2b210383937b7b360411b606482015260840161052c565b60606000612cd660a08601866139c5565b8551909150612ce860c08801886139c5565b612cf491506002614074565b612cff9060116140b6565b612d0991906140b6565b612d1391906140b6565b90506000816001600160401b03811115612d2f57612d2f613731565b604051908082528060200260200182016040528015612d58578160200160208202803683370190505b5090506000863560081c6001600160701b03168282612d7681613e5b565b935081518110612d8857612d88613940565b6020908102919091010152863560781c6001600160601b03168282612dac81613e5b565b935081518110612dbe57612dbe613940565b6020908102919091010152863560d81c8282612dd981613e5b565b935081518110612deb57612deb613940565b6020908102919091010152612e008735613327565b6002811115612e1157612e1161432b565b8282612e1c81613e5b565b935081518110612e2e57612e2e613940565b60200260200101818152505060005b612e4a60c08901896139c5565b9050811015612ea457612e63611eba60208a018a6139c5565b6001600160401b03168383612e7781613e5b565b945081518110612e8957612e89613940565b6020908102919091010152612e9d81613e5b565b9050612e3d565b5060608701358282612eb581613e5b565b935081518110612ec757612ec7613940565b6020908102919091010152604087013560e01c8282612ee581613e5b565b935081518110612ef757612ef7613940565b602090810291909101015263ffffffff604088013560c01c168282612f1b81613e5b565b935081518110612f2d57612f2d613940565b602090810291909101015263ffffffff604088013560a01c168282612f5181613e5b565b935081518110612f6357612f63613940565b602090810291909101015263ffffffff604088013560801c168282612f8781613e5b565b935081518110612f9957612f99613940565b602090810291909101015263ffffffff604088013560601c168282612fbd81613e5b565b935081518110612fcf57612fcf613940565b602090810291909101015263ffffffff604088810135901c168282612ff381613e5b565b93508151811061300557613005613940565b6020026020010181815250506020876040013560001c901c63ffffffff1682828061302f90613e5b565b93508151811061304157613041613940565b602090810291909101015263ffffffff604088013516828261306281613e5b565b93508151811061307457613074613940565b60209081029190910101526080870135828261308f81613e5b565b9350815181106130a1576130a1613940565b60200260200101818152505060005b6130bd60a08901896139c5565b9050811015613126576130d360a08901896139c5565b828181106130e3576130e3613940565b9050602002013560001c8383806130f990613e5b565b94508151811061310b5761310b613940565b602090810291909101015261311f81613e5b565b90506130b0565b5060005b61313760c08901896139c5565b90508110156131a05761314d60c08901896139c5565b8281811061315d5761315d613940565b9050602002013560001c83838061317390613e5b565b94508151811061318557613185613940565b602090810291909101015261319981613e5b565b905061312a565b5060e087013582826131b181613e5b565b9350815181106131c3576131c3613940565b602090810291909101015261010087013582826131df81613e5b565b9350815181106131f1576131f1613940565b60200260200101818152505060005b865181101561325c5786818151811061321b5761321b613940565b602002602001015183838061322f90613e5b565b94508151811061324157613241613940565b602090810291909101015261325581613e5b565b9050613200565b506001600160a01b038516828261327281613e5b565b93508151811061328457613284613940565b60209081029190910101525095945050505050565b6132a16133e3565b81516000906132b8908460015b6020020151613344565b90506000806132e58560026020020151866003602002015187600460200201518860056020020151613374565b909250905060006132ff86600660200201518760076132ae565b6040805160808101825295865260208601949094529284019190915250606082015292915050565b60008160ff16600281111561333e5761333e61432b565b92915050565b600080613352600284613f23565b61336090600160ff1b614074565b905061336c84826140b6565b949350505050565b6000806133818685613344565b61338b8685613344565b9150915094509492505050565b60405180604001604052806002906020820280368337509192915050565b60405180604001604052806002905b6133cd613398565b8152602001906001900390816133c55790505090565b60405180608001604052806004906020820280368337509192915050565b60006020828403121561341357600080fd5b5035919050565b6001600160a01b0391909116815260200190565b6001600160a01b0381168114610c4b57600080fd5b60006020828403121561345557600080fd5b81356126a78161342e565b6000610100828403121561347357600080fd5b50919050565b600080600080600060a0868803121561349157600080fd5b85356001600160401b03808211156134a857600080fd5b6134b489838a01613460565b965060208801359150808211156134ca57600080fd5b506134d788828901613460565b959895975050505060408401359360608101359360809091013592509050565b80610420810183101561333e57600080fd5b600060a0828403121561347357600080fd5b60008060006104e0848603121561353157600080fd5b61353b85856134f7565b925061354b856104208601613509565b91506104c084013590509250925092565b60008083601f84011261356e57600080fd5b5081356001600160401b0381111561358557600080fd5b6020830191508360208260051b85010111156135a057600080fd5b9250929050565b6000806000806000806105a087890312156135c157600080fd5b6135cb8888613509565b95506135da8860a089016134f7565b94506135ea886104c08901613509565b93506105608701356001600160401b0381111561360657600080fd5b61361289828a0161355c565b979a969950949794969561058090950135949350505050565b6001600160601b0381168114610c4b57600080fd5b60006020828403121561365257600080fd5b81356126a78161362b565b60008060006060848603121561367257600080fd5b833561367d8161342e565b95602085013595506040909401359392505050565b600080600080606085870312156136a857600080fd5b84356001600160401b03808211156136bf57600080fd5b6136cb88838901613460565b955060208701359150808211156136e157600080fd5b818701915087601f8301126136f557600080fd5b81358181111561370457600080fd5b88602060a08302850101111561371957600080fd5b95986020929092019750949560400135945092505050565b634e487b7160e01b600052604160045260246000fd5b604080519081016001600160401b038111828210171561376957613769613731565b60405290565b604051601f8201601f191681016001600160401b038111828210171561379757613797613731565b604052919050565b6000604082840312156137b157600080fd5b82601f8301126137c057600080fd5b6137c8613747565b8060408401858111156137da57600080fd5b845b818110156137f45780358452602093840193016137dc565b509095945050505050565b821515815260a081016020808301846000805b60028082106138215750613859565b835185845b8381101561384257825182529188019190880190600101613826565b505050604094909401935091840191600101613812565b50505050509392505050565b6000806000806000610180868803121561387e57600080fd5b6138888787613509565b94506138978760a08801613509565b93506101408601356001600160401b038111156138b357600080fd5b6138bf8882890161355c565b9699959850966101600135949350505050565b6000602082840312156138e457600080fd5b81356001600160401b038111156138fa57600080fd5b61336c84828501613460565b82151581526060810160208083018460005b600281101561393557815183529183019190830190600101613918565b505050509392505050565b634e487b7160e01b600052603260045260246000fd5b6020808252602e908201527f596f7520617265206e6f7420617574686f726973656420746f20696e766f6b6560408201526d103a3434b990333ab731ba34b7b760911b606082015260800190565b6000823561019e198336030181126139bb57600080fd5b9190910192915050565b6000808335601e198436030181126139dc57600080fd5b8301803591506001600160401b038211156139f657600080fd5b6020019150600581901b36038213156135a057600080fd5b80358252602081013560208301526040810135604083015260608101356060830152608081013560808301525050565b6000808335601e19843603018112613a5557600080fd5b83016020810192503590506001600160401b03811115613a7457600080fd5b8060051b36038213156135a057600080fd5b81835260006001600160fb1b03831115613a9f57600080fd5b8260051b80836020870137939093016020019392505050565b60408183375050565b60808183375050565b60006101a082358452613ae06020840184613a3e565b826020870152613af38387018284613a86565b92505050604083013560408501526060830135606085015260808301356080850152613b2260a0840184613a3e565b85830360a0870152613b35838284613a86565b92505050613b4660c0840184613a3e565b85830360c0870152613b59838284613a86565b92505050613b6d60e0850160e08501613ab8565b610120613b7e818601828601613ac1565b509392505050565b6000610100613b958389613a0e565b8060a0840152613ba781840188613aca565b90508560c084015282810360e0840152613bc2818587613a86565b98975050505050505050565b600060208284031215613be057600080fd5b5051919050565b60208082526023908201527f43616e6e6f74206265207468652073616d65207472616e73616374696f6e496e6040820152620c8caf60eb1b606082015260800190565b608081526000613c3d6080830187613aca565b8560208401528281036040840152613c558186613aca565b91505082606083015295945050505050565b60a0810161333e8284613a0e565b6020808252601c908201527b24b73b30b634b210383934b7b910313637b1b590333937b73a34b2b960211b604082015260600190565b6104c0810161042080858437613b7e81840185613a0e565b6000823561019e19833603018112613cda57600080fd5b90910192915050565b600060c08201613cf38387613a0e565b60c060a084015283905260e0600584901b830181019083018560005b86811015613d485785840360df19018352613d3384613d2e848b613cc3565b613aca565b93506020928301929190910190600101613d0f565b5091979650505050505050565b634e487b7160e01b600052601160045260246000fd5b6001600160401b03818116838216019080821115613d8b57613d8b613d55565b5092915050565b6020808252601d908201527f426c6f636b73206e6565647320746f2062652073756273657175656e74000000604082015260600190565b6000610420808484379190910192915050565b81835260006020808501808196508560051b810191508460005b87811015613d48578284038952613e1184613d2e848a613cc3565b98850198935090840190600101613df6565b60006104e061042080888537613e3b81850188613a0e565b50806104c0840152613e508184018587613ddc565b979650505050505050565b600060018201613e6d57613e6d613d55565b5060010190565b60006020808385031215613e8757600080fd5b82516001600160401b0380821115613e9e57600080fd5b818501915085601f830112613eb257600080fd5b815181811115613ec457613ec4613731565b8060051b9150613ed584830161376f565b8181529183018401918481019088841115613eef57600080fd5b938501935b83851015613bc257845182529385019390850190613ef4565b634e487b7160e01b600052601260045260246000fd5b600082613f3257613f32613f0d565b500690565b8060005b60028110156108b7578151845260209384019390910190600101613f3b565b60808101613f688285613f37565b6126a76040830184613f37565b600082601f830112613f8657600080fd5b613f8e613747565b806040840185811115613fa057600080fd5b845b818110156137f4578051845260209384019301613fa2565b600060408284031215613fcc57600080fd5b6126a78383613f75565b6040810161333e8284613f37565b80518015158114613ff457600080fd5b919050565b6000806060838503121561400c57600080fd5b61401583613fe4565b91506140248460208501613f75565b90509250929050565b8181038181111561333e5761333e613d55565b600063ffffffff80871683528086166020840152506060604083015261406a606083018486613ddc565b9695505050505050565b808202811582820484141761333e5761333e613d55565b60008161409a5761409a613d55565b506000190190565b6000826140b1576140b1613f0d565b500490565b8082018082111561333e5761333e613d55565b8183823760009101908152919050565b6001600160401b0391909116815260200190565b6000608082840312156140ff57600080fd5b604051608081016001600160401b038111828210171561412157614121613731565b8060405250825181526020830151602082015260408301516141428161342e565b604082015260608301516141558161362b565b60608201529392505050565b6000606080830160018060a01b03808816855260208188168187015260408481880152838851808652608095508589019150838a0160005b828110156141d9578151805185528681015187860152858101518816868601528901516001600160601b0316898501529287019290850190600101614199565b50919c9b505050505050505050505050565b6104208101818360005b60218110156142145781518352602092830192909101906001016141f5565b50505092915050565b6020808252602b908201527f496e697469616c697a61626c653a20636f6e7472616374206973206e6f74206960408201526a6e697469616c697a696e6760a81b606082015260800190565b600081518084526020808501945080840160005b838110156142985781518752958201959082019060010161427c565b509495945050505050565b6060815260006142b66060830186614268565b82810360208401526142c88186614268565b9050828103604084015261406a8185614268565b6000602082840312156142ee57600080fd5b6126a782613fe4565b60008183825b600481101561431c5781518352602092830192909101906001016142fd565b50505060808201905092915050565b634e487b7160e01b600052602160045260246000fdfe30644e72e131a029b85045b68181585d97816a916871ca8d3c208c16d87cfd47a264697066735822122001830383bc073a303360feab4f0785b6a8afe4d44d5d3ddeadb4c49a26877ef664736f6c63430008110033",
  "immutableReferences": {},
  "source": "// SPDX-License-Identifier: CC0-1.0\n\n/**\nContract to enable someone to challenge a proposed transaction, on a number of\ngrounds.\n@Author Westlad\n*/\n\npragma solidity ^0.8.0;\n\nimport './Utils.sol';\nimport './ChallengesUtil.sol';\nimport './Config.sol';\nimport './Stateful.sol';\n\ncontract Challenges is Stateful, Config {\n    mapping(bytes32 => address) public committers;\n\n    function initialize() public override(Stateful, Config) initializer {\n        Stateful.initialize();\n        Config.initialize();\n    }\n\n    /**\n  Check that the block correctly updates the leafCount.  Note that the leafCount\n  is actually the value AFTER the commitments are added to the Merkle tree.\n  */\n    function challengeLeafCountCorrect(\n        Block calldata priorBlockL2, // the block immediately prior to this one\n        Block calldata blockL2,\n        Transaction[] calldata transactions,\n        bytes32 salt\n    ) external {\n        checkCommit(msg.data);\n        // check if the block hash is correct and the block hash exists for the block and prior block. Also if the transactions are part of these block\n        state.isBlockReal(priorBlockL2);\n        state.areBlockAndTransactionsReal(blockL2, transactions);\n\n        require(\n            Utils.getBlockNumberL2(priorBlockL2.packedInfo) + 1 ==\n                Utils.getBlockNumberL2(blockL2.packedInfo),\n            'Blocks needs to be subsequent'\n        );\n        ChallengesUtil.libChallengeLeafCountCorrect(\n            Utils.getLeafCount(priorBlockL2.packedInfo),\n            Utils.getLeafCount(blockL2.packedInfo),\n            transactions\n        );\n        challengeAccepted(blockL2);\n    }\n\n    function challengeNewFrontierCorrect(\n        Block calldata priorBlockL2, // the block immediately prior to this one\n        bytes32[33] calldata frontierBeforeBlock, // frontier path before prior block is added. The same frontier used in calculating root when prior block is added\n        Block calldata blockL2,\n        Transaction[] calldata transactions,\n        bytes32 salt\n    ) external {\n        checkCommit(msg.data);\n        // check if the block hash is correct and the block hash exists for the block and prior block\n        state.isBlockReal(priorBlockL2);\n        state.areBlockAndTransactionsReal(blockL2, transactions);\n\n        require(\n            Utils.getBlockNumberL2(priorBlockL2.packedInfo) + 1 ==\n                Utils.getBlockNumberL2(blockL2.packedInfo),\n            'Blocks needs to be subsequent'\n        );\n\n        bytes32 frontierBeforeHash = keccak256(abi.encodePacked(frontierBeforeBlock));\n        require(frontierBeforeHash == priorBlockL2.frontierHash, 'Invalid prior block frontier');\n\n        // see if the challenge is valid\n        ChallengesUtil.libChallengeNewFrontierCorrect(frontierBeforeBlock, blockL2, transactions);\n        challengeAccepted(blockL2);\n    }\n\n    /**\n  Checks that the new merkle tree root of a block is incorrect. This could be because the\n  merkle tree that stores commitments has been incorrectly updated. To verify this, we first calculate\n  this challenged block's frontier using the prior block. Using this frontier, we can work out what the root\n  for the current block should be given the set of transactions in said block. Finally, this calculated root\n  is compared to the root stored within the block.\n  */\n    function challengeNewRootCorrect(\n        bytes32[33] calldata frontierAfterBlock, // frontier after all the block commitments has been added.\n        Block calldata blockL2,\n        bytes32 salt\n    ) external {\n        checkCommit(msg.data);\n\n        // check that the current block hash is correct\n        state.isBlockReal(blockL2);\n\n        bytes32 frontierAfterHash = Utils.hashFrontier(frontierAfterBlock);\n        require(frontierAfterHash == blockL2.frontierHash, 'Invalid prior block frontier');\n\n        // see if the challenge is valid\n        ChallengesUtil.libChallengeNewRootCorrect(frontierAfterBlock, blockL2);\n        challengeAccepted(blockL2);\n    }\n\n    /**\n  Checks that a commitment has not been part of an L2 block before (i.e. a duplicate). If the duplicate commitment\n  occurs within the same block, there is an additional check to ensure they are not at the same index\n  (i.e. a trivial duplicate).\n  */\n    function challengeCommitment(\n        TransactionInfoBlock calldata transaction1,\n        TransactionInfoBlock calldata transaction2,\n        uint256 commitment1Index,\n        uint256 commitment2Index,\n        bytes32 salt\n    ) external {\n        checkCommit(msg.data);\n\n        // first, check we have real, in-train, contiguous blocks\n        state.areBlockAndTransactionReal(\n            transaction1.blockL2,\n            transaction1.transaction,\n            transaction1.transactionIndex,\n            transaction1.transactionSiblingPath\n        );\n        state.areBlockAndTransactionReal(\n            transaction2.blockL2,\n            transaction2.transaction,\n            transaction2.transactionIndex,\n            transaction2.transactionSiblingPath\n        );\n\n        uint64 blockL2NumberTx1 = Utils.getBlockNumberL2(transaction1.blockL2.packedInfo);\n        uint64 blockL2NumberTx2 = Utils.getBlockNumberL2(transaction2.blockL2.packedInfo);\n\n        if (blockL2NumberTx1 == blockL2NumberTx2) {\n            require(\n                transaction1.transactionIndex != transaction2.transactionIndex,\n                'Cannot be the same transactionIndex'\n            );\n        }\n\n        ChallengesUtil.libChallengeCommitment(\n            transaction1.transaction,\n            commitment1Index,\n            transaction2.transaction,\n            commitment2Index\n        );\n\n        // Delete the latest block of the two\n        if (blockL2NumberTx1 > blockL2NumberTx2) {\n            challengeAccepted(transaction1.blockL2);\n        } else {\n            challengeAccepted(transaction2.blockL2);\n        }\n    }\n\n    /**\n  Checks that a nullifier has not been part of an L2 block before (i.e. a duplicate). If the duplicate nullifier\n  occurs within the same block, there is an additional check to ensure they are not at the same index\n  (i.e. a trivial duplicate).\n  */\n    function challengeNullifier(\n        TransactionInfoBlock calldata transaction1,\n        TransactionInfoBlock calldata transaction2,\n        uint256 nullifier1Index,\n        uint256 nullifier2Index,\n        bytes32 salt\n    ) external {\n        checkCommit(msg.data);\n\n        // first, check we have real, in-train, contiguous blocks\n        state.areBlockAndTransactionReal(\n            transaction1.blockL2,\n            transaction1.transaction,\n            transaction1.transactionIndex,\n            transaction1.transactionSiblingPath\n        );\n        state.areBlockAndTransactionReal(\n            transaction2.blockL2,\n            transaction2.transaction,\n            transaction2.transactionIndex,\n            transaction2.transactionSiblingPath\n        );\n\n        uint64 blockL2NumberTx1 = Utils.getBlockNumberL2(transaction1.blockL2.packedInfo);\n        uint64 blockL2NumberTx2 = Utils.getBlockNumberL2(transaction2.blockL2.packedInfo);\n\n        if (blockL2NumberTx1 == blockL2NumberTx2) {\n            require(\n                transaction1.transactionIndex != transaction2.transactionIndex,\n                'Cannot be the same transactionIndex'\n            );\n        }\n\n        ChallengesUtil.libChallengeNullifier(\n            transaction1.transaction,\n            nullifier1Index,\n            transaction2.transaction,\n            nullifier2Index\n        );\n\n        // Delete the latest block of the two\n        if (blockL2NumberTx1 > blockL2NumberTx2) {\n            challengeAccepted(transaction1.blockL2);\n        } else {\n            challengeAccepted(transaction2.blockL2);\n        }\n    }\n\n    function decompressG1(uint256 xin) public returns (bool, uint256[2] memory) {\n        // Handle the Point 0.G\n        if (xin == 0x8000000000000000000000000000000000000000000000000000000000000000)\n            return (false, [uint256(0), uint256(1)]);\n\n        uint8 parity = uint8((xin >> 255) & 1);\n        uint256 xMask = 0x4000000000000000000000000000000000000000000000000000000000000000; // 2**254 mask\n        uint256 xCoord = xin % xMask;\n        uint256 x3 = mulmod(\n            xCoord,\n            mulmod(xCoord, xCoord, Utils.BN128_PRIME_FIELD),\n            Utils.BN128_PRIME_FIELD\n        );\n        uint256 y2 = addmod(x3, 3, Utils.BN128_PRIME_FIELD);\n        // Check that the legendre symbol == 1, i.e. a sqrt exists for y2\n        bool sqrtFound = Utils.modExp(\n            y2,\n            (Utils.BN128_PRIME_FIELD - uint256(1)) / uint256(2),\n            Utils.BN128_PRIME_FIELD\n        ) == 1;\n        uint256 y = Utils.modExp(y2, (Utils.BN128_PRIME_FIELD + 1) / 4, Utils.BN128_PRIME_FIELD);\n        if (parity != uint8(y % 2)) return (sqrtFound, [xCoord, Utils.BN128_PRIME_FIELD - y]);\n        return (sqrtFound, [xCoord, y]);\n    }\n\n    function decompressG2(uint256[2] memory xins) public pure returns (bool, uint256[2][2] memory) {\n        uint8[2] memory parity = [uint8((xins[0] >> 255) & 1), uint8((xins[1] >> 255) & 1)];\n        uint256 xMask = 0x4000000000000000000000000000000000000000000000000000000000000000; // 2**254 mask\n        uint256 xReal = xins[0] % xMask;\n        uint256 xImg = xins[1] % xMask;\n        uint256[2] memory x = [xReal, xImg];\n        uint256[2] memory x3 = Utils.fq2Mul(Utils.fq2Mul(x, x), x);\n        uint256[2] memory d = [\n            19485874751759354771024239261021720505790618469301721065564631296452457478373,\n            266929791119991161246907387137283842545076965332900288569378510910307636690\n        ];\n        // If xin is the compressed form of the Point 0.G\n        if (x3[0] == 0 && x3[1] == 0 && xins[1] == 0)\n            return (false, [x3, [uint256(1), uint256(0)]]);\n        uint256[2] memory y2 = [\n            addmod(x3[0], d[0], Utils.BN128_PRIME_FIELD),\n            addmod(x3[1], d[1], Utils.BN128_PRIME_FIELD)\n        ];\n\n        (bool sqrtFound, uint256[2] memory y) = Utils.fq2Sqrt(y2);\n        uint256 a = parity[0] == uint256(y[0] % 2) ? y[0] : Utils.BN128_PRIME_FIELD - y[0];\n        uint256 b = parity[1] == uint256(y[1] % 2) ? y[1] : Utils.BN128_PRIME_FIELD - y[1];\n        return (sqrtFound, [x, [a, b]]);\n    }\n\n    function challengeProofVerification(\n        TransactionInfoBlock calldata transaction,\n        Block[] calldata blockL2ContainingHistoricRoot,\n        bytes32 salt\n    ) external {\n        checkCommit(msg.data);\n        state.areBlockAndTransactionReal(\n            transaction.blockL2,\n            transaction.transaction,\n            transaction.transactionIndex,\n            transaction.transactionSiblingPath\n        );\n\n        require(\n            blockL2ContainingHistoricRoot.length == transaction.transaction.nullifiers.length,\n            'Invalid number of blocks L2 containing historic root'\n        );\n\n        PublicInputs memory extraPublicInputs = PublicInputs(\n            new uint256[](transaction.transaction.nullifiers.length),\n            super.getMaticAddress()\n        );\n\n        for (uint256 i = 0; i < transaction.transaction.nullifiers.length; ++i) {\n            if (uint256(transaction.transaction.nullifiers[i]) != 0) {\n                state.isBlockReal(blockL2ContainingHistoricRoot[i]);\n\n                uint64 historicblockNumberL2 = Utils.getHistoricRoot(\n                    transaction.transaction.historicRootBlockNumberL2,\n                    i\n                );\n\n                require(\n                    historicblockNumberL2 ==\n                        Utils.getBlockNumberL2(blockL2ContainingHistoricRoot[i].packedInfo),\n                    'Incorrect historic root block'\n                );\n\n                extraPublicInputs.roots[i] = uint256(blockL2ContainingHistoricRoot[i].root);\n            }\n        }\n        // Variables declared here so we can reuse the bool\n        bool success = false;\n        uint256[2] memory decompressAlpha;\n        uint256[2][2] memory decompressBeta;\n        uint256[2] memory decompressGamma;\n\n        (success, decompressAlpha) = decompressG1(transaction.transaction.proof[0]);\n        // Check each step since we overwrite the bool to avoid stack too deep issues.\n        if (!success) {\n            challengeAccepted(transaction.blockL2);\n            return;\n        }\n\n        (success, decompressBeta) = decompressG2(\n            [transaction.transaction.proof[1], transaction.transaction.proof[2]]\n        );\n        if (!success) {\n            challengeAccepted(transaction.blockL2);\n            return;\n        }\n\n        (success, decompressGamma) = decompressG1(transaction.transaction.proof[3]);\n        if (!success) {\n            challengeAccepted(transaction.blockL2);\n            return;\n        }\n        // now we need to check that the proof is correct\n        ChallengesUtil.libChallengeProofVerification(\n            transaction.transaction,\n            extraPublicInputs,\n            [\n                decompressAlpha[0],\n                decompressAlpha[1],\n                decompressBeta[0][0],\n                decompressBeta[0][1],\n                decompressBeta[1][0],\n                decompressBeta[1][1],\n                decompressGamma[0],\n                decompressGamma[1]\n            ],\n            state.getVerificationKey(Utils.getCircuitHash(transaction.transaction.packedInfo))\n        );\n        challengeAccepted(transaction.blockL2);\n    }\n\n    function challengeHistoricRootBlockNumber(TransactionInfoBlock calldata transaction) external {\n        checkCommit(msg.data);\n        state.areBlockAndTransactionReal(\n            transaction.blockL2,\n            transaction.transaction,\n            transaction.transactionIndex,\n            transaction.transactionSiblingPath\n        );\n\n        // Unpack the historic block numbers, they are packed in 256bits and so 4 x 64 historicRootBlockNumbers are unpacked.\n        uint64[] memory historicRootBlockNumbers = new uint64[](\n            transaction.transaction.historicRootBlockNumberL2.length * 4\n        );\n\n        for (uint256 i = 0; i < historicRootBlockNumbers.length; ++i) {\n            historicRootBlockNumbers[i] = Utils.getHistoricRoot(\n                transaction.transaction.historicRootBlockNumberL2,\n                i\n            );\n        }\n\n        for (uint256 i = 0; i < transaction.transaction.nullifiers.length; ++i) {\n            if (uint256(historicRootBlockNumbers[i]) >= state.getNumberOfL2Blocks()) {\n                challengeAccepted(transaction.blockL2);\n                return;\n            }\n        }\n\n        // Historic Block Numbers are packed in 256bits and so always results in multiples of 4\n        // if nullifiers are not multiple of 4 we need to ensure these \"extra\" historic block numbers are zero.\n        for (\n            uint256 i = historicRootBlockNumbers.length - 1;\n            i >= transaction.transaction.nullifiers.length;\n            --i\n        ) {\n            if (historicRootBlockNumbers[i] != uint64(0)) {\n                challengeAccepted(transaction.blockL2);\n                return;\n            }\n        }\n\n        require(false, 'Historic roots are not greater than L2BlockNumber on chain');\n    }\n\n    // This gets called when a challenge succeeds\n    function challengeAccepted(Block calldata badBlock) private {\n        // Check to ensure that the block being challenged is less than a week old\n        uint64 blockNumberL2 = Utils.getBlockNumberL2(badBlock.packedInfo);\n        require(\n            state.getBlockData(blockNumberL2).time >= (block.timestamp - 7 days),\n            'Cannot challenge block'\n        );\n        // emit the leafCount where the bad block was added. Timber will pick this\n        // up and rollback its database to that point.  We emit the event from\n        // State.sol because Timber gets confused if its events come from two\n        // different contracts (it uses the contract name as part of the db\n        // connection - we need to change that).\n        emit Rollback(blockNumberL2);\n        // we need to remove the block that has been successfully\n        // challenged from the linked list of blocks and all of the subsequent\n        // blocks\n        BlockData[] memory badBlocks = removeBlockHashes(blockNumberL2);\n        // remove the proposer and give the proposer's block stake to the challenger\n        state.rewardChallenger(msg.sender, Utils.getProposer(badBlock.packedInfo), badBlocks);\n    }\n\n    function removeBlockHashes(uint64 blockNumberL2) internal returns (BlockData[] memory) {\n        uint256 lastBlock = state.getNumberOfL2Blocks() - 1;\n        BlockData[] memory badBlocks = new BlockData[](lastBlock - blockNumberL2 + 1);\n        for (uint256 i = 0; i <= uint256(lastBlock - blockNumberL2); i++) {\n            BlockData memory blockData = state.popBlockData();\n            state.setBlockStakeWithdrawn(blockData.blockHash);\n            badBlocks[i] = blockData;\n        }\n        require(\n            state.getNumberOfL2Blocks() == uint256(blockNumberL2),\n            'Number remaining not as expected.'\n        );\n        return badBlocks;\n    }\n\n    //To prevent frontrunning, we need to commit to a challenge before we send it\n    function commitToChallenge(bytes32 commitHash) external {\n        require(committers[commitHash] == address(0), 'Hash already committed to');\n        committers[commitHash] = msg.sender;\n        emit CommittedToChallenge(commitHash, msg.sender);\n    }\n\n    // and having sent it, we need to check that commitment to a challenge from\n    // within the challenge function using this function:\n    function checkCommit(bytes calldata messageData) private {\n        bytes32 hash = keccak256(messageData);\n        require(committers[hash] == msg.sender, 'Commitment hash is invalid');\n        delete committers[hash];\n    }\n}\n",
  "sourcePath": "/app/contracts/Challenges.sol",
  "compiler": {
    "name": "solc",
    "version": "0.8.17+commit.8df45f5f.Emscripten.clang"
  },
  "schemaVersion": "3.4.10",
  "updatedAt": "2022-12-20T19:50:50.415Z",
  "networkType": "ethereum",
  "devdoc": {
    "kind": "dev",
    "methods": {
      "getBlockStake()": {
        "details": "Get block stake for a proposer"
      },
      "getBootChallenger()": {
        "details": "Get boot challenger address"
      },
      "getBootProposer()": {
        "details": "Get boot proposer address"
      },
      "getMaticAddress()": {
        "details": "Get Matic address (fee token for proposers payment)"
      },
      "getMaxProposers()": {
        "details": "Get maximum number of proposers"
      },
      "getMinimumStake()": {
        "details": "Get minimum stake for a proposer"
      },
      "getProposerSetCount()": {
        "details": "Get proposerset count in PoS"
      },
      "getRotateProposerBlocks()": {
        "details": "Get rotate proposer blocks for the current proposer"
      },
      "getSprintsInSpan()": {
        "details": "Get sprints in span in PoS"
      },
      "owner()": {
        "details": "Tells the address of the owner",
        "returns": {
          "_0": "the address of the owner"
        }
      },
      "removeRestriction(address)": {
        "details": "Remove token restriction"
      },
      "setBlockStake(uint96)": {
        "details": "Set block stake for a proposer"
      },
      "setBootChallenger(address)": {
        "details": "Set boot challenger address"
      },
      "setBootProposer(address)": {
        "details": "Set boot proposer address"
      },
      "setMaticAddress(address)": {
        "details": "Set Matic address (fee token for proposers payment)"
      },
      "setMaxProposers(uint256)": {
        "details": "Set maximum number of proposers"
      },
      "setMinimumStake(uint96)": {
        "details": "Set minimum stake for a proposer"
      },
      "setProposerSetCount(uint256)": {
        "details": "Set proposerset count in PoS"
      },
      "setRestriction(address,uint256,uint256)": {
        "details": "Set token restriction"
      },
      "setRotateProposerBlocks(uint256)": {
        "details": "Set rotate proposer blocks for the current proposer"
      },
      "setSprintsInSpan(uint256)": {
        "details": "Set sprints in span in PoS"
      },
      "transferOwnership(address)": {
        "details": "Allows the current owner to transfer control of the contract to a newOwner.",
        "params": {
          "newOwner": "The address to transfer ownership to."
        }
      }
    },
    "version": 1
  },
  "userdoc": {
    "events": {
      "NewLeaf(uint256,bytes32,bytes32)": {
        "notice": "These events are what the merkle-tree microservice's filters will listen for."
      }
    },
    "kind": "user",
    "methods": {
      "challengeCommitment(((uint256,bytes32,bytes32,bytes32,bytes32),(uint256,uint256[],bytes32,bytes32,bytes32,bytes32[],bytes32[],bytes32[2],uint256[4]),uint256,bytes32[]),((uint256,bytes32,bytes32,bytes32,bytes32),(uint256,uint256[],bytes32,bytes32,bytes32,bytes32[],bytes32[],bytes32[2],uint256[4]),uint256,bytes32[]),uint256,uint256,bytes32)": {
        "notice": "Checks that a commitment has not been part of an L2 block before (i.e. a duplicate). If the duplicate commitment occurs within the same block, there is an additional check to ensure they are not at the same index (i.e. a trivial duplicate)."
      },
      "challengeLeafCountCorrect((uint256,bytes32,bytes32,bytes32,bytes32),(uint256,bytes32,bytes32,bytes32,bytes32),(uint256,uint256[],bytes32,bytes32,bytes32,bytes32[],bytes32[],bytes32[2],uint256[4])[],bytes32)": {
        "notice": "Check that the block correctly updates the leafCount.  Note that the leafCount is actually the value AFTER the commitments are added to the Merkle tree."
      },
      "challengeNewRootCorrect(bytes32[33],(uint256,bytes32,bytes32,bytes32,bytes32),bytes32)": {
        "notice": "Checks that the new merkle tree root of a block is incorrect. This could be because the merkle tree that stores commitments has been incorrectly updated. To verify this, we first calculate this challenged block's frontier using the prior block. Using this frontier, we can work out what the root for the current block should be given the set of transactions in said block. Finally, this calculated root is compared to the root stored within the block."
      },
      "challengeNullifier(((uint256,bytes32,bytes32,bytes32,bytes32),(uint256,uint256[],bytes32,bytes32,bytes32,bytes32[],bytes32[],bytes32[2],uint256[4]),uint256,bytes32[]),((uint256,bytes32,bytes32,bytes32,bytes32),(uint256,uint256[],bytes32,bytes32,bytes32,bytes32[],bytes32[],bytes32[2],uint256[4]),uint256,bytes32[]),uint256,uint256,bytes32)": {
        "notice": "Checks that a nullifier has not been part of an L2 block before (i.e. a duplicate). If the duplicate nullifier occurs within the same block, there is an additional check to ensure they are not at the same index (i.e. a trivial duplicate)."
      }
    },
    "version": 1
  }
}