{
  "contractName": "ChallengesUtil",
  "abi": [
    {
      "inputs": [
        {
          "internalType": "uint256",
          "name": "priorLeafCount",
          "type": "uint256"
        },
        {
          "internalType": "uint256",
          "name": "leafCount",
          "type": "uint256"
        },
        {
          "components": [
            {
              "internalType": "uint256",
              "name": "packedInfo",
              "type": "uint256"
            },
            {
              "internalType": "uint256[]",
              "name": "historicRootBlockNumberL2",
              "type": "uint256[]"
            },
            {
              "internalType": "bytes32",
              "name": "tokenId",
              "type": "bytes32"
            },
            {
              "internalType": "bytes32",
              "name": "ercAddress",
              "type": "bytes32"
            },
            {
              "internalType": "bytes32",
              "name": "recipientAddress",
              "type": "bytes32"
            },
            {
              "internalType": "bytes32[]",
              "name": "commitments",
              "type": "bytes32[]"
            },
            {
              "internalType": "bytes32[]",
              "name": "nullifiers",
              "type": "bytes32[]"
            },
            {
              "internalType": "bytes32[2]",
              "name": "compressedSecrets",
              "type": "bytes32[2]"
            },
            {
              "internalType": "uint256[4]",
              "name": "proof",
              "type": "uint256[4]"
            }
          ],
          "internalType": "struct Structures.Transaction[]",
          "name": "transactions",
          "type": "tuple[]"
        }
      ],
      "name": "libChallengeLeafCountCorrect",
      "outputs": [],
      "stateMutability": "pure",
      "type": "function",
      "constant": true
    },
    {
      "inputs": [
        {
          "components": [
            {
              "internalType": "uint256",
              "name": "packedInfo",
              "type": "uint256"
            },
            {
              "internalType": "uint256[]",
              "name": "historicRootBlockNumberL2",
              "type": "uint256[]"
            },
            {
              "internalType": "bytes32",
              "name": "tokenId",
              "type": "bytes32"
            },
            {
              "internalType": "bytes32",
              "name": "ercAddress",
              "type": "bytes32"
            },
            {
              "internalType": "bytes32",
              "name": "recipientAddress",
              "type": "bytes32"
            },
            {
              "internalType": "bytes32[]",
              "name": "commitments",
              "type": "bytes32[]"
            },
            {
              "internalType": "bytes32[]",
              "name": "nullifiers",
              "type": "bytes32[]"
            },
            {
              "internalType": "bytes32[2]",
              "name": "compressedSecrets",
              "type": "bytes32[2]"
            },
            {
              "internalType": "uint256[4]",
              "name": "proof",
              "type": "uint256[4]"
            }
          ],
          "internalType": "struct Structures.Transaction",
          "name": "tx1",
          "type": "tuple"
        },
        {
          "internalType": "uint256",
          "name": "commitmentIndex1",
          "type": "uint256"
        },
        {
          "components": [
            {
              "internalType": "uint256",
              "name": "packedInfo",
              "type": "uint256"
            },
            {
              "internalType": "uint256[]",
              "name": "historicRootBlockNumberL2",
              "type": "uint256[]"
            },
            {
              "internalType": "bytes32",
              "name": "tokenId",
              "type": "bytes32"
            },
            {
              "internalType": "bytes32",
              "name": "ercAddress",
              "type": "bytes32"
            },
            {
              "internalType": "bytes32",
              "name": "recipientAddress",
              "type": "bytes32"
            },
            {
              "internalType": "bytes32[]",
              "name": "commitments",
              "type": "bytes32[]"
            },
            {
              "internalType": "bytes32[]",
              "name": "nullifiers",
              "type": "bytes32[]"
            },
            {
              "internalType": "bytes32[2]",
              "name": "compressedSecrets",
              "type": "bytes32[2]"
            },
            {
              "internalType": "uint256[4]",
              "name": "proof",
              "type": "uint256[4]"
            }
          ],
          "internalType": "struct Structures.Transaction",
          "name": "tx2",
          "type": "tuple"
        },
        {
          "internalType": "uint256",
          "name": "commitmentIndex2",
          "type": "uint256"
        }
      ],
      "name": "libChallengeCommitment",
      "outputs": [],
      "stateMutability": "pure",
      "type": "function",
      "constant": true
    },
    {
      "inputs": [
        {
          "components": [
            {
              "internalType": "uint256",
              "name": "packedInfo",
              "type": "uint256"
            },
            {
              "internalType": "uint256[]",
              "name": "historicRootBlockNumberL2",
              "type": "uint256[]"
            },
            {
              "internalType": "bytes32",
              "name": "tokenId",
              "type": "bytes32"
            },
            {
              "internalType": "bytes32",
              "name": "ercAddress",
              "type": "bytes32"
            },
            {
              "internalType": "bytes32",
              "name": "recipientAddress",
              "type": "bytes32"
            },
            {
              "internalType": "bytes32[]",
              "name": "commitments",
              "type": "bytes32[]"
            },
            {
              "internalType": "bytes32[]",
              "name": "nullifiers",
              "type": "bytes32[]"
            },
            {
              "internalType": "bytes32[2]",
              "name": "compressedSecrets",
              "type": "bytes32[2]"
            },
            {
              "internalType": "uint256[4]",
              "name": "proof",
              "type": "uint256[4]"
            }
          ],
          "internalType": "struct Structures.Transaction",
          "name": "tx1",
          "type": "tuple"
        },
        {
          "internalType": "uint256",
          "name": "nullifierIndex1",
          "type": "uint256"
        },
        {
          "components": [
            {
              "internalType": "uint256",
              "name": "packedInfo",
              "type": "uint256"
            },
            {
              "internalType": "uint256[]",
              "name": "historicRootBlockNumberL2",
              "type": "uint256[]"
            },
            {
              "internalType": "bytes32",
              "name": "tokenId",
              "type": "bytes32"
            },
            {
              "internalType": "bytes32",
              "name": "ercAddress",
              "type": "bytes32"
            },
            {
              "internalType": "bytes32",
              "name": "recipientAddress",
              "type": "bytes32"
            },
            {
              "internalType": "bytes32[]",
              "name": "commitments",
              "type": "bytes32[]"
            },
            {
              "internalType": "bytes32[]",
              "name": "nullifiers",
              "type": "bytes32[]"
            },
            {
              "internalType": "bytes32[2]",
              "name": "compressedSecrets",
              "type": "bytes32[2]"
            },
            {
              "internalType": "uint256[4]",
              "name": "proof",
              "type": "uint256[4]"
            }
          ],
          "internalType": "struct Structures.Transaction",
          "name": "tx2",
          "type": "tuple"
        },
        {
          "internalType": "uint256",
          "name": "nullifierIndex2",
          "type": "uint256"
        }
      ],
      "name": "libChallengeNullifier",
      "outputs": [],
      "stateMutability": "pure",
      "type": "function",
      "constant": true
    }
  ],
  "bytecode": "0x610b7a61003a600b82828239805160001a60731461002d57634e487b7160e01b600052600060045260246000fd5b30600052607381538281f3fe73000000000000000000000000000000000000000030146080604052600436106100615760003560e01c80631355ea65146100665780632831d198146100885780633b5260b91461009b5780638185f01d146100bb578063ff124ee8146100ce575b600080fd5b81801561007257600080fd5b5061008661008136600461076b565b6100e1565b005b6100866100963660046107ed565b6101bd565b8180156100a757600080fd5b506100866100b636600461083f565b610235565b6100866100c936600461089f565b61034f565b6100866100dc36600461089f565b610418565b6040516374ba1c3960e01b815260009073__MerkleTree_Stateless__________________906374ba1c3990610121908690863560e01c90600401610913565b602060405180830381865af415801561013e573d6000803e3d6000fd5b505050506040513d601f19601f820116820180604052508101906101629190610932565b9050816020013581036101b85760405162461bcd60e51b815260206004820152601960248201527854686520726f6f742069732061637475616c6c792066696e6560381b60448201526064015b60405180910390fd5b505050565b60006101c983836104da565b6101d39086610961565b905083810361022e5760405162461bcd60e51b815260206004820152602160248201527f546865206c656166436f756e742069732061637475616c6c7920636f727265636044820152601d60fa1b60648201526084016101af565b5050505050565b61023d610722565b73__MerkleTree_Stateless__________________63410ba53c610261858561054a565b87873560e01c6040518463ffffffff1660e01b815260040161028593929190610974565b61042060405180830381865af41580156102a3573d6000803e3d6000fd5b505050506040513d601f19601f820116820180604052508101906102c791906109ea565b90506000816040516020016102dc9190610a76565b604051602081830303815290604052805190602001209050846060013581036103475760405162461bcd60e51b815260206004820152601d60248201527f5468652066726f6e746965722069732061637475616c6c792066696e6500000060448201526064016101af565b505050505050565b61035c60a0850185610aab565b8481811061036c5761036c610af4565b602002919091013515801591506103cb575061038b60a0830183610aab565b8281811061039b5761039b610af4565b90506020020135848060a001906103b29190610aab565b858181106103c2576103c2610af4565b90506020020135145b6104125760405162461bcd60e51b81526020600482015260186024820152774e6f74206d61746368696e6720636f6d6d69746d656e747360401b60448201526064016101af565b50505050565b61042560c0850185610aab565b8481811061043557610435610af4565b60200291909101351580159150610494575061045460c0830183610aab565b8281811061046457610464610af4565b90506020020135848060c0019061047b9190610aab565b8581811061048b5761048b610af4565b90506020020135145b6104125760405162461bcd60e51b81526020600482015260176024820152764e6f74206d61746368696e67206e756c6c69666965727360481b60448201526064016101af565b60008060005b83811015610540576105228585838181106104fd576104fd610af4565b905060200281019061050f9190610b0a565b61051d9060a0810190610aab565b6106d8565b61052c9083610961565b91508061053881610b2b565b9150506104e0565b5090505b92915050565b6060600061055884846104da565b6001600160401b0381111561056f5761056f6109d4565b604051908082528060200260200182016040528015610598578160200160208202803683370190505b5090506000805b848110156106ce5760005b8686838181106105bc576105bc610af4565b90506020028101906105ce9190610b0a565b6105dc9060a0810190610aab565b90508110156106bb5760008787848181106105f9576105f9610af4565b905060200281019061060b9190610b0a565b6106199060a0810190610aab565b8381811061062957610629610af4565b90506020020135146106a95786868381811061064757610647610af4565b90506020028101906106599190610b0a565b6106679060a0810190610aab565b8281811061067757610677610af4565b9050602002013584848061068a90610b2b565b95508151811061069c5761069c610af4565b6020026020010181815250505b806106b381610b2b565b9150506105aa565b50806106c681610b2b565b91505061059f565b5090949350505050565b60008060005b838110156105405760008585838181106106fa576106fa610af4565b90506020020135146107125761070f82610b2b565b91505b61071b81610b2b565b90506106de565b6040518061042001604052806021906020820280368337509192915050565b80610420810183101561054457600080fd5b600060a0828403121561076557600080fd5b50919050565b6000806104c0838503121561077f57600080fd5b6107898484610741565b9150610799846104208501610753565b90509250929050565b60008083601f8401126107b457600080fd5b5081356001600160401b038111156107cb57600080fd5b6020830191508360208260051b85010111156107e657600080fd5b9250929050565b6000806000806060858703121561080357600080fd5b843593506020850135925060408501356001600160401b0381111561082757600080fd5b610833878288016107a2565b95989497509550505050565b6000806000806104e0858703121561085657600080fd5b6108608686610741565b9350610870866104208701610753565b92506104c08501356001600160401b0381111561082757600080fd5b60006101a0828403121561076557600080fd5b600080600080608085870312156108b557600080fd5b84356001600160401b03808211156108cc57600080fd5b6108d88883890161088c565b95506020870135945060408701359150808211156108f557600080fd5b506109028782880161088c565b949793965093946060013593505050565b61044081016104208085843763ffffffff841681840152509392505050565b60006020828403121561094457600080fd5b5051919050565b634e487b7160e01b600052601160045260246000fd5b808201808211156105445761054461094b565b6104608082528451908201819052600090610480830190602090818801845b828110156109af57815185529383019390830190600101610993565b5050508192506104208682860137505063ffffffff8316610440830152949350505050565b634e487b7160e01b600052604160045260246000fd5b60006104208083850312156109fe57600080fd5b83601f840112610a0d57600080fd5b6040518181016001600160401b0381118282101715610a3c57634e487b7160e01b600052604160045260246000fd5b604052908301908085831115610a5157600080fd5b845b83811015610a6b578051825260209182019101610a53565b509095945050505050565b60008183825b6021811015610a9b578151835260209283019290910190600101610a7c565b5050506104208201905092915050565b6000808335601e19843603018112610ac257600080fd5b8301803591506001600160401b03821115610adc57600080fd5b6020019150600581901b36038213156107e657600080fd5b634e487b7160e01b600052603260045260246000fd5b6000823561019e19833603018112610b2157600080fd5b9190910192915050565b600060018201610b3d57610b3d61094b565b506001019056fea2646970667358221220216ee02173a62276094b59cdb0077117ec41b315bcb218173805ba1045ef516464736f6c63430008110033",
  "immutableReferences": {},
  "source": "// SPDX-License-Identifier: CC0-1.0\npragma solidity ^0.8.0;\n\nimport './Utils.sol';\nimport './Verifier.sol';\nimport './MerkleTree_Stateless.sol';\nimport './Structures.sol';\n\nlibrary ChallengesUtil {\n    function libChallengeLeafCountCorrect(\n        uint256 priorLeafCount,\n        uint256 leafCount,\n        Structures.Transaction[] calldata transactions\n    ) public pure {\n        uint256 expectedLeafCount = priorLeafCount + Utils.countCommitments(transactions);\n        require(expectedLeafCount != leafCount, 'The leafCount is actually correct');\n    }\n\n    function libChallengeNewFrontierCorrect(\n        bytes32[33] calldata frontierBeforeBlock, // frontier path before prior block is added. The same frontier used in calculating root when prior block is added\n        Structures.Block calldata blockL2,\n        Structures.Transaction[] calldata transactions\n    ) public {\n        bytes32[33] memory _frontier;\n\n        _frontier = MerkleTree_Stateless.updateFrontier(\n            Utils.filterCommitments(transactions),\n            frontierBeforeBlock,\n            Utils.getLeafCount(blockL2.packedInfo)\n        );\n\n        bytes32 frontierAfterHash = keccak256(abi.encodePacked(_frontier));\n        require(frontierAfterHash != blockL2.frontierHash, 'The frontier is actually fine');\n    }\n\n    function libChallengeNewRootCorrect(\n        bytes32[33] calldata frontierAfterBlock, // frontier path before prior block is added. The same frontier used in calculating root when prior block is added\n        Structures.Block calldata blockL2\n    ) public {\n        bytes32 root = MerkleTree_Stateless.calculateRoot(\n            frontierAfterBlock,\n            Utils.getLeafCount(blockL2.packedInfo)\n        );\n\n        require(root != blockL2.root, 'The root is actually fine');\n    }\n\n    function libChallengeProofVerification(\n        Structures.Transaction calldata transaction,\n        Structures.PublicInputs memory extraPublicInputs,\n        uint256[8] memory proof,\n        uint256[] memory vk\n    ) internal view {\n        libCheckCompressedProof(transaction.proof, proof);\n        uint256[] memory proof1 = new uint256[](proof.length);\n        for (uint256 i = 0; i < proof.length; i++) {\n            proof1[i] = proof[i];\n        }\n        uint256[] memory publicInputs = Utils.getPublicInputs(\n            transaction,\n            extraPublicInputs.roots,\n            extraPublicInputs.maticAddress\n        );\n        require(!Verifier.verify(proof1, publicInputs, vk), 'This proof appears to be valid');\n    }\n\n    function libCheckCompressedProof(\n        uint256[4] memory compressedProof,\n        uint256[8] memory uncompressedProof\n    ) internal pure {\n        // check equality by comparing hashes (cheaper than comparing elements)\n        require(\n            keccak256(abi.encodePacked(compressedProof)) ==\n                keccak256(abi.encodePacked(Utils.compressProof(uncompressedProof))),\n            'Cannot recreate compressed proof from uncompressed proof'\n        );\n    }\n\n    function libChallengeCommitment(\n        Structures.Transaction calldata tx1,\n        uint256 commitmentIndex1,\n        Structures.Transaction calldata tx2,\n        uint256 commitmentIndex2\n    ) public pure {\n        require(\n            tx1.commitments[commitmentIndex1] != 0 &&\n                tx1.commitments[commitmentIndex1] == tx2.commitments[commitmentIndex2],\n            'Not matching commitments'\n        );\n    }\n\n    function libChallengeNullifier(\n        Structures.Transaction calldata tx1,\n        uint256 nullifierIndex1,\n        Structures.Transaction calldata tx2,\n        uint256 nullifierIndex2\n    ) public pure {\n        require(\n            tx1.nullifiers[nullifierIndex1] != 0 &&\n                tx1.nullifiers[nullifierIndex1] == tx2.nullifiers[nullifierIndex2],\n            'Not matching nullifiers'\n        );\n    }\n}\n",
  "sourcePath": "/app/contracts/ChallengesUtil.sol",
  "compiler": {
    "name": "solc",
    "version": "0.8.17+commit.8df45f5f.Emscripten.clang"
  },
  "schemaVersion": "3.4.10",
  "updatedAt": "2022-12-15T14:25:41.314Z",
  "networkType": "ethereum",
  "devdoc": {
    "kind": "dev",
    "methods": {},
    "version": 1
  },
  "userdoc": {
    "kind": "user",
    "methods": {},
    "version": 1
  }
}