{
  "contractName": "Config",
  "abi": [
    {
      "inputs": [
        {
          "internalType": "bytes32",
          "name": "commitmentHash",
          "type": "bytes32"
        }
      ],
      "name": "CommitmentNotEscrowed",
      "type": "error"
    },
    {
      "inputs": [],
      "name": "InvalidBlockSize",
      "type": "error"
    },
    {
      "inputs": [],
      "name": "InvalidTransactionHash",
      "type": "error"
    },
    {
      "inputs": [],
      "name": "InvalidTransactionSize",
      "type": "error"
    },
    {
      "anonymous": false,
      "inputs": [],
      "name": "BlockProposed",
      "type": "event"
    },
    {
      "anonymous": false,
      "inputs": [
        {
          "indexed": false,
          "internalType": "bytes32",
          "name": "commitHash",
          "type": "bytes32"
        },
        {
          "indexed": false,
          "internalType": "address",
          "name": "sender",
          "type": "address"
        }
      ],
      "name": "CommittedToChallenge",
      "type": "event"
    },
    {
      "anonymous": false,
      "inputs": [
        {
          "indexed": false,
          "internalType": "uint8",
          "name": "version",
          "type": "uint8"
        }
      ],
      "name": "Initialized",
      "type": "event"
    },
    {
      "anonymous": false,
      "inputs": [
        {
          "indexed": false,
          "internalType": "bytes32",
          "name": "withdrawTransactionHash",
          "type": "bytes32"
        },
        {
          "indexed": false,
          "internalType": "address",
          "name": "paidBy",
          "type": "address"
        },
        {
          "indexed": false,
          "internalType": "uint256",
          "name": "amount",
          "type": "uint256"
        }
      ],
      "name": "InstantWithdrawalRequested",
      "type": "event"
    },
    {
      "anonymous": false,
      "inputs": [
        {
          "indexed": false,
          "internalType": "address",
          "name": "addr",
          "type": "address"
        }
      ],
      "name": "NewBootChallengerSet",
      "type": "event"
    },
    {
      "anonymous": false,
      "inputs": [
        {
          "indexed": false,
          "internalType": "address",
          "name": "addr",
          "type": "address"
        }
      ],
      "name": "NewBootProposerSet",
      "type": "event"
    },
    {
      "anonymous": false,
      "inputs": [
        {
          "indexed": false,
          "internalType": "address",
          "name": "proposer",
          "type": "address"
        }
      ],
      "name": "NewCurrentProposer",
      "type": "event"
    },
    {
      "anonymous": false,
      "inputs": [
        {
          "indexed": false,
          "internalType": "uint256",
          "name": "leafIndex",
          "type": "uint256"
        },
        {
          "indexed": false,
          "internalType": "bytes32",
          "name": "leafValue",
          "type": "bytes32"
        },
        {
          "indexed": false,
          "internalType": "bytes32",
          "name": "root",
          "type": "bytes32"
        }
      ],
      "name": "NewLeaf",
      "type": "event"
    },
    {
      "anonymous": false,
      "inputs": [
        {
          "indexed": false,
          "internalType": "uint256",
          "name": "minLeafIndex",
          "type": "uint256"
        },
        {
          "indexed": false,
          "internalType": "bytes32[]",
          "name": "leafValues",
          "type": "bytes32[]"
        },
        {
          "indexed": false,
          "internalType": "bytes32",
          "name": "root",
          "type": "bytes32"
        }
      ],
      "name": "NewLeaves",
      "type": "event"
    },
    {
      "anonymous": false,
      "inputs": [
        {
          "indexed": false,
          "internalType": "address",
          "name": "previousOwner",
          "type": "address"
        },
        {
          "indexed": false,
          "internalType": "address",
          "name": "newOwner",
          "type": "address"
        }
      ],
      "name": "OwnershipTransferred",
      "type": "event"
    },
    {
      "anonymous": false,
      "inputs": [
        {
          "indexed": false,
          "internalType": "uint64",
          "name": "blockNumberL2",
          "type": "uint64"
        }
      ],
      "name": "Rollback",
      "type": "event"
    },
    {
      "anonymous": false,
      "inputs": [
        {
          "indexed": false,
          "internalType": "address",
          "name": "ercAddress",
          "type": "address"
        },
        {
          "indexed": false,
          "internalType": "uint256",
          "name": "amount",
          "type": "uint256"
        }
      ],
      "name": "ShieldBalanceTransferred",
      "type": "event"
    },
    {
      "anonymous": false,
      "inputs": [],
      "name": "TransactionSubmitted",
      "type": "event"
    },
    {
      "inputs": [],
      "name": "_owner",
      "outputs": [
        {
          "internalType": "address",
          "name": "",
          "type": "address"
        }
      ],
      "stateMutability": "view",
      "type": "function"
    },
    {
      "inputs": [],
      "name": "owner",
      "outputs": [
        {
          "internalType": "address",
          "name": "",
          "type": "address"
        }
      ],
      "stateMutability": "view",
      "type": "function"
    },
    {
      "inputs": [
        {
          "internalType": "address",
          "name": "newOwner",
          "type": "address"
        }
      ],
      "name": "transferOwnership",
      "outputs": [],
      "stateMutability": "nonpayable",
      "type": "function"
    },
    {
      "inputs": [],
      "name": "initialize",
      "outputs": [],
      "stateMutability": "nonpayable",
      "type": "function"
    },
    {
      "inputs": [
        {
          "internalType": "address",
          "name": "proposer",
          "type": "address"
        }
      ],
      "name": "setBootProposer",
      "outputs": [],
      "stateMutability": "nonpayable",
      "type": "function"
    },
    {
      "inputs": [],
      "name": "getBootProposer",
      "outputs": [
        {
          "internalType": "address",
          "name": "",
          "type": "address"
        }
      ],
      "stateMutability": "view",
      "type": "function"
    },
    {
      "inputs": [
        {
          "internalType": "address",
          "name": "challenger",
          "type": "address"
        }
      ],
      "name": "setBootChallenger",
      "outputs": [],
      "stateMutability": "nonpayable",
      "type": "function"
    },
    {
      "inputs": [],
      "name": "getBootChallenger",
      "outputs": [
        {
          "internalType": "address",
          "name": "",
          "type": "address"
        }
      ],
      "stateMutability": "view",
      "type": "function"
    },
    {
      "inputs": [
        {
          "internalType": "address",
          "name": "_feeL2TokenAddress",
          "type": "address"
        }
      ],
      "name": "setFeeL2TokenAddress",
      "outputs": [],
      "stateMutability": "nonpayable",
      "type": "function"
    },
    {
      "inputs": [],
      "name": "getFeeL2TokenAddress",
      "outputs": [
        {
          "internalType": "address",
          "name": "",
          "type": "address"
        }
      ],
      "stateMutability": "view",
      "type": "function"
    },
    {
      "inputs": [
        {
          "internalType": "address",
          "name": "tokenAddr",
          "type": "address"
        }
      ],
      "name": "getRestrictionDeposit",
      "outputs": [
        {
          "internalType": "uint256",
          "name": "",
          "type": "uint256"
        }
      ],
      "stateMutability": "view",
      "type": "function"
    },
    {
      "inputs": [
        {
          "internalType": "address",
          "name": "tokenAddr",
          "type": "address"
        }
      ],
      "name": "getRestrictionWithdraw",
      "outputs": [
        {
          "internalType": "uint256",
          "name": "",
          "type": "uint256"
        }
      ],
      "stateMutability": "view",
      "type": "function"
    },
    {
      "inputs": [
        {
          "internalType": "address",
          "name": "tokenAddr",
          "type": "address"
        },
        {
          "internalType": "uint256",
          "name": "depositAmount",
          "type": "uint256"
        },
        {
          "internalType": "uint256",
          "name": "withdrawAmount",
          "type": "uint256"
        }
      ],
      "name": "setRestriction",
      "outputs": [],
      "stateMutability": "nonpayable",
      "type": "function"
    },
    {
      "inputs": [
        {
          "internalType": "address",
          "name": "tokenAddr",
          "type": "address"
        }
      ],
      "name": "removeRestriction",
      "outputs": [],
      "stateMutability": "nonpayable",
      "type": "function"
    },
    {
      "inputs": [
        {
          "internalType": "uint256",
          "name": "_proposerSetCount",
          "type": "uint256"
        }
      ],
      "name": "setProposerSetCount",
      "outputs": [],
      "stateMutability": "nonpayable",
      "type": "function"
    },
    {
      "inputs": [],
      "name": "getProposerSetCount",
      "outputs": [
        {
          "internalType": "uint256",
          "name": "",
          "type": "uint256"
        }
      ],
      "stateMutability": "view",
      "type": "function"
    },
    {
      "inputs": [
        {
          "internalType": "uint256",
          "name": "_sprintsInSpan",
          "type": "uint256"
        }
      ],
      "name": "setSprintsInSpan",
      "outputs": [],
      "stateMutability": "nonpayable",
      "type": "function"
    },
    {
      "inputs": [],
      "name": "getSprintsInSpan",
      "outputs": [
        {
          "internalType": "uint256",
          "name": "",
          "type": "uint256"
        }
      ],
      "stateMutability": "view",
      "type": "function"
    },
    {
      "inputs": [
        {
          "internalType": "uint96",
          "name": "_minimumStake",
          "type": "uint96"
        }
      ],
      "name": "setMinimumStake",
      "outputs": [],
      "stateMutability": "nonpayable",
      "type": "function"
    },
    {
      "inputs": [],
      "name": "getMinimumStake",
      "outputs": [
        {
          "internalType": "uint256",
          "name": "",
          "type": "uint256"
        }
      ],
      "stateMutability": "view",
      "type": "function"
    },
    {
      "inputs": [
        {
          "internalType": "uint96",
          "name": "_blockStake",
          "type": "uint96"
        }
      ],
      "name": "setBlockStake",
      "outputs": [],
      "stateMutability": "nonpayable",
      "type": "function"
    },
    {
      "inputs": [],
      "name": "getBlockStake",
      "outputs": [
        {
          "internalType": "uint96",
          "name": "",
          "type": "uint96"
        }
      ],
      "stateMutability": "view",
      "type": "function"
    },
    {
      "inputs": [
        {
          "internalType": "uint256",
          "name": "_rotateProposerBlocks",
          "type": "uint256"
        }
      ],
      "name": "setRotateProposerBlocks",
      "outputs": [],
      "stateMutability": "nonpayable",
      "type": "function"
    },
    {
      "inputs": [],
      "name": "getRotateProposerBlocks",
      "outputs": [
        {
          "internalType": "uint256",
          "name": "",
          "type": "uint256"
        }
      ],
      "stateMutability": "view",
      "type": "function"
    },
    {
      "inputs": [
        {
          "internalType": "uint256",
          "name": "_maxProposers",
          "type": "uint256"
        }
      ],
      "name": "setMaxProposers",
      "outputs": [],
      "stateMutability": "nonpayable",
      "type": "function"
    },
    {
      "inputs": [],
      "name": "getMaxProposers",
      "outputs": [
        {
          "internalType": "uint256",
          "name": "",
          "type": "uint256"
        }
      ],
      "stateMutability": "view",
      "type": "function"
    }
  ],
  "bytecode": "0x608060405234801561001057600080fd5b50610a48806100206000396000f3fe608060405234801561001057600080fd5b506004361061013e5760003560e01c8063120f66df14610143578063146eb2221461016957806328340f171461017e5780633195a4e71461019857806342646c68146101ab5780636764a898146101bc57806369a5b950146101cd5780638129fc1c146101e0578063875840ce146101e8578063894f7d62146101f05780638da5cb5b146102035780639c18de931461020b578063af52ca691461021e578063b0a9fd0f14610231578063b0c9569a1461025c578063b13a8c0714610264578063b2bdfa7b14610277578063bb7affc114610290578063bf2c94db146102a3578063c2c5bb6e146102b6578063c83daadc146102c9578063d9ba1ca1146102d1578063d9bbd278146102e4578063efedffa8146102f5578063f2fde38b146102fd578063f560a79214610310575b600080fd5b6101566101513660046108ce565b610323565b6040519081526020015b60405180910390f35b61017c6101773660046108f0565b610346565b005b6006546001600160a01b03165b6040516101609190610909565b61017c6101a63660046108f0565b61038c565b6007546001600160a01b031661018b565b6008546001600160a01b031661018b565b61017c6101db3660046108ce565b6103c9565b61017c610421565b600454610156565b61017c6101fe36600461091d565b610481565b61018b6104e5565b61017c610219366004610946565b6104fa565b61017c61022c3660046108f0565b610555565b600154600160601b90046001600160601b03166040516001600160601b039091168152602001610160565b600554610156565b61017c61027236600461091d565b610592565b60005461018b906201000090046001600160a01b031681565b61017c61029e3660046108ce565b6105ec565b61017c6102b13660046108f0565b61067b565b6101566102c43660046108ce565b6106b8565b600254610156565b61017c6102df3660046108ce565b6106d6565b6001546001600160601b0316610156565b600354610156565b61017c61030b3660046108ce565b610730565b61017c61031e3660046108ce565b6107d2565b6001600160a01b038116600090815260096020526040812060015b015492915050565b61034e6104e5565b6001600160a01b0316336001600160a01b0316146103875760405162461bcd60e51b815260040161037e90610979565b60405180910390fd5b600355565b6103946104e5565b6001600160a01b0316336001600160a01b0316146103c45760405162461bcd60e51b815260040161037e90610979565b600555565b6103d16104e5565b6001600160a01b0316336001600160a01b0316146104015760405162461bcd60e51b815260040161037e90610979565b6001600160a01b0316600090815260096020526040812081815560010155565b600054610100900460ff166104485760405162461bcd60e51b815260040161037e906109c7565b610450610856565b600180546001600160c01b031916620f4240600160601b011790556020600255600a60038190556004556064600555565b6104896104e5565b6001600160a01b0316336001600160a01b0316146104b95760405162461bcd60e51b815260040161037e90610979565b600180546001600160601b03909216600160601b02600160601b600160c01b0319909216919091179055565b6000546201000090046001600160a01b031690565b6105026104e5565b6001600160a01b0316336001600160a01b0316146105325760405162461bcd60e51b815260040161037e90610979565b6001600160a01b0392909216600090815260096020526040902090815560010155565b61055d6104e5565b6001600160a01b0316336001600160a01b03161461058d5760405162461bcd60e51b815260040161037e90610979565b600455565b61059a6104e5565b6001600160a01b0316336001600160a01b0316146105ca5760405162461bcd60e51b815260040161037e90610979565b600180546001600160601b0319166001600160601b0392909216919091179055565b6105f46104e5565b6001600160a01b0316336001600160a01b0316146106245760405162461bcd60e51b815260040161037e90610979565b600680546001600160a01b0319166001600160a01b0383169081179091556040517f5544fd39820f90f9fc4b238e0eaaf1b5ece21e6dbb69a2b0824a16876e6d0efd9161067091610909565b60405180910390a150565b6106836104e5565b6001600160a01b0316336001600160a01b0316146106b35760405162461bcd60e51b815260040161037e90610979565b600255565b6001600160a01b03811660009081526009602052604081208161033e565b6106de6104e5565b6001600160a01b0316336001600160a01b03161461070e5760405162461bcd60e51b815260040161037e90610979565b600880546001600160a01b0319166001600160a01b0392909216919091179055565b6107386104e5565b6001600160a01b0316336001600160a01b0316146107685760405162461bcd60e51b815260040161037e90610979565b6001600160a01b03811661077b57600080fd5b7f8be0079c531659141344cd1fd0a4f28419497f9722a3daafe3b4186f6b6457e06107a46104e5565b604080516001600160a01b03928316815291841660208301520160405180910390a16107cf81610888565b50565b6107da6104e5565b6001600160a01b0316336001600160a01b03161461080a5760405162461bcd60e51b815260040161037e90610979565b600780546001600160a01b0319166001600160a01b0383169081179091556040517f210cff5548618e71293ea0d4f1f3563a68e78f00273f3acd97014aac2442ed249161067091610909565b600054610100900460ff1661087d5760405162461bcd60e51b815260040161037e906109c7565b61088633610888565b565b600080546001600160a01b03909216620100000262010000600160b01b0319909216919091179055565b80356001600160a01b03811681146108c957600080fd5b919050565b6000602082840312156108e057600080fd5b6108e9826108b2565b9392505050565b60006020828403121561090257600080fd5b5035919050565b6001600160a01b0391909116815260200190565b60006020828403121561092f57600080fd5b81356001600160601b03811681146108e957600080fd5b60008060006060848603121561095b57600080fd5b610964846108b2565b95602085013595506040909401359392505050565b6020808252602e908201527f596f7520617265206e6f7420617574686f726973656420746f20696e766f6b6560408201526d103a3434b990333ab731ba34b7b760911b606082015260800190565b6020808252602b908201527f496e697469616c697a61626c653a20636f6e7472616374206973206e6f74206960408201526a6e697469616c697a696e6760a81b60608201526080019056fea2646970667358221220f205fa132add88e2ae81f0a03c0d82cc9362ab494dc0d087183166ec808c467364736f6c63430008110033",
  "immutableReferences": {},
  "source": "// SPDX-License-Identifier: CC0-1.0\n\npragma solidity ^0.8.0;\n\nimport './Ownable.sol';\nimport './Structures.sol';\n\ncontract Config is Ownable, Structures {\n    uint256 constant CHALLENGE_PERIOD = 1 weeks;\n    bytes32 constant ZERO = bytes32(0);\n    uint256 constant MAX_BLOCK_SIZE = 50000;\n    uint256 constant BLOCK_STRUCTURE_SLOTS = 5;\n\n    uint96 minimumStake;\n    uint96 blockStake;\n    uint256 rotateProposerBlocks;\n    uint256 proposerSetCount; // number of slots to pop after shuffling slots that will build the proposer set\n    uint256 sprintsInSpan; // number of sprints of a span\n    uint256 maxProposers; // maximum number of proposers for the PoS\n\n    address bootProposer;\n    address bootChallenger;\n    address feeL2TokenAddress;\n    mapping(address => uint256[2]) erc20limit;\n\n    function initialize() public virtual override onlyInitializing {\n        Ownable.initialize();\n        minimumStake = 1000000 wei; // 20000000000000 wei; // 20K MATIC in mainnet\n        blockStake = 1 wei; // 200000000000 wei; 200 MATIC in mainnet\n        rotateProposerBlocks = 32;\n        proposerSetCount = 10;\n        sprintsInSpan = 10;\n        maxProposers = 100;\n    }\n\n    /**\n     * @dev Set boot proposer address\n     */\n    function setBootProposer(address proposer) external onlyOwner {\n        bootProposer = proposer;\n        emit NewBootProposerSet(bootProposer);\n    }\n\n    /**\n     * @dev Get boot proposer address\n     */\n    function getBootProposer() external view returns (address) {\n        return bootProposer;\n    }\n\n    /**\n     * @dev Set boot challenger address\n     */\n    function setBootChallenger(address challenger) external onlyOwner {\n        bootChallenger = challenger;\n        emit NewBootChallengerSet(bootChallenger);\n    }\n\n    /**\n     * @dev Get boot challenger address\n     */\n    function getBootChallenger() external view returns (address) {\n        return bootChallenger;\n    }\n\n    /**\n     * @dev Set Matic address (fee token for proposers payment)\n     */\n    function setFeeL2TokenAddress(address _feeL2TokenAddress) external onlyOwner {\n        feeL2TokenAddress = _feeL2TokenAddress;\n    }\n\n    /**\n     * @dev Get Matic address (fee token for proposers payment)\n     */\n    function getFeeL2TokenAddress() public view returns (address) {\n        return feeL2TokenAddress;\n    }\n\n    // restricting tokens for deposit\n    function getRestrictionDeposit(address tokenAddr) public view returns (uint256) {\n        return erc20limit[tokenAddr][0];\n    }\n\n    // restricting tokens for deposit\n    function getRestrictionWithdraw(address tokenAddr) public view returns (uint256) {\n        return erc20limit[tokenAddr][1];\n    }\n\n    /**\n     * @dev Set token restriction\n     */\n    function setRestriction(\n        address tokenAddr,\n        uint256 depositAmount,\n        uint256 withdrawAmount\n    ) external onlyOwner {\n        erc20limit[tokenAddr][0] = depositAmount;\n        erc20limit[tokenAddr][1] = withdrawAmount;\n    }\n\n    /**\n     * @dev Remove token restriction\n     */\n    function removeRestriction(address tokenAddr) external onlyOwner {\n        delete erc20limit[tokenAddr][0];\n        delete erc20limit[tokenAddr][1];\n    }\n\n    /**\n     * @dev Set proposerset count in PoS\n     */\n    function setProposerSetCount(uint256 _proposerSetCount) external onlyOwner {\n        proposerSetCount = _proposerSetCount;\n    }\n\n    /**\n     * @dev Get proposerset count in PoS\n     */\n    function getProposerSetCount() public view returns (uint256) {\n        return proposerSetCount;\n    }\n\n    /**\n     * @dev Set sprints in span in PoS\n     */\n    function setSprintsInSpan(uint256 _sprintsInSpan) external onlyOwner {\n        sprintsInSpan = _sprintsInSpan;\n    }\n\n    /**\n     * @dev Get sprints in span in PoS\n     */\n    function getSprintsInSpan() public view returns (uint256) {\n        return sprintsInSpan;\n    }\n\n    /**\n     * @dev Set minimum stake for a proposer\n     */\n    function setMinimumStake(uint96 _minimumStake) external onlyOwner {\n        minimumStake = _minimumStake;\n    }\n\n    /**\n     * @dev Get minimum stake for a proposer\n     */\n    function getMinimumStake() public view returns (uint256) {\n        return minimumStake;\n    }\n\n    /**\n     * @dev Set block stake for a proposer\n     */\n    function setBlockStake(uint96 _blockStake) external onlyOwner {\n        blockStake = _blockStake;\n    }\n\n    /**\n     * @dev Get block stake for a proposer\n     */\n    function getBlockStake() public view returns (uint96) {\n        return blockStake;\n    }\n\n    /**\n     * @dev Set rotate proposer blocks for the current proposer\n     */\n    function setRotateProposerBlocks(uint256 _rotateProposerBlocks) external onlyOwner {\n        rotateProposerBlocks = _rotateProposerBlocks;\n    }\n\n    /**\n     * @dev Get rotate proposer blocks for the current proposer\n     */\n    function getRotateProposerBlocks() public view returns (uint256) {\n        return rotateProposerBlocks;\n    }\n\n    /**\n     * @dev Set maximum number of proposers\n     */\n    function setMaxProposers(uint256 _maxProposers) external onlyOwner {\n        maxProposers = _maxProposers;\n    }\n\n    /**\n     * @dev Get maximum number of proposers\n     */\n    function getMaxProposers() public view returns (uint256) {\n        return maxProposers;\n    }\n}\n",
  "sourcePath": "/app/contracts/Config.sol",
  "compiler": {
    "name": "solc",
    "version": "0.8.17+commit.8df45f5f.Emscripten.clang"
  },
  "schemaVersion": "3.4.10",
  "updatedAt": "2023-01-04T16:02:55.667Z",
  "devdoc": {
    "kind": "dev",
    "methods": {
      "getBlockStake()": {
        "details": "Get block stake for a proposer"
      },
      "getBootChallenger()": {
        "details": "Get boot challenger address"
      },
      "getBootProposer()": {
        "details": "Get boot proposer address"
      },
      "getFeeL2TokenAddress()": {
        "details": "Get Matic address (fee token for proposers payment)"
      },
      "getMaxProposers()": {
        "details": "Get maximum number of proposers"
      },
      "getMinimumStake()": {
        "details": "Get minimum stake for a proposer"
      },
      "getProposerSetCount()": {
        "details": "Get proposerset count in PoS"
      },
      "getRotateProposerBlocks()": {
        "details": "Get rotate proposer blocks for the current proposer"
      },
      "getSprintsInSpan()": {
        "details": "Get sprints in span in PoS"
      },
      "initialize()": {
        "details": "The constructor sets the original owner of the contract to the sender account."
      },
      "owner()": {
        "details": "Tells the address of the owner",
        "returns": {
          "_0": "the address of the owner"
        }
      },
      "removeRestriction(address)": {
        "details": "Remove token restriction"
      },
      "setBlockStake(uint96)": {
        "details": "Set block stake for a proposer"
      },
      "setBootChallenger(address)": {
        "details": "Set boot challenger address"
      },
      "setBootProposer(address)": {
        "details": "Set boot proposer address"
      },
      "setFeeL2TokenAddress(address)": {
        "details": "Set Matic address (fee token for proposers payment)"
      },
      "setMaxProposers(uint256)": {
        "details": "Set maximum number of proposers"
      },
      "setMinimumStake(uint96)": {
        "details": "Set minimum stake for a proposer"
      },
      "setProposerSetCount(uint256)": {
        "details": "Set proposerset count in PoS"
      },
      "setRestriction(address,uint256,uint256)": {
        "details": "Set token restriction"
      },
      "setRotateProposerBlocks(uint256)": {
        "details": "Set rotate proposer blocks for the current proposer"
      },
      "setSprintsInSpan(uint256)": {
        "details": "Set sprints in span in PoS"
      },
      "transferOwnership(address)": {
        "details": "Allows the current owner to transfer control of the contract to a newOwner.",
        "params": {
          "newOwner": "The address to transfer ownership to."
        }
      }
    },
    "version": 1
  },
  "userdoc": {
    "events": {
      "NewLeaf(uint256,bytes32,bytes32)": {
        "notice": "These events are what the merkle-tree microservice's filters will listen for."
      }
    },
    "kind": "user",
    "methods": {},
    "version": 1
  }
}