{
  "contractName": "DERParser",
  "abi": [
    {
      "inputs": [
        {
          "internalType": "bytes",
          "name": "derBytes",
          "type": "bytes"
        },
        {
          "internalType": "uint256",
          "name": "pointer",
          "type": "uint256"
        }
      ],
      "name": "computeNumberOfTlvs",
      "outputs": [
        {
          "internalType": "uint256",
          "name": "",
          "type": "uint256"
        }
      ],
      "stateMutability": "pure",
      "type": "function"
    },
    {
      "inputs": [
        {
          "internalType": "bytes",
          "name": "derBytes",
          "type": "bytes"
        },
        {
          "internalType": "uint256",
          "name": "pointer",
          "type": "uint256"
        },
        {
          "internalType": "uint256",
          "name": "tlvLength",
          "type": "uint256"
        }
      ],
      "name": "parseDER",
      "outputs": [
        {
          "components": [
            {
              "internalType": "uint256",
              "name": "start",
              "type": "uint256"
            },
            {
              "internalType": "uint256",
              "name": "headerLength",
              "type": "uint256"
            },
            {
              "components": [
                {
                  "internalType": "bool",
                  "name": "isConstructed",
                  "type": "bool"
                },
                {
                  "internalType": "bytes1",
                  "name": "tagType",
                  "type": "bytes1"
                }
              ],
              "internalType": "struct DERParser.Tag",
              "name": "tag",
              "type": "tuple"
            },
            {
              "internalType": "uint256",
              "name": "length",
              "type": "uint256"
            },
            {
              "internalType": "bytes",
              "name": "value",
              "type": "bytes"
            },
            {
              "internalType": "bytes",
              "name": "octets",
              "type": "bytes"
            },
            {
              "internalType": "uint256",
              "name": "depth",
              "type": "uint256"
            }
          ],
          "internalType": "struct DERParser.DecodedTlv[]",
          "name": "",
          "type": "tuple[]"
        }
      ],
      "stateMutability": "pure",
      "type": "function"
    }
  ],
  "bytecode": "0x608060405234801561001057600080fd5b50610b5c806100206000396000f3fe608060405234801561001057600080fd5b50600436106100365760003560e01c80631693280a1461003b578063b0c5055514610064575b600080fd5b61004e6100493660046108b5565b610085565b60405161005b919061094b565b60405180910390f35b610077610072366004610a26565b61009c565b60405190815260200161005b565b60606100938585858561016c565b95945050505050565b60006100a66107f5565b6000806100b1610838565b6100bd888888866102ae565b96509350816100cb81610a87565b925050836040015160000151156101105760608401516100eb9087610aa0565b8184600581106100fd576100fd610ab9565b60200201528261010c81610a87565b9350505b60005b60058110156101595781816005811061012e5761012e610ab9565b60200201518703610147578361014381610acf565b9450505b8061015181610a87565b915050610113565b508686106100b157509695505050505050565b60606101766107f5565b6000836001600160401b0381111561019057610190610ae6565b6040519080825280602002602001820160405280156101c957816020015b6101b66107f5565b8152602001906001900390816101ae5790505b5090506000806101d7610838565b6101e38a8a8a866102ae565b985094508484836101f381610a87565b94508151811061020557610205610ab9565b60209081029190910101526040850151511561024f57606085015161022a9089610aa0565b81846005811061023c5761023c610ab9565b60200201528261024b81610a87565b9350505b60005b60058110156102985781816005811061026d5761026d610ab9565b60200201518903610286578361028281610acf565b9450505b8061029081610a87565b915050610252565b508888106101d757509198975050505050505050565b6102b66107f5565b60006102c0610856565b6000606081876102eb8b8b838181106102db576102db610ab9565b9050013560f81c60f81b8a6103cd565b909a5090955091506103096103028b8b818f610afc565b8b85610554565b909a5090945091506103286103208b8b818f610afc565b868c89610735565b9950925060008b828c8761033c8784610aa0565b6103469190610aa0565b9261035393929190610afc565b8080601f016020809104026020016040519081016040528093929190818152602001838380828437600092019190915250506040805160e08101825295865260208601969096525050928201959095526060810193909352608083019190915260a082015260c08101949094525091959294509192505050565b6103d5610856565b600080600360fe1b8516600160fd1b86161515601f60f81b80881690849082106104625760405162461bcd60e51b815260206004820152603360248201527f4445525061727365723a20546167206973204c6f6e6720466f726d2c2077686960448201527218da081a5cc81b9bdd081cdd5c1c1bdc9d1959606a1b60648201526084015b60405180910390fd5b6001600160f81b0319841615806104865750600160ff1b6001600160f81b03198516145b61050b5760405162461bcd60e51b815260206004820152604a60248201527f4445525061727365723a204f6e6c792074686520556e6976657273616c206f7260448201527f20436f6e7465787453706563696669632074616720636c617373657320617265606482015269081cdd5c1c1bdc9d195960b21b608482015260a401610459565b8061051581610a87565b91505060405180604001604052808415158152602001836001600160f81b0319168152508861054390610a87565b909a90995090975095505050505050565b600080808361056281610a87565b94505060008787600081811061057a5761057a610ab9565b90910135600160ff1b16159150600090508888828161059b5761059b610ab9565b9091013560f81c607f1691505081156105c957806105b888610a87565b97508787945094509450505061072b565b806000036106315760405162461bcd60e51b815260206004820152602f60248201527f4445525061727365723a20496e646566696e697465206c656e6774687320617260448201526e19481b9bdd081cdd5c1c1bdc9d1959608a1b6064820152608401610459565b80607f036106b55760405162461bcd60e51b815260206004820152604560248201527f4445525061727365723a20412076616c7565206f66203078374620666f72206160448201527f206c6f6e6720666f726d206c656e67746820697320612072657365727665642060648201526476616c756560d81b608482015260a401610459565b6000805b82811015610700578a8a6106ce836001610aa0565b8181106106dd576106dd610ab9565b60089490941b919093013560f81c179150806106f881610a87565b9150506106b9565b508061070c838a610aa0565b610717906001610aa0565b610721848a610aa0565b9550955095505050505b9450945094915050565b6060600082600001511561079557610750856000888a610afc565b8582828080601f0160208091040260200160405190810160405280939291908181526020018383808284376000920191909152509297509295506107eb945050505050565b6107a2856000888a610afc565b6107ac8787610aa0565b82828080601f01602080910402602001604051908101604052809392919081815260200183838082843760009201919091525092975092955050505050505b9550959350505050565b6040518060e001604052806000815260200160008152602001610816610856565b8152602001600081526020016060815260200160608152602001600081525090565b6040518060a001604052806005906020820280368337509192915050565b604080518082019091526000808252602082015290565b60008083601f84011261087f57600080fd5b5081356001600160401b0381111561089657600080fd5b6020830191508360208285010111156108ae57600080fd5b9250929050565b600080600080606085870312156108cb57600080fd5b84356001600160401b038111156108e157600080fd5b6108ed8782880161086d565b90989097506020870135966040013595509350505050565b6000815180845260005b8181101561092b5760208185018101518683018201520161090f565b506000602082860101526020601f19601f83011685010191505092915050565b60006020808301818452808551808352604092508286019150828160051b87010184880160005b83811015610a1857888303603f1901855281518051845287810151888501528681015180511515888601528801516001600160f81b03191660608086019190915281015160808086019190915281015161010060a08087018290529091906109dc83880183610905565b92508084015191505060c0868303818801526109f88383610905565b93015160e096909601959095525094870194925090860190600101610972565b509098975050505050505050565b600080600060408486031215610a3b57600080fd5b83356001600160401b03811115610a5157600080fd5b610a5d8682870161086d565b909790965060209590950135949350505050565b634e487b7160e01b600052601160045260246000fd5b600060018201610a9957610a99610a71565b5060010190565b80820180821115610ab357610ab3610a71565b92915050565b634e487b7160e01b600052603260045260246000fd5b600081610ade57610ade610a71565b506000190190565b634e487b7160e01b600052604160045260246000fd5b60008085851115610b0c57600080fd5b83861115610b1957600080fd5b505082019391909203915056fea2646970667358221220954724aae0da07cfd50a70ec17ccf1a3efed9fbcab1b70bdfe9b6e7fc488dd7764736f6c63430008110033",
  "immutableReferences": {},
  "source": "// SPDX-License-Identifier: CC0-1.0\n\npragma solidity ^0.8.3;\n\n// This contract can parse a DER object, such as a suitably encoded SSL certificate\nimport 'hardhat/console.sol';\n\ncontract DERParser {\n    struct DecodedTlv {\n        uint256 start;\n        uint256 headerLength;\n        Tag tag;\n        uint256 length;\n        bytes value;\n        bytes octets;\n        uint256 depth;\n    }\n    struct Tag {\n        bool isConstructed;\n        bytes1 tagType;\n    }\n\n    uint256 constant MAX_DEPTH = 5;\n\n    /*\n  Parses the input tag.\n  */\n    function getTlvTag(bytes1 tagByte, uint256 pointer)\n        private\n        pure\n        returns (\n            Tag memory,\n            uint256,\n            uint256\n        )\n    {\n        bytes1 tagClass = tagByte & 0xC0;\n        bool isConstructed = (tagByte & 0x20) != 0;\n        bytes1 tagType = tagByte & 0x1F;\n        uint256 headerLength = 0;\n        require(tagType < 0x1F, 'DERParser: Tag is Long Form, which is not supported');\n        require(\n            tagClass == 0 || tagClass == 0x80,\n            'DERParser: Only the Universal or ContextSpecific tag classes are supported'\n        );\n        headerLength++;\n        return (Tag(isConstructed, tagType), ++pointer, headerLength);\n    }\n\n    /*\n  Parses the length bytes, which must be at the start of the passed-in bytes\n  */\n    function getTlvLength(\n        bytes calldata derSlice,\n        uint256 pointer,\n        uint256 headerLength\n    )\n        private\n        pure\n        returns (\n            uint256,\n            uint256,\n            uint256\n        )\n    {\n        headerLength++;\n        bool shortForm = (derSlice[0] & 0x80) == 0;\n        uint256 lengthBits = uint256(uint8(derSlice[0] & 0x7F)); // this contains either the length value (shortform) or the number of following octets that contain the length value (long form)\n        if (shortForm) return (lengthBits, ++pointer, headerLength); //it's a short form length, so we're done\n        // it's not short form so more work to do\n        require(lengthBits != 0, 'DERParser: Indefinite lengths are not supported');\n        require(\n            lengthBits != 0x7F,\n            'DERParser: A value of 0x7F for a long form length is a reserved value'\n        );\n        uint256 length = 0;\n        for (uint256 i = 0; i < lengthBits; i++) {\n            length = (length << 8) | uint256(uint8(derSlice[i + 1]));\n        }\n        return (length, pointer + lengthBits + 1, headerLength + lengthBits);\n    }\n\n    /*\n  Returns the value field for the tlv encoded data.  The passed in bytes must have the value field starting at byte[0]\n  */\n    function getTlvValue(\n        bytes calldata derSlice,\n        uint256 length,\n        uint256 pointer,\n        Tag memory tag\n    ) private pure returns (bytes memory, uint256) {\n        if (tag.isConstructed) return (derSlice[:length], pointer); // we want to point at the start of the value because it contains child tlv constructs so we need to process it further\n        return (derSlice[:length], pointer + length); //these '1' values should be length - DEBUG\n    }\n\n    /*\n  Assembles the next tlv element from an array of bytes representing DER encoded data.  The next element must be at the start of the DER bytes array\n  */\n    function getNextTlv(\n        bytes calldata derSlice,\n        uint256 pointer,\n        uint256 depth\n    ) internal pure returns (DecodedTlv memory, uint256) {\n        Tag memory tag;\n        uint256 length;\n        bytes memory value;\n        uint256 headerLength;\n        uint256 start = pointer;\n        (tag, pointer, headerLength) = getTlvTag(derSlice[pointer], pointer);\n        (length, pointer, headerLength) = getTlvLength(derSlice[pointer:], pointer, headerLength);\n        (value, pointer) = getTlvValue(derSlice[pointer:], length, pointer, tag);\n        bytes memory octets = derSlice[start:start + headerLength + length];\n        DecodedTlv memory tlv = DecodedTlv(start, headerLength, tag, length, value, octets, depth);\n        return (tlv, pointer);\n    }\n\n    /**\n  A function that walks through the ASN.1 tree that the DER bytes encode\n  @param derBytes the DER encoded certificate (although this should work with any ASN.1 DER encoded binary object)\n  @param pointer the place inthe DER bytes to start the decode from (usually zero)\n  */\n    function walkDerTree(\n        bytes calldata derBytes,\n        uint256 pointer,\n        uint256 tlvLength\n    ) internal pure returns (DecodedTlv[] memory) {\n        DecodedTlv memory tlv;\n        DecodedTlv[] memory tlvs = new DecodedTlv[](tlvLength);\n        uint256 depth = 0;\n        uint256 id = 0;\n        uint256[MAX_DEPTH] memory depthChangesAt;\n        do {\n            (tlv, pointer) = getNextTlv(derBytes, pointer, depth);\n            tlvs[id++] = tlv;\n            if (tlv.tag.isConstructed) {\n                depthChangesAt[depth] = pointer + tlv.length;\n                depth++;\n            }\n            for (uint256 i = 0; i < MAX_DEPTH; i++) {\n                if (pointer == depthChangesAt[i]) depth--;\n            }\n        } while (pointer < derBytes.length);\n        return (tlvs);\n    }\n\n    /*\n    This function is like walkDerTree but it doesn't store any tlvs. It can be used without gas cost\n    To compute the length of the tlv array (we could make a nodejs version of this in the future)\n    */\n    function computeNumberOfTlvs(bytes calldata derBytes, uint256 pointer)\n        external\n        pure\n        returns (uint256)\n    {\n        DecodedTlv memory tlv;\n        uint256 depth = 0;\n        uint256 id = 0;\n        uint256[MAX_DEPTH] memory depthChangesAt;\n        do {\n            (tlv, pointer) = getNextTlv(derBytes, pointer, depth);\n            id++;\n            if (tlv.tag.isConstructed) {\n                depthChangesAt[depth] = pointer + tlv.length;\n                depth++;\n            }\n            for (uint256 i = 0; i < MAX_DEPTH; i++) {\n                if (pointer == depthChangesAt[i]) depth--;\n            }\n        } while (pointer < derBytes.length);\n        return id;\n    }\n\n    /*\n  Parses the bytes DER encoded data and extracts the (possibly nested) TLV elements\n  as 'DecodedTlv[]'.\n  */\n    function parseDER(\n        bytes calldata derBytes,\n        uint256 pointer,\n        uint256 tlvLength\n    ) external pure returns (DecodedTlv[] memory) {\n        return walkDerTree(derBytes, pointer, tlvLength);\n    }\n}\n",
  "sourcePath": "/app/contracts/DerParser.sol",
  "compiler": {
    "name": "solc",
    "version": "0.8.17+commit.8df45f5f.Emscripten.clang"
  },
  "schemaVersion": "3.4.10",
  "updatedAt": "2022-12-20T19:46:31.381Z",
  "devdoc": {
    "kind": "dev",
    "methods": {},
    "version": 1
  },
  "userdoc": {
    "kind": "user",
    "methods": {},
    "version": 1
  }
}