{
  "contractName": "ERC721Mock",
  "abi": [
    {
      "inputs": [],
      "stateMutability": "nonpayable",
      "type": "constructor"
    },
    {
      "anonymous": false,
      "inputs": [
        {
          "indexed": true,
          "internalType": "address",
          "name": "owner",
          "type": "address"
        },
        {
          "indexed": true,
          "internalType": "address",
          "name": "approved",
          "type": "address"
        },
        {
          "indexed": true,
          "internalType": "uint256",
          "name": "tokenId",
          "type": "uint256"
        }
      ],
      "name": "Approval",
      "type": "event"
    },
    {
      "anonymous": false,
      "inputs": [
        {
          "indexed": true,
          "internalType": "address",
          "name": "owner",
          "type": "address"
        },
        {
          "indexed": true,
          "internalType": "address",
          "name": "operator",
          "type": "address"
        },
        {
          "indexed": false,
          "internalType": "bool",
          "name": "approved",
          "type": "bool"
        }
      ],
      "name": "ApprovalForAll",
      "type": "event"
    },
    {
      "anonymous": false,
      "inputs": [
        {
          "indexed": true,
          "internalType": "address",
          "name": "from",
          "type": "address"
        },
        {
          "indexed": true,
          "internalType": "address",
          "name": "to",
          "type": "address"
        },
        {
          "indexed": true,
          "internalType": "uint256",
          "name": "tokenId",
          "type": "uint256"
        }
      ],
      "name": "Transfer",
      "type": "event"
    },
    {
      "inputs": [
        {
          "internalType": "address",
          "name": "to",
          "type": "address"
        },
        {
          "internalType": "uint256",
          "name": "tokenId",
          "type": "uint256"
        }
      ],
      "name": "approve",
      "outputs": [],
      "stateMutability": "nonpayable",
      "type": "function"
    },
    {
      "inputs": [
        {
          "internalType": "address",
          "name": "owner",
          "type": "address"
        }
      ],
      "name": "balanceOf",
      "outputs": [
        {
          "internalType": "uint256",
          "name": "",
          "type": "uint256"
        }
      ],
      "stateMutability": "view",
      "type": "function"
    },
    {
      "inputs": [
        {
          "internalType": "uint256",
          "name": "tokenId",
          "type": "uint256"
        }
      ],
      "name": "getApproved",
      "outputs": [
        {
          "internalType": "address",
          "name": "",
          "type": "address"
        }
      ],
      "stateMutability": "view",
      "type": "function"
    },
    {
      "inputs": [
        {
          "internalType": "address",
          "name": "owner",
          "type": "address"
        },
        {
          "internalType": "address",
          "name": "operator",
          "type": "address"
        }
      ],
      "name": "isApprovedForAll",
      "outputs": [
        {
          "internalType": "bool",
          "name": "",
          "type": "bool"
        }
      ],
      "stateMutability": "view",
      "type": "function"
    },
    {
      "inputs": [],
      "name": "name",
      "outputs": [
        {
          "internalType": "string",
          "name": "",
          "type": "string"
        }
      ],
      "stateMutability": "view",
      "type": "function"
    },
    {
      "inputs": [
        {
          "internalType": "uint256",
          "name": "tokenId",
          "type": "uint256"
        }
      ],
      "name": "ownerOf",
      "outputs": [
        {
          "internalType": "address",
          "name": "",
          "type": "address"
        }
      ],
      "stateMutability": "view",
      "type": "function"
    },
    {
      "inputs": [
        {
          "internalType": "address",
          "name": "from",
          "type": "address"
        },
        {
          "internalType": "address",
          "name": "to",
          "type": "address"
        },
        {
          "internalType": "uint256",
          "name": "tokenId",
          "type": "uint256"
        }
      ],
      "name": "safeTransferFrom",
      "outputs": [],
      "stateMutability": "nonpayable",
      "type": "function"
    },
    {
      "inputs": [
        {
          "internalType": "address",
          "name": "from",
          "type": "address"
        },
        {
          "internalType": "address",
          "name": "to",
          "type": "address"
        },
        {
          "internalType": "uint256",
          "name": "tokenId",
          "type": "uint256"
        },
        {
          "internalType": "bytes",
          "name": "data",
          "type": "bytes"
        }
      ],
      "name": "safeTransferFrom",
      "outputs": [],
      "stateMutability": "nonpayable",
      "type": "function"
    },
    {
      "inputs": [
        {
          "internalType": "address",
          "name": "operator",
          "type": "address"
        },
        {
          "internalType": "bool",
          "name": "approved",
          "type": "bool"
        }
      ],
      "name": "setApprovalForAll",
      "outputs": [],
      "stateMutability": "nonpayable",
      "type": "function"
    },
    {
      "inputs": [
        {
          "internalType": "bytes4",
          "name": "interfaceId",
          "type": "bytes4"
        }
      ],
      "name": "supportsInterface",
      "outputs": [
        {
          "internalType": "bool",
          "name": "",
          "type": "bool"
        }
      ],
      "stateMutability": "view",
      "type": "function"
    },
    {
      "inputs": [],
      "name": "symbol",
      "outputs": [
        {
          "internalType": "string",
          "name": "",
          "type": "string"
        }
      ],
      "stateMutability": "view",
      "type": "function"
    },
    {
      "inputs": [
        {
          "internalType": "uint256",
          "name": "tokenId",
          "type": "uint256"
        }
      ],
      "name": "tokenURI",
      "outputs": [
        {
          "internalType": "string",
          "name": "",
          "type": "string"
        }
      ],
      "stateMutability": "view",
      "type": "function"
    },
    {
      "inputs": [
        {
          "internalType": "address",
          "name": "from",
          "type": "address"
        },
        {
          "internalType": "address",
          "name": "to",
          "type": "address"
        },
        {
          "internalType": "uint256",
          "name": "tokenId",
          "type": "uint256"
        }
      ],
      "name": "transferFrom",
      "outputs": [],
      "stateMutability": "nonpayable",
      "type": "function"
    },
    {
      "inputs": [
        {
          "internalType": "address",
          "name": "player",
          "type": "address"
        },
        {
          "internalType": "string",
          "name": "tokenURI",
          "type": "string"
        }
      ],
      "name": "awardItem",
      "outputs": [
        {
          "internalType": "uint256",
          "name": "",
          "type": "uint256"
        }
      ],
      "stateMutability": "nonpayable",
      "type": "function"
    }
  ],
  "bytecode": "0x60806040523480156200001157600080fd5b506040518060400160405280600a8152602001694552433732314d6f636b60b01b815250604051806040016040528060048152602001634537323160e01b815250816000908162000063919062000120565b50600162000072828262000120565b505050620001ec565b634e487b7160e01b600052604160045260246000fd5b600181811c90821680620000a657607f821691505b602082108103620000c757634e487b7160e01b600052602260045260246000fd5b50919050565b601f8211156200011b57600081815260208120601f850160051c81016020861015620000f65750805b601f850160051c820191505b81811015620001175782815560010162000102565b5050505b505050565b81516001600160401b038111156200013c576200013c6200007b565b62000154816200014d845462000091565b84620000cd565b602080601f8311600181146200018c5760008415620001735750858301515b600019600386901b1c1916600185901b17855562000117565b600085815260208120601f198616915b82811015620001bd578886015182559484019460019091019084016200019c565b5085821015620001dc5787850151600019600388901b60f8161c191681555b5050505050600190811b01905550565b61158180620001fc6000396000f3fe608060405234801561001057600080fd5b50600436106100ba5760003560e01c806301ffc9a7146100bf57806306fdde03146100e7578063081812fc146100fc578063095ea7b31461012757806323b872dd1461013c57806342842e0e1461014f5780636352211e1461016257806370a082311461017557806395d89b4114610196578063a22cb4651461019e578063b88d4fde146101b1578063c87b56dd146101c4578063cf378343146101d7578063e985e9c5146101ea575b600080fd5b6100d26100cd366004610ed4565b6101fd565b60405190151581526020015b60405180910390f35b6100ef61024f565b6040516100de9190610f41565b61010f61010a366004610f54565b6102e1565b6040516001600160a01b0390911681526020016100de565b61013a610135366004610f89565b610308565b005b61013a61014a366004610fb3565b610422565b61013a61015d366004610fb3565b610453565b61010f610170366004610f54565b61046e565b610188610183366004610fef565b6104a3565b6040519081526020016100de565b6100ef610529565b61013a6101ac36600461100a565b610538565b61013a6101bf3660046110d1565b610547565b6100ef6101d2366004610f54565b61057f565b6101886101e536600461114c565b61068f565b6100d26101f83660046111ad565b6106e0565b60006001600160e01b031982166380ac58cd60e01b148061022e57506001600160e01b03198216635b5e139f60e01b145b8061024957506301ffc9a760e01b6001600160e01b03198316145b92915050565b60606000805461025e906111e0565b80601f016020809104026020016040519081016040528092919081815260200182805461028a906111e0565b80156102d75780601f106102ac576101008083540402835291602001916102d7565b820191906000526020600020905b8154815290600101906020018083116102ba57829003601f168201915b5050505050905090565b60006102ec8261070e565b506000908152600460205260409020546001600160a01b031690565b60006103138261046e565b9050806001600160a01b0316836001600160a01b0316036103855760405162461bcd60e51b815260206004820152602160248201527f4552433732313a20617070726f76616c20746f2063757272656e74206f776e656044820152603960f91b60648201526084015b60405180910390fd5b336001600160a01b03821614806103a157506103a181336106e0565b6104135760405162461bcd60e51b815260206004820152603e60248201527f4552433732313a20617070726f76652063616c6c6572206973206e6f7420746f60448201527f6b656e206f776e6572206e6f7220617070726f76656420666f7220616c6c0000606482015260840161037c565b61041d8383610736565b505050565b61042c33826107a4565b6104485760405162461bcd60e51b815260040161037c9061121a565b61041d838383610802565b61041d83838360405180602001604052806000815250610547565b6000818152600260205260408120546001600160a01b0316806102495760405162461bcd60e51b815260040161037c90611268565b60006001600160a01b03821661050d5760405162461bcd60e51b815260206004820152602960248201527f4552433732313a2061646472657373207a65726f206973206e6f7420612076616044820152683634b21037bbb732b960b91b606482015260840161037c565b506001600160a01b031660009081526003602052604090205490565b60606001805461025e906111e0565b61054333838361098c565b5050565b61055133836107a4565b61056d5760405162461bcd60e51b815260040161037c9061121a565b61057984848484610a56565b50505050565b606061058a8261070e565b600082815260066020526040812080546105a3906111e0565b80601f01602080910402602001604051908101604052809291908181526020018280546105cf906111e0565b801561061c5780601f106105f15761010080835404028352916020019161061c565b820191906000526020600020905b8154815290600101906020018083116105ff57829003601f168201915b50505050509050600061063a60408051602081019091526000815290565b9050805160000361064c575092915050565b81511561067e57808260405160200161066692919061129a565b60405160208183030381529060405292505050919050565b61068784610a89565b949350505050565b600061069f600780546001019055565b60006106aa60075490565b6106b890600160fe1b6112df565b6106c39060016112df565b90506106cf8482610afc565b6106d98184610c1c565b9392505050565b6001600160a01b03918216600090815260056020908152604080832093909416825291909152205460ff1690565b61071781610ca0565b6107335760405162461bcd60e51b815260040161037c90611268565b50565b600081815260046020526040902080546001600160a01b0319166001600160a01b038416908117909155819061076b8261046e565b6001600160a01b03167f8c5be1e5ebec7d5bd14f71427d1e84f3dd0314c0f7b2291e5b200ac8c7c3b92560405160405180910390a45050565b6000806107b08361046e565b9050806001600160a01b0316846001600160a01b031614806107d757506107d781856106e0565b806106875750836001600160a01b03166107f0846102e1565b6001600160a01b031614949350505050565b826001600160a01b03166108158261046e565b6001600160a01b0316146108795760405162461bcd60e51b815260206004820152602560248201527f4552433732313a207472616e736665722066726f6d20696e636f72726563742060448201526437bbb732b960d91b606482015260840161037c565b6001600160a01b0382166108db5760405162461bcd60e51b8152602060048201526024808201527f4552433732313a207472616e7366657220746f20746865207a65726f206164646044820152637265737360e01b606482015260840161037c565b6108e6600082610736565b6001600160a01b038316600090815260036020526040812080546001929061090f9084906112f2565b90915550506001600160a01b038216600090815260036020526040812080546001929061093d9084906112df565b909155505060008181526002602052604080822080546001600160a01b0319166001600160a01b03868116918217909255915184939187169160008051602061152c83398151915291a4505050565b816001600160a01b0316836001600160a01b0316036109e95760405162461bcd60e51b815260206004820152601960248201527822a9219b99189d1030b8383937bb32903a379031b0b63632b960391b604482015260640161037c565b6001600160a01b03838116600081815260056020908152604080832094871680845294825291829020805460ff191686151590811790915591519182527f17307eab39ab6107e8899845ad3d59bd9653f200f220920489ca2b5937696c31910160405180910390a3505050565b610a61848484610802565b610a6d84848484610cbd565b6105795760405162461bcd60e51b815260040161037c90611305565b6060610a948261070e565b6000610aab60408051602081019091526000815290565b90506000815111610acb57604051806020016040528060008152506106d9565b80610ad584610dbe565b604051602001610ae692919061129a565b6040516020818303038152906040529392505050565b6001600160a01b038216610b525760405162461bcd60e51b815260206004820181905260248201527f4552433732313a206d696e7420746f20746865207a65726f2061646472657373604482015260640161037c565b610b5b81610ca0565b15610ba75760405162461bcd60e51b815260206004820152601c60248201527b115490cdcc8c4e881d1bdad95b88185b1c9958591e481b5a5b9d195960221b604482015260640161037c565b6001600160a01b0382166000908152600360205260408120805460019290610bd09084906112df565b909155505060008181526002602052604080822080546001600160a01b0319166001600160a01b038616908117909155905183929060008051602061152c833981519152908290a45050565b610c2582610ca0565b610c885760405162461bcd60e51b815260206004820152602e60248201527f45524337323155524953746f726167653a2055524920736574206f66206e6f6e60448201526d32bc34b9ba32b73a103a37b5b2b760911b606482015260840161037c565b600082815260066020526040902061041d82826113a5565b6000908152600260205260409020546001600160a01b0316151590565b60006001600160a01b0384163b15610db357604051630a85bd0160e11b81526001600160a01b0385169063150b7a0290610d01903390899088908890600401611464565b6020604051808303816000875af1925050508015610d3c575060408051601f3d908101601f19168201909252610d39918101906114a1565b60015b610d99573d808015610d6a576040519150601f19603f3d011682016040523d82523d6000602084013e610d6f565b606091505b508051600003610d915760405162461bcd60e51b815260040161037c90611305565b805181602001fd5b6001600160e01b031916630a85bd0160e11b149050610687565b506001949350505050565b606081600003610de55750506040805180820190915260018152600360fc1b602082015290565b8160005b8115610e0f5780610df9816114be565b9150610e089050600a836114ed565b9150610de9565b6000816001600160401b03811115610e2957610e29611046565b6040519080825280601f01601f191660200182016040528015610e53576020820181803683370190505b5090505b841561068757610e686001836112f2565b9150610e75600a86611501565b610e809060306112df565b60f81b818381518110610e9557610e95611515565b60200101906001600160f81b031916908160001a905350610eb7600a866114ed565b9450610e57565b6001600160e01b03198116811461073357600080fd5b600060208284031215610ee657600080fd5b81356106d981610ebe565b60005b83811015610f0c578181015183820152602001610ef4565b50506000910152565b60008151808452610f2d816020860160208601610ef1565b601f01601f19169290920160200192915050565b6020815260006106d96020830184610f15565b600060208284031215610f6657600080fd5b5035919050565b80356001600160a01b0381168114610f8457600080fd5b919050565b60008060408385031215610f9c57600080fd5b610fa583610f6d565b946020939093013593505050565b600080600060608486031215610fc857600080fd5b610fd184610f6d565b9250610fdf60208501610f6d565b9150604084013590509250925092565b60006020828403121561100157600080fd5b6106d982610f6d565b6000806040838503121561101d57600080fd5b61102683610f6d565b91506020830135801515811461103b57600080fd5b809150509250929050565b634e487b7160e01b600052604160045260246000fd5b60006001600160401b038084111561107657611076611046565b604051601f8501601f19908116603f0116810190828211818310171561109e5761109e611046565b816040528093508581528686860111156110b757600080fd5b858560208301376000602087830101525050509392505050565b600080600080608085870312156110e757600080fd5b6110f085610f6d565b93506110fe60208601610f6d565b92506040850135915060608501356001600160401b0381111561112057600080fd5b8501601f8101871361113157600080fd5b6111408782356020840161105c565b91505092959194509250565b6000806040838503121561115f57600080fd5b61116883610f6d565b915060208301356001600160401b0381111561118357600080fd5b8301601f8101851361119457600080fd5b6111a38582356020840161105c565b9150509250929050565b600080604083850312156111c057600080fd5b6111c983610f6d565b91506111d760208401610f6d565b90509250929050565b600181811c908216806111f457607f821691505b60208210810361121457634e487b7160e01b600052602260045260246000fd5b50919050565b6020808252602e908201527f4552433732313a2063616c6c6572206973206e6f7420746f6b656e206f776e6560408201526d1c881b9bdc88185c1c1c9bdd995960921b606082015260800190565b602080825260189082015277115490cdcc8c4e881a5b9d985b1a59081d1bdad95b88125160421b604082015260600190565b600083516112ac818460208801610ef1565b8351908301906112c0818360208801610ef1565b01949350505050565b634e487b7160e01b600052601160045260246000fd5b80820180821115610249576102496112c9565b81810381811115610249576102496112c9565b60208082526032908201527f4552433732313a207472616e7366657220746f206e6f6e20455243373231526560408201527131b2b4bb32b91034b6b83632b6b2b73a32b960711b606082015260800190565b601f82111561041d57600081815260208120601f850160051c8101602086101561137e5750805b601f850160051c820191505b8181101561139d5782815560010161138a565b505050505050565b81516001600160401b038111156113be576113be611046565b6113d2816113cc84546111e0565b84611357565b602080601f83116001811461140757600084156113ef5750858301515b600019600386901b1c1916600185901b17855561139d565b600085815260208120601f198616915b8281101561143657888601518255948401946001909101908401611417565b50858210156114545787850151600019600388901b60f8161c191681555b5050505050600190811b01905550565b6001600160a01b038581168252841660208201526040810183905260806060820181905260009061149790830184610f15565b9695505050505050565b6000602082840312156114b357600080fd5b81516106d981610ebe565b6000600182016114d0576114d06112c9565b5060010190565b634e487b7160e01b600052601260045260246000fd5b6000826114fc576114fc6114d7565b500490565b600082611510576115106114d7565b500690565b634e487b7160e01b600052603260045260246000fdfeddf252ad1be2c89b69c2b068fc378daa952ba7f163c4a11628f55a4df523b3efa2646970667358221220ab60b4a4caab99928ae45a060d928a1aaeed83290ddffa42d66152ccfba8fe5f64736f6c63430008110033",
  "immutableReferences": {},
  "source": "// SPDX-License-Identifier: MIT\npragma solidity ^0.8.0;\n\nimport \"@openzeppelin/contracts/token/ERC721/extensions/ERC721URIStorage.sol\";\nimport \"@openzeppelin/contracts/utils/Counters.sol\";\n\ncontract ERC721Mock is ERC721URIStorage {\n    using Counters for Counters.Counter;\n    Counters.Counter private _tokenIds;\n\n    constructor() ERC721(\"ERC721Mock\", \"E721\") {}\n\n    function awardItem(address player, string memory tokenURI)\n        public\n        returns (uint256)\n    {\n        _tokenIds.increment();\n\n        uint256 newItemId = _tokenIds.current() + 2**254 + 1;\n        _mint(player, newItemId);\n        _setTokenURI(newItemId, tokenURI);\n\n        return newItemId;\n    }\n}",
  "sourcePath": "/app/contracts/mocks/ERC721Mock.sol",
  "compiler": {
    "name": "solc",
    "version": "0.8.17+commit.8df45f5f.Emscripten.clang"
  },
  "schemaVersion": "3.4.10",
  "updatedAt": "2023-01-04T16:07:33.532Z",
  "networkType": "ethereum",
  "devdoc": {
    "kind": "dev",
    "methods": {
      "approve(address,uint256)": {
        "details": "See {IERC721-approve}."
      },
      "balanceOf(address)": {
        "details": "See {IERC721-balanceOf}."
      },
      "getApproved(uint256)": {
        "details": "See {IERC721-getApproved}."
      },
      "isApprovedForAll(address,address)": {
        "details": "See {IERC721-isApprovedForAll}."
      },
      "name()": {
        "details": "See {IERC721Metadata-name}."
      },
      "ownerOf(uint256)": {
        "details": "See {IERC721-ownerOf}."
      },
      "safeTransferFrom(address,address,uint256)": {
        "details": "See {IERC721-safeTransferFrom}."
      },
      "safeTransferFrom(address,address,uint256,bytes)": {
        "details": "See {IERC721-safeTransferFrom}."
      },
      "setApprovalForAll(address,bool)": {
        "details": "See {IERC721-setApprovalForAll}."
      },
      "supportsInterface(bytes4)": {
        "details": "See {IERC165-supportsInterface}."
      },
      "symbol()": {
        "details": "See {IERC721Metadata-symbol}."
      },
      "tokenURI(uint256)": {
        "details": "See {IERC721Metadata-tokenURI}."
      },
      "transferFrom(address,address,uint256)": {
        "details": "See {IERC721-transferFrom}."
      }
    },
    "version": 1
  },
  "userdoc": {
    "kind": "user",
    "methods": {},
    "version": 1
  }
}