{
  "contractName": "Key_Registry",
  "abi": [
    {
      "inputs": [
        {
          "internalType": "bytes32",
          "name": "commitmentHash",
          "type": "bytes32"
        }
      ],
      "name": "CommitmentNotEscrowed",
      "type": "error"
    },
    {
      "inputs": [],
      "name": "InvalidBlockSize",
      "type": "error"
    },
    {
      "inputs": [],
      "name": "InvalidTransactionHash",
      "type": "error"
    },
    {
      "inputs": [],
      "name": "InvalidTransactionSize",
      "type": "error"
    },
    {
      "anonymous": false,
      "inputs": [],
      "name": "BlockProposed",
      "type": "event"
    },
    {
      "anonymous": false,
      "inputs": [
        {
          "indexed": false,
          "internalType": "bytes32",
          "name": "commitHash",
          "type": "bytes32"
        },
        {
          "indexed": false,
          "internalType": "address",
          "name": "sender",
          "type": "address"
        }
      ],
      "name": "CommittedToChallenge",
      "type": "event"
    },
    {
      "anonymous": false,
      "inputs": [
        {
          "indexed": false,
          "internalType": "uint8",
          "name": "version",
          "type": "uint8"
        }
      ],
      "name": "Initialized",
      "type": "event"
    },
    {
      "anonymous": false,
      "inputs": [
        {
          "indexed": false,
          "internalType": "bytes32",
          "name": "withdrawTransactionHash",
          "type": "bytes32"
        },
        {
          "indexed": false,
          "internalType": "address",
          "name": "paidBy",
          "type": "address"
        },
        {
          "indexed": false,
          "internalType": "uint256",
          "name": "amount",
          "type": "uint256"
        }
      ],
      "name": "InstantWithdrawalRequested",
      "type": "event"
    },
    {
      "anonymous": false,
      "inputs": [
        {
          "indexed": false,
          "internalType": "address",
          "name": "addr",
          "type": "address"
        }
      ],
      "name": "NewBootChallengerSet",
      "type": "event"
    },
    {
      "anonymous": false,
      "inputs": [
        {
          "indexed": false,
          "internalType": "address",
          "name": "addr",
          "type": "address"
        }
      ],
      "name": "NewBootProposerSet",
      "type": "event"
    },
    {
      "anonymous": false,
      "inputs": [
        {
          "indexed": false,
          "internalType": "address",
          "name": "proposer",
          "type": "address"
        }
      ],
      "name": "NewCurrentProposer",
      "type": "event"
    },
    {
      "anonymous": false,
      "inputs": [
        {
          "indexed": false,
          "internalType": "uint256",
          "name": "leafIndex",
          "type": "uint256"
        },
        {
          "indexed": false,
          "internalType": "bytes32",
          "name": "leafValue",
          "type": "bytes32"
        },
        {
          "indexed": false,
          "internalType": "bytes32",
          "name": "root",
          "type": "bytes32"
        }
      ],
      "name": "NewLeaf",
      "type": "event"
    },
    {
      "anonymous": false,
      "inputs": [
        {
          "indexed": false,
          "internalType": "uint256",
          "name": "minLeafIndex",
          "type": "uint256"
        },
        {
          "indexed": false,
          "internalType": "bytes32[]",
          "name": "leafValues",
          "type": "bytes32[]"
        },
        {
          "indexed": false,
          "internalType": "bytes32",
          "name": "root",
          "type": "bytes32"
        }
      ],
      "name": "NewLeaves",
      "type": "event"
    },
    {
      "anonymous": false,
      "inputs": [
        {
          "indexed": false,
          "internalType": "address",
          "name": "previousOwner",
          "type": "address"
        },
        {
          "indexed": false,
          "internalType": "address",
          "name": "newOwner",
          "type": "address"
        }
      ],
      "name": "OwnershipTransferred",
      "type": "event"
    },
    {
      "anonymous": false,
      "inputs": [
        {
          "indexed": false,
          "internalType": "uint64",
          "name": "blockNumberL2",
          "type": "uint64"
        }
      ],
      "name": "Rollback",
      "type": "event"
    },
    {
      "anonymous": false,
      "inputs": [
        {
          "indexed": false,
          "internalType": "address",
          "name": "ercAddress",
          "type": "address"
        },
        {
          "indexed": false,
          "internalType": "uint256",
          "name": "amount",
          "type": "uint256"
        }
      ],
      "name": "ShieldBalanceTransferred",
      "type": "event"
    },
    {
      "anonymous": false,
      "inputs": [],
      "name": "TransactionSubmitted",
      "type": "event"
    },
    {
      "anonymous": false,
      "inputs": [
        {
          "indexed": false,
          "internalType": "uint40",
          "name": "circuitHash",
          "type": "uint40"
        }
      ],
      "name": "VkChanged",
      "type": "event"
    },
    {
      "inputs": [],
      "name": "_owner",
      "outputs": [
        {
          "internalType": "address",
          "name": "",
          "type": "address"
        }
      ],
      "stateMutability": "view",
      "type": "function"
    },
    {
      "inputs": [
        {
          "internalType": "uint40",
          "name": "",
          "type": "uint40"
        }
      ],
      "name": "circuitInfo",
      "outputs": [
        {
          "internalType": "bool",
          "name": "isWithdrawing",
          "type": "bool"
        },
        {
          "internalType": "bool",
          "name": "isEscrowRequired",
          "type": "bool"
        }
      ],
      "stateMutability": "view",
      "type": "function"
    },
    {
      "inputs": [],
      "name": "owner",
      "outputs": [
        {
          "internalType": "address",
          "name": "",
          "type": "address"
        }
      ],
      "stateMutability": "view",
      "type": "function"
    },
    {
      "inputs": [
        {
          "internalType": "address",
          "name": "newOwner",
          "type": "address"
        }
      ],
      "name": "transferOwnership",
      "outputs": [],
      "stateMutability": "nonpayable",
      "type": "function"
    },
    {
      "inputs": [
        {
          "internalType": "uint40",
          "name": "",
          "type": "uint40"
        },
        {
          "internalType": "uint256",
          "name": "",
          "type": "uint256"
        }
      ],
      "name": "verificationKey",
      "outputs": [
        {
          "internalType": "uint256",
          "name": "",
          "type": "uint256"
        }
      ],
      "stateMutability": "view",
      "type": "function"
    },
    {
      "inputs": [],
      "name": "initialize",
      "outputs": [],
      "stateMutability": "nonpayable",
      "type": "function"
    },
    {
      "inputs": [
        {
          "internalType": "uint40",
          "name": "_circuitHash",
          "type": "uint40"
        },
        {
          "internalType": "uint256[]",
          "name": "_vk",
          "type": "uint256[]"
        },
        {
          "internalType": "bool",
          "name": "isEscrowRequired",
          "type": "bool"
        },
        {
          "internalType": "bool",
          "name": "isWithdrawing",
          "type": "bool"
        }
      ],
      "name": "registerVerificationKey",
      "outputs": [],
      "stateMutability": "nonpayable",
      "type": "function"
    },
    {
      "inputs": [
        {
          "internalType": "uint40",
          "name": "circuitHash",
          "type": "uint40"
        }
      ],
      "name": "getVerificationKey",
      "outputs": [
        {
          "internalType": "uint256[]",
          "name": "",
          "type": "uint256[]"
        }
      ],
      "stateMutability": "view",
      "type": "function"
    },
    {
      "inputs": [
        {
          "internalType": "uint40",
          "name": "circuitHash",
          "type": "uint40"
        }
      ],
      "name": "getCircuitInfo",
      "outputs": [
        {
          "components": [
            {
              "internalType": "bool",
              "name": "isWithdrawing",
              "type": "bool"
            },
            {
              "internalType": "bool",
              "name": "isEscrowRequired",
              "type": "bool"
            }
          ],
          "internalType": "struct Structures.CircuitInfo",
          "name": "",
          "type": "tuple"
        }
      ],
      "stateMutability": "view",
      "type": "function"
    },
    {
      "inputs": [
        {
          "internalType": "uint40",
          "name": "circuitHash",
          "type": "uint40"
        }
      ],
      "name": "deleteVerificationKey",
      "outputs": [],
      "stateMutability": "nonpayable",
      "type": "function"
    }
  ],
  "bytecode": "0x608060405234801561001057600080fd5b50610810806100206000396000f3fe608060405234801561001057600080fd5b506004361061008e5760003560e01c8063262f6085146100935780632bec09be1461011557806337da88771461012a57806379edadfe1461013d5780638129fc1c146101805780638da5cb5b14610188578063ac622cdc146101a8578063b2bdfa7b146101c9578063f2fde38b146101e2578063f5a6b995146101f5575b600080fd5b6100f16100a13660046105d1565b60408051808201909152600080825260208201525064ffffffffff1660009081526002602090815260409182902082518084019093525460ff808216151584526101009091041615159082015290565b60408051825115158152602092830151151592810192909252015b60405180910390f35b610128610123366004610603565b610215565b005b6101286101383660046105d1565b6102e2565b61016961014b3660046105d1565b60026020526000908152604090205460ff8082169161010090041682565b60408051921515835290151560208301520161010c565b610128610359565b61019061038a565b6040516001600160a01b03909116815260200161010c565b6101bb6101b63660046106aa565b61039f565b60405190815260200161010c565b600054610190906201000090046001600160a01b031681565b6101286101f03660046106d4565b6103d0565b6102086102033660046105d1565b61048e565b60405161010c91906106fd565b61021d61038a565b6001600160a01b0316336001600160a01b0316146102565760405162461bcd60e51b815260040161024d90610741565b60405180910390fd5b64ffffffffff8516600090815260016020526040902061027790858561053d565b5064ffffffffff8516600081815260026020908152604091829020805461ffff19166101008715150260ff19161785151517905590519182527f679dd26628f18acc43c1e591d0ddc4cbbbd57605f0f97cc36bb476d8cffdcbb7910160405180910390a15050505050565b6102ea61038a565b6001600160a01b0316336001600160a01b03161461031a5760405162461bcd60e51b815260040161024d90610741565b64ffffffffff8116600090815260016020526040812061033991610588565b64ffffffffff166000908152600260205260409020805461ffff19169055565b600054610100900460ff166103805760405162461bcd60e51b815260040161024d9061078f565b6103886104f8565b565b6000546201000090046001600160a01b031690565b600160205281600052604060002081815481106103bb57600080fd5b90600052602060002001600091509150505481565b6103d861038a565b6001600160a01b0316336001600160a01b0316146104085760405162461bcd60e51b815260040161024d90610741565b6001600160a01b03811661041b57600080fd5b7f8be0079c531659141344cd1fd0a4f28419497f9722a3daafe3b4186f6b6457e061044461038a565b604080516001600160a01b03928316815291841660208301520160405180910390a16000805462010000600160b01b031916620100006001600160a01b0384160217905550565b50565b64ffffffffff81166000908152600160209081526040918290208054835181840281018401909452808452606093928301828280156104ec57602002820191906000526020600020905b8154815260200190600101908083116104d8575b50505050509050919050565b600054610100900460ff1661051f5760405162461bcd60e51b815260040161024d9061078f565b6000805462010000600160b01b031916620100003302179055610388565b828054828255906000526020600020908101928215610578579160200282015b8281111561057857823582559160200191906001019061055d565b506105849291506105a2565b5090565b508054600082559060005260206000209081019061048b91905b5b8082111561058457600081556001016105a3565b803564ffffffffff811681146105cc57600080fd5b919050565b6000602082840312156105e357600080fd5b6105ec826105b7565b9392505050565b803580151581146105cc57600080fd5b60008060008060006080868803121561061b57600080fd5b610624866105b7565b945060208601356001600160401b038082111561064057600080fd5b818801915088601f83011261065457600080fd5b81358181111561066357600080fd5b8960208260051b850101111561067857600080fd5b602083019650809550505050610690604087016105f3565b915061069e606087016105f3565b90509295509295909350565b600080604083850312156106bd57600080fd5b6106c6836105b7565b946020939093013593505050565b6000602082840312156106e657600080fd5b81356001600160a01b03811681146105ec57600080fd5b6020808252825182820181905260009190848201906040850190845b8181101561073557835183529284019291840191600101610719565b50909695505050505050565b6020808252602e908201527f596f7520617265206e6f7420617574686f726973656420746f20696e766f6b6560408201526d103a3434b990333ab731ba34b7b760911b606082015260800190565b6020808252602b908201527f496e697469616c697a61626c653a20636f6e7472616374206973206e6f74206960408201526a6e697469616c697a696e6760a81b60608201526080019056fea2646970667358221220b48694bfa6cade182091b5c5d95bad9b3bba3bfb1c0bac7c3e85ebcae1fe0fe864736f6c63430008110033",
  "immutableReferences": {},
  "source": "// SPDX-License-Identifier: CC0\n// Module for registering verification keys\npragma solidity ^0.8.0;\n\nimport './Structures.sol';\nimport './Ownable.sol';\n\ncontract Key_Registry is Ownable, Structures {\n    event VkChanged(uint40 circuitHash);\n\n    mapping(uint40 => uint256[]) public verificationKey;\n    mapping(uint40 => CircuitInfo) public circuitInfo;\n\n    function initialize() public virtual override onlyInitializing {\n        Ownable.initialize();\n    }\n\n    /**\n  Stores verification keys (for the 'deposit', 'depositFee', 'transfer', 'withdraw', 'tokenise' and 'burn' computations).\n  */\n    function registerVerificationKey(\n        uint40 _circuitHash,\n        uint256[] calldata _vk,\n        bool isEscrowRequired,\n        bool isWithdrawing\n    ) external onlyOwner {\n        // CAUTION: we do not prevent overwrites of vk's. Users must listen for the emitted event to detect updates to a vk.\n        verificationKey[_circuitHash] = _vk;\n        circuitInfo[_circuitHash].isEscrowRequired = isEscrowRequired;\n        circuitInfo[_circuitHash].isWithdrawing = isWithdrawing;\n        emit VkChanged(_circuitHash);\n    }\n\n    function getVerificationKey(uint40 circuitHash) public view returns (uint256[] memory) {\n        return verificationKey[circuitHash];\n    }\n\n    function getCircuitInfo(uint40 circuitHash) public view returns (CircuitInfo memory) {\n        return circuitInfo[circuitHash];\n    }\n\n    function deleteVerificationKey(uint40 circuitHash) external onlyOwner {\n        delete verificationKey[circuitHash];\n        delete circuitInfo[circuitHash];\n    }\n}\n",
  "sourcePath": "/app/contracts/Key_Registry.sol",
  "compiler": {
    "name": "solc",
    "version": "0.8.17+commit.8df45f5f.Emscripten.clang"
  },
  "schemaVersion": "3.4.10",
  "updatedAt": "2023-01-04T16:02:55.673Z",
  "devdoc": {
    "kind": "dev",
    "methods": {
      "initialize()": {
        "details": "The constructor sets the original owner of the contract to the sender account."
      },
      "owner()": {
        "details": "Tells the address of the owner",
        "returns": {
          "_0": "the address of the owner"
        }
      },
      "transferOwnership(address)": {
        "details": "Allows the current owner to transfer control of the contract to a newOwner.",
        "params": {
          "newOwner": "The address to transfer ownership to."
        }
      }
    },
    "version": 1
  },
  "userdoc": {
    "events": {
      "NewLeaf(uint256,bytes32,bytes32)": {
        "notice": "These events are what the merkle-tree microservice's filters will listen for."
      }
    },
    "kind": "user",
    "methods": {
      "registerVerificationKey(uint40,uint256[],bool,bool)": {
        "notice": "Stores verification keys (for the 'deposit', 'depositFee', 'transfer', 'withdraw', 'tokenise' and 'burn' computations)."
      }
    },
    "version": 1
  }
}