{
  "contractName": "Ownable",
  "abi": [
    {
      "anonymous": false,
      "inputs": [
        {
          "indexed": false,
          "internalType": "uint8",
          "name": "version",
          "type": "uint8"
        }
      ],
      "name": "Initialized",
      "type": "event"
    },
    {
      "anonymous": false,
      "inputs": [
        {
          "indexed": false,
          "internalType": "address",
          "name": "previousOwner",
          "type": "address"
        },
        {
          "indexed": false,
          "internalType": "address",
          "name": "newOwner",
          "type": "address"
        }
      ],
      "name": "OwnershipTransferred",
      "type": "event"
    },
    {
      "inputs": [],
      "name": "_owner",
      "outputs": [
        {
          "internalType": "address",
          "name": "",
          "type": "address"
        }
      ],
      "stateMutability": "view",
      "type": "function"
    },
    {
      "inputs": [],
      "name": "initialize",
      "outputs": [],
      "stateMutability": "nonpayable",
      "type": "function"
    },
    {
      "inputs": [],
      "name": "owner",
      "outputs": [
        {
          "internalType": "address",
          "name": "",
          "type": "address"
        }
      ],
      "stateMutability": "view",
      "type": "function"
    },
    {
      "inputs": [
        {
          "internalType": "address",
          "name": "newOwner",
          "type": "address"
        }
      ],
      "name": "transferOwnership",
      "outputs": [],
      "stateMutability": "nonpayable",
      "type": "function"
    }
  ],
  "bytecode": "0x608060405234801561001057600080fd5b506102b4806100206000396000f3fe608060405234801561001057600080fd5b506004361061004c5760003560e01c80638129fc1c146100515780638da5cb5b1461005b578063b2bdfa7b1461007f578063f2fde38b14610098575b600080fd5b6100596100ab565b005b610063610126565b6040516001600160a01b03909116815260200160405180910390f35b600054610063906201000090046001600160a01b031681565b6100596100a636600461024e565b61013b565b600054610100900460ff1661011b5760405162461bcd60e51b815260206004820152602b60248201527f496e697469616c697a61626c653a20636f6e7472616374206973206e6f74206960448201526a6e697469616c697a696e6760a81b60648201526084015b60405180910390fd5b61012433610224565b565b6000546201000090046001600160a01b031690565b610143610126565b6001600160a01b0316336001600160a01b0316146101ba5760405162461bcd60e51b815260206004820152602e60248201527f596f7520617265206e6f7420617574686f726973656420746f20696e766f6b6560448201526d103a3434b990333ab731ba34b7b760911b6064820152608401610112565b6001600160a01b0381166101cd57600080fd5b7f8be0079c531659141344cd1fd0a4f28419497f9722a3daafe3b4186f6b6457e06101f6610126565b604080516001600160a01b03928316815291841660208301520160405180910390a161022181610224565b50565b600080546001600160a01b03909216620100000262010000600160b01b0319909216919091179055565b60006020828403121561026057600080fd5b81356001600160a01b038116811461027757600080fd5b939250505056fea264697066735822122068dda3d1a1e78740e1f6fd73708cfaf56dbd8596f2d6076a1c0b75f8e4383a4464736f6c63430008110033",
  "immutableReferences": {},
  "source": "// SPDX-License-Identifier: CC0-1.0\n\npragma solidity ^0.8.0;\n\nimport \"@openzeppelin/contracts-upgradeable/proxy/utils/Initializable.sol\";\n\n/**\n * @title Ownable\n * @dev This contract has the owner address providing basic authorization control\n */\ncontract Ownable is Initializable {\n  /**\n   * @dev Event to show ownership has been transferred\n   * @param previousOwner representing the address of the previous owner\n   * @param newOwner representing the address of the new owner\n   */\n  event OwnershipTransferred(address previousOwner, address newOwner);\n\n  // Owner of the contract\n  address public _owner;\n\n  /**\n   * @dev Throws if called by any account other than the owner.\n   */\n  modifier onlyOwner() {\n    require(msg.sender == owner(), \"You are not authorised to invoke this function\");\n    _;\n  }\n\n  /**\n   * @dev The constructor sets the original owner of the contract to the sender account.\n   */\n  function initialize() virtual public onlyInitializing {\n    setOwner(msg.sender);\n  }\n\n  /**\n   * @dev Tells the address of the owner\n   * @return the address of the owner\n   */\n  function owner() public view returns (address) {\n    return _owner;\n  }\n\n  /**\n   * @dev Sets a new owner address\n   */\n  function setOwner(address newOwner) internal {\n    _owner = newOwner;\n  }\n\n  /**\n   * @dev Allows the current owner to transfer control of the contract to a newOwner.\n   * @param newOwner The address to transfer ownership to.\n   */\n  function transferOwnership(address newOwner) public onlyOwner {\n    require(newOwner != address(0));\n    emit OwnershipTransferred(owner(), newOwner);\n    setOwner(newOwner);\n  }\n}\n",
  "sourcePath": "/app/contracts/Ownable.sol",
  "compiler": {
    "name": "solc",
    "version": "0.8.17+commit.8df45f5f.Emscripten.clang"
  },
  "schemaVersion": "3.4.10",
  "updatedAt": "2022-12-17T07:51:37.727Z",
  "devdoc": {
    "details": "This contract has the owner address providing basic authorization control",
    "events": {
      "OwnershipTransferred(address,address)": {
        "details": "Event to show ownership has been transferred",
        "params": {
          "newOwner": "representing the address of the new owner",
          "previousOwner": "representing the address of the previous owner"
        }
      }
    },
    "kind": "dev",
    "methods": {
      "initialize()": {
        "details": "The constructor sets the original owner of the contract to the sender account."
      },
      "owner()": {
        "details": "Tells the address of the owner",
        "returns": {
          "_0": "the address of the owner"
        }
      },
      "transferOwnership(address)": {
        "details": "Allows the current owner to transfer control of the contract to a newOwner.",
        "params": {
          "newOwner": "The address to transfer ownership to."
        }
      }
    },
    "title": "Ownable",
    "version": 1
  },
  "userdoc": {
    "kind": "user",
    "methods": {},
    "version": 1
  }
}