{
  "contractName": "Poseidon",
  "abi": [
    {
      "inputs": [
        {
          "internalType": "uint256",
          "name": "t1",
          "type": "uint256"
        },
        {
          "internalType": "uint256",
          "name": "t2",
          "type": "uint256"
        }
      ],
      "name": "poseidon",
      "outputs": [
        {
          "internalType": "uint256",
          "name": "t0",
          "type": "uint256"
        }
      ],
      "stateMutability": "pure",
      "type": "function",
      "constant": true
    }
  ],
  "bytecode": "0x61282f61003a600b82828239805160001a60731461002d57634e487b7160e01b600052600060045260246000fd5b30600052607381538281f3fe73000000000000000000000000000000000000000030146080604052600436106100355760003560e01c8063553e2c311461003a575b600080fd5b61004d610048366004612757565b61005f565b60405190815260200160405180910390f35b600060008051602061279a833981519152610221565b600080600060008051602061279a833981519152806000805160206127ba833981519152880960008051602061279a8339815191528060008051602061277a833981519152890960008051602061279a8339815191526000805160206127da83398151915289090808925060008051602061279a833981519152807f101071f0032379b697315876690f053d148d4e109f5fb065c8aacc55a0f89bfa880960008051602061279a833981519152807f2e2419f9ec02ec394c9871c832963dc1b89d743c8c7b964029b2311687b1fe23890960008051602061279a8339815191527f2969f27eed31a480b9c36c764379dbca2cc8fdd1415c3dded62940bcde0bd77189090808915060008051602061279a833981519152807f19a3fc0a56702bf417ba7fee3802593fa644470307043f7773279cd71d25d5e0880960008051602061279a833981519152807f176cc029695ad02582a70eff08a6fd99d057e12e58e7d7b6b16cdfabc8ee2911890960008051602061279a8339815191527f143021ec686a3f330d5f9e654638065ce6cd79e28c5b3753326244ee65a1b1a789090808905093509350939050565b807f0ee9a592ba9a9518d05986d656f40c2114c4993c11bb29938d21d47304cd8e6e83089150807ef1445235f2148c5986587169fc1bcd887b08d4d00868df5696fff40956e86485089350807f08dff3487e8ac99e1f29a058d0fa80b930c728730b7ab36ce879f3890ecf73f5840892508082830981858609828586096102bb8485838409880985868586098a0986878788098909610075565b975097509450837f2f27be690fdaee46c3ce28f7532b13c856c35342c84bda6e20966310fadc01d086089450837f2b2ae1acf68b7b8d2416bebf3d4f6234b763fe04b8043ee48b8327bebca16cf288089650837f0319d062072bef7ecca5eac06f97d4d55952c175ab6b03eae64b44c7dbf11cfa870895508385860992508387880991508386870990506103628485838409880985868586098a0986878788098909610075565b975097509450837f28813dcaebaeaa828a376df87af4a63bc8b7bf27ad49c6298ef7b387bf28526d86089450837f2727673b2ccbc903f181bf38e1c1d40d2033865200c352bc150928adddf9cb7888089650837f234ec45ca27727c2e74abd2b2a1494cd6efbd43e340587d6b8fb9e31e65cc632870895508385860992508387880991508386870990506104098485838409880985868586098a0986878788098909610075565b975097509450837f15b52534031ae18f7f862cb2cf7cf760ab10a8150a337b1ccd99ff6e8797d42886089450837f0dc8fad6d9e4b35f5ed9a3d186b79ce38e0e8a8d1b58b132d701d4eecf68d1f688089650837f1bcd95ffc211fbca600f705fad3fb567ea4eb378f62e1fec97805518a47e4d9c870895508385860992508387880991508386870990506104b08485838409880985868586098a0986878788098909610075565b975097509450837f10520b0ab721cadfe9eff81b016fc34dc76da36c2578937817cb978d069de55986089450837f1f6d48149b8e7f7d9b257d8ed5fbbaf42932498075fed0ace88a9eb81f5627f688089650837f1d9655f652309014d29e00ef35a2089bfff8dc1c816f0dc9ca34bdb5460c87058708955083858609925061053f868886878788098909610075565b975097509450837f04df5a56ff95bcafb051f7b1cd43a99ba731ff67e47032058fe3d4185697cc7d86089450837f0672d995f8fff640151b3d290cedaf148690a10a8c8424a7f6ec282b6e4be82888089650837f099952b414884454b21200d7ffafdd5f0c9a9dcc06f2708e9fc1d8209b5c75b9870895508385860992506105ce868886878788098909610075565b975097509450837f052cba2255dfd00c7c483143ba8d469448e43586a9b4cd9183fd0e843a6b9fa686089450837f0b8badee690adb8eb0bd74712b7999af82de55707251ad7716077cb93c464ddc88089650837f119b1590f13307af5a1ee651020c07c749c15d60683a8050b963d0a8e4b2bdd18708955083858609925061065d868886878788098909610075565b975097509450837f03150b7cd6d5d17b2529d36be0f67b832c4acfc884ef4ee5ce15be0bfb4a8d0986089450837f2cc6182c5e14546e3cf1951f173912355374efb83d80898abe69cb317c9ea56588089650837e5032551e6378c450cfe129a404b3764218cadedac14e2b92d2cd73111bf0f9870895508385860992506106eb868886878788098909610075565b975097509450837f233237e3289baa34bb147e972ebcb9516469c399fcc069fb88f9da2cc28276b586089450837f05c8f4f4ebd4a6e3c980d31674bfbe6323037f21b34ae5a4e80c2d4c24d6028088089650837f0a7b1db13042d396ba05d818a319f25252bcf35ef3aeed91ee1f09b2590fc65b8708955083858609925061077a868886878788098909610075565b975097509450837f2a73b71f9b210cf5b14296572c9d32dbf156e2b086ff47dc5df542365a404ec086089450837f1ac9b0417abcc9a1935107e9ffc91dc3ec18f2c4dbe7f22976a760bb5c50c46088089650837f12c0339ae08374823fabb076707ef479269f3e4d6cb104349015ee046dc93fc087089550838586099250610809868886878788098909610075565b975097509450837f0b7475b102a165ad7f5b18db4e1e704f52900aa3253baac68246682e56e9a28e86089450837f037c2849e191ca3edb1c5e49f6e8b8917c843e379366f2ea32ab3aa88d7f844888089650837f05a6811f8556f014e92674661e217e9bd5206c5c93a07dc145fdb176a716346f87089550838586099250610898868886878788098909610075565b975097509450837f29a795e7d98028946e947b75d54e9f044076e87a7b2883b47b675ef5f38bd66e86089450837f20439a0c84b322eb45a3857afc18f5826e8c7382c8a1585c507be199981fd22f88089650837f2e0ba8d94d9ecf4a94ec2050c7371ff1bb50f27799a84b6d4a2a6f2a0982c88787089550838586099250610927868886878788098909610075565b975097509450837f143fd115ce08fb27ca38eb7cce822b4517822cd2109048d2e6d0ddcca17d71c886089450837f0c64cbecb1c734b857968dbbdcf813cdf8611659323dbcbfc84323623be9caf188089650837f028a305847c683f646fca925c163ff5ae74f348d62c2b670f1426cef9403da53870895508385860992506109b6868886878788098909610075565b975097509450837f2e4ef510ff0b6fda5fa940ab4c4380f26a6bcb64d89427b824d6755b5db9e30c86089450837e81c95bc43384e663d79270c956ce3b8925b4f6d033b078b96384f50579400e88089650837f2ed5f0c91cbd9749187e2fade687e05ee2491b349c039a0bba8a9f4023a0bb3887089550838586099250610a44868886878788098909610075565b975097509450837f30509991f88da3504bbf374ed5aae2f03448a22c76234c8c990f01f33a73520686089450837f1c3f20fd55409a53221b7c4d49a356b9f0a1119fb2067b41a7529094424ec6ad88089650837f10b4e7f3ab5df003049514459b6e18eec46bb2213e8e131e170887b47ddcb96c87089550838586099250610ad3868886878788098909610075565b975097509450837f2a1982979c3ff7f43ddd543d891c2abddd80f804c077d775039aa3502e43adef86089450837f1c74ee64f15e1db6feddbead56d6d55dba431ebc396c9af95cad0f1315bd5c9188089650837f07533ec850ba7f98eab9303cace01b4b9e4f2e8b82708cfa9c2fe45a0ae146a087089550838586099250610b62868886878788098909610075565b975097509450837f21576b438e500449a151e4eeaf17b154285c68f42d42c1808a11abf3764c075086089450837f2f17c0559b8fe79608ad5ca193d62f10bce8384c815f0906743d6930836d4a9e88089650837f2d477e3862d07708a79e8aae946170bc9775a4201318474ae665b0b1b7e2730e87089550838586099250610bf1868886878788098909610075565b975097509450837f162f5243967064c390e095577984f291afba2266c38f5abcd89be0f5b2747eab86089450837f2b4cb233ede9ba48264ecd2c8ae50d1ad7a8596a87f29f8a7777a7009239331188089650837f2c8fbcb2dd8573dc1dbaf8f4622854776db2eece6d85c4cf4254e7c35e03b07a87089550838586099250610c80868886878788098909610075565b975097509450837f1d6f347725e4816af2ff453f0cd56b199e1b61e9f601e9ade5e88db870949da986089450837f204b0c397f4ebe71ebc2d8b3df5b913df9e6ac02b68d31324cd49af5c456552988089650837f0c4cb9dc3c4fd8174f1149b3c63c3c2f9ecb827cd7dc25534ff8fb75bc79c50287089550838586099250610d0f868886878788098909610075565b975097509450837f174ad61a1448c899a25416474f4930301e5c49475279e0639a616ddc45bc7b5486089450837f1a96177bcf4d8d89f759df4ec2f3cde2eaaa28c177cc0fa13a9816d49a38d2ef88089650837f066d04b24331d71cd0ef8054bc60c4ff05202c126a233c1a8242ace360b8a30a87089550838586099250610d9e868886878788098909610075565b975097509450837f2a4c4fc6ec0b0cf52195782871c6dd3b381cc65f72e02ad527037a62aa1bd80486089450837f13ab2d136ccf37d447e9f2e14a7cedc95e727f8446f6d9d7e55afc01219fd64988089650837f1121552fca26061619d24d843dc82769c1b04fcec26f55194c2e3e869acc6a9a87089550838586099250610e2d868886878788098909610075565b975097509450837eef653322b13d6c889bc81715c37d77a6cd267d595c4a8909a5546c7c97cff186089450837f0e25483e45a665208b261d8ba74051e6400c776d652595d9845aca35d8a397d388089650837f29f536dcb9dd7682245264659e15d88e395ac3d4dde92d8c46448db979eeba8987089550838586099250610ebb868886878788098909610075565b975097509450837f2a56ef9f2c53febadfda33575dbdbd885a124e2780bbea170e456baace0fa5be86089450837f1c8361c78eb5cf5decfb7a2d17b5c409f2ae2999a46762e8ee416240a8cb9af188089650837f151aff5f38b20a0fc0473089aaf0206b83e8e68a764507bfd3d0ab4be74319c587089550838586099250610f4a868886878788098909610075565b975097509450837f04c6187e41ed881dc1b239c88f7f9d43a9f52fc8c8b6cdd1e76e47615b51f10086089450837f13b37bd80f4d27fb10d84331f6fb6d534b81c61ed15776449e801b7ddc9c296788089650837f01a5c536273c2d9df578bfbd32c17b7a2ce3664c2a52032c9321ceb1c4e8a8e487089550838586099250610fd9868886878788098909610075565b975097509450837f2ab3561834ca73835ad05f5d7acb950b4a9a2c666b9726da832239065b7c3b0286089450837f1d4d8ec291e720db200fe6d686c0d613acaf6af4e95d3bf69f7ed516a597b64688089650837f041294d2cc484d228f5784fe7919fd2bb925351240a04b711514c9c80b65af1d87089550838586099250611068868886878788098909610075565b975097509450837f154ac98e01708c611c4fa715991f004898f57939d126e392042971dd90e81fc686089450837f0b339d8acca7d4f83eedd84093aef51050b3684c88f8b0b04524563bc6ea4da488089650837f0955e49e6610c94254a4f84cfbab344598f0e71eaff4a7dd81ed95b50839c82e870895508385860992506110f7868886878788098909610075565b975097509450837f06746a6156eba54426b9e22206f15abca9a6f41e6f535c6f3525401ea065462686089450837f0f18f5a0ecd1423c496f3820c549c27838e5790e2bd0a196ac917c7ff32077fb88089650837f04f6eeca1751f7308ac59eff5beb261e4bb563583ede7bc92a738223d6f76e1387089550838586099250611186868886878788098909610075565b975097509450837f2b56973364c4c4f5c1a3ec4da3cdce038811eb116fb3e45bc1768d26fc0b375886089450837f123769dd49d5b054dcd76b89804b1bcb8e1392b385716a5d83feb65d437f29ef88089650837f2147b424fc48c80a88ee52b91169aacea989f6446471150994257b2fb01c63e987089550838586099250611215868886878788098909610075565b975097509450837f0fdc1f58548b85701a6c5505ea332a29647e6f34ad4243c2ea54ad897cebe54d86089450837f12373a8251fea004df68abcf0f7786d4bceff28c5dbbe0c3944f685cc0a0b1f288089650837f21e4f4ea5f35f85bad7ea52ff742c9e8a642756b6af44203dd8a1f35c1a90035870895508385860992506112a4868886878788098909610075565b975097509450837f16243916d69d2ca3dfb4722224d4c462b57366492f45e90d8a81934f1bc3b14786089450837f1efbe46dd7a578b4f66f9adbc88b4378abc21566e1a0453ca13a4159cac04ac288089650837f07ea5e8537cf5dd08886020e23a7f387d468d5525be66f853b672cc96a88969a87089550838586099250611333868886878788098909610075565b975097509450837f05a8c4f9968b8aa3b7b478a30f9a5b63650f19a75e7ce11ca9fe16c0b76c00bc86089450837f20f057712cc21654fbfe59bd345e8dac3f7818c701b9c7882d9d57b72a32e83f88089650837f04a12ededa9dfd689672f8c67fee31636dcd8e88d01d49019bd90b33eb33db69870895508385860992506113c2868886878788098909610075565b975097509450837f27e88d8c15f37dcee44f1e5425a51decbd136ce5091a6767e49ec9544ccd101a86089450837f2feed17b84285ed9b8a5c8c5e95a41f66e096619a7703223176c41ee433de4d188089650837f1ed7cc76edf45c7c404241420f729cf394e5942911312a0d6972b8bd53aff2b887089550838586099250611451868886878788098909610075565b975097509450837f15742e99b9bfa323157ff8c586f5660eac6783476144cdcadf2874be45466b1a86089450837f1aac285387f65e82c895fc6887ddf40577107454c6ec0317284f033f27d0c78588089650837f25851c3c845d4790f9ddadbdb6057357832e2e7a49775f71ec75a96554d67c77870895508385860992506114e0868886878788098909610075565b975097509450837f15a5821565cc2ec2ce78457db197edf353b7ebba2c5523370ddccc3d9f146a6786089450837f2411d57a4813b9980efa7e31a1db5966dcf64f36044277502f15485f28c7172788089650837e2e6f8d6520cd4713e335b8c0b6d2e647e9a98e12f4cd2558828b5ef6cb4c9b8708955083858609925061156e868886878788098909610075565b975097509450837f2ff7bc8f4380cde997da00b616b0fcd1af8f0e91e2fe1ed7398834609e0315d286089450837eb9831b948525595ee02724471bcd182e9521f6b7bb68f1e93be4febb0d3cbe88089650837f0a2f53768b8ebf6a86913b0e57c04e011ca408648a4743a87d77adbf0c9c3512870895508385860992506115fc868886878788098909610075565b975097509450837e248156142fd0373a479f91ff239e960f599ff7e94be69b7f2a290305e1198d86089450837f171d5620b87bfb1328cf8c02ab3f0c9a397196aa6a542c2350eb512a2b2bcda988089650837f170a4f55536f7dc970087c7c10d6fad760c952172dd54dd99d1045e4ec34a8088708955083858609925061168a868886878788098909610075565b975097509450837f29aba33f799fe66c2ef3134aea04336ecc37e38c1cd211ba482eca17e2dbfae186089450837f1e9bc179a4fdd758fdd1bb1945088d47e70d114a03f6a0e8b5ba650369e6497388089650837f1dd269799b660fad58f7f4892dfb0b5afeaad869a9c4b44f9c9e1c43bdaf8f0987089550838586099250611719868886878788098909610075565b975097509450837f22cdbc8b70117ad1401181d02e15459e7ccd426fe869c7c95d1dd2cb0f24af3886089450837f0ef042e454771c533a9f57a55c503fcefd3150f52ed94a7cd5ba93b9c7dacefd88089650837f11609e06ad6c8fe2f287f3036037e8851318e8b08a0359a03b304ffca62e8284870895508385860992506117a8868886878788098909610075565b975097509450837f1166d9e554616dba9e753eea427c17b7fecd58c076dfe42708b08f5b783aa9af86089450837f2de52989431a859593413026354413db177fbf4cd2ac0b56f855a888357ee46688089650837f3006eb4ffc7a85819a6da492f3a8ac1df51aee5b17b8e89d74bf01cf5f71e9ad87089550838586099250611837868886878788098909610075565b975097509450837f2af41fbb61ba8a80fdcf6fff9e3f6f422993fe8f0a4639f962344c822514508686089450837f119e684de476155fe5a6b41a8ebc85db8718ab27889e85e781b214bace4827c388089650837f1835b786e2e8925e188bea59ae363537b51248c23828f047cff784b97b3fd800870895508385860992506118c6868886878788098909610075565b975097509450837f28201a34c594dfa34d794996c6433a20d152bac2a7905c926c40e285ab32eeb686089450837f083efd7a27d1751094e80fefaf78b000864c82eb571187724a761f88c22cc4e788089650837f0b6f88a3577199526158e61ceea27be811c16df7774dd8519e079564f61fd13b87089550838586099250611955868886878788098909610075565b975097509450837f0ec868e6d15e51d9644f66e1d6471a94589511ca00d29e1014390e6ee4254f5b86089450837f2af33e3f866771271ac0c9b3ed2e1142ecd3e74b939cd40d00d937ab84c9859188089650837f0b520211f904b5e7d09b5d961c6ace7734568c547dd6858b364ce5e47951f178870895508385860992506119e4868886878788098909610075565b975097509450837f0b2d722d0919a1aad8db58f10062a92ea0c56ac4270e822cca228620188a1d4086089450837f1f790d4d7f8cf094d980ceb37c2453e957b54a9991ca38bbe0061d1ed6e562d488089650837f0171eb95dfbf7d1eaea97cd385f780150885c16235a2a6a8da92ceb01e50423387089550838586099250611a73868886878788098909610075565b975097509450837f0c2d0e3b5fd57549329bf6885da66b9b790b40defd2c8650762305381b16887386089450837f1162fb28689c27154e5a8228b4e72b377cbcafa589e283c35d3803054407a18d88089650837f2f1459b65dee441b64ad386a91e8310f282c5a92a89e19921623ef8249711bc087089550838586099250611b02868886878788098909610075565b975097509450837f1e6ff3216b688c3d996d74367d5cd4c1bc489d46754eb712c243f70d1b53cfbb86089450837f01ca8be73832b8d0681487d27d157802d741a6f36cdc2a0576881f932647887588089650837f1f7735706ffe9fc586f976d5bdf223dc680286080b10cea00b9b5de315f9650e87089550838586099250611b91868886878788098909610075565b975097509450837f2522b60f4ea3307640a0c2dce041fba921ac10a3d5f096ef4745ca838285f01986089450837f23f0bee001b1029d5255075ddc957f833418cad4f52b6c3f8ce16c235572575b88089650837f2bc1ae8b8ddbb81fcaac2d44555ed5685d142633e9df905f66d9401093082d5987089550838586099250611c20868886878788098909610075565b975097509450837f0f9406b8296564a37304507b8dba3ed162371273a07b1fc98011fcd6ad72205f86089450837f2360a8eb0cc7defa67b72998de90714e17e75b174a52ee4acb126c8cd995f0a888089650837f15871a5cddead976804c803cbaef255eb4815a5e96df8b006dcbbc2767f8894887089550838586099250611caf868886878788098909610075565b975097509450837f193a56766998ee9e0a8652dd2f3b1da0362f4f54f72379544f957ccdeefb420f86089450837f2a394a43934f86982f9be56ff4fab1703b2e63c8ad334834e4309805e777ae0f88089650837f1859954cfeb8695f3e8b635dcb345192892cd11223443ba7b4166e8876c0d14287089550838586099250611d3e868886878788098909610075565b975097509450837f04e1181763050e58013444dbcb99f1902b11bc25d90bbdca408d3819f4fed32b86089450837f0fdb253dee83869d40c335ea64de8c5bb10eb82db08b5e8b1f5e5552bfd05f2388089650837f058cbe8a9a5027bdaa4efb623adead6275f08686f1c08984a9d7c5bae9b4f1c087089550838586099250611dcd868886878788098909610075565b975097509450837f1382edce9971e186497eadb1aeb1f52b23b4b83bef023ab0d15228b4cceca59a86089450837f03464990f045c6ee0819ca51fd11b0be7f61b8eb99f14b77e1e6634601d9e8b588089650837f23f7bfc8720dc296fff33b41f98ff83c6fcab4605db2eb5aaa5bc137aeb70a5887089550838586099250611e5c868886878788098909610075565b975097509450837f0a59a158e3eec2117e6e94e7f0e9decf18c3ffd5e1531a9219636158bbaf62f286089450837f06ec54c80381c052b58bf23b312ffd3ce2c4eba065420af8f4c23ed0075fd07b88089650837f118872dc832e0eb5476b56648e867ec8b09340f7a7bcb1b4962f0ff9ed1f9d0187089550838586099250611eeb868886878788098909610075565b975097509450837f13d69fa127d834165ad5c7cba7ad59ed52e0b0f0e42d7fea95e1906b520921b186089450837f169a177f63ea681270b1c6877a73d21bde143942fb71dc55fd8a49f19f10c77b88089650837f04ef51591c6ead97ef42f287adce40d93abeb032b922f66ffb7e9a5a7450544d87089550838586099250611f7a868886878788098909610075565b975097509450837f256e175a1dc079390ecd7ca703fb2e3b19ec61805d4f03ced5f45ee6dd0f69ec86089450837f30102d28636abd5fe5f2af412ff6004f75cc360d3205dd2da002813d3e2ceeb288089650837f10998e42dfcd3bbf1c0714bc73eb1bf40443a3fa99bef4a31fd31be182fcc79287089550838586099250612009868886878788098909610075565b975097509450837f193edd8e9fcf3d7625fa7d24b598a1d89f3362eaf4d582efecad76f879e3686086089450837f18168afd34f2d915d0368ce80b7b3347d1c7a561ce611425f2664d7aa51f0b5d88089650837f29383c01ebd3b6ab0c017656ebe658b6a328ec77bc33626e29e2e95b33ea611187089550838586099250612098868886878788098909610075565b975097509450837f10646d2f2603de39a1f4ae5e7771a64a702db6e86fb76ab600bf573f9010c71186089450837f0beb5e07d1b27145f575f1395a55bf132f90c25b40da7b3864d0242dcb1117fb88089650837f16d685252078c133dc0d3ecad62b5c8830f95bb2e54b59abdffbf018d96fa33687089550838586099250612127868886878788098909610075565b975097509450837f0a6abd1d833938f33c74154e0404b4b40a555bbbec21ddfafd672dd62047f01a86089450837f1a679f5d36eb7b5c8ea12a4c2dedc8feb12dffeec450317270a6f19b34cf186088089650837f0980fb233bd456c23974d50e0ebfde4726a423eada4e8f6ffbc7592e3f1b93d6870895508385860992506121b6868886878788098909610075565b975097509450837f161b42232e61b84cbf1810af93a38fc0cece3d5628c9282003ebacb5c312c72b86089450837f0ada10a90c7f0520950f7d47a60d5e6a493f09787f1564e5d09203db47de1a0b88089650837f1a730d372310ba82320345a29ac4238ed3f07a8a2b4e121bb50ddb9af407f45187089550838586099250612245868886878788098909610075565b975097509450837f2c8120f268ef054f817064c369dda7ea908377feaba5c4dffbda10ef58e8c55686089450837f1c7c8824f758753fa57c00789c684217b930e95313bcb73e6e7b8649a4968f7088089650837f2cd9ed31f5f8691c8e39e4077a74faa0f400ad8b491eb3f7b47b27fa3fd1cf77870895508385860992506122d4868886878788098909610075565b975097509450837f23ff4f9d46813457cf60d92f57618399a5e022ac321ca550854ae23918a22eea86089450837f09945a5d147a4f66ceece6405dddd9d0af5a2c5103529407dff1ea58f180426d88089650837f188d9c528025d4c2b67660c6b771b90f7c7da6eaa29d3f268a6dd223ec6fc63087089550838586099250612363868886878788098909610075565b975097509450837f3050e37996596b7f81f68311431d8734dba7d926d3633595e0c0d8ddf4f0f47f86089450837f15af1169396830a91600ca8102c35c426ceae5461e3f95d89d829518d30afd7888089650837f1da6d09885432ea9a06d9f37f873d985dae933e351466b2904284da3320d8acc870895508385860992506123f2868886878788098909610075565b975097509450837f2796ea90d269af29f5f8acf33921124e4e4fad3dbe658945e546ee411ddaa9cb86089450837f202d7dd1da0f6b4b0325c8b3307742f01e15612ec8e9304a7cb0319e01d32d6088089650837f096d6790d05bb759156a952ba263d672a2d7f9c788f4c831a29dace4c0f8be5f87089550838586099250612481868886878788098909610075565b975097509450837f054efa1f65b0fce283808965275d877b438da23ce5b13e1963798cb1447d25a486089450837f1b162f83d917e93edb3308c29802deb9d8aa690113b2e14864ccf6e18e4165f188089650837f21e5241e12564dd6fd9f1cdd2a0de39eedfefc1466cc568ec5ceb745a0506edc870895508385860992508387880991508386870990506125288485838409880985868586098a0986878788098909610075565b975097509450837f1cfb5662e8cf5ac9226a80ee17b36abecb73ab5f87e161927b4349e10e4bdf0886089450837f0f21177e302a771bbae6d8d1ecb373b62c99af346220ac0129c53f666eb2410088089650837f1671522374606992affb0dd7f71b12bec4236aede6290546bcef7e1f515c2320870895508385860992508387880991508386870990506125cf8485838409880985868586098a0986878788098909610075565b975097509450837f0fa3ec5b9488259c2eb4cf24501bfad9be2ec9e42c5cc8ccd419d2a692cad87086089450837f193c0e04e0bd298357cb266c1506080ed36edce85c648cc085e8c57b1ab54bba88089650837f102adf8ef74735a27e9128306dcbc3c99f6f7291cd406578ce14ea2adaba68f8870895508385860992508387880991508386870990506126768485838409880985868586098a0986878788098909610075565b975097509450837f0fe0af7858e49859e2a54d6f1ad945b1316aa24bfbdd23ae40a6d0cb70c3eab186089450837f216f6717bbc7dedb08536a2220843f4e2da5f1daa9ebdefde8a5ea7344798d2288089650837f1da55cc900f0d21f4a3e694391918a1b3c23b2ac773c6b3ef88e2e42283251618708955083858609925083878809915083868709905083846000805160206127ba83398151915286878586098a0909858660008051602061277a83398151915288898889098d0909876000805160206127da833981519152898a8a8b098c09090808979650505050505050565b6000806040838503121561276a57600080fd5b5050803592602090910135915056fe16ed41e13bb9c0c66ae119424fddbcbc9314dc9fdbdeea55d6c64543dc4903e030644e72e131a029b85045b68181585d2833e84879b9709143e1f593f00000012b90bba00fca0589f617e7dcbfe82e0df706ab640ceb247b791a93b74e36736d109b7f411ba0e4c9b2b70caf5c36a7b194be7c11ad24378bfedb68592ba8118ba26469706673582212209aafa6a7244e83477481dce45b46fb22b6d43e3372fc3edcfdb0f969e9be8ea164736f6c63430008110033",
  "immutableReferences": {},
  "source": "// SPDX-License-Identifier: CC0-1.0\n// This is adapted from https://github.com/Loopring/\n// but converted for our specific 2-input hash variety\n// We are grateful for the work done by Loopring.\npragma solidity ^0.8.0;\n\nlibrary Poseidon\n{\n    function poseidon(uint256 t1, uint256 t2) public pure returns (uint256 t0){\n        assembly {   \n            let q:= 21888242871839275222246405745257275088548364400416034343698204186575808495617         \n            function mix(_t0,_t1, _t2) -> nt0, nt1, nt2 {\n                nt0 := addmod(addmod(\n                    mulmod(_t0, 7511745149465107256748700652201246547602992235352608707588321460060273774987, 21888242871839275222246405745257275088548364400416034343698204186575808495617), \n                    mulmod(_t1, 10370080108974718697676803824769673834027675643658433702224577712625900127200, 21888242871839275222246405745257275088548364400416034343698204186575808495617), 21888242871839275222246405745257275088548364400416034343698204186575808495617), \n                    mulmod(_t2, 19705173408229649878903981084052839426532978878058043055305024233888854471533, 21888242871839275222246405745257275088548364400416034343698204186575808495617), 21888242871839275222246405745257275088548364400416034343698204186575808495617)\n                nt1 := addmod(addmod(\n                    mulmod(_t0, 18732019378264290557468133440468564866454307626475683536618613112504878618481, 21888242871839275222246405745257275088548364400416034343698204186575808495617), \n                    mulmod(_t1, 20870176810702568768751421378473869562658540583882454726129544628203806653987, 21888242871839275222246405745257275088548364400416034343698204186575808495617), 21888242871839275222246405745257275088548364400416034343698204186575808495617), \n                    mulmod(_t2, 7266061498423634438633389053804536045105766754026813321943009179476902321146, 21888242871839275222246405745257275088548364400416034343698204186575808495617), 21888242871839275222246405745257275088548364400416034343698204186575808495617)\n                nt2 := addmod(addmod(\n                    mulmod(_t0, 9131299761947733513298312097611845208338517739621853568979632113419485819303, 21888242871839275222246405745257275088548364400416034343698204186575808495617), \n                    mulmod(_t1, 10595341252162738537912664445405114076324478519622938027420701542910180337937, 21888242871839275222246405745257275088548364400416034343698204186575808495617), 21888242871839275222246405745257275088548364400416034343698204186575808495617), \n                    mulmod(_t2, 11597556804922396090267472882856054602429588299176362916247939723151043581408, 21888242871839275222246405745257275088548364400416034343698204186575808495617), 21888242871839275222246405745257275088548364400416034343698204186575808495617)\n            }   \n            // round 0\n            t0 := addmod(t0, 6745197990210204598374042828761989596302876299545964402857411729872131034734, q)\n            t1 := addmod(t1, 426281677759936592021316809065178817848084678679510574715894138690250139748, q)\n            t2 := addmod(t2, 4014188762916583598888942667424965430287497824629657219807941460227372577781, q)\n            let t00 := mulmod(t0, t0, q)\n            let t11 := mulmod(t1, t1, q)\n            let t22 := mulmod(t2, t2, q)\n            t0, t1, t2 := mix(\n                mulmod(t0, mulmod(t00, t00, q),q),\n                mulmod(t1, mulmod(t11, t11, q),q), \n                mulmod(t2, mulmod(t22, t22, q),q))\n            // round 1\n            t0 := addmod(t0, 21328925083209914769191926116470334003273872494252651254811226518870906634704, q)\n            t1 := addmod(t1, 19525217621804205041825319248827370085205895195618474548469181956339322154226, q)\n            t2 := addmod(t2, 1402547928439424661186498190603111095981986484908825517071607587179649375482, q)\n            t00 := mulmod(t0, t0, q)\n            t11 := mulmod(t1, t1, q)\n            t22 := mulmod(t2, t2, q)\n            t0, t1, t2 := mix(\n                mulmod(t0, mulmod(t00, t00, q),q),\n                mulmod(t1, mulmod(t11, t11, q),q), \n                mulmod(t2, mulmod(t22, t22, q),q))\n            // round 2\n            t0 := addmod(t0, 18320863691943690091503704046057443633081959680694199244583676572077409194605, q)\n            t1 := addmod(t1, 17709820605501892134371743295301255810542620360751268064484461849423726103416, q)\n            t2 := addmod(t2, 15970119011175710804034336110979394557344217932580634635707518729185096681010, q)\n            t00 := mulmod(t0, t0, q)\n            t11 := mulmod(t1, t1, q)\n            t22 := mulmod(t2, t2, q)\n            t0, t1, t2 := mix(\n                mulmod(t0, mulmod(t00, t00, q),q),\n                mulmod(t1, mulmod(t11, t11, q),q), \n                mulmod(t2, mulmod(t22, t22, q),q))\n\n            // round 3\n            t0 := addmod(t0, 9818625905832534778628436765635714771300533913823445439412501514317783880744, q)\n            t1 := addmod(t1, 6235167673500273618358172865171408902079591030551453531218774338170981503478, q)\n            t2 := addmod(t2, 12575685815457815780909564540589853169226710664203625668068862277336357031324, q)\n            t00 := mulmod(t0, t0, q)\n            t11 := mulmod(t1, t1, q)\n            t22 := mulmod(t2, t2, q)\n            t0, t1, t2 := mix(\n                mulmod(t0, mulmod(t00, t00, q),q),\n                mulmod(t1, mulmod(t11, t11, q),q), \n                mulmod(t2, mulmod(t22, t22, q),q))\n            // round 4\n            t0 := addmod(t0, 7381963244739421891665696965695211188125933529845348367882277882370864309593, q)\n            t1 := addmod(t1, 14214782117460029685087903971105962785460806586237411939435376993762368956406, q)\n            t2 := addmod(t2, 13382692957873425730537487257409819532582973556007555550953772737680185788165, q)\n            t00 := mulmod(t0, t0, q)\n            t0, t1, t2 := mix(mulmod(t0, mulmod(t00, t00, q),q), t1, t2)\n\n            // round 5\n            t0 := addmod(t0, 2203881792421502412097043743980777162333765109810562102330023625047867378813, q)\n            t1 := addmod(t1, 2916799379096386059941979057020673941967403377243798575982519638429287573544, q)\n            t2 := addmod(t2, 4341714036313630002881786446132415875360643644216758539961571543427269293497, q)\n            t00 := mulmod(t0, t0, q)\n            t0, t1, t2 := mix(mulmod(t0, mulmod(t00, t00, q),q), t1, t2)\n\n            // round 6\n            t0 := addmod(t0, 2340590164268886572738332390117165591168622939528604352383836760095320678310, q)\n            t1 := addmod(t1, 5222233506067684445011741833180208249846813936652202885155168684515636170204, q)\n            t2 := addmod(t2, 7963328565263035669460582454204125526132426321764384712313576357234706922961, q)\n            t00 := mulmod(t0, t0, q)\n            t0, t1, t2 := mix(mulmod(t0, mulmod(t00, t00, q),q), t1, t2)\n\n            // round 7\n            t0 := addmod(t0, 1394121618978136816716817287892553782094854454366447781505650417569234586889, q)\n            t1 := addmod(t1, 20251767894547536128245030306810919879363877532719496013176573522769484883301, q)\n            t2 := addmod(t2, 141695147295366035069589946372747683366709960920818122842195372849143476473, q)\n            t00 := mulmod(t0, t0, q)\n            t0, t1, t2 := mix(mulmod(t0, mulmod(t00, t00, q),q), t1, t2)\n\n            // round 8\n            t0 := addmod(t0, 15919677773886738212551540894030218900525794162097204800782557234189587084981, q)\n            t1 := addmod(t1, 2616624285043480955310772600732442182691089413248613225596630696960447611520, q)\n            t2 := addmod(t2, 4740655602437503003625476760295930165628853341577914460831224100471301981787, q)\n            t00 := mulmod(t0, t0, q)\n            t0, t1, t2 := mix(mulmod(t0, mulmod(t00, t00, q),q), t1, t2)\n\n            // round 9\n            t0 := addmod(t0, 19201590924623513311141753466125212569043677014481753075022686585593991810752, q)\n            t1 := addmod(t1, 12116486795864712158501385780203500958268173542001460756053597574143933465696, q)\n            t2 := addmod(t2, 8481222075475748672358154589993007112877289817336436741649507712124418867136, q)\n            t00 := mulmod(t0, t0, q)\n            t0, t1, t2 := mix(mulmod(t0, mulmod(t00, t00, q),q), t1, t2)\n\n            // round 10\n            t0 := addmod(t0, 5181207870440376967537721398591028675236553829547043817076573656878024336014, q)\n            t1 := addmod(t1, 1576305643467537308202593927724028147293702201461402534316403041563704263752, q)\n            t2 := addmod(t2, 2555752030748925341265856133642532487884589978209403118872788051695546807407, q)\n            t00 := mulmod(t0, t0, q)\n            t0, t1, t2 := mix(mulmod(t0, mulmod(t00, t00, q),q), t1, t2)\n\n            // round 11\n            t0 := addmod(t0, 18840924862590752659304250828416640310422888056457367520753407434927494649454, q)\n            t1 := addmod(t1, 14593453114436356872569019099482380600010961031449147888385564231161572479535, q)\n            t2 := addmod(t2, 20826991704411880672028799007667199259549645488279985687894219600551387252871, q)\n            t00 := mulmod(t0, t0, q)\n            t0, t1, t2 := mix(mulmod(t0, mulmod(t00, t00, q),q), t1, t2)\n\n            // round 12\n            t0 := addmod(t0, 9159011389589751902277217485643457078922343616356921337993871236707687166408, q)\n            t1 := addmod(t1, 5605846325255071220412087261490782205304876403716989785167758520729893194481, q)\n            t2 := addmod(t2, 1148784255964739709393622058074925404369763692117037208398835319441214134867, q)\n            t00 := mulmod(t0, t0, q)\n            t0, t1, t2 := mix(mulmod(t0, mulmod(t00, t00, q),q), t1, t2)\n\n            // round 13\n            t0 := addmod(t0, 20945896491956417459309978192328611958993484165135279604807006821513499894540, q)\n            t1 := addmod(t1, 229312996389666104692157009189660162223783309871515463857687414818018508814, q)\n            t2 := addmod(t2, 21184391300727296923488439338697060571987191396173649012875080956309403646776, q)\n            t00 := mulmod(t0, t0, q)\n            t0, t1, t2 := mix(mulmod(t0, mulmod(t00, t00, q),q), t1, t2)\n\n            // round 14\n            t0 := addmod(t0, 21853424399738097885762888601689700621597911601971608617330124755808946442758, q)\n            t1 := addmod(t1, 12776298811140222029408960445729157525018582422120161448937390282915768616621, q)\n            t2 := addmod(t2, 7556638921712565671493830639474905252516049452878366640087648712509680826732, q)\n            t00 := mulmod(t0, t0, q)\n            t0, t1, t2 := mix(mulmod(t0, mulmod(t00, t00, q),q), t1, t2)\n\n            // round 15\n            t0 := addmod(t0, 19042212131548710076857572964084011858520620377048961573689299061399932349935, q)\n            t1 := addmod(t1, 12871359356889933725034558434803294882039795794349132643274844130484166679697, q)\n            t2 := addmod(t2, 3313271555224009399457959221795880655466141771467177849716499564904543504032, q)\n            t00 := mulmod(t0, t0, q)\n            t0, t1, t2 := mix(mulmod(t0, mulmod(t00, t00, q),q), t1, t2)\n\n            // round 16\n            t0 := addmod(t0, 15080780006046305940429266707255063673138269243146576829483541808378091931472, q)\n            t1 := addmod(t1, 21300668809180077730195066774916591829321297484129506780637389508430384679582, q)\n            t2 := addmod(t2, 20480395468049323836126447690964858840772494303543046543729776750771407319822, q)\n            t00 := mulmod(t0, t0, q)\n            t0, t1, t2 := mix(mulmod(t0, mulmod(t00, t00, q),q), t1, t2)\n\n            // round 17\n            t0 := addmod(t0, 10034492246236387932307199011778078115444704411143703430822959320969550003883, q)\n            t1 := addmod(t1, 19584962776865783763416938001503258436032522042569001300175637333222729790225, q)\n            t2 := addmod(t2, 20155726818439649091211122042505326538030503429443841583127932647435472711802, q)\n            t00 := mulmod(t0, t0, q)\n            t0, t1, t2 := mix(mulmod(t0, mulmod(t00, t00, q),q), t1, t2)\n\n            // round 18\n            t0 := addmod(t0, 13313554736139368941495919643765094930693458639277286513236143495391474916777, q)\n            t1 := addmod(t1, 14606609055603079181113315307204024259649959674048912770003912154260692161833, q)\n            t2 := addmod(t2, 5563317320536360357019805881367133322562055054443943486481491020841431450882, q)\n            t00 := mulmod(t0, t0, q)\n            t0, t1, t2 := mix(mulmod(t0, mulmod(t00, t00, q),q), t1, t2)\n\n            // round 19\n            t0 := addmod(t0, 10535419877021741166931390532371024954143141727751832596925779759801808223060, q)\n            t1 := addmod(t1, 12025323200952647772051708095132262602424463606315130667435888188024371598063, q)\n            t2 := addmod(t2, 2906495834492762782415522961458044920178260121151056598901462871824771097354, q)\n            t00 := mulmod(t0, t0, q)\n            t0, t1, t2 := mix(mulmod(t0, mulmod(t00, t00, q),q), t1, t2)\n\n            // round 20\n            t0 := addmod(t0, 19131970618309428864375891649512521128588657129006772405220584460225143887876, q)\n            t1 := addmod(t1, 8896386073442729425831367074375892129571226824899294414632856215758860965449, q)\n            t2 := addmod(t2, 7748212315898910829925509969895667732958278025359537472413515465768989125274, q)\n            t00 := mulmod(t0, t0, q)\n            t0, t1, t2 := mix(mulmod(t0, mulmod(t00, t00, q),q), t1, t2)\n\n            // round 21\n            t0 := addmod(t0, 422974903473869924285294686399247660575841594104291551918957116218939002865, q)\n            t1 := addmod(t1, 6398251826151191010634405259351528880538837895394722626439957170031528482771, q)\n            t2 := addmod(t2, 18978082967849498068717608127246258727629855559346799025101476822814831852169, q)\n            t00 := mulmod(t0, t0, q)\n            t0, t1, t2 := mix(mulmod(t0, mulmod(t00, t00, q),q), t1, t2)\n\n            // round 22\n            t0 := addmod(t0, 19150742296744826773994641927898928595714611370355487304294875666791554590142, q)\n            t1 := addmod(t1, 12896891575271590393203506752066427004153880610948642373943666975402674068209, q)\n            t2 := addmod(t2, 9546270356416926575977159110423162512143435321217584886616658624852959369669, q)\n            t00 := mulmod(t0, t0, q)\n            t0, t1, t2 := mix(mulmod(t0, mulmod(t00, t00, q),q), t1, t2)\n\n            // round 23\n            t0 := addmod(t0, 2159256158967802519099187112783460402410585039950369442740637803310736339200, q)\n            t1 := addmod(t1, 8911064487437952102278704807713767893452045491852457406400757953039127292263, q)\n            t2 := addmod(t2, 745203718271072817124702263707270113474103371777640557877379939715613501668, q)\n            t00 := mulmod(t0, t0, q)\n            t0, t1, t2 := mix(mulmod(t0, mulmod(t00, t00, q),q), t1, t2)\n\n            // round 24\n            t0 := addmod(t0, 19313999467876585876087962875809436559985619524211587308123441305315685710594, q)\n            t1 := addmod(t1, 13254105126478921521101199309550428567648131468564858698707378705299481802310, q)\n            t2 := addmod(t2, 1842081783060652110083740461228060164332599013503094142244413855982571335453, q)\n            t00 := mulmod(t0, t0, q)\n            t0, t1, t2 := mix(mulmod(t0, mulmod(t00, t00, q),q), t1, t2)\n\n            // round 25\n            t0 := addmod(t0, 9630707582521938235113899367442877106957117302212260601089037887382200262598, q)\n            t1 := addmod(t1, 5066637850921463603001689152130702510691309665971848984551789224031532240292, q)\n            t2 := addmod(t2, 4222575506342961001052323857466868245596202202118237252286417317084494678062, q)\n            t00 := mulmod(t0, t0, q)\n            t0, t1, t2 := mix(mulmod(t0, mulmod(t00, t00, q),q), t1, t2)\n\n            // round 26\n            t0 := addmod(t0, 2919565560395273474653456663643621058897649501626354982855207508310069954086, q)\n            t1 := addmod(t1, 6828792324689892364977311977277548750189770865063718432946006481461319858171, q)\n            t2 := addmod(t2, 2245543836264212411244499299744964607957732316191654500700776604707526766099, q)\n            t00 := mulmod(t0, t0, q)\n            t0, t1, t2 := mix(mulmod(t0, mulmod(t00, t00, q),q), t1, t2)\n\n            // round 27\n            t0 := addmod(t0, 19602444885919216544870739287153239096493385668743835386720501338355679311704, q)\n            t1 := addmod(t1, 8239538512351936341605373169291864076963368674911219628966947078336484944367, q)\n            t2 := addmod(t2, 15053013456316196458870481299866861595818749671771356646798978105863499965417, q)\n            t00 := mulmod(t0, t0, q)\n            t0, t1, t2 := mix(mulmod(t0, mulmod(t00, t00, q),q), t1, t2)\n\n            // round 28\n            t0 := addmod(t0, 7173615418515925804810790963571435428017065786053377450925733428353831789901, q)\n            t1 := addmod(t1, 8239211677777829016346247446855147819062679124993100113886842075069166957042, q)\n            t2 := addmod(t2, 15330855478780269194281285878526984092296288422420009233557393252489043181621, q)\n            t00 := mulmod(t0, t0, q)\n            t0, t1, t2 := mix(mulmod(t0, mulmod(t00, t00, q),q), t1, t2)\n\n            // round 29\n            t0 := addmod(t0, 10014883178425964324400942419088813432808659204697623248101862794157084619079, q)\n            t1 := addmod(t1, 14014440630268834826103915635277409547403899966106389064645466381170788813506, q)\n            t2 := addmod(t2, 3580284508947993352601712737893796312152276667249521401778537893620670305946, q)\n            t00 := mulmod(t0, t0, q)\n            t0, t1, t2 := mix(mulmod(t0, mulmod(t00, t00, q),q), t1, t2)\n\n            // round 30\n            t0 := addmod(t0, 2559754020964039399020874042785294258009596917335212876725104742182177996988, q)\n            t1 := addmod(t1, 14898657953331064524657146359621913343900897440154577299309964768812788279359, q)\n            t2 := addmod(t2, 2094037260225570753385567402013028115218264157081728958845544426054943497065, q)\n            t00 := mulmod(t0, t0, q)\n            t0, t1, t2 := mix(mulmod(t0, mulmod(t00, t00, q),q), t1, t2)\n\n            // round 31\n            t0 := addmod(t0, 18051086536715129874440142649831636862614413764019212222493256578581754875930, q)\n            t1 := addmod(t1, 21680659279808524976004872421382255670910633119979692059689680820959727969489, q)\n            t2 := addmod(t2, 13950668739013333802529221454188102772764935019081479852094403697438884885176, q)\n            t00 := mulmod(t0, t0, q)\n            t0, t1, t2 := mix(mulmod(t0, mulmod(t00, t00, q),q), t1, t2)\n\n            // round 32\n            t0 := addmod(t0, 9703845704528288130475698300068368924202959408694460208903346143576482802458, q)\n            t1 := addmod(t1, 12064310080154762977097567536495874701200266107682637369509532768346427148165, q)\n            t2 := addmod(t2, 16970760937630487134309762150133050221647250855182482010338640862111040175223, q)\n            t00 := mulmod(t0, t0, q)\n            t0, t1, t2 := mix(mulmod(t0, mulmod(t00, t00, q),q), t1, t2)\n\n            // round 33\n            t0 := addmod(t0, 9790997389841527686594908620011261506072956332346095631818178387333642218087, q)\n            t1 := addmod(t1, 16314772317774781682315680698375079500119933343877658265473913556101283387175, q)\n            t2 := addmod(t2, 82044870826814863425230825851780076663078706675282523830353041968943811739, q)\n            t00 := mulmod(t0, t0, q)\n            t0, t1, t2 := mix(mulmod(t0, mulmod(t00, t00, q),q), t1, t2)\n\n            // round 34\n            t0 := addmod(t0, 21696416499108261787701615667919260888528264686979598953977501999747075085778, q)\n            t1 := addmod(t1, 327771579314982889069767086599893095509690747425186236545716715062234528958, q)\n            t2 := addmod(t2, 4606746338794869835346679399457321301521448510419912225455957310754258695442, q)\n            t00 := mulmod(t0, t0, q)\n            t0, t1, t2 := mix(mulmod(t0, mulmod(t00, t00, q),q), t1, t2)\n\n            // round 35\n            t0 := addmod(t0, 64499140292086295251085369317820027058256893294990556166497635237544139149, q)\n            t1 := addmod(t1, 10455028514626281809317431738697215395754892241565963900707779591201786416553, q)\n            t2 := addmod(t2, 10421411526406559029881814534127830959833724368842872558146891658647152404488, q)\n            t00 := mulmod(t0, t0, q)\n            t0, t1, t2 := mix(mulmod(t0, mulmod(t00, t00, q),q), t1, t2)\n\n            // round 36\n            t0 := addmod(t0, 18848084335930758908929996602136129516563864917028006334090900573158639401697, q)\n            t1 := addmod(t1, 13844582069112758573505569452838731733665881813247931940917033313637916625267, q)\n            t2 := addmod(t2, 13488838454403536473492810836925746129625931018303120152441617863324950564617, q)\n            t00 := mulmod(t0, t0, q)\n            t0, t1, t2 := mix(mulmod(t0, mulmod(t00, t00, q),q), t1, t2)\n\n            // round 37\n            t0 := addmod(t0, 15742141787658576773362201234656079648895020623294182888893044264221895077688, q)\n            t1 := addmod(t1, 6756884846734501741323584200608866954194124526254904154220230538416015199997, q)\n            t2 := addmod(t2, 7860026400080412708388991924996537435137213401947704476935669541906823414404, q)\n            t00 := mulmod(t0, t0, q)\n            t0, t1, t2 := mix(mulmod(t0, mulmod(t00, t00, q),q), t1, t2)\n\n            // round 38\n            t0 := addmod(t0, 7871040688194276447149361970364037034145427598711982334898258974993423182255, q)\n            t1 := addmod(t1, 20758972836260983284101736686981180669442461217558708348216227791678564394086, q)\n            t2 := addmod(t2, 21723241881201839361054939276225528403036494340235482225557493179929400043949, q)\n            t00 := mulmod(t0, t0, q)\n            t0, t1, t2 := mix(mulmod(t0, mulmod(t00, t00, q),q), t1, t2)\n\n            // round 39\n            t0 := addmod(t0, 19428469330241922173653014973246050805326196062205770999171646238586440011910, q)\n            t1 := addmod(t1, 7969200143746252148180468265998213908636952110398450526104077406933642389443, q)\n            t2 := addmod(t2, 10950417916542216146808986264475443189195561844878185034086477052349738113024, q)\n            t00 := mulmod(t0, t0, q)\n            t0, t1, t2 := mix(mulmod(t0, mulmod(t00, t00, q),q), t1, t2)\n\n            // round 40\n            t0 := addmod(t0, 18149233917533571579549129116652755182249709970669448788972210488823719849654, q)\n            t1 := addmod(t1, 3729796741814967444466779622727009306670204996071028061336690366291718751463, q)\n            t2 := addmod(t2, 5172504399789702452458550583224415301790558941194337190035441508103183388987, q)\n            t00 := mulmod(t0, t0, q)\n            t0, t1, t2 := mix(mulmod(t0, mulmod(t00, t00, q),q), t1, t2)\n\n            // round 41\n            t0 := addmod(t0, 6686473297578275808822003704722284278892335730899287687997898239052863590235, q)\n            t1 := addmod(t1, 19426913098142877404613120616123695099909113097119499573837343516470853338513, q)\n            t2 := addmod(t2, 5120337081764243150760446206763109494847464512045895114970710519826059751800, q)\n            t00 := mulmod(t0, t0, q)\n            t0, t1, t2 := mix(mulmod(t0, mulmod(t00, t00, q),q), t1, t2)\n\n            // round 42\n            t0 := addmod(t0, 5055737465570446530938379301905385631528718027725177854815404507095601126720, q)\n            t1 := addmod(t1, 14235578612970484492268974539959119923625505766550088220840324058885914976980, q)\n            t2 := addmod(t2, 653592517890187950103239281291172267359747551606210609563961204572842639923, q)\n            t00 := mulmod(t0, t0, q)\n            t0, t1, t2 := mix(mulmod(t0, mulmod(t00, t00, q),q), t1, t2)\n\n            // round 43\n            t0 := addmod(t0, 5507360526092411682502736946959369987101940689834541471605074817375175870579, q)\n            t1 := addmod(t1, 7864202866011437199771472205361912625244234597659755013419363091895334445453, q)\n            t2 := addmod(t2, 21294659996736305811805196472076519801392453844037698272479731199885739891648, q)\n            t00 := mulmod(t0, t0, q)\n            t0, t1, t2 := mix(mulmod(t0, mulmod(t00, t00, q),q), t1, t2)\n\n            // round 44\n            t0 := addmod(t0, 13767183507040326119772335839274719411331242166231012705169069242737428254651, q)\n            t1 := addmod(t1, 810181532076738148308457416289197585577119693706380535394811298325092337781, q)\n            t2 := addmod(t2, 14232321930654703053193240133923161848171310212544136614525040874814292190478, q)\n            t00 := mulmod(t0, t0, q)\n            t0, t1, t2 := mix(mulmod(t0, mulmod(t00, t00, q),q), t1, t2)\n\n            // round 45\n            t0 := addmod(t0, 16796904728299128263054838299534612533844352058851230375569421467352578781209, q)\n            t1 := addmod(t1, 16256310366973209550759123431979563367001604350120872788217761535379268327259, q)\n            t2 := addmod(t2, 19791658638819031543640174069980007021961272701723090073894685478509001321817, q)\n            t00 := mulmod(t0, t0, q)\n            t0, t1, t2 := mix(mulmod(t0, mulmod(t00, t00, q),q), t1, t2)\n\n            // round 46\n            t0 := addmod(t0, 7046232469803978873754056165670086532908888046886780200907660308846356865119, q)\n            t1 := addmod(t1, 16001732848952745747636754668380555263330934909183814105655567108556497219752, q)\n            t2 := addmod(t2, 9737276123084413897604802930591512772593843242069849260396983774140735981896, q)\n            t00 := mulmod(t0, t0, q)\n            t0, t1, t2 := mix(mulmod(t0, mulmod(t00, t00, q),q), t1, t2)\n\n            // round 47\n            t0 := addmod(t0, 11410895086919039954381533622971292904413121053792570364694836768885182251535, q)\n            t1 := addmod(t1, 19098362474249267294548762387533474746422711206129028436248281690105483603471, q)\n            t2 := addmod(t2, 11013788190750472643548844759298623898218957233582881400726340624764440203586, q)\n            t00 := mulmod(t0, t0, q)\n            t0, t1, t2 := mix(mulmod(t0, mulmod(t00, t00, q),q), t1, t2)\n\n            // round 48\n            t0 := addmod(t0, 2206958256327295151076063922661677909471794458896944583339625762978736821035, q)\n            t1 := addmod(t1, 7171889270225471948987523104033632910444398328090760036609063776968837717795, q)\n            t2 := addmod(t2, 2510237900514902891152324520472140114359583819338640775472608119384714834368, q)\n            t00 := mulmod(t0, t0, q)\n            t0, t1, t2 := mix(mulmod(t0, mulmod(t00, t00, q),q), t1, t2)\n\n            // round 49\n            t0 := addmod(t0, 8825275525296082671615660088137472022727508654813239986303576303490504107418, q)\n            t1 := addmod(t1, 1481125575303576470988538039195271612778457110700618040436600537924912146613, q)\n            t2 := addmod(t2, 16268684562967416784133317570130804847322980788316762518215429249893668424280, q)\n            t00 := mulmod(t0, t0, q)\n            t0, t1, t2 := mix(mulmod(t0, mulmod(t00, t00, q),q), t1, t2)\n\n            // round 50\n            t0 := addmod(t0, 4681491452239189664806745521067158092729838954919425311759965958272644506354, q)\n            t1 := addmod(t1, 3131438137839074317765338377823608627360421824842227925080193892542578675835, q)\n            t2 := addmod(t2, 7930402370812046914611776451748034256998580373012248216998696754202474945793, q)\n            t00 := mulmod(t0, t0, q)\n            t0, t1, t2 := mix(mulmod(t0, mulmod(t00, t00, q),q), t1, t2)\n\n            // round 51\n            t0 := addmod(t0, 8973151117361309058790078507956716669068786070949641445408234962176963060145, q)\n            t1 := addmod(t1, 10223139291409280771165469989652431067575076252562753663259473331031932716923, q)\n            t2 := addmod(t2, 2232089286698717316374057160056566551249777684520809735680538268209217819725, q)\n            t00 := mulmod(t0, t0, q)\n            t0, t1, t2 := mix(mulmod(t0, mulmod(t00, t00, q),q), t1, t2)\n\n            // round 52\n            t0 := addmod(t0, 16930089744400890347392540468934821520000065594669279286854302439710657571308, q)\n            t1 := addmod(t1, 21739597952486540111798430281275997558482064077591840966152905690279247146674, q)\n            t2 := addmod(t2, 7508315029150148468008716674010060103310093296969466203204862163743615534994, q)\n            t00 := mulmod(t0, t0, q)\n            t0, t1, t2 := mix(mulmod(t0, mulmod(t00, t00, q),q), t1, t2)\n\n            // round 53\n            t0 := addmod(t0, 11418894863682894988747041469969889669847284797234703818032750410328384432224, q)\n            t1 := addmod(t1, 10895338268862022698088163806301557188640023613155321294365781481663489837917, q)\n            t2 := addmod(t2, 18644184384117747990653304688839904082421784959872380449968500304556054962449, q)\n            t00 := mulmod(t0, t0, q)\n            t0, t1, t2 := mix(mulmod(t0, mulmod(t00, t00, q),q), t1, t2)\n\n            // round 54\n            t0 := addmod(t0, 7414443845282852488299349772251184564170443662081877445177167932875038836497, q)\n            t1 := addmod(t1, 5391299369598751507276083947272874512197023231529277107201098701900193273851, q)\n            t2 := addmod(t2, 10329906873896253554985208009869159014028187242848161393978194008068001342262, q)\n            t00 := mulmod(t0, t0, q)\n            t0, t1, t2 := mix(mulmod(t0, mulmod(t00, t00, q),q), t1, t2)\n\n            // round 55\n            t0 := addmod(t0, 4711719500416619550464783480084256452493890461073147512131129596065578741786, q)\n            t1 := addmod(t1, 11943219201565014805519989716407790139241726526989183705078747065985453201504, q)\n            t2 := addmod(t2, 4298705349772984837150885571712355513879480272326239023123910904259614053334, q)\n            t00 := mulmod(t0, t0, q)\n            t0, t1, t2 := mix(mulmod(t0, mulmod(t00, t00, q),q), t1, t2)\n\n            // round 56\n            t0 := addmod(t0, 9999044003322463509208400801275356671266978396985433172455084837770460579627, q)\n            t1 := addmod(t1, 4908416131442887573991189028182614782884545304889259793974797565686968097291, q)\n            t2 := addmod(t2, 11963412684806827200577486696316210731159599844307091475104710684559519773777, q)\n            t00 := mulmod(t0, t0, q)\n            t0, t1, t2 := mix(mulmod(t0, mulmod(t00, t00, q),q), t1, t2)\n\n            // round 57\n            t0 := addmod(t0, 20129916000261129180023520480843084814481184380399868943565043864970719708502, q)\n            t1 := addmod(t1, 12884788430473747619080473633364244616344003003135883061507342348586143092592, q)\n            t2 := addmod(t2, 20286808211545908191036106582330883564479538831989852602050135926112143921015, q)\n            t00 := mulmod(t0, t0, q)\n            t0, t1, t2 := mix(mulmod(t0, mulmod(t00, t00, q),q), t1, t2)\n\n            // round 58\n            t0 := addmod(t0, 16282045180030846845043407450751207026423331632332114205316676731302016331498, q)\n            t1 := addmod(t1, 4332932669439410887701725251009073017227450696965904037736403407953448682093, q)\n            t2 := addmod(t2, 11105712698773407689561953778861118250080830258196150686012791790342360778288, q)\n            t00 := mulmod(t0, t0, q)\n            t0, t1, t2 := mix(mulmod(t0, mulmod(t00, t00, q),q), t1, t2)\n\n            // round 59\n            t0 := addmod(t0, 21853934471586954540926699232107176721894655187276984175226220218852955976831, q)\n            t1 := addmod(t1, 9807888223112768841912392164376763820266226276821186661925633831143729724792, q)\n            t2 := addmod(t2, 13411808896854134882869416756427789378942943805153730705795307450368858622668, q)\n            t00 := mulmod(t0, t0, q)\n            t0, t1, t2 := mix(mulmod(t0, mulmod(t00, t00, q),q), t1, t2)\n\n            // round 60\n            t0 := addmod(t0, 17906847067500673080192335286161014930416613104209700445088168479205894040011, q)\n            t1 := addmod(t1, 14554387648466176616800733804942239711702169161888492380425023505790070369632, q)\n            t2 := addmod(t2, 4264116751358967409634966292436919795665643055548061693088119780787376143967, q)\n            t00 := mulmod(t0, t0, q)\n            t0, t1, t2 := mix(mulmod(t0, mulmod(t00, t00, q),q), t1, t2)\n\n            // round 61\n            t0 := addmod(t0, 2401104597023440271473786738539405349187326308074330930748109868990675625380, q)\n            t1 := addmod(t1, 12251645483867233248963286274239998200789646392205783056343767189806123148785, q)\n            t2 := addmod(t2, 15331181254680049984374210433775713530849624954688899814297733641575188164316, q)\n            t00 := mulmod(t0, t0, q)\n            t11 := mulmod(t1, t1, q)\n            t22 := mulmod(t2, t2, q)\n            t0, t1, t2 := mix(\n                mulmod(t0, mulmod(t00, t00, q),q),\n                mulmod(t1, mulmod(t11, t11, q),q), \n                mulmod(t2, mulmod(t22, t22, q),q))\n            // round 62\n            t0 := addmod(t0, 13108834590369183125338853868477110922788848506677889928217413952560148766472, q)\n            t1 := addmod(t1, 6843160824078397950058285123048455551935389277899379615286104657075620692224, q)\n            t2 := addmod(t2, 10151103286206275742153883485231683504642432930275602063393479013696349676320, q)\n            t00 := mulmod(t0, t0, q)\n            t11 := mulmod(t1, t1, q)\n            t22 := mulmod(t2, t2, q)\n            t0, t1, t2 := mix(\n                mulmod(t0, mulmod(t00, t00, q),q),\n                mulmod(t1, mulmod(t11, t11, q),q), \n                mulmod(t2, mulmod(t22, t22, q),q))\n            // round 63\n            t0 := addmod(t0, 7074320081443088514060123546121507442501369977071685257650287261047855962224, q)\n            t1 := addmod(t1, 11413928794424774638606755585641504971720734248726394295158115188173278890938, q)\n            t2 := addmod(t2, 7312756097842145322667451519888915975561412209738441762091369106604423801080, q)\n            t00 := mulmod(t0, t0, q)\n            t11 := mulmod(t1, t1, q)\n            t22 := mulmod(t2, t2, q)\n            t0, t1, t2 := mix(\n                mulmod(t0, mulmod(t00, t00, q),q),\n                mulmod(t1, mulmod(t11, t11, q),q), \n                mulmod(t2, mulmod(t22, t22, q),q))\n            // round 64\n            t0 := addmod(t0, 7181677521425162567568557182629489303281861794357882492140051324529826589361, q)\n            t1 := addmod(t1, 15123155547166304758320442783720138372005699143801247333941013553002921430306, q)\n            t2 := addmod(t2, 13409242754315411433193860530743374419854094495153957441316635981078068351329, q)\n            t00 := mulmod(t0, t0, q)\n            t11 := mulmod(t1, t1, q)\n            t22 := mulmod(t2, t2, q)\n        \n            t0 := addmod(\n                    addmod(\n                    mulmod(mulmod(t0, \n                        mulmod(t00, t00, q),q), 7511745149465107256748700652201246547602992235352608707588321460060273774987, q), \n                    mulmod(mulmod(t1, \n                        mulmod(t11, t11, q),q), 10370080108974718697676803824769673834027675643658433702224577712625900127200, q), q),\n                        mulmod(mulmod(t2, \n                            mulmod(t22, t22, q),q), 19705173408229649878903981084052839426532978878058043055305024233888854471533, q), q)\n\n        }\n        return t0;\n    }\n}\n",
  "sourcePath": "/app/contracts/Poseidon.sol",
  "compiler": {
    "name": "solc",
    "version": "0.8.17+commit.8df45f5f.Emscripten.clang"
  },
  "schemaVersion": "3.4.10",
  "updatedAt": "2022-12-08T15:25:52.198Z",
  "networkType": "ethereum",
  "devdoc": {
    "kind": "dev",
    "methods": {},
    "version": 1
  },
  "userdoc": {
    "kind": "user",
    "methods": {},
    "version": 1
  }
}