{
  "contractName": "Proposers",
  "abi": [
    {
      "inputs": [
        {
          "internalType": "bytes32",
          "name": "depositHash",
          "type": "bytes32"
        }
      ],
      "name": "DepositNotEscrowed",
      "type": "error"
    },
    {
      "inputs": [],
      "name": "InvalidBlockSize",
      "type": "error"
    },
    {
      "inputs": [],
      "name": "InvalidTransactionHash",
      "type": "error"
    },
    {
      "inputs": [],
      "name": "InvalidTransactionSize",
      "type": "error"
    },
    {
      "anonymous": false,
      "inputs": [],
      "name": "BlockProposed",
      "type": "event"
    },
    {
      "anonymous": false,
      "inputs": [
        {
          "indexed": false,
          "internalType": "bytes32",
          "name": "commitHash",
          "type": "bytes32"
        },
        {
          "indexed": false,
          "internalType": "address",
          "name": "sender",
          "type": "address"
        }
      ],
      "name": "CommittedToChallenge",
      "type": "event"
    },
    {
      "anonymous": false,
      "inputs": [
        {
          "indexed": false,
          "internalType": "uint8",
          "name": "version",
          "type": "uint8"
        }
      ],
      "name": "Initialized",
      "type": "event"
    },
    {
      "anonymous": false,
      "inputs": [
        {
          "indexed": false,
          "internalType": "bytes32",
          "name": "withdrawTransactionHash",
          "type": "bytes32"
        },
        {
          "indexed": false,
          "internalType": "address",
          "name": "paidBy",
          "type": "address"
        },
        {
          "indexed": false,
          "internalType": "uint256",
          "name": "amount",
          "type": "uint256"
        }
      ],
      "name": "InstantWithdrawalRequested",
      "type": "event"
    },
    {
      "anonymous": false,
      "inputs": [
        {
          "indexed": false,
          "internalType": "address",
          "name": "addr",
          "type": "address"
        }
      ],
      "name": "NewBootChallengerSet",
      "type": "event"
    },
    {
      "anonymous": false,
      "inputs": [
        {
          "indexed": false,
          "internalType": "address",
          "name": "addr",
          "type": "address"
        }
      ],
      "name": "NewBootProposerSet",
      "type": "event"
    },
    {
      "anonymous": false,
      "inputs": [
        {
          "indexed": false,
          "internalType": "address",
          "name": "proposer",
          "type": "address"
        }
      ],
      "name": "NewCurrentProposer",
      "type": "event"
    },
    {
      "anonymous": false,
      "inputs": [
        {
          "indexed": false,
          "internalType": "uint256",
          "name": "leafIndex",
          "type": "uint256"
        },
        {
          "indexed": false,
          "internalType": "bytes32",
          "name": "leafValue",
          "type": "bytes32"
        },
        {
          "indexed": false,
          "internalType": "bytes32",
          "name": "root",
          "type": "bytes32"
        }
      ],
      "name": "NewLeaf",
      "type": "event"
    },
    {
      "anonymous": false,
      "inputs": [
        {
          "indexed": false,
          "internalType": "uint256",
          "name": "minLeafIndex",
          "type": "uint256"
        },
        {
          "indexed": false,
          "internalType": "bytes32[]",
          "name": "leafValues",
          "type": "bytes32[]"
        },
        {
          "indexed": false,
          "internalType": "bytes32",
          "name": "root",
          "type": "bytes32"
        }
      ],
      "name": "NewLeaves",
      "type": "event"
    },
    {
      "anonymous": false,
      "inputs": [
        {
          "indexed": false,
          "internalType": "address",
          "name": "previousOwner",
          "type": "address"
        },
        {
          "indexed": false,
          "internalType": "address",
          "name": "newOwner",
          "type": "address"
        }
      ],
      "name": "OwnershipTransferred",
      "type": "event"
    },
    {
      "anonymous": false,
      "inputs": [
        {
          "indexed": false,
          "internalType": "uint64",
          "name": "blockNumberL2",
          "type": "uint64"
        }
      ],
      "name": "Rollback",
      "type": "event"
    },
    {
      "anonymous": false,
      "inputs": [
        {
          "indexed": false,
          "internalType": "address",
          "name": "ercAddress",
          "type": "address"
        },
        {
          "indexed": false,
          "internalType": "uint256",
          "name": "amount",
          "type": "uint256"
        }
      ],
      "name": "ShieldBalanceTransferred",
      "type": "event"
    },
    {
      "anonymous": false,
      "inputs": [],
      "name": "TransactionSubmitted",
      "type": "event"
    },
    {
      "inputs": [],
      "name": "_owner",
      "outputs": [
        {
          "internalType": "address",
          "name": "",
          "type": "address"
        }
      ],
      "stateMutability": "view",
      "type": "function",
      "constant": true
    },
    {
      "inputs": [],
      "name": "getBlockStake",
      "outputs": [
        {
          "internalType": "uint96",
          "name": "",
          "type": "uint96"
        }
      ],
      "stateMutability": "view",
      "type": "function",
      "constant": true
    },
    {
      "inputs": [],
      "name": "getBootChallenger",
      "outputs": [
        {
          "internalType": "address",
          "name": "",
          "type": "address"
        }
      ],
      "stateMutability": "view",
      "type": "function",
      "constant": true
    },
    {
      "inputs": [],
      "name": "getBootProposer",
      "outputs": [
        {
          "internalType": "address",
          "name": "",
          "type": "address"
        }
      ],
      "stateMutability": "view",
      "type": "function",
      "constant": true
    },
    {
      "inputs": [],
      "name": "getMaticAddress",
      "outputs": [
        {
          "internalType": "address",
          "name": "",
          "type": "address"
        }
      ],
      "stateMutability": "view",
      "type": "function",
      "constant": true
    },
    {
      "inputs": [],
      "name": "getMaxProposers",
      "outputs": [
        {
          "internalType": "uint256",
          "name": "",
          "type": "uint256"
        }
      ],
      "stateMutability": "view",
      "type": "function",
      "constant": true
    },
    {
      "inputs": [],
      "name": "getMinimumStake",
      "outputs": [
        {
          "internalType": "uint256",
          "name": "",
          "type": "uint256"
        }
      ],
      "stateMutability": "view",
      "type": "function",
      "constant": true
    },
    {
      "inputs": [],
      "name": "getProposerSetCount",
      "outputs": [
        {
          "internalType": "uint256",
          "name": "",
          "type": "uint256"
        }
      ],
      "stateMutability": "view",
      "type": "function",
      "constant": true
    },
    {
      "inputs": [
        {
          "internalType": "address",
          "name": "tokenAddr",
          "type": "address"
        }
      ],
      "name": "getRestrictionDeposit",
      "outputs": [
        {
          "internalType": "uint256",
          "name": "",
          "type": "uint256"
        }
      ],
      "stateMutability": "view",
      "type": "function",
      "constant": true
    },
    {
      "inputs": [
        {
          "internalType": "address",
          "name": "tokenAddr",
          "type": "address"
        }
      ],
      "name": "getRestrictionWithdraw",
      "outputs": [
        {
          "internalType": "uint256",
          "name": "",
          "type": "uint256"
        }
      ],
      "stateMutability": "view",
      "type": "function",
      "constant": true
    },
    {
      "inputs": [],
      "name": "getRotateProposerBlocks",
      "outputs": [
        {
          "internalType": "uint256",
          "name": "",
          "type": "uint256"
        }
      ],
      "stateMutability": "view",
      "type": "function",
      "constant": true
    },
    {
      "inputs": [],
      "name": "getSprintsInSpan",
      "outputs": [
        {
          "internalType": "uint256",
          "name": "",
          "type": "uint256"
        }
      ],
      "stateMutability": "view",
      "type": "function",
      "constant": true
    },
    {
      "inputs": [],
      "name": "owner",
      "outputs": [
        {
          "internalType": "address",
          "name": "",
          "type": "address"
        }
      ],
      "stateMutability": "view",
      "type": "function",
      "constant": true
    },
    {
      "inputs": [
        {
          "internalType": "address",
          "name": "tokenAddr",
          "type": "address"
        }
      ],
      "name": "removeRestriction",
      "outputs": [],
      "stateMutability": "nonpayable",
      "type": "function"
    },
    {
      "inputs": [
        {
          "internalType": "uint96",
          "name": "_blockStake",
          "type": "uint96"
        }
      ],
      "name": "setBlockStake",
      "outputs": [],
      "stateMutability": "nonpayable",
      "type": "function"
    },
    {
      "inputs": [
        {
          "internalType": "address",
          "name": "challenger",
          "type": "address"
        }
      ],
      "name": "setBootChallenger",
      "outputs": [],
      "stateMutability": "nonpayable",
      "type": "function"
    },
    {
      "inputs": [
        {
          "internalType": "address",
          "name": "proposer",
          "type": "address"
        }
      ],
      "name": "setBootProposer",
      "outputs": [],
      "stateMutability": "nonpayable",
      "type": "function"
    },
    {
      "inputs": [
        {
          "internalType": "address",
          "name": "_maticAddress",
          "type": "address"
        }
      ],
      "name": "setMaticAddress",
      "outputs": [],
      "stateMutability": "nonpayable",
      "type": "function"
    },
    {
      "inputs": [
        {
          "internalType": "uint256",
          "name": "_maxProposers",
          "type": "uint256"
        }
      ],
      "name": "setMaxProposers",
      "outputs": [],
      "stateMutability": "nonpayable",
      "type": "function"
    },
    {
      "inputs": [
        {
          "internalType": "uint96",
          "name": "_minimumStake",
          "type": "uint96"
        }
      ],
      "name": "setMinimumStake",
      "outputs": [],
      "stateMutability": "nonpayable",
      "type": "function"
    },
    {
      "inputs": [
        {
          "internalType": "uint256",
          "name": "_proposerSetCount",
          "type": "uint256"
        }
      ],
      "name": "setProposerSetCount",
      "outputs": [],
      "stateMutability": "nonpayable",
      "type": "function"
    },
    {
      "inputs": [
        {
          "internalType": "address",
          "name": "tokenAddr",
          "type": "address"
        },
        {
          "internalType": "uint256",
          "name": "depositAmount",
          "type": "uint256"
        },
        {
          "internalType": "uint256",
          "name": "withdrawAmount",
          "type": "uint256"
        }
      ],
      "name": "setRestriction",
      "outputs": [],
      "stateMutability": "nonpayable",
      "type": "function"
    },
    {
      "inputs": [
        {
          "internalType": "uint256",
          "name": "_rotateProposerBlocks",
          "type": "uint256"
        }
      ],
      "name": "setRotateProposerBlocks",
      "outputs": [],
      "stateMutability": "nonpayable",
      "type": "function"
    },
    {
      "inputs": [
        {
          "internalType": "uint256",
          "name": "_sprintsInSpan",
          "type": "uint256"
        }
      ],
      "name": "setSprintsInSpan",
      "outputs": [],
      "stateMutability": "nonpayable",
      "type": "function"
    },
    {
      "inputs": [
        {
          "internalType": "address payable",
          "name": "stateAddress",
          "type": "address"
        }
      ],
      "name": "setStateContract",
      "outputs": [],
      "stateMutability": "nonpayable",
      "type": "function"
    },
    {
      "inputs": [],
      "name": "state",
      "outputs": [
        {
          "internalType": "contract State",
          "name": "",
          "type": "address"
        }
      ],
      "stateMutability": "view",
      "type": "function",
      "constant": true
    },
    {
      "inputs": [
        {
          "internalType": "address",
          "name": "newOwner",
          "type": "address"
        }
      ],
      "name": "transferOwnership",
      "outputs": [],
      "stateMutability": "nonpayable",
      "type": "function"
    },
    {
      "inputs": [],
      "name": "initialize",
      "outputs": [],
      "stateMutability": "nonpayable",
      "type": "function"
    },
    {
      "inputs": [
        {
          "internalType": "string",
          "name": "url",
          "type": "string"
        },
        {
          "internalType": "uint256",
          "name": "fee",
          "type": "uint256"
        }
      ],
      "name": "registerProposer",
      "outputs": [],
      "stateMutability": "payable",
      "type": "function",
      "payable": true
    },
    {
      "inputs": [],
      "name": "deRegisterProposer",
      "outputs": [],
      "stateMutability": "nonpayable",
      "type": "function"
    },
    {
      "inputs": [],
      "name": "withdrawStake",
      "outputs": [],
      "stateMutability": "nonpayable",
      "type": "function"
    },
    {
      "inputs": [
        {
          "internalType": "string",
          "name": "url",
          "type": "string"
        },
        {
          "internalType": "uint256",
          "name": "fee",
          "type": "uint256"
        }
      ],
      "name": "updateProposer",
      "outputs": [],
      "stateMutability": "payable",
      "type": "function",
      "payable": true
    }
  ],
  "bytecode": "0x608060405234801561001057600080fd5b506126df806100206000396000f3fe6080604052600436106101735760003560e01c80630d60220114610178578063120f66df1461018d578063146eb222146101c057806328340f17146101e05780633195a4e71461020757806342646c681461022757806347f5a7dc1461024557806369a5b950146102585780638129fc1c1461027857806384afda191461028d578063875840ce146102ad578063894f7d62146102c25780638da5cb5b146102e25780639c0599ef146102f75780639c18de931461030c578063aa411d5b1461032c578063af52ca691461034c578063b0a9fd0f1461036c578063b0c9569a14610394578063b13a8c07146103a9578063b2bdfa7b146103c9578063bb7affc1146103e9578063bed9d86114610409578063bf2c94db1461041e578063c19d93fb1461043e578063c2c5bb6e14610464578063c300db9b14610484578063c83daadc146104a2578063d9bbd278146104b7578063efedffa8146104dc578063f2fde38b146104f1578063f560a79214610511575b600080fd5b61018b610186366004612076565b610531565b005b34801561019957600080fd5b506101ad6101a8366004612102565b61086e565b6040519081526020015b60405180910390f35b3480156101cc57600080fd5b5061018b6101db366004612126565b610891565b3480156101ec57600080fd5b506008546001600160a01b03165b6040516101b7919061213f565b34801561021357600080fd5b5061018b610222366004612126565b6108ce565b34801561023357600080fd5b506009546001600160a01b03166101fa565b61018b610253366004612076565b61090b565b34801561026457600080fd5b5061018b610273366004612102565b611464565b34801561028457600080fd5b5061018b6114bc565b34801561029957600080fd5b5061018b6102a8366004612102565b6115de565b3480156102b957600080fd5b506006546101ad565b3480156102ce57600080fd5b5061018b6102dd366004612153565b611697565b3480156102ee57600080fd5b506101fa6116f1565b34801561030357600080fd5b5061018b611700565b34801561031857600080fd5b5061018b61032736600461217c565b6118d1565b34801561033857600080fd5b5061018b610347366004612102565b61192c565b34801561035857600080fd5b5061018b610367366004612126565b611986565b34801561037857600080fd5b506003546040516001600160601b0390911681526020016101b7565b3480156103a057600080fd5b506007546101ad565b3480156103b557600080fd5b5061018b6103c4366004612153565b6119c3565b3480156103d557600080fd5b506002546101fa906001600160a01b031681565b3480156103f557600080fd5b5061018b610404366004612102565b611a23565b34801561041557600080fd5b5061018b611aa7565b34801561042a57600080fd5b5061018b610439366004612126565b611d97565b34801561044a57600080fd5b506000546101fa906201000090046001600160a01b031681565b34801561047057600080fd5b506101ad61047f366004612102565b611dd4565b34801561049057600080fd5b50600a546001600160a01b03166101fa565b3480156104ae57600080fd5b506004546101ad565b3480156104c357600080fd5b50600254600160a01b90046001600160601b03166101ad565b3480156104e857600080fd5b506005546101ad565b3480156104fd57600080fd5b5061018b61050c366004612102565b611df2565b34801561051d57600080fd5b5061018b61052c366004612102565b611e91565b6002600c540361055c5760405162461bcd60e51b8152600401610553906121b1565b60405180910390fd5b6002600c5560008054604051632146a5d360e21b8152620100009091046001600160a01b03169063851a974c9061059790339060040161213f565b600060405180830381865afa1580156105b4573d6000803e3d6000fd5b505050506040513d6000823e601f3d908101601f191682016040526105dc91908101906122f1565b516001600160a01b0316036106695760405162461bcd60e51b815260206004820152604760248201527f50726f706f736572733a20546869732070726f706f736572206973206e6f742060448201527f72656769737465726564206f7220796f7520617265206e6f74207468617420706064820152663937b837b9b2b960c91b608482015260a401610553565b60005460405163a029080560e01b8152620100009091046001600160a01b03169063a0290805906106a49033908790879087906004016123b8565b600060405180830381600087803b1580156106be57600080fd5b505af11580156106d2573d6000803e3d6000fd5b5050505060003411156108645760008054604051631c111daf60e01b8152620100009091046001600160a01b031690631c111daf9061071590339060040161213f565b606060405180830381865afa158015610732573d6000803e3d6000fd5b505050506040513d601f19601f820116820180604052508101906107569190612419565b9050348160000181815161076a91906124a5565b6001600160701b031690525060008054604051620100009091046001600160a01b031690349060006040518083038185875af1925050503d80600081146107cd576040519150601f19603f3d011682016040523d82523d6000602084013e6107d2565b606091505b50509050806107f35760405162461bcd60e51b8152600401610553906124cc565b60005482516020840151604051639227ae1560e01b8152620100009093046001600160a01b031692639227ae159261082f923392600401612501565b600060405180830381600087803b15801561084957600080fd5b505af115801561085d573d6000803e3d6000fd5b5050505050505b50506001600c5550565b6001600160a01b0381166000908152600b6020526040812060015b015492915050565b6108996116f1565b6001600160a01b0316336001600160a01b0316146108c95760405162461bcd60e51b81526004016105539061252b565b600555565b6108d66116f1565b6001600160a01b0316336001600160a01b0316146109065760405162461bcd60e51b81526004016105539061252b565b600755565b6002600c540361092d5760405162461bcd60e51b8152600401610553906121b1565b6002600c81905550600754600060029054906101000a90046001600160a01b03166001600160a01b03166353c9ad776040518163ffffffff1660e01b8152600401602060405180830381865afa15801561098b573d6000803e3d6000fd5b505050506040513d601f19601f820116820180604052508101906109af9190612579565b10610a125760405162461bcd60e51b815260206004820152602d60248201527f50726f706f736572733a204d6178206e756d626572206f66207265676973746560448201526c7265642070726f706f7365727360981b6064820152608401610553565b60008054604051631c111daf60e01b8152620100009091046001600160a01b031690631c111daf90610a4890339060040161213f565b606060405180830381865afa158015610a65573d6000803e3d6000fd5b505050506040513d601f19601f82011682018060405250810190610a899190612419565b90503481600001818151610a9d91906124a5565b6001600160701b0390811690915282516002549116600160a01b9091046001600160601b031611159050610b125760405162461bcd60e51b815260206004820152601c60248201527b50726f706f736572733a204e656564206d696e696d756d5374616b6560201b6044820152606401610553565b60008054604051632146a5d360e21b8152620100009091046001600160a01b03169063851a974c90610b4890339060040161213f565b600060405180830381865afa158015610b65573d6000803e3d6000fd5b505050506040513d6000823e601f3d908101601f19168201604052610b8d91908101906122f1565b516001600160a01b031614610bfb5760405162461bcd60e51b815260206004820152602e60248201527f50726f706f736572733a20546869732070726f706f73657220697320616c726560448201526d18591e481c9959da5cdd195c995960921b6064820152608401610553565b60008054604051620100009091046001600160a01b03169034908381818185875af1925050503d8060008114610c4d576040519150601f19603f3d011682016040523d82523d6000602084013e610c52565b606091505b5050905080610c735760405162461bcd60e51b8152600401610553906124cc565b60005482516020840151604051639227ae1560e01b8152620100009093046001600160a01b031692639227ae1592610caf923392600401612501565b600060405180830381600087803b158015610cc957600080fd5b505af1158015610cdd573d6000803e3d6000fd5b5050505060008060029054906101000a90046001600160a01b03166001600160a01b0316633b10244b6040518163ffffffff1660e01b8152600401600060405180830381865afa158015610d35573d6000803e3d6000fd5b505050506040513d6000823e601f3d908101601f19168201604052610d5d91908101906122f1565b80519091506001600160a01b0316610f60576040518060e00160405280336001600160a01b03168152602001336001600160a01b03168152602001336001600160a01b0316815260200187878080601f01602080910402602001604051908101604052809392919081815260200183838082843760009201829052509385525050506020820187905260408083018290526060909201819052549051630fc7c57f60e21b81529192506201000090046001600160a01b031690633f1f15fc90610e2c90339085906004016125be565b600060405180830381600087803b158015610e4657600080fd5b505af1158015610e5a573d6000803e3d6000fd5b5050600054604051638a7ee83d60e01b8152436004820152620100009091046001600160a01b03169250638a7ee83d9150602401600060405180830381600087803b158015610ea857600080fd5b505af1158015610ebc573d6000803e3d6000fd5b5050600054604051631529caa160e31b815260016004820152620100009091046001600160a01b0316925063a94e55089150602401600060405180830381600087803b158015610f0b57600080fd5b505af1158015610f1f573d6000803e3d6000fd5b505082516040517feaa94fa30970548bf8b78ce068ba600b923a4a62ce3c523d09bf308102ff1bab9350610f53925061213f565b60405180910390a16113f0565b60008054604051632146a5d360e21b8152620100009091046001600160a01b03169063851a974c90610f9690339060040161213f565b600060405180830381865afa158015610fb3573d6000803e3d6000fd5b505050506040513d6000823e601f3d908101601f19168201604052610fdb91908101906122f1565b516001600160a01b0316036113f0576040805160e081018252600060208083018281528385018381526060808601526080850184905260a0850184905260c085019390935233845285516001600160a01b03908116909352858201519092169091528251601f89018290048202810182019093528783529091908890889081908401838280828437600092018290525060608601949094525050506080820186905280546020840151604051632146a5d360e21b8152620100009092046001600160a01b03169163851a974c916110b49160040161213f565b600060405180830381865afa1580156110d1573d6000803e3d6000fd5b505050506040513d6000823e601f3d908101601f191682016040526110f991908101906122f1565b600080548551604051632146a5d360e21b81529394509192620100009091046001600160a01b03169163851a974c91611135919060040161213f565b600060405180830381865afa158015611152573d6000803e3d6000fd5b505050506040513d6000823e601f3d908101601f1916820160405261117a91908101906122f1565b83516001600160a01b0390811660408501528451811660208301528151845192935081169116036111b65782516001600160a01b031660408201525b80935080600001516001600160a01b031682600001516001600160a01b031614611244576000548251604051630fc7c57f60e21b8152620100009092046001600160a01b031691633f1f15fc916112119186906004016125be565b600060405180830381600087803b15801561122b57600080fd5b505af115801561123f573d6000803e3d6000fd5b505050505b6000548151604051630fc7c57f60e21b8152620100009092046001600160a01b031691633f1f15fc9161127b9185906004016125be565b600060405180830381600087803b15801561129557600080fd5b505af11580156112a9573d6000803e3d6000fd5b5050600054604051630fc7c57f60e21b8152620100009091046001600160a01b03169250633f1f15fc91506112e490339087906004016125be565b600060405180830381600087803b1580156112fe57600080fd5b505af1158015611312573d6000803e3d6000fd5b5050600054604080516353c9ad7760e01b81529051620100009092046001600160a01b0316935063a94e5508925083916353c9ad77916004808201926020929091908290030181865afa15801561136d573d6000803e3d6000fd5b505050506040513d601f19601f820116820180604052508101906113919190612579565b61139c906001612645565b6040518263ffffffff1660e01b81526004016113ba91815260200190565b600060405180830381600087803b1580156113d457600080fd5b505af11580156113e8573d6000803e3d6000fd5b505050505050505b60005481516040516338acb0c360e21b8152620100009092046001600160a01b03169163e2b2c30c916114259160040161213f565b600060405180830381600087803b15801561143f57600080fd5b505af1158015611453573d6000803e3d6000fd5b50506001600c555050505050505050565b61146c6116f1565b6001600160a01b0316336001600160a01b03161461149c5760405162461bcd60e51b81526004016105539061252b565b6001600160a01b03166000908152600b6020526040812081815560010155565b600054610100900460ff16158080156114dc5750600054600160ff909116105b806114f65750303b1580156114f6575060005460ff166001145b6115595760405162461bcd60e51b815260206004820152602e60248201527f496e697469616c697a61626c653a20636f6e747261637420697320616c72656160448201526d191e481a5b9a5d1a585b1a5e995960921b6064820152608401610553565b6000805460ff19166001179055801561157c576000805461ff0019166101001790555b611584611f15565b61158c611f57565b611594611fc5565b80156115db576000805461ff0019169055604051600181527f7f26b83ff96e1f2b6a682f133852f6798a09c465da95921460cefb3847402498906020015b60405180910390a15b50565b6001546001600160a01b0316331480156116025750600154600160a01b900460ff16155b61165a5760405162461bcd60e51b815260206004820152602360248201527f4f6e6c7920746865206f776e65722063616e2063616c6c20746869732c206f6e60448201526231b29760e91b6064820152608401610553565b6001805460ff60a01b1916600160a01b179055600080546001600160a01b03909216620100000262010000600160b01b0319909216919091179055565b61169f6116f1565b6001600160a01b0316336001600160a01b0316146116cf5760405162461bcd60e51b81526004016105539061252b565b600380546001600160601b0319166001600160601b0392909216919091179055565b6002546001600160a01b031690565b6002600c54036117225760405162461bcd60e51b8152600401610553906121b1565b6002600c5560008054604051632146a5d360e21b8152620100009091046001600160a01b03169063851a974c9061175d90339060040161213f565b600060405180830381865afa15801561177a573d6000803e3d6000fd5b505050506040513d6000823e601f3d908101601f191682016040526117a291908101906122f1565b516001600160a01b0316036117f55760405162461bcd60e51b8152602060048201526019602482015278283937b837b9b2b9399d102737ba103090383937b837b9b2b960391b6044820152606401610553565b6000546040516309d632d360e01b8152620100009091046001600160a01b0316906309d632d39061182a90339060040161213f565b600060405180830381600087803b15801561184457600080fd5b505af1158015611858573d6000803e3d6000fd5b5050600054604051630db12df560e01b815233600482015263ffffffff42166024820152620100009091046001600160a01b03169250630db12df59150604401600060405180830381600087803b1580156118b257600080fd5b505af11580156118c6573d6000803e3d6000fd5b50506001600c555050565b6118d96116f1565b6001600160a01b0316336001600160a01b0316146119095760405162461bcd60e51b81526004016105539061252b565b6001600160a01b03929092166000908152600b6020526040902090815560010155565b6119346116f1565b6001600160a01b0316336001600160a01b0316146119645760405162461bcd60e51b81526004016105539061252b565b600a80546001600160a01b0319166001600160a01b0392909216919091179055565b61198e6116f1565b6001600160a01b0316336001600160a01b0316146119be5760405162461bcd60e51b81526004016105539061252b565b600655565b6119cb6116f1565b6001600160a01b0316336001600160a01b0316146119fb5760405162461bcd60e51b81526004016105539061252b565b600280546001600160601b03909216600160a01b026001600160a01b03909216919091179055565b611a2b6116f1565b6001600160a01b0316336001600160a01b031614611a5b5760405162461bcd60e51b81526004016105539061252b565b600880546001600160a01b0319166001600160a01b0383169081179091556040517f5544fd39820f90f9fc4b238e0eaaf1b5ece21e6dbb69a2b0824a16876e6d0efd916115d29161213f565b60008054604051631c111daf60e01b8152620100009091046001600160a01b031690631c111daf90611add90339060040161213f565b606060405180830381865afa158015611afa573d6000803e3d6000fd5b505050506040513d601f19601f82011682018060405250810190611b1e9190612419565b90504262093a80826040015163ffffffff16611b3a9190612645565b10611b995760405162461bcd60e51b815260206004820152602960248201527f50726f706f736572733a20546f6f20736f6f6e20746f20776974686472617720604482015268746865207374616b6560b81b6064820152608401610553565b60008054604051632146a5d360e21b8152620100009091046001600160a01b03169063851a974c90611bcf90339060040161213f565b600060405180830381865afa158015611bec573d6000803e3d6000fd5b505050506040513d6000823e601f3d908101601f19168201604052611c1491908101906122f1565b516001600160a01b031614611c885760405162461bcd60e51b815260206004820152603460248201527f50726f706f736572733a2043616e6e6f74207769746864726177207768696c656044820152731039ba30b5b4b7339030b990383937b837b9b2b960611b6064820152608401610553565b60008054604051639227ae1560e01b81523360048201526024810183905260448101929092526201000090046001600160a01b031690639227ae1590606401600060405180830381600087803b158015611ce157600080fd5b505af1158015611cf5573d6000803e3d6000fd5b505060005460208401518451620100009092046001600160a01b03169350639aa0758692503391611d2691906124a5565b6040516001600160e01b031960e085901b1681526001600160a01b0390921660048301526001600160701b0316602482015260006044820152606401600060405180830381600087803b158015611d7c57600080fd5b505af1158015611d90573d6000803e3d6000fd5b5050505050565b611d9f6116f1565b6001600160a01b0316336001600160a01b031614611dcf5760405162461bcd60e51b81526004016105539061252b565b600455565b6001600160a01b0381166000908152600b6020526040812081610889565b611dfa6116f1565b6001600160a01b0316336001600160a01b031614611e2a5760405162461bcd60e51b81526004016105539061252b565b6001600160a01b038116611e3d57600080fd5b7f8be0079c531659141344cd1fd0a4f28419497f9722a3daafe3b4186f6b6457e0611e666116f1565b604080516001600160a01b03928316815291841660208301520160405180910390a16115db81611ff6565b611e996116f1565b6001600160a01b0316336001600160a01b031614611ec95760405162461bcd60e51b81526004016105539061252b565b600980546001600160a01b0319166001600160a01b0383169081179091556040517f210cff5548618e71293ea0d4f1f3563a68e78f00273f3acd97014aac2442ed24916115d29161213f565b600054610100900460ff16611f3c5760405162461bcd60e51b81526004016105539061265e565b600180546001600160a81b0319163360ff60a01b1916179055565b600054610100900460ff16611f7e5760405162461bcd60e51b81526004016105539061265e565b611f86612018565b600280546001600160a01b0316613d0960a61b179055600380546001600160601b03191660011790556020600455600a60058190556006556064600755565b600054610100900460ff16611fec5760405162461bcd60e51b81526004016105539061265e565b611ff4612048565b565b600280546001600160a01b0319166001600160a01b0392909216919091179055565b600054610100900460ff1661203f5760405162461bcd60e51b81526004016105539061265e565b611ff433611ff6565b600054610100900460ff1661206f5760405162461bcd60e51b81526004016105539061265e565b6001600c55565b60008060006040848603121561208b57600080fd5b83356001600160401b03808211156120a257600080fd5b818601915086601f8301126120b657600080fd5b8135818111156120c557600080fd5b8760208285010111156120d757600080fd5b6020928301989097509590910135949350505050565b6001600160a01b03811681146115db57600080fd5b60006020828403121561211457600080fd5b813561211f816120ed565b9392505050565b60006020828403121561213857600080fd5b5035919050565b6001600160a01b0391909116815260200190565b60006020828403121561216557600080fd5b81356001600160601b038116811461211f57600080fd5b60008060006060848603121561219157600080fd5b833561219c816120ed565b95602085013595506040909401359392505050565b6020808252601f908201527f5265656e7472616e637947756172643a207265656e7472616e742063616c6c00604082015260600190565b634e487b7160e01b600052604160045260246000fd5b60405160e081016001600160401b0381118282101715612220576122206121e8565b60405290565b8051612231816120ed565b919050565b60005b83811015612251578181015183820152602001612239565b50506000910152565b600082601f83011261226b57600080fd5b81516001600160401b0380821115612285576122856121e8565b604051601f8301601f19908116603f011681019082821181831017156122ad576122ad6121e8565b816040528381528660208588010111156122c657600080fd5b6122d7846020830160208901612236565b9695505050505050565b8051801515811461223157600080fd5b60006020828403121561230357600080fd5b81516001600160401b038082111561231a57600080fd5b9083019060e0828603121561232e57600080fd5b6123366121fe565b61233f83612226565b815261234d60208401612226565b602082015261235e60408401612226565b604082015260608301518281111561237557600080fd5b6123818782860161225a565b6060830152506080830151608082015261239d60a084016122e1565b60a082015260c083015160c082015280935050505092915050565b6001600160a01b038516815260606020820181905281018390528284608083013760006080848301015260006080601f19601f860116830101905082604083015295945050505050565b80516001600160701b038116811461223157600080fd5b60006060828403121561242b57600080fd5b604051606081016001600160401b038111828210171561244d5761244d6121e8565b60405261245983612402565b815261246760208401612402565b6020820152604083015163ffffffff8116811461248357600080fd5b60408201529392505050565b634e487b7160e01b600052601160045260246000fd5b6001600160701b038181168382160190808211156124c5576124c561248f565b5092915050565b6020808252601b908201527a283937b837b9b2b9399d102a3930b739b332b9103330b4b632b21760291b604082015260600190565b6001600160a01b039390931683526001600160701b03918216602084015216604082015260600190565b6020808252602e908201527f596f7520617265206e6f7420617574686f726973656420746f20696e766f6b6560408201526d103a3434b990333ab731ba34b7b760911b606082015260800190565b60006020828403121561258b57600080fd5b5051919050565b600081518084526125aa816020860160208601612236565b601f01601f19169290920160200192915050565b600060018060a01b0380851683526040602084015280845116604084015280602085015116606084015280604085015116608084015250606083015160e060a084015261260f610120840182612592565b9050608084015160c084015260a084015161262e60e085018215159052565b5060c0840151610100840152809150509392505050565b808201808211156126585761265861248f565b92915050565b6020808252602b908201527f496e697469616c697a61626c653a20636f6e7472616374206973206e6f74206960408201526a6e697469616c697a696e6760a81b60608201526080019056fea2646970667358221220cb1488fd2dfe64f07177eb1e310e0495ea83dedc925e75be18521ac987d38c7864736f6c63430008110033",
  "immutableReferences": {},
  "source": "// SPDX-License-Identifier: CC0\nimport '@openzeppelin/contracts-upgradeable/security/ReentrancyGuardUpgradeable.sol';\n/*\nContract to manage the creation and managment of Proposals\n*/\npragma solidity ^0.8.0;\n\nimport './Config.sol';\nimport './Utils.sol';\nimport './Stateful.sol';\n\ncontract Proposers is Stateful, Config, ReentrancyGuardUpgradeable {\n    function initialize() public override(Stateful, Config) initializer {\n        Stateful.initialize();\n        Config.initialize();\n        ReentrancyGuardUpgradeable.__ReentrancyGuard_init();\n    }\n\n    /**\n     @dev register proposer with stake  \n     */\n    function registerProposer(string calldata url, uint256 fee) external payable nonReentrant {\n        require(\n            state.numProposers() < maxProposers,\n            'Proposers: Max number of registered proposers'\n        );\n        TimeLockedStake memory stake = state.getStakeAccount(msg.sender);\n        stake.amount += uint112(msg.value);\n        require(minimumStake <= stake.amount, 'Proposers: Need minimumStake');\n        require(\n            state.getProposer(msg.sender).thisAddress == address(0),\n            'Proposers: This proposer is already registered'\n        );\n\n        // send the stake to the state contract\n        (bool success, ) = payable(address(state)).call{value: msg.value}('');\n        require(success, 'Proposers: Transfer failed.');\n        state.setStakeAccount(msg.sender, stake.amount, stake.challengeLocked);\n\n        LinkedAddress memory currentProposer = state.getCurrentProposer();\n        // cope with this being the first proposer\n        if (currentProposer.thisAddress == address(0)) {\n            currentProposer = LinkedAddress(msg.sender, msg.sender, msg.sender, url, fee, false, 0);\n            state.setProposer(msg.sender, currentProposer);\n            state.setProposerStartBlock(block.number);\n            state.setNumProposers(1);\n            emit NewCurrentProposer(currentProposer.thisAddress);\n        } else {\n            // only if it's not a proposer yet\n            if (state.getProposer(msg.sender).thisAddress == address(0)) {\n                // else, splice the new proposer into the circular linked list of proposers just behind the current proposer\n                // assume current proposer is (x,A,z) address of this proposer is B\n                LinkedAddress memory proposer; // proposer: (_,_,_)\n                proposer.thisAddress = msg.sender; // proposer: (_,B,_)\n                proposer.nextAddress = currentProposer.thisAddress; // proposer: (_,B,A)\n                proposer.previousAddress = currentProposer.previousAddress; // proposer: (x,B,A)\n                proposer.url = url;\n                proposer.fee = fee;\n                // pull global state\n                LinkedAddress memory proposersPrevious = state.getProposer(\n                    currentProposer.previousAddress\n                );\n                LinkedAddress memory proposersCurrent = state.getProposer(\n                    currentProposer.thisAddress\n                );\n                // updated the pulled state\n                proposersPrevious.nextAddress = proposer.thisAddress; // X: (u,v,B)\n                proposersCurrent.previousAddress = proposer.thisAddress; // current: (B,A,z)\n                if (proposersPrevious.thisAddress == proposersCurrent.thisAddress) {\n                    // case register second proposer\n                    proposersCurrent.nextAddress = proposer.thisAddress; // previous and next Address is the second proposer\n                }\n                currentProposer = proposersCurrent; // ensure sync: currentProposer: (B,A,z)\n                // set global state to new values\n                if (proposersPrevious.thisAddress != proposersCurrent.thisAddress) {\n                    // not case register second proposer\n                    state.setProposer(proposersPrevious.thisAddress, proposersPrevious);\n                }\n                state.setProposer(proposersCurrent.thisAddress, proposersCurrent);\n                state.setProposer(msg.sender, proposer);\n                state.setNumProposers(state.numProposers() + 1);\n            }\n        }\n        state.setCurrentProposer(currentProposer.thisAddress);\n    }\n\n    // Proposers are allowed to deregister themselves at any point (even if they are the current proposer)\n    // However, their stake is only withdrawable after the CHALLENGE_PERIOD has passed. This ensures\n    // they are not the proposer of any blocks that could be challenged.\n    function deRegisterProposer() external nonReentrant {\n        require(\n            state.getProposer(msg.sender).thisAddress != address(0),\n            'Proposers: Not a proposer'\n        );\n        state.removeProposer(msg.sender);\n        // The msg.sender has to wait a CHALLENGE_PERIOD from current block.timestamp\n        state.updateStakeAccountTime(msg.sender, uint32(block.timestamp));\n    }\n\n    function withdrawStake() external {\n        TimeLockedStake memory stake = state.getStakeAccount(msg.sender);\n        require(\n            stake.time + CHALLENGE_PERIOD < block.timestamp,\n            'Proposers: Too soon to withdraw the stake'\n        );\n        require(\n            state.getProposer(msg.sender).thisAddress == address(0),\n            'Proposers: Cannot withdraw while staking as proposer'\n        );\n        // Zero out the entry in the stake escrow\n        state.setStakeAccount(msg.sender, 0, 0);\n        // We have waited a CHALLENGE_PERIOD so we can also withdraw the pending challengeLocked still pending\n        state.addPendingWithdrawal(msg.sender, uint120(stake.amount + stake.challengeLocked), 0);\n    }\n\n    // Proposers can change REST API URL or increment stake\n    function updateProposer(string calldata url, uint256 fee) external payable nonReentrant {\n        require(\n            state.getProposer(msg.sender).thisAddress != address(0),\n            'Proposers: This proposer is not registered or you are not that proposer'\n        );\n        state.updateProposer(msg.sender, url, fee);\n        if (msg.value > 0) {\n            TimeLockedStake memory stake = state.getStakeAccount(msg.sender);\n            stake.amount += uint112(msg.value);\n\n            // send the stake to the state contract\n            (bool success, ) = payable(address(state)).call{value: msg.value}('');\n            require(success, 'Proposers: Transfer failed.');\n            state.setStakeAccount(msg.sender, stake.amount, stake.challengeLocked);\n        }\n    }\n}\n",
  "sourcePath": "/app/contracts/Proposers.sol",
  "compiler": {
    "name": "solc",
    "version": "0.8.17+commit.8df45f5f.Emscripten.clang"
  },
  "schemaVersion": "3.4.10",
  "updatedAt": "2022-12-08T15:25:52.240Z",
  "networkType": "ethereum",
  "devdoc": {
    "kind": "dev",
    "methods": {
      "getBlockStake()": {
        "details": "Get block stake for a proposer"
      },
      "getBootChallenger()": {
        "details": "Get boot challenger address"
      },
      "getBootProposer()": {
        "details": "Get boot proposer address"
      },
      "getMaticAddress()": {
        "details": "Get Matic address (fee token for proposers payment)"
      },
      "getMaxProposers()": {
        "details": "Get maximum number of proposers"
      },
      "getMinimumStake()": {
        "details": "Get minimum stake for a proposer"
      },
      "getProposerSetCount()": {
        "details": "Get proposerset count in PoS"
      },
      "getRotateProposerBlocks()": {
        "details": "Get rotate proposer blocks for the current proposer"
      },
      "getSprintsInSpan()": {
        "details": "Get sprints in span in PoS"
      },
      "owner()": {
        "details": "Tells the address of the owner",
        "returns": {
          "_0": "the address of the owner"
        }
      },
      "registerProposer(string,uint256)": {
        "details": "register proposer with stake  "
      },
      "removeRestriction(address)": {
        "details": "Remove token restriction"
      },
      "setBlockStake(uint96)": {
        "details": "Set block stake for a proposer"
      },
      "setBootChallenger(address)": {
        "details": "Set boot challenger address"
      },
      "setBootProposer(address)": {
        "details": "Set boot proposer address"
      },
      "setMaticAddress(address)": {
        "details": "Set Matic address (fee token for proposers payment)"
      },
      "setMaxProposers(uint256)": {
        "details": "Set maximum number of proposers"
      },
      "setMinimumStake(uint96)": {
        "details": "Set minimum stake for a proposer"
      },
      "setProposerSetCount(uint256)": {
        "details": "Set proposerset count in PoS"
      },
      "setRestriction(address,uint256,uint256)": {
        "details": "Set token restriction"
      },
      "setRotateProposerBlocks(uint256)": {
        "details": "Set rotate proposer blocks for the current proposer"
      },
      "setSprintsInSpan(uint256)": {
        "details": "Set sprints in span in PoS"
      },
      "transferOwnership(address)": {
        "details": "Allows the current owner to transfer control of the contract to a newOwner.",
        "params": {
          "newOwner": "The address to transfer ownership to."
        }
      }
    },
    "version": 1
  },
  "userdoc": {
    "events": {
      "NewLeaf(uint256,bytes32,bytes32)": {
        "notice": "These events are what the merkle-tree microservice's filters will listen for."
      }
    },
    "kind": "user",
    "methods": {},
    "version": 1
  }
}