{
  "contractName": "SanctionsListMock",
  "abi": [
    {
      "inputs": [
        {
          "internalType": "address",
          "name": "_sanctionedUser",
          "type": "address"
        }
      ],
      "stateMutability": "nonpayable",
      "type": "constructor"
    },
    {
      "inputs": [
        {
          "internalType": "address",
          "name": "user",
          "type": "address"
        }
      ],
      "name": "isSanctioned",
      "outputs": [
        {
          "internalType": "bool",
          "name": "",
          "type": "bool"
        }
      ],
      "stateMutability": "view",
      "type": "function",
      "constant": true
    }
  ],
  "bytecode": "0x608060405234801561001057600080fd5b5060405161016c38038061016c83398101604081905261002f91610054565b600080546001600160a01b0319166001600160a01b0392909216919091179055610084565b60006020828403121561006657600080fd5b81516001600160a01b038116811461007d57600080fd5b9392505050565b60da806100926000396000f3fe6080604052348015600f57600080fd5b506004361060285760003560e01c8063df592f7d14602d575b600080fd5b603c60383660046076565b6050565b604051901515815260200160405180910390f35b600080546001600160a01b0390811690831603606e57506001919050565b506000919050565b600060208284031215608757600080fd5b81356001600160a01b0381168114609d57600080fd5b939250505056fea264697066735822122039145d3d08274621fb398d4ae552becc08d58b4d402285a60f42c982deb8c29564736f6c63430008110033",
  "immutableReferences": {},
  "source": "// SPDX-License-Identifier: CC0-1.0\n\npragma solidity ^0.8.9;\n\nimport '../SanctionsListInterface.sol';\n\ncontract SanctionsListMock is SanctionsListInterface {\n    address sanctionedUser;\n    constructor(address _sanctionedUser) {\n        sanctionedUser = _sanctionedUser;\n    }\n    function isSanctioned(address user) external view returns (bool) {\n        if (user == sanctionedUser) return true;\n        return false;\n    }\n}",
  "sourcePath": "/app/contracts/mocks/SanctionsListMock.sol",
  "compiler": {
    "name": "solc",
    "version": "0.8.17+commit.8df45f5f.Emscripten.clang"
  },
  "schemaVersion": "3.4.10",
  "updatedAt": "2022-12-17T07:56:01.760Z",
  "networkType": "ethereum",
  "devdoc": {
    "kind": "dev",
    "methods": {},
    "version": 1
  },
  "userdoc": {
    "kind": "user",
    "methods": {},
    "version": 1
  }
}