{
  "contractName": "Shield",
  "abi": [
    {
      "inputs": [
        {
          "internalType": "bytes32",
          "name": "depositHash",
          "type": "bytes32"
        }
      ],
      "name": "DepositNotEscrowed",
      "type": "error"
    },
    {
      "inputs": [],
      "name": "InvalidBlockSize",
      "type": "error"
    },
    {
      "inputs": [],
      "name": "InvalidTransactionHash",
      "type": "error"
    },
    {
      "inputs": [],
      "name": "InvalidTransactionSize",
      "type": "error"
    },
    {
      "anonymous": false,
      "inputs": [],
      "name": "BlockProposed",
      "type": "event"
    },
    {
      "anonymous": false,
      "inputs": [
        {
          "indexed": false,
          "internalType": "bytes32",
          "name": "commitHash",
          "type": "bytes32"
        },
        {
          "indexed": false,
          "internalType": "address",
          "name": "sender",
          "type": "address"
        }
      ],
      "name": "CommittedToChallenge",
      "type": "event"
    },
    {
      "anonymous": false,
      "inputs": [
        {
          "indexed": false,
          "internalType": "uint8",
          "name": "version",
          "type": "uint8"
        }
      ],
      "name": "Initialized",
      "type": "event"
    },
    {
      "anonymous": false,
      "inputs": [
        {
          "indexed": false,
          "internalType": "bytes32",
          "name": "withdrawTransactionHash",
          "type": "bytes32"
        },
        {
          "indexed": false,
          "internalType": "address",
          "name": "paidBy",
          "type": "address"
        },
        {
          "indexed": false,
          "internalType": "uint256",
          "name": "amount",
          "type": "uint256"
        }
      ],
      "name": "InstantWithdrawalRequested",
      "type": "event"
    },
    {
      "anonymous": false,
      "inputs": [
        {
          "indexed": false,
          "internalType": "address",
          "name": "addr",
          "type": "address"
        }
      ],
      "name": "NewBootChallengerSet",
      "type": "event"
    },
    {
      "anonymous": false,
      "inputs": [
        {
          "indexed": false,
          "internalType": "address",
          "name": "addr",
          "type": "address"
        }
      ],
      "name": "NewBootProposerSet",
      "type": "event"
    },
    {
      "anonymous": false,
      "inputs": [
        {
          "indexed": false,
          "internalType": "address",
          "name": "proposer",
          "type": "address"
        }
      ],
      "name": "NewCurrentProposer",
      "type": "event"
    },
    {
      "anonymous": false,
      "inputs": [
        {
          "indexed": false,
          "internalType": "uint256",
          "name": "leafIndex",
          "type": "uint256"
        },
        {
          "indexed": false,
          "internalType": "bytes32",
          "name": "leafValue",
          "type": "bytes32"
        },
        {
          "indexed": false,
          "internalType": "bytes32",
          "name": "root",
          "type": "bytes32"
        }
      ],
      "name": "NewLeaf",
      "type": "event"
    },
    {
      "anonymous": false,
      "inputs": [
        {
          "indexed": false,
          "internalType": "uint256",
          "name": "minLeafIndex",
          "type": "uint256"
        },
        {
          "indexed": false,
          "internalType": "bytes32[]",
          "name": "leafValues",
          "type": "bytes32[]"
        },
        {
          "indexed": false,
          "internalType": "bytes32",
          "name": "root",
          "type": "bytes32"
        }
      ],
      "name": "NewLeaves",
      "type": "event"
    },
    {
      "anonymous": false,
      "inputs": [
        {
          "indexed": false,
          "internalType": "address",
          "name": "previousOwner",
          "type": "address"
        },
        {
          "indexed": false,
          "internalType": "address",
          "name": "newOwner",
          "type": "address"
        }
      ],
      "name": "OwnershipTransferred",
      "type": "event"
    },
    {
      "anonymous": false,
      "inputs": [
        {
          "indexed": false,
          "internalType": "address",
          "name": "account",
          "type": "address"
        }
      ],
      "name": "Paused",
      "type": "event"
    },
    {
      "anonymous": false,
      "inputs": [
        {
          "indexed": false,
          "internalType": "uint64",
          "name": "blockNumberL2",
          "type": "uint64"
        }
      ],
      "name": "Rollback",
      "type": "event"
    },
    {
      "anonymous": false,
      "inputs": [
        {
          "indexed": false,
          "internalType": "address",
          "name": "ercAddress",
          "type": "address"
        },
        {
          "indexed": false,
          "internalType": "uint256",
          "name": "amount",
          "type": "uint256"
        }
      ],
      "name": "ShieldBalanceTransferred",
      "type": "event"
    },
    {
      "anonymous": false,
      "inputs": [],
      "name": "TransactionSubmitted",
      "type": "event"
    },
    {
      "anonymous": false,
      "inputs": [
        {
          "indexed": false,
          "internalType": "address",
          "name": "account",
          "type": "address"
        }
      ],
      "name": "Unpaused",
      "type": "event"
    },
    {
      "inputs": [],
      "name": "_owner",
      "outputs": [
        {
          "internalType": "address",
          "name": "",
          "type": "address"
        }
      ],
      "stateMutability": "view",
      "type": "function",
      "constant": true
    },
    {
      "inputs": [
        {
          "internalType": "bytes32",
          "name": "",
          "type": "bytes32"
        }
      ],
      "name": "advancedWithdrawals",
      "outputs": [
        {
          "internalType": "address",
          "name": "currentOwner",
          "type": "address"
        },
        {
          "internalType": "uint88",
          "name": "advanceFee",
          "type": "uint88"
        },
        {
          "internalType": "bool",
          "name": "isWithdrawn",
          "type": "bool"
        }
      ],
      "stateMutability": "view",
      "type": "function",
      "constant": true
    },
    {
      "inputs": [],
      "name": "getBlockStake",
      "outputs": [
        {
          "internalType": "uint96",
          "name": "",
          "type": "uint96"
        }
      ],
      "stateMutability": "view",
      "type": "function",
      "constant": true
    },
    {
      "inputs": [],
      "name": "getBootChallenger",
      "outputs": [
        {
          "internalType": "address",
          "name": "",
          "type": "address"
        }
      ],
      "stateMutability": "view",
      "type": "function",
      "constant": true
    },
    {
      "inputs": [],
      "name": "getBootProposer",
      "outputs": [
        {
          "internalType": "address",
          "name": "",
          "type": "address"
        }
      ],
      "stateMutability": "view",
      "type": "function",
      "constant": true
    },
    {
      "inputs": [],
      "name": "getMaticAddress",
      "outputs": [
        {
          "internalType": "address",
          "name": "",
          "type": "address"
        }
      ],
      "stateMutability": "view",
      "type": "function",
      "constant": true
    },
    {
      "inputs": [],
      "name": "getMaxProposers",
      "outputs": [
        {
          "internalType": "uint256",
          "name": "",
          "type": "uint256"
        }
      ],
      "stateMutability": "view",
      "type": "function",
      "constant": true
    },
    {
      "inputs": [],
      "name": "getMinimumStake",
      "outputs": [
        {
          "internalType": "uint256",
          "name": "",
          "type": "uint256"
        }
      ],
      "stateMutability": "view",
      "type": "function",
      "constant": true
    },
    {
      "inputs": [],
      "name": "getProposerSetCount",
      "outputs": [
        {
          "internalType": "uint256",
          "name": "",
          "type": "uint256"
        }
      ],
      "stateMutability": "view",
      "type": "function",
      "constant": true
    },
    {
      "inputs": [
        {
          "internalType": "address",
          "name": "tokenAddr",
          "type": "address"
        }
      ],
      "name": "getRestrictionDeposit",
      "outputs": [
        {
          "internalType": "uint256",
          "name": "",
          "type": "uint256"
        }
      ],
      "stateMutability": "view",
      "type": "function",
      "constant": true
    },
    {
      "inputs": [
        {
          "internalType": "address",
          "name": "tokenAddr",
          "type": "address"
        }
      ],
      "name": "getRestrictionWithdraw",
      "outputs": [
        {
          "internalType": "uint256",
          "name": "",
          "type": "uint256"
        }
      ],
      "stateMutability": "view",
      "type": "function",
      "constant": true
    },
    {
      "inputs": [],
      "name": "getRotateProposerBlocks",
      "outputs": [
        {
          "internalType": "uint256",
          "name": "",
          "type": "uint256"
        }
      ],
      "stateMutability": "view",
      "type": "function",
      "constant": true
    },
    {
      "inputs": [],
      "name": "getSprintsInSpan",
      "outputs": [
        {
          "internalType": "uint256",
          "name": "",
          "type": "uint256"
        }
      ],
      "stateMutability": "view",
      "type": "function",
      "constant": true
    },
    {
      "inputs": [],
      "name": "owner",
      "outputs": [
        {
          "internalType": "address",
          "name": "",
          "type": "address"
        }
      ],
      "stateMutability": "view",
      "type": "function",
      "constant": true
    },
    {
      "inputs": [],
      "name": "pause",
      "outputs": [],
      "stateMutability": "nonpayable",
      "type": "function"
    },
    {
      "inputs": [],
      "name": "paused",
      "outputs": [
        {
          "internalType": "bool",
          "name": "",
          "type": "bool"
        }
      ],
      "stateMutability": "view",
      "type": "function",
      "constant": true
    },
    {
      "inputs": [
        {
          "internalType": "address",
          "name": "tokenAddr",
          "type": "address"
        }
      ],
      "name": "removeRestriction",
      "outputs": [],
      "stateMutability": "nonpayable",
      "type": "function"
    },
    {
      "inputs": [
        {
          "internalType": "uint96",
          "name": "_blockStake",
          "type": "uint96"
        }
      ],
      "name": "setBlockStake",
      "outputs": [],
      "stateMutability": "nonpayable",
      "type": "function"
    },
    {
      "inputs": [
        {
          "internalType": "address",
          "name": "challenger",
          "type": "address"
        }
      ],
      "name": "setBootChallenger",
      "outputs": [],
      "stateMutability": "nonpayable",
      "type": "function"
    },
    {
      "inputs": [
        {
          "internalType": "address",
          "name": "proposer",
          "type": "address"
        }
      ],
      "name": "setBootProposer",
      "outputs": [],
      "stateMutability": "nonpayable",
      "type": "function"
    },
    {
      "inputs": [
        {
          "internalType": "address",
          "name": "_maticAddress",
          "type": "address"
        }
      ],
      "name": "setMaticAddress",
      "outputs": [],
      "stateMutability": "nonpayable",
      "type": "function"
    },
    {
      "inputs": [
        {
          "internalType": "uint256",
          "name": "_maxProposers",
          "type": "uint256"
        }
      ],
      "name": "setMaxProposers",
      "outputs": [],
      "stateMutability": "nonpayable",
      "type": "function"
    },
    {
      "inputs": [
        {
          "internalType": "uint96",
          "name": "_minimumStake",
          "type": "uint96"
        }
      ],
      "name": "setMinimumStake",
      "outputs": [],
      "stateMutability": "nonpayable",
      "type": "function"
    },
    {
      "inputs": [
        {
          "internalType": "uint256",
          "name": "_proposerSetCount",
          "type": "uint256"
        }
      ],
      "name": "setProposerSetCount",
      "outputs": [],
      "stateMutability": "nonpayable",
      "type": "function"
    },
    {
      "inputs": [
        {
          "internalType": "address",
          "name": "tokenAddr",
          "type": "address"
        },
        {
          "internalType": "uint256",
          "name": "depositAmount",
          "type": "uint256"
        },
        {
          "internalType": "uint256",
          "name": "withdrawAmount",
          "type": "uint256"
        }
      ],
      "name": "setRestriction",
      "outputs": [],
      "stateMutability": "nonpayable",
      "type": "function"
    },
    {
      "inputs": [
        {
          "internalType": "uint256",
          "name": "_rotateProposerBlocks",
          "type": "uint256"
        }
      ],
      "name": "setRotateProposerBlocks",
      "outputs": [],
      "stateMutability": "nonpayable",
      "type": "function"
    },
    {
      "inputs": [
        {
          "internalType": "uint256",
          "name": "_sprintsInSpan",
          "type": "uint256"
        }
      ],
      "name": "setSprintsInSpan",
      "outputs": [],
      "stateMutability": "nonpayable",
      "type": "function"
    },
    {
      "inputs": [
        {
          "internalType": "address payable",
          "name": "stateAddress",
          "type": "address"
        }
      ],
      "name": "setStateContract",
      "outputs": [],
      "stateMutability": "nonpayable",
      "type": "function"
    },
    {
      "inputs": [],
      "name": "state",
      "outputs": [
        {
          "internalType": "contract State",
          "name": "",
          "type": "address"
        }
      ],
      "stateMutability": "view",
      "type": "function",
      "constant": true
    },
    {
      "inputs": [
        {
          "internalType": "address",
          "name": "newOwner",
          "type": "address"
        }
      ],
      "name": "transferOwnership",
      "outputs": [],
      "stateMutability": "nonpayable",
      "type": "function"
    },
    {
      "inputs": [],
      "name": "unpause",
      "outputs": [],
      "stateMutability": "nonpayable",
      "type": "function"
    },
    {
      "inputs": [
        {
          "internalType": "address",
          "name": "sanctionsListAddress",
          "type": "address"
        },
        {
          "internalType": "address",
          "name": "x509Address",
          "type": "address"
        }
      ],
      "name": "initializeState",
      "outputs": [],
      "stateMutability": "nonpayable",
      "type": "function"
    },
    {
      "inputs": [],
      "name": "initialize",
      "outputs": [],
      "stateMutability": "nonpayable",
      "type": "function"
    },
    {
      "inputs": [
        {
          "components": [
            {
              "internalType": "uint256",
              "name": "packedInfo",
              "type": "uint256"
            },
            {
              "internalType": "uint256[]",
              "name": "historicRootBlockNumberL2",
              "type": "uint256[]"
            },
            {
              "internalType": "bytes32",
              "name": "tokenId",
              "type": "bytes32"
            },
            {
              "internalType": "bytes32",
              "name": "ercAddress",
              "type": "bytes32"
            },
            {
              "internalType": "bytes32",
              "name": "recipientAddress",
              "type": "bytes32"
            },
            {
              "internalType": "bytes32[]",
              "name": "commitments",
              "type": "bytes32[]"
            },
            {
              "internalType": "bytes32[]",
              "name": "nullifiers",
              "type": "bytes32[]"
            },
            {
              "internalType": "bytes32[2]",
              "name": "compressedSecrets",
              "type": "bytes32[2]"
            },
            {
              "internalType": "uint256[4]",
              "name": "proof",
              "type": "uint256[4]"
            }
          ],
          "internalType": "struct Structures.Transaction",
          "name": "t",
          "type": "tuple"
        }
      ],
      "name": "submitTransaction",
      "outputs": [],
      "stateMutability": "payable",
      "type": "function",
      "payable": true
    },
    {
      "inputs": [
        {
          "components": [
            {
              "internalType": "uint256",
              "name": "packedInfo",
              "type": "uint256"
            },
            {
              "internalType": "bytes32",
              "name": "root",
              "type": "bytes32"
            },
            {
              "internalType": "bytes32",
              "name": "previousBlockHash",
              "type": "bytes32"
            },
            {
              "internalType": "bytes32",
              "name": "frontierHash",
              "type": "bytes32"
            },
            {
              "internalType": "bytes32",
              "name": "transactionHashesRoot",
              "type": "bytes32"
            }
          ],
          "internalType": "struct Structures.Block",
          "name": "b",
          "type": "tuple"
        }
      ],
      "name": "requestBlockPayment",
      "outputs": [],
      "stateMutability": "nonpayable",
      "type": "function"
    },
    {
      "inputs": [
        {
          "internalType": "uint64",
          "name": "blockNumberL2",
          "type": "uint64"
        }
      ],
      "name": "isBlockPaymentPending",
      "outputs": [
        {
          "internalType": "bool",
          "name": "",
          "type": "bool"
        }
      ],
      "stateMutability": "view",
      "type": "function",
      "constant": true
    },
    {
      "inputs": [
        {
          "internalType": "address",
          "name": "",
          "type": "address"
        },
        {
          "internalType": "address",
          "name": "_from",
          "type": "address"
        },
        {
          "internalType": "uint256",
          "name": "_tokenId",
          "type": "uint256"
        },
        {
          "internalType": "bytes",
          "name": "",
          "type": "bytes"
        }
      ],
      "name": "onERC721Received",
      "outputs": [
        {
          "internalType": "bytes4",
          "name": "",
          "type": "bytes4"
        }
      ],
      "stateMutability": "nonpayable",
      "type": "function"
    },
    {
      "inputs": [
        {
          "internalType": "address",
          "name": "_operator",
          "type": "address"
        },
        {
          "internalType": "address",
          "name": "_from",
          "type": "address"
        },
        {
          "internalType": "uint256",
          "name": "_id",
          "type": "uint256"
        },
        {
          "internalType": "uint256",
          "name": "_value",
          "type": "uint256"
        },
        {
          "internalType": "bytes",
          "name": "_data",
          "type": "bytes"
        }
      ],
      "name": "onERC1155Received",
      "outputs": [
        {
          "internalType": "bytes4",
          "name": "",
          "type": "bytes4"
        }
      ],
      "stateMutability": "nonpayable",
      "type": "function"
    },
    {
      "inputs": [
        {
          "components": [
            {
              "internalType": "uint256",
              "name": "packedInfo",
              "type": "uint256"
            },
            {
              "internalType": "bytes32",
              "name": "root",
              "type": "bytes32"
            },
            {
              "internalType": "bytes32",
              "name": "previousBlockHash",
              "type": "bytes32"
            },
            {
              "internalType": "bytes32",
              "name": "frontierHash",
              "type": "bytes32"
            },
            {
              "internalType": "bytes32",
              "name": "transactionHashesRoot",
              "type": "bytes32"
            }
          ],
          "internalType": "struct Structures.Block",
          "name": "b",
          "type": "tuple"
        },
        {
          "components": [
            {
              "internalType": "uint256",
              "name": "packedInfo",
              "type": "uint256"
            },
            {
              "internalType": "uint256[]",
              "name": "historicRootBlockNumberL2",
              "type": "uint256[]"
            },
            {
              "internalType": "bytes32",
              "name": "tokenId",
              "type": "bytes32"
            },
            {
              "internalType": "bytes32",
              "name": "ercAddress",
              "type": "bytes32"
            },
            {
              "internalType": "bytes32",
              "name": "recipientAddress",
              "type": "bytes32"
            },
            {
              "internalType": "bytes32[]",
              "name": "commitments",
              "type": "bytes32[]"
            },
            {
              "internalType": "bytes32[]",
              "name": "nullifiers",
              "type": "bytes32[]"
            },
            {
              "internalType": "bytes32[2]",
              "name": "compressedSecrets",
              "type": "bytes32[2]"
            },
            {
              "internalType": "uint256[4]",
              "name": "proof",
              "type": "uint256[4]"
            }
          ],
          "internalType": "struct Structures.Transaction",
          "name": "t",
          "type": "tuple"
        },
        {
          "internalType": "uint256",
          "name": "index",
          "type": "uint256"
        },
        {
          "internalType": "bytes32[]",
          "name": "siblingPath",
          "type": "bytes32[]"
        }
      ],
      "name": "isValidWithdrawal",
      "outputs": [
        {
          "internalType": "bool",
          "name": "",
          "type": "bool"
        }
      ],
      "stateMutability": "view",
      "type": "function",
      "constant": true
    },
    {
      "inputs": [
        {
          "components": [
            {
              "internalType": "uint256",
              "name": "packedInfo",
              "type": "uint256"
            },
            {
              "internalType": "bytes32",
              "name": "root",
              "type": "bytes32"
            },
            {
              "internalType": "bytes32",
              "name": "previousBlockHash",
              "type": "bytes32"
            },
            {
              "internalType": "bytes32",
              "name": "frontierHash",
              "type": "bytes32"
            },
            {
              "internalType": "bytes32",
              "name": "transactionHashesRoot",
              "type": "bytes32"
            }
          ],
          "internalType": "struct Structures.Block",
          "name": "b",
          "type": "tuple"
        },
        {
          "components": [
            {
              "internalType": "uint256",
              "name": "packedInfo",
              "type": "uint256"
            },
            {
              "internalType": "uint256[]",
              "name": "historicRootBlockNumberL2",
              "type": "uint256[]"
            },
            {
              "internalType": "bytes32",
              "name": "tokenId",
              "type": "bytes32"
            },
            {
              "internalType": "bytes32",
              "name": "ercAddress",
              "type": "bytes32"
            },
            {
              "internalType": "bytes32",
              "name": "recipientAddress",
              "type": "bytes32"
            },
            {
              "internalType": "bytes32[]",
              "name": "commitments",
              "type": "bytes32[]"
            },
            {
              "internalType": "bytes32[]",
              "name": "nullifiers",
              "type": "bytes32[]"
            },
            {
              "internalType": "bytes32[2]",
              "name": "compressedSecrets",
              "type": "bytes32[2]"
            },
            {
              "internalType": "uint256[4]",
              "name": "proof",
              "type": "uint256[4]"
            }
          ],
          "internalType": "struct Structures.Transaction",
          "name": "t",
          "type": "tuple"
        },
        {
          "internalType": "uint256",
          "name": "index",
          "type": "uint256"
        },
        {
          "internalType": "bytes32[]",
          "name": "siblingPath",
          "type": "bytes32[]"
        }
      ],
      "name": "finaliseWithdrawal",
      "outputs": [],
      "stateMutability": "nonpayable",
      "type": "function"
    },
    {
      "inputs": [
        {
          "components": [
            {
              "internalType": "uint256",
              "name": "packedInfo",
              "type": "uint256"
            },
            {
              "internalType": "bytes32",
              "name": "root",
              "type": "bytes32"
            },
            {
              "internalType": "bytes32",
              "name": "previousBlockHash",
              "type": "bytes32"
            },
            {
              "internalType": "bytes32",
              "name": "frontierHash",
              "type": "bytes32"
            },
            {
              "internalType": "bytes32",
              "name": "transactionHashesRoot",
              "type": "bytes32"
            }
          ],
          "internalType": "struct Structures.Block",
          "name": "b",
          "type": "tuple"
        },
        {
          "components": [
            {
              "internalType": "uint256",
              "name": "packedInfo",
              "type": "uint256"
            },
            {
              "internalType": "uint256[]",
              "name": "historicRootBlockNumberL2",
              "type": "uint256[]"
            },
            {
              "internalType": "bytes32",
              "name": "tokenId",
              "type": "bytes32"
            },
            {
              "internalType": "bytes32",
              "name": "ercAddress",
              "type": "bytes32"
            },
            {
              "internalType": "bytes32",
              "name": "recipientAddress",
              "type": "bytes32"
            },
            {
              "internalType": "bytes32[]",
              "name": "commitments",
              "type": "bytes32[]"
            },
            {
              "internalType": "bytes32[]",
              "name": "nullifiers",
              "type": "bytes32[]"
            },
            {
              "internalType": "bytes32[2]",
              "name": "compressedSecrets",
              "type": "bytes32[2]"
            },
            {
              "internalType": "uint256[4]",
              "name": "proof",
              "type": "uint256[4]"
            }
          ],
          "internalType": "struct Structures.Transaction",
          "name": "t",
          "type": "tuple"
        },
        {
          "internalType": "uint256",
          "name": "index",
          "type": "uint256"
        },
        {
          "internalType": "bytes32[]",
          "name": "siblingPath",
          "type": "bytes32[]"
        }
      ],
      "name": "advanceWithdrawal",
      "outputs": [],
      "stateMutability": "nonpayable",
      "type": "function"
    },
    {
      "inputs": [
        {
          "components": [
            {
              "internalType": "uint256",
              "name": "packedInfo",
              "type": "uint256"
            },
            {
              "internalType": "bytes32",
              "name": "root",
              "type": "bytes32"
            },
            {
              "internalType": "bytes32",
              "name": "previousBlockHash",
              "type": "bytes32"
            },
            {
              "internalType": "bytes32",
              "name": "frontierHash",
              "type": "bytes32"
            },
            {
              "internalType": "bytes32",
              "name": "transactionHashesRoot",
              "type": "bytes32"
            }
          ],
          "internalType": "struct Structures.Block",
          "name": "b",
          "type": "tuple"
        },
        {
          "components": [
            {
              "internalType": "uint256",
              "name": "packedInfo",
              "type": "uint256"
            },
            {
              "internalType": "uint256[]",
              "name": "historicRootBlockNumberL2",
              "type": "uint256[]"
            },
            {
              "internalType": "bytes32",
              "name": "tokenId",
              "type": "bytes32"
            },
            {
              "internalType": "bytes32",
              "name": "ercAddress",
              "type": "bytes32"
            },
            {
              "internalType": "bytes32",
              "name": "recipientAddress",
              "type": "bytes32"
            },
            {
              "internalType": "bytes32[]",
              "name": "commitments",
              "type": "bytes32[]"
            },
            {
              "internalType": "bytes32[]",
              "name": "nullifiers",
              "type": "bytes32[]"
            },
            {
              "internalType": "bytes32[2]",
              "name": "compressedSecrets",
              "type": "bytes32[2]"
            },
            {
              "internalType": "uint256[4]",
              "name": "proof",
              "type": "uint256[4]"
            }
          ],
          "internalType": "struct Structures.Transaction",
          "name": "t",
          "type": "tuple"
        },
        {
          "internalType": "uint256",
          "name": "index",
          "type": "uint256"
        },
        {
          "internalType": "bytes32[]",
          "name": "siblingPath",
          "type": "bytes32[]"
        }
      ],
      "name": "setAdvanceWithdrawalFee",
      "outputs": [],
      "stateMutability": "payable",
      "type": "function",
      "payable": true
    }
  ],
  "bytecode": "0x608060405234801561001057600080fd5b506141ae806100206000396000f3fe6080604052600436106101e15760003560e01c8063120f66df146101e6578063146eb22214610219578063150b7a021461023b5780631c57e892146102805780631fc51a0d1461029357806326815884146102a657806328340f17146102c65780633195a4e7146102ed5780633f4ba83a1461030d5780633f8967991461032257806342646c68146103a45780635c975abb146103c25780635d021c1b146103e657806369a5b950146104065780638129fc1c146104265780638456cb591461043b57806384afda1914610450578063875840ce14610470578063894f7d62146104855780638da5cb5b146104a55780639c18de93146104ba5780639cfbd756146104da578063aa411d5b146104fa578063af52ca691461051a578063b0a9fd0f1461053a578063b0c9569a14610562578063b13a8c0714610577578063b2bdfa7b14610597578063b48cff73146105b7578063ba42bab6146105d7578063bb7affc1146105f7578063bf2c94db14610617578063c19d93fb14610637578063c2c5bb6e1461065d578063c300db9b1461067d578063c83daadc14610692578063d9bbd278146106a7578063ebed9868146106cc578063efedffa8146106ec578063f23a6e6114610701578063f2fde38b1461072e578063f560a7921461074e575b600080fd5b3480156101f257600080fd5b5061020661020136600461344d565b61076e565b6040519081526020015b60405180910390f35b34801561022557600080fd5b5061023961023436600461346a565b610791565b005b34801561024757600080fd5b506102676102563660046134cb565b630a85bd0160e11b95945050505050565b6040516001600160e01b03199091168152602001610210565b61023961028e366004613556565b6107d7565b6102396102a13660046135a4565b610b0e565b3480156102b257600080fd5b506102396102c13660046135a4565b610ff3565b3480156102d257600080fd5b50606c546001600160a01b03165b6040516102109190613657565b3480156102f957600080fd5b5061023961030836600461346a565b6114bb565b34801561031957600080fd5b506102396114f8565b34801561032e57600080fd5b5061037561033d36600461346a565b60a2602052600090815260409020546001600160a01b03811690600160a01b81046001600160581b031690600160f81b900460ff1683565b604080516001600160a01b0390941684526001600160581b039092166020840152151590820152606001610210565b3480156103b057600080fd5b50606d546001600160a01b03166102e0565b3480156103ce57600080fd5b5060345460ff165b6040519015158152602001610210565b3480156103f257600080fd5b5061023961040136600461366b565b61153a565b34801561041257600080fd5b5061023961042136600461344d565b611684565b34801561043257600080fd5b506102396116dc565b34801561044757600080fd5b50610239611723565b34801561045c57600080fd5b5061023961046b36600461344d565b611763565b34801561047c57600080fd5b50606a54610206565b34801561049157600080fd5b506102396104a03660046136b9565b61181c565b3480156104b157600080fd5b506102e0611876565b3480156104c657600080fd5b506102396104d53660046136d6565b611885565b3480156104e657600080fd5b506102396104f536600461370b565b6118e0565b34801561050657600080fd5b5061023961051536600461344d565b611e73565b34801561052657600080fd5b5061023961053536600461346a565b611ecd565b34801561054657600080fd5b506067546040516001600160601b039091168152602001610210565b34801561056e57600080fd5b50606b54610206565b34801561058357600080fd5b506102396105923660046136b9565b611f0a565b3480156105a357600080fd5b506066546102e0906001600160a01b031681565b3480156105c357600080fd5b506103d66105d23660046135a4565b611f6a565b3480156105e357600080fd5b506103d66105f2366004613727565b612176565b34801561060357600080fd5b5061023961061236600461344d565b6122c3565b34801561062357600080fd5b5061023961063236600461346a565b612352565b34801561064357600080fd5b506000546102e0906201000090046001600160a01b031681565b34801561066957600080fd5b5061020661067836600461344d565b61238f565b34801561068957600080fd5b506102e06123ad565b34801561069e57600080fd5b50606854610206565b3480156106b357600080fd5b50606654600160a01b90046001600160601b0316610206565b3480156106d857600080fd5b506102396106e73660046135a4565b6123bc565b3480156106f857600080fd5b50606954610206565b34801561070d57600080fd5b5061026761071c366004613750565b63f23a6e6160e01b9695505050505050565b34801561073a57600080fd5b5061023961074936600461344d565b61274f565b34801561075a57600080fd5b5061023961076936600461344d565b6127f1565b6001600160a01b0381166000908152606f6020526040812060015b015492915050565b610799611876565b6001600160a01b0316336001600160a01b0316146107d25760405162461bcd60e51b81526004016107c9906137cb565b60405180910390fd5b606955565b6002607054036107f95760405162461bcd60e51b81526004016107c990613819565b6002607055610806612875565b6040517fd9364d1faedd45a064f9090dd61ade3de8d1c1fd83caaa8ebdc4b9808f4eb98990600090a160a35460405163e23c27e960e01b81526001600160a01b039091169063e23c27e99061085f903390600401613657565b602060405180830381865afa15801561087c573d6000803e3d6000fd5b505050506040513d601f19601f820116820180604052508101906108a09190613865565b6108bc5760405162461bcd60e51b81526004016107c990613880565b60a45460405163df592f7d60e01b81526001600160a01b039091169063df592f7d906108ec903390600401613657565b602060405180830381865afa158015610909573d6000803e3d6000fd5b505050506040513d601f19601f8201168201806040525081019061092d9190613865565b1561094a5760405162461bcd60e51b81526004016107c9906138da565b3415806109625750803560781c6001600160601b0316155b6109c05760405162461bcd60e51b815260206004820152602960248201527f536869656c643a204665652063616e6e6f74206265207061696420696e20626f604482015268746820746f6b656e7360b81b60648201526084016107c9565b61c35060231936018110156109e057631dd1c73160e01b60005260046000fd5b600080546201000090046001600160a01b03166379edadfe843560d81c6040518263ffffffff1660e01b8152600401610a19919061392b565b6040805180830381865afa158015610a35573d6000803e3d6000fd5b505050506040513d601f19601f82011682018060405250810190610a59919061393d565b9150508080610a685750600034115b15610b04576000610a78846128bb565b60005460405162bffd1f60e31b81526004810183905284151560248201526001600160f81b03341660448201529192506201000090046001600160a01b0316906305ffe8f890606401600060405180830381600087803b158015610adb57600080fd5b505af1158015610aef573d6000803e3d6000fd5b505050508115610b0257610b02846128eb565b505b5050600160705550565b600260705403610b305760405162461bcd60e51b81526004016107c990613819565b60026070556000805460405163f41f339f60e01b8152620100009091046001600160a01b03169063f41f339f90610b739089908990899089908990600401613ae8565b602060405180830381865afa158015610b90573d6000803e3d6000fd5b505050506040513d601f19601f82011682018060405250810190610bb49190613b30565b60008054919250906201000090046001600160a01b03166379edadfe873560d81c6040518263ffffffff1660e01b8152600401610bf1919061392b565b6040805180830381865afa158015610c0d573d6000803e3d6000fd5b505050506040513d601f19601f82011682018060405250810190610c31919061393d565b50905080610c7b5760405162461bcd60e51b81526020600482015260248082015260008051602061411983398151915260448201526377616c7360e01b60648201526084016107c9565b60003411610cd65760405162461bcd60e51b815260206004820152602260248201527f536869656c643a20416476616e6365206665652063616e6e6f74206265207a65604482015261726f60f01b60648201526084016107c9565b600054429062093a80906201000090046001600160a01b03166383b6ebe58a3560a01c6040518263ffffffff1660e01b8152600401610d159190613b49565b608060405180830381865afa158015610d32573d6000803e3d6000fd5b505050506040513d601f19601f82011682018060405250810190610d569190613b5d565b60200151610d649190613bf5565b1015610d825760405162461bcd60e51b81526004016107c990613c08565b6000610d8e8735612bc5565b6002811115610d9f57610d9f613c54565b148015610dae57506040860135155b610e095760405162461bcd60e51b8152602060048201526038602482015260008051602061411983398151915260448201527777616c7320666f722066756e6769626c6520746f6b656e7360401b60648201526084016107c9565b600082815260a26020526040902054600160f81b900460ff1615610e3f5760405162461bcd60e51b81526004016107c990613c6a565b600082815260a260209081526040808320815160608101835290546001600160a01b038116808352600160a01b82046001600160581b031694830194909452600160f81b900460ff161515918101919091529160808901359115610ea4578251610ea6565b815b9050336001600160a01b03821614610f215760405162461bcd60e51b815260206004820152603860248201527f536869656c643a20596f7520617265206e6f74207468652063757272656e74206044820152771bdddb995c881bd9881d1a1a5cc81dda5d1a191c985dd85b60421b60648201526084016107c9565b3483602001818151610f339190613cb7565b6001600160581b03908116909152600087815260a2602090815260409182902087518154898401518a8601511515600160f81b026001600160f81b0391909716600160a01b81026001600160f81b03199093166001600160a01b0390941693909317919091171694909417905581518981523391810191909152908101919091527fad3c4a0dcee8f6938c110c1c6b94072b4bea981a94e50094f2adef55ba7718a9915060600160405180910390a1505060016070555050505050505050565b6000805460405163f41f339f60e01b8152620100009091046001600160a01b03169063f41f339f906110319089908990899089908990600401613ae8565b602060405180830381865afa15801561104e573d6000803e3d6000fd5b505050506040513d601f19601f820116820180604052508101906110729190613b30565b6000546040516383b6ebe560e01b8152919250429162093a80916201000090046001600160a01b0316906383b6ebe5906110b4908b3560a01c90600401613b49565b608060405180830381865afa1580156110d1573d6000803e3d6000fd5b505050506040513d601f19601f820116820180604052508101906110f59190613b5d565b602001516111039190613bf5565b106111205760405162461bcd60e51b81526004016107c990613cde565b600080546201000090046001600160a01b03166379edadfe873560d81c6040518263ffffffff1660e01b8152600401611159919061392b565b6040805180830381865afa158015611175573d6000803e3d6000fd5b505050506040513d601f19601f82011682018060405250810190611199919061393d565b509050806111b95760405162461bcd60e51b81526004016107c990613d30565b600082815260a26020526040902054600160f81b900460ff16156111ef5760405162461bcd60e51b81526004016107c990613c6a565b600082815260a26020908152604080832080546001600160f81b038116600160f81b9081179283905583516060810185526001600160a01b039092168083526001600160581b03600160a01b8504169583019590955290910460ff161515918101919091529160808901359115611267578251611269565b815b60208401519091506001600160581b03161561138a57600080546020850151604051620100009092046001600160a01b0316916001600160581b03909116908381818185875af1925050503d80600081146112e0576040519150601f19603f3d011682016040523d82523d6000602084013e6112e5565b606091505b50509050806113065760405162461bcd60e51b81526004016107c990613d7b565b600080546020860151604051634d503ac360e11b81526001600160a01b0386811660048301526001600160581b0390921660248201526044810193909352620100009091041690639aa0758690606401600060405180830381600087803b15801561137057600080fd5b505af1158015611384573d6000803e3d6000fd5b50505050505b60a35460405163e23c27e960e01b81526001600160a01b039091169063e23c27e9906113ba903390600401613657565b602060405180830381865afa1580156113d7573d6000803e3d6000fd5b505050506040513d601f19601f820116820180604052508101906113fb9190613865565b6114175760405162461bcd60e51b81526004016107c990613880565b60a45460405163df592f7d60e01b81526001600160a01b039091169063df592f7d90611447903390600401613657565b602060405180830381865afa158015611464573d6000803e3d6000fd5b505050506040513d601f19601f820116820180604052508101906114889190613865565b156114a55760405162461bcd60e51b81526004016107c9906138da565b6114af8982612be2565b50505050505050505050565b6114c3611876565b6001600160a01b0316336001600160a01b0316146114f35760405162461bcd60e51b81526004016107c9906137cb565b606b55565b611500611876565b6001600160a01b0316336001600160a01b0316146115305760405162461bcd60e51b81526004016107c9906137cb565b611538612e58565b565b600054610100900460ff161580801561155a5750600054600160ff909116105b8061157b575061156930612ea4565b15801561157b575060005460ff166001145b6115de5760405162461bcd60e51b815260206004820152602e60248201527f496e697469616c697a61626c653a20636f6e747261637420697320616c72656160448201526d191e481a5b9a5d1a585b1a5e995960921b60648201526084016107c9565b6000805460ff191660011790558015611601576000805461ff0019166101001790555b60a480546001600160a01b038086166001600160a01b03199283161790925560a38054928516929091169190911790556116396116dc565b801561167f576000805461ff0019169055604051600181527f7f26b83ff96e1f2b6a682f133852f6798a09c465da95921460cefb38474024989060200160405180910390a15b505050565b61168c611876565b6001600160a01b0316336001600160a01b0316146116bc5760405162461bcd60e51b81526004016107c9906137cb565b6001600160a01b03166000908152606f6020526040812081815560010155565b600054610100900460ff166117035760405162461bcd60e51b81526004016107c990613dad565b61170b612eb3565b611713612ef5565b61171b612f63565b611538612f92565b61172b611876565b6001600160a01b0316336001600160a01b03161461175b5760405162461bcd60e51b81526004016107c9906137cb565b611538612fc9565b6001546001600160a01b0316331480156117875750600154600160a01b900460ff16155b6117df5760405162461bcd60e51b815260206004820152602360248201527f4f6e6c7920746865206f776e65722063616e2063616c6c20746869732c206f6e60448201526231b29760e91b60648201526084016107c9565b6001805460ff60a01b1916600160a01b179055600080546001600160a01b03909216620100000262010000600160b01b0319909216919091179055565b611824611876565b6001600160a01b0316336001600160a01b0316146118545760405162461bcd60e51b81526004016107c9906137cb565b606780546001600160601b0319166001600160601b0392909216919091179055565b6066546001600160a01b031690565b61188d611876565b6001600160a01b0316336001600160a01b0316146118bd5760405162461bcd60e51b81526004016107c9906137cb565b6001600160a01b03929092166000908152606f6020526040902090815560010155565b60006118eb82613006565b600080546040516383b6ebe560e01b8152929350843560a081901c939092916201000090046001600160a01b0316906383b6ebe59061192e908690600401613b49565b608060405180830381865afa15801561194b573d6000803e3d6000fd5b505050506040513d601f19601f8201168201806040525081019061196f9190613b5d565b805190915084146119cc5760405162461bcd60e51b815260206004820152602160248201527f536869656c643a205468697320626c6f636b20646f6573206e6f7420657869736044820152601d60fa1b60648201526084016107c9565b4262093a8082602001516119e09190613bf5565b106119fd5760405162461bcd60e51b81526004016107c990613df8565b60008054825160405163496879c160e01b8152600481019190915282918291620100009091046001600160a01b03169063496879c190602401606060405180830381865afa158015611a53573d6000803e3d6000fd5b505050506040513d601f19601f82011682018060405250810190611a779190613e5a565b919450925090506001600160a01b0385163314611ae55760405162461bcd60e51b815260206004820152602660248201527f536869656c643a204e6f74207468652070726f706f736572206f66207468697360448201526520626c6f636b60d01b60648201526084016107c9565b8015611b035760405162461bcd60e51b81526004016107c990613e9d565b600054604051635e5a6de160e11b815260048101899052620100009091046001600160a01b03169063bcb4dbc290602401600060405180830381600087803b158015611b4e57600080fd5b505af1158015611b62573d6000803e3d6000fd5b50506000546040516313866b2b60e31b8152600481018b9052620100009091046001600160a01b03169250639c3359589150602401600060405180830381600087803b158015611bb157600080fd5b505af1158015611bc5573d6000803e3d6000fd5b505050506001600160781b03831615611c5b5760008054604051620100009091046001600160a01b0316906001600160781b038616908381818185875af1925050503d8060008114611c33576040519150601f19603f3d011682016040523d82523d6000602084013e611c38565b606091505b5050905080611c595760405162461bcd60e51b81526004016107c990613d7b565b505b6001600160781b03821615611ca257600054611ca2906201000090046001600160a01b03166001600160781b038416611c926123ad565b6001600160a01b03169190613019565b60008054604051631c111daf60e01b8152620100009091046001600160a01b031690631c111daf90611cd8903390600401613657565b606060405180830381865afa158015611cf5573d6000803e3d6000fd5b505050506040513d601f19601f82011682018060405250810190611d199190613f06565b905084606001516001600160601b031681600001818151611d3a9190613f8a565b6001600160701b031690525060608501516020820180516001600160601b0390921691611d68908390613faa565b6001600160701b0390811690915260005483516020850151604051639227ae1560e01b8152336004820152918416602483015290921660448301526201000090046001600160a01b03169150639227ae1590606401600060405180830381600087803b158015611dd757600080fd5b505af1158015611deb573d6000803e3d6000fd5b5050600054604051634d503ac360e11b81523360048201526001600160781b03808916602483015287166044820152620100009091046001600160a01b03169250639aa075869150606401600060405180830381600087803b158015611e5057600080fd5b505af1158015611e64573d6000803e3d6000fd5b50505050505050505050505050565b611e7b611876565b6001600160a01b0316336001600160a01b031614611eab5760405162461bcd60e51b81526004016107c9906137cb565b606e80546001600160a01b0319166001600160a01b0392909216919091179055565b611ed5611876565b6001600160a01b0316336001600160a01b031614611f055760405162461bcd60e51b81526004016107c9906137cb565b606a55565b611f12611876565b6001600160a01b0316336001600160a01b031614611f425760405162461bcd60e51b81526004016107c9906137cb565b606680546001600160601b03909216600160a01b026001600160a01b03909216919091179055565b6000805460405163f41f339f60e01b815282916201000090046001600160a01b03169063f41f339f90611fa9908a908a908a908a908a90600401613ae8565b602060405180830381865afa158015611fc6573d6000803e3d6000fd5b505050506040513d601f19601f82011682018060405250810190611fea9190613b30565b60008054919250906201000090046001600160a01b03166379edadfe883560d81c6040518263ffffffff1660e01b8152600401612027919061392b565b6040805180830381865afa158015612043573d6000803e3d6000fd5b505050506040513d601f19601f82011682018060405250810190612067919061393d565b509050806120875760405162461bcd60e51b81526004016107c990613d30565b600054429062093a80906201000090046001600160a01b03166383b6ebe58b3560a01c6040518263ffffffff1660e01b81526004016120c69190613b49565b608060405180830381865afa1580156120e3573d6000803e3d6000fd5b505050506040513d601f19601f820116820180604052508101906121079190613b5d565b602001516121159190613bf5565b106121325760405162461bcd60e51b81526004016107c990613cde565b600082815260a26020526040902054600160f81b900460ff16156121685760405162461bcd60e51b81526004016107c990613c6a565b506001979650505050505050565b600080546040516383b6ebe560e01b815282916201000090046001600160a01b0316906383b6ebe5906121ad908690600401613b49565b608060405180830381865afa1580156121ca573d6000803e3d6000fd5b505050506040513d601f19601f820116820180604052508101906121ee9190613b5d565b90504262093a8082602001516122049190613bf5565b106122215760405162461bcd60e51b81526004016107c990613df8565b60008054825160405163496879c160e01b81526004810191909152620100009091046001600160a01b03169063496879c190602401606060405180830381865afa158015612273573d6000803e3d6000fd5b505050506040513d601f19601f820116820180604052508101906122979190613e5a565b9250505080156122b95760405162461bcd60e51b81526004016107c990613e9d565b5060019392505050565b6122cb611876565b6001600160a01b0316336001600160a01b0316146122fb5760405162461bcd60e51b81526004016107c9906137cb565b606c80546001600160a01b0319166001600160a01b0383169081179091556040517f5544fd39820f90f9fc4b238e0eaaf1b5ece21e6dbb69a2b0824a16876e6d0efd9161234791613657565b60405180910390a150565b61235a611876565b6001600160a01b0316336001600160a01b03161461238a5760405162461bcd60e51b81526004016107c9906137cb565b606855565b6001600160a01b0381166000908152606f6020526040812081610789565b606e546001600160a01b031690565b6000805460405163f41f339f60e01b8152620100009091046001600160a01b03169063f41f339f906123fa9089908990899089908990600401613ae8565b602060405180830381865afa158015612417573d6000803e3d6000fd5b505050506040513d601f19601f8201168201806040525081019061243b9190613b30565b600081815260a26020526040902054909150600160a01b90046001600160581b03166124ca5760405162461bcd60e51b815260206004820152603860248201527f536869656c643a204e6f20616476616e6365642066656520686173206265656e604482015277081cd95d08199bdc881d1a1a5cc81dda5d1a191c985dd85b60421b60648201526084016107c9565b600054429062093a80906201000090046001600160a01b03166383b6ebe5893560a01c6040518263ffffffff1660e01b81526004016125099190613b49565b608060405180830381865afa158015612526573d6000803e3d6000fd5b505050506040513d601f19601f8201168201806040525081019061254a9190613b5d565b602001516125589190613bf5565b10156125765760405162461bcd60e51b81526004016107c990613c08565b600081815260a26020526040902054600160f81b900460ff16156125ac5760405162461bcd60e51b81526004016107c990613c6a565b600081815260a260205260408120546060870135916080880135916001600160a01b0316156125f257600084815260a260205260409020546001600160a01b03166125f4565b815b600085815260a2602052604080822080546001600160f81b031981163390811790925583549251634d503ac360e11b815260048101929092526001600160581b03600160a01b909104166024820181905260448201939093529293509091620100009091046001600160a01b031690639aa0758690606401600060405180830381600087803b15801561268657600080fd5b505af115801561269a573d6000803e3d6000fd5b5050600080546040519193506201000090046001600160a01b031691506001600160781b038416908381818185875af1925050503d80600081146126fa576040519150601f19603f3d011682016040523d82523d6000602084013e6126ff565b606091505b50509050806127205760405162461bcd60e51b81526004016107c990613d7b565b6127426001600160a01b03861633856001600160701b038e3560081c1661307c565b5050505050505050505050565b612757611876565b6001600160a01b0316336001600160a01b0316146127875760405162461bcd60e51b81526004016107c9906137cb565b6001600160a01b03811661279a57600080fd5b7f8be0079c531659141344cd1fd0a4f28419497f9722a3daafe3b4186f6b6457e06127c3611876565b604080516001600160a01b03928316815291841660208301520160405180910390a16127ee816130ba565b50565b6127f9611876565b6001600160a01b0316336001600160a01b0316146128295760405162461bcd60e51b81526004016107c9906137cb565b606d80546001600160a01b0319166001600160a01b0383169081179091556040517f210cff5548618e71293ea0d4f1f3563a68e78f00273f3acd97014aac2442ed249161234791613657565b60345460ff16156115385760405162461bcd60e51b815260206004820152601060248201526f14185d5cd8589b194e881c185d5cd95960821b60448201526064016107c9565b6000816040516020016128ce9190613fca565b604051602081830303815290604052805190602001209050919050565b6060810135600160a01b81106129135760405162461bcd60e51b81526004016107c990613fdd565b806000833560081c905060006129298535612bc5565b9050600081600281111561293f5761293f613c54565b03612a5a576040850135156129b65760405162461bcd60e51b815260206004820152603760248201527f536869656c643a204552433230206465706f7369742073686f756c64206861766044820152766520746f6b656e496420657175616c20746f205a45524f60481b60648201526084016107c9565b60006129c18461238f565b905080836001600160701b03161180156129da57508015155b15612a365760405162461bcd60e51b8152602060048201526038602482015260008051602061415983398151915260448201527765737472696374696f6e7320666f72206465706f7369747360401b60648201526084016107c9565b612a546001600160a01b03851633306001600160701b03871661307c565b50612bbe565b6001816002811115612a6e57612a6e613c54565b03612b34576001600160701b03821615612aca5760405162461bcd60e51b815260206004820152602960248201526000805160206141398339815191526044820152680c4819195c1bdcda5d60ba1b60648201526084016107c9565b60408051635c46a7ef60e11b81526001600160a01b0385169163b88d4fde91612afd91339130918b01359060040161402c565b600060405180830381600087803b158015612b1757600080fd5b505af1158015612b2b573d6000803e3d6000fd5b50505050612bbe565b6002816002811115612b4857612b48613c54565b03612bbe5760408051637921219560e11b81526001600160a01b0385169163f242432a91612b8b91339130918b0135906001600160701b0389169060040161405f565b600060405180830381600087803b158015612ba557600080fd5b505af1158015612bb9573d6000803e3d6000fd5b505050505b5050505050565b60008160ff166002811115612bdc57612bdc613c54565b92915050565b612bea612875565b600160a01b606083013510612c115760405162461bcd60e51b81526004016107c990613fdd565b60608201356000833560081c90506000612c2b8535612bc5565b90506000816002811115612c4157612c41613c54565b03612d5b57604085013515612cbb5760405162461bcd60e51b815260206004820152603a60248201527f536869656c643a204552433230207769746864726177616c2073686f756c64206044820152796861766520746f6b656e496420657175616c20746f205a45524f60301b60648201526084016107c9565b6000612cc68461076e565b905080836001600160701b0316118015612cdf57508015155b15612d3e5760405162461bcd60e51b815260206004820152603b602482015260008051602061415983398151915260448201527a65737472696374696f6e7320666f72207769746864726177616c7360281b60648201526084016107c9565b612a546001600160a01b038516866001600160701b038616613019565b6001816002811115612d6f57612d6f613c54565b03612e01576001600160701b03821615612dce5760405162461bcd60e51b815260206004820152602c602482015260008051602061413983398151915260448201526b0c481dda5d1a191c985dd85b60a21b60648201526084016107c9565b60408051635c46a7ef60e11b81526001600160a01b0385169163b88d4fde91612afd91309189918b01359060040161402c565b6002816002811115612e1557612e15613c54565b03612bbe5760408051637921219560e11b81526001600160a01b0385169163f242432a91612b8b91309189918b0135906001600160701b0389169060040161405f565b612e606130dc565b6034805460ff191690557f5db9ee0a495bf2e6ff9c91a7834c1ba4fdd244a5e8aa4e537bd38aeae4b073aa335b604051612e9a9190613657565b60405180910390a1565b6001600160a01b03163b151590565b600054610100900460ff16612eda5760405162461bcd60e51b81526004016107c990613dad565b600180546001600160a81b0319163360ff60a01b1916179055565b600054610100900460ff16612f1c5760405162461bcd60e51b81526004016107c990613dad565b612f24613125565b606680546001600160a01b0316613d0960a61b179055606780546001600160601b03191660011790556020606855600a6069819055606a556064606b55565b600054610100900460ff16612f8a5760405162461bcd60e51b81526004016107c990613dad565b611538613155565b600054610100900460ff16612fb95760405162461bcd60e51b81526004016107c990613dad565b612fc1613125565b611538613183565b612fd1612875565b6034805460ff191660011790557f62e78cea01bee320cd4e420270b5ea74000d11b0c9f74754ebdbfc544b05a258612e8d3390565b6000816040516020016128ce9190614097565b6040516001600160a01b03831660248201526044810182905261167f90849063a9059cbb60e01b906064015b60408051601f198184030181529190526020810180516001600160e01b03166001600160e01b0319909316929092179091526131b2565b6040516001600160a01b03808516602483015283166044820152606481018290526130b49085906323b872dd60e01b90608401613045565b50505050565b606680546001600160a01b0319166001600160a01b0392909216919091179055565b60345460ff166115385760405162461bcd60e51b815260206004820152601460248201527314185d5cd8589b194e881b9bdd081c185d5cd95960621b60448201526064016107c9565b600054610100900460ff1661314c5760405162461bcd60e51b81526004016107c990613dad565b611538336130ba565b600054610100900460ff1661317c5760405162461bcd60e51b81526004016107c990613dad565b6001607055565b600054610100900460ff166131aa5760405162461bcd60e51b81526004016107c990613dad565b611538613284565b6000613207826040518060400160405280602081526020017f5361666545524332303a206c6f772d6c6576656c2063616c6c206661696c6564815250856001600160a01b03166132b79092919063ffffffff16565b80519091501561167f57808060200190518101906132259190613865565b61167f5760405162461bcd60e51b815260206004820152602a60248201527f5361666545524332303a204552433230206f7065726174696f6e20646964206e6044820152691bdd081cdd58d8d9595960b21b60648201526084016107c9565b600054610100900460ff166132ab5760405162461bcd60e51b81526004016107c990613dad565b6034805460ff19169055565b60606132c684846000856132d0565b90505b9392505050565b6060824710156133315760405162461bcd60e51b815260206004820152602660248201527f416464726573733a20696e73756666696369656e742062616c616e636520666f6044820152651c8818d85b1b60d21b60648201526084016107c9565b61333a85612ea4565b6133865760405162461bcd60e51b815260206004820152601d60248201527f416464726573733a2063616c6c20746f206e6f6e2d636f6e747261637400000060448201526064016107c9565b600080866001600160a01b031685876040516133a291906140c9565b60006040518083038185875af1925050503d80600081146133df576040519150601f19603f3d011682016040523d82523d6000602084013e6133e4565b606091505b50915091506133f48282866133ff565b979650505050505050565b6060831561340e5750816132c9565b82511561341e5782518084602001fd5b8160405162461bcd60e51b81526004016107c991906140e5565b6001600160a01b03811681146127ee57600080fd5b60006020828403121561345f57600080fd5b81356132c981613438565b60006020828403121561347c57600080fd5b5035919050565b60008083601f84011261349557600080fd5b5081356001600160401b038111156134ac57600080fd5b6020830191508360208285010111156134c457600080fd5b9250929050565b6000806000806000608086880312156134e357600080fd5b85356134ee81613438565b945060208601356134fe81613438565b93506040860135925060608601356001600160401b0381111561352057600080fd5b61352c88828901613483565b969995985093965092949392505050565b60006101a0828403121561355057600080fd5b50919050565b60006020828403121561356857600080fd5b81356001600160401b0381111561357e57600080fd5b61358a8482850161353d565b949350505050565b600060a0828403121561355057600080fd5b600080600080600061010086880312156135bd57600080fd5b6135c78787613592565b945060a08601356001600160401b03808211156135e357600080fd5b6135ef89838a0161353d565b955060c0880135945060e088013591508082111561360c57600080fd5b818801915088601f83011261362057600080fd5b81358181111561362f57600080fd5b8960208260051b850101111561364457600080fd5b9699959850939650602001949392505050565b6001600160a01b0391909116815260200190565b6000806040838503121561367e57600080fd5b823561368981613438565b9150602083013561369981613438565b809150509250929050565b6001600160601b03811681146127ee57600080fd5b6000602082840312156136cb57600080fd5b81356132c9816136a4565b6000806000606084860312156136eb57600080fd5b83356136f681613438565b95602085013595506040909401359392505050565b600060a0828403121561371d57600080fd5b6132c98383613592565b60006020828403121561373957600080fd5b81356001600160401b03811681146132c957600080fd5b60008060008060008060a0878903121561376957600080fd5b863561377481613438565b9550602087013561378481613438565b9450604087013593506060870135925060808701356001600160401b038111156137ad57600080fd5b6137b989828a01613483565b979a9699509497509295939492505050565b6020808252602e908201527f596f7520617265206e6f7420617574686f726973656420746f20696e766f6b6560408201526d103a3434b990333ab731ba34b7b760911b606082015260800190565b6020808252601f908201527f5265656e7472616e637947756172643a207265656e7472616e742063616c6c00604082015260600190565b8051801515811461386057600080fd5b919050565b60006020828403121561387757600080fd5b6132c982613850565b6020808252603a908201527f536869656c643a20596f7520617265206e6f7420617574686f726973656420746040820152791bc81d1c985b9cd858dd081d5cda5b99c8139a59da1d19985b1b60321b606082015260800190565b60208082526031908201527f536869656c643a20596f7520617265206f6e2074686520436861696e616c79736040820152701a5cc81cd85b98dd1a5bdb9cc81b1a5cdd607a1b606082015260800190565b64ffffffffff91909116815260200190565b6000806040838503121561395057600080fd5b61395983613850565b915061396760208401613850565b90509250929050565b80358252602081013560208301526040810135604083015260608101356060830152608081013560808301525050565b6000808335601e198436030181126139b757600080fd5b83016020810192503590506001600160401b038111156139d657600080fd5b8060051b36038213156134c457600080fd5b81835260006001600160fb1b03831115613a0157600080fd5b8260051b80836020870137939093016020019392505050565b60408183375050565b60808183375050565b60006101a082358452613a4260208401846139a0565b826020870152613a5583870182846139e8565b92505050604083013560408501526060830135606085015260808301356080850152613a8460a08401846139a0565b85830360a0870152613a978382846139e8565b92505050613aa860c08401846139a0565b85830360c0870152613abb8382846139e8565b92505050613acf60e0850160e08501613a1a565b610120613ae0818601828601613a23565b509392505050565b6000610100613af78389613970565b8060a0840152613b0981840188613a2c565b90508560c084015282810360e0840152613b248185876139e8565b98975050505050505050565b600060208284031215613b4257600080fd5b5051919050565b6001600160401b0391909116815260200190565b600060808284031215613b6f57600080fd5b604051608081016001600160401b0381118282101715613b9f57634e487b7160e01b600052604160045260246000fd5b806040525082518152602083015160208201526040830151613bc081613438565b60408201526060830151613bd3816136a4565b60608201529392505050565b634e487b7160e01b600052601160045260246000fd5b80820180821115612bdc57612bdc613bdf565b6020808252602c908201527f536869656c643a2054686520626c6f636b2068617320616c726561647920626560408201526b195b88199a5b985b1a5e995960a21b606082015260800190565b634e487b7160e01b600052602160045260246000fd5b6020808252602d908201527f536869656c643a2054686973207472616e73616374696f6e2068617320616c7260408201526c1958591e481c185a59081bdd5d609a1b606082015260800190565b6001600160581b03818116838216019080821115613cd757613cd7613bdf565b5092915050565b60208082526032908201527f536869656c643a20546f6f20736f6f6e20746f2077697468647261772066756e60408201527164732066726f6d207468697320626c6f636b60701b606082015260800190565b6020808252602b908201527f536869656c643a205472616e73616374696f6e206973206e6f7420612076616c60408201526a696420776974686472617760a81b606082015260800190565b60208082526018908201527729b434b2b6321d102a3930b739b332b9103330b4b632b21760411b604082015260600190565b6020808252602b908201527f496e697469616c697a61626c653a20636f6e7472616374206973206e6f74206960408201526a6e697469616c697a696e6760a81b606082015260800190565b6020808252602b908201527f536869656c643a20546f6f20736f6f6e20746f20676574207061696420666f7260408201526a207468697320626c6f636b60a81b606082015260800190565b80516001600160781b038116811461386057600080fd5b600080600060608486031215613e6f57600080fd5b613e7884613e43565b9250613e8660208501613e43565b9150613e9460408501613850565b90509250925092565b60208082526032908201527f536869656c643a20426c6f636b207374616b6520666f72207468697320626c6f60408201527118dac8185b1c9958591e4818db185a5b595960721b606082015260800190565b80516001600160701b038116811461386057600080fd5b600060608284031215613f1857600080fd5b604051606081016001600160401b0381118282101715613f4857634e487b7160e01b600052604160045260246000fd5b604052613f5483613eef565b8152613f6260208401613eef565b6020820152604083015163ffffffff81168114613f7e57600080fd5b60408201529392505050565b6001600160701b03818116838216019080821115613cd757613cd7613bdf565b6001600160701b03828116828216039080821115613cd757613cd7613bdf565b6020815260006132c96020830184613a2c565b6020808252602f908201527f536869656c643a2054686520676976656e2061646472657373206973206d6f7260408201526e65207468616e20313630206269747360881b606082015260800190565b6001600160a01b039384168152919092166020820152604081019190915260806060820181905260009082015260a00190565b6001600160a01b0394851681529290931660208301526040820152606081019190915260a06080820181905260009082015260c00190565b60a08101612bdc8284613970565b60005b838110156140c05781810151838201526020016140a8565b50506000910152565b600082516140db8184602087016140a5565b9190910192915050565b60208152600082518060208401526141048160408501602087016140a5565b601f01601f1916919091016040019291505056fe536869656c643a2043616e206f6e6c7920616476616e63652077697468647261536869656c643a20496e76616c696420696e7075747320666f72204552433732536869656c643a2056616c75652069732061626f76652063757272656e742072a26469706673582212209043707f8727edb70a2bdca35e02041c0e3dba10e8b6d39e9d53a91e05f9a8fa64736f6c63430008110033",
  "immutableReferences": {},
  "source": "// SPDX-License-Identifier: CC0-1.0\nimport '@openzeppelin/contracts-upgradeable/security/ReentrancyGuardUpgradeable.sol';\nimport '@openzeppelin/contracts-upgradeable/token/ERC20/utils/SafeERC20Upgradeable.sol';\nimport '@openzeppelin/contracts/token/ERC721/IERC721.sol';\nimport '@openzeppelin/contracts/token/ERC1155/IERC1155.sol';\n/**\nContract to enable someone to submit a ZKP transaction for processing.\nIt is possible we will move this off-chain in the future as blockchain\nfunctionality is not really required - it's just a data availability aid.\n@Author Westlad\n*/\n\npragma solidity ^0.8.0;\n\nimport './Utils.sol';\nimport './Config.sol';\nimport './Stateful.sol';\nimport './Pausable.sol';\nimport './X509Interface.sol';\nimport './SanctionsListInterface.sol';\n\ncontract Shield is Stateful, Config, ReentrancyGuardUpgradeable, Pausable {\n    using SafeERC20Upgradeable for IERC20Upgradeable;\n    mapping(bytes32 => AdvanceWithdrawal) public advancedWithdrawals;\n    X509Interface x509;\n    SanctionsListInterface sanctionsList;\n\n    function initializeState(address sanctionsListAddress, address x509Address) public initializer {\n        sanctionsList = SanctionsListInterface(sanctionsListAddress);\n        x509 = X509Interface(x509Address);\n        initialize();\n    }\n\n    function initialize() public override(Stateful, Config, Pausable) onlyInitializing {\n        Stateful.initialize();\n        Config.initialize();\n        ReentrancyGuardUpgradeable.__ReentrancyGuard_init();\n        Pausable.initialize();\n    }\n\n    function submitTransaction(Transaction calldata t) external payable nonReentrant whenNotPaused {\n        // let everyone know what you did\n        emit TransactionSubmitted();\n        require(\n            x509.x509Check(msg.sender),\n            'Shield: You are not authorised to transact using Nightfall'\n        );\n        require(\n            !sanctionsList.isSanctioned(msg.sender),\n            'Shield: You are on the Chainalysis sanctions list'\n        );\n        require(\n            msg.value == 0 || Utils.getFee(t.packedInfo) == 0,\n            'Shield: Fee cannot be paid in both tokens'\n        );\n\n        uint256 maxBlockSize = MAX_BLOCK_SIZE;\n        assembly {\n            if lt(maxBlockSize, sub(calldatasize(), 36)) {\n                mstore(0, 0x1dd1c73100000000000000000000000000000000000000000000000000000000) //Custom error InvalidTransactionSize\n                revert(0, 4)\n            }\n        }\n\n        (, bool isEscrowRequired) = state.circuitInfo(Utils.getCircuitHash(t.packedInfo));\n        if (isEscrowRequired || msg.value > 0) {\n            bytes32 transactionHash = Utils.hashTransaction(t);\n            state.setTransactionInfo(transactionHash, isEscrowRequired, uint248(msg.value));\n            if (isEscrowRequired) {\n                payIn(t);\n            }\n        }\n    }\n\n    // function to enable a proposer to get paid for proposing a block\n    function requestBlockPayment(Block calldata b) external {\n        bytes32 blockHash = Utils.hashBlock(b);\n\n        uint64 blockNumberL2 = Utils.getBlockNumberL2(b.packedInfo);\n        address proposer = Utils.getProposer(b.packedInfo);\n        BlockData memory blockData = state.getBlockData(blockNumberL2);\n        require(blockData.blockHash == blockHash, 'Shield: This block does not exist');\n\n        // check that the block has been finalised\n        require(\n            blockData.time + CHALLENGE_PERIOD < block.timestamp,\n            'Shield: Too soon to get paid for this block'\n        );\n\n        (uint120 feesEth, uint120 feesMatic, bool stakeClaimed) = state.blockInfo(\n            blockData.blockHash\n        );\n        require(proposer == msg.sender, 'Shield: Not the proposer of this block');\n        require(!stakeClaimed, 'Shield: Block stake for this block already claimed');\n        state.setBlockStakeWithdrawn(blockHash);\n\n        //Request fees\n\n        state.resetFeeBookBlocksInfo(blockHash);\n\n        if (feesEth > 0) {\n            (bool success, ) = payable(address(state)).call{value: feesEth}('');\n            require(success, 'Shield: Transfer failed.');\n        }\n\n        if (feesMatic > 0) {\n            IERC20Upgradeable(super.getMaticAddress()).safeTransfer(address(state), feesMatic);\n        }\n\n        // recover the stake for that block\n        TimeLockedStake memory stake = state.getStakeAccount(msg.sender);\n        stake.amount += blockData.blockStake;\n        stake.challengeLocked -= blockData.blockStake;\n        state.setStakeAccount(msg.sender, stake.amount, stake.challengeLocked);\n\n        state.addPendingWithdrawal(msg.sender, feesEth, feesMatic);\n    }\n\n    /**\n     * @dev Check if a block has been paid to the proposer\n     */\n    function isBlockPaymentPending(uint64 blockNumberL2) external view returns (bool) {\n        BlockData memory blockData = state.getBlockData(blockNumberL2);\n        require(\n            blockData.time + CHALLENGE_PERIOD < block.timestamp,\n            'Shield: Too soon to get paid for this block'\n        );\n        (, , bool stakeClaimed) = state.blockInfo(blockData.blockHash);\n        require(!stakeClaimed, 'Shield: Block stake for this block already claimed');\n\n        return true;\n    }\n\n    function onERC721Received(\n        address,\n        address _from,\n        uint256 _tokenId,\n        bytes calldata\n    ) external returns (bytes4) {\n        return 0x150b7a02;\n    }\n\n    function onERC1155Received(\n        address _operator,\n        address _from,\n        uint256 _id,\n        uint256 _value,\n        bytes calldata _data\n    ) external returns (bytes4) {\n        return 0xf23a6e61;\n    }\n\n    /* *\n  This function returns if you are able to withdraw the funds, once a block is finalised\n  @param b - the block containing the Withdraw transaction\n  @param t - array of the transactions contained in the block\n  @param index - the index of the transaction that locates it in the array of Transactions in Block b\n  */\n    function isValidWithdrawal(\n        Block calldata b,\n        Transaction calldata t,\n        uint256 index,\n        bytes32[] calldata siblingPath\n    ) external view returns (bool) {\n        // check this block is a real one, in the queue, not something made up.\n        bytes32 transactionHash = state.areBlockAndTransactionReal(b, t, index, siblingPath);\n        // check that the block has been finalised\n        (bool isWithdrawing, ) = state.circuitInfo(Utils.getCircuitHash(t.packedInfo));\n        require(isWithdrawing, 'Shield: Transaction is not a valid withdraw');\n        require(\n            state.getBlockData(Utils.getBlockNumberL2(b.packedInfo)).time + CHALLENGE_PERIOD <\n                block.timestamp,\n            'Shield: Too soon to withdraw funds from this block'\n        );\n\n        require(\n            !advancedWithdrawals[transactionHash].isWithdrawn,\n            'Shield: This transaction has already paid out'\n        );\n\n        return true;\n    }\n\n    /**\n  This function enables funds to be withdrawn, once a block is finalised\n  @param b - the block containing the Withdraw transaction\n  @param t - array of the transactions contained in the block\n  @param index - the index of the transaction that locates it in the array of Transactions in Block b\n  TODO do we need to pass in  all the block data?\n  */\n\n    function finaliseWithdrawal(\n        Block calldata b,\n        Transaction calldata t,\n        uint256 index,\n        bytes32[] calldata siblingPath\n    ) external {\n        // check this block is a real one, in the queue, not something made up and that the transaction exists in the block\n        bytes32 transactionHash = state.areBlockAndTransactionReal(b, t, index, siblingPath);\n        // check that the block has been finalised\n        require(\n            state.getBlockData(Utils.getBlockNumberL2(b.packedInfo)).time + CHALLENGE_PERIOD <\n                block.timestamp,\n            'Shield: Too soon to withdraw funds from this block'\n        );\n        (bool isWithdrawing, ) = state.circuitInfo(Utils.getCircuitHash(t.packedInfo));\n        require(isWithdrawing, 'Shield: Transaction is not a valid withdraw');\n        require(\n            !advancedWithdrawals[transactionHash].isWithdrawn,\n            'Shield: This transaction has already paid out'\n        );\n        advancedWithdrawals[transactionHash].isWithdrawn = true;\n\n        AdvanceWithdrawal memory advancedWithdrawal = advancedWithdrawals[transactionHash];\n        address originalRecipientAddress = address(uint160(uint256(t.recipientAddress)));\n        // check if an advancedWithdrawal has been paid, if so payout the new owner.\n        address recipientAddress = advancedWithdrawal.currentOwner == address(0)\n            ? originalRecipientAddress\n            : advancedWithdrawal.currentOwner;\n\n        if (advancedWithdrawal.advanceFee > 0) {\n            (bool success, ) = payable(address(state)).call{\n                value: uint256(advancedWithdrawal.advanceFee)\n            }('');\n            require(success, 'Shield: Transfer failed.');\n\n            state.addPendingWithdrawal(recipientAddress, advancedWithdrawal.advanceFee, 0);\n        }\n        require(\n            x509.x509Check(msg.sender),\n            'Shield: You are not authorised to transact using Nightfall'\n        );\n        require(\n            !sanctionsList.isSanctioned(msg.sender),\n            'Shield: You are on the Chainalysis sanctions list'\n        );\n        payOut(t, recipientAddress);\n    }\n\n    // Currently this can pose as a non-interactive way for transactors to get their withdrawals\n    // Instead of calling finaliseWithdrawal (a pull op), advanceWithdrawal will send them the funds (push op) for a fee.\n    function advanceWithdrawal(\n        Block calldata b,\n        Transaction calldata t,\n        uint256 index,\n        bytes32[] calldata siblingPath\n    ) external {\n        // check this block is a real one, in the queue, not something made up.\n        bytes32 transactionHash = state.areBlockAndTransactionReal(b, t, index, siblingPath);\n\n        // if no fee is set, then the withdrawal is not tagged as advanceable - else someone could just steal withdrawals\n        require(\n            advancedWithdrawals[transactionHash].advanceFee > 0,\n            'Shield: No advanced fee has been set for this withdrawal'\n        );\n\n        //Check that the withdrawal is still challengeable\n        require(\n            state.getBlockData(Utils.getBlockNumberL2(b.packedInfo)).time + CHALLENGE_PERIOD >=\n                block.timestamp,\n            'Shield: The block has already been finalized'\n        );\n\n        // The withdrawal has not been withdrawn\n        require(\n            !advancedWithdrawals[transactionHash].isWithdrawn,\n            'Shield: This transaction has already paid out'\n        );\n\n        // this might incentives sniping freshly finalised blocks by liquidity providers\n        // this is risk-free as the block is finalised, the advancedFee should reflect a risk premium.\n        address tokenAddress = address(uint160(uint256(t.ercAddress)));\n        address originalRecipientAddress = address(uint160(uint256(t.recipientAddress)));\n        address currentOwner = advancedWithdrawals[transactionHash].currentOwner == address(0)\n            ? originalRecipientAddress\n            : advancedWithdrawals[transactionHash].currentOwner;\n        uint120 advanceFee = advancedWithdrawals[transactionHash].advanceFee;\n\n        // set new owner of transaction, settign fee to zero.\n        advancedWithdrawals[transactionHash].advanceFee = 0;\n        advancedWithdrawals[transactionHash].currentOwner = msg.sender;\n\n        state.addPendingWithdrawal(msg.sender, advanceFee, 0);\n        (bool success, ) = payable(address(state)).call{value: uint256(advanceFee)}('');\n        require(success, 'Shield: Transfer failed.');\n\n        IERC20Upgradeable(tokenAddress).safeTransferFrom(\n            address(msg.sender),\n            currentOwner,\n            uint256(Utils.getValue(t.packedInfo))\n        );\n    }\n\n    function setAdvanceWithdrawalFee(\n        Block calldata b,\n        Transaction calldata t,\n        uint256 index,\n        bytes32[] calldata siblingPath\n    ) external payable nonReentrant {\n        // check this block is a real one, in the queue, not something made up.\n        bytes32 transactionHash = state.areBlockAndTransactionReal(b, t, index, siblingPath);\n\n        // The transaction is a withdrawal transaction\n        (bool isWithdrawing, ) = state.circuitInfo(Utils.getCircuitHash(t.packedInfo));\n        require(isWithdrawing, 'Shield: Can only advance withdrawals');\n\n        require(msg.value > 0, 'Shield: Advance fee cannot be zero');\n\n        //Check that the withdrawal is still challengeable\n        require(\n            state.getBlockData(Utils.getBlockNumberL2(b.packedInfo)).time + CHALLENGE_PERIOD >=\n                block.timestamp,\n            'Shield: The block has already been finalized'\n        );\n\n        require(\n            Utils.getTokenType(t.packedInfo) == TokenType.ERC20 && t.tokenId == ZERO,\n            'Shield: Can only advance withdrawals for fungible tokens'\n        );\n\n        // The withdrawal has not been withdrawn\n        require(\n            !advancedWithdrawals[transactionHash].isWithdrawn,\n            'Shield: This transaction has already paid out'\n        );\n        AdvanceWithdrawal memory advancedWithdrawal = advancedWithdrawals[transactionHash];\n        address originalRecipientAddress = address(uint160(uint256(t.recipientAddress)));\n        address currentOwner = advancedWithdrawal.currentOwner == address(0)\n            ? originalRecipientAddress\n            : advancedWithdrawal.currentOwner;\n\n        // Only the owner of the withdraw can set the advanced withdrawal\n        require(\n            msg.sender == currentOwner,\n            'Shield: You are not the current owner of this withdrawal'\n        );\n\n        advancedWithdrawal.advanceFee += uint88(msg.value);\n        advancedWithdrawals[transactionHash] = advancedWithdrawal;\n        emit InstantWithdrawalRequested(transactionHash, msg.sender, advancedWithdrawal.advanceFee);\n    }\n\n    function payOut(Transaction calldata t, address recipientAddress) internal whenNotPaused {\n        require(\n            uint256(t.ercAddress) < 0x010000000000000000000000000000000000000000,\n            'Shield: The given address is more than 160 bits'\n        );\n        address addr = address(uint160(uint256(t.ercAddress)));\n\n        uint112 value = Utils.getValue(t.packedInfo);\n\n        TokenType tokenType = Utils.getTokenType(t.packedInfo);\n        if (tokenType == TokenType.ERC20) {\n            if (t.tokenId != ZERO)\n                revert('Shield: ERC20 withdrawal should have tokenId equal to ZERO');\n            uint256 check = super.getRestrictionWithdraw(addr);\n            if (value > check && check != 0)\n                revert('Shield: Value is above current restrictions for withdrawals');\n            else IERC20Upgradeable(addr).safeTransfer(recipientAddress, uint256(value));\n        } else if (tokenType == TokenType.ERC721) {\n            if (value != 0)\n                // value should always be equal to 0\n                revert('Shield: Invalid inputs for ERC721 withdrawal');\n            else\n                IERC721(addr).safeTransferFrom(\n                    address(this),\n                    recipientAddress,\n                    uint256(t.tokenId),\n                    ''\n                );\n        } else if (tokenType == TokenType.ERC1155) {\n            IERC1155(addr).safeTransferFrom(\n                address(this),\n                recipientAddress,\n                uint256(t.tokenId),\n                uint256(value),\n                ''\n            );\n        }\n    }\n\n    function payIn(Transaction calldata t) internal {\n        // check the address fits in 160 bits. This is so we can't overflow the circuit\n        uint256 addrNum = uint256(t.ercAddress);\n        require(\n            addrNum < 0x010000000000000000000000000000000000000000,\n            'Shield: The given address is more than 160 bits'\n        );\n        address addr = address(uint160(addrNum));\n\n        uint112 value = Utils.getValue(t.packedInfo);\n        TokenType tokenType = Utils.getTokenType(t.packedInfo);\n\n        if (tokenType == TokenType.ERC20) {\n            if (t.tokenId != ZERO)\n                revert('Shield: ERC20 deposit should have tokenId equal to ZERO');\n            uint256 check = super.getRestrictionDeposit(addr);\n            if (value > check && check != 0)\n                revert('Shield: Value is above current restrictions for deposits');\n            else\n                IERC20Upgradeable(addr).safeTransferFrom(msg.sender, address(this), uint256(value));\n        } else if (tokenType == TokenType.ERC721) {\n            if (value != 0)\n                // value should always be equal to 0\n                revert('Shield: Invalid inputs for ERC721 deposit');\n            else IERC721(addr).safeTransferFrom(msg.sender, address(this), uint256(t.tokenId), '');\n        } else if (tokenType == TokenType.ERC1155) {\n            IERC1155(addr).safeTransferFrom(\n                msg.sender,\n                address(this),\n                uint256(t.tokenId),\n                uint256(value),\n                ''\n            );\n        }\n    }\n}\n",
  "sourcePath": "/app/contracts/Shield.sol",
  "compiler": {
    "name": "solc",
    "version": "0.8.17+commit.8df45f5f.Emscripten.clang"
  },
  "schemaVersion": "3.4.10",
  "updatedAt": "2022-12-08T15:27:23.012Z",
  "networkType": "ethereum",
  "devdoc": {
    "kind": "dev",
    "methods": {
      "finaliseWithdrawal((uint256,bytes32,bytes32,bytes32,bytes32),(uint256,uint256[],bytes32,bytes32,bytes32,bytes32[],bytes32[],bytes32[2],uint256[4]),uint256,bytes32[])": {
        "params": {
          "b": "- the block containing the Withdraw transaction",
          "index": "- the index of the transaction that locates it in the array of Transactions in Block b TODO do we need to pass in  all the block data?",
          "t": "- array of the transactions contained in the block"
        }
      },
      "getBlockStake()": {
        "details": "Get block stake for a proposer"
      },
      "getBootChallenger()": {
        "details": "Get boot challenger address"
      },
      "getBootProposer()": {
        "details": "Get boot proposer address"
      },
      "getMaticAddress()": {
        "details": "Get Matic address (fee token for proposers payment)"
      },
      "getMaxProposers()": {
        "details": "Get maximum number of proposers"
      },
      "getMinimumStake()": {
        "details": "Get minimum stake for a proposer"
      },
      "getProposerSetCount()": {
        "details": "Get proposerset count in PoS"
      },
      "getRotateProposerBlocks()": {
        "details": "Get rotate proposer blocks for the current proposer"
      },
      "getSprintsInSpan()": {
        "details": "Get sprints in span in PoS"
      },
      "isBlockPaymentPending(uint64)": {
        "details": "Check if a block has been paid to the proposer"
      },
      "owner()": {
        "details": "Tells the address of the owner",
        "returns": {
          "_0": "the address of the owner"
        }
      },
      "paused()": {
        "details": "Returns true if the contract is paused, and false otherwise."
      },
      "removeRestriction(address)": {
        "details": "Remove token restriction"
      },
      "setBlockStake(uint96)": {
        "details": "Set block stake for a proposer"
      },
      "setBootChallenger(address)": {
        "details": "Set boot challenger address"
      },
      "setBootProposer(address)": {
        "details": "Set boot proposer address"
      },
      "setMaticAddress(address)": {
        "details": "Set Matic address (fee token for proposers payment)"
      },
      "setMaxProposers(uint256)": {
        "details": "Set maximum number of proposers"
      },
      "setMinimumStake(uint96)": {
        "details": "Set minimum stake for a proposer"
      },
      "setProposerSetCount(uint256)": {
        "details": "Set proposerset count in PoS"
      },
      "setRestriction(address,uint256,uint256)": {
        "details": "Set token restriction"
      },
      "setRotateProposerBlocks(uint256)": {
        "details": "Set rotate proposer blocks for the current proposer"
      },
      "setSprintsInSpan(uint256)": {
        "details": "Set sprints in span in PoS"
      },
      "transferOwnership(address)": {
        "details": "Allows the current owner to transfer control of the contract to a newOwner.",
        "params": {
          "newOwner": "The address to transfer ownership to."
        }
      }
    },
    "version": 1
  },
  "userdoc": {
    "events": {
      "NewLeaf(uint256,bytes32,bytes32)": {
        "notice": "These events are what the merkle-tree microservice's filters will listen for."
      }
    },
    "kind": "user",
    "methods": {
      "finaliseWithdrawal((uint256,bytes32,bytes32,bytes32,bytes32),(uint256,uint256[],bytes32,bytes32,bytes32,bytes32[],bytes32[],bytes32[2],uint256[4]),uint256,bytes32[])": {
        "notice": "This function enables funds to be withdrawn, once a block is finalised"
      }
    },
    "version": 1
  }
}