{
  "contractName": "Shield",
  "abi": [
    {
      "inputs": [
        {
          "internalType": "bytes32",
          "name": "commitmentHash",
          "type": "bytes32"
        }
      ],
      "name": "CommitmentNotEscrowed",
      "type": "error"
    },
    {
      "inputs": [],
      "name": "InvalidBlockSize",
      "type": "error"
    },
    {
      "inputs": [],
      "name": "InvalidTransactionHash",
      "type": "error"
    },
    {
      "inputs": [],
      "name": "InvalidTransactionSize",
      "type": "error"
    },
    {
      "anonymous": false,
      "inputs": [],
      "name": "BlockProposed",
      "type": "event"
    },
    {
      "anonymous": false,
      "inputs": [
        {
          "indexed": false,
          "internalType": "bytes32",
          "name": "commitHash",
          "type": "bytes32"
        },
        {
          "indexed": false,
          "internalType": "address",
          "name": "sender",
          "type": "address"
        }
      ],
      "name": "CommittedToChallenge",
      "type": "event"
    },
    {
      "anonymous": false,
      "inputs": [
        {
          "indexed": false,
          "internalType": "uint8",
          "name": "version",
          "type": "uint8"
        }
      ],
      "name": "Initialized",
      "type": "event"
    },
    {
      "anonymous": false,
      "inputs": [
        {
          "indexed": false,
          "internalType": "bytes32",
          "name": "withdrawTransactionHash",
          "type": "bytes32"
        },
        {
          "indexed": false,
          "internalType": "address",
          "name": "paidBy",
          "type": "address"
        },
        {
          "indexed": false,
          "internalType": "uint256",
          "name": "amount",
          "type": "uint256"
        }
      ],
      "name": "InstantWithdrawalRequested",
      "type": "event"
    },
    {
      "anonymous": false,
      "inputs": [
        {
          "indexed": false,
          "internalType": "address",
          "name": "addr",
          "type": "address"
        }
      ],
      "name": "NewBootChallengerSet",
      "type": "event"
    },
    {
      "anonymous": false,
      "inputs": [
        {
          "indexed": false,
          "internalType": "address",
          "name": "addr",
          "type": "address"
        }
      ],
      "name": "NewBootProposerSet",
      "type": "event"
    },
    {
      "anonymous": false,
      "inputs": [
        {
          "indexed": false,
          "internalType": "address",
          "name": "proposer",
          "type": "address"
        }
      ],
      "name": "NewCurrentProposer",
      "type": "event"
    },
    {
      "anonymous": false,
      "inputs": [
        {
          "indexed": false,
          "internalType": "uint256",
          "name": "leafIndex",
          "type": "uint256"
        },
        {
          "indexed": false,
          "internalType": "bytes32",
          "name": "leafValue",
          "type": "bytes32"
        },
        {
          "indexed": false,
          "internalType": "bytes32",
          "name": "root",
          "type": "bytes32"
        }
      ],
      "name": "NewLeaf",
      "type": "event"
    },
    {
      "anonymous": false,
      "inputs": [
        {
          "indexed": false,
          "internalType": "uint256",
          "name": "minLeafIndex",
          "type": "uint256"
        },
        {
          "indexed": false,
          "internalType": "bytes32[]",
          "name": "leafValues",
          "type": "bytes32[]"
        },
        {
          "indexed": false,
          "internalType": "bytes32",
          "name": "root",
          "type": "bytes32"
        }
      ],
      "name": "NewLeaves",
      "type": "event"
    },
    {
      "anonymous": false,
      "inputs": [
        {
          "indexed": false,
          "internalType": "address",
          "name": "previousOwner",
          "type": "address"
        },
        {
          "indexed": false,
          "internalType": "address",
          "name": "newOwner",
          "type": "address"
        }
      ],
      "name": "OwnershipTransferred",
      "type": "event"
    },
    {
      "anonymous": false,
      "inputs": [
        {
          "indexed": false,
          "internalType": "address",
          "name": "account",
          "type": "address"
        }
      ],
      "name": "Paused",
      "type": "event"
    },
    {
      "anonymous": false,
      "inputs": [
        {
          "indexed": false,
          "internalType": "uint64",
          "name": "blockNumberL2",
          "type": "uint64"
        }
      ],
      "name": "Rollback",
      "type": "event"
    },
    {
      "anonymous": false,
      "inputs": [
        {
          "indexed": false,
          "internalType": "address",
          "name": "ercAddress",
          "type": "address"
        },
        {
          "indexed": false,
          "internalType": "uint256",
          "name": "amount",
          "type": "uint256"
        }
      ],
      "name": "ShieldBalanceTransferred",
      "type": "event"
    },
    {
      "anonymous": false,
      "inputs": [],
      "name": "TransactionSubmitted",
      "type": "event"
    },
    {
      "anonymous": false,
      "inputs": [
        {
          "indexed": false,
          "internalType": "address",
          "name": "account",
          "type": "address"
        }
      ],
      "name": "Unpaused",
      "type": "event"
    },
    {
      "inputs": [],
      "name": "_owner",
      "outputs": [
        {
          "internalType": "address",
          "name": "",
          "type": "address"
        }
      ],
      "stateMutability": "view",
      "type": "function",
      "constant": true
    },
    {
      "inputs": [
        {
          "internalType": "bytes32",
          "name": "",
          "type": "bytes32"
        }
      ],
      "name": "advancedWithdrawals",
      "outputs": [
        {
          "internalType": "address",
          "name": "currentOwner",
          "type": "address"
        },
        {
          "internalType": "uint88",
          "name": "advanceFee",
          "type": "uint88"
        },
        {
          "internalType": "bool",
          "name": "isWithdrawn",
          "type": "bool"
        }
      ],
      "stateMutability": "view",
      "type": "function",
      "constant": true
    },
    {
      "inputs": [],
      "name": "getBlockStake",
      "outputs": [
        {
          "internalType": "uint96",
          "name": "",
          "type": "uint96"
        }
      ],
      "stateMutability": "view",
      "type": "function",
      "constant": true
    },
    {
      "inputs": [],
      "name": "getBootChallenger",
      "outputs": [
        {
          "internalType": "address",
          "name": "",
          "type": "address"
        }
      ],
      "stateMutability": "view",
      "type": "function",
      "constant": true
    },
    {
      "inputs": [],
      "name": "getBootProposer",
      "outputs": [
        {
          "internalType": "address",
          "name": "",
          "type": "address"
        }
      ],
      "stateMutability": "view",
      "type": "function",
      "constant": true
    },
    {
      "inputs": [],
      "name": "getFeeL2TokenAddress",
      "outputs": [
        {
          "internalType": "address",
          "name": "",
          "type": "address"
        }
      ],
      "stateMutability": "view",
      "type": "function",
      "constant": true
    },
    {
      "inputs": [],
      "name": "getMaxProposers",
      "outputs": [
        {
          "internalType": "uint256",
          "name": "",
          "type": "uint256"
        }
      ],
      "stateMutability": "view",
      "type": "function",
      "constant": true
    },
    {
      "inputs": [],
      "name": "getMinimumStake",
      "outputs": [
        {
          "internalType": "uint256",
          "name": "",
          "type": "uint256"
        }
      ],
      "stateMutability": "view",
      "type": "function",
      "constant": true
    },
    {
      "inputs": [],
      "name": "getProposerSetCount",
      "outputs": [
        {
          "internalType": "uint256",
          "name": "",
          "type": "uint256"
        }
      ],
      "stateMutability": "view",
      "type": "function",
      "constant": true
    },
    {
      "inputs": [
        {
          "internalType": "address",
          "name": "tokenAddr",
          "type": "address"
        }
      ],
      "name": "getRestrictionDeposit",
      "outputs": [
        {
          "internalType": "uint256",
          "name": "",
          "type": "uint256"
        }
      ],
      "stateMutability": "view",
      "type": "function",
      "constant": true
    },
    {
      "inputs": [
        {
          "internalType": "address",
          "name": "tokenAddr",
          "type": "address"
        }
      ],
      "name": "getRestrictionWithdraw",
      "outputs": [
        {
          "internalType": "uint256",
          "name": "",
          "type": "uint256"
        }
      ],
      "stateMutability": "view",
      "type": "function",
      "constant": true
    },
    {
      "inputs": [],
      "name": "getRotateProposerBlocks",
      "outputs": [
        {
          "internalType": "uint256",
          "name": "",
          "type": "uint256"
        }
      ],
      "stateMutability": "view",
      "type": "function",
      "constant": true
    },
    {
      "inputs": [],
      "name": "getSprintsInSpan",
      "outputs": [
        {
          "internalType": "uint256",
          "name": "",
          "type": "uint256"
        }
      ],
      "stateMutability": "view",
      "type": "function",
      "constant": true
    },
    {
      "inputs": [],
      "name": "owner",
      "outputs": [
        {
          "internalType": "address",
          "name": "",
          "type": "address"
        }
      ],
      "stateMutability": "view",
      "type": "function",
      "constant": true
    },
    {
      "inputs": [],
      "name": "pause",
      "outputs": [],
      "stateMutability": "nonpayable",
      "type": "function"
    },
    {
      "inputs": [],
      "name": "paused",
      "outputs": [
        {
          "internalType": "bool",
          "name": "",
          "type": "bool"
        }
      ],
      "stateMutability": "view",
      "type": "function",
      "constant": true
    },
    {
      "inputs": [
        {
          "internalType": "address",
          "name": "tokenAddr",
          "type": "address"
        }
      ],
      "name": "removeRestriction",
      "outputs": [],
      "stateMutability": "nonpayable",
      "type": "function"
    },
    {
      "inputs": [
        {
          "internalType": "uint96",
          "name": "_blockStake",
          "type": "uint96"
        }
      ],
      "name": "setBlockStake",
      "outputs": [],
      "stateMutability": "nonpayable",
      "type": "function"
    },
    {
      "inputs": [
        {
          "internalType": "address",
          "name": "challenger",
          "type": "address"
        }
      ],
      "name": "setBootChallenger",
      "outputs": [],
      "stateMutability": "nonpayable",
      "type": "function"
    },
    {
      "inputs": [
        {
          "internalType": "address",
          "name": "proposer",
          "type": "address"
        }
      ],
      "name": "setBootProposer",
      "outputs": [],
      "stateMutability": "nonpayable",
      "type": "function"
    },
    {
      "inputs": [
        {
          "internalType": "address",
          "name": "_feeL2TokenAddress",
          "type": "address"
        }
      ],
      "name": "setFeeL2TokenAddress",
      "outputs": [],
      "stateMutability": "nonpayable",
      "type": "function"
    },
    {
      "inputs": [
        {
          "internalType": "uint256",
          "name": "_maxProposers",
          "type": "uint256"
        }
      ],
      "name": "setMaxProposers",
      "outputs": [],
      "stateMutability": "nonpayable",
      "type": "function"
    },
    {
      "inputs": [
        {
          "internalType": "uint96",
          "name": "_minimumStake",
          "type": "uint96"
        }
      ],
      "name": "setMinimumStake",
      "outputs": [],
      "stateMutability": "nonpayable",
      "type": "function"
    },
    {
      "inputs": [
        {
          "internalType": "uint256",
          "name": "_proposerSetCount",
          "type": "uint256"
        }
      ],
      "name": "setProposerSetCount",
      "outputs": [],
      "stateMutability": "nonpayable",
      "type": "function"
    },
    {
      "inputs": [
        {
          "internalType": "address",
          "name": "tokenAddr",
          "type": "address"
        },
        {
          "internalType": "uint256",
          "name": "depositAmount",
          "type": "uint256"
        },
        {
          "internalType": "uint256",
          "name": "withdrawAmount",
          "type": "uint256"
        }
      ],
      "name": "setRestriction",
      "outputs": [],
      "stateMutability": "nonpayable",
      "type": "function"
    },
    {
      "inputs": [
        {
          "internalType": "uint256",
          "name": "_rotateProposerBlocks",
          "type": "uint256"
        }
      ],
      "name": "setRotateProposerBlocks",
      "outputs": [],
      "stateMutability": "nonpayable",
      "type": "function"
    },
    {
      "inputs": [
        {
          "internalType": "uint256",
          "name": "_sprintsInSpan",
          "type": "uint256"
        }
      ],
      "name": "setSprintsInSpan",
      "outputs": [],
      "stateMutability": "nonpayable",
      "type": "function"
    },
    {
      "inputs": [
        {
          "internalType": "address payable",
          "name": "stateAddress",
          "type": "address"
        }
      ],
      "name": "setStateContract",
      "outputs": [],
      "stateMutability": "nonpayable",
      "type": "function"
    },
    {
      "inputs": [],
      "name": "state",
      "outputs": [
        {
          "internalType": "contract State",
          "name": "",
          "type": "address"
        }
      ],
      "stateMutability": "view",
      "type": "function",
      "constant": true
    },
    {
      "inputs": [
        {
          "internalType": "address",
          "name": "newOwner",
          "type": "address"
        }
      ],
      "name": "transferOwnership",
      "outputs": [],
      "stateMutability": "nonpayable",
      "type": "function"
    },
    {
      "inputs": [],
      "name": "unpause",
      "outputs": [],
      "stateMutability": "nonpayable",
      "type": "function"
    },
    {
      "inputs": [
        {
          "internalType": "address",
          "name": "sanctionsListAddress",
          "type": "address"
        },
        {
          "internalType": "address",
          "name": "x509Address",
          "type": "address"
        }
      ],
      "name": "initializeState",
      "outputs": [],
      "stateMutability": "nonpayable",
      "type": "function"
    },
    {
      "inputs": [],
      "name": "initialize",
      "outputs": [],
      "stateMutability": "nonpayable",
      "type": "function"
    },
    {
      "inputs": [
        {
          "components": [
            {
              "internalType": "uint256",
              "name": "packedInfo",
              "type": "uint256"
            },
            {
              "internalType": "uint256[]",
              "name": "historicRootBlockNumberL2",
              "type": "uint256[]"
            },
            {
              "internalType": "bytes32",
              "name": "tokenId",
              "type": "bytes32"
            },
            {
              "internalType": "bytes32",
              "name": "ercAddress",
              "type": "bytes32"
            },
            {
              "internalType": "bytes32",
              "name": "recipientAddress",
              "type": "bytes32"
            },
            {
              "internalType": "bytes32[]",
              "name": "commitments",
              "type": "bytes32[]"
            },
            {
              "internalType": "bytes32[]",
              "name": "nullifiers",
              "type": "bytes32[]"
            },
            {
              "internalType": "bytes32[2]",
              "name": "compressedSecrets",
              "type": "bytes32[2]"
            },
            {
              "internalType": "uint256[4]",
              "name": "proof",
              "type": "uint256[4]"
            }
          ],
          "internalType": "struct Structures.Transaction",
          "name": "t",
          "type": "tuple"
        }
      ],
      "name": "submitTransaction",
      "outputs": [],
      "stateMutability": "nonpayable",
      "type": "function"
    },
    {
      "inputs": [
        {
          "components": [
            {
              "internalType": "uint256",
              "name": "packedInfo",
              "type": "uint256"
            },
            {
              "internalType": "bytes32",
              "name": "root",
              "type": "bytes32"
            },
            {
              "internalType": "bytes32",
              "name": "previousBlockHash",
              "type": "bytes32"
            },
            {
              "internalType": "bytes32",
              "name": "frontierHash",
              "type": "bytes32"
            },
            {
              "internalType": "bytes32",
              "name": "transactionHashesRoot",
              "type": "bytes32"
            }
          ],
          "internalType": "struct Structures.Block",
          "name": "b",
          "type": "tuple"
        }
      ],
      "name": "requestBlockPayment",
      "outputs": [],
      "stateMutability": "nonpayable",
      "type": "function"
    },
    {
      "inputs": [
        {
          "internalType": "uint64",
          "name": "blockNumberL2",
          "type": "uint64"
        }
      ],
      "name": "isBlockPaymentPending",
      "outputs": [
        {
          "internalType": "bool",
          "name": "",
          "type": "bool"
        }
      ],
      "stateMutability": "view",
      "type": "function",
      "constant": true
    },
    {
      "inputs": [
        {
          "internalType": "address",
          "name": "",
          "type": "address"
        },
        {
          "internalType": "address",
          "name": "_from",
          "type": "address"
        },
        {
          "internalType": "uint256",
          "name": "_tokenId",
          "type": "uint256"
        },
        {
          "internalType": "bytes",
          "name": "",
          "type": "bytes"
        }
      ],
      "name": "onERC721Received",
      "outputs": [
        {
          "internalType": "bytes4",
          "name": "",
          "type": "bytes4"
        }
      ],
      "stateMutability": "nonpayable",
      "type": "function"
    },
    {
      "inputs": [
        {
          "internalType": "address",
          "name": "_operator",
          "type": "address"
        },
        {
          "internalType": "address",
          "name": "_from",
          "type": "address"
        },
        {
          "internalType": "uint256",
          "name": "_id",
          "type": "uint256"
        },
        {
          "internalType": "uint256",
          "name": "_value",
          "type": "uint256"
        },
        {
          "internalType": "bytes",
          "name": "_data",
          "type": "bytes"
        }
      ],
      "name": "onERC1155Received",
      "outputs": [
        {
          "internalType": "bytes4",
          "name": "",
          "type": "bytes4"
        }
      ],
      "stateMutability": "nonpayable",
      "type": "function"
    },
    {
      "inputs": [
        {
          "components": [
            {
              "internalType": "uint256",
              "name": "packedInfo",
              "type": "uint256"
            },
            {
              "internalType": "bytes32",
              "name": "root",
              "type": "bytes32"
            },
            {
              "internalType": "bytes32",
              "name": "previousBlockHash",
              "type": "bytes32"
            },
            {
              "internalType": "bytes32",
              "name": "frontierHash",
              "type": "bytes32"
            },
            {
              "internalType": "bytes32",
              "name": "transactionHashesRoot",
              "type": "bytes32"
            }
          ],
          "internalType": "struct Structures.Block",
          "name": "b",
          "type": "tuple"
        },
        {
          "components": [
            {
              "internalType": "uint256",
              "name": "packedInfo",
              "type": "uint256"
            },
            {
              "internalType": "uint256[]",
              "name": "historicRootBlockNumberL2",
              "type": "uint256[]"
            },
            {
              "internalType": "bytes32",
              "name": "tokenId",
              "type": "bytes32"
            },
            {
              "internalType": "bytes32",
              "name": "ercAddress",
              "type": "bytes32"
            },
            {
              "internalType": "bytes32",
              "name": "recipientAddress",
              "type": "bytes32"
            },
            {
              "internalType": "bytes32[]",
              "name": "commitments",
              "type": "bytes32[]"
            },
            {
              "internalType": "bytes32[]",
              "name": "nullifiers",
              "type": "bytes32[]"
            },
            {
              "internalType": "bytes32[2]",
              "name": "compressedSecrets",
              "type": "bytes32[2]"
            },
            {
              "internalType": "uint256[4]",
              "name": "proof",
              "type": "uint256[4]"
            }
          ],
          "internalType": "struct Structures.Transaction",
          "name": "t",
          "type": "tuple"
        },
        {
          "internalType": "uint256",
          "name": "index",
          "type": "uint256"
        },
        {
          "internalType": "bytes32[]",
          "name": "siblingPath",
          "type": "bytes32[]"
        }
      ],
      "name": "isValidWithdrawal",
      "outputs": [
        {
          "internalType": "bool",
          "name": "",
          "type": "bool"
        }
      ],
      "stateMutability": "view",
      "type": "function",
      "constant": true
    },
    {
      "inputs": [
        {
          "components": [
            {
              "internalType": "uint256",
              "name": "packedInfo",
              "type": "uint256"
            },
            {
              "internalType": "bytes32",
              "name": "root",
              "type": "bytes32"
            },
            {
              "internalType": "bytes32",
              "name": "previousBlockHash",
              "type": "bytes32"
            },
            {
              "internalType": "bytes32",
              "name": "frontierHash",
              "type": "bytes32"
            },
            {
              "internalType": "bytes32",
              "name": "transactionHashesRoot",
              "type": "bytes32"
            }
          ],
          "internalType": "struct Structures.Block",
          "name": "b",
          "type": "tuple"
        },
        {
          "components": [
            {
              "internalType": "uint256",
              "name": "packedInfo",
              "type": "uint256"
            },
            {
              "internalType": "uint256[]",
              "name": "historicRootBlockNumberL2",
              "type": "uint256[]"
            },
            {
              "internalType": "bytes32",
              "name": "tokenId",
              "type": "bytes32"
            },
            {
              "internalType": "bytes32",
              "name": "ercAddress",
              "type": "bytes32"
            },
            {
              "internalType": "bytes32",
              "name": "recipientAddress",
              "type": "bytes32"
            },
            {
              "internalType": "bytes32[]",
              "name": "commitments",
              "type": "bytes32[]"
            },
            {
              "internalType": "bytes32[]",
              "name": "nullifiers",
              "type": "bytes32[]"
            },
            {
              "internalType": "bytes32[2]",
              "name": "compressedSecrets",
              "type": "bytes32[2]"
            },
            {
              "internalType": "uint256[4]",
              "name": "proof",
              "type": "uint256[4]"
            }
          ],
          "internalType": "struct Structures.Transaction",
          "name": "t",
          "type": "tuple"
        },
        {
          "internalType": "uint256",
          "name": "index",
          "type": "uint256"
        },
        {
          "internalType": "bytes32[]",
          "name": "siblingPath",
          "type": "bytes32[]"
        }
      ],
      "name": "finaliseWithdrawal",
      "outputs": [],
      "stateMutability": "nonpayable",
      "type": "function"
    },
    {
      "inputs": [
        {
          "components": [
            {
              "internalType": "uint256",
              "name": "packedInfo",
              "type": "uint256"
            },
            {
              "internalType": "bytes32",
              "name": "root",
              "type": "bytes32"
            },
            {
              "internalType": "bytes32",
              "name": "previousBlockHash",
              "type": "bytes32"
            },
            {
              "internalType": "bytes32",
              "name": "frontierHash",
              "type": "bytes32"
            },
            {
              "internalType": "bytes32",
              "name": "transactionHashesRoot",
              "type": "bytes32"
            }
          ],
          "internalType": "struct Structures.Block",
          "name": "b",
          "type": "tuple"
        },
        {
          "components": [
            {
              "internalType": "uint256",
              "name": "packedInfo",
              "type": "uint256"
            },
            {
              "internalType": "uint256[]",
              "name": "historicRootBlockNumberL2",
              "type": "uint256[]"
            },
            {
              "internalType": "bytes32",
              "name": "tokenId",
              "type": "bytes32"
            },
            {
              "internalType": "bytes32",
              "name": "ercAddress",
              "type": "bytes32"
            },
            {
              "internalType": "bytes32",
              "name": "recipientAddress",
              "type": "bytes32"
            },
            {
              "internalType": "bytes32[]",
              "name": "commitments",
              "type": "bytes32[]"
            },
            {
              "internalType": "bytes32[]",
              "name": "nullifiers",
              "type": "bytes32[]"
            },
            {
              "internalType": "bytes32[2]",
              "name": "compressedSecrets",
              "type": "bytes32[2]"
            },
            {
              "internalType": "uint256[4]",
              "name": "proof",
              "type": "uint256[4]"
            }
          ],
          "internalType": "struct Structures.Transaction",
          "name": "t",
          "type": "tuple"
        },
        {
          "internalType": "uint256",
          "name": "index",
          "type": "uint256"
        },
        {
          "internalType": "bytes32[]",
          "name": "siblingPath",
          "type": "bytes32[]"
        }
      ],
      "name": "advanceWithdrawal",
      "outputs": [],
      "stateMutability": "nonpayable",
      "type": "function"
    },
    {
      "inputs": [
        {
          "components": [
            {
              "internalType": "uint256",
              "name": "packedInfo",
              "type": "uint256"
            },
            {
              "internalType": "bytes32",
              "name": "root",
              "type": "bytes32"
            },
            {
              "internalType": "bytes32",
              "name": "previousBlockHash",
              "type": "bytes32"
            },
            {
              "internalType": "bytes32",
              "name": "frontierHash",
              "type": "bytes32"
            },
            {
              "internalType": "bytes32",
              "name": "transactionHashesRoot",
              "type": "bytes32"
            }
          ],
          "internalType": "struct Structures.Block",
          "name": "b",
          "type": "tuple"
        },
        {
          "components": [
            {
              "internalType": "uint256",
              "name": "packedInfo",
              "type": "uint256"
            },
            {
              "internalType": "uint256[]",
              "name": "historicRootBlockNumberL2",
              "type": "uint256[]"
            },
            {
              "internalType": "bytes32",
              "name": "tokenId",
              "type": "bytes32"
            },
            {
              "internalType": "bytes32",
              "name": "ercAddress",
              "type": "bytes32"
            },
            {
              "internalType": "bytes32",
              "name": "recipientAddress",
              "type": "bytes32"
            },
            {
              "internalType": "bytes32[]",
              "name": "commitments",
              "type": "bytes32[]"
            },
            {
              "internalType": "bytes32[]",
              "name": "nullifiers",
              "type": "bytes32[]"
            },
            {
              "internalType": "bytes32[2]",
              "name": "compressedSecrets",
              "type": "bytes32[2]"
            },
            {
              "internalType": "uint256[4]",
              "name": "proof",
              "type": "uint256[4]"
            }
          ],
          "internalType": "struct Structures.Transaction",
          "name": "t",
          "type": "tuple"
        },
        {
          "internalType": "uint256",
          "name": "index",
          "type": "uint256"
        },
        {
          "internalType": "bytes32[]",
          "name": "siblingPath",
          "type": "bytes32[]"
        }
      ],
      "name": "setAdvanceWithdrawalFee",
      "outputs": [],
      "stateMutability": "payable",
      "type": "function",
      "payable": true
    }
  ],
  "bytecode": "0x608060405234801561001057600080fd5b50614143806100206000396000f3fe6080604052600436106101e15760003560e01c8063120f66df146101e6578063146eb22214610219578063150b7a021461023b5780631c57e892146102805780631fc51a0d146102a057806326815884146102b357806328340f17146102d35780633195a4e7146102fa5780633f4ba83a1461031a5780633f8967991461032f57806342646c68146103b15780635c975abb146103cf5780635d021c1b146103f35780636764a8981461041357806369a5b950146104285780638129fc1c146104485780638456cb591461045d57806384afda1914610472578063875840ce14610492578063894f7d62146104a75780638da5cb5b146104c75780639c18de93146104dc5780639cfbd756146104fc578063af52ca691461051c578063b0a9fd0f1461053c578063b0c9569a14610564578063b13a8c0714610579578063b2bdfa7b14610599578063b48cff73146105b9578063ba42bab6146105d9578063bb7affc1146105f9578063bf2c94db14610619578063c19d93fb14610639578063c2c5bb6e1461065f578063c83daadc1461067f578063d9ba1ca114610694578063d9bbd278146106b4578063ebed9868146106d9578063efedffa8146106f9578063f23a6e611461070e578063f2fde38b1461073b578063f560a7921461075b575b600080fd5b3480156101f257600080fd5b506102066102013660046133c8565b61077b565b6040519081526020015b60405180910390f35b34801561022557600080fd5b506102396102343660046133e5565b61079e565b005b34801561024757600080fd5b50610267610256366004613446565b630a85bd0160e11b95945050505050565b6040516001600160e01b03199091168152602001610210565b34801561028c57600080fd5b5061023961029b3660046134d1565b6107e4565b6102396102ae36600461351f565b610b37565b3480156102bf57600080fd5b506102396102ce36600461351f565b61101c565b3480156102df57600080fd5b50606c546001600160a01b03165b60405161021091906135d2565b34801561030657600080fd5b506102396103153660046133e5565b6114e4565b34801561032657600080fd5b50610239611521565b34801561033b57600080fd5b5061038261034a3660046133e5565b60a2602052600090815260409020546001600160a01b03811690600160a01b81046001600160581b031690600160f81b900460ff1683565b604080516001600160a01b0390941684526001600160581b039092166020840152151590820152606001610210565b3480156103bd57600080fd5b50606d546001600160a01b03166102ed565b3480156103db57600080fd5b5060345460ff165b6040519015158152602001610210565b3480156103ff57600080fd5b5061023961040e3660046135e6565b611563565b34801561041f57600080fd5b506102ed6116ad565b34801561043457600080fd5b506102396104433660046133c8565b6116bc565b34801561045457600080fd5b50610239611714565b34801561046957600080fd5b5061023961175b565b34801561047e57600080fd5b5061023961048d3660046133c8565b61179b565b34801561049e57600080fd5b50606a54610206565b3480156104b357600080fd5b506102396104c2366004613634565b611854565b3480156104d357600080fd5b506102ed6118ae565b3480156104e857600080fd5b506102396104f7366004613651565b6118bd565b34801561050857600080fd5b50610239610517366004613686565b611918565b34801561052857600080fd5b506102396105373660046133e5565b611e12565b34801561054857600080fd5b506067546040516001600160601b039091168152602001610210565b34801561057057600080fd5b50606b54610206565b34801561058557600080fd5b50610239610594366004613634565b611e4f565b3480156105a557600080fd5b506066546102ed906001600160a01b031681565b3480156105c557600080fd5b506103e36105d436600461351f565b611eaf565b3480156105e557600080fd5b506103e36105f43660046136a2565b6120bb565b34801561060557600080fd5b506102396106143660046133c8565b612206565b34801561062557600080fd5b506102396106343660046133e5565b612295565b34801561064557600080fd5b506000546102ed906201000090046001600160a01b031681565b34801561066b57600080fd5b5061020661067a3660046133c8565b6122d2565b34801561068b57600080fd5b50606854610206565b3480156106a057600080fd5b506102396106af3660046133c8565b6122f0565b3480156106c057600080fd5b50606654600160a01b90046001600160601b0316610206565b3480156106e557600080fd5b506102396106f436600461351f565b61234a565b34801561070557600080fd5b50606954610206565b34801561071a57600080fd5b506102676107293660046136cb565b63f23a6e6160e01b9695505050505050565b34801561074757600080fd5b506102396107563660046133c8565b6126dd565b34801561076757600080fd5b506102396107763660046133c8565b61277f565b6001600160a01b0381166000908152606f6020526040812060015b015492915050565b6107a66118ae565b6001600160a01b0316336001600160a01b0316146107df5760405162461bcd60e51b81526004016107d69061375c565b60405180910390fd5b606955565b6002607054036108065760405162461bcd60e51b81526004016107d6906137aa565b6002607055610813612803565b6040517fd9364d1faedd45a064f9090dd61ade3de8d1c1fd83caaa8ebdc4b9808f4eb98990600090a160a35460405163e23c27e960e01b81526001600160a01b039091169063e23c27e99061086c9033906004016135d2565b602060405180830381865afa158015610889573d6000803e3d6000fd5b505050506040513d601f19601f820116820180604052508101906108ad91906137f6565b6108c95760405162461bcd60e51b81526004016107d690613811565b60a45460405163df592f7d60e01b81526001600160a01b039091169063df592f7d906108f99033906004016135d2565b602060405180830381865afa158015610916573d6000803e3d6000fd5b505050506040513d601f19601f8201168201806040525081019061093a91906137f6565b156109575760405162461bcd60e51b81526004016107d69061386b565b61c350602319360181101561097757631dd1c73160e01b60005260046000fd5b600080546201000090046001600160a01b03166379edadfe843560d81c6040518263ffffffff1660e01b81526004016109b091906138bc565b6040805180830381865afa1580156109cc573d6000803e3d6000fd5b505050506040513d601f19601f820116820180604052508101906109f091906138ce565b9150508015610b2d576000546201000090046001600160a01b0316635335699e610a1d60a0860186613901565b6000818110610a2e57610a2e613746565b905060200201356040518263ffffffff1660e01b8152600401610a5391815260200190565b602060405180830381865afa158015610a70573d6000803e3d6000fd5b505050506040513d601f19601f82011682018060405250810190610a9491906137f6565b610b2d576000546201000090046001600160a01b031663818d6331610abc60a0860186613901565b6000818110610acd57610acd613746565b905060200201356040518263ffffffff1660e01b8152600401610af291815260200190565b600060405180830381600087803b158015610b0c57600080fd5b505af1158015610b20573d6000803e3d6000fd5b50505050610b2d83612849565b5050600160705550565b600260705403610b595760405162461bcd60e51b81526004016107d6906137aa565b60026070556000805460405163f41f339f60e01b8152620100009091046001600160a01b03169063f41f339f90610b9c9089908990899089908990600401613a06565b602060405180830381865afa158015610bb9573d6000803e3d6000fd5b505050506040513d601f19601f82011682018060405250810190610bdd9190613b08565b60008054919250906201000090046001600160a01b03166379edadfe873560d81c6040518263ffffffff1660e01b8152600401610c1a91906138bc565b6040805180830381865afa158015610c36573d6000803e3d6000fd5b505050506040513d601f19601f82011682018060405250810190610c5a91906138ce565b50905080610ca45760405162461bcd60e51b8152602060048201526024808201526000805160206140ae83398151915260448201526377616c7360e01b60648201526084016107d6565b60003411610cff5760405162461bcd60e51b815260206004820152602260248201527f536869656c643a20416476616e6365206665652063616e6e6f74206265207a65604482015261726f60f01b60648201526084016107d6565b600054429062093a80906201000090046001600160a01b03166383b6ebe58a3560a01c6040518263ffffffff1660e01b8152600401610d3e9190613b21565b608060405180830381865afa158015610d5b573d6000803e3d6000fd5b505050506040513d601f19601f82011682018060405250810190610d7f9190613b35565b60200151610d8d9190613bcd565b1015610dab5760405162461bcd60e51b81526004016107d690613be0565b6000610db78735612b23565b6002811115610dc857610dc8613c2c565b148015610dd757506040860135155b610e325760405162461bcd60e51b815260206004820152603860248201526000805160206140ae83398151915260448201527777616c7320666f722066756e6769626c6520746f6b656e7360401b60648201526084016107d6565b600082815260a26020526040902054600160f81b900460ff1615610e685760405162461bcd60e51b81526004016107d690613c42565b600082815260a260209081526040808320815160608101835290546001600160a01b038116808352600160a01b82046001600160581b031694830194909452600160f81b900460ff161515918101919091529160808901359115610ecd578251610ecf565b815b9050336001600160a01b03821614610f4a5760405162461bcd60e51b815260206004820152603860248201527f536869656c643a20596f7520617265206e6f74207468652063757272656e74206044820152771bdddb995c881bd9881d1a1a5cc81dda5d1a191c985dd85b60421b60648201526084016107d6565b3483602001818151610f5c9190613c8f565b6001600160581b03908116909152600087815260a2602090815260409182902087518154898401518a8601511515600160f81b026001600160f81b0391909716600160a01b81026001600160f81b03199093166001600160a01b0390941693909317919091171694909417905581518981523391810191909152908101919091527fad3c4a0dcee8f6938c110c1c6b94072b4bea981a94e50094f2adef55ba7718a9915060600160405180910390a1505060016070555050505050505050565b6000805460405163f41f339f60e01b8152620100009091046001600160a01b03169063f41f339f9061105a9089908990899089908990600401613a06565b602060405180830381865afa158015611077573d6000803e3d6000fd5b505050506040513d601f19601f8201168201806040525081019061109b9190613b08565b6000546040516383b6ebe560e01b8152919250429162093a80916201000090046001600160a01b0316906383b6ebe5906110dd908b3560a01c90600401613b21565b608060405180830381865afa1580156110fa573d6000803e3d6000fd5b505050506040513d601f19601f8201168201806040525081019061111e9190613b35565b6020015161112c9190613bcd565b106111495760405162461bcd60e51b81526004016107d690613cb6565b600080546201000090046001600160a01b03166379edadfe873560d81c6040518263ffffffff1660e01b815260040161118291906138bc565b6040805180830381865afa15801561119e573d6000803e3d6000fd5b505050506040513d601f19601f820116820180604052508101906111c291906138ce565b509050806111e25760405162461bcd60e51b81526004016107d690613d08565b600082815260a26020526040902054600160f81b900460ff16156112185760405162461bcd60e51b81526004016107d690613c42565b600082815260a26020908152604080832080546001600160f81b038116600160f81b9081179283905583516060810185526001600160a01b039092168083526001600160581b03600160a01b8504169583019590955290910460ff161515918101919091529160808901359115611290578251611292565b815b60208401519091506001600160581b0316156113b357600080546020850151604051620100009092046001600160a01b0316916001600160581b03909116908381818185875af1925050503d8060008114611309576040519150601f19603f3d011682016040523d82523d6000602084013e61130e565b606091505b505090508061132f5760405162461bcd60e51b81526004016107d690613d53565b600080546020860151604051634d503ac360e11b81526001600160a01b0386811660048301526001600160581b0390921660248201526044810193909352620100009091041690639aa0758690606401600060405180830381600087803b15801561139957600080fd5b505af11580156113ad573d6000803e3d6000fd5b50505050505b60a35460405163e23c27e960e01b81526001600160a01b039091169063e23c27e9906113e39033906004016135d2565b602060405180830381865afa158015611400573d6000803e3d6000fd5b505050506040513d601f19601f8201168201806040525081019061142491906137f6565b6114405760405162461bcd60e51b81526004016107d690613811565b60a45460405163df592f7d60e01b81526001600160a01b039091169063df592f7d906114709033906004016135d2565b602060405180830381865afa15801561148d573d6000803e3d6000fd5b505050506040513d601f19601f820116820180604052508101906114b191906137f6565b156114ce5760405162461bcd60e51b81526004016107d69061386b565b6114d88982612b40565b50505050505050505050565b6114ec6118ae565b6001600160a01b0316336001600160a01b03161461151c5760405162461bcd60e51b81526004016107d69061375c565b606b55565b6115296118ae565b6001600160a01b0316336001600160a01b0316146115595760405162461bcd60e51b81526004016107d69061375c565b611561612db6565b565b600054610100900460ff16158080156115835750600054600160ff909116105b806115a4575061159230612e02565b1580156115a4575060005460ff166001145b6116075760405162461bcd60e51b815260206004820152602e60248201527f496e697469616c697a61626c653a20636f6e747261637420697320616c72656160448201526d191e481a5b9a5d1a585b1a5e995960921b60648201526084016107d6565b6000805460ff19166001179055801561162a576000805461ff0019166101001790555b60a480546001600160a01b038086166001600160a01b03199283161790925560a3805492851692909116919091179055611662611714565b80156116a8576000805461ff0019169055604051600181527f7f26b83ff96e1f2b6a682f133852f6798a09c465da95921460cefb38474024989060200160405180910390a15b505050565b606e546001600160a01b031690565b6116c46118ae565b6001600160a01b0316336001600160a01b0316146116f45760405162461bcd60e51b81526004016107d69061375c565b6001600160a01b03166000908152606f6020526040812081815560010155565b600054610100900460ff1661173b5760405162461bcd60e51b81526004016107d690613d85565b611743612e11565b61174b612e53565b611753612ec1565b611561612ef0565b6117636118ae565b6001600160a01b0316336001600160a01b0316146117935760405162461bcd60e51b81526004016107d69061375c565b611561612f27565b6001546001600160a01b0316331480156117bf5750600154600160a01b900460ff16155b6118175760405162461bcd60e51b815260206004820152602360248201527f4f6e6c7920746865206f776e65722063616e2063616c6c20746869732c206f6e60448201526231b29760e91b60648201526084016107d6565b6001805460ff60a01b1916600160a01b179055600080546001600160a01b03909216620100000262010000600160b01b0319909216919091179055565b61185c6118ae565b6001600160a01b0316336001600160a01b03161461188c5760405162461bcd60e51b81526004016107d69061375c565b606780546001600160601b0319166001600160601b0392909216919091179055565b6066546001600160a01b031690565b6118c56118ae565b6001600160a01b0316336001600160a01b0316146118f55760405162461bcd60e51b81526004016107d69061375c565b6001600160a01b03929092166000908152606f6020526040902090815560010155565b600061192382612f64565b600080546040516383b6ebe560e01b8152929350843560a081901c939092916201000090046001600160a01b0316906383b6ebe590611966908690600401613b21565b608060405180830381865afa158015611983573d6000803e3d6000fd5b505050506040513d601f19601f820116820180604052508101906119a79190613b35565b80519091508414611a045760405162461bcd60e51b815260206004820152602160248201527f536869656c643a205468697320626c6f636b20646f6573206e6f7420657869736044820152601d60fa1b60648201526084016107d6565b4262093a808260200151611a189190613bcd565b10611a355760405162461bcd60e51b81526004016107d690613dd0565b60008054825160405163496879c160e01b8152600481019190915282916201000090046001600160a01b03169063496879c1906024016040805180830381865afa158015611a87573d6000803e3d6000fd5b505050506040513d601f19601f82011682018060405250810190611aab9190613e1b565b90925090506001600160a01b0384163314611b175760405162461bcd60e51b815260206004820152602660248201527f536869656c643a204e6f74207468652070726f706f736572206f66207468697360448201526520626c6f636b60d01b60648201526084016107d6565b8015611b355760405162461bcd60e51b81526004016107d690613e45565b600054604051635e5a6de160e11b815260048101889052620100009091046001600160a01b03169063bcb4dbc290602401600060405180830381600087803b158015611b8057600080fd5b505af1158015611b94573d6000803e3d6000fd5b50506000546040516313866b2b60e31b8152600481018a9052620100009091046001600160a01b03169250639c3359589150602401600060405180830381600087803b158015611be357600080fd5b505af1158015611bf7573d6000803e3d6000fd5b505050506001600160f81b03821615611c4257600054611c42906201000090046001600160a01b03166001600160f81b038416611c326116ad565b6001600160a01b03169190612f94565b60008054604051631c111daf60e01b8152620100009091046001600160a01b031690631c111daf90611c789033906004016135d2565b606060405180830381865afa158015611c95573d6000803e3d6000fd5b505050506040513d601f19601f82011682018060405250810190611cb99190613eae565b905083606001516001600160601b031681600001818151611cda9190613f32565b6001600160701b031690525060608401516020820180516001600160601b0390921691611d08908390613f52565b6001600160701b0390811690915260005483516020850151604051639227ae1560e01b8152336004820152918416602483015290921660448301526201000090046001600160a01b03169150639227ae1590606401600060405180830381600087803b158015611d7757600080fd5b505af1158015611d8b573d6000803e3d6000fd5b505060008054604051634d503ac360e11b815233600482015260248101929092526001600160f81b03871660448301526201000090046001600160a01b03169250639aa075869150606401600060405180830381600087803b158015611df057600080fd5b505af1158015611e04573d6000803e3d6000fd5b505050505050505050505050565b611e1a6118ae565b6001600160a01b0316336001600160a01b031614611e4a5760405162461bcd60e51b81526004016107d69061375c565b606a55565b611e576118ae565b6001600160a01b0316336001600160a01b031614611e875760405162461bcd60e51b81526004016107d69061375c565b606680546001600160601b03909216600160a01b026001600160a01b03909216919091179055565b6000805460405163f41f339f60e01b815282916201000090046001600160a01b03169063f41f339f90611eee908a908a908a908a908a90600401613a06565b602060405180830381865afa158015611f0b573d6000803e3d6000fd5b505050506040513d601f19601f82011682018060405250810190611f2f9190613b08565b60008054919250906201000090046001600160a01b03166379edadfe883560d81c6040518263ffffffff1660e01b8152600401611f6c91906138bc565b6040805180830381865afa158015611f88573d6000803e3d6000fd5b505050506040513d601f19601f82011682018060405250810190611fac91906138ce565b50905080611fcc5760405162461bcd60e51b81526004016107d690613d08565b600054429062093a80906201000090046001600160a01b03166383b6ebe58b3560a01c6040518263ffffffff1660e01b815260040161200b9190613b21565b608060405180830381865afa158015612028573d6000803e3d6000fd5b505050506040513d601f19601f8201168201806040525081019061204c9190613b35565b6020015161205a9190613bcd565b106120775760405162461bcd60e51b81526004016107d690613cb6565b600082815260a26020526040902054600160f81b900460ff16156120ad5760405162461bcd60e51b81526004016107d690613c42565b506001979650505050505050565b600080546040516383b6ebe560e01b815282916201000090046001600160a01b0316906383b6ebe5906120f2908690600401613b21565b608060405180830381865afa15801561210f573d6000803e3d6000fd5b505050506040513d601f19601f820116820180604052508101906121339190613b35565b90504262093a8082602001516121499190613bcd565b106121665760405162461bcd60e51b81526004016107d690613dd0565b60008054825160405163496879c160e01b81526004810191909152620100009091046001600160a01b03169063496879c1906024016040805180830381865afa1580156121b7573d6000803e3d6000fd5b505050506040513d601f19601f820116820180604052508101906121db9190613e1b565b91505080156121fc5760405162461bcd60e51b81526004016107d690613e45565b5060019392505050565b61220e6118ae565b6001600160a01b0316336001600160a01b03161461223e5760405162461bcd60e51b81526004016107d69061375c565b606c80546001600160a01b0319166001600160a01b0383169081179091556040517f5544fd39820f90f9fc4b238e0eaaf1b5ece21e6dbb69a2b0824a16876e6d0efd9161228a916135d2565b60405180910390a150565b61229d6118ae565b6001600160a01b0316336001600160a01b0316146122cd5760405162461bcd60e51b81526004016107d69061375c565b606855565b6001600160a01b0381166000908152606f6020526040812081610796565b6122f86118ae565b6001600160a01b0316336001600160a01b0316146123285760405162461bcd60e51b81526004016107d69061375c565b606e80546001600160a01b0319166001600160a01b0392909216919091179055565b6000805460405163f41f339f60e01b8152620100009091046001600160a01b03169063f41f339f906123889089908990899089908990600401613a06565b602060405180830381865afa1580156123a5573d6000803e3d6000fd5b505050506040513d601f19601f820116820180604052508101906123c99190613b08565b600081815260a26020526040902054909150600160a01b90046001600160581b03166124585760405162461bcd60e51b815260206004820152603860248201527f536869656c643a204e6f20616476616e6365642066656520686173206265656e604482015277081cd95d08199bdc881d1a1a5cc81dda5d1a191c985dd85b60421b60648201526084016107d6565b600054429062093a80906201000090046001600160a01b03166383b6ebe5893560a01c6040518263ffffffff1660e01b81526004016124979190613b21565b608060405180830381865afa1580156124b4573d6000803e3d6000fd5b505050506040513d601f19601f820116820180604052508101906124d89190613b35565b602001516124e69190613bcd565b10156125045760405162461bcd60e51b81526004016107d690613be0565b600081815260a26020526040902054600160f81b900460ff161561253a5760405162461bcd60e51b81526004016107d690613c42565b600081815260a260205260408120546060870135916080880135916001600160a01b03161561258057600084815260a260205260409020546001600160a01b0316612582565b815b600085815260a2602052604080822080546001600160f81b031981163390811790925583549251634d503ac360e11b815260048101929092526001600160581b03600160a01b909104166024820181905260448201939093529293509091620100009091046001600160a01b031690639aa0758690606401600060405180830381600087803b15801561261457600080fd5b505af1158015612628573d6000803e3d6000fd5b5050600080546040519193506201000090046001600160a01b031691506001600160781b038416908381818185875af1925050503d8060008114612688576040519150601f19603f3d011682016040523d82523d6000602084013e61268d565b606091505b50509050806126ae5760405162461bcd60e51b81526004016107d690613d53565b6126d06001600160a01b03861633856001600160701b038e3560081c16612ff7565b5050505050505050505050565b6126e56118ae565b6001600160a01b0316336001600160a01b0316146127155760405162461bcd60e51b81526004016107d69061375c565b6001600160a01b03811661272857600080fd5b7f8be0079c531659141344cd1fd0a4f28419497f9722a3daafe3b4186f6b6457e06127516118ae565b604080516001600160a01b03928316815291841660208301520160405180910390a161277c81613035565b50565b6127876118ae565b6001600160a01b0316336001600160a01b0316146127b75760405162461bcd60e51b81526004016107d69061375c565b606d80546001600160a01b0319166001600160a01b0383169081179091556040517f210cff5548618e71293ea0d4f1f3563a68e78f00273f3acd97014aac2442ed249161228a916135d2565b60345460ff16156115615760405162461bcd60e51b815260206004820152601060248201526f14185d5cd8589b194e881c185d5cd95960821b60448201526064016107d6565b6060810135600160a01b81106128715760405162461bcd60e51b81526004016107d690613f72565b806000833560081c905060006128878535612b23565b9050600081600281111561289d5761289d613c2c565b036129b8576040850135156129145760405162461bcd60e51b815260206004820152603760248201527f536869656c643a204552433230206465706f7369742073686f756c64206861766044820152766520746f6b656e496420657175616c20746f205a45524f60481b60648201526084016107d6565b600061291f846122d2565b905080836001600160701b031611801561293857508015155b156129945760405162461bcd60e51b815260206004820152603860248201526000805160206140ee83398151915260448201527765737472696374696f6e7320666f72206465706f7369747360401b60648201526084016107d6565b6129b26001600160a01b03851633306001600160701b038716612ff7565b50612b1c565b60018160028111156129cc576129cc613c2c565b03612a92576001600160701b03821615612a285760405162461bcd60e51b815260206004820152602960248201526000805160206140ce8339815191526044820152680c4819195c1bdcda5d60ba1b60648201526084016107d6565b60408051635c46a7ef60e11b81526001600160a01b0385169163b88d4fde91612a5b91339130918b013590600401613fc1565b600060405180830381600087803b158015612a7557600080fd5b505af1158015612a89573d6000803e3d6000fd5b50505050612b1c565b6002816002811115612aa657612aa6613c2c565b03612b1c5760408051637921219560e11b81526001600160a01b0385169163f242432a91612ae991339130918b0135906001600160701b03891690600401613ff4565b600060405180830381600087803b158015612b0357600080fd5b505af1158015612b17573d6000803e3d6000fd5b505050505b5050505050565b60008160ff166002811115612b3a57612b3a613c2c565b92915050565b612b48612803565b600160a01b606083013510612b6f5760405162461bcd60e51b81526004016107d690613f72565b60608201356000833560081c90506000612b898535612b23565b90506000816002811115612b9f57612b9f613c2c565b03612cb957604085013515612c195760405162461bcd60e51b815260206004820152603a60248201527f536869656c643a204552433230207769746864726177616c2073686f756c64206044820152796861766520746f6b656e496420657175616c20746f205a45524f60301b60648201526084016107d6565b6000612c248461077b565b905080836001600160701b0316118015612c3d57508015155b15612c9c5760405162461bcd60e51b815260206004820152603b60248201526000805160206140ee83398151915260448201527a65737472696374696f6e7320666f72207769746864726177616c7360281b60648201526084016107d6565b6129b26001600160a01b038516866001600160701b038616612f94565b6001816002811115612ccd57612ccd613c2c565b03612d5f576001600160701b03821615612d2c5760405162461bcd60e51b815260206004820152602c60248201526000805160206140ce83398151915260448201526b0c481dda5d1a191c985dd85b60a21b60648201526084016107d6565b60408051635c46a7ef60e11b81526001600160a01b0385169163b88d4fde91612a5b91309189918b013590600401613fc1565b6002816002811115612d7357612d73613c2c565b03612b1c5760408051637921219560e11b81526001600160a01b0385169163f242432a91612ae991309189918b0135906001600160701b03891690600401613ff4565b612dbe613057565b6034805460ff191690557f5db9ee0a495bf2e6ff9c91a7834c1ba4fdd244a5e8aa4e537bd38aeae4b073aa335b604051612df891906135d2565b60405180910390a1565b6001600160a01b03163b151590565b600054610100900460ff16612e385760405162461bcd60e51b81526004016107d690613d85565b600180546001600160a81b0319163360ff60a01b1916179055565b600054610100900460ff16612e7a5760405162461bcd60e51b81526004016107d690613d85565b612e826130a0565b606680546001600160a01b0316613d0960a61b179055606780546001600160601b03191660011790556020606855600a6069819055606a556064606b55565b600054610100900460ff16612ee85760405162461bcd60e51b81526004016107d690613d85565b6115616130d0565b600054610100900460ff16612f175760405162461bcd60e51b81526004016107d690613d85565b612f1f6130a0565b6115616130fe565b612f2f612803565b6034805460ff191660011790557f62e78cea01bee320cd4e420270b5ea74000d11b0c9f74754ebdbfc544b05a258612deb3390565b600081604051602001612f77919061402c565b604051602081830303815290604052805190602001209050919050565b6040516001600160a01b0383166024820152604481018290526116a890849063a9059cbb60e01b906064015b60408051601f198184030181529190526020810180516001600160e01b03166001600160e01b03199093169290921790915261312d565b6040516001600160a01b038085166024830152831660448201526064810182905261302f9085906323b872dd60e01b90608401612fc0565b50505050565b606680546001600160a01b0319166001600160a01b0392909216919091179055565b60345460ff166115615760405162461bcd60e51b815260206004820152601460248201527314185d5cd8589b194e881b9bdd081c185d5cd95960621b60448201526064016107d6565b600054610100900460ff166130c75760405162461bcd60e51b81526004016107d690613d85565b61156133613035565b600054610100900460ff166130f75760405162461bcd60e51b81526004016107d690613d85565b6001607055565b600054610100900460ff166131255760405162461bcd60e51b81526004016107d690613d85565b6115616131ff565b6000613182826040518060400160405280602081526020017f5361666545524332303a206c6f772d6c6576656c2063616c6c206661696c6564815250856001600160a01b03166132329092919063ffffffff16565b8051909150156116a857808060200190518101906131a091906137f6565b6116a85760405162461bcd60e51b815260206004820152602a60248201527f5361666545524332303a204552433230206f7065726174696f6e20646964206e6044820152691bdd081cdd58d8d9595960b21b60648201526084016107d6565b600054610100900460ff166132265760405162461bcd60e51b81526004016107d690613d85565b6034805460ff19169055565b6060613241848460008561324b565b90505b9392505050565b6060824710156132ac5760405162461bcd60e51b815260206004820152602660248201527f416464726573733a20696e73756666696369656e742062616c616e636520666f6044820152651c8818d85b1b60d21b60648201526084016107d6565b6132b585612e02565b6133015760405162461bcd60e51b815260206004820152601d60248201527f416464726573733a2063616c6c20746f206e6f6e2d636f6e747261637400000060448201526064016107d6565b600080866001600160a01b0316858760405161331d919061405e565b60006040518083038185875af1925050503d806000811461335a576040519150601f19603f3d011682016040523d82523d6000602084013e61335f565b606091505b509150915061336f82828661337a565b979650505050505050565b60608315613389575081613244565b8251156133995782518084602001fd5b8160405162461bcd60e51b81526004016107d6919061407a565b6001600160a01b038116811461277c57600080fd5b6000602082840312156133da57600080fd5b8135613244816133b3565b6000602082840312156133f757600080fd5b5035919050565b60008083601f84011261341057600080fd5b5081356001600160401b0381111561342757600080fd5b60208301915083602082850101111561343f57600080fd5b9250929050565b60008060008060006080868803121561345e57600080fd5b8535613469816133b3565b94506020860135613479816133b3565b93506040860135925060608601356001600160401b0381111561349b57600080fd5b6134a7888289016133fe565b969995985093965092949392505050565b60006101a082840312156134cb57600080fd5b50919050565b6000602082840312156134e357600080fd5b81356001600160401b038111156134f957600080fd5b613505848285016134b8565b949350505050565b600060a082840312156134cb57600080fd5b6000806000806000610100868803121561353857600080fd5b613542878761350d565b945060a08601356001600160401b038082111561355e57600080fd5b61356a89838a016134b8565b955060c0880135945060e088013591508082111561358757600080fd5b818801915088601f83011261359b57600080fd5b8135818111156135aa57600080fd5b8960208260051b85010111156135bf57600080fd5b9699959850939650602001949392505050565b6001600160a01b0391909116815260200190565b600080604083850312156135f957600080fd5b8235613604816133b3565b91506020830135613614816133b3565b809150509250929050565b6001600160601b038116811461277c57600080fd5b60006020828403121561364657600080fd5b81356132448161361f565b60008060006060848603121561366657600080fd5b8335613671816133b3565b95602085013595506040909401359392505050565b600060a0828403121561369857600080fd5b613244838361350d565b6000602082840312156136b457600080fd5b81356001600160401b038116811461324457600080fd5b60008060008060008060a087890312156136e457600080fd5b86356136ef816133b3565b955060208701356136ff816133b3565b9450604087013593506060870135925060808701356001600160401b0381111561372857600080fd5b61373489828a016133fe565b979a9699509497509295939492505050565b634e487b7160e01b600052603260045260246000fd5b6020808252602e908201527f596f7520617265206e6f7420617574686f726973656420746f20696e766f6b6560408201526d103a3434b990333ab731ba34b7b760911b606082015260800190565b6020808252601f908201527f5265656e7472616e637947756172643a207265656e7472616e742063616c6c00604082015260600190565b805180151581146137f157600080fd5b919050565b60006020828403121561380857600080fd5b613244826137e1565b6020808252603a908201527f536869656c643a20596f7520617265206e6f7420617574686f726973656420746040820152791bc81d1c985b9cd858dd081d5cda5b99c8139a59da1d19985b1b60321b606082015260800190565b60208082526031908201527f536869656c643a20596f7520617265206f6e2074686520436861696e616c79736040820152701a5cc81cd85b98dd1a5bdb9cc81b1a5cdd607a1b606082015260800190565b64ffffffffff91909116815260200190565b600080604083850312156138e157600080fd5b6138ea836137e1565b91506138f8602084016137e1565b90509250929050565b6000808335601e1984360301811261391857600080fd5b8301803591506001600160401b0382111561393257600080fd5b6020019150600581901b360382131561343f57600080fd5b80358252602081013560208301526040810135604083015260608101356060830152608081013560808301525050565b6000808335601e1984360301811261399157600080fd5b83016020810192503590506001600160401b038111156139b057600080fd5b8060051b360382131561343f57600080fd5b81835260006001600160fb1b038311156139db57600080fd5b8260051b80836020870137939093016020019392505050565b60408183375050565b60808183375050565b6000610100613a15838961394a565b8060a084015286358184015250613a2f602087018761397a565b6101a06101208181870152613a496102a0870184866139c2565b935060408a013561014087015260608a013561016087015260808a0135610180870152613a7960a08b018b61397a565b935060ff19808887030184890152613a928686846139c2565b9550613aa160c08d018d61397a565b9550935080888703016101c08901525050613abd8484846139c2565b9350613ad06101e0870160e08c016139f4565b613ae06102208701828c016139fd565b5050508560c084015282810360e0840152613afc8185876139c2565b98975050505050505050565b600060208284031215613b1a57600080fd5b5051919050565b6001600160401b0391909116815260200190565b600060808284031215613b4757600080fd5b604051608081016001600160401b0381118282101715613b7757634e487b7160e01b600052604160045260246000fd5b806040525082518152602083015160208201526040830151613b98816133b3565b60408201526060830151613bab8161361f565b60608201529392505050565b634e487b7160e01b600052601160045260246000fd5b80820180821115612b3a57612b3a613bb7565b6020808252602c908201527f536869656c643a2054686520626c6f636b2068617320616c726561647920626560408201526b195b88199a5b985b1a5e995960a21b606082015260800190565b634e487b7160e01b600052602160045260246000fd5b6020808252602d908201527f536869656c643a2054686973207472616e73616374696f6e2068617320616c7260408201526c1958591e481c185a59081bdd5d609a1b606082015260800190565b6001600160581b03818116838216019080821115613caf57613caf613bb7565b5092915050565b60208082526032908201527f536869656c643a20546f6f20736f6f6e20746f2077697468647261772066756e60408201527164732066726f6d207468697320626c6f636b60701b606082015260800190565b6020808252602b908201527f536869656c643a205472616e73616374696f6e206973206e6f7420612076616c60408201526a696420776974686472617760a81b606082015260800190565b60208082526018908201527729b434b2b6321d102a3930b739b332b9103330b4b632b21760411b604082015260600190565b6020808252602b908201527f496e697469616c697a61626c653a20636f6e7472616374206973206e6f74206960408201526a6e697469616c697a696e6760a81b606082015260800190565b6020808252602b908201527f536869656c643a20546f6f20736f6f6e20746f20676574207061696420666f7260408201526a207468697320626c6f636b60a81b606082015260800190565b60008060408385031215613e2e57600080fd5b82516001600160f81b03811681146138ea57600080fd5b60208082526032908201527f536869656c643a20426c6f636b207374616b6520666f72207468697320626c6f60408201527118dac8185b1c9958591e4818db185a5b595960721b606082015260800190565b80516001600160701b03811681146137f157600080fd5b600060608284031215613ec057600080fd5b604051606081016001600160401b0381118282101715613ef057634e487b7160e01b600052604160045260246000fd5b604052613efc83613e97565b8152613f0a60208401613e97565b6020820152604083015163ffffffff81168114613f2657600080fd5b60408201529392505050565b6001600160701b03818116838216019080821115613caf57613caf613bb7565b6001600160701b03828116828216039080821115613caf57613caf613bb7565b6020808252602f908201527f536869656c643a2054686520676976656e2061646472657373206973206d6f7260408201526e65207468616e20313630206269747360881b606082015260800190565b6001600160a01b039384168152919092166020820152604081019190915260806060820181905260009082015260a00190565b6001600160a01b0394851681529290931660208301526040820152606081019190915260a06080820181905260009082015260c00190565b60a08101612b3a828461394a565b60005b8381101561405557818101518382015260200161403d565b50506000910152565b6000825161407081846020870161403a565b9190910192915050565b602081526000825180602084015261409981604085016020870161403a565b601f01601f1916919091016040019291505056fe536869656c643a2043616e206f6e6c7920616476616e63652077697468647261536869656c643a20496e76616c696420696e7075747320666f72204552433732536869656c643a2056616c75652069732061626f76652063757272656e742072a2646970667358221220c417367f61c13f2d0d2fdbbb2225399daae00c9520b736275dc381b960c6259d64736f6c63430008110033",
  "immutableReferences": {},
  "source": "// SPDX-License-Identifier: CC0-1.0\nimport '@openzeppelin/contracts-upgradeable/security/ReentrancyGuardUpgradeable.sol';\nimport '@openzeppelin/contracts-upgradeable/token/ERC20/utils/SafeERC20Upgradeable.sol';\nimport '@openzeppelin/contracts/token/ERC721/IERC721.sol';\nimport '@openzeppelin/contracts/token/ERC1155/IERC1155.sol';\n/**\nContract to enable someone to submit a ZKP transaction for processing.\nIt is possible we will move this off-chain in the future as blockchain\nfunctionality is not really required - it's just a data availability aid.\n@Author Westlad\n*/\n\npragma solidity ^0.8.0;\n\nimport './Utils.sol';\nimport './Config.sol';\nimport './Stateful.sol';\nimport './Pausable.sol';\nimport './X509Interface.sol';\nimport './SanctionsListInterface.sol';\n\ncontract Shield is Stateful, Config, ReentrancyGuardUpgradeable, Pausable {\n    using SafeERC20Upgradeable for IERC20Upgradeable;\n    mapping(bytes32 => AdvanceWithdrawal) public advancedWithdrawals;\n    X509Interface x509;\n    SanctionsListInterface sanctionsList;\n\n    function initializeState(address sanctionsListAddress, address x509Address) public initializer {\n        sanctionsList = SanctionsListInterface(sanctionsListAddress);\n        x509 = X509Interface(x509Address);\n        initialize();\n    }\n\n    function initialize() public override(Stateful, Config, Pausable) onlyInitializing {\n        Stateful.initialize();\n        Config.initialize();\n        ReentrancyGuardUpgradeable.__ReentrancyGuard_init();\n        Pausable.initialize();\n    }\n\n    function submitTransaction(Transaction calldata t) external nonReentrant whenNotPaused {\n        // let everyone know what you did\n        emit TransactionSubmitted();\n        require(\n            x509.x509Check(msg.sender),\n            'Shield: You are not authorised to transact using Nightfall'\n        );\n        require(\n            !sanctionsList.isSanctioned(msg.sender),\n            'Shield: You are on the Chainalysis sanctions list'\n        );\n\n        uint256 maxBlockSize = MAX_BLOCK_SIZE;\n        assembly {\n            if lt(maxBlockSize, sub(calldatasize(), 36)) {\n                mstore(0, 0x1dd1c73100000000000000000000000000000000000000000000000000000000) //Custom error InvalidTransactionSize\n                revert(0, 4)\n            }\n        }\n\n        (, bool isEscrowRequired) = state.circuitInfo(Utils.getCircuitHash(t.packedInfo));\n        if (isEscrowRequired) {\n            // We need to check if the commitment is already escrowed so the user doesn't\n            // escrow the funds twice\n            if (!state.getCommitmentEscrowed(t.commitments[0])) {\n                state.setCommitmentEscrowed(t.commitments[0]);\n                payIn(t);\n            }\n        }\n    }\n\n    // function to enable a proposer to get paid for proposing a block\n    function requestBlockPayment(Block calldata b) external {\n        bytes32 blockHash = Utils.hashBlock(b);\n\n        uint64 blockNumberL2 = Utils.getBlockNumberL2(b.packedInfo);\n        address proposer = Utils.getProposer(b.packedInfo);\n        BlockData memory blockData = state.getBlockData(blockNumberL2);\n        require(blockData.blockHash == blockHash, 'Shield: This block does not exist');\n\n        // check that the block has been finalised\n        require(\n            blockData.time + CHALLENGE_PERIOD < block.timestamp,\n            'Shield: Too soon to get paid for this block'\n        );\n\n        (uint248 feesL2, bool stakeClaimed) = state.blockInfo(blockData.blockHash);\n        require(proposer == msg.sender, 'Shield: Not the proposer of this block');\n        require(!stakeClaimed, 'Shield: Block stake for this block already claimed');\n        state.setBlockStakeWithdrawn(blockHash);\n\n        //Request fees\n        state.resetFeeBookBlocksInfo(blockHash);\n\n        if (feesL2 > 0) {\n            IERC20Upgradeable(super.getFeeL2TokenAddress()).safeTransfer(address(state), feesL2);\n        }\n\n        // recover the stake for that block\n        TimeLockedStake memory stake = state.getStakeAccount(msg.sender);\n        stake.amount += blockData.blockStake;\n        stake.challengeLocked -= blockData.blockStake;\n        state.setStakeAccount(msg.sender, stake.amount, stake.challengeLocked);\n\n        state.addPendingWithdrawal(msg.sender, 0, feesL2);\n    }\n\n    /**\n     * @dev Check if a block has been paid to the proposer\n     */\n    function isBlockPaymentPending(uint64 blockNumberL2) external view returns (bool) {\n        BlockData memory blockData = state.getBlockData(blockNumberL2);\n        require(\n            blockData.time + CHALLENGE_PERIOD < block.timestamp,\n            'Shield: Too soon to get paid for this block'\n        );\n        (, bool stakeClaimed) = state.blockInfo(blockData.blockHash);\n        require(!stakeClaimed, 'Shield: Block stake for this block already claimed');\n\n        return true;\n    }\n\n    function onERC721Received(\n        address,\n        address _from,\n        uint256 _tokenId,\n        bytes calldata\n    ) external returns (bytes4) {\n        return 0x150b7a02;\n    }\n\n    function onERC1155Received(\n        address _operator,\n        address _from,\n        uint256 _id,\n        uint256 _value,\n        bytes calldata _data\n    ) external returns (bytes4) {\n        return 0xf23a6e61;\n    }\n\n    /* *\n  This function returns if you are able to withdraw the funds, once a block is finalised\n  @param b - the block containing the Withdraw transaction\n  @param t - array of the transactions contained in the block\n  @param index - the index of the transaction that locates it in the array of Transactions in Block b\n  */\n    function isValidWithdrawal(\n        Block calldata b,\n        Transaction calldata t,\n        uint256 index,\n        bytes32[] calldata siblingPath\n    ) external view returns (bool) {\n        // check this block is a real one, in the queue, not something made up.\n        bytes32 transactionHash = state.areBlockAndTransactionReal(b, t, index, siblingPath);\n        // check that the block has been finalised\n        (bool isWithdrawing, ) = state.circuitInfo(Utils.getCircuitHash(t.packedInfo));\n        require(isWithdrawing, 'Shield: Transaction is not a valid withdraw');\n        require(\n            state.getBlockData(Utils.getBlockNumberL2(b.packedInfo)).time + CHALLENGE_PERIOD <\n                block.timestamp,\n            'Shield: Too soon to withdraw funds from this block'\n        );\n\n        require(\n            !advancedWithdrawals[transactionHash].isWithdrawn,\n            'Shield: This transaction has already paid out'\n        );\n\n        return true;\n    }\n\n    /**\n  This function enables funds to be withdrawn, once a block is finalised\n  @param b - the block containing the Withdraw transaction\n  @param t - array of the transactions contained in the block\n  @param index - the index of the transaction that locates it in the array of Transactions in Block b\n  TODO do we need to pass in  all the block data?\n  */\n\n    function finaliseWithdrawal(\n        Block calldata b,\n        Transaction calldata t,\n        uint256 index,\n        bytes32[] calldata siblingPath\n    ) external {\n        // check this block is a real one, in the queue, not something made up and that the transaction exists in the block\n        bytes32 transactionHash = state.areBlockAndTransactionReal(b, t, index, siblingPath);\n        // check that the block has been finalised\n        require(\n            state.getBlockData(Utils.getBlockNumberL2(b.packedInfo)).time + CHALLENGE_PERIOD <\n                block.timestamp,\n            'Shield: Too soon to withdraw funds from this block'\n        );\n        (bool isWithdrawing, ) = state.circuitInfo(Utils.getCircuitHash(t.packedInfo));\n        require(isWithdrawing, 'Shield: Transaction is not a valid withdraw');\n        require(\n            !advancedWithdrawals[transactionHash].isWithdrawn,\n            'Shield: This transaction has already paid out'\n        );\n        advancedWithdrawals[transactionHash].isWithdrawn = true;\n\n        AdvanceWithdrawal memory advancedWithdrawal = advancedWithdrawals[transactionHash];\n        address originalRecipientAddress = address(uint160(uint256(t.recipientAddress)));\n        // check if an advancedWithdrawal has been paid, if so payout the new owner.\n        address recipientAddress = advancedWithdrawal.currentOwner == address(0)\n            ? originalRecipientAddress\n            : advancedWithdrawal.currentOwner;\n\n        if (advancedWithdrawal.advanceFee > 0) {\n            (bool success, ) = payable(address(state)).call{\n                value: uint256(advancedWithdrawal.advanceFee)\n            }('');\n            require(success, 'Shield: Transfer failed.');\n\n            state.addPendingWithdrawal(recipientAddress, advancedWithdrawal.advanceFee, 0);\n        }\n        require(\n            x509.x509Check(msg.sender),\n            'Shield: You are not authorised to transact using Nightfall'\n        );\n        require(\n            !sanctionsList.isSanctioned(msg.sender),\n            'Shield: You are on the Chainalysis sanctions list'\n        );\n        payOut(t, recipientAddress);\n    }\n\n    // Currently this can pose as a non-interactive way for transactors to get their withdrawals\n    // Instead of calling finaliseWithdrawal (a pull op), advanceWithdrawal will send them the funds (push op) for a fee.\n    function advanceWithdrawal(\n        Block calldata b,\n        Transaction calldata t,\n        uint256 index,\n        bytes32[] calldata siblingPath\n    ) external {\n        // check this block is a real one, in the queue, not something made up.\n        bytes32 transactionHash = state.areBlockAndTransactionReal(b, t, index, siblingPath);\n\n        // if no fee is set, then the withdrawal is not tagged as advanceable - else someone could just steal withdrawals\n        require(\n            advancedWithdrawals[transactionHash].advanceFee > 0,\n            'Shield: No advanced fee has been set for this withdrawal'\n        );\n\n        //Check that the withdrawal is still challengeable\n        require(\n            state.getBlockData(Utils.getBlockNumberL2(b.packedInfo)).time + CHALLENGE_PERIOD >=\n                block.timestamp,\n            'Shield: The block has already been finalized'\n        );\n\n        // The withdrawal has not been withdrawn\n        require(\n            !advancedWithdrawals[transactionHash].isWithdrawn,\n            'Shield: This transaction has already paid out'\n        );\n\n        // this might incentives sniping freshly finalised blocks by liquidity providers\n        // this is risk-free as the block is finalised, the advancedFee should reflect a risk premium.\n        address tokenAddress = address(uint160(uint256(t.ercAddress)));\n        address originalRecipientAddress = address(uint160(uint256(t.recipientAddress)));\n        address currentOwner = advancedWithdrawals[transactionHash].currentOwner == address(0)\n            ? originalRecipientAddress\n            : advancedWithdrawals[transactionHash].currentOwner;\n        uint120 advanceFee = advancedWithdrawals[transactionHash].advanceFee;\n\n        // set new owner of transaction, settign fee to zero.\n        advancedWithdrawals[transactionHash].advanceFee = 0;\n        advancedWithdrawals[transactionHash].currentOwner = msg.sender;\n\n        state.addPendingWithdrawal(msg.sender, advanceFee, 0);\n        (bool success, ) = payable(address(state)).call{value: uint256(advanceFee)}('');\n        require(success, 'Shield: Transfer failed.');\n\n        IERC20Upgradeable(tokenAddress).safeTransferFrom(\n            address(msg.sender),\n            currentOwner,\n            uint256(Utils.getValue(t.packedInfo))\n        );\n    }\n\n    function setAdvanceWithdrawalFee(\n        Block calldata b,\n        Transaction calldata t,\n        uint256 index,\n        bytes32[] calldata siblingPath\n    ) external payable nonReentrant {\n        // check this block is a real one, in the queue, not something made up.\n        bytes32 transactionHash = state.areBlockAndTransactionReal(b, t, index, siblingPath);\n\n        // The transaction is a withdrawal transaction\n        (bool isWithdrawing, ) = state.circuitInfo(Utils.getCircuitHash(t.packedInfo));\n        require(isWithdrawing, 'Shield: Can only advance withdrawals');\n\n        require(msg.value > 0, 'Shield: Advance fee cannot be zero');\n\n        //Check that the withdrawal is still challengeable\n        require(\n            state.getBlockData(Utils.getBlockNumberL2(b.packedInfo)).time + CHALLENGE_PERIOD >=\n                block.timestamp,\n            'Shield: The block has already been finalized'\n        );\n\n        require(\n            Utils.getTokenType(t.packedInfo) == TokenType.ERC20 && t.tokenId == ZERO,\n            'Shield: Can only advance withdrawals for fungible tokens'\n        );\n\n        // The withdrawal has not been withdrawn\n        require(\n            !advancedWithdrawals[transactionHash].isWithdrawn,\n            'Shield: This transaction has already paid out'\n        );\n        AdvanceWithdrawal memory advancedWithdrawal = advancedWithdrawals[transactionHash];\n        address originalRecipientAddress = address(uint160(uint256(t.recipientAddress)));\n        address currentOwner = advancedWithdrawal.currentOwner == address(0)\n            ? originalRecipientAddress\n            : advancedWithdrawal.currentOwner;\n\n        // Only the owner of the withdraw can set the advanced withdrawal\n        require(\n            msg.sender == currentOwner,\n            'Shield: You are not the current owner of this withdrawal'\n        );\n\n        advancedWithdrawal.advanceFee += uint88(msg.value);\n        advancedWithdrawals[transactionHash] = advancedWithdrawal;\n        emit InstantWithdrawalRequested(transactionHash, msg.sender, advancedWithdrawal.advanceFee);\n    }\n\n    function payOut(Transaction calldata t, address recipientAddress) internal whenNotPaused {\n        require(\n            uint256(t.ercAddress) < 0x010000000000000000000000000000000000000000,\n            'Shield: The given address is more than 160 bits'\n        );\n        address addr = address(uint160(uint256(t.ercAddress)));\n\n        uint112 value = Utils.getValue(t.packedInfo);\n\n        TokenType tokenType = Utils.getTokenType(t.packedInfo);\n        if (tokenType == TokenType.ERC20) {\n            if (t.tokenId != ZERO)\n                revert('Shield: ERC20 withdrawal should have tokenId equal to ZERO');\n            uint256 check = super.getRestrictionWithdraw(addr);\n            if (value > check && check != 0)\n                revert('Shield: Value is above current restrictions for withdrawals');\n            else IERC20Upgradeable(addr).safeTransfer(recipientAddress, uint256(value));\n        } else if (tokenType == TokenType.ERC721) {\n            if (value != 0)\n                // value should always be equal to 0\n                revert('Shield: Invalid inputs for ERC721 withdrawal');\n            else\n                IERC721(addr).safeTransferFrom(\n                    address(this),\n                    recipientAddress,\n                    uint256(t.tokenId),\n                    ''\n                );\n        } else if (tokenType == TokenType.ERC1155) {\n            IERC1155(addr).safeTransferFrom(\n                address(this),\n                recipientAddress,\n                uint256(t.tokenId),\n                uint256(value),\n                ''\n            );\n        }\n    }\n\n    function payIn(Transaction calldata t) internal {\n        // check the address fits in 160 bits. This is so we can't overflow the circuit\n        uint256 addrNum = uint256(t.ercAddress);\n        require(\n            addrNum < 0x010000000000000000000000000000000000000000,\n            'Shield: The given address is more than 160 bits'\n        );\n        address addr = address(uint160(addrNum));\n\n        uint112 value = Utils.getValue(t.packedInfo);\n        TokenType tokenType = Utils.getTokenType(t.packedInfo);\n\n        if (tokenType == TokenType.ERC20) {\n            if (t.tokenId != ZERO)\n                revert('Shield: ERC20 deposit should have tokenId equal to ZERO');\n            uint256 check = super.getRestrictionDeposit(addr);\n            if (value > check && check != 0)\n                revert('Shield: Value is above current restrictions for deposits');\n            else\n                IERC20Upgradeable(addr).safeTransferFrom(msg.sender, address(this), uint256(value));\n        } else if (tokenType == TokenType.ERC721) {\n            if (value != 0)\n                // value should always be equal to 0\n                revert('Shield: Invalid inputs for ERC721 deposit');\n            else IERC721(addr).safeTransferFrom(msg.sender, address(this), uint256(t.tokenId), '');\n        } else if (tokenType == TokenType.ERC1155) {\n            IERC1155(addr).safeTransferFrom(\n                msg.sender,\n                address(this),\n                uint256(t.tokenId),\n                uint256(value),\n                ''\n            );\n        }\n    }\n}\n",
  "sourcePath": "/app/contracts/Shield.sol",
  "compiler": {
    "name": "solc",
    "version": "0.8.17+commit.8df45f5f.Emscripten.clang"
  },
  "schemaVersion": "3.4.10",
  "updatedAt": "2023-01-04T16:07:33.516Z",
  "networkType": "ethereum",
  "devdoc": {
    "kind": "dev",
    "methods": {
      "finaliseWithdrawal((uint256,bytes32,bytes32,bytes32,bytes32),(uint256,uint256[],bytes32,bytes32,bytes32,bytes32[],bytes32[],bytes32[2],uint256[4]),uint256,bytes32[])": {
        "params": {
          "b": "- the block containing the Withdraw transaction",
          "index": "- the index of the transaction that locates it in the array of Transactions in Block b TODO do we need to pass in  all the block data?",
          "t": "- array of the transactions contained in the block"
        }
      },
      "getBlockStake()": {
        "details": "Get block stake for a proposer"
      },
      "getBootChallenger()": {
        "details": "Get boot challenger address"
      },
      "getBootProposer()": {
        "details": "Get boot proposer address"
      },
      "getFeeL2TokenAddress()": {
        "details": "Get Matic address (fee token for proposers payment)"
      },
      "getMaxProposers()": {
        "details": "Get maximum number of proposers"
      },
      "getMinimumStake()": {
        "details": "Get minimum stake for a proposer"
      },
      "getProposerSetCount()": {
        "details": "Get proposerset count in PoS"
      },
      "getRotateProposerBlocks()": {
        "details": "Get rotate proposer blocks for the current proposer"
      },
      "getSprintsInSpan()": {
        "details": "Get sprints in span in PoS"
      },
      "isBlockPaymentPending(uint64)": {
        "details": "Check if a block has been paid to the proposer"
      },
      "owner()": {
        "details": "Tells the address of the owner",
        "returns": {
          "_0": "the address of the owner"
        }
      },
      "paused()": {
        "details": "Returns true if the contract is paused, and false otherwise."
      },
      "removeRestriction(address)": {
        "details": "Remove token restriction"
      },
      "setBlockStake(uint96)": {
        "details": "Set block stake for a proposer"
      },
      "setBootChallenger(address)": {
        "details": "Set boot challenger address"
      },
      "setBootProposer(address)": {
        "details": "Set boot proposer address"
      },
      "setFeeL2TokenAddress(address)": {
        "details": "Set Matic address (fee token for proposers payment)"
      },
      "setMaxProposers(uint256)": {
        "details": "Set maximum number of proposers"
      },
      "setMinimumStake(uint96)": {
        "details": "Set minimum stake for a proposer"
      },
      "setProposerSetCount(uint256)": {
        "details": "Set proposerset count in PoS"
      },
      "setRestriction(address,uint256,uint256)": {
        "details": "Set token restriction"
      },
      "setRotateProposerBlocks(uint256)": {
        "details": "Set rotate proposer blocks for the current proposer"
      },
      "setSprintsInSpan(uint256)": {
        "details": "Set sprints in span in PoS"
      },
      "transferOwnership(address)": {
        "details": "Allows the current owner to transfer control of the contract to a newOwner.",
        "params": {
          "newOwner": "The address to transfer ownership to."
        }
      }
    },
    "version": 1
  },
  "userdoc": {
    "events": {
      "NewLeaf(uint256,bytes32,bytes32)": {
        "notice": "These events are what the merkle-tree microservice's filters will listen for."
      }
    },
    "kind": "user",
    "methods": {
      "finaliseWithdrawal((uint256,bytes32,bytes32,bytes32,bytes32),(uint256,uint256[],bytes32,bytes32,bytes32,bytes32[],bytes32[],bytes32[2],uint256[4]),uint256,bytes32[])": {
        "notice": "This function enables funds to be withdrawn, once a block is finalised"
      }
    },
    "version": 1
  }
}