{
  "contractName": "SimpleMultiSig",
  "abi": [
    {
      "inputs": [
        {
          "internalType": "uint256",
          "name": "threshold_",
          "type": "uint256"
        },
        {
          "internalType": "address[]",
          "name": "owners_",
          "type": "address[]"
        },
        {
          "internalType": "uint256",
          "name": "chainId",
          "type": "uint256"
        }
      ],
      "stateMutability": "nonpayable",
      "type": "constructor"
    },
    {
      "inputs": [],
      "name": "nonce",
      "outputs": [
        {
          "internalType": "uint256",
          "name": "",
          "type": "uint256"
        }
      ],
      "stateMutability": "view",
      "type": "function",
      "constant": true
    },
    {
      "inputs": [
        {
          "internalType": "uint256",
          "name": "",
          "type": "uint256"
        }
      ],
      "name": "ownersArr",
      "outputs": [
        {
          "internalType": "address",
          "name": "",
          "type": "address"
        }
      ],
      "stateMutability": "view",
      "type": "function",
      "constant": true
    },
    {
      "inputs": [],
      "name": "threshold",
      "outputs": [
        {
          "internalType": "uint256",
          "name": "",
          "type": "uint256"
        }
      ],
      "stateMutability": "view",
      "type": "function",
      "constant": true
    },
    {
      "stateMutability": "payable",
      "type": "receive",
      "payable": true
    },
    {
      "inputs": [],
      "name": "owners",
      "outputs": [
        {
          "internalType": "address[]",
          "name": "",
          "type": "address[]"
        }
      ],
      "stateMutability": "view",
      "type": "function",
      "constant": true
    },
    {
      "inputs": [
        {
          "internalType": "uint256",
          "name": "threshold_",
          "type": "uint256"
        },
        {
          "internalType": "address[]",
          "name": "owners_",
          "type": "address[]"
        }
      ],
      "name": "setOwners",
      "outputs": [],
      "stateMutability": "nonpayable",
      "type": "function"
    },
    {
      "inputs": [
        {
          "internalType": "uint8[]",
          "name": "sigV",
          "type": "uint8[]"
        },
        {
          "internalType": "bytes32[]",
          "name": "sigR",
          "type": "bytes32[]"
        },
        {
          "internalType": "bytes32[]",
          "name": "sigS",
          "type": "bytes32[]"
        },
        {
          "internalType": "address",
          "name": "destination",
          "type": "address"
        },
        {
          "internalType": "uint256",
          "name": "value",
          "type": "uint256"
        },
        {
          "internalType": "bytes",
          "name": "data",
          "type": "bytes"
        },
        {
          "internalType": "address",
          "name": "executor",
          "type": "address"
        },
        {
          "internalType": "uint256",
          "name": "gasLimit",
          "type": "uint256"
        }
      ],
      "name": "execute",
      "outputs": [],
      "stateMutability": "nonpayable",
      "type": "function"
    }
  ],
  "bytecode": "0x60a06040523480156200001157600080fd5b50604051620012d9380380620012d98339810160408190526200003491620003fa565b62000040838362000113565b604080517fd87cd6ef79d4e2b95e15ce8abf732db51ec771f1ca2edccf22a46c729ac5647260208201527fb7a0bfa1b79f2443f4d73ebb9259cddbcd510b18be6fc4da7d1aa7b1786e73e6918101919091527fc89efdaa54c0f20c7adf612882df0950f5a951637e0307cdcb4c672f298b8bc66060820152608081018290523060a08201527f251543af6a222378665a76fe38dbceae4871a070b7fdaf5c6c30cf758dc33cc060c082015260e00160408051601f1981840301815291905280516020909101206080525062000521915050565b601481511115801562000127575080518211155b8015620001345750600082115b620001865760405162461bcd60e51b815260206004820152601e60248201527f496e76616c696420636f6e7374727563746f7220706172616d657465722e000060448201526064015b60405180910390fd5b60005b600354811015620001f95760006002600060038481548110620001b057620001b0620004e3565b6000918252602080832091909101546001600160a01b031683528201929092526040019020805460ff191691151591909117905580620001f081620004f9565b91505062000189565b506000805b82518110156200032857816001600160a01b0316838281518110620002275762000227620004e3565b60200260200101516001600160a01b031611620002995760405162461bcd60e51b815260206004820152602960248201527f4f776e6572732077657265206e6f7420616464656420696e20617363656e646960448201526837339037b93232b91760b91b60648201526084016200017d565b600160026000858481518110620002b457620002b4620004e3565b60200260200101516001600160a01b03166001600160a01b0316815260200190815260200160002060006101000a81548160ff021916908315150217905550828181518110620003085762000308620004e3565b6020026020010151915080806200031f90620004f9565b915050620001fe565b5081516200033e90600390602085019062000346565b505050600155565b8280548282559060005260206000209081019282156200039e579160200282015b828111156200039e57825182546001600160a01b0319166001600160a01b0390911617825560209092019160019091019062000367565b50620003ac929150620003b0565b5090565b5b80821115620003ac5760008155600101620003b1565b634e487b7160e01b600052604160045260246000fd5b80516001600160a01b0381168114620003f557600080fd5b919050565b6000806000606084860312156200041057600080fd5b8351602080860151919450906001600160401b03808211156200043257600080fd5b818701915087601f8301126200044757600080fd5b8151818111156200045c576200045c620003c7565b8060051b604051601f19603f83011681018181108582111715620004845762000484620003c7565b60405291825284820192508381018501918a831115620004a357600080fd5b938501935b82851015620004cc57620004bc85620003dd565b84529385019392850192620004a8565b809750505050505050604084015190509250925092565b634e487b7160e01b600052603260045260246000fd5b6000600182016200051a57634e487b7160e01b600052601160045260246000fd5b5060010190565b608051610d9c6200053d60003960006103180152610d9c6000f3fe6080604052600436106100595760003560e01c806342cde4e814610065578063a0ab96531461008e578063aa5df9e2146100b0578063affe39c1146100e8578063affed0e01461010a578063f3182e851461012057600080fd5b3661006057005b600080fd5b34801561007157600080fd5b5061007b60015481565b6040519081526020015b60405180910390f35b34801561009a57600080fd5b506100ae6100a9366004610aef565b610140565b005b3480156100bc57600080fd5b506100d06100cb366004610bd0565b6105a0565b6040516001600160a01b039091168152602001610085565b3480156100f457600080fd5b506100fd6105ca565b6040516100859190610be9565b34801561011657600080fd5b5061007b60005481565b34801561012c57600080fd5b506100ae61013b366004610c36565b61062c565b6001548751146101975760405162461bcd60e51b815260206004820152601f60248201527f72206c656e677468206e6f7420657175616c20746f207468726573686f6c640060448201526064015b60405180910390fd5b855187511480156101a9575087518751145b6102035760405162461bcd60e51b815260206004820152602560248201527f73206f722076206c656e677468206e6f7420657175616c20746f2074687265736044820152643437b6321760d91b606482015260840161018e565b6001600160a01b03821633148061022157506001600160a01b038216155b6102855760405162461bcd60e51b815260206004820152602f60248201527f4578656375746f72206973206e6f74207468652073656e646572206f7220746860448201526e32903d32b9379030b2323932b9b99760891b606482015260840161018e565b825160208085019190912060008054604080517f3ee892349ae4bbe61dce18f95115b5dc02daf49204cc602458cd4c1f540d56d7818701526001600160a01b038b811682840152606082018b9052608082019590955260a081019290925292861660c082015260e0808201869052835180830390910181526101008201845280519085012061190160f01b6101208301527f00000000000000000000000000000000000000000000000000000000000000006101228301526101428083018290528451808403909101815261016290920190935280519301929092209091805b6001548110156104d75760006001848e848151811061038657610386610cd9565b60200260200101518e85815181106103a0576103a0610cd9565b60200260200101518e86815181106103ba576103ba610cd9565b6020026020010151604051600081526020016040526040516103f8949392919093845260ff9290921660208401526040830152606082015260800190565b6020604051602081039080840390855afa15801561041a573d6000803e3d6000fd5b505050602060405103519050826001600160a01b0316816001600160a01b031611801561045f57506001600160a01b03811660009081526002602052604090205460ff165b6104c35760405162461bcd60e51b815260206004820152602f60248201527f5265636f76657265642061646472657373657320617265206e6f7420696e206160448201526e39b1b2b73234b7339037b93232b91760891b606482015260840161018e565b9150806104cf81610d05565b915050610365565b506000546104e6906001610d1e565b6000819055506000886001600160a01b0316888690896040516105099190610d37565b600060405180830381858888f193505050503d8060008114610547576040519150601f19603f3d011682016040523d82523d6000602084013e61054c565b606091505b505080915050806105925760405162461bcd60e51b815260206004820152601060248201526f115e1958dd5d1a5bdb8819985a5b195960821b604482015260640161018e565b505050505050505050505050565b600381815481106105b057600080fd5b6000918252602090912001546001600160a01b0316905081565b6060600380548060200260200160405190810160405280929190818152602001828054801561062257602002820191906000526020600020905b81546001600160a01b03168152600190910190602001808311610604575b5050505050905090565b33301461068a5760405162461bcd60e51b815260206004820152602660248201527f4e6f742063616c6c65642066726f6d20746865204d756c746973696720636f6e6044820152653a3930b1ba1760d11b606482015260840161018e565b6106948282610698565b5050565b60148151111580156106ab575080518211155b80156106b75750600082115b6107035760405162461bcd60e51b815260206004820152601e60248201527f496e76616c696420636f6e7374727563746f7220706172616d657465722e0000604482015260640161018e565b60005b60035481101561076f576000600260006003848154811061072957610729610cd9565b6000918252602080832091909101546001600160a01b031683528201929092526040019020805460ff19169115159190911790558061076781610d05565b915050610706565b506000805b825181101561088f57816001600160a01b031683828151811061079957610799610cd9565b60200260200101516001600160a01b0316116108095760405162461bcd60e51b815260206004820152602960248201527f4f776e6572732077657265206e6f7420616464656420696e20617363656e646960448201526837339037b93232b91760b91b606482015260840161018e565b60016002600085848151811061082157610821610cd9565b60200260200101516001600160a01b03166001600160a01b0316815260200190815260200160002060006101000a81548160ff02191690831515021790555082818151811061087257610872610cd9565b60200260200101519150808061088790610d05565b915050610774565b5081516108a39060039060208501906108ab565b505050600155565b828054828255906000526020600020908101928215610900579160200282015b8281111561090057825182546001600160a01b0319166001600160a01b039091161782556020909201916001909101906108cb565b5061090c929150610910565b5090565b5b8082111561090c5760008155600101610911565b634e487b7160e01b600052604160045260246000fd5b604051601f8201601f191681016001600160401b038111828210171561096357610963610925565b604052919050565b60006001600160401b0382111561098457610984610925565b5060051b60200190565b600082601f83011261099f57600080fd5b813560206109b46109af8361096b565b61093b565b82815260059290921b840181019181810190868411156109d357600080fd5b8286015b848110156109fe57803560ff811681146109f15760008081fd5b83529183019183016109d7565b509695505050505050565b600082601f830112610a1a57600080fd5b81356020610a2a6109af8361096b565b82815260059290921b84018101918181019086841115610a4957600080fd5b8286015b848110156109fe5780358352918301918301610a4d565b80356001600160a01b0381168114610a7b57600080fd5b919050565b600082601f830112610a9157600080fd5b81356001600160401b03811115610aaa57610aaa610925565b610abd601f8201601f191660200161093b565b818152846020838601011115610ad257600080fd5b816020850160208301376000918101602001919091529392505050565b600080600080600080600080610100898b031215610b0c57600080fd5b88356001600160401b0380821115610b2357600080fd5b610b2f8c838d0161098e565b995060208b0135915080821115610b4557600080fd5b610b518c838d01610a09565b985060408b0135915080821115610b6757600080fd5b610b738c838d01610a09565b9750610b8160608c01610a64565b965060808b0135955060a08b0135915080821115610b9e57600080fd5b50610bab8b828c01610a80565b935050610bba60c08a01610a64565b915060e089013590509295985092959890939650565b600060208284031215610be257600080fd5b5035919050565b6020808252825182820181905260009190848201906040850190845b81811015610c2a5783516001600160a01b031683529284019291840191600101610c05565b50909695505050505050565b60008060408385031215610c4957600080fd5b823591506020808401356001600160401b03811115610c6757600080fd5b8401601f81018613610c7857600080fd5b8035610c866109af8261096b565b81815260059190911b82018301908381019088831115610ca557600080fd5b928401925b82841015610cca57610cbb84610a64565b82529284019290840190610caa565b80955050505050509250929050565b634e487b7160e01b600052603260045260246000fd5b634e487b7160e01b600052601160045260246000fd5b600060018201610d1757610d17610cef565b5060010190565b80820180821115610d3157610d31610cef565b92915050565b6000825160005b81811015610d585760208186018101518583015201610d3e565b50600092019182525091905056fea26469706673582212202fb684a0420f0e278e18efc67112314c32ce0872a19bade6bce3af298212936364736f6c63430008110033",
  "immutableReferences": {
    "19113": [
      {
        "length": 32,
        "start": 792
      }
    ]
  },
  "source": "// SPDX-License-Identifier: MIT\n/*\nMIT License\n\nCopyright (c) 2021 Paxos Technology Solutions, LLC who made changes\n\nPermission is hereby granted, free of charge, to any person obtaining a copy\nof this software and associated documentation files (the \"Software\"), to deal\nin the Software without restriction, including without limitation the rights\nto use, copy, modify, merge, publish, distribute, sublicense, and/or sell\ncopies of the Software, and to permit persons to whom the Software is\nfurnished to do so, subject to the following conditions:\n\nThe above copyright notice and this permission notice shall be included in all\ncopies or substantial portions of the Software.\n\nTHE SOFTWARE IS PROVIDED \"AS IS\", WITHOUT WARRANTY OF ANY KIND, EXPRESS OR\nIMPLIED, INCLUDING BUT NOT LIMITED TO THE WARRANTIES OF MERCHANTABILITY,\nFITNESS FOR A PARTICULAR PURPOSE AND NONINFRINGEMENT. IN NO EVENT SHALL THE\nAUTHORS OR COPYRIGHT HOLDERS BE LIABLE FOR ANY CLAIM, DAMAGES OR OTHER\nLIABILITY, WHETHER IN AN ACTION OF CONTRACT, TORT OR OTHERWISE, ARISING FROM,\nOUT OF OR IN CONNECTION WITH THE SOFTWARE OR THE USE OR OTHER DEALINGS IN THE\nSOFTWARE.\n\nThis file incorporates work covered by the following copyright and permission notice:\n\n    Copyright (c) 2017 Christian Lundkvist\n\n    Permission is hereby granted, free of charge, to any person obtaining a copy\n    of this software and associated documentation files (the \"Software\"), to deal\n    in the Software without restriction, including without limitation the rights\n    to use, copy, modify, merge, publish, distribute, sublicense, and/or sell\n    copies of the Software, and to permit persons to whom the Software is\n    furnished to do so, subject to the following conditions:\n\n    The above copyright notice and this permission notice shall be included in all\n    copies or substantial portions of the Software.\n\n    THE SOFTWARE IS PROVIDED \"AS IS\", WITHOUT WARRANTY OF ANY KIND, EXPRESS OR\n    IMPLIED, INCLUDING BUT NOT LIMITED TO THE WARRANTIES OF MERCHANTABILITY,\n    FITNESS FOR A PARTICULAR PURPOSE AND NONINFRINGEMENT. IN NO EVENT SHALL THE\n    AUTHORS OR COPYRIGHT HOLDERS BE LIABLE FOR ANY CLAIM, DAMAGES OR OTHER\n    LIABILITY, WHETHER IN AN ACTION OF CONTRACT, TORT OR OTHERWISE, ARISING FROM,\n    OUT OF OR IN CONNECTION WITH THE SOFTWARE OR THE USE OR OTHER DEALINGS IN THE\n    SOFTWARE.\n*/\npragma solidity ^0.8.0;\n\ncontract SimpleMultiSig {\n\n// EIP712 Precomputed hashes:\n// keccak256(\"EIP712Domain(string name,string version,uint256 chainId,address verifyingContract,bytes32 salt)\")\nbytes32 constant EIP712DOMAINTYPE_HASH = 0xd87cd6ef79d4e2b95e15ce8abf732db51ec771f1ca2edccf22a46c729ac56472;\n\n// keccak256(\"Simple MultiSig\")\nbytes32 constant NAME_HASH = 0xb7a0bfa1b79f2443f4d73ebb9259cddbcd510b18be6fc4da7d1aa7b1786e73e6;\n\n// keccak256(\"1\")\nbytes32 constant VERSION_HASH = 0xc89efdaa54c0f20c7adf612882df0950f5a951637e0307cdcb4c672f298b8bc6;\n\n// keccak256(\"MultiSigTransaction(address destination,uint256 value,bytes data,uint256 nonce,address executor,uint256 gasLimit)\")\nbytes32 constant TXTYPE_HASH = 0x3ee892349ae4bbe61dce18f95115b5dc02daf49204cc602458cd4c1f540d56d7;\n\nbytes32 constant SALT = 0x251543af6a222378665a76fe38dbceae4871a070b7fdaf5c6c30cf758dc33cc0;\n\n  uint public nonce;                 // mutable state\n  uint public threshold;             // mutable state\n  mapping (address => bool) isOwner; // mutable state\n  address[] public ownersArr;        // mutable state\n\n  bytes32 immutable DOMAIN_SEPARATOR;          // hash for EIP712, computed from contract address\n\n  function owners() external view returns (address[] memory) {\n    return ownersArr;\n  }\n\n  // Note that owners_ must be strictly increasing, in order to prevent duplicates\n  function setOwners_(uint threshold_, address[] memory owners_) private {\n    require(owners_.length <= 20 && threshold_ <= owners_.length && threshold_ > 0, 'Invalid constructor parameter.');\n\n    // remove old owners from map\n    for (uint i = 0; i < ownersArr.length; i++) {\n      isOwner[ownersArr[i]] = false;\n    }\n\n    // add new owners to map\n    address lastAdd = address(0);\n    for (uint i = 0; i < owners_.length; i++) {\n      require(owners_[i] > lastAdd, 'Owners were not added in ascending order.');\n      isOwner[owners_[i]] = true;\n      lastAdd = owners_[i];\n    }\n\n    // set owners array and threshold\n    ownersArr = owners_;\n    threshold = threshold_;\n  }\n\n  constructor(uint threshold_, address[] memory owners_, uint chainId) public {\n    setOwners_(threshold_, owners_);\n\n    DOMAIN_SEPARATOR = keccak256(abi.encode(EIP712DOMAINTYPE_HASH,\n                                            NAME_HASH,\n                                            VERSION_HASH,\n                                            chainId,\n                                            this,\n                                            SALT));\n  }\n\n  // Requires a quorum of owners to call from this contract using execute\n  function setOwners(uint threshold_, address[] memory owners_) external {\n    require(msg.sender == address(this), 'Not called from the Multisig contract.');\n    setOwners_(threshold_, owners_);\n  }\n\n  // Note that address recovered from signatures must be strictly increasing, in order to prevent duplicates\n  function execute(uint8[] memory sigV, bytes32[] memory sigR, bytes32[] memory sigS, address destination, uint value, bytes memory data, address executor, uint gasLimit) external {\n    require(sigR.length == threshold, 'r length not equal to threshold');\n    require(sigR.length == sigS.length && sigR.length == sigV.length, 's or v length not equal to threshold.');\n    require(executor == msg.sender || executor == address(0), 'Executor is not the sender or the zero address.');\n\n    // EIP712 scheme: https://github.com/ethereum/EIPs/blob/master/EIPS/eip-712.md\n    bytes32 txInputHash = keccak256(abi.encode(TXTYPE_HASH, destination, value, keccak256(data), nonce, executor, gasLimit));\n    bytes32 totalHash = keccak256(abi.encodePacked(\"\\x19\\x01\", DOMAIN_SEPARATOR, txInputHash));\n\n    address lastAdd = address(0); // cannot have address(0) as an owner\n    for (uint i = 0; i < threshold; i++) {\n      address recovered = ecrecover(totalHash, sigV[i], sigR[i], sigS[i]);\n      require(recovered > lastAdd && isOwner[recovered], 'Recovered addresses are not in ascending order.');\n      lastAdd = recovered;\n    }\n\n    // If we make it here all signatures are accounted for.\n    nonce = nonce + 1;\n    bool success = false;\n    (success,) = destination.call{value: value, gas: gasLimit}(data);\n    require(success, 'Execution failed');\n  }\n\n  receive() external payable {}\n}\n",
  "sourcePath": "/app/contracts/SimpleMultiSig.sol",
  "compiler": {
    "name": "solc",
    "version": "0.8.17+commit.8df45f5f.Emscripten.clang"
  },
  "schemaVersion": "3.4.10",
  "updatedAt": "2022-12-16T22:06:08.856Z",
  "networkType": "ethereum",
  "devdoc": {
    "kind": "dev",
    "methods": {},
    "version": 1
  },
  "userdoc": {
    "kind": "user",
    "methods": {},
    "version": 1
  }
}