{
  "contractName": "State",
  "abi": [
    {
      "inputs": [
        {
          "internalType": "bytes32",
          "name": "depositHash",
          "type": "bytes32"
        }
      ],
      "name": "DepositNotEscrowed",
      "type": "error"
    },
    {
      "inputs": [],
      "name": "InvalidBlockSize",
      "type": "error"
    },
    {
      "inputs": [],
      "name": "InvalidTransactionHash",
      "type": "error"
    },
    {
      "inputs": [],
      "name": "InvalidTransactionSize",
      "type": "error"
    },
    {
      "anonymous": false,
      "inputs": [],
      "name": "BlockProposed",
      "type": "event"
    },
    {
      "anonymous": false,
      "inputs": [
        {
          "indexed": false,
          "internalType": "bytes32",
          "name": "commitHash",
          "type": "bytes32"
        },
        {
          "indexed": false,
          "internalType": "address",
          "name": "sender",
          "type": "address"
        }
      ],
      "name": "CommittedToChallenge",
      "type": "event"
    },
    {
      "anonymous": false,
      "inputs": [
        {
          "indexed": false,
          "internalType": "uint8",
          "name": "version",
          "type": "uint8"
        }
      ],
      "name": "Initialized",
      "type": "event"
    },
    {
      "anonymous": false,
      "inputs": [
        {
          "indexed": false,
          "internalType": "bytes32",
          "name": "withdrawTransactionHash",
          "type": "bytes32"
        },
        {
          "indexed": false,
          "internalType": "address",
          "name": "paidBy",
          "type": "address"
        },
        {
          "indexed": false,
          "internalType": "uint256",
          "name": "amount",
          "type": "uint256"
        }
      ],
      "name": "InstantWithdrawalRequested",
      "type": "event"
    },
    {
      "anonymous": false,
      "inputs": [
        {
          "indexed": false,
          "internalType": "address",
          "name": "addr",
          "type": "address"
        }
      ],
      "name": "NewBootChallengerSet",
      "type": "event"
    },
    {
      "anonymous": false,
      "inputs": [
        {
          "indexed": false,
          "internalType": "address",
          "name": "addr",
          "type": "address"
        }
      ],
      "name": "NewBootProposerSet",
      "type": "event"
    },
    {
      "anonymous": false,
      "inputs": [
        {
          "indexed": false,
          "internalType": "address",
          "name": "proposer",
          "type": "address"
        }
      ],
      "name": "NewCurrentProposer",
      "type": "event"
    },
    {
      "anonymous": false,
      "inputs": [
        {
          "indexed": false,
          "internalType": "uint256",
          "name": "leafIndex",
          "type": "uint256"
        },
        {
          "indexed": false,
          "internalType": "bytes32",
          "name": "leafValue",
          "type": "bytes32"
        },
        {
          "indexed": false,
          "internalType": "bytes32",
          "name": "root",
          "type": "bytes32"
        }
      ],
      "name": "NewLeaf",
      "type": "event"
    },
    {
      "anonymous": false,
      "inputs": [
        {
          "indexed": false,
          "internalType": "uint256",
          "name": "minLeafIndex",
          "type": "uint256"
        },
        {
          "indexed": false,
          "internalType": "bytes32[]",
          "name": "leafValues",
          "type": "bytes32[]"
        },
        {
          "indexed": false,
          "internalType": "bytes32",
          "name": "root",
          "type": "bytes32"
        }
      ],
      "name": "NewLeaves",
      "type": "event"
    },
    {
      "anonymous": false,
      "inputs": [
        {
          "indexed": false,
          "internalType": "address",
          "name": "previousOwner",
          "type": "address"
        },
        {
          "indexed": false,
          "internalType": "address",
          "name": "newOwner",
          "type": "address"
        }
      ],
      "name": "OwnershipTransferred",
      "type": "event"
    },
    {
      "anonymous": false,
      "inputs": [
        {
          "indexed": false,
          "internalType": "address",
          "name": "account",
          "type": "address"
        }
      ],
      "name": "Paused",
      "type": "event"
    },
    {
      "anonymous": false,
      "inputs": [
        {
          "indexed": false,
          "internalType": "uint64",
          "name": "blockNumberL2",
          "type": "uint64"
        }
      ],
      "name": "Rollback",
      "type": "event"
    },
    {
      "anonymous": false,
      "inputs": [
        {
          "indexed": false,
          "internalType": "address",
          "name": "ercAddress",
          "type": "address"
        },
        {
          "indexed": false,
          "internalType": "uint256",
          "name": "amount",
          "type": "uint256"
        }
      ],
      "name": "ShieldBalanceTransferred",
      "type": "event"
    },
    {
      "anonymous": false,
      "inputs": [],
      "name": "TransactionSubmitted",
      "type": "event"
    },
    {
      "anonymous": false,
      "inputs": [
        {
          "indexed": false,
          "internalType": "address",
          "name": "account",
          "type": "address"
        }
      ],
      "name": "Unpaused",
      "type": "event"
    },
    {
      "anonymous": false,
      "inputs": [
        {
          "indexed": false,
          "internalType": "uint40",
          "name": "circuitHash",
          "type": "uint40"
        }
      ],
      "name": "VkChanged",
      "type": "event"
    },
    {
      "inputs": [],
      "name": "_owner",
      "outputs": [
        {
          "internalType": "address",
          "name": "",
          "type": "address"
        }
      ],
      "stateMutability": "view",
      "type": "function",
      "constant": true
    },
    {
      "inputs": [
        {
          "internalType": "uint256",
          "name": "",
          "type": "uint256"
        }
      ],
      "name": "blockHashes",
      "outputs": [
        {
          "internalType": "bytes32",
          "name": "blockHash",
          "type": "bytes32"
        },
        {
          "internalType": "uint256",
          "name": "time",
          "type": "uint256"
        },
        {
          "internalType": "address",
          "name": "proposer",
          "type": "address"
        },
        {
          "internalType": "uint96",
          "name": "blockStake",
          "type": "uint96"
        }
      ],
      "stateMutability": "view",
      "type": "function",
      "constant": true
    },
    {
      "inputs": [
        {
          "internalType": "bytes32",
          "name": "",
          "type": "bytes32"
        }
      ],
      "name": "blockInfo",
      "outputs": [
        {
          "internalType": "uint120",
          "name": "feesEth",
          "type": "uint120"
        },
        {
          "internalType": "uint120",
          "name": "feesMatic",
          "type": "uint120"
        },
        {
          "internalType": "bool",
          "name": "stakeClaimed",
          "type": "bool"
        }
      ],
      "stateMutability": "view",
      "type": "function",
      "constant": true
    },
    {
      "inputs": [],
      "name": "challengesAddress",
      "outputs": [
        {
          "internalType": "address",
          "name": "",
          "type": "address"
        }
      ],
      "stateMutability": "view",
      "type": "function",
      "constant": true
    },
    {
      "inputs": [
        {
          "internalType": "uint40",
          "name": "",
          "type": "uint40"
        }
      ],
      "name": "circuitInfo",
      "outputs": [
        {
          "internalType": "bool",
          "name": "isWithdrawing",
          "type": "bool"
        },
        {
          "internalType": "bool",
          "name": "isEscrowRequired",
          "type": "bool"
        }
      ],
      "stateMutability": "view",
      "type": "function",
      "constant": true
    },
    {
      "inputs": [],
      "name": "currentProposer",
      "outputs": [
        {
          "internalType": "address",
          "name": "thisAddress",
          "type": "address"
        },
        {
          "internalType": "address",
          "name": "previousAddress",
          "type": "address"
        },
        {
          "internalType": "address",
          "name": "nextAddress",
          "type": "address"
        },
        {
          "internalType": "string",
          "name": "url",
          "type": "string"
        },
        {
          "internalType": "uint256",
          "name": "fee",
          "type": "uint256"
        },
        {
          "internalType": "bool",
          "name": "inProposerSet",
          "type": "bool"
        },
        {
          "internalType": "uint256",
          "name": "indexProposerSet",
          "type": "uint256"
        }
      ],
      "stateMutability": "view",
      "type": "function",
      "constant": true
    },
    {
      "inputs": [],
      "name": "currentSprint",
      "outputs": [
        {
          "internalType": "uint256",
          "name": "",
          "type": "uint256"
        }
      ],
      "stateMutability": "view",
      "type": "function",
      "constant": true
    },
    {
      "inputs": [
        {
          "internalType": "uint40",
          "name": "circuitHash",
          "type": "uint40"
        }
      ],
      "name": "deleteVerificationKey",
      "outputs": [],
      "stateMutability": "nonpayable",
      "type": "function"
    },
    {
      "inputs": [],
      "name": "getBlockStake",
      "outputs": [
        {
          "internalType": "uint96",
          "name": "",
          "type": "uint96"
        }
      ],
      "stateMutability": "view",
      "type": "function",
      "constant": true
    },
    {
      "inputs": [],
      "name": "getBootChallenger",
      "outputs": [
        {
          "internalType": "address",
          "name": "",
          "type": "address"
        }
      ],
      "stateMutability": "view",
      "type": "function",
      "constant": true
    },
    {
      "inputs": [],
      "name": "getBootProposer",
      "outputs": [
        {
          "internalType": "address",
          "name": "",
          "type": "address"
        }
      ],
      "stateMutability": "view",
      "type": "function",
      "constant": true
    },
    {
      "inputs": [
        {
          "internalType": "uint40",
          "name": "circuitHash",
          "type": "uint40"
        }
      ],
      "name": "getCircuitInfo",
      "outputs": [
        {
          "components": [
            {
              "internalType": "bool",
              "name": "isWithdrawing",
              "type": "bool"
            },
            {
              "internalType": "bool",
              "name": "isEscrowRequired",
              "type": "bool"
            }
          ],
          "internalType": "struct Structures.CircuitInfo",
          "name": "",
          "type": "tuple"
        }
      ],
      "stateMutability": "view",
      "type": "function",
      "constant": true
    },
    {
      "inputs": [],
      "name": "getMaticAddress",
      "outputs": [
        {
          "internalType": "address",
          "name": "",
          "type": "address"
        }
      ],
      "stateMutability": "view",
      "type": "function",
      "constant": true
    },
    {
      "inputs": [],
      "name": "getMaxProposers",
      "outputs": [
        {
          "internalType": "uint256",
          "name": "",
          "type": "uint256"
        }
      ],
      "stateMutability": "view",
      "type": "function",
      "constant": true
    },
    {
      "inputs": [],
      "name": "getMinimumStake",
      "outputs": [
        {
          "internalType": "uint256",
          "name": "",
          "type": "uint256"
        }
      ],
      "stateMutability": "view",
      "type": "function",
      "constant": true
    },
    {
      "inputs": [],
      "name": "getProposerSetCount",
      "outputs": [
        {
          "internalType": "uint256",
          "name": "",
          "type": "uint256"
        }
      ],
      "stateMutability": "view",
      "type": "function",
      "constant": true
    },
    {
      "inputs": [
        {
          "internalType": "address",
          "name": "tokenAddr",
          "type": "address"
        }
      ],
      "name": "getRestrictionDeposit",
      "outputs": [
        {
          "internalType": "uint256",
          "name": "",
          "type": "uint256"
        }
      ],
      "stateMutability": "view",
      "type": "function",
      "constant": true
    },
    {
      "inputs": [
        {
          "internalType": "address",
          "name": "tokenAddr",
          "type": "address"
        }
      ],
      "name": "getRestrictionWithdraw",
      "outputs": [
        {
          "internalType": "uint256",
          "name": "",
          "type": "uint256"
        }
      ],
      "stateMutability": "view",
      "type": "function",
      "constant": true
    },
    {
      "inputs": [],
      "name": "getRotateProposerBlocks",
      "outputs": [
        {
          "internalType": "uint256",
          "name": "",
          "type": "uint256"
        }
      ],
      "stateMutability": "view",
      "type": "function",
      "constant": true
    },
    {
      "inputs": [],
      "name": "getSprintsInSpan",
      "outputs": [
        {
          "internalType": "uint256",
          "name": "",
          "type": "uint256"
        }
      ],
      "stateMutability": "view",
      "type": "function",
      "constant": true
    },
    {
      "inputs": [
        {
          "internalType": "uint40",
          "name": "circuitHash",
          "type": "uint40"
        }
      ],
      "name": "getVerificationKey",
      "outputs": [
        {
          "internalType": "uint256[]",
          "name": "",
          "type": "uint256[]"
        }
      ],
      "stateMutability": "view",
      "type": "function",
      "constant": true
    },
    {
      "inputs": [],
      "name": "numProposers",
      "outputs": [
        {
          "internalType": "uint256",
          "name": "",
          "type": "uint256"
        }
      ],
      "stateMutability": "view",
      "type": "function",
      "constant": true
    },
    {
      "inputs": [],
      "name": "owner",
      "outputs": [
        {
          "internalType": "address",
          "name": "",
          "type": "address"
        }
      ],
      "stateMutability": "view",
      "type": "function",
      "constant": true
    },
    {
      "inputs": [],
      "name": "pause",
      "outputs": [],
      "stateMutability": "nonpayable",
      "type": "function"
    },
    {
      "inputs": [],
      "name": "paused",
      "outputs": [
        {
          "internalType": "bool",
          "name": "",
          "type": "bool"
        }
      ],
      "stateMutability": "view",
      "type": "function",
      "constant": true
    },
    {
      "inputs": [
        {
          "internalType": "address",
          "name": "",
          "type": "address"
        }
      ],
      "name": "pendingWithdrawalsFees",
      "outputs": [
        {
          "internalType": "uint120",
          "name": "feesEth",
          "type": "uint120"
        },
        {
          "internalType": "uint120",
          "name": "feesMatic",
          "type": "uint120"
        }
      ],
      "stateMutability": "view",
      "type": "function",
      "constant": true
    },
    {
      "inputs": [],
      "name": "proposerStartBlock",
      "outputs": [
        {
          "internalType": "uint256",
          "name": "",
          "type": "uint256"
        }
      ],
      "stateMutability": "view",
      "type": "function",
      "constant": true
    },
    {
      "inputs": [
        {
          "internalType": "address",
          "name": "",
          "type": "address"
        }
      ],
      "name": "proposers",
      "outputs": [
        {
          "internalType": "address",
          "name": "thisAddress",
          "type": "address"
        },
        {
          "internalType": "address",
          "name": "previousAddress",
          "type": "address"
        },
        {
          "internalType": "address",
          "name": "nextAddress",
          "type": "address"
        },
        {
          "internalType": "string",
          "name": "url",
          "type": "string"
        },
        {
          "internalType": "uint256",
          "name": "fee",
          "type": "uint256"
        },
        {
          "internalType": "bool",
          "name": "inProposerSet",
          "type": "bool"
        },
        {
          "internalType": "uint256",
          "name": "indexProposerSet",
          "type": "uint256"
        }
      ],
      "stateMutability": "view",
      "type": "function",
      "constant": true
    },
    {
      "inputs": [],
      "name": "proposersAddress",
      "outputs": [
        {
          "internalType": "address",
          "name": "",
          "type": "address"
        }
      ],
      "stateMutability": "view",
      "type": "function",
      "constant": true
    },
    {
      "inputs": [
        {
          "internalType": "uint256",
          "name": "",
          "type": "uint256"
        }
      ],
      "name": "proposersSet",
      "outputs": [
        {
          "internalType": "address",
          "name": "thisAddress",
          "type": "address"
        },
        {
          "internalType": "uint256",
          "name": "weight",
          "type": "uint256"
        },
        {
          "internalType": "int256",
          "name": "currentWeight",
          "type": "int256"
        },
        {
          "internalType": "uint256",
          "name": "effectiveWeight",
          "type": "uint256"
        }
      ],
      "stateMutability": "view",
      "type": "function",
      "constant": true
    },
    {
      "inputs": [
        {
          "internalType": "uint40",
          "name": "_circuitHash",
          "type": "uint40"
        },
        {
          "internalType": "uint256[]",
          "name": "_vk",
          "type": "uint256[]"
        },
        {
          "internalType": "bool",
          "name": "isEscrowRequired",
          "type": "bool"
        },
        {
          "internalType": "bool",
          "name": "isWithdrawing",
          "type": "bool"
        }
      ],
      "name": "registerVerificationKey",
      "outputs": [],
      "stateMutability": "nonpayable",
      "type": "function"
    },
    {
      "inputs": [
        {
          "internalType": "address",
          "name": "tokenAddr",
          "type": "address"
        }
      ],
      "name": "removeRestriction",
      "outputs": [],
      "stateMutability": "nonpayable",
      "type": "function"
    },
    {
      "inputs": [
        {
          "internalType": "uint96",
          "name": "_blockStake",
          "type": "uint96"
        }
      ],
      "name": "setBlockStake",
      "outputs": [],
      "stateMutability": "nonpayable",
      "type": "function"
    },
    {
      "inputs": [
        {
          "internalType": "address",
          "name": "challenger",
          "type": "address"
        }
      ],
      "name": "setBootChallenger",
      "outputs": [],
      "stateMutability": "nonpayable",
      "type": "function"
    },
    {
      "inputs": [
        {
          "internalType": "address",
          "name": "proposer",
          "type": "address"
        }
      ],
      "name": "setBootProposer",
      "outputs": [],
      "stateMutability": "nonpayable",
      "type": "function"
    },
    {
      "inputs": [
        {
          "internalType": "address",
          "name": "_maticAddress",
          "type": "address"
        }
      ],
      "name": "setMaticAddress",
      "outputs": [],
      "stateMutability": "nonpayable",
      "type": "function"
    },
    {
      "inputs": [
        {
          "internalType": "uint256",
          "name": "_maxProposers",
          "type": "uint256"
        }
      ],
      "name": "setMaxProposers",
      "outputs": [],
      "stateMutability": "nonpayable",
      "type": "function"
    },
    {
      "inputs": [
        {
          "internalType": "uint96",
          "name": "_minimumStake",
          "type": "uint96"
        }
      ],
      "name": "setMinimumStake",
      "outputs": [],
      "stateMutability": "nonpayable",
      "type": "function"
    },
    {
      "inputs": [
        {
          "internalType": "uint256",
          "name": "_proposerSetCount",
          "type": "uint256"
        }
      ],
      "name": "setProposerSetCount",
      "outputs": [],
      "stateMutability": "nonpayable",
      "type": "function"
    },
    {
      "inputs": [
        {
          "internalType": "address",
          "name": "tokenAddr",
          "type": "address"
        },
        {
          "internalType": "uint256",
          "name": "depositAmount",
          "type": "uint256"
        },
        {
          "internalType": "uint256",
          "name": "withdrawAmount",
          "type": "uint256"
        }
      ],
      "name": "setRestriction",
      "outputs": [],
      "stateMutability": "nonpayable",
      "type": "function"
    },
    {
      "inputs": [
        {
          "internalType": "uint256",
          "name": "_rotateProposerBlocks",
          "type": "uint256"
        }
      ],
      "name": "setRotateProposerBlocks",
      "outputs": [],
      "stateMutability": "nonpayable",
      "type": "function"
    },
    {
      "inputs": [
        {
          "internalType": "uint256",
          "name": "_sprintsInSpan",
          "type": "uint256"
        }
      ],
      "name": "setSprintsInSpan",
      "outputs": [],
      "stateMutability": "nonpayable",
      "type": "function"
    },
    {
      "inputs": [],
      "name": "shieldAddress",
      "outputs": [
        {
          "internalType": "address",
          "name": "",
          "type": "address"
        }
      ],
      "stateMutability": "view",
      "type": "function",
      "constant": true
    },
    {
      "inputs": [
        {
          "internalType": "uint256",
          "name": "",
          "type": "uint256"
        }
      ],
      "name": "slots",
      "outputs": [
        {
          "internalType": "address",
          "name": "",
          "type": "address"
        }
      ],
      "stateMutability": "view",
      "type": "function",
      "constant": true
    },
    {
      "inputs": [
        {
          "internalType": "uint256",
          "name": "",
          "type": "uint256"
        }
      ],
      "name": "spanProposersList",
      "outputs": [
        {
          "internalType": "address",
          "name": "",
          "type": "address"
        }
      ],
      "stateMutability": "view",
      "type": "function",
      "constant": true
    },
    {
      "inputs": [
        {
          "internalType": "address",
          "name": "",
          "type": "address"
        }
      ],
      "name": "stakeAccounts",
      "outputs": [
        {
          "internalType": "uint112",
          "name": "amount",
          "type": "uint112"
        },
        {
          "internalType": "uint112",
          "name": "challengeLocked",
          "type": "uint112"
        },
        {
          "internalType": "uint32",
          "name": "time",
          "type": "uint32"
        }
      ],
      "stateMutability": "view",
      "type": "function",
      "constant": true
    },
    {
      "inputs": [
        {
          "internalType": "address",
          "name": "newOwner",
          "type": "address"
        }
      ],
      "name": "transferOwnership",
      "outputs": [],
      "stateMutability": "nonpayable",
      "type": "function"
    },
    {
      "inputs": [
        {
          "internalType": "bytes32",
          "name": "",
          "type": "bytes32"
        }
      ],
      "name": "txInfo",
      "outputs": [
        {
          "internalType": "uint248",
          "name": "ethFee",
          "type": "uint248"
        },
        {
          "internalType": "bool",
          "name": "isEscrowed",
          "type": "bool"
        }
      ],
      "stateMutability": "view",
      "type": "function",
      "constant": true
    },
    {
      "inputs": [],
      "name": "unpause",
      "outputs": [],
      "stateMutability": "nonpayable",
      "type": "function"
    },
    {
      "inputs": [
        {
          "internalType": "uint40",
          "name": "",
          "type": "uint40"
        },
        {
          "internalType": "uint256",
          "name": "",
          "type": "uint256"
        }
      ],
      "name": "verificationKey",
      "outputs": [
        {
          "internalType": "uint256",
          "name": "",
          "type": "uint256"
        }
      ],
      "stateMutability": "view",
      "type": "function",
      "constant": true
    },
    {
      "stateMutability": "payable",
      "type": "receive",
      "payable": true
    },
    {
      "inputs": [],
      "name": "initialize",
      "outputs": [],
      "stateMutability": "nonpayable",
      "type": "function"
    },
    {
      "inputs": [
        {
          "internalType": "address",
          "name": "_proposersAddress",
          "type": "address"
        },
        {
          "internalType": "address",
          "name": "_challengesAddress",
          "type": "address"
        },
        {
          "internalType": "address",
          "name": "_shieldAddress",
          "type": "address"
        }
      ],
      "name": "initializeState",
      "outputs": [],
      "stateMutability": "nonpayable",
      "type": "function"
    },
    {
      "inputs": [
        {
          "components": [
            {
              "internalType": "uint256",
              "name": "packedInfo",
              "type": "uint256"
            },
            {
              "internalType": "bytes32",
              "name": "root",
              "type": "bytes32"
            },
            {
              "internalType": "bytes32",
              "name": "previousBlockHash",
              "type": "bytes32"
            },
            {
              "internalType": "bytes32",
              "name": "frontierHash",
              "type": "bytes32"
            },
            {
              "internalType": "bytes32",
              "name": "transactionHashesRoot",
              "type": "bytes32"
            }
          ],
          "internalType": "struct Structures.Block",
          "name": "b",
          "type": "tuple"
        },
        {
          "components": [
            {
              "internalType": "uint256",
              "name": "packedInfo",
              "type": "uint256"
            },
            {
              "internalType": "uint256[]",
              "name": "historicRootBlockNumberL2",
              "type": "uint256[]"
            },
            {
              "internalType": "bytes32",
              "name": "tokenId",
              "type": "bytes32"
            },
            {
              "internalType": "bytes32",
              "name": "ercAddress",
              "type": "bytes32"
            },
            {
              "internalType": "bytes32",
              "name": "recipientAddress",
              "type": "bytes32"
            },
            {
              "internalType": "bytes32[]",
              "name": "commitments",
              "type": "bytes32[]"
            },
            {
              "internalType": "bytes32[]",
              "name": "nullifiers",
              "type": "bytes32[]"
            },
            {
              "internalType": "bytes32[2]",
              "name": "compressedSecrets",
              "type": "bytes32[2]"
            },
            {
              "internalType": "uint256[4]",
              "name": "proof",
              "type": "uint256[4]"
            }
          ],
          "internalType": "struct Structures.Transaction[]",
          "name": "t",
          "type": "tuple[]"
        }
      ],
      "name": "proposeBlock",
      "outputs": [],
      "stateMutability": "payable",
      "type": "function",
      "payable": true
    },
    {
      "inputs": [
        {
          "internalType": "bytes32",
          "name": "transactionHash",
          "type": "bytes32"
        },
        {
          "internalType": "bool",
          "name": "isEscrowed",
          "type": "bool"
        },
        {
          "internalType": "uint248",
          "name": "ethFee",
          "type": "uint248"
        }
      ],
      "name": "setTransactionInfo",
      "outputs": [],
      "stateMutability": "nonpayable",
      "type": "function"
    },
    {
      "inputs": [
        {
          "internalType": "address",
          "name": "addr",
          "type": "address"
        },
        {
          "components": [
            {
              "internalType": "address",
              "name": "thisAddress",
              "type": "address"
            },
            {
              "internalType": "address",
              "name": "previousAddress",
              "type": "address"
            },
            {
              "internalType": "address",
              "name": "nextAddress",
              "type": "address"
            },
            {
              "internalType": "string",
              "name": "url",
              "type": "string"
            },
            {
              "internalType": "uint256",
              "name": "fee",
              "type": "uint256"
            },
            {
              "internalType": "bool",
              "name": "inProposerSet",
              "type": "bool"
            },
            {
              "internalType": "uint256",
              "name": "indexProposerSet",
              "type": "uint256"
            }
          ],
          "internalType": "struct Structures.LinkedAddress",
          "name": "proposer",
          "type": "tuple"
        }
      ],
      "name": "setProposer",
      "outputs": [],
      "stateMutability": "nonpayable",
      "type": "function"
    },
    {
      "inputs": [
        {
          "internalType": "address",
          "name": "addr",
          "type": "address"
        }
      ],
      "name": "getProposer",
      "outputs": [
        {
          "components": [
            {
              "internalType": "address",
              "name": "thisAddress",
              "type": "address"
            },
            {
              "internalType": "address",
              "name": "previousAddress",
              "type": "address"
            },
            {
              "internalType": "address",
              "name": "nextAddress",
              "type": "address"
            },
            {
              "internalType": "string",
              "name": "url",
              "type": "string"
            },
            {
              "internalType": "uint256",
              "name": "fee",
              "type": "uint256"
            },
            {
              "internalType": "bool",
              "name": "inProposerSet",
              "type": "bool"
            },
            {
              "internalType": "uint256",
              "name": "indexProposerSet",
              "type": "uint256"
            }
          ],
          "internalType": "struct Structures.LinkedAddress",
          "name": "",
          "type": "tuple"
        }
      ],
      "stateMutability": "view",
      "type": "function",
      "constant": true
    },
    {
      "inputs": [
        {
          "internalType": "address",
          "name": "proposer",
          "type": "address"
        }
      ],
      "name": "setCurrentProposer",
      "outputs": [],
      "stateMutability": "nonpayable",
      "type": "function"
    },
    {
      "inputs": [],
      "name": "getCurrentProposer",
      "outputs": [
        {
          "components": [
            {
              "internalType": "address",
              "name": "thisAddress",
              "type": "address"
            },
            {
              "internalType": "address",
              "name": "previousAddress",
              "type": "address"
            },
            {
              "internalType": "address",
              "name": "nextAddress",
              "type": "address"
            },
            {
              "internalType": "string",
              "name": "url",
              "type": "string"
            },
            {
              "internalType": "uint256",
              "name": "fee",
              "type": "uint256"
            },
            {
              "internalType": "bool",
              "name": "inProposerSet",
              "type": "bool"
            },
            {
              "internalType": "uint256",
              "name": "indexProposerSet",
              "type": "uint256"
            }
          ],
          "internalType": "struct Structures.LinkedAddress",
          "name": "",
          "type": "tuple"
        }
      ],
      "stateMutability": "view",
      "type": "function",
      "constant": true
    },
    {
      "inputs": [
        {
          "internalType": "bytes32",
          "name": "blockHash",
          "type": "bytes32"
        }
      ],
      "name": "resetFeeBookBlocksInfo",
      "outputs": [],
      "stateMutability": "nonpayable",
      "type": "function"
    },
    {
      "inputs": [],
      "name": "popBlockData",
      "outputs": [
        {
          "components": [
            {
              "internalType": "bytes32",
              "name": "blockHash",
              "type": "bytes32"
            },
            {
              "internalType": "uint256",
              "name": "time",
              "type": "uint256"
            },
            {
              "internalType": "address",
              "name": "proposer",
              "type": "address"
            },
            {
              "internalType": "uint96",
              "name": "blockStake",
              "type": "uint96"
            }
          ],
          "internalType": "struct Structures.BlockData",
          "name": "",
          "type": "tuple"
        }
      ],
      "stateMutability": "nonpayable",
      "type": "function"
    },
    {
      "inputs": [
        {
          "internalType": "uint64",
          "name": "blockNumberL2",
          "type": "uint64"
        }
      ],
      "name": "getBlockData",
      "outputs": [
        {
          "components": [
            {
              "internalType": "bytes32",
              "name": "blockHash",
              "type": "bytes32"
            },
            {
              "internalType": "uint256",
              "name": "time",
              "type": "uint256"
            },
            {
              "internalType": "address",
              "name": "proposer",
              "type": "address"
            },
            {
              "internalType": "uint96",
              "name": "blockStake",
              "type": "uint96"
            }
          ],
          "internalType": "struct Structures.BlockData",
          "name": "",
          "type": "tuple"
        }
      ],
      "stateMutability": "view",
      "type": "function",
      "constant": true
    },
    {
      "inputs": [],
      "name": "getNumberOfL2Blocks",
      "outputs": [
        {
          "internalType": "uint256",
          "name": "",
          "type": "uint256"
        }
      ],
      "stateMutability": "view",
      "type": "function",
      "constant": true
    },
    {
      "inputs": [
        {
          "internalType": "address",
          "name": "addr",
          "type": "address"
        },
        {
          "internalType": "uint256",
          "name": "feesEth",
          "type": "uint256"
        },
        {
          "internalType": "uint256",
          "name": "feesMatic",
          "type": "uint256"
        }
      ],
      "name": "addPendingWithdrawal",
      "outputs": [],
      "stateMutability": "nonpayable",
      "type": "function"
    },
    {
      "inputs": [],
      "name": "withdraw",
      "outputs": [],
      "stateMutability": "nonpayable",
      "type": "function"
    },
    {
      "inputs": [
        {
          "internalType": "uint256",
          "name": "sb",
          "type": "uint256"
        }
      ],
      "name": "setProposerStartBlock",
      "outputs": [],
      "stateMutability": "nonpayable",
      "type": "function"
    },
    {
      "inputs": [
        {
          "internalType": "uint256",
          "name": "np",
          "type": "uint256"
        }
      ],
      "name": "setNumProposers",
      "outputs": [],
      "stateMutability": "nonpayable",
      "type": "function"
    },
    {
      "inputs": [],
      "name": "getNumProposers",
      "outputs": [
        {
          "internalType": "uint256",
          "name": "",
          "type": "uint256"
        }
      ],
      "stateMutability": "view",
      "type": "function",
      "constant": true
    },
    {
      "inputs": [
        {
          "internalType": "address",
          "name": "proposer",
          "type": "address"
        }
      ],
      "name": "removeProposer",
      "outputs": [],
      "stateMutability": "nonpayable",
      "type": "function"
    },
    {
      "inputs": [
        {
          "internalType": "address",
          "name": "proposer",
          "type": "address"
        },
        {
          "internalType": "string",
          "name": "url",
          "type": "string"
        },
        {
          "internalType": "uint256",
          "name": "fee",
          "type": "uint256"
        }
      ],
      "name": "updateProposer",
      "outputs": [],
      "stateMutability": "nonpayable",
      "type": "function"
    },
    {
      "inputs": [
        {
          "components": [
            {
              "internalType": "uint256",
              "name": "packedInfo",
              "type": "uint256"
            },
            {
              "internalType": "bytes32",
              "name": "root",
              "type": "bytes32"
            },
            {
              "internalType": "bytes32",
              "name": "previousBlockHash",
              "type": "bytes32"
            },
            {
              "internalType": "bytes32",
              "name": "frontierHash",
              "type": "bytes32"
            },
            {
              "internalType": "bytes32",
              "name": "transactionHashesRoot",
              "type": "bytes32"
            }
          ],
          "internalType": "struct Structures.Block",
          "name": "b",
          "type": "tuple"
        }
      ],
      "name": "isBlockReal",
      "outputs": [],
      "stateMutability": "view",
      "type": "function",
      "constant": true
    },
    {
      "inputs": [
        {
          "components": [
            {
              "internalType": "uint256",
              "name": "packedInfo",
              "type": "uint256"
            },
            {
              "internalType": "bytes32",
              "name": "root",
              "type": "bytes32"
            },
            {
              "internalType": "bytes32",
              "name": "previousBlockHash",
              "type": "bytes32"
            },
            {
              "internalType": "bytes32",
              "name": "frontierHash",
              "type": "bytes32"
            },
            {
              "internalType": "bytes32",
              "name": "transactionHashesRoot",
              "type": "bytes32"
            }
          ],
          "internalType": "struct Structures.Block",
          "name": "b",
          "type": "tuple"
        },
        {
          "components": [
            {
              "internalType": "uint256",
              "name": "packedInfo",
              "type": "uint256"
            },
            {
              "internalType": "uint256[]",
              "name": "historicRootBlockNumberL2",
              "type": "uint256[]"
            },
            {
              "internalType": "bytes32",
              "name": "tokenId",
              "type": "bytes32"
            },
            {
              "internalType": "bytes32",
              "name": "ercAddress",
              "type": "bytes32"
            },
            {
              "internalType": "bytes32",
              "name": "recipientAddress",
              "type": "bytes32"
            },
            {
              "internalType": "bytes32[]",
              "name": "commitments",
              "type": "bytes32[]"
            },
            {
              "internalType": "bytes32[]",
              "name": "nullifiers",
              "type": "bytes32[]"
            },
            {
              "internalType": "bytes32[2]",
              "name": "compressedSecrets",
              "type": "bytes32[2]"
            },
            {
              "internalType": "uint256[4]",
              "name": "proof",
              "type": "uint256[4]"
            }
          ],
          "internalType": "struct Structures.Transaction[]",
          "name": "ts",
          "type": "tuple[]"
        }
      ],
      "name": "areBlockAndTransactionsReal",
      "outputs": [],
      "stateMutability": "view",
      "type": "function",
      "constant": true
    },
    {
      "inputs": [
        {
          "components": [
            {
              "internalType": "uint256",
              "name": "packedInfo",
              "type": "uint256"
            },
            {
              "internalType": "bytes32",
              "name": "root",
              "type": "bytes32"
            },
            {
              "internalType": "bytes32",
              "name": "previousBlockHash",
              "type": "bytes32"
            },
            {
              "internalType": "bytes32",
              "name": "frontierHash",
              "type": "bytes32"
            },
            {
              "internalType": "bytes32",
              "name": "transactionHashesRoot",
              "type": "bytes32"
            }
          ],
          "internalType": "struct Structures.Block",
          "name": "b",
          "type": "tuple"
        },
        {
          "components": [
            {
              "internalType": "uint256",
              "name": "packedInfo",
              "type": "uint256"
            },
            {
              "internalType": "uint256[]",
              "name": "historicRootBlockNumberL2",
              "type": "uint256[]"
            },
            {
              "internalType": "bytes32",
              "name": "tokenId",
              "type": "bytes32"
            },
            {
              "internalType": "bytes32",
              "name": "ercAddress",
              "type": "bytes32"
            },
            {
              "internalType": "bytes32",
              "name": "recipientAddress",
              "type": "bytes32"
            },
            {
              "internalType": "bytes32[]",
              "name": "commitments",
              "type": "bytes32[]"
            },
            {
              "internalType": "bytes32[]",
              "name": "nullifiers",
              "type": "bytes32[]"
            },
            {
              "internalType": "bytes32[2]",
              "name": "compressedSecrets",
              "type": "bytes32[2]"
            },
            {
              "internalType": "uint256[4]",
              "name": "proof",
              "type": "uint256[4]"
            }
          ],
          "internalType": "struct Structures.Transaction",
          "name": "t",
          "type": "tuple"
        },
        {
          "internalType": "uint256",
          "name": "index",
          "type": "uint256"
        },
        {
          "internalType": "bytes32[]",
          "name": "siblingPath",
          "type": "bytes32[]"
        }
      ],
      "name": "areBlockAndTransactionReal",
      "outputs": [
        {
          "internalType": "bytes32",
          "name": "",
          "type": "bytes32"
        }
      ],
      "stateMutability": "view",
      "type": "function",
      "constant": true
    },
    {
      "inputs": [
        {
          "internalType": "address",
          "name": "addr",
          "type": "address"
        },
        {
          "internalType": "uint256",
          "name": "amount",
          "type": "uint256"
        },
        {
          "internalType": "uint256",
          "name": "challengeLocked",
          "type": "uint256"
        }
      ],
      "name": "setStakeAccount",
      "outputs": [],
      "stateMutability": "nonpayable",
      "type": "function"
    },
    {
      "inputs": [
        {
          "internalType": "address",
          "name": "addr",
          "type": "address"
        }
      ],
      "name": "getStakeAccount",
      "outputs": [
        {
          "components": [
            {
              "internalType": "uint112",
              "name": "amount",
              "type": "uint112"
            },
            {
              "internalType": "uint112",
              "name": "challengeLocked",
              "type": "uint112"
            },
            {
              "internalType": "uint32",
              "name": "time",
              "type": "uint32"
            }
          ],
          "internalType": "struct Structures.TimeLockedStake",
          "name": "",
          "type": "tuple"
        }
      ],
      "stateMutability": "view",
      "type": "function",
      "constant": true
    },
    {
      "inputs": [
        {
          "internalType": "address",
          "name": "challengerAddr",
          "type": "address"
        },
        {
          "internalType": "address",
          "name": "proposer",
          "type": "address"
        },
        {
          "components": [
            {
              "internalType": "bytes32",
              "name": "blockHash",
              "type": "bytes32"
            },
            {
              "internalType": "uint256",
              "name": "time",
              "type": "uint256"
            },
            {
              "internalType": "address",
              "name": "proposer",
              "type": "address"
            },
            {
              "internalType": "uint96",
              "name": "blockStake",
              "type": "uint96"
            }
          ],
          "internalType": "struct Structures.BlockData[]",
          "name": "badBlocks",
          "type": "tuple[]"
        }
      ],
      "name": "rewardChallenger",
      "outputs": [],
      "stateMutability": "nonpayable",
      "type": "function"
    },
    {
      "inputs": [
        {
          "internalType": "address",
          "name": "addr",
          "type": "address"
        },
        {
          "internalType": "uint256",
          "name": "time",
          "type": "uint256"
        }
      ],
      "name": "updateStakeAccountTime",
      "outputs": [],
      "stateMutability": "nonpayable",
      "type": "function"
    },
    {
      "inputs": [
        {
          "internalType": "bytes32",
          "name": "blockHash",
          "type": "bytes32"
        }
      ],
      "name": "setBlockStakeWithdrawn",
      "outputs": [],
      "stateMutability": "nonpayable",
      "type": "function"
    },
    {
      "inputs": [],
      "name": "changeCurrentProposer",
      "outputs": [],
      "stateMutability": "nonpayable",
      "type": "function"
    },
    {
      "inputs": [],
      "name": "fillSlots",
      "outputs": [],
      "stateMutability": "nonpayable",
      "type": "function"
    }
  ],
  "bytecode": "0x608060405234801561001057600080fd5b50615f7a80620000216000396000f3fe60806040526004361061037c5760003560e01c806305eb81e61461038857806305ffe8f8146103ac57806309d632d3146103ce5780630ac6923d146103ee5780630db12df51461044f57806311ef8f7e1461046f578063120f66df14610484578063146eb222146104a457806318177497146104c45780631c111daf146104f75780631c4206821461054d5780631f84bb2a146105a757806325c2478c146105d4578063262f6085146105f457806328340f171461067e5780632bec09be1461069c5780633195a4e7146106bc57806334cdf78d146106dc57806337da887714610734578063387dd9e9146107545780633b10244b146107745780633ccfd60b146107965780633f1f15fc146107ab5780633f4ba83a146107cb57806342646c68146107e0578063496879c1146107fe5780634d2ac2611461087457806353c9ad771461089457806359bab40f146108aa5780635c975abb146108bf5780635f8a96d2146108e257806369a5b9501461094357806377603f4a1461096357806379edadfe146109785780638129fc1c146109c857806383b6ebe5146109dd5780638456cb59146109fd578063851a974c14610a12578063875840ce14610a32578063894f7d6214610a475780638a7ee83d14610a675780638da5cb5b14610a875780639227ae1514610a9c5780639588a5b614610abc5780639aa0758614610adc5780639b0cd42d14610afc5780639b3d060a14610b1c5780639c18de9314610b3c5780639c33595814610b5c578063a029080514610b7c578063a2a4dd1314610b9c578063a94e550814610be6578063aa411d5b14610c06578063ac622cdc14610c26578063af52ca6914610c46578063b0a9fd0f14610c66578063b0c9569a14610c9e578063b13a8c0714610cb3578063b2bdfa7b14610cd3578063b6cf02b614610cf3578063bb7affc114610d13578063bcb4dbc214610d33578063bf2c94db14610d53578063c2c5bb6e14610d73578063c300db9b14610d93578063c34590e114610da8578063c83daadc14610dbb578063d87965d214610dd0578063d9bbd27814610de6578063e2b2c30c14610e04578063e3b7c92414610e24578063e57466fd14610e3a578063efedffa814610eb7578063f0832a2414610ecc578063f2fde38b14610eec578063f41f339f14610f0c578063f560a79214610f2c578063f5a6b99514610f4c578063fe82d08214610f7957600080fd5b3661038357005b600080fd5b34801561039457600080fd5b5060a4545b6040519081526020015b60405180910390f35b3480156103b857600080fd5b506103cc6103c7366004614d61565b610f8e565b005b3480156103da57600080fd5b506103cc6103e9366004614dc4565b610ff4565b3480156103fa57600080fd5b50610430610409366004614de1565b60a3602052600090815260409020546001600160f81b03811690600160f81b900460ff1682565b604080516001600160f81b0390931683529015156020830152016103a3565b34801561045b57600080fd5b506103cc61046a366004614dfa565b611111565b34801561047b57600080fd5b5060b454610399565b34801561049057600080fd5b5061039961049f366004614dc4565b611177565b3480156104b057600080fd5b506103cc6104bf366004614de1565b61119a565b3480156104d057600080fd5b506104e46104df366004614dc4565b6111d7565b6040516103a39796959493929190614e76565b34801561050357600080fd5b50610517610512366004614dc4565b6112b0565b6040805182516001600160701b039081168252602080850151909116908201529181015163ffffffff16908201526060016103a3565b34801561055957600080fd5b50610562611312565b6040516103a3919081518152602080830151908201526040808301516001600160a01b0316908201526060918201516001600160601b03169181019190915260800190565b3480156105b357600080fd5b5060b3546105c7906001600160a01b031681565b6040516103a39190614ec9565b3480156105e057600080fd5b506103cc6105ef366004614f40565b611402565b34801561060057600080fd5b5061065f61060f366004614fa8565b60408051808201909152600080825260208201525064ffffffffff1660009081526099602090815260409182902082518084019093525460ff808216151584526101009091041615159082015290565b60408051825115158152602092830151151592810192909252016103a3565b34801561068a57600080fd5b50609f546001600160a01b03166105c7565b3480156106a857600080fd5b506103cc6106b7366004614fc3565b6114f2565b3480156106c857600080fd5b506103cc6106d7366004614de1565b6115b6565b3480156106e857600080fd5b506106fc6106f7366004614de1565b6115f3565b6040516103a3949392919093845260208401929092526001600160a01b031660408301526001600160601b0316606082015260800190565b34801561074057600080fd5b506103cc61074f366004614fa8565b611641565b34801561076057600080fd5b506105c761076f366004614de1565b6116b8565b34801561078057600080fd5b506107896116e2565b6040516103a3919061503d565b3480156107a257600080fd5b506103cc6117db565b3480156107b757600080fd5b506103cc6107c63660046150b2565b611959565b3480156107d757600080fd5b506103cc6119ad565b3480156107ec57600080fd5b5060a0546001600160a01b03166105c7565b34801561080a57600080fd5b5061084c610819366004614de1565b60a8602052600090815260409020546001600160781b0380821691600160781b810490911690600160f01b900460ff1683565b604080516001600160781b0394851681529390921660208401521515908201526060016103a3565b34801561088057600080fd5b5060b1546105c7906001600160a01b031681565b3480156108a057600080fd5b5061039960b45481565b3480156108b657600080fd5b506103cc6119ef565b3480156108cb57600080fd5b5060655460ff1660405190151581526020016103a3565b3480156108ee57600080fd5b506109236108fd366004614dc4565b60a5602052600090815260409020546001600160781b0380821691600160781b90041682565b604080516001600160781b039384168152929091166020830152016103a3565b34801561094f57600080fd5b506103cc61095e366004614dc4565b61204c565b34801561096f57600080fd5b506103cc6120a4565b34801561098457600080fd5b506109b1610993366004614fa8565b60996020526000908152604090205460ff8082169161010090041682565b6040805192151583529015156020830152016103a3565b3480156109d457600080fd5b506103cc6123b9565b3480156109e957600080fd5b506105626109f8366004615108565b6123d9565b348015610a0957600080fd5b506103cc6124b8565b348015610a1e57600080fd5b50610789610a2d366004614dc4565b6124f8565b348015610a3e57600080fd5b50609d54610399565b348015610a5357600080fd5b506103cc610a62366004615148565b61260c565b348015610a7357600080fd5b506103cc610a82366004614de1565b612670565b348015610a9357600080fd5b506105c761269f565b348015610aa857600080fd5b506103cc610ab7366004615163565b6126ae565b348015610ac857600080fd5b506105c7610ad7366004614de1565b61276d565b348015610ae857600080fd5b506103cc610af7366004615163565b61277d565b348015610b0857600080fd5b506103cc610b17366004615206565b61281c565b348015610b2857600080fd5b5060b2546105c7906001600160a01b031681565b348015610b4857600080fd5b506103cc610b57366004615163565b612a41565b348015610b6857600080fd5b506103cc610b77366004614de1565b612a9c565b348015610b8857600080fd5b506103cc610b9736600461531e565b612ae4565b348015610ba857600080fd5b50610bbc610bb7366004614de1565b612b59565b604080516001600160a01b03909516855260208501939093529183015260608201526080016103a3565b348015610bf257600080fd5b506103cc610c01366004614de1565b612b9d565b348015610c1257600080fd5b506103cc610c21366004614dc4565b612bfa565b348015610c3257600080fd5b50610399610c413660046153a8565b612c54565b348015610c5257600080fd5b506103cc610c61366004614de1565b612c85565b348015610c7257600080fd5b50609a54600160601b90046001600160601b03166040516001600160601b0390911681526020016103a3565b348015610caa57600080fd5b50609e54610399565b348015610cbf57600080fd5b506103cc610cce366004615148565b612cc2565b348015610cdf57600080fd5b506097546105c7906001600160a01b031681565b348015610cff57600080fd5b506103cc610d0e3660046153c4565b612d1c565b348015610d1f57600080fd5b506103cc610d2e366004614dc4565b612dba565b348015610d3f57600080fd5b506103cc610d4e366004614de1565b612e3e565b348015610d5f57600080fd5b506103cc610d6e366004614de1565b612e9e565b348015610d7f57600080fd5b50610399610d8e366004614dc4565b612edb565b348015610d9f57600080fd5b506105c7612ef9565b6103cc610db6366004614f40565b612f08565b348015610dc757600080fd5b50609b54610399565b348015610ddc57600080fd5b5061039960b05481565b348015610df257600080fd5b50609a546001600160601b0316610399565b348015610e1057600080fd5b506103cc610e1f366004614dc4565b6135dd565b348015610e3057600080fd5b5061039960b75481565b348015610e4657600080fd5b50610e8b610e55366004614dc4565b60a7602052600090815260409020546001600160701b0380821691600160701b810490911690600160e01b900463ffffffff1683565b604080516001600160701b03948516815293909216602084015263ffffffff16908201526060016103a3565b348015610ec357600080fd5b50609c54610399565b348015610ed857600080fd5b506103cc610ee73660046153e0565b6136a6565b348015610ef857600080fd5b506103cc610f07366004614dc4565b6137fd565b348015610f1857600080fd5b50610399610f27366004615420565b61389c565b348015610f3857600080fd5b506103cc610f47366004614dc4565b613a1c565b348015610f5857600080fd5b50610f6c610f67366004614fa8565b613aa0565b6040516103a391906154af565b348015610f8557600080fd5b506104e4613b0a565b60b3546001600160a01b03163314610fc15760405162461bcd60e51b8152600401610fb8906154f3565b60405180910390fd5b600092835260a360205260409092206001600160f81b0392909216901515600160f81b026001600160f81b031916179055565b60b1546001600160a01b0316331480611017575060b2546001600160a01b031633145b6110335760405162461bcd60e51b8152600401610fb89061553c565b61103c81613b36565b60a9546001600160a01b0382811691161480611061575060a9546001600160a01b0316155b1561110e5760ab80546001600160a01b03808216600090815260a660205260409020805460a980549184166001600160a01b0319928316178155600183015460aa805491861691841691909117905560028301549093169316929092179092559060ac6110d16003840182615616565b5060048281015490820155600580830154908201805460ff191660ff9092161515919091179055600691820154910155600060b05561110e6120a4565b50565b60b1546001600160a01b0316331461113b5760405162461bcd60e51b8152600401610fb8906156f0565b6001600160a01b03909116600090815260a760205260409020805463ffffffff909216600160e01b026001600160e01b03909216919091179055565b6001600160a01b038116600090815260a26020526040812060015b015492915050565b6111a261269f565b6001600160a01b0316336001600160a01b0316146111d25760405162461bcd60e51b8152600401610fb890615751565b609c55565b60a66020526000908152604090208054600182015460028301546003840180546001600160a01b039485169593851694909216929161121590615587565b80601f016020809104026020016040519081016040528092919081815260200182805461124190615587565b801561128e5780601f106112635761010080835404028352916020019161128e565b820191906000526020600020905b81548152906001019060200180831161127157829003601f168201915b50505050600483015460058401546006909401549293909260ff909116915087565b6112b8614bc4565b506001600160a01b0316600090815260a76020908152604091829020825160608101845290546001600160701b038082168352600160701b82041692820192909252600160e01b90910463ffffffff169181019190915290565b61131a614be4565b60b2546001600160a01b031633146113445760405162461bcd60e51b8152600401610fb89061579f565b60a480546000919061135890600190615802565b815481106113685761136861573b565b600091825260209182902060408051608081018252600393909302909101805483526001810154938301939093526002909201546001600160a01b03811692820192909252600160a01b9091046001600160601b0316606082015260a4805491925090806113d8576113d861581b565b60008281526020812060036000199093019283020181815560018101829055600201559055905090565b61140b83612d1c565b60405163bd98fe6560e01b815273__Utils_________________________________9063bd98fe659061144490859085906004016158bd565b602060405180830381865af4158015611461573d6000803e3d6000fd5b505050506040513d601f19601f8201168201806040525081019061148591906159db565b8360800135146114ed5760405162461bcd60e51b815260206004820152602d60248201527f53746174653a205472616e73616374696f6e2068617368657320726f6f74206460448201526c0decae640dcdee840dac2e8c6d609b1b6064820152608401610fb8565b505050565b6114fa61269f565b6001600160a01b0316336001600160a01b03161461152a5760405162461bcd60e51b8152600401610fb890615751565b64ffffffffff8516600090815260986020526040902061154b908585614c0b565b5064ffffffffff8516600081815260996020908152604091829020805461ffff19166101008715150260ff19161785151517905590519182527f679dd26628f18acc43c1e591d0ddc4cbbbd57605f0f97cc36bb476d8cffdcbb7910160405180910390a15050505050565b6115be61269f565b6001600160a01b0316336001600160a01b0316146115ee5760405162461bcd60e51b8152600401610fb890615751565b609e55565b60a4818154811061160357600080fd5b60009182526020909120600390910201805460018201546002909201549092506001600160a01b03811690600160a01b90046001600160601b031684565b61164961269f565b6001600160a01b0316336001600160a01b0316146116795760405162461bcd60e51b8152600401610fb890615751565b64ffffffffff8116600090815260986020526040812061169891614c56565b64ffffffffff166000908152609960205260409020805461ffff19169055565b60b581815481106116c857600080fd5b6000918252602090912001546001600160a01b0316905081565b6116ea614c74565b6040805160e08101825260a980546001600160a01b03908116835260aa548116602084015260ab54169282019290925260ac805491929160608401919061173090615587565b80601f016020809104026020016040519081016040528092919081815260200182805461175c90615587565b80156117a95780601f1061177e576101008083540402835291602001916117a9565b820191906000526020600020905b81548152906001019060200180831161178c57829003601f168201915b505050918352505060048201546020820152600582015460ff1615156040820152600690910154606090910152919050565b60026001540361182d5760405162461bcd60e51b815260206004820152601f60248201527f5265656e7472616e637947756172643a207265656e7472616e742063616c6c006044820152606401610fb8565b600260015561183a613cd0565b33600090815260a560205260409020546001600160781b0380821691600160781b900416811561190b5733600081815260a5602052604080822080546001600160781b03191690555190919084908381818185875af1925050503d80600081146118c0576040519150601f19603f3d011682016040523d82523d6000602084013e6118c5565b606091505b50509050806119095760405162461bcd60e51b815260206004820152601060248201526f2a3930b739b332b9103330b4b632b21760811b6044820152606401610fb8565b505b80156119515733600081815260a5602052604090208054600160781b600160f01b031916905561195190309083611940612ef9565b6001600160a01b0316929190613d16565b505060018055565b60b1546001600160a01b031633146119835760405162461bcd60e51b8152600401610fb8906156f0565b6001600160a01b038216600090815260a66020526040902081906119a78282615ada565b50505050565b6119b561269f565b6001600160a01b0316336001600160a01b0316146119e55760405162461bcd60e51b8152600401610fb890615751565b6119ed613d70565b565b60a9546001600160a01b0316611a575760405162461bcd60e51b815260206004820152602760248201527f53746174653a2043757272656e742070726f706f736572206e6f7420696e69746044820152661a585b1a5e995960ca1b6064820152608401610fb8565b6040805160e08101825260a980546001600160a01b03908116835260aa548116602084015260ab54169282019290925260ac8054600093916060840191611a9d90615587565b80601f0160208091040260200160405190810160405280929190818152602001828054611ac990615587565b8015611b165780601f10611aeb57610100808354040283529160200191611b16565b820191906000526020600020905b815481529060010190602001808311611af957829003601f168201915b505050918352505060048201546020820152600582015460ff16151560408201526006909101546060909101529050611b4d614bc4565b600080600a5b60a95460408601516001600160a01b03908116911614611cbf578451611b78906112b0565b8051909450611b919082906001600160701b0316615bd2565b821015611bb1578351611bae9082906001600160701b0316615bd2565b91505b6040808601516001600160a01b03908116600090815260a6602090815290839020835160e0810185528154841681526001820154841692810192909252600281015490921692810192909252600381018054606084019190611c1290615587565b80601f0160208091040260200160405190810160405280929190818152602001828054611c3e90615587565b8015611c8b5780601f10611c6057610100808354040283529160200191611c8b565b820191906000526020600020905b815481529060010190602001808311611c6e57829003601f168201915b505050918352505060048201546020820152600582015460ff16151560408201526006909101546060909101529450611b53565b8451611cca906112b0565b8051909450611ce39082906001600160701b0316615bd2565b821015611d03578351611d009082906001600160701b0316615bd2565b91505b6040805160e08101825260a980546001600160a01b03908116835260aa548116602084015260ab54169282019290925260ac8054919291606084019190611d4990615587565b80601f0160208091040260200160405190810160405280929190818152602001828054611d7590615587565b8015611dc25780601f10611d9757610100808354040283529160200191611dc2565b820191906000526020600020905b815481529060010190602001808311611da557829003601f168201915b505050918352505060048201546020820152600582015460ff16151560408201526006909101546060909101529450611dfd60b56000614c56565b60a95460408601516001600160a01b03908116911614611fb5578451611e22906112b0565b8051909450611e3b9083906001600160701b0316615bd2565b925082600003611e4a57600192505b60005b83811015611ea657855160b58054600181018255600091909152600080516020615f258339815191520180546001600160a01b0319166001600160a01b0390921691909117905580611e9e81615be6565b915050611e4d565b506040808601516001600160a01b03908116600090815260a6602090815290839020835160e0810185528154841681526001820154841692810192909252600281015490921692810192909252600381018054606084019190611f0890615587565b80601f0160208091040260200160405190810160405280929190818152602001828054611f3490615587565b8015611f815780601f10611f5657610100808354040283529160200191611f81565b820191906000526020600020905b815481529060010190602001808311611f6457829003601f168201915b505050918352505060048201546020820152600582015460ff16151560408201526006909101546060909101529450611dfd565b8451611fc0906112b0565b8051909450611fd99083906001600160701b0316615bd2565b925082600003611fe857600192505b60005b8381101561204457855160b58054600181018255600091909152600080516020615f258339815191520180546001600160a01b0319166001600160a01b039092169190911790558061203c81615be6565b915050611feb565b505050505050565b61205461269f565b6001600160a01b0316336001600160a01b0316146120845760405162461bcd60e51b8152600401610fb890615751565b6001600160a01b0316600090815260a26020526040812081815560010155565b609b5460b0546120b49043615802565b11806120c0575060b054155b806120cd5750609e546001145b6121245760405162461bcd60e51b815260206004820152602260248201527f53746174653a20546f6f20736f6f6e20746f20726f746174652070726f706f7360448201526132b960f11b6064820152608401610fb8565b609e5460011480156121385750600160b454115b1561223c57609f546001600160a01b03908116600090815260a660205260409020805460a980546001600160a01b0319908116928516929092178155600183015460aa80548416918616919091179055600283015460ab805490931694169390931790559060ac6121ac6003840182615616565b5060048281015490820155600580830154908201805460ff191660ff909216151591909117905560069182015491015560ab546001600160a01b03165b600160b454111561223a576121fd81613b36565b6001600160a01b03908116600090815260a76020526040902080546001600160e01b0316600160e01b4263ffffffff160217905560ab54166121e9565b505b6000600160b4541161225f5750600060b75560a9546001600160a01b03166122d1565b60b860b754815481106122745761227461573b565b600091825260208220015460b780546001600160a01b03909216935060019290916122a0908490615bff565b9091555050609d5460b754036122b657600060b7555b60b7546000036122d1576122c8613dbc565b6122d181613dd4565b6001600160a01b03808216600090815260a660205260409020805460a980546001600160a01b0319908116928516929092178155600183015460aa80548416918616919091179055600283015460ab805490931694169390931790559060ac61233d6003840182615616565b5060048281015490820155600580830154908201805460ff191660ff90921615159190911790556006918201549101554360b05560a9546040517feaa94fa30970548bf8b78ce068ba600b923a4a62ce3c523d09bf308102ff1bab916123ae916001600160a01b0390911690614ec9565b60405180910390a150565b6123c161405a565b6123c9614091565b6123d16140c0565b6119ed614120565b6123e1614be4565b60a4546001600160401b0383161061243b5760405162461bcd60e51b815260206004820152601e60248201527f53746174653a20496e76616c696420626c6f636b206e756d626572204c3200006044820152606401610fb8565b60a4826001600160401b0316815481106124575761245761573b565b600091825260209182902060408051608081018252600393909302909101805483526001810154938301939093526002909201546001600160a01b03811692820192909252600160a01b9091046001600160601b0316606082015292915050565b6124c061269f565b6001600160a01b0316336001600160a01b0316146124f05760405162461bcd60e51b8152600401610fb890615751565b6119ed61414f565b612500614c74565b6001600160a01b03808316600090815260a66020908152604091829020825160e081018452815485168152600182015485169281019290925260028101549093169181019190915260038201805491929160608401919061256090615587565b80601f016020809104026020016040519081016040528092919081815260200182805461258c90615587565b80156125d95780601f106125ae576101008083540402835291602001916125d9565b820191906000526020600020905b8154815290600101906020018083116125bc57829003601f168201915b505050918352505060048201546020820152600582015460ff161515604082015260069091015460609091015292915050565b61261461269f565b6001600160a01b0316336001600160a01b0316146126445760405162461bcd60e51b8152600401610fb890615751565b609a80546001600160601b03909216600160601b02600160601b600160c01b0319909216919091179055565b60b1546001600160a01b0316331461269a5760405162461bcd60e51b8152600401610fb8906156f0565b60b055565b6097546001600160a01b031690565b60b1546001600160a01b03163314806126d1575060b3546001600160a01b031633145b6126ed5760405162461bcd60e51b8152600401610fb89061553c565b604080516060810182526001600160701b039384168152918316602080840191825260008484018181526001600160a01b03909716815260a790915291909120915182549151945163ffffffff16600160e01b026001600160e01b03958516600160701b026001600160e01b031990931691909416171792909216179055565b60b881815481106116c857600080fd5b60b1546001600160a01b03163314806127a0575060b3546001600160a01b031633145b6127bc5760405162461bcd60e51b8152600401610fb89061553c565b6040805180820182526001600160781b03938416815291831660208084019182526001600160a01b03909516600090815260a590955293209051815493518316600160781b026001600160f01b0319909416921691909117919091179055565b60b2546001600160a01b031633146128465760405162461bcd60e51b8152600401610fb89061579f565b61284f82610ff4565b6000805b82518110156129e557600060a760008584815181106128745761287461573b565b6020908102919091018101516040908101516001600160a01b031683528282019390935290820160002082516060808201855291546001600160701b038082168352600160701b8204811683860152600160e01b90910463ffffffff1682860152845192830190945280519093168152865192935091908201908690859081106129005761290061573b565b6020026020010151606001516001600160601b031683602001516129249190615c12565b6001600160701b039081168252600060209283018190526001600160a01b038916815260a783526040908190208451815494860151959092015163ffffffff16600160e01b026001600160e01b03958416600160701b026001600160e01b03199095169290931691909117929092179290921691909117905583518490839081106129b1576129b161573b565b6020026020010151606001516001600160601b0316836129d19190615c39565b925050806129de90615be6565b9050612853565b506001600160a01b038416600090815260a5602052604081208054839290612a179084906001600160781b0316615c39565b92506101000a8154816001600160781b0302191690836001600160781b0316021790555050505050565b612a4961269f565b6001600160a01b0316336001600160a01b031614612a795760405162461bcd60e51b8152600401610fb890615751565b6001600160a01b0392909216600090815260a26020526040902090815560010155565b60b3546001600160a01b03163314612ac65760405162461bcd60e51b8152600401610fb8906154f3565b600090815260a86020526040902080546001600160f01b0319169055565b60b1546001600160a01b03163314612b0e5760405162461bcd60e51b8152600401610fb8906156f0565b6001600160a01b038416600090815260a660205260409020600301612b34838583615a14565b506001600160a01b03909316600090815260a660205260409020600401929092555050565b60b68181548110612b6957600080fd5b600091825260209091206004909102018054600182015460028301546003909301546001600160a01b039092169350919084565b60b1546001600160a01b03163314612bc75760405162461bcd60e51b8152600401610fb8906156f0565b60b4805490829055600282148015612bdf5750806001145b15612bf657612bec613dbc565b612bf66000613dd4565b5050565b612c0261269f565b6001600160a01b0316336001600160a01b031614612c325760405162461bcd60e51b8152600401610fb890615751565b60a180546001600160a01b0319166001600160a01b0392909216919091179055565b60986020528160005260406000208181548110612c7057600080fd5b90600052602060002001600091509150505481565b612c8d61269f565b6001600160a01b0316336001600160a01b031614612cbd5760405162461bcd60e51b8152600401610fb890615751565b609d55565b612cca61269f565b6001600160a01b0316336001600160a01b031614612cfa5760405162461bcd60e51b8152600401610fb890615751565b609a80546001600160601b0319166001600160601b0392909216919091179055565b60a454813560a01c906001600160401b038216108015612d705750612d408261418c565b60a4826001600160401b031681548110612d5c57612d5c61573b565b906000526020600020906003020160000154145b612bf65760405162461bcd60e51b815260206004820152601b60248201527a14dd185d194e88109b1bd8dac8191bd95cc81b9bdd08195e1a5cdd602a1b6044820152606401610fb8565b612dc261269f565b6001600160a01b0316336001600160a01b031614612df25760405162461bcd60e51b8152600401610fb890615751565b609f80546001600160a01b0319166001600160a01b0383169081179091556040517f5544fd39820f90f9fc4b238e0eaaf1b5ece21e6dbb69a2b0824a16876e6d0efd916123ae91614ec9565b60b2546001600160a01b0316331480612e61575060b3546001600160a01b031633145b612e7d5760405162461bcd60e51b8152600401610fb89061553c565b600090815260a860205260409020805460ff60f01b1916600160f01b179055565b612ea661269f565b6001600160a01b0316336001600160a01b031614612ed65760405162461bcd60e51b8152600401610fb890615751565b609b55565b6001600160a01b038116600090815260a26020526040812081611192565b60a1546001600160a01b031690565b60a9546001600160a01b03163314612f725760405162461bcd60e51b815260206004820152602760248201527f53746174653a204f6e6c792063757272656e742070726f706f736572206175746044820152661a1bdc9a5cd95960ca1b6064820152608401610fb8565b612f7a613cd0565b60a454833560a01c6001600160401b031614612fd45760405162461bcd60e51b815260206004820152601960248201527829ba30ba329d10213637b1b59037baba1037b31037b93232b960391b6044820152606401610fb8565b60a4541561306c5760a48054612fec90600190615802565b81548110612ffc57612ffc61573b565b90600052602060002090600302016000015483604001351461306c5760405162461bcd60e51b815260206004820152602360248201527f53746174653a20426c6f636b20666c61776564206f72206f7574206f66206f726044820152623232b960e91b6064820152608401610fb8565b3383356001600160a01b0316146130d35760405162461bcd60e51b815260206004820152602560248201527f53746174653a205468652073656e646572206973206e6f74207468652070726f6044820152643837b9b2b960d91b6064820152608401610fb8565b609a5433600090815260a76020526040902054600160601b9091046001600160601b03169061310c9034906001600160701b0316615bff565b10156131745760405162461bcd60e51b815260206004820152603160248201527f53746174653a2050726f706f73657220646f6573206e6f74206861766520656e6044820152701bdd59da08199d5b991cc81cdd185ad959607a1b6064820152608401610fb8565b609a5433600090815260a76020526040902054600160601b9091046001600160601b0316906131ad9034906001600160701b0316615c59565b6131b79190615c12565b33600090815260a76020526040902080546001600160701b0319166001600160701b0392831617808255609a54600160601b90046001600160601b031692600e9161320b918591600160701b900416615c59565b82546001600160701b039182166101009390930a92830291909202199091161790555033600090815260a76020526040812080546001600160e01b031690558080600561c350613271565b60015b818160020a101561326c57600101613259565b919050565b86358701360381101561328f576320e48c7360e11b60005260046000fd5b6040516060810161329f88613256565b60020a602002810160005b898110156133e5576020816020028c01358c01600183016020028d01358d0103048a60018301036132e4575060208181028c01358c013603045b80602002826020028d01358d016020850137602083526001810160200283208260200285015250806020028b01358b013560d81c845260996020850152600260200284205460081c816020028c01358c013560281b60a01c81600181146133505780156133a6576133cf565b83602002860151875260a3602088015260026020028720548060f81c61338b5763d96541f560e01b6000528460200287015160045260246000fd5b826133a0576001600160f81b0381169b909b019a5b506133cf565b816133cf576020808502870151885260a39088015260408720546001600160f81b03169a909a01995b5080156133db57998a01995b50506001016132aa565b50506133f088613256565b80156134595760005b6001820360020a81101561344f576002816020020283016001602082015115825115160361342b576000826020028501525b60208101518151159015166134465760408120826020028501525b506001016133f9565b50600019016133f0565b5080516004600019860160200201351461347e57630f202aff60e21b60005260046000fd5b5082602002600482376020838102909120600081815260a88352604080822080546001600160f01b031916600160781b6001600160781b038c8116919091026001600160781b03191691909117908a161790558051608081018252838152429481019485528c356001600160a01b03908116828401908152609a546001600160601b03600160601b90910481166060850190815260a4805460018101825590885294517fe434dc35da084cf8d7e8186688ea2dacb53db7003d427af3abf351bd9d0a4e8d60039096029586015597517fe434dc35da084cf8d7e8186688ea2dacb53db7003d427af3abf351bd9d0a4e8e8501559051965116600160a01b029516949094177fe434dc35da084cf8d7e8186688ea2dacb53db7003d427af3abf351bd9d0a4e8f9094019390935591519094507f566d835e602d4aa5802ee07d3e452e755bc77623507825de7bc163a295d76c0b9190a15050505050505050565b60b1546001600160a01b031633146136075760405162461bcd60e51b8152600401610fb8906156f0565b6001600160a01b03808216600090815260a660205260409020805460a980546001600160a01b0319908116928516929092178155600183015460aa80548416918616919091179055600283015460ab805490931694169390931790559060ac6136736003840182615616565b5060048281015490820155600580830154908201805460ff191660ff909216151591909117905560069182015491015550565b600054610100900460ff16158080156136c65750600054600160ff909116105b806136e757506136d5306141f1565b1580156136e7575060005460ff166001145b61374a5760405162461bcd60e51b815260206004820152602e60248201527f496e697469616c697a61626c653a20636f6e747261637420697320616c72656160448201526d191e481a5b9a5d1a585b1a5e995960921b6064820152608401610fb8565b6000805460ff19166001179055801561376d576000805461ff0019166101001790555b60b180546001600160a01b038087166001600160a01b03199283161790925560b2805486841690831617905560b38054928516929091169190911790556137b26123b9565b80156119a7576000805461ff0019169055604051600181527f7f26b83ff96e1f2b6a682f133852f6798a09c465da95921460cefb38474024989060200160405180910390a150505050565b61380561269f565b6001600160a01b0316336001600160a01b0316146138355760405162461bcd60e51b8152600401610fb890615751565b6001600160a01b03811661384857600080fd5b7f8be0079c531659141344cd1fd0a4f28419497f9722a3daafe3b4186f6b6457e061387161269f565b604080516001600160a01b03928316815291841660208301520160405180910390a161110e81614200565b60006138a786612d1c565b828260008181106138ba576138ba61573b565b905060200201358660800135146139275760405162461bcd60e51b815260206004820152602b60248201527f53746174653a205472616e73616374696f6e2068617368657320726f6f74206960448201526a1cc81a5b98dbdc9c9958dd60aa1b6064820152608401610fb8565b600061393286614222565b604051630e07a40b60e01b815290915073__Utils_________________________________90630e07a40b9061397290879087908a908790600401615c79565b602060405180830381865af415801561398f573d6000803e3d6000fd5b505050506040513d601f19601f820116820180604052508101906139b39190615ca0565b613a125760405162461bcd60e51b815260206004820152602a60248201527f53746174653a205472616e73616374696f6e20646f6573206e6f7420657869736044820152697420696e20626c6f636b60b01b6064820152608401610fb8565b9695505050505050565b613a2461269f565b6001600160a01b0316336001600160a01b031614613a545760405162461bcd60e51b8152600401610fb890615751565b60a080546001600160a01b0319166001600160a01b0383169081179091556040517f210cff5548618e71293ea0d4f1f3563a68e78f00273f3acd97014aac2442ed24916123ae91614ec9565b64ffffffffff8116600090815260986020908152604091829020805483518184028101840190945280845260609392830182828015613afe57602002820191906000526020600020905b815481526020019060010190808311613aea575b50505050509050919050565b60a9805460aa5460ab5460ac80546001600160a01b039485169593851694909216929161121590615587565b6001600160a01b03808216600090815260a66020526040812060018101805460028301805484546001600160a01b0319908116865580841690945592831690558416931691613b886003830182614caf565b5060006004820181905560058201805460ff19169055600690910181905560b4805491613bb483615cbd565b90915550506001600160a01b03818116600081815260a6602052604080822080548786168085529284206002810180549288166001600160a01b0319938416179055549490935260010180549385169390921692909217905560a9549091161480613c2c575060a9546001600160a01b038281169116145b156114ed5760a980546001600160a01b03808216600090815260a66020526040902080546001600160a01b0319938416908316178455600181015460aa80548516918416919091179055600281015460ab80549094169216919091179091559060ac613c9b6003840182615616565b5060048281015490820155600580830154908201805460ff191660ff9092161515919091179055600691820154910155505050565b60655460ff16156119ed5760405162461bcd60e51b815260206004820152601060248201526f14185d5cd8589b194e881c185d5cd95960821b6044820152606401610fb8565b604080516001600160a01b0385811660248301528416604482015260648082018490528251808303909101815260849091019091526020810180516001600160e01b03166323b872dd60e01b1790526119a7908590614235565b613d78614307565b6065805460ff191690557f5db9ee0a495bf2e6ff9c91a7834c1ba4fdd244a5e8aa4e537bd38aeae4b073aa335b604051613db29190614ec9565b60405180910390a1565b613dc46119ef565b613dcc614350565b6119ed61449c565b613e08604051806080016040528060006001600160a01b031681526020016000815260200160008152602001600081525090565b6000613e1560b882614c56565b60005b609c548110156119a75760005b60b654811015613f5b5760b68181548110613e4257613e4261573b565b600091825260209182902060408051608081018252600490930290910180546001600160a01b0316835260018101549383019390935260028301549082015260039091015460608201819052909450613e9b9084615bff565b9250836060015184604001818151613eb39190615cd4565b905250602084015160608501511015613eda5760608401805190613ed682615be6565b9052505b6001600160a01b0385161580613f3f5750836040015160b660a66000886001600160a01b03166001600160a01b031681526020019081526020016000206006015481548110613f2b57613f2b61573b565b906000526020600020906004020160020154125b15613f4957835194505b80613f5381615be6565b915050613e25565b506001600160a01b038416600090815260a6602052604090206006015460b680549091908110613f8d57613f8d61573b565b906000526020600020906004020160010154600014613ffd576001600160a01b038416600090815260a6602052604090206006015460b680548492908110613fd757613fd761573b565b90600052602060002090600402016002016000828254613ff79190615cfc565b90915550505b60b880546001810182556000919091527fd91d691c894f8266e3f2d5e558ad2349d6783327a752a4949bc554f514e349880180546001600160a01b0319166001600160a01b0386161790558061405281615be6565b915050613e18565b600054610100900460ff166140815760405162461bcd60e51b8152600401610fb890615d1c565b614089614984565b6119ed6149b4565b600054610100900460ff166140b85760405162461bcd60e51b8152600401610fb890615d1c565b6119ed614984565b600054610100900460ff166140e75760405162461bcd60e51b8152600401610fb890615d1c565b6140ef614984565b609a80546001600160c01b031916620f4240600160601b011790556020609b55600a609c819055609d556064609e55565b600054610100900460ff166141475760405162461bcd60e51b8152600401610fb890615d1c565b6119ed6149e3565b614157613cd0565b6065805460ff191660011790557f62e78cea01bee320cd4e420270b5ea74000d11b0c9f74754ebdbfc544b05a258613da53390565b6000816040516020016141d49190600060a082019050823582526020830135602083015260408301356040830152606083013560608301526080830135608083015292915050565b604051602081830303815290604052805190602001209050919050565b6001600160a01b03163b151590565b609780546001600160a01b0319166001600160a01b0392909216919091179055565b6000816040516020016141d49190615d67565b600061428a826040518060400160405280602081526020017f5361666545524332303a206c6f772d6c6576656c2063616c6c206661696c6564815250856001600160a01b0316614a109092919063ffffffff16565b8051909150156114ed57808060200190518101906142a89190615ca0565b6114ed5760405162461bcd60e51b815260206004820152602a60248201527f5361666545524332303a204552433230206f7065726174696f6e20646964206e6044820152691bdd081cdd58d8d9595960b21b6064820152608401610fb8565b60655460ff166119ed5760405162461bcd60e51b815260206004820152601460248201527314185d5cd8589b194e881b9bdd081c185d5cd95960621b6044820152606401610fb8565b60005b60b55481101561110e5760b55460009061436e908390615802565b60408051426020820152016040516020818303038152906040528051906020012060001c61439c9190615e2e565b6143a69083615bff565b9050600060b582815481106143bd576143bd61573b565b60009182526020909120015460b580546001600160a01b03909216925090849081106143eb576143eb61573b565b60009182526020909120015460b580546001600160a01b0390921691849081106144175761441761573b565b9060005260206000200160006101000a8154816001600160a01b0302191690836001600160a01b031602179055508060b584815481106144595761445961573b565b9060005260206000200160006101000a8154816001600160a01b0302191690836001600160a01b031602179055505050808061449490615be6565b915050614353565b60005b60b65481101561455757600060a6600060b684815481106144c2576144c261573b565b60009182526020808320600492909202909101546001600160a01b031683528201929092526040018120600501805460ff19169215159290921790915560b6805460a6918391859081106145185761451861573b565b600091825260208083206004909202909101546001600160a01b031683528201929092526040019020600601558061454f81615be6565b91505061449f565b5061456460b66000614ce9565b60005b609c548110156148cb57600060a6600060b5848154811061458a5761458a61573b565b60009182526020808320909101546001600160a01b039081168452838201949094526040928301909120825160e08101845281548516815260018201548516928101929092526002810154909316918101919091526003820180549192916060840191906145f790615587565b80601f016020809104026020016040519081016040528092919081815260200182805461462390615587565b80156146705780601f1061464557610100808354040283529160200191614670565b820191906000526020600020905b81548152906001019060200180831161465357829003601f168201915b505050918352505060048201546020820152600582015460ff161515604082015260069091015460609091015260a0810151909150151560000361487957600160a0820181905260b6805460c084018190526040805160808101825285516001600160a01b03908116825260208201868152600093830184815260608401858152978601875595845282517f3ae797ceef265e3a4f9c1978c47c759eb34a32909251dee7276db339b17b3de3600490960295860180546001600160a01b0319169190931617909155517f3ae797ceef265e3a4f9c1978c47c759eb34a32909251dee7276db339b17b3de484015592517f3ae797ceef265e3a4f9c1978c47c759eb34a32909251dee7276db339b17b3de583015592517f3ae797ceef265e3a4f9c1978c47c759eb34a32909251dee7276db339b17b3de69091015560b580549192849260a69290879081106147c6576147c661573b565b60009182526020808320909101546001600160a01b039081168452838201949094526040928301909120845181549085166001600160a01b0319918216178255918501516001820180549186169184169190911790559184015160028301805491909416911617909155606082015160038201906148449082615e42565b506080820151600482015560a082015160058201805460ff191691151591909117905560c090910151600690910155506148b8565b600160b68260c00151815481106148925761489261573b565b906000526020600020906004020160010160008282546148b29190615bff565b90915550505b50806148c381615be6565b915050614567565b5060005b60b65481101561110e5760b681815481106148ec576148ec61573b565b90600052602060002090600402016001015460b682815481106149115761491161573b565b90600052602060002090600402016002018190555060b681815481106149395761493961573b565b90600052602060002090600402016001015460b6828154811061495e5761495e61573b565b60009182526020909120600360049092020101558061497c81615be6565b9150506148cf565b600054610100900460ff166149ab5760405162461bcd60e51b8152600401610fb890615d1c565b6119ed33614200565b600054610100900460ff166149db5760405162461bcd60e51b8152600401610fb890615d1c565b6119ed614a29565b600054610100900460ff16614a0a5760405162461bcd60e51b8152600401610fb890615d1c565b60018055565b6060614a1f8484600085614a5c565b90505b9392505050565b600054610100900460ff16614a505760405162461bcd60e51b8152600401610fb890615d1c565b6065805460ff19169055565b606082471015614abd5760405162461bcd60e51b815260206004820152602660248201527f416464726573733a20696e73756666696369656e742062616c616e636520666f6044820152651c8818d85b1b60d21b6064820152608401610fb8565b614ac6856141f1565b614b125760405162461bcd60e51b815260206004820152601d60248201527f416464726573733a2063616c6c20746f206e6f6e2d636f6e74726163740000006044820152606401610fb8565b600080866001600160a01b03168587604051614b2e9190615ef5565b60006040518083038185875af1925050503d8060008114614b6b576040519150601f19603f3d011682016040523d82523d6000602084013e614b70565b606091505b5091509150614b80828286614b8b565b979650505050505050565b60608315614b9a575081614a22565b825115614baa5782518084602001fd5b8160405162461bcd60e51b8152600401610fb89190615f11565b604080516060810182526000808252602082018190529181019190915290565b60408051608081018252600080825260208201819052918101829052606081019190915290565b828054828255906000526020600020908101928215614c46579160200282015b82811115614c46578235825591602001919060010190614c2b565b50614c52929150614d0a565b5090565b508054600082559060005260206000209081019061110e9190614d0a565b6040805160e0810182526000808252602082018190529181018290526060808201526080810182905260a0810182905260c081019190915290565b508054614cbb90615587565b6000825580601f10614ccb575050565b601f01602090049060005260206000209081019061110e9190614d0a565b508054600082556004029060005260206000209081019061110e9190614d1f565b5b80821115614c525760008155600101614d0b565b5b80821115614c525780546001600160a01b0319168155600060018201819055600282018190556003820155600401614d20565b801515811461110e57600080fd5b600080600060608486031215614d7657600080fd5b833592506020840135614d8881614d53565b915060408401356001600160f81b0381168114614da457600080fd5b809150509250925092565b6001600160a01b038116811461110e57600080fd5b600060208284031215614dd657600080fd5b8135614a2281614daf565b600060208284031215614df357600080fd5b5035919050565b60008060408385031215614e0d57600080fd5b8235614e1881614daf565b946020939093013593505050565b60005b83811015614e41578181015183820152602001614e29565b50506000910152565b60008151808452614e62816020860160208601614e26565b601f01601f19169290920160200192915050565b6001600160a01b03888116825287811660208301528616604082015260e060608201819052600090614eaa90830187614e4a565b60808301959095525091151560a083015260c090910152949350505050565b6001600160a01b0391909116815260200190565b600060a08284031215614eef57600080fd5b50919050565b60008083601f840112614f0757600080fd5b5081356001600160401b03811115614f1e57600080fd5b6020830191508360208260051b8501011115614f3957600080fd5b9250929050565b600080600060c08486031215614f5557600080fd5b614f5f8585614edd565b925060a08401356001600160401b03811115614f7a57600080fd5b614f8686828701614ef5565b9497909650939450505050565b803564ffffffffff8116811461326c57600080fd5b600060208284031215614fba57600080fd5b614a2282614f93565b600080600080600060808688031215614fdb57600080fd5b614fe486614f93565b945060208601356001600160401b03811115614fff57600080fd5b61500b88828901614ef5565b909550935050604086013561501f81614d53565b9150606086013561502f81614d53565b809150509295509295909350565b60208152600060018060a01b0380845116602084015280602085015116604084015280604085015116606084015250606083015160e06080840152615086610100840182614e4a565b9050608084015160a084015260a0840151151560c084015260c084015160e08401528091505092915050565b600080604083850312156150c557600080fd5b82356150d081614daf565b915060208301356001600160401b038111156150eb57600080fd5b830160e081860312156150fd57600080fd5b809150509250929050565b60006020828403121561511a57600080fd5b81356001600160401b0381168114614a2257600080fd5b80356001600160601b038116811461326c57600080fd5b60006020828403121561515a57600080fd5b614a2282615131565b60008060006060848603121561517857600080fd5b833561518381614daf565b95602085013595506040909401359392505050565b634e487b7160e01b600052604160045260246000fd5b604051608081016001600160401b03811182821017156151d0576151d0615198565b60405290565b604051601f8201601f191681016001600160401b03811182821017156151fe576151fe615198565b604052919050565b6000806000606080858703121561521c57600080fd5b843561522781614daf565b935060208581013561523881614daf565b93506040868101356001600160401b038082111561525557600080fd5b818901915089601f83011261526957600080fd5b81358181111561527b5761527b615198565b615289858260051b016151d6565b818152858101925060079190911b83018501908b8211156152a957600080fd5b928501925b8184101561530d576080848d0312156152c75760008081fd5b6152cf6151ae565b843581528685013587820152858501356152e881614daf565b818701526152f7858901615131565b81890152835260809390930192918501916152ae565b809750505050505050509250925092565b6000806000806060858703121561533457600080fd5b843561533f81614daf565b935060208501356001600160401b038082111561535b57600080fd5b818701915087601f83011261536f57600080fd5b81358181111561537e57600080fd5b88602082850101111561539057600080fd5b95986020929092019750949560400135945092505050565b600080604083850312156153bb57600080fd5b614e1883614f93565b600060a082840312156153d657600080fd5b614a228383614edd565b6000806000606084860312156153f557600080fd5b833561540081614daf565b9250602084013561541081614daf565b91506040840135614da481614daf565b6000806000806000610100868803121561543957600080fd5b6154438787614edd565b945060a08601356001600160401b038082111561545f57600080fd5b908701906101a0828a03121561547457600080fd5b90945060c0870135935060e0870135908082111561549157600080fd5b5061549e88828901614ef5565b969995985093965092949392505050565b6020808252825182820181905260009190848201906040850190845b818110156154e7578351835292840192918401916001016154cb565b50909695505050505050565b60208082526029908201527f53746174653a204f6e6c7920736869656c6420636f6e747261637420697320616040820152681d5d1a1bdc9a5e995960ba1b606082015260800190565b6020808252602b908201527f53746174653a204e6f7420617574686f726973656420746f2063616c6c20746860408201526a34b990333ab731ba34b7b760a91b606082015260800190565b600181811c9082168061559b57607f821691505b602082108103614eef57634e487b7160e01b600052602260045260246000fd5b601f8211156114ed57600081815260208120601f850160051c810160208610156155e25750805b601f850160051c820191505b81811015612044578281556001016155ee565b600019600383901b1c191660019190911b1790565b818103615621575050565b61562b8254615587565b6001600160401b0381111561564257615642615198565b615656816156508454615587565b846155bb565b6000601f82116001811461568457600083156156725750848201545b61567c8482615601565b8555506156e9565b600085815260209020601f19841690600086815260209020845b838110156156be578286015482556001958601959091019060200161569e565b50858310156156dc5781850154600019600388901b60f8161c191681555b50505060018360011b0184555b5050505050565b6020808252602b908201527f53746174653a204f6e6c792070726f706f73657220636f6e747261637420697360408201526a08185d5d1a1bdc9a5e995960aa1b606082015260800190565b634e487b7160e01b600052603260045260246000fd5b6020808252602e908201527f596f7520617265206e6f7420617574686f726973656420746f20696e766f6b6560408201526d103a3434b990333ab731ba34b7b760911b606082015260800190565b6020808252602d908201527f53746174653a204f6e6c79206368616c6c656e67657220636f6e74726163742060408201526c1a5cc8185d5d1a1bdc9a5e9959609a1b606082015260800190565b634e487b7160e01b600052601160045260246000fd5b81810381811115615815576158156157ec565b92915050565b634e487b7160e01b600052603160045260246000fd5b6000808335601e1984360301811261584857600080fd5b83016020810192503590506001600160401b0381111561586757600080fd5b8060051b3603821315614f3957600080fd5b81835260006001600160fb1b0383111561589257600080fd5b8260051b80836020870137939093016020019392505050565b60408183375050565b60808183375050565b60208082528181018390526000906040808401600586901b850182018785805b898110156159cc57888403603f190185528235368c900361019e19018112615903578283fd5b8b01803585526101a061591889830183615831565b828b89015261592a8389018284615879565b9250505087820135888701526060808301358188015250608080830135818801525060a061595a81840184615831565b888403838a015261596c848284615879565b935050505060c061597f81840184615831565b888403838a0152615991848284615879565b935050505060e06159a68188018285016158ab565b506101206159b88188018285016158b4565b5095880195945050918601916001016158dd565b50919998505050505050505050565b6000602082840312156159ed57600080fd5b5051919050565b80546001600160a01b0319166001600160a01b0392909216919091179055565b6001600160401b03831115615a2b57615a2b615198565b615a3f83615a398354615587565b836155bb565b6000601f841160018114615a6d5760008515615a5b5750838201355b615a658682615601565b8455506156e9565b600083815260209020601f19861690835b82811015615a9e5786850135825560209485019460019092019101615a7e565b5086821015615abb5760001960f88860031b161c19848701351681555b505060018560011b0183555050505050565b6000813561581581614d53565b8135615ae581614daf565b615aef81836159f4565b506020820135615afe81614daf565b615b0b81600184016159f4565b506040820135615b1a81614daf565b615b2781600284016159f4565b506060820135601e19833603018112615b3f57600080fd5b820180356001600160401b03811115615b5757600080fd5b602082019150803603821315615b6c57600080fd5b615b7a818360038601615a14565b505060808201356004820155615bae615b9560a08401615acd565b6005830160ff1981541660ff8315151681178255505050565b60c082013560068201555050565b634e487b7160e01b600052601260045260246000fd5b600082615be157615be1615bbc565b500490565b600060018201615bf857615bf86157ec565b5060010190565b80820180821115615815576158156157ec565b6001600160701b03828116828216039080821115615c3257615c326157ec565b5092915050565b6001600160781b03818116838216019080821115615c3257615c326157ec565b6001600160701b03818116838216019080821115615c3257615c326157ec565b606081526000615c8d606083018688615879565b6020830194909452506040015292915050565b600060208284031215615cb257600080fd5b8151614a2281614d53565b600081615ccc57615ccc6157ec565b506000190190565b8082018281126000831280158216821582161715615cf457615cf46157ec565b505092915050565b8181036000831280158383131683831282161715615c3257615c326157ec565b6020808252602b908201527f496e697469616c697a61626c653a20636f6e7472616374206973206e6f74206960408201526a6e697469616c697a696e6760a81b606082015260800190565b60208152813560208201526000615d816020840184615831565b6101a06040850152615d986101c085018284615879565b9150506040840135606084015260608401356080840152608084013560a0840152615dc660a0850185615831565b601f19808685030160c0870152615dde848385615879565b9350615ded60c0880188615831565b93509150808685030160e087015250615e07838383615879565b92505050615e1c610100840160e086016158ab565b614a22610140840161012086016158b4565b600082615e3d57615e3d615bbc565b500690565b81516001600160401b03811115615e5b57615e5b615198565b615e69816156508454615587565b602080601f831160018114615e985760008415615e865750858301515b615e908582615601565b865550612044565b600085815260208120601f198616915b82811015615ec757888601518255948401946001909101908401615ea8565b5085821015615ee55787850151600019600388901b60f8161c191681555b5050505050600190811b01905550565b60008251615f07818460208701614e26565b9190910192915050565b602081526000614a226020830184614e4a56fe22b88d74a6b23be687aa96340c881253c2e9873c526eec7366dc5f733ada306aa2646970667358221220d254a47193cc054b0e32b29b570dfe30557105e71df919f56558a37324b805cb64736f6c63430008110033",
  "immutableReferences": {},
  "source": "// SPDX-License-Identifier: CC0-1.0\nimport '@openzeppelin/contracts-upgradeable/security/ReentrancyGuardUpgradeable.sol';\nimport '@openzeppelin/contracts-upgradeable/token/ERC20/utils/SafeERC20Upgradeable.sol';\n\n/**\nContract to hold global state that is needed by a number of other contracts,\ntogether with functions for mutating it.\n@Author Westlad\n*/\n\npragma solidity ^0.8.0;\n\nimport './Utils.sol';\nimport './Config.sol';\nimport './Pausable.sol';\nimport './Key_Registry.sol';\n\ncontract State is ReentrancyGuardUpgradeable, Pausable, Key_Registry, Config {\n    using SafeERC20Upgradeable for IERC20Upgradeable;\n\n    // global state variables\n    mapping(bytes32 => TransactionInfo) public txInfo;\n    BlockData[] public blockHashes; // array containing mainly blockHashes\n    mapping(address => FeeTokens) public pendingWithdrawalsFees;\n    mapping(address => LinkedAddress) public proposers;\n    mapping(address => TimeLockedStake) public stakeAccounts;\n    mapping(bytes32 => BlockInfo) public blockInfo;\n    LinkedAddress public currentProposer; // who can propose a new shield state\n    uint256 public proposerStartBlock; // L1 block where currentProposer became current\n    // local state variables\n    address public proposersAddress;\n    address public challengesAddress;\n    address public shieldAddress;\n\n    uint256 public numProposers; // number of proposers\n    address[] public slots; // slots based on proposers stake\n    ProposerSet[] public proposersSet; // proposer set for next span\n    uint256 public currentSprint; // the current sprint of the span\n    address[] public spanProposersList;\n\n    function initialize() public override(Pausable, Key_Registry, Config) {\n        Pausable.initialize();\n        Key_Registry.initialize();\n        Config.initialize();\n        ReentrancyGuardUpgradeable.__ReentrancyGuard_init();\n    }\n\n    function initializeState(\n        address _proposersAddress,\n        address _challengesAddress,\n        address _shieldAddress\n    ) public initializer {\n        proposersAddress = _proposersAddress;\n        challengesAddress = _challengesAddress;\n        shieldAddress = _shieldAddress;\n        initialize();\n    }\n\n    modifier onlyShield() {\n        require(msg.sender == shieldAddress, 'State: Only shield contract is authorized');\n        _;\n    }\n\n    modifier onlyProposer() {\n        require(msg.sender == proposersAddress, 'State: Only proposer contract is authorized');\n        _;\n    }\n\n    modifier onlyChallenger() {\n        require(msg.sender == challengesAddress, 'State: Only challenger contract is authorized');\n        _;\n    }\n\n    modifier onlyCurrentProposer() {\n        // Modifier\n        require(\n            msg.sender == currentProposer.thisAddress,\n            'State: Only current proposer authorised'\n        );\n        _;\n    }\n\n    receive() external payable {\n        //fallback for payable\n    }\n\n    /**\n     * Allows a Proposer to propose a new block of state updates.\n     * @param b the block being proposed.  This function is kept in State.sol\n     * so that we don't have cross-contract calls and thus keep Gas to an absolute\n     * minimum.\n     */\n    function proposeBlock(Block calldata b, Transaction[] calldata t)\n        external\n        payable\n        onlyCurrentProposer\n        whenNotPaused\n    {\n        require(Utils.getBlockNumberL2(b.packedInfo) == blockHashes.length, 'State: Block out of order'); // this will fail if a tx is re-mined out of order due to a chain reorg.\n        if (blockHashes.length != 0) {\n            require(\n                b.previousBlockHash == blockHashes[blockHashes.length - 1].blockHash,\n                'State: Block flawed or out of order'\n            ); // this will fail if a tx is re-mined out of order due to a chain reorg.\n        }\n        require(Utils.getProposer(b.packedInfo) == msg.sender, 'State: The sender is not the proposer');\n        require(\n            stakeAccounts[msg.sender].amount + msg.value >= blockStake,\n            'State: Proposer does not have enough funds staked'\n        );\n        stakeAccounts[msg.sender].amount = stakeAccounts[msg.sender].amount + uint112(msg.value) - blockStake;\n        stakeAccounts[msg.sender].challengeLocked += blockStake;\n        stakeAccounts[msg.sender].time = 0;\n\n        uint120 feesMatic = 0;\n        uint120 feesEth = 0;\n\n        bytes32 blockHash;\n        uint256 blockSlots = BLOCK_STRUCTURE_SLOTS; //Number of slots that the block structure has\n        uint256 maxBlockSize = MAX_BLOCK_SIZE;\n\n\n        assembly {\n            //Function that calculates the height of the Merkle Tree\n            function getTreeHeight(leaves) -> _height {\n                _height := 1\n                for {\n\n                } lt(exp(2, _height), leaves) {\n\n                } {\n                    _height := add(_height, 1)\n                }\n            }\n\t\t\n            if lt(maxBlockSize, sub(calldatasize(), add(t.offset, calldataload(t.offset)))) {\n                mstore(0, 0x41c918e600000000000000000000000000000000000000000000000000000000) //Custom error InvalidBlockSize\n                revert(0, 4)\n            }\n\n            let x := mload(0x40) //Gets the first free memory pointer\n            let transactionHashesPos := add(x, mul(0x20, 3)) // calculate memory location of the transaction hashes\n            let transactionPos := add(\n                transactionHashesPos,\n                mul(0x20, exp(2, getTreeHeight(t.length)))\n            )\n\n            for {\n                let i := 0\n            } lt(i, t.length) {\n                i := add(i, 1)\n            } {\n                let transactionSlots := div(\n                    sub(\n                        add(t.offset, calldataload(add(t.offset, mul(0x20, add(i, 1))))),\n                        add(t.offset, calldataload(add(t.offset, mul(0x20, i))))\n                    ),\n                    32\n                )\n\n                if eq(add(i, 1), t.length) {\n                    transactionSlots := div(\n                        sub(\n                            calldatasize(),\n                            add(t.offset, calldataload(add(t.offset, mul(0x20, i))))\n                        ),\n                        32\n                    )\n                }\n\n                // Copy the transaction into transactionPos\n                calldatacopy(\n                    add(transactionPos, 0x20),\n                    add(t.offset, calldataload(add(t.offset, mul(0x20, i)))),\n                    mul(0x20, transactionSlots)\n                )\n\n                // Calculate the hash of the transaction and store it in transactionHashesPos\n                mstore(transactionPos, 0x20)\n\n                mstore(\n                    add(transactionHashesPos, mul(0x20, i)),\n                    keccak256(transactionPos, mul(0x20, add(transactionSlots, 1)))\n                )\n\n                // We need to check if circuit requires to escrow funds\n                mstore(x, shr(216,calldataload(add(t.offset, calldataload(add(t.offset, mul(0x20, i)))))))\n                mstore(add(x, 0x20), circuitInfo.slot)\n                \n                let isEscrowRequired := shr(8, sload(keccak256(x, mul(0x20, 2))))\n                let fee := shr(160,shl(40,calldataload(add(t.offset, calldataload(add(t.offset, mul(0x20, i)))))))\n\n                switch isEscrowRequired\n                case true {\n                    mstore(x, mload(add(transactionHashesPos, mul(0x20, i))))\n                    mstore(add(x, 0x20), txInfo.slot)\n                    let transactionInfo := sload(keccak256(x, mul(0x20, 2)))\n                    \n                    //If the funds weren't deposited, means the user sent the deposit off-chain, which is not allowed. Revert\n                    if iszero(shr(248,transactionInfo)) {\n                        mstore(\n                            0,\n                            0xd96541f500000000000000000000000000000000000000000000000000000000 //Custom error DepositNotEscrowed\n                        )\n                        mstore(0x04, mload(add(transactionHashesPos, mul(0x20, i))))\n                        revert(0, 36)\n                    }\n            \n                    // If the transaction fee is zero, check if there was any fee paid in eth and update the ETH fee payments\n                    if iszero(fee) {\n                        feesEth := add(feesEth, shr(8,shl(8,transactionInfo)))\n                    }\n                }\n                case false {\n                    // If the transaction fee is zero, check if there was any fee paid in eth and update the ETH fee payments\n                    if iszero(fee) {\n                        mstore(x, mload(add(transactionHashesPos, mul(0x20, i))))\n                        mstore(add(x, 0x20), txInfo.slot)\n                        feesEth := add(feesEth, shr(8,shl(8,sload(keccak256(x, mul(0x20, 2))))))\n                    }\n                }\n\n                // If the transaction fee is not zero, update the MATIC fee payments\n                if eq(iszero(fee),0) {\n                    feesMatic := add(feesMatic, fee)\n                }\n            }\n\n            //Calculate the root of the transactions merkle tree\n            for {\n                let i := getTreeHeight(t.length)\n            } gt(i, 0) {\n                i := sub(i, 1)\n            } {\n                for {\n                    let j := 0\n                } lt(j, exp(2, sub(i, 1))) {\n                    j := add(j, 1)\n                } {\n                    let leftPos := add(transactionHashesPos, mul(mul(0x20, j), 2))\n                    if eq(and(iszero(mload(leftPos)), iszero(mload(add(leftPos, 0x20)))), 1) {\n                        mstore(add(transactionHashesPos, mul(0x20, j)), 0)\n                    }\n                    if eq(and(iszero(mload(leftPos)), iszero(mload(add(leftPos, 0x20)))), 0) {\n                        mstore(add(transactionHashesPos, mul(0x20, j)), keccak256(leftPos, 0x40))\n                    }\n                }\n            }\n            // check if the transaction hashes root calculated equal to the one passed as part of block data\n            if eq(\n                eq(\n                    calldataload(add(0x04, mul(sub(blockSlots, 1), 0x20))),\n                    mload(transactionHashesPos)\n                ),\n                0\n            ) {\n                mstore(0, 0x3c80abfc00000000000000000000000000000000000000000000000000000000) //Custom error InvalidTransactionHash\n                revert(0, 4)\n            }\n            // calculate block hash\n            calldatacopy(x, 0x04, mul(0x20, blockSlots)) //Copy the block structure into x\n            blockHash := keccak256(x, mul(blockSlots, 0x20))\n        }\n        // We need to set the blockHash on chain here, because there is no way to\n        // convince a challenge function of the (in)correctness by an offchain\n        // computation; the on-chain code doesn't save the pre-image of the hash so\n        // it can't tell if it's been given the correct one as part of a challenge.\n        // To do this, we simply hash the function parameters because (1) they\n        // contain all of the relevant data (2) it doesn't take much gas.\n        // All check pass so add the block to the list of blocks waiting to be permanently added to the state - we only save the hash of the block data plus the absolute minimum of metadata - it's up to the challenger, or person requesting inclusion of the block to the permanent contract state, to provide the block data.\n\n        // Store block fees\n        blockInfo[blockHash].feesMatic = feesMatic;\n        blockInfo[blockHash].feesEth = feesEth;\n        \n        // blockHash is hash of all block data and hash of all the transactions data.\n        blockHashes.push(\n            BlockData({\n                blockHash: blockHash,\n                time: block.timestamp,\n                blockStake: blockStake,\n                proposer: Utils.getProposer(b.packedInfo)\n            })\n        );\n        // Timber will listen for the BlockProposed event as well as\n        // nightfall-optimist.  The current, optimistic version of Timber does not\n        // require the smart contract to craft NewLeaf/NewLeaves events.\n        emit BlockProposed();\n    }\n\n    function setTransactionInfo(bytes32 transactionHash, bool isEscrowed, uint248 ethFee) public onlyShield {\n        txInfo[transactionHash].isEscrowed = isEscrowed;\n        txInfo[transactionHash].ethFee = ethFee;\n    }\n\n    function setProposer(address addr, LinkedAddress calldata proposer) public onlyProposer {\n        proposers[addr] = proposer;\n    }\n\n    function getProposer(address addr) public view returns (LinkedAddress memory) {\n        return proposers[addr];\n    }\n\n    function setCurrentProposer(address proposer) public onlyProposer {\n        currentProposer = proposers[proposer];\n    }\n\n    function getCurrentProposer() public view returns (LinkedAddress memory) {\n        return currentProposer;\n    }\n\n    function resetFeeBookBlocksInfo(bytes32 blockHash) public onlyShield {\n        blockInfo[blockHash].feesEth = 0;\n        blockInfo[blockHash].feesMatic = 0;\n    }\n\n    function popBlockData() public onlyChallenger returns (BlockData memory) {\n        // oddly .pop() doesn't return the 'popped' element\n        BlockData memory popped = blockHashes[blockHashes.length - 1];\n        blockHashes.pop();\n        return popped;\n    }\n\n    function getBlockData(uint64 blockNumberL2) public view returns (BlockData memory) {\n        require(blockNumberL2 < blockHashes.length, 'State: Invalid block number L2');\n        return blockHashes[blockNumberL2];\n    }\n\n    function getNumberOfL2Blocks() public view returns (uint256) {\n        return blockHashes.length;\n    }\n\n    function addPendingWithdrawal(\n        address addr,\n        uint256 feesEth,\n        uint256 feesMatic\n    ) public {\n        require(msg.sender == proposersAddress ||\n                msg.sender == shieldAddress,\n            'State: Not authorised to call this function');\n\n        pendingWithdrawalsFees[addr] = FeeTokens(uint120(feesEth), uint120(feesMatic)); \n    }\n\n    function withdraw() external nonReentrant whenNotPaused {\n        uint256 amountEth = pendingWithdrawalsFees[msg.sender].feesEth;\n        uint256 amountMatic = pendingWithdrawalsFees[msg.sender].feesMatic;\n\n        if (amountEth > 0) {\n            pendingWithdrawalsFees[msg.sender].feesEth = 0;\n            (bool success, ) = payable(msg.sender).call{value: amountEth}('');\n            require(success, 'Transfer failed.');\n        }\n        if (amountMatic > 0) {\n            pendingWithdrawalsFees[msg.sender].feesMatic = 0;\n            IERC20Upgradeable(super.getMaticAddress()).safeTransferFrom(\n                address(this),\n                msg.sender,\n                amountMatic\n            );\n        }\n    }\n\n    function setProposerStartBlock(uint256 sb) public onlyProposer {\n        proposerStartBlock = sb;\n    }\n\n    function setNumProposers(uint256 np) public onlyProposer {\n        uint256 prevNumProposers = numProposers;\n        numProposers = np;\n        if (numProposers == 2 && prevNumProposers == 1) {\n            initializeSpan();\n            calculateNextProposers(address(0));\n        }\n    }\n\n    function getNumProposers() public view returns (uint256) {\n        return numProposers;\n    }\n\n    function removeProposer(address proposer) public {\n         require(msg.sender == proposersAddress ||\n                msg.sender == challengesAddress,\n            'State: Not authorised to call this function');\n        _removeProposer(proposer);\n        if (proposer == currentProposer.thisAddress || currentProposer.thisAddress == address(0)) {\n            currentProposer = proposers[currentProposer.nextAddress]; // we need to refresh the current proposer before the change\n            proposerStartBlock = 0;\n            changeCurrentProposer();\n        }\n    }\n\n    function _removeProposer(address proposer) internal {\n        address previousAddress = proposers[proposer].previousAddress;\n        address nextAddress = proposers[proposer].nextAddress;\n        delete proposers[proposer];\n        numProposers--;\n        proposers[previousAddress].nextAddress = proposers[nextAddress].thisAddress;\n        proposers[nextAddress].previousAddress = proposers[previousAddress].thisAddress;\n        if (\n            previousAddress == currentProposer.thisAddress ||\n            nextAddress == currentProposer.thisAddress\n        ) {\n            currentProposer = proposers[currentProposer.thisAddress]; // we need to refresh the current proposer addresses\n        }\n    }\n\n    function updateProposer(\n        address proposer,\n        string calldata url,\n        uint256 fee\n    ) public onlyProposer {\n        proposers[proposer].url = url;\n        proposers[proposer].fee = fee;\n    }\n\n    // Checks if a block is actually referenced in the queue of blocks waiting\n    // to go into the Shield state (stops someone challenging with a non-existent\n    // block).\n    function isBlockReal(Block calldata b) public view {\n        uint64 blockNumberL2 = Utils.getBlockNumberL2(b.packedInfo);\n        require(\n            blockNumberL2 < blockHashes.length &&\n                blockHashes[blockNumberL2].blockHash == Utils.hashBlock(b),\n            'State: Block does not exist'\n        );\n    }\n\n    // Checks if a block is actually referenced in the queue of blocks waiting\n    // to go into the Shield state (stops someone challenging with a non-existent\n    // block).\n    function areBlockAndTransactionsReal(Block calldata b, Transaction[] calldata ts) public view {\n        isBlockReal(b);\n        require(\n            b.transactionHashesRoot == Utils.hashTransactionHashes(ts),\n            'State: Transaction hashes root does not match'\n        );\n    }\n\n   \n\n    // Checks if a block is actually referenced in the queue of blocks waiting\n    // to go into the Shield state (stops someone challenging with a non-existent\n    // block). It also checks if a transaction is contained in a block using its sibling path\n    function areBlockAndTransactionReal(\n        Block calldata b,\n        Transaction calldata t,\n        uint256 index,\n        bytes32[] calldata siblingPath\n    ) public view returns (bytes32) {\n        isBlockReal(b);\n        require(\n            b.transactionHashesRoot == siblingPath[0],\n            'State: Transaction hashes root is incorrect'\n        );\n        bytes32 transactionHash = Utils.hashTransaction(t);\n        require(Utils.checkPath(siblingPath, index, transactionHash), 'State: Transaction does not exist in block');\n        return transactionHash;\n    }\n\n    /**\n     * @dev Set stake account for the address addr with amount of stake and challengeLocked\n     */\n    function setStakeAccount(\n        address addr,\n        uint256 amount,\n        uint256 challengeLocked\n    ) public {\n         require(msg.sender == proposersAddress ||\n                msg.sender == shieldAddress,\n            'State: Not authorised to call this function');\n        stakeAccounts[addr] = TimeLockedStake(uint112(amount), uint112(challengeLocked), 0);\n    }\n\n    /**\n     * @dev Get stake account for the address addr\n     */\n    function getStakeAccount(address addr) public view returns (TimeLockedStake memory) {\n        return stakeAccounts[addr];\n    }\n\n    function rewardChallenger(\n        address challengerAddr,\n        address proposer,\n        BlockData[] memory badBlocks\n    ) public onlyChallenger {\n        removeProposer(proposer);\n\n        uint120 rewardedStake = 0;\n        for (uint256 i = 0; i < badBlocks.length; ++i) {\n            TimeLockedStake memory stake = stakeAccounts[badBlocks[i].proposer];\n            // Give reward to challenger from the stake locked for challenges\n            stakeAccounts[proposer] = TimeLockedStake(\n                stake.amount,\n                stake.challengeLocked - badBlocks[i].blockStake,\n                0\n            );\n            rewardedStake += badBlocks[i].blockStake;\n        }\n\n        pendingWithdrawalsFees[challengerAddr].feesEth += rewardedStake;\n    }\n\n    function updateStakeAccountTime(address addr, uint256 time) public onlyProposer {\n        stakeAccounts[addr].time = uint32(time);\n    }\n\n    function setBlockStakeWithdrawn(bytes32 blockHash) public {\n         require(msg.sender == challengesAddress ||\n                msg.sender == shieldAddress,\n            'State: Not authorised to call this function');\n        blockInfo[blockHash].stakeClaimed = true;\n    }\n\n    /**\n     * Each proposer gets a chance to propose blocks for a certain time, defined\n     * in Ethereum blocks.  After a certain number of blocks has passed, the\n     * proposer can be rotated by calling this function. The method for choosing\n     * the next proposer is simple rotation for now.\n     */\n    function changeCurrentProposer() public {\n        require(\n            block.number - proposerStartBlock > rotateProposerBlocks ||\n                proposerStartBlock == 0 ||\n                maxProposers == 1,\n            'State: Too soon to rotate proposer'\n        );\n\n        // if maxProposers=1 only bootProposer as proposer\n        if (maxProposers == 1 && numProposers > 1) {\n            currentProposer = proposers[bootProposer]; // the current proposer will be the boot proposer\n            address selectedProposer = currentProposer.nextAddress;\n            while (numProposers > 1) {\n                _removeProposer(selectedProposer);\n                // The selectedProposer has to wait a CHALLENGE_PERIOD from current block.timestamp\n                stakeAccounts[selectedProposer].time = uint32(block.timestamp);\n                selectedProposer = currentProposer.nextAddress;\n            }\n        }\n\n        address addressBestPeer;\n\n        if (numProposers <= 1) {\n            currentSprint = 0; // We don't have sprints because always same proposer\n            addressBestPeer = currentProposer.thisAddress;\n        } else {\n            addressBestPeer = spanProposersList[currentSprint];\n            currentSprint += 1;\n\n            if (currentSprint == sprintsInSpan) {\n                currentSprint = 0;\n            }\n\n            if (currentSprint == 0) {\n                initializeSpan();\n                calculateNextProposers(addressBestPeer);\n            }\n        }\n\n        currentProposer = proposers[addressBestPeer];\n        proposerStartBlock = block.number;\n        emit NewCurrentProposer(currentProposer.thisAddress);\n    }\n\n    function calculateNextProposers(address addressBestPeer) internal {\n        ProposerSet memory peer;\n        uint256 totalEffectiveWeight = 0;\n        delete spanProposersList;\n        for (uint256 j = 0; j < proposerSetCount; j++) {\n            for (uint256 i = 0; i < proposersSet.length; i++) {\n                peer = proposersSet[i];\n                totalEffectiveWeight += peer.effectiveWeight;\n                peer.currentWeight += int256(peer.effectiveWeight);\n\n                if (peer.effectiveWeight < peer.weight) peer.effectiveWeight++;\n                if (\n                    addressBestPeer == address(0) ||\n                    proposersSet[proposers[addressBestPeer].indexProposerSet].currentWeight <\n                    peer.currentWeight\n                ) {\n                    addressBestPeer = peer.thisAddress;\n                }\n            }\n\n            if (proposersSet[proposers[addressBestPeer].indexProposerSet].weight != 0)\n                proposersSet[proposers[addressBestPeer].indexProposerSet].currentWeight -= int256(\n                    totalEffectiveWeight\n                );\n\n            spanProposersList.push(addressBestPeer);\n        }\n    }\n\n    /**\n     * @dev Initialize a new span\n     */\n    function initializeSpan() internal {\n        fillSlots(); // 1) initialize slots based on the stake\n        shuffleSlots(); // 2) shuffle the slots\n        spanProposerSet(); // 3) pop the proposer set from shuffled slots\n    }\n\n    /**\n     * @dev Fill slots based on the weight\n     */\n    function fillSlots() public {\n        require(\n            currentProposer.thisAddress != address(0),\n            'State: Current proposer not initialized'\n        );\n        LinkedAddress memory p = currentProposer;\n        TimeLockedStake memory stake;\n        uint256 weight;\n\n        uint256 slotValue; // we calculate the slotValue depending on the proposer stakes\n        uint256 maximumSlots = 10; // maximum slots we want for the biggest proposer stake\n        while (p.nextAddress != currentProposer.thisAddress) {\n            stake = getStakeAccount(p.thisAddress);\n            if (slotValue < stake.amount / maximumSlots) {\n                slotValue = stake.amount / maximumSlots;\n            }\n            p = proposers[p.nextAddress];\n        }\n        stake = getStakeAccount(p.thisAddress);\n        if (slotValue < stake.amount / maximumSlots) {\n            slotValue = stake.amount / maximumSlots;\n        }\n\n        p = currentProposer;\n\n        // 1) remove all slots\n        delete slots;\n        // 2) assign slots based on the stake of the proposers\n        while (p.nextAddress != currentProposer.thisAddress) {\n            stake = getStakeAccount(p.thisAddress);\n            weight = stake.amount / slotValue;\n            if (weight == 0) weight = 1;\n            for (uint256 i = 0; i < weight; i++) {\n                slots.push(p.thisAddress);\n            }\n            p = proposers[p.nextAddress];\n        }\n        stake = getStakeAccount(p.thisAddress);\n        weight = stake.amount / slotValue;\n        if (weight == 0) weight = 1;\n        for (uint256 i = 0; i < weight; i++) {\n            slots.push(p.thisAddress);\n        }\n    }\n\n    /**\n     * @dev Shuffle the slots of all proposers\n     */\n    function shuffleSlots() internal {\n        for (uint256 i = 0; i < slots.length; i++) {\n            uint256 n = i +\n                (uint256(keccak256(abi.encodePacked(block.timestamp))) % (slots.length - i));\n            address temp = slots[n];\n            slots[n] = slots[i];\n            slots[i] = temp;\n        }\n    }\n\n    /**\n     * @dev Pop the proposer set for next Span\n     */\n    function spanProposerSet() internal {\n        for (uint256 i = 0; i < proposersSet.length; i++) {\n            proposers[proposersSet[i].thisAddress].inProposerSet = false;\n            proposers[proposersSet[i].thisAddress].indexProposerSet = 0;\n        }\n\n        delete proposersSet;\n\n        // add proposersSet\n        for (uint256 i = 0; i < proposerSetCount; i++) {\n            LinkedAddress memory p = proposers[slots[i]];\n            if (p.inProposerSet == false) {\n                p.inProposerSet = true;\n                p.indexProposerSet = proposersSet.length;\n                ProposerSet memory ps = ProposerSet(p.thisAddress, 1, 0, 0);\n                proposersSet.push(ps);\n                proposers[slots[i]] = p;\n            } else {\n                proposersSet[p.indexProposerSet].weight += 1;\n            }\n        }\n\n        // initialize weights for WRR\n        for (uint256 i = 0; i < proposersSet.length; i++) {\n            proposersSet[i].currentWeight = int256(proposersSet[i].weight);\n            proposersSet[i].effectiveWeight = proposersSet[i].weight;\n        }\n    }\n}\n",
  "sourcePath": "/app/contracts/State.sol",
  "compiler": {
    "name": "solc",
    "version": "0.8.17+commit.8df45f5f.Emscripten.clang"
  },
  "schemaVersion": "3.4.10",
  "updatedAt": "2022-12-08T15:25:52.305Z",
  "networkType": "ethereum",
  "devdoc": {
    "kind": "dev",
    "methods": {
      "fillSlots()": {
        "details": "Fill slots based on the weight"
      },
      "getBlockStake()": {
        "details": "Get block stake for a proposer"
      },
      "getBootChallenger()": {
        "details": "Get boot challenger address"
      },
      "getBootProposer()": {
        "details": "Get boot proposer address"
      },
      "getMaticAddress()": {
        "details": "Get Matic address (fee token for proposers payment)"
      },
      "getMaxProposers()": {
        "details": "Get maximum number of proposers"
      },
      "getMinimumStake()": {
        "details": "Get minimum stake for a proposer"
      },
      "getProposerSetCount()": {
        "details": "Get proposerset count in PoS"
      },
      "getRotateProposerBlocks()": {
        "details": "Get rotate proposer blocks for the current proposer"
      },
      "getSprintsInSpan()": {
        "details": "Get sprints in span in PoS"
      },
      "getStakeAccount(address)": {
        "details": "Get stake account for the address addr"
      },
      "owner()": {
        "details": "Tells the address of the owner",
        "returns": {
          "_0": "the address of the owner"
        }
      },
      "paused()": {
        "details": "Returns true if the contract is paused, and false otherwise."
      },
      "proposeBlock((uint256,bytes32,bytes32,bytes32,bytes32),(uint256,uint256[],bytes32,bytes32,bytes32,bytes32[],bytes32[],bytes32[2],uint256[4])[])": {
        "params": {
          "b": "the block being proposed.  This function is kept in State.sol so that we don't have cross-contract calls and thus keep Gas to an absolute minimum."
        }
      },
      "removeRestriction(address)": {
        "details": "Remove token restriction"
      },
      "setBlockStake(uint96)": {
        "details": "Set block stake for a proposer"
      },
      "setBootChallenger(address)": {
        "details": "Set boot challenger address"
      },
      "setBootProposer(address)": {
        "details": "Set boot proposer address"
      },
      "setMaticAddress(address)": {
        "details": "Set Matic address (fee token for proposers payment)"
      },
      "setMaxProposers(uint256)": {
        "details": "Set maximum number of proposers"
      },
      "setMinimumStake(uint96)": {
        "details": "Set minimum stake for a proposer"
      },
      "setProposerSetCount(uint256)": {
        "details": "Set proposerset count in PoS"
      },
      "setRestriction(address,uint256,uint256)": {
        "details": "Set token restriction"
      },
      "setRotateProposerBlocks(uint256)": {
        "details": "Set rotate proposer blocks for the current proposer"
      },
      "setSprintsInSpan(uint256)": {
        "details": "Set sprints in span in PoS"
      },
      "setStakeAccount(address,uint256,uint256)": {
        "details": "Set stake account for the address addr with amount of stake and challengeLocked"
      },
      "transferOwnership(address)": {
        "details": "Allows the current owner to transfer control of the contract to a newOwner.",
        "params": {
          "newOwner": "The address to transfer ownership to."
        }
      }
    },
    "version": 1
  },
  "userdoc": {
    "events": {
      "NewLeaf(uint256,bytes32,bytes32)": {
        "notice": "These events are what the merkle-tree microservice's filters will listen for."
      }
    },
    "kind": "user",
    "methods": {
      "changeCurrentProposer()": {
        "notice": "Each proposer gets a chance to propose blocks for a certain time, defined in Ethereum blocks.  After a certain number of blocks has passed, the proposer can be rotated by calling this function. The method for choosing the next proposer is simple rotation for now."
      },
      "proposeBlock((uint256,bytes32,bytes32,bytes32,bytes32),(uint256,uint256[],bytes32,bytes32,bytes32,bytes32[],bytes32[],bytes32[2],uint256[4])[])": {
        "notice": "Allows a Proposer to propose a new block of state updates."
      },
      "registerVerificationKey(uint40,uint256[],bool,bool)": {
        "notice": "Stores verification keys (for the 'deposit', 'transfer', 'withdraw', 'tokenise' and 'burn' computations)."
      }
    },
    "version": 1
  }
}