{
  "contractName": "State",
  "abi": [
    {
      "inputs": [
        {
          "internalType": "bytes32",
          "name": "depositHash",
          "type": "bytes32"
        }
      ],
      "name": "DepositNotEscrowed",
      "type": "error"
    },
    {
      "inputs": [],
      "name": "InvalidBlockSize",
      "type": "error"
    },
    {
      "inputs": [],
      "name": "InvalidTransactionHash",
      "type": "error"
    },
    {
      "inputs": [],
      "name": "InvalidTransactionSize",
      "type": "error"
    },
    {
      "anonymous": false,
      "inputs": [],
      "name": "BlockProposed",
      "type": "event"
    },
    {
      "anonymous": false,
      "inputs": [
        {
          "indexed": false,
          "internalType": "bytes32",
          "name": "commitHash",
          "type": "bytes32"
        },
        {
          "indexed": false,
          "internalType": "address",
          "name": "sender",
          "type": "address"
        }
      ],
      "name": "CommittedToChallenge",
      "type": "event"
    },
    {
      "anonymous": false,
      "inputs": [
        {
          "indexed": false,
          "internalType": "uint8",
          "name": "version",
          "type": "uint8"
        }
      ],
      "name": "Initialized",
      "type": "event"
    },
    {
      "anonymous": false,
      "inputs": [
        {
          "indexed": false,
          "internalType": "bytes32",
          "name": "withdrawTransactionHash",
          "type": "bytes32"
        },
        {
          "indexed": false,
          "internalType": "address",
          "name": "paidBy",
          "type": "address"
        },
        {
          "indexed": false,
          "internalType": "uint256",
          "name": "amount",
          "type": "uint256"
        }
      ],
      "name": "InstantWithdrawalRequested",
      "type": "event"
    },
    {
      "anonymous": false,
      "inputs": [
        {
          "indexed": false,
          "internalType": "address",
          "name": "addr",
          "type": "address"
        }
      ],
      "name": "NewBootChallengerSet",
      "type": "event"
    },
    {
      "anonymous": false,
      "inputs": [
        {
          "indexed": false,
          "internalType": "address",
          "name": "addr",
          "type": "address"
        }
      ],
      "name": "NewBootProposerSet",
      "type": "event"
    },
    {
      "anonymous": false,
      "inputs": [
        {
          "indexed": false,
          "internalType": "address",
          "name": "proposer",
          "type": "address"
        }
      ],
      "name": "NewCurrentProposer",
      "type": "event"
    },
    {
      "anonymous": false,
      "inputs": [
        {
          "indexed": false,
          "internalType": "uint256",
          "name": "leafIndex",
          "type": "uint256"
        },
        {
          "indexed": false,
          "internalType": "bytes32",
          "name": "leafValue",
          "type": "bytes32"
        },
        {
          "indexed": false,
          "internalType": "bytes32",
          "name": "root",
          "type": "bytes32"
        }
      ],
      "name": "NewLeaf",
      "type": "event"
    },
    {
      "anonymous": false,
      "inputs": [
        {
          "indexed": false,
          "internalType": "uint256",
          "name": "minLeafIndex",
          "type": "uint256"
        },
        {
          "indexed": false,
          "internalType": "bytes32[]",
          "name": "leafValues",
          "type": "bytes32[]"
        },
        {
          "indexed": false,
          "internalType": "bytes32",
          "name": "root",
          "type": "bytes32"
        }
      ],
      "name": "NewLeaves",
      "type": "event"
    },
    {
      "anonymous": false,
      "inputs": [
        {
          "indexed": false,
          "internalType": "address",
          "name": "previousOwner",
          "type": "address"
        },
        {
          "indexed": false,
          "internalType": "address",
          "name": "newOwner",
          "type": "address"
        }
      ],
      "name": "OwnershipTransferred",
      "type": "event"
    },
    {
      "anonymous": false,
      "inputs": [
        {
          "indexed": false,
          "internalType": "address",
          "name": "account",
          "type": "address"
        }
      ],
      "name": "Paused",
      "type": "event"
    },
    {
      "anonymous": false,
      "inputs": [
        {
          "indexed": false,
          "internalType": "uint64",
          "name": "blockNumberL2",
          "type": "uint64"
        }
      ],
      "name": "Rollback",
      "type": "event"
    },
    {
      "anonymous": false,
      "inputs": [
        {
          "indexed": false,
          "internalType": "address",
          "name": "ercAddress",
          "type": "address"
        },
        {
          "indexed": false,
          "internalType": "uint256",
          "name": "amount",
          "type": "uint256"
        }
      ],
      "name": "ShieldBalanceTransferred",
      "type": "event"
    },
    {
      "anonymous": false,
      "inputs": [],
      "name": "TransactionSubmitted",
      "type": "event"
    },
    {
      "anonymous": false,
      "inputs": [
        {
          "indexed": false,
          "internalType": "address",
          "name": "account",
          "type": "address"
        }
      ],
      "name": "Unpaused",
      "type": "event"
    },
    {
      "anonymous": false,
      "inputs": [
        {
          "indexed": false,
          "internalType": "uint40",
          "name": "circuitHash",
          "type": "uint40"
        }
      ],
      "name": "VkChanged",
      "type": "event"
    },
    {
      "inputs": [],
      "name": "_owner",
      "outputs": [
        {
          "internalType": "address",
          "name": "",
          "type": "address"
        }
      ],
      "stateMutability": "view",
      "type": "function",
      "constant": true
    },
    {
      "inputs": [
        {
          "internalType": "uint256",
          "name": "",
          "type": "uint256"
        }
      ],
      "name": "blockHashes",
      "outputs": [
        {
          "internalType": "bytes32",
          "name": "blockHash",
          "type": "bytes32"
        },
        {
          "internalType": "uint256",
          "name": "time",
          "type": "uint256"
        },
        {
          "internalType": "address",
          "name": "proposer",
          "type": "address"
        },
        {
          "internalType": "uint96",
          "name": "blockStake",
          "type": "uint96"
        }
      ],
      "stateMutability": "view",
      "type": "function",
      "constant": true
    },
    {
      "inputs": [
        {
          "internalType": "bytes32",
          "name": "",
          "type": "bytes32"
        }
      ],
      "name": "blockInfo",
      "outputs": [
        {
          "internalType": "uint248",
          "name": "feesMatic",
          "type": "uint248"
        },
        {
          "internalType": "bool",
          "name": "stakeClaimed",
          "type": "bool"
        }
      ],
      "stateMutability": "view",
      "type": "function",
      "constant": true
    },
    {
      "inputs": [],
      "name": "challengesAddress",
      "outputs": [
        {
          "internalType": "address",
          "name": "",
          "type": "address"
        }
      ],
      "stateMutability": "view",
      "type": "function",
      "constant": true
    },
    {
      "inputs": [
        {
          "internalType": "uint40",
          "name": "",
          "type": "uint40"
        }
      ],
      "name": "circuitInfo",
      "outputs": [
        {
          "internalType": "bool",
          "name": "isWithdrawing",
          "type": "bool"
        },
        {
          "internalType": "bool",
          "name": "isEscrowRequired",
          "type": "bool"
        }
      ],
      "stateMutability": "view",
      "type": "function",
      "constant": true
    },
    {
      "inputs": [],
      "name": "currentProposer",
      "outputs": [
        {
          "internalType": "address",
          "name": "thisAddress",
          "type": "address"
        },
        {
          "internalType": "address",
          "name": "previousAddress",
          "type": "address"
        },
        {
          "internalType": "address",
          "name": "nextAddress",
          "type": "address"
        },
        {
          "internalType": "string",
          "name": "url",
          "type": "string"
        },
        {
          "internalType": "uint256",
          "name": "fee",
          "type": "uint256"
        },
        {
          "internalType": "bool",
          "name": "inProposerSet",
          "type": "bool"
        },
        {
          "internalType": "uint256",
          "name": "indexProposerSet",
          "type": "uint256"
        }
      ],
      "stateMutability": "view",
      "type": "function",
      "constant": true
    },
    {
      "inputs": [],
      "name": "currentSprint",
      "outputs": [
        {
          "internalType": "uint256",
          "name": "",
          "type": "uint256"
        }
      ],
      "stateMutability": "view",
      "type": "function",
      "constant": true
    },
    {
      "inputs": [
        {
          "internalType": "uint40",
          "name": "circuitHash",
          "type": "uint40"
        }
      ],
      "name": "deleteVerificationKey",
      "outputs": [],
      "stateMutability": "nonpayable",
      "type": "function"
    },
    {
      "inputs": [],
      "name": "getBlockStake",
      "outputs": [
        {
          "internalType": "uint96",
          "name": "",
          "type": "uint96"
        }
      ],
      "stateMutability": "view",
      "type": "function",
      "constant": true
    },
    {
      "inputs": [],
      "name": "getBootChallenger",
      "outputs": [
        {
          "internalType": "address",
          "name": "",
          "type": "address"
        }
      ],
      "stateMutability": "view",
      "type": "function",
      "constant": true
    },
    {
      "inputs": [],
      "name": "getBootProposer",
      "outputs": [
        {
          "internalType": "address",
          "name": "",
          "type": "address"
        }
      ],
      "stateMutability": "view",
      "type": "function",
      "constant": true
    },
    {
      "inputs": [
        {
          "internalType": "uint40",
          "name": "circuitHash",
          "type": "uint40"
        }
      ],
      "name": "getCircuitInfo",
      "outputs": [
        {
          "components": [
            {
              "internalType": "bool",
              "name": "isWithdrawing",
              "type": "bool"
            },
            {
              "internalType": "bool",
              "name": "isEscrowRequired",
              "type": "bool"
            }
          ],
          "internalType": "struct Structures.CircuitInfo",
          "name": "",
          "type": "tuple"
        }
      ],
      "stateMutability": "view",
      "type": "function",
      "constant": true
    },
    {
      "inputs": [],
      "name": "getMaticAddress",
      "outputs": [
        {
          "internalType": "address",
          "name": "",
          "type": "address"
        }
      ],
      "stateMutability": "view",
      "type": "function",
      "constant": true
    },
    {
      "inputs": [],
      "name": "getMaxProposers",
      "outputs": [
        {
          "internalType": "uint256",
          "name": "",
          "type": "uint256"
        }
      ],
      "stateMutability": "view",
      "type": "function",
      "constant": true
    },
    {
      "inputs": [],
      "name": "getMinimumStake",
      "outputs": [
        {
          "internalType": "uint256",
          "name": "",
          "type": "uint256"
        }
      ],
      "stateMutability": "view",
      "type": "function",
      "constant": true
    },
    {
      "inputs": [],
      "name": "getProposerSetCount",
      "outputs": [
        {
          "internalType": "uint256",
          "name": "",
          "type": "uint256"
        }
      ],
      "stateMutability": "view",
      "type": "function",
      "constant": true
    },
    {
      "inputs": [
        {
          "internalType": "address",
          "name": "tokenAddr",
          "type": "address"
        }
      ],
      "name": "getRestrictionDeposit",
      "outputs": [
        {
          "internalType": "uint256",
          "name": "",
          "type": "uint256"
        }
      ],
      "stateMutability": "view",
      "type": "function",
      "constant": true
    },
    {
      "inputs": [
        {
          "internalType": "address",
          "name": "tokenAddr",
          "type": "address"
        }
      ],
      "name": "getRestrictionWithdraw",
      "outputs": [
        {
          "internalType": "uint256",
          "name": "",
          "type": "uint256"
        }
      ],
      "stateMutability": "view",
      "type": "function",
      "constant": true
    },
    {
      "inputs": [],
      "name": "getRotateProposerBlocks",
      "outputs": [
        {
          "internalType": "uint256",
          "name": "",
          "type": "uint256"
        }
      ],
      "stateMutability": "view",
      "type": "function",
      "constant": true
    },
    {
      "inputs": [],
      "name": "getSprintsInSpan",
      "outputs": [
        {
          "internalType": "uint256",
          "name": "",
          "type": "uint256"
        }
      ],
      "stateMutability": "view",
      "type": "function",
      "constant": true
    },
    {
      "inputs": [
        {
          "internalType": "uint40",
          "name": "circuitHash",
          "type": "uint40"
        }
      ],
      "name": "getVerificationKey",
      "outputs": [
        {
          "internalType": "uint256[]",
          "name": "",
          "type": "uint256[]"
        }
      ],
      "stateMutability": "view",
      "type": "function",
      "constant": true
    },
    {
      "inputs": [
        {
          "internalType": "bytes32",
          "name": "",
          "type": "bytes32"
        }
      ],
      "name": "isTransactionEscrowed",
      "outputs": [
        {
          "internalType": "bool",
          "name": "",
          "type": "bool"
        }
      ],
      "stateMutability": "view",
      "type": "function",
      "constant": true
    },
    {
      "inputs": [],
      "name": "numProposers",
      "outputs": [
        {
          "internalType": "uint256",
          "name": "",
          "type": "uint256"
        }
      ],
      "stateMutability": "view",
      "type": "function",
      "constant": true
    },
    {
      "inputs": [],
      "name": "owner",
      "outputs": [
        {
          "internalType": "address",
          "name": "",
          "type": "address"
        }
      ],
      "stateMutability": "view",
      "type": "function",
      "constant": true
    },
    {
      "inputs": [],
      "name": "pause",
      "outputs": [],
      "stateMutability": "nonpayable",
      "type": "function"
    },
    {
      "inputs": [],
      "name": "paused",
      "outputs": [
        {
          "internalType": "bool",
          "name": "",
          "type": "bool"
        }
      ],
      "stateMutability": "view",
      "type": "function",
      "constant": true
    },
    {
      "inputs": [
        {
          "internalType": "address",
          "name": "",
          "type": "address"
        }
      ],
      "name": "pendingWithdrawalsFees",
      "outputs": [
        {
          "internalType": "uint256",
          "name": "feesEth",
          "type": "uint256"
        },
        {
          "internalType": "uint256",
          "name": "feesMatic",
          "type": "uint256"
        }
      ],
      "stateMutability": "view",
      "type": "function",
      "constant": true
    },
    {
      "inputs": [],
      "name": "proposerStartBlock",
      "outputs": [
        {
          "internalType": "uint256",
          "name": "",
          "type": "uint256"
        }
      ],
      "stateMutability": "view",
      "type": "function",
      "constant": true
    },
    {
      "inputs": [
        {
          "internalType": "address",
          "name": "",
          "type": "address"
        }
      ],
      "name": "proposers",
      "outputs": [
        {
          "internalType": "address",
          "name": "thisAddress",
          "type": "address"
        },
        {
          "internalType": "address",
          "name": "previousAddress",
          "type": "address"
        },
        {
          "internalType": "address",
          "name": "nextAddress",
          "type": "address"
        },
        {
          "internalType": "string",
          "name": "url",
          "type": "string"
        },
        {
          "internalType": "uint256",
          "name": "fee",
          "type": "uint256"
        },
        {
          "internalType": "bool",
          "name": "inProposerSet",
          "type": "bool"
        },
        {
          "internalType": "uint256",
          "name": "indexProposerSet",
          "type": "uint256"
        }
      ],
      "stateMutability": "view",
      "type": "function",
      "constant": true
    },
    {
      "inputs": [],
      "name": "proposersAddress",
      "outputs": [
        {
          "internalType": "address",
          "name": "",
          "type": "address"
        }
      ],
      "stateMutability": "view",
      "type": "function",
      "constant": true
    },
    {
      "inputs": [
        {
          "internalType": "uint256",
          "name": "",
          "type": "uint256"
        }
      ],
      "name": "proposersSet",
      "outputs": [
        {
          "internalType": "address",
          "name": "thisAddress",
          "type": "address"
        },
        {
          "internalType": "uint256",
          "name": "weight",
          "type": "uint256"
        },
        {
          "internalType": "int256",
          "name": "currentWeight",
          "type": "int256"
        },
        {
          "internalType": "uint256",
          "name": "effectiveWeight",
          "type": "uint256"
        }
      ],
      "stateMutability": "view",
      "type": "function",
      "constant": true
    },
    {
      "inputs": [
        {
          "internalType": "uint40",
          "name": "_circuitHash",
          "type": "uint40"
        },
        {
          "internalType": "uint256[]",
          "name": "_vk",
          "type": "uint256[]"
        },
        {
          "internalType": "bool",
          "name": "isEscrowRequired",
          "type": "bool"
        },
        {
          "internalType": "bool",
          "name": "isWithdrawing",
          "type": "bool"
        }
      ],
      "name": "registerVerificationKey",
      "outputs": [],
      "stateMutability": "nonpayable",
      "type": "function"
    },
    {
      "inputs": [
        {
          "internalType": "address",
          "name": "tokenAddr",
          "type": "address"
        }
      ],
      "name": "removeRestriction",
      "outputs": [],
      "stateMutability": "nonpayable",
      "type": "function"
    },
    {
      "inputs": [
        {
          "internalType": "uint96",
          "name": "_blockStake",
          "type": "uint96"
        }
      ],
      "name": "setBlockStake",
      "outputs": [],
      "stateMutability": "nonpayable",
      "type": "function"
    },
    {
      "inputs": [
        {
          "internalType": "address",
          "name": "challenger",
          "type": "address"
        }
      ],
      "name": "setBootChallenger",
      "outputs": [],
      "stateMutability": "nonpayable",
      "type": "function"
    },
    {
      "inputs": [
        {
          "internalType": "address",
          "name": "proposer",
          "type": "address"
        }
      ],
      "name": "setBootProposer",
      "outputs": [],
      "stateMutability": "nonpayable",
      "type": "function"
    },
    {
      "inputs": [
        {
          "internalType": "address",
          "name": "_maticAddress",
          "type": "address"
        }
      ],
      "name": "setMaticAddress",
      "outputs": [],
      "stateMutability": "nonpayable",
      "type": "function"
    },
    {
      "inputs": [
        {
          "internalType": "uint256",
          "name": "_maxProposers",
          "type": "uint256"
        }
      ],
      "name": "setMaxProposers",
      "outputs": [],
      "stateMutability": "nonpayable",
      "type": "function"
    },
    {
      "inputs": [
        {
          "internalType": "uint96",
          "name": "_minimumStake",
          "type": "uint96"
        }
      ],
      "name": "setMinimumStake",
      "outputs": [],
      "stateMutability": "nonpayable",
      "type": "function"
    },
    {
      "inputs": [
        {
          "internalType": "uint256",
          "name": "_proposerSetCount",
          "type": "uint256"
        }
      ],
      "name": "setProposerSetCount",
      "outputs": [],
      "stateMutability": "nonpayable",
      "type": "function"
    },
    {
      "inputs": [
        {
          "internalType": "address",
          "name": "tokenAddr",
          "type": "address"
        },
        {
          "internalType": "uint256",
          "name": "depositAmount",
          "type": "uint256"
        },
        {
          "internalType": "uint256",
          "name": "withdrawAmount",
          "type": "uint256"
        }
      ],
      "name": "setRestriction",
      "outputs": [],
      "stateMutability": "nonpayable",
      "type": "function"
    },
    {
      "inputs": [
        {
          "internalType": "uint256",
          "name": "_rotateProposerBlocks",
          "type": "uint256"
        }
      ],
      "name": "setRotateProposerBlocks",
      "outputs": [],
      "stateMutability": "nonpayable",
      "type": "function"
    },
    {
      "inputs": [
        {
          "internalType": "uint256",
          "name": "_sprintsInSpan",
          "type": "uint256"
        }
      ],
      "name": "setSprintsInSpan",
      "outputs": [],
      "stateMutability": "nonpayable",
      "type": "function"
    },
    {
      "inputs": [],
      "name": "shieldAddress",
      "outputs": [
        {
          "internalType": "address",
          "name": "",
          "type": "address"
        }
      ],
      "stateMutability": "view",
      "type": "function",
      "constant": true
    },
    {
      "inputs": [
        {
          "internalType": "uint256",
          "name": "",
          "type": "uint256"
        }
      ],
      "name": "slots",
      "outputs": [
        {
          "internalType": "address",
          "name": "",
          "type": "address"
        }
      ],
      "stateMutability": "view",
      "type": "function",
      "constant": true
    },
    {
      "inputs": [
        {
          "internalType": "uint256",
          "name": "",
          "type": "uint256"
        }
      ],
      "name": "spanProposersList",
      "outputs": [
        {
          "internalType": "address",
          "name": "",
          "type": "address"
        }
      ],
      "stateMutability": "view",
      "type": "function",
      "constant": true
    },
    {
      "inputs": [
        {
          "internalType": "address",
          "name": "",
          "type": "address"
        }
      ],
      "name": "stakeAccounts",
      "outputs": [
        {
          "internalType": "uint112",
          "name": "amount",
          "type": "uint112"
        },
        {
          "internalType": "uint112",
          "name": "challengeLocked",
          "type": "uint112"
        },
        {
          "internalType": "uint32",
          "name": "time",
          "type": "uint32"
        }
      ],
      "stateMutability": "view",
      "type": "function",
      "constant": true
    },
    {
      "inputs": [
        {
          "internalType": "address",
          "name": "newOwner",
          "type": "address"
        }
      ],
      "name": "transferOwnership",
      "outputs": [],
      "stateMutability": "nonpayable",
      "type": "function"
    },
    {
      "inputs": [],
      "name": "unpause",
      "outputs": [],
      "stateMutability": "nonpayable",
      "type": "function"
    },
    {
      "inputs": [
        {
          "internalType": "uint40",
          "name": "",
          "type": "uint40"
        },
        {
          "internalType": "uint256",
          "name": "",
          "type": "uint256"
        }
      ],
      "name": "verificationKey",
      "outputs": [
        {
          "internalType": "uint256",
          "name": "",
          "type": "uint256"
        }
      ],
      "stateMutability": "view",
      "type": "function",
      "constant": true
    },
    {
      "stateMutability": "payable",
      "type": "receive",
      "payable": true
    },
    {
      "inputs": [],
      "name": "initialize",
      "outputs": [],
      "stateMutability": "nonpayable",
      "type": "function"
    },
    {
      "inputs": [
        {
          "internalType": "address",
          "name": "_proposersAddress",
          "type": "address"
        },
        {
          "internalType": "address",
          "name": "_challengesAddress",
          "type": "address"
        },
        {
          "internalType": "address",
          "name": "_shieldAddress",
          "type": "address"
        }
      ],
      "name": "initializeState",
      "outputs": [],
      "stateMutability": "nonpayable",
      "type": "function"
    },
    {
      "inputs": [
        {
          "components": [
            {
              "internalType": "uint256",
              "name": "packedInfo",
              "type": "uint256"
            },
            {
              "internalType": "bytes32",
              "name": "root",
              "type": "bytes32"
            },
            {
              "internalType": "bytes32",
              "name": "previousBlockHash",
              "type": "bytes32"
            },
            {
              "internalType": "bytes32",
              "name": "frontierHash",
              "type": "bytes32"
            },
            {
              "internalType": "bytes32",
              "name": "transactionHashesRoot",
              "type": "bytes32"
            }
          ],
          "internalType": "struct Structures.Block",
          "name": "b",
          "type": "tuple"
        },
        {
          "components": [
            {
              "internalType": "uint256",
              "name": "packedInfo",
              "type": "uint256"
            },
            {
              "internalType": "uint256[]",
              "name": "historicRootBlockNumberL2",
              "type": "uint256[]"
            },
            {
              "internalType": "bytes32",
              "name": "tokenId",
              "type": "bytes32"
            },
            {
              "internalType": "bytes32",
              "name": "ercAddress",
              "type": "bytes32"
            },
            {
              "internalType": "bytes32",
              "name": "recipientAddress",
              "type": "bytes32"
            },
            {
              "internalType": "bytes32[]",
              "name": "commitments",
              "type": "bytes32[]"
            },
            {
              "internalType": "bytes32[]",
              "name": "nullifiers",
              "type": "bytes32[]"
            },
            {
              "internalType": "bytes32[2]",
              "name": "compressedSecrets",
              "type": "bytes32[2]"
            },
            {
              "internalType": "uint256[4]",
              "name": "proof",
              "type": "uint256[4]"
            }
          ],
          "internalType": "struct Structures.Transaction[]",
          "name": "t",
          "type": "tuple[]"
        }
      ],
      "name": "proposeBlock",
      "outputs": [],
      "stateMutability": "payable",
      "type": "function",
      "payable": true
    },
    {
      "inputs": [
        {
          "internalType": "bytes32",
          "name": "transactionHash",
          "type": "bytes32"
        },
        {
          "internalType": "bool",
          "name": "isEscrowed",
          "type": "bool"
        }
      ],
      "name": "setTransactionInfo",
      "outputs": [],
      "stateMutability": "nonpayable",
      "type": "function"
    },
    {
      "inputs": [
        {
          "internalType": "address",
          "name": "addr",
          "type": "address"
        },
        {
          "components": [
            {
              "internalType": "address",
              "name": "thisAddress",
              "type": "address"
            },
            {
              "internalType": "address",
              "name": "previousAddress",
              "type": "address"
            },
            {
              "internalType": "address",
              "name": "nextAddress",
              "type": "address"
            },
            {
              "internalType": "string",
              "name": "url",
              "type": "string"
            },
            {
              "internalType": "uint256",
              "name": "fee",
              "type": "uint256"
            },
            {
              "internalType": "bool",
              "name": "inProposerSet",
              "type": "bool"
            },
            {
              "internalType": "uint256",
              "name": "indexProposerSet",
              "type": "uint256"
            }
          ],
          "internalType": "struct Structures.LinkedAddress",
          "name": "proposer",
          "type": "tuple"
        }
      ],
      "name": "setProposer",
      "outputs": [],
      "stateMutability": "nonpayable",
      "type": "function"
    },
    {
      "inputs": [
        {
          "internalType": "address",
          "name": "addr",
          "type": "address"
        }
      ],
      "name": "getProposer",
      "outputs": [
        {
          "components": [
            {
              "internalType": "address",
              "name": "thisAddress",
              "type": "address"
            },
            {
              "internalType": "address",
              "name": "previousAddress",
              "type": "address"
            },
            {
              "internalType": "address",
              "name": "nextAddress",
              "type": "address"
            },
            {
              "internalType": "string",
              "name": "url",
              "type": "string"
            },
            {
              "internalType": "uint256",
              "name": "fee",
              "type": "uint256"
            },
            {
              "internalType": "bool",
              "name": "inProposerSet",
              "type": "bool"
            },
            {
              "internalType": "uint256",
              "name": "indexProposerSet",
              "type": "uint256"
            }
          ],
          "internalType": "struct Structures.LinkedAddress",
          "name": "",
          "type": "tuple"
        }
      ],
      "stateMutability": "view",
      "type": "function",
      "constant": true
    },
    {
      "inputs": [
        {
          "internalType": "address",
          "name": "proposer",
          "type": "address"
        }
      ],
      "name": "setCurrentProposer",
      "outputs": [],
      "stateMutability": "nonpayable",
      "type": "function"
    },
    {
      "inputs": [],
      "name": "getCurrentProposer",
      "outputs": [
        {
          "components": [
            {
              "internalType": "address",
              "name": "thisAddress",
              "type": "address"
            },
            {
              "internalType": "address",
              "name": "previousAddress",
              "type": "address"
            },
            {
              "internalType": "address",
              "name": "nextAddress",
              "type": "address"
            },
            {
              "internalType": "string",
              "name": "url",
              "type": "string"
            },
            {
              "internalType": "uint256",
              "name": "fee",
              "type": "uint256"
            },
            {
              "internalType": "bool",
              "name": "inProposerSet",
              "type": "bool"
            },
            {
              "internalType": "uint256",
              "name": "indexProposerSet",
              "type": "uint256"
            }
          ],
          "internalType": "struct Structures.LinkedAddress",
          "name": "",
          "type": "tuple"
        }
      ],
      "stateMutability": "view",
      "type": "function",
      "constant": true
    },
    {
      "inputs": [
        {
          "internalType": "bytes32",
          "name": "blockHash",
          "type": "bytes32"
        }
      ],
      "name": "resetFeeBookBlocksInfo",
      "outputs": [],
      "stateMutability": "nonpayable",
      "type": "function"
    },
    {
      "inputs": [],
      "name": "popBlockData",
      "outputs": [
        {
          "components": [
            {
              "internalType": "bytes32",
              "name": "blockHash",
              "type": "bytes32"
            },
            {
              "internalType": "uint256",
              "name": "time",
              "type": "uint256"
            },
            {
              "internalType": "address",
              "name": "proposer",
              "type": "address"
            },
            {
              "internalType": "uint96",
              "name": "blockStake",
              "type": "uint96"
            }
          ],
          "internalType": "struct Structures.BlockData",
          "name": "",
          "type": "tuple"
        }
      ],
      "stateMutability": "nonpayable",
      "type": "function"
    },
    {
      "inputs": [
        {
          "internalType": "uint64",
          "name": "blockNumberL2",
          "type": "uint64"
        }
      ],
      "name": "getBlockData",
      "outputs": [
        {
          "components": [
            {
              "internalType": "bytes32",
              "name": "blockHash",
              "type": "bytes32"
            },
            {
              "internalType": "uint256",
              "name": "time",
              "type": "uint256"
            },
            {
              "internalType": "address",
              "name": "proposer",
              "type": "address"
            },
            {
              "internalType": "uint96",
              "name": "blockStake",
              "type": "uint96"
            }
          ],
          "internalType": "struct Structures.BlockData",
          "name": "",
          "type": "tuple"
        }
      ],
      "stateMutability": "view",
      "type": "function",
      "constant": true
    },
    {
      "inputs": [],
      "name": "getNumberOfL2Blocks",
      "outputs": [
        {
          "internalType": "uint256",
          "name": "",
          "type": "uint256"
        }
      ],
      "stateMutability": "view",
      "type": "function",
      "constant": true
    },
    {
      "inputs": [
        {
          "internalType": "address",
          "name": "addr",
          "type": "address"
        },
        {
          "internalType": "uint256",
          "name": "feesEth",
          "type": "uint256"
        },
        {
          "internalType": "uint256",
          "name": "feesMatic",
          "type": "uint256"
        }
      ],
      "name": "addPendingWithdrawal",
      "outputs": [],
      "stateMutability": "nonpayable",
      "type": "function"
    },
    {
      "inputs": [],
      "name": "withdraw",
      "outputs": [],
      "stateMutability": "nonpayable",
      "type": "function"
    },
    {
      "inputs": [
        {
          "internalType": "uint256",
          "name": "sb",
          "type": "uint256"
        }
      ],
      "name": "setProposerStartBlock",
      "outputs": [],
      "stateMutability": "nonpayable",
      "type": "function"
    },
    {
      "inputs": [
        {
          "internalType": "uint256",
          "name": "np",
          "type": "uint256"
        }
      ],
      "name": "setNumProposers",
      "outputs": [],
      "stateMutability": "nonpayable",
      "type": "function"
    },
    {
      "inputs": [],
      "name": "getNumProposers",
      "outputs": [
        {
          "internalType": "uint256",
          "name": "",
          "type": "uint256"
        }
      ],
      "stateMutability": "view",
      "type": "function",
      "constant": true
    },
    {
      "inputs": [
        {
          "internalType": "address",
          "name": "proposer",
          "type": "address"
        }
      ],
      "name": "removeProposer",
      "outputs": [],
      "stateMutability": "nonpayable",
      "type": "function"
    },
    {
      "inputs": [
        {
          "internalType": "address",
          "name": "proposer",
          "type": "address"
        },
        {
          "internalType": "string",
          "name": "url",
          "type": "string"
        },
        {
          "internalType": "uint256",
          "name": "fee",
          "type": "uint256"
        }
      ],
      "name": "updateProposer",
      "outputs": [],
      "stateMutability": "nonpayable",
      "type": "function"
    },
    {
      "inputs": [
        {
          "components": [
            {
              "internalType": "uint256",
              "name": "packedInfo",
              "type": "uint256"
            },
            {
              "internalType": "bytes32",
              "name": "root",
              "type": "bytes32"
            },
            {
              "internalType": "bytes32",
              "name": "previousBlockHash",
              "type": "bytes32"
            },
            {
              "internalType": "bytes32",
              "name": "frontierHash",
              "type": "bytes32"
            },
            {
              "internalType": "bytes32",
              "name": "transactionHashesRoot",
              "type": "bytes32"
            }
          ],
          "internalType": "struct Structures.Block",
          "name": "b",
          "type": "tuple"
        }
      ],
      "name": "isBlockReal",
      "outputs": [],
      "stateMutability": "view",
      "type": "function",
      "constant": true
    },
    {
      "inputs": [
        {
          "components": [
            {
              "internalType": "uint256",
              "name": "packedInfo",
              "type": "uint256"
            },
            {
              "internalType": "bytes32",
              "name": "root",
              "type": "bytes32"
            },
            {
              "internalType": "bytes32",
              "name": "previousBlockHash",
              "type": "bytes32"
            },
            {
              "internalType": "bytes32",
              "name": "frontierHash",
              "type": "bytes32"
            },
            {
              "internalType": "bytes32",
              "name": "transactionHashesRoot",
              "type": "bytes32"
            }
          ],
          "internalType": "struct Structures.Block",
          "name": "b",
          "type": "tuple"
        },
        {
          "components": [
            {
              "internalType": "uint256",
              "name": "packedInfo",
              "type": "uint256"
            },
            {
              "internalType": "uint256[]",
              "name": "historicRootBlockNumberL2",
              "type": "uint256[]"
            },
            {
              "internalType": "bytes32",
              "name": "tokenId",
              "type": "bytes32"
            },
            {
              "internalType": "bytes32",
              "name": "ercAddress",
              "type": "bytes32"
            },
            {
              "internalType": "bytes32",
              "name": "recipientAddress",
              "type": "bytes32"
            },
            {
              "internalType": "bytes32[]",
              "name": "commitments",
              "type": "bytes32[]"
            },
            {
              "internalType": "bytes32[]",
              "name": "nullifiers",
              "type": "bytes32[]"
            },
            {
              "internalType": "bytes32[2]",
              "name": "compressedSecrets",
              "type": "bytes32[2]"
            },
            {
              "internalType": "uint256[4]",
              "name": "proof",
              "type": "uint256[4]"
            }
          ],
          "internalType": "struct Structures.Transaction[]",
          "name": "ts",
          "type": "tuple[]"
        }
      ],
      "name": "areBlockAndTransactionsReal",
      "outputs": [],
      "stateMutability": "view",
      "type": "function",
      "constant": true
    },
    {
      "inputs": [
        {
          "components": [
            {
              "internalType": "uint256",
              "name": "packedInfo",
              "type": "uint256"
            },
            {
              "internalType": "bytes32",
              "name": "root",
              "type": "bytes32"
            },
            {
              "internalType": "bytes32",
              "name": "previousBlockHash",
              "type": "bytes32"
            },
            {
              "internalType": "bytes32",
              "name": "frontierHash",
              "type": "bytes32"
            },
            {
              "internalType": "bytes32",
              "name": "transactionHashesRoot",
              "type": "bytes32"
            }
          ],
          "internalType": "struct Structures.Block",
          "name": "b",
          "type": "tuple"
        },
        {
          "components": [
            {
              "internalType": "uint256",
              "name": "packedInfo",
              "type": "uint256"
            },
            {
              "internalType": "uint256[]",
              "name": "historicRootBlockNumberL2",
              "type": "uint256[]"
            },
            {
              "internalType": "bytes32",
              "name": "tokenId",
              "type": "bytes32"
            },
            {
              "internalType": "bytes32",
              "name": "ercAddress",
              "type": "bytes32"
            },
            {
              "internalType": "bytes32",
              "name": "recipientAddress",
              "type": "bytes32"
            },
            {
              "internalType": "bytes32[]",
              "name": "commitments",
              "type": "bytes32[]"
            },
            {
              "internalType": "bytes32[]",
              "name": "nullifiers",
              "type": "bytes32[]"
            },
            {
              "internalType": "bytes32[2]",
              "name": "compressedSecrets",
              "type": "bytes32[2]"
            },
            {
              "internalType": "uint256[4]",
              "name": "proof",
              "type": "uint256[4]"
            }
          ],
          "internalType": "struct Structures.Transaction",
          "name": "t",
          "type": "tuple"
        },
        {
          "internalType": "uint256",
          "name": "index",
          "type": "uint256"
        },
        {
          "internalType": "bytes32[]",
          "name": "siblingPath",
          "type": "bytes32[]"
        }
      ],
      "name": "areBlockAndTransactionReal",
      "outputs": [
        {
          "internalType": "bytes32",
          "name": "",
          "type": "bytes32"
        }
      ],
      "stateMutability": "view",
      "type": "function",
      "constant": true
    },
    {
      "inputs": [
        {
          "internalType": "address",
          "name": "addr",
          "type": "address"
        },
        {
          "internalType": "uint256",
          "name": "amount",
          "type": "uint256"
        },
        {
          "internalType": "uint256",
          "name": "challengeLocked",
          "type": "uint256"
        }
      ],
      "name": "setStakeAccount",
      "outputs": [],
      "stateMutability": "nonpayable",
      "type": "function"
    },
    {
      "inputs": [
        {
          "internalType": "address",
          "name": "addr",
          "type": "address"
        }
      ],
      "name": "getStakeAccount",
      "outputs": [
        {
          "components": [
            {
              "internalType": "uint112",
              "name": "amount",
              "type": "uint112"
            },
            {
              "internalType": "uint112",
              "name": "challengeLocked",
              "type": "uint112"
            },
            {
              "internalType": "uint32",
              "name": "time",
              "type": "uint32"
            }
          ],
          "internalType": "struct Structures.TimeLockedStake",
          "name": "",
          "type": "tuple"
        }
      ],
      "stateMutability": "view",
      "type": "function",
      "constant": true
    },
    {
      "inputs": [
        {
          "internalType": "address",
          "name": "challengerAddr",
          "type": "address"
        },
        {
          "internalType": "address",
          "name": "proposer",
          "type": "address"
        },
        {
          "components": [
            {
              "internalType": "bytes32",
              "name": "blockHash",
              "type": "bytes32"
            },
            {
              "internalType": "uint256",
              "name": "time",
              "type": "uint256"
            },
            {
              "internalType": "address",
              "name": "proposer",
              "type": "address"
            },
            {
              "internalType": "uint96",
              "name": "blockStake",
              "type": "uint96"
            }
          ],
          "internalType": "struct Structures.BlockData[]",
          "name": "badBlocks",
          "type": "tuple[]"
        }
      ],
      "name": "rewardChallenger",
      "outputs": [],
      "stateMutability": "nonpayable",
      "type": "function"
    },
    {
      "inputs": [
        {
          "internalType": "address",
          "name": "addr",
          "type": "address"
        },
        {
          "internalType": "uint256",
          "name": "time",
          "type": "uint256"
        }
      ],
      "name": "updateStakeAccountTime",
      "outputs": [],
      "stateMutability": "nonpayable",
      "type": "function"
    },
    {
      "inputs": [
        {
          "internalType": "bytes32",
          "name": "blockHash",
          "type": "bytes32"
        }
      ],
      "name": "setBlockStakeWithdrawn",
      "outputs": [],
      "stateMutability": "nonpayable",
      "type": "function"
    },
    {
      "inputs": [],
      "name": "changeCurrentProposer",
      "outputs": [],
      "stateMutability": "nonpayable",
      "type": "function"
    },
    {
      "inputs": [],
      "name": "fillSlots",
      "outputs": [],
      "stateMutability": "nonpayable",
      "type": "function"
    }
  ],
  "bytecode": "0x608060405234801561001057600080fd5b50615e5280620000216000396000f3fe60806040526004361061037c5760003560e01c806305eb81e61461038857806309d632d3146103ac5780630db12df5146103ce57806311ef8f7e146103ee578063120f66df14610403578063146eb2221461042357806318177497146104435780631c111daf146104765780631c420682146104cc5780631f84bb2a1461052657806325c2478c14610553578063262f60851461057357806328340f17146105fd5780632bec09be1461061b5780633195a4e71461063b57806334cdf78d1461065b57806337da8877146106b3578063387dd9e9146106d35780633b10244b146106f35780633ccfd60b146107155780633f1f15fc1461072a5780633f4ba83a1461074a57806342646c681461075f578063496879c11461077d5780634d2ac261146107de57806353c9ad77146107fe57806359bab40f146108145780635c975abb146108295780635f8a96d21461084d57806369a5b9501461089657806377603f4a146108b657806379edadfe146108cb5780638129fc1c1461091b57806383b6ebe5146109305780638456cb5914610950578063851a974c14610965578063875840ce14610985578063894f7d621461099a5780638a7ee83d146109ba5780638da5cb5b146109da5780639227ae15146109ef5780639588a5b614610a0f5780639aa0758614610a2f5780639b0cd42d14610a4f5780639b3d060a14610a6f5780639be0d3dd14610a8f5780639c18de9314610abf5780639c33595814610adf578063a029080514610aff578063a2a4dd1314610b1f578063a94e550814610b69578063aa411d5b14610b89578063ac622cdc14610ba9578063af52ca6914610bc9578063b0a9fd0f14610be9578063b0c9569a14610c21578063b13a8c0714610c36578063b2bdfa7b14610c56578063b6cf02b614610c76578063bb7affc114610c96578063bcb4dbc214610cb6578063bf2c94db14610cd6578063c2c5bb6e14610cf6578063c300db9b14610d16578063c34590e114610d2b578063c83daadc14610d3e578063d87965d214610d53578063d9bbd27814610d69578063e2b2c30c14610d87578063e3b7c92414610da7578063e57466fd14610dbd578063efedffa814610e3a578063f0832a2414610e4f578063f2fde38b14610e6f578063f41f339f14610e8f578063f5351e0c14610eaf578063f560a79214610ecf578063f5a6b99514610eef578063fe82d08214610f1c57600080fd5b3661038357005b600080fd5b34801561039457600080fd5b5060a4545b6040519081526020015b60405180910390f35b3480156103b857600080fd5b506103cc6103c7366004614c7e565b610f31565b005b3480156103da57600080fd5b506103cc6103e9366004614c9b565b611057565b3480156103fa57600080fd5b5060b454610399565b34801561040f57600080fd5b5061039961041e366004614c7e565b6110bd565b34801561042f57600080fd5b506103cc61043e366004614cc7565b6110e0565b34801561044f57600080fd5b5061046361045e366004614c7e565b61111d565b6040516103a39796959493929190614d30565b34801561048257600080fd5b50610496610491366004614c7e565b6111f6565b6040805182516001600160701b039081168252602080850151909116908201529181015163ffffffff16908201526060016103a3565b3480156104d857600080fd5b506104e1611258565b6040516103a3919081518152602080830151908201526040808301516001600160a01b0316908201526060918201516001600160601b03169181019190915260800190565b34801561053257600080fd5b5060b354610546906001600160a01b031681565b6040516103a39190614d83565b34801561055f57600080fd5b506103cc61056e366004614dfa565b611348565b34801561057f57600080fd5b506105de61058e366004614e62565b60408051808201909152600080825260208201525064ffffffffff1660009081526099602090815260409182902082518084019093525460ff808216151584526101009091041615159082015290565b60408051825115158152602092830151151592810192909252016103a3565b34801561060957600080fd5b50609f546001600160a01b0316610546565b34801561062757600080fd5b506103cc610636366004614e8b565b611438565b34801561064757600080fd5b506103cc610656366004614cc7565b6114fc565b34801561066757600080fd5b5061067b610676366004614cc7565b611539565b6040516103a3949392919093845260208401929092526001600160a01b031660408301526001600160601b0316606082015260800190565b3480156106bf57600080fd5b506103cc6106ce366004614e62565b611587565b3480156106df57600080fd5b506105466106ee366004614cc7565b6115fe565b3480156106ff57600080fd5b50610708611628565b6040516103a39190614f05565b34801561072157600080fd5b506103cc611721565b34801561073657600080fd5b506103cc610745366004614f7a565b61187a565b34801561075657600080fd5b506103cc6118ce565b34801561076b57600080fd5b5060a0546001600160a01b0316610546565b34801561078957600080fd5b506107bf610798366004614cc7565b60a8602052600090815260409020546001600160f81b03811690600160f81b900460ff1682565b604080516001600160f81b0390931683529015156020830152016103a3565b3480156107ea57600080fd5b5060b154610546906001600160a01b031681565b34801561080a57600080fd5b5061039960b45481565b34801561082057600080fd5b506103cc611910565b34801561083557600080fd5b5060655460ff165b60405190151581526020016103a3565b34801561085957600080fd5b50610881610868366004614c7e565b60a5602052600090815260409020805460019091015482565b604080519283526020830191909152016103a3565b3480156108a257600080fd5b506103cc6108b1366004614c7e565b611f6d565b3480156108c257600080fd5b506103cc611fc5565b3480156108d757600080fd5b506109046108e6366004614e62565b60996020526000908152604090205460ff8082169161010090041682565b6040805192151583529015156020830152016103a3565b34801561092757600080fd5b506103cc6122da565b34801561093c57600080fd5b506104e161094b366004614fd0565b6122fa565b34801561095c57600080fd5b506103cc6123d9565b34801561097157600080fd5b50610708610980366004614c7e565b612419565b34801561099157600080fd5b50609d54610399565b3480156109a657600080fd5b506103cc6109b5366004615010565b61252d565b3480156109c657600080fd5b506103cc6109d5366004614cc7565b612591565b3480156109e657600080fd5b506105466125c0565b3480156109fb57600080fd5b506103cc610a0a36600461502b565b6125cf565b348015610a1b57600080fd5b50610546610a2a366004614cc7565b61268e565b348015610a3b57600080fd5b506103cc610a4a36600461502b565b61269e565b348015610a5b57600080fd5b506103cc610a6a3660046150ce565b612717565b348015610a7b57600080fd5b5060b254610546906001600160a01b031681565b348015610a9b57600080fd5b5061083d610aaa366004614cc7565b60a36020526000908152604090205460ff1681565b348015610acb57600080fd5b506103cc610ada36600461502b565b612914565b348015610aeb57600080fd5b506103cc610afa366004614cc7565b61296f565b348015610b0b57600080fd5b506103cc610b1a3660046151e6565b6129b7565b348015610b2b57600080fd5b50610b3f610b3a366004614cc7565b612a2c565b604080516001600160a01b03909516855260208501939093529183015260608201526080016103a3565b348015610b7557600080fd5b506103cc610b84366004614cc7565b612a70565b348015610b9557600080fd5b506103cc610ba4366004614c7e565b612acd565b348015610bb557600080fd5b50610399610bc4366004615270565b612b27565b348015610bd557600080fd5b506103cc610be4366004614cc7565b612b58565b348015610bf557600080fd5b50609a54600160601b90046001600160601b03166040516001600160601b0390911681526020016103a3565b348015610c2d57600080fd5b50609e54610399565b348015610c4257600080fd5b506103cc610c51366004615010565b612b95565b348015610c6257600080fd5b50609754610546906001600160a01b031681565b348015610c8257600080fd5b506103cc610c9136600461528c565b612bef565b348015610ca257600080fd5b506103cc610cb1366004614c7e565b612c8d565b348015610cc257600080fd5b506103cc610cd1366004614cc7565b612d11565b348015610ce257600080fd5b506103cc610cf1366004614cc7565b612d73565b348015610d0257600080fd5b50610399610d11366004614c7e565b612db0565b348015610d2257600080fd5b50610546612dce565b6103cc610d39366004614dfa565b612ddd565b348015610d4a57600080fd5b50609b54610399565b348015610d5f57600080fd5b5061039960b05481565b348015610d7557600080fd5b50609a546001600160601b0316610399565b348015610d9357600080fd5b506103cc610da2366004614c7e565b6134a9565b348015610db357600080fd5b5061039960b75481565b348015610dc957600080fd5b50610e0e610dd8366004614c7e565b60a7602052600090815260409020546001600160701b0380821691600160701b810490911690600160e01b900463ffffffff1683565b604080516001600160701b03948516815293909216602084015263ffffffff16908201526060016103a3565b348015610e4657600080fd5b50609c54610399565b348015610e5b57600080fd5b506103cc610e6a3660046152a8565b613572565b348015610e7b57600080fd5b506103cc610e8a366004614c7e565b6136c9565b348015610e9b57600080fd5b50610399610eaa3660046152f3565b613768565b348015610ebb57600080fd5b506103cc610eca366004615382565b6138e8565b348015610edb57600080fd5b506103cc610eea366004614c7e565b613932565b348015610efb57600080fd5b50610f0f610f0a366004614e62565b6139b6565b6040516103a391906153a7565b348015610f2857600080fd5b50610463613a20565b60b1546001600160a01b0316331480610f54575060b2546001600160a01b031633145b610f795760405162461bcd60e51b8152600401610f70906153eb565b60405180910390fd5b610f8281613a4c565b60a9546001600160a01b0382811691161480610fa7575060a9546001600160a01b0316155b156110545760ab80546001600160a01b03808216600090815260a660205260409020805460a980549184166001600160a01b0319928316178155600183015460aa805491861691841691909117905560028301549093169316929092179092559060ac61101760038401826154c5565b5060048281015490820155600580830154908201805460ff191660ff9092161515919091179055600691820154910155600060b055611054611fc5565b50565b60b1546001600160a01b031633146110815760405162461bcd60e51b8152600401610f709061559f565b6001600160a01b03909116600090815260a760205260409020805463ffffffff909216600160e01b026001600160e01b03909216919091179055565b6001600160a01b038116600090815260a26020526040812060015b015492915050565b6110e86125c0565b6001600160a01b0316336001600160a01b0316146111185760405162461bcd60e51b8152600401610f7090615600565b609c55565b60a66020526000908152604090208054600182015460028301546003840180546001600160a01b039485169593851694909216929161115b90615436565b80601f016020809104026020016040519081016040528092919081815260200182805461118790615436565b80156111d45780601f106111a9576101008083540402835291602001916111d4565b820191906000526020600020905b8154815290600101906020018083116111b757829003601f168201915b50505050600483015460058401546006909401549293909260ff909116915087565b6111fe614ada565b506001600160a01b0316600090815260a76020908152604091829020825160608101845290546001600160701b038082168352600160701b82041692820192909252600160e01b90910463ffffffff169181019190915290565b611260614afa565b60b2546001600160a01b0316331461128a5760405162461bcd60e51b8152600401610f709061564e565b60a480546000919061129e906001906156b1565b815481106112ae576112ae6155ea565b600091825260209182902060408051608081018252600393909302909101805483526001810154938301939093526002909201546001600160a01b03811692820192909252600160a01b9091046001600160601b0316606082015260a48054919250908061131e5761131e6156ca565b60008281526020812060036000199093019283020181815560018101829055600201559055905090565b61135183612bef565b60405163bd98fe6560e01b815273__Utils_________________________________9063bd98fe659061138a908590859060040161576c565b602060405180830381865af41580156113a7573d6000803e3d6000fd5b505050506040513d601f19601f820116820180604052508101906113cb919061588a565b8360800135146114335760405162461bcd60e51b815260206004820152602d60248201527f53746174653a205472616e73616374696f6e2068617368657320726f6f74206460448201526c0decae640dcdee840dac2e8c6d609b1b6064820152608401610f70565b505050565b6114406125c0565b6001600160a01b0316336001600160a01b0316146114705760405162461bcd60e51b8152600401610f7090615600565b64ffffffffff85166000908152609860205260409020611491908585614b21565b5064ffffffffff8516600081815260996020908152604091829020805461ffff19166101008715150260ff19161785151517905590519182527f679dd26628f18acc43c1e591d0ddc4cbbbd57605f0f97cc36bb476d8cffdcbb7910160405180910390a15050505050565b6115046125c0565b6001600160a01b0316336001600160a01b0316146115345760405162461bcd60e51b8152600401610f7090615600565b609e55565b60a4818154811061154957600080fd5b60009182526020909120600390910201805460018201546002909201549092506001600160a01b03811690600160a01b90046001600160601b031684565b61158f6125c0565b6001600160a01b0316336001600160a01b0316146115bf5760405162461bcd60e51b8152600401610f7090615600565b64ffffffffff811660009081526098602052604081206115de91614b6c565b64ffffffffff166000908152609960205260409020805461ffff19169055565b60b5818154811061160e57600080fd5b6000918252602090912001546001600160a01b0316905081565b611630614b8a565b6040805160e08101825260a980546001600160a01b03908116835260aa548116602084015260ab54169282019290925260ac805491929160608401919061167690615436565b80601f01602080910402602001604051908101604052809291908181526020018280546116a290615436565b80156116ef5780601f106116c4576101008083540402835291602001916116ef565b820191906000526020600020905b8154815290600101906020018083116116d257829003601f168201915b505050918352505060048201546020820152600582015460ff1615156040820152600690910154606090910152919050565b6002600154036117735760405162461bcd60e51b815260206004820152601f60248201527f5265656e7472616e637947756172643a207265656e7472616e742063616c6c006044820152606401610f70565b6002600155611780613be6565b33600090815260a560205260409020805460019091015481156118395733600081815260a560205260408082208290555190919084908381818185875af1925050503d80600081146117ee576040519150601f19603f3d011682016040523d82523d6000602084013e6117f3565b606091505b50509050806118375760405162461bcd60e51b815260206004820152601060248201526f2a3930b739b332b9103330b4b632b21760811b6044820152606401610f70565b505b80156118725733600081815260a5602052604081206001015561187290309083611861612dce565b6001600160a01b0316929190613c2c565b505060018055565b60b1546001600160a01b031633146118a45760405162461bcd60e51b8152600401610f709061559f565b6001600160a01b038216600090815260a66020526040902081906118c88282615989565b50505050565b6118d66125c0565b6001600160a01b0316336001600160a01b0316146119065760405162461bcd60e51b8152600401610f7090615600565b61190e613c86565b565b60a9546001600160a01b03166119785760405162461bcd60e51b815260206004820152602760248201527f53746174653a2043757272656e742070726f706f736572206e6f7420696e69746044820152661a585b1a5e995960ca1b6064820152608401610f70565b6040805160e08101825260a980546001600160a01b03908116835260aa548116602084015260ab54169282019290925260ac80546000939160608401916119be90615436565b80601f01602080910402602001604051908101604052809291908181526020018280546119ea90615436565b8015611a375780601f10611a0c57610100808354040283529160200191611a37565b820191906000526020600020905b815481529060010190602001808311611a1a57829003601f168201915b505050918352505060048201546020820152600582015460ff16151560408201526006909101546060909101529050611a6e614ada565b600080600a5b60a95460408601516001600160a01b03908116911614611be0578451611a99906111f6565b8051909450611ab29082906001600160701b0316615a81565b821015611ad2578351611acf9082906001600160701b0316615a81565b91505b6040808601516001600160a01b03908116600090815260a6602090815290839020835160e0810185528154841681526001820154841692810192909252600281015490921692810192909252600381018054606084019190611b3390615436565b80601f0160208091040260200160405190810160405280929190818152602001828054611b5f90615436565b8015611bac5780601f10611b8157610100808354040283529160200191611bac565b820191906000526020600020905b815481529060010190602001808311611b8f57829003601f168201915b505050918352505060048201546020820152600582015460ff16151560408201526006909101546060909101529450611a74565b8451611beb906111f6565b8051909450611c049082906001600160701b0316615a81565b821015611c24578351611c219082906001600160701b0316615a81565b91505b6040805160e08101825260a980546001600160a01b03908116835260aa548116602084015260ab54169282019290925260ac8054919291606084019190611c6a90615436565b80601f0160208091040260200160405190810160405280929190818152602001828054611c9690615436565b8015611ce35780601f10611cb857610100808354040283529160200191611ce3565b820191906000526020600020905b815481529060010190602001808311611cc657829003601f168201915b505050918352505060048201546020820152600582015460ff16151560408201526006909101546060909101529450611d1e60b56000614b6c565b60a95460408601516001600160a01b03908116911614611ed6578451611d43906111f6565b8051909450611d5c9083906001600160701b0316615a81565b925082600003611d6b57600192505b60005b83811015611dc757855160b58054600181018255600091909152600080516020615dfd8339815191520180546001600160a01b0319166001600160a01b0390921691909117905580611dbf81615a95565b915050611d6e565b506040808601516001600160a01b03908116600090815260a6602090815290839020835160e0810185528154841681526001820154841692810192909252600281015490921692810192909252600381018054606084019190611e2990615436565b80601f0160208091040260200160405190810160405280929190818152602001828054611e5590615436565b8015611ea25780601f10611e7757610100808354040283529160200191611ea2565b820191906000526020600020905b815481529060010190602001808311611e8557829003601f168201915b505050918352505060048201546020820152600582015460ff16151560408201526006909101546060909101529450611d1e565b8451611ee1906111f6565b8051909450611efa9083906001600160701b0316615a81565b925082600003611f0957600192505b60005b83811015611f6557855160b58054600181018255600091909152600080516020615dfd8339815191520180546001600160a01b0319166001600160a01b0390921691909117905580611f5d81615a95565b915050611f0c565b505050505050565b611f756125c0565b6001600160a01b0316336001600160a01b031614611fa55760405162461bcd60e51b8152600401610f7090615600565b6001600160a01b0316600090815260a26020526040812081815560010155565b609b5460b054611fd590436156b1565b1180611fe1575060b054155b80611fee5750609e546001145b6120455760405162461bcd60e51b815260206004820152602260248201527f53746174653a20546f6f20736f6f6e20746f20726f746174652070726f706f7360448201526132b960f11b6064820152608401610f70565b609e5460011480156120595750600160b454115b1561215d57609f546001600160a01b03908116600090815260a660205260409020805460a980546001600160a01b0319908116928516929092178155600183015460aa80548416918616919091179055600283015460ab805490931694169390931790559060ac6120cd60038401826154c5565b5060048281015490820155600580830154908201805460ff191660ff909216151591909117905560069182015491015560ab546001600160a01b03165b600160b454111561215b5761211e81613a4c565b6001600160a01b03908116600090815260a76020526040902080546001600160e01b0316600160e01b4263ffffffff160217905560ab541661210a565b505b6000600160b454116121805750600060b75560a9546001600160a01b03166121f2565b60b860b75481548110612195576121956155ea565b600091825260208220015460b780546001600160a01b03909216935060019290916121c1908490615aae565b9091555050609d5460b754036121d757600060b7555b60b7546000036121f2576121e9613cd2565b6121f281613cea565b6001600160a01b03808216600090815260a660205260409020805460a980546001600160a01b0319908116928516929092178155600183015460aa80548416918616919091179055600283015460ab805490931694169390931790559060ac61225e60038401826154c5565b5060048281015490820155600580830154908201805460ff191660ff90921615159190911790556006918201549101554360b05560a9546040517feaa94fa30970548bf8b78ce068ba600b923a4a62ce3c523d09bf308102ff1bab916122cf916001600160a01b0390911690614d83565b60405180910390a150565b6122e2613f70565b6122ea613fa7565b6122f2613fd6565b61190e614036565b612302614afa565b60a4546001600160401b0383161061235c5760405162461bcd60e51b815260206004820152601e60248201527f53746174653a20496e76616c696420626c6f636b206e756d626572204c3200006044820152606401610f70565b60a4826001600160401b031681548110612378576123786155ea565b600091825260209182902060408051608081018252600393909302909101805483526001810154938301939093526002909201546001600160a01b03811692820192909252600160a01b9091046001600160601b0316606082015292915050565b6123e16125c0565b6001600160a01b0316336001600160a01b0316146124115760405162461bcd60e51b8152600401610f7090615600565b61190e614065565b612421614b8a565b6001600160a01b03808316600090815260a66020908152604091829020825160e081018452815485168152600182015485169281019290925260028101549093169181019190915260038201805491929160608401919061248190615436565b80601f01602080910402602001604051908101604052809291908181526020018280546124ad90615436565b80156124fa5780601f106124cf576101008083540402835291602001916124fa565b820191906000526020600020905b8154815290600101906020018083116124dd57829003601f168201915b505050918352505060048201546020820152600582015460ff161515604082015260069091015460609091015292915050565b6125356125c0565b6001600160a01b0316336001600160a01b0316146125655760405162461bcd60e51b8152600401610f7090615600565b609a80546001600160601b03909216600160601b02600160601b600160c01b0319909216919091179055565b60b1546001600160a01b031633146125bb5760405162461bcd60e51b8152600401610f709061559f565b60b055565b6097546001600160a01b031690565b60b1546001600160a01b03163314806125f2575060b3546001600160a01b031633145b61260e5760405162461bcd60e51b8152600401610f70906153eb565b604080516060810182526001600160701b039384168152918316602080840191825260008484018181526001600160a01b03909716815260a790915291909120915182549151945163ffffffff16600160e01b026001600160e01b03958516600160701b026001600160e01b031990931691909416171792909216179055565b60b8818154811061160e57600080fd5b60b1546001600160a01b03163314806126c1575060b3546001600160a01b031633145b6126dd5760405162461bcd60e51b8152600401610f70906153eb565b60408051808201825292835260208084019283526001600160a01b03909416600090815260a5909452909220905181559051600190910155565b60b2546001600160a01b031633146127415760405162461bcd60e51b8152600401610f709061564e565b61274a82610f31565b6000805b82518110156128e057600060a7600085848151811061276f5761276f6155ea565b6020908102919091018101516040908101516001600160a01b031683528282019390935290820160002082516060808201855291546001600160701b038082168352600160701b8204811683860152600160e01b90910463ffffffff1682860152845192830190945280519093168152865192935091908201908690859081106127fb576127fb6155ea565b6020026020010151606001516001600160601b0316836020015161281f9190615ac1565b6001600160701b039081168252600060209283018190526001600160a01b038916815260a783526040908190208451815494860151959092015163ffffffff16600160e01b026001600160e01b03958416600160701b026001600160e01b03199095169290931691909117929092179290921691909117905583518490839081106128ac576128ac6155ea565b6020026020010151606001516001600160601b0316836128cc9190615aae565b925050806128d990615a95565b905061274e565b506001600160a01b038416600090815260a5602052604081208054839290612909908490615aae565b909155505050505050565b61291c6125c0565b6001600160a01b0316336001600160a01b03161461294c5760405162461bcd60e51b8152600401610f7090615600565b6001600160a01b0392909216600090815260a26020526040902090815560010155565b60b3546001600160a01b031633146129995760405162461bcd60e51b8152600401610f7090615ae8565b600090815260a86020526040902080546001600160f81b0319169055565b60b1546001600160a01b031633146129e15760405162461bcd60e51b8152600401610f709061559f565b6001600160a01b038416600090815260a660205260409020600301612a078385836158c3565b506001600160a01b03909316600090815260a660205260409020600401929092555050565b60b68181548110612a3c57600080fd5b600091825260209091206004909102018054600182015460028301546003909301546001600160a01b039092169350919084565b60b1546001600160a01b03163314612a9a5760405162461bcd60e51b8152600401610f709061559f565b60b4805490829055600282148015612ab25750806001145b15612ac957612abf613cd2565b612ac96000613cea565b5050565b612ad56125c0565b6001600160a01b0316336001600160a01b031614612b055760405162461bcd60e51b8152600401610f7090615600565b60a180546001600160a01b0319166001600160a01b0392909216919091179055565b60986020528160005260406000208181548110612b4357600080fd5b90600052602060002001600091509150505481565b612b606125c0565b6001600160a01b0316336001600160a01b031614612b905760405162461bcd60e51b8152600401610f7090615600565b609d55565b612b9d6125c0565b6001600160a01b0316336001600160a01b031614612bcd5760405162461bcd60e51b8152600401610f7090615600565b609a80546001600160601b0319166001600160601b0392909216919091179055565b60a454813560a01c906001600160401b038216108015612c435750612c13826140a2565b60a4826001600160401b031681548110612c2f57612c2f6155ea565b906000526020600020906003020160000154145b612ac95760405162461bcd60e51b815260206004820152601b60248201527a14dd185d194e88109b1bd8dac8191bd95cc81b9bdd08195e1a5cdd602a1b6044820152606401610f70565b612c956125c0565b6001600160a01b0316336001600160a01b031614612cc55760405162461bcd60e51b8152600401610f7090615600565b609f80546001600160a01b0319166001600160a01b0383169081179091556040517f5544fd39820f90f9fc4b238e0eaaf1b5ece21e6dbb69a2b0824a16876e6d0efd916122cf91614d83565b60b2546001600160a01b0316331480612d34575060b3546001600160a01b031633145b612d505760405162461bcd60e51b8152600401610f70906153eb565b600090815260a86020526040902080546001600160f81b0316600160f81b179055565b612d7b6125c0565b6001600160a01b0316336001600160a01b031614612dab5760405162461bcd60e51b8152600401610f7090615600565b609b55565b6001600160a01b038116600090815260a260205260408120816110d8565b60a1546001600160a01b031690565b60a9546001600160a01b03163314612e475760405162461bcd60e51b815260206004820152602760248201527f53746174653a204f6e6c792063757272656e742070726f706f736572206175746044820152661a1bdc9a5cd95960ca1b6064820152608401610f70565b612e4f613be6565b6001811015612ebb5760405162461bcd60e51b815260206004820152603260248201527f53746174653a20426c6f636b206d75737420636f6e7461696e206174206c656160448201527139ba1037b732903a3930b739b0b1ba34b7b760711b6064820152608401610f70565b60a454833560a01c6001600160401b031614612f155760405162461bcd60e51b815260206004820152601960248201527829ba30ba329d10213637b1b59037baba1037b31037b93232b960391b6044820152606401610f70565b60a45415612fad5760a48054612f2d906001906156b1565b81548110612f3d57612f3d6155ea565b906000526020600020906003020160000154836040013514612fad5760405162461bcd60e51b815260206004820152602360248201527f53746174653a20426c6f636b20666c61776564206f72206f7574206f66206f726044820152623232b960e91b6064820152608401610f70565b3383356001600160a01b0316146130145760405162461bcd60e51b815260206004820152602560248201527f53746174653a205468652073656e646572206973206e6f74207468652070726f6044820152643837b9b2b960d91b6064820152608401610f70565b609a5433600090815260a76020526040902054600160601b9091046001600160601b03169061304d9034906001600160701b0316615aae565b10156130b55760405162461bcd60e51b815260206004820152603160248201527f53746174653a2050726f706f73657220646f6573206e6f74206861766520656e6044820152701bdd59da08199d5b991cc81cdd185ad959607a1b6064820152608401610f70565b609a5433600090815260a76020526040902054600160601b9091046001600160601b0316906130ee9034906001600160701b0316615b31565b6130f89190615ac1565b33600090815260a76020526040902080546001600160701b0319166001600160701b0392831617808255609a54600160601b90046001600160601b031692600e9161314c918591600160701b900416615b31565b82546001600160701b039182166101009390930a92830291909202199091161790555033600090815260a76020526040812080546001600160e01b0316905580600561c3506131b1565b60015b818160020a10156131ac57600101613199565b919050565b8535860136038110156131cf576320e48c7360e11b60005260046000fd5b604051606081016131df87613196565b60020a602002810160005b888110156132cd576020816020028b01358b01600183016020028c01358c010304896001830103613224575060208181028b01358b013603045b80602002826020028c01358c016020850137602083526001810160200283208260200285015250806020028a01358a013560d81c845260996020850152600260200284205460081c80156132a9576020808302850151865260a3908601526040852054806132a75763d96541f560e01b6000528260200285015160045260246000fd5b505b506001600160601b03602082028b01358b013560781c1697909701966001016131ea565b50506132d887613196565b80156133415760005b6001820360020a8110156133375760028160200202830160016020820151158251151603613313576000826020028501525b602081015181511590151661332e5760408120826020028501525b506001016132e1565b50600019016132d8565b5080516004600019860160200201351461336657630f202aff60e21b60005260046000fd5b5082602002600482376020838102909120600081815260a88352604080822080546001600160f81b0319166001600160f81b038a161790558051608081018252838152429481019485528b356001600160a01b03908116828401908152609a546001600160601b03600160601b90910481166060850190815260a4805460018101825590885294517fe434dc35da084cf8d7e8186688ea2dacb53db7003d427af3abf351bd9d0a4e8d60039096029586015597517fe434dc35da084cf8d7e8186688ea2dacb53db7003d427af3abf351bd9d0a4e8e8501559051965116600160a01b029516949094177fe434dc35da084cf8d7e8186688ea2dacb53db7003d427af3abf351bd9d0a4e8f9094019390935591519094507f566d835e602d4aa5802ee07d3e452e755bc77623507825de7bc163a295d76c0b9190a150505050505050565b60b1546001600160a01b031633146134d35760405162461bcd60e51b8152600401610f709061559f565b6001600160a01b03808216600090815260a660205260409020805460a980546001600160a01b0319908116928516929092178155600183015460aa80548416918616919091179055600283015460ab805490931694169390931790559060ac61353f60038401826154c5565b5060048281015490820155600580830154908201805460ff191660ff909216151591909117905560069182015491015550565b600054610100900460ff16158080156135925750600054600160ff909116105b806135b357506135a130614107565b1580156135b3575060005460ff166001145b6136165760405162461bcd60e51b815260206004820152602e60248201527f496e697469616c697a61626c653a20636f6e747261637420697320616c72656160448201526d191e481a5b9a5d1a585b1a5e995960921b6064820152608401610f70565b6000805460ff191660011790558015613639576000805461ff0019166101001790555b60b180546001600160a01b038087166001600160a01b03199283161790925560b2805486841690831617905560b380549285169290911691909117905561367e6122da565b80156118c8576000805461ff0019169055604051600181527f7f26b83ff96e1f2b6a682f133852f6798a09c465da95921460cefb38474024989060200160405180910390a150505050565b6136d16125c0565b6001600160a01b0316336001600160a01b0316146137015760405162461bcd60e51b8152600401610f7090615600565b6001600160a01b03811661371457600080fd5b7f8be0079c531659141344cd1fd0a4f28419497f9722a3daafe3b4186f6b6457e061373d6125c0565b604080516001600160a01b03928316815291841660208301520160405180910390a161105481614116565b600061377386612bef565b82826000818110613786576137866155ea565b905060200201358660800135146137f35760405162461bcd60e51b815260206004820152602b60248201527f53746174653a205472616e73616374696f6e2068617368657320726f6f74206960448201526a1cc81a5b98dbdc9c9958dd60aa1b6064820152608401610f70565b60006137fe86614138565b604051630e07a40b60e01b815290915073__Utils_________________________________90630e07a40b9061383e90879087908a908790600401615b51565b602060405180830381865af415801561385b573d6000803e3d6000fd5b505050506040513d601f19601f8201168201806040525081019061387f9190615b78565b6138de5760405162461bcd60e51b815260206004820152602a60248201527f53746174653a205472616e73616374696f6e20646f6573206e6f7420657869736044820152697420696e20626c6f636b60b01b6064820152608401610f70565b9695505050505050565b60b3546001600160a01b031633146139125760405162461bcd60e51b8152600401610f7090615ae8565b600091825260a36020526040909120805460ff1916911515919091179055565b61393a6125c0565b6001600160a01b0316336001600160a01b03161461396a5760405162461bcd60e51b8152600401610f7090615600565b60a080546001600160a01b0319166001600160a01b0383169081179091556040517f210cff5548618e71293ea0d4f1f3563a68e78f00273f3acd97014aac2442ed24916122cf91614d83565b64ffffffffff8116600090815260986020908152604091829020805483518184028101840190945280845260609392830182828015613a1457602002820191906000526020600020905b815481526020019060010190808311613a00575b50505050509050919050565b60a9805460aa5460ab5460ac80546001600160a01b039485169593851694909216929161115b90615436565b6001600160a01b03808216600090815260a66020526040812060018101805460028301805484546001600160a01b0319908116865580841690945592831690558416931691613a9e6003830182614bc5565b5060006004820181905560058201805460ff19169055600690910181905560b4805491613aca83615b95565b90915550506001600160a01b03818116600081815260a6602052604080822080548786168085529284206002810180549288166001600160a01b0319938416179055549490935260010180549385169390921692909217905560a9549091161480613b42575060a9546001600160a01b038281169116145b156114335760a980546001600160a01b03808216600090815260a66020526040902080546001600160a01b0319938416908316178455600181015460aa80548516918416919091179055600281015460ab80549094169216919091179091559060ac613bb160038401826154c5565b5060048281015490820155600580830154908201805460ff191660ff9092161515919091179055600691820154910155505050565b60655460ff161561190e5760405162461bcd60e51b815260206004820152601060248201526f14185d5cd8589b194e881c185d5cd95960821b6044820152606401610f70565b604080516001600160a01b0385811660248301528416604482015260648082018490528251808303909101815260849091019091526020810180516001600160e01b03166323b872dd60e01b1790526118c890859061414b565b613c8e61421d565b6065805460ff191690557f5db9ee0a495bf2e6ff9c91a7834c1ba4fdd244a5e8aa4e537bd38aeae4b073aa335b604051613cc89190614d83565b60405180910390a1565b613cda611910565b613ce2614266565b61190e6143b2565b613d1e604051806080016040528060006001600160a01b031681526020016000815260200160008152602001600081525090565b6000613d2b60b882614b6c565b60005b609c548110156118c85760005b60b654811015613e715760b68181548110613d5857613d586155ea565b600091825260209182902060408051608081018252600490930290910180546001600160a01b0316835260018101549383019390935260028301549082015260039091015460608201819052909450613db19084615aae565b9250836060015184604001818151613dc99190615bac565b905250602084015160608501511015613df05760608401805190613dec82615a95565b9052505b6001600160a01b0385161580613e555750836040015160b660a66000886001600160a01b03166001600160a01b031681526020019081526020016000206006015481548110613e4157613e416155ea565b906000526020600020906004020160020154125b15613e5f57835194505b80613e6981615a95565b915050613d3b565b506001600160a01b038416600090815260a6602052604090206006015460b680549091908110613ea357613ea36155ea565b906000526020600020906004020160010154600014613f13576001600160a01b038416600090815260a6602052604090206006015460b680548492908110613eed57613eed6155ea565b90600052602060002090600402016002016000828254613f0d9190615bd4565b90915550505b60b880546001810182556000919091527fd91d691c894f8266e3f2d5e558ad2349d6783327a752a4949bc554f514e349880180546001600160a01b0319166001600160a01b03861617905580613f6881615a95565b915050613d2e565b600054610100900460ff16613f975760405162461bcd60e51b8152600401610f7090615bf4565b613f9f61489a565b61190e6148ca565b600054610100900460ff16613fce5760405162461bcd60e51b8152600401610f7090615bf4565b61190e61489a565b600054610100900460ff16613ffd5760405162461bcd60e51b8152600401610f7090615bf4565b61400561489a565b609a80546001600160c01b031916620f4240600160601b011790556020609b55600a609c819055609d556064609e55565b600054610100900460ff1661405d5760405162461bcd60e51b8152600401610f7090615bf4565b61190e6148f9565b61406d613be6565b6065805460ff191660011790557f62e78cea01bee320cd4e420270b5ea74000d11b0c9f74754ebdbfc544b05a258613cbb3390565b6000816040516020016140ea9190600060a082019050823582526020830135602083015260408301356040830152606083013560608301526080830135608083015292915050565b604051602081830303815290604052805190602001209050919050565b6001600160a01b03163b151590565b609780546001600160a01b0319166001600160a01b0392909216919091179055565b6000816040516020016140ea9190615c3f565b60006141a0826040518060400160405280602081526020017f5361666545524332303a206c6f772d6c6576656c2063616c6c206661696c6564815250856001600160a01b03166149269092919063ffffffff16565b80519091501561143357808060200190518101906141be9190615b78565b6114335760405162461bcd60e51b815260206004820152602a60248201527f5361666545524332303a204552433230206f7065726174696f6e20646964206e6044820152691bdd081cdd58d8d9595960b21b6064820152608401610f70565b60655460ff1661190e5760405162461bcd60e51b815260206004820152601460248201527314185d5cd8589b194e881b9bdd081c185d5cd95960621b6044820152606401610f70565b60005b60b5548110156110545760b5546000906142849083906156b1565b60408051426020820152016040516020818303038152906040528051906020012060001c6142b29190615d06565b6142bc9083615aae565b9050600060b582815481106142d3576142d36155ea565b60009182526020909120015460b580546001600160a01b0390921692509084908110614301576143016155ea565b60009182526020909120015460b580546001600160a01b03909216918490811061432d5761432d6155ea565b9060005260206000200160006101000a8154816001600160a01b0302191690836001600160a01b031602179055508060b5848154811061436f5761436f6155ea565b9060005260206000200160006101000a8154816001600160a01b0302191690836001600160a01b03160217905550505080806143aa90615a95565b915050614269565b60005b60b65481101561446d57600060a6600060b684815481106143d8576143d86155ea565b60009182526020808320600492909202909101546001600160a01b031683528201929092526040018120600501805460ff19169215159290921790915560b6805460a69183918590811061442e5761442e6155ea565b600091825260208083206004909202909101546001600160a01b031683528201929092526040019020600601558061446581615a95565b9150506143b5565b5061447a60b66000614bff565b60005b609c548110156147e157600060a6600060b584815481106144a0576144a06155ea565b60009182526020808320909101546001600160a01b039081168452838201949094526040928301909120825160e081018452815485168152600182015485169281019290925260028101549093169181019190915260038201805491929160608401919061450d90615436565b80601f016020809104026020016040519081016040528092919081815260200182805461453990615436565b80156145865780601f1061455b57610100808354040283529160200191614586565b820191906000526020600020905b81548152906001019060200180831161456957829003601f168201915b505050918352505060048201546020820152600582015460ff161515604082015260069091015460609091015260a0810151909150151560000361478f57600160a0820181905260b6805460c084018190526040805160808101825285516001600160a01b03908116825260208201868152600093830184815260608401858152978601875595845282517f3ae797ceef265e3a4f9c1978c47c759eb34a32909251dee7276db339b17b3de3600490960295860180546001600160a01b0319169190931617909155517f3ae797ceef265e3a4f9c1978c47c759eb34a32909251dee7276db339b17b3de484015592517f3ae797ceef265e3a4f9c1978c47c759eb34a32909251dee7276db339b17b3de583015592517f3ae797ceef265e3a4f9c1978c47c759eb34a32909251dee7276db339b17b3de69091015560b580549192849260a69290879081106146dc576146dc6155ea565b60009182526020808320909101546001600160a01b039081168452838201949094526040928301909120845181549085166001600160a01b03199182161782559185015160018201805491861691841691909117905591840151600283018054919094169116179091556060820151600382019061475a9082615d1a565b506080820151600482015560a082015160058201805460ff191691151591909117905560c090910151600690910155506147ce565b600160b68260c00151815481106147a8576147a86155ea565b906000526020600020906004020160010160008282546147c89190615aae565b90915550505b50806147d981615a95565b91505061447d565b5060005b60b6548110156110545760b68181548110614802576148026155ea565b90600052602060002090600402016001015460b68281548110614827576148276155ea565b90600052602060002090600402016002018190555060b6818154811061484f5761484f6155ea565b90600052602060002090600402016001015460b68281548110614874576148746155ea565b60009182526020909120600360049092020101558061489281615a95565b9150506147e5565b600054610100900460ff166148c15760405162461bcd60e51b8152600401610f7090615bf4565b61190e33614116565b600054610100900460ff166148f15760405162461bcd60e51b8152600401610f7090615bf4565b61190e61493f565b600054610100900460ff166149205760405162461bcd60e51b8152600401610f7090615bf4565b60018055565b60606149358484600085614972565b90505b9392505050565b600054610100900460ff166149665760405162461bcd60e51b8152600401610f7090615bf4565b6065805460ff19169055565b6060824710156149d35760405162461bcd60e51b815260206004820152602660248201527f416464726573733a20696e73756666696369656e742062616c616e636520666f6044820152651c8818d85b1b60d21b6064820152608401610f70565b6149dc85614107565b614a285760405162461bcd60e51b815260206004820152601d60248201527f416464726573733a2063616c6c20746f206e6f6e2d636f6e74726163740000006044820152606401610f70565b600080866001600160a01b03168587604051614a449190615dcd565b60006040518083038185875af1925050503d8060008114614a81576040519150601f19603f3d011682016040523d82523d6000602084013e614a86565b606091505b5091509150614a96828286614aa1565b979650505050505050565b60608315614ab0575081614938565b825115614ac05782518084602001fd5b8160405162461bcd60e51b8152600401610f709190615de9565b604080516060810182526000808252602082018190529181019190915290565b60408051608081018252600080825260208201819052918101829052606081019190915290565b828054828255906000526020600020908101928215614b5c579160200282015b82811115614b5c578235825591602001919060010190614b41565b50614b68929150614c20565b5090565b50805460008255906000526020600020908101906110549190614c20565b6040805160e0810182526000808252602082018190529181018290526060808201526080810182905260a0810182905260c081019190915290565b508054614bd190615436565b6000825580601f10614be1575050565b601f0160209004906000526020600020908101906110549190614c20565b50805460008255600402906000526020600020908101906110549190614c35565b5b80821115614b685760008155600101614c21565b5b80821115614b685780546001600160a01b0319168155600060018201819055600282018190556003820155600401614c36565b6001600160a01b038116811461105457600080fd5b600060208284031215614c9057600080fd5b813561493881614c69565b60008060408385031215614cae57600080fd5b8235614cb981614c69565b946020939093013593505050565b600060208284031215614cd957600080fd5b5035919050565b60005b83811015614cfb578181015183820152602001614ce3565b50506000910152565b60008151808452614d1c816020860160208601614ce0565b601f01601f19169290920160200192915050565b6001600160a01b03888116825287811660208301528616604082015260e060608201819052600090614d6490830187614d04565b60808301959095525091151560a083015260c090910152949350505050565b6001600160a01b0391909116815260200190565b600060a08284031215614da957600080fd5b50919050565b60008083601f840112614dc157600080fd5b5081356001600160401b03811115614dd857600080fd5b6020830191508360208260051b8501011115614df357600080fd5b9250929050565b600080600060c08486031215614e0f57600080fd5b614e198585614d97565b925060a08401356001600160401b03811115614e3457600080fd5b614e4086828701614daf565b9497909650939450505050565b803564ffffffffff811681146131ac57600080fd5b600060208284031215614e7457600080fd5b61493882614e4d565b801515811461105457600080fd5b600080600080600060808688031215614ea357600080fd5b614eac86614e4d565b945060208601356001600160401b03811115614ec757600080fd5b614ed388828901614daf565b9095509350506040860135614ee781614e7d565b91506060860135614ef781614e7d565b809150509295509295909350565b60208152600060018060a01b0380845116602084015280602085015116604084015280604085015116606084015250606083015160e06080840152614f4e610100840182614d04565b9050608084015160a084015260a0840151151560c084015260c084015160e08401528091505092915050565b60008060408385031215614f8d57600080fd5b8235614f9881614c69565b915060208301356001600160401b03811115614fb357600080fd5b830160e08186031215614fc557600080fd5b809150509250929050565b600060208284031215614fe257600080fd5b81356001600160401b038116811461493857600080fd5b80356001600160601b03811681146131ac57600080fd5b60006020828403121561502257600080fd5b61493882614ff9565b60008060006060848603121561504057600080fd5b833561504b81614c69565b95602085013595506040909401359392505050565b634e487b7160e01b600052604160045260246000fd5b604051608081016001600160401b038111828210171561509857615098615060565b60405290565b604051601f8201601f191681016001600160401b03811182821017156150c6576150c6615060565b604052919050565b600080600060608085870312156150e457600080fd5b84356150ef81614c69565b935060208581013561510081614c69565b93506040868101356001600160401b038082111561511d57600080fd5b818901915089601f83011261513157600080fd5b81358181111561514357615143615060565b615151858260051b0161509e565b818152858101925060079190911b83018501908b82111561517157600080fd5b928501925b818410156151d5576080848d03121561518f5760008081fd5b615197615076565b843581528685013587820152858501356151b081614c69565b818701526151bf858901614ff9565b8189015283526080939093019291850191615176565b809750505050505050509250925092565b600080600080606085870312156151fc57600080fd5b843561520781614c69565b935060208501356001600160401b038082111561522357600080fd5b818701915087601f83011261523757600080fd5b81358181111561524657600080fd5b88602082850101111561525857600080fd5b95986020929092019750949560400135945092505050565b6000806040838503121561528357600080fd5b614cb983614e4d565b600060a0828403121561529e57600080fd5b6149388383614d97565b6000806000606084860312156152bd57600080fd5b83356152c881614c69565b925060208401356152d881614c69565b915060408401356152e881614c69565b809150509250925092565b6000806000806000610100868803121561530c57600080fd5b6153168787614d97565b945060a08601356001600160401b038082111561533257600080fd5b908701906101a0828a03121561534757600080fd5b90945060c0870135935060e0870135908082111561536457600080fd5b5061537188828901614daf565b969995985093965092949392505050565b6000806040838503121561539557600080fd5b823591506020830135614fc581614e7d565b6020808252825182820181905260009190848201906040850190845b818110156153df578351835292840192918401916001016153c3565b50909695505050505050565b6020808252602b908201527f53746174653a204e6f7420617574686f726973656420746f2063616c6c20746860408201526a34b990333ab731ba34b7b760a91b606082015260800190565b600181811c9082168061544a57607f821691505b602082108103614da957634e487b7160e01b600052602260045260246000fd5b601f82111561143357600081815260208120601f850160051c810160208610156154915750805b601f850160051c820191505b81811015611f655782815560010161549d565b600019600383901b1c191660019190911b1790565b8181036154d0575050565b6154da8254615436565b6001600160401b038111156154f1576154f1615060565b615505816154ff8454615436565b8461546a565b6000601f82116001811461553357600083156155215750848201545b61552b84826154b0565b855550615598565b600085815260209020601f19841690600086815260209020845b8381101561556d578286015482556001958601959091019060200161554d565b508583101561558b5781850154600019600388901b60f8161c191681555b50505060018360011b0184555b5050505050565b6020808252602b908201527f53746174653a204f6e6c792070726f706f73657220636f6e747261637420697360408201526a08185d5d1a1bdc9a5e995960aa1b606082015260800190565b634e487b7160e01b600052603260045260246000fd5b6020808252602e908201527f596f7520617265206e6f7420617574686f726973656420746f20696e766f6b6560408201526d103a3434b990333ab731ba34b7b760911b606082015260800190565b6020808252602d908201527f53746174653a204f6e6c79206368616c6c656e67657220636f6e74726163742060408201526c1a5cc8185d5d1a1bdc9a5e9959609a1b606082015260800190565b634e487b7160e01b600052601160045260246000fd5b818103818111156156c4576156c461569b565b92915050565b634e487b7160e01b600052603160045260246000fd5b6000808335601e198436030181126156f757600080fd5b83016020810192503590506001600160401b0381111561571657600080fd5b8060051b3603821315614df357600080fd5b81835260006001600160fb1b0383111561574157600080fd5b8260051b80836020870137939093016020019392505050565b60408183375050565b60808183375050565b60208082528181018390526000906040808401600586901b850182018785805b8981101561587b57888403603f190185528235368c900361019e190181126157b2578283fd5b8b01803585526101a06157c7898301836156e0565b828b8901526157d98389018284615728565b9250505087820135888701526060808301358188015250608080830135818801525060a0615809818401846156e0565b888403838a015261581b848284615728565b935050505060c061582e818401846156e0565b888403838a0152615840848284615728565b935050505060e061585581880182850161575a565b50610120615867818801828501615763565b50958801959450509186019160010161578c565b50919998505050505050505050565b60006020828403121561589c57600080fd5b5051919050565b80546001600160a01b0319166001600160a01b0392909216919091179055565b6001600160401b038311156158da576158da615060565b6158ee836158e88354615436565b8361546a565b6000601f84116001811461591c576000851561590a5750838201355b61591486826154b0565b845550615598565b600083815260209020601f19861690835b8281101561594d578685013582556020948501946001909201910161592d565b508682101561596a5760001960f88860031b161c19848701351681555b505060018560011b0183555050505050565b600081356156c481614e7d565b813561599481614c69565b61599e81836158a3565b5060208201356159ad81614c69565b6159ba81600184016158a3565b5060408201356159c981614c69565b6159d681600284016158a3565b506060820135601e198336030181126159ee57600080fd5b820180356001600160401b03811115615a0657600080fd5b602082019150803603821315615a1b57600080fd5b615a298183600386016158c3565b505060808201356004820155615a5d615a4460a0840161597c565b6005830160ff1981541660ff8315151681178255505050565b60c082013560068201555050565b634e487b7160e01b600052601260045260246000fd5b600082615a9057615a90615a6b565b500490565b600060018201615aa757615aa761569b565b5060010190565b808201808211156156c4576156c461569b565b6001600160701b03828116828216039080821115615ae157615ae161569b565b5092915050565b60208082526029908201527f53746174653a204f6e6c7920736869656c6420636f6e747261637420697320616040820152681d5d1a1bdc9a5e995960ba1b606082015260800190565b6001600160701b03818116838216019080821115615ae157615ae161569b565b606081526000615b65606083018688615728565b6020830194909452506040015292915050565b600060208284031215615b8a57600080fd5b815161493881614e7d565b600081615ba457615ba461569b565b506000190190565b8082018281126000831280158216821582161715615bcc57615bcc61569b565b505092915050565b8181036000831280158383131683831282161715615ae157615ae161569b565b6020808252602b908201527f496e697469616c697a61626c653a20636f6e7472616374206973206e6f74206960408201526a6e697469616c697a696e6760a81b606082015260800190565b60208152813560208201526000615c5960208401846156e0565b6101a06040850152615c706101c085018284615728565b9150506040840135606084015260608401356080840152608084013560a0840152615c9e60a08501856156e0565b601f19808685030160c0870152615cb6848385615728565b9350615cc560c08801886156e0565b93509150808685030160e087015250615cdf838383615728565b92505050615cf4610100840160e0860161575a565b61493861014084016101208601615763565b600082615d1557615d15615a6b565b500690565b81516001600160401b03811115615d3357615d33615060565b615d41816154ff8454615436565b602080601f831160018114615d705760008415615d5e5750858301515b615d6885826154b0565b865550611f65565b600085815260208120601f198616915b82811015615d9f57888601518255948401946001909101908401615d80565b5085821015615dbd5787850151600019600388901b60f8161c191681555b5050505050600190811b01905550565b60008251615ddf818460208701614ce0565b9190910192915050565b6020815260006149386020830184614d0456fe22b88d74a6b23be687aa96340c881253c2e9873c526eec7366dc5f733ada306aa264697066735822122081adad2fe7a9205848168482ca86e2e3b367e5e2a18cbc8cd6a3aa75f80eeb7064736f6c63430008110033",
  "immutableReferences": {},
  "source": "// SPDX-License-Identifier: CC0-1.0\nimport '@openzeppelin/contracts-upgradeable/security/ReentrancyGuardUpgradeable.sol';\nimport '@openzeppelin/contracts-upgradeable/token/ERC20/utils/SafeERC20Upgradeable.sol';\n\n/**\nContract to hold global state that is needed by a number of other contracts,\ntogether with functions for mutating it.\n@Author Westlad\n*/\n\npragma solidity ^0.8.0;\n\nimport './Utils.sol';\nimport './Config.sol';\nimport './Pausable.sol';\nimport './Key_Registry.sol';\n\ncontract State is ReentrancyGuardUpgradeable, Pausable, Key_Registry, Config {\n    using SafeERC20Upgradeable for IERC20Upgradeable;\n\n    // global state variables\n    mapping(bytes32 => bool) public isTransactionEscrowed;\n    BlockData[] public blockHashes; // array containing mainly blockHashes\n    mapping(address => FeeTokens) public pendingWithdrawalsFees;\n    mapping(address => LinkedAddress) public proposers;\n    mapping(address => TimeLockedStake) public stakeAccounts;\n    mapping(bytes32 => BlockInfo) public blockInfo;\n    LinkedAddress public currentProposer; // who can propose a new shield state\n    uint256 public proposerStartBlock; // L1 block where currentProposer became current\n    // local state variables\n    address public proposersAddress;\n    address public challengesAddress;\n    address public shieldAddress;\n\n    uint256 public numProposers; // number of proposers\n    address[] public slots; // slots based on proposers stake\n    ProposerSet[] public proposersSet; // proposer set for next span\n    uint256 public currentSprint; // the current sprint of the span\n    address[] public spanProposersList;\n\n    function initialize() public override(Pausable, Key_Registry, Config) {\n        Pausable.initialize();\n        Key_Registry.initialize();\n        Config.initialize();\n        ReentrancyGuardUpgradeable.__ReentrancyGuard_init();\n    }\n\n    function initializeState(\n        address _proposersAddress,\n        address _challengesAddress,\n        address _shieldAddress\n    ) public initializer {\n        proposersAddress = _proposersAddress;\n        challengesAddress = _challengesAddress;\n        shieldAddress = _shieldAddress;\n        initialize();\n    }\n\n    modifier onlyShield() {\n        require(msg.sender == shieldAddress, 'State: Only shield contract is authorized');\n        _;\n    }\n\n    modifier onlyProposer() {\n        require(msg.sender == proposersAddress, 'State: Only proposer contract is authorized');\n        _;\n    }\n\n    modifier onlyChallenger() {\n        require(msg.sender == challengesAddress, 'State: Only challenger contract is authorized');\n        _;\n    }\n\n    modifier onlyCurrentProposer() {\n        // Modifier\n        require(\n            msg.sender == currentProposer.thisAddress,\n            'State: Only current proposer authorised'\n        );\n        _;\n    }\n\n    receive() external payable {\n        //fallback for payable\n    }\n\n    /**\n     * Allows a Proposer to propose a new block of state updates.\n     * @param b the block being proposed.  This function is kept in State.sol\n     * so that we don't have cross-contract calls and thus keep Gas to an absolute\n     * minimum.\n     */\n    function proposeBlock(Block calldata b, Transaction[] calldata t)\n        external\n        payable\n        onlyCurrentProposer\n        whenNotPaused\n    {\n        require(t.length >= 1, 'State: Block must contain at least one transaction');\n        require(\n            Utils.getBlockNumberL2(b.packedInfo) == blockHashes.length,\n            'State: Block out of order'\n        ); // this will fail if a tx is re-mined out of order due to a chain reorg.\n        if (blockHashes.length != 0) {\n            require(\n                b.previousBlockHash == blockHashes[blockHashes.length - 1].blockHash,\n                'State: Block flawed or out of order'\n            ); // this will fail if a tx is re-mined out of order due to a chain reorg.\n        }\n        require(\n            Utils.getProposer(b.packedInfo) == msg.sender,\n            'State: The sender is not the proposer'\n        );\n        require(\n            stakeAccounts[msg.sender].amount + msg.value >= blockStake,\n            'State: Proposer does not have enough funds staked'\n        );\n        stakeAccounts[msg.sender].amount =\n            stakeAccounts[msg.sender].amount +\n            uint112(msg.value) -\n            blockStake;\n        stakeAccounts[msg.sender].challengeLocked += blockStake;\n        stakeAccounts[msg.sender].time = 0;\n\n        uint248 feesMatic = 0;\n\n        bytes32 blockHash;\n        uint256 blockSlots = BLOCK_STRUCTURE_SLOTS; //Number of slots that the block structure has\n        uint256 maxBlockSize = MAX_BLOCK_SIZE;\n\n        assembly {\n            //Function that calculates the height of the Merkle Tree\n            function getTreeHeight(leaves) -> _height {\n                _height := 1\n                for {\n\n                } lt(exp(2, _height), leaves) {\n\n                } {\n                    _height := add(_height, 1)\n                }\n            }\n\n            if lt(maxBlockSize, sub(calldatasize(), add(t.offset, calldataload(t.offset)))) {\n                mstore(0, 0x41c918e600000000000000000000000000000000000000000000000000000000) //Custom error InvalidBlockSize\n                revert(0, 4)\n            }\n\n            let x := mload(0x40) //Gets the first free memory pointer\n            let transactionHashesPos := add(x, mul(0x20, 3)) // calculate memory location of the transaction hashes\n            let transactionPos := add(\n                transactionHashesPos,\n                mul(0x20, exp(2, getTreeHeight(t.length)))\n            )\n\n            for {\n                let i := 0\n            } lt(i, t.length) {\n                i := add(i, 1)\n            } {\n                let transactionSlots := div(\n                    sub(\n                        add(t.offset, calldataload(add(t.offset, mul(0x20, add(i, 1))))),\n                        add(t.offset, calldataload(add(t.offset, mul(0x20, i))))\n                    ),\n                    32\n                )\n\n                if eq(add(i, 1), t.length) {\n                    transactionSlots := div(\n                        sub(\n                            calldatasize(),\n                            add(t.offset, calldataload(add(t.offset, mul(0x20, i))))\n                        ),\n                        32\n                    )\n                }\n\n                // Copy the transaction into transactionPos\n                calldatacopy(\n                    add(transactionPos, 0x20),\n                    add(t.offset, calldataload(add(t.offset, mul(0x20, i)))),\n                    mul(0x20, transactionSlots)\n                )\n\n                // Calculate the hash of the transaction and store it in transactionHashesPos\n                mstore(transactionPos, 0x20)\n\n                mstore(\n                    add(transactionHashesPos, mul(0x20, i)),\n                    keccak256(transactionPos, mul(0x20, add(transactionSlots, 1)))\n                )\n\n                // We need to check if circuit requires to escrow funds\n                mstore(\n                    x,\n                    shr(216, calldataload(add(t.offset, calldataload(add(t.offset, mul(0x20, i))))))\n                )\n                mstore(add(x, 0x20), circuitInfo.slot)\n\n                let isEscrowRequired := shr(8, sload(keccak256(x, mul(0x20, 2))))\n\n                if isEscrowRequired {\n                    mstore(x, mload(add(transactionHashesPos, mul(0x20, i))))\n                    mstore(add(x, 0x20), isTransactionEscrowed.slot)\n                    let isTxEscrowed := sload(keccak256(x, mul(0x20, 2)))\n\n                    //If the funds weren't deposited, means the user sent the deposit off-chain, which is not allowed. Revert\n                    if iszero(isTxEscrowed) {\n                        mstore(\n                            0,\n                            0xd96541f500000000000000000000000000000000000000000000000000000000 //Custom error DepositNotEscrowed\n                        )\n                        mstore(0x04, mload(add(transactionHashesPos, mul(0x20, i))))\n                        revert(0, 36)\n                    }\n                }\n\n                let fee := shr(\n                    160,\n                    shl(40, calldataload(add(t.offset, calldataload(add(t.offset, mul(0x20, i))))))\n                )\n                feesMatic := add(feesMatic, fee)\n            }\n\n            //Calculate the root of the transactions merkle tree\n            for {\n                let i := getTreeHeight(t.length)\n            } gt(i, 0) {\n                i := sub(i, 1)\n            } {\n                for {\n                    let j := 0\n                } lt(j, exp(2, sub(i, 1))) {\n                    j := add(j, 1)\n                } {\n                    let leftPos := add(transactionHashesPos, mul(mul(0x20, j), 2))\n                    if eq(and(iszero(mload(leftPos)), iszero(mload(add(leftPos, 0x20)))), 1) {\n                        mstore(add(transactionHashesPos, mul(0x20, j)), 0)\n                    }\n                    if eq(and(iszero(mload(leftPos)), iszero(mload(add(leftPos, 0x20)))), 0) {\n                        mstore(add(transactionHashesPos, mul(0x20, j)), keccak256(leftPos, 0x40))\n                    }\n                }\n            }\n            // check if the transaction hashes root calculated equal to the one passed as part of block data\n            if eq(\n                eq(\n                    calldataload(add(0x04, mul(sub(blockSlots, 1), 0x20))),\n                    mload(transactionHashesPos)\n                ),\n                0\n            ) {\n                mstore(0, 0x3c80abfc00000000000000000000000000000000000000000000000000000000) //Custom error InvalidTransactionHash\n                revert(0, 4)\n            }\n            // calculate block hash\n            calldatacopy(x, 0x04, mul(0x20, blockSlots)) //Copy the block structure into x\n            blockHash := keccak256(x, mul(blockSlots, 0x20))\n        }\n        // We need to set the blockHash on chain here, because there is no way to\n        // convince a challenge function of the (in)correctness by an offchain\n        // computation; the on-chain code doesn't save the pre-image of the hash so\n        // it can't tell if it's been given the correct one as part of a challenge.\n        // To do this, we simply hash the function parameters because (1) they\n        // contain all of the relevant data (2) it doesn't take much gas.\n        // All check pass so add the block to the list of blocks waiting to be permanently added to the state - we only save the hash of the block data plus the absolute minimum of metadata - it's up to the challenger, or person requesting inclusion of the block to the permanent contract state, to provide the block data.\n\n        // Store block fees\n        blockInfo[blockHash].feesMatic = feesMatic;\n\n        // blockHash is hash of all block data and hash of all the transactions data.\n        blockHashes.push(\n            BlockData({\n                blockHash: blockHash,\n                time: block.timestamp,\n                blockStake: blockStake,\n                proposer: Utils.getProposer(b.packedInfo)\n            })\n        );\n        // Timber will listen for the BlockProposed event as well as\n        // nightfall-optimist.  The current, optimistic version of Timber does not\n        // require the smart contract to craft NewLeaf/NewLeaves events.\n        emit BlockProposed();\n    }\n\n    function setTransactionInfo(bytes32 transactionHash, bool isEscrowed) public onlyShield {\n        isTransactionEscrowed[transactionHash] = isEscrowed;\n    }\n\n    function setProposer(address addr, LinkedAddress calldata proposer) public onlyProposer {\n        proposers[addr] = proposer;\n    }\n\n    function getProposer(address addr) public view returns (LinkedAddress memory) {\n        return proposers[addr];\n    }\n\n    function setCurrentProposer(address proposer) public onlyProposer {\n        currentProposer = proposers[proposer];\n    }\n\n    function getCurrentProposer() public view returns (LinkedAddress memory) {\n        return currentProposer;\n    }\n\n    function resetFeeBookBlocksInfo(bytes32 blockHash) public onlyShield {\n        blockInfo[blockHash].feesMatic = 0;\n    }\n\n    function popBlockData() public onlyChallenger returns (BlockData memory) {\n        // oddly .pop() doesn't return the 'popped' element\n        BlockData memory popped = blockHashes[blockHashes.length - 1];\n        blockHashes.pop();\n        return popped;\n    }\n\n    function getBlockData(uint64 blockNumberL2) public view returns (BlockData memory) {\n        require(blockNumberL2 < blockHashes.length, 'State: Invalid block number L2');\n        return blockHashes[blockNumberL2];\n    }\n\n    function getNumberOfL2Blocks() public view returns (uint256) {\n        return blockHashes.length;\n    }\n\n    function addPendingWithdrawal(\n        address addr,\n        uint256 feesEth,\n        uint256 feesMatic\n    ) public {\n        require(\n            msg.sender == proposersAddress || msg.sender == shieldAddress,\n            'State: Not authorised to call this function'\n        );\n\n        pendingWithdrawalsFees[addr] = FeeTokens(feesEth, feesMatic);\n    }\n\n    function withdraw() external nonReentrant whenNotPaused {\n        uint256 amountEth = pendingWithdrawalsFees[msg.sender].feesEth;\n        uint256 amountMatic = pendingWithdrawalsFees[msg.sender].feesMatic;\n\n        if (amountEth > 0) {\n            pendingWithdrawalsFees[msg.sender].feesEth = 0;\n            (bool success, ) = payable(msg.sender).call{value: amountEth}('');\n            require(success, 'Transfer failed.');\n        }\n        if (amountMatic > 0) {\n            pendingWithdrawalsFees[msg.sender].feesMatic = 0;\n            IERC20Upgradeable(super.getMaticAddress()).safeTransferFrom(\n                address(this),\n                msg.sender,\n                amountMatic\n            );\n        }\n    }\n\n    function setProposerStartBlock(uint256 sb) public onlyProposer {\n        proposerStartBlock = sb;\n    }\n\n    function setNumProposers(uint256 np) public onlyProposer {\n        uint256 prevNumProposers = numProposers;\n        numProposers = np;\n        if (numProposers == 2 && prevNumProposers == 1) {\n            initializeSpan();\n            calculateNextProposers(address(0));\n        }\n    }\n\n    function getNumProposers() public view returns (uint256) {\n        return numProposers;\n    }\n\n    function removeProposer(address proposer) public {\n        require(\n            msg.sender == proposersAddress || msg.sender == challengesAddress,\n            'State: Not authorised to call this function'\n        );\n        _removeProposer(proposer);\n        if (proposer == currentProposer.thisAddress || currentProposer.thisAddress == address(0)) {\n            currentProposer = proposers[currentProposer.nextAddress]; // we need to refresh the current proposer before the change\n            proposerStartBlock = 0;\n            changeCurrentProposer();\n        }\n    }\n\n    function _removeProposer(address proposer) internal {\n        address previousAddress = proposers[proposer].previousAddress;\n        address nextAddress = proposers[proposer].nextAddress;\n        delete proposers[proposer];\n        numProposers--;\n        proposers[previousAddress].nextAddress = proposers[nextAddress].thisAddress;\n        proposers[nextAddress].previousAddress = proposers[previousAddress].thisAddress;\n        if (\n            previousAddress == currentProposer.thisAddress ||\n            nextAddress == currentProposer.thisAddress\n        ) {\n            currentProposer = proposers[currentProposer.thisAddress]; // we need to refresh the current proposer addresses\n        }\n    }\n\n    function updateProposer(\n        address proposer,\n        string calldata url,\n        uint256 fee\n    ) public onlyProposer {\n        proposers[proposer].url = url;\n        proposers[proposer].fee = fee;\n    }\n\n    // Checks if a block is actually referenced in the queue of blocks waiting\n    // to go into the Shield state (stops someone challenging with a non-existent\n    // block).\n    function isBlockReal(Block calldata b) public view {\n        uint64 blockNumberL2 = Utils.getBlockNumberL2(b.packedInfo);\n        require(\n            blockNumberL2 < blockHashes.length &&\n                blockHashes[blockNumberL2].blockHash == Utils.hashBlock(b),\n            'State: Block does not exist'\n        );\n    }\n\n    // Checks if a block is actually referenced in the queue of blocks waiting\n    // to go into the Shield state (stops someone challenging with a non-existent\n    // block).\n    function areBlockAndTransactionsReal(Block calldata b, Transaction[] calldata ts) public view {\n        isBlockReal(b);\n        require(\n            b.transactionHashesRoot == Utils.hashTransactionHashes(ts),\n            'State: Transaction hashes root does not match'\n        );\n    }\n\n    // Checks if a block is actually referenced in the queue of blocks waiting\n    // to go into the Shield state (stops someone challenging with a non-existent\n    // block). It also checks if a transaction is contained in a block using its sibling path\n    function areBlockAndTransactionReal(\n        Block calldata b,\n        Transaction calldata t,\n        uint256 index,\n        bytes32[] calldata siblingPath\n    ) public view returns (bytes32) {\n        isBlockReal(b);\n        require(\n            b.transactionHashesRoot == siblingPath[0],\n            'State: Transaction hashes root is incorrect'\n        );\n        bytes32 transactionHash = Utils.hashTransaction(t);\n        require(\n            Utils.checkPath(siblingPath, index, transactionHash),\n            'State: Transaction does not exist in block'\n        );\n        return transactionHash;\n    }\n\n    /**\n     * @dev Set stake account for the address addr with amount of stake and challengeLocked\n     */\n    function setStakeAccount(\n        address addr,\n        uint256 amount,\n        uint256 challengeLocked\n    ) public {\n        require(\n            msg.sender == proposersAddress || msg.sender == shieldAddress,\n            'State: Not authorised to call this function'\n        );\n        stakeAccounts[addr] = TimeLockedStake(uint112(amount), uint112(challengeLocked), 0);\n    }\n\n    /**\n     * @dev Get stake account for the address addr\n     */\n    function getStakeAccount(address addr) public view returns (TimeLockedStake memory) {\n        return stakeAccounts[addr];\n    }\n\n    function rewardChallenger(\n        address challengerAddr,\n        address proposer,\n        BlockData[] memory badBlocks\n    ) public onlyChallenger {\n        removeProposer(proposer);\n\n        uint256 rewardedStake = 0;\n        for (uint256 i = 0; i < badBlocks.length; ++i) {\n            TimeLockedStake memory stake = stakeAccounts[badBlocks[i].proposer];\n            // Give reward to challenger from the stake locked for challenges\n            stakeAccounts[proposer] = TimeLockedStake(\n                stake.amount,\n                stake.challengeLocked - badBlocks[i].blockStake,\n                0\n            );\n            rewardedStake += badBlocks[i].blockStake;\n        }\n\n        pendingWithdrawalsFees[challengerAddr].feesEth += rewardedStake;\n    }\n\n    function updateStakeAccountTime(address addr, uint256 time) public onlyProposer {\n        stakeAccounts[addr].time = uint32(time);\n    }\n\n    function setBlockStakeWithdrawn(bytes32 blockHash) public {\n        require(\n            msg.sender == challengesAddress || msg.sender == shieldAddress,\n            'State: Not authorised to call this function'\n        );\n        blockInfo[blockHash].stakeClaimed = true;\n    }\n\n    /**\n     * Each proposer gets a chance to propose blocks for a certain time, defined\n     * in Ethereum blocks.  After a certain number of blocks has passed, the\n     * proposer can be rotated by calling this function. The method for choosing\n     * the next proposer is simple rotation for now.\n     */\n    function changeCurrentProposer() public {\n        require(\n            block.number - proposerStartBlock > rotateProposerBlocks ||\n                proposerStartBlock == 0 ||\n                maxProposers == 1,\n            'State: Too soon to rotate proposer'\n        );\n\n        // if maxProposers=1 only bootProposer as proposer\n        if (maxProposers == 1 && numProposers > 1) {\n            currentProposer = proposers[bootProposer]; // the current proposer will be the boot proposer\n            address selectedProposer = currentProposer.nextAddress;\n            while (numProposers > 1) {\n                _removeProposer(selectedProposer);\n                // The selectedProposer has to wait a CHALLENGE_PERIOD from current block.timestamp\n                stakeAccounts[selectedProposer].time = uint32(block.timestamp);\n                selectedProposer = currentProposer.nextAddress;\n            }\n        }\n\n        address addressBestPeer;\n\n        if (numProposers <= 1) {\n            currentSprint = 0; // We don't have sprints because always same proposer\n            addressBestPeer = currentProposer.thisAddress;\n        } else {\n            addressBestPeer = spanProposersList[currentSprint];\n            currentSprint += 1;\n\n            if (currentSprint == sprintsInSpan) {\n                currentSprint = 0;\n            }\n\n            if (currentSprint == 0) {\n                initializeSpan();\n                calculateNextProposers(addressBestPeer);\n            }\n        }\n\n        currentProposer = proposers[addressBestPeer];\n        proposerStartBlock = block.number;\n        emit NewCurrentProposer(currentProposer.thisAddress);\n    }\n\n    function calculateNextProposers(address addressBestPeer) internal {\n        ProposerSet memory peer;\n        uint256 totalEffectiveWeight = 0;\n        delete spanProposersList;\n        for (uint256 j = 0; j < proposerSetCount; j++) {\n            for (uint256 i = 0; i < proposersSet.length; i++) {\n                peer = proposersSet[i];\n                totalEffectiveWeight += peer.effectiveWeight;\n                peer.currentWeight += int256(peer.effectiveWeight);\n\n                if (peer.effectiveWeight < peer.weight) peer.effectiveWeight++;\n                if (\n                    addressBestPeer == address(0) ||\n                    proposersSet[proposers[addressBestPeer].indexProposerSet].currentWeight <\n                    peer.currentWeight\n                ) {\n                    addressBestPeer = peer.thisAddress;\n                }\n            }\n\n            if (proposersSet[proposers[addressBestPeer].indexProposerSet].weight != 0)\n                proposersSet[proposers[addressBestPeer].indexProposerSet].currentWeight -= int256(\n                    totalEffectiveWeight\n                );\n\n            spanProposersList.push(addressBestPeer);\n        }\n    }\n\n    /**\n     * @dev Initialize a new span\n     */\n    function initializeSpan() internal {\n        fillSlots(); // 1) initialize slots based on the stake\n        shuffleSlots(); // 2) shuffle the slots\n        spanProposerSet(); // 3) pop the proposer set from shuffled slots\n    }\n\n    /**\n     * @dev Fill slots based on the weight\n     */\n    function fillSlots() public {\n        require(\n            currentProposer.thisAddress != address(0),\n            'State: Current proposer not initialized'\n        );\n        LinkedAddress memory p = currentProposer;\n        TimeLockedStake memory stake;\n        uint256 weight;\n\n        uint256 slotValue; // we calculate the slotValue depending on the proposer stakes\n        uint256 maximumSlots = 10; // maximum slots we want for the biggest proposer stake\n        while (p.nextAddress != currentProposer.thisAddress) {\n            stake = getStakeAccount(p.thisAddress);\n            if (slotValue < stake.amount / maximumSlots) {\n                slotValue = stake.amount / maximumSlots;\n            }\n            p = proposers[p.nextAddress];\n        }\n        stake = getStakeAccount(p.thisAddress);\n        if (slotValue < stake.amount / maximumSlots) {\n            slotValue = stake.amount / maximumSlots;\n        }\n\n        p = currentProposer;\n\n        // 1) remove all slots\n        delete slots;\n        // 2) assign slots based on the stake of the proposers\n        while (p.nextAddress != currentProposer.thisAddress) {\n            stake = getStakeAccount(p.thisAddress);\n            weight = stake.amount / slotValue;\n            if (weight == 0) weight = 1;\n            for (uint256 i = 0; i < weight; i++) {\n                slots.push(p.thisAddress);\n            }\n            p = proposers[p.nextAddress];\n        }\n        stake = getStakeAccount(p.thisAddress);\n        weight = stake.amount / slotValue;\n        if (weight == 0) weight = 1;\n        for (uint256 i = 0; i < weight; i++) {\n            slots.push(p.thisAddress);\n        }\n    }\n\n    /**\n     * @dev Shuffle the slots of all proposers\n     */\n    function shuffleSlots() internal {\n        for (uint256 i = 0; i < slots.length; i++) {\n            uint256 n = i +\n                (uint256(keccak256(abi.encodePacked(block.timestamp))) % (slots.length - i));\n            address temp = slots[n];\n            slots[n] = slots[i];\n            slots[i] = temp;\n        }\n    }\n\n    /**\n     * @dev Pop the proposer set for next Span\n     */\n    function spanProposerSet() internal {\n        for (uint256 i = 0; i < proposersSet.length; i++) {\n            proposers[proposersSet[i].thisAddress].inProposerSet = false;\n            proposers[proposersSet[i].thisAddress].indexProposerSet = 0;\n        }\n\n        delete proposersSet;\n\n        // add proposersSet\n        for (uint256 i = 0; i < proposerSetCount; i++) {\n            LinkedAddress memory p = proposers[slots[i]];\n            if (p.inProposerSet == false) {\n                p.inProposerSet = true;\n                p.indexProposerSet = proposersSet.length;\n                ProposerSet memory ps = ProposerSet(p.thisAddress, 1, 0, 0);\n                proposersSet.push(ps);\n                proposers[slots[i]] = p;\n            } else {\n                proposersSet[p.indexProposerSet].weight += 1;\n            }\n        }\n\n        // initialize weights for WRR\n        for (uint256 i = 0; i < proposersSet.length; i++) {\n            proposersSet[i].currentWeight = int256(proposersSet[i].weight);\n            proposersSet[i].effectiveWeight = proposersSet[i].weight;\n        }\n    }\n}\n",
  "sourcePath": "/app/contracts/State.sol",
  "compiler": {
    "name": "solc",
    "version": "0.8.17+commit.8df45f5f.Emscripten.clang"
  },
  "schemaVersion": "3.4.10",
  "updatedAt": "2022-12-16T22:06:08.841Z",
  "networkType": "ethereum",
  "devdoc": {
    "kind": "dev",
    "methods": {
      "fillSlots()": {
        "details": "Fill slots based on the weight"
      },
      "getBlockStake()": {
        "details": "Get block stake for a proposer"
      },
      "getBootChallenger()": {
        "details": "Get boot challenger address"
      },
      "getBootProposer()": {
        "details": "Get boot proposer address"
      },
      "getMaticAddress()": {
        "details": "Get Matic address (fee token for proposers payment)"
      },
      "getMaxProposers()": {
        "details": "Get maximum number of proposers"
      },
      "getMinimumStake()": {
        "details": "Get minimum stake for a proposer"
      },
      "getProposerSetCount()": {
        "details": "Get proposerset count in PoS"
      },
      "getRotateProposerBlocks()": {
        "details": "Get rotate proposer blocks for the current proposer"
      },
      "getSprintsInSpan()": {
        "details": "Get sprints in span in PoS"
      },
      "getStakeAccount(address)": {
        "details": "Get stake account for the address addr"
      },
      "owner()": {
        "details": "Tells the address of the owner",
        "returns": {
          "_0": "the address of the owner"
        }
      },
      "paused()": {
        "details": "Returns true if the contract is paused, and false otherwise."
      },
      "proposeBlock((uint256,bytes32,bytes32,bytes32,bytes32),(uint256,uint256[],bytes32,bytes32,bytes32,bytes32[],bytes32[],bytes32[2],uint256[4])[])": {
        "params": {
          "b": "the block being proposed.  This function is kept in State.sol so that we don't have cross-contract calls and thus keep Gas to an absolute minimum."
        }
      },
      "removeRestriction(address)": {
        "details": "Remove token restriction"
      },
      "setBlockStake(uint96)": {
        "details": "Set block stake for a proposer"
      },
      "setBootChallenger(address)": {
        "details": "Set boot challenger address"
      },
      "setBootProposer(address)": {
        "details": "Set boot proposer address"
      },
      "setMaticAddress(address)": {
        "details": "Set Matic address (fee token for proposers payment)"
      },
      "setMaxProposers(uint256)": {
        "details": "Set maximum number of proposers"
      },
      "setMinimumStake(uint96)": {
        "details": "Set minimum stake for a proposer"
      },
      "setProposerSetCount(uint256)": {
        "details": "Set proposerset count in PoS"
      },
      "setRestriction(address,uint256,uint256)": {
        "details": "Set token restriction"
      },
      "setRotateProposerBlocks(uint256)": {
        "details": "Set rotate proposer blocks for the current proposer"
      },
      "setSprintsInSpan(uint256)": {
        "details": "Set sprints in span in PoS"
      },
      "setStakeAccount(address,uint256,uint256)": {
        "details": "Set stake account for the address addr with amount of stake and challengeLocked"
      },
      "transferOwnership(address)": {
        "details": "Allows the current owner to transfer control of the contract to a newOwner.",
        "params": {
          "newOwner": "The address to transfer ownership to."
        }
      }
    },
    "version": 1
  },
  "userdoc": {
    "events": {
      "NewLeaf(uint256,bytes32,bytes32)": {
        "notice": "These events are what the merkle-tree microservice's filters will listen for."
      }
    },
    "kind": "user",
    "methods": {
      "changeCurrentProposer()": {
        "notice": "Each proposer gets a chance to propose blocks for a certain time, defined in Ethereum blocks.  After a certain number of blocks has passed, the proposer can be rotated by calling this function. The method for choosing the next proposer is simple rotation for now."
      },
      "proposeBlock((uint256,bytes32,bytes32,bytes32,bytes32),(uint256,uint256[],bytes32,bytes32,bytes32,bytes32[],bytes32[],bytes32[2],uint256[4])[])": {
        "notice": "Allows a Proposer to propose a new block of state updates."
      },
      "registerVerificationKey(uint40,uint256[],bool,bool)": {
        "notice": "Stores verification keys (for the 'deposit', 'depositFee', 'transfer', 'withdraw', 'tokenise' and 'burn' computations)."
      }
    },
    "version": 1
  }
}