{
  "contractName": "State",
  "abi": [
    {
      "inputs": [
        {
          "internalType": "bytes32",
          "name": "commitmentHash",
          "type": "bytes32"
        }
      ],
      "name": "CommitmentNotEscrowed",
      "type": "error"
    },
    {
      "inputs": [],
      "name": "InvalidBlockSize",
      "type": "error"
    },
    {
      "inputs": [],
      "name": "InvalidTransactionHash",
      "type": "error"
    },
    {
      "inputs": [],
      "name": "InvalidTransactionSize",
      "type": "error"
    },
    {
      "anonymous": false,
      "inputs": [],
      "name": "BlockProposed",
      "type": "event"
    },
    {
      "anonymous": false,
      "inputs": [
        {
          "indexed": false,
          "internalType": "bytes32",
          "name": "commitHash",
          "type": "bytes32"
        },
        {
          "indexed": false,
          "internalType": "address",
          "name": "sender",
          "type": "address"
        }
      ],
      "name": "CommittedToChallenge",
      "type": "event"
    },
    {
      "anonymous": false,
      "inputs": [
        {
          "indexed": false,
          "internalType": "uint8",
          "name": "version",
          "type": "uint8"
        }
      ],
      "name": "Initialized",
      "type": "event"
    },
    {
      "anonymous": false,
      "inputs": [
        {
          "indexed": false,
          "internalType": "bytes32",
          "name": "withdrawTransactionHash",
          "type": "bytes32"
        },
        {
          "indexed": false,
          "internalType": "address",
          "name": "paidBy",
          "type": "address"
        },
        {
          "indexed": false,
          "internalType": "uint256",
          "name": "amount",
          "type": "uint256"
        }
      ],
      "name": "InstantWithdrawalRequested",
      "type": "event"
    },
    {
      "anonymous": false,
      "inputs": [
        {
          "indexed": false,
          "internalType": "address",
          "name": "addr",
          "type": "address"
        }
      ],
      "name": "NewBootChallengerSet",
      "type": "event"
    },
    {
      "anonymous": false,
      "inputs": [
        {
          "indexed": false,
          "internalType": "address",
          "name": "addr",
          "type": "address"
        }
      ],
      "name": "NewBootProposerSet",
      "type": "event"
    },
    {
      "anonymous": false,
      "inputs": [
        {
          "indexed": false,
          "internalType": "address",
          "name": "proposer",
          "type": "address"
        }
      ],
      "name": "NewCurrentProposer",
      "type": "event"
    },
    {
      "anonymous": false,
      "inputs": [
        {
          "indexed": false,
          "internalType": "uint256",
          "name": "leafIndex",
          "type": "uint256"
        },
        {
          "indexed": false,
          "internalType": "bytes32",
          "name": "leafValue",
          "type": "bytes32"
        },
        {
          "indexed": false,
          "internalType": "bytes32",
          "name": "root",
          "type": "bytes32"
        }
      ],
      "name": "NewLeaf",
      "type": "event"
    },
    {
      "anonymous": false,
      "inputs": [
        {
          "indexed": false,
          "internalType": "uint256",
          "name": "minLeafIndex",
          "type": "uint256"
        },
        {
          "indexed": false,
          "internalType": "bytes32[]",
          "name": "leafValues",
          "type": "bytes32[]"
        },
        {
          "indexed": false,
          "internalType": "bytes32",
          "name": "root",
          "type": "bytes32"
        }
      ],
      "name": "NewLeaves",
      "type": "event"
    },
    {
      "anonymous": false,
      "inputs": [
        {
          "indexed": false,
          "internalType": "address",
          "name": "previousOwner",
          "type": "address"
        },
        {
          "indexed": false,
          "internalType": "address",
          "name": "newOwner",
          "type": "address"
        }
      ],
      "name": "OwnershipTransferred",
      "type": "event"
    },
    {
      "anonymous": false,
      "inputs": [
        {
          "indexed": false,
          "internalType": "address",
          "name": "account",
          "type": "address"
        }
      ],
      "name": "Paused",
      "type": "event"
    },
    {
      "anonymous": false,
      "inputs": [
        {
          "indexed": false,
          "internalType": "uint64",
          "name": "blockNumberL2",
          "type": "uint64"
        }
      ],
      "name": "Rollback",
      "type": "event"
    },
    {
      "anonymous": false,
      "inputs": [
        {
          "indexed": false,
          "internalType": "address",
          "name": "ercAddress",
          "type": "address"
        },
        {
          "indexed": false,
          "internalType": "uint256",
          "name": "amount",
          "type": "uint256"
        }
      ],
      "name": "ShieldBalanceTransferred",
      "type": "event"
    },
    {
      "anonymous": false,
      "inputs": [],
      "name": "TransactionSubmitted",
      "type": "event"
    },
    {
      "anonymous": false,
      "inputs": [
        {
          "indexed": false,
          "internalType": "address",
          "name": "account",
          "type": "address"
        }
      ],
      "name": "Unpaused",
      "type": "event"
    },
    {
      "anonymous": false,
      "inputs": [
        {
          "indexed": false,
          "internalType": "uint40",
          "name": "circuitHash",
          "type": "uint40"
        }
      ],
      "name": "VkChanged",
      "type": "event"
    },
    {
      "inputs": [],
      "name": "_owner",
      "outputs": [
        {
          "internalType": "address",
          "name": "",
          "type": "address"
        }
      ],
      "stateMutability": "view",
      "type": "function",
      "constant": true
    },
    {
      "inputs": [
        {
          "internalType": "uint256",
          "name": "",
          "type": "uint256"
        }
      ],
      "name": "blockHashes",
      "outputs": [
        {
          "internalType": "bytes32",
          "name": "blockHash",
          "type": "bytes32"
        },
        {
          "internalType": "uint256",
          "name": "time",
          "type": "uint256"
        },
        {
          "internalType": "address",
          "name": "proposer",
          "type": "address"
        },
        {
          "internalType": "uint96",
          "name": "blockStake",
          "type": "uint96"
        }
      ],
      "stateMutability": "view",
      "type": "function",
      "constant": true
    },
    {
      "inputs": [
        {
          "internalType": "bytes32",
          "name": "",
          "type": "bytes32"
        }
      ],
      "name": "blockInfo",
      "outputs": [
        {
          "internalType": "uint248",
          "name": "feesL2",
          "type": "uint248"
        },
        {
          "internalType": "bool",
          "name": "stakeClaimed",
          "type": "bool"
        }
      ],
      "stateMutability": "view",
      "type": "function",
      "constant": true
    },
    {
      "inputs": [],
      "name": "challengesAddress",
      "outputs": [
        {
          "internalType": "address",
          "name": "",
          "type": "address"
        }
      ],
      "stateMutability": "view",
      "type": "function",
      "constant": true
    },
    {
      "inputs": [
        {
          "internalType": "uint40",
          "name": "",
          "type": "uint40"
        }
      ],
      "name": "circuitInfo",
      "outputs": [
        {
          "internalType": "bool",
          "name": "isWithdrawing",
          "type": "bool"
        },
        {
          "internalType": "bool",
          "name": "isEscrowRequired",
          "type": "bool"
        }
      ],
      "stateMutability": "view",
      "type": "function",
      "constant": true
    },
    {
      "inputs": [],
      "name": "currentProposer",
      "outputs": [
        {
          "internalType": "address",
          "name": "thisAddress",
          "type": "address"
        },
        {
          "internalType": "address",
          "name": "previousAddress",
          "type": "address"
        },
        {
          "internalType": "address",
          "name": "nextAddress",
          "type": "address"
        },
        {
          "internalType": "string",
          "name": "url",
          "type": "string"
        },
        {
          "internalType": "uint256",
          "name": "fee",
          "type": "uint256"
        },
        {
          "internalType": "bool",
          "name": "inProposerSet",
          "type": "bool"
        },
        {
          "internalType": "uint256",
          "name": "indexProposerSet",
          "type": "uint256"
        }
      ],
      "stateMutability": "view",
      "type": "function",
      "constant": true
    },
    {
      "inputs": [],
      "name": "currentSprint",
      "outputs": [
        {
          "internalType": "uint256",
          "name": "",
          "type": "uint256"
        }
      ],
      "stateMutability": "view",
      "type": "function",
      "constant": true
    },
    {
      "inputs": [
        {
          "internalType": "uint40",
          "name": "circuitHash",
          "type": "uint40"
        }
      ],
      "name": "deleteVerificationKey",
      "outputs": [],
      "stateMutability": "nonpayable",
      "type": "function"
    },
    {
      "inputs": [],
      "name": "getBlockStake",
      "outputs": [
        {
          "internalType": "uint96",
          "name": "",
          "type": "uint96"
        }
      ],
      "stateMutability": "view",
      "type": "function",
      "constant": true
    },
    {
      "inputs": [],
      "name": "getBootChallenger",
      "outputs": [
        {
          "internalType": "address",
          "name": "",
          "type": "address"
        }
      ],
      "stateMutability": "view",
      "type": "function",
      "constant": true
    },
    {
      "inputs": [],
      "name": "getBootProposer",
      "outputs": [
        {
          "internalType": "address",
          "name": "",
          "type": "address"
        }
      ],
      "stateMutability": "view",
      "type": "function",
      "constant": true
    },
    {
      "inputs": [
        {
          "internalType": "uint40",
          "name": "circuitHash",
          "type": "uint40"
        }
      ],
      "name": "getCircuitInfo",
      "outputs": [
        {
          "components": [
            {
              "internalType": "bool",
              "name": "isWithdrawing",
              "type": "bool"
            },
            {
              "internalType": "bool",
              "name": "isEscrowRequired",
              "type": "bool"
            }
          ],
          "internalType": "struct Structures.CircuitInfo",
          "name": "",
          "type": "tuple"
        }
      ],
      "stateMutability": "view",
      "type": "function",
      "constant": true
    },
    {
      "inputs": [],
      "name": "getFeeL2TokenAddress",
      "outputs": [
        {
          "internalType": "address",
          "name": "",
          "type": "address"
        }
      ],
      "stateMutability": "view",
      "type": "function",
      "constant": true
    },
    {
      "inputs": [],
      "name": "getMaxProposers",
      "outputs": [
        {
          "internalType": "uint256",
          "name": "",
          "type": "uint256"
        }
      ],
      "stateMutability": "view",
      "type": "function",
      "constant": true
    },
    {
      "inputs": [],
      "name": "getMinimumStake",
      "outputs": [
        {
          "internalType": "uint256",
          "name": "",
          "type": "uint256"
        }
      ],
      "stateMutability": "view",
      "type": "function",
      "constant": true
    },
    {
      "inputs": [],
      "name": "getProposerSetCount",
      "outputs": [
        {
          "internalType": "uint256",
          "name": "",
          "type": "uint256"
        }
      ],
      "stateMutability": "view",
      "type": "function",
      "constant": true
    },
    {
      "inputs": [
        {
          "internalType": "address",
          "name": "tokenAddr",
          "type": "address"
        }
      ],
      "name": "getRestrictionDeposit",
      "outputs": [
        {
          "internalType": "uint256",
          "name": "",
          "type": "uint256"
        }
      ],
      "stateMutability": "view",
      "type": "function",
      "constant": true
    },
    {
      "inputs": [
        {
          "internalType": "address",
          "name": "tokenAddr",
          "type": "address"
        }
      ],
      "name": "getRestrictionWithdraw",
      "outputs": [
        {
          "internalType": "uint256",
          "name": "",
          "type": "uint256"
        }
      ],
      "stateMutability": "view",
      "type": "function",
      "constant": true
    },
    {
      "inputs": [],
      "name": "getRotateProposerBlocks",
      "outputs": [
        {
          "internalType": "uint256",
          "name": "",
          "type": "uint256"
        }
      ],
      "stateMutability": "view",
      "type": "function",
      "constant": true
    },
    {
      "inputs": [],
      "name": "getSprintsInSpan",
      "outputs": [
        {
          "internalType": "uint256",
          "name": "",
          "type": "uint256"
        }
      ],
      "stateMutability": "view",
      "type": "function",
      "constant": true
    },
    {
      "inputs": [
        {
          "internalType": "uint40",
          "name": "circuitHash",
          "type": "uint40"
        }
      ],
      "name": "getVerificationKey",
      "outputs": [
        {
          "internalType": "uint256[]",
          "name": "",
          "type": "uint256[]"
        }
      ],
      "stateMutability": "view",
      "type": "function",
      "constant": true
    },
    {
      "inputs": [
        {
          "internalType": "bytes32",
          "name": "",
          "type": "bytes32"
        }
      ],
      "name": "isCommitmentEscrowed",
      "outputs": [
        {
          "internalType": "bool",
          "name": "",
          "type": "bool"
        }
      ],
      "stateMutability": "view",
      "type": "function",
      "constant": true
    },
    {
      "inputs": [],
      "name": "numProposers",
      "outputs": [
        {
          "internalType": "uint256",
          "name": "",
          "type": "uint256"
        }
      ],
      "stateMutability": "view",
      "type": "function",
      "constant": true
    },
    {
      "inputs": [],
      "name": "owner",
      "outputs": [
        {
          "internalType": "address",
          "name": "",
          "type": "address"
        }
      ],
      "stateMutability": "view",
      "type": "function",
      "constant": true
    },
    {
      "inputs": [],
      "name": "pause",
      "outputs": [],
      "stateMutability": "nonpayable",
      "type": "function"
    },
    {
      "inputs": [],
      "name": "paused",
      "outputs": [
        {
          "internalType": "bool",
          "name": "",
          "type": "bool"
        }
      ],
      "stateMutability": "view",
      "type": "function",
      "constant": true
    },
    {
      "inputs": [
        {
          "internalType": "address",
          "name": "",
          "type": "address"
        }
      ],
      "name": "pendingWithdrawalsFees",
      "outputs": [
        {
          "internalType": "uint256",
          "name": "feesL1",
          "type": "uint256"
        },
        {
          "internalType": "uint256",
          "name": "feesL2",
          "type": "uint256"
        }
      ],
      "stateMutability": "view",
      "type": "function",
      "constant": true
    },
    {
      "inputs": [],
      "name": "proposerStartBlock",
      "outputs": [
        {
          "internalType": "uint256",
          "name": "",
          "type": "uint256"
        }
      ],
      "stateMutability": "view",
      "type": "function",
      "constant": true
    },
    {
      "inputs": [
        {
          "internalType": "address",
          "name": "",
          "type": "address"
        }
      ],
      "name": "proposers",
      "outputs": [
        {
          "internalType": "address",
          "name": "thisAddress",
          "type": "address"
        },
        {
          "internalType": "address",
          "name": "previousAddress",
          "type": "address"
        },
        {
          "internalType": "address",
          "name": "nextAddress",
          "type": "address"
        },
        {
          "internalType": "string",
          "name": "url",
          "type": "string"
        },
        {
          "internalType": "uint256",
          "name": "fee",
          "type": "uint256"
        },
        {
          "internalType": "bool",
          "name": "inProposerSet",
          "type": "bool"
        },
        {
          "internalType": "uint256",
          "name": "indexProposerSet",
          "type": "uint256"
        }
      ],
      "stateMutability": "view",
      "type": "function",
      "constant": true
    },
    {
      "inputs": [],
      "name": "proposersAddress",
      "outputs": [
        {
          "internalType": "address",
          "name": "",
          "type": "address"
        }
      ],
      "stateMutability": "view",
      "type": "function",
      "constant": true
    },
    {
      "inputs": [
        {
          "internalType": "uint256",
          "name": "",
          "type": "uint256"
        }
      ],
      "name": "proposersSet",
      "outputs": [
        {
          "internalType": "address",
          "name": "thisAddress",
          "type": "address"
        },
        {
          "internalType": "uint256",
          "name": "weight",
          "type": "uint256"
        },
        {
          "internalType": "int256",
          "name": "currentWeight",
          "type": "int256"
        },
        {
          "internalType": "uint256",
          "name": "effectiveWeight",
          "type": "uint256"
        }
      ],
      "stateMutability": "view",
      "type": "function",
      "constant": true
    },
    {
      "inputs": [
        {
          "internalType": "uint40",
          "name": "_circuitHash",
          "type": "uint40"
        },
        {
          "internalType": "uint256[]",
          "name": "_vk",
          "type": "uint256[]"
        },
        {
          "internalType": "bool",
          "name": "isEscrowRequired",
          "type": "bool"
        },
        {
          "internalType": "bool",
          "name": "isWithdrawing",
          "type": "bool"
        }
      ],
      "name": "registerVerificationKey",
      "outputs": [],
      "stateMutability": "nonpayable",
      "type": "function"
    },
    {
      "inputs": [
        {
          "internalType": "address",
          "name": "tokenAddr",
          "type": "address"
        }
      ],
      "name": "removeRestriction",
      "outputs": [],
      "stateMutability": "nonpayable",
      "type": "function"
    },
    {
      "inputs": [
        {
          "internalType": "uint96",
          "name": "_blockStake",
          "type": "uint96"
        }
      ],
      "name": "setBlockStake",
      "outputs": [],
      "stateMutability": "nonpayable",
      "type": "function"
    },
    {
      "inputs": [
        {
          "internalType": "address",
          "name": "challenger",
          "type": "address"
        }
      ],
      "name": "setBootChallenger",
      "outputs": [],
      "stateMutability": "nonpayable",
      "type": "function"
    },
    {
      "inputs": [
        {
          "internalType": "address",
          "name": "proposer",
          "type": "address"
        }
      ],
      "name": "setBootProposer",
      "outputs": [],
      "stateMutability": "nonpayable",
      "type": "function"
    },
    {
      "inputs": [
        {
          "internalType": "address",
          "name": "_feeL2TokenAddress",
          "type": "address"
        }
      ],
      "name": "setFeeL2TokenAddress",
      "outputs": [],
      "stateMutability": "nonpayable",
      "type": "function"
    },
    {
      "inputs": [
        {
          "internalType": "uint256",
          "name": "_maxProposers",
          "type": "uint256"
        }
      ],
      "name": "setMaxProposers",
      "outputs": [],
      "stateMutability": "nonpayable",
      "type": "function"
    },
    {
      "inputs": [
        {
          "internalType": "uint96",
          "name": "_minimumStake",
          "type": "uint96"
        }
      ],
      "name": "setMinimumStake",
      "outputs": [],
      "stateMutability": "nonpayable",
      "type": "function"
    },
    {
      "inputs": [
        {
          "internalType": "uint256",
          "name": "_proposerSetCount",
          "type": "uint256"
        }
      ],
      "name": "setProposerSetCount",
      "outputs": [],
      "stateMutability": "nonpayable",
      "type": "function"
    },
    {
      "inputs": [
        {
          "internalType": "address",
          "name": "tokenAddr",
          "type": "address"
        },
        {
          "internalType": "uint256",
          "name": "depositAmount",
          "type": "uint256"
        },
        {
          "internalType": "uint256",
          "name": "withdrawAmount",
          "type": "uint256"
        }
      ],
      "name": "setRestriction",
      "outputs": [],
      "stateMutability": "nonpayable",
      "type": "function"
    },
    {
      "inputs": [
        {
          "internalType": "uint256",
          "name": "_rotateProposerBlocks",
          "type": "uint256"
        }
      ],
      "name": "setRotateProposerBlocks",
      "outputs": [],
      "stateMutability": "nonpayable",
      "type": "function"
    },
    {
      "inputs": [
        {
          "internalType": "uint256",
          "name": "_sprintsInSpan",
          "type": "uint256"
        }
      ],
      "name": "setSprintsInSpan",
      "outputs": [],
      "stateMutability": "nonpayable",
      "type": "function"
    },
    {
      "inputs": [],
      "name": "shieldAddress",
      "outputs": [
        {
          "internalType": "address",
          "name": "",
          "type": "address"
        }
      ],
      "stateMutability": "view",
      "type": "function",
      "constant": true
    },
    {
      "inputs": [
        {
          "internalType": "uint256",
          "name": "",
          "type": "uint256"
        }
      ],
      "name": "slots",
      "outputs": [
        {
          "internalType": "address",
          "name": "",
          "type": "address"
        }
      ],
      "stateMutability": "view",
      "type": "function",
      "constant": true
    },
    {
      "inputs": [
        {
          "internalType": "uint256",
          "name": "",
          "type": "uint256"
        }
      ],
      "name": "spanProposersList",
      "outputs": [
        {
          "internalType": "address",
          "name": "",
          "type": "address"
        }
      ],
      "stateMutability": "view",
      "type": "function",
      "constant": true
    },
    {
      "inputs": [
        {
          "internalType": "address",
          "name": "",
          "type": "address"
        }
      ],
      "name": "stakeAccounts",
      "outputs": [
        {
          "internalType": "uint112",
          "name": "amount",
          "type": "uint112"
        },
        {
          "internalType": "uint112",
          "name": "challengeLocked",
          "type": "uint112"
        },
        {
          "internalType": "uint32",
          "name": "time",
          "type": "uint32"
        }
      ],
      "stateMutability": "view",
      "type": "function",
      "constant": true
    },
    {
      "inputs": [
        {
          "internalType": "address",
          "name": "newOwner",
          "type": "address"
        }
      ],
      "name": "transferOwnership",
      "outputs": [],
      "stateMutability": "nonpayable",
      "type": "function"
    },
    {
      "inputs": [],
      "name": "unpause",
      "outputs": [],
      "stateMutability": "nonpayable",
      "type": "function"
    },
    {
      "inputs": [
        {
          "internalType": "uint40",
          "name": "",
          "type": "uint40"
        },
        {
          "internalType": "uint256",
          "name": "",
          "type": "uint256"
        }
      ],
      "name": "verificationKey",
      "outputs": [
        {
          "internalType": "uint256",
          "name": "",
          "type": "uint256"
        }
      ],
      "stateMutability": "view",
      "type": "function",
      "constant": true
    },
    {
      "stateMutability": "payable",
      "type": "receive",
      "payable": true
    },
    {
      "inputs": [],
      "name": "initialize",
      "outputs": [],
      "stateMutability": "nonpayable",
      "type": "function"
    },
    {
      "inputs": [
        {
          "internalType": "address",
          "name": "_proposersAddress",
          "type": "address"
        },
        {
          "internalType": "address",
          "name": "_challengesAddress",
          "type": "address"
        },
        {
          "internalType": "address",
          "name": "_shieldAddress",
          "type": "address"
        }
      ],
      "name": "initializeState",
      "outputs": [],
      "stateMutability": "nonpayable",
      "type": "function"
    },
    {
      "inputs": [
        {
          "components": [
            {
              "internalType": "uint256",
              "name": "packedInfo",
              "type": "uint256"
            },
            {
              "internalType": "bytes32",
              "name": "root",
              "type": "bytes32"
            },
            {
              "internalType": "bytes32",
              "name": "previousBlockHash",
              "type": "bytes32"
            },
            {
              "internalType": "bytes32",
              "name": "frontierHash",
              "type": "bytes32"
            },
            {
              "internalType": "bytes32",
              "name": "transactionHashesRoot",
              "type": "bytes32"
            }
          ],
          "internalType": "struct Structures.Block",
          "name": "b",
          "type": "tuple"
        },
        {
          "components": [
            {
              "internalType": "uint256",
              "name": "packedInfo",
              "type": "uint256"
            },
            {
              "internalType": "uint256[]",
              "name": "historicRootBlockNumberL2",
              "type": "uint256[]"
            },
            {
              "internalType": "bytes32",
              "name": "tokenId",
              "type": "bytes32"
            },
            {
              "internalType": "bytes32",
              "name": "ercAddress",
              "type": "bytes32"
            },
            {
              "internalType": "bytes32",
              "name": "recipientAddress",
              "type": "bytes32"
            },
            {
              "internalType": "bytes32[]",
              "name": "commitments",
              "type": "bytes32[]"
            },
            {
              "internalType": "bytes32[]",
              "name": "nullifiers",
              "type": "bytes32[]"
            },
            {
              "internalType": "bytes32[2]",
              "name": "compressedSecrets",
              "type": "bytes32[2]"
            },
            {
              "internalType": "uint256[4]",
              "name": "proof",
              "type": "uint256[4]"
            }
          ],
          "internalType": "struct Structures.Transaction[]",
          "name": "t",
          "type": "tuple[]"
        }
      ],
      "name": "proposeBlock",
      "outputs": [],
      "stateMutability": "payable",
      "type": "function",
      "payable": true
    },
    {
      "inputs": [
        {
          "internalType": "bytes32",
          "name": "commitmentHash",
          "type": "bytes32"
        }
      ],
      "name": "setCommitmentEscrowed",
      "outputs": [],
      "stateMutability": "nonpayable",
      "type": "function"
    },
    {
      "inputs": [
        {
          "internalType": "bytes32",
          "name": "commitmentHash",
          "type": "bytes32"
        }
      ],
      "name": "getCommitmentEscrowed",
      "outputs": [
        {
          "internalType": "bool",
          "name": "",
          "type": "bool"
        }
      ],
      "stateMutability": "view",
      "type": "function",
      "constant": true
    },
    {
      "inputs": [
        {
          "internalType": "address",
          "name": "addr",
          "type": "address"
        },
        {
          "components": [
            {
              "internalType": "address",
              "name": "thisAddress",
              "type": "address"
            },
            {
              "internalType": "address",
              "name": "previousAddress",
              "type": "address"
            },
            {
              "internalType": "address",
              "name": "nextAddress",
              "type": "address"
            },
            {
              "internalType": "string",
              "name": "url",
              "type": "string"
            },
            {
              "internalType": "uint256",
              "name": "fee",
              "type": "uint256"
            },
            {
              "internalType": "bool",
              "name": "inProposerSet",
              "type": "bool"
            },
            {
              "internalType": "uint256",
              "name": "indexProposerSet",
              "type": "uint256"
            }
          ],
          "internalType": "struct Structures.LinkedAddress",
          "name": "proposer",
          "type": "tuple"
        }
      ],
      "name": "setProposer",
      "outputs": [],
      "stateMutability": "nonpayable",
      "type": "function"
    },
    {
      "inputs": [
        {
          "internalType": "address",
          "name": "addr",
          "type": "address"
        }
      ],
      "name": "getProposer",
      "outputs": [
        {
          "components": [
            {
              "internalType": "address",
              "name": "thisAddress",
              "type": "address"
            },
            {
              "internalType": "address",
              "name": "previousAddress",
              "type": "address"
            },
            {
              "internalType": "address",
              "name": "nextAddress",
              "type": "address"
            },
            {
              "internalType": "string",
              "name": "url",
              "type": "string"
            },
            {
              "internalType": "uint256",
              "name": "fee",
              "type": "uint256"
            },
            {
              "internalType": "bool",
              "name": "inProposerSet",
              "type": "bool"
            },
            {
              "internalType": "uint256",
              "name": "indexProposerSet",
              "type": "uint256"
            }
          ],
          "internalType": "struct Structures.LinkedAddress",
          "name": "",
          "type": "tuple"
        }
      ],
      "stateMutability": "view",
      "type": "function",
      "constant": true
    },
    {
      "inputs": [
        {
          "internalType": "address",
          "name": "proposer",
          "type": "address"
        }
      ],
      "name": "setCurrentProposer",
      "outputs": [],
      "stateMutability": "nonpayable",
      "type": "function"
    },
    {
      "inputs": [],
      "name": "getCurrentProposer",
      "outputs": [
        {
          "components": [
            {
              "internalType": "address",
              "name": "thisAddress",
              "type": "address"
            },
            {
              "internalType": "address",
              "name": "previousAddress",
              "type": "address"
            },
            {
              "internalType": "address",
              "name": "nextAddress",
              "type": "address"
            },
            {
              "internalType": "string",
              "name": "url",
              "type": "string"
            },
            {
              "internalType": "uint256",
              "name": "fee",
              "type": "uint256"
            },
            {
              "internalType": "bool",
              "name": "inProposerSet",
              "type": "bool"
            },
            {
              "internalType": "uint256",
              "name": "indexProposerSet",
              "type": "uint256"
            }
          ],
          "internalType": "struct Structures.LinkedAddress",
          "name": "",
          "type": "tuple"
        }
      ],
      "stateMutability": "view",
      "type": "function",
      "constant": true
    },
    {
      "inputs": [
        {
          "internalType": "bytes32",
          "name": "blockHash",
          "type": "bytes32"
        }
      ],
      "name": "resetFeeBookBlocksInfo",
      "outputs": [],
      "stateMutability": "nonpayable",
      "type": "function"
    },
    {
      "inputs": [],
      "name": "popBlockData",
      "outputs": [
        {
          "components": [
            {
              "internalType": "bytes32",
              "name": "blockHash",
              "type": "bytes32"
            },
            {
              "internalType": "uint256",
              "name": "time",
              "type": "uint256"
            },
            {
              "internalType": "address",
              "name": "proposer",
              "type": "address"
            },
            {
              "internalType": "uint96",
              "name": "blockStake",
              "type": "uint96"
            }
          ],
          "internalType": "struct Structures.BlockData",
          "name": "",
          "type": "tuple"
        }
      ],
      "stateMutability": "nonpayable",
      "type": "function"
    },
    {
      "inputs": [
        {
          "internalType": "uint64",
          "name": "blockNumberL2",
          "type": "uint64"
        }
      ],
      "name": "getBlockData",
      "outputs": [
        {
          "components": [
            {
              "internalType": "bytes32",
              "name": "blockHash",
              "type": "bytes32"
            },
            {
              "internalType": "uint256",
              "name": "time",
              "type": "uint256"
            },
            {
              "internalType": "address",
              "name": "proposer",
              "type": "address"
            },
            {
              "internalType": "uint96",
              "name": "blockStake",
              "type": "uint96"
            }
          ],
          "internalType": "struct Structures.BlockData",
          "name": "",
          "type": "tuple"
        }
      ],
      "stateMutability": "view",
      "type": "function",
      "constant": true
    },
    {
      "inputs": [],
      "name": "getNumberOfL2Blocks",
      "outputs": [
        {
          "internalType": "uint256",
          "name": "",
          "type": "uint256"
        }
      ],
      "stateMutability": "view",
      "type": "function",
      "constant": true
    },
    {
      "inputs": [
        {
          "internalType": "address",
          "name": "addr",
          "type": "address"
        },
        {
          "internalType": "uint256",
          "name": "feesL1",
          "type": "uint256"
        },
        {
          "internalType": "uint256",
          "name": "feesL2",
          "type": "uint256"
        }
      ],
      "name": "addPendingWithdrawal",
      "outputs": [],
      "stateMutability": "nonpayable",
      "type": "function"
    },
    {
      "inputs": [],
      "name": "withdraw",
      "outputs": [],
      "stateMutability": "nonpayable",
      "type": "function"
    },
    {
      "inputs": [
        {
          "internalType": "uint256",
          "name": "sb",
          "type": "uint256"
        }
      ],
      "name": "setProposerStartBlock",
      "outputs": [],
      "stateMutability": "nonpayable",
      "type": "function"
    },
    {
      "inputs": [
        {
          "internalType": "uint256",
          "name": "np",
          "type": "uint256"
        }
      ],
      "name": "setNumProposers",
      "outputs": [],
      "stateMutability": "nonpayable",
      "type": "function"
    },
    {
      "inputs": [],
      "name": "getNumProposers",
      "outputs": [
        {
          "internalType": "uint256",
          "name": "",
          "type": "uint256"
        }
      ],
      "stateMutability": "view",
      "type": "function",
      "constant": true
    },
    {
      "inputs": [
        {
          "internalType": "address",
          "name": "proposer",
          "type": "address"
        }
      ],
      "name": "removeProposer",
      "outputs": [],
      "stateMutability": "nonpayable",
      "type": "function"
    },
    {
      "inputs": [
        {
          "internalType": "address",
          "name": "proposer",
          "type": "address"
        },
        {
          "internalType": "string",
          "name": "url",
          "type": "string"
        },
        {
          "internalType": "uint256",
          "name": "fee",
          "type": "uint256"
        }
      ],
      "name": "updateProposer",
      "outputs": [],
      "stateMutability": "nonpayable",
      "type": "function"
    },
    {
      "inputs": [
        {
          "components": [
            {
              "internalType": "uint256",
              "name": "packedInfo",
              "type": "uint256"
            },
            {
              "internalType": "bytes32",
              "name": "root",
              "type": "bytes32"
            },
            {
              "internalType": "bytes32",
              "name": "previousBlockHash",
              "type": "bytes32"
            },
            {
              "internalType": "bytes32",
              "name": "frontierHash",
              "type": "bytes32"
            },
            {
              "internalType": "bytes32",
              "name": "transactionHashesRoot",
              "type": "bytes32"
            }
          ],
          "internalType": "struct Structures.Block",
          "name": "b",
          "type": "tuple"
        }
      ],
      "name": "isBlockReal",
      "outputs": [],
      "stateMutability": "view",
      "type": "function",
      "constant": true
    },
    {
      "inputs": [
        {
          "components": [
            {
              "internalType": "uint256",
              "name": "packedInfo",
              "type": "uint256"
            },
            {
              "internalType": "bytes32",
              "name": "root",
              "type": "bytes32"
            },
            {
              "internalType": "bytes32",
              "name": "previousBlockHash",
              "type": "bytes32"
            },
            {
              "internalType": "bytes32",
              "name": "frontierHash",
              "type": "bytes32"
            },
            {
              "internalType": "bytes32",
              "name": "transactionHashesRoot",
              "type": "bytes32"
            }
          ],
          "internalType": "struct Structures.Block",
          "name": "b",
          "type": "tuple"
        },
        {
          "components": [
            {
              "internalType": "uint256",
              "name": "packedInfo",
              "type": "uint256"
            },
            {
              "internalType": "uint256[]",
              "name": "historicRootBlockNumberL2",
              "type": "uint256[]"
            },
            {
              "internalType": "bytes32",
              "name": "tokenId",
              "type": "bytes32"
            },
            {
              "internalType": "bytes32",
              "name": "ercAddress",
              "type": "bytes32"
            },
            {
              "internalType": "bytes32",
              "name": "recipientAddress",
              "type": "bytes32"
            },
            {
              "internalType": "bytes32[]",
              "name": "commitments",
              "type": "bytes32[]"
            },
            {
              "internalType": "bytes32[]",
              "name": "nullifiers",
              "type": "bytes32[]"
            },
            {
              "internalType": "bytes32[2]",
              "name": "compressedSecrets",
              "type": "bytes32[2]"
            },
            {
              "internalType": "uint256[4]",
              "name": "proof",
              "type": "uint256[4]"
            }
          ],
          "internalType": "struct Structures.Transaction[]",
          "name": "ts",
          "type": "tuple[]"
        }
      ],
      "name": "areBlockAndTransactionsReal",
      "outputs": [],
      "stateMutability": "view",
      "type": "function",
      "constant": true
    },
    {
      "inputs": [
        {
          "components": [
            {
              "internalType": "uint256",
              "name": "packedInfo",
              "type": "uint256"
            },
            {
              "internalType": "bytes32",
              "name": "root",
              "type": "bytes32"
            },
            {
              "internalType": "bytes32",
              "name": "previousBlockHash",
              "type": "bytes32"
            },
            {
              "internalType": "bytes32",
              "name": "frontierHash",
              "type": "bytes32"
            },
            {
              "internalType": "bytes32",
              "name": "transactionHashesRoot",
              "type": "bytes32"
            }
          ],
          "internalType": "struct Structures.Block",
          "name": "b",
          "type": "tuple"
        },
        {
          "components": [
            {
              "internalType": "uint256",
              "name": "packedInfo",
              "type": "uint256"
            },
            {
              "internalType": "uint256[]",
              "name": "historicRootBlockNumberL2",
              "type": "uint256[]"
            },
            {
              "internalType": "bytes32",
              "name": "tokenId",
              "type": "bytes32"
            },
            {
              "internalType": "bytes32",
              "name": "ercAddress",
              "type": "bytes32"
            },
            {
              "internalType": "bytes32",
              "name": "recipientAddress",
              "type": "bytes32"
            },
            {
              "internalType": "bytes32[]",
              "name": "commitments",
              "type": "bytes32[]"
            },
            {
              "internalType": "bytes32[]",
              "name": "nullifiers",
              "type": "bytes32[]"
            },
            {
              "internalType": "bytes32[2]",
              "name": "compressedSecrets",
              "type": "bytes32[2]"
            },
            {
              "internalType": "uint256[4]",
              "name": "proof",
              "type": "uint256[4]"
            }
          ],
          "internalType": "struct Structures.Transaction",
          "name": "t",
          "type": "tuple"
        },
        {
          "internalType": "uint256",
          "name": "index",
          "type": "uint256"
        },
        {
          "internalType": "bytes32[]",
          "name": "siblingPath",
          "type": "bytes32[]"
        }
      ],
      "name": "areBlockAndTransactionReal",
      "outputs": [
        {
          "internalType": "bytes32",
          "name": "",
          "type": "bytes32"
        }
      ],
      "stateMutability": "view",
      "type": "function",
      "constant": true
    },
    {
      "inputs": [
        {
          "internalType": "address",
          "name": "addr",
          "type": "address"
        },
        {
          "internalType": "uint256",
          "name": "amount",
          "type": "uint256"
        },
        {
          "internalType": "uint256",
          "name": "challengeLocked",
          "type": "uint256"
        }
      ],
      "name": "setStakeAccount",
      "outputs": [],
      "stateMutability": "nonpayable",
      "type": "function"
    },
    {
      "inputs": [
        {
          "internalType": "address",
          "name": "addr",
          "type": "address"
        }
      ],
      "name": "getStakeAccount",
      "outputs": [
        {
          "components": [
            {
              "internalType": "uint112",
              "name": "amount",
              "type": "uint112"
            },
            {
              "internalType": "uint112",
              "name": "challengeLocked",
              "type": "uint112"
            },
            {
              "internalType": "uint32",
              "name": "time",
              "type": "uint32"
            }
          ],
          "internalType": "struct Structures.TimeLockedStake",
          "name": "",
          "type": "tuple"
        }
      ],
      "stateMutability": "view",
      "type": "function",
      "constant": true
    },
    {
      "inputs": [
        {
          "internalType": "address",
          "name": "challengerAddr",
          "type": "address"
        },
        {
          "internalType": "address",
          "name": "proposer",
          "type": "address"
        },
        {
          "components": [
            {
              "internalType": "bytes32",
              "name": "blockHash",
              "type": "bytes32"
            },
            {
              "internalType": "uint256",
              "name": "time",
              "type": "uint256"
            },
            {
              "internalType": "address",
              "name": "proposer",
              "type": "address"
            },
            {
              "internalType": "uint96",
              "name": "blockStake",
              "type": "uint96"
            }
          ],
          "internalType": "struct Structures.BlockData[]",
          "name": "badBlocks",
          "type": "tuple[]"
        }
      ],
      "name": "rewardChallenger",
      "outputs": [],
      "stateMutability": "nonpayable",
      "type": "function"
    },
    {
      "inputs": [
        {
          "internalType": "address",
          "name": "addr",
          "type": "address"
        },
        {
          "internalType": "uint256",
          "name": "time",
          "type": "uint256"
        }
      ],
      "name": "updateStakeAccountTime",
      "outputs": [],
      "stateMutability": "nonpayable",
      "type": "function"
    },
    {
      "inputs": [
        {
          "internalType": "bytes32",
          "name": "blockHash",
          "type": "bytes32"
        }
      ],
      "name": "setBlockStakeWithdrawn",
      "outputs": [],
      "stateMutability": "nonpayable",
      "type": "function"
    },
    {
      "inputs": [],
      "name": "changeCurrentProposer",
      "outputs": [],
      "stateMutability": "nonpayable",
      "type": "function"
    },
    {
      "inputs": [],
      "name": "fillSlots",
      "outputs": [],
      "stateMutability": "nonpayable",
      "type": "function"
    }
  ],
  "bytecode": "0x608060405234801561001057600080fd5b50615e6980620000216000396000f3fe6080604052600436106103875760003560e01c806305eb81e61461039357806309d632d3146103b75780630db12df5146103d957806311ef8f7e146103f9578063120f66df1461040e578063146eb2221461042e578063181774971461044e5780631c111daf146104815780631c420682146104d75780631f84bb2a1461053157806325c2478c1461055e578063262f60851461057e57806328340f17146106085780632bec09be146106265780633195a4e71461064657806334cdf78d1461066657806337da8877146106be578063387dd9e9146106de5780633b10244b146106fe5780633ccfd60b146107205780633f1f15fc146107355780633f4ba83a1461075557806342646c681461076a578063496879c1146107885780634d2ac261146107e95780635335699e1461080957806353c9ad771461084957806359bab40f1461085f5780635c975abb146108745780635f8a96d21461088c5780636764a898146108d557806369a5b950146108ea57806377603f4a1461090a57806379edadfe1461091f5780638129fc1c1461096f578063818d63311461098457806383b6ebe5146109a45780638456cb59146109c4578063851a974c146109d9578063875840ce146109f9578063894f7d6214610a0e5780638a7ee83d14610a2e5780638da5cb5b14610a4e5780639227ae1514610a635780639588a5b614610a835780639aa0758614610aa35780639b0cd42d14610ac35780639b3d060a14610ae35780639c18de9314610b035780639c33595814610b23578063a029080514610b43578063a2a4dd1314610b63578063a94e550814610bad578063ac622cdc14610bcd578063af52ca6914610bed578063b0a9fd0f14610c0d578063b0c9569a14610c45578063b13a8c0714610c5a578063b2bdfa7b14610c7a578063b6cf02b614610c9a578063b6dfc3f414610cba578063bb7affc114610cea578063bcb4dbc214610d0a578063bf2c94db14610d2a578063c2c5bb6e14610d4a578063c34590e114610d6a578063c83daadc14610d7d578063d87965d214610d92578063d9ba1ca114610da8578063d9bbd27814610dc8578063e2b2c30c14610de6578063e3b7c92414610e06578063e57466fd14610e1c578063efedffa814610e99578063f0832a2414610eae578063f2fde38b14610ece578063f41f339f14610eee578063f560a79214610f0e578063f5a6b99514610f2e578063fe82d08214610f5b57600080fd5b3661038e57005b600080fd5b34801561039f57600080fd5b5060a4545b6040519081526020015b60405180910390f35b3480156103c357600080fd5b506103d76103d2366004614cba565b610f70565b005b3480156103e557600080fd5b506103d76103f4366004614cd7565b611096565b34801561040557600080fd5b5060b4546103a4565b34801561041a57600080fd5b506103a4610429366004614cba565b6110fc565b34801561043a57600080fd5b506103d7610449366004614d03565b61111f565b34801561045a57600080fd5b5061046e610469366004614cba565b61115c565b6040516103ae9796959493929190614d6c565b34801561048d57600080fd5b506104a161049c366004614cba565b611235565b6040805182516001600160701b039081168252602080850151909116908201529181015163ffffffff16908201526060016103ae565b3480156104e357600080fd5b506104ec611297565b6040516103ae919081518152602080830151908201526040808301516001600160a01b0316908201526060918201516001600160601b03169181019190915260800190565b34801561053d57600080fd5b5060b354610551906001600160a01b031681565b6040516103ae9190614dbf565b34801561056a57600080fd5b506103d7610579366004614e36565b611387565b34801561058a57600080fd5b506105e9610599366004614e9e565b60408051808201909152600080825260208201525064ffffffffff1660009081526099602090815260409182902082518084019093525460ff808216151584526101009091041615159082015290565b60408051825115158152602092830151151592810192909252016103ae565b34801561061457600080fd5b50609f546001600160a01b0316610551565b34801561063257600080fd5b506103d7610641366004614ec7565b611477565b34801561065257600080fd5b506103d7610661366004614d03565b61153b565b34801561067257600080fd5b50610686610681366004614d03565b611578565b6040516103ae949392919093845260208401929092526001600160a01b031660408301526001600160601b0316606082015260800190565b3480156106ca57600080fd5b506103d76106d9366004614e9e565b6115c6565b3480156106ea57600080fd5b506105516106f9366004614d03565b61163d565b34801561070a57600080fd5b50610713611667565b6040516103ae9190614f41565b34801561072c57600080fd5b506103d7611760565b34801561074157600080fd5b506103d7610750366004614fb6565b6118b9565b34801561076157600080fd5b506103d761190d565b34801561077657600080fd5b5060a0546001600160a01b0316610551565b34801561079457600080fd5b506107ca6107a3366004614d03565b60a8602052600090815260409020546001600160f81b03811690600160f81b900460ff1682565b604080516001600160f81b0390931683529015156020830152016103ae565b3480156107f557600080fd5b5060b154610551906001600160a01b031681565b34801561081557600080fd5b50610839610824366004614d03565b600090815260a3602052604090205460ff1690565b60405190151581526020016103ae565b34801561085557600080fd5b506103a460b45481565b34801561086b57600080fd5b506103d761194f565b34801561088057600080fd5b5060655460ff16610839565b34801561089857600080fd5b506108c06108a7366004614cba565b60a5602052600090815260409020805460019091015482565b604080519283526020830191909152016103ae565b3480156108e157600080fd5b50610551611fac565b3480156108f657600080fd5b506103d7610905366004614cba565b611fbb565b34801561091657600080fd5b506103d7612013565b34801561092b57600080fd5b5061095861093a366004614e9e565b60996020526000908152604090205460ff8082169161010090041682565b6040805192151583529015156020830152016103ae565b34801561097b57600080fd5b506103d7612328565b34801561099057600080fd5b506103d761099f366004614d03565b612348565b3480156109b057600080fd5b506104ec6109bf36600461500c565b61238d565b3480156109d057600080fd5b506103d761246c565b3480156109e557600080fd5b506107136109f4366004614cba565b6124ac565b348015610a0557600080fd5b50609d546103a4565b348015610a1a57600080fd5b506103d7610a2936600461504c565b6125c0565b348015610a3a57600080fd5b506103d7610a49366004614d03565b612624565b348015610a5a57600080fd5b50610551612653565b348015610a6f57600080fd5b506103d7610a7e366004615067565b612662565b348015610a8f57600080fd5b50610551610a9e366004614d03565b612721565b348015610aaf57600080fd5b506103d7610abe366004615067565b612731565b348015610acf57600080fd5b506103d7610ade36600461510a565b6127aa565b348015610aef57600080fd5b5060b254610551906001600160a01b031681565b348015610b0f57600080fd5b506103d7610b1e366004615067565b6129a7565b348015610b2f57600080fd5b506103d7610b3e366004614d03565b612a02565b348015610b4f57600080fd5b506103d7610b5e366004615222565b612a4a565b348015610b6f57600080fd5b50610b83610b7e366004614d03565b612abf565b604080516001600160a01b03909516855260208501939093529183015260608201526080016103ae565b348015610bb957600080fd5b506103d7610bc8366004614d03565b612b03565b348015610bd957600080fd5b506103a4610be83660046152ac565b612b60565b348015610bf957600080fd5b506103d7610c08366004614d03565b612b91565b348015610c1957600080fd5b50609a54600160601b90046001600160601b03166040516001600160601b0390911681526020016103ae565b348015610c5157600080fd5b50609e546103a4565b348015610c6657600080fd5b506103d7610c7536600461504c565b612bce565b348015610c8657600080fd5b50609754610551906001600160a01b031681565b348015610ca657600080fd5b506103d7610cb53660046152c8565b612c28565b348015610cc657600080fd5b50610839610cd5366004614d03565b60a36020526000908152604090205460ff1681565b348015610cf657600080fd5b506103d7610d05366004614cba565b612cc6565b348015610d1657600080fd5b506103d7610d25366004614d03565b612d4a565b348015610d3657600080fd5b506103d7610d45366004614d03565b612dac565b348015610d5657600080fd5b506103a4610d65366004614cba565b612de9565b6103d7610d78366004614e36565b612e07565b348015610d8957600080fd5b50609b546103a4565b348015610d9e57600080fd5b506103a460b05481565b348015610db457600080fd5b506103d7610dc3366004614cba565b6134d5565b348015610dd457600080fd5b50609a546001600160601b03166103a4565b348015610df257600080fd5b506103d7610e01366004614cba565b61352f565b348015610e1257600080fd5b506103a460b75481565b348015610e2857600080fd5b50610e6d610e37366004614cba565b60a7602052600090815260409020546001600160701b0380821691600160701b810490911690600160e01b900463ffffffff1683565b604080516001600160701b03948516815293909216602084015263ffffffff16908201526060016103ae565b348015610ea557600080fd5b50609c546103a4565b348015610eba57600080fd5b506103d7610ec93660046152e4565b6135f8565b348015610eda57600080fd5b506103d7610ee9366004614cba565b61374f565b348015610efa57600080fd5b506103a4610f0936600461532f565b6137ee565b348015610f1a57600080fd5b506103d7610f29366004614cba565b61396e565b348015610f3a57600080fd5b50610f4e610f49366004614e9e565b6139f2565b6040516103ae91906153be565b348015610f6757600080fd5b5061046e613a5c565b60b1546001600160a01b0316331480610f93575060b2546001600160a01b031633145b610fb85760405162461bcd60e51b8152600401610faf90615402565b60405180910390fd5b610fc181613a88565b60a9546001600160a01b0382811691161480610fe6575060a9546001600160a01b0316155b156110935760ab80546001600160a01b03808216600090815260a660205260409020805460a980549184166001600160a01b0319928316178155600183015460aa805491861691841691909117905560028301549093169316929092179092559060ac61105660038401826154dc565b5060048281015490820155600580830154908201805460ff191660ff9092161515919091179055600691820154910155600060b055611093612013565b50565b60b1546001600160a01b031633146110c05760405162461bcd60e51b8152600401610faf906155b6565b6001600160a01b03909116600090815260a760205260409020805463ffffffff909216600160e01b026001600160e01b03909216919091179055565b6001600160a01b038116600090815260a26020526040812060015b015492915050565b611127612653565b6001600160a01b0316336001600160a01b0316146111575760405162461bcd60e51b8152600401610faf90615617565b609c55565b60a66020526000908152604090208054600182015460028301546003840180546001600160a01b039485169593851694909216929161119a9061544d565b80601f01602080910402602001604051908101604052809291908181526020018280546111c69061544d565b80156112135780601f106111e857610100808354040283529160200191611213565b820191906000526020600020905b8154815290600101906020018083116111f657829003601f168201915b50505050600483015460058401546006909401549293909260ff909116915087565b61123d614b16565b506001600160a01b0316600090815260a76020908152604091829020825160608101845290546001600160701b038082168352600160701b82041692820192909252600160e01b90910463ffffffff169181019190915290565b61129f614b36565b60b2546001600160a01b031633146112c95760405162461bcd60e51b8152600401610faf90615665565b60a48054600091906112dd906001906156c8565b815481106112ed576112ed615601565b600091825260209182902060408051608081018252600393909302909101805483526001810154938301939093526002909201546001600160a01b03811692820192909252600160a01b9091046001600160601b0316606082015260a48054919250908061135d5761135d6156e1565b60008281526020812060036000199093019283020181815560018101829055600201559055905090565b61139083612c28565b60405163bd98fe6560e01b815273__Utils_________________________________9063bd98fe65906113c99085908590600401615783565b602060405180830381865af41580156113e6573d6000803e3d6000fd5b505050506040513d601f19601f8201168201806040525081019061140a91906158a1565b8360800135146114725760405162461bcd60e51b815260206004820152602d60248201527f53746174653a205472616e73616374696f6e2068617368657320726f6f74206460448201526c0decae640dcdee840dac2e8c6d609b1b6064820152608401610faf565b505050565b61147f612653565b6001600160a01b0316336001600160a01b0316146114af5760405162461bcd60e51b8152600401610faf90615617565b64ffffffffff851660009081526098602052604090206114d0908585614b5d565b5064ffffffffff8516600081815260996020908152604091829020805461ffff19166101008715150260ff19161785151517905590519182527f679dd26628f18acc43c1e591d0ddc4cbbbd57605f0f97cc36bb476d8cffdcbb7910160405180910390a15050505050565b611543612653565b6001600160a01b0316336001600160a01b0316146115735760405162461bcd60e51b8152600401610faf90615617565b609e55565b60a4818154811061158857600080fd5b60009182526020909120600390910201805460018201546002909201549092506001600160a01b03811690600160a01b90046001600160601b031684565b6115ce612653565b6001600160a01b0316336001600160a01b0316146115fe5760405162461bcd60e51b8152600401610faf90615617565b64ffffffffff8116600090815260986020526040812061161d91614ba8565b64ffffffffff166000908152609960205260409020805461ffff19169055565b60b5818154811061164d57600080fd5b6000918252602090912001546001600160a01b0316905081565b61166f614bc6565b6040805160e08101825260a980546001600160a01b03908116835260aa548116602084015260ab54169282019290925260ac80549192916060840191906116b59061544d565b80601f01602080910402602001604051908101604052809291908181526020018280546116e19061544d565b801561172e5780601f106117035761010080835404028352916020019161172e565b820191906000526020600020905b81548152906001019060200180831161171157829003601f168201915b505050918352505060048201546020820152600582015460ff1615156040820152600690910154606090910152919050565b6002600154036117b25760405162461bcd60e51b815260206004820152601f60248201527f5265656e7472616e637947756172643a207265656e7472616e742063616c6c006044820152606401610faf565b60026001556117bf613c22565b33600090815260a560205260409020805460019091015481156118785733600081815260a560205260408082208290555190919084908381818185875af1925050503d806000811461182d576040519150601f19603f3d011682016040523d82523d6000602084013e611832565b606091505b50509050806118765760405162461bcd60e51b815260206004820152601060248201526f2a3930b739b332b9103330b4b632b21760811b6044820152606401610faf565b505b80156118b15733600081815260a560205260408120600101556118b1903090836118a0611fac565b6001600160a01b0316929190613c68565b505060018055565b60b1546001600160a01b031633146118e35760405162461bcd60e51b8152600401610faf906155b6565b6001600160a01b038216600090815260a660205260409020819061190782826159a0565b50505050565b611915612653565b6001600160a01b0316336001600160a01b0316146119455760405162461bcd60e51b8152600401610faf90615617565b61194d613cc2565b565b60a9546001600160a01b03166119b75760405162461bcd60e51b815260206004820152602760248201527f53746174653a2043757272656e742070726f706f736572206e6f7420696e69746044820152661a585b1a5e995960ca1b6064820152608401610faf565b6040805160e08101825260a980546001600160a01b03908116835260aa548116602084015260ab54169282019290925260ac80546000939160608401916119fd9061544d565b80601f0160208091040260200160405190810160405280929190818152602001828054611a299061544d565b8015611a765780601f10611a4b57610100808354040283529160200191611a76565b820191906000526020600020905b815481529060010190602001808311611a5957829003601f168201915b505050918352505060048201546020820152600582015460ff16151560408201526006909101546060909101529050611aad614b16565b600080600a5b60a95460408601516001600160a01b03908116911614611c1f578451611ad890611235565b8051909450611af19082906001600160701b0316615a98565b821015611b11578351611b0e9082906001600160701b0316615a98565b91505b6040808601516001600160a01b03908116600090815260a6602090815290839020835160e0810185528154841681526001820154841692810192909252600281015490921692810192909252600381018054606084019190611b729061544d565b80601f0160208091040260200160405190810160405280929190818152602001828054611b9e9061544d565b8015611beb5780601f10611bc057610100808354040283529160200191611beb565b820191906000526020600020905b815481529060010190602001808311611bce57829003601f168201915b505050918352505060048201546020820152600582015460ff16151560408201526006909101546060909101529450611ab3565b8451611c2a90611235565b8051909450611c439082906001600160701b0316615a98565b821015611c63578351611c609082906001600160701b0316615a98565b91505b6040805160e08101825260a980546001600160a01b03908116835260aa548116602084015260ab54169282019290925260ac8054919291606084019190611ca99061544d565b80601f0160208091040260200160405190810160405280929190818152602001828054611cd59061544d565b8015611d225780601f10611cf757610100808354040283529160200191611d22565b820191906000526020600020905b815481529060010190602001808311611d0557829003601f168201915b505050918352505060048201546020820152600582015460ff16151560408201526006909101546060909101529450611d5d60b56000614ba8565b60a95460408601516001600160a01b03908116911614611f15578451611d8290611235565b8051909450611d9b9083906001600160701b0316615a98565b925082600003611daa57600192505b60005b83811015611e0657855160b58054600181018255600091909152600080516020615e148339815191520180546001600160a01b0319166001600160a01b0390921691909117905580611dfe81615aac565b915050611dad565b506040808601516001600160a01b03908116600090815260a6602090815290839020835160e0810185528154841681526001820154841692810192909252600281015490921692810192909252600381018054606084019190611e689061544d565b80601f0160208091040260200160405190810160405280929190818152602001828054611e949061544d565b8015611ee15780601f10611eb657610100808354040283529160200191611ee1565b820191906000526020600020905b815481529060010190602001808311611ec457829003601f168201915b505050918352505060048201546020820152600582015460ff16151560408201526006909101546060909101529450611d5d565b8451611f2090611235565b8051909450611f399083906001600160701b0316615a98565b925082600003611f4857600192505b60005b83811015611fa457855160b58054600181018255600091909152600080516020615e148339815191520180546001600160a01b0319166001600160a01b0390921691909117905580611f9c81615aac565b915050611f4b565b505050505050565b60a1546001600160a01b031690565b611fc3612653565b6001600160a01b0316336001600160a01b031614611ff35760405162461bcd60e51b8152600401610faf90615617565b6001600160a01b0316600090815260a26020526040812081815560010155565b609b5460b05461202390436156c8565b118061202f575060b054155b8061203c5750609e546001145b6120935760405162461bcd60e51b815260206004820152602260248201527f53746174653a20546f6f20736f6f6e20746f20726f746174652070726f706f7360448201526132b960f11b6064820152608401610faf565b609e5460011480156120a75750600160b454115b156121ab57609f546001600160a01b03908116600090815260a660205260409020805460a980546001600160a01b0319908116928516929092178155600183015460aa80548416918616919091179055600283015460ab805490931694169390931790559060ac61211b60038401826154dc565b5060048281015490820155600580830154908201805460ff191660ff909216151591909117905560069182015491015560ab546001600160a01b03165b600160b45411156121a95761216c81613a88565b6001600160a01b03908116600090815260a76020526040902080546001600160e01b0316600160e01b4263ffffffff160217905560ab5416612158565b505b6000600160b454116121ce5750600060b75560a9546001600160a01b0316612240565b60b860b754815481106121e3576121e3615601565b600091825260208220015460b780546001600160a01b039092169350600192909161220f908490615ac5565b9091555050609d5460b7540361222557600060b7555b60b75460000361224057612237613d0e565b61224081613d26565b6001600160a01b03808216600090815260a660205260409020805460a980546001600160a01b0319908116928516929092178155600183015460aa80548416918616919091179055600283015460ab805490931694169390931790559060ac6122ac60038401826154dc565b5060048281015490820155600580830154908201805460ff191660ff90921615159190911790556006918201549101554360b05560a9546040517feaa94fa30970548bf8b78ce068ba600b923a4a62ce3c523d09bf308102ff1bab9161231d916001600160a01b0390911690614dbf565b60405180910390a150565b612330613fac565b612338613fe3565b612340614012565b61194d614072565b60b3546001600160a01b031633146123725760405162461bcd60e51b8152600401610faf90615ad8565b600090815260a360205260409020805460ff19166001179055565b612395614b36565b60a4546001600160401b038316106123ef5760405162461bcd60e51b815260206004820152601e60248201527f53746174653a20496e76616c696420626c6f636b206e756d626572204c3200006044820152606401610faf565b60a4826001600160401b03168154811061240b5761240b615601565b600091825260209182902060408051608081018252600393909302909101805483526001810154938301939093526002909201546001600160a01b03811692820192909252600160a01b9091046001600160601b0316606082015292915050565b612474612653565b6001600160a01b0316336001600160a01b0316146124a45760405162461bcd60e51b8152600401610faf90615617565b61194d6140a1565b6124b4614bc6565b6001600160a01b03808316600090815260a66020908152604091829020825160e08101845281548516815260018201548516928101929092526002810154909316918101919091526003820180549192916060840191906125149061544d565b80601f01602080910402602001604051908101604052809291908181526020018280546125409061544d565b801561258d5780601f106125625761010080835404028352916020019161258d565b820191906000526020600020905b81548152906001019060200180831161257057829003601f168201915b505050918352505060048201546020820152600582015460ff161515604082015260069091015460609091015292915050565b6125c8612653565b6001600160a01b0316336001600160a01b0316146125f85760405162461bcd60e51b8152600401610faf90615617565b609a80546001600160601b03909216600160601b02600160601b600160c01b0319909216919091179055565b60b1546001600160a01b0316331461264e5760405162461bcd60e51b8152600401610faf906155b6565b60b055565b6097546001600160a01b031690565b60b1546001600160a01b0316331480612685575060b3546001600160a01b031633145b6126a15760405162461bcd60e51b8152600401610faf90615402565b604080516060810182526001600160701b039384168152918316602080840191825260008484018181526001600160a01b03909716815260a790915291909120915182549151945163ffffffff16600160e01b026001600160e01b03958516600160701b026001600160e01b031990931691909416171792909216179055565b60b8818154811061164d57600080fd5b60b1546001600160a01b0316331480612754575060b3546001600160a01b031633145b6127705760405162461bcd60e51b8152600401610faf90615402565b60408051808201825292835260208084019283526001600160a01b03909416600090815260a5909452909220905181559051600190910155565b60b2546001600160a01b031633146127d45760405162461bcd60e51b8152600401610faf90615665565b6127dd82610f70565b6000805b825181101561297357600060a7600085848151811061280257612802615601565b6020908102919091018101516040908101516001600160a01b031683528282019390935290820160002082516060808201855291546001600160701b038082168352600160701b8204811683860152600160e01b90910463ffffffff16828601528451928301909452805190931681528651929350919082019086908590811061288e5761288e615601565b6020026020010151606001516001600160601b031683602001516128b29190615b21565b6001600160701b039081168252600060209283018190526001600160a01b038916815260a783526040908190208451815494860151959092015163ffffffff16600160e01b026001600160e01b03958416600160701b026001600160e01b031990951692909316919091179290921792909216919091179055835184908390811061293f5761293f615601565b6020026020010151606001516001600160601b03168361295f9190615ac5565b9250508061296c90615aac565b90506127e1565b506001600160a01b038416600090815260a560205260408120805483929061299c908490615ac5565b909155505050505050565b6129af612653565b6001600160a01b0316336001600160a01b0316146129df5760405162461bcd60e51b8152600401610faf90615617565b6001600160a01b0392909216600090815260a26020526040902090815560010155565b60b3546001600160a01b03163314612a2c5760405162461bcd60e51b8152600401610faf90615ad8565b600090815260a86020526040902080546001600160f81b0319169055565b60b1546001600160a01b03163314612a745760405162461bcd60e51b8152600401610faf906155b6565b6001600160a01b038416600090815260a660205260409020600301612a9a8385836158da565b506001600160a01b03909316600090815260a660205260409020600401929092555050565b60b68181548110612acf57600080fd5b600091825260209091206004909102018054600182015460028301546003909301546001600160a01b039092169350919084565b60b1546001600160a01b03163314612b2d5760405162461bcd60e51b8152600401610faf906155b6565b60b4805490829055600282148015612b455750806001145b15612b5c57612b52613d0e565b612b5c6000613d26565b5050565b60986020528160005260406000208181548110612b7c57600080fd5b90600052602060002001600091509150505481565b612b99612653565b6001600160a01b0316336001600160a01b031614612bc95760405162461bcd60e51b8152600401610faf90615617565b609d55565b612bd6612653565b6001600160a01b0316336001600160a01b031614612c065760405162461bcd60e51b8152600401610faf90615617565b609a80546001600160601b0319166001600160601b0392909216919091179055565b60a454813560a01c906001600160401b038216108015612c7c5750612c4c826140de565b60a4826001600160401b031681548110612c6857612c68615601565b906000526020600020906003020160000154145b612b5c5760405162461bcd60e51b815260206004820152601b60248201527a14dd185d194e88109b1bd8dac8191bd95cc81b9bdd08195e1a5cdd602a1b6044820152606401610faf565b612cce612653565b6001600160a01b0316336001600160a01b031614612cfe5760405162461bcd60e51b8152600401610faf90615617565b609f80546001600160a01b0319166001600160a01b0383169081179091556040517f5544fd39820f90f9fc4b238e0eaaf1b5ece21e6dbb69a2b0824a16876e6d0efd9161231d91614dbf565b60b2546001600160a01b0316331480612d6d575060b3546001600160a01b031633145b612d895760405162461bcd60e51b8152600401610faf90615402565b600090815260a86020526040902080546001600160f81b0316600160f81b179055565b612db4612653565b6001600160a01b0316336001600160a01b031614612de45760405162461bcd60e51b8152600401610faf90615617565b609b55565b6001600160a01b038116600090815260a26020526040812081611117565b60a9546001600160a01b03163314612e715760405162461bcd60e51b815260206004820152602760248201527f53746174653a204f6e6c792063757272656e742070726f706f736572206175746044820152661a1bdc9a5cd95960ca1b6064820152608401610faf565b612e79613c22565b6001811015612ee55760405162461bcd60e51b815260206004820152603260248201527f53746174653a20426c6f636b206d75737420636f6e7461696e206174206c656160448201527139ba1037b732903a3930b739b0b1ba34b7b760711b6064820152608401610faf565b60a454833560a01c6001600160401b031614612f3f5760405162461bcd60e51b815260206004820152601960248201527829ba30ba329d10213637b1b59037baba1037b31037b93232b960391b6044820152606401610faf565b60a45415612fd75760a48054612f57906001906156c8565b81548110612f6757612f67615601565b906000526020600020906003020160000154836040013514612fd75760405162461bcd60e51b815260206004820152602360248201527f53746174653a20426c6f636b20666c61776564206f72206f7574206f66206f726044820152623232b960e91b6064820152608401610faf565b3383356001600160a01b03161461303e5760405162461bcd60e51b815260206004820152602560248201527f53746174653a205468652073656e646572206973206e6f74207468652070726f6044820152643837b9b2b960d91b6064820152608401610faf565b609a5433600090815260a76020526040902054600160601b9091046001600160601b0316906130779034906001600160701b0316615ac5565b10156130df5760405162461bcd60e51b815260206004820152603160248201527f53746174653a2050726f706f73657220646f6573206e6f74206861766520656e6044820152701bdd59da08199d5b991cc81cdd185ad959607a1b6064820152608401610faf565b609a5433600090815260a76020526040902054600160601b9091046001600160601b0316906131189034906001600160701b0316615b48565b6131229190615b21565b33600090815260a76020526040902080546001600160701b0319166001600160701b0392831617808255609a54600160601b90046001600160601b031692600e91613176918591600160701b900416615b48565b82546001600160701b039182166101009390930a92830291909202199091161790555033600090815260a76020526040812080546001600160e01b0316905580600561c3506131db565b60015b818160020a10156131d6576001016131c3565b919050565b8535860136038110156131f9576320e48c7360e11b60005260046000fd5b60405160608101613209876131c0565b60020a602002810160005b888110156132f9576020816020028b01358b01600183016020028c01358c01030489600183010361324e575060208181028b01358b013603045b80602002826020028c01358c016020850137602083526001810160200283208260200285015250602082015160d81c845260996020850152600260200284205460081c80156132d55760c083015183016040015180156132d35780865260a360208701526040862054806132d1576330584a2960e01b6000528160045260246000fd5b505b505b506001600160601b03602082028b01358b013560781c169790970196600101613214565b5050613304876131c0565b801561336d5760005b6001820360020a811015613363576002816020020283016001602082015115825115160361333f576000826020028501525b602081015181511590151661335a5760408120826020028501525b5060010161330d565b5060001901613304565b5080516004600019860160200201351461339257630f202aff60e21b60005260046000fd5b5082602002600482376020838102909120600081815260a88352604080822080546001600160f81b0319166001600160f81b038a161790558051608081018252838152429481019485528b356001600160a01b03908116828401908152609a546001600160601b03600160601b90910481166060850190815260a4805460018101825590885294517fe434dc35da084cf8d7e8186688ea2dacb53db7003d427af3abf351bd9d0a4e8d60039096029586015597517fe434dc35da084cf8d7e8186688ea2dacb53db7003d427af3abf351bd9d0a4e8e8501559051965116600160a01b029516949094177fe434dc35da084cf8d7e8186688ea2dacb53db7003d427af3abf351bd9d0a4e8f9094019390935591519094507f566d835e602d4aa5802ee07d3e452e755bc77623507825de7bc163a295d76c0b9190a150505050505050565b6134dd612653565b6001600160a01b0316336001600160a01b03161461350d5760405162461bcd60e51b8152600401610faf90615617565b60a180546001600160a01b0319166001600160a01b0392909216919091179055565b60b1546001600160a01b031633146135595760405162461bcd60e51b8152600401610faf906155b6565b6001600160a01b03808216600090815260a660205260409020805460a980546001600160a01b0319908116928516929092178155600183015460aa80548416918616919091179055600283015460ab805490931694169390931790559060ac6135c560038401826154dc565b5060048281015490820155600580830154908201805460ff191660ff909216151591909117905560069182015491015550565b600054610100900460ff16158080156136185750600054600160ff909116105b80613639575061362730614143565b158015613639575060005460ff166001145b61369c5760405162461bcd60e51b815260206004820152602e60248201527f496e697469616c697a61626c653a20636f6e747261637420697320616c72656160448201526d191e481a5b9a5d1a585b1a5e995960921b6064820152608401610faf565b6000805460ff1916600117905580156136bf576000805461ff0019166101001790555b60b180546001600160a01b038087166001600160a01b03199283161790925560b2805486841690831617905560b3805492851692909116919091179055613704612328565b8015611907576000805461ff0019169055604051600181527f7f26b83ff96e1f2b6a682f133852f6798a09c465da95921460cefb38474024989060200160405180910390a150505050565b613757612653565b6001600160a01b0316336001600160a01b0316146137875760405162461bcd60e51b8152600401610faf90615617565b6001600160a01b03811661379a57600080fd5b7f8be0079c531659141344cd1fd0a4f28419497f9722a3daafe3b4186f6b6457e06137c3612653565b604080516001600160a01b03928316815291841660208301520160405180910390a161109381614152565b60006137f986612c28565b8282600081811061380c5761380c615601565b905060200201358660800135146138795760405162461bcd60e51b815260206004820152602b60248201527f53746174653a205472616e73616374696f6e2068617368657320726f6f74206960448201526a1cc81a5b98dbdc9c9958dd60aa1b6064820152608401610faf565b600061388486614174565b604051630e07a40b60e01b815290915073__Utils_________________________________90630e07a40b906138c490879087908a908790600401615b68565b602060405180830381865af41580156138e1573d6000803e3d6000fd5b505050506040513d601f19601f820116820180604052508101906139059190615b8f565b6139645760405162461bcd60e51b815260206004820152602a60248201527f53746174653a205472616e73616374696f6e20646f6573206e6f7420657869736044820152697420696e20626c6f636b60b01b6064820152608401610faf565b9695505050505050565b613976612653565b6001600160a01b0316336001600160a01b0316146139a65760405162461bcd60e51b8152600401610faf90615617565b60a080546001600160a01b0319166001600160a01b0383169081179091556040517f210cff5548618e71293ea0d4f1f3563a68e78f00273f3acd97014aac2442ed249161231d91614dbf565b64ffffffffff8116600090815260986020908152604091829020805483518184028101840190945280845260609392830182828015613a5057602002820191906000526020600020905b815481526020019060010190808311613a3c575b50505050509050919050565b60a9805460aa5460ab5460ac80546001600160a01b039485169593851694909216929161119a9061544d565b6001600160a01b03808216600090815260a66020526040812060018101805460028301805484546001600160a01b0319908116865580841690945592831690558416931691613ada6003830182614c01565b5060006004820181905560058201805460ff19169055600690910181905560b4805491613b0683615bac565b90915550506001600160a01b03818116600081815260a6602052604080822080548786168085529284206002810180549288166001600160a01b0319938416179055549490935260010180549385169390921692909217905560a9549091161480613b7e575060a9546001600160a01b038281169116145b156114725760a980546001600160a01b03808216600090815260a66020526040902080546001600160a01b0319938416908316178455600181015460aa80548516918416919091179055600281015460ab80549094169216919091179091559060ac613bed60038401826154dc565b5060048281015490820155600580830154908201805460ff191660ff9092161515919091179055600691820154910155505050565b60655460ff161561194d5760405162461bcd60e51b815260206004820152601060248201526f14185d5cd8589b194e881c185d5cd95960821b6044820152606401610faf565b604080516001600160a01b0385811660248301528416604482015260648082018490528251808303909101815260849091019091526020810180516001600160e01b03166323b872dd60e01b179052611907908590614187565b613cca614259565b6065805460ff191690557f5db9ee0a495bf2e6ff9c91a7834c1ba4fdd244a5e8aa4e537bd38aeae4b073aa335b604051613d049190614dbf565b60405180910390a1565b613d1661194f565b613d1e6142a2565b61194d6143ee565b613d5a604051806080016040528060006001600160a01b031681526020016000815260200160008152602001600081525090565b6000613d6760b882614ba8565b60005b609c548110156119075760005b60b654811015613ead5760b68181548110613d9457613d94615601565b600091825260209182902060408051608081018252600490930290910180546001600160a01b0316835260018101549383019390935260028301549082015260039091015460608201819052909450613ded9084615ac5565b9250836060015184604001818151613e059190615bc3565b905250602084015160608501511015613e2c5760608401805190613e2882615aac565b9052505b6001600160a01b0385161580613e915750836040015160b660a66000886001600160a01b03166001600160a01b031681526020019081526020016000206006015481548110613e7d57613e7d615601565b906000526020600020906004020160020154125b15613e9b57835194505b80613ea581615aac565b915050613d77565b506001600160a01b038416600090815260a6602052604090206006015460b680549091908110613edf57613edf615601565b906000526020600020906004020160010154600014613f4f576001600160a01b038416600090815260a6602052604090206006015460b680548492908110613f2957613f29615601565b90600052602060002090600402016002016000828254613f499190615beb565b90915550505b60b880546001810182556000919091527fd91d691c894f8266e3f2d5e558ad2349d6783327a752a4949bc554f514e349880180546001600160a01b0319166001600160a01b03861617905580613fa481615aac565b915050613d6a565b600054610100900460ff16613fd35760405162461bcd60e51b8152600401610faf90615c0b565b613fdb6148d6565b61194d614906565b600054610100900460ff1661400a5760405162461bcd60e51b8152600401610faf90615c0b565b61194d6148d6565b600054610100900460ff166140395760405162461bcd60e51b8152600401610faf90615c0b565b6140416148d6565b609a80546001600160c01b031916620f4240600160601b011790556020609b55600a609c819055609d556064609e55565b600054610100900460ff166140995760405162461bcd60e51b8152600401610faf90615c0b565b61194d614935565b6140a9613c22565b6065805460ff191660011790557f62e78cea01bee320cd4e420270b5ea74000d11b0c9f74754ebdbfc544b05a258613cf73390565b6000816040516020016141269190600060a082019050823582526020830135602083015260408301356040830152606083013560608301526080830135608083015292915050565b604051602081830303815290604052805190602001209050919050565b6001600160a01b03163b151590565b609780546001600160a01b0319166001600160a01b0392909216919091179055565b6000816040516020016141269190615c56565b60006141dc826040518060400160405280602081526020017f5361666545524332303a206c6f772d6c6576656c2063616c6c206661696c6564815250856001600160a01b03166149629092919063ffffffff16565b80519091501561147257808060200190518101906141fa9190615b8f565b6114725760405162461bcd60e51b815260206004820152602a60248201527f5361666545524332303a204552433230206f7065726174696f6e20646964206e6044820152691bdd081cdd58d8d9595960b21b6064820152608401610faf565b60655460ff1661194d5760405162461bcd60e51b815260206004820152601460248201527314185d5cd8589b194e881b9bdd081c185d5cd95960621b6044820152606401610faf565b60005b60b5548110156110935760b5546000906142c09083906156c8565b60408051426020820152016040516020818303038152906040528051906020012060001c6142ee9190615d1d565b6142f89083615ac5565b9050600060b5828154811061430f5761430f615601565b60009182526020909120015460b580546001600160a01b039092169250908490811061433d5761433d615601565b60009182526020909120015460b580546001600160a01b03909216918490811061436957614369615601565b9060005260206000200160006101000a8154816001600160a01b0302191690836001600160a01b031602179055508060b584815481106143ab576143ab615601565b9060005260206000200160006101000a8154816001600160a01b0302191690836001600160a01b03160217905550505080806143e690615aac565b9150506142a5565b60005b60b6548110156144a957600060a6600060b6848154811061441457614414615601565b60009182526020808320600492909202909101546001600160a01b031683528201929092526040018120600501805460ff19169215159290921790915560b6805460a69183918590811061446a5761446a615601565b600091825260208083206004909202909101546001600160a01b03168352820192909252604001902060060155806144a181615aac565b9150506143f1565b506144b660b66000614c3b565b60005b609c5481101561481d57600060a6600060b584815481106144dc576144dc615601565b60009182526020808320909101546001600160a01b039081168452838201949094526040928301909120825160e08101845281548516815260018201548516928101929092526002810154909316918101919091526003820180549192916060840191906145499061544d565b80601f01602080910402602001604051908101604052809291908181526020018280546145759061544d565b80156145c25780601f10614597576101008083540402835291602001916145c2565b820191906000526020600020905b8154815290600101906020018083116145a557829003601f168201915b505050918352505060048201546020820152600582015460ff161515604082015260069091015460609091015260a081015190915015156000036147cb57600160a0820181905260b6805460c084018190526040805160808101825285516001600160a01b03908116825260208201868152600093830184815260608401858152978601875595845282517f3ae797ceef265e3a4f9c1978c47c759eb34a32909251dee7276db339b17b3de3600490960295860180546001600160a01b0319169190931617909155517f3ae797ceef265e3a4f9c1978c47c759eb34a32909251dee7276db339b17b3de484015592517f3ae797ceef265e3a4f9c1978c47c759eb34a32909251dee7276db339b17b3de583015592517f3ae797ceef265e3a4f9c1978c47c759eb34a32909251dee7276db339b17b3de69091015560b580549192849260a692908790811061471857614718615601565b60009182526020808320909101546001600160a01b039081168452838201949094526040928301909120845181549085166001600160a01b0319918216178255918501516001820180549186169184169190911790559184015160028301805491909416911617909155606082015160038201906147969082615d31565b506080820151600482015560a082015160058201805460ff191691151591909117905560c0909101516006909101555061480a565b600160b68260c00151815481106147e4576147e4615601565b906000526020600020906004020160010160008282546148049190615ac5565b90915550505b508061481581615aac565b9150506144b9565b5060005b60b6548110156110935760b6818154811061483e5761483e615601565b90600052602060002090600402016001015460b6828154811061486357614863615601565b90600052602060002090600402016002018190555060b6818154811061488b5761488b615601565b90600052602060002090600402016001015460b682815481106148b0576148b0615601565b6000918252602090912060036004909202010155806148ce81615aac565b915050614821565b600054610100900460ff166148fd5760405162461bcd60e51b8152600401610faf90615c0b565b61194d33614152565b600054610100900460ff1661492d5760405162461bcd60e51b8152600401610faf90615c0b565b61194d61497b565b600054610100900460ff1661495c5760405162461bcd60e51b8152600401610faf90615c0b565b60018055565b606061497184846000856149ae565b90505b9392505050565b600054610100900460ff166149a25760405162461bcd60e51b8152600401610faf90615c0b565b6065805460ff19169055565b606082471015614a0f5760405162461bcd60e51b815260206004820152602660248201527f416464726573733a20696e73756666696369656e742062616c616e636520666f6044820152651c8818d85b1b60d21b6064820152608401610faf565b614a1885614143565b614a645760405162461bcd60e51b815260206004820152601d60248201527f416464726573733a2063616c6c20746f206e6f6e2d636f6e74726163740000006044820152606401610faf565b600080866001600160a01b03168587604051614a809190615de4565b60006040518083038185875af1925050503d8060008114614abd576040519150601f19603f3d011682016040523d82523d6000602084013e614ac2565b606091505b5091509150614ad2828286614add565b979650505050505050565b60608315614aec575081614974565b825115614afc5782518084602001fd5b8160405162461bcd60e51b8152600401610faf9190615e00565b604080516060810182526000808252602082018190529181019190915290565b60408051608081018252600080825260208201819052918101829052606081019190915290565b828054828255906000526020600020908101928215614b98579160200282015b82811115614b98578235825591602001919060010190614b7d565b50614ba4929150614c5c565b5090565b50805460008255906000526020600020908101906110939190614c5c565b6040805160e0810182526000808252602082018190529181018290526060808201526080810182905260a0810182905260c081019190915290565b508054614c0d9061544d565b6000825580601f10614c1d575050565b601f0160209004906000526020600020908101906110939190614c5c565b50805460008255600402906000526020600020908101906110939190614c71565b5b80821115614ba45760008155600101614c5d565b5b80821115614ba45780546001600160a01b0319168155600060018201819055600282018190556003820155600401614c72565b6001600160a01b038116811461109357600080fd5b600060208284031215614ccc57600080fd5b813561497481614ca5565b60008060408385031215614cea57600080fd5b8235614cf581614ca5565b946020939093013593505050565b600060208284031215614d1557600080fd5b5035919050565b60005b83811015614d37578181015183820152602001614d1f565b50506000910152565b60008151808452614d58816020860160208601614d1c565b601f01601f19169290920160200192915050565b6001600160a01b03888116825287811660208301528616604082015260e060608201819052600090614da090830187614d40565b60808301959095525091151560a083015260c090910152949350505050565b6001600160a01b0391909116815260200190565b600060a08284031215614de557600080fd5b50919050565b60008083601f840112614dfd57600080fd5b5081356001600160401b03811115614e1457600080fd5b6020830191508360208260051b8501011115614e2f57600080fd5b9250929050565b600080600060c08486031215614e4b57600080fd5b614e558585614dd3565b925060a08401356001600160401b03811115614e7057600080fd5b614e7c86828701614deb565b9497909650939450505050565b803564ffffffffff811681146131d657600080fd5b600060208284031215614eb057600080fd5b61497482614e89565b801515811461109357600080fd5b600080600080600060808688031215614edf57600080fd5b614ee886614e89565b945060208601356001600160401b03811115614f0357600080fd5b614f0f88828901614deb565b9095509350506040860135614f2381614eb9565b91506060860135614f3381614eb9565b809150509295509295909350565b60208152600060018060a01b0380845116602084015280602085015116604084015280604085015116606084015250606083015160e06080840152614f8a610100840182614d40565b9050608084015160a084015260a0840151151560c084015260c084015160e08401528091505092915050565b60008060408385031215614fc957600080fd5b8235614fd481614ca5565b915060208301356001600160401b03811115614fef57600080fd5b830160e0818603121561500157600080fd5b809150509250929050565b60006020828403121561501e57600080fd5b81356001600160401b038116811461497457600080fd5b80356001600160601b03811681146131d657600080fd5b60006020828403121561505e57600080fd5b61497482615035565b60008060006060848603121561507c57600080fd5b833561508781614ca5565b95602085013595506040909401359392505050565b634e487b7160e01b600052604160045260246000fd5b604051608081016001600160401b03811182821017156150d4576150d461509c565b60405290565b604051601f8201601f191681016001600160401b03811182821017156151025761510261509c565b604052919050565b6000806000606080858703121561512057600080fd5b843561512b81614ca5565b935060208581013561513c81614ca5565b93506040868101356001600160401b038082111561515957600080fd5b818901915089601f83011261516d57600080fd5b81358181111561517f5761517f61509c565b61518d858260051b016150da565b818152858101925060079190911b83018501908b8211156151ad57600080fd5b928501925b81841015615211576080848d0312156151cb5760008081fd5b6151d36150b2565b843581528685013587820152858501356151ec81614ca5565b818701526151fb858901615035565b81890152835260809390930192918501916151b2565b809750505050505050509250925092565b6000806000806060858703121561523857600080fd5b843561524381614ca5565b935060208501356001600160401b038082111561525f57600080fd5b818701915087601f83011261527357600080fd5b81358181111561528257600080fd5b88602082850101111561529457600080fd5b95986020929092019750949560400135945092505050565b600080604083850312156152bf57600080fd5b614cf583614e89565b600060a082840312156152da57600080fd5b6149748383614dd3565b6000806000606084860312156152f957600080fd5b833561530481614ca5565b9250602084013561531481614ca5565b9150604084013561532481614ca5565b809150509250925092565b6000806000806000610100868803121561534857600080fd5b6153528787614dd3565b945060a08601356001600160401b038082111561536e57600080fd5b908701906101a0828a03121561538357600080fd5b90945060c0870135935060e087013590808211156153a057600080fd5b506153ad88828901614deb565b969995985093965092949392505050565b6020808252825182820181905260009190848201906040850190845b818110156153f6578351835292840192918401916001016153da565b50909695505050505050565b6020808252602b908201527f53746174653a204e6f7420617574686f726973656420746f2063616c6c20746860408201526a34b990333ab731ba34b7b760a91b606082015260800190565b600181811c9082168061546157607f821691505b602082108103614de557634e487b7160e01b600052602260045260246000fd5b601f82111561147257600081815260208120601f850160051c810160208610156154a85750805b601f850160051c820191505b81811015611fa4578281556001016154b4565b600019600383901b1c191660019190911b1790565b8181036154e7575050565b6154f1825461544d565b6001600160401b038111156155085761550861509c565b61551c81615516845461544d565b84615481565b6000601f82116001811461554a57600083156155385750848201545b61554284826154c7565b8555506155af565b600085815260209020601f19841690600086815260209020845b838110156155845782860154825560019586019590910190602001615564565b50858310156155a25781850154600019600388901b60f8161c191681555b50505060018360011b0184555b5050505050565b6020808252602b908201527f53746174653a204f6e6c792070726f706f73657220636f6e747261637420697360408201526a08185d5d1a1bdc9a5e995960aa1b606082015260800190565b634e487b7160e01b600052603260045260246000fd5b6020808252602e908201527f596f7520617265206e6f7420617574686f726973656420746f20696e766f6b6560408201526d103a3434b990333ab731ba34b7b760911b606082015260800190565b6020808252602d908201527f53746174653a204f6e6c79206368616c6c656e67657220636f6e74726163742060408201526c1a5cc8185d5d1a1bdc9a5e9959609a1b606082015260800190565b634e487b7160e01b600052601160045260246000fd5b818103818111156156db576156db6156b2565b92915050565b634e487b7160e01b600052603160045260246000fd5b6000808335601e1984360301811261570e57600080fd5b83016020810192503590506001600160401b0381111561572d57600080fd5b8060051b3603821315614e2f57600080fd5b81835260006001600160fb1b0383111561575857600080fd5b8260051b80836020870137939093016020019392505050565b60408183375050565b60808183375050565b60208082528181018390526000906040808401600586901b850182018785805b8981101561589257888403603f190185528235368c900361019e190181126157c9578283fd5b8b01803585526101a06157de898301836156f7565b828b8901526157f0838901828461573f565b9250505087820135888701526060808301358188015250608080830135818801525060a0615820818401846156f7565b888403838a015261583284828461573f565b935050505060c0615845818401846156f7565b888403838a015261585784828461573f565b935050505060e061586c818801828501615771565b5061012061587e81880182850161577a565b5095880195945050918601916001016157a3565b50919998505050505050505050565b6000602082840312156158b357600080fd5b5051919050565b80546001600160a01b0319166001600160a01b0392909216919091179055565b6001600160401b038311156158f1576158f161509c565b615905836158ff835461544d565b83615481565b6000601f84116001811461593357600085156159215750838201355b61592b86826154c7565b8455506155af565b600083815260209020601f19861690835b828110156159645786850135825560209485019460019092019101615944565b50868210156159815760001960f88860031b161c19848701351681555b505060018560011b0183555050505050565b600081356156db81614eb9565b81356159ab81614ca5565b6159b581836158ba565b5060208201356159c481614ca5565b6159d181600184016158ba565b5060408201356159e081614ca5565b6159ed81600284016158ba565b506060820135601e19833603018112615a0557600080fd5b820180356001600160401b03811115615a1d57600080fd5b602082019150803603821315615a3257600080fd5b615a408183600386016158da565b505060808201356004820155615a74615a5b60a08401615993565b6005830160ff1981541660ff8315151681178255505050565b60c082013560068201555050565b634e487b7160e01b600052601260045260246000fd5b600082615aa757615aa7615a82565b500490565b600060018201615abe57615abe6156b2565b5060010190565b808201808211156156db576156db6156b2565b60208082526029908201527f53746174653a204f6e6c7920736869656c6420636f6e747261637420697320616040820152681d5d1a1bdc9a5e995960ba1b606082015260800190565b6001600160701b03828116828216039080821115615b4157615b416156b2565b5092915050565b6001600160701b03818116838216019080821115615b4157615b416156b2565b606081526000615b7c60608301868861573f565b6020830194909452506040015292915050565b600060208284031215615ba157600080fd5b815161497481614eb9565b600081615bbb57615bbb6156b2565b506000190190565b8082018281126000831280158216821582161715615be357615be36156b2565b505092915050565b8181036000831280158383131683831282161715615b4157615b416156b2565b6020808252602b908201527f496e697469616c697a61626c653a20636f6e7472616374206973206e6f74206960408201526a6e697469616c697a696e6760a81b606082015260800190565b60208152813560208201526000615c7060208401846156f7565b6101a06040850152615c876101c08501828461573f565b9150506040840135606084015260608401356080840152608084013560a0840152615cb560a08501856156f7565b601f19808685030160c0870152615ccd84838561573f565b9350615cdc60c08801886156f7565b93509150808685030160e087015250615cf683838361573f565b92505050615d0b610100840160e08601615771565b6149746101408401610120860161577a565b600082615d2c57615d2c615a82565b500690565b81516001600160401b03811115615d4a57615d4a61509c565b615d5881615516845461544d565b602080601f831160018114615d875760008415615d755750858301515b615d7f85826154c7565b865550611fa4565b600085815260208120601f198616915b82811015615db657888601518255948401946001909101908401615d97565b5085821015615dd45787850151600019600388901b60f8161c191681555b5050505050600190811b01905550565b60008251615df6818460208701614d1c565b9190910192915050565b6020815260006149746020830184614d4056fe22b88d74a6b23be687aa96340c881253c2e9873c526eec7366dc5f733ada306aa26469706673582212203ffa232fd47b4422539ee1b48ab0800a142d743a0d4f865ba65bd073f79bdcb164736f6c63430008110033",
  "immutableReferences": {},
  "source": "// SPDX-License-Identifier: CC0-1.0\nimport '@openzeppelin/contracts-upgradeable/security/ReentrancyGuardUpgradeable.sol';\nimport '@openzeppelin/contracts-upgradeable/token/ERC20/utils/SafeERC20Upgradeable.sol';\n\n/**\nContract to hold global state that is needed by a number of other contracts,\ntogether with functions for mutating it.\n@Author Westlad\n*/\n\npragma solidity ^0.8.0;\n\nimport './Utils.sol';\nimport './Config.sol';\nimport './Pausable.sol';\nimport './Key_Registry.sol';\n\ncontract State is ReentrancyGuardUpgradeable, Pausable, Key_Registry, Config {\n    using SafeERC20Upgradeable for IERC20Upgradeable;\n\n    // global state variables\n    mapping(bytes32 => bool) public isCommitmentEscrowed;\n    BlockData[] public blockHashes; // array containing mainly blockHashes\n    mapping(address => FeeTokens) public pendingWithdrawalsFees;\n    mapping(address => LinkedAddress) public proposers;\n    mapping(address => TimeLockedStake) public stakeAccounts;\n    mapping(bytes32 => BlockInfo) public blockInfo;\n    LinkedAddress public currentProposer; // who can propose a new shield state\n    uint256 public proposerStartBlock; // L1 block where currentProposer became current\n    // local state variables\n    address public proposersAddress;\n    address public challengesAddress;\n    address public shieldAddress;\n\n    uint256 public numProposers; // number of proposers\n    address[] public slots; // slots based on proposers stake\n    ProposerSet[] public proposersSet; // proposer set for next span\n    uint256 public currentSprint; // the current sprint of the span\n    address[] public spanProposersList;\n\n    function initialize() public override(Pausable, Key_Registry, Config) {\n        Pausable.initialize();\n        Key_Registry.initialize();\n        Config.initialize();\n        ReentrancyGuardUpgradeable.__ReentrancyGuard_init();\n    }\n\n    function initializeState(\n        address _proposersAddress,\n        address _challengesAddress,\n        address _shieldAddress\n    ) public initializer {\n        proposersAddress = _proposersAddress;\n        challengesAddress = _challengesAddress;\n        shieldAddress = _shieldAddress;\n        initialize();\n    }\n\n    modifier onlyShield() {\n        require(msg.sender == shieldAddress, 'State: Only shield contract is authorized');\n        _;\n    }\n\n    modifier onlyProposer() {\n        require(msg.sender == proposersAddress, 'State: Only proposer contract is authorized');\n        _;\n    }\n\n    modifier onlyChallenger() {\n        require(msg.sender == challengesAddress, 'State: Only challenger contract is authorized');\n        _;\n    }\n\n    modifier onlyCurrentProposer() {\n        // Modifier\n        require(\n            msg.sender == currentProposer.thisAddress,\n            'State: Only current proposer authorised'\n        );\n        _;\n    }\n\n    receive() external payable {\n        //fallback for payable\n    }\n\n    /**\n     * Allows a Proposer to propose a new block of state updates.\n     * @param b the block being proposed.  This function is kept in State.sol\n     * so that we don't have cross-contract calls and thus keep Gas to an absolute\n     * minimum.\n     */\n    function proposeBlock(Block calldata b, Transaction[] calldata t)\n        external\n        payable\n        onlyCurrentProposer\n        whenNotPaused\n    {\n        require(t.length >= 1, 'State: Block must contain at least one transaction');\n        require(\n            Utils.getBlockNumberL2(b.packedInfo) == blockHashes.length,\n            'State: Block out of order'\n        ); // this will fail if a tx is re-mined out of order due to a chain reorg.\n        if (blockHashes.length != 0) {\n            require(\n                b.previousBlockHash == blockHashes[blockHashes.length - 1].blockHash,\n                'State: Block flawed or out of order'\n            ); // this will fail if a tx is re-mined out of order due to a chain reorg.\n        }\n        require(\n            Utils.getProposer(b.packedInfo) == msg.sender,\n            'State: The sender is not the proposer'\n        );\n        require(\n            stakeAccounts[msg.sender].amount + msg.value >= blockStake,\n            'State: Proposer does not have enough funds staked'\n        );\n        stakeAccounts[msg.sender].amount =\n            stakeAccounts[msg.sender].amount +\n            uint112(msg.value) -\n            blockStake;\n        stakeAccounts[msg.sender].challengeLocked += blockStake;\n        stakeAccounts[msg.sender].time = 0;\n\n        uint248 feesL2 = 0;\n\n        bytes32 blockHash;\n        uint256 blockSlots = BLOCK_STRUCTURE_SLOTS; //Number of slots that the block structure has\n        uint256 maxBlockSize = MAX_BLOCK_SIZE;\n\n        assembly {\n            //Function that calculates the height of the Merkle Tree\n            function getTreeHeight(leaves) -> _height {\n                _height := 1\n                for {\n\n                } lt(exp(2, _height), leaves) {\n\n                } {\n                    _height := add(_height, 1)\n                }\n            }\n\n            if lt(maxBlockSize, sub(calldatasize(), add(t.offset, calldataload(t.offset)))) {\n                mstore(0, 0x41c918e600000000000000000000000000000000000000000000000000000000) //Custom error InvalidBlockSize\n                revert(0, 4)\n            }\n\n            let x := mload(0x40) //Gets the first free memory pointer\n            let transactionHashesPos := add(x, mul(0x20, 3)) // calculate memory location of the transaction hashes\n            let transactionPos := add(\n                transactionHashesPos,\n                mul(0x20, exp(2, getTreeHeight(t.length)))\n            )\n\n            for {\n                let i := 0\n            } lt(i, t.length) {\n                i := add(i, 1)\n            } {\n                let transactionSlots := div(\n                    sub(\n                        add(t.offset, calldataload(add(t.offset, mul(0x20, add(i, 1))))),\n                        add(t.offset, calldataload(add(t.offset, mul(0x20, i))))\n                    ),\n                    32\n                )\n\n                if eq(add(i, 1), t.length) {\n                    transactionSlots := div(\n                        sub(\n                            calldatasize(),\n                            add(t.offset, calldataload(add(t.offset, mul(0x20, i))))\n                        ),\n                        32\n                    )\n                }\n\n                // Copy the transaction into transactionPos\n                calldatacopy(\n                    add(transactionPos, 0x20),\n                    add(t.offset, calldataload(add(t.offset, mul(0x20, i)))),\n                    mul(0x20, transactionSlots)\n                )\n\n                // We need to add 0x20 at the beginning of the transactionSlots to match with abi.encode(calldata);\n                mstore(transactionPos, 0x20)\n\n                // Calculate the hash of the transaction and store it in transactionHashesPos\n                mstore(\n                    add(transactionHashesPos, mul(0x20, i)),\n                    keccak256(transactionPos, mul(0x20, add(transactionSlots, 1)))\n                )\n\n                // We need to check if circuit requires to escrow funds\n                // Need to remember that the first slot in transactionPos is 0x20\n                mstore(x, shr(216, mload(add(transactionPos, 0x20))))\n                mstore(add(x, 0x20), circuitInfo.slot)\n\n                let isEscrowRequired := shr(8, sload(keccak256(x, mul(0x20, 2))))\n\n                if isEscrowRequired {\n                    let commitment := mload(\n                        add(\n                            0x20, // Need to remember that the first slot in transactionPos is 0x20\n                            add(transactionPos, add(mload(add(transactionPos, mul(0x20, 6))), 0x20))\n                        )\n                    )\n\n                    if commitment {\n                        mstore(x, commitment)\n                        mstore(add(x, 0x20), isCommitmentEscrowed.slot)\n                        let commitmentEscrowed := sload(keccak256(x, mul(0x20, 2)))\n\n                        //If the funds weren't deposited, means the user sent the deposit off-chain, which is not allowed. Revert\n                        if iszero(commitmentEscrowed) {\n                            mstore(\n                                0,\n                                0x30584a2900000000000000000000000000000000000000000000000000000000 //Custom error CommitmentNotEscrowed\n                            )\n                            mstore(0x04, commitment)\n                            revert(0, 36)\n                        }\n                    }\n                }\n\n                let fee := shr(\n                    160,\n                    shl(40, calldataload(add(t.offset, calldataload(add(t.offset, mul(0x20, i))))))\n                )\n                feesL2 := add(feesL2, fee)\n            }\n\n            //Calculate the root of the transactions merkle tree\n            for {\n                let i := getTreeHeight(t.length)\n            } gt(i, 0) {\n                i := sub(i, 1)\n            } {\n                for {\n                    let j := 0\n                } lt(j, exp(2, sub(i, 1))) {\n                    j := add(j, 1)\n                } {\n                    let leftPos := add(transactionHashesPos, mul(mul(0x20, j), 2))\n                    if eq(and(iszero(mload(leftPos)), iszero(mload(add(leftPos, 0x20)))), 1) {\n                        mstore(add(transactionHashesPos, mul(0x20, j)), 0)\n                    }\n                    if eq(and(iszero(mload(leftPos)), iszero(mload(add(leftPos, 0x20)))), 0) {\n                        mstore(add(transactionHashesPos, mul(0x20, j)), keccak256(leftPos, 0x40))\n                    }\n                }\n            }\n            // check if the transaction hashes root calculated equal to the one passed as part of block data\n            if eq(\n                eq(\n                    calldataload(add(0x04, mul(sub(blockSlots, 1), 0x20))),\n                    mload(transactionHashesPos)\n                ),\n                0\n            ) {\n                mstore(0, 0x3c80abfc00000000000000000000000000000000000000000000000000000000) //Custom error InvalidTransactionHash\n                revert(0, 4)\n            }\n            // calculate block hash\n            calldatacopy(x, 0x04, mul(0x20, blockSlots)) //Copy the block structure into x\n            blockHash := keccak256(x, mul(blockSlots, 0x20))\n        }\n        // We need to set the blockHash on chain here, because there is no way to\n        // convince a challenge function of the (in)correctness by an offchain\n        // computation; the on-chain code doesn't save the pre-image of the hash so\n        // it can't tell if it's been given the correct one as part of a challenge.\n        // To do this, we simply hash the function parameters because (1) they\n        // contain all of the relevant data (2) it doesn't take much gas.\n        // All check pass so add the block to the list of blocks waiting to be permanently added to the state - we only save the hash of the block data plus the absolute minimum of metadata - it's up to the challenger, or person requesting inclusion of the block to the permanent contract state, to provide the block data.\n\n        // Store block fees\n        blockInfo[blockHash].feesL2 = feesL2;\n\n        // blockHash is hash of all block data and hash of all the transactions data.\n        blockHashes.push(\n            BlockData({\n                blockHash: blockHash,\n                time: block.timestamp,\n                blockStake: blockStake,\n                proposer: Utils.getProposer(b.packedInfo)\n            })\n        );\n        // Timber will listen for the BlockProposed event as well as\n        // nightfall-optimist.  The current, optimistic version of Timber does not\n        // require the smart contract to craft NewLeaf/NewLeaves events.\n        emit BlockProposed();\n    }\n\n    function setCommitmentEscrowed(bytes32 commitmentHash) public onlyShield {\n        isCommitmentEscrowed[commitmentHash] = true;\n    }\n\n    function getCommitmentEscrowed(bytes32 commitmentHash) public view returns (bool) {\n        return isCommitmentEscrowed[commitmentHash];\n    }\n\n    function setProposer(address addr, LinkedAddress calldata proposer) public onlyProposer {\n        proposers[addr] = proposer;\n    }\n\n    function getProposer(address addr) public view returns (LinkedAddress memory) {\n        return proposers[addr];\n    }\n\n    function setCurrentProposer(address proposer) public onlyProposer {\n        currentProposer = proposers[proposer];\n    }\n\n    function getCurrentProposer() public view returns (LinkedAddress memory) {\n        return currentProposer;\n    }\n\n    function resetFeeBookBlocksInfo(bytes32 blockHash) public onlyShield {\n        blockInfo[blockHash].feesL2 = 0;\n    }\n\n    function popBlockData() public onlyChallenger returns (BlockData memory) {\n        // oddly .pop() doesn't return the 'popped' element\n        BlockData memory popped = blockHashes[blockHashes.length - 1];\n        blockHashes.pop();\n        return popped;\n    }\n\n    function getBlockData(uint64 blockNumberL2) public view returns (BlockData memory) {\n        require(blockNumberL2 < blockHashes.length, 'State: Invalid block number L2');\n        return blockHashes[blockNumberL2];\n    }\n\n    function getNumberOfL2Blocks() public view returns (uint256) {\n        return blockHashes.length;\n    }\n\n    function addPendingWithdrawal(\n        address addr,\n        uint256 feesL1,\n        uint256 feesL2\n    ) public {\n        require(\n            msg.sender == proposersAddress || msg.sender == shieldAddress,\n            'State: Not authorised to call this function'\n        );\n\n        pendingWithdrawalsFees[addr] = FeeTokens(feesL1, feesL2);\n    }\n\n    function withdraw() external nonReentrant whenNotPaused {\n        uint256 amountL1Token = pendingWithdrawalsFees[msg.sender].feesL1;\n        uint256 amountL2Token = pendingWithdrawalsFees[msg.sender].feesL2;\n\n        if (amountL1Token > 0) {\n            pendingWithdrawalsFees[msg.sender].feesL1 = 0;\n            (bool success, ) = payable(msg.sender).call{value: amountL1Token}('');\n            require(success, 'Transfer failed.');\n        }\n        if (amountL2Token > 0) {\n            pendingWithdrawalsFees[msg.sender].feesL2 = 0;\n            IERC20Upgradeable(super.getFeeL2TokenAddress()).safeTransferFrom(\n                address(this),\n                msg.sender,\n                amountL2Token\n            );\n        }\n    }\n\n    function setProposerStartBlock(uint256 sb) public onlyProposer {\n        proposerStartBlock = sb;\n    }\n\n    function setNumProposers(uint256 np) public onlyProposer {\n        uint256 prevNumProposers = numProposers;\n        numProposers = np;\n        if (numProposers == 2 && prevNumProposers == 1) {\n            initializeSpan();\n            calculateNextProposers(address(0));\n        }\n    }\n\n    function getNumProposers() public view returns (uint256) {\n        return numProposers;\n    }\n\n    function removeProposer(address proposer) public {\n        require(\n            msg.sender == proposersAddress || msg.sender == challengesAddress,\n            'State: Not authorised to call this function'\n        );\n        _removeProposer(proposer);\n        if (proposer == currentProposer.thisAddress || currentProposer.thisAddress == address(0)) {\n            currentProposer = proposers[currentProposer.nextAddress]; // we need to refresh the current proposer before the change\n            proposerStartBlock = 0;\n            changeCurrentProposer();\n        }\n    }\n\n    function _removeProposer(address proposer) internal {\n        address previousAddress = proposers[proposer].previousAddress;\n        address nextAddress = proposers[proposer].nextAddress;\n        delete proposers[proposer];\n        numProposers--;\n        proposers[previousAddress].nextAddress = proposers[nextAddress].thisAddress;\n        proposers[nextAddress].previousAddress = proposers[previousAddress].thisAddress;\n        if (\n            previousAddress == currentProposer.thisAddress ||\n            nextAddress == currentProposer.thisAddress\n        ) {\n            currentProposer = proposers[currentProposer.thisAddress]; // we need to refresh the current proposer addresses\n        }\n    }\n\n    function updateProposer(\n        address proposer,\n        string calldata url,\n        uint256 fee\n    ) public onlyProposer {\n        proposers[proposer].url = url;\n        proposers[proposer].fee = fee;\n    }\n\n    // Checks if a block is actually referenced in the queue of blocks waiting\n    // to go into the Shield state (stops someone challenging with a non-existent\n    // block).\n    function isBlockReal(Block calldata b) public view {\n        uint64 blockNumberL2 = Utils.getBlockNumberL2(b.packedInfo);\n        require(\n            blockNumberL2 < blockHashes.length &&\n                blockHashes[blockNumberL2].blockHash == Utils.hashBlock(b),\n            'State: Block does not exist'\n        );\n    }\n\n    // Checks if a block is actually referenced in the queue of blocks waiting\n    // to go into the Shield state (stops someone challenging with a non-existent\n    // block).\n    function areBlockAndTransactionsReal(Block calldata b, Transaction[] calldata ts) public view {\n        isBlockReal(b);\n        require(\n            b.transactionHashesRoot == Utils.hashTransactionHashes(ts),\n            'State: Transaction hashes root does not match'\n        );\n    }\n\n    // Checks if a block is actually referenced in the queue of blocks waiting\n    // to go into the Shield state (stops someone challenging with a non-existent\n    // block). It also checks if a transaction is contained in a block using its sibling path\n    function areBlockAndTransactionReal(\n        Block calldata b,\n        Transaction calldata t,\n        uint256 index,\n        bytes32[] calldata siblingPath\n    ) public view returns (bytes32) {\n        isBlockReal(b);\n        require(\n            b.transactionHashesRoot == siblingPath[0],\n            'State: Transaction hashes root is incorrect'\n        );\n        bytes32 transactionHash = Utils.hashTransaction(t);\n        require(\n            Utils.checkPath(siblingPath, index, transactionHash),\n            'State: Transaction does not exist in block'\n        );\n        return transactionHash;\n    }\n\n    /**\n     * @dev Set stake account for the address addr with amount of stake and challengeLocked\n     */\n    function setStakeAccount(\n        address addr,\n        uint256 amount,\n        uint256 challengeLocked\n    ) public {\n        require(\n            msg.sender == proposersAddress || msg.sender == shieldAddress,\n            'State: Not authorised to call this function'\n        );\n        stakeAccounts[addr] = TimeLockedStake(uint112(amount), uint112(challengeLocked), 0);\n    }\n\n    /**\n     * @dev Get stake account for the address addr\n     */\n    function getStakeAccount(address addr) public view returns (TimeLockedStake memory) {\n        return stakeAccounts[addr];\n    }\n\n    function rewardChallenger(\n        address challengerAddr,\n        address proposer,\n        BlockData[] memory badBlocks\n    ) public onlyChallenger {\n        removeProposer(proposer);\n\n        uint256 rewardedStake = 0;\n        for (uint256 i = 0; i < badBlocks.length; ++i) {\n            TimeLockedStake memory stake = stakeAccounts[badBlocks[i].proposer];\n            // Give reward to challenger from the stake locked for challenges\n            stakeAccounts[proposer] = TimeLockedStake(\n                stake.amount,\n                stake.challengeLocked - badBlocks[i].blockStake,\n                0\n            );\n            rewardedStake += badBlocks[i].blockStake;\n        }\n\n        pendingWithdrawalsFees[challengerAddr].feesL1 += rewardedStake;\n    }\n\n    function updateStakeAccountTime(address addr, uint256 time) public onlyProposer {\n        stakeAccounts[addr].time = uint32(time);\n    }\n\n    function setBlockStakeWithdrawn(bytes32 blockHash) public {\n        require(\n            msg.sender == challengesAddress || msg.sender == shieldAddress,\n            'State: Not authorised to call this function'\n        );\n        blockInfo[blockHash].stakeClaimed = true;\n    }\n\n    /**\n     * Each proposer gets a chance to propose blocks for a certain time, defined\n     * in Ethereum blocks.  After a certain number of blocks has passed, the\n     * proposer can be rotated by calling this function. The method for choosing\n     * the next proposer is simple rotation for now.\n     */\n    function changeCurrentProposer() public {\n        require(\n            block.number - proposerStartBlock > rotateProposerBlocks ||\n                proposerStartBlock == 0 ||\n                maxProposers == 1,\n            'State: Too soon to rotate proposer'\n        );\n\n        // if maxProposers=1 only bootProposer as proposer\n        if (maxProposers == 1 && numProposers > 1) {\n            currentProposer = proposers[bootProposer]; // the current proposer will be the boot proposer\n            address selectedProposer = currentProposer.nextAddress;\n            while (numProposers > 1) {\n                _removeProposer(selectedProposer);\n                // The selectedProposer has to wait a CHALLENGE_PERIOD from current block.timestamp\n                stakeAccounts[selectedProposer].time = uint32(block.timestamp);\n                selectedProposer = currentProposer.nextAddress;\n            }\n        }\n\n        address addressBestPeer;\n\n        if (numProposers <= 1) {\n            currentSprint = 0; // We don't have sprints because always same proposer\n            addressBestPeer = currentProposer.thisAddress;\n        } else {\n            addressBestPeer = spanProposersList[currentSprint];\n            currentSprint += 1;\n\n            if (currentSprint == sprintsInSpan) {\n                currentSprint = 0;\n            }\n\n            if (currentSprint == 0) {\n                initializeSpan();\n                calculateNextProposers(addressBestPeer);\n            }\n        }\n\n        currentProposer = proposers[addressBestPeer];\n        proposerStartBlock = block.number;\n        emit NewCurrentProposer(currentProposer.thisAddress);\n    }\n\n    function calculateNextProposers(address addressBestPeer) internal {\n        ProposerSet memory peer;\n        uint256 totalEffectiveWeight = 0;\n        delete spanProposersList;\n        for (uint256 j = 0; j < proposerSetCount; j++) {\n            for (uint256 i = 0; i < proposersSet.length; i++) {\n                peer = proposersSet[i];\n                totalEffectiveWeight += peer.effectiveWeight;\n                peer.currentWeight += int256(peer.effectiveWeight);\n\n                if (peer.effectiveWeight < peer.weight) peer.effectiveWeight++;\n                if (\n                    addressBestPeer == address(0) ||\n                    proposersSet[proposers[addressBestPeer].indexProposerSet].currentWeight <\n                    peer.currentWeight\n                ) {\n                    addressBestPeer = peer.thisAddress;\n                }\n            }\n\n            if (proposersSet[proposers[addressBestPeer].indexProposerSet].weight != 0)\n                proposersSet[proposers[addressBestPeer].indexProposerSet].currentWeight -= int256(\n                    totalEffectiveWeight\n                );\n\n            spanProposersList.push(addressBestPeer);\n        }\n    }\n\n    /**\n     * @dev Initialize a new span\n     */\n    function initializeSpan() internal {\n        fillSlots(); // 1) initialize slots based on the stake\n        shuffleSlots(); // 2) shuffle the slots\n        spanProposerSet(); // 3) pop the proposer set from shuffled slots\n    }\n\n    /**\n     * @dev Fill slots based on the weight\n     */\n    function fillSlots() public {\n        require(\n            currentProposer.thisAddress != address(0),\n            'State: Current proposer not initialized'\n        );\n        LinkedAddress memory p = currentProposer;\n        TimeLockedStake memory stake;\n        uint256 weight;\n\n        uint256 slotValue; // we calculate the slotValue depending on the proposer stakes\n        uint256 maximumSlots = 10; // maximum slots we want for the biggest proposer stake\n        while (p.nextAddress != currentProposer.thisAddress) {\n            stake = getStakeAccount(p.thisAddress);\n            if (slotValue < stake.amount / maximumSlots) {\n                slotValue = stake.amount / maximumSlots;\n            }\n            p = proposers[p.nextAddress];\n        }\n        stake = getStakeAccount(p.thisAddress);\n        if (slotValue < stake.amount / maximumSlots) {\n            slotValue = stake.amount / maximumSlots;\n        }\n\n        p = currentProposer;\n\n        // 1) remove all slots\n        delete slots;\n        // 2) assign slots based on the stake of the proposers\n        while (p.nextAddress != currentProposer.thisAddress) {\n            stake = getStakeAccount(p.thisAddress);\n            weight = stake.amount / slotValue;\n            if (weight == 0) weight = 1;\n            for (uint256 i = 0; i < weight; i++) {\n                slots.push(p.thisAddress);\n            }\n            p = proposers[p.nextAddress];\n        }\n        stake = getStakeAccount(p.thisAddress);\n        weight = stake.amount / slotValue;\n        if (weight == 0) weight = 1;\n        for (uint256 i = 0; i < weight; i++) {\n            slots.push(p.thisAddress);\n        }\n    }\n\n    /**\n     * @dev Shuffle the slots of all proposers\n     */\n    function shuffleSlots() internal {\n        for (uint256 i = 0; i < slots.length; i++) {\n            uint256 n = i +\n                (uint256(keccak256(abi.encodePacked(block.timestamp))) % (slots.length - i));\n            address temp = slots[n];\n            slots[n] = slots[i];\n            slots[i] = temp;\n        }\n    }\n\n    /**\n     * @dev Pop the proposer set for next Span\n     */\n    function spanProposerSet() internal {\n        for (uint256 i = 0; i < proposersSet.length; i++) {\n            proposers[proposersSet[i].thisAddress].inProposerSet = false;\n            proposers[proposersSet[i].thisAddress].indexProposerSet = 0;\n        }\n\n        delete proposersSet;\n\n        // add proposersSet\n        for (uint256 i = 0; i < proposerSetCount; i++) {\n            LinkedAddress memory p = proposers[slots[i]];\n            if (p.inProposerSet == false) {\n                p.inProposerSet = true;\n                p.indexProposerSet = proposersSet.length;\n                ProposerSet memory ps = ProposerSet(p.thisAddress, 1, 0, 0);\n                proposersSet.push(ps);\n                proposers[slots[i]] = p;\n            } else {\n                proposersSet[p.indexProposerSet].weight += 1;\n            }\n        }\n\n        // initialize weights for WRR\n        for (uint256 i = 0; i < proposersSet.length; i++) {\n            proposersSet[i].currentWeight = int256(proposersSet[i].weight);\n            proposersSet[i].effectiveWeight = proposersSet[i].weight;\n        }\n    }\n}\n",
  "sourcePath": "/app/contracts/State.sol",
  "compiler": {
    "name": "solc",
    "version": "0.8.17+commit.8df45f5f.Emscripten.clang"
  },
  "schemaVersion": "3.4.10",
  "updatedAt": "2023-01-04T16:06:58.562Z",
  "networkType": "ethereum",
  "devdoc": {
    "kind": "dev",
    "methods": {
      "fillSlots()": {
        "details": "Fill slots based on the weight"
      },
      "getBlockStake()": {
        "details": "Get block stake for a proposer"
      },
      "getBootChallenger()": {
        "details": "Get boot challenger address"
      },
      "getBootProposer()": {
        "details": "Get boot proposer address"
      },
      "getFeeL2TokenAddress()": {
        "details": "Get Matic address (fee token for proposers payment)"
      },
      "getMaxProposers()": {
        "details": "Get maximum number of proposers"
      },
      "getMinimumStake()": {
        "details": "Get minimum stake for a proposer"
      },
      "getProposerSetCount()": {
        "details": "Get proposerset count in PoS"
      },
      "getRotateProposerBlocks()": {
        "details": "Get rotate proposer blocks for the current proposer"
      },
      "getSprintsInSpan()": {
        "details": "Get sprints in span in PoS"
      },
      "getStakeAccount(address)": {
        "details": "Get stake account for the address addr"
      },
      "owner()": {
        "details": "Tells the address of the owner",
        "returns": {
          "_0": "the address of the owner"
        }
      },
      "paused()": {
        "details": "Returns true if the contract is paused, and false otherwise."
      },
      "proposeBlock((uint256,bytes32,bytes32,bytes32,bytes32),(uint256,uint256[],bytes32,bytes32,bytes32,bytes32[],bytes32[],bytes32[2],uint256[4])[])": {
        "params": {
          "b": "the block being proposed.  This function is kept in State.sol so that we don't have cross-contract calls and thus keep Gas to an absolute minimum."
        }
      },
      "removeRestriction(address)": {
        "details": "Remove token restriction"
      },
      "setBlockStake(uint96)": {
        "details": "Set block stake for a proposer"
      },
      "setBootChallenger(address)": {
        "details": "Set boot challenger address"
      },
      "setBootProposer(address)": {
        "details": "Set boot proposer address"
      },
      "setFeeL2TokenAddress(address)": {
        "details": "Set Matic address (fee token for proposers payment)"
      },
      "setMaxProposers(uint256)": {
        "details": "Set maximum number of proposers"
      },
      "setMinimumStake(uint96)": {
        "details": "Set minimum stake for a proposer"
      },
      "setProposerSetCount(uint256)": {
        "details": "Set proposerset count in PoS"
      },
      "setRestriction(address,uint256,uint256)": {
        "details": "Set token restriction"
      },
      "setRotateProposerBlocks(uint256)": {
        "details": "Set rotate proposer blocks for the current proposer"
      },
      "setSprintsInSpan(uint256)": {
        "details": "Set sprints in span in PoS"
      },
      "setStakeAccount(address,uint256,uint256)": {
        "details": "Set stake account for the address addr with amount of stake and challengeLocked"
      },
      "transferOwnership(address)": {
        "details": "Allows the current owner to transfer control of the contract to a newOwner.",
        "params": {
          "newOwner": "The address to transfer ownership to."
        }
      }
    },
    "version": 1
  },
  "userdoc": {
    "events": {
      "NewLeaf(uint256,bytes32,bytes32)": {
        "notice": "These events are what the merkle-tree microservice's filters will listen for."
      }
    },
    "kind": "user",
    "methods": {
      "changeCurrentProposer()": {
        "notice": "Each proposer gets a chance to propose blocks for a certain time, defined in Ethereum blocks.  After a certain number of blocks has passed, the proposer can be rotated by calling this function. The method for choosing the next proposer is simple rotation for now."
      },
      "proposeBlock((uint256,bytes32,bytes32,bytes32,bytes32),(uint256,uint256[],bytes32,bytes32,bytes32,bytes32[],bytes32[],bytes32[2],uint256[4])[])": {
        "notice": "Allows a Proposer to propose a new block of state updates."
      },
      "registerVerificationKey(uint40,uint256[],bool,bool)": {
        "notice": "Stores verification keys (for the 'deposit', 'depositFee', 'transfer', 'withdraw', 'tokenise' and 'burn' computations)."
      }
    },
    "version": 1
  }
}