{
  "contractName": "Utils",
  "abi": [
    {
      "inputs": [],
      "name": "ZERO",
      "outputs": [
        {
          "internalType": "bytes32",
          "name": "",
          "type": "bytes32"
        }
      ],
      "stateMutability": "view",
      "type": "function",
      "constant": true
    },
    {
      "inputs": [
        {
          "components": [
            {
              "internalType": "uint256",
              "name": "packedInfo",
              "type": "uint256"
            },
            {
              "internalType": "uint256[]",
              "name": "historicRootBlockNumberL2",
              "type": "uint256[]"
            },
            {
              "internalType": "bytes32",
              "name": "tokenId",
              "type": "bytes32"
            },
            {
              "internalType": "bytes32",
              "name": "ercAddress",
              "type": "bytes32"
            },
            {
              "internalType": "bytes32",
              "name": "recipientAddress",
              "type": "bytes32"
            },
            {
              "internalType": "bytes32[]",
              "name": "commitments",
              "type": "bytes32[]"
            },
            {
              "internalType": "bytes32[]",
              "name": "nullifiers",
              "type": "bytes32[]"
            },
            {
              "internalType": "bytes32[2]",
              "name": "compressedSecrets",
              "type": "bytes32[2]"
            },
            {
              "internalType": "uint256[4]",
              "name": "proof",
              "type": "uint256[4]"
            }
          ],
          "internalType": "struct Structures.Transaction[]",
          "name": "ts",
          "type": "tuple[]"
        }
      ],
      "name": "hashTransactionHashes",
      "outputs": [
        {
          "internalType": "bytes32",
          "name": "",
          "type": "bytes32"
        }
      ],
      "stateMutability": "pure",
      "type": "function",
      "constant": true
    },
    {
      "inputs": [
        {
          "internalType": "bytes32[]",
          "name": "leaves",
          "type": "bytes32[]"
        }
      ],
      "name": "calculateMerkleRoot",
      "outputs": [
        {
          "internalType": "bytes32",
          "name": "result",
          "type": "bytes32"
        }
      ],
      "stateMutability": "pure",
      "type": "function",
      "constant": true
    },
    {
      "inputs": [
        {
          "internalType": "bytes32[]",
          "name": "siblingPath",
          "type": "bytes32[]"
        },
        {
          "internalType": "uint256",
          "name": "leafIndex",
          "type": "uint256"
        },
        {
          "internalType": "bytes32",
          "name": "node",
          "type": "bytes32"
        }
      ],
      "name": "checkPath",
      "outputs": [
        {
          "internalType": "bool",
          "name": "",
          "type": "bool"
        }
      ],
      "stateMutability": "pure",
      "type": "function",
      "constant": true
    }
  ],
  "bytecode": "0x61076661003a600b82828239805160001a60731461002d57634e487b7160e01b600052600060045260246000fd5b30600052607381538281f3fe73000000000000000000000000000000000000000030146080604052600436106100565760003560e01c80630e07a40b1461005b57806335e29c881461008357806358fa63ca146100a4578063bd98fe65146100ac575b600080fd5b61006e6100693660046103c0565b6100bf565b60405190151581526020015b60405180910390f35b610096610091366004610426565b6101c6565b60405190815260200161007a565b610096600081565b6100966100ba3660046104e3565b610282565b6000806100cd60018661053a565b90505b801561019f576100e160028561054d565b60000361013957828686838181106100fb576100fb61056f565b9050602002013560405160200161011c929190918252602082015260400190565b604051602081830303815290604052805190602001209250610186565b85858281811061014b5761014b61056f565b905060200201358360405160200161016d929190918252602082015260400190565b6040516020818303038152906040528051906020012092505b60019390931c928061019781610585565b9150506100d0565b5081858560008181106101b4576101b461056f565b90506020020135149050949350505050565b600081516020830160405160005b838110156101f0576020810283810151908301526001016101d4565b50600191505b828260020a101561020c576001820191506101f6565b8192505b821561027a5760005b6001840360020a81101561026e57604081028201805160209091015180158215166000190161024757600096505b811581151661025b57604083810285012096505b5050602081028201859052600101610219565b50600183039250610210565b505050919050565b60008080836001600160401b0381111561029e5761029e610410565b6040519080825280602002602001820160405280156102c7578160200160208202803683370190505b50905060005b84811015610330576103018686838181106102ea576102ea61056f565b90506020028101906102fc919061059c565b610345565b8282815181106103135761031361056f565b602090810291909101015280610328816105bd565b9150506102cd565b5061033a816101c6565b925050505b92915050565b6000816040516020016103589190610662565b604051602081830303815290604052805190602001209050919050565b60008083601f84011261038757600080fd5b5081356001600160401b0381111561039e57600080fd5b6020830191508360208260051b85010111156103b957600080fd5b9250929050565b600080600080606085870312156103d657600080fd5b84356001600160401b038111156103ec57600080fd5b6103f887828801610375565b90989097506020870135966040013595509350505050565b634e487b7160e01b600052604160045260246000fd5b6000602080838503121561043957600080fd5b82356001600160401b038082111561045057600080fd5b818501915085601f83011261046457600080fd5b81358181111561047657610476610410565b8060051b604051601f19603f8301168101818110858211171561049b5761049b610410565b6040529182528482019250838101850191888311156104b957600080fd5b938501935b828510156104d7578435845293850193928501926104be565b98975050505050505050565b600080602083850312156104f657600080fd5b82356001600160401b0381111561050c57600080fd5b61051885828601610375565b90969095509350505050565b634e487b7160e01b600052601160045260246000fd5b8181038181111561033f5761033f610524565b60008261056a57634e487b7160e01b600052601260045260246000fd5b500690565b634e487b7160e01b600052603260045260246000fd5b60008161059457610594610524565b506000190190565b6000823561019e198336030181126105b357600080fd5b9190910192915050565b6000600182016105cf576105cf610524565b5060010190565b6000808335601e198436030181126105ed57600080fd5b83016020810192503590506001600160401b0381111561060c57600080fd5b8060051b36038213156103b957600080fd5b81835260006001600160fb1b0383111561063757600080fd5b8260051b80836020870137939093016020019392505050565b60408183375050565b60808183375050565b6020815281356020820152600061067c60208401846105d6565b6101a060408501526106936101c08501828461061e565b9150506040840135606084015260608401356080840152608084013560a08401526106c160a08501856105d6565b601f19808685030160c08701526106d984838561061e565b93506106e860c08801886105d6565b93509150808685030160e08701525061070283838361061e565b92505050610717610100840160e08601610650565b61072961014084016101208601610659565b939250505056fea26469706673582212203e01eb1994e67620c9d1be60611b656dfbf4b121a2ed15f64ef930d36861349b64736f6c63430008110033",
  "immutableReferences": {},
  "source": "// SPDX-License-Identifier: CC0\n\npragma solidity ^0.8.0;\n\nimport './Structures.sol';\n\nlibrary Utils {\n    bytes32 public constant ZERO = bytes32(0);\n\n    function hashTransaction(Structures.Transaction calldata t) internal pure returns (bytes32) {\n        return keccak256(abi.encode(t));\n    }\n\n    function hashBlock(Structures.Block calldata b) internal pure returns (bytes32) {\n        return keccak256(abi.encode(b));\n    }\n\n    function hashFrontier(bytes32[33] memory frontier) internal pure returns (bytes32) {\n        return keccak256(abi.encode(frontier));\n    }\n\n    function getValue(uint256 packedTransactionInfo) internal pure returns (uint112) {\n        return uint112(packedTransactionInfo >> 8);\n    }\n\n    function getCircuitHash(uint256 packedTransactionInfo) internal pure returns (uint40) {\n        return uint40(packedTransactionInfo >> 216);\n    }\n\n    function getFee(uint256 packedTransactionInfo) internal pure returns (uint96) {\n        return uint96(packedTransactionInfo >> 120);\n    }\n\n    function getTokenType(uint256 packedTransactionInfo)\n        internal\n        pure\n        returns (Structures.TokenType)\n    {\n        return Structures.TokenType(uint8(packedTransactionInfo));\n    }\n\n    function getProposer(uint256 packedBlockInfo) internal pure returns (address) {\n        return address(uint160(packedBlockInfo));\n    }\n\n    function getLeafCount(uint256 packedBlockInfo) internal pure returns (uint32) {\n        return uint32(packedBlockInfo >> 224);\n    }\n\n    function getBlockNumberL2(uint256 packedBlockInfo) internal pure returns (uint64) {\n        return uint64(packedBlockInfo >> 160);\n    }\n\n    function getHistoricRoot(uint256[] calldata historicRootBlockNumberL2, uint256 position)\n        internal\n        pure\n        returns (uint64)\n    {\n        uint256 slot = position / 4;\n        uint256 pos = 64 * (3 - (position % 4));\n        return uint64(historicRootBlockNumberL2[slot] >> pos);\n    }\n\n    function hashTransactionHashes(Structures.Transaction[] calldata ts)\n        public\n        pure\n        returns (bytes32)\n    {\n        bytes32 transactionHashesRoot;\n        bytes32[] memory transactionHashes = new bytes32[](ts.length);\n\n        for (uint256 i = 0; i < ts.length; i++) {\n            transactionHashes[i] = hashTransaction(ts[i]);\n        }\n        transactionHashesRoot = calculateMerkleRoot(transactionHashes);\n        return transactionHashesRoot;\n    }\n\n    function compressG1(uint256 x, uint256 y) internal pure returns (uint256) {\n        // compute whether y is odd or even and multiply by 2**255\n        uint256 parity = 0x8000000000000000000000000000000000000000000000000000000000000000 *\n            (y % 2);\n        // add the parity bit to the x cordinate (x,y are 254 bits long - the final\n        // number is 256 bits to fit with an Ethereum word)\n        return parity + x;\n    }\n\n    function compressG2(\n        uint256 xr,\n        uint256 xi,\n        uint256 yr,\n        uint256 yi\n    ) internal pure returns (uint256, uint256) {\n        return (compressG1(xr, yr), compressG1(xi, yi));\n    }\n\n    function compressProof(uint256[8] memory proof) internal pure returns (uint256[4] memory) {\n        uint256 a = compressG1(proof[0], proof[1]);\n        (uint256 rb, uint256 ib) = compressG2(proof[2], proof[3], proof[4], proof[5]);\n        uint256 c = compressG1(proof[6], proof[7]);\n        return [a, rb, ib, c];\n    }\n\n    // counts the number of non-zero values (useful for counting real commitments and nullifiers)\n    function countNonZeroValues(bytes32[] calldata vals) internal pure returns (uint256) {\n        uint256 count;\n        for (uint256 i = 0; i < vals.length; ++i) {\n            if (vals[i] != ZERO) ++count;\n        }\n        return count;\n    }\n\n    // counts the number of non-zero commitments in a block containing the ts transactions)\n    function countCommitments(Structures.Transaction[] calldata ts)\n        internal\n        pure\n        returns (uint256)\n    {\n        uint256 count;\n        for (uint256 i = 0; i < ts.length; i++) {\n            count += countNonZeroValues(ts[i].commitments);\n        }\n        return count;\n    }\n\n    // filters the non-zero commitments in a block containing the ts transactions)\n    function filterCommitments(Structures.Transaction[] calldata ts)\n        internal\n        pure\n        returns (bytes32[] memory)\n    {\n        bytes32[] memory filtered = new bytes32[](countCommitments(ts));\n        uint256 count;\n        for (uint256 i = 0; i < ts.length; i++) {\n            for (uint256 j = 0; j < ts[i].commitments.length; j++) {\n                if (ts[i].commitments[j] != ZERO) filtered[count++] = ts[i].commitments[j];\n            }\n        }\n        return filtered;\n    }\n\n    // gathers public inputs for each tx type\n    // required now we have removed the publicInputHash\n    function getPublicInputs(\n        Structures.Transaction calldata ts,\n        uint256[] memory roots,\n        address maticAddress\n    ) internal pure returns (uint256[] memory) {\n        uint256 transactionSlots = 17 +\n            2 *\n            ts.nullifiers.length +\n            roots.length +\n            ts.commitments.length;\n        uint256[] memory inputs = new uint256[](transactionSlots);\n        uint256 count = 0;\n        inputs[count++] = uint256(getValue(ts.packedInfo));\n        inputs[count++] = uint256(getFee(ts.packedInfo));\n        inputs[count++] = uint256(getCircuitHash(ts.packedInfo));\n        inputs[count++] = uint256(getTokenType(ts.packedInfo));\n        for (uint256 i = 0; i < ts.nullifiers.length; ++i) {\n            inputs[count++] = uint256(getHistoricRoot(ts.historicRootBlockNumberL2, i));\n        }\n        inputs[count++] = uint256(ts.ercAddress);\n        inputs[count++] = uint32(uint256(ts.tokenId) >> 224);\n        inputs[count++] = uint32(uint256(ts.tokenId) >> 192);\n        inputs[count++] = uint32(uint256(ts.tokenId) >> 160);\n        inputs[count++] = uint32(uint256(ts.tokenId) >> 128);\n        inputs[count++] = uint32(uint256(ts.tokenId) >> 96);\n        inputs[count++] = uint32(uint256(ts.tokenId) >> 64);\n        inputs[count++] = uint32(uint256(ts.tokenId) >> 32);\n        inputs[count++] = uint32(uint256(ts.tokenId));\n        inputs[count++] = uint256(ts.recipientAddress);\n        for (uint256 i = 0; i < ts.commitments.length; ++i) {\n            inputs[count++] = uint256(ts.commitments[i]);\n        }\n        for (uint256 i = 0; i < ts.nullifiers.length; ++i) {\n            inputs[count++] = uint256(ts.nullifiers[i]);\n        }\n        inputs[count++] = uint256(ts.compressedSecrets[0]);\n        inputs[count++] = uint256(ts.compressedSecrets[1]);\n        for (uint256 i = 0; i < roots.length; ++i) {\n            inputs[count++] = uint256(roots[i]);\n        }\n        inputs[count++] = uint256(uint160(maticAddress));\n        return inputs;\n    }\n\n    function calculateMerkleRoot(bytes32[] memory leaves) public pure returns (bytes32 result) {\n        assembly {\n            let length := mload(leaves)\n            let leavesPos := add(leaves, 0x20)\n            let transactionHashesPos := mload(0x40)\n            for {\n                let i := 0\n            } lt(i, length) {\n                i := add(i, 1)\n            } {\n                mstore(add(transactionHashesPos, mul(0x20, i)), mload(add(leavesPos, mul(0x20, i))))\n            }\n            let height := 1\n            for {\n\n            } lt(exp(2, height), length) {\n\n            } {\n                height := add(height, 1)\n            }\n            for {\n                let i := height\n            } gt(i, 0) {\n                i := sub(i, 1)\n            } {\n                for {\n                    let j := 0\n                } lt(j, exp(2, sub(i, 1))) {\n                    j := add(j, 1)\n                } {\n                    let left := mload(add(transactionHashesPos, mul(mul(0x20, j), 2)))\n                    let right := mload(add(transactionHashesPos, add(mul(mul(0x20, j), 2), 0x20)))\n                    if eq(and(iszero(left), iszero(right)), 1) {\n                        result := 0\n                    } // returns bool\n                    if eq(and(iszero(left), iszero(right)), 0) {\n                        result := keccak256(add(transactionHashesPos, mul(mul(0x20, j), 2)), 0x40)\n                    } // returns bool\n                    mstore(add(transactionHashesPos, mul(0x20, j)), result)\n                }\n            }\n        }\n    }\n\n    function checkPath(\n        bytes32[] calldata siblingPath,\n        uint256 leafIndex,\n        bytes32 node\n    ) public pure returns (bool) {\n        for (uint256 i = siblingPath.length - 1; i > 0; i--) {\n            if (leafIndex % 2 == 0) {\n                node = keccak256(abi.encodePacked(node, siblingPath[i]));\n            } else {\n                node = keccak256(abi.encodePacked(siblingPath[i], node));\n            }\n            leafIndex = leafIndex >> 1;\n        }\n        return (siblingPath[0] == node);\n    }\n}\n",
  "sourcePath": "/app/contracts/Utils.sol",
  "compiler": {
    "name": "solc",
    "version": "0.8.17+commit.8df45f5f.Emscripten.clang"
  },
  "schemaVersion": "3.4.10",
  "updatedAt": "2022-12-08T15:25:52.208Z",
  "networkType": "ethereum",
  "devdoc": {
    "kind": "dev",
    "methods": {},
    "version": 1
  },
  "userdoc": {
    "kind": "user",
    "methods": {},
    "version": 1
  }
}