{
  "contractName": "Utils",
  "abi": [
    {
      "inputs": [],
      "name": "ZERO",
      "outputs": [
        {
          "internalType": "bytes32",
          "name": "",
          "type": "bytes32"
        }
      ],
      "stateMutability": "view",
      "type": "function",
      "constant": true
    },
    {
      "inputs": [
        {
          "components": [
            {
              "internalType": "uint256",
              "name": "packedInfo",
              "type": "uint256"
            },
            {
              "internalType": "uint256[]",
              "name": "historicRootBlockNumberL2",
              "type": "uint256[]"
            },
            {
              "internalType": "bytes32",
              "name": "tokenId",
              "type": "bytes32"
            },
            {
              "internalType": "bytes32",
              "name": "ercAddress",
              "type": "bytes32"
            },
            {
              "internalType": "bytes32",
              "name": "recipientAddress",
              "type": "bytes32"
            },
            {
              "internalType": "bytes32[]",
              "name": "commitments",
              "type": "bytes32[]"
            },
            {
              "internalType": "bytes32[]",
              "name": "nullifiers",
              "type": "bytes32[]"
            },
            {
              "internalType": "bytes32[2]",
              "name": "compressedSecrets",
              "type": "bytes32[2]"
            },
            {
              "internalType": "uint256[4]",
              "name": "proof",
              "type": "uint256[4]"
            }
          ],
          "internalType": "struct Structures.Transaction[]",
          "name": "ts",
          "type": "tuple[]"
        }
      ],
      "name": "hashTransactionHashes",
      "outputs": [
        {
          "internalType": "bytes32",
          "name": "",
          "type": "bytes32"
        }
      ],
      "stateMutability": "pure",
      "type": "function",
      "constant": true
    },
    {
      "inputs": [
        {
          "internalType": "bytes32[]",
          "name": "leaves",
          "type": "bytes32[]"
        }
      ],
      "name": "calculateMerkleRoot",
      "outputs": [
        {
          "internalType": "bytes32",
          "name": "result",
          "type": "bytes32"
        }
      ],
      "stateMutability": "pure",
      "type": "function",
      "constant": true
    },
    {
      "inputs": [
        {
          "internalType": "bytes32[]",
          "name": "siblingPath",
          "type": "bytes32[]"
        },
        {
          "internalType": "uint256",
          "name": "leafIndex",
          "type": "uint256"
        },
        {
          "internalType": "bytes32",
          "name": "node",
          "type": "bytes32"
        }
      ],
      "name": "checkPath",
      "outputs": [
        {
          "internalType": "bool",
          "name": "",
          "type": "bool"
        }
      ],
      "stateMutability": "pure",
      "type": "function",
      "constant": true
    },
    {
      "inputs": [
        {
          "internalType": "uint256[2]",
          "name": "x",
          "type": "uint256[2]"
        },
        {
          "internalType": "uint256[2]",
          "name": "b",
          "type": "uint256[2]"
        }
      ],
      "name": "fq2Mul",
      "outputs": [
        {
          "internalType": "uint256[2]",
          "name": "",
          "type": "uint256[2]"
        }
      ],
      "stateMutability": "pure",
      "type": "function",
      "constant": true
    },
    {
      "inputs": [
        {
          "internalType": "uint256[2]",
          "name": "x",
          "type": "uint256[2]"
        }
      ],
      "name": "fq2Sqrt",
      "outputs": [
        {
          "internalType": "bool",
          "name": "",
          "type": "bool"
        },
        {
          "internalType": "uint256[2]",
          "name": "",
          "type": "uint256[2]"
        }
      ],
      "stateMutability": "pure",
      "type": "function",
      "constant": true
    }
  ],
  "bytecode": "0x610c5161003a600b82828239805160001a60731461002d57634e487b7160e01b600052600060045260246000fd5b30600052607381538281f3fe730000000000000000000000000000000000000000301460806040526004361061006c5760003560e01c80630e07a40b1461007157806335e29c88146100995780635698508e146100ba57806358fa63ca146100da5780638835829e146100e2578063bd98fe6514610103575b600080fd5b61008461007f366004610750565b610116565b60405190151581526020015b60405180910390f35b6100ac6100a73660046107e6565b61021d565b604051908152602001610090565b6100cd6100c83660046108fa565b6102d9565b6040516100909190610958565b6100ac600081565b6100f56100f0366004610966565b61039e565b604051610090929190610989565b6100ac61011136600461099f565b610531565b6000806101246001866109f6565b90505b80156101f657610138600285610a1f565b600003610190578286868381811061015257610152610a41565b90506020020135604051602001610173929190918252602082015260400190565b6040516020818303038152906040528051906020012092506101dd565b8585828181106101a2576101a2610a41565b90506020020135836040516020016101c4929190918252602082015260400190565b6040516020818303038152906040528051906020012092505b60019390931c92806101ee81610a57565b915050610127565b50818585600081811061020b5761020b610a41565b90506020020135149050949350505050565b600081516020830160405160005b838110156102475760208102838101519083015260010161022b565b50600191505b828260020a10156102635760018201915061024d565b8192505b82156102d15760005b6001840360020a8110156102c557604081028201805160209091015180158215166000190161029e57600096505b81158115166102b257604083810285012096505b5050602081028201859052600101610270565b50600183039250610267565b505050919050565b6102e16106e7565b6040518060400160405280600080516020610bfc8339815191528061030857610308610a09565b60208086015190870151600080516020610bfc83398151915291900961033c90600080516020610bfc8339815191526109f6565b85518751600080516020610bfc833981519152919009088152602001600080516020610bfc83398151915280856001602002015187600060200201510985516020880151600080516020610bfc83398151915291900908905290505b92915050565b60006103a86106e7565b60006103d4847f0c19139cb84c680a6e14116da060561765e05aa45a1c72a34f082305b61f3f516105f2565b905060006103e282866102d9565b905060006103f082846102d9565b9050600061041561040f83600080516020610bfc8339815191526105f2565b836102d9565b90506104306001600080516020610bfc8339815191526109f6565b815114801561044157506020810151155b1561046c57600060405180604001604052806000815260200160008152509550955050505050915091565b6104856001600080516020610bfc8339815191526109f6565b825114801561049657506020820151155b156104ca5760016104bd6040518060400160405280600081526020016001815250856102d9565b9550955050505050915091565b60006105156104ef604051806040016040528060018152602001600081525085610655565b7f183227397098d014dc2822db40c0ac2ecbc0b548b438e5469e10460b6c3e7ea36105f2565b9050600161052382866102d9565b965096505050505050915091565b60008080836001600160401b0381111561054d5761054d6107a0565b604051908082528060200260200182016040528015610576578160200160208202803683370190505b50905060005b848110156105df576105b086868381811061059957610599610a41565b90506020028101906105ab9190610a6e565b6106b7565b8282815181106105c2576105c2610a41565b6020908102919091010152806105d781610a8f565b91505061057c565b506105e98161021d565b95945050505050565b6105fa6106e7565b60408051808201909152600181526000602082015283835b801561064b576001610625600283610a1f565b036106375761063483836102d9565b92505b60011c61064482806102d9565b9150610612565b5090949350505050565b61065d6106e7565b6040518060400160405280600080516020610bfc8339815191528061068457610684610a09565b84518651088152602001600080516020610bfc833981519152846001602002015186600160200201510890529392505050565b6000816040516020016106ca9190610b34565b604051602081830303815290604052805190602001209050919050565b60405180604001604052806002906020820280368337509192915050565b60008083601f84011261071757600080fd5b5081356001600160401b0381111561072e57600080fd5b6020830191508360208260051b850101111561074957600080fd5b9250929050565b6000806000806060858703121561076657600080fd5b84356001600160401b0381111561077c57600080fd5b61078887828801610705565b90989097506020870135966040013595509350505050565b634e487b7160e01b600052604160045260246000fd5b604051601f8201601f191681016001600160401b03811182821017156107de576107de6107a0565b604052919050565b600060208083850312156107f957600080fd5b82356001600160401b038082111561081057600080fd5b818501915085601f83011261082457600080fd5b813581811115610836576108366107a0565b8060051b91506108478483016107b6565b818152918301840191848101908884111561086157600080fd5b938501935b8385101561087f57843582529385019390850190610866565b98975050505050505050565b600082601f83011261089c57600080fd5b604080519081016001600160401b03811182821017156108be576108be6107a0565b80604052508060408401858111156108d557600080fd5b845b818110156108ef5780358352602092830192016108d7565b509195945050505050565b6000806080838503121561090d57600080fd5b610917848461088b565b9150610926846040850161088b565b90509250929050565b8060005b6002811015610952578151845260209384019390910190600101610933565b50505050565b60408101610398828461092f565b60006040828403121561097857600080fd5b610982838361088b565b9392505050565b821515815260608101610982602083018461092f565b600080602083850312156109b257600080fd5b82356001600160401b038111156109c857600080fd5b6109d485828601610705565b90969095509350505050565b634e487b7160e01b600052601160045260246000fd5b81810381811115610398576103986109e0565b634e487b7160e01b600052601260045260246000fd5b600082610a3c57634e487b7160e01b600052601260045260246000fd5b500690565b634e487b7160e01b600052603260045260246000fd5b600081610a6657610a666109e0565b506000190190565b6000823561019e19833603018112610a8557600080fd5b9190910192915050565b600060018201610aa157610aa16109e0565b5060010190565b6000808335601e19843603018112610abf57600080fd5b83016020810192503590506001600160401b03811115610ade57600080fd5b8060051b360382131561074957600080fd5b81835260006001600160fb1b03831115610b0957600080fd5b8260051b80836020870137939093016020019392505050565b60408183375050565b60808183375050565b60208152813560208201526000610b4e6020840184610aa8565b6101a06040850152610b656101c085018284610af0565b9150506040840135606084015260608401356080840152608084013560a0840152610b9360a0850185610aa8565b601f19808685030160c0870152610bab848385610af0565b9350610bba60c0880188610aa8565b93509150808685030160e087015250610bd4838383610af0565b92505050610be9610100840160e08601610b22565b61098261014084016101208601610b2b56fe30644e72e131a029b85045b68181585d97816a916871ca8d3c208c16d87cfd47a2646970667358221220b30c170a707717833182cc53127f6d338d9da976244fd759ccc606119e43dc7a64736f6c63430008110033",
  "immutableReferences": {},
  "source": "// SPDX-License-Identifier: CC0\n\npragma solidity ^0.8.0;\n\nimport './Structures.sol';\n\nlibrary Utils {\n    uint256 constant BN128_PRIME_FIELD =\n        21888242871839275222246405745257275088696311157297823662689037894645226208583;\n\n    bytes32 public constant ZERO = bytes32(0);\n\n    function hashTransaction(Structures.Transaction calldata t) internal pure returns (bytes32) {\n        return keccak256(abi.encode(t));\n    }\n\n    function hashBlock(Structures.Block calldata b) internal pure returns (bytes32) {\n        return keccak256(abi.encode(b));\n    }\n\n    function hashFrontier(bytes32[33] memory frontier) internal pure returns (bytes32) {\n        return keccak256(abi.encode(frontier));\n    }\n\n    function getValue(uint256 packedTransactionInfo) internal pure returns (uint112) {\n        return uint112(packedTransactionInfo >> 8);\n    }\n\n    function getCircuitHash(uint256 packedTransactionInfo) internal pure returns (uint40) {\n        return uint40(packedTransactionInfo >> 216);\n    }\n\n    function getFee(uint256 packedTransactionInfo) internal pure returns (uint96) {\n        return uint96(packedTransactionInfo >> 120);\n    }\n\n    function getTokenType(uint256 packedTransactionInfo)\n        internal\n        pure\n        returns (Structures.TokenType)\n    {\n        return Structures.TokenType(uint8(packedTransactionInfo));\n    }\n\n    function getProposer(uint256 packedBlockInfo) internal pure returns (address) {\n        return address(uint160(packedBlockInfo));\n    }\n\n    function getLeafCount(uint256 packedBlockInfo) internal pure returns (uint32) {\n        return uint32(packedBlockInfo >> 224);\n    }\n\n    function getBlockNumberL2(uint256 packedBlockInfo) internal pure returns (uint64) {\n        return uint64(packedBlockInfo >> 160);\n    }\n\n    function getHistoricRoot(uint256[] calldata historicRootBlockNumberL2, uint256 position)\n        internal\n        pure\n        returns (uint64)\n    {\n        uint256 slot = position / 4;\n        uint256 pos = 64 * (3 - (position % 4));\n        return uint64(historicRootBlockNumberL2[slot] >> pos);\n    }\n\n    function hashTransactionHashes(Structures.Transaction[] calldata ts)\n        public\n        pure\n        returns (bytes32)\n    {\n        bytes32 transactionHashesRoot;\n        bytes32[] memory transactionHashes = new bytes32[](ts.length);\n\n        for (uint256 i = 0; i < ts.length; i++) {\n            transactionHashes[i] = hashTransaction(ts[i]);\n        }\n        transactionHashesRoot = calculateMerkleRoot(transactionHashes);\n        return transactionHashesRoot;\n    }\n\n    function compressG1(uint256 x, uint256 y) internal pure returns (uint256) {\n        // compute whether y is odd or even and multiply by 2**255\n        uint256 parity = 0x8000000000000000000000000000000000000000000000000000000000000000 *\n            (y % 2);\n        // add the parity bit to the x cordinate (x,y are 254 bits long - the final\n        // number is 256 bits to fit with an Ethereum word)\n        return parity + x;\n    }\n\n    function compressG2(\n        uint256 xr,\n        uint256 xi,\n        uint256 yr,\n        uint256 yi\n    ) internal pure returns (uint256, uint256) {\n        return (compressG1(xr, yr), compressG1(xi, yi));\n    }\n\n    function compressProof(uint256[8] memory proof) internal pure returns (uint256[4] memory) {\n        uint256 a = compressG1(proof[0], proof[1]);\n        (uint256 rb, uint256 ib) = compressG2(proof[2], proof[3], proof[4], proof[5]);\n        uint256 c = compressG1(proof[6], proof[7]);\n        return [a, rb, ib, c];\n    }\n\n    // counts the number of non-zero values (useful for counting real commitments and nullifiers)\n    function countNonZeroValues(bytes32[] calldata vals) internal pure returns (uint256) {\n        uint256 count;\n        for (uint256 i = 0; i < vals.length; ++i) {\n            if (vals[i] != ZERO) ++count;\n        }\n        return count;\n    }\n\n    // counts the number of non-zero commitments in a block containing the ts transactions)\n    function countCommitments(Structures.Transaction[] calldata ts)\n        internal\n        pure\n        returns (uint256)\n    {\n        uint256 count;\n        for (uint256 i = 0; i < ts.length; i++) {\n            count += countNonZeroValues(ts[i].commitments);\n        }\n        return count;\n    }\n\n    // filters the non-zero commitments in a block containing the ts transactions)\n    function filterCommitments(Structures.Transaction[] calldata ts)\n        internal\n        pure\n        returns (bytes32[] memory)\n    {\n        bytes32[] memory filtered = new bytes32[](countCommitments(ts));\n        uint256 count;\n        for (uint256 i = 0; i < ts.length; i++) {\n            for (uint256 j = 0; j < ts[i].commitments.length; j++) {\n                if (ts[i].commitments[j] != ZERO) filtered[count++] = ts[i].commitments[j];\n            }\n        }\n        return filtered;\n    }\n\n    // gathers public inputs for each tx type\n    // required now we have removed the publicInputHash\n    function getPublicInputs(\n        Structures.Transaction calldata ts,\n        uint256[] memory roots,\n        address feeL2TokenAddress\n    ) internal pure returns (uint256[] memory) {\n        uint256 transactionSlots = 17 +\n            2 *\n            ts.nullifiers.length +\n            roots.length +\n            ts.commitments.length;\n        uint256[] memory inputs = new uint256[](transactionSlots);\n        uint256 count = 0;\n        inputs[count++] = uint256(getValue(ts.packedInfo));\n        inputs[count++] = uint256(getFee(ts.packedInfo));\n        inputs[count++] = uint256(getCircuitHash(ts.packedInfo));\n        inputs[count++] = uint256(getTokenType(ts.packedInfo));\n        for (uint256 i = 0; i < ts.nullifiers.length; ++i) {\n            inputs[count++] = uint256(getHistoricRoot(ts.historicRootBlockNumberL2, i));\n        }\n        inputs[count++] = uint256(ts.ercAddress);\n        inputs[count++] = uint32(uint256(ts.tokenId) >> 224);\n        inputs[count++] = uint32(uint256(ts.tokenId) >> 192);\n        inputs[count++] = uint32(uint256(ts.tokenId) >> 160);\n        inputs[count++] = uint32(uint256(ts.tokenId) >> 128);\n        inputs[count++] = uint32(uint256(ts.tokenId) >> 96);\n        inputs[count++] = uint32(uint256(ts.tokenId) >> 64);\n        inputs[count++] = uint32(uint256(ts.tokenId) >> 32);\n        inputs[count++] = uint32(uint256(ts.tokenId));\n        inputs[count++] = uint256(ts.recipientAddress);\n        for (uint256 i = 0; i < ts.commitments.length; ++i) {\n            inputs[count++] = uint256(ts.commitments[i]);\n        }\n        for (uint256 i = 0; i < ts.nullifiers.length; ++i) {\n            inputs[count++] = uint256(ts.nullifiers[i]);\n        }\n        inputs[count++] = uint256(ts.compressedSecrets[0]);\n        inputs[count++] = uint256(ts.compressedSecrets[1]);\n        for (uint256 i = 0; i < roots.length; ++i) {\n            inputs[count++] = uint256(roots[i]);\n        }\n        inputs[count++] = uint256(uint160(feeL2TokenAddress));\n        return inputs;\n    }\n\n    function calculateMerkleRoot(bytes32[] memory leaves) public pure returns (bytes32 result) {\n        assembly {\n            let length := mload(leaves)\n            let leavesPos := add(leaves, 0x20)\n            let transactionHashesPos := mload(0x40)\n            for {\n                let i := 0\n            } lt(i, length) {\n                i := add(i, 1)\n            } {\n                mstore(add(transactionHashesPos, mul(0x20, i)), mload(add(leavesPos, mul(0x20, i))))\n            }\n            let height := 1\n            for {\n\n            } lt(exp(2, height), length) {\n\n            } {\n                height := add(height, 1)\n            }\n            for {\n                let i := height\n            } gt(i, 0) {\n                i := sub(i, 1)\n            } {\n                for {\n                    let j := 0\n                } lt(j, exp(2, sub(i, 1))) {\n                    j := add(j, 1)\n                } {\n                    let left := mload(add(transactionHashesPos, mul(mul(0x20, j), 2)))\n                    let right := mload(add(transactionHashesPos, add(mul(mul(0x20, j), 2), 0x20)))\n                    if eq(and(iszero(left), iszero(right)), 1) {\n                        result := 0\n                    } // returns bool\n                    if eq(and(iszero(left), iszero(right)), 0) {\n                        result := keccak256(add(transactionHashesPos, mul(mul(0x20, j), 2)), 0x40)\n                    } // returns bool\n                    mstore(add(transactionHashesPos, mul(0x20, j)), result)\n                }\n            }\n        }\n    }\n\n    function checkPath(\n        bytes32[] calldata siblingPath,\n        uint256 leafIndex,\n        bytes32 node\n    ) public pure returns (bool) {\n        for (uint256 i = siblingPath.length - 1; i > 0; i--) {\n            if (leafIndex % 2 == 0) {\n                node = keccak256(abi.encodePacked(node, siblingPath[i]));\n            } else {\n                node = keccak256(abi.encodePacked(siblingPath[i], node));\n            }\n            leafIndex = leafIndex >> 1;\n        }\n        return (siblingPath[0] == node);\n    }\n\n    function modExp(\n        uint256 _b,\n        uint256 _e,\n        uint256 _m\n    ) internal returns (uint256 result) {\n        assembly {\n            // Free memory pointer\n            let pointer := mload(0x40)\n            // Define length of base, exponent and modulus. 0x20 == 32 bytes\n            mstore(pointer, 0x20)\n            mstore(add(pointer, 0x20), 0x20)\n            mstore(add(pointer, 0x40), 0x20)\n            // Define variables base, exponent and modulus\n            mstore(add(pointer, 0x60), _b)\n            mstore(add(pointer, 0x80), _e)\n            mstore(add(pointer, 0xa0), _m)\n            // Store the result\n            let value := mload(0xc0)\n            // Call the precompiled contract 0x05 = bigModExp\n            if iszero(call(not(0), 0x05, 0, pointer, 0xc0, value, 0x20)) {\n                revert(0, 0)\n            }\n            result := mload(value)\n        }\n    }\n\n    function fq2Mul(uint256[2] memory x, uint256[2] memory b)\n        public\n        pure\n        returns (uint256[2] memory)\n    {\n        return [\n            addmod(\n                mulmod(x[0], b[0], BN128_PRIME_FIELD),\n                BN128_PRIME_FIELD - mulmod(x[1], b[1], BN128_PRIME_FIELD),\n                BN128_PRIME_FIELD\n            ),\n            addmod(\n                mulmod(x[1], b[0], BN128_PRIME_FIELD),\n                mulmod(x[0], b[1], BN128_PRIME_FIELD),\n                BN128_PRIME_FIELD\n            )\n        ];\n    }\n\n    function fq2Pow(uint256[2] memory x, uint256 exp) internal pure returns (uint256[2] memory) {\n        uint256[2] memory result = [uint256(1), uint256(0)];\n        uint256[2] memory b = x;\n        uint256 e = exp;\n        while (e > uint256(0)) {\n            if (e % uint256(2) == uint256(1)) result = fq2Mul(result, b);\n            e >>= uint256(1);\n            b = fq2Mul(b, b);\n        }\n        return result;\n    }\n\n    function fq2Add(uint256[2] memory x, uint256[2] memory b)\n        internal\n        pure\n        returns (uint256[2] memory)\n    {\n        return [addmod(x[0], b[0], BN128_PRIME_FIELD), addmod(x[1], b[1], BN128_PRIME_FIELD)];\n    }\n\n    function fq2Sqrt(uint256[2] memory x) public pure returns (bool, uint256[2] memory) {\n        uint256[2] memory a1 = fq2Pow(\n            x,\n            5472060717959818805561601436314318772174077789324455915672259473661306552145\n        );\n        uint256[2] memory x0 = fq2Mul(a1, x);\n        uint256[2] memory alpha = fq2Mul(x0, a1);\n        uint256[2] memory a0 = fq2Mul(fq2Pow(alpha, BN128_PRIME_FIELD), alpha);\n        if (a0[0] == BN128_PRIME_FIELD - 1 && a0[1] == 0) return (false, [uint256(0), uint256(0)]);\n        if (alpha[0] == (BN128_PRIME_FIELD - uint256(1)) && alpha[1] == uint256(0))\n            return (true, fq2Mul([uint256(0), uint256(1)], x0));\n        uint256[2] memory b = fq2Pow(\n            fq2Add([uint256(1), uint256(0)], alpha),\n            uint256(10944121435919637611123202872628637544348155578648911831344518947322613104291)\n        );\n        return (true, fq2Mul(b, x0));\n    }\n}\n",
  "sourcePath": "/app/contracts/Utils.sol",
  "compiler": {
    "name": "solc",
    "version": "0.8.17+commit.8df45f5f.Emscripten.clang"
  },
  "schemaVersion": "3.4.10",
  "updatedAt": "2023-01-04T16:06:58.515Z",
  "networkType": "ethereum",
  "devdoc": {
    "kind": "dev",
    "methods": {},
    "version": 1
  },
  "userdoc": {
    "kind": "user",
    "methods": {},
    "version": 1
  }
}