{
  "contractName": "Verifier",
  "abi": [
    {
      "inputs": [
        {
          "internalType": "uint256[]",
          "name": "_proof",
          "type": "uint256[]"
        },
        {
          "internalType": "uint256[]",
          "name": "_publicInputs",
          "type": "uint256[]"
        },
        {
          "internalType": "uint256[]",
          "name": "_vk",
          "type": "uint256[]"
        }
      ],
      "name": "verify",
      "outputs": [
        {
          "internalType": "bool",
          "name": "result",
          "type": "bool"
        }
      ],
      "stateMutability": "view",
      "type": "function",
      "constant": true
    }
  ],
  "bytecode": "0x61162f61003a600b82828239805160001a60731461002d57634e487b7160e01b600052600060045260246000fd5b30600052607381538281f3fe73000000000000000000000000000000000000000030146080604052600436106100355760003560e01c806387d9d0231461003a575b600080fd5b61004d610048366004611492565b610061565b604051901515815260200160405180910390f35b600061006e848484610088565b60000361007d57506001610081565b5060005b9392505050565b60006021825110806100be575082516100a290600161152f565b6100ad906003611542565b602183516100bb9190611559565b14155b806100e157506003602183516100d49190611559565b6100de9190611582565b15155b156100ee57506003610081565b60006100fb8385516103fe565b90508451600814610110576002915050610081565b6101186112bb565b60405180604001604052808760008151811061013657610136611596565b602002602001015181526020018760018151811061015657610156611596565b60200260200101518152508160000181905250604051806040016040528060405180604001604052808960038151811061019257610192611596565b60200260200101518152602001896002815181106101b2576101b2611596565b602002602001015181525081526020016040518060400160405280896005815181106101e0576101e0611596565b602002602001015181526020018960048151811061020057610200611596565b6020026020010151815250815250816020018190525060405180604001604052808760068151811061023457610234611596565b602002602001015181526020018760078151811061025457610254611596565b602090810291909101015190526040820152805161027190610780565b158061028757506102858160400151610780565b155b8061029c575061029a8160200151610828565b155b156102ac57600592505050610081565b604080518082019091526000808252602082018190525b8651811015610382577f30644e72e131a029b85045b68181585d2833e84879b9709143e1f593f00000018782815181106102ff576102ff611596565b602002602001015110610319576004945050505050610081565b61036e826103698660800151846001610332919061152f565b8151811061034257610342611596565b60200260200101518a858151811061035c5761035c611596565b60200260200101516109c1565b610a50565b91508061037a816115ac565b9150506102c3565b506103ab81846080015160008151811061039e5761039e611596565b6020026020010151610a50565b90506103e16103bd8360000151610add565b83602001518560000151866020015185886040015188604001518a60600151610b5e565b6103f15760019350505050610081565b5060009695505050505050565b6104066112ed565b60405180604001604052808460008151811061042457610424611596565b602002602001015181526020018460018151811061044457610444611596565b60200260200101518152508160000181905250604051806040016040528060405180604001604052808660048151811061048057610480611596565b60200260200101518152602001866003815181106104a0576104a0611596565b602002602001015181525081526020016040518060400160405280866006815181106104ce576104ce611596565b60200260200101518152602001866005815181106104ee576104ee611596565b602002602001015181525081525081602001819052506040518060400160405280604051806040016040528086600a8151811061052d5761052d611596565b602002602001015181526020018660098151811061054d5761054d611596565b60200260200101518152508152602001604051806040016040528086600c8151811061057b5761057b611596565b6020026020010151815260200186600b8151811061059b5761059b611596565b6020026020010151815250815250816040018190525060405180604001604052806040518060400160405280866010815181106105da576105da611596565b6020026020010151815260200186600f815181106105fa576105fa611596565b6020026020010151815250815260200160405180604001604052808660128151811061062857610628611596565b602002602001015181526020018660118151811061064857610648611596565b602090810291909101015190529052606082015261066782600161152f565b6001600160401b0381111561067e5761067e6113e2565b6040519080825280602002602001820160405280156106b757816020015b6106a4611334565b81526020019060019003908161069c5790505b50608082015260005b6106cb83600161152f565b811015610779576040518060400160405280858360036106eb9190611542565b6106f690602161152f565b8151811061070657610706611596565b60200260200101518152602001858360036107219190611542565b61072c90602261152f565b8151811061073c5761073c611596565b60200260200101518152508260800151828151811061075d5761075d611596565b602002602001018190525080610772906115ac565b90506106c0565b5092915050565b6000806000805160206115da833981519152905080836020015111806107a65750825181105b156107b45750600092915050565b600081806107c4576107c461156c565b602085015180099050600082806107dd576107dd61156c565b85518009905082806107f1576107f161156c565b85518209905082806108055761080561156c565b60038208905080821461081d57506000949350505050565b506001949350505050565b6020810151516000906000805160206115da8339815191529081108061084f575082515181105b806108605750602083810151015181105b8061086f575082516020015181105b1561087d5750600092915050565b6000604051806040016040528085600001516001600281106108a1576108a1611596565b6020020151815260200185600001516000600281106108c2576108c2611596565b602002015181525090506000604051806040016040528086602001516001600281106108f0576108f0611596565b60200201518152602001866020015160006002811061091157610911611596565b6020020151905290506000610927828086610cdd565b90506000610936848587610cdd565b9050610943818587610cdd565b9050610986816109806040518060400160405280600381526020016000815250604051806040016040528060098152602001600181525089610d7f565b87610e7c565b805183519192501415806109a257506020808201519083015114155b156109b4575060009695505050505050565b5060019695505050505050565b6109c9611334565b6109d161134e565b835181526020808501519082015260408101839052600060608360808460076107d05a03fa90508080610a0057fe5b5080610a485760405162461bcd60e51b81526020600482015260126024820152711c185a5c9a5b99cb5b5d5b0b59985a5b195960721b60448201526064015b60405180910390fd5b505092915050565b610a58611334565b610a6061136c565b8351815260208085015181830152835160408301528301516060808301919091526000908360c08460066107d05a03fa90508080610a9a57fe5b5080610a485760405162461bcd60e51b81526020600482015260126024820152711c185a5c9a5b99cb5859190b59985a5b195960721b6044820152606401610a3f565b610ae5611334565b81516000805160206115da83398151915290158015610b0657506020830151155b15610b265750506040805180820190915260008082526020820152919050565b604051806040016040528084600001518152602001828560200151610b4b9190611582565b610b559084611559565b90529392505050565b60408051600480825260a08201909252600091829190816020015b610b81611334565b815260200190600190039081610b7957505060408051600480825260a0820190925291925060009190602082015b610bb761138a565b815260200190600190039081610baf5790505090508a82600081518110610be057610be0611596565b60200260200101819052508882600181518110610bff57610bff611596565b60200260200101819052508682600281518110610c1e57610c1e611596565b60200260200101819052508482600381518110610c3d57610c3d611596565b60200260200101819052508981600081518110610c5c57610c5c611596565b60200260200101819052508781600181518110610c7b57610c7b611596565b60200260200101819052508581600281518110610c9a57610c9a611596565b60200260200101819052508381600381518110610cb957610cb9611596565b6020026020010181905250610cce8282610eca565b9b9a5050505050505050505050565b610ce56113a6565b60405180604001604052808380610cfe57610cfe61156c565b8480610d0c57610d0c61156c565b6020808801519089015109610d219086611559565b8580610d2f57610d2f61156c565b87518951090881526020018380610d4857610d4861156c565b8480610d5657610d5661156c565b60208701518851098580610d6c57610d6c61156c565b875160208a015109089052949350505050565b610d876113a6565b60008280610d9757610d9761156c565b8380610da557610da561156c565b602086015180098480610dba57610dba61156c565b8651800908905060008380610dd157610dd161156c565b8480610ddf57610ddf61156c565b60208088015190890151098580610df857610df861156c565b875189510908905060008480610e1057610e1061156c565b8580610e1e57610e1e61156c565b8851602089015109610e309087611559565b8680610e3e57610e3e61156c565b60208a01518951090890506040518060400160405280610e5f848689611223565b8152602001610e6f838689611223565b9052979650505050505050565b610e846113a6565b60405180604001604052808380610e9d57610e9d61156c565b855187510881526020018380610eb557610eb561156c565b60208087015190880151089052949350505050565b60008151835114610f165760405162461bcd60e51b81526020600482015260166024820152751c185a5c9a5b99cb5b195b99dd1a1ccb59985a5b195960521b6044820152606401610a3f565b82516000610f25826006611542565b90506000816001600160401b03811115610f4157610f416113e2565b604051908082528060200260200182016040528015610f6a578160200160208202803683370190505b50905060005b838110156111a557868181518110610f8a57610f8a611596565b60200260200101516000015182826006610fa49190611542565b610faf90600061152f565b81518110610fbf57610fbf611596565b602002602001018181525050868181518110610fdd57610fdd611596565b60200260200101516020015182826006610ff79190611542565b61100290600161152f565b8151811061101257611012611596565b60200260200101818152505085818151811061103057611030611596565b6020908102919091010151515182611049836006611542565b61105490600261152f565b8151811061106457611064611596565b60200260200101818152505085818151811061108257611082611596565b6020908102919091018101515101518261109d836006611542565b6110a890600361152f565b815181106110b8576110b8611596565b6020026020010181815250508581815181106110d6576110d6611596565b6020026020010151602001516000600281106110f4576110f4611596565b602002015182611105836006611542565b61111090600461152f565b8151811061112057611120611596565b60200260200101818152505085818151811061113e5761113e611596565b60200260200101516020015160016002811061115c5761115c611596565b60200201518261116d836006611542565b61117890600561152f565b8151811061118857611188611596565b60209081029190910101528061119d816115ac565b915050610f70565b506111ae6113c4565b6000602082602086026020860160086107d05a03fa905080806111cd57fe5b50806112135760405162461bcd60e51b81526020600482015260156024820152741c185a5c9a5b99cb5bdc18dbd9194b59985a5b1959605a1b6044820152606401610a3f565b5051151593505050505b92915050565b600081806112335761123361156c565b61123d8484611247565b8509949350505050565b600080600183825b86156112b05761125f87836115c5565b90508286806112705761127061156c565b878061127e5761127e61156c565b85840961128b9089611559565b860890945092508661129d8183611542565b6112a79084611559565b9750915061124f565b509195945050505050565b60405180606001604052806112ce611334565b81526020016112db61138a565b81526020016112e8611334565b905290565b6040518060a00160405280611300611334565b815260200161130d61138a565b815260200161131a61138a565b815260200161132761138a565b8152602001606081525090565b604051806040016040528060008152602001600081525090565b60405180606001604052806003906020820280368337509192915050565b60405180608001604052806004906020820280368337509192915050565b604051806040016040528061139d6113a6565b81526020016112e85b60405180604001604052806002906020820280368337509192915050565b60405180602001604052806001906020820280368337509192915050565b634e487b7160e01b600052604160045260246000fd5b600082601f83011261140957600080fd5b813560206001600160401b0380831115611425576114256113e2565b8260051b604051601f19603f8301168101818110848211171561144a5761144a6113e2565b60405293845285810183019383810192508785111561146857600080fd5b83870191505b848210156114875781358352918301919083019061146e565b979650505050505050565b6000806000606084860312156114a757600080fd5b83356001600160401b03808211156114be57600080fd5b6114ca878388016113f8565b945060208601359150808211156114e057600080fd5b6114ec878388016113f8565b9350604086013591508082111561150257600080fd5b5061150f868287016113f8565b9150509250925092565b634e487b7160e01b600052601160045260246000fd5b8082018082111561121d5761121d611519565b808202811582820484141761121d5761121d611519565b8181038181111561121d5761121d611519565b634e487b7160e01b600052601260045260246000fd5b6000826115915761159161156c565b500690565b634e487b7160e01b600052603260045260246000fd5b6000600182016115be576115be611519565b5060010190565b6000826115d4576115d461156c565b50049056fe30644e72e131a029b85045b68181585d97816a916871ca8d3c208c16d87cfd47a264697066735822122024836f940e30b96cf7ac550ff9498e2659f8a236f3b0fc25ce18f75f3d1923a464736f6c63430008110033",
  "immutableReferences": {},
  "source": "// SPDX-License-Identifier: MIT\n\n/**\nCREDITS:\n\n// For the Elliptic Curve Pairing operations and functions verify() and verifyCalculation():\n// This file is MIT Licensed.\n//\n// Copyright 2017 Christian Reitwiessner\n// Permission is hereby granted, free of charge, to any person obtaining a copy of this software and associated documentation files (the \"Software\"), to deal in the Software without restriction, including without limitation the rights to use, copy, modify, merge, publish, distribute, sublicense, and/or sell copies of the Software, and to permit persons to whom the Software is furnished to do so, subject to the following conditions:\n// The above copyright notice and this permission notice shall be included in all copies or substantial portions of the Software.\n// THE SOFTWARE IS PROVIDED \"AS IS\", WITHOUT WARRANTY OF ANY KIND, EXPRESS OR IMPLIED, INCLUDING BUT NOT LIMITED TO THE WARRANTIES OF MERCHANTABILITY, FITNESS FOR A PARTICULAR PURPOSE AND NONINFRINGEMENT. IN NO EVENT SHALL THE AUTHORS OR COPYRIGHT HOLDERS BE LIABLE FOR ANY CLAIM, DAMAGES OR OTHER LIABILITY, WHETHER IN AN ACTION OF CONTRACT, TORT OR OTHERWISE, ARISING FROM, OUT OF OR IN CONNECTION WITH THE SOFTWARE OR THE USE OR OTHER DEALINGS IN THE SOFTWARE.\n// More information at https://gist.github.com/chriseth/f9be9d9391efc5beb9704255a8e2989d\n\nMinor edits for Nightfall by:\nMichael Connor\nDuncan Westland\nChaitanya Konda\nHarry R\n*/\n\n/**\n@title Verifier\n@dev Example Verifier Implementation - G16 proof verification.\n@notice Do not use this example in any production code!\n*/\n\npragma solidity ^0.8.0;\n\nimport './Pairing.sol';\n\nlibrary Verifier {\n    using Pairing for *;\n\n    uint256 constant BN128_GROUP_ORDER =\n        21888242871839275222246405745257275088548364400416034343698204186575808495617;\n\n    struct Proof {\n        Pairing.G1Point A;\n        Pairing.G2Point B;\n        Pairing.G1Point C;\n    }\n\n    struct VerifyingKey {\n        Pairing.G1Point alfa1;\n        Pairing.G2Point beta2;\n        Pairing.G2Point gamma2;\n        Pairing.G2Point delta2;\n        Pairing.G1Point[] IC;\n    }\n\n    function verifyingKey(uint256[] memory _vk, uint256 inputsLength)\n        internal\n        pure\n        returns (VerifyingKey memory vk)\n    {\n        vk.alfa1 = Pairing.G1Point(_vk[0], _vk[1]);\n        vk.beta2 = Pairing.G2Point([_vk[4], _vk[3]], [_vk[6], _vk[5]]);\n        vk.gamma2 = Pairing.G2Point([_vk[10], _vk[9]], [_vk[12], _vk[11]]);\n        vk.delta2 = Pairing.G2Point([_vk[16], _vk[15]], [_vk[18], _vk[17]]);\n        vk.IC = new Pairing.G1Point[](inputsLength + 1);\n        for (uint256 i = 0; i < inputsLength + 1; ++i) {\n            vk.IC[i] = Pairing.G1Point(_vk[33 + 3 * i], _vk[34 + 3 * i]);\n        }\n    }\n\n    function verify(\n        uint256[] memory _proof,\n        uint256[] memory _publicInputs,\n        uint256[] memory _vk\n    ) public view returns (bool result) {\n        if (verificationCalculation(_proof, _publicInputs, _vk) == 0) {\n            result = true;\n        } else {\n            result = false;\n        }\n    }\n\n    function verificationCalculation(\n        uint256[] memory _proof,\n        uint256[] memory _publicInputs,\n        uint256[] memory _vk\n    ) internal view returns (uint256) {\n        if (\n            _vk.length < 33 ||\n            (_vk.length - 33) != ((_publicInputs.length + 1) * 3) ||\n            (_vk.length - 33) % 3 != 0\n        ) {\n            return 3;\n        }\n        VerifyingKey memory vk = verifyingKey(_vk, _publicInputs.length);\n\n        if (_proof.length != 8) {\n            return 2;\n        }\n\n        Proof memory proof;\n        proof.A = Pairing.G1Point(_proof[0], _proof[1]);\n        proof.B = Pairing.G2Point([_proof[3], _proof[2]], [_proof[5], _proof[4]]);\n        proof.C = Pairing.G1Point(_proof[6], _proof[7]);\n\n        if (\n            !Pairing.checkG1Point(proof.A) ||\n            !Pairing.checkG1Point(proof.C) ||\n            !Pairing.checkG2Point(proof.B)\n        ) return 5;\n\n        // Compute the linear combination vk_x\n        Pairing.G1Point memory vk_x = Pairing.G1Point(0, 0);\n        for (uint256 i = 0; i < _publicInputs.length; i++) {\n            if (_publicInputs[i] >= BN128_GROUP_ORDER) {\n                return 4;\n            }\n            vk_x = Pairing.addition(vk_x, Pairing.scalar_mul(vk.IC[i + 1], _publicInputs[i]));\n        }\n\n        vk_x = Pairing.addition(vk_x, vk.IC[0]);\n        if (\n            !Pairing.pairingProd4(\n                Pairing.negate(proof.A),\n                proof.B,\n                vk.alfa1,\n                vk.beta2,\n                vk_x,\n                vk.gamma2,\n                proof.C,\n                vk.delta2\n            )\n        ) {\n            return 1;\n        }\n        return 0;\n    }\n}\n",
  "sourcePath": "/app/contracts/Verifier.sol",
  "compiler": {
    "name": "solc",
    "version": "0.8.17+commit.8df45f5f.Emscripten.clang"
  },
  "schemaVersion": "3.4.10",
  "updatedAt": "2022-12-15T14:25:41.260Z",
  "networkType": "ethereum",
  "devdoc": {
    "kind": "dev",
    "methods": {},
    "version": 1
  },
  "userdoc": {
    "kind": "user",
    "methods": {},
    "version": 1
  }
}