{
  "contractName": "X509",
  "abi": [
    {
      "anonymous": false,
      "inputs": [
        {
          "indexed": false,
          "internalType": "uint8",
          "name": "version",
          "type": "uint8"
        }
      ],
      "name": "Initialized",
      "type": "event"
    },
    {
      "anonymous": false,
      "inputs": [
        {
          "indexed": false,
          "internalType": "address",
          "name": "previousOwner",
          "type": "address"
        },
        {
          "indexed": false,
          "internalType": "address",
          "name": "newOwner",
          "type": "address"
        }
      ],
      "name": "OwnershipTransferred",
      "type": "event"
    },
    {
      "inputs": [],
      "name": "_owner",
      "outputs": [
        {
          "internalType": "address",
          "name": "",
          "type": "address"
        }
      ],
      "stateMutability": "view",
      "type": "function",
      "constant": true
    },
    {
      "inputs": [
        {
          "internalType": "bytes",
          "name": "derBytes",
          "type": "bytes"
        },
        {
          "internalType": "uint256",
          "name": "pointer",
          "type": "uint256"
        }
      ],
      "name": "computeNumberOfTlvs",
      "outputs": [
        {
          "internalType": "uint256",
          "name": "",
          "type": "uint256"
        }
      ],
      "stateMutability": "pure",
      "type": "function",
      "constant": true
    },
    {
      "inputs": [
        {
          "internalType": "bool",
          "name": "_whitelisting",
          "type": "bool"
        }
      ],
      "name": "enableWhitelisting",
      "outputs": [],
      "stateMutability": "nonpayable",
      "type": "function"
    },
    {
      "inputs": [
        {
          "internalType": "address",
          "name": "_user",
          "type": "address"
        }
      ],
      "name": "isWhitelisted",
      "outputs": [
        {
          "internalType": "bool",
          "name": "",
          "type": "bool"
        }
      ],
      "stateMutability": "view",
      "type": "function",
      "constant": true
    },
    {
      "inputs": [],
      "name": "owner",
      "outputs": [
        {
          "internalType": "address",
          "name": "",
          "type": "address"
        }
      ],
      "stateMutability": "view",
      "type": "function",
      "constant": true
    },
    {
      "inputs": [
        {
          "internalType": "bytes",
          "name": "derBytes",
          "type": "bytes"
        },
        {
          "internalType": "uint256",
          "name": "pointer",
          "type": "uint256"
        },
        {
          "internalType": "uint256",
          "name": "tlvLength",
          "type": "uint256"
        }
      ],
      "name": "parseDER",
      "outputs": [
        {
          "components": [
            {
              "internalType": "uint256",
              "name": "start",
              "type": "uint256"
            },
            {
              "internalType": "uint256",
              "name": "headerLength",
              "type": "uint256"
            },
            {
              "components": [
                {
                  "internalType": "bool",
                  "name": "isConstructed",
                  "type": "bool"
                },
                {
                  "internalType": "bytes1",
                  "name": "tagType",
                  "type": "bytes1"
                }
              ],
              "internalType": "struct DERParser.Tag",
              "name": "tag",
              "type": "tuple"
            },
            {
              "internalType": "uint256",
              "name": "length",
              "type": "uint256"
            },
            {
              "internalType": "bytes",
              "name": "value",
              "type": "bytes"
            },
            {
              "internalType": "bytes",
              "name": "octets",
              "type": "bytes"
            },
            {
              "internalType": "uint256",
              "name": "depth",
              "type": "uint256"
            }
          ],
          "internalType": "struct DERParser.DecodedTlv[]",
          "name": "",
          "type": "tuple[]"
        }
      ],
      "stateMutability": "pure",
      "type": "function",
      "constant": true
    },
    {
      "inputs": [
        {
          "internalType": "address",
          "name": "newOwner",
          "type": "address"
        }
      ],
      "name": "transferOwnership",
      "outputs": [],
      "stateMutability": "nonpayable",
      "type": "function"
    },
    {
      "inputs": [
        {
          "internalType": "address",
          "name": "",
          "type": "address"
        }
      ],
      "name": "users",
      "outputs": [
        {
          "internalType": "bool",
          "name": "",
          "type": "bool"
        }
      ],
      "stateMutability": "view",
      "type": "function",
      "constant": true
    },
    {
      "inputs": [],
      "name": "whitelisting",
      "outputs": [
        {
          "internalType": "bool",
          "name": "",
          "type": "bool"
        }
      ],
      "stateMutability": "view",
      "type": "function",
      "constant": true
    },
    {
      "inputs": [],
      "name": "initialize",
      "outputs": [],
      "stateMutability": "nonpayable",
      "type": "function"
    },
    {
      "inputs": [
        {
          "internalType": "bytes1",
          "name": "_usageBitMask",
          "type": "bytes1"
        }
      ],
      "name": "setUsageBitMaskEndUser",
      "outputs": [],
      "stateMutability": "nonpayable",
      "type": "function"
    },
    {
      "inputs": [
        {
          "internalType": "bytes1",
          "name": "_usageBitMask",
          "type": "bytes1"
        }
      ],
      "name": "setUsageBitMasIntermediate",
      "outputs": [],
      "stateMutability": "nonpayable",
      "type": "function"
    },
    {
      "inputs": [
        {
          "internalType": "bytes32[]",
          "name": "oids",
          "type": "bytes32[]"
        }
      ],
      "name": "addExtendedKeyUsage",
      "outputs": [],
      "stateMutability": "nonpayable",
      "type": "function"
    },
    {
      "inputs": [
        {
          "internalType": "bytes32[]",
          "name": "oids",
          "type": "bytes32[]"
        }
      ],
      "name": "addCertificatePolicies",
      "outputs": [],
      "stateMutability": "nonpayable",
      "type": "function"
    },
    {
      "inputs": [],
      "name": "removeExtendedKeyUsage",
      "outputs": [],
      "stateMutability": "nonpayable",
      "type": "function"
    },
    {
      "inputs": [],
      "name": "removeCertificatePolicies",
      "outputs": [],
      "stateMutability": "nonpayable",
      "type": "function"
    },
    {
      "inputs": [
        {
          "components": [
            {
              "internalType": "bytes",
              "name": "modulus",
              "type": "bytes"
            },
            {
              "internalType": "uint256",
              "name": "exponent",
              "type": "uint256"
            }
          ],
          "internalType": "struct X509.RSAPublicKey",
          "name": "trustedPublicKey",
          "type": "tuple"
        },
        {
          "internalType": "bytes32",
          "name": "authorityKeyIdentifier",
          "type": "bytes32"
        }
      ],
      "name": "setTrustedPublicKey",
      "outputs": [],
      "stateMutability": "nonpayable",
      "type": "function"
    },
    {
      "inputs": [
        {
          "internalType": "bytes",
          "name": "certificate",
          "type": "bytes"
        },
        {
          "internalType": "uint256",
          "name": "tlvLength",
          "type": "uint256"
        },
        {
          "internalType": "bytes",
          "name": "addressSignature",
          "type": "bytes"
        },
        {
          "internalType": "bool",
          "name": "addAddress",
          "type": "bool"
        },
        {
          "internalType": "uint256",
          "name": "oidGroup",
          "type": "uint256"
        }
      ],
      "name": "validateCertificate",
      "outputs": [],
      "stateMutability": "nonpayable",
      "type": "function"
    },
    {
      "inputs": [
        {
          "internalType": "address",
          "name": "user",
          "type": "address"
        }
      ],
      "name": "x509Check",
      "outputs": [
        {
          "internalType": "bool",
          "name": "",
          "type": "bool"
        }
      ],
      "stateMutability": "view",
      "type": "function",
      "constant": true
    },
    {
      "inputs": [
        {
          "internalType": "bytes32",
          "name": "subjectKeyIdentifier",
          "type": "bytes32"
        }
      ],
      "name": "revokeKey",
      "outputs": [],
      "stateMutability": "nonpayable",
      "type": "function"
    }
  ],
  "bytecode": "0x608060405234801561001057600080fd5b506143de806100206000396000f3fe608060405234801561001057600080fd5b50600436106100fc5760003560e01c8063105b5f9b1461010157806313c6aa72146101165780631693280a1461011e578063201070331461014757806335b1d5621461015a5780633af32abf14610162578063520c582814610185578063572f221014610199578063746b5df5146101ac5780638129fc1c146101bf578063874eeaed146101c75780638da5cb5b146101da57806399e46e82146101fa578063a87430ba1461020d578063b0c5055514610230578063b10748ac14610251578063b2bdfa7b14610264578063de67b4af1461027d578063e23c27e914610290578063f2fde38b146102a3575b600080fd5b61011461010f366004613817565b6102b6565b005b610114610695565b61013161012c3660046138ad565b6106db565b60405161013e919061394d565b60405180910390f35b610114610155366004613a28565b6106f2565b61011461074a565b610175610170366004613a71565b61078e565b604051901515815260200161013e565b60005461017590600160b01b900460ff1681565b6101146101a7366004613aa1565b6107cb565b6101146101ba366004613ad0565b610897565b6101146108ec565b6101146101d5366004613aed565b610a0c565b6101e2610a86565b6040516001600160a01b03909116815260200161013e565b610114610208366004613aed565b610a9b565b61017561021b366004613a71565b60016020526000908152604090205460ff1681565b61024361023e366004613b61565b610b10565b60405190815260200161013e565b61011461025f366004613ad0565b610be0565b6000546101e2906201000090046001600160a01b031681565b61011461028b366004613bac565b610c2e565b61017561029e366004613a71565b610c84565b6101146102b1366004613a71565b610d0b565b6000856001600160401b038111156102d0576102d0613bc9565b60405190808252806020026020018201604052801561030957816020015b6102f6613656565b8152602001906001900390816102ee5790505b5090506103198888600089610daa565b9050600061032682610eec565b905060006103348389611176565b9050600061034184611296565b905060006003600085815260200190815260200160002060405180604001604052908160008201805461037390613bdf565b80601f016020809104026020016040519081016040528092919081815260200182805461039f90613bdf565b80156103ec5780601f106103c1576101008083540402835291602001916103ec565b820191906000526020600020905b8154815290600101906020018083116103cf57829003601f168201915b50505050508152602001600182015481525050905061040c8383836113a5565b60006104178661149c565b9050600061042487611772565b9050600061043188611aa1565b60008181526004602052604090205490915060ff16156104bb5760405162461bcd60e51b815260206004820152603a60248201527f583530393a20546865207375626a656374206b6579206f6620746869732063656044820152791c9d1a599a58d85d19481a185cc81899595b881c995d9bdad95960321b60648201526084015b60405180910390fd5b60008781526004602052604090205460ff16156105405760405162461bcd60e51b815260206004820152603d60248201527f583530393a2054686520617574686f72697479206b6579206f6620746869732060448201527f63657274696669636174657320686173206265656e207265766f6b656400000060648201526084016104b2565b896105955760085461055b908990610100900460f81b611d06565b60008181526003602052604090208251839190819061057a9082613c74565b5060208201518160010155905050505050505050505061068c565b6008546105a690899060f81b611d06565b6105b0888a6120e3565b6105ba888a6124cb565b6000818152600360205260409020825183919081906105d99082613c74565b5060209182015160019091015560408051601f8e018390048302810183019091528c8152610650918e908e9081908401838280828437600092019190915250506040516001600160601b03193360601b166020820152603401915061063b9050565b604051602081830303815290604052846113a5565b33600090815260026020908152604080832086905560058252808320849055600191829052909120805460ff1916909117905550505050505050505b50505050505050565b61069d610a86565b6001600160a01b0316336001600160a01b0316146106cd5760405162461bcd60e51b81526004016104b290613d2d565b6106d960066000613699565b565b60606106e985858585610daa565b95945050505050565b6106fa610a86565b6001600160a01b0316336001600160a01b03161461072a5760405162461bcd60e51b81526004016104b290613d2d565b600081815260036020526040902082906107448282613d7b565b50505050565b610752610a86565b6001600160a01b0316336001600160a01b0316146107825760405162461bcd60e51b81526004016104b290613d2d565b6106d960076000613699565b60008054600160b01b900460ff16151581036107ac57506001919050565b506001600160a01b031660009081526001602052604090205460ff1690565b3360009081526005602052604090205481148061080057506107eb610a86565b6001600160a01b0316336001600160a01b0316145b61085c5760405162461bcd60e51b815260206004820152602760248201527f583530393a20596f7520617265206e6f7420746865206f776e6572206f662074604482015266686973206b657960c81b60648201526084016104b2565b6000818152600460209081526040808320805460ff19166001179055600390915281209061088a82826136b7565b6001820160009055505050565b61089f610a86565b6001600160a01b0316336001600160a01b0316146108cf5760405162461bcd60e51b81526004016104b290613d2d565b6008805460f89290921c6101000261ff0019909216919091179055565b600054610100900460ff161580801561090c5750600054600160ff909116105b806109265750303b158015610926575060005460ff166001145b6109895760405162461bcd60e51b815260206004820152602e60248201527f496e697469616c697a61626c653a20636f6e747261637420697320616c72656160448201526d191e481a5b9a5d1a585b1a5e995960921b60648201526084016104b2565b6000805460ff1916600117905580156109ac576000805461ff0019166101001790555b6109b4612990565b6008805461ffff19166106801790558015610a09576000805461ff0019169055604051600181527f7f26b83ff96e1f2b6a682f133852f6798a09c465da95921460cefb38474024989060200160405180910390a15b50565b610a14610a86565b6001600160a01b0316336001600160a01b031614610a445760405162461bcd60e51b81526004016104b290613d2d565b60078054600181018255600091909152610a81907fa66cc928b5edb82af9bd49922954155ab7b0942694bea4ce44661d9a8736c6880183836136f1565b505050565b6000546201000090046001600160a01b031690565b610aa3610a86565b6001600160a01b0316336001600160a01b031614610ad35760405162461bcd60e51b81526004016104b290613d2d565b60068054600181018255600091909152610a81907ff652222313e28459528d920b65115c16c04f3efc82aaedc97be59f3f377c0d3f0183836136f1565b6000610b1a613656565b600080610b2561373c565b610b31888888866129cc565b9650935081610b3f81613e83565b92505083604001516000015115610b84576060840151610b5f9087613e9c565b818460058110610b7157610b71613eaf565b602002015282610b8081613e83565b9350505b60005b6005811015610bcd57818160058110610ba257610ba2613eaf565b60200201518703610bbb5783610bb781613ec5565b9450505b80610bc581613e83565b915050610b87565b50868610610b2557509695505050505050565b610be8610a86565b6001600160a01b0316336001600160a01b031614610c185760405162461bcd60e51b81526004016104b290613d2d565b6008805460ff191660f89290921c919091179055565b610c36610a86565b6001600160a01b0316336001600160a01b031614610c665760405162461bcd60e51b81526004016104b290613d2d565b60008054911515600160b01b0260ff60b01b19909216919091179055565b60008054600160b01b900460ff161580610cf657506001600160a01b0382166000908152600560209081526040808320548352600490915290205460ff16158015610ce657506001600160a01b03821660009081526002602052604090205442105b8015610cf65750610cf68261078e565b15610d0357506001919050565b506000919050565b610d13610a86565b6001600160a01b0316336001600160a01b031614610d435760405162461bcd60e51b81526004016104b290613d2d565b6001600160a01b038116610d5657600080fd5b7f8be0079c531659141344cd1fd0a4f28419497f9722a3daafe3b4186f6b6457e0610d7f610a86565b604080516001600160a01b03928316815291841660208301520160405180910390a1610a0981612aeb565b6060610db4613656565b6000836001600160401b03811115610dce57610dce613bc9565b604051908082528060200260200182016040528015610e0757816020015b610df4613656565b815260200190600190039081610dec5790505b509050600080610e1561373c565b610e218a8a8a866129cc565b98509450848483610e3181613e83565b945081518110610e4357610e43613eaf565b602090810291909101015260408501515115610e8d576060850151610e689089613e9c565b818460058110610e7a57610e7a613eaf565b602002015282610e8981613e83565b9350505b60005b6005811015610ed657818160058110610eab57610eab613eaf565b60200201518903610ec45783610ec081613ec5565b9450505b80610ece81613e83565b915050610e90565b50888810610e1557509198975050505050505050565b6000805b8251811015610f6757828181518110610f0b57610f0b613eaf565b602002602001015160c00151600503610f555762551d2360e81b60001b838281518110610f3a57610f3a613eaf565b602002602001015160800151610f4f90613edc565b14610f67575b80610f5f81613e83565b915050610ef0565b82518110610fd05760405162461bcd60e51b815260206004820152603060248201527f583530393a204f494420666f7220417574686f72697479204b6579204964656e60448201526f1d1a599a595c881b9bdd08199bdd5b9960821b60648201526084016104b2565b600083610fde836001613e9c565b81518110610fee57610fee613eaf565b602002602001015160800151905060218151106110645760405162461bcd60e51b815260206004820152602e60248201527f583530393a20414b494420697320746f6f206c6f6e6720746f20656e636f646560448201526d1030b9903090313cba32b990199960911b60648201526084016104b2565b60408051600380825260808201909252600091816020015b611084613656565b81526020019060019003908161107c575050604051630b49940560e11b81529091503090631693280a906110c2908590600090600290600401613f00565b600060405180830381865afa1580156110df573d6000803e3d6000fd5b505050506040513d6000823e601f3d908101601f191682016040526111079190810190614044565b905060008160018151811061111e5761111e613eaf565b602002602001015160800151516020611137919061418c565b61114290600861419f565b8260018151811061115557611155613eaf565b60200260200101516080015161116a90613edc565b901c9695505050505050565b606060008361118660018561418c565b8151811061119657611196613eaf565b602002602001015190508060c001516001146112035760405162461bcd60e51b815260206004820152602660248201527f583530393a205369676e617475726520746c7620646570746820697320696e636044820152651bdc9c9958dd60d21b60648201526084016104b2565b6040810151602001516001600160f81b031916600360f81b146112895760405162461bcd60e51b815260206004820152603860248201527f583530393a205369676e617475726520746c762073686f756c6420686176652060448201527761207461672074797065206f662042495420535452494e4760401b60648201526084016104b2565b6080015190505b92915050565b60606000826001815181106112ad576112ad613eaf565b602002602001015190508060c001516001146113175760405162461bcd60e51b8152602060048201526024808201527f583530393a204d65737361676520746c7620646570746820697320696e636f726044820152631c9958dd60e21b60648201526084016104b2565b6040810151602001516001600160f81b031916600160fc1b1461139b5760405162461bcd60e51b815260206004820152603660248201527f583530393a204d65737361676520746c762073686f756c6420686176652061206044820152757461672074797065206f662042495420535452494e4760501b60648201526084016104b2565b60a0015192915050565b60006113ba8483602001518460000151612b15565b905060006113c9826005612be6565b90506002846040516113db91906141b6565b602060405180830381855afa1580156113f8573d6000803e3d6000fd5b5050506040513d601f19601f8201168201806040525081019061141b91906141d2565b60405160200161142d91815260200190565b604051602081830303815290604052805190602001208180519060200120146114955760405162461bcd60e51b815260206004820152601a602482015279160d4c0e4e8814da59db985d1d5c99481a5cc81a5b9d985b1a5960321b60448201526064016104b2565b5050505050565b600080805b8351821015611532578382815181106114bc576114bc613eaf565b602002602001015160400151602001516001600160f81b031916601060f81b14801561150557508382815181106114f5576114f5613eaf565b602002602001015160c001516002145b15611518578061151481613e83565b9150505b60038114611532578161152a81613e83565b9250506114a1565b8361153e836001613e9c565b8151811061154e5761154e613eaf565b602002602001015160400151602001516001600160f81b031916601760f81b146115cd5760405162461bcd60e51b815260206004820152602a60248201527f583530393a2046697273742074616720776173206e6f7420696e20666163742060448201526961205554432074696d6560b01b60648201526084016104b2565b836115d9836002613e9c565b815181106115e9576115e9613eaf565b602002602001015160400151602001516001600160f81b031916601760f81b146116695760405162461bcd60e51b815260206004820152602b60248201527f583530393a205365636f6e642074616720776173206e6f7420696e206661637460448201526a2061205554432074696d6560a81b60648201526084016104b2565b61169984611678846001613e9c565b8151811061168857611688613eaf565b602002602001015160800151612f64565b42116116fd5760405162461bcd60e51b815260206004820152602d60248201527f583530393a20497420697320746f6f206561726c7920746f207573652074686960448201526c7320636572746966696361746560981b60648201526084016104b2565b600061170e85611678856002613e9c565b905080421061176a5760405162461bcd60e51b815260206004820152602260248201527f583530393a205468697320636572746966696361746520686173206578706972604482015261195960f21b60648201526084016104b2565b949350505050565b6040805180820190915260608152600060208201526000805b835182101561181c578382815181106117a6576117a6613eaf565b602002602001015160400151602001516001600160f81b031916601060f81b1480156117ef57508382815181106117df576117df613eaf565b602002602001015160c001516002145b1561180257806117fe81613e83565b9150505b6005811461181c578161181481613e83565b92505061178b565b604051682a864886f70d01010160b81b602082015260290160405160208183030381529060405280519060200120848360026118589190613e9c565b8151811061186857611868613eaf565b602002602001015160800151805190602001201461190a5760405162461bcd60e51b815260206004820152605360248201527f583530393a204f6e6c792052534120656372797074696f6e206b65797320617260448201527f6520737570706f727465642c20746865204f494420696e64696361746573206160648201527220646966666572656e74206b6579207479706560681b608482015260a4016104b2565b600084611918846004613e9c565b8151811061192857611928613eaf565b60200260200101516080015190506000600a6001600160401b0381111561195157611951613bc9565b60405190808252806020026020018201604052801561198a57816020015b611977613656565b81526020019060019003908161196f5790505b50604051630b49940560e11b81529091503090631693280a906119b7908590600190600a90600401613f00565b600060405180830381865afa1580156119d4573d6000803e3d6000fd5b505050506040513d6000823e601f3d908101601f191682016040526119fc9190810190614044565b9050600081600181518110611a1357611a13613eaf565b6020026020010151608001519050600082600281518110611a3657611a36613eaf565b602002602001015160800151516020611a4f919061418c565b611a5a90600861419f565b83600281518110611a6d57611a6d613eaf565b602002602001015160800151611a8290613edc565b60408051808201909152938452901c6020830152509695505050505050565b6000805b8251811015611b1c57828181518110611ac057611ac0613eaf565b602002602001015160c00151600503611b0a57622a8e8760e91b60001b838281518110611aef57611aef613eaf565b602002602001015160800151611b0490613edc565b14611b1c575b80611b1481613e83565b915050611aa5565b82518110611b835760405162461bcd60e51b815260206004820152602e60248201527f583530393a204f494420666f72205375626a656374204b6579204964656e746960448201526d199a595c881b9bdd08199bdd5b9960921b60648201526084016104b2565b600083611b91836001613e9c565b81518110611ba157611ba1613eaf565b60200260200101516080015190506021815110611c175760405162461bcd60e51b815260206004820152602e60248201527f583530393a20534b494420697320746f6f206c6f6e6720746f20656e636f646560448201526d1030b9903090313cba32b990199960911b60648201526084016104b2565b604080516001808252818301909252600091816020015b611c36613656565b815260200190600190039081611c2e575050604051630b49940560e11b81529091503090631693280a90611c74908590600090600290600401613f00565b600060405180830381865afa158015611c91573d6000803e3d6000fd5b505050506040513d6000823e601f3d908101601f19168201604052611cb99190810190614044565b9050600081600081518110611cd057611cd0613eaf565b6020026020010151606001516020611ce8919061418c565b611cf390600861419f565b8260008151811061115557611155613eaf565b60005b8251811015611d8057828181518110611d2457611d24613eaf565b602002602001015160c00151600503611d6e5762551d0f60e81b60001b838281518110611d5357611d53613eaf565b602002602001015160800151611d6890613edc565b14611d80575b80611d7881613e83565b915050611d09565b82518110611dda5760405162461bcd60e51b815260206004820152602160248201527f583530393a204f494420666f72204b6579205573616765206e6f7420666f756e6044820152601960fa1b60648201526084016104b2565b600083611de8836001613e9c565b81518110611df857611df8613eaf565b602002602001015160800151905083826001611e149190613e9c565b81518110611e2457611e24613eaf565b602002602001015160a00151600081518110611e4257611e42613eaf565b01602001516001600160f81b031916600160f81b03611e865783611e67836002613e9c565b81518110611e7757611e77613eaf565b60200260200101516080015190505b604080516001808252818301909252600091816020015b611ea5613656565b815260200190600190039081611e9d575050604051630b49940560e11b81529091503090631693280a90611ee3908590600090600190600401613f00565b600060405180830381865afa158015611f00573d6000803e3d6000fd5b505050506040513d6000823e601f3d908101601f19168201604052611f289190810190614044565b905080600081518110611f3d57611f3d613eaf565b602002602001015160600151600214611fa95760405162461bcd60e51b815260206004820152602860248201527f583530393a204b6579207573616765206279746573206d757374206265206f66604482015267203220627974657360c01b60648201526084016104b2565b600081600081518110611fbe57611fbe613eaf565b602002602001015160800151600081518110611fdc57611fdc613eaf565b602001015160f81c60f81b60f81c60ff168260008151811061200057612000613eaf565b60200260200101516080015160008151811061201e5761201e613eaf565b602001015160f81c60f81b60f81c60ff168360008151811061204257612042613eaf565b60200260200101516080015160018151811061206057612060613eaf565b01602001516001600160f81b031990811690911c811690911b91508582168116908616146120db5760405162461bcd60e51b815260206004820152602260248201527f583530393a204b6579207573616765206973206e6f7420617320726571756972604482015261195960f21b60648201526084016104b2565b505050505050565b60005b825181101561215d5782818151811061210157612101613eaf565b602002602001015160c0015160050361214b5762551d2560e81b60001b83828151811061213057612130613eaf565b60200260200101516080015161214590613edc565b1461215d575b8061215581613e83565b9150506120e6565b825181106121c05760405162461bcd60e51b815260206004820152602a60248201527f583530393a204f494420666f7220457874656e646564204b6579205573616765604482015269081b9bdd08199bdd5b9960b21b60648201526084016104b2565b6000836121ce836001613e9c565b815181106121de576121de613eaf565b6020026020010151608001519050838260016121fa9190613e9c565b8151811061220a5761220a613eaf565b602002602001015160a0015160008151811061222857612228613eaf565b01602001516001600160f81b031916600160f81b0361226c578361224d836002613e9c565b8151811061225d5761225d613eaf565b60200260200101516080015190505b60405163b0c5055560e01b8152600090309063b0c505559061229490859085906004016141eb565b602060405180830381865afa1580156122b1573d6000803e3d6000fd5b505050506040513d601f19601f820116820180604052508101906122d591906141d2565b90506000816001600160401b038111156122f1576122f1613bc9565b60405190808252806020026020018201604052801561232a57816020015b612317613656565b81526020019060019003908161230f5790505b50604051630b49940560e11b81529091503090631693280a906123569086906000908790600401613f00565b600060405180830381865afa158015612373573d6000803e3d6000fd5b505050506040513d6000823e601f3d908101601f1916820160405261239b9190810190614044565b905060005b600686815481106123b3576123b3613eaf565b60009182526020909120015481101561068c576000805b8481101561245257600688815481106123e5576123e5613eaf565b90600052602060002001838154811061240057612400613eaf565b906000526020600020015484828151811061241d5761241d613eaf565b602002602001015160a0015161243290613edc565b036124405760019150612452565b8061244a81613e83565b9150506123ca565b50806124b85760405162461bcd60e51b815260206004820152602f60248201527f4120726571756972656420457874656e646564204b6579205573616765204f4960448201526e11081dd85cc81b9bdd08199bdd5b99608a1b60648201526084016104b2565b50806124c381613e83565b9150506123a0565b60005b8251811015612545578281815181106124e9576124e9613eaf565b602002602001015160c00151600503612533576202a8e960ed1b60001b83828151811061251857612518613eaf565b60200260200101516080015161252d90613edc565b14612545575b8061253d81613e83565b9150506124ce565b825181106125aa5760405162461bcd60e51b815260206004820152602c60248201527f583530393a204f494420666f7220436572746966696361746520506f6c69636960448201526b195cc81b9bdd08199bdd5b9960a21b60648201526084016104b2565b6000836125b8836001613e9c565b815181106125c8576125c8613eaf565b6020026020010151608001519050838260016125e49190613e9c565b815181106125f4576125f4613eaf565b602002602001015160a0015160008151811061261257612612613eaf565b01602001516001600160f81b031916600160f81b036126565783612637836002613e9c565b8151811061264757612647613eaf565b60200260200101516080015190505b60405163b0c5055560e01b8152600090309063b0c505559061267e90859085906004016141eb565b602060405180830381865afa15801561269b573d6000803e3d6000fd5b505050506040513d601f19601f820116820180604052508101906126bf91906141d2565b90506000816001600160401b038111156126db576126db613bc9565b60405190808252806020026020018201604052801561271457816020015b612701613656565b8152602001906001900390816126f95790505b50604051630b49940560e11b81529091503090631693280a906127409086906000908790600401613f00565b600060405180830381865afa15801561275d573d6000803e3d6000fd5b505050506040513d6000823e601f3d908101601f191682016040526127859190810190614044565b9050600081516001600160401b038111156127a2576127a2613bc9565b6040519080825280602002602001820160405280156127cb578160200160208202803683370190505b5090506000805b8351811015612863578381815181106127ed576127ed613eaf565b602002602001015160c001516002036128515783818151811061281257612812613eaf565b602002602001015160a0015161282790613edc565b838361283281613e83565b94508151811061284457612844613eaf565b6020026020010181815250505b8061285b81613e83565b9150506127d2565b5060005b6007888154811061287a5761287a613eaf565b600091825260209091200154811015612985576000805b8381101561290c5760078a815481106128ac576128ac613eaf565b9060005260206000200183815481106128c7576128c7613eaf565b90600052602060002001548582815181106128e4576128e4613eaf565b6020026020010151036128fa576001915061290c565b8061290481613e83565b915050612891565b50806129725760405162461bcd60e51b815260206004820152602f60248201527f4120726571756972656420436572746966696361746520506f6c696379204f4960448201526e11081dd85cc81b9bdd08199bdd5b99608a1b60648201526084016104b2565b508061297d81613e83565b915050612867565b505050505050505050565b600054610100900460ff166129b75760405162461bcd60e51b81526004016104b29061420d565b6000805460ff60b01b191690556106d9613203565b6129d4613656565b60006129de61375a565b600060608187612a098b8b838181106129f9576129f9613eaf565b9050013560f81c60f81b8a613233565b909a509095509150612a27612a208b8b818f614258565b8b856133b5565b909a509094509150612a46612a3e8b8b818f614258565b868c89613596565b9950925060008b828c87612a5a8784613e9c565b612a649190613e9c565b92612a7193929190614258565b8080601f016020809104026020016040519081016040528093929190818152602001838380828437600092019190915250506040805160e08101825295865260208601969096525050928201959095526060810193909352608083019190915260a082015260c08101949094525091959294509192505050565b600080546001600160a01b03909216620100000262010000600160b01b0319909216919091179055565b60606000606060056001600160a01b0316865160208651898989604051602001612b4496959493929190614282565b60408051601f1981840301815290829052612b5e916141b6565b600060405180830381855afa9150503d8060008114612b99576040519150601f19603f3d011682016040523d82523d6000602084013e612b9e565b606091505b509092509050816106e95760405162461bcd60e51b81526020600482015260126024820152712c1a981c9d1036b7b222bc381032b93937b960711b60448201526064016104b2565b60606000826001600160401b03811115612c0257612c02613bc9565b604051908082528060200260200182016040528015612c3b57816020015b612c28613656565b815260200190600190039081612c205790505b50905083600081518110612c5157612c51613eaf565b01602001516001600160f81b031916158015612c8c575083600181518110612c7b57612c7b613eaf565b01602001516001600160f81b031916155b612cf25760405162461bcd60e51b815260206004820152603160248201527f583530393a204465637279707420646f6573206e6f7420686176652061206c656044820152706164696e67207a65726f206f637465747360781b60648201526084016104b2565b83600281518110612d0557612d05613eaf565b01602001516001600160f81b0319161580612d45575083600281518110612d2e57612d2e613eaf565b6020910101516001600160f81b031916600160f81b145b612da95760405162461bcd60e51b815260206004820152602f60248201527f583530393a20426c6f636b2054797065206973206e6f7420612070726976617460448201526e329035b2bc9037b832b930ba34b7b760891b60648201526084016104b2565b60035b8451811015612df057848181518110612dc757612dc7613eaf565b01602001516001600160f81b03199081169003612df05780612de881613e83565b915050612dac565b80612dfa81613e83565b604051630b49940560e11b8152909250309150631693280a90612e2590889085908990600401613f00565b600060405180830381865afa158015612e42573d6000803e3d6000fd5b505050506040513d6000823e601f3d908101601f19168201604052612e6a9190810190614044565b915081600481518110612e7f57612e7f613eaf565b602002602001015160c001516001148015612ec9575081600481518110612ea857612ea8613eaf565b602002602001015160400151602001516001600160f81b031916600460f81b145b612f355760405162461bcd60e51b815260206004820152603760248201527f583530393a20496e636f727265637420746167206f7220706f736974696f6e20604482015276666f72206465637279707465642068617368206461746160481b60648201526084016104b2565b600082600481518110612f4a57612f4a613eaf565b602002602001015160800151905080935050505092915050565b600080603083600181518110612f7c57612f7c613eaf565b0160200151612f8e919060f81c6142d4565b60ff16603084600081518110612fa657612fa6613eaf565b0160200151612fb8919060f81c6142d4565b612fc69060ff16600a61419f565b612fd09190613e9c565b612fdc906107d0613e9c565b90506000603084600381518110612ff557612ff5613eaf565b0160200151613007919060f81c6142d4565b60ff1660308560028151811061301f5761301f613eaf565b0160200151613031919060f81c6142d4565b61303f9060ff16600a61419f565b6130499190613e9c565b9050600060308560058151811061306257613062613eaf565b0160200151613074919060f81c6142d4565b60ff1660308660048151811061308c5761308c613eaf565b016020015161309e919060f81c6142d4565b6130ac9060ff16600a61419f565b6130b69190613e9c565b90506107b28310156130c757600080fd5b828282600062253d8c60046064600c6130e1600e886142ed565b6130eb9190614314565b6130f788611324614350565b6131019190614350565b61310b9190614314565b613116906003614378565b6131209190614314565b600c8061312e600e886142ed565b6131389190614314565b61314390600c614378565b61314e6002886142ed565b61315891906142ed565b6131649061016f614378565b61316e9190614314565b6004600c61317d600e896142ed565b6131879190614314565b613193896112c0614350565b61319d9190614350565b6131a9906105b5614378565b6131b39190614314565b6131bf617d4b876142ed565b6131c99190614350565b6131d39190614350565b6131dd91906142ed565b6131e791906142ed565b90506131f6620151808261419f565b9998505050505050505050565b600054610100900460ff1661322a5760405162461bcd60e51b81526004016104b29061420d565b6106d933612aeb565b61323b61375a565b600080600360fe1b8516600160fd1b86161515601f60f81b80881690849082106132c35760405162461bcd60e51b815260206004820152603360248201527f4445525061727365723a20546167206973204c6f6e6720466f726d2c2077686960448201527218da081a5cc81b9bdd081cdd5c1c1bdc9d1959606a1b60648201526084016104b2565b6001600160f81b0319841615806132e75750600160ff1b6001600160f81b03198516145b61336c5760405162461bcd60e51b815260206004820152604a60248201527f4445525061727365723a204f6e6c792074686520556e6976657273616c206f7260448201527f20436f6e7465787453706563696669632074616720636c617373657320617265606482015269081cdd5c1c1bdc9d195960b21b608482015260a4016104b2565b8061337681613e83565b91505060405180604001604052808415158152602001836001600160f81b031916815250886133a490613e83565b909a90995090975095505050505050565b60008080836133c381613e83565b9450506000878760008181106133db576133db613eaf565b90910135600160ff1b1615915060009050888882816133fc576133fc613eaf565b9091013560f81c607f16915050811561342a578061341988613e83565b97508787945094509450505061358c565b806000036134925760405162461bcd60e51b815260206004820152602f60248201527f4445525061727365723a20496e646566696e697465206c656e6774687320617260448201526e19481b9bdd081cdd5c1c1bdc9d1959608a1b60648201526084016104b2565b80607f036135165760405162461bcd60e51b815260206004820152604560248201527f4445525061727365723a20412076616c7565206f66203078374620666f72206160448201527f206c6f6e6720666f726d206c656e67746820697320612072657365727665642060648201526476616c756560d81b608482015260a4016104b2565b6000805b82811015613561578a8a61352f836001613e9c565b81811061353e5761353e613eaf565b60089490941b919093013560f81c1791508061355981613e83565b91505061351a565b508061356d838a613e9c565b613578906001613e9c565b613582848a613e9c565b9550955095505050505b9450945094915050565b606060008260000151156135f6576135b1856000888a614258565b8582828080601f01602080910402602001604051908101604052809392919081815260200183838082843760009201919091525092975092955061364c945050505050565b613603856000888a614258565b61360d8787613e9c565b82828080601f01602080910402602001604051908101604052809392919081815260200183838082843760009201919091525092975092955050505050505b9550959350505050565b6040518060e00160405280600081526020016000815260200161367761375a565b8152602001600081526020016060815260200160608152602001600081525090565b5080546000825590600052602060002090810190610a099190613771565b5080546136c390613bdf565b6000825580601f106136d3575050565b601f016020900490600052602060002090810190610a09919061378e565b82805482825590600052602060002090810192821561372c579160200282015b8281111561372c578235825591602001919060010190613711565b5061373892915061378e565b5090565b6040518060a001604052806005906020820280368337509192915050565b604080518082019091526000808252602082015290565b8082111561373857600061378582826137a3565b50600101613771565b5b80821115613738576000815560010161378f565b5080546000825590600052602060002090810190610a09919061378e565b60008083601f8401126137d357600080fd5b5081356001600160401b038111156137ea57600080fd5b60208301915083602082850101111561380257600080fd5b9250929050565b8015158114610a0957600080fd5b600080600080600080600060a0888a03121561383257600080fd5b87356001600160401b038082111561384957600080fd5b6138558b838c016137c1565b909950975060208a0135965060408a013591508082111561387557600080fd5b506138828a828b016137c1565b909550935050606088013561389681613809565b809250506080880135905092959891949750929550565b600080600080606085870312156138c357600080fd5b84356001600160401b038111156138d957600080fd5b6138e5878288016137c1565b90989097506020870135966040013595509350505050565b60005b83811015613918578181015183820152602001613900565b50506000910152565b600081518084526139398160208601602086016138fd565b601f01601f19169290920160200192915050565b60006020808301818452808551808352604092508286019150828160051b87010184880160005b83811015613a1a57888303603f1901855281518051845287810151888501528681015180511515888601528801516001600160f81b03191660608086019190915281015160808086019190915281015161010060a08087018290529091906139de83880183613921565b92508084015191505060c0868303818801526139fa8383613921565b93015160e096909601959095525094870194925090860190600101613974565b509098975050505050505050565b60008060408385031215613a3b57600080fd5b82356001600160401b03811115613a5157600080fd5b830160408186031215613a6357600080fd5b946020939093013593505050565b600060208284031215613a8357600080fd5b81356001600160a01b0381168114613a9a57600080fd5b9392505050565b600060208284031215613ab357600080fd5b5035919050565b6001600160f81b031981168114610a0957600080fd5b600060208284031215613ae257600080fd5b8135613a9a81613aba565b60008060208385031215613b0057600080fd5b82356001600160401b0380821115613b1757600080fd5b818501915085601f830112613b2b57600080fd5b813581811115613b3a57600080fd5b8660208260051b8501011115613b4f57600080fd5b60209290920196919550909350505050565b600080600060408486031215613b7657600080fd5b83356001600160401b03811115613b8c57600080fd5b613b98868287016137c1565b909790965060209590950135949350505050565b600060208284031215613bbe57600080fd5b8135613a9a81613809565b634e487b7160e01b600052604160045260246000fd5b600181811c90821680613bf357607f821691505b602082108103613c1357634e487b7160e01b600052602260045260246000fd5b50919050565b601f821115610a8157600081815260208120601f850160051c81016020861015613c405750805b601f850160051c820191505b818110156120db57828155600101613c4c565b600019600383901b1c191660019190911b1790565b81516001600160401b03811115613c8d57613c8d613bc9565b613ca181613c9b8454613bdf565b84613c19565b602080601f831160018114613cd05760008415613cbe5750858301515b613cc88582613c5f565b8655506120db565b600085815260208120601f198616915b82811015613cff57888601518255948401946001909101908401613ce0565b5085821015613d1d5787850151600019600388901b60f8161c191681555b5050505050600190811b01905550565b6020808252602e908201527f596f7520617265206e6f7420617574686f726973656420746f20696e766f6b6560408201526d103a3434b990333ab731ba34b7b760911b606082015260800190565b8135601e19833603018112613d8f57600080fd5b820180356001600160401b03811115613da757600080fd5b60208136038184011315613dba57600080fd5b613dce82613dc88654613bdf565b86613c19565b6000601f831160018114613dfe5760008415613dec57508482018301355b613df68582613c5f565b875550613e5b565b600086815260209020601f19851690835b82811015613e30578785018601358255938501936001909101908501613e0f565b5085821015613e4f5760001960f88760031b161c198585890101351681555b505060018460011b0186555b50508085013560018501555050505050565b634e487b7160e01b600052601160045260246000fd5b600060018201613e9557613e95613e6d565b5060010190565b8082018082111561129057611290613e6d565b634e487b7160e01b600052603260045260246000fd5b600081613ed457613ed4613e6d565b506000190190565b80516020808301519190811015613c135760001960209190910360031b1b16919050565b606081526000613f136060830186613921565b60208301949094525060400152919050565b60405160e081016001600160401b0381118282101715613f4757613f47613bc9565b60405290565b604051601f8201601f191681016001600160401b0381118282101715613f7557613f75613bc9565b604052919050565b600060408284031215613f8f57600080fd5b604080519081016001600160401b0381118282101715613fb157613fb1613bc9565b80604052508091508251613fc481613809565b81526020830151613fd481613aba565b6020919091015292915050565b600082601f830112613ff257600080fd5b81516001600160401b0381111561400b5761400b613bc9565b61401e601f8201601f1916602001613f4d565b81815284602083860101111561403357600080fd5b61176a8260208301602087016138fd565b6000602080838503121561405757600080fd5b82516001600160401b038082111561406e57600080fd5b818501915085601f83011261408257600080fd5b81518181111561409457614094613bc9565b8060051b6140a3858201613f4d565b91825283810185019185810190898411156140bd57600080fd5b86860192505b838310156131f6578251858111156140da57600080fd5b8601610100818c03601f19018113156140f257600080fd5b6140fa613f25565b89830151815260408301518a8201526141168d60608501613f7d565b604082015260a0830151606082015260c080840151898111156141395760008081fd5b6141478f8d83880101613fe1565b60808401525060e0840151898111156141605760008081fd5b61416e8f8d83880101613fe1565b60a084015250919092015190820152825291860191908601906140c3565b8181038181111561129057611290613e6d565b808202811582820484141761129057611290613e6d565b600082516141c88184602087016138fd565b9190910192915050565b6000602082840312156141e457600080fd5b5051919050565b6040815260006141fe6040830185613921565b90508260208301529392505050565b6020808252602b908201527f496e697469616c697a61626c653a20636f6e7472616374206973206e6f74206960408201526a6e697469616c697a696e6760a81b606082015260800190565b6000808585111561426857600080fd5b8386111561427557600080fd5b5050820193919092039150565b868152856020820152846040820152600084516142a68160608501602089016138fd565b808301905084606082015283516142c48160808401602088016138fd565b0160800198975050505050505050565b60ff828116828216039081111561129057611290613e6d565b818103600083128015838313168383128216171561430d5761430d613e6d565b5092915050565b60008261433157634e487b7160e01b600052601260045260246000fd5b600160ff1b82146000198414161561434b5761434b613e6d565b500590565b808201828112600083128015821682158216171561437057614370613e6d565b505092915050565b80820260008212600160ff1b8414161561439457614394613e6d565b818105831482151761129057611290613e6d56fea264697066735822122013448161d45e3f00230f05679df70a7f8268a97e03c2fa37875abe9eb763020f64736f6c63430008110033",
  "immutableReferences": {},
  "source": "// SPDX-License-Identifier: CC0-1.0\n\npragma solidity ^0.8.3;\n\n// This contract can parse  a suitably encoded SSL certificate\nimport './DerParser.sol';\nimport './Whitelist.sol';\nimport './X509Interface.sol';\n\ncontract X509 is DERParser, Whitelist, X509Interface {\n    uint256 constant SECONDS_PER_DAY = 24 * 60 * 60;\n    int256 constant OFFSET19700101 = 2440588;\n\n    struct RSAPublicKey {\n        bytes modulus;\n        uint256 exponent;\n    }\n\n    mapping(address => uint256) expires;\n    mapping(bytes32 => RSAPublicKey) trustedPublicKeys;\n    mapping(bytes32 => bool) revokedKeys;\n    mapping(address => bytes32) keysByUser;\n    bytes32[][] extendedKeyUsageOIDs; // this is an array of arrays because each CA has their own set of OIDs that they use\n    bytes32[][] certificatePoliciesOIDs; // this is an array of arrays because each CA has their own set of OIDs that they use\n\n    bytes1 usageBitMaskEndUser;\n    bytes1 usageBitMaskIntermediate;\n\n    function initialize() public override(Whitelist) initializer {\n        Whitelist.initialize();\n        usageBitMaskEndUser = 0x80;\n        usageBitMaskIntermediate = 0x06;\n    }\n\n    function setUsageBitMaskEndUser(bytes1 _usageBitMask) external onlyOwner {\n        usageBitMaskEndUser = _usageBitMask;\n    }\n\n    function setUsageBitMasIntermediate(bytes1 _usageBitMask) external onlyOwner {\n        usageBitMaskIntermediate = _usageBitMask;\n    }\n\n    function addExtendedKeyUsage(bytes32[] calldata oids) external onlyOwner {\n        extendedKeyUsageOIDs.push(oids);\n    }\n\n    function addCertificatePolicies(bytes32[] calldata oids) external onlyOwner {\n        certificatePoliciesOIDs.push(oids);\n    }\n\n    // NB this function removes everything.  You need to re-add all oids if you call this but removing\n    // everything has the advantage of not creating a sparse array, whihc would happend if we deleted\n    // individual elements. Of course it is unlikely that this function will ever be needed.\n    function removeExtendedKeyUsage() external onlyOwner {\n        delete extendedKeyUsageOIDs;\n    }\n\n    function removeCertificatePolicies() external onlyOwner {\n        delete certificatePoliciesOIDs;\n    }\n\n    function setTrustedPublicKey(\n        RSAPublicKey calldata trustedPublicKey,\n        bytes32 authorityKeyIdentifier\n    ) external onlyOwner {\n        trustedPublicKeys[authorityKeyIdentifier] = trustedPublicKey;\n    }\n\n    function getSignature(DecodedTlv[] memory tlvs, uint256 maxId)\n        private\n        pure\n        returns (bytes memory)\n    {\n        DecodedTlv memory signatureTlv = tlvs[maxId - 1];\n        require(signatureTlv.depth == 1, 'X509: Signature tlv depth is incorrect');\n        require(\n            signatureTlv.tag.tagType == 0x03,\n            'X509: Signature tlv should have a tag type of BIT STRING'\n        );\n        bytes memory signature = signatureTlv.value;\n        return signature;\n    }\n\n    function getMessage(DecodedTlv[] memory tlvs) private pure returns (bytes memory) {\n        DecodedTlv memory messageTlv = tlvs[1];\n        require(messageTlv.depth == 1, 'X509: Message tlv depth is incorrect');\n        require(\n            messageTlv.tag.tagType == 0x10,\n            'X509: Message tlv should have a tag type of BIT STRING'\n        );\n        bytes memory message = messageTlv.octets;\n        return message;\n    }\n\n    function modExp(\n        bytes memory b,\n        uint256 e,\n        bytes memory m\n    ) internal view returns (bytes memory) {\n        bool success;\n        bytes memory result;\n        (success, result) = (\n            address(5).staticcall(abi.encodePacked(b.length, uint256(32), m.length, b, e, m))\n        );\n        require(success, 'X509: modExp error');\n        return result;\n    }\n\n    /*\n    Validate the decrypted signature and returns the message hash\n    */\n    function validateSignatureAndExtractMessageHash(bytes memory decrypt, uint256 tlvLength)\n        private\n        view\n        returns (bytes memory)\n    {\n        DecodedTlv[] memory tlvs = new DecodedTlv[](tlvLength);\n        require(\n            decrypt[0] == 0x00 && decrypt[1] == 0x00,\n            'X509: Decrypt does not have a leading zero octets'\n        );\n        require(\n            decrypt[2] == 0x00 || decrypt[2] == 0x01,\n            'X509: Block Type is not a private key operation'\n        );\n        // loop through the padding\n        uint256 i;\n        for (i = 3; i < decrypt.length; i++) {\n            if (decrypt[i] != 0xff) break;\n        }\n        i++;\n        tlvs = this.parseDER(decrypt, i, tlvLength);\n        require(\n            tlvs[4].depth == 1 && tlvs[4].tag.tagType == 0x04,\n            'X509: Incorrect tag or position for decrypted hash data'\n        );\n        bytes memory messageHashFromSignature = tlvs[4].value;\n\n        return messageHashFromSignature;\n    }\n\n    // note: this function is from an MIT licensed library, with appreciation to\n    // https://github.com/bokkypoobah/BokkyPooBahsDateTimeLibrary/blob/v1.01/contracts/BokkyPooBahsDateTimeLibrary.sol\n    // minor changes made\n    function timestampFromDate(bytes memory utcTime) private pure returns (uint256 _seconds) {\n        uint256 year = uint256(uint8(utcTime[0]) - 48) *\n            10 +\n            uint256(uint8(utcTime[1]) - 48) +\n            2000;\n        uint256 month = uint256(uint8(utcTime[2]) - 48) * 10 + uint256(uint8(utcTime[3]) - 48);\n        uint256 day = uint256(uint8(utcTime[4]) - 48) * 10 + uint256(uint8(utcTime[5]) - 48);\n        require(year >= 1970);\n        int256 _year = int256(year);\n        int256 _month = int256(month);\n        int256 _day = int256(day);\n\n        int256 __days = _day -\n            32075 +\n            (1461 * (_year + 4800 + (_month - 14) / 12)) /\n            4 +\n            (367 * (_month - 2 - ((_month - 14) / 12) * 12)) /\n            12 -\n            (3 * ((_year + 4900 + (_month - 14) / 12) / 100)) /\n            4 -\n            OFFSET19700101;\n\n        _seconds = uint256(__days) * SECONDS_PER_DAY;\n    }\n\n    // this function finds and checks the Not Before and Not After tlvs\n    function checkDates(DecodedTlv[] memory tlvs) private view returns (uint256) {\n        // The Not Before and Not After dates are the third SEQUENCE at depth 2\n        uint256 i;\n        uint256 j;\n        for (i = 0; i < tlvs.length; i++) {\n            if (tlvs[i].tag.tagType == 0x10 && tlvs[i].depth == 2) j++;\n            if (j == 3) break;\n        }\n        require(tlvs[i + 1].tag.tagType == 0x17, 'X509: First tag was not in fact a UTC time');\n        require(tlvs[i + 2].tag.tagType == 0x17, 'X509: Second tag was not in fact a UTC time');\n        require(\n            block.timestamp > timestampFromDate(tlvs[i + 1].value),\n            'X509: It is too early to use this certificate'\n        );\n        uint256 expiry = timestampFromDate(tlvs[i + 2].value);\n        require(block.timestamp < expiry, 'X509: This certificate has expired');\n        return expiry;\n    }\n\n    function extractPublicKey(DecodedTlv[] memory tlvs) private view returns (RSAPublicKey memory) {\n        // The public key data begins at the 5th SEQUENCE at depth 2\n        uint256 i;\n        uint256 j;\n        for (i = 0; i < tlvs.length; i++) {\n            if (tlvs[i].tag.tagType == 0x10 && tlvs[i].depth == 2) j++;\n            if (j == 5) break;\n        }\n        // check we have RSA encryption. We use the keccak hash to check equality of the byte arrays\n        require(\n            keccak256(tlvs[i + 2].value) ==\n                keccak256(abi.encodePacked(bytes9(0x2a864886f70d010101))),\n            'X509: Only RSA ecryption keys are supported, the OID indicates a different key type'\n        );\n        bytes memory keyBytes = tlvs[i + 4].value;\n        // extract the public key tlvs\n        DecodedTlv[] memory keyTlvs = new DecodedTlv[](10);\n        keyTlvs = this.parseDER(keyBytes, 1, 10);\n        bytes memory modulus = keyTlvs[1].value;\n        uint256 exponent = uint256(\n            bytes32(keyTlvs[2].value) >> ((32 - keyTlvs[2].value.length) * 8)\n        );\n        return RSAPublicKey(modulus, exponent);\n    }\n\n    function extractSubjectKeyIdentifier(DecodedTlv[] memory tlvs) private view returns (bytes32) {\n        // // The SKID begins after the Suject Key Identifier OID at depth 5\n        uint256 i;\n        for (i = 0; i < tlvs.length; i++) {\n            if (tlvs[i].depth != 5) continue;\n            if (\n                bytes32(tlvs[i].value) ==\n                bytes32((0x551d0e0000000000000000000000000000000000000000000000000000000000))\n            ) break; // OID for the SKID\n        }\n        require(i < tlvs.length, 'X509: OID for Subject Key Identifier not found');\n        bytes memory skidBytes = tlvs[i + 1].value;\n        require(skidBytes.length < 33, 'X509: SKID is too long to encode as a bytes 32');\n        DecodedTlv[] memory skidTlvs = new DecodedTlv[](1);\n        skidTlvs = this.parseDER(skidBytes, 0, 2);\n        bytes32 skid = bytes32(skidTlvs[0].value) >> ((32 - skidTlvs[0].length) * 8);\n        return skid;\n    }\n\n    function extractAuthorityKeyIdentifier(DecodedTlv[] memory tlvs)\n        private\n        view\n        returns (bytes32)\n    {\n        // // The AKID begins after the Authority Key Identifier OID at depth 5\n        uint256 i;\n        for (i = 0; i < tlvs.length; i++) {\n            if (tlvs[i].depth != 5) continue;\n            if (\n                bytes32(tlvs[i].value) ==\n                bytes32((0x551d230000000000000000000000000000000000000000000000000000000000))\n            ) break; // OID for the AKID\n        }\n        require(i < tlvs.length, 'X509: OID for Authority Key Identifier not found');\n        bytes memory akidBytes = tlvs[i + 1].value;\n        require(akidBytes.length < 33, 'X509: AKID is too long to encode as a bytes 32');\n        DecodedTlv[] memory akidTlvs = new DecodedTlv[](3);\n        akidTlvs = this.parseDER(akidBytes, 0, 2);\n        bytes32 akid = bytes32(akidTlvs[1].value) >> ((32 - akidTlvs[1].value.length) * 8);\n        return akid;\n    }\n\n    function checkKeyUsage(DecodedTlv[] memory tlvs, bytes1 _usageBitMask) private view {\n        // // The key usage sequence begins after the Key Usage OID at depth 5\n        uint256 i;\n        for (i = 0; i < tlvs.length; i++) {\n            if (tlvs[i].depth != 5) continue;\n            if (\n                bytes32(tlvs[i].value) ==\n                bytes32((0x551d0f0000000000000000000000000000000000000000000000000000000000))\n            ) break; // OID for keyUsage\n        }\n        require(i < tlvs.length, 'X509: OID for Key Usage not found');\n        bytes memory usageBytes = tlvs[i + 1].value;\n        // usageBytes could be an octet string containing a bit string, that needs further decoding to recover Key Usage flags\n        // or it could be a boolean (code 0x01), indicating the criticality of the Key Usage (we ignore that and move on because we process Key Usage anyway)\n        if (tlvs[i + 1].octets[0] == 0x01) usageBytes = tlvs[i + 2].value; // is it a boolean?\n        DecodedTlv[] memory usageTlvs = new DecodedTlv[](1);\n        usageTlvs = this.parseDER(usageBytes, 0, 1);\n        require(usageTlvs[0].length == 2, 'X509: Key usage bytes must be of 2 bytes');\n        // decoding of flags encoded as DER is strange. The first byte tells us how many bits to ignore in the second byte\n        bytes1 usageFlags = (usageTlvs[0].value[1] >> uint8(usageTlvs[0].value[0])) <<\n            uint8(usageTlvs[0].value[0]);\n        // this is little endian and so must our mask be therefore\n        require(\n            (usageFlags & _usageBitMask) == _usageBitMask,\n            'X509: Key usage is not as required'\n        );\n    }\n\n    function checkExtendedKeyUsage(DecodedTlv[] memory tlvs, uint256 oidGroup) private view {\n        // // The extended key usage sequence begins after the Extended Key Usage OID at depth 5\n        uint256 i;\n        for (i = 0; i < tlvs.length; i++) {\n            if (tlvs[i].depth != 5) continue;\n            if (\n                bytes32(tlvs[i].value) ==\n                bytes32((0x551d250000000000000000000000000000000000000000000000000000000000))\n            ) break; // OID for extendedKeyUsage\n        }\n        require(i < tlvs.length, 'X509: OID for Extended Key Usage not found');\n        bytes memory extendedUsageBytes = tlvs[i + 1].value;\n        if (tlvs[i + 1].octets[0] == 0x01) extendedUsageBytes = tlvs[i + 2].value; // is it a boolean indicating criticality (we ignore that)?\n        uint256 tlvLength = this.computeNumberOfTlvs(extendedUsageBytes, 0); // we cannot guess how long the list might be\n        DecodedTlv[] memory extendedUsageTlvs = new DecodedTlv[](tlvLength);\n        extendedUsageTlvs = this.parseDER(extendedUsageBytes, 0, tlvLength);\n        // Now we need to loop through the extendedKeyUsageOIDs, and check we have every one of them in the cert\n        for (uint256 j = 0; j < extendedKeyUsageOIDs[oidGroup].length; j++) {\n            bool oidFound = false;\n            for (uint256 k = 0; k < tlvLength; k++) {\n                if (bytes32(extendedUsageTlvs[k].octets) == extendedKeyUsageOIDs[oidGroup][j]) {\n                    oidFound = true;\n                    break;\n                }\n            }\n            require(oidFound, 'A required Extended Key Usage OID was not found');\n        }\n    }\n\n    function checkCertificatePolicies(DecodedTlv[] memory tlvs, uint256 oidGroup) private view {\n        // // The extended key usage sequence begins after the Extended Key Usage OID at depth 5\n        uint256 i;\n        for (i = 0; i < tlvs.length; i++) {\n            if (tlvs[i].depth != 5) continue;\n            if (\n                bytes32(tlvs[i].value) ==\n                bytes32((0x551d200000000000000000000000000000000000000000000000000000000000))\n            ) break; // OID for certificate policies\n        }\n        require(i < tlvs.length, 'X509: OID for Certificate Policies not found');\n        bytes memory extendedUsageBytes = tlvs[i + 1].value;\n        if (tlvs[i + 1].octets[0] == 0x01) extendedUsageBytes = tlvs[i + 2].value; // is it a boolean indicating criticality (we ignore that)?\n        uint256 tlvLength = this.computeNumberOfTlvs(extendedUsageBytes, 0); // we cannot guess how long the list might be\n        DecodedTlv[] memory extendedUsageTlvs = new DecodedTlv[](tlvLength);\n        extendedUsageTlvs = this.parseDER(extendedUsageBytes, 0, tlvLength);\n        // certificate policies are, unfortunately not a simple oid but an octet string containing a sequence of sequences. The oids we want are in each sequence.\n        // Thus extendedUsageTlvs is an array of sequences. We have to loop through it, collecting the first OID inside each.  We can ignore\n        // the rest of the sequence which will be yet another sequence of policy qualifiers.  We don't care about those for this purpose.\n        // We just need to ensure the policy exists.\n        bytes32[] memory policyOIDs = new bytes32[](extendedUsageTlvs.length); // we don't know how many there are but there are definitely less than this\n        uint256 count = 0;\n        for (uint256 j = 0; j < extendedUsageTlvs.length; j++) {\n            if (extendedUsageTlvs[j].depth == 2)\n                policyOIDs[count++] = bytes32(extendedUsageTlvs[j].octets);\n        }\n        // Now we have an array containing the policy OIDs we need to loop through\n        // the certificate policie OIDs, and check we have every one of them in the cert\n        for (uint256 j = 0; j < certificatePoliciesOIDs[oidGroup].length; j++) {\n            bool oidFound = false;\n            for (uint256 k = 0; k < count; k++) {\n                if (policyOIDs[k] == certificatePoliciesOIDs[oidGroup][j]) {\n                    oidFound = true;\n                    break;\n                }\n            }\n            require(oidFound, 'A required Certificate Policy OID was not found');\n        }\n    }\n\n    // function to check the signature over a message\n    function checkSignature(\n        bytes memory signature,\n        bytes memory message,\n        RSAPublicKey memory publicKey\n    ) private view {\n        bytes memory signatureDecrypt = modExp(signature, publicKey.exponent, publicKey.modulus);\n        bytes memory messageHashFromSignature = validateSignatureAndExtractMessageHash(\n            signatureDecrypt,\n            5\n        );\n        // we use the keccak hash here as a low cost way to check equality of bytes data\n        require(\n            keccak256(messageHashFromSignature) == keccak256(abi.encode(sha256(message))),\n            'X509: Signature is invalid'\n        );\n    }\n\n    /**\n    This function is the main one in the module. It calls all of the subsidiary functions necessary to validate an RSA cert\n    If the validation is successful (and addAddress is true), it will add the sender to the whitelist contract, provided they\n    are able to sign their ethereum address with the private key corresponding to the certificate.\n     */\n    function validateCertificate(\n        bytes calldata certificate,\n        uint256 tlvLength,\n        bytes calldata addressSignature,\n        bool addAddress,\n        uint256 oidGroup\n    ) external {\n        DecodedTlv[] memory tlvs = new DecodedTlv[](tlvLength);\n        // decode the DER encoded binary certificate data into an array of Tag-Length-Value structs\n        tlvs = walkDerTree(certificate, 0, tlvLength);\n        // extract the data from the certificate necessary for checking the signature and (hopefully) find the Authority public key in\n        // the smart contract's list of trusted keys\n        bytes32 authorityKeyIdentifier = extractAuthorityKeyIdentifier(tlvs);\n        bytes memory signature = getSignature(tlvs, tlvLength);\n        bytes memory message = getMessage(tlvs);\n        RSAPublicKey memory publicKey = trustedPublicKeys[authorityKeyIdentifier];\n        // validate the cert's signature and check that the cert is in date, record the expiry date against msg.sender\n        checkSignature(signature, message, publicKey);\n        uint256 expiry = checkDates(tlvs);\n        // The certificate is valid and linked to a root we trust, so now we trust the certificate's public key too. Let's add it to our list of trusted keys\n        RSAPublicKey memory certificatePublicKey = extractPublicKey(tlvs);\n        bytes32 subjectKeyIdentifier = extractSubjectKeyIdentifier(tlvs);\n        require(\n            !revokedKeys[subjectKeyIdentifier],\n            'X509: The subject key of this certificate has been revoked'\n        );\n        require(\n            !revokedKeys[authorityKeyIdentifier],\n            'X509: The authority key of this certificates has been revoked'\n        );\n        // finally, before we can whitelist msg.sender, we should check that they are indeed the owner of the cert (certs are public, after all)\n        // we do that by getting them to sign msg.sender with the private key corresponding to their certificate public key\n        if (!addAddress) {\n            // if we're not adding an address, check that this certificate can sign certificates (because it must be an intermediate one)\n            checkKeyUsage(tlvs, usageBitMaskIntermediate);\n            // if yes, we'll trust it\n            trustedPublicKeys[subjectKeyIdentifier] = certificatePublicKey;\n            return; // we may want to add an intermediate cert to the contract but not add an address.\n        }\n        // as we are trying to add an address, this certificate should be an end user certificate, created for digital signature\n        // and non-repudiation (or possibly other things - we can change this).\n        checkKeyUsage(tlvs, usageBitMaskEndUser);\n        // we only check extended key usage for end-user certs; it's not really relevant for CA certs\n        checkExtendedKeyUsage(tlvs, oidGroup);\n        checkCertificatePolicies(tlvs, oidGroup);\n        trustedPublicKeys[subjectKeyIdentifier] = certificatePublicKey;\n        checkSignature(\n            addressSignature,\n            abi.encodePacked(uint160(msg.sender)),\n            certificatePublicKey\n        );\n        expires[msg.sender] = expiry;\n        keysByUser[msg.sender] = subjectKeyIdentifier;\n        addUserToWhitelist(msg.sender); // all checks have passed, so they are free to trade for now.\n    }\n\n    // performs an ongoing X509 check (is the user still in the whitelist? Has the public key been revoked? Is the cert in date?)\n    // We could also remove the user in this function, but that would burn more gas.\n    function x509Check(address user) external view returns (bool) {\n        if (\n            !whitelisting ||\n            (!revokedKeys[keysByUser[user]] &&\n                expires[user] > block.timestamp &&\n                isWhitelisted(user))\n        ) return true;\n        return false;\n    }\n\n    // allows a key to be revoked. this cannot be undone!\n    function revokeKey(bytes32 subjectKeyIdentifier) external {\n        require(\n            keysByUser[msg.sender] == subjectKeyIdentifier || msg.sender == owner(),\n            'X509: You are not the owner of this key'\n        );\n        revokedKeys[subjectKeyIdentifier] = true;\n        delete trustedPublicKeys[subjectKeyIdentifier];\n    }\n}\n",
  "sourcePath": "/app/contracts/X509.sol",
  "compiler": {
    "name": "solc",
    "version": "0.8.17+commit.8df45f5f.Emscripten.clang"
  },
  "schemaVersion": "3.4.10",
  "updatedAt": "2022-12-20T19:39:31.830Z",
  "networkType": "ethereum",
  "devdoc": {
    "kind": "dev",
    "methods": {
      "initialize()": {
        "details": "The constructor sets the original owner of the contract to the sender account."
      },
      "owner()": {
        "details": "Tells the address of the owner",
        "returns": {
          "_0": "the address of the owner"
        }
      },
      "transferOwnership(address)": {
        "details": "Allows the current owner to transfer control of the contract to a newOwner.",
        "params": {
          "newOwner": "The address to transfer ownership to."
        }
      }
    },
    "version": 1
  },
  "userdoc": {
    "kind": "user",
    "methods": {
      "validateCertificate(bytes,uint256,bytes,bool,uint256)": {
        "notice": "This function is the main one in the module. It calls all of the subsidiary functions necessary to validate an RSA cert If the validation is successful (and addAddress is true), it will add the sender to the whitelist contract, provided they are able to sign their ethereum address with the private key corresponding to the certificate."
      }
    },
    "version": 1
  }
}