{
  "contractName": "X509",
  "abi": [
    {
      "anonymous": false,
      "inputs": [
        {
          "indexed": false,
          "internalType": "uint8",
          "name": "version",
          "type": "uint8"
        }
      ],
      "name": "Initialized",
      "type": "event"
    },
    {
      "anonymous": false,
      "inputs": [
        {
          "indexed": false,
          "internalType": "address",
          "name": "previousOwner",
          "type": "address"
        },
        {
          "indexed": false,
          "internalType": "address",
          "name": "newOwner",
          "type": "address"
        }
      ],
      "name": "OwnershipTransferred",
      "type": "event"
    },
    {
      "inputs": [],
      "name": "_owner",
      "outputs": [
        {
          "internalType": "address",
          "name": "",
          "type": "address"
        }
      ],
      "stateMutability": "view",
      "type": "function",
      "constant": true
    },
    {
      "inputs": [
        {
          "internalType": "bytes",
          "name": "derBytes",
          "type": "bytes"
        },
        {
          "internalType": "uint256",
          "name": "pointer",
          "type": "uint256"
        }
      ],
      "name": "computeNumberOfTlvs",
      "outputs": [
        {
          "internalType": "uint256",
          "name": "",
          "type": "uint256"
        }
      ],
      "stateMutability": "pure",
      "type": "function",
      "constant": true
    },
    {
      "inputs": [
        {
          "internalType": "bool",
          "name": "_whitelisting",
          "type": "bool"
        }
      ],
      "name": "enableWhitelisting",
      "outputs": [],
      "stateMutability": "nonpayable",
      "type": "function"
    },
    {
      "inputs": [
        {
          "internalType": "address",
          "name": "_user",
          "type": "address"
        }
      ],
      "name": "isWhitelisted",
      "outputs": [
        {
          "internalType": "bool",
          "name": "",
          "type": "bool"
        }
      ],
      "stateMutability": "view",
      "type": "function",
      "constant": true
    },
    {
      "inputs": [],
      "name": "owner",
      "outputs": [
        {
          "internalType": "address",
          "name": "",
          "type": "address"
        }
      ],
      "stateMutability": "view",
      "type": "function",
      "constant": true
    },
    {
      "inputs": [
        {
          "internalType": "bytes",
          "name": "derBytes",
          "type": "bytes"
        },
        {
          "internalType": "uint256",
          "name": "pointer",
          "type": "uint256"
        },
        {
          "internalType": "uint256",
          "name": "tlvLength",
          "type": "uint256"
        }
      ],
      "name": "parseDER",
      "outputs": [
        {
          "components": [
            {
              "internalType": "uint256",
              "name": "start",
              "type": "uint256"
            },
            {
              "internalType": "uint256",
              "name": "headerLength",
              "type": "uint256"
            },
            {
              "components": [
                {
                  "internalType": "bool",
                  "name": "isConstructed",
                  "type": "bool"
                },
                {
                  "internalType": "bytes1",
                  "name": "tagType",
                  "type": "bytes1"
                }
              ],
              "internalType": "struct DERParser.Tag",
              "name": "tag",
              "type": "tuple"
            },
            {
              "internalType": "uint256",
              "name": "length",
              "type": "uint256"
            },
            {
              "internalType": "bytes",
              "name": "value",
              "type": "bytes"
            },
            {
              "internalType": "bytes",
              "name": "octets",
              "type": "bytes"
            },
            {
              "internalType": "uint256",
              "name": "depth",
              "type": "uint256"
            }
          ],
          "internalType": "struct DERParser.DecodedTlv[]",
          "name": "",
          "type": "tuple[]"
        }
      ],
      "stateMutability": "pure",
      "type": "function",
      "constant": true
    },
    {
      "inputs": [
        {
          "internalType": "address",
          "name": "newOwner",
          "type": "address"
        }
      ],
      "name": "transferOwnership",
      "outputs": [],
      "stateMutability": "nonpayable",
      "type": "function"
    },
    {
      "inputs": [
        {
          "internalType": "address",
          "name": "",
          "type": "address"
        }
      ],
      "name": "users",
      "outputs": [
        {
          "internalType": "bool",
          "name": "",
          "type": "bool"
        }
      ],
      "stateMutability": "view",
      "type": "function",
      "constant": true
    },
    {
      "inputs": [],
      "name": "whitelisting",
      "outputs": [
        {
          "internalType": "bool",
          "name": "",
          "type": "bool"
        }
      ],
      "stateMutability": "view",
      "type": "function",
      "constant": true
    },
    {
      "inputs": [],
      "name": "initialize",
      "outputs": [],
      "stateMutability": "nonpayable",
      "type": "function"
    },
    {
      "inputs": [
        {
          "internalType": "bytes1",
          "name": "_usageBitMask",
          "type": "bytes1"
        }
      ],
      "name": "setUsageBitMaskEndUser",
      "outputs": [],
      "stateMutability": "nonpayable",
      "type": "function"
    },
    {
      "inputs": [
        {
          "internalType": "bytes1",
          "name": "_usageBitMask",
          "type": "bytes1"
        }
      ],
      "name": "setUsageBitMasIntermediate",
      "outputs": [],
      "stateMutability": "nonpayable",
      "type": "function"
    },
    {
      "inputs": [
        {
          "components": [
            {
              "internalType": "bytes",
              "name": "modulus",
              "type": "bytes"
            },
            {
              "internalType": "uint256",
              "name": "exponent",
              "type": "uint256"
            }
          ],
          "internalType": "struct X509.RSAPublicKey",
          "name": "trustedPublicKey",
          "type": "tuple"
        },
        {
          "internalType": "bytes32",
          "name": "authorityKeyIdentifier",
          "type": "bytes32"
        }
      ],
      "name": "setTrustedPublicKey",
      "outputs": [],
      "stateMutability": "nonpayable",
      "type": "function"
    },
    {
      "inputs": [
        {
          "internalType": "bytes",
          "name": "certificate",
          "type": "bytes"
        },
        {
          "internalType": "uint256",
          "name": "tlvLength",
          "type": "uint256"
        },
        {
          "internalType": "bytes",
          "name": "addressSignature",
          "type": "bytes"
        },
        {
          "internalType": "bool",
          "name": "addAddress",
          "type": "bool"
        }
      ],
      "name": "validateCertificate",
      "outputs": [],
      "stateMutability": "nonpayable",
      "type": "function"
    },
    {
      "inputs": [
        {
          "internalType": "address",
          "name": "user",
          "type": "address"
        }
      ],
      "name": "x509Check",
      "outputs": [
        {
          "internalType": "bool",
          "name": "",
          "type": "bool"
        }
      ],
      "stateMutability": "view",
      "type": "function",
      "constant": true
    },
    {
      "inputs": [
        {
          "internalType": "bytes32",
          "name": "subjectKeyIdentifier",
          "type": "bytes32"
        }
      ],
      "name": "revokeKey",
      "outputs": [],
      "stateMutability": "nonpayable",
      "type": "function"
    }
  ],
  "bytecode": "0x608060405234801561001057600080fd5b506137a7806100206000396000f3fe608060405234801561001057600080fd5b50600436106100d05760003560e01c80631693280a146100d557806320107033146100fe5780633af32abf14610113578063520c582814610136578063572f22101461014a578063746b5df51461015d5780638129fc1c146101705780638da5cb5b14610178578063a87430ba14610198578063b0c50555146101bb578063b10748ac146101dc578063b2bdfa7b146101ef578063de67b4af14610208578063e23c27e91461021b578063f2fde38b1461022e578063fb0310ca14610241575b600080fd5b6100e86100e3366004612c6e565b610254565b6040516100f59190612d0e565b60405180910390f35b61011161010c366004612de9565b61026b565b005b610126610121366004612e32565b6102cc565b60405190151581526020016100f5565b60005461012690600160b01b900460ff1681565b610111610158366004612e62565b610309565b61011161016b366004612e91565b6103d5565b61011161042a565b61018061054a565b6040516001600160a01b0390911681526020016100f5565b6101266101a6366004612e32565b60016020526000908152604090205460ff1681565b6101ce6101c9366004612eae565b61055f565b6040519081526020016100f5565b6101116101ea366004612e91565b61062f565b600054610180906201000090046001600160a01b031681565b610111610216366004612f07565b61067d565b610126610229366004612e32565b6106d3565b61011161023c366004612e32565b61075a565b61011161024f366004612f24565b6107f9565b606061026285858585610bbe565b95945050505050565b61027361054a565b6001600160a01b0316336001600160a01b0316146102ac5760405162461bcd60e51b81526004016102a390612faf565b60405180910390fd5b600081815260036020526040902082906102c682826130ad565b50505050565b60008054600160b01b900460ff16151581036102ea57506001919050565b506001600160a01b031660009081526001602052604090205460ff1690565b3360009081526005602052604090205481148061033e575061032961054a565b6001600160a01b0316336001600160a01b0316145b61039a5760405162461bcd60e51b815260206004820152602760248201527f583530393a20596f7520617265206e6f7420746865206f776e6572206f662074604482015266686973206b657960c81b60648201526084016102a3565b6000818152600460209081526040808320805460ff1916600117905560039091528120906103c88282612b5b565b6001820160009055505050565b6103dd61054a565b6001600160a01b0316336001600160a01b03161461040d5760405162461bcd60e51b81526004016102a390612faf565b6006805460f89290921c6101000261ff0019909216919091179055565b600054610100900460ff161580801561044a5750600054600160ff909116105b806104645750303b158015610464575060005460ff166001145b6104c75760405162461bcd60e51b815260206004820152602e60248201527f496e697469616c697a61626c653a20636f6e747261637420697320616c72656160448201526d191e481a5b9a5d1a585b1a5e995960921b60648201526084016102a3565b6000805460ff1916600117905580156104ea576000805461ff0019166101001790555b6104f2610d00565b6006805461ffff19166106c01790558015610547576000805461ff0019169055604051600181527f7f26b83ff96e1f2b6a682f133852f6798a09c465da95921460cefb38474024989060200160405180910390a15b50565b6000546201000090046001600160a01b031690565b6000610569612b95565b600080610574612bd8565b61058088888886610d3e565b965093508161058e816131b5565b925050836040015160000151156105d35760608401516105ae90876131ce565b8184600581106105c0576105c06131e1565b6020020152826105cf816131b5565b9350505b60005b600581101561061c578181600581106105f1576105f16131e1565b6020020151870361060a5783610606816131f7565b9450505b80610614816131b5565b9150506105d6565b5086861061057457509695505050505050565b61063761054a565b6001600160a01b0316336001600160a01b0316146106675760405162461bcd60e51b81526004016102a390612faf565b6006805460ff191660f89290921c919091179055565b61068561054a565b6001600160a01b0316336001600160a01b0316146106b55760405162461bcd60e51b81526004016102a390612faf565b60008054911515600160b01b0260ff60b01b19909216919091179055565b60008054600160b01b900460ff16158061074557506001600160a01b0382166000908152600560209081526040808320548352600490915290205460ff1615801561073557506001600160a01b03821660009081526002602052604090205442105b80156107455750610745826102cc565b1561075257506001919050565b506000919050565b61076261054a565b6001600160a01b0316336001600160a01b0316146107925760405162461bcd60e51b81526004016102a390612faf565b6001600160a01b0381166107a557600080fd5b7f8be0079c531659141344cd1fd0a4f28419497f9722a3daafe3b4186f6b6457e06107ce61054a565b604080516001600160a01b03928316815291841660208301520160405180910390a161054781610e5d565b6000846001600160401b0381111561081357610813612ffd565b60405190808252806020026020018201604052801561084c57816020015b610839612b95565b8152602001906001900390816108315790505b50905061085c8787600088610bbe565b9050600061086982610e87565b905060006108778388611111565b9050600061088484611231565b90506000600360008581526020019081526020016000206040518060400160405290816000820180546108b690613013565b80601f01602080910402602001604051908101604052809291908181526020018280546108e290613013565b801561092f5780601f106109045761010080835404028352916020019161092f565b820191906000526020600020905b81548152906001019060200180831161091257829003601f168201915b50505050508152602001600182015481525050905061094f838383611340565b600061095a86611437565b905060006109678761170d565b9050600061097488611a3c565b60008181526004602052604090205490915060ff16156109f95760405162461bcd60e51b815260206004820152603a60248201527f583530393a20546865207375626a656374206b6579206f6620746869732063656044820152791c9d1a599a58d85d19481a185cc81899595b881c995d9bdad95960321b60648201526084016102a3565b60008781526004602052604090205460ff1615610a7e5760405162461bcd60e51b815260206004820152603d60248201527f583530393a2054686520617574686f72697479206b6579206f6620746869732060448201527f63657274696669636174657320686173206265656e207265766f6b656400000060648201526084016102a3565b88610ad357600654610a99908990610100900460f81b611ca1565b600081815260036020526040902082518391908190610ab8908261320e565b50602082015181600101559050505050505050505050610bb6565b600654610ae490899060f81b611ca1565b600081815260036020526040902082518391908190610b03908261320e565b5060209182015160019091015560408051601f8d018390048302810183019091528b8152610b7a918d908d9081908401838280828437600092019190915250506040516001600160601b03193360601b1660208201526034019150610b659050565b60405160208183030381529060405284611340565b33600090815260026020908152604080832086905560058252808320849055600191829052909120805460ff1916909117905550505050505050505b505050505050565b6060610bc8612b95565b6000836001600160401b03811115610be257610be2612ffd565b604051908082528060200260200182016040528015610c1b57816020015b610c08612b95565b815260200190600190039081610c005790505b509050600080610c29612bd8565b610c358a8a8a86610d3e565b98509450848483610c45816131b5565b945081518110610c5757610c576131e1565b602090810291909101015260408501515115610ca1576060850151610c7c90896131ce565b818460058110610c8e57610c8e6131e1565b602002015282610c9d816131b5565b9350505b60005b6005811015610cea57818160058110610cbf57610cbf6131e1565b60200201518903610cd85783610cd4816131f7565b9450505b80610ce2816131b5565b915050610ca4565b50888810610c2957509198975050505050505050565b600054610100900460ff16610d275760405162461bcd60e51b81526004016102a3906132c7565b6000805460ff60b01b19169055610d3c61201a565b565b610d46612b95565b6000610d50612bf6565b600060608187610d7b8b8b83818110610d6b57610d6b6131e1565b9050013560f81c60f81b8a61204a565b909a509095509150610d99610d928b8b818f613312565b8b856121cc565b909a509094509150610db8610db08b8b818f613312565b868c896123ad565b9950925060008b828c87610dcc87846131ce565b610dd691906131ce565b92610de393929190613312565b8080601f016020809104026020016040519081016040528093929190818152602001838380828437600092019190915250506040805160e08101825295865260208601969096525050928201959095526060810193909352608083019190915260a082015260c08101949094525091959294509192505050565b600080546001600160a01b03909216620100000262010000600160b01b0319909216919091179055565b6000805b8251811015610f0257828181518110610ea657610ea66131e1565b602002602001015160c00151600503610ef05762551d2360e81b60001b838281518110610ed557610ed56131e1565b602002602001015160800151610eea9061333c565b14610f02575b80610efa816131b5565b915050610e8b565b82518110610f6b5760405162461bcd60e51b815260206004820152603060248201527f583530393a204f494420666f7220417574686f72697479204b6579204964656e60448201526f1d1a599a595c881b9bdd08199bdd5b9960821b60648201526084016102a3565b600083610f798360016131ce565b81518110610f8957610f896131e1565b60200260200101516080015190506021815110610fff5760405162461bcd60e51b815260206004820152602e60248201527f583530393a20414b494420697320746f6f206c6f6e6720746f20656e636f646560448201526d1030b9903090313cba32b990199960911b60648201526084016102a3565b60408051600380825260808201909252600091816020015b61101f612b95565b815260200190600190039081611017575050604051630b49940560e11b81529091503090631693280a9061105d908590600090600290600401613360565b600060405180830381865afa15801561107a573d6000803e3d6000fd5b505050506040513d6000823e601f3d908101601f191682016040526110a291908101906134a4565b90506000816001815181106110b9576110b96131e1565b6020026020010151608001515160206110d291906135ec565b6110dd9060086135ff565b826001815181106110f0576110f06131e1565b6020026020010151608001516111059061333c565b901c9695505050505050565b60606000836111216001856135ec565b81518110611131576111316131e1565b602002602001015190508060c0015160011461119e5760405162461bcd60e51b815260206004820152602660248201527f583530393a205369676e617475726520746c7620646570746820697320696e636044820152651bdc9c9958dd60d21b60648201526084016102a3565b6040810151602001516001600160f81b031916600360f81b146112245760405162461bcd60e51b815260206004820152603860248201527f583530393a205369676e617475726520746c762073686f756c6420686176652060448201527761207461672074797065206f662042495420535452494e4760401b60648201526084016102a3565b6080015190505b92915050565b6060600082600181518110611248576112486131e1565b602002602001015190508060c001516001146112b25760405162461bcd60e51b8152602060048201526024808201527f583530393a204d65737361676520746c7620646570746820697320696e636f726044820152631c9958dd60e21b60648201526084016102a3565b6040810151602001516001600160f81b031916600160fc1b146113365760405162461bcd60e51b815260206004820152603660248201527f583530393a204d65737361676520746c762073686f756c6420686176652061206044820152757461672074797065206f662042495420535452494e4760501b60648201526084016102a3565b60a0015192915050565b6000611355848360200151846000015161246d565b9050600061136482600561253e565b90506002846040516113769190613616565b602060405180830381855afa158015611393573d6000803e3d6000fd5b5050506040513d601f19601f820116820180604052508101906113b69190613632565b6040516020016113c891815260200190565b604051602081830303815290604052805190602001208180519060200120146114305760405162461bcd60e51b815260206004820152601a602482015279160d4c0e4e8814da59db985d1d5c99481a5cc81a5b9d985b1a5960321b60448201526064016102a3565b5050505050565b600080805b83518210156114cd57838281518110611457576114576131e1565b602002602001015160400151602001516001600160f81b031916601060f81b1480156114a05750838281518110611490576114906131e1565b602002602001015160c001516002145b156114b357806114af816131b5565b9150505b600381146114cd57816114c5816131b5565b92505061143c565b836114d98360016131ce565b815181106114e9576114e96131e1565b602002602001015160400151602001516001600160f81b031916601760f81b146115685760405162461bcd60e51b815260206004820152602a60248201527f583530393a2046697273742074616720776173206e6f7420696e20666163742060448201526961205554432074696d6560b01b60648201526084016102a3565b836115748360026131ce565b81518110611584576115846131e1565b602002602001015160400151602001516001600160f81b031916601760f81b146116045760405162461bcd60e51b815260206004820152602b60248201527f583530393a205365636f6e642074616720776173206e6f7420696e206661637460448201526a2061205554432074696d6560a81b60648201526084016102a3565b611634846116138460016131ce565b81518110611623576116236131e1565b6020026020010151608001516128bc565b42116116985760405162461bcd60e51b815260206004820152602d60248201527f583530393a20497420697320746f6f206561726c7920746f207573652074686960448201526c7320636572746966696361746560981b60648201526084016102a3565b60006116a9856116138560026131ce565b90508042106117055760405162461bcd60e51b815260206004820152602260248201527f583530393a205468697320636572746966696361746520686173206578706972604482015261195960f21b60648201526084016102a3565b949350505050565b6040805180820190915260608152600060208201526000805b83518210156117b757838281518110611741576117416131e1565b602002602001015160400151602001516001600160f81b031916601060f81b14801561178a575083828151811061177a5761177a6131e1565b602002602001015160c001516002145b1561179d5780611799816131b5565b9150505b600581146117b757816117af816131b5565b925050611726565b604051682a864886f70d01010160b81b602082015260290160405160208183030381529060405280519060200120848360026117f391906131ce565b81518110611803576118036131e1565b60200260200101516080015180519060200120146118a55760405162461bcd60e51b815260206004820152605360248201527f583530393a204f6e6c792052534120656372797074696f6e206b65797320617260448201527f6520737570706f727465642c20746865204f494420696e64696361746573206160648201527220646966666572656e74206b6579207479706560681b608482015260a4016102a3565b6000846118b38460046131ce565b815181106118c3576118c36131e1565b60200260200101516080015190506000600a6001600160401b038111156118ec576118ec612ffd565b60405190808252806020026020018201604052801561192557816020015b611912612b95565b81526020019060019003908161190a5790505b50604051630b49940560e11b81529091503090631693280a90611952908590600190600a90600401613360565b600060405180830381865afa15801561196f573d6000803e3d6000fd5b505050506040513d6000823e601f3d908101601f1916820160405261199791908101906134a4565b90506000816001815181106119ae576119ae6131e1565b60200260200101516080015190506000826002815181106119d1576119d16131e1565b6020026020010151608001515160206119ea91906135ec565b6119f59060086135ff565b83600281518110611a0857611a086131e1565b602002602001015160800151611a1d9061333c565b60408051808201909152938452901c6020830152509695505050505050565b6000805b8251811015611ab757828181518110611a5b57611a5b6131e1565b602002602001015160c00151600503611aa557622a8e8760e91b60001b838281518110611a8a57611a8a6131e1565b602002602001015160800151611a9f9061333c565b14611ab7575b80611aaf816131b5565b915050611a40565b82518110611b1e5760405162461bcd60e51b815260206004820152602e60248201527f583530393a204f494420666f72205375626a656374204b6579204964656e746960448201526d199a595c881b9bdd08199bdd5b9960921b60648201526084016102a3565b600083611b2c8360016131ce565b81518110611b3c57611b3c6131e1565b60200260200101516080015190506021815110611bb25760405162461bcd60e51b815260206004820152602e60248201527f583530393a20534b494420697320746f6f206c6f6e6720746f20656e636f646560448201526d1030b9903090313cba32b990199960911b60648201526084016102a3565b604080516001808252818301909252600091816020015b611bd1612b95565b815260200190600190039081611bc9575050604051630b49940560e11b81529091503090631693280a90611c0f908590600090600290600401613360565b600060405180830381865afa158015611c2c573d6000803e3d6000fd5b505050506040513d6000823e601f3d908101601f19168201604052611c5491908101906134a4565b9050600081600081518110611c6b57611c6b6131e1565b6020026020010151606001516020611c8391906135ec565b611c8e9060086135ff565b826000815181106110f0576110f06131e1565b60005b8251811015611d1b57828181518110611cbf57611cbf6131e1565b602002602001015160c00151600503611d095762551d0f60e81b60001b838281518110611cee57611cee6131e1565b602002602001015160800151611d039061333c565b14611d1b575b80611d13816131b5565b915050611ca4565b82518110611d755760405162461bcd60e51b815260206004820152602160248201527f583530393a204f494420666f72204b6579205573616765206e6f7420666f756e6044820152601960fa1b60648201526084016102a3565b600083611d838360016131ce565b81518110611d9357611d936131e1565b6020026020010151608001519050600060016001600160401b03811115611dbc57611dbc612ffd565b604051908082528060200260200182016040528015611df557816020015b611de2612b95565b815260200190600190039081611dda5790505b50604051630b49940560e11b81529091503090631693280a90611e22908590600090600190600401613360565b600060405180830381865afa158015611e3f573d6000803e3d6000fd5b505050506040513d6000823e601f3d908101601f19168201604052611e6791908101906134a4565b905080600081518110611e7c57611e7c6131e1565b602002602001015160600151600214611ee85760405162461bcd60e51b815260206004820152602860248201527f583530393a204b6579207573616765206279746573206d757374206265206f66604482015267203220627974657360c01b60648201526084016102a3565b600081600081518110611efd57611efd6131e1565b602002602001015160800151600081518110611f1b57611f1b6131e1565b602001015160f81c60f81b60f81c60ff1682600081518110611f3f57611f3f6131e1565b602002602001015160800151600081518110611f5d57611f5d6131e1565b602001015160f81c60f81b60f81c60ff1683600081518110611f8157611f816131e1565b602002602001015160800151600181518110611f9f57611f9f6131e1565b01602001516001600160f81b031990811690911c811690911b9150858216811690861614610bb65760405162461bcd60e51b815260206004820152602260248201527f583530393a204b6579207573616765206973206e6f7420617320726571756972604482015261195960f21b60648201526084016102a3565b600054610100900460ff166120415760405162461bcd60e51b81526004016102a3906132c7565b610d3c33610e5d565b612052612bf6565b600080600360fe1b8516600160fd1b86161515601f60f81b80881690849082106120da5760405162461bcd60e51b815260206004820152603360248201527f4445525061727365723a20546167206973204c6f6e6720466f726d2c2077686960448201527218da081a5cc81b9bdd081cdd5c1c1bdc9d1959606a1b60648201526084016102a3565b6001600160f81b0319841615806120fe5750600160ff1b6001600160f81b03198516145b6121835760405162461bcd60e51b815260206004820152604a60248201527f4445525061727365723a204f6e6c792074686520556e6976657273616c206f7260448201527f20436f6e7465787453706563696669632074616720636c617373657320617265606482015269081cdd5c1c1bdc9d195960b21b608482015260a4016102a3565b8061218d816131b5565b91505060405180604001604052808415158152602001836001600160f81b031916815250886121bb906131b5565b909a90995090975095505050505050565b60008080836121da816131b5565b9450506000878760008181106121f2576121f26131e1565b90910135600160ff1b161591506000905088888281612213576122136131e1565b9091013560f81c607f1691505081156122415780612230886131b5565b9750878794509450945050506123a3565b806000036122a95760405162461bcd60e51b815260206004820152602f60248201527f4445525061727365723a20496e646566696e697465206c656e6774687320617260448201526e19481b9bdd081cdd5c1c1bdc9d1959608a1b60648201526084016102a3565b80607f0361232d5760405162461bcd60e51b815260206004820152604560248201527f4445525061727365723a20412076616c7565206f66203078374620666f72206160448201527f206c6f6e6720666f726d206c656e67746820697320612072657365727665642060648201526476616c756560d81b608482015260a4016102a3565b6000805b82811015612378578a8a6123468360016131ce565b818110612355576123556131e1565b60089490941b919093013560f81c17915080612370816131b5565b915050612331565b5080612384838a6131ce565b61238f9060016131ce565b612399848a6131ce565b9550955095505050505b9450945094915050565b6060600082600001511561240d576123c8856000888a613312565b8582828080601f016020809104026020016040519081016040528093929190818152602001838380828437600092019190915250929750929550612463945050505050565b61241a856000888a613312565b61242487876131ce565b82828080601f01602080910402602001604051908101604052809392919081815260200183838082843760009201919091525092975092955050505050505b9550959350505050565b60606000606060056001600160a01b031686516020865189898960405160200161249c9695949392919061364b565b60408051601f19818403018152908290526124b691613616565b600060405180830381855afa9150503d80600081146124f1576040519150601f19603f3d011682016040523d82523d6000602084013e6124f6565b606091505b509092509050816102625760405162461bcd60e51b81526020600482015260126024820152712c1a981c9d1036b7b222bc381032b93937b960711b60448201526064016102a3565b60606000826001600160401b0381111561255a5761255a612ffd565b60405190808252806020026020018201604052801561259357816020015b612580612b95565b8152602001906001900390816125785790505b509050836000815181106125a9576125a96131e1565b01602001516001600160f81b0319161580156125e45750836001815181106125d3576125d36131e1565b01602001516001600160f81b031916155b61264a5760405162461bcd60e51b815260206004820152603160248201527f583530393a204465637279707420646f6573206e6f7420686176652061206c656044820152706164696e67207a65726f206f637465747360781b60648201526084016102a3565b8360028151811061265d5761265d6131e1565b01602001516001600160f81b031916158061269d575083600281518110612686576126866131e1565b6020910101516001600160f81b031916600160f81b145b6127015760405162461bcd60e51b815260206004820152602f60248201527f583530393a20426c6f636b2054797065206973206e6f7420612070726976617460448201526e329035b2bc9037b832b930ba34b7b760891b60648201526084016102a3565b60035b84518110156127485784818151811061271f5761271f6131e1565b01602001516001600160f81b031990811690036127485780612740816131b5565b915050612704565b80612752816131b5565b604051630b49940560e11b8152909250309150631693280a9061277d90889085908990600401613360565b600060405180830381865afa15801561279a573d6000803e3d6000fd5b505050506040513d6000823e601f3d908101601f191682016040526127c291908101906134a4565b9150816004815181106127d7576127d76131e1565b602002602001015160c001516001148015612821575081600481518110612800576128006131e1565b602002602001015160400151602001516001600160f81b031916600460f81b145b61288d5760405162461bcd60e51b815260206004820152603760248201527f583530393a20496e636f727265637420746167206f7220706f736974696f6e20604482015276666f72206465637279707465642068617368206461746160481b60648201526084016102a3565b6000826004815181106128a2576128a26131e1565b602002602001015160800151905080935050505092915050565b6000806030836001815181106128d4576128d46131e1565b01602001516128e6919060f81c61369d565b60ff166030846000815181106128fe576128fe6131e1565b0160200151612910919060f81c61369d565b61291e9060ff16600a6135ff565b61292891906131ce565b612934906107d06131ce565b9050600060308460038151811061294d5761294d6131e1565b016020015161295f919060f81c61369d565b60ff16603085600281518110612977576129776131e1565b0160200151612989919060f81c61369d565b6129979060ff16600a6135ff565b6129a191906131ce565b905060006030856005815181106129ba576129ba6131e1565b01602001516129cc919060f81c61369d565b60ff166030866004815181106129e4576129e46131e1565b01602001516129f6919060f81c61369d565b612a049060ff16600a6135ff565b612a0e91906131ce565b90506107b2831015612a1f57600080fd5b828282600062253d8c60046064600c612a39600e886136b6565b612a4391906136dd565b612a4f88611324613719565b612a599190613719565b612a6391906136dd565b612a6e906003613741565b612a7891906136dd565b600c80612a86600e886136b6565b612a9091906136dd565b612a9b90600c613741565b612aa66002886136b6565b612ab091906136b6565b612abc9061016f613741565b612ac691906136dd565b6004600c612ad5600e896136b6565b612adf91906136dd565b612aeb896112c0613719565b612af59190613719565b612b01906105b5613741565b612b0b91906136dd565b612b17617d4b876136b6565b612b219190613719565b612b2b9190613719565b612b3591906136b6565b612b3f91906136b6565b9050612b4e62015180826135ff565b9998505050505050505050565b508054612b6790613013565b6000825580601f10612b77575050565b601f0160209004906000526020600020908101906105479190612c0d565b6040518060e001604052806000815260200160008152602001612bb6612bf6565b8152602001600081526020016060815260200160608152602001600081525090565b6040518060a001604052806005906020820280368337509192915050565b604080518082019091526000808252602082015290565b5b80821115612c225760008155600101612c0e565b5090565b60008083601f840112612c3857600080fd5b5081356001600160401b03811115612c4f57600080fd5b602083019150836020828501011115612c6757600080fd5b9250929050565b60008060008060608587031215612c8457600080fd5b84356001600160401b03811115612c9a57600080fd5b612ca687828801612c26565b90989097506020870135966040013595509350505050565b60005b83811015612cd9578181015183820152602001612cc1565b50506000910152565b60008151808452612cfa816020860160208601612cbe565b601f01601f19169290920160200192915050565b60006020808301818452808551808352604092508286019150828160051b87010184880160005b83811015612ddb57888303603f1901855281518051845287810151888501528681015180511515888601528801516001600160f81b03191660608086019190915281015160808086019190915281015161010060a0808701829052909190612d9f83880183612ce2565b92508084015191505060c086830381880152612dbb8383612ce2565b93015160e096909601959095525094870194925090860190600101612d35565b509098975050505050505050565b60008060408385031215612dfc57600080fd5b82356001600160401b03811115612e1257600080fd5b830160408186031215612e2457600080fd5b946020939093013593505050565b600060208284031215612e4457600080fd5b81356001600160a01b0381168114612e5b57600080fd5b9392505050565b600060208284031215612e7457600080fd5b5035919050565b6001600160f81b03198116811461054757600080fd5b600060208284031215612ea357600080fd5b8135612e5b81612e7b565b600080600060408486031215612ec357600080fd5b83356001600160401b03811115612ed957600080fd5b612ee586828701612c26565b909790965060209590950135949350505050565b801515811461054757600080fd5b600060208284031215612f1957600080fd5b8135612e5b81612ef9565b60008060008060008060808789031215612f3d57600080fd5b86356001600160401b0380821115612f5457600080fd5b612f608a838b01612c26565b9098509650602089013595506040890135915080821115612f8057600080fd5b50612f8d89828a01612c26565b9094509250506060870135612fa181612ef9565b809150509295509295509295565b6020808252602e908201527f596f7520617265206e6f7420617574686f726973656420746f20696e766f6b6560408201526d103a3434b990333ab731ba34b7b760911b606082015260800190565b634e487b7160e01b600052604160045260246000fd5b600181811c9082168061302757607f821691505b60208210810361304757634e487b7160e01b600052602260045260246000fd5b50919050565b601f82111561309357600081815260208120601f850160051c810160208610156130745750805b601f850160051c820191505b81811015610bb657828155600101613080565b505050565b600019600383901b1c191660019190911b1790565b8135601e198336030181126130c157600080fd5b820180356001600160401b038111156130d957600080fd5b602081360381840113156130ec57600080fd5b613100826130fa8654613013565b8661304d565b6000601f831160018114613130576000841561311e57508482018301355b6131288582613098565b87555061318d565b600086815260209020601f19851690835b82811015613162578785018601358255938501936001909101908501613141565b50858210156131815760001960f88760031b161c198585890101351681555b505060018460011b0186555b50508085013560018501555050505050565b634e487b7160e01b600052601160045260246000fd5b6000600182016131c7576131c761319f565b5060010190565b8082018082111561122b5761122b61319f565b634e487b7160e01b600052603260045260246000fd5b6000816132065761320661319f565b506000190190565b81516001600160401b0381111561322757613227612ffd565b61323b816132358454613013565b8461304d565b602080601f83116001811461326a57600084156132585750858301515b6132628582613098565b865550610bb6565b600085815260208120601f198616915b828110156132995788860151825594840194600190910190840161327a565b50858210156132b75787850151600019600388901b60f8161c191681555b5050505050600190811b01905550565b6020808252602b908201527f496e697469616c697a61626c653a20636f6e7472616374206973206e6f74206960408201526a6e697469616c697a696e6760a81b606082015260800190565b6000808585111561332257600080fd5b8386111561332f57600080fd5b5050820193919092039150565b805160208083015191908110156130475760001960209190910360031b1b16919050565b6060815260006133736060830186612ce2565b60208301949094525060400152919050565b60405160e081016001600160401b03811182821017156133a7576133a7612ffd565b60405290565b604051601f8201601f191681016001600160401b03811182821017156133d5576133d5612ffd565b604052919050565b6000604082840312156133ef57600080fd5b604080519081016001600160401b038111828210171561341157613411612ffd565b8060405250809150825161342481612ef9565b8152602083015161343481612e7b565b6020919091015292915050565b600082601f83011261345257600080fd5b81516001600160401b0381111561346b5761346b612ffd565b61347e601f8201601f19166020016133ad565b81815284602083860101111561349357600080fd5b611705826020830160208701612cbe565b600060208083850312156134b757600080fd5b82516001600160401b03808211156134ce57600080fd5b818501915085601f8301126134e257600080fd5b8151818111156134f4576134f4612ffd565b8060051b6135038582016133ad565b918252838101850191858101908984111561351d57600080fd5b86860192505b83831015612b4e5782518581111561353a57600080fd5b8601610100818c03601f190181131561355257600080fd5b61355a613385565b89830151815260408301518a8201526135768d606085016133dd565b604082015260a0830151606082015260c080840151898111156135995760008081fd5b6135a78f8d83880101613441565b60808401525060e0840151898111156135c05760008081fd5b6135ce8f8d83880101613441565b60a08401525091909201519082015282529186019190860190613523565b8181038181111561122b5761122b61319f565b808202811582820484141761122b5761122b61319f565b60008251613628818460208701612cbe565b9190910192915050565b60006020828403121561364457600080fd5b5051919050565b8681528560208201528460408201526000845161366f816060850160208901612cbe565b8083019050846060820152835161368d816080840160208801612cbe565b0160800198975050505050505050565b60ff828116828216039081111561122b5761122b61319f565b81810360008312801583831316838312821617156136d6576136d661319f565b5092915050565b6000826136fa57634e487b7160e01b600052601260045260246000fd5b600160ff1b8214600019841416156137145761371461319f565b500590565b80820182811260008312801582168215821617156137395761373961319f565b505092915050565b80820260008212600160ff1b8414161561375d5761375d61319f565b818105831482151761122b5761122b61319f56fea264697066735822122035a60facb3a622664f536054ed972279a418daf6368a0547a44735960abccc8864736f6c63430008110033",
  "immutableReferences": {},
  "source": "// SPDX-License-Identifier: CC0-1.0\n\npragma solidity ^0.8.3;\n\n// This contract can parse  a suitably encoded SSL certificate\nimport './DerParser.sol';\nimport './Whitelist.sol';\nimport './X509Interface.sol';\n\ncontract X509 is DERParser, Whitelist, X509Interface {\n    uint256 constant SECONDS_PER_DAY = 24 * 60 * 60;\n    int256 constant OFFSET19700101 = 2440588;\n\n    struct RSAPublicKey {\n        bytes modulus;\n        uint256 exponent;\n    }\n\n    mapping(address => uint256) expires;\n    mapping(bytes32 => RSAPublicKey) trustedPublicKeys;\n    mapping(bytes32 => bool) revokedKeys;\n    mapping(address => bytes32) keysByUser;\n\n    bytes1 usageBitMaskEndUser;\n    bytes1 usageBitMaskIntermediate;\n\n    function initialize() public override(Whitelist) initializer {\n        Whitelist.initialize();\n        usageBitMaskEndUser = 0xC0;\n        usageBitMaskIntermediate = 0x06;\n    }\n\n    function setUsageBitMaskEndUser(bytes1 _usageBitMask) external onlyOwner {\n        usageBitMaskEndUser = _usageBitMask;\n    }\n\n    function setUsageBitMasIntermediate(bytes1 _usageBitMask) external onlyOwner {\n        usageBitMaskIntermediate = _usageBitMask;\n    }\n\n    function setTrustedPublicKey(\n        RSAPublicKey calldata trustedPublicKey,\n        bytes32 authorityKeyIdentifier\n    ) external onlyOwner {\n        trustedPublicKeys[authorityKeyIdentifier] = trustedPublicKey;\n    }\n\n    function getSignature(DecodedTlv[] memory tlvs, uint256 maxId)\n        private\n        pure\n        returns (bytes memory)\n    {\n        DecodedTlv memory signatureTlv = tlvs[maxId - 1];\n        require(signatureTlv.depth == 1, 'X509: Signature tlv depth is incorrect');\n        require(\n            signatureTlv.tag.tagType == 0x03,\n            'X509: Signature tlv should have a tag type of BIT STRING'\n        );\n        bytes memory signature = signatureTlv.value;\n        return signature;\n    }\n\n    function getMessage(DecodedTlv[] memory tlvs) private pure returns (bytes memory) {\n        DecodedTlv memory messageTlv = tlvs[1];\n        require(messageTlv.depth == 1, 'X509: Message tlv depth is incorrect');\n        require(\n            messageTlv.tag.tagType == 0x10,\n            'X509: Message tlv should have a tag type of BIT STRING'\n        );\n        bytes memory message = messageTlv.octets;\n        return message;\n    }\n\n    function modExp(\n        bytes memory b,\n        uint256 e,\n        bytes memory m\n    ) internal view returns (bytes memory) {\n        bool success;\n        bytes memory result;\n        (success, result) = (\n            address(5).staticcall(abi.encodePacked(b.length, uint256(32), m.length, b, e, m))\n        );\n        require(success, 'X509: modExp error');\n        return result;\n    }\n\n    /*\n    Validate the decrypted signature and returns the message hash\n    */\n    function validateSignatureAndExtractMessageHash(bytes memory decrypt, uint256 tlvLength)\n        private\n        view\n        returns (bytes memory)\n    {\n        DecodedTlv[] memory tlvs = new DecodedTlv[](tlvLength);\n        require(\n            decrypt[0] == 0x00 && decrypt[1] == 0x00,\n            'X509: Decrypt does not have a leading zero octets'\n        );\n        require(\n            decrypt[2] == 0x00 || decrypt[2] == 0x01,\n            'X509: Block Type is not a private key operation'\n        );\n        // loop through the padding\n        uint256 i;\n        for (i = 3; i < decrypt.length; i++) {\n            if (decrypt[i] != 0xff) break;\n        }\n        i++;\n        tlvs = this.parseDER(decrypt, i, tlvLength);\n        require(\n            tlvs[4].depth == 1 && tlvs[4].tag.tagType == 0x04,\n            'X509: Incorrect tag or position for decrypted hash data'\n        );\n        bytes memory messageHashFromSignature = tlvs[4].value;\n\n        return messageHashFromSignature;\n    }\n\n    // note: this function is from an MIT licensed library, with appreciation to\n    // https://github.com/bokkypoobah/BokkyPooBahsDateTimeLibrary/blob/v1.01/contracts/BokkyPooBahsDateTimeLibrary.sol\n    // minor changes made\n    function timestampFromDate(bytes memory utcTime) private pure returns (uint256 _seconds) {\n        uint256 year = uint256(uint8(utcTime[0]) - 48) *\n            10 +\n            uint256(uint8(utcTime[1]) - 48) +\n            2000;\n        uint256 month = uint256(uint8(utcTime[2]) - 48) * 10 + uint256(uint8(utcTime[3]) - 48);\n        uint256 day = uint256(uint8(utcTime[4]) - 48) * 10 + uint256(uint8(utcTime[5]) - 48);\n        require(year >= 1970);\n        int256 _year = int256(year);\n        int256 _month = int256(month);\n        int256 _day = int256(day);\n\n        int256 __days = _day -\n            32075 +\n            (1461 * (_year + 4800 + (_month - 14) / 12)) /\n            4 +\n            (367 * (_month - 2 - ((_month - 14) / 12) * 12)) /\n            12 -\n            (3 * ((_year + 4900 + (_month - 14) / 12) / 100)) /\n            4 -\n            OFFSET19700101;\n\n        _seconds = uint256(__days) * SECONDS_PER_DAY;\n    }\n\n    // this function finds and checks the Not Before and Not After tlvs\n    function checkDates(DecodedTlv[] memory tlvs) private view returns (uint256) {\n        // The Not Before and Not After dates are the third SEQUENCE at depth 2\n        uint256 i;\n        uint256 j;\n        for (i = 0; i < tlvs.length; i++) {\n            if (tlvs[i].tag.tagType == 0x10 && tlvs[i].depth == 2) j++;\n            if (j == 3) break;\n        }\n        require(tlvs[i + 1].tag.tagType == 0x17, 'X509: First tag was not in fact a UTC time');\n        require(tlvs[i + 2].tag.tagType == 0x17, 'X509: Second tag was not in fact a UTC time');\n        require(\n            block.timestamp > timestampFromDate(tlvs[i + 1].value),\n            'X509: It is too early to use this certificate'\n        );\n        uint256 expiry = timestampFromDate(tlvs[i + 2].value);\n        require(block.timestamp < expiry, 'X509: This certificate has expired');\n        return expiry;\n    }\n\n    function extractPublicKey(DecodedTlv[] memory tlvs) private view returns (RSAPublicKey memory) {\n        // The public key data begins at the 5th SEQUENCE at depth 2\n        uint256 i;\n        uint256 j;\n        for (i = 0; i < tlvs.length; i++) {\n            if (tlvs[i].tag.tagType == 0x10 && tlvs[i].depth == 2) j++;\n            if (j == 5) break;\n        }\n        // check we have RSA encryption. We use the keccak hash to check equality of the byte arrays\n        require(\n            keccak256(tlvs[i + 2].value) ==\n                keccak256(abi.encodePacked(bytes9(0x2a864886f70d010101))),\n            'X509: Only RSA ecryption keys are supported, the OID indicates a different key type'\n        );\n        bytes memory keyBytes = tlvs[i + 4].value;\n        // extract the public key tlvs\n        DecodedTlv[] memory keyTlvs = new DecodedTlv[](10);\n        keyTlvs = this.parseDER(keyBytes, 1, 10);\n        bytes memory modulus = keyTlvs[1].value;\n        uint256 exponent = uint256(\n            bytes32(keyTlvs[2].value) >> ((32 - keyTlvs[2].value.length) * 8)\n        );\n        return RSAPublicKey(modulus, exponent);\n    }\n\n    function extractSubjectKeyIdentifier(DecodedTlv[] memory tlvs) private view returns (bytes32) {\n        // // The SKID begins after the Suject Key Identifier OID at depth 5\n        uint256 i;\n        for (i = 0; i < tlvs.length; i++) {\n            if (tlvs[i].depth != 5) continue;\n            if (\n                bytes32(tlvs[i].value) ==\n                bytes32((0x551d0e0000000000000000000000000000000000000000000000000000000000))\n            ) break; // OID for the SKID\n        }\n        require(i < tlvs.length, 'X509: OID for Subject Key Identifier not found');\n        bytes memory skidBytes = tlvs[i + 1].value;\n        require(skidBytes.length < 33, 'X509: SKID is too long to encode as a bytes 32');\n        DecodedTlv[] memory skidTlvs = new DecodedTlv[](1);\n        skidTlvs = this.parseDER(skidBytes, 0, 2);\n        bytes32 skid = bytes32(skidTlvs[0].value) >> ((32 - skidTlvs[0].length) * 8);\n        return skid;\n    }\n\n    function extractAuthorityKeyIdentifier(DecodedTlv[] memory tlvs)\n        private\n        view\n        returns (bytes32)\n    {\n        // // The AKID begins after the Authority Key Identifier OID at depth 5\n        uint256 i;\n        for (i = 0; i < tlvs.length; i++) {\n            if (tlvs[i].depth != 5) continue;\n            if (\n                bytes32(tlvs[i].value) ==\n                bytes32((0x551d230000000000000000000000000000000000000000000000000000000000))\n            ) break; // OID for the AKID\n        }\n        require(i < tlvs.length, 'X509: OID for Authority Key Identifier not found');\n        bytes memory akidBytes = tlvs[i + 1].value;\n        require(akidBytes.length < 33, 'X509: AKID is too long to encode as a bytes 32');\n        DecodedTlv[] memory akidTlvs = new DecodedTlv[](3);\n        akidTlvs = this.parseDER(akidBytes, 0, 2);\n        bytes32 akid = bytes32(akidTlvs[1].value) >> ((32 - akidTlvs[1].value.length) * 8);\n        return akid;\n    }\n\n    function checkKeyUsage(DecodedTlv[] memory tlvs, bytes1 _usageBitMask) private view {\n        // // The key usage sequence begins after the Key Usage OID at depth 5\n        uint256 i;\n        for (i = 0; i < tlvs.length; i++) {\n            if (tlvs[i].depth != 5) continue;\n            if (\n                bytes32(tlvs[i].value) ==\n                bytes32((0x551d0f0000000000000000000000000000000000000000000000000000000000))\n            ) break; // OID for the AKID\n        }\n        require(i < tlvs.length, 'X509: OID for Key Usage not found');\n        bytes memory usageBytes = tlvs[i + 1].value;\n        DecodedTlv[] memory usageTlvs = new DecodedTlv[](1);\n        usageTlvs = this.parseDER(usageBytes, 0, 1);\n        require(usageTlvs[0].length == 2, 'X509: Key usage bytes must be of 2 bytes');\n        // decoding of flags encoded as DER is strange. The first byte tells us how many bits to ignore in the second byte\n        bytes1 usageFlags = (usageTlvs[0].value[1] >> uint8(usageTlvs[0].value[0])) <<\n            uint8(usageTlvs[0].value[0]);\n        // this is little endian and so must our mask be therefore\n        require(\n            (usageFlags & _usageBitMask) == _usageBitMask,\n            'X509: Key usage is not as required'\n        );\n    }\n\n    // function to check the signature over a message\n    function checkSignature(\n        bytes memory signature,\n        bytes memory message,\n        RSAPublicKey memory publicKey\n    ) private view {\n        bytes memory signatureDecrypt = modExp(signature, publicKey.exponent, publicKey.modulus);\n        bytes memory messageHashFromSignature = validateSignatureAndExtractMessageHash(\n            signatureDecrypt,\n            5\n        );\n        // we use the keccak hash here as a low cost way to check equality of bytes data\n        require(\n            keccak256(messageHashFromSignature) == keccak256(abi.encode(sha256(message))),\n            'X509: Signature is invalid'\n        );\n    }\n\n    /**\n    This function is the main one in the module. It calls all of the subsidiary functions necessary to validate an RSA cert\n    If the validation is successful (and addAddress is true), it will add the sender to the whitelist contract, provided they\n    are able to sign their ethereum address with the private key corresponding to the certificate.\n     */\n    function validateCertificate(\n        bytes calldata certificate,\n        uint256 tlvLength,\n        bytes calldata addressSignature,\n        bool addAddress\n    ) external {\n        DecodedTlv[] memory tlvs = new DecodedTlv[](tlvLength);\n        // decode the DER encoded binary certificate data into an array of Tag-Length-Value structs\n        tlvs = walkDerTree(certificate, 0, tlvLength);\n        // extract the data from the certificate necessary for checking the signature and (hopefully) find the Authority public key in\n        // the smart contract's list of trusted keys\n        bytes32 authorityKeyIdentifier = extractAuthorityKeyIdentifier(tlvs);\n        bytes memory signature = getSignature(tlvs, tlvLength);\n        bytes memory message = getMessage(tlvs);\n        RSAPublicKey memory publicKey = trustedPublicKeys[authorityKeyIdentifier];\n        // validate the cert's signature and check that the cert is in date, record the expiry date against msg.sender\n        checkSignature(signature, message, publicKey);\n        uint256 expiry = checkDates(tlvs);\n        // The certificate is valid and linked to a root we trust, so now we trust the certificate's public key too. Let's add it to our list of trusted keys\n        RSAPublicKey memory certificatePublicKey = extractPublicKey(tlvs);\n        bytes32 subjectKeyIdentifier = extractSubjectKeyIdentifier(tlvs);\n        require(\n            !revokedKeys[subjectKeyIdentifier],\n            'X509: The subject key of this certificate has been revoked'\n        );\n        require(\n            !revokedKeys[authorityKeyIdentifier],\n            'X509: The authority key of this certificates has been revoked'\n        );\n        // finally, before we can whitelist msg.sender, we should check that they are indeed the owner of the cert (certs are public, after all)\n        // we do that by getting them to sign msg.sender with the private key corresponding to their certificate public key\n        if (!addAddress) {\n            // if we're not adding an address, check that this certificate can sign certificates (because it must be an intermediate one)\n            checkKeyUsage(tlvs, usageBitMaskIntermediate);\n            // if yes, we'll trust it\n            trustedPublicKeys[subjectKeyIdentifier] = certificatePublicKey;\n            return; // we may want to add an intermediate cert to the contract but not add an address.\n        }\n        // as we are trying to add an address, this certificate should be an end user certificate, created for digital signature\n        // and non-repudiation (or possibly other things - we can change this).\n        checkKeyUsage(tlvs, usageBitMaskEndUser);\n        trustedPublicKeys[subjectKeyIdentifier] = certificatePublicKey;\n        checkSignature(\n            addressSignature,\n            abi.encodePacked(uint160(msg.sender)),\n            certificatePublicKey\n        );\n        expires[msg.sender] = expiry;\n        keysByUser[msg.sender] = subjectKeyIdentifier;\n        addUserToWhitelist(msg.sender); // all checks have passed, so they are free to trade for now.\n    }\n\n    // performs an ongoing X509 check (is the user still in the whitelist? Has the public key been revoked? Is the cert in date?)\n    // We could also remove the user in this function, but that would burn more gas.\n    function x509Check(address user) external view returns (bool) {\n        if (\n            !whitelisting ||\n            (!revokedKeys[keysByUser[user]] &&\n                expires[user] > block.timestamp &&\n                isWhitelisted(user))\n        ) return true;\n        return false;\n    }\n\n    // allows a key to be revoked. this cannot be undone!\n    function revokeKey(bytes32 subjectKeyIdentifier) external {\n        require(\n            keysByUser[msg.sender] == subjectKeyIdentifier || msg.sender == owner(),\n            'X509: You are not the owner of this key'\n        );\n        revokedKeys[subjectKeyIdentifier] = true;\n        delete trustedPublicKeys[subjectKeyIdentifier];\n    }\n}\n",
  "sourcePath": "/app/contracts/X509.sol",
  "compiler": {
    "name": "solc",
    "version": "0.8.17+commit.8df45f5f.Emscripten.clang"
  },
  "schemaVersion": "3.4.10",
  "updatedAt": "2022-12-08T15:25:52.332Z",
  "networkType": "ethereum",
  "devdoc": {
    "kind": "dev",
    "methods": {
      "initialize()": {
        "details": "The constructor sets the original owner of the contract to the sender account."
      },
      "owner()": {
        "details": "Tells the address of the owner",
        "returns": {
          "_0": "the address of the owner"
        }
      },
      "transferOwnership(address)": {
        "details": "Allows the current owner to transfer control of the contract to a newOwner.",
        "params": {
          "newOwner": "The address to transfer ownership to."
        }
      }
    },
    "version": 1
  },
  "userdoc": {
    "kind": "user",
    "methods": {
      "validateCertificate(bytes,uint256,bytes,bool)": {
        "notice": "This function is the main one in the module. It calls all of the subsidiary functions necessary to validate an RSA cert If the validation is successful (and addAddress is true), it will add the sender to the whitelist contract, provided they are able to sign their ethereum address with the private key corresponding to the certificate."
      }
    },
    "version": 1
  }
}