{
  "_format": "hh-sol-artifact-1",
  "contractName": "Challenges",
  "sourceName": "contracts/Challenges.sol",
  "abi": [
    {
      "anonymous": false,
      "inputs": [],
      "name": "BlockProposed",
      "type": "event"
    },
    {
      "anonymous": false,
      "inputs": [
        {
          "indexed": false,
          "internalType": "bytes32",
          "name": "commitHash",
          "type": "bytes32"
        },
        {
          "indexed": false,
          "internalType": "address",
          "name": "sender",
          "type": "address"
        }
      ],
      "name": "CommittedToChallenge",
      "type": "event"
    },
    {
      "anonymous": false,
      "inputs": [
        {
          "indexed": false,
          "internalType": "uint8",
          "name": "version",
          "type": "uint8"
        }
      ],
      "name": "Initialized",
      "type": "event"
    },
    {
      "anonymous": false,
      "inputs": [
        {
          "indexed": false,
          "internalType": "bytes32",
          "name": "withdrawTransactionHash",
          "type": "bytes32"
        },
        {
          "indexed": false,
          "internalType": "address",
          "name": "paidBy",
          "type": "address"
        },
        {
          "indexed": false,
          "internalType": "uint256",
          "name": "amount",
          "type": "uint256"
        }
      ],
      "name": "InstantWithdrawalRequested",
      "type": "event"
    },
    {
      "anonymous": false,
      "inputs": [
        {
          "indexed": false,
          "internalType": "address",
          "name": "addr",
          "type": "address"
        }
      ],
      "name": "NewBootChallengerSet",
      "type": "event"
    },
    {
      "anonymous": false,
      "inputs": [
        {
          "indexed": false,
          "internalType": "address",
          "name": "addr",
          "type": "address"
        }
      ],
      "name": "NewBootProposerSet",
      "type": "event"
    },
    {
      "anonymous": false,
      "inputs": [
        {
          "indexed": false,
          "internalType": "address",
          "name": "proposer",
          "type": "address"
        }
      ],
      "name": "NewCurrentProposer",
      "type": "event"
    },
    {
      "anonymous": false,
      "inputs": [
        {
          "indexed": false,
          "internalType": "uint256",
          "name": "leafIndex",
          "type": "uint256"
        },
        {
          "indexed": false,
          "internalType": "bytes32",
          "name": "leafValue",
          "type": "bytes32"
        },
        {
          "indexed": false,
          "internalType": "bytes32",
          "name": "root",
          "type": "bytes32"
        }
      ],
      "name": "NewLeaf",
      "type": "event"
    },
    {
      "anonymous": false,
      "inputs": [
        {
          "indexed": false,
          "internalType": "uint256",
          "name": "minLeafIndex",
          "type": "uint256"
        },
        {
          "indexed": false,
          "internalType": "bytes32[]",
          "name": "leafValues",
          "type": "bytes32[]"
        },
        {
          "indexed": false,
          "internalType": "bytes32",
          "name": "root",
          "type": "bytes32"
        }
      ],
      "name": "NewLeaves",
      "type": "event"
    },
    {
      "anonymous": false,
      "inputs": [
        {
          "indexed": false,
          "internalType": "address",
          "name": "previousOwner",
          "type": "address"
        },
        {
          "indexed": false,
          "internalType": "address",
          "name": "newOwner",
          "type": "address"
        }
      ],
      "name": "OwnershipTransferred",
      "type": "event"
    },
    {
      "anonymous": false,
      "inputs": [
        {
          "indexed": false,
          "internalType": "uint256",
          "name": "blockNumberL2",
          "type": "uint256"
        }
      ],
      "name": "Rollback",
      "type": "event"
    },
    {
      "anonymous": false,
      "inputs": [
        {
          "indexed": false,
          "internalType": "address",
          "name": "ercAddress",
          "type": "address"
        },
        {
          "indexed": false,
          "internalType": "uint256",
          "name": "amount",
          "type": "uint256"
        }
      ],
      "name": "ShieldBalanceTransferred",
      "type": "event"
    },
    {
      "anonymous": false,
      "inputs": [],
      "name": "TransactionSubmitted",
      "type": "event"
    },
    {
      "anonymous": false,
      "inputs": [
        {
          "indexed": false,
          "internalType": "enum Structures.TransactionTypes",
          "name": "txType",
          "type": "uint8"
        }
      ],
      "name": "VkChanged",
      "type": "event"
    },
    {
      "inputs": [],
      "name": "_owner",
      "outputs": [
        {
          "internalType": "address",
          "name": "",
          "type": "address"
        }
      ],
      "stateMutability": "view",
      "type": "function"
    },
    {
      "inputs": [
        {
          "components": [
            {
              "internalType": "uint48",
              "name": "leafCount",
              "type": "uint48"
            },
            {
              "internalType": "address",
              "name": "proposer",
              "type": "address"
            },
            {
              "internalType": "bytes32",
              "name": "root",
              "type": "bytes32"
            },
            {
              "internalType": "uint256",
              "name": "blockNumberL2",
              "type": "uint256"
            },
            {
              "internalType": "bytes32",
              "name": "previousBlockHash",
              "type": "bytes32"
            },
            {
              "internalType": "bytes32",
              "name": "transactionHashesRoot",
              "type": "bytes32"
            }
          ],
          "internalType": "struct Structures.Block",
          "name": "block1",
          "type": "tuple"
        },
        {
          "components": [
            {
              "internalType": "uint48",
              "name": "leafCount",
              "type": "uint48"
            },
            {
              "internalType": "address",
              "name": "proposer",
              "type": "address"
            },
            {
              "internalType": "bytes32",
              "name": "root",
              "type": "bytes32"
            },
            {
              "internalType": "uint256",
              "name": "blockNumberL2",
              "type": "uint256"
            },
            {
              "internalType": "bytes32",
              "name": "previousBlockHash",
              "type": "bytes32"
            },
            {
              "internalType": "bytes32",
              "name": "transactionHashesRoot",
              "type": "bytes32"
            }
          ],
          "internalType": "struct Structures.Block",
          "name": "block2",
          "type": "tuple"
        },
        {
          "components": [
            {
              "internalType": "uint112",
              "name": "value",
              "type": "uint112"
            },
            {
              "internalType": "uint112",
              "name": "fee",
              "type": "uint112"
            },
            {
              "internalType": "enum Structures.TransactionTypes",
              "name": "transactionType",
              "type": "uint8"
            },
            {
              "internalType": "enum Structures.TokenType",
              "name": "tokenType",
              "type": "uint8"
            },
            {
              "internalType": "uint64[4]",
              "name": "historicRootBlockNumberL2",
              "type": "uint64[4]"
            },
            {
              "internalType": "bytes32",
              "name": "tokenId",
              "type": "bytes32"
            },
            {
              "internalType": "bytes32",
              "name": "ercAddress",
              "type": "bytes32"
            },
            {
              "internalType": "bytes32",
              "name": "recipientAddress",
              "type": "bytes32"
            },
            {
              "internalType": "bytes32[3]",
              "name": "commitments",
              "type": "bytes32[3]"
            },
            {
              "internalType": "bytes32[4]",
              "name": "nullifiers",
              "type": "bytes32[4]"
            },
            {
              "internalType": "bytes32[2]",
              "name": "compressedSecrets",
              "type": "bytes32[2]"
            },
            {
              "internalType": "uint256[4]",
              "name": "proof",
              "type": "uint256[4]"
            }
          ],
          "internalType": "struct Structures.Transaction[]",
          "name": "transactions1",
          "type": "tuple[]"
        },
        {
          "components": [
            {
              "internalType": "uint112",
              "name": "value",
              "type": "uint112"
            },
            {
              "internalType": "uint112",
              "name": "fee",
              "type": "uint112"
            },
            {
              "internalType": "enum Structures.TransactionTypes",
              "name": "transactionType",
              "type": "uint8"
            },
            {
              "internalType": "enum Structures.TokenType",
              "name": "tokenType",
              "type": "uint8"
            },
            {
              "internalType": "uint64[4]",
              "name": "historicRootBlockNumberL2",
              "type": "uint64[4]"
            },
            {
              "internalType": "bytes32",
              "name": "tokenId",
              "type": "bytes32"
            },
            {
              "internalType": "bytes32",
              "name": "ercAddress",
              "type": "bytes32"
            },
            {
              "internalType": "bytes32",
              "name": "recipientAddress",
              "type": "bytes32"
            },
            {
              "internalType": "bytes32[3]",
              "name": "commitments",
              "type": "bytes32[3]"
            },
            {
              "internalType": "bytes32[4]",
              "name": "nullifiers",
              "type": "bytes32[4]"
            },
            {
              "internalType": "bytes32[2]",
              "name": "compressedSecrets",
              "type": "bytes32[2]"
            },
            {
              "internalType": "uint256[4]",
              "name": "proof",
              "type": "uint256[4]"
            }
          ],
          "internalType": "struct Structures.Transaction[]",
          "name": "transactions2",
          "type": "tuple[]"
        },
        {
          "internalType": "uint256",
          "name": "transaction1Index",
          "type": "uint256"
        },
        {
          "internalType": "uint256",
          "name": "transaction2Index",
          "type": "uint256"
        },
        {
          "internalType": "uint256",
          "name": "commitment1Index",
          "type": "uint256"
        },
        {
          "internalType": "uint256",
          "name": "commitment2Index",
          "type": "uint256"
        },
        {
          "internalType": "bytes32",
          "name": "salt",
          "type": "bytes32"
        }
      ],
      "name": "challengeCommitment",
      "outputs": [],
      "stateMutability": "nonpayable",
      "type": "function"
    },
    {
      "inputs": [
        {
          "components": [
            {
              "internalType": "uint48",
              "name": "leafCount",
              "type": "uint48"
            },
            {
              "internalType": "address",
              "name": "proposer",
              "type": "address"
            },
            {
              "internalType": "bytes32",
              "name": "root",
              "type": "bytes32"
            },
            {
              "internalType": "uint256",
              "name": "blockNumberL2",
              "type": "uint256"
            },
            {
              "internalType": "bytes32",
              "name": "previousBlockHash",
              "type": "bytes32"
            },
            {
              "internalType": "bytes32",
              "name": "transactionHashesRoot",
              "type": "bytes32"
            }
          ],
          "internalType": "struct Structures.Block",
          "name": "blockL2",
          "type": "tuple"
        },
        {
          "components": [
            {
              "internalType": "uint112",
              "name": "value",
              "type": "uint112"
            },
            {
              "internalType": "uint112",
              "name": "fee",
              "type": "uint112"
            },
            {
              "internalType": "enum Structures.TransactionTypes",
              "name": "transactionType",
              "type": "uint8"
            },
            {
              "internalType": "enum Structures.TokenType",
              "name": "tokenType",
              "type": "uint8"
            },
            {
              "internalType": "uint64[4]",
              "name": "historicRootBlockNumberL2",
              "type": "uint64[4]"
            },
            {
              "internalType": "bytes32",
              "name": "tokenId",
              "type": "bytes32"
            },
            {
              "internalType": "bytes32",
              "name": "ercAddress",
              "type": "bytes32"
            },
            {
              "internalType": "bytes32",
              "name": "recipientAddress",
              "type": "bytes32"
            },
            {
              "internalType": "bytes32[3]",
              "name": "commitments",
              "type": "bytes32[3]"
            },
            {
              "internalType": "bytes32[4]",
              "name": "nullifiers",
              "type": "bytes32[4]"
            },
            {
              "internalType": "bytes32[2]",
              "name": "compressedSecrets",
              "type": "bytes32[2]"
            },
            {
              "internalType": "uint256[4]",
              "name": "proof",
              "type": "uint256[4]"
            }
          ],
          "internalType": "struct Structures.Transaction[]",
          "name": "transactions",
          "type": "tuple[]"
        },
        {
          "internalType": "uint256",
          "name": "transactionIndex",
          "type": "uint256"
        }
      ],
      "name": "challengeHistoricRoot",
      "outputs": [],
      "stateMutability": "nonpayable",
      "type": "function"
    },
    {
      "inputs": [
        {
          "components": [
            {
              "internalType": "uint48",
              "name": "leafCount",
              "type": "uint48"
            },
            {
              "internalType": "address",
              "name": "proposer",
              "type": "address"
            },
            {
              "internalType": "bytes32",
              "name": "root",
              "type": "bytes32"
            },
            {
              "internalType": "uint256",
              "name": "blockNumberL2",
              "type": "uint256"
            },
            {
              "internalType": "bytes32",
              "name": "previousBlockHash",
              "type": "bytes32"
            },
            {
              "internalType": "bytes32",
              "name": "transactionHashesRoot",
              "type": "bytes32"
            }
          ],
          "internalType": "struct Structures.Block",
          "name": "priorBlockL2",
          "type": "tuple"
        },
        {
          "components": [
            {
              "internalType": "uint112",
              "name": "value",
              "type": "uint112"
            },
            {
              "internalType": "uint112",
              "name": "fee",
              "type": "uint112"
            },
            {
              "internalType": "enum Structures.TransactionTypes",
              "name": "transactionType",
              "type": "uint8"
            },
            {
              "internalType": "enum Structures.TokenType",
              "name": "tokenType",
              "type": "uint8"
            },
            {
              "internalType": "uint64[4]",
              "name": "historicRootBlockNumberL2",
              "type": "uint64[4]"
            },
            {
              "internalType": "bytes32",
              "name": "tokenId",
              "type": "bytes32"
            },
            {
              "internalType": "bytes32",
              "name": "ercAddress",
              "type": "bytes32"
            },
            {
              "internalType": "bytes32",
              "name": "recipientAddress",
              "type": "bytes32"
            },
            {
              "internalType": "bytes32[3]",
              "name": "commitments",
              "type": "bytes32[3]"
            },
            {
              "internalType": "bytes32[4]",
              "name": "nullifiers",
              "type": "bytes32[4]"
            },
            {
              "internalType": "bytes32[2]",
              "name": "compressedSecrets",
              "type": "bytes32[2]"
            },
            {
              "internalType": "uint256[4]",
              "name": "proof",
              "type": "uint256[4]"
            }
          ],
          "internalType": "struct Structures.Transaction[]",
          "name": "priorBlockTransactions",
          "type": "tuple[]"
        },
        {
          "components": [
            {
              "internalType": "uint48",
              "name": "leafCount",
              "type": "uint48"
            },
            {
              "internalType": "address",
              "name": "proposer",
              "type": "address"
            },
            {
              "internalType": "bytes32",
              "name": "root",
              "type": "bytes32"
            },
            {
              "internalType": "uint256",
              "name": "blockNumberL2",
              "type": "uint256"
            },
            {
              "internalType": "bytes32",
              "name": "previousBlockHash",
              "type": "bytes32"
            },
            {
              "internalType": "bytes32",
              "name": "transactionHashesRoot",
              "type": "bytes32"
            }
          ],
          "internalType": "struct Structures.Block",
          "name": "blockL2",
          "type": "tuple"
        },
        {
          "components": [
            {
              "internalType": "uint112",
              "name": "value",
              "type": "uint112"
            },
            {
              "internalType": "uint112",
              "name": "fee",
              "type": "uint112"
            },
            {
              "internalType": "enum Structures.TransactionTypes",
              "name": "transactionType",
              "type": "uint8"
            },
            {
              "internalType": "enum Structures.TokenType",
              "name": "tokenType",
              "type": "uint8"
            },
            {
              "internalType": "uint64[4]",
              "name": "historicRootBlockNumberL2",
              "type": "uint64[4]"
            },
            {
              "internalType": "bytes32",
              "name": "tokenId",
              "type": "bytes32"
            },
            {
              "internalType": "bytes32",
              "name": "ercAddress",
              "type": "bytes32"
            },
            {
              "internalType": "bytes32",
              "name": "recipientAddress",
              "type": "bytes32"
            },
            {
              "internalType": "bytes32[3]",
              "name": "commitments",
              "type": "bytes32[3]"
            },
            {
              "internalType": "bytes32[4]",
              "name": "nullifiers",
              "type": "bytes32[4]"
            },
            {
              "internalType": "bytes32[2]",
              "name": "compressedSecrets",
              "type": "bytes32[2]"
            },
            {
              "internalType": "uint256[4]",
              "name": "proof",
              "type": "uint256[4]"
            }
          ],
          "internalType": "struct Structures.Transaction[]",
          "name": "transactions",
          "type": "tuple[]"
        },
        {
          "internalType": "bytes32",
          "name": "salt",
          "type": "bytes32"
        }
      ],
      "name": "challengeLeafCountCorrect",
      "outputs": [],
      "stateMutability": "nonpayable",
      "type": "function"
    },
    {
      "inputs": [
        {
          "components": [
            {
              "internalType": "uint48",
              "name": "leafCount",
              "type": "uint48"
            },
            {
              "internalType": "address",
              "name": "proposer",
              "type": "address"
            },
            {
              "internalType": "bytes32",
              "name": "root",
              "type": "bytes32"
            },
            {
              "internalType": "uint256",
              "name": "blockNumberL2",
              "type": "uint256"
            },
            {
              "internalType": "bytes32",
              "name": "previousBlockHash",
              "type": "bytes32"
            },
            {
              "internalType": "bytes32",
              "name": "transactionHashesRoot",
              "type": "bytes32"
            }
          ],
          "internalType": "struct Structures.Block",
          "name": "priorBlockL2",
          "type": "tuple"
        },
        {
          "components": [
            {
              "internalType": "uint112",
              "name": "value",
              "type": "uint112"
            },
            {
              "internalType": "uint112",
              "name": "fee",
              "type": "uint112"
            },
            {
              "internalType": "enum Structures.TransactionTypes",
              "name": "transactionType",
              "type": "uint8"
            },
            {
              "internalType": "enum Structures.TokenType",
              "name": "tokenType",
              "type": "uint8"
            },
            {
              "internalType": "uint64[4]",
              "name": "historicRootBlockNumberL2",
              "type": "uint64[4]"
            },
            {
              "internalType": "bytes32",
              "name": "tokenId",
              "type": "bytes32"
            },
            {
              "internalType": "bytes32",
              "name": "ercAddress",
              "type": "bytes32"
            },
            {
              "internalType": "bytes32",
              "name": "recipientAddress",
              "type": "bytes32"
            },
            {
              "internalType": "bytes32[3]",
              "name": "commitments",
              "type": "bytes32[3]"
            },
            {
              "internalType": "bytes32[4]",
              "name": "nullifiers",
              "type": "bytes32[4]"
            },
            {
              "internalType": "bytes32[2]",
              "name": "compressedSecrets",
              "type": "bytes32[2]"
            },
            {
              "internalType": "uint256[4]",
              "name": "proof",
              "type": "uint256[4]"
            }
          ],
          "internalType": "struct Structures.Transaction[]",
          "name": "priorBlockTransactions",
          "type": "tuple[]"
        },
        {
          "internalType": "bytes32[33]",
          "name": "frontierPriorBlock",
          "type": "bytes32[33]"
        },
        {
          "components": [
            {
              "internalType": "uint48",
              "name": "leafCount",
              "type": "uint48"
            },
            {
              "internalType": "address",
              "name": "proposer",
              "type": "address"
            },
            {
              "internalType": "bytes32",
              "name": "root",
              "type": "bytes32"
            },
            {
              "internalType": "uint256",
              "name": "blockNumberL2",
              "type": "uint256"
            },
            {
              "internalType": "bytes32",
              "name": "previousBlockHash",
              "type": "bytes32"
            },
            {
              "internalType": "bytes32",
              "name": "transactionHashesRoot",
              "type": "bytes32"
            }
          ],
          "internalType": "struct Structures.Block",
          "name": "blockL2",
          "type": "tuple"
        },
        {
          "components": [
            {
              "internalType": "uint112",
              "name": "value",
              "type": "uint112"
            },
            {
              "internalType": "uint112",
              "name": "fee",
              "type": "uint112"
            },
            {
              "internalType": "enum Structures.TransactionTypes",
              "name": "transactionType",
              "type": "uint8"
            },
            {
              "internalType": "enum Structures.TokenType",
              "name": "tokenType",
              "type": "uint8"
            },
            {
              "internalType": "uint64[4]",
              "name": "historicRootBlockNumberL2",
              "type": "uint64[4]"
            },
            {
              "internalType": "bytes32",
              "name": "tokenId",
              "type": "bytes32"
            },
            {
              "internalType": "bytes32",
              "name": "ercAddress",
              "type": "bytes32"
            },
            {
              "internalType": "bytes32",
              "name": "recipientAddress",
              "type": "bytes32"
            },
            {
              "internalType": "bytes32[3]",
              "name": "commitments",
              "type": "bytes32[3]"
            },
            {
              "internalType": "bytes32[4]",
              "name": "nullifiers",
              "type": "bytes32[4]"
            },
            {
              "internalType": "bytes32[2]",
              "name": "compressedSecrets",
              "type": "bytes32[2]"
            },
            {
              "internalType": "uint256[4]",
              "name": "proof",
              "type": "uint256[4]"
            }
          ],
          "internalType": "struct Structures.Transaction[]",
          "name": "transactions",
          "type": "tuple[]"
        },
        {
          "internalType": "bytes32",
          "name": "salt",
          "type": "bytes32"
        }
      ],
      "name": "challengeNewRootCorrect",
      "outputs": [],
      "stateMutability": "nonpayable",
      "type": "function"
    },
    {
      "inputs": [
        {
          "components": [
            {
              "internalType": "uint48",
              "name": "leafCount",
              "type": "uint48"
            },
            {
              "internalType": "address",
              "name": "proposer",
              "type": "address"
            },
            {
              "internalType": "bytes32",
              "name": "root",
              "type": "bytes32"
            },
            {
              "internalType": "uint256",
              "name": "blockNumberL2",
              "type": "uint256"
            },
            {
              "internalType": "bytes32",
              "name": "previousBlockHash",
              "type": "bytes32"
            },
            {
              "internalType": "bytes32",
              "name": "transactionHashesRoot",
              "type": "bytes32"
            }
          ],
          "internalType": "struct Structures.Block",
          "name": "block1",
          "type": "tuple"
        },
        {
          "components": [
            {
              "internalType": "uint48",
              "name": "leafCount",
              "type": "uint48"
            },
            {
              "internalType": "address",
              "name": "proposer",
              "type": "address"
            },
            {
              "internalType": "bytes32",
              "name": "root",
              "type": "bytes32"
            },
            {
              "internalType": "uint256",
              "name": "blockNumberL2",
              "type": "uint256"
            },
            {
              "internalType": "bytes32",
              "name": "previousBlockHash",
              "type": "bytes32"
            },
            {
              "internalType": "bytes32",
              "name": "transactionHashesRoot",
              "type": "bytes32"
            }
          ],
          "internalType": "struct Structures.Block",
          "name": "block2",
          "type": "tuple"
        },
        {
          "components": [
            {
              "internalType": "uint112",
              "name": "value",
              "type": "uint112"
            },
            {
              "internalType": "uint112",
              "name": "fee",
              "type": "uint112"
            },
            {
              "internalType": "enum Structures.TransactionTypes",
              "name": "transactionType",
              "type": "uint8"
            },
            {
              "internalType": "enum Structures.TokenType",
              "name": "tokenType",
              "type": "uint8"
            },
            {
              "internalType": "uint64[4]",
              "name": "historicRootBlockNumberL2",
              "type": "uint64[4]"
            },
            {
              "internalType": "bytes32",
              "name": "tokenId",
              "type": "bytes32"
            },
            {
              "internalType": "bytes32",
              "name": "ercAddress",
              "type": "bytes32"
            },
            {
              "internalType": "bytes32",
              "name": "recipientAddress",
              "type": "bytes32"
            },
            {
              "internalType": "bytes32[3]",
              "name": "commitments",
              "type": "bytes32[3]"
            },
            {
              "internalType": "bytes32[4]",
              "name": "nullifiers",
              "type": "bytes32[4]"
            },
            {
              "internalType": "bytes32[2]",
              "name": "compressedSecrets",
              "type": "bytes32[2]"
            },
            {
              "internalType": "uint256[4]",
              "name": "proof",
              "type": "uint256[4]"
            }
          ],
          "internalType": "struct Structures.Transaction[]",
          "name": "transactions1",
          "type": "tuple[]"
        },
        {
          "components": [
            {
              "internalType": "uint112",
              "name": "value",
              "type": "uint112"
            },
            {
              "internalType": "uint112",
              "name": "fee",
              "type": "uint112"
            },
            {
              "internalType": "enum Structures.TransactionTypes",
              "name": "transactionType",
              "type": "uint8"
            },
            {
              "internalType": "enum Structures.TokenType",
              "name": "tokenType",
              "type": "uint8"
            },
            {
              "internalType": "uint64[4]",
              "name": "historicRootBlockNumberL2",
              "type": "uint64[4]"
            },
            {
              "internalType": "bytes32",
              "name": "tokenId",
              "type": "bytes32"
            },
            {
              "internalType": "bytes32",
              "name": "ercAddress",
              "type": "bytes32"
            },
            {
              "internalType": "bytes32",
              "name": "recipientAddress",
              "type": "bytes32"
            },
            {
              "internalType": "bytes32[3]",
              "name": "commitments",
              "type": "bytes32[3]"
            },
            {
              "internalType": "bytes32[4]",
              "name": "nullifiers",
              "type": "bytes32[4]"
            },
            {
              "internalType": "bytes32[2]",
              "name": "compressedSecrets",
              "type": "bytes32[2]"
            },
            {
              "internalType": "uint256[4]",
              "name": "proof",
              "type": "uint256[4]"
            }
          ],
          "internalType": "struct Structures.Transaction[]",
          "name": "transactions2",
          "type": "tuple[]"
        },
        {
          "internalType": "uint256",
          "name": "transaction1Index",
          "type": "uint256"
        },
        {
          "internalType": "uint256",
          "name": "transaction2Index",
          "type": "uint256"
        },
        {
          "internalType": "uint256",
          "name": "nullifier1Index",
          "type": "uint256"
        },
        {
          "internalType": "uint256",
          "name": "nullifier2Index",
          "type": "uint256"
        },
        {
          "internalType": "bytes32",
          "name": "salt",
          "type": "bytes32"
        }
      ],
      "name": "challengeNullifier",
      "outputs": [],
      "stateMutability": "nonpayable",
      "type": "function"
    },
    {
      "inputs": [
        {
          "components": [
            {
              "internalType": "uint48",
              "name": "leafCount",
              "type": "uint48"
            },
            {
              "internalType": "address",
              "name": "proposer",
              "type": "address"
            },
            {
              "internalType": "bytes32",
              "name": "root",
              "type": "bytes32"
            },
            {
              "internalType": "uint256",
              "name": "blockNumberL2",
              "type": "uint256"
            },
            {
              "internalType": "bytes32",
              "name": "previousBlockHash",
              "type": "bytes32"
            },
            {
              "internalType": "bytes32",
              "name": "transactionHashesRoot",
              "type": "bytes32"
            }
          ],
          "internalType": "struct Structures.Block",
          "name": "blockL2",
          "type": "tuple"
        },
        {
          "components": [
            {
              "internalType": "uint112",
              "name": "value",
              "type": "uint112"
            },
            {
              "internalType": "uint112",
              "name": "fee",
              "type": "uint112"
            },
            {
              "internalType": "enum Structures.TransactionTypes",
              "name": "transactionType",
              "type": "uint8"
            },
            {
              "internalType": "enum Structures.TokenType",
              "name": "tokenType",
              "type": "uint8"
            },
            {
              "internalType": "uint64[4]",
              "name": "historicRootBlockNumberL2",
              "type": "uint64[4]"
            },
            {
              "internalType": "bytes32",
              "name": "tokenId",
              "type": "bytes32"
            },
            {
              "internalType": "bytes32",
              "name": "ercAddress",
              "type": "bytes32"
            },
            {
              "internalType": "bytes32",
              "name": "recipientAddress",
              "type": "bytes32"
            },
            {
              "internalType": "bytes32[3]",
              "name": "commitments",
              "type": "bytes32[3]"
            },
            {
              "internalType": "bytes32[4]",
              "name": "nullifiers",
              "type": "bytes32[4]"
            },
            {
              "internalType": "bytes32[2]",
              "name": "compressedSecrets",
              "type": "bytes32[2]"
            },
            {
              "internalType": "uint256[4]",
              "name": "proof",
              "type": "uint256[4]"
            }
          ],
          "internalType": "struct Structures.Transaction[]",
          "name": "transactions",
          "type": "tuple[]"
        },
        {
          "internalType": "uint256",
          "name": "transactionIndex",
          "type": "uint256"
        },
        {
          "components": [
            {
              "internalType": "uint48",
              "name": "leafCount",
              "type": "uint48"
            },
            {
              "internalType": "address",
              "name": "proposer",
              "type": "address"
            },
            {
              "internalType": "bytes32",
              "name": "root",
              "type": "bytes32"
            },
            {
              "internalType": "uint256",
              "name": "blockNumberL2",
              "type": "uint256"
            },
            {
              "internalType": "bytes32",
              "name": "previousBlockHash",
              "type": "bytes32"
            },
            {
              "internalType": "bytes32",
              "name": "transactionHashesRoot",
              "type": "bytes32"
            }
          ],
          "internalType": "struct Structures.Block[4]",
          "name": "blockL2ContainingHistoricRoot",
          "type": "tuple[4]"
        },
        {
          "components": [
            {
              "internalType": "uint112",
              "name": "value",
              "type": "uint112"
            },
            {
              "internalType": "uint112",
              "name": "fee",
              "type": "uint112"
            },
            {
              "internalType": "enum Structures.TransactionTypes",
              "name": "transactionType",
              "type": "uint8"
            },
            {
              "internalType": "enum Structures.TokenType",
              "name": "tokenType",
              "type": "uint8"
            },
            {
              "internalType": "uint64[4]",
              "name": "historicRootBlockNumberL2",
              "type": "uint64[4]"
            },
            {
              "internalType": "bytes32",
              "name": "tokenId",
              "type": "bytes32"
            },
            {
              "internalType": "bytes32",
              "name": "ercAddress",
              "type": "bytes32"
            },
            {
              "internalType": "bytes32",
              "name": "recipientAddress",
              "type": "bytes32"
            },
            {
              "internalType": "bytes32[3]",
              "name": "commitments",
              "type": "bytes32[3]"
            },
            {
              "internalType": "bytes32[4]",
              "name": "nullifiers",
              "type": "bytes32[4]"
            },
            {
              "internalType": "bytes32[2]",
              "name": "compressedSecrets",
              "type": "bytes32[2]"
            },
            {
              "internalType": "uint256[4]",
              "name": "proof",
              "type": "uint256[4]"
            }
          ],
          "internalType": "struct Structures.Transaction[][4]",
          "name": "transactionsOfblockL2ContainingHistoricRoot",
          "type": "tuple[][4]"
        },
        {
          "internalType": "uint256[8]",
          "name": "uncompressedProof",
          "type": "uint256[8]"
        },
        {
          "internalType": "bytes32",
          "name": "salt",
          "type": "bytes32"
        }
      ],
      "name": "challengeProofVerification",
      "outputs": [],
      "stateMutability": "nonpayable",
      "type": "function"
    },
    {
      "inputs": [
        {
          "internalType": "bytes32",
          "name": "commitHash",
          "type": "bytes32"
        }
      ],
      "name": "commitToChallenge",
      "outputs": [],
      "stateMutability": "nonpayable",
      "type": "function"
    },
    {
      "inputs": [
        {
          "internalType": "bytes32",
          "name": "",
          "type": "bytes32"
        }
      ],
      "name": "committers",
      "outputs": [
        {
          "internalType": "address",
          "name": "",
          "type": "address"
        }
      ],
      "stateMutability": "view",
      "type": "function"
    },
    {
      "inputs": [],
      "name": "getBootChallenger",
      "outputs": [
        {
          "internalType": "address",
          "name": "",
          "type": "address"
        }
      ],
      "stateMutability": "view",
      "type": "function"
    },
    {
      "inputs": [],
      "name": "getBootProposer",
      "outputs": [
        {
          "internalType": "address",
          "name": "",
          "type": "address"
        }
      ],
      "stateMutability": "view",
      "type": "function"
    },
    {
      "inputs": [],
      "name": "getMaticAddress",
      "outputs": [
        {
          "internalType": "address",
          "name": "",
          "type": "address"
        }
      ],
      "stateMutability": "view",
      "type": "function"
    },
    {
      "inputs": [
        {
          "internalType": "address",
          "name": "tokenAddr",
          "type": "address"
        },
        {
          "internalType": "uint256",
          "name": "transactionType",
          "type": "uint256"
        }
      ],
      "name": "getRestriction",
      "outputs": [
        {
          "internalType": "uint256",
          "name": "",
          "type": "uint256"
        }
      ],
      "stateMutability": "view",
      "type": "function"
    },
    {
      "inputs": [
        {
          "internalType": "enum Structures.TransactionTypes",
          "name": "txType",
          "type": "uint8"
        }
      ],
      "name": "getVerificationKey",
      "outputs": [
        {
          "internalType": "uint256[]",
          "name": "",
          "type": "uint256[]"
        }
      ],
      "stateMutability": "view",
      "type": "function"
    },
    {
      "inputs": [],
      "name": "initialize",
      "outputs": [],
      "stateMutability": "nonpayable",
      "type": "function"
    },
    {
      "inputs": [],
      "name": "owner",
      "outputs": [
        {
          "internalType": "address",
          "name": "",
          "type": "address"
        }
      ],
      "stateMutability": "view",
      "type": "function"
    },
    {
      "inputs": [
        {
          "internalType": "uint256[]",
          "name": "_vk",
          "type": "uint256[]"
        },
        {
          "internalType": "enum Structures.TransactionTypes",
          "name": "_txType",
          "type": "uint8"
        }
      ],
      "name": "registerVerificationKey",
      "outputs": [],
      "stateMutability": "nonpayable",
      "type": "function"
    },
    {
      "inputs": [
        {
          "internalType": "address",
          "name": "tokenAddr",
          "type": "address"
        }
      ],
      "name": "removeRestriction",
      "outputs": [],
      "stateMutability": "nonpayable",
      "type": "function"
    },
    {
      "inputs": [
        {
          "internalType": "address",
          "name": "challenger",
          "type": "address"
        }
      ],
      "name": "setBootChallenger",
      "outputs": [],
      "stateMutability": "nonpayable",
      "type": "function"
    },
    {
      "inputs": [
        {
          "internalType": "address",
          "name": "proposer",
          "type": "address"
        }
      ],
      "name": "setBootProposer",
      "outputs": [],
      "stateMutability": "nonpayable",
      "type": "function"
    },
    {
      "inputs": [
        {
          "internalType": "address",
          "name": "_maticAddress",
          "type": "address"
        }
      ],
      "name": "setMaticAddress",
      "outputs": [],
      "stateMutability": "nonpayable",
      "type": "function"
    },
    {
      "inputs": [
        {
          "internalType": "address",
          "name": "tokenAddr",
          "type": "address"
        },
        {
          "internalType": "uint256",
          "name": "depositAmount",
          "type": "uint256"
        },
        {
          "internalType": "uint256",
          "name": "withdrawAmount",
          "type": "uint256"
        }
      ],
      "name": "setRestriction",
      "outputs": [],
      "stateMutability": "nonpayable",
      "type": "function"
    },
    {
      "inputs": [
        {
          "internalType": "address payable",
          "name": "stateAddress",
          "type": "address"
        }
      ],
      "name": "setStateContract",
      "outputs": [],
      "stateMutability": "nonpayable",
      "type": "function"
    },
    {
      "inputs": [],
      "name": "state",
      "outputs": [
        {
          "internalType": "contract State",
          "name": "",
          "type": "address"
        }
      ],
      "stateMutability": "view",
      "type": "function"
    },
    {
      "inputs": [
        {
          "internalType": "address",
          "name": "newOwner",
          "type": "address"
        }
      ],
      "name": "transferOwnership",
      "outputs": [],
      "stateMutability": "nonpayable",
      "type": "function"
    },
    {
      "inputs": [
        {
          "internalType": "enum Structures.TransactionTypes",
          "name": "",
          "type": "uint8"
        },
        {
          "internalType": "uint256",
          "name": "",
          "type": "uint256"
        }
      ],
      "name": "vks",
      "outputs": [
        {
          "internalType": "uint256",
          "name": "",
          "type": "uint256"
        }
      ],
      "stateMutability": "view",
      "type": "function"
    }
  ],
  "bytecode": "0x608060405234801561001057600080fd5b50616e9e80620000216000396000f3fe608060405234801561001057600080fd5b506004361061018e5760003560e01c8063a0392769116100de578063bb7affc111610097578063e7a8a5a011610071578063e7a8a5a01461041d578063f2fde38b1461044d578063f560a79214610469578063fd5320b5146104855761018e565b8063bb7affc1146103c5578063c19d93fb146103e1578063c300db9b146103ff5761018e565b8063a039276914610307578063a167677a14610323578063aa411d5b1461033f578063b2bdfa7b1461035b578063b8da51f114610379578063b8de507b146103955761018e565b806369a5b9501161014b5780638129fc1c116101255780638129fc1c146102a757806384afda19146102b15780638da5cb5b146102cd5780639c18de93146102eb5761018e565b806369a5b9501461025357806372d3dadf1461026f578063764f81431461028b5761018e565b806308474398146101935780631182cefa146101af57806328340f17146101df578063380856f3146101fd57806342646c6814610219578063677fa20114610237575b600080fd5b6101ad60048036038101906101a89190614a45565b6104b5565b005b6101c960048036038101906101c49190614b28565b610f8f565b6040516101d69190614b96565b60405180910390f35b6101e7610fc2565b6040516101f49190614b96565b60405180910390f35b61021760048036038101906102129190614bb1565b610fec565b005b610221611278565b60405161022e9190614b96565b60405180910390f35b610251600480360381019061024c9190614c70565b6112a2565b005b61026d60048036038101906102689190614dae565b6115c5565b005b61028960048036038101906102849190614dfd565b6116eb565b005b6102a560048036038101906102a09190614c70565b61196c565b005b6102af611c8f565b005b6102cb60048036038101906102c69190614f0e565b611ddd565b005b6102d5611ee4565b6040516102e29190614b96565b60405180910390f35b61030560048036038101906103009190614f3b565b611f0e565b005b610321600480360381019061031c9190615009565b612038565b005b61033d60048036038101906103389190615069565b612130565b005b61035960048036038101906103549190614dae565b61269a565b005b610363612753565b6040516103709190614b96565b60405180910390f35b610393600480360381019061038e9190614b28565b612779565b005b6103af60048036038101906103aa91906150de565b612939565b6040516103bc91906151c9565b60405180910390f35b6103df60048036038101906103da9190614dae565b6129c8565b005b6103e9612ada565b6040516103f6919061524a565b60405180910390f35b610407612b00565b6040516104149190614b96565b60405180910390f35b61043760048036038101906104329190615265565b612b2a565b60405161044491906152b4565b60405180910390f35b61046760048036038101906104629190614dae565b612b87565b005b610483600480360381019061047e9190614dae565b612c82565b005b61049f600480360381019061049a91906152cf565b612d94565b6040516104ac91906152b4565b60405180910390f35b600560009054906101000a900473ffffffffffffffffffffffffffffffffffffffff1673ffffffffffffffffffffffffffffffffffffffff163373ffffffffffffffffffffffffffffffffffffffff1614610545576040517f08c379a000000000000000000000000000000000000000000000000000000000815260040161053c9061536c565b60405180910390fd5b610550600036612dc5565b600060029054906101000a900473ffffffffffffffffffffffffffffffffffffffff1673ffffffffffffffffffffffffffffffffffffffff1663ed46a68c8989896040518463ffffffff1660e01b81526004016105af93929190615a12565b60206040518083038186803b1580156105c757600080fd5b505afa1580156105db573d6000803e3d6000fd5b505050506040513d601f19601f820116820180604052508101906105ff9190615a59565b506000604051806040016040528060405180608001604052806000815260200160008152602001600081526020016000815250815260200161063f612b00565b73ffffffffffffffffffffffffffffffffffffffff168152509050600088888881811061066f5761066e615a86565b5b905061030002016101c00160006004811061068d5761068c615a86565b5b602002013560001c1461086d57600060029054906101000a900473ffffffffffffffffffffffffffffffffffffffff1673ffffffffffffffffffffffffffffffffffffffff1663ed46a68c866000600481106106ec576106eb615a86565b5b60c002018660006004811061070457610703615a86565b5b6020028101906107149190615ac4565b6040518463ffffffff1660e01b815260040161073293929190615a12565b60206040518083038186803b15801561074a57600080fd5b505afa15801561075e573d6000803e3d6000fd5b505050506040513d601f19601f820116820180604052508101906107829190615a59565b508460006004811061079757610796615a86565b5b60c00201606001358888888181106107b2576107b1615a86565b5b905061030002016080016000600481106107cf576107ce615a86565b5b6020020160208101906107e29190615b28565b67ffffffffffffffff161461082c576040517f08c379a000000000000000000000000000000000000000000000000000000000815260040161082390615ba1565b60405180910390fd5b846000600481106108405761083f615a86565b5b60c002016040013560001c816000015160006004811061086357610862615a86565b5b6020020181815250505b600088888881811061088257610881615a86565b5b905061030002016101c0016001600481106108a05761089f615a86565b5b602002013560001c14610a8057600060029054906101000a900473ffffffffffffffffffffffffffffffffffffffff1673ffffffffffffffffffffffffffffffffffffffff1663ed46a68c866001600481106108ff576108fe615a86565b5b60c002018660016004811061091757610916615a86565b5b6020028101906109279190615ac4565b6040518463ffffffff1660e01b815260040161094593929190615a12565b60206040518083038186803b15801561095d57600080fd5b505afa158015610971573d6000803e3d6000fd5b505050506040513d601f19601f820116820180604052508101906109959190615a59565b50846001600481106109aa576109a9615a86565b5b60c00201606001358888888181106109c5576109c4615a86565b5b905061030002016080016001600481106109e2576109e1615a86565b5b6020020160208101906109f59190615b28565b67ffffffffffffffff1614610a3f576040517f08c379a0000000000000000000000000000000000000000000000000000000008152600401610a3690615ba1565b60405180910390fd5b84600160048110610a5357610a52615a86565b5b60c002016040013560001c8160000151600160048110610a7657610a75615a86565b5b6020020181815250505b6000888888818110610a9557610a94615a86565b5b905061030002016101c001600260048110610ab357610ab2615a86565b5b602002013560001c14610c9357600060029054906101000a900473ffffffffffffffffffffffffffffffffffffffff1673ffffffffffffffffffffffffffffffffffffffff1663ed46a68c86600260048110610b1257610b11615a86565b5b60c0020186600260048110610b2a57610b29615a86565b5b602002810190610b3a9190615ac4565b6040518463ffffffff1660e01b8152600401610b5893929190615a12565b60206040518083038186803b158015610b7057600080fd5b505afa158015610b84573d6000803e3d6000fd5b505050506040513d601f19601f82011682018060405250810190610ba89190615a59565b5084600260048110610bbd57610bbc615a86565b5b60c0020160600135888888818110610bd857610bd7615a86565b5b90506103000201608001600260048110610bf557610bf4615a86565b5b602002016020810190610c089190615b28565b67ffffffffffffffff1614610c52576040517f08c379a0000000000000000000000000000000000000000000000000000000008152600401610c4990615ba1565b60405180910390fd5b84600260048110610c6657610c65615a86565b5b60c002016040013560001c8160000151600260048110610c8957610c88615a86565b5b6020020181815250505b6000888888818110610ca857610ca7615a86565b5b905061030002016101c001600360048110610cc657610cc5615a86565b5b602002013560001c14610ea657600060029054906101000a900473ffffffffffffffffffffffffffffffffffffffff1673ffffffffffffffffffffffffffffffffffffffff1663ed46a68c86600360048110610d2557610d24615a86565b5b60c0020186600360048110610d3d57610d3c615a86565b5b602002810190610d4d9190615ac4565b6040518463ffffffff1660e01b8152600401610d6b93929190615a12565b60206040518083038186803b158015610d8357600080fd5b505afa158015610d97573d6000803e3d6000fd5b505050506040513d601f19601f82011682018060405250810190610dbb9190615a59565b5084600360048110610dd057610dcf615a86565b5b60c0020160600135888888818110610deb57610dea615a86565b5b90506103000201608001600360048110610e0857610e07615a86565b5b602002016020810190610e1b9190615b28565b67ffffffffffffffff1614610e65576040517f08c379a0000000000000000000000000000000000000000000000000000000008152600401610e5c90615ba1565b60405180910390fd5b84600360048110610e7957610e78615a86565b5b60c002016040013560001c8160000151600360048110610e9c57610e9b615a86565b5b6020020181815250505b610f7b888888818110610ebc57610ebb615a86565b5b905061030002018285600360008d8d8d818110610edc57610edb615a86565b5b905061030002016040016020810190610ef591906150de565b6002811115610f0757610f0661559c565b5b6002811115610f1957610f1861559c565b5b8152602001908152602001600020805480602002602001604051908101604052809291908181526020018280548015610f7157602002820191906000526020600020905b815481526020019060010190808311610f5d575b5050505050612ebd565b610f8489613091565b505050505050505050565b60086020528060005260406000206000915054906101000a900473ffffffffffffffffffffffffffffffffffffffff1681565b6000600460009054906101000a900473ffffffffffffffffffffffffffffffffffffffff16905090565b600560009054906101000a900473ffffffffffffffffffffffffffffffffffffffff1673ffffffffffffffffffffffffffffffffffffffff163373ffffffffffffffffffffffffffffffffffffffff161461107c576040517f08c379a00000000000000000000000000000000000000000000000000000000081526004016110739061536c565b60405180910390fd5b611087600036612dc5565b600060029054906101000a900473ffffffffffffffffffffffffffffffffffffffff1673ffffffffffffffffffffffffffffffffffffffff1663ed46a68c8888886040518463ffffffff1660e01b81526004016110e693929190615a12565b60206040518083038186803b1580156110fe57600080fd5b505afa158015611112573d6000803e3d6000fd5b505050506040513d601f19601f820116820180604052508101906111369190615a59565b50600060029054906101000a900473ffffffffffffffffffffffffffffffffffffffff1673ffffffffffffffffffffffffffffffffffffffff1663ed46a68c8585856040518463ffffffff1660e01b815260040161119693929190615a12565b60206040518083038186803b1580156111ae57600080fd5b505afa1580156111c2573d6000803e3d6000fd5b505050506040513d601f19601f820116820180604052508101906111e69190615a59565b5073__$ee57418647432bdf614976afa0b42713c0$__6342239c6c8888888860000160208101906112179190615bc1565b6040518563ffffffff1660e01b81526004016112369493929190615fe7565b60006040518083038186803b15801561124e57600080fd5b505af4158015611262573d6000803e3d6000fd5b5050505061126f84613091565b50505050505050565b6000600560009054906101000a900473ffffffffffffffffffffffffffffffffffffffff16905090565b600560009054906101000a900473ffffffffffffffffffffffffffffffffffffffff1673ffffffffffffffffffffffffffffffffffffffff163373ffffffffffffffffffffffffffffffffffffffff1614611332576040517f08c379a00000000000000000000000000000000000000000000000000000000081526004016113299061536c565b60405180910390fd5b61133d600036612dc5565b73__$ee57418647432bdf614976afa0b42713c0$__638185f01d8a8a8881811061136a57611369615a86565b5b90506103000201858a8a8981811061138557611384615a86565b5b90506103000201866040518563ffffffff1660e01b81526004016113ac9493929190616193565b60006040518083038186803b1580156113c457600080fd5b505af41580156113d8573d6000803e3d6000fd5b5050505089606001358b606001351415611430578385141561142f576040517f08c379a000000000000000000000000000000000000000000000000000000000815260040161142690616228565b60405180910390fd5b5b600060029054906101000a900473ffffffffffffffffffffffffffffffffffffffff1673ffffffffffffffffffffffffffffffffffffffff1663ed46a68c8c8b8b6040518463ffffffff1660e01b815260040161148f93929190615a12565b60206040518083038186803b1580156114a757600080fd5b505afa1580156114bb573d6000803e3d6000fd5b505050506040513d601f19601f820116820180604052508101906114df9190615a59565b50600060029054906101000a900473ffffffffffffffffffffffffffffffffffffffff1673ffffffffffffffffffffffffffffffffffffffff1663ed46a68c8b89896040518463ffffffff1660e01b815260040161153f93929190615a12565b60206040518083038186803b15801561155757600080fd5b505afa15801561156b573d6000803e3d6000fd5b505050506040513d601f19601f8201168201806040525081019061158f9190615a59565b5089606001358b6060013511156115ae576115a98b613091565b6115b8565b6115b78a613091565b5b5050505050505050505050565b6115cd611ee4565b73ffffffffffffffffffffffffffffffffffffffff163373ffffffffffffffffffffffffffffffffffffffff161461163a576040517f08c379a0000000000000000000000000000000000000000000000000000000008152600401611631906162ba565b60405180910390fd5b600760008273ffffffffffffffffffffffffffffffffffffffff1673ffffffffffffffffffffffffffffffffffffffff16815260200190815260200160002060006002811061168c5761168b615a86565b5b0160009055600760008273ffffffffffffffffffffffffffffffffffffffff1673ffffffffffffffffffffffffffffffffffffffff1681526020019081526020016000206001600281106116e3576116e2615a86565b5b016000905550565b600560009054906101000a900473ffffffffffffffffffffffffffffffffffffffff1673ffffffffffffffffffffffffffffffffffffffff163373ffffffffffffffffffffffffffffffffffffffff161461177b576040517f08c379a00000000000000000000000000000000000000000000000000000000081526004016117729061536c565b60405180910390fd5b611786600036612dc5565b600060029054906101000a900473ffffffffffffffffffffffffffffffffffffffff1673ffffffffffffffffffffffffffffffffffffffff1663ed46a68c8989896040518463ffffffff1660e01b81526004016117e593929190615a12565b60206040518083038186803b1580156117fd57600080fd5b505afa158015611811573d6000803e3d6000fd5b505050506040513d601f19601f820116820180604052508101906118359190615a59565b50600060029054906101000a900473ffffffffffffffffffffffffffffffffffffffff1673ffffffffffffffffffffffffffffffffffffffff1663ed46a68c8585856040518463ffffffff1660e01b815260040161189593929190615a12565b60206040518083038186803b1580156118ad57600080fd5b505afa1580156118c1573d6000803e3d6000fd5b505050506040513d601f19601f820116820180604052508101906118e59190615a59565b5073__$ee57418647432bdf614976afa0b42713c0$__63e3fc4e33898989898989896040518863ffffffff1660e01b815260040161192997969594939291906162eb565b60006040518083038186803b15801561194157600080fd5b505af4158015611955573d6000803e3d6000fd5b5050505061196284613091565b5050505050505050565b600560009054906101000a900473ffffffffffffffffffffffffffffffffffffffff1673ffffffffffffffffffffffffffffffffffffffff163373ffffffffffffffffffffffffffffffffffffffff16146119fc576040517f08c379a00000000000000000000000000000000000000000000000000000000081526004016119f39061536c565b60405180910390fd5b611a07600036612dc5565b73__$ee57418647432bdf614976afa0b42713c0$__63ff124ee88a8a88818110611a3457611a33615a86565b5b90506103000201858a8a89818110611a4f57611a4e615a86565b5b90506103000201866040518563ffffffff1660e01b8152600401611a769493929190616193565b60006040518083038186803b158015611a8e57600080fd5b505af4158015611aa2573d6000803e3d6000fd5b5050505089606001358b606001351415611afa5783851415611af9576040517f08c379a0000000000000000000000000000000000000000000000000000000008152600401611af090616228565b60405180910390fd5b5b600060029054906101000a900473ffffffffffffffffffffffffffffffffffffffff1673ffffffffffffffffffffffffffffffffffffffff1663ed46a68c8c8b8b6040518463ffffffff1660e01b8152600401611b5993929190615a12565b60206040518083038186803b158015611b7157600080fd5b505afa158015611b85573d6000803e3d6000fd5b505050506040513d601f19601f82011682018060405250810190611ba99190615a59565b50600060029054906101000a900473ffffffffffffffffffffffffffffffffffffffff1673ffffffffffffffffffffffffffffffffffffffff1663ed46a68c8b89896040518463ffffffff1660e01b8152600401611c0993929190615a12565b60206040518083038186803b158015611c2157600080fd5b505afa158015611c35573d6000803e3d6000fd5b505050506040513d601f19601f82011682018060405250810190611c599190615a59565b5089606001358b606001351115611c7857611c738b613091565b611c82565b611c818a613091565b5b5050505050505050505050565b60008060019054906101000a900460ff16159050808015611cc05750600160008054906101000a900460ff1660ff16105b80611ced5750611ccf306132dc565b158015611cec5750600160008054906101000a900460ff1660ff16145b5b611d2c576040517f08c379a0000000000000000000000000000000000000000000000000000000008152600401611d23906163c5565b60405180910390fd5b60016000806101000a81548160ff021916908360ff1602179055508015611d69576001600060016101000a81548160ff0219169083151502179055505b611d716132ff565b611d79613491565b611d816135cf565b8015611dda5760008060016101000a81548160ff0219169083151502179055507f7f26b83ff96e1f2b6a682f133852f6798a09c465da95921460cefb38474024986001604051611dd1919061642d565b60405180910390a15b50565b600160009054906101000a900473ffffffffffffffffffffffffffffffffffffffff1673ffffffffffffffffffffffffffffffffffffffff163373ffffffffffffffffffffffffffffffffffffffff16148015611e475750600160149054906101000a900460ff16155b611e86576040517f08c379a0000000000000000000000000000000000000000000000000000000008152600401611e7d906164ba565b60405180910390fd5b60018060146101000a81548160ff02191690831515021790555080600060026101000a81548173ffffffffffffffffffffffffffffffffffffffff021916908373ffffffffffffffffffffffffffffffffffffffff16021790555050565b6000600260009054906101000a900473ffffffffffffffffffffffffffffffffffffffff16905090565b611f16611ee4565b73ffffffffffffffffffffffffffffffffffffffff163373ffffffffffffffffffffffffffffffffffffffff1614611f83576040517f08c379a0000000000000000000000000000000000000000000000000000000008152600401611f7a906162ba565b60405180910390fd5b81600760008573ffffffffffffffffffffffffffffffffffffffff1673ffffffffffffffffffffffffffffffffffffffff168152602001908152602001600020600060028110611fd657611fd5615a86565b5b018190555080600760008573ffffffffffffffffffffffffffffffffffffffff1673ffffffffffffffffffffffffffffffffffffffff16815260200190815260200160002060016002811061202e5761202d615a86565b5b0181905550505050565b612040611ee4565b73ffffffffffffffffffffffffffffffffffffffff163373ffffffffffffffffffffffffffffffffffffffff16146120ad576040517f08c379a00000000000000000000000000000000000000000000000000000000081526004016120a4906162ba565b60405180910390fd5b8282600360008460028111156120c6576120c561559c565b5b60028111156120d8576120d761559c565b5b815260200190815260200160002091906120f392919061472e565b507fcfd8f8b734ebb05f1872379d344363750ce642d6cbd9f66a55aa3f1dbeb0c5d38160405161212391906164e9565b60405180910390a1505050565b600560009054906101000a900473ffffffffffffffffffffffffffffffffffffffff1673ffffffffffffffffffffffffffffffffffffffff163373ffffffffffffffffffffffffffffffffffffffff16146121c0576040517f08c379a00000000000000000000000000000000000000000000000000000000081526004016121b79061536c565b60405180910390fd5b6121cb600036612dc5565b600060029054906101000a900473ffffffffffffffffffffffffffffffffffffffff1673ffffffffffffffffffffffffffffffffffffffff1663ed46a68c8585856040518463ffffffff1660e01b815260040161222a93929190615a12565b60206040518083038186803b15801561224257600080fd5b505afa158015612256573d6000803e3d6000fd5b505050506040513d601f19601f8201168201806040525081019061227a9190615a59565b50600060029054906101000a900473ffffffffffffffffffffffffffffffffffffffff1673ffffffffffffffffffffffffffffffffffffffff166305eb81e66040518163ffffffff1660e01b815260040160206040518083038186803b1580156122e357600080fd5b505afa1580156122f7573d6000803e3d6000fd5b505050506040513d601f19601f8201168201806040525081019061231b9190616519565b83838381811061232e5761232d615a86565b5b9050610300020160800160006004811061234b5761234a615a86565b5b60200201602081019061235e9190615b28565b67ffffffffffffffff161015806124605750600060029054906101000a900473ffffffffffffffffffffffffffffffffffffffff1673ffffffffffffffffffffffffffffffffffffffff166305eb81e66040518163ffffffff1660e01b815260040160206040518083038186803b1580156123d857600080fd5b505afa1580156123ec573d6000803e3d6000fd5b505050506040513d601f19601f820116820180604052508101906124109190616519565b83838381811061242357612422615a86565b5b905061030002016080016001600481106124405761243f615a86565b5b6020020160208101906124539190615b28565b67ffffffffffffffff1610155b806125565750600060029054906101000a900473ffffffffffffffffffffffffffffffffffffffff1673ffffffffffffffffffffffffffffffffffffffff166305eb81e66040518163ffffffff1660e01b815260040160206040518083038186803b1580156124ce57600080fd5b505afa1580156124e2573d6000803e3d6000fd5b505050506040513d601f19601f820116820180604052508101906125069190616519565b83838381811061251957612518615a86565b5b9050610300020160800160026004811061253657612535615a86565b5b6020020160208101906125499190615b28565b67ffffffffffffffff1610155b8061264c5750600060029054906101000a900473ffffffffffffffffffffffffffffffffffffffff1673ffffffffffffffffffffffffffffffffffffffff166305eb81e66040518163ffffffff1660e01b815260040160206040518083038186803b1580156125c457600080fd5b505afa1580156125d8573d6000803e3d6000fd5b505050506040513d601f19601f820116820180604052508101906125fc9190616519565b83838381811061260f5761260e615a86565b5b9050610300020160800160036004811061262c5761262b615a86565b5b60200201602081019061263f9190615b28565b67ffffffffffffffff1610155b61268b576040517f08c379a0000000000000000000000000000000000000000000000000000000008152600401612682906165b8565b60405180910390fd5b61269484613091565b50505050565b6126a2611ee4565b73ffffffffffffffffffffffffffffffffffffffff163373ffffffffffffffffffffffffffffffffffffffff161461270f576040517f08c379a0000000000000000000000000000000000000000000000000000000008152600401612706906162ba565b60405180910390fd5b80600660006101000a81548173ffffffffffffffffffffffffffffffffffffffff021916908373ffffffffffffffffffffffffffffffffffffffff16021790555050565b600260009054906101000a900473ffffffffffffffffffffffffffffffffffffffff1681565b600560009054906101000a900473ffffffffffffffffffffffffffffffffffffffff1673ffffffffffffffffffffffffffffffffffffffff163373ffffffffffffffffffffffffffffffffffffffff1614612809576040517f08c379a00000000000000000000000000000000000000000000000000000000081526004016128009061536c565b60405180910390fd5b600073ffffffffffffffffffffffffffffffffffffffff166008600083815260200190815260200160002060009054906101000a900473ffffffffffffffffffffffffffffffffffffffff1673ffffffffffffffffffffffffffffffffffffffff16146128ab576040517f08c379a00000000000000000000000000000000000000000000000000000000081526004016128a290616624565b60405180910390fd5b336008600083815260200190815260200160002060006101000a81548173ffffffffffffffffffffffffffffffffffffffff021916908373ffffffffffffffffffffffffffffffffffffffff1602179055507f0d5ea452ac7e354069d902d41e41e24f605467acd037b8f5c1c6fee5e27fb5e2813360405161292e929190616653565b60405180910390a150565b6060600360008360028111156129525761295161559c565b5b60028111156129645761296361559c565b5b81526020019081526020016000208054806020026020016040519081016040528092919081815260200182805480156129bc57602002820191906000526020600020905b8154815260200190600101908083116129a8575b50505050509050919050565b6129d0611ee4565b73ffffffffffffffffffffffffffffffffffffffff163373ffffffffffffffffffffffffffffffffffffffff1614612a3d576040517f08c379a0000000000000000000000000000000000000000000000000000000008152600401612a34906162ba565b60405180910390fd5b80600460006101000a81548173ffffffffffffffffffffffffffffffffffffffff021916908373ffffffffffffffffffffffffffffffffffffffff1602179055507f5544fd39820f90f9fc4b238e0eaaf1b5ece21e6dbb69a2b0824a16876e6d0efd600460009054906101000a900473ffffffffffffffffffffffffffffffffffffffff16604051612acf9190614b96565b60405180910390a150565b600060029054906101000a900473ffffffffffffffffffffffffffffffffffffffff1681565b6000600660009054906101000a900473ffffffffffffffffffffffffffffffffffffffff16905090565b6000600760008473ffffffffffffffffffffffffffffffffffffffff1673ffffffffffffffffffffffffffffffffffffffff1681526020019081526020016000208260028110612b7d57612b7c615a86565b5b0154905092915050565b612b8f611ee4565b73ffffffffffffffffffffffffffffffffffffffff163373ffffffffffffffffffffffffffffffffffffffff1614612bfc576040517f08c379a0000000000000000000000000000000000000000000000000000000008152600401612bf3906162ba565b60405180910390fd5b600073ffffffffffffffffffffffffffffffffffffffff168173ffffffffffffffffffffffffffffffffffffffff161415612c3657600080fd5b7f8be0079c531659141344cd1fd0a4f28419497f9722a3daafe3b4186f6b6457e0612c5f611ee4565b82604051612c6e92919061667c565b60405180910390a1612c7f8161370d565b50565b612c8a611ee4565b73ffffffffffffffffffffffffffffffffffffffff163373ffffffffffffffffffffffffffffffffffffffff1614612cf7576040517f08c379a0000000000000000000000000000000000000000000000000000000008152600401612cee906162ba565b60405180910390fd5b80600560006101000a81548173ffffffffffffffffffffffffffffffffffffffff021916908373ffffffffffffffffffffffffffffffffffffffff1602179055507f210cff5548618e71293ea0d4f1f3563a68e78f00273f3acd97014aac2442ed24600560009054906101000a900473ffffffffffffffffffffffffffffffffffffffff16604051612d899190614b96565b60405180910390a150565b60036020528160005260406000208181548110612db057600080fd5b90600052602060002001600091509150505481565b60008282604051612dd79291906166d5565b604051809103902090503373ffffffffffffffffffffffffffffffffffffffff166008600083815260200190815260200160002060009054906101000a900473ffffffffffffffffffffffffffffffffffffffff1673ffffffffffffffffffffffffffffffffffffffff1614612e82576040517f08c379a0000000000000000000000000000000000000000000000000000000008152600401612e799061673a565b60405180910390fd5b6008600082815260200190815260200160002060006101000a81549073ffffffffffffffffffffffffffffffffffffffff0219169055505050565b612f0284610280016004806020026040519081016040528092919082600460200280828437600081840152601f19601f82011690508083019250505050505083613751565b6000600867ffffffffffffffff811115612f1f57612f1e6148e3565b5b604051908082528060200260200182016040528015612f4d5781602001602082028036833780820191505090505b50905060005b6008811015612fa657838160088110612f6f57612f6e615a86565b5b6020020151828281518110612f8757612f86615a86565b5b6020026020010181815250508080612f9e90616789565b915050612f53565b506000612fbc86866000015187602001516137eb565b905073__$6b78ae7bf09e0e72535be6401663f3a543$__6387d9d0238383866040518463ffffffff1660e01b8152600401612ff993929190616859565b60206040518083038186803b15801561301157600080fd5b505af4158015613025573d6000803e3d6000fd5b505050506040513d601f19601f8201168201806040525081019061304991906168dd565b15613089576040517f08c379a000000000000000000000000000000000000000000000000000000000815260040161308090616956565b60405180910390fd5b505050505050565b62093a80426130a09190616976565b600060029054906101000a900473ffffffffffffffffffffffffffffffffffffffff1673ffffffffffffffffffffffffffffffffffffffff16631c9ab3ad83606001356040518263ffffffff1660e01b81526004016130ff91906152b4565b604080518083038186803b15801561311657600080fd5b505afa15801561312a573d6000803e3d6000fd5b505050506040513d601f19601f8201168201806040525081019061314e91906169ff565b602001511015613193576040517f08c379a000000000000000000000000000000000000000000000000000000000815260040161318a90616a78565b60405180910390fd5b600060029054906101000a900473ffffffffffffffffffffffffffffffffffffffff1673ffffffffffffffffffffffffffffffffffffffff166323e7d4a282606001356040518263ffffffff1660e01b81526004016131f291906152b4565b600060405180830381600087803b15801561320c57600080fd5b505af1158015613220573d6000803e3d6000fd5b5050505060006132338260600135614152565b9050600060029054906101000a900473ffffffffffffffffffffffffffffffffffffffff1673ffffffffffffffffffffffffffffffffffffffff166366e6f72f338460200160208101906132879190614dae565b846040518463ffffffff1660e01b81526004016132a693929190616a98565b600060405180830381600087803b1580156132c057600080fd5b505af11580156132d4573d6000803e3d6000fd5b505050505050565b6000808273ffffffffffffffffffffffffffffffffffffffff163b119050919050565b60008060019054906101000a900460ff161590508080156133305750600160008054906101000a900460ff1660ff16105b8061335d575061333f306132dc565b15801561335c5750600160008054906101000a900460ff1660ff16145b5b61339c576040517f08c379a0000000000000000000000000000000000000000000000000000000008152600401613393906163c5565b60405180910390fd5b60016000806101000a81548160ff021916908360ff16021790555080156133d9576001600060016101000a81548160ff0219169083151502179055505b33600160006101000a81548173ffffffffffffffffffffffffffffffffffffffff021916908373ffffffffffffffffffffffffffffffffffffffff1602179055506000600160146101000a81548160ff021916908315150217905550801561348e5760008060016101000a81548160ff0219169083151502179055507f7f26b83ff96e1f2b6a682f133852f6798a09c465da95921460cefb38474024986001604051613485919061642d565b60405180910390a15b50565b60008060019054906101000a900460ff161590508080156134c25750600160008054906101000a900460ff1660ff16105b806134ef57506134d1306132dc565b1580156134ee5750600160008054906101000a900460ff1660ff16145b5b61352e576040517f08c379a0000000000000000000000000000000000000000000000000000000008152600401613525906163c5565b60405180910390fd5b60016000806101000a81548160ff021916908360ff160217905550801561356b576001600060016101000a81548160ff0219169083151502179055505b613573614456565b80156135cc5760008060016101000a81548160ff0219169083151502179055507f7f26b83ff96e1f2b6a682f133852f6798a09c465da95921460cefb384740249860016040516135c3919061642d565b60405180910390a15b50565b60008060019054906101000a900460ff161590508080156136005750600160008054906101000a900460ff1660ff16105b8061362d575061360f306132dc565b15801561362c5750600160008054906101000a900460ff1660ff16145b5b61366c576040517f08c379a0000000000000000000000000000000000000000000000000000000008152600401613663906163c5565b60405180910390fd5b60016000806101000a81548160ff021916908360ff16021790555080156136a9576001600060016101000a81548160ff0219169083151502179055505b6136b1614456565b801561370a5760008060016101000a81548160ff0219169083151502179055507f7f26b83ff96e1f2b6a682f133852f6798a09c465da95921460cefb38474024986001604051613701919061642d565b60405180910390a15b50565b80600260006101000a81548173ffffffffffffffffffffffffffffffffffffffff021916908373ffffffffffffffffffffffffffffffffffffffff16021790555050565b61375a81614595565b60405160200161376a9190616b7a565b60405160208183030381529060405280519060200120826040516020016137919190616b7a565b60405160208183030381529060405280519060200120146137e7576040517f08c379a00000000000000000000000000000000000000000000000000000000081526004016137de90616c07565b60405180910390fd5b5050565b60606000602767ffffffffffffffff81111561380a576138096148e3565b5b6040519080825280602002602001820160405280156138385781602001602082028036833780820191505090505b50905084600001602081019061384e9190616c27565b6dffffffffffffffffffffffffffff168160008151811061387257613871615a86565b5b6020026020010181815250508460200160208101906138919190616c27565b6dffffffffffffffffffffffffffff16816001815181106138b5576138b4615a86565b5b6020026020010181815250508460400160208101906138d491906150de565b60028111156138e6576138e561559c565b5b816002815181106138fa576138f9615a86565b5b6020026020010181815250508460600160208101906139199190616c54565b600281111561392b5761392a61559c565b5b8160038151811061393f5761393e615a86565b5b6020026020010181815250508460800160006004811061396257613961615a86565b5b6020020160208101906139759190615b28565b67ffffffffffffffff168160048151811061399357613992615a86565b5b602002602001018181525050846080016001600481106139b6576139b5615a86565b5b6020020160208101906139c99190615b28565b67ffffffffffffffff16816005815181106139e7576139e6615a86565b5b60200260200101818152505084608001600260048110613a0a57613a09615a86565b5b602002016020810190613a1d9190615b28565b67ffffffffffffffff1681600681518110613a3b57613a3a615a86565b5b60200260200101818152505084608001600360048110613a5e57613a5d615a86565b5b602002016020810190613a719190615b28565b67ffffffffffffffff1681600781518110613a8f57613a8e615a86565b5b60200260200101818152505060e085610100013560001c901c63ffffffff1681600881518110613ac257613ac1615a86565b5b60200260200101818152505060c085610100013560001c901c63ffffffff1681600981518110613af557613af4615a86565b5b60200260200101818152505060a085610100013560001c901c63ffffffff1681600a81518110613b2857613b27615a86565b5b602002602001018181525050608085610100013560001c901c63ffffffff1681600b81518110613b5b57613b5a615a86565b5b602002602001018181525050606085610100013560001c901c63ffffffff1681600c81518110613b8e57613b8d615a86565b5b602002602001018181525050604085610100013560001c901c63ffffffff1681600d81518110613bc157613bc0615a86565b5b602002602001018181525050602085610100013560001c901c63ffffffff1681600e81518110613bf457613bf3615a86565b5b60200260200101818152505084610100013560001c63ffffffff1681600f81518110613c2357613c22615a86565b5b60200260200101818152505084610120013560001c81601081518110613c4c57613c4b615a86565b5b60200260200101818152505060e085610140013560001c901c63ffffffff1681601181518110613c7f57613c7e615a86565b5b60200260200101818152505060c085610140013560001c901c63ffffffff1681601281518110613cb257613cb1615a86565b5b60200260200101818152505060a085610140013560001c901c63ffffffff1681601381518110613ce557613ce4615a86565b5b602002602001018181525050608085610140013560001c901c63ffffffff1681601481518110613d1857613d17615a86565b5b602002602001018181525050606085610140013560001c901c63ffffffff1681601581518110613d4b57613d4a615a86565b5b602002602001018181525050604085610140013560001c901c63ffffffff1681601681518110613d7e57613d7d615a86565b5b602002602001018181525050602085610140013560001c901c63ffffffff1681601781518110613db157613db0615a86565b5b60200260200101818152505084610140013560001c63ffffffff1681601881518110613de057613ddf615a86565b5b6020026020010181815250508461016001600060038110613e0457613e03615a86565b5b602002013560001c81601981518110613e2057613e1f615a86565b5b6020026020010181815250508461016001600160038110613e4457613e43615a86565b5b602002013560001c81601a81518110613e6057613e5f615a86565b5b6020026020010181815250508461016001600260038110613e8457613e83615a86565b5b602002013560001c81601b81518110613ea057613e9f615a86565b5b602002602001018181525050846101c001600060048110613ec457613ec3615a86565b5b602002013560001c81601c81518110613ee057613edf615a86565b5b602002602001018181525050846101c001600160048110613f0457613f03615a86565b5b602002013560001c81601d81518110613f2057613f1f615a86565b5b602002602001018181525050846101c001600260048110613f4457613f43615a86565b5b602002013560001c81601e81518110613f6057613f5f615a86565b5b602002602001018181525050846101c001600360048110613f8457613f83615a86565b5b602002013560001c81601f81518110613fa057613f9f615a86565b5b6020026020010181815250508461024001600060028110613fc457613fc3615a86565b5b602002013560001c81602081518110613fe057613fdf615a86565b5b602002602001018181525050846102400160016002811061400457614003615a86565b5b602002013560001c816021815181106140205761401f615a86565b5b602002602001018181525050836000600481106140405761403f615a86565b5b60200201518160228151811061405957614058615a86565b5b6020026020010181815250508360016004811061407957614078615a86565b5b60200201518160238151811061409257614091615a86565b5b602002602001018181525050836002600481106140b2576140b1615a86565b5b6020020151816024815181106140cb576140ca615a86565b5b602002602001018181525050836003600481106140eb576140ea615a86565b5b60200201518160258151811061410457614103615a86565b5b6020026020010181815250508273ffffffffffffffffffffffffffffffffffffffff168160268151811061413b5761413a615a86565b5b602002602001018181525050809150509392505050565b6000806001600060029054906101000a900473ffffffffffffffffffffffffffffffffffffffff1673ffffffffffffffffffffffffffffffffffffffff166305eb81e66040518163ffffffff1660e01b815260040160206040518083038186803b1580156141bf57600080fd5b505afa1580156141d3573d6000803e3d6000fd5b505050506040513d601f19601f820116820180604052508101906141f79190616519565b6142019190616976565b905060008190505b83811061435457600060029054906101000a900473ffffffffffffffffffffffffffffffffffffffff1673ffffffffffffffffffffffffffffffffffffffff1663bcb4dbc2600060029054906101000a900473ffffffffffffffffffffffffffffffffffffffff1673ffffffffffffffffffffffffffffffffffffffff16631c4206826040518163ffffffff1660e01b81526004016040805180830381600087803b1580156142b757600080fd5b505af11580156142cb573d6000803e3d6000fd5b505050506040513d601f19601f820116820180604052508101906142ef91906169ff565b600001516040518263ffffffff1660e01b815260040161430f9190616c81565b600060405180830381600087803b15801561432957600080fd5b505af115801561433d573d6000803e3d6000fd5b50505050808061434c90616c9c565b915050614209565b5082600060029054906101000a900473ffffffffffffffffffffffffffffffffffffffff1673ffffffffffffffffffffffffffffffffffffffff166305eb81e66040518163ffffffff1660e01b815260040160206040518083038186803b1580156143be57600080fd5b505afa1580156143d2573d6000803e3d6000fd5b505050506040513d601f19601f820116820180604052508101906143f69190616519565b14614436576040517f08c379a000000000000000000000000000000000000000000000000000000000815260040161442d90616d38565b60405180910390fd5b826001826144449190616d58565b61444e9190616976565b915050919050565b60008060019054906101000a900460ff161590508080156144875750600160008054906101000a900460ff1660ff16105b806144b45750614496306132dc565b1580156144b35750600160008054906101000a900460ff1660ff16145b5b6144f3576040517f08c379a00000000000000000000000000000000000000000000000000000000081526004016144ea906163c5565b60405180910390fd5b60016000806101000a81548160ff021916908360ff1602179055508015614530576001600060016101000a81548160ff0219169083151502179055505b6145393361370d565b80156145925760008060016101000a81548160ff0219169083151502179055507f7f26b83ff96e1f2b6a682f133852f6798a09c465da95921460cefb38474024986001604051614589919061642d565b60405180910390a15b50565b61459d61477b565b60006145d9836000600881106145b6576145b5615a86565b5b6020020151846001600881106145cf576145ce615a86565b5b60200201516146b8565b905060008061464a856002600881106145f5576145f4615a86565b5b60200201518660036008811061460e5761460d615a86565b5b60200201518760046008811061462757614626615a86565b5b6020020151886005600881106146405761463f615a86565b5b602002015161470a565b91509150600061468a8660066008811061466757614666615a86565b5b6020020151876007600881106146805761467f615a86565b5b60200201516146b8565b9050604051806080016040528085815260200184815260200183815260200182815250945050505050919050565b6000806002836146c89190616ddd565b7f80000000000000000000000000000000000000000000000000000000000000006146f39190616e0e565b905083816147019190616d58565b91505092915050565b60008061471786856146b8565b61472186856146b8565b9150915094509492505050565b82805482825590600052602060002090810192821561476a579160200282015b8281111561476957823582559160200191906001019061474e565b5b509050614777919061479d565b5090565b6040518060800160405280600490602082028036833780820191505090505090565b5b808211156147b657600081600090555060010161479e565b5090565b6000604051905090565b600080fd5b600080fd5b600080fd5b600060c082840312156147e9576147e86147ce565b5b81905092915050565b600080fd5b600080fd5b600080fd5b60008083601f840112614817576148166147f2565b5b8235905067ffffffffffffffff811115614834576148336147f7565b5b60208301915083610300820283011115614851576148506147fc565b5b9250929050565b6000819050919050565b61486b81614858565b811461487657600080fd5b50565b60008135905061488881614862565b92915050565b60008190508260c0600402820111156148aa576148a96147fc565b5b92915050565b6000819050826020600402820111156148cc576148cb6147fc565b5b92915050565b6000601f19601f8301169050919050565b7f4e487b7100000000000000000000000000000000000000000000000000000000600052604160045260246000fd5b61491b826148d2565b810181811067ffffffffffffffff8211171561493a576149396148e3565b5b80604052505050565b600061494d6147ba565b90506149598282614912565b919050565b600067ffffffffffffffff821115614979576149786148e3565b5b602082029050919050565b60006149976149928461495e565b614943565b905080602084028301858111156149b1576149b06147fc565b5b835b818110156149da57806149c68882614879565b8452602084019350506020810190506149b3565b5050509392505050565b600082601f8301126149f9576149f86147f2565b5b6008614a06848285614984565b91505092915050565b6000819050919050565b614a2281614a0f565b8114614a2d57600080fd5b50565b600081359050614a3f81614a19565b92915050565b600080600080600080600080610540898b031215614a6657614a656147c4565b5b6000614a748b828c016147d3565b98505060c089013567ffffffffffffffff811115614a9557614a946147c9565b5b614aa18b828c01614801565b975097505060e0614ab48b828c01614879565b955050610100614ac68b828c0161488e565b94505061040089013567ffffffffffffffff811115614ae857614ae76147c9565b5b614af48b828c016148b0565b935050610420614b068b828c016149e4565b925050610520614b188b828c01614a30565b9150509295985092959890939650565b600060208284031215614b3e57614b3d6147c4565b5b6000614b4c84828501614a30565b91505092915050565b600073ffffffffffffffffffffffffffffffffffffffff82169050919050565b6000614b8082614b55565b9050919050565b614b9081614b75565b82525050565b6000602082019050614bab6000830184614b87565b92915050565b60008060008060008060006101e0888a031215614bd157614bd06147c4565b5b6000614bdf8a828b016147d3565b97505060c088013567ffffffffffffffff811115614c0057614bff6147c9565b5b614c0c8a828b01614801565b965096505060e0614c1f8a828b016147d3565b9450506101a088013567ffffffffffffffff811115614c4157614c406147c9565b5b614c4d8a828b01614801565b93509350506101c0614c618a828b01614a30565b91505092959891949750929550565b60008060008060008060008060008060006102608c8e031215614c9657614c956147c4565b5b6000614ca48e828f016147d3565b9b505060c0614cb58e828f016147d3565b9a50506101808c013567ffffffffffffffff811115614cd757614cd66147c9565b5b614ce38e828f01614801565b99509950506101a08c013567ffffffffffffffff811115614d0757614d066147c9565b5b614d138e828f01614801565b97509750506101c0614d278e828f01614879565b9550506101e0614d398e828f01614879565b945050610200614d4b8e828f01614879565b935050610220614d5d8e828f01614879565b925050610240614d6f8e828f01614a30565b9150509295989b509295989b9093969950565b614d8b81614b75565b8114614d9657600080fd5b50565b600081359050614da881614d82565b92915050565b600060208284031215614dc457614dc36147c4565b5b6000614dd284828501614d99565b91505092915050565b600081905082602060210282011115614df757614df66147fc565b5b92915050565b600080600080600080600080610600898b031215614e1e57614e1d6147c4565b5b6000614e2c8b828c016147d3565b98505060c089013567ffffffffffffffff811115614e4d57614e4c6147c9565b5b614e598b828c01614801565b975097505060e0614e6c8b828c01614ddb565b955050610500614e7e8b828c016147d3565b9450506105c089013567ffffffffffffffff811115614ea057614e9f6147c9565b5b614eac8b828c01614801565b93509350506105e0614ec08b828c01614a30565b9150509295985092959890939650565b6000614edb82614b55565b9050919050565b614eeb81614ed0565b8114614ef657600080fd5b50565b600081359050614f0881614ee2565b92915050565b600060208284031215614f2457614f236147c4565b5b6000614f3284828501614ef9565b91505092915050565b600080600060608486031215614f5457614f536147c4565b5b6000614f6286828701614d99565b9350506020614f7386828701614879565b9250506040614f8486828701614879565b9150509250925092565b60008083601f840112614fa457614fa36147f2565b5b8235905067ffffffffffffffff811115614fc157614fc06147f7565b5b602083019150836020820283011115614fdd57614fdc6147fc565b5b9250929050565b60038110614ff157600080fd5b50565b60008135905061500381614fe4565b92915050565b600080600060408486031215615022576150216147c4565b5b600084013567ffffffffffffffff8111156150405761503f6147c9565b5b61504c86828701614f8e565b9350935050602061505f86828701614ff4565b9150509250925092565b6000806000806101008587031215615084576150836147c4565b5b6000615092878288016147d3565b94505060c085013567ffffffffffffffff8111156150b3576150b26147c9565b5b6150bf87828801614801565b935093505060e06150d287828801614879565b91505092959194509250565b6000602082840312156150f4576150f36147c4565b5b600061510284828501614ff4565b91505092915050565b600081519050919050565b600082825260208201905092915050565b6000819050602082019050919050565b61514081614858565b82525050565b60006151528383615137565b60208301905092915050565b6000602082019050919050565b60006151768261510b565b6151808185615116565b935061518b83615127565b8060005b838110156151bc5781516151a38882615146565b97506151ae8361515e565b92505060018101905061518f565b5085935050505092915050565b600060208201905081810360008301526151e3818461516b565b905092915050565b6000819050919050565b600061521061520b61520684614b55565b6151eb565b614b55565b9050919050565b6000615222826151f5565b9050919050565b600061523482615217565b9050919050565b61524481615229565b82525050565b600060208201905061525f600083018461523b565b92915050565b6000806040838503121561527c5761527b6147c4565b5b600061528a85828601614d99565b925050602061529b85828601614879565b9150509250929050565b6152ae81614858565b82525050565b60006020820190506152c960008301846152a5565b92915050565b600080604083850312156152e6576152e56147c4565b5b60006152f485828601614ff4565b925050602061530585828601614879565b9150509250929050565b600082825260208201905092915050565b7f596f7520617265206e6f742074686520626f6f74206368616c6c656e67657200600082015250565b6000615356601f8361530f565b915061536182615320565b602082019050919050565b6000602082019050818103600083015261538581615349565b9050919050565b600065ffffffffffff82169050919050565b6153a78161538c565b81146153b257600080fd5b50565b6000813590506153c48161539e565b92915050565b60006153d960208401846153b5565b905092915050565b6153ea8161538c565b82525050565b60006153ff6020840184614d99565b905092915050565b61541081614b75565b82525050565b60006154256020840184614a30565b905092915050565b61543681614a0f565b82525050565b600061544b6020840184614879565b905092915050565b60c0820161546460008301836153ca565b61547160008501826153e1565b5061547f60208301836153f0565b61548c6020850182615407565b5061549a6040830183615416565b6154a7604085018261542d565b506154b5606083018361543c565b6154c26060850182615137565b506154d06080830183615416565b6154dd608085018261542d565b506154eb60a0830183615416565b6154f860a085018261542d565b50505050565b600082825260208201905092915050565b6000819050919050565b60006dffffffffffffffffffffffffffff82169050919050565b61553c81615519565b811461554757600080fd5b50565b60008135905061555981615533565b92915050565b600061556e602084018461554a565b905092915050565b61557f81615519565b82525050565b60006155946020840184614ff4565b905092915050565b7f4e487b7100000000000000000000000000000000000000000000000000000000600052602160045260246000fd5b600381106155dc576155db61559c565b5b50565b60008190506155ed826155cb565b919050565b60006155fd826155df565b9050919050565b61560d816155f2565b82525050565b6003811061562057600080fd5b50565b60008135905061563281615613565b92915050565b60006156476020840184615623565b905092915050565b600381106156605761565f61559c565b5b50565b60008190506156718261564f565b919050565b600061568182615663565b9050919050565b61569181615676565b82525050565b600082905092915050565b600060049050919050565b600081905092915050565b6000819050919050565b600067ffffffffffffffff82169050919050565b6156df816156c2565b82525050565b60006156f183836156d6565b60208301905092915050565b615706816156c2565b811461571157600080fd5b50565b600081359050615723816156fd565b92915050565b60006157386020840184615714565b905092915050565b6000602082019050919050565b615756816156a2565b61576081846156ad565b925061576b826156b8565b8060005b838110156157a4576157818284615729565b61578b87826156e5565b965061579683615740565b92505060018101905061576f565b505050505050565b600082905092915050565b82818337600083830152505050565b6157d2606083836157b7565b5050565b600082905092915050565b6157ed608083836157b7565b5050565b600082905092915050565b615808604083836157b7565b5050565b600082905092915050565b615823608083836157b7565b5050565b6103008201615839600083018361555f565b6158466000850182615576565b50615854602083018361555f565b6158616020850182615576565b5061586f6040830183615585565b61587c6040850182615604565b5061588a6060830183615638565b6158976060850182615688565b506158a56080830183615697565b6158b2608085018261574d565b506158c1610100830183615416565b6158cf61010085018261542d565b506158de610120830183615416565b6158ec61012085018261542d565b506158fb610140830183615416565b61590961014085018261542d565b506159186101608301836157ac565b6159266101608501826157c6565b506159356101c08301836157d6565b6159436101c08501826157e1565b506159526102408301836157f1565b6159606102408501826157fc565b5061596f61028083018361580c565b61597d610280850182615817565b50505050565b600061598f8383615827565b6103008301905092915050565b600082905092915050565b600061030082019050919050565b60006159c183856154fe565b93506159cc8261550f565b8060005b85811015615a05576159e2828461599c565b6159ec8882615983565b97506159f7836159a7565b9250506001810190506159d0565b5085925050509392505050565b600060e082019050615a276000830186615453565b81810360c0830152615a3a8184866159b5565b9050949350505050565b600081519050615a5381614a19565b92915050565b600060208284031215615a6f57615a6e6147c4565b5b6000615a7d84828501615a44565b91505092915050565b7f4e487b7100000000000000000000000000000000000000000000000000000000600052603260045260246000fd5b600080fd5b600080fd5b600080fd5b60008083356001602003843603038112615ae157615ae0615ab5565b5b80840192508235915067ffffffffffffffff821115615b0357615b02615aba565b5b60208301925061030082023603831315615b2057615b1f615abf565b5b509250929050565b600060208284031215615b3e57615b3d6147c4565b5b6000615b4c84828501615714565b91505092915050565b7f496e636f727265637420686973746f72696320726f6f7420626c6f636b000000600082015250565b6000615b8b601d8361530f565b9150615b9682615b55565b602082019050919050565b60006020820190508181036000830152615bba81615b7e565b9050919050565b600060208284031215615bd757615bd66147c4565b5b6000615be5848285016153b5565b91505092915050565b615bf78161538c565b82525050565b615c0681614b75565b82525050565b615c1581614a0f565b82525050565b615c2481614858565b82525050565b60c08201615c3b60008301836153ca565b615c486000850182615bee565b50615c5660208301836153f0565b615c636020850182615bfd565b50615c716040830183615416565b615c7e6040850182615c0c565b50615c8c606083018361543c565b615c996060850182615c1b565b50615ca76080830183615416565b615cb46080850182615c0c565b50615cc260a0830183615416565b615ccf60a0850182615c0c565b50505050565b600082825260208201905092915050565b615cef81615519565b82525050565b615cfe816155f2565b82525050565b615d0d81615676565b82525050565b600081905092915050565b615d27816156c2565b82525050565b6000615d398383615d1e565b60208301905092915050565b615d4e816156a2565b615d588184615d13565b9250615d63826156b8565b8060005b83811015615d9c57615d798284615729565b615d838782615d2d565b9650615d8e83615740565b925050600181019050615d67565b505050505050565b615db0606083836157b7565b5050565b615dc0608083836157b7565b5050565b615dd0604083836157b7565b5050565b615de0608083836157b7565b5050565b6103008201615df6600083018361555f565b615e036000850182615ce6565b50615e11602083018361555f565b615e1e6020850182615ce6565b50615e2c6040830183615585565b615e396040850182615cf5565b50615e476060830183615638565b615e546060850182615d04565b50615e626080830183615697565b615e6f6080850182615d45565b50615e7e610100830183615416565b615e8c610100850182615c0c565b50615e9b610120830183615416565b615ea9610120850182615c0c565b50615eb8610140830183615416565b615ec6610140850182615c0c565b50615ed56101608301836157ac565b615ee3610160850182615da4565b50615ef26101c08301836157d6565b615f006101c0850182615db4565b50615f0f6102408301836157f1565b615f1d610240850182615dc4565b50615f2c61028083018361580c565b615f3a610280850182615dd4565b50505050565b6000615f4c8383615de4565b6103008301905092915050565b6000615f658385615cd5565b9350615f708261550f565b8060005b85811015615fa957615f86828461599c565b615f908882615f40565b9750615f9b836159a7565b925050600181019050615f74565b5085925050509392505050565b6000615fd1615fcc615fc78461538c565b6151eb565b614858565b9050919050565b615fe181615fb6565b82525050565b600061010082019050615ffd6000830187615c2a565b81810360c0830152616010818587615f59565b905061601f60e0830184615fd8565b95945050505050565b610300820161603a600083018361555f565b6160476000850182615ce6565b50616055602083018361555f565b6160626020850182615ce6565b506160706040830183615585565b61607d6040850182615cf5565b5061608b6060830183615638565b6160986060850182615d04565b506160a66080830183615697565b6160b36080850182615d45565b506160c2610100830183615416565b6160d0610100850182615c0c565b506160df610120830183615416565b6160ed610120850182615c0c565b506160fc610140830183615416565b61610a610140850182615c0c565b506161196101608301836157ac565b616127610160850182615da4565b506161366101c08301836157d6565b6161446101c0850182615db4565b506161536102408301836157f1565b616161610240850182615dc4565b5061617061028083018361580c565b61617e610280850182615dd4565b50505050565b61618d81614858565b82525050565b6000610640820190506161a96000830187616028565b6161b7610300830186616184565b6161c5610320830185616028565b6161d3610620830184616184565b95945050505050565b7f43616e6e6f74206265207468652073616d6520696e6465780000000000000000600082015250565b600061621260188361530f565b915061621d826161dc565b602082019050919050565b6000602082019050818103600083015261624181616205565b9050919050565b7f596f7520617265206e6f7420617574686f726973656420746f20696e766f6b6560008201527f20746869732066756e6374696f6e000000000000000000000000000000000000602082015250565b60006162a4602e8361530f565b91506162af82616248565b604082019050919050565b600060208201905081810360008301526162d381616297565b9050919050565b6162e761042083836157b7565b5050565b60006105e082019050616301600083018a615c2a565b81810360c083015261631481888a615f59565b905061632360e08301876162da565b616331610500830186615c2a565b8181036105c0830152616345818486615f59565b905098975050505050505050565b7f496e697469616c697a61626c653a20636f6e747261637420697320616c72656160008201527f647920696e697469616c697a6564000000000000000000000000000000000000602082015250565b60006163af602e8361530f565b91506163ba82616353565b604082019050919050565b600060208201905081810360008301526163de816163a2565b9050919050565b6000819050919050565b600060ff82169050919050565b600061641761641261640d846163e5565b6151eb565b6163ef565b9050919050565b616427816163fc565b82525050565b6000602082019050616442600083018461641e565b92915050565b7f4f6e6c7920746865206f776e65722063616e2063616c6c20746869732c206f6e60008201527f63652e0000000000000000000000000000000000000000000000000000000000602082015250565b60006164a460238361530f565b91506164af82616448565b604082019050919050565b600060208201905081810360008301526164d381616497565b9050919050565b6164e3816155f2565b82525050565b60006020820190506164fe60008301846164da565b92915050565b60008151905061651381614862565b92915050565b60006020828403121561652f5761652e6147c4565b5b600061653d84828501616504565b91505092915050565b7f486973746f72696320726f6f747320617265206e6f742067726561746572207460008201527f68616e204c32426c6f636b4e756d626572206f6e20636861696e000000000000602082015250565b60006165a2603a8361530f565b91506165ad82616546565b604082019050919050565b600060208201905081810360008301526165d181616595565b9050919050565b7f4861736820616c726561647920636f6d6d697474656420746f00000000000000600082015250565b600061660e60198361530f565b9150616619826165d8565b602082019050919050565b6000602082019050818103600083015261663d81616601565b9050919050565b61664d81614a0f565b82525050565b60006040820190506166686000830185616644565b6166756020830184614b87565b9392505050565b60006040820190506166916000830185614b87565b61669e6020830184614b87565b9392505050565b600081905092915050565b60006166bc83856166a5565b93506166c98385846157b7565b82840190509392505050565b60006166e28284866166b0565b91508190509392505050565b7f436f6d6d69746d656e74206861736820697320696e76616c6964000000000000600082015250565b6000616724601a8361530f565b915061672f826166ee565b602082019050919050565b6000602082019050818103600083015261675381616717565b9050919050565b7f4e487b7100000000000000000000000000000000000000000000000000000000600052601160045260246000fd5b600061679482614858565b91507fffffffffffffffffffffffffffffffffffffffffffffffffffffffffffffffff8214156167c7576167c661675a565b5b600182019050919050565b600082825260208201905092915050565b60006167ef8383615c1b565b60208301905092915050565b60006168068261510b565b61681081856167d2565b935061681b83615127565b8060005b8381101561684c57815161683388826167e3565b975061683e8361515e565b92505060018101905061681f565b5085935050505092915050565b6000606082019050818103600083015261687381866167fb565b9050818103602083015261688781856167fb565b9050818103604083015261689b81846167fb565b9050949350505050565b60008115159050919050565b6168ba816168a5565b81146168c557600080fd5b50565b6000815190506168d7816168b1565b92915050565b6000602082840312156168f3576168f26147c4565b5b6000616901848285016168c8565b91505092915050565b7f546869732070726f6f66206170706561727320746f2062652076616c69640000600082015250565b6000616940601e8361530f565b915061694b8261690a565b602082019050919050565b6000602082019050818103600083015261696f81616933565b9050919050565b600061698182614858565b915061698c83614858565b92508282101561699f5761699e61675a565b5b828203905092915050565b600080fd5b6000604082840312156169c5576169c46169aa565b5b6169cf6040614943565b905060006169df84828501615a44565b60008301525060206169f384828501616504565b60208301525092915050565b600060408284031215616a1557616a146147c4565b5b6000616a23848285016169af565b91505092915050565b7f43616e6e6f74206368616c6c656e676520626c6f636b00000000000000000000600082015250565b6000616a6260168361530f565b9150616a6d82616a2c565b602082019050919050565b60006020820190508181036000830152616a9181616a55565b9050919050565b6000606082019050616aad6000830186614b87565b616aba6020830185614b87565b616ac760408301846152a5565b949350505050565b600060049050919050565b600081905092915050565b6000819050919050565b616af881614858565b82525050565b6000616b0a8383616aef565b60208301905092915050565b6000602082019050919050565b616b2c81616acf565b616b368184616ada565b9250616b4182616ae5565b8060005b83811015616b72578151616b598782616afe565b9650616b6483616b16565b925050600181019050616b45565b505050505050565b6000616b868284616b23565b60808201915081905092915050565b7f43616e6e6f7420726563726561746520636f6d707265737365642070726f6f6660008201527f2066726f6d20756e636f6d707265737365642070726f6f660000000000000000602082015250565b6000616bf160388361530f565b9150616bfc82616b95565b604082019050919050565b60006020820190508181036000830152616c2081616be4565b9050919050565b600060208284031215616c3d57616c3c6147c4565b5b6000616c4b8482850161554a565b91505092915050565b600060208284031215616c6a57616c696147c4565b5b6000616c7884828501615623565b91505092915050565b6000602082019050616c966000830184616644565b92915050565b6000616ca782614858565b91506000821415616cbb57616cba61675a565b5b600182039050919050565b7f4e756d6265722072656d61696e696e67206e6f7420617320657870656374656460008201527f2e00000000000000000000000000000000000000000000000000000000000000602082015250565b6000616d2260218361530f565b9150616d2d82616cc6565b604082019050919050565b60006020820190508181036000830152616d5181616d15565b9050919050565b6000616d6382614858565b9150616d6e83614858565b9250827fffffffffffffffffffffffffffffffffffffffffffffffffffffffffffffffff03821115616da357616da261675a565b5b828201905092915050565b7f4e487b7100000000000000000000000000000000000000000000000000000000600052601260045260246000fd5b6000616de882614858565b9150616df383614858565b925082616e0357616e02616dae565b5b828206905092915050565b6000616e1982614858565b9150616e2483614858565b9250817fffffffffffffffffffffffffffffffffffffffffffffffffffffffffffffffff0483118215151615616e5d57616e5c61675a565b5b82820290509291505056fea26469706673582212209928cda2e2cd8138edcdcbcbfc21272a7eb2b67285f79615ebfa6f11c3e6156564736f6c63430008090033",
  "linkReferences": {
    "contracts/ChallengesUtil.sol": {
      "ChallengesUtil": [
        {
          "length": 20,
          "start": 4618
        },
        {
          "length": 20,
          "start": 4960
        },
        {
          "length": 20,
          "start": 6409
        },
        {
          "length": 20,
          "start": 6698
        }
      ]
    },
    "contracts/Verifier.sol": {
      "Verifier": [
        {
          "length": 20,
          "start": 12257
        }
      ]
    }
  },
  "deployedLinkReferences": {
    "contracts/ChallengesUtil.sol": {
      "ChallengesUtil": [
        {
          "length": 20,
          "start": 4585
        },
        {
          "length": 20,
          "start": 4927
        },
        {
          "length": 20,
          "start": 6376
        },
        {
          "length": 20,
          "start": 6665
        }
      ]
    },
    "contracts/Verifier.sol": {
      "Verifier": [
        {
          "length": 20,
          "start": 12224
        }
      ]
    }
  }
}