{
  "_format": "hh-sol-artifact-1",
  "contractName": "State",
  "sourceName": "contracts/State.sol",
  "abi": [
    {
      "anonymous": false,
      "inputs": [],
      "name": "BlockProposed",
      "type": "event"
    },
    {
      "anonymous": false,
      "inputs": [
        {
          "indexed": false,
          "internalType": "bytes32",
          "name": "commitHash",
          "type": "bytes32"
        },
        {
          "indexed": false,
          "internalType": "address",
          "name": "sender",
          "type": "address"
        }
      ],
      "name": "CommittedToChallenge",
      "type": "event"
    },
    {
      "anonymous": false,
      "inputs": [
        {
          "indexed": false,
          "internalType": "uint8",
          "name": "version",
          "type": "uint8"
        }
      ],
      "name": "Initialized",
      "type": "event"
    },
    {
      "anonymous": false,
      "inputs": [
        {
          "indexed": false,
          "internalType": "bytes32",
          "name": "withdrawTransactionHash",
          "type": "bytes32"
        },
        {
          "indexed": false,
          "internalType": "address",
          "name": "paidBy",
          "type": "address"
        },
        {
          "indexed": false,
          "internalType": "uint256",
          "name": "amount",
          "type": "uint256"
        }
      ],
      "name": "InstantWithdrawalRequested",
      "type": "event"
    },
    {
      "anonymous": false,
      "inputs": [
        {
          "indexed": false,
          "internalType": "address",
          "name": "addr",
          "type": "address"
        }
      ],
      "name": "NewBootChallengerSet",
      "type": "event"
    },
    {
      "anonymous": false,
      "inputs": [
        {
          "indexed": false,
          "internalType": "address",
          "name": "addr",
          "type": "address"
        }
      ],
      "name": "NewBootProposerSet",
      "type": "event"
    },
    {
      "anonymous": false,
      "inputs": [
        {
          "indexed": false,
          "internalType": "address",
          "name": "proposer",
          "type": "address"
        }
      ],
      "name": "NewCurrentProposer",
      "type": "event"
    },
    {
      "anonymous": false,
      "inputs": [
        {
          "indexed": false,
          "internalType": "uint256",
          "name": "leafIndex",
          "type": "uint256"
        },
        {
          "indexed": false,
          "internalType": "bytes32",
          "name": "leafValue",
          "type": "bytes32"
        },
        {
          "indexed": false,
          "internalType": "bytes32",
          "name": "root",
          "type": "bytes32"
        }
      ],
      "name": "NewLeaf",
      "type": "event"
    },
    {
      "anonymous": false,
      "inputs": [
        {
          "indexed": false,
          "internalType": "uint256",
          "name": "minLeafIndex",
          "type": "uint256"
        },
        {
          "indexed": false,
          "internalType": "bytes32[]",
          "name": "leafValues",
          "type": "bytes32[]"
        },
        {
          "indexed": false,
          "internalType": "bytes32",
          "name": "root",
          "type": "bytes32"
        }
      ],
      "name": "NewLeaves",
      "type": "event"
    },
    {
      "anonymous": false,
      "inputs": [
        {
          "indexed": false,
          "internalType": "address",
          "name": "previousOwner",
          "type": "address"
        },
        {
          "indexed": false,
          "internalType": "address",
          "name": "newOwner",
          "type": "address"
        }
      ],
      "name": "OwnershipTransferred",
      "type": "event"
    },
    {
      "anonymous": false,
      "inputs": [
        {
          "indexed": false,
          "internalType": "address",
          "name": "account",
          "type": "address"
        }
      ],
      "name": "Paused",
      "type": "event"
    },
    {
      "anonymous": false,
      "inputs": [
        {
          "indexed": false,
          "internalType": "uint256",
          "name": "blockNumberL2",
          "type": "uint256"
        }
      ],
      "name": "Rollback",
      "type": "event"
    },
    {
      "anonymous": false,
      "inputs": [
        {
          "indexed": false,
          "internalType": "address",
          "name": "ercAddress",
          "type": "address"
        },
        {
          "indexed": false,
          "internalType": "uint256",
          "name": "amount",
          "type": "uint256"
        }
      ],
      "name": "ShieldBalanceTransferred",
      "type": "event"
    },
    {
      "anonymous": false,
      "inputs": [],
      "name": "TransactionSubmitted",
      "type": "event"
    },
    {
      "anonymous": false,
      "inputs": [
        {
          "indexed": false,
          "internalType": "address",
          "name": "account",
          "type": "address"
        }
      ],
      "name": "Unpaused",
      "type": "event"
    },
    {
      "inputs": [],
      "name": "_owner",
      "outputs": [
        {
          "internalType": "address",
          "name": "",
          "type": "address"
        }
      ],
      "stateMutability": "view",
      "type": "function"
    },
    {
      "inputs": [
        {
          "internalType": "address",
          "name": "addr",
          "type": "address"
        },
        {
          "internalType": "uint256",
          "name": "amountEth",
          "type": "uint256"
        },
        {
          "internalType": "uint256",
          "name": "amountMatic",
          "type": "uint256"
        }
      ],
      "name": "addPendingWithdrawal",
      "outputs": [],
      "stateMutability": "nonpayable",
      "type": "function"
    },
    {
      "inputs": [
        {
          "components": [
            {
              "internalType": "uint48",
              "name": "leafCount",
              "type": "uint48"
            },
            {
              "internalType": "address",
              "name": "proposer",
              "type": "address"
            },
            {
              "internalType": "bytes32",
              "name": "root",
              "type": "bytes32"
            },
            {
              "internalType": "uint256",
              "name": "blockNumberL2",
              "type": "uint256"
            },
            {
              "internalType": "bytes32",
              "name": "previousBlockHash",
              "type": "bytes32"
            },
            {
              "internalType": "bytes32",
              "name": "transactionHashesRoot",
              "type": "bytes32"
            }
          ],
          "internalType": "struct Structures.Block",
          "name": "b",
          "type": "tuple"
        },
        {
          "components": [
            {
              "internalType": "uint112",
              "name": "value",
              "type": "uint112"
            },
            {
              "internalType": "uint112",
              "name": "fee",
              "type": "uint112"
            },
            {
              "internalType": "enum Structures.TransactionTypes",
              "name": "transactionType",
              "type": "uint8"
            },
            {
              "internalType": "enum Structures.TokenType",
              "name": "tokenType",
              "type": "uint8"
            },
            {
              "internalType": "uint64[4]",
              "name": "historicRootBlockNumberL2",
              "type": "uint64[4]"
            },
            {
              "internalType": "bytes32",
              "name": "tokenId",
              "type": "bytes32"
            },
            {
              "internalType": "bytes32",
              "name": "ercAddress",
              "type": "bytes32"
            },
            {
              "internalType": "bytes32",
              "name": "recipientAddress",
              "type": "bytes32"
            },
            {
              "internalType": "bytes32[3]",
              "name": "commitments",
              "type": "bytes32[3]"
            },
            {
              "internalType": "bytes32[4]",
              "name": "nullifiers",
              "type": "bytes32[4]"
            },
            {
              "internalType": "bytes32[2]",
              "name": "compressedSecrets",
              "type": "bytes32[2]"
            },
            {
              "internalType": "uint256[4]",
              "name": "proof",
              "type": "uint256[4]"
            }
          ],
          "internalType": "struct Structures.Transaction",
          "name": "t",
          "type": "tuple"
        },
        {
          "internalType": "uint256",
          "name": "index",
          "type": "uint256"
        },
        {
          "internalType": "bytes32[]",
          "name": "siblingPath",
          "type": "bytes32[]"
        }
      ],
      "name": "areBlockAndTransactionReal",
      "outputs": [],
      "stateMutability": "view",
      "type": "function"
    },
    {
      "inputs": [
        {
          "components": [
            {
              "internalType": "uint48",
              "name": "leafCount",
              "type": "uint48"
            },
            {
              "internalType": "address",
              "name": "proposer",
              "type": "address"
            },
            {
              "internalType": "bytes32",
              "name": "root",
              "type": "bytes32"
            },
            {
              "internalType": "uint256",
              "name": "blockNumberL2",
              "type": "uint256"
            },
            {
              "internalType": "bytes32",
              "name": "previousBlockHash",
              "type": "bytes32"
            },
            {
              "internalType": "bytes32",
              "name": "transactionHashesRoot",
              "type": "bytes32"
            }
          ],
          "internalType": "struct Structures.Block",
          "name": "b",
          "type": "tuple"
        },
        {
          "components": [
            {
              "internalType": "uint112",
              "name": "value",
              "type": "uint112"
            },
            {
              "internalType": "uint112",
              "name": "fee",
              "type": "uint112"
            },
            {
              "internalType": "enum Structures.TransactionTypes",
              "name": "transactionType",
              "type": "uint8"
            },
            {
              "internalType": "enum Structures.TokenType",
              "name": "tokenType",
              "type": "uint8"
            },
            {
              "internalType": "uint64[4]",
              "name": "historicRootBlockNumberL2",
              "type": "uint64[4]"
            },
            {
              "internalType": "bytes32",
              "name": "tokenId",
              "type": "bytes32"
            },
            {
              "internalType": "bytes32",
              "name": "ercAddress",
              "type": "bytes32"
            },
            {
              "internalType": "bytes32",
              "name": "recipientAddress",
              "type": "bytes32"
            },
            {
              "internalType": "bytes32[3]",
              "name": "commitments",
              "type": "bytes32[3]"
            },
            {
              "internalType": "bytes32[4]",
              "name": "nullifiers",
              "type": "bytes32[4]"
            },
            {
              "internalType": "bytes32[2]",
              "name": "compressedSecrets",
              "type": "bytes32[2]"
            },
            {
              "internalType": "uint256[4]",
              "name": "proof",
              "type": "uint256[4]"
            }
          ],
          "internalType": "struct Structures.Transaction[]",
          "name": "ts",
          "type": "tuple[]"
        }
      ],
      "name": "areBlockAndTransactionsReal",
      "outputs": [
        {
          "internalType": "bytes32",
          "name": "",
          "type": "bytes32"
        }
      ],
      "stateMutability": "view",
      "type": "function"
    },
    {
      "inputs": [
        {
          "internalType": "uint256",
          "name": "",
          "type": "uint256"
        }
      ],
      "name": "blockHashes",
      "outputs": [
        {
          "internalType": "bytes32",
          "name": "blockHash",
          "type": "bytes32"
        },
        {
          "internalType": "uint256",
          "name": "time",
          "type": "uint256"
        }
      ],
      "stateMutability": "view",
      "type": "function"
    },
    {
      "inputs": [
        {
          "internalType": "address",
          "name": "",
          "type": "address"
        }
      ],
      "name": "bondAccounts",
      "outputs": [
        {
          "internalType": "uint256",
          "name": "amount",
          "type": "uint256"
        },
        {
          "internalType": "uint256",
          "name": "time",
          "type": "uint256"
        }
      ],
      "stateMutability": "view",
      "type": "function"
    },
    {
      "inputs": [],
      "name": "challengesAddress",
      "outputs": [
        {
          "internalType": "address",
          "name": "",
          "type": "address"
        }
      ],
      "stateMutability": "view",
      "type": "function"
    },
    {
      "inputs": [
        {
          "internalType": "bytes32",
          "name": "",
          "type": "bytes32"
        }
      ],
      "name": "claimedBlockStakes",
      "outputs": [
        {
          "internalType": "bool",
          "name": "",
          "type": "bool"
        }
      ],
      "stateMutability": "view",
      "type": "function"
    },
    {
      "inputs": [],
      "name": "currentProposer",
      "outputs": [
        {
          "internalType": "address",
          "name": "thisAddress",
          "type": "address"
        },
        {
          "internalType": "address",
          "name": "previousAddress",
          "type": "address"
        },
        {
          "internalType": "address",
          "name": "nextAddress",
          "type": "address"
        },
        {
          "internalType": "string",
          "name": "url",
          "type": "string"
        }
      ],
      "stateMutability": "view",
      "type": "function"
    },
    {
      "inputs": [
        {
          "internalType": "address",
          "name": "addr",
          "type": "address"
        }
      ],
      "name": "deleteProposer",
      "outputs": [],
      "stateMutability": "nonpayable",
      "type": "function"
    },
    {
      "inputs": [
        {
          "internalType": "uint256",
          "name": "blockNumberL2ToRollbackTo",
          "type": "uint256"
        }
      ],
      "name": "emitRollback",
      "outputs": [],
      "stateMutability": "nonpayable",
      "type": "function"
    },
    {
      "inputs": [
        {
          "internalType": "bytes32",
          "name": "",
          "type": "bytes32"
        },
        {
          "internalType": "uint256",
          "name": "",
          "type": "uint256"
        }
      ],
      "name": "feeBook",
      "outputs": [
        {
          "internalType": "uint256",
          "name": "",
          "type": "uint256"
        }
      ],
      "stateMutability": "view",
      "type": "function"
    },
    {
      "inputs": [],
      "name": "getAllBlockData",
      "outputs": [
        {
          "components": [
            {
              "internalType": "bytes32",
              "name": "blockHash",
              "type": "bytes32"
            },
            {
              "internalType": "uint256",
              "name": "time",
              "type": "uint256"
            }
          ],
          "internalType": "struct Structures.BlockData[]",
          "name": "",
          "type": "tuple[]"
        }
      ],
      "stateMutability": "view",
      "type": "function"
    },
    {
      "inputs": [
        {
          "internalType": "uint256",
          "name": "blockNumberL2",
          "type": "uint256"
        }
      ],
      "name": "getBlockData",
      "outputs": [
        {
          "components": [
            {
              "internalType": "bytes32",
              "name": "blockHash",
              "type": "bytes32"
            },
            {
              "internalType": "uint256",
              "name": "time",
              "type": "uint256"
            }
          ],
          "internalType": "struct Structures.BlockData",
          "name": "",
          "type": "tuple"
        }
      ],
      "stateMutability": "view",
      "type": "function"
    },
    {
      "inputs": [
        {
          "internalType": "address",
          "name": "addr",
          "type": "address"
        }
      ],
      "name": "getBondAccount",
      "outputs": [
        {
          "components": [
            {
              "internalType": "uint256",
              "name": "amount",
              "type": "uint256"
            },
            {
              "internalType": "uint256",
              "name": "time",
              "type": "uint256"
            }
          ],
          "internalType": "struct Structures.TimeLockedBond",
          "name": "",
          "type": "tuple"
        }
      ],
      "stateMutability": "view",
      "type": "function"
    },
    {
      "inputs": [],
      "name": "getBootChallenger",
      "outputs": [
        {
          "internalType": "address",
          "name": "",
          "type": "address"
        }
      ],
      "stateMutability": "view",
      "type": "function"
    },
    {
      "inputs": [],
      "name": "getBootProposer",
      "outputs": [
        {
          "internalType": "address",
          "name": "",
          "type": "address"
        }
      ],
      "stateMutability": "view",
      "type": "function"
    },
    {
      "inputs": [],
      "name": "getCurrentProposer",
      "outputs": [
        {
          "components": [
            {
              "internalType": "address",
              "name": "thisAddress",
              "type": "address"
            },
            {
              "internalType": "address",
              "name": "previousAddress",
              "type": "address"
            },
            {
              "internalType": "address",
              "name": "nextAddress",
              "type": "address"
            },
            {
              "internalType": "string",
              "name": "url",
              "type": "string"
            }
          ],
          "internalType": "struct Structures.LinkedAddress",
          "name": "",
          "type": "tuple"
        }
      ],
      "stateMutability": "view",
      "type": "function"
    },
    {
      "inputs": [
        {
          "internalType": "address",
          "name": "proposer",
          "type": "address"
        },
        {
          "internalType": "uint256",
          "name": "blockNumberL2",
          "type": "uint256"
        }
      ],
      "name": "getFeeBookInfo",
      "outputs": [
        {
          "internalType": "uint256",
          "name": "",
          "type": "uint256"
        },
        {
          "internalType": "uint256",
          "name": "",
          "type": "uint256"
        }
      ],
      "stateMutability": "view",
      "type": "function"
    },
    {
      "inputs": [],
      "name": "getLatestBlockHash",
      "outputs": [
        {
          "internalType": "bytes32",
          "name": "",
          "type": "bytes32"
        }
      ],
      "stateMutability": "view",
      "type": "function"
    },
    {
      "inputs": [],
      "name": "getMaticAddress",
      "outputs": [
        {
          "internalType": "address",
          "name": "",
          "type": "address"
        }
      ],
      "stateMutability": "view",
      "type": "function"
    },
    {
      "inputs": [],
      "name": "getNumberOfL2Blocks",
      "outputs": [
        {
          "internalType": "uint256",
          "name": "",
          "type": "uint256"
        }
      ],
      "stateMutability": "view",
      "type": "function"
    },
    {
      "inputs": [
        {
          "internalType": "address",
          "name": "addr",
          "type": "address"
        }
      ],
      "name": "getProposer",
      "outputs": [
        {
          "components": [
            {
              "internalType": "address",
              "name": "thisAddress",
              "type": "address"
            },
            {
              "internalType": "address",
              "name": "previousAddress",
              "type": "address"
            },
            {
              "internalType": "address",
              "name": "nextAddress",
              "type": "address"
            },
            {
              "internalType": "string",
              "name": "url",
              "type": "string"
            }
          ],
          "internalType": "struct Structures.LinkedAddress",
          "name": "",
          "type": "tuple"
        }
      ],
      "stateMutability": "view",
      "type": "function"
    },
    {
      "inputs": [],
      "name": "getProposerStartBlock",
      "outputs": [
        {
          "internalType": "uint256",
          "name": "",
          "type": "uint256"
        }
      ],
      "stateMutability": "view",
      "type": "function"
    },
    {
      "inputs": [
        {
          "internalType": "address",
          "name": "tokenAddr",
          "type": "address"
        },
        {
          "internalType": "uint256",
          "name": "transactionType",
          "type": "uint256"
        }
      ],
      "name": "getRestriction",
      "outputs": [
        {
          "internalType": "uint256",
          "name": "",
          "type": "uint256"
        }
      ],
      "stateMutability": "view",
      "type": "function"
    },
    {
      "inputs": [],
      "name": "initialize",
      "outputs": [],
      "stateMutability": "nonpayable",
      "type": "function"
    },
    {
      "inputs": [
        {
          "internalType": "address",
          "name": "_proposersAddress",
          "type": "address"
        },
        {
          "internalType": "address",
          "name": "_challengesAddress",
          "type": "address"
        },
        {
          "internalType": "address",
          "name": "_shieldAddress",
          "type": "address"
        }
      ],
      "name": "initialize",
      "outputs": [],
      "stateMutability": "nonpayable",
      "type": "function"
    },
    {
      "inputs": [
        {
          "internalType": "bytes32",
          "name": "blockHash",
          "type": "bytes32"
        }
      ],
      "name": "isBlockStakeWithdrawn",
      "outputs": [
        {
          "internalType": "bool",
          "name": "",
          "type": "bool"
        }
      ],
      "stateMutability": "view",
      "type": "function"
    },
    {
      "inputs": [],
      "name": "owner",
      "outputs": [
        {
          "internalType": "address",
          "name": "",
          "type": "address"
        }
      ],
      "stateMutability": "view",
      "type": "function"
    },
    {
      "inputs": [],
      "name": "pause",
      "outputs": [],
      "stateMutability": "nonpayable",
      "type": "function"
    },
    {
      "inputs": [],
      "name": "paused",
      "outputs": [
        {
          "internalType": "bool",
          "name": "",
          "type": "bool"
        }
      ],
      "stateMutability": "view",
      "type": "function"
    },
    {
      "inputs": [
        {
          "internalType": "address",
          "name": "",
          "type": "address"
        },
        {
          "internalType": "uint256",
          "name": "",
          "type": "uint256"
        }
      ],
      "name": "pendingWithdrawals",
      "outputs": [
        {
          "internalType": "uint256",
          "name": "",
          "type": "uint256"
        }
      ],
      "stateMutability": "view",
      "type": "function"
    },
    {
      "inputs": [],
      "name": "popBlockData",
      "outputs": [
        {
          "components": [
            {
              "internalType": "bytes32",
              "name": "blockHash",
              "type": "bytes32"
            },
            {
              "internalType": "uint256",
              "name": "time",
              "type": "uint256"
            }
          ],
          "internalType": "struct Structures.BlockData",
          "name": "",
          "type": "tuple"
        }
      ],
      "stateMutability": "nonpayable",
      "type": "function"
    },
    {
      "inputs": [
        {
          "components": [
            {
              "internalType": "uint48",
              "name": "leafCount",
              "type": "uint48"
            },
            {
              "internalType": "address",
              "name": "proposer",
              "type": "address"
            },
            {
              "internalType": "bytes32",
              "name": "root",
              "type": "bytes32"
            },
            {
              "internalType": "uint256",
              "name": "blockNumberL2",
              "type": "uint256"
            },
            {
              "internalType": "bytes32",
              "name": "previousBlockHash",
              "type": "bytes32"
            },
            {
              "internalType": "bytes32",
              "name": "transactionHashesRoot",
              "type": "bytes32"
            }
          ],
          "internalType": "struct Structures.Block",
          "name": "b",
          "type": "tuple"
        },
        {
          "components": [
            {
              "internalType": "uint112",
              "name": "value",
              "type": "uint112"
            },
            {
              "internalType": "uint112",
              "name": "fee",
              "type": "uint112"
            },
            {
              "internalType": "enum Structures.TransactionTypes",
              "name": "transactionType",
              "type": "uint8"
            },
            {
              "internalType": "enum Structures.TokenType",
              "name": "tokenType",
              "type": "uint8"
            },
            {
              "internalType": "uint64[4]",
              "name": "historicRootBlockNumberL2",
              "type": "uint64[4]"
            },
            {
              "internalType": "bytes32",
              "name": "tokenId",
              "type": "bytes32"
            },
            {
              "internalType": "bytes32",
              "name": "ercAddress",
              "type": "bytes32"
            },
            {
              "internalType": "bytes32",
              "name": "recipientAddress",
              "type": "bytes32"
            },
            {
              "internalType": "bytes32[3]",
              "name": "commitments",
              "type": "bytes32[3]"
            },
            {
              "internalType": "bytes32[4]",
              "name": "nullifiers",
              "type": "bytes32[4]"
            },
            {
              "internalType": "bytes32[2]",
              "name": "compressedSecrets",
              "type": "bytes32[2]"
            },
            {
              "internalType": "uint256[4]",
              "name": "proof",
              "type": "uint256[4]"
            }
          ],
          "internalType": "struct Structures.Transaction[]",
          "name": "t",
          "type": "tuple[]"
        }
      ],
      "name": "proposeBlock",
      "outputs": [],
      "stateMutability": "payable",
      "type": "function"
    },
    {
      "inputs": [],
      "name": "proposerStartBlock",
      "outputs": [
        {
          "internalType": "uint256",
          "name": "",
          "type": "uint256"
        }
      ],
      "stateMutability": "view",
      "type": "function"
    },
    {
      "inputs": [
        {
          "internalType": "address",
          "name": "",
          "type": "address"
        }
      ],
      "name": "proposers",
      "outputs": [
        {
          "internalType": "address",
          "name": "thisAddress",
          "type": "address"
        },
        {
          "internalType": "address",
          "name": "previousAddress",
          "type": "address"
        },
        {
          "internalType": "address",
          "name": "nextAddress",
          "type": "address"
        },
        {
          "internalType": "string",
          "name": "url",
          "type": "string"
        }
      ],
      "stateMutability": "view",
      "type": "function"
    },
    {
      "inputs": [],
      "name": "proposersAddress",
      "outputs": [
        {
          "internalType": "address",
          "name": "",
          "type": "address"
        }
      ],
      "stateMutability": "view",
      "type": "function"
    },
    {
      "inputs": [
        {
          "components": [
            {
              "internalType": "bytes32",
              "name": "blockHash",
              "type": "bytes32"
            },
            {
              "internalType": "uint256",
              "name": "time",
              "type": "uint256"
            }
          ],
          "internalType": "struct Structures.BlockData",
          "name": "bd",
          "type": "tuple"
        }
      ],
      "name": "pushBlockData",
      "outputs": [],
      "stateMutability": "nonpayable",
      "type": "function"
    },
    {
      "inputs": [
        {
          "internalType": "address",
          "name": "proposer",
          "type": "address"
        }
      ],
      "name": "removeProposer",
      "outputs": [],
      "stateMutability": "nonpayable",
      "type": "function"
    },
    {
      "inputs": [
        {
          "internalType": "address",
          "name": "tokenAddr",
          "type": "address"
        }
      ],
      "name": "removeRestriction",
      "outputs": [],
      "stateMutability": "nonpayable",
      "type": "function"
    },
    {
      "inputs": [
        {
          "internalType": "address",
          "name": "challengerAddr",
          "type": "address"
        },
        {
          "internalType": "address",
          "name": "proposer",
          "type": "address"
        },
        {
          "internalType": "uint256",
          "name": "numRemoved",
          "type": "uint256"
        }
      ],
      "name": "rewardChallenger",
      "outputs": [],
      "stateMutability": "nonpayable",
      "type": "function"
    },
    {
      "inputs": [
        {
          "internalType": "bytes32",
          "name": "blockHash",
          "type": "bytes32"
        }
      ],
      "name": "setBlockStakeWithdrawn",
      "outputs": [],
      "stateMutability": "nonpayable",
      "type": "function"
    },
    {
      "inputs": [
        {
          "internalType": "address",
          "name": "addr",
          "type": "address"
        },
        {
          "internalType": "uint256",
          "name": "amount",
          "type": "uint256"
        }
      ],
      "name": "setBondAccount",
      "outputs": [],
      "stateMutability": "nonpayable",
      "type": "function"
    },
    {
      "inputs": [
        {
          "internalType": "address",
          "name": "challenger",
          "type": "address"
        }
      ],
      "name": "setBootChallenger",
      "outputs": [],
      "stateMutability": "nonpayable",
      "type": "function"
    },
    {
      "inputs": [
        {
          "internalType": "address",
          "name": "proposer",
          "type": "address"
        }
      ],
      "name": "setBootProposer",
      "outputs": [],
      "stateMutability": "nonpayable",
      "type": "function"
    },
    {
      "inputs": [
        {
          "internalType": "address",
          "name": "proposer",
          "type": "address"
        }
      ],
      "name": "setCurrentProposer",
      "outputs": [],
      "stateMutability": "nonpayable",
      "type": "function"
    },
    {
      "inputs": [
        {
          "internalType": "address",
          "name": "proposer",
          "type": "address"
        },
        {
          "internalType": "uint256",
          "name": "blockNumberL2",
          "type": "uint256"
        },
        {
          "internalType": "uint256",
          "name": "feePaymentsEth",
          "type": "uint256"
        },
        {
          "internalType": "uint256",
          "name": "feePaymentsMatic",
          "type": "uint256"
        }
      ],
      "name": "setFeeBookInfo",
      "outputs": [],
      "stateMutability": "nonpayable",
      "type": "function"
    },
    {
      "inputs": [
        {
          "internalType": "address",
          "name": "_maticAddress",
          "type": "address"
        }
      ],
      "name": "setMaticAddress",
      "outputs": [],
      "stateMutability": "nonpayable",
      "type": "function"
    },
    {
      "inputs": [
        {
          "internalType": "address",
          "name": "addr",
          "type": "address"
        },
        {
          "components": [
            {
              "internalType": "address",
              "name": "thisAddress",
              "type": "address"
            },
            {
              "internalType": "address",
              "name": "previousAddress",
              "type": "address"
            },
            {
              "internalType": "address",
              "name": "nextAddress",
              "type": "address"
            },
            {
              "internalType": "string",
              "name": "url",
              "type": "string"
            }
          ],
          "internalType": "struct Structures.LinkedAddress",
          "name": "proposer",
          "type": "tuple"
        }
      ],
      "name": "setProposer",
      "outputs": [],
      "stateMutability": "nonpayable",
      "type": "function"
    },
    {
      "inputs": [
        {
          "internalType": "uint256",
          "name": "sb",
          "type": "uint256"
        }
      ],
      "name": "setProposerStartBlock",
      "outputs": [],
      "stateMutability": "nonpayable",
      "type": "function"
    },
    {
      "inputs": [
        {
          "internalType": "address",
          "name": "tokenAddr",
          "type": "address"
        },
        {
          "internalType": "uint256",
          "name": "depositAmount",
          "type": "uint256"
        },
        {
          "internalType": "uint256",
          "name": "withdrawAmount",
          "type": "uint256"
        }
      ],
      "name": "setRestriction",
      "outputs": [],
      "stateMutability": "nonpayable",
      "type": "function"
    },
    {
      "inputs": [],
      "name": "shieldAddress",
      "outputs": [
        {
          "internalType": "address",
          "name": "",
          "type": "address"
        }
      ],
      "stateMutability": "view",
      "type": "function"
    },
    {
      "inputs": [
        {
          "internalType": "address",
          "name": "newOwner",
          "type": "address"
        }
      ],
      "name": "transferOwnership",
      "outputs": [],
      "stateMutability": "nonpayable",
      "type": "function"
    },
    {
      "inputs": [],
      "name": "unpause",
      "outputs": [],
      "stateMutability": "nonpayable",
      "type": "function"
    },
    {
      "inputs": [
        {
          "internalType": "address",
          "name": "addr",
          "type": "address"
        },
        {
          "internalType": "uint256",
          "name": "time",
          "type": "uint256"
        }
      ],
      "name": "updateBondAccountTime",
      "outputs": [],
      "stateMutability": "nonpayable",
      "type": "function"
    },
    {
      "inputs": [
        {
          "internalType": "address",
          "name": "proposer",
          "type": "address"
        },
        {
          "internalType": "string",
          "name": "url",
          "type": "string"
        }
      ],
      "name": "updateProposer",
      "outputs": [],
      "stateMutability": "nonpayable",
      "type": "function"
    },
    {
      "inputs": [],
      "name": "withdraw",
      "outputs": [],
      "stateMutability": "nonpayable",
      "type": "function"
    },
    {
      "stateMutability": "payable",
      "type": "receive"
    }
  ],
  "bytecode": "0x60806040523480156200001157600080fd5b5061838080620000226000396000f3fe60806040526004361061037a5760003560e01c80638a7ee83d116101d1578063bdfe87f111610102578063e7a8a5a0116100a0578063f2fde38b1161006f578063f2fde38b14610cd6578063f560a79214610cff578063fe82d08214610d28578063ffac416114610d5657610381565b8063e7a8a5a014610bf6578063e98be19114610c33578063ebc6247114610c5c578063ed46a68c14610c9957610381565b8063c300db9b116100dc578063c300db9b14610b3a578063d87965d214610b65578063e2b2c30c14610b90578063e34c13c514610bb957610381565b8063bdfe87f114610a97578063be6ade6d14610ad4578063c0c53b8b14610b1157610381565b8063a1a0c2771161016f578063bb2d053011610149578063bb2d053014610a00578063bb7affc114610a1c578063bcb4dbc214610a45578063bdb97f7e14610a6e57610381565b8063a1a0c27714610983578063aa411d5b146109ac578063b2bdfa7b146109d557610381565b80639aa07586116101ab5780639aa07586146108dd5780639b3d060a146109065780639c18de93146109315780639f63212d1461095a57610381565b80638a7ee83d1461084b5780638b616a0f146108745780638da5cb5b146108b257610381565b806342646c68116102ab57806369a5b950116102495780638129fc1c116102235780638129fc1c146107b75780638456cb59146107ce578063851a974c146107e5578063873cd42a1461082257610381565b806369a5b950146107275780636f2d1bcb146107505780637a5874001461077957610381565b80634d2ac261116102855780634d2ac2611461067f578063539c07c8146106aa5780635c975abb146106d357806366e6f72f146106fe57610381565b806342646c68146105ec57806342bcad281461061757806344dc49701461064257610381565b806324acc5051161031857806334cdf78d116102f257806334cdf78d146105555780633b10244b146105935780633ccfd60b146105be5780633f4ba83a146105d557610381565b806324acc505146104d657806328340f17146104ff5780632ee240e71461052a57610381565b80631c420682116103545780631c4206821461041a5780631c9ab3ad146104455780631f84bb2a1461048257806323e7d4a2146104ad57610381565b806305eb81e61461038657806309d632d3146103b157806318177497146103da57610381565b3661038157005b600080fd5b34801561039257600080fd5b5061039b610d81565b6040516103a89190615864565b60405180910390f35b3480156103bd57600080fd5b506103d860048036038101906103d391906158e7565b610d8e565b005b3480156103e657600080fd5b5061040160048036038101906103fc91906158e7565b61142a565b60405161041194939291906159bc565b60405180910390f35b34801561042657600080fd5b5061042f611542565b60405161043c9190615a5f565b60405180910390f35b34801561045157600080fd5b5061046c60048036038101906104679190615aa6565b611722565b6040516104799190615a5f565b60405180910390f35b34801561048e57600080fd5b50610497611772565b6040516104a49190615ad3565b60405180910390f35b3480156104b957600080fd5b506104d460048036038101906104cf9190615aa6565b611798565b005b3480156104e257600080fd5b506104fd60048036038101906104f89190615b53565b611912565b005b34801561050b57600080fd5b50610514611aa9565b6040516105219190615ad3565b60405180910390f35b34801561053657600080fd5b5061053f611ad3565b60405161054c9190615864565b60405180910390f35b34801561056157600080fd5b5061057c60048036038101906105779190615aa6565b611add565b60405161058a929190615bc2565b60405180910390f35b34801561059f57600080fd5b506105a8611b11565b6040516105b59190615ca7565b60405180910390f35b3480156105ca57600080fd5b506105d3611cbf565b005b3480156105e157600080fd5b506105ea611f89565b005b3480156105f857600080fd5b50610601612008565b60405161060e9190615ad3565b60405180910390f35b34801561062357600080fd5b5061062c612032565b6040516106399190615cc9565b60405180910390f35b34801561064e57600080fd5b5061066960048036038101906106649190615ce4565b612088565b6040516106769190615864565b60405180910390f35b34801561068b57600080fd5b506106946120b0565b6040516106a19190615ad3565b60405180910390f35b3480156106b657600080fd5b506106d160048036038101906106cc9190615dbe565b6120d6565b005b3480156106df57600080fd5b506106e8612290565b6040516106f59190615e64565b60405180910390f35b34801561070a57600080fd5b5061072560048036038101906107209190615e7f565b6122a7565b005b34801561073357600080fd5b5061074e600480360381019061074991906158e7565b61254a565b005b34801561075c57600080fd5b50610777600480360381019061077291906158e7565b612670565b005b34801561078557600080fd5b506107a0600480360381019061079b91906158e7565b61287a565b6040516107ae929190615ed2565b60405180910390f35b3480156107c357600080fd5b506107cc61289e565b005b3480156107da57600080fd5b506107e36128b8565b005b3480156107f157600080fd5b5061080c600480360381019061080791906158e7565b612937565b6040516108199190615ca7565b60405180910390f35b34801561082e57600080fd5b5061084960048036038101906108449190615efb565b612b24565b005b34801561085757600080fd5b50610872600480360381019061086d9190615aa6565b612bb0565b005b34801561088057600080fd5b5061089b60048036038101906108969190615ce4565b612cfa565b6040516108a9929190615ed2565b60405180910390f35b3480156108be57600080fd5b506108c7612d86565b6040516108d49190615ad3565b60405180910390f35b3480156108e957600080fd5b5061090460048036038101906108ff9190615f62565b612db0565b005b34801561091257600080fd5b5061091b612fc9565b6040516109289190615ad3565b60405180910390f35b34801561093d57600080fd5b5061095860048036038101906109539190615f62565b612fef565b005b34801561096657600080fd5b50610981600480360381019061097c9190615ce4565b613119565b005b34801561098f57600080fd5b506109aa60048036038101906109a59190615ce4565b613321565b005b3480156109b857600080fd5b506109d360048036038101906109ce91906158e7565b6134d1565b005b3480156109e157600080fd5b506109ea61358a565b6040516109f79190615ad3565b60405180910390f35b610a1a6004803603810190610a15919061600c565b6135b0565b005b348015610a2857600080fd5b50610a436004803603810190610a3e91906158e7565b613af6565b005b348015610a5157600080fd5b50610a6c6004803603810190610a679190616098565b613c08565b005b348015610a7a57600080fd5b50610a956004803603810190610a9091906160e4565b613d77565b005b348015610aa357600080fd5b50610abe6004803603810190610ab991906158e7565b613f0a565b604051610acb919061616f565b60405180910390f35b348015610ae057600080fd5b50610afb6004803603810190610af6919061618a565b613f77565b604051610b089190615864565b60405180910390f35b348015610b1d57600080fd5b50610b386004803603810190610b3391906161ca565b613f9f565b005b348015610b4657600080fd5b50610b4f6141a3565b604051610b5c9190615ad3565b60405180910390f35b348015610b7157600080fd5b50610b7a6141cd565b604051610b879190615864565b60405180910390f35b348015610b9c57600080fd5b50610bb76004803603810190610bb291906158e7565b6141d3565b005b348015610bc557600080fd5b50610be06004803603810190610bdb9190616098565b6144af565b604051610bed9190615e64565b60405180910390f35b348015610c0257600080fd5b50610c1d6004803603810190610c189190615ce4565b6144d9565b604051610c2a9190615864565b60405180910390f35b348015610c3f57600080fd5b50610c5a6004803603810190610c55919061623c565b614536565b005b348015610c6857600080fd5b50610c836004803603810190610c7e9190616098565b6146b3565b604051610c909190615e64565b60405180910390f35b348015610ca557600080fd5b50610cc06004803603810190610cbb919061600c565b6146d3565b604051610ccd9190615cc9565b60405180910390f35b348015610ce257600080fd5b50610cfd6004803603810190610cf891906158e7565b61482b565b005b348015610d0b57600080fd5b50610d266004803603810190610d2191906158e7565b614926565b005b348015610d3457600080fd5b50610d3d614a38565b604051610d4d94939291906159bc565b60405180910390f35b348015610d6257600080fd5b50610d6b614b3e565b604051610d789190616347565b60405180910390f35b6000609c80549050905090565b60a760009054906101000a900473ffffffffffffffffffffffffffffffffffffffff1673ffffffffffffffffffffffffffffffffffffffff163373ffffffffffffffffffffffffffffffffffffffff161480610e37575060a860009054906101000a900473ffffffffffffffffffffffffffffffffffffffff1673ffffffffffffffffffffffffffffffffffffffff163373ffffffffffffffffffffffffffffffffffffffff16145b80610e8f575060a960009054906101000a900473ffffffffffffffffffffffffffffffffffffffff1673ffffffffffffffffffffffffffffffffffffffff163373ffffffffffffffffffffffffffffffffffffffff16145b610ece576040517f08c379a0000000000000000000000000000000000000000000000000000000008152600401610ec5906163db565b60405180910390fd5b6000609e60008373ffffffffffffffffffffffffffffffffffffffff1673ffffffffffffffffffffffffffffffffffffffff16815260200190815260200160002060010160009054906101000a900473ffffffffffffffffffffffffffffffffffffffff1690506000609e60008473ffffffffffffffffffffffffffffffffffffffff1673ffffffffffffffffffffffffffffffffffffffff16815260200190815260200160002060020160009054906101000a900473ffffffffffffffffffffffffffffffffffffffff169050609e60008473ffffffffffffffffffffffffffffffffffffffff1673ffffffffffffffffffffffffffffffffffffffff168152602001908152602001600020600080820160006101000a81549073ffffffffffffffffffffffffffffffffffffffff02191690556001820160006101000a81549073ffffffffffffffffffffffffffffffffffffffff02191690556002820160006101000a81549073ffffffffffffffffffffffffffffffffffffffff021916905560038201600061106191906155f5565b5050609e60008273ffffffffffffffffffffffffffffffffffffffff1673ffffffffffffffffffffffffffffffffffffffff16815260200190815260200160002060000160009054906101000a900473ffffffffffffffffffffffffffffffffffffffff16609e60008473ffffffffffffffffffffffffffffffffffffffff1673ffffffffffffffffffffffffffffffffffffffff16815260200190815260200160002060020160006101000a81548173ffffffffffffffffffffffffffffffffffffffff021916908373ffffffffffffffffffffffffffffffffffffffff160217905550609e60008373ffffffffffffffffffffffffffffffffffffffff1673ffffffffffffffffffffffffffffffffffffffff16815260200190815260200160002060000160009054906101000a900473ffffffffffffffffffffffffffffffffffffffff16609e60008373ffffffffffffffffffffffffffffffffffffffff1673ffffffffffffffffffffffffffffffffffffffff16815260200190815260200160002060010160006101000a81548173ffffffffffffffffffffffffffffffffffffffff021916908373ffffffffffffffffffffffffffffffffffffffff1602179055504360a681905550609e60008273ffffffffffffffffffffffffffffffffffffffff1673ffffffffffffffffffffffffffffffffffffffff16815260200190815260200160002060a26000820160009054906101000a900473ffffffffffffffffffffffffffffffffffffffff168160000160006101000a81548173ffffffffffffffffffffffffffffffffffffffff021916908373ffffffffffffffffffffffffffffffffffffffff1602179055506001820160009054906101000a900473ffffffffffffffffffffffffffffffffffffffff168160010160006101000a81548173ffffffffffffffffffffffffffffffffffffffff021916908373ffffffffffffffffffffffffffffffffffffffff1602179055506002820160009054906101000a900473ffffffffffffffffffffffffffffffffffffffff168160020160006101000a81548173ffffffffffffffffffffffffffffffffffffffff021916908373ffffffffffffffffffffffffffffffffffffffff16021790555060038201816003019080546113ba9061642a565b6113c5929190615635565b509050507feaa94fa30970548bf8b78ce068ba600b923a4a62ce3c523d09bf308102ff1bab60a260000160009054906101000a900473ffffffffffffffffffffffffffffffffffffffff1660405161141d9190615ad3565b60405180910390a1505050565b609e6020528060005260406000206000915090508060000160009054906101000a900473ffffffffffffffffffffffffffffffffffffffff16908060010160009054906101000a900473ffffffffffffffffffffffffffffffffffffffff16908060020160009054906101000a900473ffffffffffffffffffffffffffffffffffffffff16908060030180546114bf9061642a565b80601f01602080910402602001604051908101604052809291908181526020018280546114eb9061642a565b80156115385780601f1061150d57610100808354040283529160200191611538565b820191906000526020600020905b81548152906001019060200180831161151b57829003601f168201915b5050505050905084565b61154a6156c2565b60a760009054906101000a900473ffffffffffffffffffffffffffffffffffffffff1673ffffffffffffffffffffffffffffffffffffffff163373ffffffffffffffffffffffffffffffffffffffff1614806115f3575060a860009054906101000a900473ffffffffffffffffffffffffffffffffffffffff1673ffffffffffffffffffffffffffffffffffffffff163373ffffffffffffffffffffffffffffffffffffffff16145b8061164b575060a960009054906101000a900473ffffffffffffffffffffffffffffffffffffffff1673ffffffffffffffffffffffffffffffffffffffff163373ffffffffffffffffffffffffffffffffffffffff16145b61168a576040517f08c379a0000000000000000000000000000000000000000000000000000000008152600401611681906163db565b60405180910390fd5b6000609c6001609c805490506116a0919061648b565b815481106116b1576116b06164bf565b5b9060005260206000209060020201604051806040016040529081600082015481526020016001820154815250509050609c8054806116f2576116f16164ee565b5b60019003818190600052602060002090600202016000808201600090556001820160009055505090558091505090565b61172a6156c2565b609c828154811061173e5761173d6164bf565b5b9060005260206000209060020201604051806040016040529081600082015481526020016001820154815250509050919050565b60a960009054906101000a900473ffffffffffffffffffffffffffffffffffffffff1681565b60a760009054906101000a900473ffffffffffffffffffffffffffffffffffffffff1673ffffffffffffffffffffffffffffffffffffffff163373ffffffffffffffffffffffffffffffffffffffff161480611841575060a860009054906101000a900473ffffffffffffffffffffffffffffffffffffffff1673ffffffffffffffffffffffffffffffffffffffff163373ffffffffffffffffffffffffffffffffffffffff16145b80611899575060a960009054906101000a900473ffffffffffffffffffffffffffffffffffffffff1673ffffffffffffffffffffffffffffffffffffffff163373ffffffffffffffffffffffffffffffffffffffff16145b6118d8576040517f08c379a00000000000000000000000000000000000000000000000000000000081526004016118cf906163db565b60405180910390fd5b7fb0877aa180de4fb68d8db523e6b6c24ef9c3d7c51fa6d86ead8f442701fe4ca9816040516119079190615864565b60405180910390a150565b60a760009054906101000a900473ffffffffffffffffffffffffffffffffffffffff1673ffffffffffffffffffffffffffffffffffffffff163373ffffffffffffffffffffffffffffffffffffffff1614806119bb575060a860009054906101000a900473ffffffffffffffffffffffffffffffffffffffff1673ffffffffffffffffffffffffffffffffffffffff163373ffffffffffffffffffffffffffffffffffffffff16145b80611a13575060a960009054906101000a900473ffffffffffffffffffffffffffffffffffffffff1673ffffffffffffffffffffffffffffffffffffffff163373ffffffffffffffffffffffffffffffffffffffff16145b611a52576040517f08c379a0000000000000000000000000000000000000000000000000000000008152600401611a49906163db565b60405180910390fd5b8181609e60008673ffffffffffffffffffffffffffffffffffffffff1673ffffffffffffffffffffffffffffffffffffffff1681526020019081526020016000206003019190611aa39291906156df565b50505050565b6000609860009054906101000a900473ffffffffffffffffffffffffffffffffffffffff16905090565b600060a654905090565b609c8181548110611aed57600080fd5b90600052602060002090600202016000915090508060000154908060010154905082565b611b19615765565b60a26040518060800160405290816000820160009054906101000a900473ffffffffffffffffffffffffffffffffffffffff1673ffffffffffffffffffffffffffffffffffffffff1673ffffffffffffffffffffffffffffffffffffffff1681526020016001820160009054906101000a900473ffffffffffffffffffffffffffffffffffffffff1673ffffffffffffffffffffffffffffffffffffffff1673ffffffffffffffffffffffffffffffffffffffff1681526020016002820160009054906101000a900473ffffffffffffffffffffffffffffffffffffffff1673ffffffffffffffffffffffffffffffffffffffff1673ffffffffffffffffffffffffffffffffffffffff168152602001600382018054611c389061642a565b80601f0160208091040260200160405190810160405280929190818152602001828054611c649061642a565b8015611cb15780601f10611c8657610100808354040283529160200191611cb1565b820191906000526020600020905b815481529060010190602001808311611c9457829003601f168201915b505050505081525050905090565b60026001541415611d05576040517f08c379a0000000000000000000000000000000000000000000000000000000008152600401611cfc90616569565b60405180910390fd5b6002600181905550611d15614bb1565b6000609d60003373ffffffffffffffffffffffffffffffffffffffff1673ffffffffffffffffffffffffffffffffffffffff168152602001908152602001600020600060028110611d6957611d686164bf565b5b015490506000609d60003373ffffffffffffffffffffffffffffffffffffffff1673ffffffffffffffffffffffffffffffffffffffff168152602001908152602001600020600160028110611dc157611dc06164bf565b5b015490506040518060400160405280600060ff168152602001600060ff16815250609d60003373ffffffffffffffffffffffffffffffffffffffff1673ffffffffffffffffffffffffffffffffffffffff168152602001908152602001600020906002611e2f9291906157cf565b506000821115611ee75760003373ffffffffffffffffffffffffffffffffffffffff1683604051611e5f906165ba565b60006040518083038185875af1925050503d8060008114611e9c576040519150601f19603f3d011682016040523d82523d6000602084013e611ea1565b606091505b5050905080611ee5576040517f08c379a0000000000000000000000000000000000000000000000000000000008152600401611edc9061661b565b60405180910390fd5b505b6000811115611f7e576000609d60003373ffffffffffffffffffffffffffffffffffffffff1673ffffffffffffffffffffffffffffffffffffffff168152602001908152602001600020600160028110611f4457611f436164bf565b5b0181905550611f7d303383611f576141a3565b73ffffffffffffffffffffffffffffffffffffffff16614bfb909392919063ffffffff16565b5b505060018081905550565b611f91612d86565b73ffffffffffffffffffffffffffffffffffffffff163373ffffffffffffffffffffffffffffffffffffffff1614611ffe576040517f08c379a0000000000000000000000000000000000000000000000000000000008152600401611ff5906166ad565b60405180910390fd5b612006614c84565b565b6000609960009054906101000a900473ffffffffffffffffffffffffffffffffffffffff16905090565b600080609c805490501461207e57609c6001609c80549050612054919061648b565b81548110612065576120646164bf565b5b9060005260206000209060020201600001549050612085565b6000801b90505b90565b609d60205281600052604060002081600281106120a457600080fd5b01600091509150505481565b60a760009054906101000a900473ffffffffffffffffffffffffffffffffffffffff1681565b60006120e186614ce7565b905080609c8760600135815481106120fc576120fb6164bf565b5b9060005260206000209060020201600001541461214e576040517f08c379a000000000000000000000000000000000000000000000000000000000815260040161214590616719565b60405180910390fd5b82826000818110612162576121616164bf565b5b905060200201358660a00135146121ae576040517f08c379a00000000000000000000000000000000000000000000000000000000081526004016121a5906167ab565b60405180910390fd5b600073__$1c41232b8c3f9382c4bdca1a05a1ab00e7$__630e07a40b8585886121d68b614d17565b6040518563ffffffff1660e01b81526004016121f5949392919061686a565b60206040518083038186803b15801561220d57600080fd5b505af4158015612221573d6000803e3d6000fd5b505050506040513d601f19601f8201168201806040525081019061224591906168d6565b905080612287576040517f08c379a000000000000000000000000000000000000000000000000000000000815260040161227e90616975565b60405180910390fd5b50505050505050565b6000606560009054906101000a900460ff16905090565b60a760009054906101000a900473ffffffffffffffffffffffffffffffffffffffff1673ffffffffffffffffffffffffffffffffffffffff163373ffffffffffffffffffffffffffffffffffffffff161480612350575060a860009054906101000a900473ffffffffffffffffffffffffffffffffffffffff1673ffffffffffffffffffffffffffffffffffffffff163373ffffffffffffffffffffffffffffffffffffffff16145b806123a8575060a960009054906101000a900473ffffffffffffffffffffffffffffffffffffffff1673ffffffffffffffffffffffffffffffffffffffff163373ffffffffffffffffffffffffffffffffffffffff16145b6123e7576040517f08c379a00000000000000000000000000000000000000000000000000000000081526004016123de906163db565b60405180910390fd5b6123f082610d8e565b6000609f60008473ffffffffffffffffffffffffffffffffffffffff1673ffffffffffffffffffffffffffffffffffffffff1681526020019081526020016000206040518060400160405290816000820154815260200160018201548152505090506040518060400160405280600081526020016000815250609f60008573ffffffffffffffffffffffffffffffffffffffff1673ffffffffffffffffffffffffffffffffffffffff16815260200190815260200160002060008201518160000155602082015181600101559050506001826124cc9190616995565b81600001516124db91906169ef565b609d60008673ffffffffffffffffffffffffffffffffffffffff1673ffffffffffffffffffffffffffffffffffffffff16815260200190815260200160002060006002811061252d5761252c6164bf565b5b01600082825461253d91906169ef565b9250508190555050505050565b612552612d86565b73ffffffffffffffffffffffffffffffffffffffff163373ffffffffffffffffffffffffffffffffffffffff16146125bf576040517f08c379a00000000000000000000000000000000000000000000000000000000081526004016125b6906166ad565b60405180910390fd5b609b60008273ffffffffffffffffffffffffffffffffffffffff1673ffffffffffffffffffffffffffffffffffffffff168152602001908152602001600020600060028110612611576126106164bf565b5b0160009055609b60008273ffffffffffffffffffffffffffffffffffffffff1673ffffffffffffffffffffffffffffffffffffffff168152602001908152602001600020600160028110612668576126676164bf565b5b016000905550565b60a760009054906101000a900473ffffffffffffffffffffffffffffffffffffffff1673ffffffffffffffffffffffffffffffffffffffff163373ffffffffffffffffffffffffffffffffffffffff161480612719575060a860009054906101000a900473ffffffffffffffffffffffffffffffffffffffff1673ffffffffffffffffffffffffffffffffffffffff163373ffffffffffffffffffffffffffffffffffffffff16145b80612771575060a960009054906101000a900473ffffffffffffffffffffffffffffffffffffffff1673ffffffffffffffffffffffffffffffffffffffff163373ffffffffffffffffffffffffffffffffffffffff16145b6127b0576040517f08c379a00000000000000000000000000000000000000000000000000000000081526004016127a7906163db565b60405180910390fd5b609e60008273ffffffffffffffffffffffffffffffffffffffff1673ffffffffffffffffffffffffffffffffffffffff168152602001908152602001600020600080820160006101000a81549073ffffffffffffffffffffffffffffffffffffffff02191690556001820160006101000a81549073ffffffffffffffffffffffffffffffffffffffff02191690556002820160006101000a81549073ffffffffffffffffffffffffffffffffffffffff021916905560038201600061287591906155f5565b505050565b609f6020528060005260406000206000915090508060000154908060010154905082565b6128a6614d47565b6128ae614e8d565b6128b6614fcb565b565b6128c0612d86565b73ffffffffffffffffffffffffffffffffffffffff163373ffffffffffffffffffffffffffffffffffffffff161461292d576040517f08c379a0000000000000000000000000000000000000000000000000000000008152600401612924906166ad565b60405180910390fd5b612935615024565b565b61293f615765565b609e60008373ffffffffffffffffffffffffffffffffffffffff1673ffffffffffffffffffffffffffffffffffffffff1681526020019081526020016000206040518060800160405290816000820160009054906101000a900473ffffffffffffffffffffffffffffffffffffffff1673ffffffffffffffffffffffffffffffffffffffff1673ffffffffffffffffffffffffffffffffffffffff1681526020016001820160009054906101000a900473ffffffffffffffffffffffffffffffffffffffff1673ffffffffffffffffffffffffffffffffffffffff1673ffffffffffffffffffffffffffffffffffffffff1681526020016002820160009054906101000a900473ffffffffffffffffffffffffffffffffffffffff1673ffffffffffffffffffffffffffffffffffffffff1673ffffffffffffffffffffffffffffffffffffffff168152602001600382018054612a9b9061642a565b80601f0160208091040260200160405190810160405280929190818152602001828054612ac79061642a565b8015612b145780601f10612ae957610100808354040283529160200191612b14565b820191906000526020600020905b815481529060010190602001808311612af757829003601f168201915b5050505050815250509050919050565b60008484604051602001612b39929190616aae565b6040516020818303038152906040528051906020012090508260a06000838152602001908152602001600020600060028110612b7857612b776164bf565b5b01819055508160a06000838152602001908152602001600020600160028110612ba457612ba36164bf565b5b01819055505050505050565b60a760009054906101000a900473ffffffffffffffffffffffffffffffffffffffff1673ffffffffffffffffffffffffffffffffffffffff163373ffffffffffffffffffffffffffffffffffffffff161480612c59575060a860009054906101000a900473ffffffffffffffffffffffffffffffffffffffff1673ffffffffffffffffffffffffffffffffffffffff163373ffffffffffffffffffffffffffffffffffffffff16145b80612cb1575060a960009054906101000a900473ffffffffffffffffffffffffffffffffffffffff1673ffffffffffffffffffffffffffffffffffffffff163373ffffffffffffffffffffffffffffffffffffffff16145b612cf0576040517f08c379a0000000000000000000000000000000000000000000000000000000008152600401612ce7906163db565b60405180910390fd5b8060a68190555050565b60008060008484604051602001612d12929190616aae565b60405160208183030381529060405280519060200120905060a06000828152602001908152602001600020600060028110612d5057612d4f6164bf565b5b015460a06000838152602001908152602001600020600160028110612d7857612d776164bf565b5b015492509250509250929050565b6000609760009054906101000a900473ffffffffffffffffffffffffffffffffffffffff16905090565b60a760009054906101000a900473ffffffffffffffffffffffffffffffffffffffff1673ffffffffffffffffffffffffffffffffffffffff163373ffffffffffffffffffffffffffffffffffffffff161480612e59575060a860009054906101000a900473ffffffffffffffffffffffffffffffffffffffff1673ffffffffffffffffffffffffffffffffffffffff163373ffffffffffffffffffffffffffffffffffffffff16145b80612eb1575060a960009054906101000a900473ffffffffffffffffffffffffffffffffffffffff1673ffffffffffffffffffffffffffffffffffffffff163373ffffffffffffffffffffffffffffffffffffffff16145b612ef0576040517f08c379a0000000000000000000000000000000000000000000000000000000008152600401612ee7906163db565b60405180910390fd5b81609d60008573ffffffffffffffffffffffffffffffffffffffff1673ffffffffffffffffffffffffffffffffffffffff168152602001908152602001600020600060028110612f4357612f426164bf565b5b016000828254612f5391906169ef565b9250508190555080609d60008573ffffffffffffffffffffffffffffffffffffffff1673ffffffffffffffffffffffffffffffffffffffff168152602001908152602001600020600160028110612fad57612fac6164bf565b5b016000828254612fbd91906169ef565b92505081905550505050565b60a860009054906101000a900473ffffffffffffffffffffffffffffffffffffffff1681565b612ff7612d86565b73ffffffffffffffffffffffffffffffffffffffff163373ffffffffffffffffffffffffffffffffffffffff1614613064576040517f08c379a000000000000000000000000000000000000000000000000000000000815260040161305b906166ad565b60405180910390fd5b81609b60008573ffffffffffffffffffffffffffffffffffffffff1673ffffffffffffffffffffffffffffffffffffffff1681526020019081526020016000206000600281106130b7576130b66164bf565b5b018190555080609b60008573ffffffffffffffffffffffffffffffffffffffff1673ffffffffffffffffffffffffffffffffffffffff16815260200190815260200160002060016002811061310f5761310e6164bf565b5b0181905550505050565b60a760009054906101000a900473ffffffffffffffffffffffffffffffffffffffff1673ffffffffffffffffffffffffffffffffffffffff163373ffffffffffffffffffffffffffffffffffffffff1614806131c2575060a860009054906101000a900473ffffffffffffffffffffffffffffffffffffffff1673ffffffffffffffffffffffffffffffffffffffff163373ffffffffffffffffffffffffffffffffffffffff16145b8061321a575060a960009054906101000a900473ffffffffffffffffffffffffffffffffffffffff1673ffffffffffffffffffffffffffffffffffffffff163373ffffffffffffffffffffffffffffffffffffffff16145b613259576040517f08c379a0000000000000000000000000000000000000000000000000000000008152600401613250906163db565b60405180910390fd5b6000609f60008473ffffffffffffffffffffffffffffffffffffffff1673ffffffffffffffffffffffffffffffffffffffff1681526020019081526020016000206040518060400160405290816000820154815260200160018201548152505090508181602001818152505080609f60008573ffffffffffffffffffffffffffffffffffffffff1673ffffffffffffffffffffffffffffffffffffffff1681526020019081526020016000206000820151816000015560208201518160010155905050505050565b60a760009054906101000a900473ffffffffffffffffffffffffffffffffffffffff1673ffffffffffffffffffffffffffffffffffffffff163373ffffffffffffffffffffffffffffffffffffffff1614806133ca575060a860009054906101000a900473ffffffffffffffffffffffffffffffffffffffff1673ffffffffffffffffffffffffffffffffffffffff163373ffffffffffffffffffffffffffffffffffffffff16145b80613422575060a960009054906101000a900473ffffffffffffffffffffffffffffffffffffffff1673ffffffffffffffffffffffffffffffffffffffff163373ffffffffffffffffffffffffffffffffffffffff16145b613461576040517f08c379a0000000000000000000000000000000000000000000000000000000008152600401613458906163db565b60405180910390fd5b60405180604001604052808281526020016000815250609f60008473ffffffffffffffffffffffffffffffffffffffff1673ffffffffffffffffffffffffffffffffffffffff16815260200190815260200160002060008201518160000155602082015181600101559050505050565b6134d9612d86565b73ffffffffffffffffffffffffffffffffffffffff163373ffffffffffffffffffffffffffffffffffffffff1614613546576040517f08c379a000000000000000000000000000000000000000000000000000000000815260040161353d906166ad565b60405180910390fd5b80609a60006101000a81548173ffffffffffffffffffffffffffffffffffffffff021916908373ffffffffffffffffffffffffffffffffffffffff16021790555050565b609760009054906101000a900473ffffffffffffffffffffffffffffffffffffffff1681565b60a260000160009054906101000a900473ffffffffffffffffffffffffffffffffffffffff1673ffffffffffffffffffffffffffffffffffffffff163373ffffffffffffffffffffffffffffffffffffffff1614613643576040517f08c379a000000000000000000000000000000000000000000000000000000000815260040161363a90616b4c565b60405180910390fd5b61364b614bb1565b609c80549050836060013514613696576040517f08c379a000000000000000000000000000000000000000000000000000000000815260040161368d90616bb8565b60405180910390fd5b6000609c805490501461372057609c6001609c805490506136b7919061648b565b815481106136c8576136c76164bf565b5b90600052602060002090600202016000015483608001351461371f576040517f08c379a000000000000000000000000000000000000000000000000000000000815260040161371690616c4a565b60405180910390fd5b5b3460011115613764576040517f08c379a000000000000000000000000000000000000000000000000000000000815260040161375b90616cb6565b60405180910390fd5b3373ffffffffffffffffffffffffffffffffffffffff1683602001602081019061378e91906158e7565b73ffffffffffffffffffffffffffffffffffffffff16146137e4576040517f08c379a00000000000000000000000000000000000000000000000000000000081526004016137db90616d48565b60405180910390fd5b602082829050111561382b576040517f08c379a000000000000000000000000000000000000000000000000000000000815260040161382290616dda565b60405180910390fd5b60008060005b8484905081101561393f57600060028111156138505761384f616dfa565b5b858583818110613863576138626164bf565b5b90506103000201604001602081019061387c9190616e4e565b600281111561388e5761388d616dfa565b5b14156138e2578484828181106138a7576138a66164bf565b5b9050610300020160200160208101906138c09190616ec1565b6dffffffffffffffffffffffffffff16836138db91906169ef565b925061392c565b8484828181106138f5576138f46164bf565b5b90506103000201602001602081019061390e9190616ec1565b6dffffffffffffffffffffffffffff168261392991906169ef565b91505b808061393790616eee565b915050613831565b5061396285602001602081019061395691906158e7565b86606001358484612b24565b60006040516101006103008602016004823761010081016103008602810160005b878110156139a857610300816103000284012081602002830152600181019050613983565b50600060015b888160020a10156139c4576001810190506139ae565b805b6000811115613a465760005b6001820360020a811015613a3a576002816020020285015160206002836020020201860151600181158315161415613a0957600095505b600081158315161415613a255760406002846020020288012095505b858360200288015250506001810190506139d2565b506001810390506139c6565b506000826020600502870151141415613a5e57600080fd5b6020600602852095505050505050609c6040518060400160405280838152602001428152509080600181540180825580915050600190039060005260206000209060020201600090919091909150600082015181600001556020820151816001015550507f566d835e602d4aa5802ee07d3e452e755bc77623507825de7bc163a295d76c0b60405160405180910390a1505050505050565b613afe612d86565b73ffffffffffffffffffffffffffffffffffffffff163373ffffffffffffffffffffffffffffffffffffffff1614613b6b576040517f08c379a0000000000000000000000000000000000000000000000000000000008152600401613b62906166ad565b60405180910390fd5b80609860006101000a81548173ffffffffffffffffffffffffffffffffffffffff021916908373ffffffffffffffffffffffffffffffffffffffff1602179055507f5544fd39820f90f9fc4b238e0eaaf1b5ece21e6dbb69a2b0824a16876e6d0efd609860009054906101000a900473ffffffffffffffffffffffffffffffffffffffff16604051613bfd9190615ad3565b60405180910390a150565b60a760009054906101000a900473ffffffffffffffffffffffffffffffffffffffff1673ffffffffffffffffffffffffffffffffffffffff163373ffffffffffffffffffffffffffffffffffffffff161480613cb1575060a860009054906101000a900473ffffffffffffffffffffffffffffffffffffffff1673ffffffffffffffffffffffffffffffffffffffff163373ffffffffffffffffffffffffffffffffffffffff16145b80613d09575060a960009054906101000a900473ffffffffffffffffffffffffffffffffffffffff1673ffffffffffffffffffffffffffffffffffffffff163373ffffffffffffffffffffffffffffffffffffffff16145b613d48576040517f08c379a0000000000000000000000000000000000000000000000000000000008152600401613d3f906163db565b60405180910390fd5b600160a1600083815260200190815260200160002060006101000a81548160ff02191690831515021790555050565b60a760009054906101000a900473ffffffffffffffffffffffffffffffffffffffff1673ffffffffffffffffffffffffffffffffffffffff163373ffffffffffffffffffffffffffffffffffffffff161480613e20575060a860009054906101000a900473ffffffffffffffffffffffffffffffffffffffff1673ffffffffffffffffffffffffffffffffffffffff163373ffffffffffffffffffffffffffffffffffffffff16145b80613e78575060a960009054906101000a900473ffffffffffffffffffffffffffffffffffffffff1673ffffffffffffffffffffffffffffffffffffffff163373ffffffffffffffffffffffffffffffffffffffff16145b613eb7576040517f08c379a0000000000000000000000000000000000000000000000000000000008152600401613eae906163db565b60405180910390fd5b80609e60008473ffffffffffffffffffffffffffffffffffffffff1673ffffffffffffffffffffffffffffffffffffffff1681526020019081526020016000208181613f0391906173c3565b9050505050565b613f12615814565b609f60008373ffffffffffffffffffffffffffffffffffffffff1673ffffffffffffffffffffffffffffffffffffffff168152602001908152602001600020604051806040016040529081600082015481526020016001820154815250509050919050565b60a06020528160005260406000208160028110613f9357600080fd5b01600091509150505481565b60008060019054906101000a900460ff16159050808015613fd05750600160008054906101000a900460ff1660ff16105b80613ffd5750613fdf30615087565b158015613ffc5750600160008054906101000a900460ff1660ff16145b5b61403c576040517f08c379a000000000000000000000000000000000000000000000000000000000815260040161403390617443565b60405180910390fd5b60016000806101000a81548160ff021916908360ff1602179055508015614079576001600060016101000a81548160ff0219169083151502179055505b8360a760006101000a81548173ffffffffffffffffffffffffffffffffffffffff021916908373ffffffffffffffffffffffffffffffffffffffff1602179055508260a860006101000a81548173ffffffffffffffffffffffffffffffffffffffff021916908373ffffffffffffffffffffffffffffffffffffffff1602179055508160a960006101000a81548173ffffffffffffffffffffffffffffffffffffffff021916908373ffffffffffffffffffffffffffffffffffffffff16021790555061414461289e565b801561419d5760008060016101000a81548160ff0219169083151502179055507f7f26b83ff96e1f2b6a682f133852f6798a09c465da95921460cefb3847402498600160405161419491906174ab565b60405180910390a15b50505050565b6000609a60009054906101000a900473ffffffffffffffffffffffffffffffffffffffff16905090565b60a65481565b60a760009054906101000a900473ffffffffffffffffffffffffffffffffffffffff1673ffffffffffffffffffffffffffffffffffffffff163373ffffffffffffffffffffffffffffffffffffffff16148061427c575060a860009054906101000a900473ffffffffffffffffffffffffffffffffffffffff1673ffffffffffffffffffffffffffffffffffffffff163373ffffffffffffffffffffffffffffffffffffffff16145b806142d4575060a960009054906101000a900473ffffffffffffffffffffffffffffffffffffffff1673ffffffffffffffffffffffffffffffffffffffff163373ffffffffffffffffffffffffffffffffffffffff16145b614313576040517f08c379a000000000000000000000000000000000000000000000000000000000815260040161430a906163db565b60405180910390fd5b609e60008273ffffffffffffffffffffffffffffffffffffffff1673ffffffffffffffffffffffffffffffffffffffff16815260200190815260200160002060a26000820160009054906101000a900473ffffffffffffffffffffffffffffffffffffffff168160000160006101000a81548173ffffffffffffffffffffffffffffffffffffffff021916908373ffffffffffffffffffffffffffffffffffffffff1602179055506001820160009054906101000a900473ffffffffffffffffffffffffffffffffffffffff168160010160006101000a81548173ffffffffffffffffffffffffffffffffffffffff021916908373ffffffffffffffffffffffffffffffffffffffff1602179055506002820160009054906101000a900473ffffffffffffffffffffffffffffffffffffffff168160020160006101000a81548173ffffffffffffffffffffffffffffffffffffffff021916908373ffffffffffffffffffffffffffffffffffffffff160217905550600382018160030190805461449d9061642a565b6144a8929190615635565b5090505050565b600060a1600083815260200190815260200160002060009054906101000a900460ff169050919050565b6000609b60008473ffffffffffffffffffffffffffffffffffffffff1673ffffffffffffffffffffffffffffffffffffffff168152602001908152602001600020826002811061452c5761452b6164bf565b5b0154905092915050565b60a760009054906101000a900473ffffffffffffffffffffffffffffffffffffffff1673ffffffffffffffffffffffffffffffffffffffff163373ffffffffffffffffffffffffffffffffffffffff1614806145df575060a860009054906101000a900473ffffffffffffffffffffffffffffffffffffffff1673ffffffffffffffffffffffffffffffffffffffff163373ffffffffffffffffffffffffffffffffffffffff16145b80614637575060a960009054906101000a900473ffffffffffffffffffffffffffffffffffffffff1673ffffffffffffffffffffffffffffffffffffffff163373ffffffffffffffffffffffffffffffffffffffff16145b614676576040517f08c379a000000000000000000000000000000000000000000000000000000000815260040161466d906163db565b60405180910390fd5b609c81908060018154018082558091505060019003906000526020600020906002020160009091909190915081816146ae91906175f1565b505050565b60a16020528060005260406000206000915054906101000a900460ff1681565b6000806146df85614ce7565b905080609c8660600135815481106146fa576146f96164bf565b5b9060005260206000209060020201600001541461474c576040517f08c379a000000000000000000000000000000000000000000000000000000000815260040161474390616719565b60405180910390fd5b600073__$1c41232b8c3f9382c4bdca1a05a1ab00e7$__63bd98fe6586866040518363ffffffff1660e01b8152600401614787929190617ab5565b60206040518083038186803b15801561479f57600080fd5b505af41580156147b3573d6000803e3d6000fd5b505050506040513d601f19601f820116820180604052508101906147d79190617aee565b9050808660a001351461481f576040517f08c379a000000000000000000000000000000000000000000000000000000000815260040161481690617b8d565b60405180910390fd5b81925050509392505050565b614833612d86565b73ffffffffffffffffffffffffffffffffffffffff163373ffffffffffffffffffffffffffffffffffffffff16146148a0576040517f08c379a0000000000000000000000000000000000000000000000000000000008152600401614897906166ad565b60405180910390fd5b600073ffffffffffffffffffffffffffffffffffffffff168173ffffffffffffffffffffffffffffffffffffffff1614156148da57600080fd5b7f8be0079c531659141344cd1fd0a4f28419497f9722a3daafe3b4186f6b6457e0614903612d86565b82604051614912929190617bad565b60405180910390a1614923816150aa565b50565b61492e612d86565b73ffffffffffffffffffffffffffffffffffffffff163373ffffffffffffffffffffffffffffffffffffffff161461499b576040517f08c379a0000000000000000000000000000000000000000000000000000000008152600401614992906166ad565b60405180910390fd5b80609960006101000a81548173ffffffffffffffffffffffffffffffffffffffff021916908373ffffffffffffffffffffffffffffffffffffffff1602179055507f210cff5548618e71293ea0d4f1f3563a68e78f00273f3acd97014aac2442ed24609960009054906101000a900473ffffffffffffffffffffffffffffffffffffffff16604051614a2d9190615ad3565b60405180910390a150565b60a28060000160009054906101000a900473ffffffffffffffffffffffffffffffffffffffff16908060010160009054906101000a900473ffffffffffffffffffffffffffffffffffffffff16908060020160009054906101000a900473ffffffffffffffffffffffffffffffffffffffff1690806003018054614abb9061642a565b80601f0160208091040260200160405190810160405280929190818152602001828054614ae79061642a565b8015614b345780601f10614b0957610100808354040283529160200191614b34565b820191906000526020600020905b815481529060010190602001808311614b1757829003601f168201915b5050505050905084565b6060609c805480602002602001604051908101604052809291908181526020016000905b82821015614ba857838290600052602060002090600202016040518060400160405290816000820154815260200160018201548152505081526020019060010190614b62565b50505050905090565b614bb9612290565b15614bf9576040517f08c379a0000000000000000000000000000000000000000000000000000000008152600401614bf090617c22565b60405180910390fd5b565b614c7e846323b872dd60e01b858585604051602401614c1c93929190617c42565b604051602081830303815290604052907bffffffffffffffffffffffffffffffffffffffffffffffffffffffff19166020820180517bffffffffffffffffffffffffffffffffffffffffffffffffffffffff83818316178352505050506150ee565b50505050565b614c8c6151b5565b6000606560006101000a81548160ff0219169083151502179055507f5db9ee0a495bf2e6ff9c91a7834c1ba4fdd244a5e8aa4e537bd38aeae4b073aa614cd06151fe565b604051614cdd9190615ad3565b60405180910390a1565b600081604051602001614cfa9190617db6565b604051602081830303815290604052805190602001209050919050565b600081604051602001614d2a919061802b565b604051602081830303815290604052805190602001209050919050565b60008060019054906101000a900460ff16159050808015614d785750600160008054906101000a900460ff1660ff16105b80614da55750614d8730615087565b158015614da45750600160008054906101000a900460ff1660ff16145b5b614de4576040517f08c379a0000000000000000000000000000000000000000000000000000000008152600401614ddb90617443565b60405180910390fd5b60016000806101000a81548160ff021916908360ff1602179055508015614e21576001600060016101000a81548160ff0219169083151502179055505b614e29615206565b614e31615345565b8015614e8a5760008060016101000a81548160ff0219169083151502179055507f7f26b83ff96e1f2b6a682f133852f6798a09c465da95921460cefb38474024986001604051614e8191906174ab565b60405180910390a15b50565b60008060019054906101000a900460ff16159050808015614ebe5750600160008054906101000a900460ff1660ff16105b80614eeb5750614ecd30615087565b158015614eea5750600160008054906101000a900460ff1660ff16145b5b614f2a576040517f08c379a0000000000000000000000000000000000000000000000000000000008152600401614f2190617443565b60405180910390fd5b60016000806101000a81548160ff021916908360ff1602179055508015614f67576001600060016101000a81548160ff0219169083151502179055505b614f6f615206565b8015614fc85760008060016101000a81548160ff0219169083151502179055507f7f26b83ff96e1f2b6a682f133852f6798a09c465da95921460cefb38474024986001604051614fbf91906174ab565b60405180910390a15b50565b600060019054906101000a900460ff1661501a576040517f08c379a0000000000000000000000000000000000000000000000000000000008152600401615011906180b9565b60405180910390fd5b61502261539e565b565b61502c614bb1565b6001606560006101000a81548160ff0219169083151502179055507f62e78cea01bee320cd4e420270b5ea74000d11b0c9f74754ebdbfc544b05a2586150706151fe565b60405161507d9190615ad3565b60405180910390a1565b6000808273ffffffffffffffffffffffffffffffffffffffff163b119050919050565b80609760006101000a81548173ffffffffffffffffffffffffffffffffffffffff021916908373ffffffffffffffffffffffffffffffffffffffff16021790555050565b6000615150826040518060400160405280602081526020017f5361666545524332303a206c6f772d6c6576656c2063616c6c206661696c65648152508573ffffffffffffffffffffffffffffffffffffffff166153f69092919063ffffffff16565b90506000815111156151b0578080602001905181019061517091906168d6565b6151af576040517f08c379a00000000000000000000000000000000000000000000000000000000081526004016151a69061814b565b60405180910390fd5b5b505050565b6151bd612290565b6151fc576040517f08c379a00000000000000000000000000000000000000000000000000000000081526004016151f3906181b7565b60405180910390fd5b565b600033905090565b60008060019054906101000a900460ff161590508080156152375750600160008054906101000a900460ff1660ff16105b80615264575061524630615087565b1580156152635750600160008054906101000a900460ff1660ff16145b5b6152a3576040517f08c379a000000000000000000000000000000000000000000000000000000000815260040161529a90617443565b60405180910390fd5b60016000806101000a81548160ff021916908360ff16021790555080156152e0576001600060016101000a81548160ff0219169083151502179055505b6152e9336150aa565b80156153425760008060016101000a81548160ff0219169083151502179055507f7f26b83ff96e1f2b6a682f133852f6798a09c465da95921460cefb3847402498600160405161533991906174ab565b60405180910390a15b50565b600060019054906101000a900460ff16615394576040517f08c379a000000000000000000000000000000000000000000000000000000000815260040161538b906180b9565b60405180910390fd5b61539c61540e565b565b600060019054906101000a900460ff166153ed576040517f08c379a00000000000000000000000000000000000000000000000000000000081526004016153e4906180b9565b60405180910390fd5b60018081905550565b6060615405848460008561547a565b90509392505050565b600060019054906101000a900460ff1661545d576040517f08c379a0000000000000000000000000000000000000000000000000000000008152600401615454906180b9565b60405180910390fd5b6000606560006101000a81548160ff021916908315150217905550565b6060824710156154bf576040517f08c379a00000000000000000000000000000000000000000000000000000000081526004016154b690618249565b60405180910390fd5b6154c885615087565b615507576040517f08c379a00000000000000000000000000000000000000000000000000000000081526004016154fe906182b5565b60405180910390fd5b6000808673ffffffffffffffffffffffffffffffffffffffff1685876040516155309190618311565b60006040518083038185875af1925050503d806000811461556d576040519150601f19603f3d011682016040523d82523d6000602084013e615572565b606091505b509150915061558282828661558e565b92505050949350505050565b6060831561559e578290506155ee565b6000835111156155b15782518084602001fd5b816040517f08c379a00000000000000000000000000000000000000000000000000000000081526004016155e59190618328565b60405180910390fd5b9392505050565b5080546156019061642a565b6000825580601f106156135750615632565b601f016020900490600052602060002090810190615631919061582e565b5b50565b8280546156419061642a565b90600052602060002090601f01602090048101928261566357600085556156b1565b82601f1061567457805485556156b1565b828001600101855582156156b157600052602060002091601f016020900482015b828111156156b0578254825591600101919060010190615695565b5b5090506156be919061582e565b5090565b604051806040016040528060008019168152602001600081525090565b8280546156eb9061642a565b90600052602060002090601f01602090048101928261570d5760008555615754565b82601f1061572657803560ff1916838001178555615754565b82800160010185558215615754579182015b82811115615753578235825591602001919060010190615738565b5b509050615761919061582e565b5090565b6040518060800160405280600073ffffffffffffffffffffffffffffffffffffffff168152602001600073ffffffffffffffffffffffffffffffffffffffff168152602001600073ffffffffffffffffffffffffffffffffffffffff168152602001606081525090565b8260028101928215615803579160200282015b82811115615802578251829060ff169055916020019190600101906157e2565b5b509050615810919061582e565b5090565b604051806040016040528060008152602001600081525090565b5b8082111561584757600081600090555060010161582f565b5090565b6000819050919050565b61585e8161584b565b82525050565b60006020820190506158796000830184615855565b92915050565b600080fd5b600080fd5b600073ffffffffffffffffffffffffffffffffffffffff82169050919050565b60006158b482615889565b9050919050565b6158c4816158a9565b81146158cf57600080fd5b50565b6000813590506158e1816158bb565b92915050565b6000602082840312156158fd576158fc61587f565b5b600061590b848285016158d2565b91505092915050565b61591d816158a9565b82525050565b600081519050919050565b600082825260208201905092915050565b60005b8381101561595d578082015181840152602081019050615942565b8381111561596c576000848401525b50505050565b6000601f19601f8301169050919050565b600061598e82615923565b615998818561592e565b93506159a881856020860161593f565b6159b181615972565b840191505092915050565b60006080820190506159d16000830187615914565b6159de6020830186615914565b6159eb6040830185615914565b81810360608301526159fd8184615983565b905095945050505050565b6000819050919050565b615a1b81615a08565b82525050565b615a2a8161584b565b82525050565b604082016000820151615a466000850182615a12565b506020820151615a596020850182615a21565b50505050565b6000604082019050615a746000830184615a30565b92915050565b615a838161584b565b8114615a8e57600080fd5b50565b600081359050615aa081615a7a565b92915050565b600060208284031215615abc57615abb61587f565b5b6000615aca84828501615a91565b91505092915050565b6000602082019050615ae86000830184615914565b92915050565b600080fd5b600080fd5b600080fd5b60008083601f840112615b1357615b12615aee565b5b8235905067ffffffffffffffff811115615b3057615b2f615af3565b5b602083019150836001820283011115615b4c57615b4b615af8565b5b9250929050565b600080600060408486031215615b6c57615b6b61587f565b5b6000615b7a868287016158d2565b935050602084013567ffffffffffffffff811115615b9b57615b9a615884565b5b615ba786828701615afd565b92509250509250925092565b615bbc81615a08565b82525050565b6000604082019050615bd76000830185615bb3565b615be46020830184615855565b9392505050565b615bf4816158a9565b82525050565b600082825260208201905092915050565b6000615c1682615923565b615c208185615bfa565b9350615c3081856020860161593f565b615c3981615972565b840191505092915050565b6000608083016000830151615c5c6000860182615beb565b506020830151615c6f6020860182615beb565b506040830151615c826040860182615beb565b5060608301518482036060860152615c9a8282615c0b565b9150508091505092915050565b60006020820190508181036000830152615cc18184615c44565b905092915050565b6000602082019050615cde6000830184615bb3565b92915050565b60008060408385031215615cfb57615cfa61587f565b5b6000615d09858286016158d2565b9250506020615d1a85828601615a91565b9150509250929050565b600080fd5b600060c08284031215615d3f57615d3e615d24565b5b81905092915050565b60006103008284031215615d5f57615d5e615d24565b5b81905092915050565b60008083601f840112615d7e57615d7d615aee565b5b8235905067ffffffffffffffff811115615d9b57615d9a615af3565b5b602083019150836020820283011115615db757615db6615af8565b5b9250929050565b60008060008060006104008688031215615ddb57615dda61587f565b5b6000615de988828901615d29565b95505060c0615dfa88828901615d48565b9450506103c0615e0c88828901615a91565b9350506103e086013567ffffffffffffffff811115615e2e57615e2d615884565b5b615e3a88828901615d68565b92509250509295509295909350565b60008115159050919050565b615e5e81615e49565b82525050565b6000602082019050615e796000830184615e55565b92915050565b600080600060608486031215615e9857615e9761587f565b5b6000615ea6868287016158d2565b9350506020615eb7868287016158d2565b9250506040615ec886828701615a91565b9150509250925092565b6000604082019050615ee76000830185615855565b615ef46020830184615855565b9392505050565b60008060008060808587031215615f1557615f1461587f565b5b6000615f23878288016158d2565b9450506020615f3487828801615a91565b9350506040615f4587828801615a91565b9250506060615f5687828801615a91565b91505092959194509250565b600080600060608486031215615f7b57615f7a61587f565b5b6000615f89868287016158d2565b9350506020615f9a86828701615a91565b9250506040615fab86828701615a91565b9150509250925092565b60008083601f840112615fcb57615fca615aee565b5b8235905067ffffffffffffffff811115615fe857615fe7615af3565b5b6020830191508361030082028301111561600557616004615af8565b5b9250929050565b600080600060e084860312156160255761602461587f565b5b600061603386828701615d29565b93505060c084013567ffffffffffffffff81111561605457616053615884565b5b61606086828701615fb5565b92509250509250925092565b61607581615a08565b811461608057600080fd5b50565b6000813590506160928161606c565b92915050565b6000602082840312156160ae576160ad61587f565b5b60006160bc84828501616083565b91505092915050565b6000608082840312156160db576160da615d24565b5b81905092915050565b600080604083850312156160fb576160fa61587f565b5b6000616109858286016158d2565b925050602083013567ffffffffffffffff81111561612a57616129615884565b5b616136858286016160c5565b9150509250929050565b6040820160008201516161566000850182615a21565b5060208201516161696020850182615a21565b50505050565b60006040820190506161846000830184616140565b92915050565b600080604083850312156161a1576161a061587f565b5b60006161af85828601616083565b92505060206161c085828601615a91565b9150509250929050565b6000806000606084860312156161e3576161e261587f565b5b60006161f1868287016158d2565b9350506020616202868287016158d2565b9250506040616213868287016158d2565b9150509250925092565b60006040828403121561623357616232615d24565b5b81905092915050565b6000604082840312156162525761625161587f565b5b60006162608482850161621d565b91505092915050565b600081519050919050565b600082825260208201905092915050565b6000819050602082019050919050565b6040820160008201516162ab6000850182615a12565b5060208201516162be6020850182615a21565b50505050565b60006162d08383616295565b60408301905092915050565b6000602082019050919050565b60006162f482616269565b6162fe8185616274565b935061630983616285565b8060005b8381101561633a57815161632188826162c4565b975061632c836162dc565b92505060018101905061630d565b5085935050505092915050565b6000602082019050818103600083015261636181846162e9565b905092915050565b7f546869732061646472657373206973206e6f7420617574686f7269736564207460008201527f6f2063616c6c20746869732066756e6374696f6e000000000000000000000000602082015250565b60006163c560348361592e565b91506163d082616369565b604082019050919050565b600060208201905081810360008301526163f4816163b8565b9050919050565b7f4e487b7100000000000000000000000000000000000000000000000000000000600052602260045260246000fd5b6000600282049050600182168061644257607f821691505b60208210811415616456576164556163fb565b5b50919050565b7f4e487b7100000000000000000000000000000000000000000000000000000000600052601160045260246000fd5b60006164968261584b565b91506164a18361584b565b9250828210156164b4576164b361645c565b5b828203905092915050565b7f4e487b7100000000000000000000000000000000000000000000000000000000600052603260045260246000fd5b7f4e487b7100000000000000000000000000000000000000000000000000000000600052603160045260246000fd5b7f5265656e7472616e637947756172643a207265656e7472616e742063616c6c00600082015250565b6000616553601f8361592e565b915061655e8261651d565b602082019050919050565b6000602082019050818103600083015261658281616546565b9050919050565b600081905092915050565b50565b60006165a4600083616589565b91506165af82616594565b600082019050919050565b60006165c582616597565b9150819050919050565b7f5472616e73666572206661696c65642e00000000000000000000000000000000600082015250565b600061660560108361592e565b9150616610826165cf565b602082019050919050565b60006020820190508181036000830152616634816165f8565b9050919050565b7f596f7520617265206e6f7420617574686f726973656420746f20696e766f6b6560008201527f20746869732066756e6374696f6e000000000000000000000000000000000000602082015250565b6000616697602e8361592e565b91506166a28261663b565b604082019050919050565b600060208201905081810360008301526166c68161668a565b9050919050565b7f5468697320626c6f636b20646f6573206e6f7420657869737400000000000000600082015250565b600061670360198361592e565b915061670e826166cd565b602082019050919050565b60006020820190508181036000830152616732816166f6565b9050919050565b7f54686973207472616e73616374696f6e2068617368657320726f6f742069732060008201527f696e636f72726563740000000000000000000000000000000000000000000000602082015250565b600061679560298361592e565b91506167a082616739565b604082019050919050565b600060208201905081810360008301526167c481616788565b9050919050565b600082825260208201905092915050565b600080fd5b82818337600083830152505050565b60006167fc83856167cb565b93507f07ffffffffffffffffffffffffffffffffffffffffffffffffffffffffffffff83111561682f5761682e6167dc565b5b6020830292506168408385846167e1565b82840190509392505050565b6168558161584b565b82525050565b61686481615a08565b82525050565b600060608201905081810360008301526168858186886167f0565b9050616894602083018561684c565b6168a1604083018461685b565b95945050505050565b6168b381615e49565b81146168be57600080fd5b50565b6000815190506168d0816168aa565b92915050565b6000602082840312156168ec576168eb61587f565b5b60006168fa848285016168c1565b91505092915050565b7f5472616e73616374696f6e20646f6573206e6f7420657869737420696e20626c60008201527f6f636b0000000000000000000000000000000000000000000000000000000000602082015250565b600061695f60238361592e565b915061696a82616903565b604082019050919050565b6000602082019050818103600083015261698e81616952565b9050919050565b60006169a08261584b565b91506169ab8361584b565b9250817fffffffffffffffffffffffffffffffffffffffffffffffffffffffffffffffff04831182151516156169e4576169e361645c565b5b828202905092915050565b60006169fa8261584b565b9150616a058361584b565b9250827fffffffffffffffffffffffffffffffffffffffffffffffffffffffffffffffff03821115616a3a57616a3961645c565b5b828201905092915050565b60008160601b9050919050565b6000616a5d82616a45565b9050919050565b6000616a6f82616a52565b9050919050565b616a87616a82826158a9565b616a64565b82525050565b6000819050919050565b616aa8616aa38261584b565b616a8d565b82525050565b6000616aba8285616a76565b601482019150616aca8284616a97565b6020820191508190509392505050565b7f4f6e6c79207468652063757272656e742070726f706f7365722063616e20636160008201527f6c6c20746869732e000000000000000000000000000000000000000000000000602082015250565b6000616b3660288361592e565b9150616b4182616ada565b604082019050919050565b60006020820190508181036000830152616b6581616b29565b9050919050565b7f54686520626c6f636b206973206f7574206f66206f7264657200000000000000600082015250565b6000616ba260198361592e565b9150616bad82616b6c565b602082019050919050565b60006020820190508181036000830152616bd181616b95565b9050919050565b7f54686520626c6f636b20697320666c61776564206f72206f7574206f66206f7260008201527f6465720000000000000000000000000000000000000000000000000000000000602082015250565b6000616c3460238361592e565b9150616c3f82616bd8565b604082019050919050565b60006020820190508181036000830152616c6381616c27565b9050919050565b7f546865207374616b65207061796d656e7420697320696e636f72726563740000600082015250565b6000616ca0601e8361592e565b9150616cab82616c6a565b602082019050919050565b60006020820190508181036000830152616ccf81616c93565b9050919050565b7f5468652070726f706f7365722061646472657373206973206e6f74207468652060008201527f73656e6465720000000000000000000000000000000000000000000000000000602082015250565b6000616d3260268361592e565b9150616d3d82616cd6565b604082019050919050565b60006020820190508181036000830152616d6181616d25565b9050919050565b7f54686520626c6f636b2068617320746f6f206d616e79207472616e736163746960008201527f6f6e730000000000000000000000000000000000000000000000000000000000602082015250565b6000616dc460238361592e565b9150616dcf82616d68565b604082019050919050565b60006020820190508181036000830152616df381616db7565b9050919050565b7f4e487b7100000000000000000000000000000000000000000000000000000000600052602160045260246000fd5b60038110616e3657600080fd5b50565b600081359050616e4881616e29565b92915050565b600060208284031215616e6457616e6361587f565b5b6000616e7284828501616e39565b91505092915050565b60006dffffffffffffffffffffffffffff82169050919050565b616e9e81616e7b565b8114616ea957600080fd5b50565b600081359050616ebb81616e95565b92915050565b600060208284031215616ed757616ed661587f565b5b6000616ee584828501616eac565b91505092915050565b6000616ef98261584b565b91507fffffffffffffffffffffffffffffffffffffffffffffffffffffffffffffffff821415616f2c57616f2b61645c565b5b600182019050919050565b60008135616f44816158bb565b80915050919050565b60008160001b9050919050565b600073ffffffffffffffffffffffffffffffffffffffff616f7a84616f4d565b9350801983169250808416831791505092915050565b6000819050919050565b6000616fb5616fb0616fab84615889565b616f90565b615889565b9050919050565b6000616fc782616f9a565b9050919050565b6000616fd982616fbc565b9050919050565b6000819050919050565b616ff382616fce565b617006616fff82616fe0565b8354616f5a565b8255505050565b600080fd5b600080fd5b600080fd5b600080833560016020038436030381126170395761703861700d565b5b80840192508235915067ffffffffffffffff82111561705b5761705a617012565b5b60208301925060018202360383131561707757617076617017565b5b509250929050565b600082905092915050565b7f4e487b7100000000000000000000000000000000000000000000000000000000600052604160045260246000fd5b60008190508160005260206000209050919050565b60006020601f8301049050919050565b600082821b905092915050565b60006008830261711b7fffffffffffffffffffffffffffffffffffffffffffffffffffffffffffffffff826170de565b61712586836170de565b95508019841693508086168417925050509392505050565b600061715861715361714e8461584b565b616f90565b61584b565b9050919050565b6000819050919050565b6171728361713d565b61718661717e8261715f565b8484546170eb565b825550505050565b600090565b61719b61718e565b6171a6818484617169565b505050565b5b818110156171ca576171bf600082617193565b6001810190506171ac565b5050565b601f82111561720f576171e0816170b9565b6171e9846170ce565b810160208510156171f8578190505b61720c617204856170ce565b8301826171ab565b50505b505050565b600082821c905092915050565b600061723260001984600802617214565b1980831691505092915050565b600061724b8383617221565b9150826002028217905092915050565b617265838361707f565b67ffffffffffffffff81111561727e5761727d61708a565b5b617288825461642a565b6172938282856171ce565b6000601f8311600181146172c257600084156172b0578287013590505b6172ba858261723f565b865550617322565b601f1984166172d0866170b9565b60005b828110156172f8578489013582556001820191506020850194506020810190506172d3565b868310156173155784890135617311601f891682617221565b8355505b6001600288020188555050505b50505050505050565b61733683838361725b565b505050565b60008101600083018061734d81616f37565b90506173598184616fea565b50505060018101602083018061736e81616f37565b905061737a8184616fea565b50505060028101604083018061738f81616f37565b905061739b8184616fea565b50505060038101606083016173b0818561701c565b6173bb81838661732b565b505050505050565b6173cd828261733b565b5050565b7f496e697469616c697a61626c653a20636f6e747261637420697320616c72656160008201527f647920696e697469616c697a6564000000000000000000000000000000000000602082015250565b600061742d602e8361592e565b9150617438826173d1565b604082019050919050565b6000602082019050818103600083015261745c81617420565b9050919050565b6000819050919050565b600060ff82169050919050565b600061749561749061748b84617463565b616f90565b61746d565b9050919050565b6174a58161747a565b82525050565b60006020820190506174c0600083018461749c565b92915050565b600081356174d38161606c565b80915050919050565b60007fffffffffffffffffffffffffffffffffffffffffffffffffffffffffffffffff61750884616f4d565b9350801983169250808416831791505092915050565b600061752982615a08565b9050919050565b60008160001c9050919050565b600061754882617530565b9050919050565b6175588261751e565b61756b6175648261753d565b83546174dc565b8255505050565b6000813561757f81615a7a565b80915050919050565b6175918261713d565b6175a461759d8261715f565b83546174dc565b8255505050565b6000810160008301806175bd816174c6565b90506175c9818461754f565b5050506001810160208301806175de81617572565b90506175ea8184617588565b5050505050565b6175fb82826175ab565b5050565b600082825260208201905092915050565b6000819050919050565b60006176296020840184616eac565b905092915050565b61763a81616e7b565b82525050565b600061764f6020840184616e39565b905092915050565b6003811061766857617667616dfa565b5b50565b600081905061767982617657565b919050565b60006176898261766b565b9050919050565b6176998161767e565b82525050565b600381106176ac57600080fd5b50565b6000813590506176be8161769f565b92915050565b60006176d360208401846176af565b905092915050565b600381106176ec576176eb616dfa565b5b50565b60008190506176fd826176db565b919050565b600061770d826176ef565b9050919050565b61771d81617702565b82525050565b600082905092915050565b600060049050919050565b600081905092915050565b6000819050919050565b600067ffffffffffffffff82169050919050565b61776b8161774e565b82525050565b600061777d8383617762565b60208301905092915050565b6177928161774e565b811461779d57600080fd5b50565b6000813590506177af81617789565b92915050565b60006177c460208401846177a0565b905092915050565b6000602082019050919050565b6177e28161772e565b6177ec8184617739565b92506177f782617744565b8060005b838110156178305761780d82846177b5565b6178178782617771565b9650617822836177cc565b9250506001810190506177fb565b505050505050565b60006178476020840184616083565b905092915050565b61785881615a08565b82525050565b600082905092915050565b617875606083836167e1565b5050565b600082905092915050565b617890608083836167e1565b5050565b600082905092915050565b6178ab604083836167e1565b5050565b600082905092915050565b6178c6608083836167e1565b5050565b61030082016178dc600083018361761a565b6178e96000850182617631565b506178f7602083018361761a565b6179046020850182617631565b506179126040830183617640565b61791f6040850182617690565b5061792d60608301836176c4565b61793a6060850182617714565b506179486080830183617723565b61795560808501826177d9565b50617964610100830183617838565b61797261010085018261784f565b50617981610120830183617838565b61798f61012085018261784f565b5061799e610140830183617838565b6179ac61014085018261784f565b506179bb61016083018361785e565b6179c9610160850182617869565b506179d86101c0830183617879565b6179e66101c0850182617884565b506179f5610240830183617894565b617a0361024085018261789f565b50617a126102808301836178af565b617a206102808501826178ba565b50505050565b6000617a3283836178ca565b6103008301905092915050565b600082905092915050565b600061030082019050919050565b6000617a6483856175ff565b9350617a6f82617610565b8060005b85811015617aa857617a858284617a3f565b617a8f8882617a26565b9750617a9a83617a4a565b925050600181019050617a73565b5085925050509392505050565b60006020820190508181036000830152617ad0818486617a58565b90509392505050565b600081519050617ae88161606c565b92915050565b600060208284031215617b0457617b0361587f565b5b6000617b1284828501617ad9565b91505092915050565b7f536f6d65206f66207468657365207472616e73616374696f6e7320617265206e60008201527f6f7420696e207468697320626c6f636b00000000000000000000000000000000602082015250565b6000617b7760308361592e565b9150617b8282617b1b565b604082019050919050565b60006020820190508181036000830152617ba681617b6a565b9050919050565b6000604082019050617bc26000830185615914565b617bcf6020830184615914565b9392505050565b7f5061757361626c653a2070617573656400000000000000000000000000000000600082015250565b6000617c0c60108361592e565b9150617c1782617bd6565b602082019050919050565b60006020820190508181036000830152617c3b81617bff565b9050919050565b6000606082019050617c576000830186615914565b617c646020830185615914565b617c716040830184615855565b949350505050565b600065ffffffffffff82169050919050565b617c9481617c79565b8114617c9f57600080fd5b50565b600081359050617cb181617c8b565b92915050565b6000617cc66020840184617ca2565b905092915050565b617cd781617c79565b82525050565b6000617cec60208401846158d2565b905092915050565b6000617d036020840184615a91565b905092915050565b60c08201617d1c6000830183617cb7565b617d296000850182617cce565b50617d376020830183617cdd565b617d446020850182615beb565b50617d526040830183617838565b617d5f6040850182615a12565b50617d6d6060830183617cf4565b617d7a6060850182615a21565b50617d886080830183617838565b617d956080850182615a12565b50617da360a0830183617838565b617db060a0850182615a12565b50505050565b600060c082019050617dcb6000830184617d0b565b92915050565b617dda81616e7b565b82525050565b617de98161767e565b82525050565b617df881617702565b82525050565b600081905092915050565b617e128161774e565b82525050565b6000617e248383617e09565b60208301905092915050565b617e398161772e565b617e438184617dfe565b9250617e4e82617744565b8060005b83811015617e8757617e6482846177b5565b617e6e8782617e18565b9650617e79836177cc565b925050600181019050617e52565b505050505050565b617e9b606083836167e1565b5050565b617eab608083836167e1565b5050565b617ebb604083836167e1565b5050565b617ecb608083836167e1565b5050565b6103008201617ee1600083018361761a565b617eee6000850182617dd1565b50617efc602083018361761a565b617f096020850182617dd1565b50617f176040830183617640565b617f246040850182617de0565b50617f3260608301836176c4565b617f3f6060850182617def565b50617f4d6080830183617723565b617f5a6080850182617e30565b50617f69610100830183617838565b617f77610100850182615a12565b50617f86610120830183617838565b617f94610120850182615a12565b50617fa3610140830183617838565b617fb1610140850182615a12565b50617fc061016083018361785e565b617fce610160850182617e8f565b50617fdd6101c0830183617879565b617feb6101c0850182617e9f565b50617ffa610240830183617894565b618008610240850182617eaf565b506180176102808301836178af565b618025610280850182617ebf565b50505050565b6000610300820190506180416000830184617ecf565b92915050565b7f496e697469616c697a61626c653a20636f6e7472616374206973206e6f74206960008201527f6e697469616c697a696e67000000000000000000000000000000000000000000602082015250565b60006180a3602b8361592e565b91506180ae82618047565b604082019050919050565b600060208201905081810360008301526180d281618096565b9050919050565b7f5361666545524332303a204552433230206f7065726174696f6e20646964206e60008201527f6f74207375636365656400000000000000000000000000000000000000000000602082015250565b6000618135602a8361592e565b9150618140826180d9565b604082019050919050565b6000602082019050818103600083015261816481618128565b9050919050565b7f5061757361626c653a206e6f7420706175736564000000000000000000000000600082015250565b60006181a160148361592e565b91506181ac8261816b565b602082019050919050565b600060208201905081810360008301526181d081618194565b9050919050565b7f416464726573733a20696e73756666696369656e742062616c616e636520666f60008201527f722063616c6c0000000000000000000000000000000000000000000000000000602082015250565b600061823360268361592e565b915061823e826181d7565b604082019050919050565b6000602082019050818103600083015261826281618226565b9050919050565b7f416464726573733a2063616c6c20746f206e6f6e2d636f6e7472616374000000600082015250565b600061829f601d8361592e565b91506182aa82618269565b602082019050919050565b600060208201905081810360008301526182ce81618292565b9050919050565b600081519050919050565b60006182eb826182d5565b6182f58185616589565b935061830581856020860161593f565b80840191505092915050565b600061831d82846182e0565b915081905092915050565b600060208201905081810360008301526183428184615983565b90509291505056fea264697066735822122051a581d6e6dbd16ef1dd5ce33197de879907119aa766aa6b30ff94f8244a323564736f6c63430008090033",
  "linkReferences": {
    "contracts/Utils.sol": {
      "Utils": [
        {
          "length": 20,
          "start": 8660
        },
        {
          "length": 20,
          "start": 18290
        }
      ]
    }
  },
  "deployedLinkReferences": {
    "contracts/Utils.sol": {
      "Utils": [
        {
          "length": 20,
          "start": 8626
        },
        {
          "length": 20,
          "start": 18256
        }
      ]
    }
  }
}