{
  "_format": "hh-sol-artifact-1",
  "contractName": "ChallengesUtil",
  "sourceName": "contracts/ChallengesUtil.sol",
  "abi": [
    {
      "inputs": [
        {
          "components": [
            {
              "internalType": "uint112",
              "name": "value",
              "type": "uint112"
            },
            {
              "internalType": "uint112",
              "name": "fee",
              "type": "uint112"
            },
            {
              "internalType": "enum Structures.TransactionTypes",
              "name": "transactionType",
              "type": "Structures.TransactionTypes"
            },
            {
              "internalType": "enum Structures.TokenType",
              "name": "tokenType",
              "type": "Structures.TokenType"
            },
            {
              "internalType": "uint64[4]",
              "name": "historicRootBlockNumberL2",
              "type": "uint64[4]"
            },
            {
              "internalType": "bytes32",
              "name": "tokenId",
              "type": "bytes32"
            },
            {
              "internalType": "bytes32",
              "name": "ercAddress",
              "type": "bytes32"
            },
            {
              "internalType": "bytes32",
              "name": "recipientAddress",
              "type": "bytes32"
            },
            {
              "internalType": "bytes32[3]",
              "name": "commitments",
              "type": "bytes32[3]"
            },
            {
              "internalType": "bytes32[4]",
              "name": "nullifiers",
              "type": "bytes32[4]"
            },
            {
              "internalType": "bytes32[2]",
              "name": "compressedSecrets",
              "type": "bytes32[2]"
            },
            {
              "internalType": "uint256[4]",
              "name": "proof",
              "type": "uint256[4]"
            }
          ],
          "internalType": "struct Structures.Transaction",
          "name": "tx1",
          "type": "tuple"
        },
        {
          "internalType": "uint256",
          "name": "commitmentIndex1",
          "type": "uint256"
        },
        {
          "components": [
            {
              "internalType": "uint112",
              "name": "value",
              "type": "uint112"
            },
            {
              "internalType": "uint112",
              "name": "fee",
              "type": "uint112"
            },
            {
              "internalType": "enum Structures.TransactionTypes",
              "name": "transactionType",
              "type": "Structures.TransactionTypes"
            },
            {
              "internalType": "enum Structures.TokenType",
              "name": "tokenType",
              "type": "Structures.TokenType"
            },
            {
              "internalType": "uint64[4]",
              "name": "historicRootBlockNumberL2",
              "type": "uint64[4]"
            },
            {
              "internalType": "bytes32",
              "name": "tokenId",
              "type": "bytes32"
            },
            {
              "internalType": "bytes32",
              "name": "ercAddress",
              "type": "bytes32"
            },
            {
              "internalType": "bytes32",
              "name": "recipientAddress",
              "type": "bytes32"
            },
            {
              "internalType": "bytes32[3]",
              "name": "commitments",
              "type": "bytes32[3]"
            },
            {
              "internalType": "bytes32[4]",
              "name": "nullifiers",
              "type": "bytes32[4]"
            },
            {
              "internalType": "bytes32[2]",
              "name": "compressedSecrets",
              "type": "bytes32[2]"
            },
            {
              "internalType": "uint256[4]",
              "name": "proof",
              "type": "uint256[4]"
            }
          ],
          "internalType": "struct Structures.Transaction",
          "name": "tx2",
          "type": "tuple"
        },
        {
          "internalType": "uint256",
          "name": "commitmentIndex2",
          "type": "uint256"
        }
      ],
      "name": "libChallengeCommitment",
      "outputs": [],
      "stateMutability": "pure",
      "type": "function"
    },
    {
      "inputs": [
        {
          "components": [
            {
              "internalType": "uint48",
              "name": "leafCount",
              "type": "uint48"
            },
            {
              "internalType": "address",
              "name": "proposer",
              "type": "address"
            },
            {
              "internalType": "bytes32",
              "name": "root",
              "type": "bytes32"
            },
            {
              "internalType": "uint256",
              "name": "blockNumberL2",
              "type": "uint256"
            },
            {
              "internalType": "bytes32",
              "name": "previousBlockHash",
              "type": "bytes32"
            },
            {
              "internalType": "bytes32",
              "name": "transactionHashesRoot",
              "type": "bytes32"
            }
          ],
          "internalType": "struct Structures.Block",
          "name": "priorBlockL2",
          "type": "tuple"
        },
        {
          "components": [
            {
              "internalType": "uint112",
              "name": "value",
              "type": "uint112"
            },
            {
              "internalType": "uint112",
              "name": "fee",
              "type": "uint112"
            },
            {
              "internalType": "enum Structures.TransactionTypes",
              "name": "transactionType",
              "type": "Structures.TransactionTypes"
            },
            {
              "internalType": "enum Structures.TokenType",
              "name": "tokenType",
              "type": "Structures.TokenType"
            },
            {
              "internalType": "uint64[4]",
              "name": "historicRootBlockNumberL2",
              "type": "uint64[4]"
            },
            {
              "internalType": "bytes32",
              "name": "tokenId",
              "type": "bytes32"
            },
            {
              "internalType": "bytes32",
              "name": "ercAddress",
              "type": "bytes32"
            },
            {
              "internalType": "bytes32",
              "name": "recipientAddress",
              "type": "bytes32"
            },
            {
              "internalType": "bytes32[3]",
              "name": "commitments",
              "type": "bytes32[3]"
            },
            {
              "internalType": "bytes32[4]",
              "name": "nullifiers",
              "type": "bytes32[4]"
            },
            {
              "internalType": "bytes32[2]",
              "name": "compressedSecrets",
              "type": "bytes32[2]"
            },
            {
              "internalType": "uint256[4]",
              "name": "proof",
              "type": "uint256[4]"
            }
          ],
          "internalType": "struct Structures.Transaction[]",
          "name": "priorBlockTransactions",
          "type": "tuple[]"
        },
        {
          "internalType": "uint256",
          "name": "leafCount",
          "type": "uint256"
        }
      ],
      "name": "libChallengeLeafCountCorrect",
      "outputs": [],
      "stateMutability": "pure",
      "type": "function"
    },
    {
      "inputs": [
        {
          "components": [
            {
              "internalType": "uint48",
              "name": "leafCount",
              "type": "uint48"
            },
            {
              "internalType": "address",
              "name": "proposer",
              "type": "address"
            },
            {
              "internalType": "bytes32",
              "name": "root",
              "type": "bytes32"
            },
            {
              "internalType": "uint256",
              "name": "blockNumberL2",
              "type": "uint256"
            },
            {
              "internalType": "bytes32",
              "name": "previousBlockHash",
              "type": "bytes32"
            },
            {
              "internalType": "bytes32",
              "name": "transactionHashesRoot",
              "type": "bytes32"
            }
          ],
          "internalType": "struct Structures.Block",
          "name": "priorBlockL2",
          "type": "tuple"
        },
        {
          "components": [
            {
              "internalType": "uint112",
              "name": "value",
              "type": "uint112"
            },
            {
              "internalType": "uint112",
              "name": "fee",
              "type": "uint112"
            },
            {
              "internalType": "enum Structures.TransactionTypes",
              "name": "transactionType",
              "type": "Structures.TransactionTypes"
            },
            {
              "internalType": "enum Structures.TokenType",
              "name": "tokenType",
              "type": "Structures.TokenType"
            },
            {
              "internalType": "uint64[4]",
              "name": "historicRootBlockNumberL2",
              "type": "uint64[4]"
            },
            {
              "internalType": "bytes32",
              "name": "tokenId",
              "type": "bytes32"
            },
            {
              "internalType": "bytes32",
              "name": "ercAddress",
              "type": "bytes32"
            },
            {
              "internalType": "bytes32",
              "name": "recipientAddress",
              "type": "bytes32"
            },
            {
              "internalType": "bytes32[3]",
              "name": "commitments",
              "type": "bytes32[3]"
            },
            {
              "internalType": "bytes32[4]",
              "name": "nullifiers",
              "type": "bytes32[4]"
            },
            {
              "internalType": "bytes32[2]",
              "name": "compressedSecrets",
              "type": "bytes32[2]"
            },
            {
              "internalType": "uint256[4]",
              "name": "proof",
              "type": "uint256[4]"
            }
          ],
          "internalType": "struct Structures.Transaction[]",
          "name": "priorBlockTransactions",
          "type": "tuple[]"
        },
        {
          "internalType": "bytes32[33]",
          "name": "frontierPriorBlock",
          "type": "bytes32[33]"
        },
        {
          "components": [
            {
              "internalType": "uint48",
              "name": "leafCount",
              "type": "uint48"
            },
            {
              "internalType": "address",
              "name": "proposer",
              "type": "address"
            },
            {
              "internalType": "bytes32",
              "name": "root",
              "type": "bytes32"
            },
            {
              "internalType": "uint256",
              "name": "blockNumberL2",
              "type": "uint256"
            },
            {
              "internalType": "bytes32",
              "name": "previousBlockHash",
              "type": "bytes32"
            },
            {
              "internalType": "bytes32",
              "name": "transactionHashesRoot",
              "type": "bytes32"
            }
          ],
          "internalType": "struct Structures.Block",
          "name": "blockL2",
          "type": "tuple"
        },
        {
          "components": [
            {
              "internalType": "uint112",
              "name": "value",
              "type": "uint112"
            },
            {
              "internalType": "uint112",
              "name": "fee",
              "type": "uint112"
            },
            {
              "internalType": "enum Structures.TransactionTypes",
              "name": "transactionType",
              "type": "Structures.TransactionTypes"
            },
            {
              "internalType": "enum Structures.TokenType",
              "name": "tokenType",
              "type": "Structures.TokenType"
            },
            {
              "internalType": "uint64[4]",
              "name": "historicRootBlockNumberL2",
              "type": "uint64[4]"
            },
            {
              "internalType": "bytes32",
              "name": "tokenId",
              "type": "bytes32"
            },
            {
              "internalType": "bytes32",
              "name": "ercAddress",
              "type": "bytes32"
            },
            {
              "internalType": "bytes32",
              "name": "recipientAddress",
              "type": "bytes32"
            },
            {
              "internalType": "bytes32[3]",
              "name": "commitments",
              "type": "bytes32[3]"
            },
            {
              "internalType": "bytes32[4]",
              "name": "nullifiers",
              "type": "bytes32[4]"
            },
            {
              "internalType": "bytes32[2]",
              "name": "compressedSecrets",
              "type": "bytes32[2]"
            },
            {
              "internalType": "uint256[4]",
              "name": "proof",
              "type": "uint256[4]"
            }
          ],
          "internalType": "struct Structures.Transaction[]",
          "name": "transactions",
          "type": "tuple[]"
        }
      ],
      "name": "libChallengeNewRootCorrect",
      "outputs": [],
      "stateMutability": "pure",
      "type": "function"
    },
    {
      "inputs": [
        {
          "components": [
            {
              "internalType": "uint112",
              "name": "value",
              "type": "uint112"
            },
            {
              "internalType": "uint112",
              "name": "fee",
              "type": "uint112"
            },
            {
              "internalType": "enum Structures.TransactionTypes",
              "name": "transactionType",
              "type": "Structures.TransactionTypes"
            },
            {
              "internalType": "enum Structures.TokenType",
              "name": "tokenType",
              "type": "Structures.TokenType"
            },
            {
              "internalType": "uint64[4]",
              "name": "historicRootBlockNumberL2",
              "type": "uint64[4]"
            },
            {
              "internalType": "bytes32",
              "name": "tokenId",
              "type": "bytes32"
            },
            {
              "internalType": "bytes32",
              "name": "ercAddress",
              "type": "bytes32"
            },
            {
              "internalType": "bytes32",
              "name": "recipientAddress",
              "type": "bytes32"
            },
            {
              "internalType": "bytes32[3]",
              "name": "commitments",
              "type": "bytes32[3]"
            },
            {
              "internalType": "bytes32[4]",
              "name": "nullifiers",
              "type": "bytes32[4]"
            },
            {
              "internalType": "bytes32[2]",
              "name": "compressedSecrets",
              "type": "bytes32[2]"
            },
            {
              "internalType": "uint256[4]",
              "name": "proof",
              "type": "uint256[4]"
            }
          ],
          "internalType": "struct Structures.Transaction",
          "name": "tx1",
          "type": "tuple"
        },
        {
          "internalType": "uint256",
          "name": "nullifierIndex1",
          "type": "uint256"
        },
        {
          "components": [
            {
              "internalType": "uint112",
              "name": "value",
              "type": "uint112"
            },
            {
              "internalType": "uint112",
              "name": "fee",
              "type": "uint112"
            },
            {
              "internalType": "enum Structures.TransactionTypes",
              "name": "transactionType",
              "type": "Structures.TransactionTypes"
            },
            {
              "internalType": "enum Structures.TokenType",
              "name": "tokenType",
              "type": "Structures.TokenType"
            },
            {
              "internalType": "uint64[4]",
              "name": "historicRootBlockNumberL2",
              "type": "uint64[4]"
            },
            {
              "internalType": "bytes32",
              "name": "tokenId",
              "type": "bytes32"
            },
            {
              "internalType": "bytes32",
              "name": "ercAddress",
              "type": "bytes32"
            },
            {
              "internalType": "bytes32",
              "name": "recipientAddress",
              "type": "bytes32"
            },
            {
              "internalType": "bytes32[3]",
              "name": "commitments",
              "type": "bytes32[3]"
            },
            {
              "internalType": "bytes32[4]",
              "name": "nullifiers",
              "type": "bytes32[4]"
            },
            {
              "internalType": "bytes32[2]",
              "name": "compressedSecrets",
              "type": "bytes32[2]"
            },
            {
              "internalType": "uint256[4]",
              "name": "proof",
              "type": "uint256[4]"
            }
          ],
          "internalType": "struct Structures.Transaction",
          "name": "tx2",
          "type": "tuple"
        },
        {
          "internalType": "uint256",
          "name": "nullifierIndex2",
          "type": "uint256"
        }
      ],
      "name": "libChallengeNullifier",
      "outputs": [],
      "stateMutability": "pure",
      "type": "function"
    }
  ],
  "bytecode": "0x6112ca610053600b82828239805160001a607314610046577f4e487b7100000000000000000000000000000000000000000000000000000000600052600060045260246000fd5b30600052607381538281f3fe73000000000000000000000000000000000000000030146080604052600436106100565760003560e01c806342239c6c1461005b5780638185f01d14610077578063e3fc4e3314610093578063ff124ee8146100af575b600080fd5b610075600480360381019061007091906108ef565b6100cb565b005b610091600480360381019061008c9190610984565b610148565b005b6100ad60048036038101906100a89190610a11565b6101f0565b005b6100c960048036038101906100c49190610984565b610413565b005b60006100d784846104bb565b8560000160208101906100ea9190610b0e565b65ffffffffffff166100fc9190610b6a565b905081811415610141576040517f08c379a000000000000000000000000000000000000000000000000000000000815260040161013890610c43565b60405180910390fd5b5050505050565b6000801b8461016001846003811061016357610162610c63565b5b6020020135141580156101ab57508161016001816003811061018857610187610c63565b5b6020020135846101600184600381106101a4576101a3610c63565b5b6020020135145b6101ea576040517f08c379a00000000000000000000000000000000000000000000000000000000081526004016101e190610cde565b60405180910390fd5b50505050565b60006101fa6107f8565b73__$8714351c0fd0d6d6bb53deaac8630bef8f$__638e0381e461021e8a8a61051d565b888c60000160208101906102329190610b0e565b6040518463ffffffff1660e01b815260040161025093929190610e21565b6104606040518083038186803b15801561026957600080fd5b505af415801561027d573d6000803e3d6000fd5b505050506040513d601f19601f820116820180604052508101906102a19190610fdf565b508092508193505050886040013582146102f0576040517f08c379a00000000000000000000000000000000000000000000000000000000081526004016102e790611080565b60405180910390fd5b60006102fc898961051d565b518a60000160208101906103109190610b0e565b65ffffffffffff166103229190610b6a565b905073__$8714351c0fd0d6d6bb53deaac8630bef8f$__638e0381e4610348878761051d565b84846040518463ffffffff1660e01b815260040161036893929190611133565b6104606040518083038186803b15801561038157600080fd5b505af4158015610395573d6000803e3d6000fd5b505050506040513d601f19601f820116820180604052508101906103b99190610fdf565b905050809350508560400135831415610407576040517f08c379a00000000000000000000000000000000000000000000000000000000081526004016103fe906111bf565b60405180910390fd5b50505050505050505050565b6000801b846101c001846004811061042e5761042d610c63565b5b6020020135141580156104765750816101c001816004811061045357610452610c63565b5b6020020135846101c001846004811061046f5761046e610c63565b5b6020020135145b6104b5576040517f08c379a00000000000000000000000000000000000000000000000000000000081526004016104ac9061122b565b60405180910390fd5b50505050565b60008060005b84849050811015610512576104f28585838181106104e2576104e1610c63565b5b905061030002016101600161078a565b826104fd9190610b6a565b9150808061050a9061124b565b9150506104c1565b508091505092915050565b6060600061052b84846104bb565b67ffffffffffffffff81111561054457610543610e9e565b5b6040519080825280602002602001820160405280156105725781602001602082028036833780820191505090505b509050600080600090505b8585905081101561077e576000801b86868381811061059f5761059e610c63565b5b90506103000201610160016000600381106105bd576105bc610c63565b5b602002013514610629578585828181106105da576105d9610c63565b5b90506103000201610160016000600381106105f8576105f7610c63565b5b60200201358383806106099061124b565b94508151811061061c5761061b610c63565b5b6020026020010181815250505b6000801b8686838181106106405761063f610c63565b5b905061030002016101600160016003811061065e5761065d610c63565b5b6020020135146106ca5785858281811061067b5761067a610c63565b5b905061030002016101600160016003811061069957610698610c63565b5b60200201358383806106aa9061124b565b9450815181106106bd576106bc610c63565b5b6020026020010181815250505b6000801b8686838181106106e1576106e0610c63565b5b90506103000201610160016002600381106106ff576106fe610c63565b5b60200201351461076b5785858281811061071c5761071b610c63565b5b905061030002016101600160026003811061073a57610739610c63565b5b602002013583838061074b9061124b565b94508151811061075e5761075d610c63565b5b6020026020010181815250505b80806107769061124b565b91505061057d565b50819250505092915050565b6000806000801b836000600381106107a5576107a4610c63565b5b6020020135146107be5780806107ba9061124b565b9150505b6000801b836001600381106107d6576107d5610c63565b5b6020020135146107ef5780806107eb9061124b565b9150505b80915050919050565b604051806104200160405280602190602082028036833780820191505090505090565b6000604051905090565b600080fd5b600080fd5b600080fd5b600060c0828403121561084a5761084961082f565b5b81905092915050565b600080fd5b600080fd5b600080fd5b60008083601f84011261087857610877610853565b5b8235905067ffffffffffffffff81111561089557610894610858565b5b602083019150836103008202830111156108b2576108b161085d565b5b9250929050565b6000819050919050565b6108cc816108b9565b81146108d757600080fd5b50565b6000813590506108e9816108c3565b92915050565b600080600080610100858703121561090a57610909610825565b5b600061091887828801610834565b94505060c085013567ffffffffffffffff8111156109395761093861082a565b5b61094587828801610862565b935093505060e0610958878288016108da565b91505092959194509250565b6000610300828403121561097b5761097a61082f565b5b81905092915050565b600080600080610640858703121561099f5761099e610825565b5b60006109ad87828801610964565b9450506103006109bf878288016108da565b9350506103206109d187828801610964565b9250506106206109e3878288016108da565b91505092959194509250565b600081905082602060210282011115610a0b57610a0a61085d565b5b92915050565b60008060008060008060006105e0888a031215610a3157610a30610825565b5b6000610a3f8a828b01610834565b97505060c088013567ffffffffffffffff811115610a6057610a5f61082a565b5b610a6c8a828b01610862565b965096505060e0610a7f8a828b016109ef565b945050610500610a918a828b01610834565b9350506105c088013567ffffffffffffffff811115610ab357610ab261082a565b5b610abf8a828b01610862565b925092505092959891949750929550565b600065ffffffffffff82169050919050565b610aeb81610ad0565b8114610af657600080fd5b50565b600081359050610b0881610ae2565b92915050565b600060208284031215610b2457610b23610825565b5b6000610b3284828501610af9565b91505092915050565b7f4e487b7100000000000000000000000000000000000000000000000000000000600052601160045260246000fd5b6000610b75826108b9565b9150610b80836108b9565b9250827fffffffffffffffffffffffffffffffffffffffffffffffffffffffffffffffff03821115610bb557610bb4610b3b565b5b828201905092915050565b600082825260208201905092915050565b7f546865206c656166436f756e742069732061637475616c6c7920636f7272656360008201527f7400000000000000000000000000000000000000000000000000000000000000602082015250565b6000610c2d602183610bc0565b9150610c3882610bd1565b604082019050919050565b60006020820190508181036000830152610c5c81610c20565b9050919050565b7f4e487b7100000000000000000000000000000000000000000000000000000000600052603260045260246000fd5b7f4e6f74206d61746368696e6720636f6d6d69746d656e74730000000000000000600082015250565b6000610cc8601883610bc0565b9150610cd382610c92565b602082019050919050565b60006020820190508181036000830152610cf781610cbb565b9050919050565b600081519050919050565b600082825260208201905092915050565b6000819050602082019050919050565b6000819050919050565b610d3d81610d2a565b82525050565b6000610d4f8383610d34565b60208301905092915050565b6000602082019050919050565b6000610d7382610cfe565b610d7d8185610d09565b9350610d8883610d1a565b8060005b83811015610db9578151610da08882610d43565b9750610dab83610d5b565b925050600181019050610d8c565b5085935050505092915050565b82818337600083830152505050565b610de26104208383610dc6565b5050565b6000819050919050565b6000610e0b610e06610e0184610ad0565b610de6565b6108b9565b9050919050565b610e1b81610df0565b82525050565b6000610460820190508181036000830152610e3c8186610d68565b9050610e4b6020830185610dd5565b610e59610440830184610e12565b949350505050565b610e6a81610d2a565b8114610e7557600080fd5b50565b600081519050610e8781610e61565b92915050565b6000601f19601f8301169050919050565b7f4e487b7100000000000000000000000000000000000000000000000000000000600052604160045260246000fd5b610ed682610e8d565b810181811067ffffffffffffffff82111715610ef557610ef4610e9e565b5b80604052505050565b6000610f0861081b565b9050610f148282610ecd565b919050565b600067ffffffffffffffff821115610f3457610f33610e9e565b5b602082029050919050565b6000610f52610f4d84610f19565b610efe565b90508060208402830185811115610f6c57610f6b61085d565b5b835b81811015610f955780610f818882610e78565b845260208401935050602081019050610f6e565b5050509392505050565b600082601f830112610fb457610fb3610853565b5b6021610fc1848285610f3f565b91505092915050565b600081519050610fd9816108c3565b92915050565b60008060006104608486031215610ff957610ff8610825565b5b600061100786828701610e78565b935050602061101886828701610f9f565b92505061044061102a86828701610fca565b9150509250925092565b7f546865207369626c696e67207061746820697320696e76616c69640000000000600082015250565b600061106a601b83610bc0565b915061107582611034565b602082019050919050565b600060208201905081810360008301526110998161105d565b9050919050565b600060219050919050565b600081905092915050565b6000819050919050565b6000602082019050919050565b6110d6816110a0565b6110e081846110ab565b92506110eb826110b6565b8060005b8381101561111c5781516111038782610d43565b965061110e836110c0565b9250506001810190506110ef565b505050505050565b61112d816108b9565b82525050565b600061046082019050818103600083015261114e8186610d68565b905061115d60208301856110cd565b61116b610440830184611124565b949350505050565b7f54686520726f6f742069732061637475616c6c792066696e6500000000000000600082015250565b60006111a9601983610bc0565b91506111b482611173565b602082019050919050565b600060208201905081810360008301526111d88161119c565b9050919050565b7f4e6f74206d61746368696e67206e756c6c696669657273000000000000000000600082015250565b6000611215601783610bc0565b9150611220826111df565b602082019050919050565b6000602082019050818103600083015261124481611208565b9050919050565b6000611256826108b9565b91507fffffffffffffffffffffffffffffffffffffffffffffffffffffffffffffffff82141561128957611288610b3b565b5b60018201905091905056fea26469706673582212200ae357be7d84ac6fe8049b56fe001021734039d85197733d0c254367a375398764736f6c63430008090033",
  "linkReferences": {
    "contracts/MerkleTree_Stateless.sol": {
      "MerkleTree_Stateless": [
        {
          "length": 20,
          "start": 591
        },
        {
          "length": 20,
          "start": 889
        }
      ]
    }
  },
  "deployedLinkReferences": {
    "contracts/MerkleTree_Stateless.sol": {
      "MerkleTree_Stateless": [
        {
          "length": 20,
          "start": 508
        },
        {
          "length": 20,
          "start": 806
        }
      ]
    }
  }
}