{
  "_format": "hh-sol-artifact-1",
  "contractName": "Key_Registry",
  "sourceName": "contracts/Key_Registry.sol",
  "abi": [
    {
      "anonymous": false,
      "inputs": [],
      "name": "BlockProposed",
      "type": "event"
    },
    {
      "anonymous": false,
      "inputs": [
        {
          "indexed": false,
          "internalType": "bytes32",
          "name": "commitHash",
          "type": "bytes32"
        },
        {
          "indexed": false,
          "internalType": "address",
          "name": "sender",
          "type": "address"
        }
      ],
      "name": "CommittedToChallenge",
      "type": "event"
    },
    {
      "anonymous": false,
      "inputs": [
        {
          "indexed": false,
          "internalType": "uint8",
          "name": "version",
          "type": "uint8"
        }
      ],
      "name": "Initialized",
      "type": "event"
    },
    {
      "anonymous": false,
      "inputs": [
        {
          "indexed": false,
          "internalType": "bytes32",
          "name": "withdrawTransactionHash",
          "type": "bytes32"
        },
        {
          "indexed": false,
          "internalType": "address",
          "name": "paidBy",
          "type": "address"
        },
        {
          "indexed": false,
          "internalType": "uint256",
          "name": "amount",
          "type": "uint256"
        }
      ],
      "name": "InstantWithdrawalRequested",
      "type": "event"
    },
    {
      "anonymous": false,
      "inputs": [
        {
          "indexed": false,
          "internalType": "address",
          "name": "addr",
          "type": "address"
        }
      ],
      "name": "NewBootChallengerSet",
      "type": "event"
    },
    {
      "anonymous": false,
      "inputs": [
        {
          "indexed": false,
          "internalType": "address",
          "name": "addr",
          "type": "address"
        }
      ],
      "name": "NewBootProposerSet",
      "type": "event"
    },
    {
      "anonymous": false,
      "inputs": [
        {
          "indexed": false,
          "internalType": "address",
          "name": "proposer",
          "type": "address"
        }
      ],
      "name": "NewCurrentProposer",
      "type": "event"
    },
    {
      "anonymous": false,
      "inputs": [
        {
          "indexed": false,
          "internalType": "uint256",
          "name": "leafIndex",
          "type": "uint256"
        },
        {
          "indexed": false,
          "internalType": "bytes32",
          "name": "leafValue",
          "type": "bytes32"
        },
        {
          "indexed": false,
          "internalType": "bytes32",
          "name": "root",
          "type": "bytes32"
        }
      ],
      "name": "NewLeaf",
      "type": "event"
    },
    {
      "anonymous": false,
      "inputs": [
        {
          "indexed": false,
          "internalType": "uint256",
          "name": "minLeafIndex",
          "type": "uint256"
        },
        {
          "indexed": false,
          "internalType": "bytes32[]",
          "name": "leafValues",
          "type": "bytes32[]"
        },
        {
          "indexed": false,
          "internalType": "bytes32",
          "name": "root",
          "type": "bytes32"
        }
      ],
      "name": "NewLeaves",
      "type": "event"
    },
    {
      "anonymous": false,
      "inputs": [
        {
          "indexed": false,
          "internalType": "address",
          "name": "previousOwner",
          "type": "address"
        },
        {
          "indexed": false,
          "internalType": "address",
          "name": "newOwner",
          "type": "address"
        }
      ],
      "name": "OwnershipTransferred",
      "type": "event"
    },
    {
      "anonymous": false,
      "inputs": [
        {
          "indexed": false,
          "internalType": "uint256",
          "name": "blockNumberL2",
          "type": "uint256"
        }
      ],
      "name": "Rollback",
      "type": "event"
    },
    {
      "anonymous": false,
      "inputs": [
        {
          "indexed": false,
          "internalType": "address",
          "name": "ercAddress",
          "type": "address"
        },
        {
          "indexed": false,
          "internalType": "uint256",
          "name": "amount",
          "type": "uint256"
        }
      ],
      "name": "ShieldBalanceTransferred",
      "type": "event"
    },
    {
      "anonymous": false,
      "inputs": [],
      "name": "TransactionSubmitted",
      "type": "event"
    },
    {
      "anonymous": false,
      "inputs": [
        {
          "indexed": false,
          "internalType": "enum Structures.TransactionTypes",
          "name": "txType",
          "type": "uint8"
        }
      ],
      "name": "VkChanged",
      "type": "event"
    },
    {
      "inputs": [],
      "name": "_owner",
      "outputs": [
        {
          "internalType": "address",
          "name": "",
          "type": "address"
        }
      ],
      "stateMutability": "view",
      "type": "function"
    },
    {
      "inputs": [
        {
          "internalType": "enum Structures.TransactionTypes",
          "name": "txType",
          "type": "uint8"
        }
      ],
      "name": "getVerificationKey",
      "outputs": [
        {
          "internalType": "uint256[]",
          "name": "",
          "type": "uint256[]"
        }
      ],
      "stateMutability": "view",
      "type": "function"
    },
    {
      "inputs": [],
      "name": "initialize",
      "outputs": [],
      "stateMutability": "nonpayable",
      "type": "function"
    },
    {
      "inputs": [],
      "name": "owner",
      "outputs": [
        {
          "internalType": "address",
          "name": "",
          "type": "address"
        }
      ],
      "stateMutability": "view",
      "type": "function"
    },
    {
      "inputs": [
        {
          "internalType": "uint256[]",
          "name": "_vk",
          "type": "uint256[]"
        },
        {
          "internalType": "enum Structures.TransactionTypes",
          "name": "_txType",
          "type": "uint8"
        }
      ],
      "name": "registerVerificationKey",
      "outputs": [],
      "stateMutability": "nonpayable",
      "type": "function"
    },
    {
      "inputs": [
        {
          "internalType": "address",
          "name": "newOwner",
          "type": "address"
        }
      ],
      "name": "transferOwnership",
      "outputs": [],
      "stateMutability": "nonpayable",
      "type": "function"
    },
    {
      "inputs": [
        {
          "internalType": "enum Structures.TransactionTypes",
          "name": "",
          "type": "uint8"
        },
        {
          "internalType": "uint256",
          "name": "",
          "type": "uint256"
        }
      ],
      "name": "vks",
      "outputs": [
        {
          "internalType": "uint256",
          "name": "",
          "type": "uint256"
        }
      ],
      "stateMutability": "view",
      "type": "function"
    }
  ],
  "bytecode": "0x608060405234801561001057600080fd5b50610d99806100206000396000f3fe608060405234801561001057600080fd5b506004361061007d5760003560e01c8063b2bdfa7b1161005b578063b2bdfa7b146100c6578063b8de507b146100e4578063f2fde38b14610114578063fd5320b5146101305761007d565b80638129fc1c146100825780638da5cb5b1461008c578063a0392769146100aa575b600080fd5b61008a610160565b005b61009461029e565b6040516100a191906107f1565b60405180910390f35b6100c460048036038101906100bf91906108a0565b6102c7565b005b6100ce6103bf565b6040516100db91906107f1565b60405180910390f35b6100fe60048036038101906100f99190610900565b6103e5565b60405161010b91906109f5565b60405180910390f35b61012e60048036038101906101299190610a43565b610474565b005b61014a60048036038101906101459190610a9c565b61056f565b6040516101579190610aeb565b60405180910390f35b60008060019054906101000a900460ff161590508080156101915750600160008054906101000a900460ff1660ff16105b806101be57506101a0306105a0565b1580156101bd5750600160008054906101000a900460ff1660ff16145b5b6101fd576040517f08c379a00000000000000000000000000000000000000000000000000000000081526004016101f490610b89565b60405180910390fd5b60016000806101000a81548160ff021916908360ff160217905550801561023a576001600060016101000a81548160ff0219169083151502179055505b6102426105c3565b801561029b5760008060016101000a81548160ff0219169083151502179055507f7f26b83ff96e1f2b6a682f133852f6798a09c465da95921460cefb384740249860016040516102929190610bfb565b60405180910390a15b50565b60008060029054906101000a900473ffffffffffffffffffffffffffffffffffffffff16905090565b6102cf61029e565b73ffffffffffffffffffffffffffffffffffffffff163373ffffffffffffffffffffffffffffffffffffffff161461033c576040517f08c379a000000000000000000000000000000000000000000000000000000000815260040161033390610c88565b60405180910390fd5b82826001600084600281111561035557610354610ca8565b5b600281111561036757610366610ca8565b5b81526020019081526020016000209190610382929190610746565b507fcfd8f8b734ebb05f1872379d344363750ce642d6cbd9f66a55aa3f1dbeb0c5d3816040516103b29190610d1f565b60405180910390a1505050565b600060029054906101000a900473ffffffffffffffffffffffffffffffffffffffff1681565b6060600160008360028111156103fe576103fd610ca8565b5b60028111156104105761040f610ca8565b5b815260200190815260200160002080548060200260200160405190810160405280929190818152602001828054801561046857602002820191906000526020600020905b815481526020019060010190808311610454575b50505050509050919050565b61047c61029e565b73ffffffffffffffffffffffffffffffffffffffff163373ffffffffffffffffffffffffffffffffffffffff16146104e9576040517f08c379a00000000000000000000000000000000000000000000000000000000081526004016104e090610c88565b60405180910390fd5b600073ffffffffffffffffffffffffffffffffffffffff168173ffffffffffffffffffffffffffffffffffffffff16141561052357600080fd5b7f8be0079c531659141344cd1fd0a4f28419497f9722a3daafe3b4186f6b6457e061054c61029e565b8260405161055b929190610d3a565b60405180910390a161056c81610702565b50565b6001602052816000526040600020818154811061058b57600080fd5b90600052602060002001600091509150505481565b6000808273ffffffffffffffffffffffffffffffffffffffff163b119050919050565b60008060019054906101000a900460ff161590508080156105f45750600160008054906101000a900460ff1660ff16105b806106215750610603306105a0565b1580156106205750600160008054906101000a900460ff1660ff16145b5b610660576040517f08c379a000000000000000000000000000000000000000000000000000000000815260040161065790610b89565b60405180910390fd5b60016000806101000a81548160ff021916908360ff160217905550801561069d576001600060016101000a81548160ff0219169083151502179055505b6106a633610702565b80156106ff5760008060016101000a81548160ff0219169083151502179055507f7f26b83ff96e1f2b6a682f133852f6798a09c465da95921460cefb384740249860016040516106f69190610bfb565b60405180910390a15b50565b80600060026101000a81548173ffffffffffffffffffffffffffffffffffffffff021916908373ffffffffffffffffffffffffffffffffffffffff16021790555050565b828054828255906000526020600020908101928215610782579160200282015b82811115610781578235825591602001919060010190610766565b5b50905061078f9190610793565b5090565b5b808211156107ac576000816000905550600101610794565b5090565b600073ffffffffffffffffffffffffffffffffffffffff82169050919050565b60006107db826107b0565b9050919050565b6107eb816107d0565b82525050565b600060208201905061080660008301846107e2565b92915050565b600080fd5b600080fd5b600080fd5b600080fd5b600080fd5b60008083601f84011261083b5761083a610816565b5b8235905067ffffffffffffffff8111156108585761085761081b565b5b60208301915083602082028301111561087457610873610820565b5b9250929050565b6003811061088857600080fd5b50565b60008135905061089a8161087b565b92915050565b6000806000604084860312156108b9576108b861080c565b5b600084013567ffffffffffffffff8111156108d7576108d6610811565b5b6108e386828701610825565b935093505060206108f68682870161088b565b9150509250925092565b6000602082840312156109165761091561080c565b5b60006109248482850161088b565b91505092915050565b600081519050919050565b600082825260208201905092915050565b6000819050602082019050919050565b6000819050919050565b61096c81610959565b82525050565b600061097e8383610963565b60208301905092915050565b6000602082019050919050565b60006109a28261092d565b6109ac8185610938565b93506109b783610949565b8060005b838110156109e85781516109cf8882610972565b97506109da8361098a565b9250506001810190506109bb565b5085935050505092915050565b60006020820190508181036000830152610a0f8184610997565b905092915050565b610a20816107d0565b8114610a2b57600080fd5b50565b600081359050610a3d81610a17565b92915050565b600060208284031215610a5957610a5861080c565b5b6000610a6784828501610a2e565b91505092915050565b610a7981610959565b8114610a8457600080fd5b50565b600081359050610a9681610a70565b92915050565b60008060408385031215610ab357610ab261080c565b5b6000610ac18582860161088b565b9250506020610ad285828601610a87565b9150509250929050565b610ae581610959565b82525050565b6000602082019050610b006000830184610adc565b92915050565b600082825260208201905092915050565b7f496e697469616c697a61626c653a20636f6e747261637420697320616c72656160008201527f647920696e697469616c697a6564000000000000000000000000000000000000602082015250565b6000610b73602e83610b06565b9150610b7e82610b17565b604082019050919050565b60006020820190508181036000830152610ba281610b66565b9050919050565b6000819050919050565b600060ff82169050919050565b6000819050919050565b6000610be5610be0610bdb84610ba9565b610bc0565b610bb3565b9050919050565b610bf581610bca565b82525050565b6000602082019050610c106000830184610bec565b92915050565b7f596f7520617265206e6f7420617574686f726973656420746f20696e766f6b6560008201527f20746869732066756e6374696f6e000000000000000000000000000000000000602082015250565b6000610c72602e83610b06565b9150610c7d82610c16565b604082019050919050565b60006020820190508181036000830152610ca181610c65565b9050919050565b7f4e487b7100000000000000000000000000000000000000000000000000000000600052602160045260246000fd5b60038110610ce857610ce7610ca8565b5b50565b6000819050610cf982610cd7565b919050565b6000610d0982610ceb565b9050919050565b610d1981610cfe565b82525050565b6000602082019050610d346000830184610d10565b92915050565b6000604082019050610d4f60008301856107e2565b610d5c60208301846107e2565b939250505056fea2646970667358221220d09aedd9da678f802bc03c60548958f1f972d3c4e99afd79a7d83b306058939864736f6c63430008090033",
  "linkReferences": {},
  "deployedLinkReferences": {}
}