{
  "_format": "hh-sol-artifact-1",
  "contractName": "Shield",
  "sourceName": "contracts/Shield.sol",
  "abi": [
    {
      "anonymous": false,
      "inputs": [],
      "name": "BlockProposed",
      "type": "event"
    },
    {
      "anonymous": false,
      "inputs": [
        {
          "indexed": false,
          "internalType": "bytes32",
          "name": "commitHash",
          "type": "bytes32"
        },
        {
          "indexed": false,
          "internalType": "address",
          "name": "sender",
          "type": "address"
        }
      ],
      "name": "CommittedToChallenge",
      "type": "event"
    },
    {
      "anonymous": false,
      "inputs": [
        {
          "indexed": false,
          "internalType": "uint8",
          "name": "version",
          "type": "uint8"
        }
      ],
      "name": "Initialized",
      "type": "event"
    },
    {
      "anonymous": false,
      "inputs": [
        {
          "indexed": false,
          "internalType": "bytes32",
          "name": "withdrawTransactionHash",
          "type": "bytes32"
        },
        {
          "indexed": false,
          "internalType": "address",
          "name": "paidBy",
          "type": "address"
        },
        {
          "indexed": false,
          "internalType": "uint256",
          "name": "amount",
          "type": "uint256"
        }
      ],
      "name": "InstantWithdrawalRequested",
      "type": "event"
    },
    {
      "anonymous": false,
      "inputs": [
        {
          "indexed": false,
          "internalType": "address",
          "name": "addr",
          "type": "address"
        }
      ],
      "name": "NewBootChallengerSet",
      "type": "event"
    },
    {
      "anonymous": false,
      "inputs": [
        {
          "indexed": false,
          "internalType": "address",
          "name": "addr",
          "type": "address"
        }
      ],
      "name": "NewBootProposerSet",
      "type": "event"
    },
    {
      "anonymous": false,
      "inputs": [
        {
          "indexed": false,
          "internalType": "address",
          "name": "proposer",
          "type": "address"
        }
      ],
      "name": "NewCurrentProposer",
      "type": "event"
    },
    {
      "anonymous": false,
      "inputs": [
        {
          "indexed": false,
          "internalType": "uint256",
          "name": "leafIndex",
          "type": "uint256"
        },
        {
          "indexed": false,
          "internalType": "bytes32",
          "name": "leafValue",
          "type": "bytes32"
        },
        {
          "indexed": false,
          "internalType": "bytes32",
          "name": "root",
          "type": "bytes32"
        }
      ],
      "name": "NewLeaf",
      "type": "event"
    },
    {
      "anonymous": false,
      "inputs": [
        {
          "indexed": false,
          "internalType": "uint256",
          "name": "minLeafIndex",
          "type": "uint256"
        },
        {
          "indexed": false,
          "internalType": "bytes32[]",
          "name": "leafValues",
          "type": "bytes32[]"
        },
        {
          "indexed": false,
          "internalType": "bytes32",
          "name": "root",
          "type": "bytes32"
        }
      ],
      "name": "NewLeaves",
      "type": "event"
    },
    {
      "anonymous": false,
      "inputs": [
        {
          "indexed": false,
          "internalType": "address",
          "name": "previousOwner",
          "type": "address"
        },
        {
          "indexed": false,
          "internalType": "address",
          "name": "newOwner",
          "type": "address"
        }
      ],
      "name": "OwnershipTransferred",
      "type": "event"
    },
    {
      "anonymous": false,
      "inputs": [
        {
          "indexed": false,
          "internalType": "address",
          "name": "account",
          "type": "address"
        }
      ],
      "name": "Paused",
      "type": "event"
    },
    {
      "anonymous": false,
      "inputs": [
        {
          "indexed": false,
          "internalType": "uint256",
          "name": "blockNumberL2",
          "type": "uint256"
        }
      ],
      "name": "Rollback",
      "type": "event"
    },
    {
      "anonymous": false,
      "inputs": [
        {
          "indexed": false,
          "internalType": "address",
          "name": "ercAddress",
          "type": "address"
        },
        {
          "indexed": false,
          "internalType": "uint256",
          "name": "amount",
          "type": "uint256"
        }
      ],
      "name": "ShieldBalanceTransferred",
      "type": "event"
    },
    {
      "anonymous": false,
      "inputs": [],
      "name": "TransactionSubmitted",
      "type": "event"
    },
    {
      "anonymous": false,
      "inputs": [
        {
          "indexed": false,
          "internalType": "address",
          "name": "account",
          "type": "address"
        }
      ],
      "name": "Unpaused",
      "type": "event"
    },
    {
      "anonymous": false,
      "inputs": [
        {
          "indexed": false,
          "internalType": "enum Structures.TransactionTypes",
          "name": "txType",
          "type": "uint8"
        }
      ],
      "name": "VkChanged",
      "type": "event"
    },
    {
      "inputs": [],
      "name": "_owner",
      "outputs": [
        {
          "internalType": "address",
          "name": "",
          "type": "address"
        }
      ],
      "stateMutability": "view",
      "type": "function"
    },
    {
      "inputs": [
        {
          "internalType": "address",
          "name": "_user",
          "type": "address"
        }
      ],
      "name": "addUserToWhitelist",
      "outputs": [],
      "stateMutability": "nonpayable",
      "type": "function"
    },
    {
      "inputs": [
        {
          "components": [
            {
              "internalType": "uint112",
              "name": "value",
              "type": "uint112"
            },
            {
              "internalType": "uint112",
              "name": "fee",
              "type": "uint112"
            },
            {
              "internalType": "enum Structures.TransactionTypes",
              "name": "transactionType",
              "type": "uint8"
            },
            {
              "internalType": "enum Structures.TokenType",
              "name": "tokenType",
              "type": "uint8"
            },
            {
              "internalType": "uint64[4]",
              "name": "historicRootBlockNumberL2",
              "type": "uint64[4]"
            },
            {
              "internalType": "bytes32",
              "name": "tokenId",
              "type": "bytes32"
            },
            {
              "internalType": "bytes32",
              "name": "ercAddress",
              "type": "bytes32"
            },
            {
              "internalType": "bytes32",
              "name": "recipientAddress",
              "type": "bytes32"
            },
            {
              "internalType": "bytes32[3]",
              "name": "commitments",
              "type": "bytes32[3]"
            },
            {
              "internalType": "bytes32[4]",
              "name": "nullifiers",
              "type": "bytes32[4]"
            },
            {
              "internalType": "bytes32[2]",
              "name": "compressedSecrets",
              "type": "bytes32[2]"
            },
            {
              "internalType": "uint256[4]",
              "name": "proof",
              "type": "uint256[4]"
            }
          ],
          "internalType": "struct Structures.Transaction",
          "name": "withdrawTransaction",
          "type": "tuple"
        }
      ],
      "name": "advanceWithdrawal",
      "outputs": [],
      "stateMutability": "nonpayable",
      "type": "function"
    },
    {
      "inputs": [
        {
          "internalType": "bytes32",
          "name": "",
          "type": "bytes32"
        }
      ],
      "name": "advancedFeeWithdrawals",
      "outputs": [
        {
          "internalType": "uint256",
          "name": "",
          "type": "uint256"
        }
      ],
      "stateMutability": "view",
      "type": "function"
    },
    {
      "inputs": [
        {
          "internalType": "bytes32",
          "name": "",
          "type": "bytes32"
        }
      ],
      "name": "advancedWithdrawals",
      "outputs": [
        {
          "internalType": "address",
          "name": "",
          "type": "address"
        }
      ],
      "stateMutability": "view",
      "type": "function"
    },
    {
      "inputs": [
        {
          "internalType": "uint256",
          "name": "_groupId",
          "type": "uint256"
        },
        {
          "internalType": "address",
          "name": "_manager",
          "type": "address"
        }
      ],
      "name": "createWhitelistManager",
      "outputs": [],
      "stateMutability": "nonpayable",
      "type": "function"
    },
    {
      "inputs": [
        {
          "components": [
            {
              "internalType": "uint48",
              "name": "leafCount",
              "type": "uint48"
            },
            {
              "internalType": "address",
              "name": "proposer",
              "type": "address"
            },
            {
              "internalType": "bytes32",
              "name": "root",
              "type": "bytes32"
            },
            {
              "internalType": "uint256",
              "name": "blockNumberL2",
              "type": "uint256"
            },
            {
              "internalType": "bytes32",
              "name": "previousBlockHash",
              "type": "bytes32"
            },
            {
              "internalType": "bytes32",
              "name": "transactionHashesRoot",
              "type": "bytes32"
            }
          ],
          "internalType": "struct Structures.Block",
          "name": "b",
          "type": "tuple"
        },
        {
          "components": [
            {
              "internalType": "uint112",
              "name": "value",
              "type": "uint112"
            },
            {
              "internalType": "uint112",
              "name": "fee",
              "type": "uint112"
            },
            {
              "internalType": "enum Structures.TransactionTypes",
              "name": "transactionType",
              "type": "uint8"
            },
            {
              "internalType": "enum Structures.TokenType",
              "name": "tokenType",
              "type": "uint8"
            },
            {
              "internalType": "uint64[4]",
              "name": "historicRootBlockNumberL2",
              "type": "uint64[4]"
            },
            {
              "internalType": "bytes32",
              "name": "tokenId",
              "type": "bytes32"
            },
            {
              "internalType": "bytes32",
              "name": "ercAddress",
              "type": "bytes32"
            },
            {
              "internalType": "bytes32",
              "name": "recipientAddress",
              "type": "bytes32"
            },
            {
              "internalType": "bytes32[3]",
              "name": "commitments",
              "type": "bytes32[3]"
            },
            {
              "internalType": "bytes32[4]",
              "name": "nullifiers",
              "type": "bytes32[4]"
            },
            {
              "internalType": "bytes32[2]",
              "name": "compressedSecrets",
              "type": "bytes32[2]"
            },
            {
              "internalType": "uint256[4]",
              "name": "proof",
              "type": "uint256[4]"
            }
          ],
          "internalType": "struct Structures.Transaction",
          "name": "t",
          "type": "tuple"
        },
        {
          "internalType": "uint256",
          "name": "index",
          "type": "uint256"
        },
        {
          "internalType": "bytes32[]",
          "name": "siblingPath",
          "type": "bytes32[]"
        }
      ],
      "name": "finaliseWithdrawal",
      "outputs": [],
      "stateMutability": "nonpayable",
      "type": "function"
    },
    {
      "inputs": [],
      "name": "getBootChallenger",
      "outputs": [
        {
          "internalType": "address",
          "name": "",
          "type": "address"
        }
      ],
      "stateMutability": "view",
      "type": "function"
    },
    {
      "inputs": [],
      "name": "getBootProposer",
      "outputs": [
        {
          "internalType": "address",
          "name": "",
          "type": "address"
        }
      ],
      "stateMutability": "view",
      "type": "function"
    },
    {
      "inputs": [],
      "name": "getMaticAddress",
      "outputs": [
        {
          "internalType": "address",
          "name": "",
          "type": "address"
        }
      ],
      "stateMutability": "view",
      "type": "function"
    },
    {
      "inputs": [
        {
          "internalType": "address",
          "name": "tokenAddr",
          "type": "address"
        },
        {
          "internalType": "uint256",
          "name": "transactionType",
          "type": "uint256"
        }
      ],
      "name": "getRestriction",
      "outputs": [
        {
          "internalType": "uint256",
          "name": "",
          "type": "uint256"
        }
      ],
      "stateMutability": "view",
      "type": "function"
    },
    {
      "inputs": [
        {
          "internalType": "enum Structures.TransactionTypes",
          "name": "txType",
          "type": "uint8"
        }
      ],
      "name": "getVerificationKey",
      "outputs": [
        {
          "internalType": "uint256[]",
          "name": "",
          "type": "uint256[]"
        }
      ],
      "stateMutability": "view",
      "type": "function"
    },
    {
      "inputs": [],
      "name": "initialize",
      "outputs": [],
      "stateMutability": "nonpayable",
      "type": "function"
    },
    {
      "inputs": [
        {
          "components": [
            {
              "internalType": "uint48",
              "name": "leafCount",
              "type": "uint48"
            },
            {
              "internalType": "address",
              "name": "proposer",
              "type": "address"
            },
            {
              "internalType": "bytes32",
              "name": "root",
              "type": "bytes32"
            },
            {
              "internalType": "uint256",
              "name": "blockNumberL2",
              "type": "uint256"
            },
            {
              "internalType": "bytes32",
              "name": "previousBlockHash",
              "type": "bytes32"
            },
            {
              "internalType": "bytes32",
              "name": "transactionHashesRoot",
              "type": "bytes32"
            }
          ],
          "internalType": "struct Structures.Block",
          "name": "b",
          "type": "tuple"
        },
        {
          "components": [
            {
              "internalType": "uint112",
              "name": "value",
              "type": "uint112"
            },
            {
              "internalType": "uint112",
              "name": "fee",
              "type": "uint112"
            },
            {
              "internalType": "enum Structures.TransactionTypes",
              "name": "transactionType",
              "type": "uint8"
            },
            {
              "internalType": "enum Structures.TokenType",
              "name": "tokenType",
              "type": "uint8"
            },
            {
              "internalType": "uint64[4]",
              "name": "historicRootBlockNumberL2",
              "type": "uint64[4]"
            },
            {
              "internalType": "bytes32",
              "name": "tokenId",
              "type": "bytes32"
            },
            {
              "internalType": "bytes32",
              "name": "ercAddress",
              "type": "bytes32"
            },
            {
              "internalType": "bytes32",
              "name": "recipientAddress",
              "type": "bytes32"
            },
            {
              "internalType": "bytes32[3]",
              "name": "commitments",
              "type": "bytes32[3]"
            },
            {
              "internalType": "bytes32[4]",
              "name": "nullifiers",
              "type": "bytes32[4]"
            },
            {
              "internalType": "bytes32[2]",
              "name": "compressedSecrets",
              "type": "bytes32[2]"
            },
            {
              "internalType": "uint256[4]",
              "name": "proof",
              "type": "uint256[4]"
            }
          ],
          "internalType": "struct Structures.Transaction",
          "name": "t",
          "type": "tuple"
        },
        {
          "internalType": "uint256",
          "name": "index",
          "type": "uint256"
        },
        {
          "internalType": "bytes32[]",
          "name": "siblingPath",
          "type": "bytes32[]"
        }
      ],
      "name": "isValidWithdrawal",
      "outputs": [
        {
          "internalType": "bool",
          "name": "",
          "type": "bool"
        }
      ],
      "stateMutability": "view",
      "type": "function"
    },
    {
      "inputs": [
        {
          "internalType": "address",
          "name": "_user",
          "type": "address"
        }
      ],
      "name": "isWhitelisted",
      "outputs": [
        {
          "internalType": "bool",
          "name": "",
          "type": "bool"
        }
      ],
      "stateMutability": "view",
      "type": "function"
    },
    {
      "inputs": [
        {
          "internalType": "address",
          "name": "",
          "type": "address"
        }
      ],
      "name": "managers",
      "outputs": [
        {
          "internalType": "uint256",
          "name": "",
          "type": "uint256"
        }
      ],
      "stateMutability": "view",
      "type": "function"
    },
    {
      "inputs": [
        {
          "internalType": "address",
          "name": "_operator",
          "type": "address"
        },
        {
          "internalType": "address",
          "name": "_from",
          "type": "address"
        },
        {
          "internalType": "uint256",
          "name": "_id",
          "type": "uint256"
        },
        {
          "internalType": "uint256",
          "name": "_value",
          "type": "uint256"
        },
        {
          "internalType": "bytes",
          "name": "_data",
          "type": "bytes"
        }
      ],
      "name": "onERC1155Received",
      "outputs": [
        {
          "internalType": "bytes4",
          "name": "",
          "type": "bytes4"
        }
      ],
      "stateMutability": "nonpayable",
      "type": "function"
    },
    {
      "inputs": [
        {
          "internalType": "address",
          "name": "",
          "type": "address"
        },
        {
          "internalType": "address",
          "name": "_from",
          "type": "address"
        },
        {
          "internalType": "uint256",
          "name": "_tokenId",
          "type": "uint256"
        },
        {
          "internalType": "bytes",
          "name": "",
          "type": "bytes"
        }
      ],
      "name": "onERC721Received",
      "outputs": [
        {
          "internalType": "bytes4",
          "name": "",
          "type": "bytes4"
        }
      ],
      "stateMutability": "nonpayable",
      "type": "function"
    },
    {
      "inputs": [],
      "name": "owner",
      "outputs": [
        {
          "internalType": "address",
          "name": "",
          "type": "address"
        }
      ],
      "stateMutability": "view",
      "type": "function"
    },
    {
      "inputs": [],
      "name": "pause",
      "outputs": [],
      "stateMutability": "nonpayable",
      "type": "function"
    },
    {
      "inputs": [],
      "name": "paused",
      "outputs": [
        {
          "internalType": "bool",
          "name": "",
          "type": "bool"
        }
      ],
      "stateMutability": "view",
      "type": "function"
    },
    {
      "inputs": [
        {
          "internalType": "uint256[]",
          "name": "_vk",
          "type": "uint256[]"
        },
        {
          "internalType": "enum Structures.TransactionTypes",
          "name": "_txType",
          "type": "uint8"
        }
      ],
      "name": "registerVerificationKey",
      "outputs": [],
      "stateMutability": "nonpayable",
      "type": "function"
    },
    {
      "inputs": [
        {
          "internalType": "address",
          "name": "tokenAddr",
          "type": "address"
        }
      ],
      "name": "removeRestriction",
      "outputs": [],
      "stateMutability": "nonpayable",
      "type": "function"
    },
    {
      "inputs": [
        {
          "internalType": "address",
          "name": "_user",
          "type": "address"
        }
      ],
      "name": "removeUserFromWhitelist",
      "outputs": [],
      "stateMutability": "nonpayable",
      "type": "function"
    },
    {
      "inputs": [
        {
          "internalType": "address",
          "name": "_manager",
          "type": "address"
        }
      ],
      "name": "removeWhitelistManager",
      "outputs": [],
      "stateMutability": "nonpayable",
      "type": "function"
    },
    {
      "inputs": [
        {
          "components": [
            {
              "internalType": "uint48",
              "name": "leafCount",
              "type": "uint48"
            },
            {
              "internalType": "address",
              "name": "proposer",
              "type": "address"
            },
            {
              "internalType": "bytes32",
              "name": "root",
              "type": "bytes32"
            },
            {
              "internalType": "uint256",
              "name": "blockNumberL2",
              "type": "uint256"
            },
            {
              "internalType": "bytes32",
              "name": "previousBlockHash",
              "type": "bytes32"
            },
            {
              "internalType": "bytes32",
              "name": "transactionHashesRoot",
              "type": "bytes32"
            }
          ],
          "internalType": "struct Structures.Block",
          "name": "b",
          "type": "tuple"
        }
      ],
      "name": "requestBlockPayment",
      "outputs": [],
      "stateMutability": "nonpayable",
      "type": "function"
    },
    {
      "inputs": [
        {
          "components": [
            {
              "internalType": "uint48",
              "name": "leafCount",
              "type": "uint48"
            },
            {
              "internalType": "address",
              "name": "proposer",
              "type": "address"
            },
            {
              "internalType": "bytes32",
              "name": "root",
              "type": "bytes32"
            },
            {
              "internalType": "uint256",
              "name": "blockNumberL2",
              "type": "uint256"
            },
            {
              "internalType": "bytes32",
              "name": "previousBlockHash",
              "type": "bytes32"
            },
            {
              "internalType": "bytes32",
              "name": "transactionHashesRoot",
              "type": "bytes32"
            }
          ],
          "internalType": "struct Structures.Block",
          "name": "b",
          "type": "tuple"
        },
        {
          "components": [
            {
              "internalType": "uint112",
              "name": "value",
              "type": "uint112"
            },
            {
              "internalType": "uint112",
              "name": "fee",
              "type": "uint112"
            },
            {
              "internalType": "enum Structures.TransactionTypes",
              "name": "transactionType",
              "type": "uint8"
            },
            {
              "internalType": "enum Structures.TokenType",
              "name": "tokenType",
              "type": "uint8"
            },
            {
              "internalType": "uint64[4]",
              "name": "historicRootBlockNumberL2",
              "type": "uint64[4]"
            },
            {
              "internalType": "bytes32",
              "name": "tokenId",
              "type": "bytes32"
            },
            {
              "internalType": "bytes32",
              "name": "ercAddress",
              "type": "bytes32"
            },
            {
              "internalType": "bytes32",
              "name": "recipientAddress",
              "type": "bytes32"
            },
            {
              "internalType": "bytes32[3]",
              "name": "commitments",
              "type": "bytes32[3]"
            },
            {
              "internalType": "bytes32[4]",
              "name": "nullifiers",
              "type": "bytes32[4]"
            },
            {
              "internalType": "bytes32[2]",
              "name": "compressedSecrets",
              "type": "bytes32[2]"
            },
            {
              "internalType": "uint256[4]",
              "name": "proof",
              "type": "uint256[4]"
            }
          ],
          "internalType": "struct Structures.Transaction",
          "name": "t",
          "type": "tuple"
        },
        {
          "internalType": "uint256",
          "name": "index",
          "type": "uint256"
        },
        {
          "internalType": "bytes32[]",
          "name": "siblingPath",
          "type": "bytes32[]"
        }
      ],
      "name": "setAdvanceWithdrawalFee",
      "outputs": [],
      "stateMutability": "payable",
      "type": "function"
    },
    {
      "inputs": [
        {
          "internalType": "address",
          "name": "challenger",
          "type": "address"
        }
      ],
      "name": "setBootChallenger",
      "outputs": [],
      "stateMutability": "nonpayable",
      "type": "function"
    },
    {
      "inputs": [
        {
          "internalType": "address",
          "name": "proposer",
          "type": "address"
        }
      ],
      "name": "setBootProposer",
      "outputs": [],
      "stateMutability": "nonpayable",
      "type": "function"
    },
    {
      "inputs": [
        {
          "internalType": "address",
          "name": "_maticAddress",
          "type": "address"
        }
      ],
      "name": "setMaticAddress",
      "outputs": [],
      "stateMutability": "nonpayable",
      "type": "function"
    },
    {
      "inputs": [
        {
          "internalType": "address",
          "name": "tokenAddr",
          "type": "address"
        },
        {
          "internalType": "uint256",
          "name": "depositAmount",
          "type": "uint256"
        },
        {
          "internalType": "uint256",
          "name": "withdrawAmount",
          "type": "uint256"
        }
      ],
      "name": "setRestriction",
      "outputs": [],
      "stateMutability": "nonpayable",
      "type": "function"
    },
    {
      "inputs": [
        {
          "internalType": "address payable",
          "name": "stateAddress",
          "type": "address"
        }
      ],
      "name": "setStateContract",
      "outputs": [],
      "stateMutability": "nonpayable",
      "type": "function"
    },
    {
      "inputs": [
        {
          "internalType": "bool",
          "name": "_whitelisting",
          "type": "bool"
        }
      ],
      "name": "setWhitelisting",
      "outputs": [],
      "stateMutability": "nonpayable",
      "type": "function"
    },
    {
      "inputs": [],
      "name": "state",
      "outputs": [
        {
          "internalType": "contract State",
          "name": "",
          "type": "address"
        }
      ],
      "stateMutability": "view",
      "type": "function"
    },
    {
      "inputs": [
        {
          "components": [
            {
              "internalType": "uint112",
              "name": "value",
              "type": "uint112"
            },
            {
              "internalType": "uint112",
              "name": "fee",
              "type": "uint112"
            },
            {
              "internalType": "enum Structures.TransactionTypes",
              "name": "transactionType",
              "type": "uint8"
            },
            {
              "internalType": "enum Structures.TokenType",
              "name": "tokenType",
              "type": "uint8"
            },
            {
              "internalType": "uint64[4]",
              "name": "historicRootBlockNumberL2",
              "type": "uint64[4]"
            },
            {
              "internalType": "bytes32",
              "name": "tokenId",
              "type": "bytes32"
            },
            {
              "internalType": "bytes32",
              "name": "ercAddress",
              "type": "bytes32"
            },
            {
              "internalType": "bytes32",
              "name": "recipientAddress",
              "type": "bytes32"
            },
            {
              "internalType": "bytes32[3]",
              "name": "commitments",
              "type": "bytes32[3]"
            },
            {
              "internalType": "bytes32[4]",
              "name": "nullifiers",
              "type": "bytes32[4]"
            },
            {
              "internalType": "bytes32[2]",
              "name": "compressedSecrets",
              "type": "bytes32[2]"
            },
            {
              "internalType": "uint256[4]",
              "name": "proof",
              "type": "uint256[4]"
            }
          ],
          "internalType": "struct Structures.Transaction",
          "name": "t",
          "type": "tuple"
        }
      ],
      "name": "submitTransaction",
      "outputs": [],
      "stateMutability": "payable",
      "type": "function"
    },
    {
      "inputs": [
        {
          "internalType": "address",
          "name": "newOwner",
          "type": "address"
        }
      ],
      "name": "transferOwnership",
      "outputs": [],
      "stateMutability": "nonpayable",
      "type": "function"
    },
    {
      "inputs": [],
      "name": "unpause",
      "outputs": [],
      "stateMutability": "nonpayable",
      "type": "function"
    },
    {
      "inputs": [
        {
          "internalType": "address",
          "name": "",
          "type": "address"
        }
      ],
      "name": "users",
      "outputs": [
        {
          "internalType": "uint256",
          "name": "",
          "type": "uint256"
        }
      ],
      "stateMutability": "view",
      "type": "function"
    },
    {
      "inputs": [
        {
          "internalType": "enum Structures.TransactionTypes",
          "name": "",
          "type": "uint8"
        },
        {
          "internalType": "uint256",
          "name": "",
          "type": "uint256"
        }
      ],
      "name": "vks",
      "outputs": [
        {
          "internalType": "uint256",
          "name": "",
          "type": "uint256"
        }
      ],
      "stateMutability": "view",
      "type": "function"
    },
    {
      "inputs": [],
      "name": "whitelisting",
      "outputs": [
        {
          "internalType": "bool",
          "name": "",
          "type": "bool"
        }
      ],
      "stateMutability": "view",
      "type": "function"
    },
    {
      "inputs": [
        {
          "internalType": "bytes32",
          "name": "",
          "type": "bytes32"
        }
      ],
      "name": "withdrawn",
      "outputs": [
        {
          "internalType": "bool",
          "name": "",
          "type": "bool"
        }
      ],
      "stateMutability": "view",
      "type": "function"
    }
  ],
  "bytecode": "0x608060405234801561001057600080fd5b5061729180620000216000396000f3fe6080604052600436106102465760003560e01c80638da5cb5b11610139578063c19d93fb116100b6578063f23a6e611161007a578063f23a6e611461085a578063f2fde38b14610897578063f560a792146108c0578063f9902bb1146108e9578063fd5320b514610912578063fdff9b4d1461094f57610246565b8063c19d93fb14610782578063c300db9b146107ad578063d81685fc146107d8578063dcc7bceb14610801578063e7a8a5a01461081d57610246565b8063a87430ba116100fd578063a87430ba1461068b578063aa411d5b146106c8578063b2bdfa7b146106f1578063b8de507b1461071c578063bb7affc11461075957610246565b80638da5cb5b146105c95780639c18de93146105f45780639e4af3281461061d578063a039276914610639578063a2aab02a1461066257610246565b8063520c5828116101c75780637b25ee151161018b5780637b25ee151461050c5780638129fc1c146105355780638337babb1461054c5780638456cb591461058957806384afda19146105a057610246565b8063520c58281461043b5780635af5f7ba146104665780635c975abb1461048f57806369a5b950146104ba578063747b8050146104e357610246565b80633af32abf1161020e5780633af32abf146103565780633f4ba83a146103935780633f896799146103aa57806340efeb84146103e757806342646c681461041057610246565b806312997d1c1461024b578063150b7a021461028857806328340f17146102c55780633823d66c146102f057806339d72fef1461032d575b600080fd5b34801561025757600080fd5b50610272600480360381019061026d91906149cc565b61098c565b60405161027f9190614a72565b60405180910390f35b34801561029457600080fd5b506102af60048036038101906102aa9190614b41565b610c1a565b6040516102bc9190614c04565b60405180910390f35b3480156102d157600080fd5b506102da610c2f565b6040516102e79190614c2e565b60405180910390f35b3480156102fc57600080fd5b5061031760048036038101906103129190614c7f565b610c59565b6040516103249190614a72565b60405180910390f35b34801561033957600080fd5b50610354600480360381019061034f91906149cc565b610c79565b005b34801561036257600080fd5b5061037d60048036038101906103789190614cac565b610ff9565b60405161038a9190614a72565b60405180910390f35b34801561039f57600080fd5b506103a8611079565b005b3480156103b657600080fd5b506103d160048036038101906103cc9190614c7f565b6110f8565b6040516103de9190614c2e565b60405180910390f35b3480156103f357600080fd5b5061040e60048036038101906104099190614cd9565b61112b565b005b34801561041c57600080fd5b506104256117d9565b6040516104329190614c2e565b60405180910390f35b34801561044757600080fd5b50610450611803565b60405161045d9190614a72565b60405180910390f35b34801561047257600080fd5b5061048d60048036038101906104889190614d32565b611816565b005b34801561049b57600080fd5b506104a46118a8565b6040516104b19190614a72565b60405180910390f35b3480156104c657600080fd5b506104e160048036038101906104dc9190614cac565b6118bf565b005b3480156104ef57600080fd5b5061050a60048036038101906105059190614cac565b6119e5565b005b34801561051857600080fd5b50610533600480360381019061052e9190614d5f565b611a6b565b005b34801561054157600080fd5b5061054a611b28565b005b34801561055857600080fd5b50610573600480360381019061056e9190614c7f565b611c8e565b6040516105809190614dae565b60405180910390f35b34801561059557600080fd5b5061059e611ca6565b005b3480156105ac57600080fd5b506105c760048036038101906105c29190614e07565b611d25565b005b3480156105d557600080fd5b506105de611e2c565b6040516105eb9190614c2e565b60405180910390f35b34801561060057600080fd5b5061061b60048036038101906106169190614e34565b611e56565b005b610637600480360381019061063291906149cc565b611f80565b005b34801561064557600080fd5b50610660600480360381019061065b9190614f02565b61239a565b005b34801561066e57600080fd5b5061068960048036038101906106849190614f62565b612492565b005b34801561069757600080fd5b506106b260048036038101906106ad9190614cac565b612844565b6040516106bf9190614dae565b60405180910390f35b3480156106d457600080fd5b506106ef60048036038101906106ea9190614cac565b61285c565b005b3480156106fd57600080fd5b50610706612915565b6040516107139190614c2e565b60405180910390f35b34801561072857600080fd5b50610743600480360381019061073e9190614f90565b61293b565b604051610750919061507b565b60405180910390f35b34801561076557600080fd5b50610780600480360381019061077b9190614cac565b6129ca565b005b34801561078e57600080fd5b50610797612adc565b6040516107a491906150fc565b60405180910390f35b3480156107b957600080fd5b506107c2612b02565b6040516107cf9190614c2e565b60405180910390f35b3480156107e457600080fd5b506107ff60048036038101906107fa9190614cac565b612b2c565b005b61081b60048036038101906108169190614f62565b612be7565b005b34801561082957600080fd5b50610844600480360381019061083f9190615117565b612d33565b6040516108519190614dae565b60405180910390f35b34801561086657600080fd5b50610881600480360381019061087c9190615157565b612d90565b60405161088e9190614c04565b60405180910390f35b3480156108a357600080fd5b506108be60048036038101906108b99190614cac565b612dbf565b005b3480156108cc57600080fd5b506108e760048036038101906108e29190614cac565b612eba565b005b3480156108f557600080fd5b50610910600480360381019061090b9190614cac565b612fcc565b005b34801561091e57600080fd5b50610939600480360381019061093491906151f1565b613155565b6040516109469190614dae565b60405180910390f35b34801561095b57600080fd5b5061097660048036038101906109719190614cac565b613186565b6040516109839190614dae565b60405180910390f35b60008060029054906101000a900473ffffffffffffffffffffffffffffffffffffffff1673ffffffffffffffffffffffffffffffffffffffff1663539c07c887878787876040518663ffffffff1660e01b81526004016109f095949392919061587f565b60006040518083038186803b158015610a0857600080fd5b505afa158015610a1c573d6000803e3d6000fd5b5050505060008060029054906101000a900473ffffffffffffffffffffffffffffffffffffffff1673ffffffffffffffffffffffffffffffffffffffff16631c9ab3ad88606001356040518263ffffffff1660e01b8152600401610a809190614dae565b604080518083038186803b158015610a9757600080fd5b505afa158015610aab573d6000803e3d6000fd5b505050506040513d601f19601f82011682018060405250810190610acf91906159db565b6020015190504262093a8082610ae59190615a37565b10610b25576040517f08c379a0000000000000000000000000000000000000000000000000000000008152600401610b1c90615b10565b60405180910390fd5b6000610b308761319e565b905060a1600082815260200190815260200160002060009054906101000a900460ff1615610b93576040517f08c379a0000000000000000000000000000000000000000000000000000000008152600401610b8a90615ba2565b60405180910390fd5b600280811115610ba657610ba5615426565b5b876040016020810190610bb99190614f90565b6002811115610bcb57610bca615426565b5b14610c0b576040517f08c379a0000000000000000000000000000000000000000000000000000000008152600401610c0290615c34565b60405180910390fd5b60019250505095945050505050565b600063150b7a0260e01b905095945050505050565b6000606760009054906101000a900473ffffffffffffffffffffffffffffffffffffffff16905090565b60a16020528060005260406000206000915054906101000a900460ff1681565b600060029054906101000a900473ffffffffffffffffffffffffffffffffffffffff1673ffffffffffffffffffffffffffffffffffffffff1663539c07c886868686866040518663ffffffff1660e01b8152600401610cdc95949392919061587f565b60006040518083038186803b158015610cf457600080fd5b505afa158015610d08573d6000803e3d6000fd5b5050505060008060029054906101000a900473ffffffffffffffffffffffffffffffffffffffff1673ffffffffffffffffffffffffffffffffffffffff16631c9ab3ad87606001356040518263ffffffff1660e01b8152600401610d6c9190614dae565b604080518083038186803b158015610d8357600080fd5b505afa158015610d97573d6000803e3d6000fd5b505050506040513d601f19601f82011682018060405250810190610dbb91906159db565b6020015190504262093a8082610dd19190615a37565b10610e11576040517f08c379a0000000000000000000000000000000000000000000000000000000008152600401610e0890615b10565b60405180910390fd5b6000610e1c8661319e565b905060a1600082815260200190815260200160002060009054906101000a900460ff1615610e7f576040517f08c379a0000000000000000000000000000000000000000000000000000000008152600401610e7690615ba2565b60405180910390fd5b600160a1600083815260200190815260200160002060006101000a81548160ff021916908315150217905550600280811115610ebe57610ebd615426565b5b866040016020810190610ed19190614f90565b6002811115610ee357610ee2615426565b5b1415610ff057600086610140013560001c905060008073ffffffffffffffffffffffffffffffffffffffff1660a2600085815260200190815260200160002060009054906101000a900473ffffffffffffffffffffffffffffffffffffffff1673ffffffffffffffffffffffffffffffffffffffff1614610f975760a2600084815260200190815260200160002060009054906101000a900473ffffffffffffffffffffffffffffffffffffffff16610f99565b815b9050610fa433610ff9565b610fe3576040517f08c379a0000000000000000000000000000000000000000000000000000000008152600401610fda90615cc6565b60405180910390fd5b610fed88826131ce565b50505b50505050505050565b6000801515609e60009054906101000a900460ff161515141561101f5760019050611074565b6000609f60008473ffffffffffffffffffffffffffffffffffffffff1673ffffffffffffffffffffffffffffffffffffffff168152602001908152602001600020541461106f5760019050611074565b600090505b919050565b611081611e2c565b73ffffffffffffffffffffffffffffffffffffffff163373ffffffffffffffffffffffffffffffffffffffff16146110ee576040517f08c379a00000000000000000000000000000000000000000000000000000000081526004016110e590615d58565b60405180910390fd5b6110f661356d565b565b60a26020528060005260406000206000915054906101000a900473ffffffffffffffffffffffffffffffffffffffff1681565b6000611136826135d0565b905060008060029054906101000a900473ffffffffffffffffffffffffffffffffffffffff1673ffffffffffffffffffffffffffffffffffffffff16631c9ab3ad84606001356040518263ffffffff1660e01b81526004016111989190614dae565b604080518083038186803b1580156111af57600080fd5b505afa1580156111c3573d6000803e3d6000fd5b505050506040513d601f19601f820116820180604052508101906111e791906159db565b90508181600001511461122f576040517f08c379a000000000000000000000000000000000000000000000000000000000815260040161122690615dc4565b60405180910390fd5b6000816020015190504262093a80826112489190615a37565b10611288576040517f08c379a000000000000000000000000000000000000000000000000000000000815260040161127f90615e56565b60405180910390fd5b3373ffffffffffffffffffffffffffffffffffffffff168460200160208101906112b29190614cac565b73ffffffffffffffffffffffffffffffffffffffff1614611308576040517f08c379a00000000000000000000000000000000000000000000000000000000081526004016112ff90615ee8565b60405180910390fd5b60001515600060029054906101000a900473ffffffffffffffffffffffffffffffffffffffff1673ffffffffffffffffffffffffffffffffffffffff1663e34c13c5856040518263ffffffff1660e01b81526004016113679190615f17565b60206040518083038186803b15801561137f57600080fd5b505afa158015611393573d6000803e3d6000fd5b505050506040513d601f19601f820116820180604052508101906113b79190615f47565b1515146113f9576040517f08c379a00000000000000000000000000000000000000000000000000000000081526004016113f090615fe6565b60405180910390fd5b600060029054906101000a900473ffffffffffffffffffffffffffffffffffffffff1673ffffffffffffffffffffffffffffffffffffffff1663bcb4dbc2846040518263ffffffff1660e01b81526004016114549190615f17565b600060405180830381600087803b15801561146e57600080fd5b505af1158015611482573d6000803e3d6000fd5b50505050600080600060029054906101000a900473ffffffffffffffffffffffffffffffffffffffff1673ffffffffffffffffffffffffffffffffffffffff16638b616a0f8760200160208101906114da9190614cac565b88606001356040518363ffffffff1660e01b81526004016114fc929190616006565b604080518083038186803b15801561151357600080fd5b505afa158015611527573d6000803e3d6000fd5b505050506040513d601f19601f8201168201806040525081019061154b919061602f565b9150915060018261155c9190615a37565b9150600060029054906101000a900473ffffffffffffffffffffffffffffffffffffffff1673ffffffffffffffffffffffffffffffffffffffff1663873cd42a8760200160208101906115af9190614cac565b88606001356000806040518563ffffffff1660e01b81526004016115d694939291906160aa565b600060405180830381600087803b1580156115f057600080fd5b505af1158015611604573d6000803e3d6000fd5b5050505060008211156116e05760008060029054906101000a900473ffffffffffffffffffffffffffffffffffffffff1673ffffffffffffffffffffffffffffffffffffffff168360405161165890616120565b60006040518083038185875af1925050503d8060008114611695576040519150601f19603f3d011682016040523d82523d6000602084013e61169a565b606091505b50509050806116de576040517f08c379a00000000000000000000000000000000000000000000000000000000081526004016116d590616181565b60405180910390fd5b505b60008111156117405761173f30600060029054906101000a900473ffffffffffffffffffffffffffffffffffffffff1683611719612b02565b73ffffffffffffffffffffffffffffffffffffffff16613600909392919063ffffffff16565b5b600060029054906101000a900473ffffffffffffffffffffffffffffffffffffffff1673ffffffffffffffffffffffffffffffffffffffff16639aa075863384846040518463ffffffff1660e01b815260040161179f939291906161a1565b600060405180830381600087803b1580156117b957600080fd5b505af11580156117cd573d6000803e3d6000fd5b50505050505050505050565b6000606860009054906101000a900473ffffffffffffffffffffffffffffffffffffffff16905090565b609e60009054906101000a900460ff1681565b61181e611e2c565b73ffffffffffffffffffffffffffffffffffffffff163373ffffffffffffffffffffffffffffffffffffffff161461188b576040517f08c379a000000000000000000000000000000000000000000000000000000000815260040161188290615d58565b60405180910390fd5b80609e60006101000a81548160ff02191690831515021790555050565b6000603460009054906101000a900460ff16905090565b6118c7611e2c565b73ffffffffffffffffffffffffffffffffffffffff163373ffffffffffffffffffffffffffffffffffffffff1614611934576040517f08c379a000000000000000000000000000000000000000000000000000000000815260040161192b90615d58565b60405180910390fd5b606a60008273ffffffffffffffffffffffffffffffffffffffff1673ffffffffffffffffffffffffffffffffffffffff168152602001908152602001600020600060028110611986576119856161d8565b5b0160009055606a60008273ffffffffffffffffffffffffffffffffffffffff1673ffffffffffffffffffffffffffffffffffffffff1681526020019081526020016000206001600281106119dd576119dc6161d8565b5b016000905550565b60a060003373ffffffffffffffffffffffffffffffffffffffff1673ffffffffffffffffffffffffffffffffffffffff16815260200190815260200160002054609f60008373ffffffffffffffffffffffffffffffffffffffff1673ffffffffffffffffffffffffffffffffffffffff1681526020019081526020016000208190555050565b611a73611e2c565b73ffffffffffffffffffffffffffffffffffffffff163373ffffffffffffffffffffffffffffffffffffffff1614611ae0576040517f08c379a0000000000000000000000000000000000000000000000000000000008152600401611ad790615d58565b60405180910390fd5b8160a060008373ffffffffffffffffffffffffffffffffffffffff1673ffffffffffffffffffffffffffffffffffffffff168152602001908152602001600020819055505050565b60008060019054906101000a900460ff16159050808015611b595750600160008054906101000a900460ff1660ff16105b80611b865750611b6830613689565b158015611b855750600160008054906101000a900460ff1660ff16145b5b611bc5576040517f08c379a0000000000000000000000000000000000000000000000000000000008152600401611bbc90616279565b60405180910390fd5b60016000806101000a81548160ff021916908360ff1602179055508015611c02576001600060016101000a81548160ff0219169083151502179055505b611c0a6136ac565b611c1261383e565b611c1a61397c565b611c22613aba565b611c2a613b13565b611c32613c59565b8015611c8b5760008060016101000a81548160ff0219169083151502179055507f7f26b83ff96e1f2b6a682f133852f6798a09c465da95921460cefb38474024986001604051611c8291906162e1565b60405180910390a15b50565b60a36020528060005260406000206000915090505481565b611cae611e2c565b73ffffffffffffffffffffffffffffffffffffffff163373ffffffffffffffffffffffffffffffffffffffff1614611d1b576040517f08c379a0000000000000000000000000000000000000000000000000000000008152600401611d1290615d58565b60405180910390fd5b611d23613db2565b565b600160009054906101000a900473ffffffffffffffffffffffffffffffffffffffff1673ffffffffffffffffffffffffffffffffffffffff163373ffffffffffffffffffffffffffffffffffffffff16148015611d8f5750600160149054906101000a900460ff16155b611dce576040517f08c379a0000000000000000000000000000000000000000000000000000000008152600401611dc59061636e565b60405180910390fd5b60018060146101000a81548160ff02191690831515021790555080600060026101000a81548173ffffffffffffffffffffffffffffffffffffffff021916908373ffffffffffffffffffffffffffffffffffffffff16021790555050565b6000606660009054906101000a900473ffffffffffffffffffffffffffffffffffffffff16905090565b611e5e611e2c565b73ffffffffffffffffffffffffffffffffffffffff163373ffffffffffffffffffffffffffffffffffffffff1614611ecb576040517f08c379a0000000000000000000000000000000000000000000000000000000008152600401611ec290615d58565b60405180910390fd5b81606a60008573ffffffffffffffffffffffffffffffffffffffff1673ffffffffffffffffffffffffffffffffffffffff168152602001908152602001600020600060028110611f1e57611f1d6161d8565b5b018190555080606a60008573ffffffffffffffffffffffffffffffffffffffff1673ffffffffffffffffffffffffffffffffffffffff168152602001908152602001600020600160028110611f7657611f756161d8565b5b0181905550505050565b6002606c541415611fc6576040517f08c379a0000000000000000000000000000000000000000000000000000000008152600401611fbd906163da565b60405180910390fd5b6002606c81905550600280811115611fe157611fe0615426565b5b846040016020810190611ff49190614f90565b600281111561200657612005615426565b5b14612046576040517f08c379a000000000000000000000000000000000000000000000000000000000815260040161203d90616446565b60405180910390fd5b600060029054906101000a900473ffffffffffffffffffffffffffffffffffffffff1673ffffffffffffffffffffffffffffffffffffffff1663539c07c886868686866040518663ffffffff1660e01b81526004016120a995949392919061587f565b60006040518083038186803b1580156120c157600080fd5b505afa1580156120d5573d6000803e3d6000fd5b5050505060006120e48561319e565b905060a1600082815260200190815260200160002060009054906101000a900460ff1615612147576040517f08c379a000000000000000000000000000000000000000000000000000000000815260040161213e906164b2565b60405180910390fd5b600085610140013560001c905060008073ffffffffffffffffffffffffffffffffffffffff1660a2600085815260200190815260200160002060009054906101000a900473ffffffffffffffffffffffffffffffffffffffff1673ffffffffffffffffffffffffffffffffffffffff16146121f55760a2600084815260200190815260200160002060009054906101000a900473ffffffffffffffffffffffffffffffffffffffff166121f7565b815b90508073ffffffffffffffffffffffffffffffffffffffff163373ffffffffffffffffffffffffffffffffffffffff1614612267576040517f08c379a000000000000000000000000000000000000000000000000000000000815260040161225e90616544565b60405180910390fd5b3460a360008581526020019081526020016000208190555060008060029054906101000a900473ffffffffffffffffffffffffffffffffffffffff1673ffffffffffffffffffffffffffffffffffffffff16346040516122c690616120565b60006040518083038185875af1925050503d8060008114612303576040519150601f19603f3d011682016040523d82523d6000602084013e612308565b606091505b505090508061234c576040517f08c379a000000000000000000000000000000000000000000000000000000000815260040161234390616181565b60405180910390fd5b7fad3c4a0dcee8f6938c110c1c6b94072b4bea981a94e50094f2adef55ba7718a984333460405161237f93929190616564565b60405180910390a1505050506001606c819055505050505050565b6123a2611e2c565b73ffffffffffffffffffffffffffffffffffffffff163373ffffffffffffffffffffffffffffffffffffffff161461240f576040517f08c379a000000000000000000000000000000000000000000000000000000000815260040161240690615d58565b60405180910390fd5b8282606b600084600281111561242857612427615426565b5b600281111561243a57612439615426565b5b8152602001908152602001600020919061245592919061486f565b507fcfd8f8b734ebb05f1872379d344363750ce642d6cbd9f66a55aa3f1dbeb0c5d38160405161248591906165aa565b60405180910390a1505050565b600061249d8261319e565b9050600060a3600083815260200190815260200160002054116124f5576040517f08c379a00000000000000000000000000000000000000000000000000000000081526004016124ec90616637565b60405180910390fd5b6000600281111561250957612508615426565b5b82606001602081019061251c9190616657565b600281111561252e5761252d615426565b5b1461256e576040517f08c379a0000000000000000000000000000000000000000000000000000000008152600401612565906166f6565b60405180910390fd5b60a1600082815260200190815260200160002060009054906101000a900460ff16156125cf576040517f08c379a00000000000000000000000000000000000000000000000000000000081526004016125c6906164b2565b60405180910390fd5b600082610120013560001c9050600083610140013560001c905060008073ffffffffffffffffffffffffffffffffffffffff1660a2600086815260200190815260200160002060009054906101000a900473ffffffffffffffffffffffffffffffffffffffff1673ffffffffffffffffffffffffffffffffffffffff161461268a5760a2600085815260200190815260200160002060009054906101000a900473ffffffffffffffffffffffffffffffffffffffff1661268c565b815b9050600060a360008681526020019081526020016000205490506000801b866101000135146126f0576040517f08c379a00000000000000000000000000000000000000000000000000000000081526004016126e790616788565b60405180910390fd5b600060a36000878152602001908152602001600020819055503360a2600087815260200190815260200160002060006101000a81548173ffffffffffffffffffffffffffffffffffffffff021916908373ffffffffffffffffffffffffffffffffffffffff160217905550600060029054906101000a900473ffffffffffffffffffffffffffffffffffffffff1673ffffffffffffffffffffffffffffffffffffffff16639aa07586338360006040518463ffffffff1660e01b81526004016127bb939291906167a8565b600060405180830381600087803b1580156127d557600080fd5b505af11580156127e9573d6000803e3d6000fd5b5050505061283c338388600001602081019061280591906167df565b6dffffffffffffffffffffffffffff168773ffffffffffffffffffffffffffffffffffffffff16613600909392919063ffffffff16565b505050505050565b609f6020528060005260406000206000915090505481565b612864611e2c565b73ffffffffffffffffffffffffffffffffffffffff163373ffffffffffffffffffffffffffffffffffffffff16146128d1576040517f08c379a00000000000000000000000000000000000000000000000000000000081526004016128c890615d58565b60405180910390fd5b80606960006101000a81548173ffffffffffffffffffffffffffffffffffffffff021916908373ffffffffffffffffffffffffffffffffffffffff16021790555050565b606660009054906101000a900473ffffffffffffffffffffffffffffffffffffffff1681565b6060606b600083600281111561295457612953615426565b5b600281111561296657612965615426565b5b81526020019081526020016000208054806020026020016040519081016040528092919081815260200182805480156129be57602002820191906000526020600020905b8154815260200190600101908083116129aa575b50505050509050919050565b6129d2611e2c565b73ffffffffffffffffffffffffffffffffffffffff163373ffffffffffffffffffffffffffffffffffffffff1614612a3f576040517f08c379a0000000000000000000000000000000000000000000000000000000008152600401612a3690615d58565b60405180910390fd5b80606760006101000a81548173ffffffffffffffffffffffffffffffffffffffff021916908373ffffffffffffffffffffffffffffffffffffffff1602179055507f5544fd39820f90f9fc4b238e0eaaf1b5ece21e6dbb69a2b0824a16876e6d0efd606760009054906101000a900473ffffffffffffffffffffffffffffffffffffffff16604051612ad19190614c2e565b60405180910390a150565b600060029054906101000a900473ffffffffffffffffffffffffffffffffffffffff1681565b6000606960009054906101000a900473ffffffffffffffffffffffffffffffffffffffff16905090565b612b34611e2c565b73ffffffffffffffffffffffffffffffffffffffff163373ffffffffffffffffffffffffffffffffffffffff1614612ba1576040517f08c379a0000000000000000000000000000000000000000000000000000000008152600401612b9890615d58565b60405180910390fd5b60a060008273ffffffffffffffffffffffffffffffffffffffff1673ffffffffffffffffffffffffffffffffffffffff1681526020019081526020016000206000905550565b6002606c541415612c2d576040517f08c379a0000000000000000000000000000000000000000000000000000000008152600401612c24906163da565b60405180910390fd5b6002606c81905550612c3d613e15565b7fd9364d1faedd45a064f9090dd61ade3de8d1c1fd83caaa8ebdc4b9808f4eb98960405160405180910390a1612c7233610ff9565b612cb1576040517f08c379a0000000000000000000000000000000000000000000000000000000008152600401612ca89061687e565b60405180910390fd5b60006002811115612cc557612cc4615426565b5b816040016020810190612cd89190614f90565b6002811115612cea57612ce9615426565b5b1415612d285734816020016020810190612d0491906167df565b6dffffffffffffffffffffffffffff1614612d1e57600080fd5b612d2781613e5f565b5b6001606c8190555050565b6000606a60008473ffffffffffffffffffffffffffffffffffffffff1673ffffffffffffffffffffffffffffffffffffffff1681526020019081526020016000208260028110612d8657612d856161d8565b5b0154905092915050565b60007ff23a6e612e1ff4830e658fe43f4e3cb4a5f8170bd5d9e69fb5d7a7fa9e4fdf9790509695505050505050565b612dc7611e2c565b73ffffffffffffffffffffffffffffffffffffffff163373ffffffffffffffffffffffffffffffffffffffff1614612e34576040517f08c379a0000000000000000000000000000000000000000000000000000000008152600401612e2b90615d58565b60405180910390fd5b600073ffffffffffffffffffffffffffffffffffffffff168173ffffffffffffffffffffffffffffffffffffffff161415612e6e57600080fd5b7f8be0079c531659141344cd1fd0a4f28419497f9722a3daafe3b4186f6b6457e0612e97611e2c565b82604051612ea692919061689e565b60405180910390a1612eb78161429d565b50565b612ec2611e2c565b73ffffffffffffffffffffffffffffffffffffffff163373ffffffffffffffffffffffffffffffffffffffff1614612f2f576040517f08c379a0000000000000000000000000000000000000000000000000000000008152600401612f2690615d58565b60405180910390fd5b80606860006101000a81548173ffffffffffffffffffffffffffffffffffffffff021916908373ffffffffffffffffffffffffffffffffffffffff1602179055507f210cff5548618e71293ea0d4f1f3563a68e78f00273f3acd97014aac2442ed24606860009054906101000a900473ffffffffffffffffffffffffffffffffffffffff16604051612fc19190614c2e565b60405180910390a150565b6000609f60008373ffffffffffffffffffffffffffffffffffffffff1673ffffffffffffffffffffffffffffffffffffffff16815260200190815260200160002054141561304f576040517f08c379a000000000000000000000000000000000000000000000000000000000815260040161304690616939565b60405180910390fd5b609f60008273ffffffffffffffffffffffffffffffffffffffff1673ffffffffffffffffffffffffffffffffffffffff1681526020019081526020016000205460a060003373ffffffffffffffffffffffffffffffffffffffff1673ffffffffffffffffffffffffffffffffffffffff168152602001908152602001600020541461310f576040517f08c379a0000000000000000000000000000000000000000000000000000000008152600401613106906169cb565b60405180910390fd5b609f60008273ffffffffffffffffffffffffffffffffffffffff1673ffffffffffffffffffffffffffffffffffffffff1681526020019081526020016000206000905550565b606b602052816000526040600020818154811061317157600080fd5b90600052602060002001600091509150505481565b60a06020528060005260406000206000915090505481565b6000816040516020016131b191906169eb565b604051602081830303815290604052805190602001209050919050565b6131d6613e15565b600082610120013560001c9050600060028111156131f7576131f6615426565b5b83606001602081019061320a9190616657565b600281111561321c5761321b615426565b5b141561332d576000801b8361010001351461326c576040517f08c379a000000000000000000000000000000000000000000000000000000000815260040161326390616788565b60405180910390fd5b613277816001612d33565b83600001602081019061328a91906167df565b6dffffffffffffffffffffffffffff1611156132db576040517f08c379a00000000000000000000000000000000000000000000000000000000081526004016132d290616a79565b60405180910390fd5b613328828460000160208101906132f291906167df565b6dffffffffffffffffffffffffffff168373ffffffffffffffffffffffffffffffffffffffff166142e19092919063ffffffff16565b613568565b6001600281111561334157613340615426565b5b8360600160208101906133549190616657565b600281111561336657613365615426565b5b141561344d57600083600001602081019061338191906167df565b6dffffffffffffffffffffffffffff16146133d1576040517f08c379a00000000000000000000000000000000000000000000000000000000081526004016133c890616b0b565b60405180910390fd5b8073ffffffffffffffffffffffffffffffffffffffff1663b88d4fde308486610100013560001c6040518463ffffffff1660e01b815260040161341693929190616b5f565b600060405180830381600087803b15801561343057600080fd5b505af1158015613444573d6000803e3d6000fd5b50505050613567565b6002808111156134605761345f615426565b5b8360600160208101906134739190616657565b600281111561348557613484615426565b5b141561352b578073ffffffffffffffffffffffffffffffffffffffff1663f242432a308486610100013560001c8760000160208101906134c591906167df565b6dffffffffffffffffffffffffffff166040518563ffffffff1660e01b81526004016134f49493929190616ba9565b600060405180830381600087803b15801561350e57600080fd5b505af1158015613522573d6000803e3d6000fd5b50505050613566565b6040517f08c379a000000000000000000000000000000000000000000000000000000000815260040161355d90616c4d565b60405180910390fd5b5b5b505050565b613575614367565b6000603460006101000a81548160ff0219169083151502179055507f5db9ee0a495bf2e6ff9c91a7834c1ba4fdd244a5e8aa4e537bd38aeae4b073aa6135b96143b0565b6040516135c69190614c2e565b60405180910390a1565b6000816040516020016135e39190616c6d565b604051602081830303815290604052805190602001209050919050565b613683846323b872dd60e01b85858560405160240161362193929190616c88565b604051602081830303815290604052907bffffffffffffffffffffffffffffffffffffffffffffffffffffffff19166020820180517bffffffffffffffffffffffffffffffffffffffffffffffffffffffff83818316178352505050506143b8565b50505050565b6000808273ffffffffffffffffffffffffffffffffffffffff163b119050919050565b60008060019054906101000a900460ff161590508080156136dd5750600160008054906101000a900460ff1660ff16105b8061370a57506136ec30613689565b1580156137095750600160008054906101000a900460ff1660ff16145b5b613749576040517f08c379a000000000000000000000000000000000000000000000000000000000815260040161374090616279565b60405180910390fd5b60016000806101000a81548160ff021916908360ff1602179055508015613786576001600060016101000a81548160ff0219169083151502179055505b33600160006101000a81548173ffffffffffffffffffffffffffffffffffffffff021916908373ffffffffffffffffffffffffffffffffffffffff1602179055506000600160146101000a81548160ff021916908315150217905550801561383b5760008060016101000a81548160ff0219169083151502179055507f7f26b83ff96e1f2b6a682f133852f6798a09c465da95921460cefb3847402498600160405161383291906162e1565b60405180910390a15b50565b60008060019054906101000a900460ff1615905080801561386f5750600160008054906101000a900460ff1660ff16105b8061389c575061387e30613689565b15801561389b5750600160008054906101000a900460ff1660ff16145b5b6138db576040517f08c379a00000000000000000000000000000000000000000000000000000000081526004016138d290616279565b60405180910390fd5b60016000806101000a81548160ff021916908360ff1602179055508015613918576001600060016101000a81548160ff0219169083151502179055505b61392061447f565b80156139795760008060016101000a81548160ff0219169083151502179055507f7f26b83ff96e1f2b6a682f133852f6798a09c465da95921460cefb3847402498600160405161397091906162e1565b60405180910390a15b50565b60008060019054906101000a900460ff161590508080156139ad5750600160008054906101000a900460ff1660ff16105b806139da57506139bc30613689565b1580156139d95750600160008054906101000a900460ff1660ff16145b5b613a19576040517f08c379a0000000000000000000000000000000000000000000000000000000008152600401613a1090616279565b60405180910390fd5b60016000806101000a81548160ff021916908360ff1602179055508015613a56576001600060016101000a81548160ff0219169083151502179055505b613a5e61447f565b8015613ab75760008060016101000a81548160ff0219169083151502179055507f7f26b83ff96e1f2b6a682f133852f6798a09c465da95921460cefb38474024986001604051613aae91906162e1565b60405180910390a15b50565b600060019054906101000a900460ff16613b09576040517f08c379a0000000000000000000000000000000000000000000000000000000008152600401613b0090616d31565b60405180910390fd5b613b116145be565b565b60008060019054906101000a900460ff16159050808015613b445750600160008054906101000a900460ff1660ff16105b80613b715750613b5330613689565b158015613b705750600160008054906101000a900460ff1660ff16145b5b613bb0576040517f08c379a0000000000000000000000000000000000000000000000000000000008152600401613ba790616279565b60405180910390fd5b60016000806101000a81548160ff021916908360ff1602179055508015613bed576001600060016101000a81548160ff0219169083151502179055505b613bf561447f565b613bfd614617565b8015613c565760008060016101000a81548160ff0219169083151502179055507f7f26b83ff96e1f2b6a682f133852f6798a09c465da95921460cefb38474024986001604051613c4d91906162e1565b60405180910390a15b50565b60008060019054906101000a900460ff16159050808015613c8a5750600160008054906101000a900460ff1660ff16105b80613cb75750613c9930613689565b158015613cb65750600160008054906101000a900460ff1660ff16145b5b613cf6576040517f08c379a0000000000000000000000000000000000000000000000000000000008152600401613ced90616279565b60405180910390fd5b60016000806101000a81548160ff021916908360ff1602179055508015613d33576001600060016101000a81548160ff0219169083151502179055505b6000609e60006101000a81548160ff021916908315150217905550613d5661447f565b8015613daf5760008060016101000a81548160ff0219169083151502179055507f7f26b83ff96e1f2b6a682f133852f6798a09c465da95921460cefb38474024986001604051613da691906162e1565b60405180910390a15b50565b613dba613e15565b6001603460006101000a81548160ff0219169083151502179055507f62e78cea01bee320cd4e420270b5ea74000d11b0c9f74754ebdbfc544b05a258613dfe6143b0565b604051613e0b9190614c2e565b60405180910390a1565b613e1d6118a8565b15613e5d576040517f08c379a0000000000000000000000000000000000000000000000000000000008152600401613e5490616d9d565b60405180910390fd5b565b600081610120013560001c9050740100000000000000000000000000000000000000008110613ec3576040517f08c379a0000000000000000000000000000000000000000000000000000000008152600401613eba90616e2f565b60405180910390fd5b600081905060006002811115613edc57613edb615426565b5b836060016020810190613eef9190616657565b6002811115613f0157613f00615426565b5b141561405d576000801b83610100013514613f51576040517f08c379a0000000000000000000000000000000000000000000000000000000008152600401613f4890616788565b60405180910390fd5b6000613f5e826000612d33565b905060008111613fa3576040517f08c379a0000000000000000000000000000000000000000000000000000000008152600401613f9a90616ec1565b60405180910390fd5b80846000016020810190613fb791906167df565b6dffffffffffffffffffffffffffff161115614008576040517f08c379a0000000000000000000000000000000000000000000000000000000008152600401613fff90616f53565b60405180910390fd5b614057333086600001602081019061402091906167df565b6dffffffffffffffffffffffffffff168573ffffffffffffffffffffffffffffffffffffffff16613600909392919063ffffffff16565b50614298565b6001600281111561407157614070615426565b5b8360600160208101906140849190616657565b600281111561409657614095615426565b5b141561417d5760008360000160208101906140b191906167df565b6dffffffffffffffffffffffffffff1614614101576040517f08c379a00000000000000000000000000000000000000000000000000000000081526004016140f890616b0b565b60405180910390fd5b8073ffffffffffffffffffffffffffffffffffffffff1663b88d4fde333086610100013560001c6040518463ffffffff1660e01b815260040161414693929190616b5f565b600060405180830381600087803b15801561416057600080fd5b505af1158015614174573d6000803e3d6000fd5b50505050614297565b6002808111156141905761418f615426565b5b8360600160208101906141a39190616657565b60028111156141b5576141b4615426565b5b141561425b578073ffffffffffffffffffffffffffffffffffffffff1663f242432a333086610100013560001c8760000160208101906141f591906167df565b6dffffffffffffffffffffffffffff166040518563ffffffff1660e01b81526004016142249493929190616ba9565b600060405180830381600087803b15801561423e57600080fd5b505af1158015614252573d6000803e3d6000fd5b50505050614296565b6040517f08c379a000000000000000000000000000000000000000000000000000000000815260040161428d90616c4d565b60405180910390fd5b5b5b505050565b80606660006101000a81548173ffffffffffffffffffffffffffffffffffffffff021916908373ffffffffffffffffffffffffffffffffffffffff16021790555050565b6143628363a9059cbb60e01b8484604051602401614300929190616006565b604051602081830303815290604052907bffffffffffffffffffffffffffffffffffffffffffffffffffffffff19166020820180517bffffffffffffffffffffffffffffffffffffffffffffffffffffffff83818316178352505050506143b8565b505050565b61436f6118a8565b6143ae576040517f08c379a00000000000000000000000000000000000000000000000000000000081526004016143a590616fbf565b60405180910390fd5b565b600033905090565b600061441a826040518060400160405280602081526020017f5361666545524332303a206c6f772d6c6576656c2063616c6c206661696c65648152508573ffffffffffffffffffffffffffffffffffffffff166146709092919063ffffffff16565b905060008151111561447a578080602001905181019061443a9190615f47565b614479576040517f08c379a000000000000000000000000000000000000000000000000000000000815260040161447090617051565b60405180910390fd5b5b505050565b60008060019054906101000a900460ff161590508080156144b05750600160008054906101000a900460ff1660ff16105b806144dd57506144bf30613689565b1580156144dc5750600160008054906101000a900460ff1660ff16145b5b61451c576040517f08c379a000000000000000000000000000000000000000000000000000000000815260040161451390616279565b60405180910390fd5b60016000806101000a81548160ff021916908360ff1602179055508015614559576001600060016101000a81548160ff0219169083151502179055505b6145623361429d565b80156145bb5760008060016101000a81548160ff0219169083151502179055507f7f26b83ff96e1f2b6a682f133852f6798a09c465da95921460cefb384740249860016040516145b291906162e1565b60405180910390a15b50565b600060019054906101000a900460ff1661460d576040517f08c379a000000000000000000000000000000000000000000000000000000000815260040161460490616d31565b60405180910390fd5b6001606c81905550565b600060019054906101000a900460ff16614666576040517f08c379a000000000000000000000000000000000000000000000000000000000815260040161465d90616d31565b60405180910390fd5b61466e614688565b565b606061467f84846000856146f4565b90509392505050565b600060019054906101000a900460ff166146d7576040517f08c379a00000000000000000000000000000000000000000000000000000000081526004016146ce90616d31565b60405180910390fd5b6000603460006101000a81548160ff021916908315150217905550565b606082471015614739576040517f08c379a0000000000000000000000000000000000000000000000000000000008152600401614730906170e3565b60405180910390fd5b61474285613689565b614781576040517f08c379a00000000000000000000000000000000000000000000000000000000081526004016147789061714f565b60405180910390fd5b6000808673ffffffffffffffffffffffffffffffffffffffff1685876040516147aa91906171de565b60006040518083038185875af1925050503d80600081146147e7576040519150601f19603f3d011682016040523d82523d6000602084013e6147ec565b606091505b50915091506147fc828286614808565b92505050949350505050565b6060831561481857829050614868565b60008351111561482b5782518084602001fd5b816040517f08c379a000000000000000000000000000000000000000000000000000000000815260040161485f9190617239565b60405180910390fd5b9392505050565b8280548282559060005260206000209081019282156148ab579160200282015b828111156148aa57823582559160200191906001019061488f565b5b5090506148b891906148bc565b5090565b5b808211156148d55760008160009055506001016148bd565b5090565b6000604051905090565b600080fd5b600080fd5b600080fd5b600060c08284031215614908576149076148ed565b5b81905092915050565b60006103008284031215614928576149276148ed565b5b81905092915050565b6000819050919050565b61494481614931565b811461494f57600080fd5b50565b6000813590506149618161493b565b92915050565b600080fd5b600080fd5b600080fd5b60008083601f84011261498c5761498b614967565b5b8235905067ffffffffffffffff8111156149a9576149a861496c565b5b6020830191508360208202830111156149c5576149c4614971565b5b9250929050565b600080600080600061040086880312156149e9576149e86148e3565b5b60006149f7888289016148f2565b95505060c0614a0888828901614911565b9450506103c0614a1a88828901614952565b9350506103e086013567ffffffffffffffff811115614a3c57614a3b6148e8565b5b614a4888828901614976565b92509250509295509295909350565b60008115159050919050565b614a6c81614a57565b82525050565b6000602082019050614a876000830184614a63565b92915050565b600073ffffffffffffffffffffffffffffffffffffffff82169050919050565b6000614ab882614a8d565b9050919050565b614ac881614aad565b8114614ad357600080fd5b50565b600081359050614ae581614abf565b92915050565b60008083601f840112614b0157614b00614967565b5b8235905067ffffffffffffffff811115614b1e57614b1d61496c565b5b602083019150836001820283011115614b3a57614b39614971565b5b9250929050565b600080600080600060808688031215614b5d57614b5c6148e3565b5b6000614b6b88828901614ad6565b9550506020614b7c88828901614ad6565b9450506040614b8d88828901614952565b935050606086013567ffffffffffffffff811115614bae57614bad6148e8565b5b614bba88828901614aeb565b92509250509295509295909350565b60007fffffffff0000000000000000000000000000000000000000000000000000000082169050919050565b614bfe81614bc9565b82525050565b6000602082019050614c196000830184614bf5565b92915050565b614c2881614aad565b82525050565b6000602082019050614c436000830184614c1f565b92915050565b6000819050919050565b614c5c81614c49565b8114614c6757600080fd5b50565b600081359050614c7981614c53565b92915050565b600060208284031215614c9557614c946148e3565b5b6000614ca384828501614c6a565b91505092915050565b600060208284031215614cc257614cc16148e3565b5b6000614cd084828501614ad6565b91505092915050565b600060c08284031215614cef57614cee6148e3565b5b6000614cfd848285016148f2565b91505092915050565b614d0f81614a57565b8114614d1a57600080fd5b50565b600081359050614d2c81614d06565b92915050565b600060208284031215614d4857614d476148e3565b5b6000614d5684828501614d1d565b91505092915050565b60008060408385031215614d7657614d756148e3565b5b6000614d8485828601614952565b9250506020614d9585828601614ad6565b9150509250929050565b614da881614931565b82525050565b6000602082019050614dc36000830184614d9f565b92915050565b6000614dd482614a8d565b9050919050565b614de481614dc9565b8114614def57600080fd5b50565b600081359050614e0181614ddb565b92915050565b600060208284031215614e1d57614e1c6148e3565b5b6000614e2b84828501614df2565b91505092915050565b600080600060608486031215614e4d57614e4c6148e3565b5b6000614e5b86828701614ad6565b9350506020614e6c86828701614952565b9250506040614e7d86828701614952565b9150509250925092565b60008083601f840112614e9d57614e9c614967565b5b8235905067ffffffffffffffff811115614eba57614eb961496c565b5b602083019150836020820283011115614ed657614ed5614971565b5b9250929050565b60038110614eea57600080fd5b50565b600081359050614efc81614edd565b92915050565b600080600060408486031215614f1b57614f1a6148e3565b5b600084013567ffffffffffffffff811115614f3957614f386148e8565b5b614f4586828701614e87565b93509350506020614f5886828701614eed565b9150509250925092565b60006103008284031215614f7957614f786148e3565b5b6000614f8784828501614911565b91505092915050565b600060208284031215614fa657614fa56148e3565b5b6000614fb484828501614eed565b91505092915050565b600081519050919050565b600082825260208201905092915050565b6000819050602082019050919050565b614ff281614931565b82525050565b60006150048383614fe9565b60208301905092915050565b6000602082019050919050565b600061502882614fbd565b6150328185614fc8565b935061503d83614fd9565b8060005b8381101561506e5781516150558882614ff8565b975061506083615010565b925050600181019050615041565b5085935050505092915050565b60006020820190508181036000830152615095818461501d565b905092915050565b6000819050919050565b60006150c26150bd6150b884614a8d565b61509d565b614a8d565b9050919050565b60006150d4826150a7565b9050919050565b60006150e6826150c9565b9050919050565b6150f6816150db565b82525050565b600060208201905061511160008301846150ed565b92915050565b6000806040838503121561512e5761512d6148e3565b5b600061513c85828601614ad6565b925050602061514d85828601614952565b9150509250929050565b60008060008060008060a08789031215615174576151736148e3565b5b600061518289828a01614ad6565b965050602061519389828a01614ad6565b95505060406151a489828a01614952565b94505060606151b589828a01614952565b935050608087013567ffffffffffffffff8111156151d6576151d56148e8565b5b6151e289828a01614aeb565b92509250509295509295509295565b60008060408385031215615208576152076148e3565b5b600061521685828601614eed565b925050602061522785828601614952565b9150509250929050565b600065ffffffffffff82169050919050565b61524c81615231565b811461525757600080fd5b50565b60008135905061526981615243565b92915050565b600061527e602084018461525a565b905092915050565b61528f81615231565b82525050565b60006152a46020840184614ad6565b905092915050565b6152b581614aad565b82525050565b60006152ca6020840184614c6a565b905092915050565b6152db81614c49565b82525050565b60006152f06020840184614952565b905092915050565b60c08201615309600083018361526f565b6153166000850182615286565b506153246020830183615295565b61533160208501826152ac565b5061533f60408301836152bb565b61534c60408501826152d2565b5061535a60608301836152e1565b6153676060850182614fe9565b5061537560808301836152bb565b61538260808501826152d2565b5061539060a08301836152bb565b61539d60a08501826152d2565b50505050565b60006dffffffffffffffffffffffffffff82169050919050565b6153c6816153a3565b81146153d157600080fd5b50565b6000813590506153e3816153bd565b92915050565b60006153f860208401846153d4565b905092915050565b615409816153a3565b82525050565b600061541e6020840184614eed565b905092915050565b7f4e487b7100000000000000000000000000000000000000000000000000000000600052602160045260246000fd5b6003811061546657615465615426565b5b50565b600081905061547782615455565b919050565b600061548782615469565b9050919050565b6154978161547c565b82525050565b600381106154aa57600080fd5b50565b6000813590506154bc8161549d565b92915050565b60006154d160208401846154ad565b905092915050565b600381106154ea576154e9615426565b5b50565b60008190506154fb826154d9565b919050565b600061550b826154ed565b9050919050565b61551b81615500565b82525050565b600082905092915050565b600060049050919050565b600081905092915050565b6000819050919050565b600067ffffffffffffffff82169050919050565b6155698161554c565b82525050565b600061557b8383615560565b60208301905092915050565b6155908161554c565b811461559b57600080fd5b50565b6000813590506155ad81615587565b92915050565b60006155c2602084018461559e565b905092915050565b6000602082019050919050565b6155e08161552c565b6155ea8184615537565b92506155f582615542565b8060005b8381101561562e5761560b82846155b3565b615615878261556f565b9650615620836155ca565b9250506001810190506155f9565b505050505050565b600082905092915050565b82818337600083830152505050565b61565c60608383615641565b5050565b600082905092915050565b61567760808383615641565b5050565b600082905092915050565b61569260408383615641565b5050565b600082905092915050565b6156ad60808383615641565b5050565b61030082016156c360008301836153e9565b6156d06000850182615400565b506156de60208301836153e9565b6156eb6020850182615400565b506156f9604083018361540f565b615706604085018261548e565b5061571460608301836154c2565b6157216060850182615512565b5061572f6080830183615521565b61573c60808501826155d7565b5061574b6101008301836152bb565b6157596101008501826152d2565b506157686101208301836152bb565b6157766101208501826152d2565b506157856101408301836152bb565b6157936101408501826152d2565b506157a2610160830183615636565b6157b0610160850182615650565b506157bf6101c0830183615660565b6157cd6101c085018261566b565b506157dc61024083018361567b565b6157ea610240850182615686565b506157f9610280830183615696565b6158076102808501826156a1565b50505050565b600082825260208201905092915050565b600080fd5b600061582f838561580d565b93507f07ffffffffffffffffffffffffffffffffffffffffffffffffffffffffffffff8311156158625761586161581e565b5b602083029250615873838584615641565b82840190509392505050565b60006104008201905061589560008301886152f8565b6158a260c08301876156b1565b6158b06103c0830186614d9f565b8181036103e08301526158c4818486615823565b90509695505050505050565b600080fd5b6000601f19601f8301169050919050565b7f4e487b7100000000000000000000000000000000000000000000000000000000600052604160045260246000fd5b61591e826158d5565b810181811067ffffffffffffffff8211171561593d5761593c6158e6565b5b80604052505050565b60006159506148d9565b905061595c8282615915565b919050565b60008151905061597081614c53565b92915050565b6000815190506159858161493b565b92915050565b6000604082840312156159a1576159a06158d0565b5b6159ab6040615946565b905060006159bb84828501615961565b60008301525060206159cf84828501615976565b60208301525092915050565b6000604082840312156159f1576159f06148e3565b5b60006159ff8482850161598b565b91505092915050565b7f4e487b7100000000000000000000000000000000000000000000000000000000600052601160045260246000fd5b6000615a4282614931565b9150615a4d83614931565b9250827fffffffffffffffffffffffffffffffffffffffffffffffffffffffffffffffff03821115615a8257615a81615a08565b5b828201905092915050565b600082825260208201905092915050565b7f497420697320746f6f20736f6f6e20746f2077697468647261772066756e647360008201527f2066726f6d207468697320626c6f636b00000000000000000000000000000000602082015250565b6000615afa603083615a8d565b9150615b0582615a9e565b604082019050919050565b60006020820190508181036000830152615b2981615aed565b9050919050565b7f54686973207472616e73616374696f6e2068617320616c72656164792070616960008201527f64206f7574000000000000000000000000000000000000000000000000000000602082015250565b6000615b8c602583615a8d565b9150615b9782615b30565b604082019050919050565b60006020820190508181036000830152615bbb81615b7f565b9050919050565b7f54686973207472616e73616374696f6e206973206e6f7420612076616c69642060008201527f5749544844524157000000000000000000000000000000000000000000000000602082015250565b6000615c1e602883615a8d565b9150615c2982615bc2565b604082019050919050565b60006020820190508181036000830152615c4d81615c11565b9050919050565b7f596f7520617265206e6f7420617574686f726973656420746f2077697468647260008201527f61772066756e6473000000000000000000000000000000000000000000000000602082015250565b6000615cb0602883615a8d565b9150615cbb82615c54565b604082019050919050565b60006020820190508181036000830152615cdf81615ca3565b9050919050565b7f596f7520617265206e6f7420617574686f726973656420746f20696e766f6b6560008201527f20746869732066756e6374696f6e000000000000000000000000000000000000602082015250565b6000615d42602e83615a8d565b9150615d4d82615ce6565b604082019050919050565b60006020820190508181036000830152615d7181615d35565b9050919050565b7f5468697320626c6f636b20646f6573206e6f7420657869737400000000000000600082015250565b6000615dae601983615a8d565b9150615db982615d78565b602082019050919050565b60006020820190508181036000830152615ddd81615da1565b9050919050565b7f497420697320746f6f20736f6f6e20746f20676574207061696420666f72207460008201527f68697320626c6f636b0000000000000000000000000000000000000000000000602082015250565b6000615e40602983615a8d565b9150615e4b82615de4565b604082019050919050565b60006020820190508181036000830152615e6f81615e33565b9050919050565b7f596f7520617265206e6f74207468652070726f706f736572206f66207468697360008201527f20626c6f636b0000000000000000000000000000000000000000000000000000602082015250565b6000615ed2602683615a8d565b9150615edd82615e76565b604082019050919050565b60006020820190508181036000830152615f0181615ec5565b9050919050565b615f1181614c49565b82525050565b6000602082019050615f2c6000830184615f08565b92915050565b600081519050615f4181614d06565b92915050565b600060208284031215615f5d57615f5c6148e3565b5b6000615f6b84828501615f32565b91505092915050565b7f54686520626c6f636b207374616b6520666f72207468697320626c6f636b206960008201527f7320616c726561647920636c61696d6564000000000000000000000000000000602082015250565b6000615fd0603183615a8d565b9150615fdb82615f74565b604082019050919050565b60006020820190508181036000830152615fff81615fc3565b9050919050565b600060408201905061601b6000830185614c1f565b6160286020830184614d9f565b9392505050565b60008060408385031215616046576160456148e3565b5b600061605485828601615976565b925050602061606585828601615976565b9150509250929050565b6000819050919050565b600061609461608f61608a8461606f565b61509d565b614931565b9050919050565b6160a481616079565b82525050565b60006080820190506160bf6000830187614c1f565b6160cc6020830186614d9f565b6160d96040830185614d9f565b6160e6606083018461609b565b95945050505050565b600081905092915050565b50565b600061610a6000836160ef565b9150616115826160fa565b600082019050919050565b600061612b826160fd565b9150819050919050565b7f5472616e73666572206661696c65642e00000000000000000000000000000000600082015250565b600061616b601083615a8d565b915061617682616135565b602082019050919050565b6000602082019050818103600083015261619a8161615e565b9050919050565b60006060820190506161b66000830186614c1f565b6161c36020830185614d9f565b6161d06040830184614d9f565b949350505050565b7f4e487b7100000000000000000000000000000000000000000000000000000000600052603260045260246000fd5b7f496e697469616c697a61626c653a20636f6e747261637420697320616c72656160008201527f647920696e697469616c697a6564000000000000000000000000000000000000602082015250565b6000616263602e83615a8d565b915061626e82616207565b604082019050919050565b6000602082019050818103600083015261629281616256565b9050919050565b6000819050919050565b600060ff82169050919050565b60006162cb6162c66162c184616299565b61509d565b6162a3565b9050919050565b6162db816162b0565b82525050565b60006020820190506162f660008301846162d2565b92915050565b7f4f6e6c7920746865206f776e65722063616e2063616c6c20746869732c206f6e60008201527f63652e0000000000000000000000000000000000000000000000000000000000602082015250565b6000616358602383615a8d565b9150616363826162fc565b604082019050919050565b600060208201905081810360008301526163878161634b565b9050919050565b7f5265656e7472616e637947756172643a207265656e7472616e742063616c6c00600082015250565b60006163c4601f83615a8d565b91506163cf8261638e565b602082019050919050565b600060208201905081810360008301526163f3816163b7565b9050919050565b7f43616e206f6e6c7920616476616e6365207769746864726177616c7300000000600082015250565b6000616430601c83615a8d565b915061643b826163fa565b602082019050919050565b6000602082019050818103600083015261645f81616423565b9050919050565b7f43616e6e6f7420646f75626c6520776974686472617700000000000000000000600082015250565b600061649c601683615a8d565b91506164a782616466565b602082019050919050565b600060208201905081810360008301526164cb8161648f565b9050919050565b7f596f7520617265206e6f74207468652063757272656e74206f776e6572206f6660008201527f2074686973207769746864726177616c00000000000000000000000000000000602082015250565b600061652e603083615a8d565b9150616539826164d2565b604082019050919050565b6000602082019050818103600083015261655d81616521565b9050919050565b60006060820190506165796000830186615f08565b6165866020830185614c1f565b6165936040830184614d9f565b949350505050565b6165a48161547c565b82525050565b60006020820190506165bf600083018461659b565b92915050565b7f4e6f20616476616e6365642066656520686173206265656e2073657420666f7260008201527f2074686973207769746864726177616c00000000000000000000000000000000602082015250565b6000616621603083615a8d565b915061662c826165c5565b604082019050919050565b6000602082019050818103600083015261665081616614565b9050919050565b60006020828403121561666d5761666c6148e3565b5b600061667b848285016154ad565b91505092915050565b7f43616e206f6e6c7920616476616e6365207769746864726177616c7320666f7260008201527f2066756e6769626c6520746f6b656e7300000000000000000000000000000000602082015250565b60006166e0603083615a8d565b91506166eb82616684565b604082019050919050565b6000602082019050818103600083015261670f816166d3565b9050919050565b7f4552433230206465706f7369742073686f756c64206861766520746f6b656e4960008201527f6420657175616c20746f205a45524f0000000000000000000000000000000000602082015250565b6000616772602f83615a8d565b915061677d82616716565b604082019050919050565b600060208201905081810360008301526167a181616765565b9050919050565b60006060820190506167bd6000830186614c1f565b6167ca6020830185614d9f565b6167d7604083018461609b565b949350505050565b6000602082840312156167f5576167f46148e3565b5b6000616803848285016153d4565b91505092915050565b7f596f7520617265206e6f7420617574686f726973656420746f207472616e736160008201527f6374207573696e67204e6967687466616c6c0000000000000000000000000000602082015250565b6000616868603283615a8d565b91506168738261680c565b604082019050919050565b600060208201905081810360008301526168978161685b565b9050919050565b60006040820190506168b36000830185614c1f565b6168c06020830184614c1f565b9392505050565b7f546869732075736572206973206e6f742077686974656c69737465642c20736f60008201527f2063616e6e6f742062652064656c697374656400000000000000000000000000602082015250565b6000616923603383615a8d565b915061692e826168c7565b604082019050919050565b6000602082019050818103600083015261695281616916565b9050919050565b7f596f7520617265206e6f7420746865206d616e61676572206f6620746869732060008201527f67726f7570000000000000000000000000000000000000000000000000000000602082015250565b60006169b5602583615a8d565b91506169c082616959565b604082019050919050565b600060208201905081810360008301526169e4816169a8565b9050919050565b600061030082019050616a0160008301846156b1565b92915050565b7f56616c75652069732061626f76652063757272656e742072657374726963746960008201527f6f6e7320666f72207769746864726177616c7300000000000000000000000000602082015250565b6000616a63603383615a8d565b9150616a6e82616a07565b604082019050919050565b60006020820190508181036000830152616a9281616a56565b9050919050565b7f496e76616c696420696e7075747320666f7220455243373231206465706f736960008201527f7400000000000000000000000000000000000000000000000000000000000000602082015250565b6000616af5602183615a8d565b9150616b0082616a99565b604082019050919050565b60006020820190508181036000830152616b2481616ae8565b9050919050565b600082825260208201905092915050565b6000616b49600083616b2b565b9150616b54826160fa565b600082019050919050565b6000608082019050616b746000830186614c1f565b616b816020830185614c1f565b616b8e6040830184614d9f565b8181036060830152616b9f81616b3c565b9050949350505050565b600060a082019050616bbe6000830187614c1f565b616bcb6020830186614c1f565b616bd86040830185614d9f565b616be56060830184614d9f565b8181036080830152616bf681616b3c565b905095945050505050565b7f496e76616c696420546f6b656e20547970650000000000000000000000000000600082015250565b6000616c37601283615a8d565b9150616c4282616c01565b602082019050919050565b60006020820190508181036000830152616c6681616c2a565b9050919050565b600060c082019050616c8260008301846152f8565b92915050565b6000606082019050616c9d6000830186614c1f565b616caa6020830185614c1f565b616cb76040830184614d9f565b949350505050565b7f496e697469616c697a61626c653a20636f6e7472616374206973206e6f74206960008201527f6e697469616c697a696e67000000000000000000000000000000000000000000602082015250565b6000616d1b602b83615a8d565b9150616d2682616cbf565b604082019050919050565b60006020820190508181036000830152616d4a81616d0e565b9050919050565b7f5061757361626c653a2070617573656400000000000000000000000000000000600082015250565b6000616d87601083615a8d565b9150616d9282616d51565b602082019050919050565b60006020820190508181036000830152616db681616d7a565b9050919050565b7f54686520676976656e2061646472657373206973206d6f7265207468616e203160008201527f3630206269747300000000000000000000000000000000000000000000000000602082015250565b6000616e19602783615a8d565b9150616e2482616dbd565b604082019050919050565b60006020820190508181036000830152616e4881616e0c565b9050919050565b7f43616e6e6f742068617665207265737472696374696f6e73206f66207a65726f60008201527f2076616c75650000000000000000000000000000000000000000000000000000602082015250565b6000616eab602683615a8d565b9150616eb682616e4f565b604082019050919050565b60006020820190508181036000830152616eda81616e9e565b9050919050565b7f56616c75652069732061626f76652063757272656e742072657374726963746960008201527f6f6e7320666f72206465706f7369747300000000000000000000000000000000602082015250565b6000616f3d603083615a8d565b9150616f4882616ee1565b604082019050919050565b60006020820190508181036000830152616f6c81616f30565b9050919050565b7f5061757361626c653a206e6f7420706175736564000000000000000000000000600082015250565b6000616fa9601483615a8d565b9150616fb482616f73565b602082019050919050565b60006020820190508181036000830152616fd881616f9c565b9050919050565b7f5361666545524332303a204552433230206f7065726174696f6e20646964206e60008201527f6f74207375636365656400000000000000000000000000000000000000000000602082015250565b600061703b602a83615a8d565b915061704682616fdf565b604082019050919050565b6000602082019050818103600083015261706a8161702e565b9050919050565b7f416464726573733a20696e73756666696369656e742062616c616e636520666f60008201527f722063616c6c0000000000000000000000000000000000000000000000000000602082015250565b60006170cd602683615a8d565b91506170d882617071565b604082019050919050565b600060208201905081810360008301526170fc816170c0565b9050919050565b7f416464726573733a2063616c6c20746f206e6f6e2d636f6e7472616374000000600082015250565b6000617139601d83615a8d565b915061714482617103565b602082019050919050565b600060208201905081810360008301526171688161712c565b9050919050565b600081519050919050565b60005b8381101561719857808201518184015260208101905061717d565b838111156171a7576000848401525b50505050565b60006171b88261716f565b6171c281856160ef565b93506171d281856020860161717a565b80840191505092915050565b60006171ea82846171ad565b915081905092915050565b600081519050919050565b600061720b826171f5565b6172158185615a8d565b935061722581856020860161717a565b61722e816158d5565b840191505092915050565b600060208201905081810360008301526172538184617200565b90509291505056fea26469706673582212207475d92cfed455a834a3f2815cd42bcf05a602ac75a85f9ac4b08b944c3395ae64736f6c63430008090033",
  "linkReferences": {},
  "deployedLinkReferences": {}
}