{
  "contractName": "Shield",
  "abi": [
    {
      "anonymous": false,
      "inputs": [
        {
          "indexed": false,
          "internalType": "bytes32",
          "name": "blockHash",
          "type": "bytes32"
        }
      ],
      "name": "AcceptedProposedBlock",
      "type": "event"
    },
    {
      "anonymous": false,
      "inputs": [
        {
          "indexed": true,
          "internalType": "bytes32",
          "name": "blockHash",
          "type": "bytes32"
        },
        {
          "components": [
            {
              "internalType": "bytes32",
              "name": "blockHash",
              "type": "bytes32"
            },
            {
              "internalType": "address",
              "name": "proposer",
              "type": "address"
            },
            {
              "internalType": "bytes32[]",
              "name": "transactionHashes",
              "type": "bytes32[]"
            },
            {
              "internalType": "bytes32",
              "name": "root",
              "type": "bytes32"
            }
          ],
          "indexed": false,
          "internalType": "struct Structures.Block",
          "name": "b",
          "type": "tuple"
        },
        {
          "components": [
            {
              "internalType": "bytes32",
              "name": "transactionHash",
              "type": "bytes32"
            },
            {
              "internalType": "uint256",
              "name": "fee",
              "type": "uint256"
            },
            {
              "internalType": "enum Structures.TransactionTypes",
              "name": "transactionType",
              "type": "uint8"
            },
            {
              "internalType": "bytes32",
              "name": "publicInputHash",
              "type": "bytes32"
            },
            {
              "internalType": "bytes32",
              "name": "tokenId",
              "type": "bytes32"
            },
            {
              "internalType": "bytes32",
              "name": "value",
              "type": "bytes32"
            },
            {
              "internalType": "bytes32",
              "name": "ercAddress",
              "type": "bytes32"
            },
            {
              "internalType": "bytes32",
              "name": "recipientAddress",
              "type": "bytes32"
            },
            {
              "internalType": "bytes32[]",
              "name": "commitments",
              "type": "bytes32[]"
            },
            {
              "internalType": "bytes32[]",
              "name": "nullifiers",
              "type": "bytes32[]"
            },
            {
              "internalType": "bytes32",
              "name": "historicRoot",
              "type": "bytes32"
            },
            {
              "internalType": "uint256[]",
              "name": "proof",
              "type": "uint256[]"
            }
          ],
          "indexed": false,
          "internalType": "struct Structures.Transaction[]",
          "name": "t",
          "type": "tuple[]"
        }
      ],
      "name": "BlockProposed",
      "type": "event"
    },
    {
      "anonymous": false,
      "inputs": [
        {
          "indexed": false,
          "internalType": "address",
          "name": "proposer",
          "type": "address"
        }
      ],
      "name": "NewCurrentProposer",
      "type": "event"
    },
    {
      "anonymous": false,
      "inputs": [
        {
          "indexed": false,
          "internalType": "uint256",
          "name": "leafIndex",
          "type": "uint256"
        },
        {
          "indexed": false,
          "internalType": "bytes32",
          "name": "leafValue",
          "type": "bytes32"
        },
        {
          "indexed": false,
          "internalType": "bytes32",
          "name": "root",
          "type": "bytes32"
        }
      ],
      "name": "NewLeaf",
      "type": "event"
    },
    {
      "anonymous": false,
      "inputs": [
        {
          "indexed": false,
          "internalType": "uint256",
          "name": "minLeafIndex",
          "type": "uint256"
        },
        {
          "indexed": false,
          "internalType": "bytes32[]",
          "name": "leafValues",
          "type": "bytes32[]"
        },
        {
          "indexed": false,
          "internalType": "bytes32",
          "name": "root",
          "type": "bytes32"
        }
      ],
      "name": "NewLeaves",
      "type": "event"
    },
    {
      "anonymous": false,
      "inputs": [
        {
          "indexed": false,
          "internalType": "address",
          "name": "previousOwner",
          "type": "address"
        },
        {
          "indexed": false,
          "internalType": "address",
          "name": "newOwner",
          "type": "address"
        }
      ],
      "name": "OwnershipTransferred",
      "type": "event"
    },
    {
      "anonymous": false,
      "inputs": [
        {
          "indexed": true,
          "internalType": "bytes32",
          "name": "blockHash",
          "type": "bytes32"
        }
      ],
      "name": "RejectedProposedBlock",
      "type": "event"
    },
    {
      "anonymous": false,
      "inputs": [
        {
          "components": [
            {
              "internalType": "bytes32",
              "name": "transactionHash",
              "type": "bytes32"
            },
            {
              "internalType": "uint256",
              "name": "fee",
              "type": "uint256"
            },
            {
              "internalType": "enum Structures.TransactionTypes",
              "name": "transactionType",
              "type": "uint8"
            },
            {
              "internalType": "bytes32",
              "name": "publicInputHash",
              "type": "bytes32"
            },
            {
              "internalType": "bytes32",
              "name": "tokenId",
              "type": "bytes32"
            },
            {
              "internalType": "bytes32",
              "name": "value",
              "type": "bytes32"
            },
            {
              "internalType": "bytes32",
              "name": "ercAddress",
              "type": "bytes32"
            },
            {
              "internalType": "bytes32",
              "name": "recipientAddress",
              "type": "bytes32"
            },
            {
              "internalType": "bytes32[]",
              "name": "commitments",
              "type": "bytes32[]"
            },
            {
              "internalType": "bytes32[]",
              "name": "nullifiers",
              "type": "bytes32[]"
            },
            {
              "internalType": "bytes32",
              "name": "historicRoot",
              "type": "bytes32"
            },
            {
              "internalType": "uint256[]",
              "name": "proof",
              "type": "uint256[]"
            }
          ],
          "indexed": false,
          "internalType": "struct Structures.Transaction",
          "name": "t",
          "type": "tuple"
        }
      ],
      "name": "TransactionSubmitted",
      "type": "event"
    },
    {
      "anonymous": false,
      "inputs": [
        {
          "indexed": false,
          "internalType": "enum Structures.TransactionTypes",
          "name": "txType",
          "type": "uint8"
        }
      ],
      "name": "VkChanged",
      "type": "event"
    },
    {
      "inputs": [
        {
          "internalType": "uint256",
          "name": "in_x",
          "type": "uint256"
        },
        {
          "internalType": "uint256",
          "name": "in_k",
          "type": "uint256"
        }
      ],
      "name": "Encipher",
      "outputs": [
        {
          "internalType": "uint256",
          "name": "out_x",
          "type": "uint256"
        }
      ],
      "stateMutability": "pure",
      "type": "function",
      "constant": true
    },
    {
      "inputs": [
        {
          "internalType": "uint256[]",
          "name": "in_msgs",
          "type": "uint256[]"
        },
        {
          "internalType": "uint256",
          "name": "in_key",
          "type": "uint256"
        }
      ],
      "name": "Hash",
      "outputs": [
        {
          "internalType": "uint256",
          "name": "",
          "type": "uint256"
        }
      ],
      "stateMutability": "pure",
      "type": "function",
      "constant": true
    },
    {
      "inputs": [],
      "name": "_owner",
      "outputs": [
        {
          "internalType": "address",
          "name": "",
          "type": "address"
        }
      ],
      "stateMutability": "view",
      "type": "function",
      "constant": true
    },
    {
      "inputs": [
        {
          "internalType": "bytes32",
          "name": "",
          "type": "bytes32"
        }
      ],
      "name": "blockHashes",
      "outputs": [
        {
          "internalType": "bytes32",
          "name": "thisHash",
          "type": "bytes32"
        },
        {
          "internalType": "bytes32",
          "name": "previousHash",
          "type": "bytes32"
        },
        {
          "internalType": "bytes32",
          "name": "nextHash",
          "type": "bytes32"
        },
        {
          "internalType": "uint256",
          "name": "data",
          "type": "uint256"
        }
      ],
      "stateMutability": "view",
      "type": "function",
      "constant": true
    },
    {
      "inputs": [
        {
          "components": [
            {
              "internalType": "bytes32",
              "name": "blockHash",
              "type": "bytes32"
            },
            {
              "internalType": "address",
              "name": "proposer",
              "type": "address"
            },
            {
              "internalType": "bytes32[]",
              "name": "transactionHashes",
              "type": "bytes32[]"
            },
            {
              "internalType": "bytes32",
              "name": "root",
              "type": "bytes32"
            }
          ],
          "internalType": "struct Structures.Block",
          "name": "block",
          "type": "tuple"
        }
      ],
      "name": "challengeBlockIsReal",
      "outputs": [],
      "stateMutability": "nonpayable",
      "type": "function"
    },
    {
      "inputs": [
        {
          "components": [
            {
              "internalType": "bytes32",
              "name": "blockHash",
              "type": "bytes32"
            },
            {
              "internalType": "address",
              "name": "proposer",
              "type": "address"
            },
            {
              "internalType": "bytes32[]",
              "name": "transactionHashes",
              "type": "bytes32[]"
            },
            {
              "internalType": "bytes32",
              "name": "root",
              "type": "bytes32"
            }
          ],
          "internalType": "struct Structures.Block",
          "name": "priorBlockL2",
          "type": "tuple"
        },
        {
          "components": [
            {
              "internalType": "bytes32",
              "name": "transactionHash",
              "type": "bytes32"
            },
            {
              "internalType": "uint256",
              "name": "fee",
              "type": "uint256"
            },
            {
              "internalType": "enum Structures.TransactionTypes",
              "name": "transactionType",
              "type": "uint8"
            },
            {
              "internalType": "bytes32",
              "name": "publicInputHash",
              "type": "bytes32"
            },
            {
              "internalType": "bytes32",
              "name": "tokenId",
              "type": "bytes32"
            },
            {
              "internalType": "bytes32",
              "name": "value",
              "type": "bytes32"
            },
            {
              "internalType": "bytes32",
              "name": "ercAddress",
              "type": "bytes32"
            },
            {
              "internalType": "bytes32",
              "name": "recipientAddress",
              "type": "bytes32"
            },
            {
              "internalType": "bytes32[]",
              "name": "commitments",
              "type": "bytes32[]"
            },
            {
              "internalType": "bytes32[]",
              "name": "nullifiers",
              "type": "bytes32[]"
            },
            {
              "internalType": "bytes32",
              "name": "historicRoot",
              "type": "bytes32"
            },
            {
              "internalType": "uint256[]",
              "name": "proof",
              "type": "uint256[]"
            }
          ],
          "internalType": "struct Structures.Transaction",
          "name": "priorBlockL2LastTransaction",
          "type": "tuple"
        },
        {
          "components": [
            {
              "internalType": "bytes32",
              "name": "blockHash",
              "type": "bytes32"
            },
            {
              "internalType": "address",
              "name": "proposer",
              "type": "address"
            },
            {
              "internalType": "bytes32[]",
              "name": "transactionHashes",
              "type": "bytes32[]"
            },
            {
              "internalType": "bytes32",
              "name": "root",
              "type": "bytes32"
            }
          ],
          "internalType": "struct Structures.Block",
          "name": "blockL2",
          "type": "tuple"
        },
        {
          "components": [
            {
              "internalType": "bytes32",
              "name": "transactionHash",
              "type": "bytes32"
            },
            {
              "internalType": "uint256",
              "name": "fee",
              "type": "uint256"
            },
            {
              "internalType": "enum Structures.TransactionTypes",
              "name": "transactionType",
              "type": "uint8"
            },
            {
              "internalType": "bytes32",
              "name": "publicInputHash",
              "type": "bytes32"
            },
            {
              "internalType": "bytes32",
              "name": "tokenId",
              "type": "bytes32"
            },
            {
              "internalType": "bytes32",
              "name": "value",
              "type": "bytes32"
            },
            {
              "internalType": "bytes32",
              "name": "ercAddress",
              "type": "bytes32"
            },
            {
              "internalType": "bytes32",
              "name": "recipientAddress",
              "type": "bytes32"
            },
            {
              "internalType": "bytes32[]",
              "name": "commitments",
              "type": "bytes32[]"
            },
            {
              "internalType": "bytes32[]",
              "name": "nullifiers",
              "type": "bytes32[]"
            },
            {
              "internalType": "bytes32",
              "name": "historicRoot",
              "type": "bytes32"
            },
            {
              "internalType": "uint256[]",
              "name": "proof",
              "type": "uint256[]"
            }
          ],
          "internalType": "struct Structures.Transaction[]",
          "name": "transactions",
          "type": "tuple[]"
        },
        {
          "internalType": "bytes32[33]",
          "name": "siblingPath",
          "type": "bytes32[33]"
        },
        {
          "internalType": "uint256",
          "name": "commitmentIndex",
          "type": "uint256"
        }
      ],
      "name": "challengeNewRootCorrect",
      "outputs": [],
      "stateMutability": "nonpayable",
      "type": "function"
    },
    {
      "inputs": [],
      "name": "changeCurrentProposer",
      "outputs": [],
      "stateMutability": "nonpayable",
      "type": "function"
    },
    {
      "inputs": [
        {
          "internalType": "bytes32[33]",
          "name": "siblingPath",
          "type": "bytes32[33]"
        },
        {
          "internalType": "uint256",
          "name": "leafIndex",
          "type": "uint256"
        },
        {
          "internalType": "bytes32",
          "name": "node",
          "type": "bytes32"
        },
        {
          "internalType": "bytes32",
          "name": "root",
          "type": "bytes32"
        }
      ],
      "name": "checkPath",
      "outputs": [
        {
          "internalType": "bool",
          "name": "",
          "type": "bool"
        },
        {
          "internalType": "bytes32[33]",
          "name": "",
          "type": "bytes32[33]"
        }
      ],
      "stateMutability": "pure",
      "type": "function",
      "constant": true
    },
    {
      "inputs": [],
      "name": "deRegisterProposer",
      "outputs": [],
      "stateMutability": "nonpayable",
      "type": "function"
    },
    {
      "inputs": [
        {
          "internalType": "uint256",
          "name": "leafIndex",
          "type": "uint256"
        }
      ],
      "name": "getFrontierSlot",
      "outputs": [
        {
          "internalType": "uint256",
          "name": "slot",
          "type": "uint256"
        }
      ],
      "stateMutability": "pure",
      "type": "function",
      "constant": true
    },
    {
      "inputs": [
        {
          "internalType": "bytes32",
          "name": "leafValue",
          "type": "bytes32"
        },
        {
          "internalType": "bytes32[33]",
          "name": "_frontier",
          "type": "bytes32[33]"
        },
        {
          "internalType": "uint256",
          "name": "_leafCount",
          "type": "uint256"
        }
      ],
      "name": "insertLeaf",
      "outputs": [
        {
          "internalType": "bytes32",
          "name": "root",
          "type": "bytes32"
        },
        {
          "internalType": "bytes32[33]",
          "name": "",
          "type": "bytes32[33]"
        },
        {
          "internalType": "uint256",
          "name": "",
          "type": "uint256"
        }
      ],
      "stateMutability": "pure",
      "type": "function",
      "constant": true
    },
    {
      "inputs": [
        {
          "internalType": "bytes32[]",
          "name": "leafValues",
          "type": "bytes32[]"
        },
        {
          "internalType": "bytes32[33]",
          "name": "_frontier",
          "type": "bytes32[33]"
        },
        {
          "internalType": "uint256",
          "name": "_leafCount",
          "type": "uint256"
        }
      ],
      "name": "insertLeaves",
      "outputs": [
        {
          "internalType": "bytes32",
          "name": "root",
          "type": "bytes32"
        },
        {
          "internalType": "bytes32[33]",
          "name": "",
          "type": "bytes32[33]"
        },
        {
          "internalType": "uint256",
          "name": "",
          "type": "uint256"
        }
      ],
      "stateMutability": "pure",
      "type": "function",
      "constant": true
    },
    {
      "inputs": [
        {
          "components": [
            {
              "internalType": "bytes32",
              "name": "blockHash",
              "type": "bytes32"
            },
            {
              "internalType": "address",
              "name": "proposer",
              "type": "address"
            },
            {
              "internalType": "bytes32[]",
              "name": "transactionHashes",
              "type": "bytes32[]"
            },
            {
              "internalType": "bytes32",
              "name": "root",
              "type": "bytes32"
            }
          ],
          "internalType": "struct Structures.Block",
          "name": "b",
          "type": "tuple"
        }
      ],
      "name": "isBlockReal",
      "outputs": [],
      "stateMutability": "view",
      "type": "function",
      "constant": true
    },
    {
      "inputs": [
        {
          "internalType": "bytes32[]",
          "name": "in_msgs",
          "type": "bytes32[]"
        }
      ],
      "name": "mimcHash",
      "outputs": [
        {
          "internalType": "bytes32",
          "name": "",
          "type": "bytes32"
        }
      ],
      "stateMutability": "pure",
      "type": "function",
      "constant": true
    },
    {
      "inputs": [
        {
          "internalType": "bytes32[2]",
          "name": "in_msgs",
          "type": "bytes32[2]"
        }
      ],
      "name": "mimcHash2",
      "outputs": [
        {
          "internalType": "bytes32",
          "name": "",
          "type": "bytes32"
        }
      ],
      "stateMutability": "pure",
      "type": "function",
      "constant": true
    },
    {
      "inputs": [],
      "name": "owner",
      "outputs": [
        {
          "internalType": "address",
          "name": "",
          "type": "address"
        }
      ],
      "stateMutability": "view",
      "type": "function",
      "constant": true
    },
    {
      "inputs": [
        {
          "internalType": "address",
          "name": "",
          "type": "address"
        }
      ],
      "name": "pendingWithdrawals",
      "outputs": [
        {
          "internalType": "uint256",
          "name": "",
          "type": "uint256"
        }
      ],
      "stateMutability": "view",
      "type": "function",
      "constant": true
    },
    {
      "inputs": [
        {
          "components": [
            {
              "internalType": "bytes32",
              "name": "blockHash",
              "type": "bytes32"
            },
            {
              "internalType": "address",
              "name": "proposer",
              "type": "address"
            },
            {
              "internalType": "bytes32[]",
              "name": "transactionHashes",
              "type": "bytes32[]"
            },
            {
              "internalType": "bytes32",
              "name": "root",
              "type": "bytes32"
            }
          ],
          "internalType": "struct Structures.Block",
          "name": "b",
          "type": "tuple"
        },
        {
          "components": [
            {
              "internalType": "bytes32",
              "name": "transactionHash",
              "type": "bytes32"
            },
            {
              "internalType": "uint256",
              "name": "fee",
              "type": "uint256"
            },
            {
              "internalType": "enum Structures.TransactionTypes",
              "name": "transactionType",
              "type": "uint8"
            },
            {
              "internalType": "bytes32",
              "name": "publicInputHash",
              "type": "bytes32"
            },
            {
              "internalType": "bytes32",
              "name": "tokenId",
              "type": "bytes32"
            },
            {
              "internalType": "bytes32",
              "name": "value",
              "type": "bytes32"
            },
            {
              "internalType": "bytes32",
              "name": "ercAddress",
              "type": "bytes32"
            },
            {
              "internalType": "bytes32",
              "name": "recipientAddress",
              "type": "bytes32"
            },
            {
              "internalType": "bytes32[]",
              "name": "commitments",
              "type": "bytes32[]"
            },
            {
              "internalType": "bytes32[]",
              "name": "nullifiers",
              "type": "bytes32[]"
            },
            {
              "internalType": "bytes32",
              "name": "historicRoot",
              "type": "bytes32"
            },
            {
              "internalType": "uint256[]",
              "name": "proof",
              "type": "uint256[]"
            }
          ],
          "internalType": "struct Structures.Transaction[]",
          "name": "t",
          "type": "tuple[]"
        }
      ],
      "name": "proposeBlock",
      "outputs": [],
      "stateMutability": "payable",
      "type": "function",
      "payable": true
    },
    {
      "inputs": [
        {
          "internalType": "address",
          "name": "",
          "type": "address"
        }
      ],
      "name": "proposers",
      "outputs": [
        {
          "internalType": "address",
          "name": "thisAddress",
          "type": "address"
        },
        {
          "internalType": "address",
          "name": "previousAddress",
          "type": "address"
        },
        {
          "internalType": "address",
          "name": "nextAddress",
          "type": "address"
        }
      ],
      "stateMutability": "view",
      "type": "function",
      "constant": true
    },
    {
      "inputs": [],
      "name": "registerProposer",
      "outputs": [],
      "stateMutability": "payable",
      "type": "function",
      "payable": true
    },
    {
      "inputs": [
        {
          "internalType": "uint256[]",
          "name": "_vk",
          "type": "uint256[]"
        },
        {
          "internalType": "enum Structures.TransactionTypes",
          "name": "_txType",
          "type": "uint8"
        }
      ],
      "name": "registerVerificationKey",
      "outputs": [],
      "stateMutability": "nonpayable",
      "type": "function"
    },
    {
      "inputs": [
        {
          "internalType": "address",
          "name": "newOwner",
          "type": "address"
        }
      ],
      "name": "transferOwnership",
      "outputs": [],
      "stateMutability": "nonpayable",
      "type": "function"
    },
    {
      "inputs": [
        {
          "internalType": "enum Structures.TransactionTypes",
          "name": "",
          "type": "uint8"
        },
        {
          "internalType": "uint256",
          "name": "",
          "type": "uint256"
        }
      ],
      "name": "vks",
      "outputs": [
        {
          "internalType": "uint256",
          "name": "",
          "type": "uint256"
        }
      ],
      "stateMutability": "view",
      "type": "function",
      "constant": true
    },
    {
      "inputs": [],
      "name": "withdraw",
      "outputs": [],
      "stateMutability": "nonpayable",
      "type": "function"
    },
    {
      "inputs": [
        {
          "components": [
            {
              "internalType": "bytes32",
              "name": "transactionHash",
              "type": "bytes32"
            },
            {
              "internalType": "uint256",
              "name": "fee",
              "type": "uint256"
            },
            {
              "internalType": "enum Structures.TransactionTypes",
              "name": "transactionType",
              "type": "uint8"
            },
            {
              "internalType": "bytes32",
              "name": "publicInputHash",
              "type": "bytes32"
            },
            {
              "internalType": "bytes32",
              "name": "tokenId",
              "type": "bytes32"
            },
            {
              "internalType": "bytes32",
              "name": "value",
              "type": "bytes32"
            },
            {
              "internalType": "bytes32",
              "name": "ercAddress",
              "type": "bytes32"
            },
            {
              "internalType": "bytes32",
              "name": "recipientAddress",
              "type": "bytes32"
            },
            {
              "internalType": "bytes32[]",
              "name": "commitments",
              "type": "bytes32[]"
            },
            {
              "internalType": "bytes32[]",
              "name": "nullifiers",
              "type": "bytes32[]"
            },
            {
              "internalType": "bytes32",
              "name": "historicRoot",
              "type": "bytes32"
            },
            {
              "internalType": "uint256[]",
              "name": "proof",
              "type": "uint256[]"
            }
          ],
          "internalType": "struct Structures.Transaction",
          "name": "t",
          "type": "tuple"
        }
      ],
      "name": "submitTransaction",
      "outputs": [],
      "stateMutability": "payable",
      "type": "function",
      "payable": true
    },
    {
      "inputs": [
        {
          "components": [
            {
              "internalType": "bytes32",
              "name": "blockHash",
              "type": "bytes32"
            },
            {
              "internalType": "address",
              "name": "proposer",
              "type": "address"
            },
            {
              "internalType": "bytes32[]",
              "name": "transactionHashes",
              "type": "bytes32[]"
            },
            {
              "internalType": "bytes32",
              "name": "root",
              "type": "bytes32"
            }
          ],
          "internalType": "struct Structures.Block",
          "name": "b",
          "type": "tuple"
        },
        {
          "components": [
            {
              "internalType": "bytes32",
              "name": "transactionHash",
              "type": "bytes32"
            },
            {
              "internalType": "uint256",
              "name": "fee",
              "type": "uint256"
            },
            {
              "internalType": "enum Structures.TransactionTypes",
              "name": "transactionType",
              "type": "uint8"
            },
            {
              "internalType": "bytes32",
              "name": "publicInputHash",
              "type": "bytes32"
            },
            {
              "internalType": "bytes32",
              "name": "tokenId",
              "type": "bytes32"
            },
            {
              "internalType": "bytes32",
              "name": "value",
              "type": "bytes32"
            },
            {
              "internalType": "bytes32",
              "name": "ercAddress",
              "type": "bytes32"
            },
            {
              "internalType": "bytes32",
              "name": "recipientAddress",
              "type": "bytes32"
            },
            {
              "internalType": "bytes32[]",
              "name": "commitments",
              "type": "bytes32[]"
            },
            {
              "internalType": "bytes32[]",
              "name": "nullifiers",
              "type": "bytes32[]"
            },
            {
              "internalType": "bytes32",
              "name": "historicRoot",
              "type": "bytes32"
            },
            {
              "internalType": "uint256[]",
              "name": "proof",
              "type": "uint256[]"
            }
          ],
          "internalType": "struct Structures.Transaction",
          "name": "t",
          "type": "tuple"
        },
        {
          "internalType": "uint256",
          "name": "index",
          "type": "uint256"
        }
      ],
      "name": "finaliseWithdrawal",
      "outputs": [],
      "stateMutability": "nonpayable",
      "type": "function"
    }
  ],
  "bytecode": "0x60806040523480156200001157600080fd5b5062000023336200002960201b60201c565b6200006d565b80600460006101000a81548173ffffffffffffffffffffffffffffffffffffffff021916908373ffffffffffffffffffffffffffffffffffffffff16021790555050565b615921806200007d6000396000f3fe6080604052600436106101815760003560e01c80639be51d38116100d1578063cf8b25f31161008a578063e81369fe11610064578063e81369fe14610573578063f2fde38b1461059c578063f3f43703146105c5578063fd5320b51461060257610181565b8063cf8b25f3146104e3578063e0ee0c4a1461050c578063e43cdc631461053557610181565b80639be51d38146103f65780639c0599ef14610412578063a039276914610429578063aa0324a014610452578063b2bdfa7b1461048f578063b91914b5146104ba57610181565b806350ea385f1161013e57806377603f4a1161011857806377603f4a146103385780638da5cb5b1461034f5780638e0381e41461037a57806396d8d820146103b957610181565b806350ea385f146102a0578063599a29e4146102df57806364b246301461031c57610181565b80630fa16e381461018657806318177497146101c35780632a3a8183146102025780632b8a6d161461023f5780633ccfd60b1461027f5780634a78454914610296575b600080fd5b34801561019257600080fd5b506101ad60048036038101906101a89190613c90565b61063f565b6040516101ba9190615491565b60405180910390f35b3480156101cf57600080fd5b506101ea60048036038101906101e59190613ad5565b61068b565b6040516101f993929190614fea565b60405180910390f35b34801561020e57600080fd5b506102296004803603810190610224919061401b565b610715565b6040516102369190615491565b60405180910390f35b34801561024b57600080fd5b5061026660048036038101906102619190613d0d565b61078c565b6040516102769493929190615178565b60405180910390f35b34801561028b57600080fd5b506102946107bc565b005b61029e61088f565b005b3480156102ac57600080fd5b506102c760048036038101906102c29190613d36565b610ef0565b6040516102d69392919061513f565b60405180910390f35b3480156102eb57600080fd5b5061030660048036038101906103019190613afe565b6110e3565b6040516103139190615124565b60405180910390f35b61033660048036038101906103319190613e04565b6111a3565b005b34801561034457600080fd5b5061034d611597565b005b34801561035b57600080fd5b506103646117e1565b6040516103719190614ecd565b60405180910390f35b34801561038657600080fd5b506103a1600480360381019061039c9190613bcf565b61180b565b6040516103b09392919061513f565b60405180910390f35b3480156103c557600080fd5b506103e060048036038101906103db9190614044565b611bcd565b6040516103ed9190615491565b60405180910390f35b610410600480360381019061040b9190613fda565b611c19565b005b34801561041e57600080fd5b50610427611c80565b005b34801561043557600080fd5b50610450600480360381019061044b9190613c38565b611f17565b005b34801561045e57600080fd5b5061047960048036038101906104749190613b8e565b612001565b6040516104869190615124565b60405180910390f35b34801561049b57600080fd5b506104a46120b1565b6040516104b19190614ecd565b60405180910390f35b3480156104c657600080fd5b506104e160048036038101906104dc9190613f5b565b6120d7565b005b3480156104ef57600080fd5b5061050a60048036038101906105059190613e70565b6121d2565b005b34801561051857600080fd5b50610533600480360381019061052e9190613dc3565b612580565b005b34801561054157600080fd5b5061055c60048036038101906105579190613b27565b6125db565b60405161056a9291906150fa565b60405180910390f35b34801561057f57600080fd5b5061059a60048036038101906105959190613dc3565b6126ff565b005b3480156105a857600080fd5b506105c360048036038101906105be9190613ad5565b6127af565b005b3480156105d157600080fd5b506105ec60048036038101906105e79190613ad5565b6128aa565b6040516105f99190615491565b60405180910390f35b34801561060e57600080fd5b5061062960048036038101906106249190613d87565b6128c2565b6040516106369190615491565b60405180910390f35b600080636d696d6360e01b90506106828484836040516020016106629190614df9565b6040516020818303038152906040528051906020012060001c605b6128f0565b91505092915050565b60016020528060005260406000206000915090508060000160009054906101000a900473ffffffffffffffffffffffffffffffffffffffff16908060010160009054906101000a900473ffffffffffffffffffffffffffffffffffffffff16908060020160009054906101000a900473ffffffffffffffffffffffffffffffffffffffff16905083565b600080905060016002838161072657fe5b061415610787576000600190506000600290506000600182901b90505b6000841415610783576000818360018801038161075c57fe5b06141561076b5782935061077e565b809150600181901b905082806001019350505b610743565b5050505b919050565b60006020528060005260406000206000915090508060000154908060010154908060020154908060030154905084565b6000600260003373ffffffffffffffffffffffffffffffffffffffff1673ffffffffffffffffffffffffffffffffffffffff1681526020019081526020016000205490506000600260003373ffffffffffffffffffffffffffffffffffffffff1673ffffffffffffffffffffffffffffffffffffffff168152602001908152602001600020819055503373ffffffffffffffffffffffffffffffffffffffff166108fc829081150290604051600060405180830381858888f1935050505015801561088b573d6000803e3d6000fd5b5050565b34678ac7230489e80000146108d9576040517f08c379a00000000000000000000000000000000000000000000000000000000081526004016108d090615418565b60405180910390fd5b600073ffffffffffffffffffffffffffffffffffffffff16600660000160009054906101000a900473ffffffffffffffffffffffffffffffffffffffff1673ffffffffffffffffffffffffffffffffffffffff161415610be85760405180606001604052803373ffffffffffffffffffffffffffffffffffffffff1681526020013373ffffffffffffffffffffffffffffffffffffffff1681526020013373ffffffffffffffffffffffffffffffffffffffff16815250600660008201518160000160006101000a81548173ffffffffffffffffffffffffffffffffffffffff021916908373ffffffffffffffffffffffffffffffffffffffff16021790555060208201518160010160006101000a81548173ffffffffffffffffffffffffffffffffffffffff021916908373ffffffffffffffffffffffffffffffffffffffff16021790555060408201518160020160006101000a81548173ffffffffffffffffffffffffffffffffffffffff021916908373ffffffffffffffffffffffffffffffffffffffff1602179055509050506006600160003373ffffffffffffffffffffffffffffffffffffffff1673ffffffffffffffffffffffffffffffffffffffff1681526020019081526020016000206000820160009054906101000a900473ffffffffffffffffffffffffffffffffffffffff168160000160006101000a81548173ffffffffffffffffffffffffffffffffffffffff021916908373ffffffffffffffffffffffffffffffffffffffff1602179055506001820160009054906101000a900473ffffffffffffffffffffffffffffffffffffffff168160010160006101000a81548173ffffffffffffffffffffffffffffffffffffffff021916908373ffffffffffffffffffffffffffffffffffffffff1602179055506002820160009054906101000a900473ffffffffffffffffffffffffffffffffffffffff168160020160006101000a81548173ffffffffffffffffffffffffffffffffffffffff021916908373ffffffffffffffffffffffffffffffffffffffff160217905550905050610eee565b610bf0613474565b33816000019073ffffffffffffffffffffffffffffffffffffffff16908173ffffffffffffffffffffffffffffffffffffffff1681525050600660000160009054906101000a900473ffffffffffffffffffffffffffffffffffffffff16816040019073ffffffffffffffffffffffffffffffffffffffff16908173ffffffffffffffffffffffffffffffffffffffff1681525050600660010160009054906101000a900473ffffffffffffffffffffffffffffffffffffffff16816020019073ffffffffffffffffffffffffffffffffffffffff16908173ffffffffffffffffffffffffffffffffffffffff1681525050806000015160016000600660010160009054906101000a900473ffffffffffffffffffffffffffffffffffffffff1673ffffffffffffffffffffffffffffffffffffffff1673ffffffffffffffffffffffffffffffffffffffff16815260200190815260200160002060020160006101000a81548173ffffffffffffffffffffffffffffffffffffffff021916908373ffffffffffffffffffffffffffffffffffffffff1602179055508060000151600660010160006101000a81548173ffffffffffffffffffffffffffffffffffffffff021916908373ffffffffffffffffffffffffffffffffffffffff16021790555080600160003373ffffffffffffffffffffffffffffffffffffffff1673ffffffffffffffffffffffffffffffffffffffff16815260200190815260200160002060008201518160000160006101000a81548173ffffffffffffffffffffffffffffffffffffffff021916908373ffffffffffffffffffffffffffffffffffffffff16021790555060208201518160010160006101000a81548173ffffffffffffffffffffffffffffffffffffffff021916908373ffffffffffffffffffffffffffffffffffffffff16021790555060408201518160020160006101000a81548173ffffffffffffffffffffffffffffffffffffffff021916908373ffffffffffffffffffffffffffffffffffffffff160217905550905050505b565b6000610efa6134d7565b600083602060020a11610f42576040517f08c379a0000000000000000000000000000000000000000000000000000000008152600401610f39906152d8565b60405180910390fd5b6000610f4d85610715565b905060006001602060020a8701039050600080899050610f6b6134fa565b610f7361351c565b60008090505b60208110156110bf5786811415610fa157838c8860218110610f9757fe5b6020020181815250505b600060028781610fad57fe5b06141561103d578b8160218110610fc057fe5b602002015183600060028110610fd257fe5b6020020181815250508383600160028110610fe957fe5b602002018181525050610ffb836110e3565b8260006001811061100857fe5b6020020181815250508160006001811061101e57fe5b602002015193508594506002600187038161103557fe5b0495506110b2565b838360006002811061104b57fe5b6020020181815250506000801b8360016002811061106557fe5b602002018181525050611077836110e3565b8260006001811061108457fe5b6020020181815250508160006001811061109a57fe5b60200201519350859450600286816110ae57fe5b0495505b8080600101915050610f79565b5082985089806001019a5050888b8b98509850985050505050505093509350939050565b60006060600267ffffffffffffffff811180156110ff57600080fd5b5060405190808252806020026020018201604052801561112e5781602001602082028036833780820191505090505b5090508260006002811061113e57fe5b602002015160001c8160008151811061115357fe5b6020026020010181815250508260016002811061116c57fe5b602002015160001c8160018151811061118157fe5b60200260200101818152505061119881600061063f565b60001b915050919050565b600660000160009054906101000a900473ffffffffffffffffffffffffffffffffffffffff1673ffffffffffffffffffffffffffffffffffffffff163373ffffffffffffffffffffffffffffffffffffffff1614611236576040517f08c379a000000000000000000000000000000000000000000000000000000000815260040161122d906151d8565b60405180910390fd5b34670de0b6b3a764000014611280576040517f08c379a000000000000000000000000000000000000000000000000000000000815260040161127790615398565b60405180910390fd5b60405180608001604052808360000151815260200160035481526020016000801b81526020014281525060008084600001518152602001908152602001600020600082015181600001556020820151816001015560408201518160020155606082015181600301559050508160000151600381905550600080600090505b8360400151518110156113aa5761132783828151811061131a57fe5b602002602001015161298f565b8460400151828151811061133757fe5b60200260200101511461137f576040517f08c379a0000000000000000000000000000000000000000000000000000000008152600401611376906152b8565b60405180910390fd5b82818151811061138b57fe5b60200260200101516101000151518201915080806001019150506112fe565b5060608167ffffffffffffffff811180156113c457600080fd5b506040519080825280602002602001820160405280156113f35781602001602082028036833780820191505090505b509050600080600090505b84518110156114935760008090505b85828151811061141957fe5b60200260200101516101000151518110156114855785828151811061143a57fe5b60200260200101516101000151818151811061145257fe5b602002602001015184848060010195508151811061146c57fe5b602002602001018181525050808060010191505061140d565b5080806001019150506113fe565b5060018314156114f7577f6a82ba2aa1d2c039c41e6e2b5a5a1090d09906f060d32af9c1ac0beff7af75c0600a54836000815181106114ce57fe5b602002602001015187606001516040516114ea939291906154ea565b60405180910390a1611542565b60008314611541577f8ec50f97970775682a68d3c6f9caedf60fd82448ea40706b8b65d6c03648b922600a54838760600151604051611538939291906154ac565b60405180910390a15b5b82600a6000828254019250508190555084600001517ff5f0cf800578b6436539a7873cb5589af507119a1358b3349b62eb3f5489692e8686604051611588929190615438565b60405180910390a25050505050565b60046009544303116115de576040517f08c379a00000000000000000000000000000000000000000000000000000000081526004016115d590615358565b60405180910390fd5b4360098190555060016000600660020160009054906101000a900473ffffffffffffffffffffffffffffffffffffffff1673ffffffffffffffffffffffffffffffffffffffff1673ffffffffffffffffffffffffffffffffffffffff16815260200190815260200160002060066000820160009054906101000a900473ffffffffffffffffffffffffffffffffffffffff168160000160006101000a81548173ffffffffffffffffffffffffffffffffffffffff021916908373ffffffffffffffffffffffffffffffffffffffff1602179055506001820160009054906101000a900473ffffffffffffffffffffffffffffffffffffffff168160010160006101000a81548173ffffffffffffffffffffffffffffffffffffffff021916908373ffffffffffffffffffffffffffffffffffffffff1602179055506002820160009054906101000a900473ffffffffffffffffffffffffffffffffffffffff168160020160006101000a81548173ffffffffffffffffffffffffffffffffffffffff021916908373ffffffffffffffffffffffffffffffffffffffff1602179055509050507feaa94fa30970548bf8b78ce068ba600b923a4a62ce3c523d09bf308102ff1bab600660000160009054906101000a900473ffffffffffffffffffffffffffffffffffffffff166040516117d79190614ecd565b60405180910390a1565b6000600460009054906101000a900473ffffffffffffffffffffffffffffffffffffffff16905090565b60006118156134d7565b6000808651905084602060020a11611862576040517f08c379a0000000000000000000000000000000000000000000000000000000008152600401611859906152d8565b60405180910390fd5b84602060020a038111156118ab57600085602060020a038203905060008090505b8181101561189f57600189510389528080600101915050611883565b5085602060020a039150505b6000806000806118b96134fa565b6118c161351c565b60008b90505b878c01811015611a78578d8c8203815181106118df57fe5b602002602001015193506001602060020a82010395506118fe81610715565b9650600087141561192457838d886021811061191657fe5b602002018181525050611a6b565b6000600190505b878111611a535760006002888161193e57fe5b0614156119d1578d600182036021811061195457fe5b60200201518460006002811061196657fe5b602002018181525050848460016002811061197d57fe5b60200201818152505061198f846110e3565b8360006001811061199c57fe5b602002018181525050826000600181106119b257fe5b60200201519450869550600260018803816119c957fe5b049650611a46565b84846000600281106119df57fe5b6020020181815250506000801b846001600281106119f957fe5b602002018181525050611a0b846110e3565b83600060018110611a1857fe5b60200201818152505082600060018110611a2e57fe5b6020020151945086955060028781611a4257fe5b0496505b808060010191505061192b565b50838d8860218110611a6157fe5b6020020181815250505b80806001019150506118c7565b5060006001870190505b60208111611bab57600060028781611a9657fe5b061415611b29578c6001820360218110611aac57fe5b602002015183600060028110611abe57fe5b6020020181815250508383600160028110611ad557fe5b602002018181525050611ae7836110e3565b82600060018110611af457fe5b60200201818152505081600060018110611b0a57fe5b6020020151935085945060026001870381611b2157fe5b049550611b9e565b8383600060028110611b3757fe5b6020020181815250506000801b83600160028110611b5157fe5b602002018181525050611b63836110e3565b82600060018110611b7057fe5b60200201818152505081600060018110611b8657fe5b6020020151935085945060028681611b9a57fe5b0495505b8080600101915050611a82565b50829950868b019a50898c8c9950995099505050505050505093509350939050565b600080636d696d6360e01b9050611c10848483604051602001611bf09190614df9565b6040516020818303038152906040528051906020012060001c605b612a03565b91505092915050565b7fef51468557272ea1aecb39512b5fa405512a149d040c5d5fce75600cabb07b1581604051611c48919061546f565b60405180910390a160006003811115611c5d57fe5b81604001516003811115611c6d57fe5b1415611c7d57611c7c81612a8f565b5b50565b600073ffffffffffffffffffffffffffffffffffffffff16600160003373ffffffffffffffffffffffffffffffffffffffff1673ffffffffffffffffffffffffffffffffffffffff16815260200190815260200160002060000160009054906101000a900473ffffffffffffffffffffffffffffffffffffffff1673ffffffffffffffffffffffffffffffffffffffff161415611d52576040517f08c379a0000000000000000000000000000000000000000000000000000000008152600401611d4990615258565b60405180910390fd5b6040518060600160405280600073ffffffffffffffffffffffffffffffffffffffff168152602001600073ffffffffffffffffffffffffffffffffffffffff168152602001600073ffffffffffffffffffffffffffffffffffffffff16815250600160003373ffffffffffffffffffffffffffffffffffffffff1673ffffffffffffffffffffffffffffffffffffffff16815260200190815260200160002060008201518160000160006101000a81548173ffffffffffffffffffffffffffffffffffffffff021916908373ffffffffffffffffffffffffffffffffffffffff16021790555060208201518160010160006101000a81548173ffffffffffffffffffffffffffffffffffffffff021916908373ffffffffffffffffffffffffffffffffffffffff16021790555060408201518160020160006101000a81548173ffffffffffffffffffffffffffffffffffffffff021916908373ffffffffffffffffffffffffffffffffffffffff160217905550905050678ac7230489e80000600260003373ffffffffffffffffffffffffffffffffffffffff1673ffffffffffffffffffffffffffffffffffffffff16815260200190815260200160002081905550565b611f1f6117e1565b73ffffffffffffffffffffffffffffffffffffffff163373ffffffffffffffffffffffffffffffffffffffff1614611f8c576040517f08c379a0000000000000000000000000000000000000000000000000000000008152600401611f83906152f8565b60405180910390fd5b828260056000846003811115611f9e57fe5b6003811115611fa957fe5b81526020019081526020016000209190611fc492919061353e565b507fcfd8f8b734ebb05f1872379d344363750ce642d6cbd9f66a55aa3f1dbeb0c5d381604051611ff491906151bd565b60405180910390a1505050565b60006060825167ffffffffffffffff8111801561201d57600080fd5b5060405190808252806020026020018201604052801561204c5781602001602082028036833780820191505090505b50905060008090505b835181101561209a5783818151811061206a57fe5b602002602001015160001c82828151811061208157fe5b6020026020010181815250508080600101915050612055565b506120a681600061063f565b60001b915050919050565b600460009054906101000a900473ffffffffffffffffffffffffffffffffffffffff1681565b6120e0836126ff565b4262093a8060008086600001518152602001908152602001600020600301540110612140576040517f08c379a000000000000000000000000000000000000000000000000000000000815260040161213790615378565b60405180910390fd5b6121498261298f565b8360400151828151811061215957fe5b6020026020010151146121a1576040517f08c379a000000000000000000000000000000000000000000000000000000000815260040161219890615278565b60405180910390fd5b6003808111156121ad57fe5b826040015160038111156121bd57fe5b14156121cd576121cc82612cf3565b5b505050565b6000808560000151815260200190815260200160002060010154600080886000015181526020019081526020016000206002015414612246576040517f08c379a000000000000000000000000000000000000000000000000000000000815260040161223d906153d8565b60405180910390fd5b61224f846126ff565b612258866126ff565b600080600090505b84518110156123085761228585828151811061227857fe5b602002602001015161298f565b8660400151828151811061229557fe5b6020026020010151146122dd576040517f08c379a00000000000000000000000000000000000000000000000000000000081526004016122d4906152b8565b60405180910390fd5b8481815181106122e957fe5b6020026020010151610100015151820191508080600101915050612260565b506123128661298f565b87604001516001896040015151038151811061232a57fe5b602002602001015114612372576040517f08c379a0000000000000000000000000000000000000000000000000000000008152600401612369906151f8565b60405180910390fd5b600061237c6134d7565b6123e4856021806020026040519081016040528092919082602160200280828437600081840152601f19601f820116905080830192505050505050858a610100015160018c61010001515103815181106123d257fe5b60200260200101518c606001516125db565b9150915081612428576040517f08c379a000000000000000000000000000000000000000000000000000000000815260040161241f90615238565b60405180910390fd5b60608367ffffffffffffffff8111801561244157600080fd5b506040519080825280602002602001820160405280156124705781602001602082028036833780820191505090505b509050600080600090505b88518110156125105760008090505b89828151811061249657fe5b6020026020010151610100015151811015612502578982815181106124b757fe5b6020026020010151610100015181815181106124cf57fe5b60200260200101518484806001019550815181106124e957fe5b602002602001018181525050808060010191505061248a565b50808060010191505061247b565b50600061251e83858961180b565b505090508960600151811415612569576040517f08c379a000000000000000000000000000000000000000000000000000000000815260040161256090615218565b60405180910390fd5b6125728a612f64565b505050505050505050505050565b61258981613007565b816000015114156125cf576040517f08c379a00000000000000000000000000000000000000000000000000000000081526004016125c690615298565b60405180910390fd5b6125d881612f64565b50565b60006125e56134d7565b6125ed6134d7565b83876000602181106125fb57fe5b6020020151146126125760008192509250506126f6565b6000602090505b60008111156126c3578582826021811061262f57fe5b60200201818152505060006002888161264457fe5b06141561267f5761267860405180604001604052808881526020018a846021811061266b57fe5b60200201518152506110e3565b95506126af565b6126ac60405180604001604052808a846021811061269957fe5b60200201518152602001888152506110e3565b95505b600187905050808060019003915050612619565b5084816000602181106126d257fe5b60200201818152505084876000602181106126e957fe5b6020020151148192509250505b94509492505050565b61270881613007565b81600001511461274d576040517f08c379a000000000000000000000000000000000000000000000000000000000815260040161274490615338565b60405180910390fd5b80600001516000808360000151815260200190815260200160002060000154146127ac576040517f08c379a00000000000000000000000000000000000000000000000000000000081526004016127a390615318565b60405180910390fd5b50565b6127b76117e1565b73ffffffffffffffffffffffffffffffffffffffff163373ffffffffffffffffffffffffffffffffffffffff1614612824576040517f08c379a000000000000000000000000000000000000000000000000000000000815260040161281b906152f8565b60405180910390fd5b600073ffffffffffffffffffffffffffffffffffffffff168173ffffffffffffffffffffffffffffffffffffffff16141561285e57600080fd5b7f8be0079c531659141344cd1fd0a4f28419497f9722a3daafe3b4186f6b6457e06128876117e1565b82604051612896929190614fc1565b60405180910390a16128a781613047565b50565b60026020528060005260406000206000915090505481565b600560205281600052604060002081815481106128db57fe5b90600052602060002001600091509150505481565b60008084905060007f30644e72e131a029b85045b68181585d2833e84879b9709143e1f593f0000001905060008090505b8751811015612981578161294a89838151811061293a57fe5b6020026020010151858989612a03565b838a848151811061295757fe5b60200260200101518161296657fe5b068501018161297157fe5b0692508080600101915050612921565b829350505050949350505050565b600081602001518260400151836060015184608001518560a001518660c001518760e001518861010001518961012001518a61014001518b61016001516040516020016129e69b9a99989796959493929190614e14565b604051602081830303815290604052805190602001209050919050565b60006001821015612a1357600080fd5b604051602081016040528381527f30644e72e131a029b85045b68181585d2833e84879b9709143e1f593f0000001600080855b6000811115612a7c5760208520855283898587518d08089250838384099150838385868586098509099950600181039050612a46565b5082888a08945050505050949350505050565b60008160c0015160001c90506000801b8260800151148015612ab757506000801b8260a00151145b15612af7576040517f08c379a0000000000000000000000000000000000000000000000000000000008152600401612aee906153b8565b60405180910390fd5b6000801b82608001511415612ba2578073ffffffffffffffffffffffffffffffffffffffff166323b872dd33308560a0015160001c6040518463ffffffff1660e01b8152600401612b4a93929190614ee8565b602060405180830381600087803b158015612b6457600080fd5b505af1158015612b78573d6000803e3d6000fd5b505050506040513d601f19601f82011682018060405250810190612b9c9190613ce4565b50612cef565b6000801b8260a001511415612c4d578073ffffffffffffffffffffffffffffffffffffffff1663b88d4fde3330856080015160001c6040518463ffffffff1660e01b8152600401612bf593929190614f1f565b602060405180830381600087803b158015612c0f57600080fd5b505af1158015612c23573d6000803e3d6000fd5b505050506040513d601f19601f82011682018060405250810190612c479190613ce4565b50612cee565b8073ffffffffffffffffffffffffffffffffffffffff1663f242432a3330856080015160001c8660a0015160001c6040518563ffffffff1660e01b8152600401612c9a9493929190614f69565b602060405180830381600087803b158015612cb457600080fd5b505af1158015612cc8573d6000803e3d6000fd5b505050506040513d601f19601f82011682018060405250810190612cec9190613ce4565b505b5b5050565b60008160c0015160001c905060008260e0015160001c90506000801b8360800151148015612d2757506000801b8360a00151145b15612d67576040517f08c379a0000000000000000000000000000000000000000000000000000000008152600401612d5e906153f8565b60405180910390fd5b6000801b83608001511415612e12578173ffffffffffffffffffffffffffffffffffffffff166323b872dd30838660a0015160001c6040518463ffffffff1660e01b8152600401612dba93929190615021565b602060405180830381600087803b158015612dd457600080fd5b505af1158015612de8573d6000803e3d6000fd5b505050506040513d601f19601f82011682018060405250810190612e0c9190613ce4565b50612f5f565b6000801b8360a001511415612ebd578173ffffffffffffffffffffffffffffffffffffffff1663b88d4fde3083866080015160001c6040518463ffffffff1660e01b8152600401612e6593929190615058565b602060405180830381600087803b158015612e7f57600080fd5b505af1158015612e93573d6000803e3d6000fd5b505050506040513d601f19601f82011682018060405250810190612eb79190613ce4565b50612f5e565b8173ffffffffffffffffffffffffffffffffffffffff1663f242432a3083866080015160001c8760a0015160001c6040518563ffffffff1660e01b8152600401612f0a94939291906150a2565b602060405180830381600087803b158015612f2457600080fd5b505af1158015612f38573d6000803e3d6000fd5b505050506040513d601f19601f82011682018060405250810190612f5c9190613ce4565b505b5b505050565b612f71816000015161308b565b80600001517f02ab946c01ee2800120b302d953b10a1a657233381990746afb9ad2917ac7eea60405160405180910390a2612faf8160200151613124565b670de0b6b3a7640000600260003373ffffffffffffffffffffffffffffffffffffffff1673ffffffffffffffffffffffffffffffffffffffff1681526020019081526020016000206000828254019250508190555050565b600081602001518260400151836060015160405160200161302a93929190614dc0565b604051602081830303815290604052805190602001209050919050565b80600460006101000a81548173ffffffffffffffffffffffffffffffffffffffff021916908373ffffffffffffffffffffffffffffffffffffffff16021790555050565b6000819050600080828152602001908152602001600020600101546003819055505b60008060008381526020019081526020016000206002015490506000808381526020019081526020016000206000808201600090556001820160009055600282016000905560038201600090555050809150506000801b6000808381526020019081526020016000206002015414156130ad575050565b6000600160008373ffffffffffffffffffffffffffffffffffffffff1673ffffffffffffffffffffffffffffffffffffffff16815260200190815260200160002060010160009054906101000a900473ffffffffffffffffffffffffffffffffffffffff1690506000600160008473ffffffffffffffffffffffffffffffffffffffff1673ffffffffffffffffffffffffffffffffffffffff16815260200190815260200160002060020160009054906101000a900473ffffffffffffffffffffffffffffffffffffffff169050600160008473ffffffffffffffffffffffffffffffffffffffff1673ffffffffffffffffffffffffffffffffffffffff168152602001908152602001600020600080820160006101000a81549073ffffffffffffffffffffffffffffffffffffffff02191690556001820160006101000a81549073ffffffffffffffffffffffffffffffffffffffff02191690556002820160006101000a81549073ffffffffffffffffffffffffffffffffffffffff02191690555050600160008273ffffffffffffffffffffffffffffffffffffffff1673ffffffffffffffffffffffffffffffffffffffff16815260200190815260200160002060000160009054906101000a900473ffffffffffffffffffffffffffffffffffffffff16600160008473ffffffffffffffffffffffffffffffffffffffff1673ffffffffffffffffffffffffffffffffffffffff16815260200190815260200160002060020160006101000a81548173ffffffffffffffffffffffffffffffffffffffff021916908373ffffffffffffffffffffffffffffffffffffffff160217905550600160008373ffffffffffffffffffffffffffffffffffffffff1673ffffffffffffffffffffffffffffffffffffffff16815260200190815260200160002060000160009054906101000a900473ffffffffffffffffffffffffffffffffffffffff16600160008373ffffffffffffffffffffffffffffffffffffffff1673ffffffffffffffffffffffffffffffffffffffff16815260200190815260200160002060010160006101000a81548173ffffffffffffffffffffffffffffffffffffffff021916908373ffffffffffffffffffffffffffffffffffffffff160217905550505050565b6040518060600160405280600073ffffffffffffffffffffffffffffffffffffffff168152602001600073ffffffffffffffffffffffffffffffffffffffff168152602001600073ffffffffffffffffffffffffffffffffffffffff1681525090565b604051806104200160405280602190602082028036833780820191505090505090565b6040518060400160405280600290602082028036833780820191505090505090565b6040518060200160405280600190602082028036833780820191505090505090565b82805482825590600052602060002090810192821561357a579160200282015b8281111561357957823582559160200191906001019061355e565b5b509050613587919061358b565b5090565b6135ad91905b808211156135a9576000816000905550600101613591565b5090565b90565b6000813590506135bf8161587f565b92915050565b600082601f8301126135d657600080fd5b60026135e96135e48261554e565b615521565b915081838560208402820111156135ff57600080fd5b60005b8381101561362f578161361588826138a4565b845260208401935060208301925050600181019050613602565b5050505092915050565b60008190508260206021028201111561365157600080fd5b92915050565b600082601f83011261366857600080fd5b602161367b61367682615570565b615521565b9150818385602084028201111561369157600080fd5b60005b838110156136c157816136a788826138a4565b845260208401935060208301925050600181019050613694565b5050505092915050565b600082601f8301126136dc57600080fd5b81356136ef6136ea82615592565b615521565b9150818183526020840193506020810190508385602084028201111561371457600080fd5b60005b83811015613744578161372a88826138a4565b845260208401935060208301925050600181019050613717565b5050505092915050565b600082601f83011261375f57600080fd5b813561377261376d826155ba565b615521565b9150818183526020840193506020810190508360005b838110156137b8578135860161379e888261395a565b845260208401935060208301925050600181019050613788565b5050505092915050565b60008083601f8401126137d457600080fd5b8235905067ffffffffffffffff8111156137ed57600080fd5b60208301915083602082028301111561380557600080fd5b9250929050565b600082601f83011261381d57600080fd5b813561383061382b826155e2565b615521565b9150818183526020840193506020810190508385602084028201111561385557600080fd5b60005b83811015613885578161386b8882613ac0565b845260208401935060208301925050600181019050613858565b5050505092915050565b60008151905061389e81615896565b92915050565b6000813590506138b3816158ad565b92915050565b6000813590506138c8816158c4565b92915050565b6000608082840312156138e057600080fd5b6138ea6080615521565b905060006138fa848285016138a4565b600083015250602061390e848285016135b0565b602083015250604082013567ffffffffffffffff81111561392e57600080fd5b61393a848285016136cb565b604083015250606061394e848285016138a4565b60608301525092915050565b6000610180828403121561396d57600080fd5b613978610180615521565b90506000613988848285016138a4565b600083015250602061399c84828501613ac0565b60208301525060406139b0848285016138b9565b60408301525060606139c4848285016138a4565b60608301525060806139d8848285016138a4565b60808301525060a06139ec848285016138a4565b60a08301525060c0613a00848285016138a4565b60c08301525060e0613a14848285016138a4565b60e08301525061010082013567ffffffffffffffff811115613a3557600080fd5b613a41848285016136cb565b6101008301525061012082013567ffffffffffffffff811115613a6357600080fd5b613a6f848285016136cb565b61012083015250610140613a85848285016138a4565b6101408301525061016082013567ffffffffffffffff811115613aa757600080fd5b613ab38482850161380c565b6101608301525092915050565b600081359050613acf816158d4565b92915050565b600060208284031215613ae757600080fd5b6000613af5848285016135b0565b91505092915050565b600060408284031215613b1057600080fd5b6000613b1e848285016135c5565b91505092915050565b6000806000806104808587031215613b3e57600080fd5b6000613b4c87828801613657565b945050610420613b5e87828801613ac0565b935050610440613b70878288016138a4565b925050610460613b82878288016138a4565b91505092959194509250565b600060208284031215613ba057600080fd5b600082013567ffffffffffffffff811115613bba57600080fd5b613bc6848285016136cb565b91505092915050565b60008060006104608486031215613be557600080fd5b600084013567ffffffffffffffff811115613bff57600080fd5b613c0b868287016136cb565b9350506020613c1c86828701613657565b925050610440613c2e86828701613ac0565b9150509250925092565b600080600060408486031215613c4d57600080fd5b600084013567ffffffffffffffff811115613c6757600080fd5b613c73868287016137c2565b93509350506020613c86868287016138b9565b9150509250925092565b60008060408385031215613ca357600080fd5b600083013567ffffffffffffffff811115613cbd57600080fd5b613cc98582860161380c565b9250506020613cda85828601613ac0565b9150509250929050565b600060208284031215613cf657600080fd5b6000613d048482850161388f565b91505092915050565b600060208284031215613d1f57600080fd5b6000613d2d848285016138a4565b91505092915050565b60008060006104608486031215613d4c57600080fd5b6000613d5a868287016138a4565b9350506020613d6b86828701613657565b925050610440613d7d86828701613ac0565b9150509250925092565b60008060408385031215613d9a57600080fd5b6000613da8858286016138b9565b9250506020613db985828601613ac0565b9150509250929050565b600060208284031215613dd557600080fd5b600082013567ffffffffffffffff811115613def57600080fd5b613dfb848285016138ce565b91505092915050565b60008060408385031215613e1757600080fd5b600083013567ffffffffffffffff811115613e3157600080fd5b613e3d858286016138ce565b925050602083013567ffffffffffffffff811115613e5a57600080fd5b613e668582860161374e565b9150509250929050565b6000806000806000806104c08789031215613e8a57600080fd5b600087013567ffffffffffffffff811115613ea457600080fd5b613eb089828a016138ce565b965050602087013567ffffffffffffffff811115613ecd57600080fd5b613ed989828a0161395a565b955050604087013567ffffffffffffffff811115613ef657600080fd5b613f0289828a016138ce565b945050606087013567ffffffffffffffff811115613f1f57600080fd5b613f2b89828a0161374e565b9350506080613f3c89828a01613639565b9250506104a0613f4e89828a01613ac0565b9150509295509295509295565b600080600060608486031215613f7057600080fd5b600084013567ffffffffffffffff811115613f8a57600080fd5b613f96868287016138ce565b935050602084013567ffffffffffffffff811115613fb357600080fd5b613fbf8682870161395a565b9250506040613fd086828701613ac0565b9150509250925092565b600060208284031215613fec57600080fd5b600082013567ffffffffffffffff81111561400657600080fd5b6140128482850161395a565b91505092915050565b60006020828403121561402d57600080fd5b600061403b84828501613ac0565b91505092915050565b6000806040838503121561405757600080fd5b600061406585828601613ac0565b925050602061407685828601613ac0565b9150509250929050565b600061408c83836143e9565b60208301905092915050565b60006140a48383614407565b60208301905092915050565b60006140bc8383614b58565b905092915050565b60006140d08383614d7c565b60208301905092915050565b60006140e88383614d9a565b60208301905092915050565b6140fd816157bc565b82525050565b61410c8161572b565b82525050565b61411b8161572b565b82525050565b61413261412d8261572b565b615804565b82525050565b61414181615644565b61414b81846156a4565b92506141568261560a565b8060005b8381101561418757815161416e8782614080565b965061417983615670565b92505060018101905061415a565b505050505050565b600061419a8261564f565b6141a481856156af565b93506141af83615614565b8060005b838110156141e05781516141c78882614080565b97506141d28361567d565b9250506001810190506141b3565b5085935050505092915050565b60006141f88261564f565b61420281856156c0565b935061420d83615614565b8060005b8381101561423e5781516142258882614080565b97506142308361567d565b925050600181019050614211565b5085935050505092915050565b60006142568261564f565b61426081856156d1565b935061426b83615614565b8060005b8381101561429c5781516142838882614098565b975061428e8361567d565b92505060018101905061426f565b5085935050505092915050565b60006142b48261565a565b6142be81856156dc565b9350836020820285016142d085615624565b8060005b8581101561430c57848403895281516142ed85826140b0565b94506142f88361568a565b925060208a019950506001810190506142d4565b50829750879550505050505092915050565b600061432982615665565b61433381856156ed565b935061433e83615634565b8060005b8381101561436f57815161435688826140c4565b975061436183615697565b925050600181019050614342565b5085935050505092915050565b600061438782615665565b61439181856156fe565b935061439c83615634565b8060005b838110156143cd5781516143b488826140dc565b97506143bf83615697565b9250506001810190506143a0565b5085935050505092915050565b6143e38161573d565b82525050565b6143f281615749565b82525050565b61440181615749565b82525050565b61441081615749565b82525050565b61442761442282615749565b615816565b82525050565b61443e61443982615753565b615820565b82525050565b61444d816157ce565b82525050565b61445c816157ce565b82525050565b61447361446e826157ce565b615846565b82525050565b600061448660288361571a565b91507f4f6e6c79207468652063757272656e742070726f706f7365722063616e20636160008301527f6c6c20746869732e0000000000000000000000000000000000000000000000006020830152604082019050919050565b60006144ec602a8361571a565b91507f4c617374207472616e73616374696f6e206f66207072696f7220626c6f636b2060008301527f697320696e76616c6964000000000000000000000000000000000000000000006020830152604082019050919050565b600061455260198361571a565b91507f54686520726f6f742069732061637475616c6c792066696e65000000000000006000830152602082019050919050565b6000614592601b8361571a565b91507f546865207369626c696e67207061746820697320696e76616c696400000000006000830152602082019050919050565b60006145d2603c8361571a565b91507f546869732070726f706f736572206973206e6f7420726567697374657265642060008301527f6f7220796f7520617265206e6f7420746861742070726f706f736572000000006020830152604082019050919050565b600061463860288361571a565b91507f5472616e73616374696f6e206e6f7420666f756e64206174207468652067697660008301527f656e20696e6465780000000000000000000000000000000000000000000000006020830152604082019050919050565b600061469e60198361571a565b91507f54686520626c6f636b206861736820697320636f7272656374000000000000006000830152602082019050919050565b60006146de601e8361571a565b91507f5472616e73616374696f6e206861736820776173206e6f7420666f756e6400006000830152602082019050919050565b600061471e60238361571a565b91507f5468657265206973206e6f207370616365206c65667420696e2074686520747260008301527f65652e00000000000000000000000000000000000000000000000000000000006020830152604082019050919050565b6000614784602e8361571a565b91507f596f7520617265206e6f7420617574686f726973656420746f20696e766f6b6560008301527f20746869732066756e6374696f6e0000000000000000000000000000000000006020830152604082019050919050565b60006147ea60198361571a565b91507f5468697320626c6f636b20646f6573206e6f74206578697374000000000000006000830152602082019050919050565b600061482a601b8361571a565b91507f54686520626c6f636b206861736820697320696e636f727265637400000000006000830152602082019050919050565b600061486a60248361571a565b91507f4974277320746f6f20736f6f6e20746f20726f74617465207468652070726f7060008301527f6f736572000000000000000000000000000000000000000000000000000000006020830152604082019050919050565b60006148d0602d8361571a565b91507f497420697320746f6f20736f6f6e2077697468647261772066756e647320667260008301527f6f6d207468697320626c6f636b000000000000000000000000000000000000006020830152604082019050919050565b6000614936601e8361571a565b91507f546865207374616b65207061796d656e7420697320696e636f727265637400006000830152602082019050919050565b6000614976602b8361571a565b91507f4465706f736974696e67207a65726f2d76616c756520746f6b656e732069732060008301527f6e6f7420616c6c6f7765640000000000000000000000000000000000000000006020830152604082019050919050565b60006149dc600083615709565b9150600082019050919050565b60006149f6601d8361571a565b91507f54686520626c6f636b7320617265206e6f7420636f6e746967756f75730000006000830152602082019050919050565b6000614a3660218361571a565b91507f5a65726f2d76616c756520746f6b656e7320617265206e6f7420616c6c6f776560008301527f64000000000000000000000000000000000000000000000000000000000000006020830152604082019050919050565b6000614a9c60258361571a565b91507f54686520726567697374726174696f6e207061796d656e7420697320696e636f60008301527f72726563740000000000000000000000000000000000000000000000000000006020830152604082019050919050565b6000608083016000830151614b0d60008601826143e9565b506020830151614b206020860182614103565b5060408301518482036040860152614b38828261418f565b9150506060830151614b4d60608601826143e9565b508091505092915050565b600061018083016000830151614b7160008601826143e9565b506020830151614b846020860182614d7c565b506040830151614b976040860182614444565b506060830151614baa60608601826143e9565b506080830151614bbd60808601826143e9565b5060a0830151614bd060a08601826143e9565b5060c0830151614be360c08601826143e9565b5060e0830151614bf660e08601826143e9565b50610100830151848203610100860152614c10828261418f565b915050610120830151848203610120860152614c2c828261418f565b915050610140830151614c436101408601826143e9565b50610160830151848203610160860152614c5d828261431e565b9150508091505092915050565b600061018083016000830151614c8360008601826143e9565b506020830151614c966020860182614d7c565b506040830151614ca96040860182614444565b506060830151614cbc60608601826143e9565b506080830151614ccf60808601826143e9565b5060a0830151614ce260a08601826143e9565b5060c0830151614cf560c08601826143e9565b5060e0830151614d0860e08601826143e9565b50610100830151848203610100860152614d22828261418f565b915050610120830151848203610120860152614d3e828261418f565b915050610140830151614d556101408601826143e9565b50610160830151848203610160860152614d6f828261431e565b9150508091505092915050565b614d85816157b2565b82525050565b614d94816157b2565b82525050565b614da3816157b2565b82525050565b614dba614db5826157b2565b61583c565b82525050565b6000614dcc8286614121565b601482019150614ddc828561424b565b9150614de88284614416565b602082019150819050949350505050565b6000614e05828461442d565b60048201915081905092915050565b6000614e20828e614da9565b602082019150614e30828d614462565b600182019150614e40828c614416565b602082019150614e50828b614416565b602082019150614e60828a614416565b602082019150614e708289614416565b602082019150614e808288614416565b602082019150614e90828761424b565b9150614e9c828661424b565b9150614ea88285614416565b602082019150614eb8828461437c565b91508190509c9b505050505050505050505050565b6000602082019050614ee26000830184614112565b92915050565b6000606082019050614efd60008301866140f4565b614f0a6020830185614112565b614f176040830184614d8b565b949350505050565b6000608082019050614f3460008301866140f4565b614f416020830185614112565b614f4e6040830184614d8b565b8181036060830152614f5f816149cf565b9050949350505050565b600060a082019050614f7e60008301876140f4565b614f8b6020830186614112565b614f986040830185614d8b565b614fa56060830184614d8b565b8181036080830152614fb6816149cf565b905095945050505050565b6000604082019050614fd66000830185614112565b614fe36020830184614112565b9392505050565b6000606082019050614fff6000830186614112565b61500c6020830185614112565b6150196040830184614112565b949350505050565b60006060820190506150366000830186614112565b6150436020830185614112565b6150506040830184614d8b565b949350505050565b600060808201905061506d6000830186614112565b61507a6020830185614112565b6150876040830184614d8b565b8181036060830152615098816149cf565b9050949350505050565b600060a0820190506150b76000830187614112565b6150c46020830186614112565b6150d16040830185614d8b565b6150de6060830184614d8b565b81810360808301526150ef816149cf565b905095945050505050565b60006104408201905061511060008301856143da565b61511d6020830184614138565b9392505050565b600060208201905061513960008301846143f8565b92915050565b60006104608201905061515560008301866143f8565b6151626020830185614138565b615170610440830184614d8b565b949350505050565b600060808201905061518d60008301876143f8565b61519a60208301866143f8565b6151a760408301856143f8565b6151b46060830184614d8b565b95945050505050565b60006020820190506151d26000830184614453565b92915050565b600060208201905081810360008301526151f181614479565b9050919050565b60006020820190508181036000830152615211816144df565b9050919050565b6000602082019050818103600083015261523181614545565b9050919050565b6000602082019050818103600083015261525181614585565b9050919050565b60006020820190508181036000830152615271816145c5565b9050919050565b600060208201905081810360008301526152918161462b565b9050919050565b600060208201905081810360008301526152b181614691565b9050919050565b600060208201905081810360008301526152d1816146d1565b9050919050565b600060208201905081810360008301526152f181614711565b9050919050565b6000602082019050818103600083015261531181614777565b9050919050565b60006020820190508181036000830152615331816147dd565b9050919050565b600060208201905081810360008301526153518161481d565b9050919050565b600060208201905081810360008301526153718161485d565b9050919050565b60006020820190508181036000830152615391816148c3565b9050919050565b600060208201905081810360008301526153b181614929565b9050919050565b600060208201905081810360008301526153d181614969565b9050919050565b600060208201905081810360008301526153f1816149e9565b9050919050565b6000602082019050818103600083015261541181614a29565b9050919050565b6000602082019050818103600083015261543181614a8f565b9050919050565b600060408201905081810360008301526154528185614af5565b9050818103602083015261546681846142a9565b90509392505050565b600060208201905081810360008301526154898184614c6a565b905092915050565b60006020820190506154a66000830184614d8b565b92915050565b60006060820190506154c16000830186614d8b565b81810360208301526154d381856141ed565b90506154e260408301846143f8565b949350505050565b60006060820190506154ff6000830186614d8b565b61550c60208301856143f8565b61551960408301846143f8565b949350505050565b6000604051905081810181811067ffffffffffffffff8211171561554457600080fd5b8060405250919050565b600067ffffffffffffffff82111561556557600080fd5b602082029050919050565b600067ffffffffffffffff82111561558757600080fd5b602082029050919050565b600067ffffffffffffffff8211156155a957600080fd5b602082029050602081019050919050565b600067ffffffffffffffff8211156155d157600080fd5b602082029050602081019050919050565b600067ffffffffffffffff8211156155f957600080fd5b602082029050602081019050919050565b6000819050919050565b6000819050602082019050919050565b6000819050602082019050919050565b6000819050602082019050919050565b600060219050919050565b600081519050919050565b600081519050919050565b600081519050919050565b6000602082019050919050565b6000602082019050919050565b6000602082019050919050565b6000602082019050919050565b600081905092915050565b600082825260208201905092915050565b600082825260208201905092915050565b600081905092915050565b600082825260208201905092915050565b600082825260208201905092915050565b600081905092915050565b600082825260208201905092915050565b600082825260208201905092915050565b600061573682615792565b9050919050565b60008115159050919050565b6000819050919050565b60007fffffffff0000000000000000000000000000000000000000000000000000000082169050919050565b600081905061578d82615872565b919050565b600073ffffffffffffffffffffffffffffffffffffffff82169050919050565b6000819050919050565b60006157c7826157e0565b9050919050565b60006157d98261577f565b9050919050565b60006157eb826157f2565b9050919050565b60006157fd82615792565b9050919050565b600061580f8261582a565b9050919050565b6000819050919050565b6000819050919050565b600061583582615865565b9050919050565b6000819050919050565b600061585182615858565b9050919050565b60008160f81b9050919050565b60008160601b9050919050565b6004811061587c57fe5b50565b6158888161572b565b811461589357600080fd5b50565b61589f8161573d565b81146158aa57600080fd5b50565b6158b681615749565b81146158c157600080fd5b50565b600481106158d157600080fd5b50565b6158dd816157b2565b81146158e857600080fd5b5056fea2646970667358221220da028a71fe8b11644460039a2132a735f2105957ef0d1c0652306c5cafad8cbd64736f6c634300060a0033",
  "immutableReferences": {},
  "source": "// SPDX-License-Identifier: CC0-1.0\n\n/**\nContract to enable someone to submit a ZKP transaction for processing.\nIt is possible we will move this off-chain in the future as blockchain\nfunctionality is not really required - it's just a data availability aid.\n@Author Westlad\n*/\n\npragma solidity ^0.6.0;\npragma experimental ABIEncoderV2;\n\nimport './Key_Registry.sol';\nimport './Utils.sol';\nimport './Proposers.sol';\nimport './Challenges.sol';\n\ncontract Shield is Utils, Key_Registry, Proposers, Challenges {\n  /**\n  We don't need to do the checks herein because the Proposer should do them.\n  We don't really need this function at all because we could just send the\n  transaction to a proposer.  Thus, some or all of this functionality may be\n  removed in future to save Gas.\n  */\n  function submitTransaction(Transaction memory t) external payable {\n    // check the transaction hash\n    // require (t.transactionHash == hashTransaction(t), 'The transaction hash is not correct');\n    // check they've paid correctly\n    // require (t.fee == msg.value, 'The amount paid was not the same as the amount specified in the transaction');\n    // TODO take payment for a Deposit - can't do it here because no guarantee\n    // transaction will proceed (we could refund later if it doesn't of course).\n    // if this is a deposit transaction, we should take payment now\n    // let everyone know what you did\n    emit TransactionSubmitted(t);\n    // if this is a deposit transaction, take payment now (TODO: is there a\n    // better way? This feels expensive).\n    if (t.transactionType == TransactionTypes.DEPOSIT) payIn(t);\n  }\n\n  /**\n  This function enables funds to be withdrawn, once a block is finalised\n  @param b - the block containing the Withdraw transaction\n  @param t - the actual transaction\n  @param index - the index of the transaction that locates it in the array of Transactions in Block b\n  */\n  function finaliseWithdrawal(Block memory b, Transaction memory t, uint index) external {\n    // check this block is a real one, in the queue, not something made up.\n    isBlockReal(b);\n    // check that the block has been finalised\n    require(blockHashes[b.blockHash].data + COOLING_OFF_PERIOD < block.timestamp, 'It is too soon withdraw funds from this block');\n    // check the transaction is in the block\n    require(b.transactionHashes[index] == hashTransaction(t), 'Transaction not found at the given index');\n    if (t.transactionType == TransactionTypes.WITHDRAW) payOut(t);\n  }\n}\n",
  "sourcePath": "/app/contracts/Shield.sol",
  "compiler": {
    "name": "solc",
    "version": "0.6.10+commit.00c0fcaf.Emscripten.clang"
  },
  "schemaVersion": "3.2.4",
  "updatedAt": "2021-02-04T22:49:23.683Z",
  "networkType": "ethereum",
  "devdoc": {
    "methods": {
      "checkPath(bytes32[33],uint256,bytes32,bytes32)": {
        "params": {
          "leafIndex": "- the index of the leaf to which the sibling path refers, i.e. it's leaf position, counting from the extreme left of the bottom of the Merkle Tree (first position = 0)",
          "node": "- the leaf value",
          "root": "- the root value",
          "siblingPath": "- the sibling path for the given leaf"
        },
        "returns": {
          "_0": "bool - true if the siblingPath is valid, else false.",
          "_1": "_frontier - the nodes computed herein are actually the Timber Frontier for adding the next leaf.  This is jolly handy so we save them up."
        }
      },
      "finaliseWithdrawal((bytes32,address,bytes32[],bytes32),(bytes32,uint256,uint8,bytes32,bytes32,bytes32,bytes32,bytes32,bytes32[],bytes32[],bytes32,uint256[]),uint256)": {
        "params": {
          "b": "- the block containing the Withdraw transaction",
          "index": "- the index of the transaction that locates it in the array of Transactions in Block b",
          "t": "- the actual transaction"
        }
      },
      "getFrontierSlot(uint256)": {
        "returns": {
          "slot": "uint - the index of the frontier (or 'storage slot') into which we will next store a nodeValue"
        }
      },
      "insertLeaf(bytes32,bytes32[33],uint256)": {
        "params": {
          "_frontier": "- current Frontier values",
          "leafValue": "- the value of the leaf being inserted."
        },
        "returns": {
          "_1": "_frontier bytes32[33] - the updated frontier",
          "root": "bytes32 - the root of the merkle tree, after the insert."
        }
      },
      "insertLeaves(bytes32[],bytes32[33],uint256)": {
        "params": {
          "_frontier": "- the current Frontier value",
          "leafValues": "- the values of the leaves being inserted."
        },
        "returns": {
          "root": "bytes32[] - the root of the merkle tree, after all the inserts."
        }
      },
      "owner()": {
        "details": "Tells the address of the owner",
        "returns": {
          "_0": "the address of the owner"
        }
      },
      "proposeBlock((bytes32,address,bytes32[],bytes32),(bytes32,uint256,uint8,bytes32,bytes32,bytes32,bytes32,bytes32,bytes32[],bytes32[],bytes32,uint256[])[])": {
        "params": {
          "b": "the block being proposed."
        }
      },
      "transferOwnership(address)": {
        "details": "Allows the current owner to transfer control of the contract to a newOwner.",
        "params": {
          "newOwner": "The address to transfer ownership to."
        }
      }
    }
  },
  "userdoc": {
    "methods": {
      "changeCurrentProposer()": {
        "notice": "Each proposer gets a chance to propose blocks for a certain time, defined in Ethereum blocks.  After a certain number of blocks has passed, the proposer can be rotated by calling this function. The method for choosing the next proposer is simple rotation for now."
      },
      "checkPath(bytes32[33],uint256,bytes32,bytes32)": {
        "notice": "Checks that a sibling path, given as a Merkle proof, is correct i.e. we can use it to 'ascend' the tree from the given leaf to the given root."
      },
      "finaliseWithdrawal((bytes32,address,bytes32[],bytes32),(bytes32,uint256,uint8,bytes32,bytes32,bytes32,bytes32,bytes32,bytes32[],bytes32[],bytes32,uint256[]),uint256)": {
        "notice": "This function enables funds to be withdrawn, once a block is finalised"
      },
      "getFrontierSlot(uint256)": {
        "notice": "Get the index of the frontier (or 'storage slot') into which we will next store a nodeValue (based on the leafIndex currently being inserted). See the top-level README for a detailed explanation."
      },
      "insertLeaf(bytes32,bytes32[33],uint256)": {
        "notice": "Insert a leaf into the Merkle Tree, update the root.  The user must update the persistently stored frontier based on the values returned here."
      },
      "insertLeaves(bytes32[],bytes32[33],uint256)": {
        "notice": "Insert multiple leaves into the Merkle Tree, and then update the root, The user must update and persistently stored the new frontier."
      },
      "proposeBlock((bytes32,address,bytes32[],bytes32),(bytes32,uint256,uint8,bytes32,bytes32,bytes32,bytes32,bytes32,bytes32[],bytes32[],bytes32,uint256[])[])": {
        "notice": "Allows a Proposer to propose a new block of state updates."
      },
      "registerVerificationKey(uint256[],uint8)": {
        "notice": "Stores verification keys (for the 'deposit', 'transfer' and 'withdraw' computations)."
      },
      "submitTransaction((bytes32,uint256,uint8,bytes32,bytes32,bytes32,bytes32,bytes32,bytes32[],bytes32[],bytes32,uint256[]))": {
        "notice": "We don't need to do the checks herein because the Proposer should do them. We don't really need this function at all because we could just send the transaction to a proposer.  Thus, some or all of this functionality may be removed in future to save Gas."
      }
    }
  }
}