{
  "_format": "hh-sol-artifact-1",
  "contractName": "Proposers",
  "sourceName": "contracts/Proposers.sol",
  "abi": [
    {
      "anonymous": false,
      "inputs": [],
      "name": "BlockProposed",
      "type": "event"
    },
    {
      "anonymous": false,
      "inputs": [
        {
          "indexed": false,
          "internalType": "bytes32",
          "name": "commitHash",
          "type": "bytes32"
        },
        {
          "indexed": false,
          "internalType": "address",
          "name": "sender",
          "type": "address"
        }
      ],
      "name": "CommittedToChallenge",
      "type": "event"
    },
    {
      "anonymous": false,
      "inputs": [
        {
          "indexed": false,
          "internalType": "uint8",
          "name": "version",
          "type": "uint8"
        }
      ],
      "name": "Initialized",
      "type": "event"
    },
    {
      "anonymous": false,
      "inputs": [
        {
          "indexed": false,
          "internalType": "bytes32",
          "name": "withdrawTransactionHash",
          "type": "bytes32"
        },
        {
          "indexed": false,
          "internalType": "address",
          "name": "paidBy",
          "type": "address"
        },
        {
          "indexed": false,
          "internalType": "uint256",
          "name": "amount",
          "type": "uint256"
        }
      ],
      "name": "InstantWithdrawalRequested",
      "type": "event"
    },
    {
      "anonymous": false,
      "inputs": [
        {
          "indexed": false,
          "internalType": "address",
          "name": "addr",
          "type": "address"
        }
      ],
      "name": "NewBootChallengerSet",
      "type": "event"
    },
    {
      "anonymous": false,
      "inputs": [
        {
          "indexed": false,
          "internalType": "address",
          "name": "addr",
          "type": "address"
        }
      ],
      "name": "NewBootProposerSet",
      "type": "event"
    },
    {
      "anonymous": false,
      "inputs": [
        {
          "indexed": false,
          "internalType": "address",
          "name": "proposer",
          "type": "address"
        }
      ],
      "name": "NewCurrentProposer",
      "type": "event"
    },
    {
      "anonymous": false,
      "inputs": [
        {
          "indexed": false,
          "internalType": "uint256",
          "name": "leafIndex",
          "type": "uint256"
        },
        {
          "indexed": false,
          "internalType": "bytes32",
          "name": "leafValue",
          "type": "bytes32"
        },
        {
          "indexed": false,
          "internalType": "bytes32",
          "name": "root",
          "type": "bytes32"
        }
      ],
      "name": "NewLeaf",
      "type": "event"
    },
    {
      "anonymous": false,
      "inputs": [
        {
          "indexed": false,
          "internalType": "uint256",
          "name": "minLeafIndex",
          "type": "uint256"
        },
        {
          "indexed": false,
          "internalType": "bytes32[]",
          "name": "leafValues",
          "type": "bytes32[]"
        },
        {
          "indexed": false,
          "internalType": "bytes32",
          "name": "root",
          "type": "bytes32"
        }
      ],
      "name": "NewLeaves",
      "type": "event"
    },
    {
      "anonymous": false,
      "inputs": [
        {
          "indexed": false,
          "internalType": "address",
          "name": "previousOwner",
          "type": "address"
        },
        {
          "indexed": false,
          "internalType": "address",
          "name": "newOwner",
          "type": "address"
        }
      ],
      "name": "OwnershipTransferred",
      "type": "event"
    },
    {
      "anonymous": false,
      "inputs": [
        {
          "indexed": false,
          "internalType": "uint256",
          "name": "blockNumberL2",
          "type": "uint256"
        }
      ],
      "name": "Rollback",
      "type": "event"
    },
    {
      "anonymous": false,
      "inputs": [
        {
          "indexed": false,
          "internalType": "address",
          "name": "ercAddress",
          "type": "address"
        },
        {
          "indexed": false,
          "internalType": "uint256",
          "name": "amount",
          "type": "uint256"
        }
      ],
      "name": "ShieldBalanceTransferred",
      "type": "event"
    },
    {
      "anonymous": false,
      "inputs": [],
      "name": "TransactionSubmitted",
      "type": "event"
    },
    {
      "inputs": [],
      "name": "_owner",
      "outputs": [
        {
          "internalType": "address",
          "name": "",
          "type": "address"
        }
      ],
      "stateMutability": "view",
      "type": "function"
    },
    {
      "inputs": [],
      "name": "changeCurrentProposer",
      "outputs": [],
      "stateMutability": "nonpayable",
      "type": "function"
    },
    {
      "inputs": [],
      "name": "deRegisterProposer",
      "outputs": [],
      "stateMutability": "nonpayable",
      "type": "function"
    },
    {
      "inputs": [],
      "name": "getBootChallenger",
      "outputs": [
        {
          "internalType": "address",
          "name": "",
          "type": "address"
        }
      ],
      "stateMutability": "view",
      "type": "function"
    },
    {
      "inputs": [],
      "name": "getBootProposer",
      "outputs": [
        {
          "internalType": "address",
          "name": "",
          "type": "address"
        }
      ],
      "stateMutability": "view",
      "type": "function"
    },
    {
      "inputs": [],
      "name": "getMaticAddress",
      "outputs": [
        {
          "internalType": "address",
          "name": "",
          "type": "address"
        }
      ],
      "stateMutability": "view",
      "type": "function"
    },
    {
      "inputs": [
        {
          "internalType": "address",
          "name": "tokenAddr",
          "type": "address"
        },
        {
          "internalType": "uint256",
          "name": "transactionType",
          "type": "uint256"
        }
      ],
      "name": "getRestriction",
      "outputs": [
        {
          "internalType": "uint256",
          "name": "",
          "type": "uint256"
        }
      ],
      "stateMutability": "view",
      "type": "function"
    },
    {
      "inputs": [],
      "name": "initialize",
      "outputs": [],
      "stateMutability": "nonpayable",
      "type": "function"
    },
    {
      "inputs": [],
      "name": "owner",
      "outputs": [
        {
          "internalType": "address",
          "name": "",
          "type": "address"
        }
      ],
      "stateMutability": "view",
      "type": "function"
    },
    {
      "inputs": [
        {
          "internalType": "string",
          "name": "url",
          "type": "string"
        }
      ],
      "name": "registerProposer",
      "outputs": [],
      "stateMutability": "payable",
      "type": "function"
    },
    {
      "inputs": [
        {
          "internalType": "address",
          "name": "tokenAddr",
          "type": "address"
        }
      ],
      "name": "removeRestriction",
      "outputs": [],
      "stateMutability": "nonpayable",
      "type": "function"
    },
    {
      "inputs": [
        {
          "internalType": "address",
          "name": "challenger",
          "type": "address"
        }
      ],
      "name": "setBootChallenger",
      "outputs": [],
      "stateMutability": "nonpayable",
      "type": "function"
    },
    {
      "inputs": [
        {
          "internalType": "address",
          "name": "proposer",
          "type": "address"
        }
      ],
      "name": "setBootProposer",
      "outputs": [],
      "stateMutability": "nonpayable",
      "type": "function"
    },
    {
      "inputs": [
        {
          "internalType": "address",
          "name": "_maticAddress",
          "type": "address"
        }
      ],
      "name": "setMaticAddress",
      "outputs": [],
      "stateMutability": "nonpayable",
      "type": "function"
    },
    {
      "inputs": [
        {
          "internalType": "address",
          "name": "tokenAddr",
          "type": "address"
        },
        {
          "internalType": "uint256",
          "name": "depositAmount",
          "type": "uint256"
        },
        {
          "internalType": "uint256",
          "name": "withdrawAmount",
          "type": "uint256"
        }
      ],
      "name": "setRestriction",
      "outputs": [],
      "stateMutability": "nonpayable",
      "type": "function"
    },
    {
      "inputs": [
        {
          "internalType": "address payable",
          "name": "stateAddress",
          "type": "address"
        }
      ],
      "name": "setStateContract",
      "outputs": [],
      "stateMutability": "nonpayable",
      "type": "function"
    },
    {
      "inputs": [],
      "name": "state",
      "outputs": [
        {
          "internalType": "contract State",
          "name": "",
          "type": "address"
        }
      ],
      "stateMutability": "view",
      "type": "function"
    },
    {
      "inputs": [
        {
          "internalType": "address",
          "name": "newOwner",
          "type": "address"
        }
      ],
      "name": "transferOwnership",
      "outputs": [],
      "stateMutability": "nonpayable",
      "type": "function"
    },
    {
      "inputs": [
        {
          "internalType": "string",
          "name": "url",
          "type": "string"
        }
      ],
      "name": "updateProposer",
      "outputs": [],
      "stateMutability": "nonpayable",
      "type": "function"
    },
    {
      "inputs": [],
      "name": "withdrawBond",
      "outputs": [],
      "stateMutability": "nonpayable",
      "type": "function"
    }
  ],
  "bytecode": "0x608060405234801561001057600080fd5b50613bd1806100206000396000f3fe60806040526004361061011f5760003560e01c80639c18de93116100a0578063c19d93fb11610064578063c19d93fb1461033e578063c300db9b14610369578063e7a8a5a014610394578063f2fde38b146103d1578063f560a792146103fa5761011f565b80639c18de931461027c578063aa411d5b146102a5578063b20192f1146102ce578063b2bdfa7b146102ea578063bb7affc1146103155761011f565b806377603f4a116100e757806377603f4a146101e35780638129fc1c146101fa57806384afda19146102115780638da5cb5b1461023a5780639c0599ef146102655761011f565b806328340f171461012457806342646c681461014f5780635ac4f0d01461017a57806366eb9cec146101a357806369a5b950146101ba575b600080fd5b34801561013057600080fd5b50610139610423565b6040516101469190612a7d565b60405180910390f35b34801561015b57600080fd5b5061016461044d565b6040516101719190612a7d565b60405180910390f35b34801561018657600080fd5b506101a1600480360381019061019c9190612b11565b610477565b005b3480156101af57600080fd5b506101b861062f565b005b3480156101c657600080fd5b506101e160048036038101906101dc9190612b8a565b61097b565b005b3480156101ef57600080fd5b506101f8610aa1565b005b34801561020657600080fd5b5061020f610d92565b005b34801561021d57600080fd5b5061023860048036038101906102339190612bf5565b610ee0565b005b34801561024657600080fd5b5061024f610fe7565b60405161025c9190612a7d565b60405180910390f35b34801561027157600080fd5b5061027a611011565b005b34801561028857600080fd5b506102a3600480360381019061029e9190612c58565b611252565b005b3480156102b157600080fd5b506102cc60048036038101906102c79190612b8a565b61137c565b005b6102e860048036038101906102e39190612b11565b611435565b005b3480156102f657600080fd5b506102ff6120b8565b60405161030c9190612a7d565b60405180910390f35b34801561032157600080fd5b5061033c60048036038101906103379190612b8a565b6120de565b005b34801561034a57600080fd5b506103536121f0565b6040516103609190612d0a565b60405180910390f35b34801561037557600080fd5b5061037e612216565b60405161038b9190612a7d565b60405180910390f35b3480156103a057600080fd5b506103bb60048036038101906103b69190612d25565b612240565b6040516103c89190612d74565b60405180910390f35b3480156103dd57600080fd5b506103f860048036038101906103f39190612b8a565b61229d565b005b34801561040657600080fd5b50610421600480360381019061041c9190612b8a565b612398565b005b6000600360009054906101000a900473ffffffffffffffffffffffffffffffffffffffff16905090565b6000600460009054906101000a900473ffffffffffffffffffffffffffffffffffffffff16905090565b600073ffffffffffffffffffffffffffffffffffffffff16600060029054906101000a900473ffffffffffffffffffffffffffffffffffffffff1673ffffffffffffffffffffffffffffffffffffffff1663851a974c336040518263ffffffff1660e01b81526004016104ea9190612a7d565b60006040518083038186803b15801561050257600080fd5b505afa158015610516573d6000803e3d6000fd5b505050506040513d6000823e3d601f19601f8201168201806040525081019061053f9190612fa7565b6000015173ffffffffffffffffffffffffffffffffffffffff16141561059a576040517f08c379a000000000000000000000000000000000000000000000000000000000815260040161059190613073565b60405180910390fd5b600060029054906101000a900473ffffffffffffffffffffffffffffffffffffffff1673ffffffffffffffffffffffffffffffffffffffff166324acc5053384846040518463ffffffff1660e01b81526004016105f9939291906130cf565b600060405180830381600087803b15801561061357600080fd5b505af1158015610627573d6000803e3d6000fd5b505050505050565b60008060029054906101000a900473ffffffffffffffffffffffffffffffffffffffff1673ffffffffffffffffffffffffffffffffffffffff1663bdfe87f1336040518263ffffffff1660e01b815260040161068b9190612a7d565b604080518083038186803b1580156106a257600080fd5b505afa1580156106b6573d6000803e3d6000fd5b505050506040513d601f19601f820116820180604052508101906106da9190613166565b90504262093a8082602001516106f091906131c2565b10610730576040517f08c379a00000000000000000000000000000000000000000000000000000000081526004016107279061328a565b60405180910390fd5b600073ffffffffffffffffffffffffffffffffffffffff16600060029054906101000a900473ffffffffffffffffffffffffffffffffffffffff1673ffffffffffffffffffffffffffffffffffffffff1663851a974c336040518263ffffffff1660e01b81526004016107a39190612a7d565b60006040518083038186803b1580156107bb57600080fd5b505afa1580156107cf573d6000803e3d6000fd5b505050506040513d6000823e3d601f19601f820116820180604052508101906107f89190612fa7565b6000015173ffffffffffffffffffffffffffffffffffffffff1614610852576040517f08c379a00000000000000000000000000000000000000000000000000000000081526004016108499061331c565b60405180910390fd5b600060029054906101000a900473ffffffffffffffffffffffffffffffffffffffff1673ffffffffffffffffffffffffffffffffffffffff1663a1a0c2773360006040518363ffffffff1660e01b81526004016108b0929190613377565b600060405180830381600087803b1580156108ca57600080fd5b505af11580156108de573d6000803e3d6000fd5b50505050600060029054906101000a900473ffffffffffffffffffffffffffffffffffffffff1673ffffffffffffffffffffffffffffffffffffffff16639aa0758633836000015160006040518463ffffffff1660e01b8152600401610946939291906133a0565b600060405180830381600087803b15801561096057600080fd5b505af1158015610974573d6000803e3d6000fd5b5050505050565b610983610fe7565b73ffffffffffffffffffffffffffffffffffffffff163373ffffffffffffffffffffffffffffffffffffffff16146109f0576040517f08c379a00000000000000000000000000000000000000000000000000000000081526004016109e790613449565b60405180910390fd5b600660008273ffffffffffffffffffffffffffffffffffffffff1673ffffffffffffffffffffffffffffffffffffffff168152602001908152602001600020600060028110610a4257610a41613469565b5b0160009055600660008273ffffffffffffffffffffffffffffffffffffffff1673ffffffffffffffffffffffffffffffffffffffff168152602001908152602001600020600160028110610a9957610a98613469565b5b016000905550565b6004600060029054906101000a900473ffffffffffffffffffffffffffffffffffffffff1673ffffffffffffffffffffffffffffffffffffffff16632ee240e76040518163ffffffff1660e01b815260040160206040518083038186803b158015610b0b57600080fd5b505afa158015610b1f573d6000803e3d6000fd5b505050506040513d601f19601f82011682018060405250810190610b439190613498565b43610b4e91906134c5565b11610b8e576040517f08c379a0000000000000000000000000000000000000000000000000000000008152600401610b859061356b565b60405180910390fd5b600060029054906101000a900473ffffffffffffffffffffffffffffffffffffffff1673ffffffffffffffffffffffffffffffffffffffff16638a7ee83d436040518263ffffffff1660e01b8152600401610be99190612d74565b600060405180830381600087803b158015610c0357600080fd5b505af1158015610c17573d6000803e3d6000fd5b5050505060008060029054906101000a900473ffffffffffffffffffffffffffffffffffffffff1673ffffffffffffffffffffffffffffffffffffffff16633b10244b6040518163ffffffff1660e01b815260040160006040518083038186803b158015610c8457600080fd5b505afa158015610c98573d6000803e3d6000fd5b505050506040513d6000823e3d601f19601f82011682018060405250810190610cc19190612fa7565b9050600060029054906101000a900473ffffffffffffffffffffffffffffffffffffffff1673ffffffffffffffffffffffffffffffffffffffff1663e2b2c30c82604001516040518263ffffffff1660e01b8152600401610d229190612a7d565b600060405180830381600087803b158015610d3c57600080fd5b505af1158015610d50573d6000803e3d6000fd5b505050507feaa94fa30970548bf8b78ce068ba600b923a4a62ce3c523d09bf308102ff1bab8160400151604051610d879190612a7d565b60405180910390a150565b60008060019054906101000a900460ff16159050808015610dc35750600160008054906101000a900460ff1660ff16105b80610df05750610dd2306124aa565b158015610def5750600160008054906101000a900460ff1660ff16145b5b610e2f576040517f08c379a0000000000000000000000000000000000000000000000000000000008152600401610e26906135fd565b60405180910390fd5b60016000806101000a81548160ff021916908360ff1602179055508015610e6c576001600060016101000a81548160ff0219169083151502179055505b610e746124cd565b610e7c61265f565b610e8461279d565b8015610edd5760008060016101000a81548160ff0219169083151502179055507f7f26b83ff96e1f2b6a682f133852f6798a09c465da95921460cefb38474024986001604051610ed49190613665565b60405180910390a15b50565b600160009054906101000a900473ffffffffffffffffffffffffffffffffffffffff1673ffffffffffffffffffffffffffffffffffffffff163373ffffffffffffffffffffffffffffffffffffffff16148015610f4a5750600160149054906101000a900460ff16155b610f89576040517f08c379a0000000000000000000000000000000000000000000000000000000008152600401610f80906136f2565b60405180910390fd5b60018060146101000a81548160ff02191690831515021790555080600060026101000a81548173ffffffffffffffffffffffffffffffffffffffff021916908373ffffffffffffffffffffffffffffffffffffffff16021790555050565b6000600260009054906101000a900473ffffffffffffffffffffffffffffffffffffffff16905090565b600073ffffffffffffffffffffffffffffffffffffffff16600060029054906101000a900473ffffffffffffffffffffffffffffffffffffffff1673ffffffffffffffffffffffffffffffffffffffff1663851a974c336040518263ffffffff1660e01b81526004016110849190612a7d565b60006040518083038186803b15801561109c57600080fd5b505afa1580156110b0573d6000803e3d6000fd5b505050506040513d6000823e3d601f19601f820116820180604052508101906110d99190612fa7565b6000015173ffffffffffffffffffffffffffffffffffffffff161415611134576040517f08c379a000000000000000000000000000000000000000000000000000000000815260040161112b90613073565b60405180910390fd5b600060029054906101000a900473ffffffffffffffffffffffffffffffffffffffff1673ffffffffffffffffffffffffffffffffffffffff166309d632d3336040518263ffffffff1660e01b815260040161118f9190612a7d565b600060405180830381600087803b1580156111a957600080fd5b505af11580156111bd573d6000803e3d6000fd5b50505050600060029054906101000a900473ffffffffffffffffffffffffffffffffffffffff1673ffffffffffffffffffffffffffffffffffffffff16639f63212d33426040518363ffffffff1660e01b815260040161121e929190613712565b600060405180830381600087803b15801561123857600080fd5b505af115801561124c573d6000803e3d6000fd5b50505050565b61125a610fe7565b73ffffffffffffffffffffffffffffffffffffffff163373ffffffffffffffffffffffffffffffffffffffff16146112c7576040517f08c379a00000000000000000000000000000000000000000000000000000000081526004016112be90613449565b60405180910390fd5b81600660008573ffffffffffffffffffffffffffffffffffffffff1673ffffffffffffffffffffffffffffffffffffffff16815260200190815260200160002060006002811061131a57611319613469565b5b018190555080600660008573ffffffffffffffffffffffffffffffffffffffff1673ffffffffffffffffffffffffffffffffffffffff16815260200190815260200160002060016002811061137257611371613469565b5b0181905550505050565b611384610fe7565b73ffffffffffffffffffffffffffffffffffffffff163373ffffffffffffffffffffffffffffffffffffffff16146113f1576040517f08c379a00000000000000000000000000000000000000000000000000000000081526004016113e890613449565b60405180910390fd5b80600560006101000a81548173ffffffffffffffffffffffffffffffffffffffff021916908373ffffffffffffffffffffffffffffffffffffffff16021790555050565b6002600754141561147b576040517f08c379a000000000000000000000000000000000000000000000000000000000815260040161147290613787565b60405180910390fd5b6002600781905550600360009054906101000a900473ffffffffffffffffffffffffffffffffffffffff1673ffffffffffffffffffffffffffffffffffffffff163373ffffffffffffffffffffffffffffffffffffffff1614611513576040517f08c379a000000000000000000000000000000000000000000000000000000000815260040161150a906137f3565b60405180910390fd5b34600a1115611557576040517f08c379a000000000000000000000000000000000000000000000000000000000815260040161154e90613885565b60405180910390fd5b600073ffffffffffffffffffffffffffffffffffffffff16600060029054906101000a900473ffffffffffffffffffffffffffffffffffffffff1673ffffffffffffffffffffffffffffffffffffffff1663851a974c336040518263ffffffff1660e01b81526004016115ca9190612a7d565b60006040518083038186803b1580156115e257600080fd5b505afa1580156115f6573d6000803e3d6000fd5b505050506040513d6000823e3d601f19601f8201168201806040525081019061161f9190612fa7565b6000015173ffffffffffffffffffffffffffffffffffffffff1614611679576040517f08c379a000000000000000000000000000000000000000000000000000000000815260040161167090613917565b60405180910390fd5b60008060029054906101000a900473ffffffffffffffffffffffffffffffffffffffff1673ffffffffffffffffffffffffffffffffffffffff16600a6040516116c190613968565b60006040518083038185875af1925050503d80600081146116fe576040519150601f19603f3d011682016040523d82523d6000602084013e611703565b606091505b5050905080611747576040517f08c379a000000000000000000000000000000000000000000000000000000000815260040161173e906139c9565b60405180910390fd5b600060029054906101000a900473ffffffffffffffffffffffffffffffffffffffff1673ffffffffffffffffffffffffffffffffffffffff1663a1a0c27733600a6040518363ffffffff1660e01b81526004016117a5929190613712565b600060405180830381600087803b1580156117bf57600080fd5b505af11580156117d3573d6000803e3d6000fd5b5050505060008060029054906101000a900473ffffffffffffffffffffffffffffffffffffffff1673ffffffffffffffffffffffffffffffffffffffff16633b10244b6040518163ffffffff1660e01b815260040160006040518083038186803b15801561184057600080fd5b505afa158015611854573d6000803e3d6000fd5b505050506040513d6000823e3d601f19601f8201168201806040525081019061187d9190612fa7565b9050600073ffffffffffffffffffffffffffffffffffffffff16816000015173ffffffffffffffffffffffffffffffffffffffff161415611abd5760405180608001604052803373ffffffffffffffffffffffffffffffffffffffff1681526020013373ffffffffffffffffffffffffffffffffffffffff1681526020013373ffffffffffffffffffffffffffffffffffffffff16815260200185858080601f016020809104026020016040519081016040528093929190818152602001838380828437600081840152601f19601f820116905080830192505050505050508152509050600060029054906101000a900473ffffffffffffffffffffffffffffffffffffffff1673ffffffffffffffffffffffffffffffffffffffff1663bdb97f7e33836040518363ffffffff1660e01b81526004016119be929190613ab0565b600060405180830381600087803b1580156119d857600080fd5b505af11580156119ec573d6000803e3d6000fd5b50505050600060029054906101000a900473ffffffffffffffffffffffffffffffffffffffff1673ffffffffffffffffffffffffffffffffffffffff16638a7ee83d436040518263ffffffff1660e01b8152600401611a4b9190612d74565b600060405180830381600087803b158015611a6557600080fd5b505af1158015611a79573d6000803e3d6000fd5b505050507feaa94fa30970548bf8b78ce068ba600b923a4a62ce3c523d09bf308102ff1bab8160000151604051611ab09190612a7d565b60405180910390a1612019565b611ac56129d2565b33816000019073ffffffffffffffffffffffffffffffffffffffff16908173ffffffffffffffffffffffffffffffffffffffff16815250508160000151816040019073ffffffffffffffffffffffffffffffffffffffff16908173ffffffffffffffffffffffffffffffffffffffff16815250508160200151816020019073ffffffffffffffffffffffffffffffffffffffff16908173ffffffffffffffffffffffffffffffffffffffff168152505084848080601f016020809104026020016040519081016040528093929190818152602001838380828437600081840152601f19601f82011690508083019250505050505050816060018190525060008060029054906101000a900473ffffffffffffffffffffffffffffffffffffffff1673ffffffffffffffffffffffffffffffffffffffff1663851a974c84602001516040518263ffffffff1660e01b8152600401611c229190612a7d565b60006040518083038186803b158015611c3a57600080fd5b505afa158015611c4e573d6000803e3d6000fd5b505050506040513d6000823e3d601f19601f82011682018060405250810190611c779190612fa7565b905060008060029054906101000a900473ffffffffffffffffffffffffffffffffffffffff1673ffffffffffffffffffffffffffffffffffffffff1663851a974c85600001516040518263ffffffff1660e01b8152600401611cd99190612a7d565b60006040518083038186803b158015611cf157600080fd5b505afa158015611d05573d6000803e3d6000fd5b505050506040513d6000823e3d601f19601f82011682018060405250810190611d2e9190612fa7565b90508260000151826040019073ffffffffffffffffffffffffffffffffffffffff16908173ffffffffffffffffffffffffffffffffffffffff16815250508260000151816020019073ffffffffffffffffffffffffffffffffffffffff16908173ffffffffffffffffffffffffffffffffffffffff1681525050806000015173ffffffffffffffffffffffffffffffffffffffff16826000015173ffffffffffffffffffffffffffffffffffffffff161415611e21578260000151816040019073ffffffffffffffffffffffffffffffffffffffff16908173ffffffffffffffffffffffffffffffffffffffff16815250505b809350806000015173ffffffffffffffffffffffffffffffffffffffff16826000015173ffffffffffffffffffffffffffffffffffffffff1614611ef357600060029054906101000a900473ffffffffffffffffffffffffffffffffffffffff1673ffffffffffffffffffffffffffffffffffffffff1663bdb97f7e8360000151846040518363ffffffff1660e01b8152600401611ec0929190613ab0565b600060405180830381600087803b158015611eda57600080fd5b505af1158015611eee573d6000803e3d6000fd5b505050505b600060029054906101000a900473ffffffffffffffffffffffffffffffffffffffff1673ffffffffffffffffffffffffffffffffffffffff1663bdb97f7e8260000151836040518363ffffffff1660e01b8152600401611f54929190613ab0565b600060405180830381600087803b158015611f6e57600080fd5b505af1158015611f82573d6000803e3d6000fd5b50505050600060029054906101000a900473ffffffffffffffffffffffffffffffffffffffff1673ffffffffffffffffffffffffffffffffffffffff1663bdb97f7e33856040518363ffffffff1660e01b8152600401611fe3929190613ab0565b600060405180830381600087803b158015611ffd57600080fd5b505af1158015612011573d6000803e3d6000fd5b505050505050505b600060029054906101000a900473ffffffffffffffffffffffffffffffffffffffff1673ffffffffffffffffffffffffffffffffffffffff1663e2b2c30c82600001516040518263ffffffff1660e01b81526004016120789190612a7d565b600060405180830381600087803b15801561209257600080fd5b505af11580156120a6573d6000803e3d6000fd5b50505050505060016007819055505050565b600260009054906101000a900473ffffffffffffffffffffffffffffffffffffffff1681565b6120e6610fe7565b73ffffffffffffffffffffffffffffffffffffffff163373ffffffffffffffffffffffffffffffffffffffff1614612153576040517f08c379a000000000000000000000000000000000000000000000000000000000815260040161214a90613449565b60405180910390fd5b80600360006101000a81548173ffffffffffffffffffffffffffffffffffffffff021916908373ffffffffffffffffffffffffffffffffffffffff1602179055507f5544fd39820f90f9fc4b238e0eaaf1b5ece21e6dbb69a2b0824a16876e6d0efd600360009054906101000a900473ffffffffffffffffffffffffffffffffffffffff166040516121e59190612a7d565b60405180910390a150565b600060029054906101000a900473ffffffffffffffffffffffffffffffffffffffff1681565b6000600560009054906101000a900473ffffffffffffffffffffffffffffffffffffffff16905090565b6000600660008473ffffffffffffffffffffffffffffffffffffffff1673ffffffffffffffffffffffffffffffffffffffff168152602001908152602001600020826002811061229357612292613469565b5b0154905092915050565b6122a5610fe7565b73ffffffffffffffffffffffffffffffffffffffff163373ffffffffffffffffffffffffffffffffffffffff1614612312576040517f08c379a000000000000000000000000000000000000000000000000000000000815260040161230990613449565b60405180910390fd5b600073ffffffffffffffffffffffffffffffffffffffff168173ffffffffffffffffffffffffffffffffffffffff16141561234c57600080fd5b7f8be0079c531659141344cd1fd0a4f28419497f9722a3daafe3b4186f6b6457e0612375610fe7565b82604051612384929190613ae0565b60405180910390a1612395816127f6565b50565b6123a0610fe7565b73ffffffffffffffffffffffffffffffffffffffff163373ffffffffffffffffffffffffffffffffffffffff161461240d576040517f08c379a000000000000000000000000000000000000000000000000000000000815260040161240490613449565b60405180910390fd5b80600460006101000a81548173ffffffffffffffffffffffffffffffffffffffff021916908373ffffffffffffffffffffffffffffffffffffffff1602179055507f210cff5548618e71293ea0d4f1f3563a68e78f00273f3acd97014aac2442ed24600460009054906101000a900473ffffffffffffffffffffffffffffffffffffffff1660405161249f9190612a7d565b60405180910390a150565b6000808273ffffffffffffffffffffffffffffffffffffffff163b119050919050565b60008060019054906101000a900460ff161590508080156124fe5750600160008054906101000a900460ff1660ff16105b8061252b575061250d306124aa565b15801561252a5750600160008054906101000a900460ff1660ff16145b5b61256a576040517f08c379a0000000000000000000000000000000000000000000000000000000008152600401612561906135fd565b60405180910390fd5b60016000806101000a81548160ff021916908360ff16021790555080156125a7576001600060016101000a81548160ff0219169083151502179055505b33600160006101000a81548173ffffffffffffffffffffffffffffffffffffffff021916908373ffffffffffffffffffffffffffffffffffffffff1602179055506000600160146101000a81548160ff021916908315150217905550801561265c5760008060016101000a81548160ff0219169083151502179055507f7f26b83ff96e1f2b6a682f133852f6798a09c465da95921460cefb384740249860016040516126539190613665565b60405180910390a15b50565b60008060019054906101000a900460ff161590508080156126905750600160008054906101000a900460ff1660ff16105b806126bd575061269f306124aa565b1580156126bc5750600160008054906101000a900460ff1660ff16145b5b6126fc576040517f08c379a00000000000000000000000000000000000000000000000000000000081526004016126f3906135fd565b60405180910390fd5b60016000806101000a81548160ff021916908360ff1602179055508015612739576001600060016101000a81548160ff0219169083151502179055505b61274161283a565b801561279a5760008060016101000a81548160ff0219169083151502179055507f7f26b83ff96e1f2b6a682f133852f6798a09c465da95921460cefb384740249860016040516127919190613665565b60405180910390a15b50565b600060019054906101000a900460ff166127ec576040517f08c379a00000000000000000000000000000000000000000000000000000000081526004016127e390613b7b565b60405180910390fd5b6127f4612979565b565b80600260006101000a81548173ffffffffffffffffffffffffffffffffffffffff021916908373ffffffffffffffffffffffffffffffffffffffff16021790555050565b60008060019054906101000a900460ff1615905080801561286b5750600160008054906101000a900460ff1660ff16105b80612898575061287a306124aa565b1580156128975750600160008054906101000a900460ff1660ff16145b5b6128d7576040517f08c379a00000000000000000000000000000000000000000000000000000000081526004016128ce906135fd565b60405180910390fd5b60016000806101000a81548160ff021916908360ff1602179055508015612914576001600060016101000a81548160ff0219169083151502179055505b61291d336127f6565b80156129765760008060016101000a81548160ff0219169083151502179055507f7f26b83ff96e1f2b6a682f133852f6798a09c465da95921460cefb3847402498600160405161296d9190613665565b60405180910390a15b50565b600060019054906101000a900460ff166129c8576040517f08c379a00000000000000000000000000000000000000000000000000000000081526004016129bf90613b7b565b60405180910390fd5b6001600781905550565b6040518060800160405280600073ffffffffffffffffffffffffffffffffffffffff168152602001600073ffffffffffffffffffffffffffffffffffffffff168152602001600073ffffffffffffffffffffffffffffffffffffffff168152602001606081525090565b600073ffffffffffffffffffffffffffffffffffffffff82169050919050565b6000612a6782612a3c565b9050919050565b612a7781612a5c565b82525050565b6000602082019050612a926000830184612a6e565b92915050565b6000604051905090565b600080fd5b600080fd5b600080fd5b600080fd5b600080fd5b60008083601f840112612ad157612ad0612aac565b5b8235905067ffffffffffffffff811115612aee57612aed612ab1565b5b602083019150836001820283011115612b0a57612b09612ab6565b5b9250929050565b60008060208385031215612b2857612b27612aa2565b5b600083013567ffffffffffffffff811115612b4657612b45612aa7565b5b612b5285828601612abb565b92509250509250929050565b612b6781612a5c565b8114612b7257600080fd5b50565b600081359050612b8481612b5e565b92915050565b600060208284031215612ba057612b9f612aa2565b5b6000612bae84828501612b75565b91505092915050565b6000612bc282612a3c565b9050919050565b612bd281612bb7565b8114612bdd57600080fd5b50565b600081359050612bef81612bc9565b92915050565b600060208284031215612c0b57612c0a612aa2565b5b6000612c1984828501612be0565b91505092915050565b6000819050919050565b612c3581612c22565b8114612c4057600080fd5b50565b600081359050612c5281612c2c565b92915050565b600080600060608486031215612c7157612c70612aa2565b5b6000612c7f86828701612b75565b9350506020612c9086828701612c43565b9250506040612ca186828701612c43565b9150509250925092565b6000819050919050565b6000612cd0612ccb612cc684612a3c565b612cab565b612a3c565b9050919050565b6000612ce282612cb5565b9050919050565b6000612cf482612cd7565b9050919050565b612d0481612ce9565b82525050565b6000602082019050612d1f6000830184612cfb565b92915050565b60008060408385031215612d3c57612d3b612aa2565b5b6000612d4a85828601612b75565b9250506020612d5b85828601612c43565b9150509250929050565b612d6e81612c22565b82525050565b6000602082019050612d896000830184612d65565b92915050565b600080fd5b6000601f19601f8301169050919050565b7f4e487b7100000000000000000000000000000000000000000000000000000000600052604160045260246000fd5b612ddd82612d94565b810181811067ffffffffffffffff82111715612dfc57612dfb612da5565b5b80604052505050565b6000612e0f612a98565b9050612e1b8282612dd4565b919050565b600080fd5b600081519050612e3481612b5e565b92915050565b600080fd5b600067ffffffffffffffff821115612e5a57612e59612da5565b5b612e6382612d94565b9050602081019050919050565b60005b83811015612e8e578082015181840152602081019050612e73565b83811115612e9d576000848401525b50505050565b6000612eb6612eb184612e3f565b612e05565b905082815260208101848484011115612ed257612ed1612e3a565b5b612edd848285612e70565b509392505050565b600082601f830112612efa57612ef9612aac565b5b8151612f0a848260208601612ea3565b91505092915050565b600060808284031215612f2957612f28612d8f565b5b612f336080612e05565b90506000612f4384828501612e25565b6000830152506020612f5784828501612e25565b6020830152506040612f6b84828501612e25565b604083015250606082015167ffffffffffffffff811115612f8f57612f8e612e20565b5b612f9b84828501612ee5565b60608301525092915050565b600060208284031215612fbd57612fbc612aa2565b5b600082015167ffffffffffffffff811115612fdb57612fda612aa7565b5b612fe784828501612f13565b91505092915050565b600082825260208201905092915050565b7f546869732070726f706f736572206973206e6f7420726567697374657265642060008201527f6f7220796f7520617265206e6f7420746861742070726f706f73657200000000602082015250565b600061305d603c83612ff0565b915061306882613001565b604082019050919050565b6000602082019050818103600083015261308c81613050565b9050919050565b82818337600083830152505050565b60006130ae8385612ff0565b93506130bb838584613093565b6130c483612d94565b840190509392505050565b60006040820190506130e46000830186612a6e565b81810360208301526130f78184866130a2565b9050949350505050565b60008151905061311081612c2c565b92915050565b60006040828403121561312c5761312b612d8f565b5b6131366040612e05565b9050600061314684828501613101565b600083015250602061315a84828501613101565b60208301525092915050565b60006040828403121561317c5761317b612aa2565b5b600061318a84828501613116565b91505092915050565b7f4e487b7100000000000000000000000000000000000000000000000000000000600052601160045260246000fd5b60006131cd82612c22565b91506131d883612c22565b9250827fffffffffffffffffffffffffffffffffffffffffffffffffffffffffffffffff0382111561320d5761320c613193565b5b828201905092915050565b7f497420697320746f6f20736f6f6e20746f20776974686472617720796f75722060008201527f626f6e6400000000000000000000000000000000000000000000000000000000602082015250565b6000613274602483612ff0565b915061327f82613218565b604082019050919050565b600060208201905081810360008301526132a381613267565b9050919050565b7f43616e6e6f7420776974686472617720626f6e64207768696c6520612072656760008201527f697374657265642070726f706f73657200000000000000000000000000000000602082015250565b6000613306603083612ff0565b9150613311826132aa565b604082019050919050565b60006020820190508181036000830152613335816132f9565b9050919050565b6000819050919050565b600061336161335c6133578461333c565b612cab565b612c22565b9050919050565b61337181613346565b82525050565b600060408201905061338c6000830185612a6e565b6133996020830184613368565b9392505050565b60006060820190506133b56000830186612a6e565b6133c26020830185612d65565b6133cf6040830184613368565b949350505050565b7f596f7520617265206e6f7420617574686f726973656420746f20696e766f6b6560008201527f20746869732066756e6374696f6e000000000000000000000000000000000000602082015250565b6000613433602e83612ff0565b915061343e826133d7565b604082019050919050565b6000602082019050818103600083015261346281613426565b9050919050565b7f4e487b7100000000000000000000000000000000000000000000000000000000600052603260045260246000fd5b6000602082840312156134ae576134ad612aa2565b5b60006134bc84828501613101565b91505092915050565b60006134d082612c22565b91506134db83612c22565b9250828210156134ee576134ed613193565b5b828203905092915050565b7f4974277320746f6f20736f6f6e20746f20726f74617465207468652070726f7060008201527f6f73657200000000000000000000000000000000000000000000000000000000602082015250565b6000613555602483612ff0565b9150613560826134f9565b604082019050919050565b6000602082019050818103600083015261358481613548565b9050919050565b7f496e697469616c697a61626c653a20636f6e747261637420697320616c72656160008201527f647920696e697469616c697a6564000000000000000000000000000000000000602082015250565b60006135e7602e83612ff0565b91506135f28261358b565b604082019050919050565b60006020820190508181036000830152613616816135da565b9050919050565b6000819050919050565b600060ff82169050919050565b600061364f61364a6136458461361d565b612cab565b613627565b9050919050565b61365f81613634565b82525050565b600060208201905061367a6000830184613656565b92915050565b7f4f6e6c7920746865206f776e65722063616e2063616c6c20746869732c206f6e60008201527f63652e0000000000000000000000000000000000000000000000000000000000602082015250565b60006136dc602383612ff0565b91506136e782613680565b604082019050919050565b6000602082019050818103600083015261370b816136cf565b9050919050565b60006040820190506137276000830185612a6e565b6137346020830184612d65565b9392505050565b7f5265656e7472616e637947756172643a207265656e7472616e742063616c6c00600082015250565b6000613771601f83612ff0565b915061377c8261373b565b602082019050919050565b600060208201905081810360008301526137a081613764565b9050919050565b7f596f7520617265206e6f742074686520626f6f742070726f706f736572000000600082015250565b60006137dd601d83612ff0565b91506137e8826137a7565b602082019050919050565b6000602082019050818103600083015261380c816137d0565b9050919050565b7f54686520726567697374726174696f6e207061796d656e7420697320696e636f60008201527f7272656374000000000000000000000000000000000000000000000000000000602082015250565b600061386f602583612ff0565b915061387a82613813565b604082019050919050565b6000602082019050818103600083015261389e81613862565b9050919050565b7f546869732070726f706f73657220697320616c7265616479207265676973746560008201527f7265640000000000000000000000000000000000000000000000000000000000602082015250565b6000613901602383612ff0565b915061390c826138a5565b604082019050919050565b60006020820190508181036000830152613930816138f4565b9050919050565b600081905092915050565b50565b6000613952600083613937565b915061395d82613942565b600082019050919050565b600061397382613945565b9150819050919050565b7f5472616e73666572206661696c65642e00000000000000000000000000000000600082015250565b60006139b3601083612ff0565b91506139be8261397d565b602082019050919050565b600060208201905081810360008301526139e2816139a6565b9050919050565b6139f281612a5c565b82525050565b600081519050919050565b600082825260208201905092915050565b6000613a1f826139f8565b613a298185613a03565b9350613a39818560208601612e70565b613a4281612d94565b840191505092915050565b6000608083016000830151613a6560008601826139e9565b506020830151613a7860208601826139e9565b506040830151613a8b60408601826139e9565b5060608301518482036060860152613aa38282613a14565b9150508091505092915050565b6000604082019050613ac56000830185612a6e565b8181036020830152613ad78184613a4d565b90509392505050565b6000604082019050613af56000830185612a6e565b613b026020830184612a6e565b9392505050565b7f496e697469616c697a61626c653a20636f6e7472616374206973206e6f74206960008201527f6e697469616c697a696e67000000000000000000000000000000000000000000602082015250565b6000613b65602b83612ff0565b9150613b7082613b09565b604082019050919050565b60006020820190508181036000830152613b9481613b58565b905091905056fea2646970667358221220ab3c4634fae19e3f5e34529fcb5d773403bb7150946c74b08cef1f2d7d2abb7464736f6c63430008090033",
  "linkReferences": {},
  "deployedLinkReferences": {}
}