{
  "contractName": "MerkleTreeController",
  "abi": [
    {
      "constant": true,
      "inputs": [],
      "name": "treeHeight",
      "outputs": [
        {
          "name": "",
          "type": "uint256"
        }
      ],
      "payable": false,
      "stateMutability": "view",
      "type": "function"
    },
    {
      "constant": false,
      "inputs": [
        {
          "name": "valuesToConvertToLeafValues",
          "type": "uint256[25]"
        }
      ],
      "name": "bytes32ArrayEncoder",
      "outputs": [
        {
          "name": "",
          "type": "bytes32"
        }
      ],
      "payable": false,
      "stateMutability": "nonpayable",
      "type": "function"
    },
    {
      "constant": true,
      "inputs": [],
      "name": "leafCount",
      "outputs": [
        {
          "name": "",
          "type": "uint256"
        }
      ],
      "payable": false,
      "stateMutability": "view",
      "type": "function"
    },
    {
      "constant": false,
      "inputs": [
        {
          "name": "valueToConvertToLeafValue",
          "type": "uint256"
        }
      ],
      "name": "bytes32Encoder",
      "outputs": [
        {
          "name": "",
          "type": "bytes32"
        }
      ],
      "payable": false,
      "stateMutability": "nonpayable",
      "type": "function"
    },
    {
      "constant": false,
      "inputs": [
        {
          "name": "leafValue",
          "type": "bytes32"
        }
      ],
      "name": "insertLeaf",
      "outputs": [
        {
          "name": "",
          "type": "bytes32"
        }
      ],
      "payable": false,
      "stateMutability": "nonpayable",
      "type": "function"
    },
    {
      "constant": true,
      "inputs": [],
      "name": "treeWidth",
      "outputs": [
        {
          "name": "",
          "type": "uint256"
        }
      ],
      "payable": false,
      "stateMutability": "view",
      "type": "function"
    },
    {
      "constant": true,
      "inputs": [],
      "name": "owner",
      "outputs": [
        {
          "name": "",
          "type": "address"
        }
      ],
      "payable": false,
      "stateMutability": "view",
      "type": "function"
    },
    {
      "constant": true,
      "inputs": [
        {
          "name": "",
          "type": "bytes32"
        }
      ],
      "name": "roots",
      "outputs": [
        {
          "name": "",
          "type": "bytes32"
        }
      ],
      "payable": false,
      "stateMutability": "view",
      "type": "function"
    },
    {
      "constant": true,
      "inputs": [],
      "name": "latestRoot",
      "outputs": [
        {
          "name": "",
          "type": "bytes32"
        }
      ],
      "payable": false,
      "stateMutability": "view",
      "type": "function"
    },
    {
      "constant": false,
      "inputs": [
        {
          "name": "leafValues",
          "type": "bytes32[]"
        }
      ],
      "name": "insertLeaves",
      "outputs": [
        {
          "name": "",
          "type": "bytes32"
        }
      ],
      "payable": false,
      "stateMutability": "nonpayable",
      "type": "function"
    },
    {
      "inputs": [
        {
          "name": "_treeHeight",
          "type": "uint256"
        }
      ],
      "payable": false,
      "stateMutability": "nonpayable",
      "type": "constructor"
    },
    {
      "anonymous": false,
      "inputs": [
        {
          "indexed": false,
          "name": "leafIndex",
          "type": "uint256"
        },
        {
          "indexed": false,
          "name": "leafValue",
          "type": "bytes32"
        },
        {
          "indexed": false,
          "name": "root",
          "type": "bytes32"
        }
      ],
      "name": "newLeaf",
      "type": "event"
    },
    {
      "anonymous": false,
      "inputs": [
        {
          "indexed": false,
          "name": "minLeafIndex",
          "type": "uint256"
        },
        {
          "indexed": false,
          "name": "leafValues",
          "type": "bytes32[]"
        },
        {
          "indexed": false,
          "name": "root",
          "type": "bytes32"
        }
      ],
      "name": "newLeaves",
      "type": "event"
    },
    {
      "constant": false,
      "inputs": [
        {
          "name": "leafValue",
          "type": "bytes32"
        }
      ],
      "name": "_insertLeaf",
      "outputs": [],
      "payable": false,
      "stateMutability": "nonpayable",
      "type": "function"
    },
    {
      "constant": false,
      "inputs": [
        {
          "name": "leafValues",
          "type": "bytes32[]"
        }
      ],
      "name": "_insertLeaves",
      "outputs": [],
      "payable": false,
      "stateMutability": "nonpayable",
      "type": "function"
    }
  ],
  "bytecode": "0x60806040526000801b60005534801561001757600080fd5b50604051602080610eae8339810180604052602081101561003757600080fd5b810190808051906020019092919050505080806001819055508060020a6002819055505033602560006101000a81548173ffffffffffffffffffffffffffffffffffffffff021916908373ffffffffffffffffffffffffffffffffffffffff16021790555050610e02806100ac6000396000f3fe608060405234801561001057600080fd5b50600436106100b45760003560e01c806371b625411161007157806371b625411461026d57806376c601b11461029b5780638da5cb5b146102b9578063ae6dead714610303578063d7b0fef114610345578063dc52bf9f14610363576100b4565b806301e3e915146100b957806303ebd1d4146100d7578063226ae84a1461015057806330e69fc3146101cb5780634b6e4222146101e95780635c8b80ab1461022b575b600080fd5b6100c161042f565b6040518082815260200191505060405180910390f35b61014e600480360360208110156100ed57600080fd5b810190808035906020019064010000000081111561010a57600080fd5b82018360208201111561011c57600080fd5b8035906020019184602083028401116401000000008311171561013e57600080fd5b9091929391929390505050610435565b005b6101b5600480360361032081101561016757600080fd5b810190808061032001906019806020026040519081016040528092919082601960200280828437600081840152601f19601f820116905080830192505050505050919291929050505061054d565b6040518082815260200191505060405180910390f35b6101d36105de565b6040518082815260200191505060405180910390f35b610215600480360360208110156101ff57600080fd5b81019080803590602001909291905050506105e4565b6040518082815260200191505060405180910390f35b6102576004803603602081101561024157600080fd5b81019080803590602001909291905050506105fe565b6040518082815260200191505060405180910390f35b6102996004803603602081101561028357600080fd5b81019080803590602001909291905050506107e2565b005b6102a36108b8565b6040518082815260200191505060405180910390f35b6102c16108be565b604051808273ffffffffffffffffffffffffffffffffffffffff1673ffffffffffffffffffffffffffffffffffffffff16815260200191505060405180910390f35b61032f6004803603602081101561031957600080fd5b81019080803590602001909291905050506108e4565b6040518082815260200191505060405180910390f35b61034d6108fc565b6040518082815260200191505060405180910390f35b6104196004803603602081101561037957600080fd5b810190808035906020019064010000000081111561039657600080fd5b8201836020820111156103a857600080fd5b803590602001918460208302840111640100000000831117156103ca57600080fd5b919080806020026020016040519081016040528093929190818152602001838360200280828437600081840152601f19601f820116905080830192505050505050509192919290505050610902565b6040518082815260200191505060405180910390f35b60015481565b602560009054906101000a900473ffffffffffffffffffffffffffffffffffffffff1673ffffffffffffffffffffffffffffffffffffffff163373ffffffffffffffffffffffffffffffffffffffff16146104db576040517f08c379a000000000000000000000000000000000000000000000000000000000815260040180806020018281038252602e815260200180610da9602e913960400191505060405180910390fd5b6000610527838380806020026020016040519081016040528093929190818152602001838360200280828437600081840152601f19601f82011690508083019250505050505050610902565b905080602660008381526020019081526020016000208190555080602781905550505050565b6000606060196040519080825280602002602001820160405280156105815781602001602082028038833980820191505090505b50905060008090505b60198110156105cc5783816019811061059f57fe5b602002015160001b8282815181106105b357fe5b602002602001018181525050808060010191505061058a565b506105d681610902565b915050919050565b60245481565b6000808260001b90506105f6816105fe565b915050919050565b60008061060c602454610ced565b905060006001600254602454010390506000849050610629610d64565b610631610d86565b600080600090505b600154811015610778578681141561065f57846003886021811061065957fe5b01819055505b60006002878161066b57fe5b0614156106f8576003816021811061067f57fe5b01548460006002811061068e57fe5b60200201818152505084846001600281106106a557fe5b60200201818152505060208360408660006002600019f1915081600081146106cc576106ce565bfe5b50826000600181106106dc57fe5b60200201519450600260018703816106f057fe5b04955061076b565b848460006002811061070657fe5b6020020181815250506000548460016002811061071f57fe5b60200201818152505060208360408660006002600019f19150816000811461074657610748565bfe5b508260006001811061075657fe5b602002015194506002868161076757fe5b0495505b8080600101915050610639565b507f961d75dfa6cbcadcc3eb9732500ab98db65e36ae3ebe7f32daa7b1c37dc731b1602454898660405180848152602001838152602001828152602001935050505060405180910390a1602460008154809291906001019190505550839650505050505050919050565b602560009054906101000a900473ffffffffffffffffffffffffffffffffffffffff1673ffffffffffffffffffffffffffffffffffffffff163373ffffffffffffffffffffffffffffffffffffffff1614610888576040517f08c379a000000000000000000000000000000000000000000000000000000000815260040180806020018281038252602e815260200180610da9602e913960400191505060405180910390fd5b6000610893826105fe565b9050806026600083815260200190815260200160002081905550806027819055505050565b60025481565b602560009054906101000a900473ffffffffffffffffffffffffffffffffffffffff1681565b60266020528060005260406000206000915090505481565b60275481565b6000808251905060245460025403811115610952576000602454600254038203905060008090505b818110156109465760018551038552808060010191505061092a565b50602454600254039150505b600080600061095f610d64565b610967610d86565b60008060245490505b87811015610b14578960245482038151811061098857fe5b60200260200101519450600160025482010395506109a581610ced565b965060008714156109c85784600388602181106109be57fe5b0181905550610b07565b6000600190505b878111610af2576000600288816109e257fe5b061415610a7257600360018203602181106109f957fe5b015485600060028110610a0857fe5b6020020181815250508585600160028110610a1f57fe5b60200201818152505060208460408760006002600019f192508260008114610a4657610a48565bfe5b5083600060018110610a5657fe5b6020020151955060026001880381610a6a57fe5b049650610ae5565b8585600060028110610a8057fe5b60200201818152505060005485600160028110610a9957fe5b60200201818152505060208460408760006002600019f192508260008114610ac057610ac2565bfe5b5083600060018110610ad057fe5b6020020151955060028781610ae157fe5b0496505b80806001019150506109cf565b508460038860218110610b0157fe5b01819055505b8080600101915050610970565b5060006001870190505b6001548111610c4357600060028781610b3357fe5b061415610bc35760036001820360218110610b4a57fe5b015484600060028110610b5957fe5b6020020181815250508484600160028110610b7057fe5b60200201818152505060208360408660006002600019f191508160008114610b9757610b99565bfe5b5082600060018110610ba757fe5b6020020151945060026001870381610bbb57fe5b049550610c36565b8484600060028110610bd157fe5b60200201818152505060005484600160028110610bea57fe5b60200201818152505060208360408660006002600019f191508160008114610c1157610c13565bfe5b5082600060018110610c2157fe5b6020020151945060028681610c3257fe5b0495505b8080600101915050610b1e565b507f90804955ce158dc0821dd7cbb6eaa48ad3e31bd650e7ef7f7b819e525acdad136024548a866040518084815260200180602001838152602001828103825284818151815260200191508051906020019060200280838360005b83811015610cb9578082015181840152602081019050610c9e565b5050505090500194505050505060405180910390a18660246000828254019250508190555083975050505050505050919050565b6000809050600160028381610cfe57fe5b061415610d5f576000600190506000600290506000600182901b90505b6000841415610d5b5760008183600188010381610d3457fe5b061415610d4357829350610d56565b809150600181901b905082806001019350505b610d1b565b5050505b919050565b6040518060400160405280600290602082028038833980820191505090505090565b604051806020016040528060019060208202803883398082019150509050509056fe596f7520617265206e6f7420617574686f726973656420746f20696e766f6b6520746869732066756e6374696f6ea165627a7a723058204de0e8c4aa0c612b7e58d439819118ac8ce213ef55aa2ed34974e3c47bb4e3110029",
  "source": "/**\nContract to manage permissions to update the leaves of the imported MerkleTree contract (which is the base contract which handles tree inserts and updates).\n\n@Author iAmMichaelConnor\n*/\npragma solidity ^0.5.8;\n\nimport \"./MerkleTree.sol\";\n\ncontract MerkleTreeController is MerkleTree {\n\n    address public owner; // We'll demonstrate simple 'permissioning' to update leaves by only allowing the owner to update leaves.\n\n    mapping(bytes32 => bytes32) public roots; // Example of a way to hold every root that's been calculated by this contract. This isn't actually used by this simple example-contract.\n\n    bytes32 public latestRoot; // Example of a way to hold the latest root so that users can retrieve it. This isn't actually used by this simple example-contract.\n\n    /**\n    We'll demonstrate simple 'permissioning' to update leaves by only allowing the owner to update leaves.\n    @dev Throws if called by any account other than the owner.\n    */\n    modifier onlyOwner() {\n        require(msg.sender == owner, \"You are not authorised to invoke this function\");\n        _;\n    }\n\n    /**\n    @notice Constructor for the MerkleTreeController contract.\n    @param _treeHeight - the height of the tree (see the base contract for a disambiguation of what is meant by 'height').\n\n    We also need to specify the arguments for the Base contract's (MerkleTree.sol's) constructor. We do this through a \"modifier\" of this 'derived' contract's constructor (hence the unusual 'MerkleTree' \"modifier\" directly below).\n    */\n    constructor(uint _treeHeight) MerkleTree(_treeHeight) public {\n        owner = msg.sender;\n    }\n\n    /**\n    @notice Append a leaf to the tree\n    @param leafValue - the value of the leaf being inserted.\n    */\n    function _insertLeaf(bytes32 leafValue) external onlyOwner {\n\n        bytes32 root = insertLeaf(leafValue); // recalculate the root of the tree\n\n        roots[root] = root;\n\n        latestRoot = root;\n    }\n\n    /**\n    @notice Append leaves to the tree\n    @param leafValues - the values of the leaves being inserted.\n    */\n    function _insertLeaves(bytes32[] calldata leafValues) external onlyOwner {\n\n        bytes32 root = insertLeaves(leafValues); // recalculate the root of the tree\n\n        roots[root] = root;\n\n        latestRoot = root;\n    }\n}\n",
  "sourcePath": "/Users/em137vl/git/merkle-tree/deployer/contracts/MerkleTreeController.sol",
  "compiler": {
    "name": "solc",
    "version": "0.5.8+commit.23d335f2.Emscripten.clang"
  },
  "schemaVersion": "3.0.9",
  "updatedAt": "2019-11-11T16:23:56.020Z",
  "devdoc": {
    "methods": {
      "insertLeaf(bytes32)": {
        "params": {
          "leafValue": "- the value of the leaf being inserted."
        },
        "return": "bytes32 - the root of the merkle tree, after the insert."
      },
      "insertLeaves(bytes32[])": {
        "params": {
          "leafValues": "- the values of the leaves being inserted."
        },
        "return": "bytes32[] - the root of the merkle tree, after all the inserts."
      },
      "_insertLeaf(bytes32)": {
        "params": {
          "leafValue": "- the value of the leaf being inserted."
        }
      },
      "_insertLeaves(bytes32[])": {
        "params": {
          "leafValues": "- the values of the leaves being inserted."
        }
      },
      "constructor": {
        "params": {
          "_treeHeight": "- the height of the tree (see the base contract for a disambiguation of what is meant by 'height'). We also need to specify the arguments for the Base contract's (MerkleTree.sol's) constructor. We do this through a \"modifier\" of this 'derived' contract's constructor (hence the unusual 'MerkleTree' \"modifier\" directly below)."
        }
      }
    }
  },
  "userdoc": {
    "methods": {
      "_insertLeaf(bytes32)": {
        "notice": "Append a leaf to the tree"
      },
      "_insertLeaves(bytes32[])": {
        "notice": "Append leaves to the tree"
      },
      "constructor": "Constructor for the MerkleTreeController contract.",
      "insertLeaf(bytes32)": {
        "notice": "Insert a leaf into the Merkle Tree, update the root, and update any values in the (persistently stored) frontier."
      },
      "insertLeaves(bytes32[])": {
        "notice": "Insert multiple leaves into the Merkle Tree, and then update the root, and update any values in the (persistently stored) frontier."
      }
    }
  }
}