{
  "contractName": "MerkleTreeControllerSHA",
  "abi": [
    {
      "constant": true,
      "inputs": [],
      "name": "treeHeight",
      "outputs": [
        {
          "name": "",
          "type": "uint256"
        }
      ],
      "payable": false,
      "stateMutability": "view",
      "type": "function"
    },
    {
      "constant": true,
      "inputs": [],
      "name": "leafCount",
      "outputs": [
        {
          "name": "",
          "type": "uint256"
        }
      ],
      "payable": false,
      "stateMutability": "view",
      "type": "function"
    },
    {
      "constant": false,
      "inputs": [
        {
          "name": "leafValue",
          "type": "bytes32"
        }
      ],
      "name": "insertLeaf",
      "outputs": [
        {
          "name": "root",
          "type": "bytes32"
        }
      ],
      "payable": false,
      "stateMutability": "nonpayable",
      "type": "function"
    },
    {
      "constant": true,
      "inputs": [],
      "name": "treeWidth",
      "outputs": [
        {
          "name": "",
          "type": "uint256"
        }
      ],
      "payable": false,
      "stateMutability": "view",
      "type": "function"
    },
    {
      "constant": true,
      "inputs": [],
      "name": "owner",
      "outputs": [
        {
          "name": "",
          "type": "address"
        }
      ],
      "payable": false,
      "stateMutability": "view",
      "type": "function"
    },
    {
      "constant": true,
      "inputs": [
        {
          "name": "",
          "type": "bytes32"
        }
      ],
      "name": "roots",
      "outputs": [
        {
          "name": "",
          "type": "bytes32"
        }
      ],
      "payable": false,
      "stateMutability": "view",
      "type": "function"
    },
    {
      "constant": true,
      "inputs": [],
      "name": "latestRoot",
      "outputs": [
        {
          "name": "",
          "type": "bytes32"
        }
      ],
      "payable": false,
      "stateMutability": "view",
      "type": "function"
    },
    {
      "constant": false,
      "inputs": [
        {
          "name": "leafValues",
          "type": "bytes32[]"
        }
      ],
      "name": "insertLeaves",
      "outputs": [
        {
          "name": "root",
          "type": "bytes32"
        }
      ],
      "payable": false,
      "stateMutability": "nonpayable",
      "type": "function"
    },
    {
      "inputs": [],
      "payable": false,
      "stateMutability": "nonpayable",
      "type": "constructor"
    },
    {
      "anonymous": false,
      "inputs": [
        {
          "indexed": false,
          "name": "leafIndex",
          "type": "uint256"
        },
        {
          "indexed": false,
          "name": "leafValue",
          "type": "bytes32"
        },
        {
          "indexed": false,
          "name": "root",
          "type": "bytes32"
        }
      ],
      "name": "NewLeaf",
      "type": "event"
    },
    {
      "anonymous": false,
      "inputs": [
        {
          "indexed": false,
          "name": "minLeafIndex",
          "type": "uint256"
        },
        {
          "indexed": false,
          "name": "leafValues",
          "type": "bytes32[]"
        },
        {
          "indexed": false,
          "name": "root",
          "type": "bytes32"
        }
      ],
      "name": "NewLeaves",
      "type": "event"
    },
    {
      "constant": false,
      "inputs": [
        {
          "name": "leafValue",
          "type": "bytes32"
        }
      ],
      "name": "_insertLeaf",
      "outputs": [],
      "payable": false,
      "stateMutability": "nonpayable",
      "type": "function"
    },
    {
      "constant": false,
      "inputs": [
        {
          "name": "leafValues",
          "type": "bytes32[]"
        }
      ],
      "name": "_insertLeaves",
      "outputs": [],
      "payable": false,
      "stateMutability": "nonpayable",
      "type": "function"
    }
  ],
  "bytecode": "0x6080604052602060005560005460020a600155600060281b600360006101000a8154817affffffffffffffffffffffffffffffffffffffffffffffffffffff021916908360281c021790555034801561005757600080fd5b5033602560006101000a81548173ffffffffffffffffffffffffffffffffffffffff021916908373ffffffffffffffffffffffffffffffffffffffff160217905550610d7a806100a86000396000f3fe608060405234801561001057600080fd5b506004361061009e5760003560e01c806376c601b11161006657806376c601b1146101c85780638da5cb5b146101e6578063ae6dead714610230578063d7b0fef114610272578063dc52bf9f146102905761009e565b806301e3e915146100a357806303ebd1d4146100c157806330e69fc31461013a5780635c8b80ab1461015857806371b625411461019a575b600080fd5b6100ab61035c565b6040518082815260200191505060405180910390f35b610138600480360360208110156100d757600080fd5b81019080803590602001906401000000008111156100f457600080fd5b82018360208201111561010657600080fd5b8035906020019184602083028401116401000000008311171561012857600080fd5b9091929391929390505050610362565b005b610142610462565b6040518082815260200191505060405180910390f35b6101846004803603602081101561016e57600080fd5b8101908080359060200190929190505050610468565b6040518082815260200191505060405180910390f35b6101c6600480360360208110156101b057600080fd5b81019080803590602001909291905050506106d2565b005b6101d0610790565b6040518082815260200191505060405180910390f35b6101ee610796565b604051808273ffffffffffffffffffffffffffffffffffffffff1673ffffffffffffffffffffffffffffffffffffffff16815260200191505060405180910390f35b61025c6004803603602081101561024657600080fd5b81019080803590602001909291905050506107bc565b6040518082815260200191505060405180910390f35b61027a6107d4565b6040518082815260200191505060405180910390f35b610346600480360360208110156102a657600080fd5b81019080803590602001906401000000008111156102c357600080fd5b8201836020820111156102d557600080fd5b803590602001918460208302840111640100000000831117156102f757600080fd5b919080806020026020016040519081016040528093929190818152602001838360200280828437600081840152601f19601f8201169050808301925050505050505091929192905050506107da565b6040518082815260200191505060405180910390f35b60005481565b602560009054906101000a900473ffffffffffffffffffffffffffffffffffffffff1673ffffffffffffffffffffffffffffffffffffffff163373ffffffffffffffffffffffffffffffffffffffff1614610408576040517f08c379a000000000000000000000000000000000000000000000000000000000815260040180806020018281038252602e815260200180610d21602e913960400191505060405180910390fd5b6000610454838380806020026020016040519081016040528093929190818152602001838360200280828437600081840152601f19601f820116905080830192505050505050506107da565b905080602781905550505050565b60025481565b6000600254600154116104c6576040517f08c379a0000000000000000000000000000000000000000000000000000000008152600401808060200182810382526023815260200180610cfe6023913960400191505060405180910390fd5b60006104d3600254610c64565b9050600060018054600254010390506000602885901b90506000806104f6610cdb565b600080600090505b600054811015610653578781141561055257856004896021811061051e57fe5b0160006101000a8154817affffffffffffffffffffffffffffffffffffffffffffffffffffff021916908360281c02179055505b60006002888161055e57fe5b0614156105df576004816021811061057257fe5b0160009054906101000a900460281b945085935060405185815284601b8201526020846036836002600019fa925082600081146105ae576105b0565bfe5b50506028836000600181106105c157fe5b6020020151901b9550600260018803816105d757fe5b049650610646565b859450600360009054906101000a900460281b935060405185815284601b8201526020846036836002600019fa9250826000811461061c5761061e565bfe5b505060288360006001811061062f57fe5b6020020151901b95506002878161064257fe5b0496505b80806001019150506104fe565b508160006001811061066157fe5b602002015197507f6a82ba2aa1d2c039c41e6e2b5a5a1090d09906f060d32af9c1ac0beff7af75c06002548a8a60405180848152602001838152602001828152602001935050505060405180910390a160026000815480929190600101919050555087975050505050505050919050565b602560009054906101000a900473ffffffffffffffffffffffffffffffffffffffff1673ffffffffffffffffffffffffffffffffffffffff163373ffffffffffffffffffffffffffffffffffffffff1614610778576040517f08c379a000000000000000000000000000000000000000000000000000000000815260040180806020018281038252602e815260200180610d21602e913960400191505060405180910390fd5b600061078382610468565b9050806027819055505050565b60015481565b602560009054906101000a900473ffffffffffffffffffffffffffffffffffffffff1681565b60266020528060005260406000206000915090505481565b60275481565b600080825190506002546001541161083d576040517f08c379a0000000000000000000000000000000000000000000000000000000008152600401808060200182810382526023815260200180610cfe6023913960400191505060405180910390fd5b60025460015403811115610886576000600254600154038203905060008090505b8181101561087a5760018551038552808060010191505061085e565b50600254600154039150505b6000806000806000610896610cdb565b60008060025490505b8860025401811015610a8e5760288b6002548303815181106108bd57fe5b6020026020010151901b95506001805482010396506108db81610c64565b9750600088141561092c5785600489602181106108f457fe5b0160006101000a8154817affffffffffffffffffffffffffffffffffffffffffffffffffffff021916908360281c0217905550610a81565b6000600190505b888111610a3e5760006002898161094657fe5b0614156109ca576004600182036021811061095d57fe5b0160009054906101000a900460281b955086945060405186815285601b8201526020856036836002600019fa935083600081146109995761099b565bfe5b50506028846000600181106109ac57fe5b6020020151901b9650600260018903816109c257fe5b049750610a31565b869550600360009054906101000a900460281b945060405186815285601b8201526020856036836002600019fa93508360008114610a0757610a09565bfe5b5050602884600060018110610a1a57fe5b6020020151901b965060028881610a2d57fe5b0497505b8080600101915050610933565b508560048960218110610a4d57fe5b0160006101000a8154817affffffffffffffffffffffffffffffffffffffffffffffffffffff021916908360281c02179055505b808060010191505061089f565b5060006001880190505b6000548111610ba557600060028881610aad57fe5b061415610b315760046001820360218110610ac457fe5b0160009054906101000a900460281b945085935060405185815284601b8201526020846036836002600019fa92508260008114610b0057610b02565bfe5b5050602883600060018110610b1357fe5b6020020151901b955060026001880381610b2957fe5b049650610b98565b859450600360009054906101000a900460281b935060405185815284601b8201526020846036836002600019fa92508260008114610b6e57610b70565bfe5b5050602883600060018110610b8157fe5b6020020151901b955060028781610b9457fe5b0496505b8080600101915050610a98565b5081600060018110610bb357fe5b602002015198507f8ec50f97970775682a68d3c6f9caedf60fd82448ea40706b8b65d6c03648b9226002548b8b6040518084815260200180602001838152602001828103825284818151815260200191508051906020019060200280838360005b83811015610c2f578082015181840152602081019050610c14565b5050505090500194505050505060405180910390a1876002600082825401925050819055508898505050505050505050919050565b6000809050600160028381610c7557fe5b061415610cd6576000600190506000600290506000600182901b90505b6000841415610cd25760008183600188010381610cab57fe5b061415610cba57829350610ccd565b809150600181901b905082806001019350505b610c92565b5050505b919050565b604051806020016040528060019060208202803883398082019150509050509056fe5468657265206973206e6f207370616365206c65667420696e2074686520747265652e596f7520617265206e6f7420617574686f726973656420746f20696e766f6b6520746869732066756e6374696f6ea165627a7a72305820c1a3e34fd61a0906352a2b064605ef4be264f39b7e15f381911c2c0c671ce0ab0029",
  "source": "/**\nContract to manage permissions to update the leaves of the imported MerkleTree contract (which is the base contract which handles tree inserts and updates).\n\n@Author iAmMichaelConnor\n*/\npragma solidity ^0.5.8;\n\nimport \"./MerkleTreeSHA.sol\";\n\ncontract MerkleTreeControllerSHA is MerkleTreeSHA {\n\n    address public owner; // We'll demonstrate simple 'permissioning' to update leaves by only allowing the owner to update leaves.\n\n    mapping(bytes32 => bytes32) public roots; // Example of a way to hold every root that's been calculated by this contract. This isn't actually used by this simple example-contract.\n\n    bytes32 public latestRoot; // Example of a way to hold the latest root so that users can retrieve it. This isn't actually used by this simple example-contract.\n\n    /**\n    We'll demonstrate simple 'permissioning' to update leaves by only allowing the owner to update leaves.\n    @dev Throws if called by any account other than the owner.\n    */\n    modifier onlyOwner() {\n        require(msg.sender == owner, \"You are not authorised to invoke this function\");\n        _;\n    }\n\n    /**\n    @notice Constructor for the MerkleTreeController contract.\n    */\n    constructor() public {\n        owner = msg.sender;\n    }\n\n    /**\n    @notice Append a leaf to the tree\n    @param leafValue - the value of the leaf being inserted.\n    */\n    function _insertLeaf(bytes32 leafValue) external onlyOwner {\n\n        bytes32 root = insertLeaf(leafValue); // recalculate the root of the tree\n\n        // roots[root] = root;\n\n        latestRoot = root;\n    }\n\n    /**\n    @notice Append leaves to the tree\n    @param leafValues - the values of the leaves being inserted.\n    */\n    function _insertLeaves(bytes32[] calldata leafValues) external onlyOwner {\n\n        bytes32 root = insertLeaves(leafValues); // recalculate the root of the tree\n\n        // roots[root] = root;\n\n        latestRoot = root;\n    }\n}\n",
  "sourcePath": "/Users/miranda.Wooduk.ey.com/nightfallmimc/timber/deployer/contracts/MerkleTreeControllerSHA.sol",
  "compiler": {
    "name": "solc",
    "version": "0.5.8+commit.23d335f2.Emscripten.clang"
  },
  "schemaVersion": "3.0.19",
  "updatedAt": "2020-02-11T14:32:09.428Z",
  "devdoc": {
    "methods": {
      "_insertLeaf(bytes32)": {
        "params": {
          "leafValue": "- the value of the leaf being inserted."
        }
      },
      "_insertLeaves(bytes32[])": {
        "params": {
          "leafValues": "- the values of the leaves being inserted."
        }
      },
      "insertLeaf(bytes32)": {
        "params": {
          "leafValue": "- the value of the leaf being inserted."
        },
        "return": "bytes32 - the root of the merkle tree, after the insert."
      },
      "insertLeaves(bytes32[])": {
        "params": {
          "leafValues": "- the values of the leaves being inserted."
        },
        "return": "bytes32[] - the root of the merkle tree, after all the inserts."
      }
    }
  },
  "userdoc": {
    "methods": {
      "_insertLeaf(bytes32)": {
        "notice": "Append a leaf to the tree"
      },
      "_insertLeaves(bytes32[])": {
        "notice": "Append leaves to the tree"
      },
      "constructor": "Constructor for the MerkleTreeController contract.",
      "insertLeaf(bytes32)": {
        "notice": "Insert a leaf into the Merkle Tree, update the root, and update any values in the (persistently stored) frontier."
      },
      "insertLeaves(bytes32[])": {
        "notice": "Insert multiple leaves into the Merkle Tree, and then update the root, and update any values in the (persistently stored) frontier."
      }
    }
  }
}