{
  "contractName": "MerkleTreeController",
  "abi": [
    {
      "constant": true,
      "inputs": [],
      "name": "treeHeight",
      "outputs": [
        {
          "name": "",
          "type": "uint256"
        }
      ],
      "payable": false,
      "stateMutability": "view",
      "type": "function"
    },
    {
      "constant": false,
      "inputs": [
        {
          "name": "valuesToConvertToLeafValues",
          "type": "uint256[25]"
        }
      ],
      "name": "bytes32ArrayEncoder",
      "outputs": [
        {
          "name": "",
          "type": "bytes32"
        }
      ],
      "payable": false,
      "stateMutability": "nonpayable",
      "type": "function"
    },
    {
      "constant": true,
      "inputs": [],
      "name": "leafCount",
      "outputs": [
        {
          "name": "",
          "type": "uint256"
        }
      ],
      "payable": false,
      "stateMutability": "view",
      "type": "function"
    },
    {
      "constant": false,
      "inputs": [
        {
          "name": "valueToConvertToLeafValue",
          "type": "uint256"
        }
      ],
      "name": "bytes32Encoder",
      "outputs": [
        {
          "name": "",
          "type": "bytes32"
        }
      ],
      "payable": false,
      "stateMutability": "nonpayable",
      "type": "function"
    },
    {
      "constant": false,
      "inputs": [
        {
          "name": "leafValue",
          "type": "bytes32"
        }
      ],
      "name": "insertLeaf",
      "outputs": [
        {
          "name": "",
          "type": "bytes32"
        }
      ],
      "payable": false,
      "stateMutability": "nonpayable",
      "type": "function"
    },
    {
      "constant": true,
      "inputs": [],
      "name": "treeWidth",
      "outputs": [
        {
          "name": "",
          "type": "uint256"
        }
      ],
      "payable": false,
      "stateMutability": "view",
      "type": "function"
    },
    {
      "constant": true,
      "inputs": [],
      "name": "owner",
      "outputs": [
        {
          "name": "",
          "type": "address"
        }
      ],
      "payable": false,
      "stateMutability": "view",
      "type": "function"
    },
    {
      "constant": true,
      "inputs": [
        {
          "name": "",
          "type": "bytes32"
        }
      ],
      "name": "roots",
      "outputs": [
        {
          "name": "",
          "type": "bytes32"
        }
      ],
      "payable": false,
      "stateMutability": "view",
      "type": "function"
    },
    {
      "constant": true,
      "inputs": [],
      "name": "latestRoot",
      "outputs": [
        {
          "name": "",
          "type": "bytes32"
        }
      ],
      "payable": false,
      "stateMutability": "view",
      "type": "function"
    },
    {
      "constant": false,
      "inputs": [
        {
          "name": "leafValues",
          "type": "bytes32[]"
        }
      ],
      "name": "insertLeaves",
      "outputs": [
        {
          "name": "",
          "type": "bytes32"
        }
      ],
      "payable": false,
      "stateMutability": "nonpayable",
      "type": "function"
    },
    {
      "inputs": [
        {
          "name": "_treeHeight",
          "type": "uint256"
        }
      ],
      "payable": false,
      "stateMutability": "nonpayable",
      "type": "constructor"
    },
    {
      "anonymous": false,
      "inputs": [
        {
          "indexed": false,
          "name": "leafIndex",
          "type": "uint256"
        },
        {
          "indexed": false,
          "name": "leafValue",
          "type": "bytes32"
        },
        {
          "indexed": false,
          "name": "root",
          "type": "bytes32"
        }
      ],
      "name": "newLeaf",
      "type": "event"
    },
    {
      "anonymous": false,
      "inputs": [
        {
          "indexed": false,
          "name": "minLeafIndex",
          "type": "uint256"
        },
        {
          "indexed": false,
          "name": "leafValues",
          "type": "bytes32[]"
        },
        {
          "indexed": false,
          "name": "root",
          "type": "bytes32"
        }
      ],
      "name": "newLeaves",
      "type": "event"
    },
    {
      "constant": false,
      "inputs": [
        {
          "name": "leafValue",
          "type": "bytes32"
        }
      ],
      "name": "_insertLeaf",
      "outputs": [],
      "payable": false,
      "stateMutability": "nonpayable",
      "type": "function"
    },
    {
      "constant": false,
      "inputs": [
        {
          "name": "leafValues",
          "type": "bytes32[]"
        }
      ],
      "name": "_insertLeaves",
      "outputs": [],
      "payable": false,
      "stateMutability": "nonpayable",
      "type": "function"
    }
  ],
  "bytecode": "0x60806040526000801b60005534801561001757600080fd5b50604051602080610e6e8339810180604052602081101561003757600080fd5b810190808051906020019092919050505080806001819055508060020a6002819055505033602560006101000a81548173ffffffffffffffffffffffffffffffffffffffff021916908373ffffffffffffffffffffffffffffffffffffffff16021790555050610dc2806100ac6000396000f3fe608060405234801561001057600080fd5b50600436106100b45760003560e01c806371b625411161007157806371b625411461026d57806376c601b11461029b5780638da5cb5b146102b9578063ae6dead714610303578063d7b0fef114610345578063dc52bf9f14610363576100b4565b806301e3e915146100b957806303ebd1d4146100d7578063226ae84a1461015057806330e69fc3146101cb5780634b6e4222146101e95780635c8b80ab1461022b575b600080fd5b6100c161042f565b6040518082815260200191505060405180910390f35b61014e600480360360208110156100ed57600080fd5b810190808035906020019064010000000081111561010a57600080fd5b82018360208201111561011c57600080fd5b8035906020019184602083028401116401000000008311171561013e57600080fd5b9091929391929390505050610435565b005b6101b5600480360361032081101561016757600080fd5b810190808061032001906019806020026040519081016040528092919082601960200280828437600081840152601f19601f820116905080830192505050505050919291929050505061052e565b6040518082815260200191505060405180910390f35b6101d36105bf565b6040518082815260200191505060405180910390f35b610215600480360360208110156101ff57600080fd5b81019080803590602001909291905050506105c5565b6040518082815260200191505060405180910390f35b6102576004803603602081101561024157600080fd5b81019080803590602001909291905050506105df565b6040518082815260200191505060405180910390f35b6102996004803603602081101561028357600080fd5b81019080803590602001909291905050506107c2565b005b6102a3610879565b6040518082815260200191505060405180910390f35b6102c161087f565b604051808273ffffffffffffffffffffffffffffffffffffffff1673ffffffffffffffffffffffffffffffffffffffff16815260200191505060405180910390f35b61032f6004803603602081101561031957600080fd5b81019080803590602001909291905050506108a5565b6040518082815260200191505060405180910390f35b61034d6108bd565b6040518082815260200191505060405180910390f35b6104196004803603602081101561037957600080fd5b810190808035906020019064010000000081111561039657600080fd5b8201836020820111156103a857600080fd5b803590602001918460208302840111640100000000831117156103ca57600080fd5b919080806020026020016040519081016040528093929190818152602001838360200280828437600081840152601f19601f8201169050808301925050505050505091929192905050506108c3565b6040518082815260200191505060405180910390f35b60015481565b602560009054906101000a900473ffffffffffffffffffffffffffffffffffffffff1673ffffffffffffffffffffffffffffffffffffffff163373ffffffffffffffffffffffffffffffffffffffff16146104db576040517f08c379a000000000000000000000000000000000000000000000000000000000815260040180806020018281038252602e815260200180610d69602e913960400191505060405180910390fd5b6000610527838380806020026020016040519081016040528093929190818152602001838360200280828437600081840152601f19601f820116905080830192505050505050506108c3565b9050505050565b6000606060196040519080825280602002602001820160405280156105625781602001602082028038833980820191505090505b50905060008090505b60198110156105ad5783816019811061058057fe5b602002015160001b82828151811061059457fe5b602002602001018181525050808060010191505061056b565b506105b7816108c3565b915050919050565b60245481565b6000808260001b90506105d7816105df565b915050919050565b6000806105ed602454610cad565b9050600060028054602454010390506000849050610609610d24565b610611610d46565b600080600090505b600154811015610758578681141561063f57846003886021811061063957fe5b01819055505b60006002878161064b57fe5b0614156106d8576003816021811061065f57fe5b01548460006002811061066e57fe5b602002018181525050848460016002811061068557fe5b60200201818152505060208360408660006002600019f1915081600081146106ac576106ae565bfe5b50826000600181106106bc57fe5b60200201519450600260018703816106d057fe5b04955061074b565b84846000600281106106e657fe5b602002018181525050600054846001600281106106ff57fe5b60200201818152505060208360408660006002600019f19150816000811461072657610728565bfe5b508260006001811061073657fe5b602002015194506002868161074757fe5b0495505b8080600101915050610619565b507f961d75dfa6cbcadcc3eb9732500ab98db65e36ae3ebe7f32daa7b1c37dc731b1602454898660405180848152602001838152602001828152602001935050505060405180910390a1602460008154809291906001019190505550839650505050505050919050565b602560009054906101000a900473ffffffffffffffffffffffffffffffffffffffff1673ffffffffffffffffffffffffffffffffffffffff163373ffffffffffffffffffffffffffffffffffffffff1614610868576040517f08c379a000000000000000000000000000000000000000000000000000000000815260040180806020018281038252602e815260200180610d69602e913960400191505060405180910390fd5b6000610873826105df565b90505050565b60025481565b602560009054906101000a900473ffffffffffffffffffffffffffffffffffffffff1681565b60266020528060005260406000206000915090505481565b60275481565b6000808251905060245460025403811115610913576000602454600254038203905060008090505b81811015610907576001855103855280806001019150506108eb565b50602454600254039150505b6000806000610920610d24565b610928610d46565b60008060245490505b87811015610ad4578960245482038151811061094957fe5b6020026020010151945061095c81610cad565b9650600087141561097f57846003886021811061097557fe5b0181905550610ac7565b6002805482010395506000600190505b878111610ab2576000600288816109a257fe5b061415610a3257600360018203602181106109b957fe5b0154856000600281106109c857fe5b60200201818152505085856001600281106109df57fe5b60200201818152505060208460408760006002600019f192508260008114610a0657610a08565bfe5b5083600060018110610a1657fe5b6020020151955060026001880381610a2a57fe5b049650610aa5565b8585600060028110610a4057fe5b60200201818152505060005485600160028110610a5957fe5b60200201818152505060208460408760006002600019f192508260008114610a8057610a82565bfe5b5083600060018110610a9057fe5b6020020151955060028781610aa157fe5b0496505b808060010191505061098f565b508460038860218110610ac157fe5b01819055505b8080600101915050610931565b5060006001870190505b6001548111610c0357600060028781610af357fe5b061415610b835760036001820360218110610b0a57fe5b015484600060028110610b1957fe5b6020020181815250508484600160028110610b3057fe5b60200201818152505060208360408660006002600019f191508160008114610b5757610b59565bfe5b5082600060018110610b6757fe5b6020020151945060026001870381610b7b57fe5b049550610bf6565b8484600060028110610b9157fe5b60200201818152505060005484600160028110610baa57fe5b60200201818152505060208360408660006002600019f191508160008114610bd157610bd3565bfe5b5082600060018110610be157fe5b6020020151945060028681610bf257fe5b0495505b8080600101915050610ade565b507f90804955ce158dc0821dd7cbb6eaa48ad3e31bd650e7ef7f7b819e525acdad136024548a866040518084815260200180602001838152602001828103825284818151815260200191508051906020019060200280838360005b83811015610c79578082015181840152602081019050610c5e565b5050505090500194505050505060405180910390a18660246000828254019250508190555083975050505050505050919050565b6000809050600160028381610cbe57fe5b061415610d1f576000600190506000600290506000600182901b90505b6000841415610d1b5760008183600188010381610cf457fe5b061415610d0357829350610d16565b809150600181901b905082806001019350505b610cdb565b5050505b919050565b6040518060400160405280600290602082028038833980820191505090505090565b604051806020016040528060019060208202803883398082019150509050509056fe596f7520617265206e6f7420617574686f726973656420746f20696e766f6b6520746869732066756e6374696f6ea165627a7a7230582005d92c555420005dac817a89db853b40f6ad88cdce1613154db19ad744ce08320029",
  "source": "/**\nContract to enable the management of hidden non fungible toke transactions.\n@Author Westlad, Chaitanya-Konda, iAmMichaelConnor\n*/\npragma solidity ^0.5.8;\n\nimport \"./MerkleTree.sol\";\n\ncontract MerkleTreeController is MerkleTree {\n\n    address public owner; // We'll demonstrate simple 'permissioning' to update leaves by only allowing the owner to update leaves.\n\n    mapping(bytes32 => bytes32) public roots; // Example of a way to hold every root that's been calculated by this contract. This isn't actually used by this simple example-contract.\n\n    bytes32 public latestRoot; // Example of a way to hold the latest root so that users can retrieve it. This isn't actually used by this simple example-contract.\n\n    /**\n    We'll demonstrate simple 'permissioning' to update leaves by only allowing the owner to update leaves.\n    @dev Throws if called by any account other than the owner.\n    */\n    modifier onlyOwner() {\n        require(msg.sender == owner, \"You are not authorised to invoke this function\");\n        _;\n    }\n\n    /**\n    Constructor for the MerkleTreeController contract. We also need to specify the arguments for the Base contract's (MerkleTree.sol's) constructor. We do this through a \"modifier\" of this 'derived' contract's constructor (hence the unusual 'MerkleTree' \"modifier\" directly below):\n    */\n    constructor(uint _treeHeight) MerkleTree(_treeHeight) public {\n        owner = msg.sender;\n    }\n\n    /**\n    Append a leaf to the tree\n    */\n    function _insertLeaf(bytes32 leafValue) external onlyOwner {\n\n        bytes32 root = insertLeaf(leafValue); // recalculate the root of the tree\n\n        // emit newLeaf(leafCount, leafValue, root); // this event is what the merkle-tree microservice's filter will listen for.\n    }\n\n    /**\n    Append leaves to the tree\n    */\n    function _insertLeaves(bytes32[] calldata leafValues) external onlyOwner {\n\n        bytes32 root = insertLeaves(leafValues); // recalculate the root of the tree\n\n        // emit newLeaf(leafCount, leafValue, root); // this event is what the merkle-tree microservice's filter will listen for.\n    }\n}\n",
  "sourcePath": "/Users/em137vl/git/merkle-tree/deployer/contracts/MerkleTreeController.sol",
  "compiler": {
    "name": "solc",
    "version": "0.5.8+commit.23d335f2.Emscripten.clang"
  },
  "schemaVersion": "3.0.9",
  "updatedAt": "2019-11-07T11:07:02.276Z",
  "devdoc": {
    "methods": {}
  },
  "userdoc": {
    "methods": {
      "_insertLeaf(bytes32)": {
        "notice": "Append a leaf to the tree"
      },
      "_insertLeaves(bytes32[])": {
        "notice": "Append leaves to the tree"
      },
      "constructor": "Constructor for the MerkleTreeController contract. We also need to specify the arguments for the Base contract's (MerkleTree.sol's) constructor. We do this through a \"modifier\" of this 'derived' contract's constructor (hence the unusual 'MerkleTree' \"modifier\" directly below):"
    }
  }
}