{
  "contractName": "MerkleTreeControllerMiMC",
  "abi": [
    {
      "constant": true,
      "inputs": [],
      "name": "treeHeight",
      "outputs": [
        {
          "name": "",
          "type": "uint256"
        }
      ],
      "payable": false,
      "stateMutability": "view",
      "type": "function"
    },
    {
      "constant": true,
      "inputs": [
        {
          "name": "in_msgs",
          "type": "uint256[]"
        },
        {
          "name": "in_key",
          "type": "uint256"
        }
      ],
      "name": "Hash",
      "outputs": [
        {
          "name": "",
          "type": "uint256"
        }
      ],
      "payable": false,
      "stateMutability": "pure",
      "type": "function"
    },
    {
      "constant": true,
      "inputs": [
        {
          "name": "leafIndex",
          "type": "uint256"
        }
      ],
      "name": "getFrontierSlot",
      "outputs": [
        {
          "name": "slot",
          "type": "uint256"
        }
      ],
      "payable": false,
      "stateMutability": "pure",
      "type": "function"
    },
    {
      "constant": true,
      "inputs": [],
      "name": "leafCount",
      "outputs": [
        {
          "name": "",
          "type": "uint256"
        }
      ],
      "payable": false,
      "stateMutability": "view",
      "type": "function"
    },
    {
      "constant": true,
      "inputs": [
        {
          "name": "in_msgs",
          "type": "bytes32[2]"
        }
      ],
      "name": "mimcHash2",
      "outputs": [
        {
          "name": "",
          "type": "bytes32"
        }
      ],
      "payable": false,
      "stateMutability": "pure",
      "type": "function"
    },
    {
      "constant": false,
      "inputs": [
        {
          "name": "leafValue",
          "type": "bytes32"
        }
      ],
      "name": "insertLeaf",
      "outputs": [
        {
          "name": "root",
          "type": "bytes32"
        }
      ],
      "payable": false,
      "stateMutability": "nonpayable",
      "type": "function"
    },
    {
      "constant": true,
      "inputs": [],
      "name": "treeWidth",
      "outputs": [
        {
          "name": "",
          "type": "uint256"
        }
      ],
      "payable": false,
      "stateMutability": "view",
      "type": "function"
    },
    {
      "constant": true,
      "inputs": [],
      "name": "owner",
      "outputs": [
        {
          "name": "",
          "type": "address"
        }
      ],
      "payable": false,
      "stateMutability": "view",
      "type": "function"
    },
    {
      "constant": true,
      "inputs": [
        {
          "name": "in_x",
          "type": "uint256"
        },
        {
          "name": "in_k",
          "type": "uint256"
        }
      ],
      "name": "Encipher",
      "outputs": [
        {
          "name": "out_x",
          "type": "uint256"
        }
      ],
      "payable": false,
      "stateMutability": "pure",
      "type": "function"
    },
    {
      "constant": true,
      "inputs": [
        {
          "name": "in_msgs",
          "type": "bytes32[]"
        }
      ],
      "name": "mimcHash",
      "outputs": [
        {
          "name": "",
          "type": "bytes32"
        }
      ],
      "payable": false,
      "stateMutability": "pure",
      "type": "function"
    },
    {
      "constant": true,
      "inputs": [
        {
          "name": "",
          "type": "bytes32"
        }
      ],
      "name": "roots",
      "outputs": [
        {
          "name": "",
          "type": "bytes32"
        }
      ],
      "payable": false,
      "stateMutability": "view",
      "type": "function"
    },
    {
      "constant": true,
      "inputs": [],
      "name": "latestRoot",
      "outputs": [
        {
          "name": "",
          "type": "bytes32"
        }
      ],
      "payable": false,
      "stateMutability": "view",
      "type": "function"
    },
    {
      "constant": false,
      "inputs": [
        {
          "name": "leafValues",
          "type": "bytes32[]"
        }
      ],
      "name": "insertLeaves",
      "outputs": [
        {
          "name": "root",
          "type": "bytes32"
        }
      ],
      "payable": false,
      "stateMutability": "nonpayable",
      "type": "function"
    },
    {
      "inputs": [],
      "payable": false,
      "stateMutability": "nonpayable",
      "type": "constructor"
    },
    {
      "anonymous": false,
      "inputs": [
        {
          "indexed": false,
          "name": "leafIndex",
          "type": "uint256"
        },
        {
          "indexed": false,
          "name": "leafValue",
          "type": "bytes32"
        },
        {
          "indexed": false,
          "name": "root",
          "type": "bytes32"
        }
      ],
      "name": "NewLeaf",
      "type": "event"
    },
    {
      "anonymous": false,
      "inputs": [
        {
          "indexed": false,
          "name": "minLeafIndex",
          "type": "uint256"
        },
        {
          "indexed": false,
          "name": "leafValues",
          "type": "bytes32[]"
        },
        {
          "indexed": false,
          "name": "root",
          "type": "bytes32"
        }
      ],
      "name": "NewLeaves",
      "type": "event"
    },
    {
      "anonymous": false,
      "inputs": [
        {
          "indexed": false,
          "name": "input",
          "type": "bytes32[2]"
        },
        {
          "indexed": false,
          "name": "output",
          "type": "bytes32[1]"
        },
        {
          "indexed": false,
          "name": "nodeIndex",
          "type": "uint256"
        },
        {
          "indexed": false,
          "name": "leafCount",
          "type": "uint256"
        }
      ],
      "name": "Output",
      "type": "event"
    },
    {
      "constant": false,
      "inputs": [
        {
          "name": "leafValue",
          "type": "bytes32"
        }
      ],
      "name": "_insertLeaf",
      "outputs": [],
      "payable": false,
      "stateMutability": "nonpayable",
      "type": "function"
    },
    {
      "constant": false,
      "inputs": [
        {
          "name": "leafValues",
          "type": "bytes32[]"
        }
      ],
      "name": "_insertLeaves",
      "outputs": [],
      "payable": false,
      "stateMutability": "nonpayable",
      "type": "function"
    }
  ],
  "bytecode": "0x6080604052602060005560005460020a6001556000801b60035534801561002557600080fd5b5033602560006101000a81548173ffffffffffffffffffffffffffffffffffffffff021916908373ffffffffffffffffffffffffffffffffffffffff1602179055506113a8806100766000396000f3fe608060405234801561001057600080fd5b50600436106100f55760003560e01c806371b6254111610097578063aa0324a011610066578063aa0324a014610464578063ae6dead714610530578063d7b0fef114610572578063dc52bf9f14610590576100f5565b806371b625411461038257806376c601b1146103b05780638da5cb5b146103ce57806396d8d82014610418576100f5565b80632a3a8183116100d35780632a3a81831461026757806330e69fc3146102a9578063599a29e4146102c75780635c8b80ab14610340576100f5565b806301e3e915146100fa57806303ebd1d4146101185780630fa16e3814610191575b600080fd5b61010261065c565b6040518082815260200191505060405180910390f35b61018f6004803603602081101561012e57600080fd5b810190808035906020019064010000000081111561014b57600080fd5b82018360208201111561015d57600080fd5b8035906020019184602083028401116401000000008311171561017f57600080fd5b9091929391929390505050610662565b005b610251600480360360408110156101a757600080fd5b81019080803590602001906401000000008111156101c457600080fd5b8201836020820111156101d657600080fd5b803590602001918460208302840111640100000000831117156101f857600080fd5b919080806020026020016040519081016040528093929190818152602001838360200280828437600081840152601f19601f82011690508083019250505050505050919291929080359060200190929190505050610762565b6040518082815260200191505060405180910390f35b6102936004803603602081101561027d57600080fd5b81019080803590602001909291905050506107ec565b6040518082815260200191505060405180910390f35b6102b1610863565b6040518082815260200191505060405180910390f35b61032a600480360360408110156102dd57600080fd5b8101908080604001906002806020026040519081016040528092919082600260200280828437600081840152601f19601f8201169050808301925050505050509192919290505050610869565b6040518082815260200191505060405180910390f35b61036c6004803603602081101561035657600080fd5b8101908080359060200190929190505050610912565b6040518082815260200191505060405180910390f35b6103ae6004803603602081101561039857600080fd5b8101908080359060200190929190505050610b4e565b005b6103b8610c0c565b6040518082815260200191505060405180910390f35b6103d6610c12565b604051808273ffffffffffffffffffffffffffffffffffffffff1673ffffffffffffffffffffffffffffffffffffffff16815260200191505060405180910390f35b61044e6004803603604081101561042e57600080fd5b810190808035906020019092919080359060200190929190505050610c38565b6040518082815260200191505060405180910390f35b61051a6004803603602081101561047a57600080fd5b810190808035906020019064010000000081111561049757600080fd5b8201836020820111156104a957600080fd5b803590602001918460208302840111640100000000831117156104cb57600080fd5b919080806020026020016040519081016040528093929190818152602001838360200280828437600081840152601f19601f820116905080830192505050505050509192919290505050610cc2565b6040518082815260200191505060405180910390f35b61055c6004803603602081101561054657600080fd5b8101908080359060200190929190505050610d5b565b6040518082815260200191505060405180910390f35b61057a610d73565b6040518082815260200191505060405180910390f35b610646600480360360208110156105a657600080fd5b81019080803590602001906401000000008111156105c357600080fd5b8201836020820111156105d557600080fd5b803590602001918460208302840111640100000000831117156105f757600080fd5b919080806020026020016040519081016040528093929190818152602001838360200280828437600081840152601f19601f820116905080830192505050505050509192919290505050610d79565b6040518082815260200191505060405180910390f35b60005481565b602560009054906101000a900473ffffffffffffffffffffffffffffffffffffffff1673ffffffffffffffffffffffffffffffffffffffff163373ffffffffffffffffffffffffffffffffffffffff1614610708576040517f08c379a000000000000000000000000000000000000000000000000000000000815260040180806020018281038252602e81526020018061134f602e913960400191505060405180910390fd5b6000610754838380806020026020016040519081016040528093929190818152602001838360200280828437600081840152601f19601f82011690508083019250505050505050610d79565b905080602781905550505050565b600080636d696d6360e01b90506107e384848360405160200180827bffffffffffffffffffffffffffffffffffffffffffffffffffffffff19167bffffffffffffffffffffffffffffffffffffffffffffffffffffffff191681526004019150506040516020818303038152906040528051906020012060001c605b6111bc565b91505092915050565b60008090506001600283816107fd57fe5b06141561085e576000600190506000600290506000600182901b90505b600084141561085a576000818360018801038161083357fe5b06141561084257829350610855565b809150600181901b905082806001019350505b61081a565b5050505b919050565b60025481565b60006060600260405190808252806020026020018201604052801561089d5781602001602082028038833980820191505090505b509050826000600281106108ad57fe5b602002015160001c816000815181106108c257fe5b602002602001018181525050826001600281106108db57fe5b602002015160001c816001815181106108f057fe5b602002602001018181525050610907816000610762565b60001b915050919050565b600060025460015411610970576040517f08c379a000000000000000000000000000000000000000000000000000000000815260040180806020018281038252602381526020018061132c6023913960400191505060405180910390fd5b600061097d6002546107ec565b90506000600180546002540103905060008490506109996112e7565b6109a1611309565b60008090505b600054811015610ae257858114156109cd5783600487602181106109c757fe5b01819055505b6000600286816109d957fe5b061415610a6457600481602181106109ed57fe5b0154836000600281106109fc57fe5b6020020181815250508383600160028110610a1357fe5b602002018181525050610a2583610869565b82600060018110610a3257fe5b60200201818152505081600060018110610a4857fe5b6020020151935060026001860381610a5c57fe5b049450610ad5565b8383600060028110610a7257fe5b60200201818152505060035483600160028110610a8b57fe5b602002018181525050610a9d83610869565b82600060018110610aaa57fe5b60200201818152505081600060018110610ac057fe5b6020020151935060028581610ad157fe5b0494505b80806001019150506109a7565b508295507f6a82ba2aa1d2c039c41e6e2b5a5a1090d09906f060d32af9c1ac0beff7af75c0600254888860405180848152602001838152602001828152602001935050505060405180910390a16002600081548092919060010191905055508595505050505050919050565b602560009054906101000a900473ffffffffffffffffffffffffffffffffffffffff1673ffffffffffffffffffffffffffffffffffffffff163373ffffffffffffffffffffffffffffffffffffffff1614610bf4576040517f08c379a000000000000000000000000000000000000000000000000000000000815260040180806020018281038252602e81526020018061134f602e913960400191505060405180910390fd5b6000610bff82610912565b9050806027819055505050565b60015481565b602560009054906101000a900473ffffffffffffffffffffffffffffffffffffffff1681565b600080636d696d6360e01b9050610cb984848360405160200180827bffffffffffffffffffffffffffffffffffffffffffffffffffffffff19167bffffffffffffffffffffffffffffffffffffffffffffffffffffffff191681526004019150506040516020818303038152906040528051906020012060001c605b61125b565b91505092915050565b600060608251604051908082528060200260200182016040528015610cf65781602001602082028038833980820191505090505b50905060008090505b8351811015610d4457838181518110610d1457fe5b602002602001015160001c828281518110610d2b57fe5b6020026020010181815250508080600101915050610cff565b50610d50816000610762565b60001b915050919050565b60266020528060005260406000206000915090505481565b60275481565b6000808251905060025460015411610ddc576040517f08c379a000000000000000000000000000000000000000000000000000000000815260040180806020018281038252602381526020018061132c6023913960400191505060405180910390fd5b60025460015403811115610e25576000600254600154038203905060008090505b81811015610e1957600185510385528080600101915050610dfd565b50600254600154039150505b6000806000610e326112e7565b610e3a611309565b600060025490505b8660025401811015610fe55788600254820381518110610e5e57fe5b60200260200101519350600180548201039450610e7a816107ec565b95506000861415610e9d578360048760218110610e9357fe5b0181905550610fd8565b6000600190505b868111610fc357600060028781610eb757fe5b061415610f455760046001820360218110610ece57fe5b015484600060028110610edd57fe5b6020020181815250508484600160028110610ef457fe5b602002018181525050610f0684610869565b83600060018110610f1357fe5b60200201818152505082600060018110610f2957fe5b6020020151945060026001870381610f3d57fe5b049550610fb6565b8484600060028110610f5357fe5b60200201818152505060035484600160028110610f6c57fe5b602002018181525050610f7e84610869565b83600060018110610f8b57fe5b60200201818152505082600060018110610fa157fe5b6020020151945060028681610fb257fe5b0495505b8080600101915050610ea4565b508360048760218110610fd257fe5b01819055505b8080600101915050610e42565b5060006001860190505b60005481116111105760006002868161100457fe5b061415611092576004600182036021811061101b57fe5b01548360006002811061102a57fe5b602002018181525050838360016002811061104157fe5b60200201818152505061105383610869565b8260006001811061106057fe5b6020020181815250508160006001811061107657fe5b602002015193506002600186038161108a57fe5b049450611103565b83836000600281106110a057fe5b602002018181525050600354836001600281106110b957fe5b6020020181815250506110cb83610869565b826000600181106110d857fe5b602002018181525050816000600181106110ee57fe5b60200201519350600285816110ff57fe5b0494505b8080600101915050610fef565b508296507f8ec50f97970775682a68d3c6f9caedf60fd82448ea40706b8b65d6c03648b92260025489896040518084815260200180602001838152602001828103825284818151815260200191508051906020019060200280838360005b8381101561118957808201518184015260208101905061116e565b5050505090500194505050505060405180910390a185600260008282540192505081905550869650505050505050919050565b60008084905060007f30644e72e131a029b85045b68181585d2833e84879b9709143e1f593f0000001905060008090505b875181101561124d578161121689838151811061120657fe5b602002602001015185898961125b565b838a848151811061122357fe5b60200260200101518161123257fe5b068501018161123d57fe5b06925080806001019150506111ed565b829350505050949350505050565b6000600182101561126b57600080fd5b604051602081016040528381527f30644e72e131a029b85045b68181585d2833e84879b9709143e1f593f0000001600080855b60008111156112d45760208520855283898587518d0808925083838409915083838586858609850909995060018103905061129e565b5082888a08945050505050949350505050565b6040518060400160405280600290602082028038833980820191505090505090565b604051806020016040528060019060208202803883398082019150509050509056fe5468657265206973206e6f207370616365206c65667420696e2074686520747265652e596f7520617265206e6f7420617574686f726973656420746f20696e766f6b6520746869732066756e6374696f6ea165627a7a72305820592729d34d6173553efa715b7baf489b3cff6df1e02aeba7d4502cd1804f63770029",
  "source": "/**\nContract to manage permissions to update the leaves of the imported MerkleTree contract (which is the base contract which handles tree inserts and updates).\n\n@Author iAmMichaelConnor\n*/\npragma solidity ^0.5.8;\n\nimport \"./MerkleTreeMiMC.sol\";\n\ncontract MerkleTreeControllerMiMC is MerkleTreeMiMC {\n\n    address public owner; // We'll demonstrate simple 'permissioning' to update leaves by only allowing the owner to update leaves.\n\n    mapping(bytes32 => bytes32) public roots; // Example of a way to hold every root that's been calculated by this contract. This isn't actually used by this simple example-contract.\n\n    bytes32 public latestRoot; // Example of a way to hold the latest root so that users can retrieve it. This isn't actually used by this simple example-contract.\n\n    /**\n    We'll demonstrate simple 'permissioning' to update leaves by only allowing the owner to update leaves.\n    @dev Throws if called by any account other than the owner.\n    */\n    modifier onlyOwner() {\n        require(msg.sender == owner, \"You are not authorised to invoke this function\");\n        _;\n    }\n\n    /**\n    @notice Constructor for the MerkleTreeController contract.\n    */\n    constructor() public {\n        owner = msg.sender;\n    }\n\n    /**\n    @notice Append a leaf to the tree\n    @param leafValue - the value of the leaf being inserted.\n    */\n    function _insertLeaf(bytes32 leafValue) external onlyOwner {\n\n        bytes32 root = insertLeaf(leafValue); // recalculate the root of the tree\n\n        // roots[root] = root;\n\n        latestRoot = root;\n    }\n\n    /**\n    @notice Append leaves to the tree\n    @param leafValues - the values of the leaves being inserted.\n    */\n    function _insertLeaves(bytes32[] calldata leafValues) external onlyOwner {\n\n        bytes32 root = insertLeaves(leafValues); // recalculate the root of the tree\n\n        // roots[root] = root;\n\n        latestRoot = root;\n    }\n}\n",
  "sourcePath": "/Users/miranda.Wooduk.ey.com/nightfallmimc/timber/deployer/contracts/MerkleTreeControllerMiMC.sol",
  "compiler": {
    "name": "solc",
    "version": "0.5.8+commit.23d335f2.Emscripten.clang"
  },
  "schemaVersion": "3.0.19",
  "updatedAt": "2020-02-11T14:32:09.425Z",
  "devdoc": {
    "methods": {
      "_insertLeaf(bytes32)": {
        "params": {
          "leafValue": "- the value of the leaf being inserted."
        }
      },
      "_insertLeaves(bytes32[])": {
        "params": {
          "leafValues": "- the values of the leaves being inserted."
        }
      },
      "getFrontierSlot(uint256)": {
        "return": "uint - the index of the frontier (or 'storage slot') into which we will next store a nodeValue"
      },
      "insertLeaf(bytes32)": {
        "params": {
          "leafValue": "- the value of the leaf being inserted."
        },
        "return": "bytes32 - the root of the merkle tree, after the insert."
      },
      "insertLeaves(bytes32[])": {
        "params": {
          "leafValues": "- the values of the leaves being inserted."
        },
        "return": "bytes32[] - the root of the merkle tree, after all the inserts."
      }
    }
  },
  "userdoc": {
    "methods": {
      "_insertLeaf(bytes32)": {
        "notice": "Append a leaf to the tree"
      },
      "_insertLeaves(bytes32[])": {
        "notice": "Append leaves to the tree"
      },
      "constructor": "Constructor for the MerkleTreeController contract.",
      "getFrontierSlot(uint256)": {
        "notice": "Get the index of the frontier (or 'storage slot') into which we will next store a nodeValue (based on the leafIndex currently being inserted). See the top-level README for a detailed explanation."
      },
      "insertLeaf(bytes32)": {
        "notice": "Insert a leaf into the Merkle Tree, update the root, and update any values in the (persistently stored) frontier."
      },
      "insertLeaves(bytes32[])": {
        "notice": "Insert multiple leaves into the Merkle Tree, and then update the root, and update any values in the (persistently stored) frontier."
      }
    }
  }
}