{
  "contractName": "MerkleTree",
  "abi": [
    {
      "constant": true,
      "inputs": [],
      "name": "treeHeight",
      "outputs": [
        {
          "name": "",
          "type": "uint256"
        }
      ],
      "payable": false,
      "stateMutability": "view",
      "type": "function"
    },
    {
      "constant": true,
      "inputs": [],
      "name": "leafCount",
      "outputs": [
        {
          "name": "",
          "type": "uint256"
        }
      ],
      "payable": false,
      "stateMutability": "view",
      "type": "function"
    },
    {
      "constant": true,
      "inputs": [],
      "name": "treeWidth",
      "outputs": [
        {
          "name": "",
          "type": "uint256"
        }
      ],
      "payable": false,
      "stateMutability": "view",
      "type": "function"
    },
    {
      "anonymous": false,
      "inputs": [
        {
          "indexed": false,
          "name": "leafIndex",
          "type": "uint256"
        },
        {
          "indexed": false,
          "name": "leafValue",
          "type": "bytes32"
        },
        {
          "indexed": false,
          "name": "root",
          "type": "bytes32"
        }
      ],
      "name": "NewLeaf",
      "type": "event"
    },
    {
      "anonymous": false,
      "inputs": [
        {
          "indexed": false,
          "name": "minLeafIndex",
          "type": "uint256"
        },
        {
          "indexed": false,
          "name": "leafValues",
          "type": "bytes32[]"
        },
        {
          "indexed": false,
          "name": "root",
          "type": "bytes32"
        }
      ],
      "name": "NewLeaves",
      "type": "event"
    },
    {
      "constant": false,
      "inputs": [
        {
          "name": "leafValue",
          "type": "bytes32"
        }
      ],
      "name": "insertLeaf",
      "outputs": [
        {
          "name": "root",
          "type": "bytes32"
        }
      ],
      "payable": false,
      "stateMutability": "nonpayable",
      "type": "function"
    },
    {
      "constant": false,
      "inputs": [
        {
          "name": "leafValues",
          "type": "bytes32[]"
        }
      ],
      "name": "insertLeaves",
      "outputs": [
        {
          "name": "root",
          "type": "bytes32"
        }
      ],
      "payable": false,
      "stateMutability": "nonpayable",
      "type": "function"
    }
  ],
  "bytecode": "0x6080604052602060005560005460020a600155600060281b600360006101000a8154817affffffffffffffffffffffffffffffffffffffffffffffffffffff021916908360281c021790555034801561005757600080fd5b506109b2806100676000396000f3fe608060405234801561001057600080fd5b50600436106100575760003560e01c806301e3e9151461005c57806330e69fc31461007a5780635c8b80ab1461009857806376c601b1146100da578063dc52bf9f146100f8575b600080fd5b6100646101c4565b6040518082815260200191505060405180910390f35b6100826101ca565b6040518082815260200191505060405180910390f35b6100c4600480360360208110156100ae57600080fd5b81019080803590602001909291905050506101d0565b6040518082815260200191505060405180910390f35b6100e261043a565b6040518082815260200191505060405180910390f35b6101ae6004803603602081101561010e57600080fd5b810190808035906020019064010000000081111561012b57600080fd5b82018360208201111561013d57600080fd5b8035906020019184602083028401116401000000008311171561015f57600080fd5b919080806020026020016040519081016040528093929190818152602001838360200280828437600081840152601f19601f820116905080830192505050505050509192919290505050610440565b6040518082815260200191505060405180910390f35b60005481565b60025481565b60006002546001541161022e576040517f08c379a00000000000000000000000000000000000000000000000000000000081526004018080602001828103825260238152602001806109646023913960400191505060405180910390fd5b600061023b6002546108ca565b9050600060018054600254010390506000602885901b905060008061025e610941565b600080600090505b6000548110156103bb57878114156102ba57856004896021811061028657fe5b0160006101000a8154817affffffffffffffffffffffffffffffffffffffffffffffffffffff021916908360281c02179055505b6000600288816102c657fe5b06141561034757600481602181106102da57fe5b0160009054906101000a900460281b945085935060405185815284601b8201526020846036836002600019fa9250826000811461031657610318565bfe5b505060288360006001811061032957fe5b6020020151901b95506002600188038161033f57fe5b0496506103ae565b859450600360009054906101000a900460281b935060405185815284601b8201526020846036836002600019fa9250826000811461038457610386565bfe5b505060288360006001811061039757fe5b6020020151901b9550600287816103aa57fe5b0496505b8080600101915050610266565b50816000600181106103c957fe5b602002015197507f6a82ba2aa1d2c039c41e6e2b5a5a1090d09906f060d32af9c1ac0beff7af75c06002548a8a60405180848152602001838152602001828152602001935050505060405180910390a160026000815480929190600101919050555087975050505050505050919050565b60015481565b60008082519050600254600154116104a3576040517f08c379a00000000000000000000000000000000000000000000000000000000081526004018080602001828103825260238152602001806109646023913960400191505060405180910390fd5b600254600154038111156104ec576000600254600154038203905060008090505b818110156104e0576001855103855280806001019150506104c4565b50600254600154039150505b60008060008060006104fc610941565b60008060025490505b88600254018110156106f45760288b60025483038151811061052357fe5b6020026020010151901b9550600180548201039650610541816108ca565b9750600088141561059257856004896021811061055a57fe5b0160006101000a8154817affffffffffffffffffffffffffffffffffffffffffffffffffffff021916908360281c02179055506106e7565b6000600190505b8881116106a4576000600289816105ac57fe5b06141561063057600460018203602181106105c357fe5b0160009054906101000a900460281b955086945060405186815285601b8201526020856036836002600019fa935083600081146105ff57610601565bfe5b505060288460006001811061061257fe5b6020020151901b96506002600189038161062857fe5b049750610697565b869550600360009054906101000a900460281b945060405186815285601b8201526020856036836002600019fa9350836000811461066d5761066f565bfe5b505060288460006001811061068057fe5b6020020151901b96506002888161069357fe5b0497505b8080600101915050610599565b5085600489602181106106b357fe5b0160006101000a8154817affffffffffffffffffffffffffffffffffffffffffffffffffffff021916908360281c02179055505b8080600101915050610505565b5060006001880190505b600054811161080b5760006002888161071357fe5b061415610797576004600182036021811061072a57fe5b0160009054906101000a900460281b945085935060405185815284601b8201526020846036836002600019fa9250826000811461076657610768565bfe5b505060288360006001811061077957fe5b6020020151901b95506002600188038161078f57fe5b0496506107fe565b859450600360009054906101000a900460281b935060405185815284601b8201526020846036836002600019fa925082600081146107d4576107d6565bfe5b50506028836000600181106107e757fe5b6020020151901b9550600287816107fa57fe5b0496505b80806001019150506106fe565b508160006001811061081957fe5b602002015198507f8ec50f97970775682a68d3c6f9caedf60fd82448ea40706b8b65d6c03648b9226002548b8b6040518084815260200180602001838152602001828103825284818151815260200191508051906020019060200280838360005b8381101561089557808201518184015260208101905061087a565b5050505090500194505050505060405180910390a1876002600082825401925050819055508898505050505050505050919050565b60008090506001600283816108db57fe5b06141561093c576000600190506000600290506000600182901b90505b6000841415610938576000818360018801038161091157fe5b06141561092057829350610933565b809150600181901b905082806001019350505b6108f8565b5050505b919050565b604051806020016040528060019060208202803883398082019150509050509056fe5468657265206973206e6f207370616365206c65667420696e2074686520747265652ea165627a7a72305820179193ca946491471bb92185c64ab7382d967691a897d4251eb530ead5cb9b050029",
  "source": "/**\nA base contract which handles Merkle Tree inserts (and consequent updates to the root and 'frontier' (see below)).\nThe intention is for other 'derived' contracts to import this contract, and for those derived contracts to manage permissions to actually call the insertLeaf/insertleaves functions of this base contract.\n\n@Author iAmMichaelConnor\n*/\n\npragma solidity ^0.5.8;\n\ncontract MerkleTree {\n\n    /*\n    @notice Explanation of the Merkle Tree in this contract:\n    This is an append-only merkle tree; populated from left to right.\n    We do not store all of the merkle tree's nodes. We only store the right-most 'frontier' of nodes required to calculate the new root when the next new leaf value is added.\n\n                      TREE (not stored)                       FRONTIER (stored)\n\n                                 0                                     ?\n                          /             \\\n                   1                             2                     ?\n               /       \\                     /       \\\n           3             4               5               6             ?\n         /   \\         /   \\           /   \\           /    \\\n       7       8      9      10      11      12      13      14        ?\n     /  \\    /  \\   /  \\    /  \\    /  \\    /  \\    /  \\    /  \\\n    15  16  17 18  19  20  21  22  23  24  25  26  27  28  29  30      ?\n\n    level  row  width  start#     end#\n      4     0   2^0=1   w=0     2^1-1=0\n      3     1   2^1=2   w=1     2^2-1=2\n      2     2   2^2=4   w=3     2^3-1=6\n      1     3   2^3=8   w=7     2^4-1=14\n      0     4   2^4=16  w=15    2^5-1=30\n\n    height = 4\n    w = width = 2 ** height = 2^4 = 16\n    #nodes = (2 ** (height + 1)) - 1 = 2^5-1 = 31\n\n    */\n\n    /**\n    These events are what the merkle-tree microservice's filters will listen for.\n    */\n    event NewLeaf(uint leafIndex, bytes32 leafValue, bytes32 root);\n    event NewLeaves(uint minLeafIndex, bytes32[] leafValues, bytes32 root);\n\n    // event Output(bytes27 leftInput, bytes27 rightInput, bytes32 output, uint nodeIndex); // for debugging only\n\n    uint public treeHeight = 32;\n    uint public treeWidth = 2 ** treeHeight; // 2 ** treeHeight\n    uint256 public leafCount; // the number of leaves currently in the tree\n\n    /**\n    Whilst ordinarily, we'd work solely with bytes32, we need to truncate nodeValues up the tree. Therefore, we need to declare certain variables with lower byte-lengths:\n    LEAF_HASHLENGTH = 32 bytes;\n    NODE_HASHLENGTH = 27 bytes;\n    5 byte difference * 8 bits per byte = 40 bit shift to truncate hashlengths.\n    27 bytes * 2 inputs to sha() = 54 byte input to sha(). 54 = 0x36.\n    If in future you want to change the truncation values, search for '27', '40' and '0x36'.\n    */\n    bytes27 zero = 0x000000000000000000000000000000000000000000000000000000;\n    // bytes32 zero = 0x0000000000000000000000000000000000000000000000000000000000000000;\n    bytes27[33] frontier; // the right-most 'frontier' of nodes required to calculate the new root when the next new leaf value is added.\n\n    /**\n    @notice Get the index of the frontier (or 'storage slot') into which we will next store a nodeValue (based on the leafIndex currently being inserted). See the top-level README for a detailed explanation.\n    @return uint - the index of the frontier (or 'storage slot') into which we will next store a nodeValue\n    */\n    function getFrontierSlot(uint leafIndex) private pure returns (uint slot) {\n        slot = 0;\n        if ( leafIndex % 2 == 1 ) {\n            uint exp1 = 1;\n            uint pow1 = 2;\n            uint pow2 = pow1 << 1;\n            while (slot == 0) {\n                if ( (leafIndex + 1 - pow1) % pow2 == 0 ) {\n                    slot = exp1;\n                } else {\n                    pow1 = pow2;\n                    pow2 = pow2 << 1;\n                    exp1++;\n                }\n            }\n        }\n    }\n\n    /**\n    @notice Insert a leaf into the Merkle Tree, update the root, and update any values in the (persistently stored) frontier.\n    @param leafValue - the value of the leaf being inserted.\n    @return bytes32 - the root of the merkle tree, after the insert.\n    */\n    function insertLeaf(bytes32 leafValue) public returns (bytes32 root) {\n\n        // check that space exists in the tree:\n        require(treeWidth > leafCount, \"There is no space left in the tree.\");\n\n        uint slot = getFrontierSlot(leafCount);\n        uint nodeIndex = leafCount + treeWidth - 1;\n        bytes27 nodeValue = bytes27(leafValue << 40); // nodeValue is the hash, which iteratively gets overridden to the top of the tree until it becomes the root.\n\n        bytes27 leftInput;\n        bytes27 rightInput;\n        bytes32[1] memory output; // output of the hash function\n        bool success;\n\n        for (uint level = 0; level < treeHeight; level++) {\n\n            if (level == slot) frontier[slot] = nodeValue;\n\n            if (nodeIndex % 2 == 0) {\n                // even nodeIndex\n                leftInput = frontier[level];\n                rightInput = nodeValue;\n\n                // compute the hash of the inputs:\n                // note: we don't extract this hashing into a separate function because that would cost more gas.\n                /*\n                  * gasLimit: calling with gas equal to not(0), as we have here, will send all available gas to the function being called. This removes the need to guess or upper-bound the amount of gas being sent yourself. As an alternative, we could have guessed the gas needed with: sub(gas, 2000)\n                  * to: the sha256 precompiled contract is at address 0x2: Sending the amount of gas currently available to us (or after subtracting 2000 gas if using the alternative mentioned above);\n                  * inputOffset: Input data to the sha256 precompiled contract.\n                  * inputSize:\n                    hex input size = 0x40 = 2 x 32-bytes\n                    OR\n                    hex input size = 0x36 = 2 x 27-bytes\n                  * outputOffset: \"where will the output be stored?\" (in variable 'output' in our case)\n                  * outputSize: sha256 outputs 256-bits = 32-bytes = 0x20 in hex\n                */\n                assembly {\n                    // define pointer\n                    let input := mload(0x40) // 0x40 is always the free memory pointer. Don't change this.\n                    mstore(input, leftInput) // push first input\n                    mstore(add(input, 0x1b), rightInput) // push second input at position 27bytes = 0x1b\n                    success := staticcall(not(0), 2, input, 0x36, output, 0x20)\n                    // Use \"invalid\" to make gas estimation work\n                    switch success case 0 { invalid() }\n                }\n\n                nodeValue = bytes27(output[0] << 40); // the parentValue, but will become the nodeValue of the next level\n                nodeIndex = (nodeIndex - 1) / 2; // move one row up the tree\n\n                // emit Output(leftInput, rightInput, output[0], nodeIndex); // for debugging only\n            } else {\n                // odd nodeIndex\n                leftInput = nodeValue;\n                rightInput = zero;\n\n                // compute the hash of the inputs:\n                assembly {\n                    // define pointer\n                    let input := mload(0x40) // 0x40 is always the free memory pointer. Don't change this.\n                    mstore(input, leftInput) // push first input\n                    mstore(add(input, 0x1b), rightInput) // push second input at position 27bytes = 0x1b\n                    success := staticcall(not(0), 2, input, 0x36, output, 0x20)\n                    // Use \"invalid\" to make gas estimation work\n                    switch success case 0 { invalid() }\n                }\n\n                nodeValue = bytes27(output[0] << 40); // the parentValue, but will become the nodeValue of the next level\n                nodeIndex = nodeIndex / 2; // move one row up the tree\n\n                // emit Output(leftInput, rightInput, output[0], nodeIndex); // for debugging only\n            }\n        }\n\n        root = output[0];\n\n        emit NewLeaf(leafCount, leafValue, root); // this event is what the merkle-tree microservice's filter will listen for.\n\n        leafCount++; // the incrememnting of leafCount costs us 20k for the first leaf, and 5k thereafter\n\n        return root; //the root of the tree\n    }\n\n    /**\n    @notice Insert multiple leaves into the Merkle Tree, and then update the root, and update any values in the (persistently stored) frontier.\n    @param leafValues - the values of the leaves being inserted.\n    @return bytes32[] - the root of the merkle tree, after all the inserts.\n    */\n    function insertLeaves(bytes32[] memory leafValues) public returns (bytes32 root) {\n        uint numberOfLeaves = leafValues.length;\n\n        // check that space exists in the tree:\n        require(treeWidth > leafCount, \"There is no space left in the tree.\");\n        if (numberOfLeaves > treeWidth - leafCount) {\n            uint numberOfExcessLeaves = numberOfLeaves - (treeWidth - leafCount);\n            // remove the excess leaves, because we only want to emit those we've added as an event:\n            for (uint xs = 0; xs < numberOfExcessLeaves; xs++) {\n                /**\n                  CAUTION!!! This attempts to succinctly achieve leafValues.pop() on a **memory** dynamic array. Not thoroughly tested!\n                  Credit: https://ethereum.stackexchange.com/a/51897/45916\n                */\n                assembly {\n                  mstore(leafValues, sub(mload(leafValues), 1))\n                }\n            }\n            numberOfLeaves = treeWidth - leafCount;\n        }\n\n        uint slot;\n        uint nodeIndex;\n        bytes27 nodeValue;\n\n        bytes27 leftInput;\n        bytes27 rightInput;\n        bytes32[1] memory output; // the output of the hash\n        bool success;\n\n        // consider each new leaf in turn, from left to right:\n        for (uint leafIndex = leafCount; leafIndex < leafCount + numberOfLeaves; leafIndex++) {\n            nodeValue = bytes27(leafValues[leafIndex - leafCount] << 40);\n            nodeIndex = leafIndex + treeWidth - 1; // convert the leafIndex to a nodeIndex\n\n            slot = getFrontierSlot(leafIndex); // determine at which level we will next need to store a nodeValue\n\n            if (slot == 0) {\n                frontier[slot] = nodeValue; // store in frontier\n                continue;\n            }\n\n            // hash up to the level whose nodeValue we'll store in the frontier slot:\n            for (uint level = 1; level <= slot; level++) {\n                if (nodeIndex % 2 == 0) {\n                    // even nodeIndex\n                    leftInput = frontier[level - 1];\n                    rightInput = nodeValue;\n                    // compute the hash of the inputs:\n                    // note: we don't extract this hashing into a separate function because that would cost more gas.\n                    assembly {\n                        // define pointer\n                        let input := mload(0x40) // 0x40 is always the free memory pointer. Don't change this.\n                        mstore(input, leftInput) // push first input\n                        mstore(add(input, 0x1b), rightInput) // push second input at position 27bytes = 0x1b\n                        success := staticcall(not(0), 2, input, 0x36, output, 0x20)\n                        // Use \"invalid\" to make gas estimation work\n                        switch success case 0 { invalid() }\n                    }\n\n                    // emit Output(leftInput, rightInput, output[0], level, nodeIndex); // for debugging only\n\n                    nodeValue = bytes27(output[0] << 40); // the parentValue, but will become the nodeValue of the next level\n                    nodeIndex = (nodeIndex - 1) / 2; // move one row up the tree\n                } else {\n                    // odd nodeIndex\n                    leftInput = nodeValue;\n                    rightInput = zero;\n                    // compute the hash of the inputs:\n                    assembly {\n                        // define pointer\n                        let input := mload(0x40) // 0x40 is always the free memory pointer. Don't change this.\n                        mstore(input, leftInput) // push first input\n                        mstore(add(input, 0x1b), rightInput) // push second input at position 27bytes = 0x1b\n                        success := staticcall(not(0), 2, input, 0x36, output, 0x20)\n                        // Use \"invalid\" to make gas estimation work\n                        switch success case 0 { invalid() }\n                    }\n\n                    // emit Output(leftInput, rightInput, output[0], level, nodeIndex); // for debugging only\n\n                    nodeValue = bytes27(output[0] << 40); // the parentValue, but will become the nodeValue of the next level\n                    nodeIndex = nodeIndex / 2; // the parentIndex, but will become the nodeIndex of the next level\n                }\n            }\n            frontier[slot] = nodeValue; // store in frontier\n        }\n\n        // So far we've added all leaves, and hashed up to a particular level of the tree. We now need to continue hashing from that level until the root:\n        for (uint level = slot + 1; level <= treeHeight; level++) {\n\n            if (nodeIndex % 2 == 0) {\n                // even nodeIndex\n                leftInput = frontier[level - 1];\n                rightInput = nodeValue;\n                // compute the hash of the inputs:\n                assembly {\n                    // define pointer\n                    let input := mload(0x40) // 0x40 is always the free memory pointer. Don't change this.\n                    mstore(input, leftInput) // push first input\n                    mstore(add(input, 0x1b), rightInput) // push second input at position 27bytes = 0x1b\n                    success := staticcall(not(0), 2, input, 0x36, output, 0x20)\n                    // Use \"invalid\" to make gas estimation work\n                    switch success case 0 { invalid() }\n                }\n\n                // emit Output(leftInput, rightInput, output[0], level, nodeIndex); // for debugging only\n\n                nodeValue = bytes27(output[0] << 40); // the parentValue, but will become the nodeValue of the next level\n                nodeIndex = (nodeIndex - 1) / 2;  // the parentIndex, but will become the nodeIndex of the next level\n            } else {\n                // odd nodeIndex\n                leftInput = nodeValue;\n                rightInput = zero;\n                // compute the hash of the inputs:\n                assembly {\n                    // define pointer\n                    let input := mload(0x40) // 0x40 is always the free memory pointer. Don't change this.\n                    mstore(input, leftInput) // push first input\n                    mstore(add(input, 0x1b), rightInput) // push second input at position 27bytes = 0x1b\n                    success := staticcall(not(0), 2, input, 0x36, output, 0x20)\n                    // Use \"invalid\" to make gas estimation work\n                    switch success case 0 { invalid() }\n                }\n\n                // emit Output(leftInput, rightInput, output[0], level, nodeIndex); // for debugging only\n\n                nodeValue = bytes27(output[0] << 40); // the parentValue, but will become the nodeValue of the next level\n                nodeIndex = nodeIndex / 2;  // the parentIndex, but will become the nodeIndex of the next level\n            }\n        }\n\n        root = output[0];\n\n        emit NewLeaves(leafCount, leafValues, root); // this event is what the merkle-tree microservice's filter will listen for.\n\n        leafCount += numberOfLeaves; // the incrememnting of leafCount costs us 20k for the first leaf, and 5k thereafter\n\n        return root; //the root of the tree\n    }\n}\n",
  "sourcePath": "/Users/em137vl/git/nightfall-merkle-tree/nightfall/merkle-tree/deployer/contracts/MerkleTree.sol",
  "compiler": {
    "name": "solc",
    "version": "0.5.8+commit.23d335f2.Emscripten.clang"
  },
  "schemaVersion": "3.0.9",
  "updatedAt": "2019-11-22T15:45:18.450Z",
  "devdoc": {
    "methods": {
      "insertLeaf(bytes32)": {
        "params": {
          "leafValue": "- the value of the leaf being inserted."
        },
        "return": "bytes32 - the root of the merkle tree, after the insert."
      },
      "insertLeaves(bytes32[])": {
        "params": {
          "leafValues": "- the values of the leaves being inserted."
        },
        "return": "bytes32[] - the root of the merkle tree, after all the inserts."
      }
    }
  },
  "userdoc": {
    "methods": {
      "insertLeaf(bytes32)": {
        "notice": "Insert a leaf into the Merkle Tree, update the root, and update any values in the (persistently stored) frontier."
      },
      "insertLeaves(bytes32[])": {
        "notice": "Insert multiple leaves into the Merkle Tree, and then update the root, and update any values in the (persistently stored) frontier."
      }
    }
  }
}