{
  "contractName": "MerkleTree",
  "abi": [
    {
      "constant": true,
      "inputs": [],
      "name": "treeHeight",
      "outputs": [
        {
          "name": "",
          "type": "uint256"
        }
      ],
      "payable": false,
      "stateMutability": "view",
      "type": "function"
    },
    {
      "constant": true,
      "inputs": [],
      "name": "leafCount",
      "outputs": [
        {
          "name": "",
          "type": "uint256"
        }
      ],
      "payable": false,
      "stateMutability": "view",
      "type": "function"
    },
    {
      "constant": true,
      "inputs": [],
      "name": "treeWidth",
      "outputs": [
        {
          "name": "",
          "type": "uint256"
        }
      ],
      "payable": false,
      "stateMutability": "view",
      "type": "function"
    },
    {
      "inputs": [
        {
          "name": "_treeHeight",
          "type": "uint256"
        }
      ],
      "payable": false,
      "stateMutability": "nonpayable",
      "type": "constructor"
    },
    {
      "anonymous": false,
      "inputs": [
        {
          "indexed": false,
          "name": "leafIndex",
          "type": "uint256"
        },
        {
          "indexed": false,
          "name": "leafValue",
          "type": "bytes32"
        },
        {
          "indexed": false,
          "name": "root",
          "type": "bytes32"
        }
      ],
      "name": "newLeaf",
      "type": "event"
    },
    {
      "anonymous": false,
      "inputs": [
        {
          "indexed": false,
          "name": "minLeafIndex",
          "type": "uint256"
        },
        {
          "indexed": false,
          "name": "leafValues",
          "type": "bytes32[]"
        },
        {
          "indexed": false,
          "name": "root",
          "type": "bytes32"
        }
      ],
      "name": "newLeaves",
      "type": "event"
    },
    {
      "constant": false,
      "inputs": [
        {
          "name": "leafValue",
          "type": "bytes32"
        }
      ],
      "name": "insertLeaf",
      "outputs": [
        {
          "name": "",
          "type": "bytes32"
        }
      ],
      "payable": false,
      "stateMutability": "nonpayable",
      "type": "function"
    },
    {
      "constant": false,
      "inputs": [
        {
          "name": "leafValues",
          "type": "bytes32[]"
        }
      ],
      "name": "insertLeaves",
      "outputs": [
        {
          "name": "",
          "type": "bytes32"
        }
      ],
      "payable": false,
      "stateMutability": "nonpayable",
      "type": "function"
    },
    {
      "constant": false,
      "inputs": [
        {
          "name": "valueToConvertToLeafValue",
          "type": "uint256"
        }
      ],
      "name": "bytes32Encoder",
      "outputs": [
        {
          "name": "",
          "type": "bytes32"
        }
      ],
      "payable": false,
      "stateMutability": "nonpayable",
      "type": "function"
    },
    {
      "constant": false,
      "inputs": [
        {
          "name": "valuesToConvertToLeafValues",
          "type": "uint256[25]"
        }
      ],
      "name": "bytes32ArrayEncoder",
      "outputs": [
        {
          "name": "",
          "type": "bytes32"
        }
      ],
      "payable": false,
      "stateMutability": "nonpayable",
      "type": "function"
    }
  ],
  "bytecode": "0x60806040526000801b60005534801561001757600080fd5b50604051602080610a838339810180604052602081101561003757600080fd5b8101908080519060200190929190505050806001819055508060020a60028190555050610a1a806100696000396000f3fe608060405234801561001057600080fd5b506004361061007d5760003560e01c80634b6e42221161005b5780634b6e4222146101395780635c8b80ab1461017b57806376c601b1146101bd578063dc52bf9f146101db5761007d565b806301e3e91514610082578063226ae84a146100a057806330e69fc31461011b575b600080fd5b61008a6102a7565b6040518082815260200191505060405180910390f35b61010560048036036103208110156100b757600080fd5b810190808061032001906019806020026040519081016040528092919082601960200280828437600081840152601f19601f82011690508083019250505050505091929192905050506102ad565b6040518082815260200191505060405180910390f35b61012361033e565b6040518082815260200191505060405180910390f35b6101656004803603602081101561014f57600080fd5b8101908080359060200190929190505050610344565b6040518082815260200191505060405180910390f35b6101a76004803603602081101561019157600080fd5b810190808035906020019092919050505061035e565b6040518082815260200191505060405180910390f35b6101c5610542565b6040518082815260200191505060405180910390f35b610291600480360360208110156101f157600080fd5b810190808035906020019064010000000081111561020e57600080fd5b82018360208201111561022057600080fd5b8035906020019184602083028401116401000000008311171561024257600080fd5b919080806020026020016040519081016040528093929190818152602001838360200280828437600081840152601f19601f820116905080830192505050505050509192919290505050610548565b6040518082815260200191505060405180910390f35b60015481565b6000606060196040519080825280602002602001820160405280156102e15781602001602082028038833980820191505090505b50905060008090505b601981101561032c578381601981106102ff57fe5b602002015160001b82828151811061031357fe5b60200260200101818152505080806001019150506102ea565b5061033681610548565b915050919050565b60245481565b6000808260001b90506103568161035e565b915050919050565b60008061036c602454610933565b9050600060016002546024540103905060008490506103896109aa565b6103916109cc565b600080600090505b6001548110156104d857868114156103bf5784600388602181106103b957fe5b01819055505b6000600287816103cb57fe5b06141561045857600381602181106103df57fe5b0154846000600281106103ee57fe5b602002018181525050848460016002811061040557fe5b60200201818152505060208360408660006002600019f19150816000811461042c5761042e565bfe5b508260006001811061043c57fe5b602002015194506002600187038161045057fe5b0495506104cb565b848460006002811061046657fe5b6020020181815250506000548460016002811061047f57fe5b60200201818152505060208360408660006002600019f1915081600081146104a6576104a8565bfe5b50826000600181106104b657fe5b60200201519450600286816104c757fe5b0495505b8080600101915050610399565b507f961d75dfa6cbcadcc3eb9732500ab98db65e36ae3ebe7f32daa7b1c37dc731b1602454898660405180848152602001838152602001828152602001935050505060405180910390a1602460008154809291906001019190505550839650505050505050919050565b60025481565b6000808251905060245460025403811115610598576000602454600254038203905060008090505b8181101561058c57600185510385528080600101915050610570565b50602454600254039150505b60008060006105a56109aa565b6105ad6109cc565b60008060245490505b8781101561075a57896024548203815181106105ce57fe5b60200260200101519450600160025482010395506105eb81610933565b9650600087141561060e57846003886021811061060457fe5b018190555061074d565b6000600190505b8781116107385760006002888161062857fe5b0614156106b8576003600182036021811061063f57fe5b01548560006002811061064e57fe5b602002018181525050858560016002811061066557fe5b60200201818152505060208460408760006002600019f19250826000811461068c5761068e565bfe5b508360006001811061069c57fe5b60200201519550600260018803816106b057fe5b04965061072b565b85856000600281106106c657fe5b602002018181525050600054856001600281106106df57fe5b60200201818152505060208460408760006002600019f19250826000811461070657610708565bfe5b508360006001811061071657fe5b602002015195506002878161072757fe5b0496505b8080600101915050610615565b50846003886021811061074757fe5b01819055505b80806001019150506105b6565b5060006001870190505b60015481116108895760006002878161077957fe5b061415610809576003600182036021811061079057fe5b01548460006002811061079f57fe5b60200201818152505084846001600281106107b657fe5b60200201818152505060208360408660006002600019f1915081600081146107dd576107df565bfe5b50826000600181106107ed57fe5b602002015194506002600187038161080157fe5b04955061087c565b848460006002811061081757fe5b6020020181815250506000548460016002811061083057fe5b60200201818152505060208360408660006002600019f19150816000811461085757610859565bfe5b508260006001811061086757fe5b602002015194506002868161087857fe5b0495505b8080600101915050610764565b507f90804955ce158dc0821dd7cbb6eaa48ad3e31bd650e7ef7f7b819e525acdad136024548a866040518084815260200180602001838152602001828103825284818151815260200191508051906020019060200280838360005b838110156108ff5780820151818401526020810190506108e4565b5050505090500194505050505060405180910390a18660246000828254019250508190555083975050505050505050919050565b600080905060016002838161094457fe5b0614156109a5576000600190506000600290506000600182901b90505b60008414156109a1576000818360018801038161097a57fe5b0614156109895782935061099c565b809150600181901b905082806001019350505b610961565b5050505b919050565b6040518060400160405280600290602082028038833980820191505090505090565b604051806020016040528060019060208202803883398082019150509050509056fea165627a7a723058202b510b4d43ea1c39529d79a1c02330303c496b8cf834c09a74a753a67794ec6a0029",
  "source": "/**\nA base contract which handles Merkle Tree inserts (and consequent updates to the root and 'frontier' (see below)).\nThe intention is for other 'derived' contracts to import this contract, and for those derived contracts to manage permissions to actually call the insertLeaf/insertleaves functions of this base contract.\n\n@Author iAmMichaelConnor\n*/\n\npragma solidity ^0.5.8;\n\ncontract MerkleTree {\n\n    /*\n    @notice Explanation of the Merkle Tree in this contract:\n    This is an append-only merkle tree; populated from left to right.\n    We do not store all of the merkle tree's nodes. We only store the right-most 'frontier' of nodes required to calculate the new root when the next new leaf value is added.\n\n                      TREE (not stored)                       FRONTIER (stored)\n\n                                 0                                     ?\n                          /             \\\n                   1                             2                     ?\n               /       \\                     /       \\\n           3             4               5               6             ?\n         /   \\         /   \\           /   \\           /    \\\n       7       8      9      10      11      12      13      14        ?\n     /  \\    /  \\   /  \\    /  \\    /  \\    /  \\    /  \\    /  \\\n    15  16  17 18  19  20  21  22  23  24  25  26  27  28  29  30      ?\n\n    level  row  width  start#     end#\n      4     0   2^0=1   w=0     2^1-1=0\n      3     1   2^1=2   w=1     2^2-1=2\n      2     2   2^2=4   w=3     2^3-1=6\n      1     3   2^3=8   w=7     2^4-1=14\n      0     4   2^4=16  w=15    2^5-1=30\n\n    height = 4\n    w = width = 2 ** height = 2^4 = 16\n    #nodes = (2 ** (height + 1)) - 1 = 2^5-1 = 31\n\n    */\n\n    /**\n    These events are what the merkle-tree microservice's filters will listen for.\n    */\n    event newLeaf(uint leafIndex, bytes32 leafValue, bytes32 root);\n    event newLeaves(uint minLeafIndex, bytes32[] leafValues, bytes32 root);\n\n    // event Output(bytes32 leftInput, bytes32 rightInput, bytes32 output, uint level, uint nodeIndex); // for debugging only\n\n    bytes32 zero = 0x0000000000000000000000000000000000000000000000000000000000000000;\n    uint public treeHeight;\n    uint public treeWidth; // 2 ^ treeHeight\n    bytes32[33] frontier; // fixed-size arrays are cheaper to use\n    // bytes32[] public frontier; // the right-most 'frontier' of nodes required to calculate the new root when the next new leaf value is added.\n    uint256 public leafCount; // the number of leaves currently in the tree\n\n    constructor(uint _treeHeight) public {\n        treeHeight = _treeHeight;\n        treeWidth = 2 ** _treeHeight;\n        // frontier = new bytes32[](treeHeight + 1);\n    }\n\n    /**\n    @notice Get the index of the frontier (or 'storage slot') into which we will next store a nodeValue (based on the leafIndex currently being inserted). See the top-level README for a detailed explanation.\n    @return uint - the index of the frontier (or 'storage slot') into which we will next store a nodeValue\n    */\n    function getFrontierSlot(uint leafIndex) private pure returns (uint slot) {\n        slot = 0;\n        if ( leafIndex % 2 == 1 ) {\n            uint exp1 = 1;\n            uint pow1 = 2;\n            uint pow2 = pow1 << 1;\n            while (slot == 0) {\n                if ( (leafIndex + 1 - pow1) % pow2 == 0 ) {\n                    slot = exp1;\n                } else {\n                    pow1 = pow2;\n                    pow2 = pow2 << 1;\n                    exp1++;\n                }\n            }\n        }\n    }\n\n    /**\n    @notice Insert a leaf into the Merkle Tree, update the root, and update any values in the (persistently stored) frontier.\n    @param leafValue - the value of the leaf being inserted.\n    @return bytes32 - the root of the merkle tree, after the insert.\n    */\n    function insertLeaf(bytes32 leafValue) public returns (bytes32) {\n\n        uint slot = getFrontierSlot(leafCount);\n        uint nodeIndex = leafCount + treeWidth - 1;\n        bytes32 nodeValue = leafValue; // nodeValue is the hash, which iteratively gets overridden to the top of the tree until it becomes the root.\n\n        bytes32[2] memory inputs; // the left and right inputs to the hash function.\n        bytes32[1] memory output;\n        bool success;\n\n\n        for (uint level = 0; level < treeHeight; level++) {\n\n            if (level == slot) frontier[slot] = nodeValue;\n\n            if (nodeIndex % 2 == 0) {\n                // even nodeIndex\n                inputs[0] = frontier[level];\n                inputs[1] = nodeValue;\n                // compute the hash of the inputs:\n                // note: we don't extract this hashing into a separate function because that would cost more gas.\n                assembly {\n                    success := call(not(0), 2, 0, inputs, 0x40, output, 0x20)\n                    // Use \"invalid\" to make gas estimation work\n                    switch success case 0 { invalid() }\n                }\n                nodeValue = output[0]; // the parentValue, but will become the nodeValue of the next level\n                nodeIndex = (nodeIndex - 1) / 2; // move one row up the tree\n            } else {\n                // odd nodeIndex\n                inputs[0] = nodeValue;\n                inputs[1] = zero;\n                // compute the hash of the inputs:\n                assembly {\n                    success := call(not(0), 2, 0, inputs, 0x40, output, 0x20)\n                    switch success case 0 { invalid() }\n                }\n                nodeValue = output[0]; // the parentValue, but will become the nodeValue of the next level\n                nodeIndex = nodeIndex / 2; // move one row up the tree\n            }\n        }\n\n        // refund gas by deleting a redundant frontier slot:\n        // if (slot > 0) frontier[slot - 1] = 0; // THIS ACTUALLY COSTS MORE IN THE LONG RUN!\n\n        emit newLeaf(leafCount, leafValue, nodeValue); // this event is what the merkle-tree microservice's filter will listen for.\n\n        leafCount++; // the incrememnting of leafCount costs us 20k for the first leaf, and 5k thereafter\n\n        return nodeValue; //the root of the tree\n    }\n\n    /**\n    @notice Insert multiple leaves into the Merkle Tree, and then update the root, and update any values in the (persistently stored) frontier.\n    @param leafValues - the values of the leaves being inserted.\n    @return bytes32[] - the root of the merkle tree, after all the inserts.\n    */\n    function insertLeaves(bytes32[] memory leafValues) public returns (bytes32) {\n        uint numberOfLeaves = leafValues.length;\n\n        // check that space exists in the tree:\n        if ( numberOfLeaves > treeWidth - leafCount ) {\n            uint numberOfExcessLeaves = numberOfLeaves - (treeWidth - leafCount);\n            // remove the excess leaves, because we only want to emit those we've added as an event:\n            for (uint xs = 0; xs < numberOfExcessLeaves; xs++) {\n                /**\n                  CAUTION!!! This attempts to succinctly achieve leafValues.pop() on a **memory** dynamic array. Not thoroughly tested!\n                  Credit: https://ethereum.stackexchange.com/a/51897/45916\n                */\n                assembly {\n                  mstore(leafValues, sub(mload(leafValues), 1))\n                }\n            }\n            numberOfLeaves = treeWidth - leafCount;\n        }\n\n        uint slot;\n        uint nodeIndex;\n        bytes32 nodeValue;\n\n        bytes32[2] memory inputs; // the left and right inputs to the hash function.\n        bytes32[1] memory output; // the output of the hash\n        bool success;\n\n        // consider each new leaf in turn, from left to right:\n        for (uint leafIndex = leafCount; leafIndex < numberOfLeaves; leafIndex++) {\n            nodeValue = leafValues[leafIndex - leafCount];\n            nodeIndex = leafIndex + treeWidth - 1; // convert the leafIndex to a nodeIndex\n\n            slot = getFrontierSlot(leafIndex); // determine at which level we will next need to store a nodeValue\n\n            if (slot == 0) {\n                frontier[slot] = nodeValue; // store in frontier\n                continue;\n            }\n\n            // hash up to the level whose nodeValue we'll store in the frontier slot:\n            for (uint level = 1; level <= slot; level++) {\n                if (nodeIndex % 2 == 0) {\n                    // even nodeIndex\n                    inputs[0] = frontier[level - 1];\n                    inputs[1] = nodeValue;\n                    // compute the hash of the inputs:\n                    // note: we don't extract this hashing into a separate function because that would cost more gas.\n                    assembly {\n                        success := call(not(0), 2, 0, inputs, 0x40, output, 0x20)\n                        // Use \"invalid\" to make gas estimation work\n                        switch success case 0 { invalid() }\n                    }\n\n                    // emit Output(inputs[0], inputs[1], output[0], level, nodeIndex); // for debugging only\n\n                    nodeValue = output[0]; // the parentValue, but will become the nodeValue of the next level\n                    nodeIndex = (nodeIndex - 1) / 2; // move one row up the tree\n                } else {\n                    // odd nodeIndex\n                    inputs[0] = nodeValue;\n                    inputs[1] = zero;\n                    // compute the hash of the inputs:\n                    assembly {\n                        success := call(not(0), 2, 0, inputs, 0x40, output, 0x20)\n                        switch success case 0 { invalid() }\n                    }\n\n                    // emit Output(inputs[0], inputs[1], output[0], level, nodeIndex); // for debugging only\n\n                    nodeValue = output[0]; // the parentValue, but will become the nodeValue of the next level\n                    nodeIndex = nodeIndex / 2; // the parentIndex, but will become the nodeIndex of the next level\n                }\n            }\n            frontier[slot] = nodeValue; // store in frontier\n        }\n\n        // So far we've added all leaves, and hashed up to a particular level of the tree. We now need to continue hashing from that level until the root:\n        for (uint level = slot + 1; level <= treeHeight; level++) {\n\n            if (nodeIndex % 2 == 0) {\n                // even nodeIndex\n                inputs[0] = frontier[level - 1];\n                inputs[1] = nodeValue;\n                // compute the hash of the inputs:\n                assembly {\n                    success := call(not(0), 2, 0, inputs, 0x40, output, 0x20)\n                    switch success case 0 { invalid() }\n                }\n\n                // emit Output(inputs[0], inputs[1], output[0], level, nodeIndex); // for debugging only\n\n                nodeValue = output[0]; // the parentValue, but will become the nodeValue of the next level\n                nodeIndex = (nodeIndex - 1) / 2;  // the parentIndex, but will become the nodeIndex of the next level\n            } else {\n                // odd nodeIndex\n                inputs[0] = nodeValue;\n                inputs[1] = zero;\n                // compute the hash of the inputs:\n                assembly {\n                    success := call(not(0), 2, 0, inputs, 0x40, output, 0x20)\n                    switch success case 0 { invalid() }\n                }\n\n                // emit Output(inputs[0], inputs[1], output[0], level, nodeIndex); // for debugging only\n\n                nodeValue = output[0]; // the parentValue, but will become the nodeValue of the next level\n                nodeIndex = nodeIndex / 2;  // the parentIndex, but will become the nodeIndex of the next level\n            }\n        }\n        // nodeValue is now the root of the tree\n\n        emit newLeaves(leafCount, leafValues, nodeValue); // this event is what the merkle-tree microservice's filter will listen for.\n\n        leafCount += numberOfLeaves; // the incrememnting of leafCount costs us 20k for the first leaf, and 5k thereafter\n\n        return nodeValue; //the root of the tree\n    }\n\n    // for Remix testing only:\n    function bytes32Encoder(uint valueToConvertToLeafValue) public returns (bytes32) {\n        bytes32 leafValue = bytes32(valueToConvertToLeafValue);\n        return insertLeaf(leafValue);\n    }\n\n    // [1234,2345,3456,4567]\n    // [1,2,3,4,5,6,7,8,9,10,11,12,13,14,15,16,17,18,19,20,21,22,23,24,25]\n    // for Remix testing only:\n    function bytes32ArrayEncoder(uint[25] memory valuesToConvertToLeafValues) public returns (bytes32) {\n        bytes32[] memory leafValues = new bytes32[](25);\n        for (uint i = 0; i < valuesToConvertToLeafValues.length; i++) {\n            leafValues[i] = bytes32(valuesToConvertToLeafValues[i]);\n        }\n        return insertLeaves(leafValues);\n    }\n}\n",
  "sourcePath": "/Users/em137vl/git/merkle-tree/deployer/contracts/MerkleTree.sol",
  "compiler": {
    "name": "solc",
    "version": "0.5.8+commit.23d335f2.Emscripten.clang"
  },
  "schemaVersion": "3.0.9",
  "updatedAt": "2019-11-11T16:23:56.009Z",
  "devdoc": {
    "methods": {
      "insertLeaf(bytes32)": {
        "params": {
          "leafValue": "- the value of the leaf being inserted."
        },
        "return": "bytes32 - the root of the merkle tree, after the insert."
      },
      "insertLeaves(bytes32[])": {
        "params": {
          "leafValues": "- the values of the leaves being inserted."
        },
        "return": "bytes32[] - the root of the merkle tree, after all the inserts."
      }
    }
  },
  "userdoc": {
    "methods": {
      "insertLeaf(bytes32)": {
        "notice": "Insert a leaf into the Merkle Tree, update the root, and update any values in the (persistently stored) frontier."
      },
      "insertLeaves(bytes32[])": {
        "notice": "Insert multiple leaves into the Merkle Tree, and then update the root, and update any values in the (persistently stored) frontier."
      }
    }
  }
}