{
  "contractName": "MerkleTreeControllerMiMC",
  "abi": [
    {
      "constant": true,
      "inputs": [],
      "name": "treeHeight",
      "outputs": [
        {
          "name": "",
          "type": "uint256"
        }
      ],
      "payable": false,
      "stateMutability": "view",
      "type": "function"
    },
    {
      "constant": true,
      "inputs": [
        {
          "name": "in_msgs",
          "type": "uint256[]"
        },
        {
          "name": "in_key",
          "type": "uint256"
        }
      ],
      "name": "Hash",
      "outputs": [
        {
          "name": "",
          "type": "uint256"
        }
      ],
      "payable": false,
      "stateMutability": "pure",
      "type": "function"
    },
    {
      "constant": true,
      "inputs": [
        {
          "name": "leafIndex",
          "type": "uint256"
        }
      ],
      "name": "getFrontierSlot",
      "outputs": [
        {
          "name": "slot",
          "type": "uint256"
        }
      ],
      "payable": false,
      "stateMutability": "pure",
      "type": "function"
    },
    {
      "constant": true,
      "inputs": [
        {
          "name": "in_msgs",
          "type": "bytes32[2]"
        }
      ],
      "name": "leafCount",
      "outputs": [
        {
          "name": "",
          "type": "uint256"
        }
      ],
      "payable": false,
      "stateMutability": "view",
      "type": "function"
    },
    {
      "constant": true,
      "inputs": [
        {
          "name": "in_msgs",
          "type": "bytes32[2]"
        }
      ],
      "name": "mimcHash2",
      "outputs": [
        {
          "name": "",
          "type": "bytes32"
        }
      ],
      "payable": false,
      "stateMutability": "pure",
      "type": "function"
    },
    {
      "constant": false,
      "inputs": [
        {
          "name": "leafValue",
          "type": "bytes32"
        }
      ],
      "name": "insertLeaf",
      "outputs": [
        {
          "name": "root",
          "type": "bytes32"
        }
      ],
      "payable": false,
      "stateMutability": "nonpayable",
      "type": "function"
    },
    {
      "constant": true,
      "inputs": [],
      "name": "treeWidth",
      "outputs": [
        {
          "name": "",
          "type": "uint256"
        }
      ],
      "payable": false,
      "stateMutability": "view",
      "type": "function"
    },
    {
      "constant": true,
      "inputs": [
        {
          "name": "in_x",
          "type": "uint256"
        },
        {
          "name": "in_k",
          "type": "uint256"
        }
      ],
      "name": "owner",
      "outputs": [
        {
          "name": "",
          "type": "address"
        }
      ],
      "payable": false,
      "stateMutability": "view",
      "type": "function"
    },
    {
      "constant": true,
      "inputs": [
        {
          "name": "in_x",
          "type": "uint256"
        },
        {
          "name": "in_k",
          "type": "uint256"
        }
      ],
      "name": "Encipher",
      "outputs": [
        {
          "name": "out_x",
          "type": "uint256"
        }
      ],
      "payable": false,
      "stateMutability": "pure",
      "type": "function"
    },
    {
      "constant": true,
      "inputs": [
        {
          "name": "in_msgs",
          "type": "bytes32[]"
        }
      ],
      "name": "mimcHash",
      "outputs": [
        {
          "name": "",
          "type": "bytes32"
        }
      ],
      "payable": false,
      "stateMutability": "pure",
      "type": "function"
    },
    {
      "constant": true,
      "inputs": [
        {
          "name": "",
          "type": "bytes32"
        }
      ],
      "name": "roots",
      "outputs": [
        {
          "name": "",
          "type": "bytes32"
        }
      ],
      "payable": false,
      "stateMutability": "view",
      "type": "function"
    },
    {
      "constant": true,
      "inputs": [
        {
          "name": "leafValues",
          "type": "bytes32[]"
        }
      ],
      "name": "latestRoot",
      "outputs": [
        {
          "name": "",
          "type": "bytes32"
        }
      ],
      "payable": false,
      "stateMutability": "view",
      "type": "function"
    },
    {
      "constant": false,
      "inputs": [
        {
          "name": "leafValues",
          "type": "bytes32[]"
        }
      ],
      "name": "insertLeaves",
      "outputs": [
        {
          "name": "root",
          "type": "bytes32"
        }
      ],
      "payable": false,
      "stateMutability": "nonpayable",
      "type": "function"
    },
    {
      "inputs": [],
      "payable": false,
      "stateMutability": "nonpayable",
      "type": "constructor"
    },
    {
      "anonymous": false,
      "inputs": [
        {
          "indexed": false,
          "name": "leafIndex",
          "type": "uint256"
        },
        {
          "indexed": false,
          "name": "leafValue",
          "type": "bytes32"
        },
        {
          "indexed": false,
          "name": "root",
          "type": "bytes32"
        }
      ],
      "name": "NewLeaf",
      "type": "event"
    },
    {
      "anonymous": false,
      "inputs": [
        {
          "indexed": false,
          "name": "minLeafIndex",
          "type": "uint256"
        },
        {
          "indexed": false,
          "name": "leafValues",
          "type": "bytes32[]"
        },
        {
          "indexed": false,
          "name": "root",
          "type": "bytes32"
        }
      ],
      "name": "NewLeaves",
      "type": "event"
    },
    {
      "constant": false,
      "inputs": [
        {
          "name": "leafValue",
          "type": "bytes32"
        }
      ],
      "name": "_insertLeaf",
      "outputs": [],
      "payable": false,
      "stateMutability": "nonpayable",
      "type": "function"
    },
    {
      "constant": false,
      "inputs": [
        {
          "name": "leafValues",
          "type": "bytes32[]"
        }
      ],
      "name": "_insertLeaves",
      "outputs": [],
      "payable": false,
      "stateMutability": "nonpayable",
      "type": "function"
    }
  ],
  "bytecode": "0x608060405234801561001057600080fd5b5033602160006101000a81548173ffffffffffffffffffffffffffffffffffffffff021916908373ffffffffffffffffffffffffffffffffffffffff160217905550611374806100616000396000f3fe608060405234801561001057600080fd5b50600436106100f55760003560e01c806371b6254111610097578063aa0324a011610066578063aa0324a014610464578063ae6dead714610530578063d7b0fef114610572578063dc52bf9f14610590576100f5565b806371b625411461038257806376c601b1146103b05780638da5cb5b146103ce57806396d8d82014610418576100f5565b80632a3a8183116100d35780632a3a81831461026757806330e69fc3146102a9578063599a29e4146102c75780635c8b80ab14610340576100f5565b806301e3e915146100fa57806303ebd1d4146101185780630fa16e3814610191575b600080fd5b61010261065c565b6040518082815260200191505060405180910390f35b61018f6004803603602081101561012e57600080fd5b810190808035906020019064010000000081111561014b57600080fd5b82018360208201111561015d57600080fd5b8035906020019184602083028401116401000000008311171561017f57600080fd5b9091929391929390505050610661565b005b610251600480360360408110156101a757600080fd5b81019080803590602001906401000000008111156101c457600080fd5b8201836020820111156101d657600080fd5b803590602001918460208302840111640100000000831117156101f857600080fd5b919080806020026020016040519081016040528093929190818152602001838360200280828437600081840152601f19601f82011690508083019250505050505050919291929080359060200190929190505050610761565b6040518082815260200191505060405180910390f35b6102936004803603602081101561027d57600080fd5b81019080803590602001909291905050506107eb565b6040518082815260200191505060405180910390f35b6102b1610862565b6040518082815260200191505060405180910390f35b61032a600480360360408110156102dd57600080fd5b8101908080604001906002806020026040519081016040528092919082600260200280828437600081840152601f19601f8201169050808301925050505050509192919290505050610868565b6040518082815260200191505060405180910390f35b61036c6004803603602081101561035657600080fd5b8101908080359060200190929190505050610911565b6040518082815260200191505060405180910390f35b6103ae6004803603602081101561039857600080fd5b8101908080359060200190929190505050610af7565b005b6103b8610bb5565b6040518082815260200191505060405180910390f35b6103d6610bbd565b604051808273ffffffffffffffffffffffffffffffffffffffff1673ffffffffffffffffffffffffffffffffffffffff16815260200191505060405180910390f35b61044e6004803603604081101561042e57600080fd5b810190808035906020019092919080359060200190929190505050610be3565b6040518082815260200191505060405180910390f35b61051a6004803603602081101561047a57600080fd5b810190808035906020019064010000000081111561049757600080fd5b8201836020820111156104a957600080fd5b803590602001918460208302840111640100000000831117156104cb57600080fd5b919080806020026020016040519081016040528093929190818152602001838360200280828437600081840152601f19601f820116905080830192505050505050509192919290505050610c6d565b6040518082815260200191505060405180910390f35b61055c6004803603602081101561054657600080fd5b8101908080359060200190929190505050610d06565b6040518082815260200191505060405180910390f35b61057a610d1e565b6040518082815260200191505060405180910390f35b610646600480360360208110156105a657600080fd5b81019080803590602001906401000000008111156105c357600080fd5b8201836020820111156105d557600080fd5b803590602001918460208302840111640100000000831117156105f757600080fd5b919080806020026020016040519081016040528093929190818152602001838360200280828437600081840152601f19601f820116905080830192505050505050509192919290505050610d24565b6040518082815260200191505060405180910390f35b602081565b602160009054906101000a900473ffffffffffffffffffffffffffffffffffffffff1673ffffffffffffffffffffffffffffffffffffffff163373ffffffffffffffffffffffffffffffffffffffff1614610707576040517f08c379a000000000000000000000000000000000000000000000000000000000815260040180806020018281038252602e81526020018061131b602e913960400191505060405180910390fd5b6000610753838380806020026020016040519081016040528093929190818152602001838360200280828437600081840152601f19601f82011690508083019250505050505050610d24565b905080602381905550505050565b600080636d696d6360e01b90506107e284848360405160200180827bffffffffffffffffffffffffffffffffffffffffffffffffffffffff19167bffffffffffffffffffffffffffffffffffffffffffffffffffffffff191681526004019150506040516020818303038152906040528051906020012060001c605b611187565b91505092915050565b60008090506001600283816107fc57fe5b06141561085d576000600190506000600290506000600182901b90505b6000841415610859576000818360018801038161083257fe5b06141561084157829350610854565b809150600181901b905082806001019350505b610819565b5050505b919050565b60005481565b60006060600260405190808252806020026020018201604052801561089c5781602001602082028038833980820191505090505b509050826000600281106108ac57fe5b602002015160001c816000815181106108c157fe5b602002602001018181525050826001600281106108da57fe5b602002015160001c816001815181106108ef57fe5b602002602001018181525050610906816000610761565b60001b915050919050565b60008054602060020a11610970576040517f08c379a00000000000000000000000000000000000000000000000000000000081526004018080602001828103825260238152602001806112f86023913960400191505060405180910390fd5b600061097d6000546107eb565b905060006001602060020a60005401039050600084905061099c6112b2565b60008090505b6020811015610a8d57848114156109c75782600186602081106109c157fe5b01819055505b6000600285816109d357fe5b061415610a3657600181602081106109e757fe5b0154826000600281106109f657fe5b6020020181815250508282600160028110610a0d57fe5b602002018181525050610a1f82610868565b925060026001850381610a2e57fe5b049350610a80565b8282600060028110610a4457fe5b6020020181815250506000801b82600160028110610a5e57fe5b602002018181525050610a7082610868565b925060028481610a7c57fe5b0493505b80806001019150506109a2565b508194507f6a82ba2aa1d2c039c41e6e2b5a5a1090d09906f060d32af9c1ac0beff7af75c0600054878760405180848152602001838152602001828152602001935050505060405180910390a1600080815480929190600101919050555084945050505050919050565b602160009054906101000a900473ffffffffffffffffffffffffffffffffffffffff1673ffffffffffffffffffffffffffffffffffffffff163373ffffffffffffffffffffffffffffffffffffffff1614610b9d576040517f08c379a000000000000000000000000000000000000000000000000000000000815260040180806020018281038252602e81526020018061131b602e913960400191505060405180910390fd5b6000610ba882610911565b9050806023819055505050565b602060020a81565b602160009054906101000a900473ffffffffffffffffffffffffffffffffffffffff1681565b600080636d696d6360e01b9050610c6484848360405160200180827bffffffffffffffffffffffffffffffffffffffffffffffffffffffff19167bffffffffffffffffffffffffffffffffffffffffffffffffffffffff191681526004019150506040516020818303038152906040528051906020012060001c605b611226565b91505092915050565b600060608251604051908082528060200260200182016040528015610ca15781602001602082028038833980820191505090505b50905060008090505b8351811015610cef57838181518110610cbf57fe5b602002602001015160001c828281518110610cd657fe5b6020026020010181815250508080600101915050610caa565b50610cfb816000610761565b60001b915050919050565b60226020528060005260406000206000915090505481565b60235481565b60008082519050600054602060020a11610d89576040517f08c379a00000000000000000000000000000000000000000000000000000000081526004018080602001828103825260238152602001806112f86023913960400191505060405180910390fd5b600054602060020a03811115610dd75760008054602060020a038203905060008090505b81811015610dc957600185510385528080600101915050610dad565b50600054602060020a039150505b6000806000610de46112b2565b610dec6112d4565b6001602080602002604051908101604052809291908260208015610e25576020028201915b815481526020019060010190808311610e11575b505050505090506000805490505b8660005401811015610f925788600054820381518110610e4f57fe5b602002602001015193506001602060020a8201039450610e6e816107eb565b95506000861415610e945783828760208110610e8657fe5b602002018181525050610f85565b6000600190505b868111610f6d57600060028781610eae57fe5b061415610f1657826001820360208110610ec457fe5b602002015184600060028110610ed657fe5b6020020181815250508484600160028110610eed57fe5b602002018181525050610eff84610868565b945060026001870381610f0e57fe5b049550610f60565b8484600060028110610f2457fe5b6020020181815250506000801b84600160028110610f3e57fe5b602002018181525050610f5084610868565b945060028681610f5c57fe5b0495505b8080600101915050610e9b565b5083828760208110610f7b57fe5b6020020181815250505b8080600101915050610e33565b5060008090505b6020811015610ff857818160208110610fae57fe5b602002015160018260208110610fc057fe5b015414610feb57818160208110610fd357fe5b602002015160018260208110610fe557fe5b01819055505b8080600101915050610f99565b506110016112d4565b905060006001860190505b602081116110dc5760006002868161102057fe5b0614156110855760018082036020811061103657fe5b01548360006002811061104557fe5b602002018181525050838360016002811061105c57fe5b60200201818152505061106e83610868565b93506002600186038161107d57fe5b0494506110cf565b838360006002811061109357fe5b6020020181815250506000801b836001600281106110ad57fe5b6020020181815250506110bf83610868565b9350600285816110cb57fe5b0494505b808060010191505061100c565b508296507f8ec50f97970775682a68d3c6f9caedf60fd82448ea40706b8b65d6c03648b92260005489896040518084815260200180602001838152602001828103825284818151815260200191508051906020019060200280838360005b8381101561115557808201518184015260208101905061113a565b5050505090500194505050505060405180910390a1856000808282540192505081905550869650505050505050919050565b60008084905060007f30644e72e131a029b85045b68181585d2833e84879b9709143e1f593f0000001905060008090505b875181101561121857816111e18983815181106111d157fe5b6020026020010151858989611226565b838a84815181106111ee57fe5b6020026020010151816111fd57fe5b068501018161120857fe5b06925080806001019150506111b8565b829350505050949350505050565b6000600182101561123657600080fd5b604051602081016040528381527f30644e72e131a029b85045b68181585d2833e84879b9709143e1f593f0000001600080855b600081111561129f5760208520855283898587518d08089250838384099150838385868586098509099950600181039050611269565b5082888a08945050505050949350505050565b6040518060400160405280600290602082028038833980820191505090505090565b60405180610400016040528060209060208202803883398082019150509050509056fe5468657265206973206e6f207370616365206c65667420696e2074686520747265652e596f7520617265206e6f7420617574686f726973656420746f20696e766f6b6520746869732066756e6374696f6ea165627a7a723058204593d35a547df8d619564ba86e018df4c448b5fe00bd53f5c3a064376ff616df0029",
  "source": "/**\nContract to manage permissions to update the leaves of the imported MerkleTree contract (which is the base contract which handles tree inserts and updates).\n\n@Author iAmMichaelConnor\n*/\npragma solidity ^0.5.8;\n\nimport \"./MerkleTreeMiMC.sol\";\n\ncontract MerkleTreeControllerMiMC is MerkleTreeMiMC {\n\n    address public owner; // We'll demonstrate simple 'permissioning' to update leaves by only allowing the owner to update leaves.\n\n    mapping(bytes32 => bytes32) public roots; // Example of a way to hold every root that's been calculated by this contract. This isn't actually used by this simple example-contract.\n\n    bytes32 public latestRoot; // Example of a way to hold the latest root so that users can retrieve it. This isn't actually used by this simple example-contract.\n\n    /**\n    We'll demonstrate simple 'permissioning' to update leaves by only allowing the owner to update leaves.\n    @dev Throws if called by any account other than the owner.\n    */\n    modifier onlyOwner() {\n        require(msg.sender == owner, \"You are not authorised to invoke this function\");\n        _;\n    }\n\n    /**\n    @notice Constructor for the MerkleTreeController contract.\n    */\n    constructor() public {\n        owner = msg.sender;\n    }\n\n    /**\n    @notice Append a leaf to the tree\n    @param leafValue - the value of the leaf being inserted.\n    */\n    function _insertLeaf(bytes32 leafValue) external onlyOwner {\n\n        bytes32 root = insertLeaf(leafValue); // recalculate the root of the tree\n\n        // roots[root] = root;\n\n        latestRoot = root;\n    }\n\n    /**\n    @notice Append leaves to the tree\n    @param leafValues - the values of the leaves being inserted.\n    */\n    function _insertLeaves(bytes32[] calldata leafValues) external onlyOwner {\n\n        bytes32 root = insertLeaves(leafValues); // recalculate the root of the tree\n\n        // roots[root] = root;\n\n        latestRoot = root;\n    }\n}\n",
  "sourcePath": "/Users/em137vl/Documents/git/timber/deployer/contracts/MerkleTreeControllerMiMC.sol",
  "compiler": {
    "name": "solc",
    "version": "0.5.8+commit.23d335f2.Emscripten.clang"
  },
  "schemaVersion": "3.0.9",
  "updatedAt": "2020-04-26T15:32:51.493Z",
  "devdoc": {
    "methods": {
      "_insertLeaf(bytes32)": {
        "params": {
          "leafValue": "- the value of the leaf being inserted."
        }
      },
      "_insertLeaves(bytes32[])": {
        "params": {
          "leafValues": "- the values of the leaves being inserted."
        }
      },
      "getFrontierSlot(uint256)": {
        "return": "uint - the index of the frontier (or 'storage slot') into which we will next store a nodeValue"
      },
      "insertLeaf(bytes32)": {
        "params": {
          "leafValue": "- the value of the leaf being inserted."
        },
        "return": "bytes32 - the root of the merkle tree, after the insert."
      },
      "insertLeaves(bytes32[])": {
        "params": {
          "leafValues": "- the values of the leaves being inserted."
        },
        "return": "bytes32[] - the root of the merkle tree, after all the inserts."
      },
      "getFrontierSlot(uint40)": {
        "return": "uint - the index of the frontier (or 'storage slot') into which we will next store a nodeValue"
      }
    }
  },
  "userdoc": {
    "methods": {
      "_insertLeaf(bytes32)": {
        "notice": "Append a leaf to the tree"
      },
      "_insertLeaves(bytes32[])": {
        "notice": "Append leaves to the tree"
      },
      "constructor": "Constructor for the MerkleTreeController contract.",
      "getFrontierSlot(uint256)": {
        "notice": "Get the index of the frontier (or 'storage slot') into which we will next store a nodeValue (based on the leafIndex currently being inserted). See the top-level README for a detailed explanation."
      },
      "insertLeaf(bytes32)": {
        "notice": "Insert a leaf into the Merkle Tree, update the root, and update any values in the (persistently stored) frontier."
      },
      "insertLeaves(bytes32[])": {
        "notice": "Insert multiple leaves into the Merkle Tree, and then update the root, and update any values in the (persistently stored) frontier."
      },
      "getFrontierSlot(uint40)": {
        "notice": "Get the index of the frontier (or 'storage slot') into which we will next store a nodeValue (based on the leafIndex currently being inserted). See the top-level README for a detailed explanation."
      }
    }
  }
}