{
  "contractName": "MerkleTreeControllerSHA",
  "abi": [
    {
      "constant": true,
      "inputs": [],
      "name": "treeHeight",
      "outputs": [
        {
          "name": "",
          "type": "uint256"
        }
      ],
      "payable": false,
      "stateMutability": "view",
      "type": "function"
    },
    {
      "constant": true,
      "inputs": [],
      "name": "leafCount",
      "outputs": [
        {
          "name": "",
          "type": "uint256"
        }
      ],
      "payable": false,
      "stateMutability": "view",
      "type": "function"
    },
    {
      "constant": false,
      "inputs": [
        {
          "name": "leafValue",
          "type": "bytes32"
        }
      ],
      "name": "insertLeaf",
      "outputs": [
        {
          "name": "root",
          "type": "bytes32"
        }
      ],
      "payable": false,
      "stateMutability": "nonpayable",
      "type": "function"
    },
    {
      "constant": true,
      "inputs": [],
      "name": "treeWidth",
      "outputs": [
        {
          "name": "",
          "type": "uint256"
        }
      ],
      "payable": false,
      "stateMutability": "view",
      "type": "function"
    },
    {
      "constant": true,
      "inputs": [],
      "name": "owner",
      "outputs": [
        {
          "name": "",
          "type": "address"
        }
      ],
      "payable": false,
      "stateMutability": "view",
      "type": "function"
    },
    {
      "constant": true,
      "inputs": [
        {
          "name": "",
          "type": "bytes32"
        }
      ],
      "name": "roots",
      "outputs": [
        {
          "name": "",
          "type": "bytes32"
        }
      ],
      "payable": false,
      "stateMutability": "view",
      "type": "function"
    },
    {
      "constant": true,
      "inputs": [],
      "name": "latestRoot",
      "outputs": [
        {
          "name": "",
          "type": "bytes32"
        }
      ],
      "payable": false,
      "stateMutability": "view",
      "type": "function"
    },
    {
      "constant": false,
      "inputs": [
        {
          "name": "leafValues",
          "type": "bytes32[]"
        }
      ],
      "name": "insertLeaves",
      "outputs": [
        {
          "name": "root",
          "type": "bytes32"
        }
      ],
      "payable": false,
      "stateMutability": "nonpayable",
      "type": "function"
    },
    {
      "inputs": [],
      "payable": false,
      "stateMutability": "nonpayable",
      "type": "constructor"
    },
    {
      "anonymous": false,
      "inputs": [
        {
          "indexed": false,
          "name": "leafIndex",
          "type": "uint256"
        },
        {
          "indexed": false,
          "name": "leafValue",
          "type": "bytes32"
        },
        {
          "indexed": false,
          "name": "root",
          "type": "bytes32"
        }
      ],
      "name": "NewLeaf",
      "type": "event"
    },
    {
      "anonymous": false,
      "inputs": [
        {
          "indexed": false,
          "name": "minLeafIndex",
          "type": "uint256"
        },
        {
          "indexed": false,
          "name": "leafValues",
          "type": "bytes32[]"
        },
        {
          "indexed": false,
          "name": "root",
          "type": "bytes32"
        }
      ],
      "name": "NewLeaves",
      "type": "event"
    },
    {
      "constant": false,
      "inputs": [
        {
          "name": "leafValue",
          "type": "bytes32"
        }
      ],
      "name": "_insertLeaf",
      "outputs": [],
      "payable": false,
      "stateMutability": "nonpayable",
      "type": "function"
    },
    {
      "constant": false,
      "inputs": [
        {
          "name": "leafValues",
          "type": "bytes32[]"
        }
      ],
      "name": "_insertLeaves",
      "outputs": [],
      "payable": false,
      "stateMutability": "nonpayable",
      "type": "function"
    }
  ],
  "bytecode": "0x608060405234801561001057600080fd5b5033602160006101000a81548173ffffffffffffffffffffffffffffffffffffffff021916908373ffffffffffffffffffffffffffffffffffffffff160217905550610e50806100616000396000f3fe608060405234801561001057600080fd5b506004361061009e5760003560e01c806376c601b11161006657806376c601b1146101c85780638da5cb5b146101e6578063ae6dead714610230578063d7b0fef114610272578063dc52bf9f146102905761009e565b806301e3e915146100a357806303ebd1d4146100c157806330e69fc31461013a5780635c8b80ab1461015857806371b625411461019a575b600080fd5b6100ab61035c565b6040518082815260200191505060405180910390f35b610138600480360360208110156100d757600080fd5b81019080803590602001906401000000008111156100f457600080fd5b82018360208201111561010657600080fd5b8035906020019184602083028401116401000000008311171561012857600080fd5b9091929391929390505050610361565b005b610142610461565b6040518082815260200191505060405180910390f35b6101846004803603602081101561016e57600080fd5b8101908080359060200190929190505050610467565b6040518082815260200191505060405180910390f35b6101c6600480360360208110156101b057600080fd5b81019080803590602001909291905050506106bf565b005b6101d061077d565b6040518082815260200191505060405180910390f35b6101ee610785565b604051808273ffffffffffffffffffffffffffffffffffffffff1673ffffffffffffffffffffffffffffffffffffffff16815260200191505060405180910390f35b61025c6004803603602081101561024657600080fd5b81019080803590602001909291905050506107ab565b6040518082815260200191505060405180910390f35b61027a6107c3565b6040518082815260200191505060405180910390f35b610346600480360360208110156102a657600080fd5b81019080803590602001906401000000008111156102c357600080fd5b8201836020820111156102d557600080fd5b803590602001918460208302840111640100000000831117156102f757600080fd5b919080806020026020016040519081016040528093929190818152602001838360200280828437600081840152601f19601f8201169050808301925050505050505091929192905050506107c9565b6040518082815260200191505060405180910390f35b602081565b602160009054906101000a900473ffffffffffffffffffffffffffffffffffffffff1673ffffffffffffffffffffffffffffffffffffffff163373ffffffffffffffffffffffffffffffffffffffff1614610407576040517f08c379a000000000000000000000000000000000000000000000000000000000815260040180806020018281038252602e815260200180610df7602e913960400191505060405180910390fd5b6000610453838380806020026020016040519081016040528093929190818152602001838360200280828437600081840152601f19601f820116905080830192505050505050506107c9565b905080602381905550505050565b60005481565b60008054602060020a116104c6576040517f08c379a0000000000000000000000000000000000000000000000000000000008152600401808060200182810382526023815260200180610dd46023913960400191505060405180910390fd5b60006104d3600054610d17565b905060006001602060020a600054010390506000602885901b90506000806104f9610d8e565b600080600090505b602081101561064a578781141561055457856001896020811061052057fe5b0160006101000a8154817affffffffffffffffffffffffffffffffffffffffffffffffffffff021916908360281c02179055505b60006002888161056057fe5b0614156105e1576001816020811061057457fe5b0160009054906101000a900460281b945085935060405185815284601b8201526020846036836002600019fa925082600081146105b0576105b2565bfe5b50506028836000600181106105c357fe5b6020020151901b9550600260018803816105d957fe5b04965061063d565b859450600060281b935060405185815284601b8201526020846036836002600019fa9250826000811461061357610615565bfe5b505060288360006001811061062657fe5b6020020151901b95506002878161063957fe5b0496505b8080600101915050610501565b508464ffffffffff191697507f6a82ba2aa1d2c039c41e6e2b5a5a1090d09906f060d32af9c1ac0beff7af75c06000548a8a60405180848152602001838152602001828152602001935050505060405180910390a1600080815480929190600101919050555087975050505050505050919050565b602160009054906101000a900473ffffffffffffffffffffffffffffffffffffffff1673ffffffffffffffffffffffffffffffffffffffff163373ffffffffffffffffffffffffffffffffffffffff1614610765576040517f08c379a000000000000000000000000000000000000000000000000000000000815260040180806020018281038252602e815260200180610df7602e913960400191505060405180910390fd5b600061077082610467565b9050806023819055505050565b602060020a81565b602160009054906101000a900473ffffffffffffffffffffffffffffffffffffffff1681565b60226020528060005260406000206000915090505481565b60235481565b60008082519050600054602060020a1161082e576040517f08c379a0000000000000000000000000000000000000000000000000000000008152600401808060200182810382526023815260200180610dd46023913960400191505060405180910390fd5b600054602060020a0381111561087c5760008054602060020a038203905060008090505b8181101561086e57600185510385528080600101915050610852565b50600054602060020a039150505b600080600080600061088c610d8e565b6000610896610db0565b60016020806020026040519081016040528092919082602080156108e4576020028201915b8160009054906101000a900460281b64ffffffffff1916815260200190600101908083116108bb575b505050505090506000805490505b8960005401811015610a9c5760288c60005483038151811061091057fe5b6020026020010151901b96506001602060020a820103975061093181610d17565b985060008914156109695786828a6020811061094957fe5b602002019064ffffffffff1916908164ffffffffff191681525050610a8f565b6000600190505b898111610a6557600060028a8161098357fe5b0614156109fc5782600182036020811061099957fe5b6020020151965087955060405187815286601b8201526020866036836002600019fa945084600081146109cb576109cd565bfe5b50506028856000600181106109de57fe5b6020020151901b9750600260018a03816109f457fe5b049850610a58565b879650600060281b955060405187815286601b8201526020866036836002600019fa94508460008114610a2e57610a30565bfe5b5050602885600060018110610a4157fe5b6020020151901b975060028981610a5457fe5b0498505b8080600101915050610970565b5086828a60208110610a7357fe5b602002019064ffffffffff1916908164ffffffffff1916815250505b80806001019150506108f2565b5060008090505b6020811015610b4d57818160208110610ab857fe5b602002015164ffffffffff191660018260208110610ad257fe5b0160009054906101000a900460281b64ffffffffff191614610b4057818160208110610afa57fe5b602002015160018260208110610b0c57fe5b0160006101000a8154817affffffffffffffffffffffffffffffffffffffffffffffffffffff021916908360281c02179055505b8080600101915050610aa3565b50610b56610db0565b905060006001890190505b60208111610c6157600060028981610b7557fe5b061415610bf857600180820360208110610b8b57fe5b0160009054906101000a900460281b955086945060405186815285601b8201526020856036836002600019fa93508360008114610bc757610bc9565bfe5b5050602884600060018110610bda57fe5b6020020151901b965060026001890381610bf057fe5b049750610c54565b869550600060281b945060405186815285601b8201526020856036836002600019fa93508360008114610c2a57610c2c565bfe5b5050602884600060018110610c3d57fe5b6020020151901b965060028881610c5057fe5b0497505b8080600101915050610b61565b508564ffffffffff191699507f8ec50f97970775682a68d3c6f9caedf60fd82448ea40706b8b65d6c03648b9226000548c8c6040518084815260200180602001838152602001828103825284818151815260200191508051906020019060200280838360005b83811015610ce2578082015181840152602081019050610cc7565b5050505090500194505050505060405180910390a1886000808282540192505081905550899950505050505050505050919050565b6000809050600160028381610d2857fe5b061415610d89576000600190506000600290506000600182901b90505b6000841415610d855760008183600188010381610d5e57fe5b061415610d6d57829350610d80565b809150600181901b905082806001019350505b610d45565b5050505b919050565b6040518060200160405280600190602082028038833980820191505090505090565b60405180610400016040528060209060208202803883398082019150509050509056fe5468657265206973206e6f207370616365206c65667420696e2074686520747265652e596f7520617265206e6f7420617574686f726973656420746f20696e766f6b6520746869732066756e6374696f6ea165627a7a72305820eb9d193a194b3d8ffa093d923e39cd2a39d5cdf67010bd7e5f6e2d652e04ab320029",
  "source": "/**\nContract to manage permissions to update the leaves of the imported MerkleTree contract (which is the base contract which handles tree inserts and updates).\n\n@Author iAmMichaelConnor\n*/\npragma solidity ^0.5.8;\n\nimport \"./MerkleTreeSHA.sol\";\n\ncontract MerkleTreeControllerSHA is MerkleTreeSHA {\n\n    address public owner; // We'll demonstrate simple 'permissioning' to update leaves by only allowing the owner to update leaves.\n\n    mapping(bytes32 => bytes32) public roots; // Example of a way to hold every root that's been calculated by this contract. This isn't actually used by this simple example-contract.\n\n    bytes32 public latestRoot; // Example of a way to hold the latest root so that users can retrieve it. This isn't actually used by this simple example-contract.\n\n    /**\n    We'll demonstrate simple 'permissioning' to update leaves by only allowing the owner to update leaves.\n    @dev Throws if called by any account other than the owner.\n    */\n    modifier onlyOwner() {\n        require(msg.sender == owner, \"You are not authorised to invoke this function\");\n        _;\n    }\n\n    /**\n    @notice Constructor for the MerkleTreeController contract.\n    */\n    constructor() public {\n        owner = msg.sender;\n    }\n\n    /**\n    @notice Append a leaf to the tree\n    @param leafValue - the value of the leaf being inserted.\n    */\n    function _insertLeaf(bytes32 leafValue) external onlyOwner {\n\n        bytes32 root = insertLeaf(leafValue); // recalculate the root of the tree\n\n        // roots[root] = root;\n\n        latestRoot = root;\n    }\n\n    /**\n    @notice Append leaves to the tree\n    @param leafValues - the values of the leaves being inserted.\n    */\n    function _insertLeaves(bytes32[] calldata leafValues) external onlyOwner {\n\n        bytes32 root = insertLeaves(leafValues); // recalculate the root of the tree\n\n        // roots[root] = root;\n\n        latestRoot = root;\n    }\n}\n",
  "sourcePath": "/Users/em137vl/Documents/git/timber/deployer/contracts/MerkleTreeControllerSHA.sol",
  "compiler": {
    "name": "solc",
    "version": "0.5.8+commit.23d335f2.Emscripten.clang"
  },
  "schemaVersion": "3.0.9",
  "updatedAt": "2020-04-26T15:32:02.590Z",
  "devdoc": {
    "methods": {
      "_insertLeaf(bytes32)": {
        "params": {
          "leafValue": "- the value of the leaf being inserted."
        }
      },
      "_insertLeaves(bytes32[])": {
        "params": {
          "leafValues": "- the values of the leaves being inserted."
        }
      },
      "insertLeaf(bytes32)": {
        "params": {
          "leafValue": "- the value of the leaf being inserted."
        },
        "return": "bytes32 - the root of the merkle tree, after the insert."
      },
      "insertLeaves(bytes32[])": {
        "params": {
          "leafValues": "- the values of the leaves being inserted."
        },
        "return": "bytes32[] - the root of the merkle tree, after all the inserts."
      }
    }
  },
  "userdoc": {
    "methods": {
      "_insertLeaf(bytes32)": {
        "notice": "Append a leaf to the tree"
      },
      "_insertLeaves(bytes32[])": {
        "notice": "Append leaves to the tree"
      },
      "constructor": "Constructor for the MerkleTreeController contract.",
      "insertLeaf(bytes32)": {
        "notice": "Insert a leaf into the Merkle Tree, update the root, and update any values in the (persistently stored) frontier."
      },
      "insertLeaves(bytes32[])": {
        "notice": "Insert multiple leaves into the Merkle Tree, and then update the root, and update any values in the (persistently stored) frontier."
      }
    }
  }
}