{
  "contractName": "MiMC",
  "abi": [
    {
      "constant": true,
      "inputs": [
        {
          "name": "in_x",
          "type": "uint256"
        },
        {
          "name": "in_k",
          "type": "uint256"
        }
      ],
      "name": "Encipher",
      "outputs": [
        {
          "name": "out_x",
          "type": "uint256"
        }
      ],
      "payable": false,
      "stateMutability": "pure",
      "type": "function"
    },
    {
      "constant": true,
      "inputs": [
        {
          "name": "in_msgs",
          "type": "uint256[]"
        },
        {
          "name": "in_key",
          "type": "uint256"
        }
      ],
      "name": "Hash",
      "outputs": [
        {
          "name": "",
          "type": "uint256"
        }
      ],
      "payable": false,
      "stateMutability": "pure",
      "type": "function"
    },
    {
      "constant": true,
      "inputs": [
        {
          "name": "in_msgs",
          "type": "bytes32[]"
        }
      ],
      "name": "mimcHash",
      "outputs": [
        {
          "name": "",
          "type": "bytes32"
        }
      ],
      "payable": false,
      "stateMutability": "pure",
      "type": "function"
    },
    {
      "constant": true,
      "inputs": [
        {
          "name": "in_msgs",
          "type": "bytes32[2]"
        }
      ],
      "name": "mimcHash2",
      "outputs": [
        {
          "name": "",
          "type": "bytes32"
        }
      ],
      "payable": false,
      "stateMutability": "pure",
      "type": "function"
    }
  ],
  "bytecode": "0x608060405234801561001057600080fd5b50610665806100206000396000f3fe608060405234801561001057600080fd5b506004361061004c5760003560e01c80630fa16e3814610051578063599a29e41461012757806396d8d820146101a0578063aa0324a0146101ec575b600080fd5b6101116004803603604081101561006757600080fd5b810190808035906020019064010000000081111561008457600080fd5b82018360208201111561009657600080fd5b803590602001918460208302840111640100000000831117156100b857600080fd5b919080806020026020016040519081016040528093929190818152602001838360200280828437600081840152601f19601f820116905080830192505050505050509192919290803590602001909291905050506102b8565b6040518082815260200191505060405180910390f35b61018a6004803603604081101561013d57600080fd5b8101908080604001906002806020026040519081016040528092919082600260200280828437600081840152601f19601f8201169050808301925050505050509192919290505050610342565b6040518082815260200191505060405180910390f35b6101d6600480360360408110156101b657600080fd5b8101908080359060200190929190803590602001909291905050506103eb565b6040518082815260200191505060405180910390f35b6102a26004803603602081101561020257600080fd5b810190808035906020019064010000000081111561021f57600080fd5b82018360208201111561023157600080fd5b8035906020019184602083028401116401000000008311171561025357600080fd5b919080806020026020016040519081016040528093929190818152602001838360200280828437600081840152601f19601f820116905080830192505050505050509192919290505050610475565b6040518082815260200191505060405180910390f35b600080636d696d6360e01b905061033984848360405160200180827bffffffffffffffffffffffffffffffffffffffffffffffffffffffff19167bffffffffffffffffffffffffffffffffffffffffffffffffffffffff191681526004019150506040516020818303038152906040528051906020012060001c605b61050e565b91505092915050565b6000606060026040519080825280602002602001820160405280156103765781602001602082028038833980820191505090505b5090508260006002811061038657fe5b602002015160001c8160008151811061039b57fe5b602002602001018181525050826001600281106103b457fe5b602002015160001c816001815181106103c957fe5b6020026020010181815250506103e08160006102b8565b60001b915050919050565b600080636d696d6360e01b905061046c84848360405160200180827bffffffffffffffffffffffffffffffffffffffffffffffffffffffff19167bffffffffffffffffffffffffffffffffffffffffffffffffffffffff191681526004019150506040516020818303038152906040528051906020012060001c605b6105ad565b91505092915050565b6000606082516040519080825280602002602001820160405280156104a95781602001602082028038833980820191505090505b50905060008090505b83518110156104f7578381815181106104c757fe5b602002602001015160001c8282815181106104de57fe5b60200260200101818152505080806001019150506104b2565b506105038160006102b8565b60001b915050919050565b60008084905060007f30644e72e131a029b85045b68181585d2833e84879b9709143e1f593f0000001905060008090505b875181101561059f578161056889838151811061055857fe5b60200260200101518589896105ad565b838a848151811061057557fe5b60200260200101518161058457fe5b068501018161058f57fe5b069250808060010191505061053f565b829350505050949350505050565b600060018210156105bd57600080fd5b604051602081016040528381527f30644e72e131a029b85045b68181585d2833e84879b9709143e1f593f0000001600080855b60008111156106265760208520855283898587518d080892508383840991508383858685860985090999506001810390506105f0565b5082888a0894505050505094935050505056fea165627a7a7230582057f3f69f98f532fcb7ba668097539f89b31908c1b3b835b56899aa0658a495df0029",
  "source": "// Copyright (c) 2018 HarryR\n// License: LGPL-3.0+\n\npragma solidity ^0.5.0;\n\n/**\n* Implements MiMC-p/p over the altBN scalar field used by zkSNARKs\n*\n* See: https://eprint.iacr.org/2016/492.pdf\n*\n* Round constants are generated in sequence from a seed\n*/\ncontract MiMC\n{\n    function GetScalarField ()\n        internal pure returns (uint256)\n    {\n        return 0x30644e72e131a029b85045b68181585d2833e84879b9709143e1f593f0000001; //base of field used\n    }\n\n    function Encipher( uint256 in_x, uint256 in_k )\n        public pure returns(uint256 out_x)\n    {\n        bytes4 seed = 0x6d696d63; //this is 'mimc' in hex\n        return MiMCpe7( in_x, in_k, uint256(keccak256(abi.encodePacked(seed))), 91 );\n    }\n\n    /**\n    * MiMC-p/p with exponent of 7\n    *\n    * Recommended at least 46 rounds, for a polynomial degree of 2^126\n    */\n    function MiMCpe7( uint256 in_x, uint256 in_k, uint256 in_seed, uint256 round_count )\n        internal pure returns(uint256 out_x)\n    {\n        assembly {\n            if lt(round_count, 1) { revert(0, 0) }\n\n            // Initialise round constants, k will be hashed\n            let c := mload(0x40)\n            mstore(0x40, add(c, 32))\n            mstore(c, in_seed)\n\n            let localQ := 0x30644e72e131a029b85045b68181585d2833e84879b9709143e1f593f0000001\n            let t\n            let a\n\n            // Further n-2 subsequent rounds include a round constant\n            for { let i := round_count } gt(i, 0) { i := sub(i, 1) } {\n                // c = H(c)\n                mstore(c, keccak256(c, 32))\n\n                // x = pow(x + c_i, 7, p) + k\n                t := addmod(addmod(in_x, mload(c), localQ), in_k, localQ)              // t = x + c_i + k\n                a := mulmod(t, t, localQ)                                              // t^2\n                in_x := mulmod(mulmod(a, mulmod(a, a, localQ), localQ), t, localQ)     // t^7\n            }\n\n            // Result adds key again as blinding factor\n            out_x := addmod(in_x, in_k, localQ)\n        }\n    }\n\n    function MiMCpe7_mp( uint256[] memory in_x, uint256 in_k, uint256 in_seed, uint256 round_count )\n        internal pure returns (uint256)\n    {\n        uint256 r = in_k;\n        uint256 localQ = 0x30644e72e131a029b85045b68181585d2833e84879b9709143e1f593f0000001;\n        uint256 i;\n        for( i = 0; i < in_x.length; i++ )\n        {\n            r = (r + (in_x[i] % localQ) + MiMCpe7(in_x[i], r, in_seed, round_count)) % localQ;\n        }\n        return r;\n    }\n\n    function Hash( uint256[] memory in_msgs, uint256 in_key )\n        public pure returns (uint256)\n    {\n        bytes4 seed = 0x6d696d63; //this is 'mimc' in hex\n        return MiMCpe7_mp( in_msgs, in_key, uint256(keccak256(abi.encodePacked(seed))), 91 );\n    }\n\n    function mimcHash( bytes32[] memory in_msgs )\n        public pure returns (bytes32)\n    {\n        uint256[] memory msgs = new uint256[](in_msgs.length);\n        for ( uint256 i=0; i < in_msgs.length; i++) {\n          msgs[i] = uint256(in_msgs[i]); //convert to uints so we can do arithmetic\n        }\n        return bytes32(Hash( msgs, 0 ));\n    }\n\n    function mimcHash2( bytes32[2] memory in_msgs )\n        public pure returns (bytes32)\n    {\n        uint256[] memory msgs = new uint256[](in_msgs.length);\n          msgs[0] = uint256(in_msgs[0]); //convert to uints so we can do arithmetic\n          msgs[1] = uint256(in_msgs[1]); //convert to uints so we can do arithmetic\n        return bytes32(Hash( msgs, 0 ));\n    }\n  }\n",
  "sourcePath": "/Users/miranda.Wooduk.ey.com/nightfallmimc/timber/deployer/contracts/MiMC.sol",
  "compiler": {
    "name": "solc",
    "version": "0.5.8+commit.23d335f2.Emscripten.clang"
  },
  "schemaVersion": "3.0.19",
  "updatedAt": "2020-02-11T14:32:09.448Z",
  "devdoc": {
    "methods": {}
  },
  "userdoc": {
    "methods": {},
    "notice": "Implements MiMC-p/p over the altBN scalar field used by zkSNARKs * See: https://eprint.iacr.org/2016/492.pdf * Round constants are generated in sequence from a seed"
  }
}